{
	"contract/lottery.sol": {
		"LotteryWCA": {
			"abi": [
				{
					"inputs": [
						{
							"internalType": "address payable",
							"name": "_marketing",
							"type": "address"
						}
					],
					"stateMutability": "nonpayable",
					"type": "constructor"
				},
				{
					"anonymous": false,
					"inputs": [
						{
							"indexed": false,
							"internalType": "uint256",
							"name": "time",
							"type": "uint256"
						},
						{
							"indexed": true,
							"internalType": "address",
							"name": "adress",
							"type": "address"
						},
						{
							"indexed": false,
							"internalType": "uint256",
							"name": "userId",
							"type": "uint256"
						},
						{
							"indexed": false,
							"internalType": "uint8",
							"name": "round",
							"type": "uint8"
						}
					],
					"name": "Buyround",
					"type": "event"
				},
				{
					"anonymous": false,
					"inputs": [
						{
							"indexed": false,
							"internalType": "uint256",
							"name": "time",
							"type": "uint256"
						},
						{
							"indexed": true,
							"internalType": "address",
							"name": "adress",
							"type": "address"
						},
						{
							"indexed": false,
							"internalType": "uint256",
							"name": "userId",
							"type": "uint256"
						},
						{
							"indexed": false,
							"internalType": "uint8",
							"name": "round",
							"type": "uint8"
						},
						{
							"indexed": false,
							"internalType": "uint16",
							"name": "newMaxPayouts",
							"type": "uint16"
						}
					],
					"name": "IncreaseroundMaxPayouts",
					"type": "event"
				},
				{
					"anonymous": false,
					"inputs": [
						{
							"indexed": false,
							"internalType": "uint256",
							"name": "time",
							"type": "uint256"
						},
						{
							"indexed": true,
							"internalType": "address",
							"name": "adress",
							"type": "address"
						},
						{
							"indexed": false,
							"internalType": "uint256",
							"name": "referrerId",
							"type": "uint256"
						},
						{
							"indexed": false,
							"internalType": "uint256",
							"name": "referralId",
							"type": "uint256"
						},
						{
							"indexed": false,
							"internalType": "uint8",
							"name": "round",
							"type": "uint8"
						},
						{
							"indexed": false,
							"internalType": "uint256",
							"name": "rewardValue",
							"type": "uint256"
						}
					],
					"name": "MissedReferralPayout",
					"type": "event"
				},
				{
					"anonymous": false,
					"inputs": [
						{
							"indexed": false,
							"internalType": "uint256",
							"name": "time",
							"type": "uint256"
						},
						{
							"indexed": true,
							"internalType": "address",
							"name": "adress",
							"type": "address"
						},
						{
							"indexed": false,
							"internalType": "uint256",
							"name": "referrerId",
							"type": "uint256"
						},
						{
							"indexed": false,
							"internalType": "uint256",
							"name": "referralId",
							"type": "uint256"
						},
						{
							"indexed": false,
							"internalType": "uint8",
							"name": "round",
							"type": "uint8"
						},
						{
							"indexed": false,
							"internalType": "uint256",
							"name": "rewardValue",
							"type": "uint256"
						}
					],
					"name": "MissedReferralPostPayout",
					"type": "event"
				},
				{
					"anonymous": false,
					"inputs": [
						{
							"indexed": false,
							"internalType": "uint256",
							"name": "time",
							"type": "uint256"
						},
						{
							"indexed": true,
							"internalType": "address",
							"name": "adress",
							"type": "address"
						},
						{
							"indexed": false,
							"internalType": "uint256",
							"name": "referrerId",
							"type": "uint256"
						},
						{
							"indexed": false,
							"internalType": "uint256",
							"name": "referralId",
							"type": "uint256"
						},
						{
							"indexed": false,
							"internalType": "uint8",
							"name": "round",
							"type": "uint8"
						},
						{
							"indexed": false,
							"internalType": "uint256",
							"name": "rewardValue",
							"type": "uint256"
						}
					],
					"name": "ReferralPayout",
					"type": "event"
				},
				{
					"anonymous": false,
					"inputs": [
						{
							"indexed": false,
							"internalType": "uint256",
							"name": "time",
							"type": "uint256"
						},
						{
							"indexed": true,
							"internalType": "address",
							"name": "adress",
							"type": "address"
						},
						{
							"indexed": false,
							"internalType": "uint256",
							"name": "referrerId",
							"type": "uint256"
						},
						{
							"indexed": false,
							"internalType": "uint256",
							"name": "referralId",
							"type": "uint256"
						},
						{
							"indexed": false,
							"internalType": "uint8",
							"name": "round",
							"type": "uint8"
						},
						{
							"indexed": false,
							"internalType": "uint256",
							"name": "rewardValue",
							"type": "uint256"
						}
					],
					"name": "ReferralPostPayout",
					"type": "event"
				},
				{
					"anonymous": false,
					"inputs": [
						{
							"indexed": false,
							"internalType": "uint256",
							"name": "time",
							"type": "uint256"
						},
						{
							"indexed": true,
							"internalType": "address",
							"name": "adress",
							"type": "address"
						},
						{
							"indexed": false,
							"internalType": "uint256",
							"name": "referralId",
							"type": "uint256"
						},
						{
							"indexed": false,
							"internalType": "uint256",
							"name": "referrerId",
							"type": "uint256"
						}
					],
					"name": "UserRegistration",
					"type": "event"
				},
				{
					"anonymous": false,
					"inputs": [
						{
							"indexed": false,
							"internalType": "uint256",
							"name": "time",
							"type": "uint256"
						},
						{
							"indexed": true,
							"internalType": "address",
							"name": "WinerSecretGame",
							"type": "address"
						},
						{
							"indexed": false,
							"internalType": "uint8",
							"name": "round",
							"type": "uint8"
						},
						{
							"indexed": false,
							"internalType": "uint256",
							"name": "valueSecretPrize",
							"type": "uint256"
						}
					],
					"name": "WinerForeverGame",
					"type": "event"
				},
				{
					"anonymous": false,
					"inputs": [
						{
							"indexed": false,
							"internalType": "uint256",
							"name": "time",
							"type": "uint256"
						},
						{
							"indexed": true,
							"internalType": "address",
							"name": "payedUser",
							"type": "address"
						},
						{
							"indexed": false,
							"internalType": "uint256",
							"name": "payPrize",
							"type": "uint256"
						}
					],
					"name": "payedPrize",
					"type": "event"
				},
				{
					"anonymous": false,
					"inputs": [
						{
							"indexed": false,
							"internalType": "uint256",
							"name": "time",
							"type": "uint256"
						},
						{
							"indexed": true,
							"internalType": "address",
							"name": "adress",
							"type": "address"
						},
						{
							"indexed": false,
							"internalType": "uint256",
							"name": "userId",
							"type": "uint256"
						},
						{
							"indexed": false,
							"internalType": "uint8",
							"name": "round",
							"type": "uint8"
						}
					],
					"name": "roundDeactivation",
					"type": "event"
				},
				{
					"anonymous": false,
					"inputs": [
						{
							"indexed": false,
							"internalType": "uint256",
							"name": "time",
							"type": "uint256"
						},
						{
							"indexed": true,
							"internalType": "address",
							"name": "adress",
							"type": "address"
						},
						{
							"indexed": false,
							"internalType": "uint256",
							"name": "userId",
							"type": "uint256"
						},
						{
							"indexed": false,
							"internalType": "uint8",
							"name": "round",
							"type": "uint8"
						},
						{
							"indexed": false,
							"internalType": "uint256",
							"name": "rewardValue",
							"type": "uint256"
						},
						{
							"indexed": false,
							"internalType": "uint256",
							"name": "fromUserId",
							"type": "uint256"
						},
						{
							"indexed": false,
							"internalType": "uint256",
							"name": "RoiRound",
							"type": "uint256"
						}
					],
					"name": "roundPayout",
					"type": "event"
				},
				{
					"anonymous": false,
					"inputs": [
						{
							"indexed": false,
							"internalType": "uint256",
							"name": "time",
							"type": "uint256"
						},
						{
							"indexed": true,
							"internalType": "address",
							"name": "win",
							"type": "address"
						},
						{
							"indexed": false,
							"internalType": "uint256",
							"name": "winPrize",
							"type": "uint256"
						}
					],
					"name": "winLottery",
					"type": "event"
				},
				{
					"inputs": [
						{
							"internalType": "uint256",
							"name": "ticket",
							"type": "uint256"
						}
					],
					"name": "Lottery",
					"outputs": [],
					"stateMutability": "nonpayable",
					"type": "function"
				},
				{
					"inputs": [
						{
							"internalType": "uint256",
							"name": "",
							"type": "uint256"
						}
					],
					"name": "RoiRounds",
					"outputs": [
						{
							"internalType": "uint256",
							"name": "",
							"type": "uint256"
						}
					],
					"stateMutability": "view",
					"type": "function"
				},
				{
					"inputs": [
						{
							"internalType": "address",
							"name": "referrer",
							"type": "address"
						}
					],
					"name": "buyFirstRound",
					"outputs": [],
					"stateMutability": "payable",
					"type": "function"
				},
				{
					"inputs": [
						{
							"internalType": "uint8",
							"name": "round",
							"type": "uint8"
						}
					],
					"name": "buyround",
					"outputs": [],
					"stateMutability": "payable",
					"type": "function"
				},
				{
					"inputs": [
						{
							"internalType": "uint8",
							"name": "round",
							"type": "uint8"
						}
					],
					"name": "calcSecretPrize",
					"outputs": [
						{
							"internalType": "uint256",
							"name": "value",
							"type": "uint256"
						}
					],
					"stateMutability": "view",
					"type": "function"
				},
				{
					"inputs": [],
					"name": "getContractBalance",
					"outputs": [
						{
							"internalType": "uint256",
							"name": "",
							"type": "uint256"
						}
					],
					"stateMutability": "view",
					"type": "function"
				},
				{
					"inputs": [],
					"name": "getGlobalStatistic",
					"outputs": [
						{
							"internalType": "uint256[5]",
							"name": "result",
							"type": "uint256[5]"
						}
					],
					"stateMutability": "view",
					"type": "function"
				},
				{
					"inputs": [],
					"name": "getLotteryWiner",
					"outputs": [
						{
							"internalType": "address[50]",
							"name": "",
							"type": "address[50]"
						}
					],
					"stateMutability": "view",
					"type": "function"
				},
				{
					"inputs": [
						{
							"internalType": "address",
							"name": "userAddress",
							"type": "address"
						},
						{
							"internalType": "uint8",
							"name": "round",
							"type": "uint8"
						}
					],
					"name": "getPlaceInQueue",
					"outputs": [
						{
							"internalType": "uint256",
							"name": "",
							"type": "uint256"
						},
						{
							"internalType": "uint256",
							"name": "",
							"type": "uint256"
						}
					],
					"stateMutability": "view",
					"type": "function"
				},
				{
					"inputs": [],
					"name": "getPrize",
					"outputs": [],
					"stateMutability": "nonpayable",
					"type": "function"
				},
				{
					"inputs": [
						{
							"internalType": "address",
							"name": "userAddress",
							"type": "address"
						}
					],
					"name": "getReferrer",
					"outputs": [
						{
							"internalType": "address",
							"name": "",
							"type": "address"
						}
					],
					"stateMutability": "view",
					"type": "function"
				},
				{
					"inputs": [
						{
							"internalType": "address",
							"name": "userAddress",
							"type": "address"
						}
					],
					"name": "getReferrerId",
					"outputs": [
						{
							"internalType": "uint256",
							"name": "",
							"type": "uint256"
						}
					],
					"stateMutability": "view",
					"type": "function"
				},
				{
					"inputs": [],
					"name": "getRoiRound",
					"outputs": [
						{
							"internalType": "uint256[16]",
							"name": "",
							"type": "uint256[16]"
						}
					],
					"stateMutability": "view",
					"type": "function"
				},
				{
					"inputs": [
						{
							"internalType": "address",
							"name": "userAddress",
							"type": "address"
						}
					],
					"name": "getUser",
					"outputs": [
						{
							"internalType": "uint256",
							"name": "",
							"type": "uint256"
						},
						{
							"internalType": "uint256",
							"name": "",
							"type": "uint256"
						},
						{
							"internalType": "uint256",
							"name": "",
							"type": "uint256"
						},
						{
							"internalType": "address",
							"name": "",
							"type": "address"
						},
						{
							"internalType": "uint256",
							"name": "",
							"type": "uint256"
						},
						{
							"internalType": "uint256",
							"name": "",
							"type": "uint256"
						},
						{
							"internalType": "uint256",
							"name": "",
							"type": "uint256"
						},
						{
							"internalType": "uint256",
							"name": "",
							"type": "uint256"
						},
						{
							"internalType": "uint256",
							"name": "",
							"type": "uint256"
						},
						{
							"internalType": "uint256",
							"name": "",
							"type": "uint256"
						}
					],
					"stateMutability": "view",
					"type": "function"
				},
				{
					"inputs": [
						{
							"internalType": "uint256",
							"name": "userId",
							"type": "uint256"
						}
					],
					"name": "getUserAddressById",
					"outputs": [
						{
							"internalType": "address",
							"name": "",
							"type": "address"
						}
					],
					"stateMutability": "view",
					"type": "function"
				},
				{
					"inputs": [
						{
							"internalType": "address",
							"name": "userAddress",
							"type": "address"
						}
					],
					"name": "getUserIdByAddress",
					"outputs": [
						{
							"internalType": "uint256",
							"name": "",
							"type": "uint256"
						}
					],
					"stateMutability": "view",
					"type": "function"
				},
				{
					"inputs": [
						{
							"internalType": "address",
							"name": "userAddress",
							"type": "address"
						}
					],
					"name": "getUserrounds",
					"outputs": [
						{
							"internalType": "bool[]",
							"name": "",
							"type": "bool[]"
						},
						{
							"internalType": "uint16[]",
							"name": "",
							"type": "uint16[]"
						},
						{
							"internalType": "uint16[]",
							"name": "",
							"type": "uint16[]"
						},
						{
							"internalType": "uint16[]",
							"name": "",
							"type": "uint16[]"
						},
						{
							"internalType": "uint256[]",
							"name": "",
							"type": "uint256[]"
						},
						{
							"internalType": "uint256[]",
							"name": "",
							"type": "uint256[]"
						}
					],
					"stateMutability": "view",
					"type": "function"
				},
				{
					"inputs": [
						{
							"internalType": "address",
							"name": "userAddress",
							"type": "address"
						}
					],
					"name": "getUserroundsMissedProfit",
					"outputs": [
						{
							"internalType": "uint256[]",
							"name": "",
							"type": "uint256[]"
						},
						{
							"internalType": "uint256[]",
							"name": "",
							"type": "uint256[]"
						}
					],
					"stateMutability": "view",
					"type": "function"
				},
				{
					"inputs": [],
					"name": "getroundPrices",
					"outputs": [
						{
							"internalType": "uint256[]",
							"name": "",
							"type": "uint256[]"
						}
					],
					"stateMutability": "view",
					"type": "function"
				},
				{
					"inputs": [],
					"name": "gettimeRoundEnd",
					"outputs": [
						{
							"internalType": "uint256[16]",
							"name": "",
							"type": "uint256[16]"
						}
					],
					"stateMutability": "view",
					"type": "function"
				},
				{
					"inputs": [],
					"name": "income",
					"outputs": [],
					"stateMutability": "payable",
					"type": "function"
				},
				{
					"inputs": [
						{
							"internalType": "address",
							"name": "addr",
							"type": "address"
						}
					],
					"name": "isContract",
					"outputs": [
						{
							"internalType": "bool",
							"name": "",
							"type": "bool"
						}
					],
					"stateMutability": "view",
					"type": "function"
				},
				{
					"inputs": [
						{
							"internalType": "address",
							"name": "addr",
							"type": "address"
						}
					],
					"name": "isUserRegistered",
					"outputs": [
						{
							"internalType": "bool",
							"name": "",
							"type": "bool"
						}
					],
					"stateMutability": "view",
					"type": "function"
				},
				{
					"inputs": [
						{
							"internalType": "address",
							"name": "",
							"type": "address"
						}
					],
					"name": "lastTimeActivation",
					"outputs": [
						{
							"internalType": "uint256",
							"name": "",
							"type": "uint256"
						}
					],
					"stateMutability": "view",
					"type": "function"
				},
				{
					"inputs": [],
					"name": "marketing",
					"outputs": [
						{
							"internalType": "address payable",
							"name": "",
							"type": "address"
						}
					],
					"stateMutability": "view",
					"type": "function"
				},
				{
					"inputs": [],
					"name": "marketingPercents",
					"outputs": [
						{
							"internalType": "uint8",
							"name": "",
							"type": "uint8"
						}
					],
					"stateMutability": "view",
					"type": "function"
				},
				{
					"inputs": [
						{
							"internalType": "uint256",
							"name": "",
							"type": "uint256"
						}
					],
					"name": "nextWinerSecretGame",
					"outputs": [
						{
							"internalType": "address",
							"name": "",
							"type": "address"
						}
					],
					"stateMutability": "view",
					"type": "function"
				},
				{
					"inputs": [],
					"name": "owner",
					"outputs": [
						{
							"internalType": "address payable",
							"name": "",
							"type": "address"
						}
					],
					"stateMutability": "view",
					"type": "function"
				},
				{
					"inputs": [],
					"name": "referralRewardPercents",
					"outputs": [
						{
							"internalType": "uint8",
							"name": "",
							"type": "uint8"
						}
					],
					"stateMutability": "view",
					"type": "function"
				},
				{
					"inputs": [],
					"name": "referralRewardProfitPercents",
					"outputs": [
						{
							"internalType": "uint8",
							"name": "",
							"type": "uint8"
						}
					],
					"stateMutability": "view",
					"type": "function"
				},
				{
					"inputs": [],
					"name": "register",
					"outputs": [],
					"stateMutability": "payable",
					"type": "function"
				},
				{
					"inputs": [
						{
							"internalType": "address",
							"name": "referrer",
							"type": "address"
						}
					],
					"name": "registerWithReferrer",
					"outputs": [],
					"stateMutability": "payable",
					"type": "function"
				},
				{
					"inputs": [],
					"name": "registrationPrice",
					"outputs": [
						{
							"internalType": "uint256",
							"name": "",
							"type": "uint256"
						}
					],
					"stateMutability": "view",
					"type": "function"
				},
				{
					"inputs": [],
					"name": "rewardPayouts",
					"outputs": [
						{
							"internalType": "uint8",
							"name": "",
							"type": "uint8"
						}
					],
					"stateMutability": "view",
					"type": "function"
				},
				{
					"inputs": [],
					"name": "rewardPercents",
					"outputs": [
						{
							"internalType": "uint8",
							"name": "",
							"type": "uint8"
						}
					],
					"stateMutability": "view",
					"type": "function"
				},
				{
					"inputs": [
						{
							"internalType": "uint256",
							"name": "",
							"type": "uint256"
						}
					],
					"name": "roundPrice",
					"outputs": [
						{
							"internalType": "uint256",
							"name": "",
							"type": "uint256"
						}
					],
					"stateMutability": "view",
					"type": "function"
				},
				{
					"inputs": [],
					"name": "timeLottery",
					"outputs": [
						{
							"internalType": "uint256",
							"name": "",
							"type": "uint256"
						}
					],
					"stateMutability": "view",
					"type": "function"
				},
				{
					"inputs": [
						{
							"internalType": "uint256",
							"name": "",
							"type": "uint256"
						}
					],
					"name": "timeRoudsEnd",
					"outputs": [
						{
							"internalType": "uint256",
							"name": "",
							"type": "uint256"
						}
					],
					"stateMutability": "view",
					"type": "function"
				},
				{
					"inputs": [
						{
							"internalType": "uint256",
							"name": "",
							"type": "uint256"
						}
					],
					"name": "todayWiner",
					"outputs": [
						{
							"internalType": "address",
							"name": "",
							"type": "address"
						}
					],
					"stateMutability": "view",
					"type": "function"
				},
				{
					"inputs": [],
					"name": "todayWinerValue",
					"outputs": [
						{
							"internalType": "uint256",
							"name": "",
							"type": "uint256"
						}
					],
					"stateMutability": "view",
					"type": "function"
				},
				{
					"inputs": [
						{
							"internalType": "address",
							"name": "",
							"type": "address"
						}
					],
					"name": "users",
					"outputs": [
						{
							"internalType": "uint256",
							"name": "id",
							"type": "uint256"
						},
						{
							"internalType": "uint256",
							"name": "registrationTimestamp",
							"type": "uint256"
						},
						{
							"internalType": "address",
							"name": "referrer",
							"type": "address"
						},
						{
							"internalType": "uint256",
							"name": "referrals",
							"type": "uint256"
						},
						{
							"internalType": "uint256",
							"name": "referralPayoutSum",
							"type": "uint256"
						},
						{
							"internalType": "uint256",
							"name": "roundsRewardSum",
							"type": "uint256"
						},
						{
							"internalType": "uint256",
							"name": "missedReferralPayoutSum",
							"type": "uint256"
						},
						{
							"internalType": "uint8",
							"name": "maxRound",
							"type": "uint8"
						},
						{
							"internalType": "uint256",
							"name": "turnover",
							"type": "uint256"
						}
					],
					"stateMutability": "view",
					"type": "function"
				},
				{
					"stateMutability": "payable",
					"type": "receive"
				}
			],
			"devdoc": {
				"kind": "dev",
				"methods": {},
				"version": 1
			},
			"evm": {
				"assembly": "    /* \"contract/lottery.sol\":479:19375  contract LotteryWCA is ReentrancyGuard {\r... */\n  mstore(0x40, 0x80)\n    /* \"contract/lottery.sol\":3140:3141  9 */\n  0x09\n    /* \"contract/lottery.sol\":3102:3141  uint8 public referralRewardPercents = 9 */\n  0x66\n  exp(0x0100, 0x00)\n  dup2\n  sload\n  dup2\n  0xff\n  mul\n  not\n  and\n  swap1\n  dup4\n  0xff\n  and\n  mul\n  or\n  swap1\n  sstore\n  pop\n    /* \"contract/lottery.sol\":3192:3193  8 */\n  0x08\n    /* \"contract/lottery.sol\":3148:3193  uint8 public referralRewardProfitPercents = 8 */\n  0x66\n  exp(0x0100, 0x01)\n  dup2\n  sload\n  dup2\n  0xff\n  mul\n  not\n  and\n  swap1\n  dup4\n  0xff\n  and\n  mul\n  or\n  swap1\n  sstore\n  pop\n    /* \"contract/lottery.sol\":3280:3658  uint[] public roundPrice = [\r... */\n  mload(0x40)\n  dup1\n  0x0200\n  add\n  0x40\n  mstore\n  dup1\n    /* \"contract/lottery.sol\":3318:3325  0 ether */\n  0x00\n    /* \"contract/lottery.sol\":3280:3658  uint[] public roundPrice = [\r... */\n  0xffffffffffffffff\n  and\n  dup2\n  mstore\n  0x20\n  add\n    /* \"contract/lottery.sol\":3340:3350  0.05 ether */\n  0xb1a2bc2ec50000\n    /* \"contract/lottery.sol\":3280:3658  uint[] public roundPrice = [\r... */\n  0xffffffffffffffff\n  and\n  dup2\n  mstore\n  0x20\n  add\n    /* \"contract/lottery.sol\":3361:3371  0.08 ether */\n  0x011c37937e080000\n    /* \"contract/lottery.sol\":3280:3658  uint[] public roundPrice = [\r... */\n  0xffffffffffffffff\n  and\n  dup2\n  mstore\n  0x20\n  add\n    /* \"contract/lottery.sol\":3383:3393  0.13 ether */\n  0x01cdda4faccd0000\n    /* \"contract/lottery.sol\":3280:3658  uint[] public roundPrice = [\r... */\n  0xffffffffffffffff\n  and\n  dup2\n  mstore\n  0x20\n  add\n    /* \"contract/lottery.sol\":3406:3416  0.22 ether */\n  0x030d98d59a960000\n    /* \"contract/lottery.sol\":3280:3658  uint[] public roundPrice = [\r... */\n  0xffffffffffffffff\n  and\n  dup2\n  mstore\n  0x20\n  add\n    /* \"contract/lottery.sol\":3428:3438  0.33 ether */\n  0x0494654067e10000\n    /* \"contract/lottery.sol\":3280:3658  uint[] public roundPrice = [\r... */\n  0xffffffffffffffff\n  and\n  dup2\n  mstore\n  0x20\n  add\n    /* \"contract/lottery.sol\":3451:3460  0.5 ether */\n  0x06f05b59d3b20000\n    /* \"contract/lottery.sol\":3280:3658  uint[] public roundPrice = [\r... */\n  0xffffffffffffffff\n  and\n  dup2\n  mstore\n  0x20\n  add\n    /* \"contract/lottery.sol\":3472:3481  0.7 ether */\n  0x09b6e64a8ec60000\n    /* \"contract/lottery.sol\":3280:3658  uint[] public roundPrice = [\r... */\n  0xffffffffffffffff\n  and\n  dup2\n  mstore\n  0x20\n  add\n    /* \"contract/lottery.sol\":3494:3504  1.05 ether */\n  0x0e92596fd6290000\n    /* \"contract/lottery.sol\":3280:3658  uint[] public roundPrice = [\r... */\n  0xffffffffffffffff\n  and\n  dup2\n  mstore\n  0x20\n  add\n    /* \"contract/lottery.sol\":3515:3525  1.45 ether */\n  0x141f6f514c510000\n    /* \"contract/lottery.sol\":3280:3658  uint[] public roundPrice = [\r... */\n  0xffffffffffffffff\n  and\n  dup2\n  mstore\n  0x20\n  add\n    /* \"contract/lottery.sol\":3537:3547  1.95 ether */\n  0x1b0fcaab20030000\n    /* \"contract/lottery.sol\":3280:3658  uint[] public roundPrice = [\r... */\n  0xffffffffffffffff\n  and\n  dup2\n  mstore\n  0x20\n  add\n    /* \"contract/lottery.sol\":3559:3568  2.4 ether */\n  0x214e8348c4f00000\n    /* \"contract/lottery.sol\":3280:3658  uint[] public roundPrice = [\r... */\n  0xffffffffffffffff\n  and\n  dup2\n  mstore\n  0x20\n  add\n    /* \"contract/lottery.sol\":3580:3589  3.5 ether */\n  0x30927f74c9de0000\n    /* \"contract/lottery.sol\":3280:3658  uint[] public roundPrice = [\r... */\n  0xffffffffffffffff\n  and\n  dup2\n  mstore\n  0x20\n  add\n    /* \"contract/lottery.sol\":3601:3610  5.2 ether */\n  0x482a1c7300080000\n    /* \"contract/lottery.sol\":3280:3658  uint[] public roundPrice = [\r... */\n  0xffffffffffffffff\n  and\n  dup2\n  mstore\n  0x20\n  add\n    /* \"contract/lottery.sol\":3622:3631  7.3 ether */\n  0x654ecf52ac5a0000\n    /* \"contract/lottery.sol\":3280:3658  uint[] public roundPrice = [\r... */\n  0xffffffffffffffff\n  and\n  dup2\n  mstore\n  0x20\n  add\n    /* \"contract/lottery.sol\":3643:3651  10 ether */\n  0x8ac7230489e80000\n    /* \"contract/lottery.sol\":3280:3658  uint[] public roundPrice = [\r... */\n  0xffffffffffffffff\n  and\n  dup2\n  mstore\n  pop\n  0x68\n  swap1\n  0x10\n  tag_1\n  swap3\n  swap2\n  swap1\n  tag_2\n  jump\t// in\ntag_1:\n  pop\n    /* \"contract/lottery.sol\":3704:3705  1 */\n  0x01\n    /* \"contract/lottery.sol\":3684:3694  roundPrice */\n  0x68\n    /* \"contract/lottery.sol\":3684:3701  roundPrice.length */\n  dup1\n  sload\n  swap1\n  pop\n    /* \"contract/lottery.sol\":3684:3705  roundPrice.length - 1 */\n  sub\n    /* \"contract/lottery.sol\":3665:3705  uint totalrounds = roundPrice.length - 1 */\n  0x69\n  sstore\n    /* \"contract/lottery.sol\":3729:3730  2 */\n  0x02\n    /* \"contract/lottery.sol\":3712:3730  uint newUserId = 2 */\n  0x6a\n  sstore\n    /* \"contract/lottery.sol\":3941:4789  constructor(address payable _marketing) public {\r... */\n  callvalue\n  dup1\n  iszero\n  tag_3\n  jumpi\n  0x00\n  dup1\n  revert\ntag_3:\n  pop\n  mload(0x40)\n  sub(codesize, bytecodeSize)\n  dup1\n  bytecodeSize\n  dup4\n  codecopy\n  dup2\n  dup2\n  add\n  0x40\n  mstore\n  0x20\n  dup2\n  lt\n  iszero\n  tag_4\n  jumpi\n  0x00\n  dup1\n  revert\ntag_4:\n  dup2\n  add\n  swap1\n  dup1\n  dup1\n  mload\n  swap1\n  0x20\n  add\n  swap1\n  swap3\n  swap2\n  swap1\n  pop\n  pop\n  pop\n    /* \"contract/lottery.sol\":136:137  1 */\n  0x01\n    /* \"contract/lottery.sol\":254:261  _status */\n  0x00\n    /* \"contract/lottery.sol\":254:276  _status = _NOT_ENTERED */\n  dup2\n  swap1\n  sstore\n  pop\n    /* \"contract/lottery.sol\":4015:4025  msg.sender */\n  caller\n    /* \"contract/lottery.sol\":3999:4004  owner */\n  0x66\n  0x02\n    /* \"contract/lottery.sol\":3999:4026  owner = payable(msg.sender) */\n  0x0100\n  exp\n  dup2\n  sload\n  dup2\n  0xffffffffffffffffffffffffffffffffffffffff\n  mul\n  not\n  and\n  swap1\n  dup4\n  0xffffffffffffffffffffffffffffffffffffffff\n  and\n  mul\n  or\n  swap1\n  sstore\n  pop\n    /* \"contract/lottery.sol\":4049:4059  _marketing */\n  dup1\n    /* \"contract/lottery.sol\":4037:4046  marketing */\n  0x67\n  0x00\n    /* \"contract/lottery.sol\":4037:4059  marketing = _marketing */\n  0x0100\n  exp\n  dup2\n  sload\n  dup2\n  0xffffffffffffffffffffffffffffffffffffffff\n  mul\n  not\n  and\n  swap1\n  dup4\n  0xffffffffffffffffffffffffffffffffffffffff\n  and\n  mul\n  or\n  swap1\n  sstore\n  pop\n    /* \"contract/lottery.sol\":4085:4396  User({\r... */\n  mload(0x40)\n  dup1\n  0x0120\n  add\n  0x40\n  mstore\n  dup1\n    /* \"contract/lottery.sol\":4110:4111  1 */\n  0x01\n    /* \"contract/lottery.sol\":4085:4396  User({\r... */\n  dup2\n  mstore\n  0x20\n  add\n    /* \"contract/lottery.sol\":4149:4152  now */\n  timestamp\n    /* \"contract/lottery.sol\":4085:4396  User({\r... */\n  dup2\n  mstore\n  0x20\n  add\n    /* \"contract/lottery.sol\":4186:4187  0 */\n  0x00\n    /* \"contract/lottery.sol\":4085:4396  User({\r... */\n  0xffffffffffffffffffffffffffffffffffffffff\n  and\n  dup2\n  mstore\n  0x20\n  add\n    /* \"contract/lottery.sol\":4215:4216  0 */\n  0x00\n    /* \"contract/lottery.sol\":4085:4396  User({\r... */\n  dup2\n  mstore\n  0x20\n  add\n    /* \"contract/lottery.sol\":4251:4252  0 */\n  0x00\n    /* \"contract/lottery.sol\":4085:4396  User({\r... */\n  dup2\n  mstore\n  0x20\n  add\n    /* \"contract/lottery.sol\":4285:4286  0 */\n  0x00\n    /* \"contract/lottery.sol\":4085:4396  User({\r... */\n  dup2\n  mstore\n  0x20\n  add\n    /* \"contract/lottery.sol\":4327:4328  0 */\n  0x00\n    /* \"contract/lottery.sol\":4085:4396  User({\r... */\n  dup2\n  mstore\n  0x20\n  add\n    /* \"contract/lottery.sol\":4354:4355  0 */\n  0x00\n    /* \"contract/lottery.sol\":4085:4396  User({\r... */\n  0xff\n  and\n  dup2\n  mstore\n  0x20\n  add\n    /* \"contract/lottery.sol\":4381:4382  0 */\n  0x00\n    /* \"contract/lottery.sol\":4085:4396  User({\r... */\n  dup2\n  mstore\n  pop\n    /* \"contract/lottery.sol\":4070:4075  users */\n  0x6b\n    /* \"contract/lottery.sol\":4070:4082  users[owner] */\n  0x00\n    /* \"contract/lottery.sol\":4076:4081  owner */\n  0x66\n  0x02\n  swap1\n  sload\n  swap1\n  0x0100\n  exp\n  swap1\n  div\n  0xffffffffffffffffffffffffffffffffffffffff\n  and\n    /* \"contract/lottery.sol\":4070:4082  users[owner] */\n  0xffffffffffffffffffffffffffffffffffffffff\n  and\n  0xffffffffffffffffffffffffffffffffffffffff\n  and\n  dup2\n  mstore\n  0x20\n  add\n  swap1\n  dup2\n  mstore\n  0x20\n  add\n  0x00\n  keccak256\n    /* \"contract/lottery.sol\":4070:4396  users[owner] = User({\r... */\n  0x00\n  dup3\n  add\n  mload\n  dup2\n  0x00\n  add\n  sstore\n  0x20\n  dup3\n  add\n  mload\n  dup2\n  0x01\n  add\n  sstore\n  0x40\n  dup3\n  add\n  mload\n  dup2\n  0x02\n  add\n  exp(0x0100, 0x00)\n  dup2\n  sload\n  dup2\n  0xffffffffffffffffffffffffffffffffffffffff\n  mul\n  not\n  and\n  swap1\n  dup4\n  0xffffffffffffffffffffffffffffffffffffffff\n  and\n  mul\n  or\n  swap1\n  sstore\n  pop\n  0x60\n  dup3\n  add\n  mload\n  dup2\n  0x03\n  add\n  sstore\n  0x80\n  dup3\n  add\n  mload\n  dup2\n  0x04\n  add\n  sstore\n  0xa0\n  dup3\n  add\n  mload\n  dup2\n  0x05\n  add\n  sstore\n  0xc0\n  dup3\n  add\n  mload\n  dup2\n  0x06\n  add\n  sstore\n  0xe0\n  dup3\n  add\n  mload\n  dup2\n  0x08\n  add\n  exp(0x0100, 0x00)\n  dup2\n  sload\n  dup2\n  0xff\n  mul\n  not\n  and\n  swap1\n  dup4\n  0xff\n  and\n  mul\n  or\n  swap1\n  sstore\n  pop\n  0x0100\n  dup3\n  add\n  mload\n  dup2\n  0x09\n  add\n  sstore\n  swap1\n  pop\n  pop\n    /* \"contract/lottery.sol\":4429:4434  owner */\n  0x66\n  0x02\n  swap1\n  sload\n  swap1\n  0x0100\n  exp\n  swap1\n  div\n  0xffffffffffffffffffffffffffffffffffffffff\n  and\n    /* \"contract/lottery.sol\":4407:4423  usersAddressById */\n  0x6c\n    /* \"contract/lottery.sol\":4407:4426  usersAddressById[1] */\n  0x00\n    /* \"contract/lottery.sol\":4424:4425  1 */\n  0x01\n    /* \"contract/lottery.sol\":4407:4426  usersAddressById[1] */\n  dup2\n  mstore\n  0x20\n  add\n  swap1\n  dup2\n  mstore\n  0x20\n  add\n  0x00\n  keccak256\n  0x00\n    /* \"contract/lottery.sol\":4407:4434  usersAddressById[1] = owner */\n  0x0100\n  exp\n  dup2\n  sload\n  dup2\n  0xffffffffffffffffffffffffffffffffffffffff\n  mul\n  not\n  and\n  swap1\n  dup4\n  0xffffffffffffffffffffffffffffffffffffffff\n  and\n  mul\n  or\n  swap1\n  sstore\n  pop\n    /* \"contract/lottery.sol\":4445:4455  globalStat */\n  0x6f\n    /* \"contract/lottery.sol\":4445:4463  globalStat.members */\n  0x00\n  add\n  0x00\n    /* \"contract/lottery.sol\":4445:4465  globalStat.members++ */\n  dup2\n  sload\n  dup1\n  swap3\n  swap2\n  swap1\n  0x01\n  add\n  swap2\n  swap1\n  pop\n  sstore\n  pop\n    /* \"contract/lottery.sol\":4476:4486  globalStat */\n  0x6f\n    /* \"contract/lottery.sol\":4476:4499  globalStat.transactions */\n  0x01\n  add\n  0x00\n    /* \"contract/lottery.sol\":4476:4501  globalStat.transactions++ */\n  dup2\n  sload\n  dup1\n  swap3\n  swap2\n  swap1\n  0x01\n  add\n  swap2\n  swap1\n  pop\n  sstore\n  pop\n    /* \"contract/lottery.sol\":4516:4527  uint8 round */\n  0x00\n    /* \"contract/lottery.sol\":4530:4531  1 */\n  0x01\n    /* \"contract/lottery.sol\":4516:4531  uint8 round = 1 */\n  swap1\n  pop\n    /* \"contract/lottery.sol\":4512:4782  for(uint8 round = 1; round <= totalrounds; round++) {\r... */\ntag_9:\n    /* \"contract/lottery.sol\":4542:4553  totalrounds */\n  sload(0x69)\n    /* \"contract/lottery.sol\":4533:4538  round */\n  dup2\n    /* \"contract/lottery.sol\":4533:4553  round <= totalrounds */\n  0xff\n  and\n  gt\n    /* \"contract/lottery.sol\":4512:4782  for(uint8 round = 1; round <= totalrounds; round++) {\r... */\n  tag_10\n  jumpi\n    /* \"contract/lottery.sol\":4608:4614  864000 */\n  0x0d2f00\n    /* \"contract/lottery.sol\":4602:4605  now */\n  timestamp\n    /* \"contract/lottery.sol\":4602:4614  now + 864000 */\n  add\n    /* \"contract/lottery.sol\":4580:4592  timeRoudsEnd */\n  0x45\n    /* \"contract/lottery.sol\":4593:4598  round */\n  dup3\n    /* \"contract/lottery.sol\":4580:4599  timeRoudsEnd[round] */\n  0xff\n  and\n  0x10\n  dup2\n  lt\n  tag_12\n  jumpi\n  invalid\ntag_12:\n  add\n    /* \"contract/lottery.sol\":4580:4614  timeRoudsEnd[round] = now + 864000 */\n  dup2\n  swap1\n  sstore\n  pop\n    /* \"contract/lottery.sol\":4665:4669  true */\n  0x01\n    /* \"contract/lottery.sol\":4629:4634  users */\n  0x6b\n    /* \"contract/lottery.sol\":4629:4641  users[owner] */\n  0x00\n    /* \"contract/lottery.sol\":4635:4640  owner */\n  0x66\n  0x02\n  swap1\n  sload\n  swap1\n  0x0100\n  exp\n  swap1\n  div\n  0xffffffffffffffffffffffffffffffffffffffff\n  and\n    /* \"contract/lottery.sol\":4629:4641  users[owner] */\n  0xffffffffffffffffffffffffffffffffffffffff\n  and\n  0xffffffffffffffffffffffffffffffffffffffff\n  and\n  dup2\n  mstore\n  0x20\n  add\n  swap1\n  dup2\n  mstore\n  0x20\n  add\n  0x00\n  keccak256\n    /* \"contract/lottery.sol\":4629:4648  users[owner].rounds */\n  0x07\n  add\n    /* \"contract/lottery.sol\":4629:4655  users[owner].rounds[round] */\n  0x00\n    /* \"contract/lottery.sol\":4649:4654  round */\n  dup4\n    /* \"contract/lottery.sol\":4629:4655  users[owner].rounds[round] */\n  0xff\n  and\n  0xff\n  and\n  dup2\n  mstore\n  0x20\n  add\n  swap1\n  dup2\n  mstore\n  0x20\n  add\n  0x00\n  keccak256\n    /* \"contract/lottery.sol\":4629:4662  users[owner].rounds[round].active */\n  0x00\n  add\n  0x06\n    /* \"contract/lottery.sol\":4629:4669  users[owner].rounds[round].active = true */\n  0x0100\n  exp\n  dup2\n  sload\n  dup2\n  0xff\n  mul\n  not\n  and\n  swap1\n  dup4\n  iszero\n  iszero\n  mul\n  or\n  swap1\n  sstore\n  pop\n    /* \"contract/lottery.sol\":4724:4726  15 */\n  0x0f\n    /* \"contract/lottery.sol\":4684:4689  users */\n  0x6b\n    /* \"contract/lottery.sol\":4684:4696  users[owner] */\n  0x00\n    /* \"contract/lottery.sol\":4690:4695  owner */\n  0x66\n  0x02\n  swap1\n  sload\n  swap1\n  0x0100\n  exp\n  swap1\n  div\n  0xffffffffffffffffffffffffffffffffffffffff\n  and\n    /* \"contract/lottery.sol\":4684:4696  users[owner] */\n  0xffffffffffffffffffffffffffffffffffffffff\n  and\n  0xffffffffffffffffffffffffffffffffffffffff\n  and\n  dup2\n  mstore\n  0x20\n  add\n  swap1\n  dup2\n  mstore\n  0x20\n  add\n  0x00\n  keccak256\n    /* \"contract/lottery.sol\":4684:4703  users[owner].rounds */\n  0x07\n  add\n    /* \"contract/lottery.sol\":4684:4710  users[owner].rounds[round] */\n  0x00\n    /* \"contract/lottery.sol\":4704:4709  round */\n  dup4\n    /* \"contract/lottery.sol\":4684:4710  users[owner].rounds[round] */\n  0xff\n  and\n  0xff\n  and\n  dup2\n  mstore\n  0x20\n  add\n  swap1\n  dup2\n  mstore\n  0x20\n  add\n  0x00\n  keccak256\n    /* \"contract/lottery.sol\":4684:4721  users[owner].rounds[round].maxPayouts */\n  0x00\n  add\n  0x02\n    /* \"contract/lottery.sol\":4684:4726  users[owner].rounds[round].maxPayouts = 15 */\n  0x0100\n  exp\n  dup2\n  sload\n  dup2\n  0xffff\n  mul\n  not\n  and\n  swap1\n  dup4\n  0xffff\n  and\n  mul\n  or\n  swap1\n  sstore\n  pop\n    /* \"contract/lottery.sol\":4741:4751  roundQueue */\n  0x6d\n    /* \"contract/lottery.sol\":4741:4758  roundQueue[round] */\n  0x00\n    /* \"contract/lottery.sol\":4752:4757  round */\n  dup3\n    /* \"contract/lottery.sol\":4741:4758  roundQueue[round] */\n  0xff\n  and\n  0xff\n  and\n  dup2\n  mstore\n  0x20\n  add\n  swap1\n  dup2\n  mstore\n  0x20\n  add\n  0x00\n  keccak256\n    /* \"contract/lottery.sol\":4764:4769  owner */\n  0x66\n  0x02\n  swap1\n  sload\n  swap1\n  0x0100\n  exp\n  swap1\n  div\n  0xffffffffffffffffffffffffffffffffffffffff\n  and\n    /* \"contract/lottery.sol\":4741:4770  roundQueue[round].push(owner) */\n  swap1\n  dup1\n  0x01\n  dup2\n  sload\n  add\n  dup1\n  dup3\n  sstore\n  dup1\n  swap2\n  pop\n  pop\n  0x01\n  swap1\n  sub\n  swap1\n  0x00\n  mstore\n  keccak256(0x00, 0x20)\n  add\n  0x00\n  swap1\n  swap2\n  swap1\n  swap2\n  swap1\n  swap2\n  0x0100\n  exp\n  dup2\n  sload\n  dup2\n  0xffffffffffffffffffffffffffffffffffffffff\n  mul\n  not\n  and\n  swap1\n  dup4\n  0xffffffffffffffffffffffffffffffffffffffff\n  and\n  mul\n  or\n  swap1\n  sstore\n  pop\n    /* \"contract/lottery.sol\":4555:4562  round++ */\n  dup1\n  dup1\n  0x01\n  add\n  swap2\n  pop\n  pop\n    /* \"contract/lottery.sol\":4512:4782  for(uint8 round = 1; round <= totalrounds; round++) {\r... */\n  jump(tag_9)\ntag_10:\n  pop\n    /* \"contract/lottery.sol\":3941:4789  constructor(address payable _marketing) public {\r... */\n  pop\n    /* \"contract/lottery.sol\":479:19375  contract LotteryWCA is ReentrancyGuard {\r... */\n  jump(tag_15)\ntag_2:\n  dup3\n  dup1\n  sload\n  dup3\n  dup3\n  sstore\n  swap1\n  0x00\n  mstore\n  keccak256(0x00, 0x20)\n  swap1\n  dup2\n  add\n  swap3\n  dup3\n  iszero\n  tag_16\n  jumpi\n  swap2\n  0x20\n  mul\n  dup3\n  add\ntag_17:\n  dup3\n  dup2\n  gt\n  iszero\n  tag_18\n  jumpi\n  dup3\n  mload\n  dup3\n  swap1\n  0xffffffffffffffff\n  and\n  swap1\n  sstore\n  swap2\n  0x20\n  add\n  swap2\n  swap1\n  0x01\n  add\n  swap1\n  jump(tag_17)\ntag_18:\ntag_16:\n  pop\n  swap1\n  pop\n  tag_19\n  swap2\n  swap1\n  tag_20\n  jump\t// in\ntag_19:\n  pop\n  swap1\n  jump\t// out\ntag_20:\ntag_21:\n  dup1\n  dup3\n  gt\n  iszero\n  tag_22\n  jumpi\n  0x00\n  dup2\n  0x00\n  swap1\n  sstore\n  pop\n  0x01\n  add\n  jump(tag_21)\ntag_22:\n  pop\n  swap1\n  jump\t// out\ntag_15:\n  dataSize(sub_0)\n  dup1\n  dataOffset(sub_0)\n  0x00\n  codecopy\n  0x00\n  return\nstop\n\nsub_0: assembly {\n        /* \"contract/lottery.sol\":479:19375  contract LotteryWCA is ReentrancyGuard {\r... */\n      mstore(0x40, 0x80)\n      jumpi(tag_1, lt(calldatasize, 0x04))\n      shr(0xe0, calldataload(0x00))\n      dup1\n      0x693864f3\n      gt\n      tag_44\n      jumpi\n      dup1\n      0xa7345f56\n      gt\n      tag_45\n      jumpi\n      dup1\n      0xbfe24893\n      gt\n      tag_46\n      jumpi\n      dup1\n      0xbfe24893\n      eq\n      tag_38\n      jumpi\n      dup1\n      0xc34f6b0d\n      eq\n      tag_39\n      jumpi\n      dup1\n      0xc8e161a1\n      eq\n      tag_40\n      jumpi\n      dup1\n      0xcfce5044\n      eq\n      tag_41\n      jumpi\n      dup1\n      0xeca2c026\n      eq\n      tag_42\n      jumpi\n      dup1\n      0xf21efb5b\n      eq\n      tag_43\n      jumpi\n      jump(tag_2)\n    tag_46:\n      dup1\n      0xa7345f56\n      eq\n      tag_33\n      jumpi\n      dup1\n      0xa87430ba\n      eq\n      tag_34\n      jumpi\n      dup1\n      0xa9a9cfe0\n      eq\n      tag_35\n      jumpi\n      dup1\n      0xb3791e7f\n      eq\n      tag_36\n      jumpi\n      dup1\n      0xbd4b77ee\n      eq\n      tag_37\n      jumpi\n      jump(tag_2)\n    tag_45:\n      dup1\n      0x8a03ad86\n      gt\n      tag_47\n      jumpi\n      dup1\n      0x8a03ad86\n      eq\n      tag_28\n      jumpi\n      dup1\n      0x8c4636c1\n      eq\n      tag_29\n      jumpi\n      dup1\n      0x8da5cb5b\n      eq\n      tag_30\n      jumpi\n      dup1\n      0x950fabf3\n      eq\n      tag_31\n      jumpi\n      dup1\n      0x968763a0\n      eq\n      tag_32\n      jumpi\n      jump(tag_2)\n    tag_47:\n      dup1\n      0x693864f3\n      eq\n      tag_23\n      jumpi\n      dup1\n      0x6f77926b\n      eq\n      tag_24\n      jumpi\n      dup1\n      0x6f9fb98a\n      eq\n      tag_25\n      jumpi\n      dup1\n      0x7ccd94da\n      eq\n      tag_26\n      jumpi\n      dup1\n      0x88b45046\n      eq\n      tag_27\n      jumpi\n      jump(tag_2)\n    tag_44:\n      dup1\n      0x2d3e474a\n      gt\n      tag_48\n      jumpi\n      dup1\n      0x4cdbe908\n      gt\n      tag_49\n      jumpi\n      dup1\n      0x4cdbe908\n      eq\n      tag_18\n      jumpi\n      dup1\n      0x5a8a14d0\n      eq\n      tag_19\n      jumpi\n      dup1\n      0x5c279ff9\n      eq\n      tag_20\n      jumpi\n      dup1\n      0x5ce974b9\n      eq\n      tag_21\n      jumpi\n      dup1\n      0x5d7b1cc9\n      eq\n      tag_22\n      jumpi\n      jump(tag_2)\n    tag_49:\n      dup1\n      0x2d3e474a\n      eq\n      tag_13\n      jumpi\n      dup1\n      0x3336b63e\n      eq\n      tag_14\n      jumpi\n      dup1\n      0x375e3b55\n      eq\n      tag_15\n      jumpi\n      dup1\n      0x385399f9\n      eq\n      tag_16\n      jumpi\n      dup1\n      0x4a9fefc7\n      eq\n      tag_17\n      jumpi\n      jump(tag_2)\n    tag_48:\n      dup1\n      0x21658658\n      gt\n      tag_50\n      jumpi\n      dup1\n      0x21658658\n      eq\n      tag_8\n      jumpi\n      dup1\n      0x230f7f82\n      eq\n      tag_9\n      jumpi\n      dup1\n      0x26efd443\n      eq\n      tag_10\n      jumpi\n      dup1\n      0x2a2c908e\n      eq\n      tag_11\n      jumpi\n      dup1\n      0x2cc8da43\n      eq\n      tag_12\n      jumpi\n      jump(tag_2)\n    tag_50:\n      dup1\n      0x01b91a17\n      eq\n      tag_3\n      jumpi\n      dup1\n      0x16279055\n      eq\n      tag_4\n      jumpi\n      dup1\n      0x163f7522\n      eq\n      tag_5\n      jumpi\n      dup1\n      0x1aa3a008\n      eq\n      tag_6\n      jumpi\n      dup1\n      0x1dfd8fe0\n      eq\n      tag_7\n      jumpi\n      jump(tag_2)\n    tag_1:\n      jumpi(tag_2, calldatasize)\n        /* \"contract/lottery.sol\":5031:5042  uint8 round */\n      0x00\n        /* \"contract/lottery.sol\":5045:5046  1 */\n      0x01\n        /* \"contract/lottery.sol\":5031:5046  uint8 round = 1 */\n      swap1\n      pop\n        /* \"contract/lottery.sol\":5027:5333  for(uint8 round = 1; round <= totalrounds; round++) {\r... */\n    tag_53:\n        /* \"contract/lottery.sol\":5057:5068  totalrounds */\n      sload(0x69)\n        /* \"contract/lottery.sol\":5048:5053  round */\n      dup2\n        /* \"contract/lottery.sol\":5048:5068  round <= totalrounds */\n      0xff\n      and\n      gt\n        /* \"contract/lottery.sol\":5027:5333  for(uint8 round = 1; round <= totalrounds; round++) {\r... */\n      tag_54\n      jumpi\n        /* \"contract/lottery.sol\":5119:5128  msg.value */\n      callvalue\n        /* \"contract/lottery.sol\":5098:5108  roundPrice */\n      0x68\n        /* \"contract/lottery.sol\":5109:5114  round */\n      dup3\n        /* \"contract/lottery.sol\":5098:5115  roundPrice[round] */\n      0xff\n      and\n      dup2\n      sload\n      dup2\n      lt\n      tag_56\n      jumpi\n      invalid\n    tag_56:\n      swap1\n      0x00\n      mstore\n      keccak256(0x00, 0x20)\n      add\n      sload\n        /* \"contract/lottery.sol\":5098:5128  roundPrice[round] == msg.value */\n      eq\n        /* \"contract/lottery.sol\":5094:5322  if (roundPrice[round] == msg.value) {\r... */\n      iszero\n      tag_58\n      jumpi\n        /* \"contract/lottery.sol\":5161:5162  1 */\n      0x01\n        /* \"contract/lottery.sol\":5152:5157  round */\n      dup2\n        /* \"contract/lottery.sol\":5152:5162  round == 1 */\n      0xff\n      and\n      eq\n        /* \"contract/lottery.sol\":5152:5195  round == 1 && !isUserRegistered(msg.sender) */\n      dup1\n      iszero\n      tag_59\n      jumpi\n      pop\n        /* \"contract/lottery.sol\":5167:5195  isUserRegistered(msg.sender) */\n      tag_60\n        /* \"contract/lottery.sol\":5184:5194  msg.sender */\n      caller\n        /* \"contract/lottery.sol\":5167:5183  isUserRegistered */\n      tag_61\n        /* \"contract/lottery.sol\":5167:5195  isUserRegistered(msg.sender) */\n      jump\t// in\n    tag_60:\n        /* \"contract/lottery.sol\":5166:5195  !isUserRegistered(msg.sender) */\n      iszero\n        /* \"contract/lottery.sol\":5152:5195  round == 1 && !isUserRegistered(msg.sender) */\n    tag_59:\n        /* \"contract/lottery.sol\":5149:5248  if(round == 1 && !isUserRegistered(msg.sender)){\r... */\n      iszero\n      tag_62\n      jumpi\n        /* \"contract/lottery.sol\":5218:5228  register() */\n      tag_63\n        /* \"contract/lottery.sol\":5218:5226  register */\n      tag_64\n        /* \"contract/lottery.sol\":5218:5228  register() */\n      jump\t// in\n    tag_63:\n        /* \"contract/lottery.sol\":5149:5248  if(round == 1 && !isUserRegistered(msg.sender)){\r... */\n    tag_62:\n        /* \"contract/lottery.sol\":5266:5281  buyround(round) */\n      tag_65\n        /* \"contract/lottery.sol\":5275:5280  round */\n      dup2\n        /* \"contract/lottery.sol\":5266:5274  buyround */\n      tag_66\n        /* \"contract/lottery.sol\":5266:5281  buyround(round) */\n      jump\t// in\n    tag_65:\n        /* \"contract/lottery.sol\":5300:5307  return; */\n      pop\n      jump(tag_52)\n        /* \"contract/lottery.sol\":5094:5322  if (roundPrice[round] == msg.value) {\r... */\n    tag_58:\n        /* \"contract/lottery.sol\":5070:5077  round++ */\n      dup1\n      dup1\n      0x01\n      add\n      swap2\n      pop\n      pop\n        /* \"contract/lottery.sol\":5027:5333  for(uint8 round = 1; round <= totalrounds; round++) {\r... */\n      jump(tag_53)\n    tag_54:\n      pop\n        /* \"contract/lottery.sol\":5345:5408  revert(\"Can't find round to buy. Maybe sent value is invalid.\") */\n      mload(0x40)\n      0x08c379a000000000000000000000000000000000000000000000000000000000\n      dup2\n      mstore\n      0x04\n      add\n      dup1\n      dup1\n      0x20\n      add\n      dup3\n      dup2\n      sub\n      dup3\n      mstore\n      0x35\n      dup2\n      mstore\n      0x20\n      add\n      dup1\n      data_b6be230979c9056288d8dc9ecf24c47d930143c98ecebf6ab7c712e8601758a8\n      0x35\n      swap2\n      codecopy\n      0x40\n      add\n      swap2\n      pop\n      pop\n      mload(0x40)\n      dup1\n      swap2\n      sub\n      swap1\n      revert\n        /* \"contract/lottery.sol\":4989:5416  receive() external payable {\r... */\n    tag_52:\n        /* \"contract/lottery.sol\":479:19375  contract LotteryWCA is ReentrancyGuard {\r... */\n      stop\n    tag_2:\n      0x00\n      dup1\n      revert\n        /* \"contract/lottery.sol\":17007:17104  function getroundPrices() public view returns(uint[] memory) {\r... */\n    tag_3:\n      callvalue\n      dup1\n      iszero\n      tag_67\n      jumpi\n      0x00\n      dup1\n      revert\n    tag_67:\n      pop\n      tag_68\n      tag_69\n      jump\t// in\n    tag_68:\n      mload(0x40)\n      dup1\n      dup1\n      0x20\n      add\n      dup3\n      dup2\n      sub\n      dup3\n      mstore\n      dup4\n      dup2\n      dup2\n      mload\n      dup2\n      mstore\n      0x20\n      add\n      swap2\n      pop\n      dup1\n      mload\n      swap1\n      0x20\n      add\n      swap1\n      0x20\n      mul\n      dup1\n      dup4\n      dup4\n      0x00\n    tag_70:\n      dup4\n      dup2\n      lt\n      iszero\n      tag_72\n      jumpi\n      dup1\n      dup3\n      add\n      mload\n      dup2\n      dup5\n      add\n      mstore\n      0x20\n      dup2\n      add\n      swap1\n      pop\n      jump(tag_70)\n    tag_72:\n      pop\n      pop\n      pop\n      pop\n      swap1\n      pop\n      add\n      swap3\n      pop\n      pop\n      pop\n      mload(0x40)\n      dup1\n      swap2\n      sub\n      swap1\n      return\n        /* \"contract/lottery.sol\":4795:4983  function isContract(address addr) public view returns (bool) {\r... */\n    tag_4:\n      callvalue\n      dup1\n      iszero\n      tag_73\n      jumpi\n      0x00\n      dup1\n      revert\n    tag_73:\n      pop\n      tag_74\n      0x04\n      dup1\n      calldatasize\n      sub\n      0x20\n      dup2\n      lt\n      iszero\n      tag_75\n      jumpi\n      0x00\n      dup1\n      revert\n    tag_75:\n      dup2\n      add\n      swap1\n      dup1\n      dup1\n      calldataload\n      0xffffffffffffffffffffffffffffffffffffffff\n      and\n      swap1\n      0x20\n      add\n      swap1\n      swap3\n      swap2\n      swap1\n      pop\n      pop\n      pop\n      tag_76\n      jump\t// in\n    tag_74:\n      mload(0x40)\n      dup1\n      dup3\n      iszero\n      iszero\n      dup2\n      mstore\n      0x20\n      add\n      swap2\n      pop\n      pop\n      mload(0x40)\n      dup1\n      swap2\n      sub\n      swap1\n      return\n        /* \"contract/lottery.sol\":17740:17852  function isUserRegistered(address addr) public view returns (bool) {\r... */\n    tag_5:\n      callvalue\n      dup1\n      iszero\n      tag_77\n      jumpi\n      0x00\n      dup1\n      revert\n    tag_77:\n      pop\n      tag_78\n      0x04\n      dup1\n      calldatasize\n      sub\n      0x20\n      dup2\n      lt\n      iszero\n      tag_79\n      jumpi\n      0x00\n      dup1\n      revert\n    tag_79:\n      dup2\n      add\n      swap1\n      dup1\n      dup1\n      calldataload\n      0xffffffffffffffffffffffffffffffffffffffff\n      and\n      swap1\n      0x20\n      add\n      swap1\n      swap3\n      swap2\n      swap1\n      pop\n      pop\n      pop\n      tag_61\n      jump\t// in\n    tag_78:\n      mload(0x40)\n      dup1\n      dup3\n      iszero\n      iszero\n      dup2\n      mstore\n      0x20\n      add\n      swap2\n      pop\n      pop\n      mload(0x40)\n      dup1\n      swap2\n      sub\n      swap1\n      return\n        /* \"contract/lottery.sol\":5555:5636  function register() public payable {\r... */\n    tag_6:\n      tag_80\n      tag_64\n      jump\t// in\n    tag_80:\n      stop\n        /* \"contract/lottery.sol\":525:555  address[50] public  todayWiner */\n    tag_7:\n      callvalue\n      dup1\n      iszero\n      tag_81\n      jumpi\n      0x00\n      dup1\n      revert\n    tag_81:\n      pop\n      tag_82\n      0x04\n      dup1\n      calldatasize\n      sub\n      0x20\n      dup2\n      lt\n      iszero\n      tag_83\n      jumpi\n      0x00\n      dup1\n      revert\n    tag_83:\n      dup2\n      add\n      swap1\n      dup1\n      dup1\n      calldataload\n      swap1\n      0x20\n      add\n      swap1\n      swap3\n      swap2\n      swap1\n      pop\n      pop\n      pop\n      tag_84\n      jump\t// in\n    tag_82:\n      mload(0x40)\n      dup1\n      dup3\n      0xffffffffffffffffffffffffffffffffffffffff\n      and\n      dup2\n      mstore\n      0x20\n      add\n      swap2\n      pop\n      pop\n      mload(0x40)\n      dup1\n      swap2\n      sub\n      swap1\n      return\n        /* \"contract/lottery.sol\":2903:2951  uint public constant registrationPrice = 0 ether */\n    tag_8:\n      callvalue\n      dup1\n      iszero\n      tag_85\n      jumpi\n      0x00\n      dup1\n      revert\n    tag_85:\n      pop\n      tag_86\n      tag_87\n      jump\t// in\n    tag_86:\n      mload(0x40)\n      dup1\n      dup3\n      dup2\n      mstore\n      0x20\n      add\n      swap2\n      pop\n      pop\n      mload(0x40)\n      dup1\n      swap2\n      sub\n      swap1\n      return\n        /* \"contract/lottery.sol\":15781:17001  function getUserrounds(address userAddress) public view returns (bool[] memory, uint16[] memory, uint16[] memory, uint16[] memory, uint[] memory, uint[] memory) {\r... */\n    tag_9:\n      callvalue\n      dup1\n      iszero\n      tag_88\n      jumpi\n      0x00\n      dup1\n      revert\n    tag_88:\n      pop\n      tag_89\n      0x04\n      dup1\n      calldatasize\n      sub\n      0x20\n      dup2\n      lt\n      iszero\n      tag_90\n      jumpi\n      0x00\n      dup1\n      revert\n    tag_90:\n      dup2\n      add\n      swap1\n      dup1\n      dup1\n      calldataload\n      0xffffffffffffffffffffffffffffffffffffffff\n      and\n      swap1\n      0x20\n      add\n      swap1\n      swap3\n      swap2\n      swap1\n      pop\n      pop\n      pop\n      tag_91\n      jump\t// in\n    tag_89:\n      mload(0x40)\n      dup1\n      dup1\n      0x20\n      add\n      dup1\n      0x20\n      add\n      dup1\n      0x20\n      add\n      dup1\n      0x20\n      add\n      dup1\n      0x20\n      add\n      dup1\n      0x20\n      add\n      dup8\n      dup2\n      sub\n      dup8\n      mstore\n      dup14\n      dup2\n      dup2\n      mload\n      dup2\n      mstore\n      0x20\n      add\n      swap2\n      pop\n      dup1\n      mload\n      swap1\n      0x20\n      add\n      swap1\n      0x20\n      mul\n      dup1\n      dup4\n      dup4\n      0x00\n    tag_92:\n      dup4\n      dup2\n      lt\n      iszero\n      tag_94\n      jumpi\n      dup1\n      dup3\n      add\n      mload\n      dup2\n      dup5\n      add\n      mstore\n      0x20\n      dup2\n      add\n      swap1\n      pop\n      jump(tag_92)\n    tag_94:\n      pop\n      pop\n      pop\n      pop\n      swap1\n      pop\n      add\n      dup8\n      dup2\n      sub\n      dup7\n      mstore\n      dup13\n      dup2\n      dup2\n      mload\n      dup2\n      mstore\n      0x20\n      add\n      swap2\n      pop\n      dup1\n      mload\n      swap1\n      0x20\n      add\n      swap1\n      0x20\n      mul\n      dup1\n      dup4\n      dup4\n      0x00\n    tag_95:\n      dup4\n      dup2\n      lt\n      iszero\n      tag_97\n      jumpi\n      dup1\n      dup3\n      add\n      mload\n      dup2\n      dup5\n      add\n      mstore\n      0x20\n      dup2\n      add\n      swap1\n      pop\n      jump(tag_95)\n    tag_97:\n      pop\n      pop\n      pop\n      pop\n      swap1\n      pop\n      add\n      dup8\n      dup2\n      sub\n      dup6\n      mstore\n      dup12\n      dup2\n      dup2\n      mload\n      dup2\n      mstore\n      0x20\n      add\n      swap2\n      pop\n      dup1\n      mload\n      swap1\n      0x20\n      add\n      swap1\n      0x20\n      mul\n      dup1\n      dup4\n      dup4\n      0x00\n    tag_98:\n      dup4\n      dup2\n      lt\n      iszero\n      tag_100\n      jumpi\n      dup1\n      dup3\n      add\n      mload\n      dup2\n      dup5\n      add\n      mstore\n      0x20\n      dup2\n      add\n      swap1\n      pop\n      jump(tag_98)\n    tag_100:\n      pop\n      pop\n      pop\n      pop\n      swap1\n      pop\n      add\n      dup8\n      dup2\n      sub\n      dup5\n      mstore\n      dup11\n      dup2\n      dup2\n      mload\n      dup2\n      mstore\n      0x20\n      add\n      swap2\n      pop\n      dup1\n      mload\n      swap1\n      0x20\n      add\n      swap1\n      0x20\n      mul\n      dup1\n      dup4\n      dup4\n      0x00\n    tag_101:\n      dup4\n      dup2\n      lt\n      iszero\n      tag_103\n      jumpi\n      dup1\n      dup3\n      add\n      mload\n      dup2\n      dup5\n      add\n      mstore\n      0x20\n      dup2\n      add\n      swap1\n      pop\n      jump(tag_101)\n    tag_103:\n      pop\n      pop\n      pop\n      pop\n      swap1\n      pop\n      add\n      dup8\n      dup2\n      sub\n      dup4\n      mstore\n      dup10\n      dup2\n      dup2\n      mload\n      dup2\n      mstore\n      0x20\n      add\n      swap2\n      pop\n      dup1\n      mload\n      swap1\n      0x20\n      add\n      swap1\n      0x20\n      mul\n      dup1\n      dup4\n      dup4\n      0x00\n    tag_104:\n      dup4\n      dup2\n      lt\n      iszero\n      tag_106\n      jumpi\n      dup1\n      dup3\n      add\n      mload\n      dup2\n      dup5\n      add\n      mstore\n      0x20\n      dup2\n      add\n      swap1\n      pop\n      jump(tag_104)\n    tag_106:\n      pop\n      pop\n      pop\n      pop\n      swap1\n      pop\n      add\n      dup8\n      dup2\n      sub\n      dup3\n      mstore\n      dup9\n      dup2\n      dup2\n      mload\n      dup2\n      mstore\n      0x20\n      add\n      swap2\n      pop\n      dup1\n      mload\n      swap1\n      0x20\n      add\n      swap1\n      0x20\n      mul\n      dup1\n      dup4\n      dup4\n      0x00\n    tag_107:\n      dup4\n      dup2\n      lt\n      iszero\n      tag_109\n      jumpi\n      dup1\n      dup3\n      add\n      mload\n      dup2\n      dup5\n      add\n      mstore\n      0x20\n      dup2\n      add\n      swap1\n      pop\n      jump(tag_107)\n    tag_109:\n      pop\n      pop\n      pop\n      pop\n      swap1\n      pop\n      add\n      swap13\n      pop\n      pop\n      pop\n      pop\n      pop\n      pop\n      pop\n      pop\n      pop\n      pop\n      pop\n      pop\n      pop\n      mload(0x40)\n      dup1\n      swap2\n      sub\n      swap1\n      return\n        /* \"contract/lottery.sol\":697:735  address[16] public nextWinerSecretGame */\n    tag_10:\n      callvalue\n      dup1\n      iszero\n      tag_110\n      jumpi\n      0x00\n      dup1\n      revert\n    tag_110:\n      pop\n      tag_111\n      0x04\n      dup1\n      calldatasize\n      sub\n      0x20\n      dup2\n      lt\n      iszero\n      tag_112\n      jumpi\n      0x00\n      dup1\n      revert\n    tag_112:\n      dup2\n      add\n      swap1\n      dup1\n      dup1\n      calldataload\n      swap1\n      0x20\n      add\n      swap1\n      swap3\n      swap2\n      swap1\n      pop\n      pop\n      pop\n      tag_113\n      jump\t// in\n    tag_111:\n      mload(0x40)\n      dup1\n      dup3\n      0xffffffffffffffffffffffffffffffffffffffff\n      and\n      dup2\n      mstore\n      0x20\n      add\n      swap2\n      pop\n      pop\n      mload(0x40)\n      dup1\n      swap2\n      sub\n      swap1\n      return\n        /* \"contract/lottery.sol\":17429:17624  function getGlobalStatistic() public view returns(uint[5] memory result) {\r... */\n    tag_11:\n      callvalue\n      dup1\n      iszero\n      tag_114\n      jumpi\n      0x00\n      dup1\n      revert\n    tag_114:\n      pop\n      tag_115\n      tag_116\n      jump\t// in\n    tag_115:\n      mload(0x40)\n      dup1\n      dup3\n      mul(0x20, 0x05)\n      dup1\n      dup4\n      dup4\n      0x00\n    tag_117:\n      dup4\n      dup2\n      lt\n      iszero\n      tag_119\n      jumpi\n      dup1\n      dup3\n      add\n      mload\n      dup2\n      dup5\n      add\n      mstore\n      0x20\n      dup2\n      add\n      swap1\n      pop\n      jump(tag_117)\n    tag_119:\n      pop\n      pop\n      pop\n      pop\n      swap1\n      pop\n      add\n      swap2\n      pop\n      pop\n      mload(0x40)\n      dup1\n      swap2\n      sub\n      swap1\n      return\n        /* \"contract/lottery.sol\":2958:2997  uint8 public constant rewardPayouts = 2 */\n    tag_12:\n      callvalue\n      dup1\n      iszero\n      tag_120\n      jumpi\n      0x00\n      dup1\n      revert\n    tag_120:\n      pop\n      tag_121\n      tag_122\n      jump\t// in\n    tag_121:\n      mload(0x40)\n      dup1\n      dup3\n      0xff\n      and\n      dup2\n      mstore\n      0x20\n      add\n      swap2\n      pop\n      pop\n      mload(0x40)\n      dup1\n      swap2\n      sub\n      swap1\n      return\n        /* \"contract/lottery.sol\":3241:3273  address payable public marketing */\n    tag_13:\n      callvalue\n      dup1\n      iszero\n      tag_123\n      jumpi\n      0x00\n      dup1\n      revert\n    tag_123:\n      pop\n      tag_124\n      tag_125\n      jump\t// in\n    tag_124:\n      mload(0x40)\n      dup1\n      dup3\n      0xffffffffffffffffffffffffffffffffffffffff\n      and\n      dup2\n      mstore\n      0x20\n      add\n      swap2\n      pop\n      pop\n      mload(0x40)\n      dup1\n      swap2\n      sub\n      swap1\n      return\n        /* \"contract/lottery.sol\":17211:17313  function gettimeRoundEnd() public view returns(uint[16] memory) {\r... */\n    tag_14:\n      callvalue\n      dup1\n      iszero\n      tag_126\n      jumpi\n      0x00\n      dup1\n      revert\n    tag_126:\n      pop\n      tag_127\n      tag_128\n      jump\t// in\n    tag_127:\n      mload(0x40)\n      dup1\n      dup3\n      mul(0x20, 0x10)\n      dup1\n      dup4\n      dup4\n      0x00\n    tag_129:\n      dup4\n      dup2\n      lt\n      iszero\n      tag_131\n      jumpi\n      dup1\n      dup3\n      add\n      mload\n      dup2\n      dup5\n      add\n      mstore\n      0x20\n      dup2\n      add\n      swap1\n      pop\n      jump(tag_129)\n    tag_131:\n      pop\n      pop\n      pop\n      pop\n      swap1\n      pop\n      add\n      swap2\n      pop\n      pop\n      mload(0x40)\n      dup1\n      swap2\n      sub\n      swap1\n      return\n        /* \"contract/lottery.sol\":19084:19372  function calcSecretPrize(uint8 round) public view returns(uint value) {\r... */\n    tag_15:\n      callvalue\n      dup1\n      iszero\n      tag_132\n      jumpi\n      0x00\n      dup1\n      revert\n    tag_132:\n      pop\n      tag_133\n      0x04\n      dup1\n      calldatasize\n      sub\n      0x20\n      dup2\n      lt\n      iszero\n      tag_134\n      jumpi\n      0x00\n      dup1\n      revert\n    tag_134:\n      dup2\n      add\n      swap1\n      dup1\n      dup1\n      calldataload\n      0xff\n      and\n      swap1\n      0x20\n      add\n      swap1\n      swap3\n      swap2\n      swap1\n      pop\n      pop\n      pop\n      tag_135\n      jump\t// in\n    tag_133:\n      mload(0x40)\n      dup1\n      dup3\n      dup2\n      mstore\n      0x20\n      add\n      swap2\n      pop\n      pop\n      mload(0x40)\n      dup1\n      swap2\n      sub\n      swap1\n      return\n        /* \"contract/lottery.sol\":17985:18108  function getUserIdByAddress(address userAddress) public view returns (uint) {\r... */\n    tag_16:\n      callvalue\n      dup1\n      iszero\n      tag_136\n      jumpi\n      0x00\n      dup1\n      revert\n    tag_136:\n      pop\n      tag_137\n      0x04\n      dup1\n      calldatasize\n      sub\n      0x20\n      dup2\n      lt\n      iszero\n      tag_138\n      jumpi\n      0x00\n      dup1\n      revert\n    tag_138:\n      dup2\n      add\n      swap1\n      dup1\n      dup1\n      calldataload\n      0xffffffffffffffffffffffffffffffffffffffff\n      and\n      swap1\n      0x20\n      add\n      swap1\n      swap3\n      swap2\n      swap1\n      pop\n      pop\n      pop\n      tag_139\n      jump\t// in\n    tag_137:\n      mload(0x40)\n      dup1\n      dup3\n      dup2\n      mstore\n      0x20\n      add\n      swap2\n      pop\n      pop\n      mload(0x40)\n      dup1\n      swap2\n      sub\n      swap1\n      return\n        /* \"contract/lottery.sol\":18306:18506  function getReferrer(address userAddress) public view returns (address) {\r... */\n    tag_17:\n      callvalue\n      dup1\n      iszero\n      tag_140\n      jumpi\n      0x00\n      dup1\n      revert\n    tag_140:\n      pop\n      tag_141\n      0x04\n      dup1\n      calldatasize\n      sub\n      0x20\n      dup2\n      lt\n      iszero\n      tag_142\n      jumpi\n      0x00\n      dup1\n      revert\n    tag_142:\n      dup2\n      add\n      swap1\n      dup1\n      dup1\n      calldataload\n      0xffffffffffffffffffffffffffffffffffffffff\n      and\n      swap1\n      0x20\n      add\n      swap1\n      swap3\n      swap2\n      swap1\n      pop\n      pop\n      pop\n      tag_143\n      jump\t// in\n    tag_141:\n      mload(0x40)\n      dup1\n      dup3\n      0xffffffffffffffffffffffffffffffffffffffff\n      and\n      dup2\n      mstore\n      0x20\n      add\n      swap2\n      pop\n      pop\n      mload(0x40)\n      dup1\n      swap2\n      sub\n      swap1\n      return\n        /* \"contract/lottery.sol\":3102:3141  uint8 public referralRewardPercents = 9 */\n    tag_18:\n      callvalue\n      dup1\n      iszero\n      tag_144\n      jumpi\n      0x00\n      dup1\n      revert\n    tag_144:\n      pop\n      tag_145\n      tag_146\n      jump\t// in\n    tag_145:\n      mload(0x40)\n      dup1\n      dup3\n      0xff\n      and\n      dup2\n      mstore\n      0x20\n      add\n      swap2\n      pop\n      pop\n      mload(0x40)\n      dup1\n      swap2\n      sub\n      swap1\n      return\n        /* \"contract/lottery.sol\":6716:10914  function buyround(uint8 round) public payable nonReentrant{\r... */\n    tag_19:\n      tag_147\n      0x04\n      dup1\n      calldatasize\n      sub\n      0x20\n      dup2\n      lt\n      iszero\n      tag_148\n      jumpi\n      0x00\n      dup1\n      revert\n    tag_148:\n      dup2\n      add\n      swap1\n      dup1\n      dup1\n      calldataload\n      0xff\n      and\n      swap1\n      0x20\n      add\n      swap1\n      swap3\n      swap2\n      swap1\n      pop\n      pop\n      pop\n      tag_66\n      jump\t// in\n    tag_147:\n      stop\n        /* \"contract/lottery.sol\":15157:15775  function getUserroundsMissedProfit(address userAddress) public view returns ( uint[] memory, uint[] memory) {\r... */\n    tag_20:\n      callvalue\n      dup1\n      iszero\n      tag_149\n      jumpi\n      0x00\n      dup1\n      revert\n    tag_149:\n      pop\n      tag_150\n      0x04\n      dup1\n      calldatasize\n      sub\n      0x20\n      dup2\n      lt\n      iszero\n      tag_151\n      jumpi\n      0x00\n      dup1\n      revert\n    tag_151:\n      dup2\n      add\n      swap1\n      dup1\n      dup1\n      calldataload\n      0xffffffffffffffffffffffffffffffffffffffff\n      and\n      swap1\n      0x20\n      add\n      swap1\n      swap3\n      swap2\n      swap1\n      pop\n      pop\n      pop\n      tag_152\n      jump\t// in\n    tag_150:\n      mload(0x40)\n      dup1\n      dup1\n      0x20\n      add\n      dup1\n      0x20\n      add\n      dup4\n      dup2\n      sub\n      dup4\n      mstore\n      dup6\n      dup2\n      dup2\n      mload\n      dup2\n      mstore\n      0x20\n      add\n      swap2\n      pop\n      dup1\n      mload\n      swap1\n      0x20\n      add\n      swap1\n      0x20\n      mul\n      dup1\n      dup4\n      dup4\n      0x00\n    tag_153:\n      dup4\n      dup2\n      lt\n      iszero\n      tag_155\n      jumpi\n      dup1\n      dup3\n      add\n      mload\n      dup2\n      dup5\n      add\n      mstore\n      0x20\n      dup2\n      add\n      swap1\n      pop\n      jump(tag_153)\n    tag_155:\n      pop\n      pop\n      pop\n      pop\n      swap1\n      pop\n      add\n      dup4\n      dup2\n      sub\n      dup3\n      mstore\n      dup5\n      dup2\n      dup2\n      mload\n      dup2\n      mstore\n      0x20\n      add\n      swap2\n      pop\n      dup1\n      mload\n      swap1\n      0x20\n      add\n      swap1\n      0x20\n      mul\n      dup1\n      dup4\n      dup4\n      0x00\n    tag_156:\n      dup4\n      dup2\n      lt\n      iszero\n      tag_158\n      jumpi\n      dup1\n      dup3\n      add\n      mload\n      dup2\n      dup5\n      add\n      mstore\n      0x20\n      dup2\n      add\n      swap1\n      pop\n      jump(tag_156)\n    tag_158:\n      pop\n      pop\n      pop\n      pop\n      swap1\n      pop\n      add\n      swap5\n      pop\n      pop\n      pop\n      pop\n      pop\n      mload(0x40)\n      dup1\n      swap2\n      sub\n      swap1\n      return\n        /* \"contract/lottery.sol\":662:690  uint[16] public timeRoudsEnd */\n    tag_21:\n      callvalue\n      dup1\n      iszero\n      tag_159\n      jumpi\n      0x00\n      dup1\n      revert\n    tag_159:\n      pop\n      tag_160\n      0x04\n      dup1\n      calldatasize\n      sub\n      0x20\n      dup2\n      lt\n      iszero\n      tag_161\n      jumpi\n      0x00\n      dup1\n      revert\n    tag_161:\n      dup2\n      add\n      swap1\n      dup1\n      dup1\n      calldataload\n      swap1\n      0x20\n      add\n      swap1\n      swap3\n      swap2\n      swap1\n      pop\n      pop\n      pop\n      tag_162\n      jump\t// in\n    tag_160:\n      mload(0x40)\n      dup1\n      dup3\n      dup2\n      mstore\n      0x20\n      add\n      swap2\n      pop\n      pop\n      mload(0x40)\n      dup1\n      swap2\n      sub\n      swap1\n      return\n        /* \"contract/lottery.sol\":3280:3658  uint[] public roundPrice = [\r... */\n    tag_22:\n      callvalue\n      dup1\n      iszero\n      tag_163\n      jumpi\n      0x00\n      dup1\n      revert\n    tag_163:\n      pop\n      tag_164\n      0x04\n      dup1\n      calldatasize\n      sub\n      0x20\n      dup2\n      lt\n      iszero\n      tag_165\n      jumpi\n      0x00\n      dup1\n      revert\n    tag_165:\n      dup2\n      add\n      swap1\n      dup1\n      dup1\n      calldataload\n      swap1\n      0x20\n      add\n      swap1\n      swap3\n      swap2\n      swap1\n      pop\n      pop\n      pop\n      tag_166\n      jump\t// in\n    tag_164:\n      mload(0x40)\n      dup1\n      dup3\n      dup2\n      mstore\n      0x20\n      add\n      swap2\n      pop\n      pop\n      mload(0x40)\n      dup1\n      swap2\n      sub\n      swap1\n      return\n        /* \"contract/lottery.sol\":630:655  uint[16] public RoiRounds */\n    tag_23:\n      callvalue\n      dup1\n      iszero\n      tag_167\n      jumpi\n      0x00\n      dup1\n      revert\n    tag_167:\n      pop\n      tag_168\n      0x04\n      dup1\n      calldatasize\n      sub\n      0x20\n      dup2\n      lt\n      iszero\n      tag_169\n      jumpi\n      0x00\n      dup1\n      revert\n    tag_169:\n      dup2\n      add\n      swap1\n      dup1\n      dup1\n      calldataload\n      swap1\n      0x20\n      add\n      swap1\n      swap3\n      swap2\n      swap1\n      pop\n      pop\n      pop\n      tag_170\n      jump\t// in\n    tag_168:\n      mload(0x40)\n      dup1\n      dup3\n      dup2\n      mstore\n      0x20\n      add\n      swap2\n      pop\n      pop\n      mload(0x40)\n      dup1\n      swap2\n      sub\n      swap1\n      return\n        /* \"contract/lottery.sol\":14612:15147  function getUser(address userAddress) public view returns(uint, uint, uint, address, uint, uint, uint, uint, uint, uint) {\r... */\n    tag_24:\n      callvalue\n      dup1\n      iszero\n      tag_171\n      jumpi\n      0x00\n      dup1\n      revert\n    tag_171:\n      pop\n      tag_172\n      0x04\n      dup1\n      calldatasize\n      sub\n      0x20\n      dup2\n      lt\n      iszero\n      tag_173\n      jumpi\n      0x00\n      dup1\n      revert\n    tag_173:\n      dup2\n      add\n      swap1\n      dup1\n      dup1\n      calldataload\n      0xffffffffffffffffffffffffffffffffffffffff\n      and\n      swap1\n      0x20\n      add\n      swap1\n      swap3\n      swap2\n      swap1\n      pop\n      pop\n      pop\n      tag_174\n      jump\t// in\n    tag_172:\n      mload(0x40)\n      dup1\n      dup12\n      dup2\n      mstore\n      0x20\n      add\n      dup11\n      dup2\n      mstore\n      0x20\n      add\n      dup10\n      dup2\n      mstore\n      0x20\n      add\n      dup9\n      0xffffffffffffffffffffffffffffffffffffffff\n      and\n      dup2\n      mstore\n      0x20\n      add\n      dup8\n      dup2\n      mstore\n      0x20\n      add\n      dup7\n      dup2\n      mstore\n      0x20\n      add\n      dup6\n      dup2\n      mstore\n      0x20\n      add\n      dup5\n      dup2\n      mstore\n      0x20\n      add\n      dup4\n      dup2\n      mstore\n      0x20\n      add\n      dup3\n      dup2\n      mstore\n      0x20\n      add\n      swap11\n      pop\n      pop\n      pop\n      pop\n      pop\n      pop\n      pop\n      pop\n      pop\n      pop\n      pop\n      mload(0x40)\n      dup1\n      swap2\n      sub\n      swap1\n      return\n        /* \"contract/lottery.sol\":17630:17734  function getContractBalance() public view returns (uint) {\r... */\n    tag_25:\n      callvalue\n      dup1\n      iszero\n      tag_175\n      jumpi\n      0x00\n      dup1\n      revert\n    tag_175:\n      pop\n      tag_176\n      tag_177\n      jump\t// in\n    tag_176:\n      mload(0x40)\n      dup1\n      dup3\n      dup2\n      mstore\n      0x20\n      add\n      swap2\n      pop\n      pop\n      mload(0x40)\n      dup1\n      swap2\n      sub\n      swap1\n      return\n        /* \"contract/lottery.sol\":600:623  uint public timeLottery */\n    tag_26:\n      callvalue\n      dup1\n      iszero\n      tag_178\n      jumpi\n      0x00\n      dup1\n      revert\n    tag_178:\n      pop\n      tag_179\n      tag_180\n      jump\t// in\n    tag_179:\n      mload(0x40)\n      dup1\n      dup3\n      dup2\n      mstore\n      0x20\n      add\n      swap2\n      pop\n      pop\n      mload(0x40)\n      dup1\n      swap2\n      sub\n      swap1\n      return\n        /* \"contract/lottery.sol\":10920:10955  function income() public payable {} */\n    tag_27:\n      tag_181\n      tag_182\n      jump\t// in\n    tag_181:\n      stop\n        /* \"contract/lottery.sol\":17858:17979  function getUserAddressById(uint userId) public view returns (address) {\r... */\n    tag_28:\n      callvalue\n      dup1\n      iszero\n      tag_183\n      jumpi\n      0x00\n      dup1\n      revert\n    tag_183:\n      pop\n      tag_184\n      0x04\n      dup1\n      calldatasize\n      sub\n      0x20\n      dup2\n      lt\n      iszero\n      tag_185\n      jumpi\n      0x00\n      dup1\n      revert\n    tag_185:\n      dup2\n      add\n      swap1\n      dup1\n      dup1\n      calldataload\n      swap1\n      0x20\n      add\n      swap1\n      swap3\n      swap2\n      swap1\n      pop\n      pop\n      pop\n      tag_186\n      jump\t// in\n    tag_184:\n      mload(0x40)\n      dup1\n      dup3\n      0xffffffffffffffffffffffffffffffffffffffff\n      and\n      dup2\n      mstore\n      0x20\n      add\n      swap2\n      pop\n      pop\n      mload(0x40)\n      dup1\n      swap2\n      sub\n      swap1\n      return\n        /* \"contract/lottery.sol\":17320:17423  function getLotteryWiner() public view returns(address[50] memory) {\r... */\n    tag_29:\n      callvalue\n      dup1\n      iszero\n      tag_187\n      jumpi\n      0x00\n      dup1\n      revert\n    tag_187:\n      pop\n      tag_188\n      tag_189\n      jump\t// in\n    tag_188:\n      mload(0x40)\n      dup1\n      dup3\n      mul(0x20, 0x32)\n      dup1\n      dup4\n      dup4\n      0x00\n    tag_190:\n      dup4\n      dup2\n      lt\n      iszero\n      tag_192\n      jumpi\n      dup1\n      dup3\n      add\n      mload\n      dup2\n      dup5\n      add\n      mstore\n      0x20\n      dup2\n      add\n      swap1\n      pop\n      jump(tag_190)\n    tag_192:\n      pop\n      pop\n      pop\n      pop\n      swap1\n      pop\n      add\n      swap2\n      pop\n      pop\n      mload(0x40)\n      dup1\n      swap2\n      sub\n      swap1\n      return\n        /* \"contract/lottery.sol\":3206:3234  address payable public owner */\n    tag_30:\n      callvalue\n      dup1\n      iszero\n      tag_193\n      jumpi\n      0x00\n      dup1\n      revert\n    tag_193:\n      pop\n      tag_194\n      tag_195\n      jump\t// in\n    tag_194:\n      mload(0x40)\n      dup1\n      dup3\n      0xffffffffffffffffffffffffffffffffffffffff\n      and\n      dup2\n      mstore\n      0x20\n      add\n      swap2\n      pop\n      pop\n      mload(0x40)\n      dup1\n      swap2\n      sub\n      swap1\n      return\n        /* \"contract/lottery.sol\":10961:12218  function Lottery(uint ticket) public {\r... */\n    tag_31:\n      callvalue\n      dup1\n      iszero\n      tag_196\n      jumpi\n      0x00\n      dup1\n      revert\n    tag_196:\n      pop\n      tag_197\n      0x04\n      dup1\n      calldatasize\n      sub\n      0x20\n      dup2\n      lt\n      iszero\n      tag_198\n      jumpi\n      0x00\n      dup1\n      revert\n    tag_198:\n      dup2\n      add\n      swap1\n      dup1\n      dup1\n      calldataload\n      swap1\n      0x20\n      add\n      swap1\n      swap3\n      swap2\n      swap1\n      pop\n      pop\n      pop\n      tag_199\n      jump\t// in\n    tag_197:\n      stop\n        /* \"contract/lottery.sol\":5642:6710  function registerWithReferrer(address referrer) public payable {\r... */\n    tag_32:\n      tag_200\n      0x04\n      dup1\n      calldatasize\n      sub\n      0x20\n      dup2\n      lt\n      iszero\n      tag_201\n      jumpi\n      0x00\n      dup1\n      revert\n    tag_201:\n      dup2\n      add\n      swap1\n      dup1\n      dup1\n      calldataload\n      0xffffffffffffffffffffffffffffffffffffffff\n      and\n      swap1\n      0x20\n      add\n      swap1\n      swap3\n      swap2\n      swap1\n      pop\n      pop\n      pop\n      tag_202\n      jump\t// in\n    tag_200:\n      stop\n        /* \"contract/lottery.sol\":3148:3193  uint8 public referralRewardProfitPercents = 8 */\n    tag_33:\n      callvalue\n      dup1\n      iszero\n      tag_203\n      jumpi\n      0x00\n      dup1\n      revert\n    tag_203:\n      pop\n      tag_204\n      tag_205\n      jump\t// in\n    tag_204:\n      mload(0x40)\n      dup1\n      dup3\n      0xff\n      and\n      dup2\n      mstore\n      0x20\n      add\n      swap2\n      pop\n      pop\n      mload(0x40)\n      dup1\n      swap2\n      sub\n      swap1\n      return\n        /* \"contract/lottery.sol\":3737:3774  mapping(address => User) public users */\n    tag_34:\n      callvalue\n      dup1\n      iszero\n      tag_206\n      jumpi\n      0x00\n      dup1\n      revert\n    tag_206:\n      pop\n      tag_207\n      0x04\n      dup1\n      calldatasize\n      sub\n      0x20\n      dup2\n      lt\n      iszero\n      tag_208\n      jumpi\n      0x00\n      dup1\n      revert\n    tag_208:\n      dup2\n      add\n      swap1\n      dup1\n      dup1\n      calldataload\n      0xffffffffffffffffffffffffffffffffffffffff\n      and\n      swap1\n      0x20\n      add\n      swap1\n      swap3\n      swap2\n      swap1\n      pop\n      pop\n      pop\n      tag_209\n      jump\t// in\n    tag_207:\n      mload(0x40)\n      dup1\n      dup11\n      dup2\n      mstore\n      0x20\n      add\n      dup10\n      dup2\n      mstore\n      0x20\n      add\n      dup9\n      0xffffffffffffffffffffffffffffffffffffffff\n      and\n      dup2\n      mstore\n      0x20\n      add\n      dup8\n      dup2\n      mstore\n      0x20\n      add\n      dup7\n      dup2\n      mstore\n      0x20\n      add\n      dup6\n      dup2\n      mstore\n      0x20\n      add\n      dup5\n      dup2\n      mstore\n      0x20\n      add\n      dup4\n      0xff\n      and\n      dup2\n      mstore\n      0x20\n      add\n      dup3\n      dup2\n      mstore\n      0x20\n      add\n      swap10\n      pop\n      pop\n      pop\n      pop\n      pop\n      pop\n      pop\n      pop\n      pop\n      pop\n      mload(0x40)\n      dup1\n      swap2\n      sub\n      swap1\n      return\n        /* \"contract/lottery.sol\":742:792  mapping(address => uint) public lastTimeActivation */\n    tag_35:\n      callvalue\n      dup1\n      iszero\n      tag_210\n      jumpi\n      0x00\n      dup1\n      revert\n    tag_210:\n      pop\n      tag_211\n      0x04\n      dup1\n      calldatasize\n      sub\n      0x20\n      dup2\n      lt\n      iszero\n      tag_212\n      jumpi\n      0x00\n      dup1\n      revert\n    tag_212:\n      dup2\n      add\n      swap1\n      dup1\n      dup1\n      calldataload\n      0xffffffffffffffffffffffffffffffffffffffff\n      and\n      swap1\n      0x20\n      add\n      swap1\n      swap3\n      swap2\n      swap1\n      pop\n      pop\n      pop\n      tag_213\n      jump\t// in\n    tag_211:\n      mload(0x40)\n      dup1\n      dup3\n      dup2\n      mstore\n      0x20\n      add\n      swap2\n      pop\n      pop\n      mload(0x40)\n      dup1\n      swap2\n      sub\n      swap1\n      return\n        /* \"contract/lottery.sol\":5422:5549  function buyFirstRound(address referrer) public payable {\r... */\n    tag_36:\n      tag_214\n      0x04\n      dup1\n      calldatasize\n      sub\n      0x20\n      dup2\n      lt\n      iszero\n      tag_215\n      jumpi\n      0x00\n      dup1\n      revert\n    tag_215:\n      dup2\n      add\n      swap1\n      dup1\n      dup1\n      calldataload\n      0xffffffffffffffffffffffffffffffffffffffff\n      and\n      swap1\n      0x20\n      add\n      swap1\n      swap3\n      swap2\n      swap1\n      pop\n      pop\n      pop\n      tag_216\n      jump\t// in\n    tag_214:\n      stop\n        /* \"contract/lottery.sol\":18114:18300  function getReferrerId(address userAddress) public view returns (uint) {\r... */\n    tag_37:\n      callvalue\n      dup1\n      iszero\n      tag_217\n      jumpi\n      0x00\n      dup1\n      revert\n    tag_217:\n      pop\n      tag_218\n      0x04\n      dup1\n      calldatasize\n      sub\n      0x20\n      dup2\n      lt\n      iszero\n      tag_219\n      jumpi\n      0x00\n      dup1\n      revert\n    tag_219:\n      dup2\n      add\n      swap1\n      dup1\n      dup1\n      calldataload\n      0xffffffffffffffffffffffffffffffffffffffff\n      and\n      swap1\n      0x20\n      add\n      swap1\n      swap3\n      swap2\n      swap1\n      pop\n      pop\n      pop\n      tag_220\n      jump\t// in\n    tag_218:\n      mload(0x40)\n      dup1\n      dup3\n      dup2\n      mstore\n      0x20\n      add\n      swap2\n      pop\n      pop\n      mload(0x40)\n      dup1\n      swap2\n      sub\n      swap1\n      return\n        /* \"contract/lottery.sol\":3004:3045  uint8 public constant rewardPercents = 75 */\n    tag_38:\n      callvalue\n      dup1\n      iszero\n      tag_221\n      jumpi\n      0x00\n      dup1\n      revert\n    tag_221:\n      pop\n      tag_222\n      tag_223\n      jump\t// in\n    tag_222:\n      mload(0x40)\n      dup1\n      dup3\n      0xff\n      and\n      dup2\n      mstore\n      0x20\n      add\n      swap2\n      pop\n      pop\n      mload(0x40)\n      dup1\n      swap2\n      sub\n      swap1\n      return\n        /* \"contract/lottery.sol\":12224:12698  function getPrize() public nonReentrant{\r... */\n    tag_39:\n      callvalue\n      dup1\n      iszero\n      tag_224\n      jumpi\n      0x00\n      dup1\n      revert\n    tag_224:\n      pop\n      tag_225\n      tag_226\n      jump\t// in\n    tag_225:\n      stop\n        /* \"contract/lottery.sol\":17110:17205  function getRoiRound() public view returns(uint[16] memory) {\r... */\n    tag_40:\n      callvalue\n      dup1\n      iszero\n      tag_227\n      jumpi\n      0x00\n      dup1\n      revert\n    tag_227:\n      pop\n      tag_228\n      tag_229\n      jump\t// in\n    tag_228:\n      mload(0x40)\n      dup1\n      dup3\n      mul(0x20, 0x10)\n      dup1\n      dup4\n      dup4\n      0x00\n    tag_230:\n      dup4\n      dup2\n      lt\n      iszero\n      tag_232\n      jumpi\n      dup1\n      dup3\n      add\n      mload\n      dup2\n      dup5\n      add\n      mstore\n      0x20\n      dup2\n      add\n      swap1\n      pop\n      jump(tag_230)\n    tag_232:\n      pop\n      pop\n      pop\n      pop\n      swap1\n      pop\n      add\n      swap2\n      pop\n      pop\n      mload(0x40)\n      dup1\n      swap2\n      sub\n      swap1\n      return\n        /* \"contract/lottery.sol\":18512:19078  function getPlaceInQueue(address userAddress, uint8 round) public view returns(uint, uint) {\r... */\n    tag_41:\n      callvalue\n      dup1\n      iszero\n      tag_233\n      jumpi\n      0x00\n      dup1\n      revert\n    tag_233:\n      pop\n      tag_234\n      0x04\n      dup1\n      calldatasize\n      sub\n      0x40\n      dup2\n      lt\n      iszero\n      tag_235\n      jumpi\n      0x00\n      dup1\n      revert\n    tag_235:\n      dup2\n      add\n      swap1\n      dup1\n      dup1\n      calldataload\n      0xffffffffffffffffffffffffffffffffffffffff\n      and\n      swap1\n      0x20\n      add\n      swap1\n      swap3\n      swap2\n      swap1\n      dup1\n      calldataload\n      0xff\n      and\n      swap1\n      0x20\n      add\n      swap1\n      swap3\n      swap2\n      swap1\n      pop\n      pop\n      pop\n      tag_236\n      jump\t// in\n    tag_234:\n      mload(0x40)\n      dup1\n      dup4\n      dup2\n      mstore\n      0x20\n      add\n      dup3\n      dup2\n      mstore\n      0x20\n      add\n      swap3\n      pop\n      pop\n      pop\n      mload(0x40)\n      dup1\n      swap2\n      sub\n      swap1\n      return\n        /* \"contract/lottery.sol\":3052:3095  uint8 public constant marketingPercents = 7 */\n    tag_42:\n      callvalue\n      dup1\n      iszero\n      tag_237\n      jumpi\n      0x00\n      dup1\n      revert\n    tag_237:\n      pop\n      tag_238\n      tag_239\n      jump\t// in\n    tag_238:\n      mload(0x40)\n      dup1\n      dup3\n      0xff\n      and\n      dup2\n      mstore\n      0x20\n      add\n      swap2\n      pop\n      pop\n      mload(0x40)\n      dup1\n      swap2\n      sub\n      swap1\n      return\n        /* \"contract/lottery.sol\":566:593  uint public todayWinerValue */\n    tag_43:\n      callvalue\n      dup1\n      iszero\n      tag_240\n      jumpi\n      0x00\n      dup1\n      revert\n    tag_240:\n      pop\n      tag_241\n      tag_242\n      jump\t// in\n    tag_241:\n      mload(0x40)\n      dup1\n      dup3\n      dup2\n      mstore\n      0x20\n      add\n      swap2\n      pop\n      pop\n      mload(0x40)\n      dup1\n      swap2\n      sub\n      swap1\n      return\n        /* \"contract/lottery.sol\":17740:17852  function isUserRegistered(address addr) public view returns (bool) {\r... */\n    tag_61:\n        /* \"contract/lottery.sol\":17801:17805  bool */\n      0x00\n        /* \"contract/lottery.sol\":17843:17844  0 */\n      dup1\n        /* \"contract/lottery.sol\":17825:17830  users */\n      0x6b\n        /* \"contract/lottery.sol\":17825:17836  users[addr] */\n      0x00\n        /* \"contract/lottery.sol\":17831:17835  addr */\n      dup5\n        /* \"contract/lottery.sol\":17825:17836  users[addr] */\n      0xffffffffffffffffffffffffffffffffffffffff\n      and\n      0xffffffffffffffffffffffffffffffffffffffff\n      and\n      dup2\n      mstore\n      0x20\n      add\n      swap1\n      dup2\n      mstore\n      0x20\n      add\n      0x00\n      keccak256\n        /* \"contract/lottery.sol\":17825:17839  users[addr].id */\n      0x00\n      add\n      sload\n        /* \"contract/lottery.sol\":17825:17844  users[addr].id != 0 */\n      eq\n      iszero\n        /* \"contract/lottery.sol\":17818:17844  return users[addr].id != 0 */\n      swap1\n      pop\n        /* \"contract/lottery.sol\":17740:17852  function isUserRegistered(address addr) public view returns (bool) {\r... */\n      swap2\n      swap1\n      pop\n      jump\t// out\n        /* \"contract/lottery.sol\":5555:5636  function register() public payable {\r... */\n    tag_64:\n        /* \"contract/lottery.sol\":5601:5628  registerWithReferrer(owner) */\n      tag_245\n        /* \"contract/lottery.sol\":5622:5627  owner */\n      0x66\n      0x02\n      swap1\n      sload\n      swap1\n      0x0100\n      exp\n      swap1\n      div\n      0xffffffffffffffffffffffffffffffffffffffff\n      and\n        /* \"contract/lottery.sol\":5601:5621  registerWithReferrer */\n      tag_202\n        /* \"contract/lottery.sol\":5601:5628  registerWithReferrer(owner) */\n      jump\t// in\n    tag_245:\n        /* \"contract/lottery.sol\":5555:5636  function register() public payable {\r... */\n      jump\t// out\n        /* \"contract/lottery.sol\":6716:10914  function buyround(uint8 round) public payable nonReentrant{\r... */\n    tag_66:\n        /* \"contract/lottery.sol\":180:181  2 */\n      0x02\n        /* \"contract/lottery.sol\":335:342  _status */\n      sload(0x00)\n        /* \"contract/lottery.sol\":335:354  _status != _ENTERED */\n      eq\n      iszero\n        /* \"contract/lottery.sol\":327:390  require(_status != _ENTERED, \"ReentrancyGuard: reentrant call\") */\n      tag_247\n      jumpi\n      mload(0x40)\n      0x08c379a000000000000000000000000000000000000000000000000000000000\n      dup2\n      mstore\n      0x04\n      add\n      dup1\n      dup1\n      0x20\n      add\n      dup3\n      dup2\n      sub\n      dup3\n      mstore\n      0x1f\n      dup2\n      mstore\n      0x20\n      add\n      dup1\n      0x5265656e7472616e637947756172643a207265656e7472616e742063616c6c00\n      dup2\n      mstore\n      pop\n      0x20\n      add\n      swap2\n      pop\n      pop\n      mload(0x40)\n      dup1\n      swap2\n      sub\n      swap1\n      revert\n    tag_247:\n        /* \"contract/lottery.sol\":180:181  2 */\n      0x02\n        /* \"contract/lottery.sol\":401:408  _status */\n      0x00\n        /* \"contract/lottery.sol\":401:419  _status = _ENTERED */\n      dup2\n      swap1\n      sstore\n      pop\n        /* \"contract/lottery.sol\":6793:6821  isUserRegistered(msg.sender) */\n      tag_249\n        /* \"contract/lottery.sol\":6810:6820  msg.sender */\n      caller\n        /* \"contract/lottery.sol\":6793:6809  isUserRegistered */\n      tag_61\n        /* \"contract/lottery.sol\":6793:6821  isUserRegistered(msg.sender) */\n      jump\t// in\n    tag_249:\n        /* \"contract/lottery.sol\":6785:6848  require(isUserRegistered(msg.sender), \"User is not registered\") */\n      tag_250\n      jumpi\n      mload(0x40)\n      0x08c379a000000000000000000000000000000000000000000000000000000000\n      dup2\n      mstore\n      0x04\n      add\n      dup1\n      dup1\n      0x20\n      add\n      dup3\n      dup2\n      sub\n      dup3\n      mstore\n      0x16\n      dup2\n      mstore\n      0x20\n      add\n      dup1\n      0x55736572206973206e6f74207265676973746572656400000000000000000000\n      dup2\n      mstore\n      pop\n      0x20\n      add\n      swap2\n      pop\n      pop\n      mload(0x40)\n      dup1\n      swap2\n      sub\n      swap1\n      revert\n    tag_250:\n        /* \"contract/lottery.sol\":6875:6876  0 */\n      0x00\n        /* \"contract/lottery.sol\":6867:6872  round */\n      dup2\n        /* \"contract/lottery.sol\":6867:6876  round > 0 */\n      0xff\n      and\n      gt\n        /* \"contract/lottery.sol\":6867:6900  round > 0 && round <= totalrounds */\n      dup1\n      iszero\n      tag_251\n      jumpi\n      pop\n        /* \"contract/lottery.sol\":6889:6900  totalrounds */\n      sload(0x69)\n        /* \"contract/lottery.sol\":6880:6885  round */\n      dup2\n        /* \"contract/lottery.sol\":6880:6900  round <= totalrounds */\n      0xff\n      and\n      gt\n      iszero\n        /* \"contract/lottery.sol\":6867:6900  round > 0 && round <= totalrounds */\n    tag_251:\n        /* \"contract/lottery.sol\":6859:6918  require(round > 0 && round <= totalrounds, \"Invalid round\") */\n      tag_252\n      jumpi\n      mload(0x40)\n      0x08c379a000000000000000000000000000000000000000000000000000000000\n      dup2\n      mstore\n      0x04\n      add\n      dup1\n      dup1\n      0x20\n      add\n      dup3\n      dup2\n      sub\n      dup3\n      mstore\n      0x0d\n      dup2\n      mstore\n      0x20\n      add\n      dup1\n      0x496e76616c696420726f756e6400000000000000000000000000000000000000\n      dup2\n      mstore\n      pop\n      0x20\n      add\n      swap2\n      pop\n      pop\n      mload(0x40)\n      dup1\n      swap2\n      sub\n      swap1\n      revert\n    tag_252:\n        /* \"contract/lottery.sol\":6958:6967  msg.value */\n      callvalue\n        /* \"contract/lottery.sol\":6937:6947  roundPrice */\n      0x68\n        /* \"contract/lottery.sol\":6948:6953  round */\n      dup3\n        /* \"contract/lottery.sol\":6937:6954  roundPrice[round] */\n      0xff\n      and\n      dup2\n      sload\n      dup2\n      lt\n      tag_253\n      jumpi\n      invalid\n    tag_253:\n      swap1\n      0x00\n      mstore\n      keccak256(0x00, 0x20)\n      add\n      sload\n        /* \"contract/lottery.sol\":6937:6967  roundPrice[round] == msg.value */\n      eq\n        /* \"contract/lottery.sol\":6929:6989  require(roundPrice[round] == msg.value, \"Invalid BNB value\") */\n      tag_255\n      jumpi\n      mload(0x40)\n      0x08c379a000000000000000000000000000000000000000000000000000000000\n      dup2\n      mstore\n      0x04\n      add\n      dup1\n      dup1\n      0x20\n      add\n      dup3\n      dup2\n      sub\n      dup3\n      mstore\n      0x11\n      dup2\n      mstore\n      0x20\n      add\n      dup1\n      0x496e76616c696420424e422076616c7565000000000000000000000000000000\n      dup2\n      mstore\n      pop\n      0x20\n      add\n      swap2\n      pop\n      pop\n      mload(0x40)\n      dup1\n      swap2\n      sub\n      swap1\n      revert\n    tag_255:\n        /* \"contract/lottery.sol\":7009:7031  isContract(msg.sender) */\n      tag_256\n        /* \"contract/lottery.sol\":7020:7030  msg.sender */\n      caller\n        /* \"contract/lottery.sol\":7009:7019  isContract */\n      tag_76\n        /* \"contract/lottery.sol\":7009:7031  isContract(msg.sender) */\n      jump\t// in\n    tag_256:\n        /* \"contract/lottery.sol\":7008:7031  !isContract(msg.sender) */\n      iszero\n        /* \"contract/lottery.sol\":7000:7057  require(!isContract(msg.sender), \"Can not be a contract\") */\n      tag_257\n      jumpi\n      mload(0x40)\n      0x08c379a000000000000000000000000000000000000000000000000000000000\n      dup2\n      mstore\n      0x04\n      add\n      dup1\n      dup1\n      0x20\n      add\n      dup3\n      dup2\n      sub\n      dup3\n      mstore\n      0x15\n      dup2\n      mstore\n      0x20\n      add\n      dup1\n      0x43616e206e6f74206265206120636f6e74726163740000000000000000000000\n      dup2\n      mstore\n      pop\n      0x20\n      add\n      swap2\n      pop\n      pop\n      mload(0x40)\n      dup1\n      swap2\n      sub\n      swap1\n      revert\n    tag_257:\n        /* \"contract/lottery.sol\":7112:7113  1 */\n      0x01\n        /* \"contract/lottery.sol\":7085:7090  users */\n      0x6b\n        /* \"contract/lottery.sol\":7085:7102  users[msg.sender] */\n      0x00\n        /* \"contract/lottery.sol\":7091:7101  msg.sender */\n      caller\n        /* \"contract/lottery.sol\":7085:7102  users[msg.sender] */\n      0xffffffffffffffffffffffffffffffffffffffff\n      and\n      0xffffffffffffffffffffffffffffffffffffffff\n      and\n      dup2\n      mstore\n      0x20\n      add\n      swap1\n      dup2\n      mstore\n      0x20\n      add\n      0x00\n      keccak256\n        /* \"contract/lottery.sol\":7085:7111  users[msg.sender].maxRound */\n      0x08\n      add\n      0x00\n      swap1\n      sload\n      swap1\n      0x0100\n      exp\n      swap1\n      div\n      0xff\n      and\n        /* \"contract/lottery.sol\":7085:7113  users[msg.sender].maxRound+1 */\n      add\n        /* \"contract/lottery.sol\":7076:7113  round <= users[msg.sender].maxRound+1 */\n      0xff\n      and\n        /* \"contract/lottery.sol\":7076:7081  round */\n      dup2\n        /* \"contract/lottery.sol\":7076:7113  round <= users[msg.sender].maxRound+1 */\n      0xff\n      and\n      gt\n      iszero\n        /* \"contract/lottery.sol\":7068:7137  require(round <= users[msg.sender].maxRound+1, \"Round not available\") */\n      tag_258\n      jumpi\n      mload(0x40)\n      0x08c379a000000000000000000000000000000000000000000000000000000000\n      dup2\n      mstore\n      0x04\n      add\n      dup1\n      dup1\n      0x20\n      add\n      dup3\n      dup2\n      sub\n      dup3\n      mstore\n      0x13\n      dup2\n      mstore\n      0x20\n      add\n      dup1\n      0x526f756e64206e6f7420617661696c61626c6500000000000000000000000000\n      dup2\n      mstore\n      pop\n      0x20\n      add\n      swap2\n      pop\n      pop\n      mload(0x40)\n      dup1\n      swap2\n      sub\n      swap1\n      revert\n    tag_258:\n        /* \"contract/lottery.sol\":7174:7177  now */\n      timestamp\n        /* \"contract/lottery.sol\":7152:7164  timeRoudsEnd */\n      0x45\n        /* \"contract/lottery.sol\":7165:7170  round */\n      dup3\n        /* \"contract/lottery.sol\":7152:7171  timeRoudsEnd[round] */\n      0xff\n      and\n      0x10\n      dup2\n      lt\n      tag_259\n      jumpi\n      invalid\n    tag_259:\n      add\n      sload\n        /* \"contract/lottery.sol\":7152:7177  timeRoudsEnd[round] < now */\n      lt\n        /* \"contract/lottery.sol\":7148:7821  if (timeRoudsEnd[round] < now){\r... */\n      iszero\n      tag_261\n      jumpi\n        /* \"contract/lottery.sol\":7204:7225  uint valueSecretPrize */\n      0x00\n        /* \"contract/lottery.sol\":7227:7249  calcSecretPrize(round) */\n      tag_262\n        /* \"contract/lottery.sol\":7243:7248  round */\n      dup3\n        /* \"contract/lottery.sol\":7227:7242  calcSecretPrize */\n      tag_135\n        /* \"contract/lottery.sol\":7227:7249  calcSecretPrize(round) */\n      jump\t// in\n    tag_262:\n        /* \"contract/lottery.sol\":7204:7249  uint valueSecretPrize =calcSecretPrize(round) */\n      swap1\n      pop\n        /* \"contract/lottery.sol\":7276:7300  bool sendSecretGamePrize */\n      0x00\n        /* \"contract/lottery.sol\":7311:7330  nextWinerSecretGame */\n      0x55\n        /* \"contract/lottery.sol\":7331:7336  round */\n      dup4\n        /* \"contract/lottery.sol\":7311:7337  nextWinerSecretGame[round] */\n      0xff\n      and\n      0x10\n      dup2\n      lt\n      tag_263\n      jumpi\n      invalid\n    tag_263:\n      add\n      0x00\n      swap1\n      sload\n      swap1\n      0x0100\n      exp\n      swap1\n      div\n      0xffffffffffffffffffffffffffffffffffffffff\n      and\n        /* \"contract/lottery.sol\":7303:7343  payable(nextWinerSecretGame[round]).send */\n      0xffffffffffffffffffffffffffffffffffffffff\n      and\n        /* \"contract/lottery.sol\":7303:7361  payable(nextWinerSecretGame[round]).send(valueSecretPrize) */\n      0x08fc\n        /* \"contract/lottery.sol\":7344:7360  valueSecretPrize */\n      dup4\n        /* \"contract/lottery.sol\":7303:7361  payable(nextWinerSecretGame[round]).send(valueSecretPrize) */\n      swap1\n      dup2\n      iszero\n      mul\n      swap1\n      mload(0x40)\n      0x00\n      mload(0x40)\n      dup1\n      dup4\n      sub\n      dup2\n      dup6\n      dup9\n      dup9\n      call\n      swap4\n      pop\n      pop\n      pop\n      pop\n        /* \"contract/lottery.sol\":7276:7361  bool sendSecretGamePrize = payable(nextWinerSecretGame[round]).send(valueSecretPrize) */\n      swap1\n      pop\n        /* \"contract/lottery.sol\":7392:7411  sendSecretGamePrize */\n      dup1\n        /* \"contract/lottery.sol\":7388:7640  if (sendSecretGamePrize) {\r... */\n      iszero\n      tag_266\n      jumpi\n        /* \"contract/lottery.sol\":7467:7472  86400 */\n      0x015180\n        /* \"contract/lottery.sol\":7444:7456  timeRoudsEnd */\n      0x45\n        /* \"contract/lottery.sol\":7457:7462  round */\n      dup5\n        /* \"contract/lottery.sol\":7444:7463  timeRoudsEnd[round] */\n      0xff\n      and\n      0x10\n      dup2\n      lt\n      tag_267\n      jumpi\n      invalid\n    tag_267:\n      add\n      0x00\n        /* \"contract/lottery.sol\":7444:7472  timeRoudsEnd[round] += 86400 */\n      dup3\n      dup3\n      sload\n      add\n      swap3\n      pop\n      pop\n      dup2\n      swap1\n      sstore\n      pop\n        /* \"contract/lottery.sol\":7530:7549  nextWinerSecretGame */\n      0x55\n        /* \"contract/lottery.sol\":7550:7555  round */\n      dup4\n        /* \"contract/lottery.sol\":7530:7556  nextWinerSecretGame[round] */\n      0xff\n      and\n      0x10\n      dup2\n      lt\n      tag_269\n      jumpi\n      invalid\n    tag_269:\n      add\n      0x00\n      swap1\n      sload\n      swap1\n      0x0100\n      exp\n      swap1\n      div\n      0xffffffffffffffffffffffffffffffffffffffff\n      and\n        /* \"contract/lottery.sol\":7508:7582  WinerForeverGame(now, nextWinerSecretGame[round], round, valueSecretPrize) */\n      0xffffffffffffffffffffffffffffffffffffffff\n      and\n      0x8ea1a10de3733db603227ca0e3cd0feb6da4f1c33fb15cb9265fa333a64797c2\n        /* \"contract/lottery.sol\":7525:7528  now */\n      timestamp\n        /* \"contract/lottery.sol\":7558:7563  round */\n      dup6\n        /* \"contract/lottery.sol\":7565:7581  valueSecretPrize */\n      dup6\n        /* \"contract/lottery.sol\":7508:7582  WinerForeverGame(now, nextWinerSecretGame[round], round, valueSecretPrize) */\n      mload(0x40)\n      dup1\n      dup5\n      dup2\n      mstore\n      0x20\n      add\n      dup4\n      0xff\n      and\n      dup2\n      mstore\n      0x20\n      add\n      dup3\n      dup2\n      mstore\n      0x20\n      add\n      swap4\n      pop\n      pop\n      pop\n      pop\n      mload(0x40)\n      dup1\n      swap2\n      sub\n      swap1\n      log2\n        /* \"contract/lottery.sol\":7388:7640  if (sendSecretGamePrize) {\r... */\n    tag_266:\n        /* \"contract/lottery.sol\":7148:7821  if (timeRoudsEnd[round] < now){\r... */\n      pop\n      pop\n      jump(tag_271)\n    tag_261:\n        /* \"contract/lottery.sol\":7745:7749  3600 */\n      0x0e10\n        /* \"contract/lottery.sol\":7722:7734  timeRoudsEnd */\n      0x45\n        /* \"contract/lottery.sol\":7735:7740  round */\n      dup3\n        /* \"contract/lottery.sol\":7722:7741  timeRoudsEnd[round] */\n      0xff\n      and\n      0x10\n      dup2\n      lt\n      tag_272\n      jumpi\n      invalid\n    tag_272:\n      add\n      0x00\n        /* \"contract/lottery.sol\":7722:7749  timeRoudsEnd[round] += 3600 */\n      dup3\n      dup3\n      sload\n      add\n      swap3\n      pop\n      pop\n      dup2\n      swap1\n      sstore\n      pop\n        /* \"contract/lottery.sol\":7794:7797  now */\n      timestamp\n        /* \"contract/lottery.sol\":7776:7788  timeRoudsEnd */\n      0x45\n        /* \"contract/lottery.sol\":7789:7790  0 */\n      0x00\n        /* \"contract/lottery.sol\":7776:7791  timeRoudsEnd[0] */\n      0x10\n      dup2\n      lt\n      tag_274\n      jumpi\n      invalid\n    tag_274:\n      add\n        /* \"contract/lottery.sol\":7776:7797  timeRoudsEnd[0] = now */\n      dup2\n      swap1\n      sstore\n      pop\n        /* \"contract/lottery.sol\":7148:7821  if (timeRoudsEnd[round] < now){\r... */\n    tag_271:\n        /* \"contract/lottery.sol\":7860:7870  msg.sender */\n      caller\n        /* \"contract/lottery.sol\":7831:7850  nextWinerSecretGame */\n      0x55\n        /* \"contract/lottery.sol\":7851:7856  round */\n      dup3\n        /* \"contract/lottery.sol\":7831:7857  nextWinerSecretGame[round] */\n      0xff\n      and\n      0x10\n      dup2\n      lt\n      tag_276\n      jumpi\n      invalid\n    tag_276:\n      add\n      0x00\n        /* \"contract/lottery.sol\":7831:7870  nextWinerSecretGame[round] = msg.sender */\n      0x0100\n      exp\n      dup2\n      sload\n      dup2\n      0xffffffffffffffffffffffffffffffffffffffff\n      mul\n      not\n      and\n      swap1\n      dup4\n      0xffffffffffffffffffffffffffffffffffffffff\n      and\n      mul\n      or\n      swap1\n      sstore\n      pop\n        /* \"contract/lottery.sol\":7881:7886  users */\n      0x6b\n        /* \"contract/lottery.sol\":7881:7898  users[msg.sender] */\n      0x00\n        /* \"contract/lottery.sol\":7887:7897  msg.sender */\n      caller\n        /* \"contract/lottery.sol\":7881:7898  users[msg.sender] */\n      0xffffffffffffffffffffffffffffffffffffffff\n      and\n      0xffffffffffffffffffffffffffffffffffffffff\n      and\n      dup2\n      mstore\n      0x20\n      add\n      swap1\n      dup2\n      mstore\n      0x20\n      add\n      0x00\n      keccak256\n        /* \"contract/lottery.sol\":7881:7907  users[msg.sender].maxRound */\n      0x08\n      add\n      0x00\n        /* \"contract/lottery.sol\":7881:7909  users[msg.sender].maxRound++ */\n      dup2\n      dup2\n      swap1\n      sload\n      swap1\n      0x0100\n      exp\n      swap1\n      div\n      0xff\n      and\n      dup1\n      swap3\n      swap2\n      swap1\n      0x01\n      add\n      swap2\n      swap1\n      0x0100\n      exp\n      dup2\n      sload\n      dup2\n      0xff\n      mul\n      not\n      and\n      swap1\n      dup4\n      0xff\n      and\n      mul\n      or\n      swap1\n      sstore\n      pop\n      pop\n        /* \"contract/lottery.sol\":7950:7959  msg.value */\n      callvalue\n        /* \"contract/lottery.sol\":7920:7925  users */\n      0x6b\n        /* \"contract/lottery.sol\":7920:7937  users[msg.sender] */\n      0x00\n        /* \"contract/lottery.sol\":7926:7936  msg.sender */\n      caller\n        /* \"contract/lottery.sol\":7920:7937  users[msg.sender] */\n      0xffffffffffffffffffffffffffffffffffffffff\n      and\n      0xffffffffffffffffffffffffffffffffffffffff\n      and\n      dup2\n      mstore\n      0x20\n      add\n      swap1\n      dup2\n      mstore\n      0x20\n      add\n      0x00\n      keccak256\n        /* \"contract/lottery.sol\":7920:7946  users[msg.sender].turnover */\n      0x09\n      add\n      0x00\n        /* \"contract/lottery.sol\":7920:7959  users[msg.sender].turnover += msg.value */\n      dup3\n      dup3\n      sload\n      add\n      swap3\n      pop\n      pop\n      dup2\n      swap1\n      sstore\n      pop\n        /* \"contract/lottery.sol\":7970:7980  globalStat */\n      0x6f\n        /* \"contract/lottery.sol\":7970:7993  globalStat.transactions */\n      0x01\n      add\n      0x00\n        /* \"contract/lottery.sol\":7970:7995  globalStat.transactions++ */\n      dup2\n      sload\n      dup1\n      swap3\n      swap2\n      swap1\n      0x01\n      add\n      swap2\n      swap1\n      pop\n      sstore\n      pop\n        /* \"contract/lottery.sol\":8029:8038  msg.value */\n      callvalue\n        /* \"contract/lottery.sol\":8006:8016  globalStat */\n      0x6f\n        /* \"contract/lottery.sol\":8006:8025  globalStat.turnover */\n      0x02\n      add\n      0x00\n        /* \"contract/lottery.sol\":8006:8038  globalStat.turnover += msg.value */\n      dup3\n      dup3\n      sload\n      add\n      swap3\n      pop\n      pop\n      dup2\n      swap1\n      sstore\n      pop\n        /* \"contract/lottery.sol\":8082:8085  now */\n      timestamp\n        /* \"contract/lottery.sol\":8049:8067  lastTimeActivation */\n      0x65\n        /* \"contract/lottery.sol\":8049:8079  lastTimeActivation[msg.sender] */\n      0x00\n        /* \"contract/lottery.sol\":8068:8078  msg.sender */\n      caller\n        /* \"contract/lottery.sol\":8049:8079  lastTimeActivation[msg.sender] */\n      0xffffffffffffffffffffffffffffffffffffffff\n      and\n      0xffffffffffffffffffffffffffffffffffffffff\n      and\n      dup2\n      mstore\n      0x20\n      add\n      swap1\n      dup2\n      mstore\n      0x20\n      add\n      0x00\n      keccak256\n        /* \"contract/lottery.sol\":8049:8085  lastTimeActivation[msg.sender] = now */\n      dup2\n      swap1\n      sstore\n      pop\n        /* \"contract/lottery.sol\":8147:8150  now */\n      timestamp\n        /* \"contract/lottery.sol\":8096:8101  users */\n      0x6b\n        /* \"contract/lottery.sol\":8096:8113  users[msg.sender] */\n      0x00\n        /* \"contract/lottery.sol\":8102:8112  msg.sender */\n      caller\n        /* \"contract/lottery.sol\":8096:8113  users[msg.sender] */\n      0xffffffffffffffffffffffffffffffffffffffff\n      and\n      0xffffffffffffffffffffffffffffffffffffffff\n      and\n      dup2\n      mstore\n      0x20\n      add\n      swap1\n      dup2\n      mstore\n      0x20\n      add\n      0x00\n      keccak256\n        /* \"contract/lottery.sol\":8096:8120  users[msg.sender].rounds */\n      0x07\n      add\n        /* \"contract/lottery.sol\":8096:8127  users[msg.sender].rounds[round] */\n      0x00\n        /* \"contract/lottery.sol\":8121:8126  round */\n      dup4\n        /* \"contract/lottery.sol\":8096:8127  users[msg.sender].rounds[round] */\n      0xff\n      and\n      0xff\n      and\n      dup2\n      mstore\n      0x20\n      add\n      swap1\n      dup2\n      mstore\n      0x20\n      add\n      0x00\n      keccak256\n        /* \"contract/lottery.sol\":8096:8144  users[msg.sender].rounds[round].lastTimeBuyround */\n      0x03\n      add\n        /* \"contract/lottery.sol\":8096:8150  users[msg.sender].rounds[round].lastTimeBuyround = now */\n      dup2\n      swap1\n      sstore\n      pop\n        /* \"contract/lottery.sol\":8161:8176  uint onePercent */\n      0x00\n        /* \"contract/lottery.sol\":8191:8194  100 */\n      0x64\n        /* \"contract/lottery.sol\":8179:8188  msg.value */\n      callvalue\n        /* \"contract/lottery.sol\":8179:8194  msg.value / 100 */\n      dup2\n      tag_278\n      jumpi\n      invalid\n    tag_278:\n      div\n        /* \"contract/lottery.sol\":8161:8194  uint onePercent = msg.value / 100 */\n      swap1\n      pop\n        /* \"contract/lottery.sol\":8210:8215  users */\n      0x6b\n        /* \"contract/lottery.sol\":8210:8227  users[msg.sender] */\n      0x00\n        /* \"contract/lottery.sol\":8216:8226  msg.sender */\n      caller\n        /* \"contract/lottery.sol\":8210:8227  users[msg.sender] */\n      0xffffffffffffffffffffffffffffffffffffffff\n      and\n      0xffffffffffffffffffffffffffffffffffffffff\n      and\n      dup2\n      mstore\n      0x20\n      add\n      swap1\n      dup2\n      mstore\n      0x20\n      add\n      0x00\n      keccak256\n        /* \"contract/lottery.sol\":8210:8234  users[msg.sender].rounds */\n      0x07\n      add\n        /* \"contract/lottery.sol\":8210:8241  users[msg.sender].rounds[round] */\n      0x00\n        /* \"contract/lottery.sol\":8235:8240  round */\n      dup4\n        /* \"contract/lottery.sol\":8210:8241  users[msg.sender].rounds[round] */\n      0xff\n      and\n      0xff\n      and\n      dup2\n      mstore\n      0x20\n      add\n      swap1\n      dup2\n      mstore\n      0x20\n      add\n      0x00\n      keccak256\n        /* \"contract/lottery.sol\":8210:8248  users[msg.sender].rounds[round].active */\n      0x00\n      add\n      0x06\n      swap1\n      sload\n      swap1\n      0x0100\n      exp\n      swap1\n      div\n      0xff\n      and\n        /* \"contract/lottery.sol\":8205:8884  if (!users[msg.sender].rounds[round].active) {\r... */\n      tag_279\n      jumpi\n        /* \"contract/lottery.sol\":8265:8270  users */\n      0x6b\n        /* \"contract/lottery.sol\":8265:8282  users[msg.sender] */\n      0x00\n        /* \"contract/lottery.sol\":8271:8281  msg.sender */\n      caller\n        /* \"contract/lottery.sol\":8265:8282  users[msg.sender] */\n      0xffffffffffffffffffffffffffffffffffffffff\n      and\n      0xffffffffffffffffffffffffffffffffffffffff\n      and\n      dup2\n      mstore\n      0x20\n      add\n      swap1\n      dup2\n      mstore\n      0x20\n      add\n      0x00\n      keccak256\n        /* \"contract/lottery.sol\":8265:8289  users[msg.sender].rounds */\n      0x07\n      add\n        /* \"contract/lottery.sol\":8265:8296  users[msg.sender].rounds[round] */\n      0x00\n        /* \"contract/lottery.sol\":8290:8295  round */\n      dup4\n        /* \"contract/lottery.sol\":8265:8296  users[msg.sender].rounds[round] */\n      0xff\n      and\n      0xff\n      and\n      dup2\n      mstore\n      0x20\n      add\n      swap1\n      dup2\n      mstore\n      0x20\n      add\n      0x00\n      keccak256\n        /* \"contract/lottery.sol\":8265:8312  users[msg.sender].rounds[round].activationTimes */\n      0x00\n      add\n      0x00\n        /* \"contract/lottery.sol\":8265:8314  users[msg.sender].rounds[round].activationTimes++ */\n      dup2\n      dup2\n      swap1\n      sload\n      swap1\n      0x0100\n      exp\n      swap1\n      div\n      0xffff\n      and\n      dup1\n      swap3\n      swap2\n      swap1\n      0x01\n      add\n      swap2\n      swap1\n      0x0100\n      exp\n      dup2\n      sload\n      dup2\n      0xffff\n      mul\n      not\n      and\n      swap1\n      dup4\n      0xffff\n      and\n      mul\n      or\n      swap1\n      sstore\n      pop\n      pop\n        /* \"contract/lottery.sol\":2996:2997  2 */\n      0x02\n        /* \"contract/lottery.sol\":8329:8388  users[msg.sender].rounds[round].maxPayouts += rewardPayouts */\n      0xff\n      and\n        /* \"contract/lottery.sol\":8329:8334  users */\n      0x6b\n        /* \"contract/lottery.sol\":8329:8346  users[msg.sender] */\n      0x00\n        /* \"contract/lottery.sol\":8335:8345  msg.sender */\n      caller\n        /* \"contract/lottery.sol\":8329:8346  users[msg.sender] */\n      0xffffffffffffffffffffffffffffffffffffffff\n      and\n      0xffffffffffffffffffffffffffffffffffffffff\n      and\n      dup2\n      mstore\n      0x20\n      add\n      swap1\n      dup2\n      mstore\n      0x20\n      add\n      0x00\n      keccak256\n        /* \"contract/lottery.sol\":8329:8353  users[msg.sender].rounds */\n      0x07\n      add\n        /* \"contract/lottery.sol\":8329:8360  users[msg.sender].rounds[round] */\n      0x00\n        /* \"contract/lottery.sol\":8354:8359  round */\n      dup5\n        /* \"contract/lottery.sol\":8329:8360  users[msg.sender].rounds[round] */\n      0xff\n      and\n      0xff\n      and\n      dup2\n      mstore\n      0x20\n      add\n      swap1\n      dup2\n      mstore\n      0x20\n      add\n      0x00\n      keccak256\n        /* \"contract/lottery.sol\":8329:8371  users[msg.sender].rounds[round].maxPayouts */\n      0x00\n      add\n      0x02\n        /* \"contract/lottery.sol\":8329:8388  users[msg.sender].rounds[round].maxPayouts += rewardPayouts */\n      dup3\n      dup3\n      dup3\n      swap1\n      sload\n      swap1\n      0x0100\n      exp\n      swap1\n      div\n      0xffff\n      and\n      add\n      swap3\n      pop\n      0x0100\n      exp\n      dup2\n      sload\n      dup2\n      0xffff\n      mul\n      not\n      and\n      swap1\n      dup4\n      0xffff\n      and\n      mul\n      or\n      swap1\n      sstore\n      pop\n        /* \"contract/lottery.sol\":8444:8448  true */\n      0x01\n        /* \"contract/lottery.sol\":8403:8408  users */\n      0x6b\n        /* \"contract/lottery.sol\":8403:8420  users[msg.sender] */\n      0x00\n        /* \"contract/lottery.sol\":8409:8419  msg.sender */\n      caller\n        /* \"contract/lottery.sol\":8403:8420  users[msg.sender] */\n      0xffffffffffffffffffffffffffffffffffffffff\n      and\n      0xffffffffffffffffffffffffffffffffffffffff\n      and\n      dup2\n      mstore\n      0x20\n      add\n      swap1\n      dup2\n      mstore\n      0x20\n      add\n      0x00\n      keccak256\n        /* \"contract/lottery.sol\":8403:8427  users[msg.sender].rounds */\n      0x07\n      add\n        /* \"contract/lottery.sol\":8403:8434  users[msg.sender].rounds[round] */\n      0x00\n        /* \"contract/lottery.sol\":8428:8433  round */\n      dup5\n        /* \"contract/lottery.sol\":8403:8434  users[msg.sender].rounds[round] */\n      0xff\n      and\n      0xff\n      and\n      dup2\n      mstore\n      0x20\n      add\n      swap1\n      dup2\n      mstore\n      0x20\n      add\n      0x00\n      keccak256\n        /* \"contract/lottery.sol\":8403:8441  users[msg.sender].rounds[round].active */\n      0x00\n      add\n      0x06\n        /* \"contract/lottery.sol\":8403:8448  users[msg.sender].rounds[round].active = true */\n      0x0100\n      exp\n      dup2\n      sload\n      dup2\n      0xff\n      mul\n      not\n      and\n      swap1\n      dup4\n      iszero\n      iszero\n      mul\n      or\n      swap1\n      sstore\n      pop\n        /* \"contract/lottery.sol\":8463:8473  roundQueue */\n      0x6d\n        /* \"contract/lottery.sol\":8463:8480  roundQueue[round] */\n      0x00\n        /* \"contract/lottery.sol\":8474:8479  round */\n      dup4\n        /* \"contract/lottery.sol\":8463:8480  roundQueue[round] */\n      0xff\n      and\n      0xff\n      and\n      dup2\n      mstore\n      0x20\n      add\n      swap1\n      dup2\n      mstore\n      0x20\n      add\n      0x00\n      keccak256\n        /* \"contract/lottery.sol\":8486:8496  msg.sender */\n      caller\n        /* \"contract/lottery.sol\":8463:8497  roundQueue[round].push(msg.sender) */\n      swap1\n      dup1\n      0x01\n      dup2\n      sload\n      add\n      dup1\n      dup3\n      sstore\n      dup1\n      swap2\n      pop\n      pop\n      0x01\n      swap1\n      sub\n      swap1\n      0x00\n      mstore\n      keccak256(0x00, 0x20)\n      add\n      0x00\n      swap1\n      swap2\n      swap1\n      swap2\n      swap1\n      swap2\n      0x0100\n      exp\n      dup2\n      sload\n      dup2\n      0xffffffffffffffffffffffffffffffffffffffff\n      mul\n      not\n      and\n      swap1\n      dup4\n      0xffffffffffffffffffffffffffffffffffffffff\n      and\n      mul\n      or\n      swap1\n      sstore\n      pop\n        /* \"contract/lottery.sol\":8531:8541  msg.sender */\n      caller\n        /* \"contract/lottery.sol\":8517:8571  Buyround(now, msg.sender, users[msg.sender].id, round) */\n      0xffffffffffffffffffffffffffffffffffffffff\n      and\n      0x2f201bc547acc49919922eaf7ecea9f3389adca4dc6ab3fb4a7498cbbaac63a2\n        /* \"contract/lottery.sol\":8526:8529  now */\n      timestamp\n        /* \"contract/lottery.sol\":8543:8548  users */\n      0x6b\n        /* \"contract/lottery.sol\":8543:8560  users[msg.sender] */\n      0x00\n        /* \"contract/lottery.sol\":8549:8559  msg.sender */\n      caller\n        /* \"contract/lottery.sol\":8543:8560  users[msg.sender] */\n      0xffffffffffffffffffffffffffffffffffffffff\n      and\n      0xffffffffffffffffffffffffffffffffffffffff\n      and\n      dup2\n      mstore\n      0x20\n      add\n      swap1\n      dup2\n      mstore\n      0x20\n      add\n      0x00\n      keccak256\n        /* \"contract/lottery.sol\":8543:8563  users[msg.sender].id */\n      0x00\n      add\n      sload\n        /* \"contract/lottery.sol\":8565:8570  round */\n      dup6\n        /* \"contract/lottery.sol\":8517:8571  Buyround(now, msg.sender, users[msg.sender].id, round) */\n      mload(0x40)\n      dup1\n      dup5\n      dup2\n      mstore\n      0x20\n      add\n      dup4\n      dup2\n      mstore\n      0x20\n      add\n      dup3\n      0xff\n      and\n      dup2\n      mstore\n      0x20\n      add\n      swap4\n      pop\n      pop\n      pop\n      pop\n      mload(0x40)\n      dup1\n      swap2\n      sub\n      swap1\n      log2\n        /* \"contract/lottery.sol\":8205:8884  if (!users[msg.sender].rounds[round].active) {\r... */\n      jump(tag_281)\n    tag_279:\n        /* \"contract/lottery.sol\":8616:8621  users */\n      0x6b\n        /* \"contract/lottery.sol\":8616:8633  users[msg.sender] */\n      0x00\n        /* \"contract/lottery.sol\":8622:8632  msg.sender */\n      caller\n        /* \"contract/lottery.sol\":8616:8633  users[msg.sender] */\n      0xffffffffffffffffffffffffffffffffffffffff\n      and\n      0xffffffffffffffffffffffffffffffffffffffff\n      and\n      dup2\n      mstore\n      0x20\n      add\n      swap1\n      dup2\n      mstore\n      0x20\n      add\n      0x00\n      keccak256\n        /* \"contract/lottery.sol\":8616:8640  users[msg.sender].rounds */\n      0x07\n      add\n        /* \"contract/lottery.sol\":8616:8647  users[msg.sender].rounds[round] */\n      0x00\n        /* \"contract/lottery.sol\":8641:8646  round */\n      dup4\n        /* \"contract/lottery.sol\":8616:8647  users[msg.sender].rounds[round] */\n      0xff\n      and\n      0xff\n      and\n      dup2\n      mstore\n      0x20\n      add\n      swap1\n      dup2\n      mstore\n      0x20\n      add\n      0x00\n      keccak256\n        /* \"contract/lottery.sol\":8616:8663  users[msg.sender].rounds[round].activationTimes */\n      0x00\n      add\n      0x00\n        /* \"contract/lottery.sol\":8616:8665  users[msg.sender].rounds[round].activationTimes++ */\n      dup2\n      dup2\n      swap1\n      sload\n      swap1\n      0x0100\n      exp\n      swap1\n      div\n      0xffff\n      and\n      dup1\n      swap3\n      swap2\n      swap1\n      0x01\n      add\n      swap2\n      swap1\n      0x0100\n      exp\n      dup2\n      sload\n      dup2\n      0xffff\n      mul\n      not\n      and\n      swap1\n      dup4\n      0xffff\n      and\n      mul\n      or\n      swap1\n      sstore\n      pop\n      pop\n        /* \"contract/lottery.sol\":2996:2997  2 */\n      0x02\n        /* \"contract/lottery.sol\":8680:8739  users[msg.sender].rounds[round].maxPayouts += rewardPayouts */\n      0xff\n      and\n        /* \"contract/lottery.sol\":8680:8685  users */\n      0x6b\n        /* \"contract/lottery.sol\":8680:8697  users[msg.sender] */\n      0x00\n        /* \"contract/lottery.sol\":8686:8696  msg.sender */\n      caller\n        /* \"contract/lottery.sol\":8680:8697  users[msg.sender] */\n      0xffffffffffffffffffffffffffffffffffffffff\n      and\n      0xffffffffffffffffffffffffffffffffffffffff\n      and\n      dup2\n      mstore\n      0x20\n      add\n      swap1\n      dup2\n      mstore\n      0x20\n      add\n      0x00\n      keccak256\n        /* \"contract/lottery.sol\":8680:8704  users[msg.sender].rounds */\n      0x07\n      add\n        /* \"contract/lottery.sol\":8680:8711  users[msg.sender].rounds[round] */\n      0x00\n        /* \"contract/lottery.sol\":8705:8710  round */\n      dup5\n        /* \"contract/lottery.sol\":8680:8711  users[msg.sender].rounds[round] */\n      0xff\n      and\n      0xff\n      and\n      dup2\n      mstore\n      0x20\n      add\n      swap1\n      dup2\n      mstore\n      0x20\n      add\n      0x00\n      keccak256\n        /* \"contract/lottery.sol\":8680:8722  users[msg.sender].rounds[round].maxPayouts */\n      0x00\n      add\n      0x02\n        /* \"contract/lottery.sol\":8680:8739  users[msg.sender].rounds[round].maxPayouts += rewardPayouts */\n      dup3\n      dup3\n      dup3\n      swap1\n      sload\n      swap1\n      0x0100\n      exp\n      swap1\n      div\n      0xffff\n      and\n      add\n      swap3\n      pop\n      0x0100\n      exp\n      dup2\n      sload\n      dup2\n      0xffff\n      mul\n      not\n      and\n      swap1\n      dup4\n      0xffff\n      and\n      mul\n      or\n      swap1\n      sstore\n      pop\n        /* \"contract/lottery.sol\":8788:8798  msg.sender */\n      caller\n        /* \"contract/lottery.sol\":8759:8872  IncreaseroundMaxPayouts(now, msg.sender, users[msg.sender].id, round, users[msg.sender].rounds[round].maxPayouts) */\n      0xffffffffffffffffffffffffffffffffffffffff\n      and\n      0x31bfa9ab73d15b5d752f5928d978dd4daba1b2dd420bb2d965c54cfe366c5534\n        /* \"contract/lottery.sol\":8783:8786  now */\n      timestamp\n        /* \"contract/lottery.sol\":8800:8805  users */\n      0x6b\n        /* \"contract/lottery.sol\":8800:8817  users[msg.sender] */\n      0x00\n        /* \"contract/lottery.sol\":8806:8816  msg.sender */\n      caller\n        /* \"contract/lottery.sol\":8800:8817  users[msg.sender] */\n      0xffffffffffffffffffffffffffffffffffffffff\n      and\n      0xffffffffffffffffffffffffffffffffffffffff\n      and\n      dup2\n      mstore\n      0x20\n      add\n      swap1\n      dup2\n      mstore\n      0x20\n      add\n      0x00\n      keccak256\n        /* \"contract/lottery.sol\":8800:8820  users[msg.sender].id */\n      0x00\n      add\n      sload\n        /* \"contract/lottery.sol\":8822:8827  round */\n      dup6\n        /* \"contract/lottery.sol\":8829:8834  users */\n      0x6b\n        /* \"contract/lottery.sol\":8829:8846  users[msg.sender] */\n      0x00\n        /* \"contract/lottery.sol\":8835:8845  msg.sender */\n      caller\n        /* \"contract/lottery.sol\":8829:8846  users[msg.sender] */\n      0xffffffffffffffffffffffffffffffffffffffff\n      and\n      0xffffffffffffffffffffffffffffffffffffffff\n      and\n      dup2\n      mstore\n      0x20\n      add\n      swap1\n      dup2\n      mstore\n      0x20\n      add\n      0x00\n      keccak256\n        /* \"contract/lottery.sol\":8829:8853  users[msg.sender].rounds */\n      0x07\n      add\n        /* \"contract/lottery.sol\":8829:8860  users[msg.sender].rounds[round] */\n      0x00\n        /* \"contract/lottery.sol\":8854:8859  round */\n      dup9\n        /* \"contract/lottery.sol\":8829:8860  users[msg.sender].rounds[round] */\n      0xff\n      and\n      0xff\n      and\n      dup2\n      mstore\n      0x20\n      add\n      swap1\n      dup2\n      mstore\n      0x20\n      add\n      0x00\n      keccak256\n        /* \"contract/lottery.sol\":8829:8871  users[msg.sender].rounds[round].maxPayouts */\n      0x00\n      add\n      0x02\n      swap1\n      sload\n      swap1\n      0x0100\n      exp\n      swap1\n      div\n      0xffff\n      and\n        /* \"contract/lottery.sol\":8759:8872  IncreaseroundMaxPayouts(now, msg.sender, users[msg.sender].id, round, users[msg.sender].rounds[round].maxPayouts) */\n      mload(0x40)\n      dup1\n      dup6\n      dup2\n      mstore\n      0x20\n      add\n      dup5\n      dup2\n      mstore\n      0x20\n      add\n      dup4\n      0xff\n      and\n      dup2\n      mstore\n      0x20\n      add\n      dup3\n      0xffff\n      and\n      dup2\n      mstore\n      0x20\n      add\n      swap5\n      pop\n      pop\n      pop\n      pop\n      pop\n      mload(0x40)\n      dup1\n      swap2\n      sub\n      swap1\n      log2\n        /* \"contract/lottery.sol\":8205:8884  if (!users[msg.sender].rounds[round].active) {\r... */\n    tag_281:\n        /* \"contract/lottery.sol\":8894:8905  uint reward */\n      0x00\n        /* \"contract/lottery.sol\":3043:3045  75 */\n      0x4b\n        /* \"contract/lottery.sol\":8908:8935  onePercent * rewardPercents */\n      0xff\n      and\n        /* \"contract/lottery.sol\":8908:8918  onePercent */\n      dup3\n        /* \"contract/lottery.sol\":8908:8935  onePercent * rewardPercents */\n      mul\n        /* \"contract/lottery.sol\":8894:8935  uint reward = onePercent * rewardPercents */\n      swap1\n      pop\n        /* \"contract/lottery.sol\":8989:8999  msg.sender */\n      caller\n        /* \"contract/lottery.sol\":8950:8999  roundQueue[round][headIndex[round]] != msg.sender */\n      0xffffffffffffffffffffffffffffffffffffffff\n      and\n        /* \"contract/lottery.sol\":8950:8960  roundQueue */\n      0x6d\n        /* \"contract/lottery.sol\":8950:8967  roundQueue[round] */\n      0x00\n        /* \"contract/lottery.sol\":8961:8966  round */\n      dup6\n        /* \"contract/lottery.sol\":8950:8967  roundQueue[round] */\n      0xff\n      and\n      0xff\n      and\n      dup2\n      mstore\n      0x20\n      add\n      swap1\n      dup2\n      mstore\n      0x20\n      add\n      0x00\n      keccak256\n        /* \"contract/lottery.sol\":8968:8977  headIndex */\n      0x6e\n        /* \"contract/lottery.sol\":8968:8984  headIndex[round] */\n      0x00\n        /* \"contract/lottery.sol\":8978:8983  round */\n      dup7\n        /* \"contract/lottery.sol\":8968:8984  headIndex[round] */\n      0xff\n      and\n      0xff\n      and\n      dup2\n      mstore\n      0x20\n      add\n      swap1\n      dup2\n      mstore\n      0x20\n      add\n      0x00\n      keccak256\n      sload\n        /* \"contract/lottery.sol\":8950:8985  roundQueue[round][headIndex[round]] */\n      dup2\n      sload\n      dup2\n      lt\n      tag_282\n      jumpi\n      invalid\n    tag_282:\n      swap1\n      0x00\n      mstore\n      keccak256(0x00, 0x20)\n      add\n      0x00\n      swap1\n      sload\n      swap1\n      0x0100\n      exp\n      swap1\n      div\n      0xffffffffffffffffffffffffffffffffffffffff\n      and\n        /* \"contract/lottery.sol\":8950:8999  roundQueue[round][headIndex[round]] != msg.sender */\n      0xffffffffffffffffffffffffffffffffffffffff\n      and\n      eq\n        /* \"contract/lottery.sol\":8946:10612  if (roundQueue[round][headIndex[round]] != msg.sender) {\r... */\n      tag_284\n      jumpi\n        /* \"contract/lottery.sol\":9016:9037  address rewardAddress */\n      0x00\n        /* \"contract/lottery.sol\":9040:9050  roundQueue */\n      0x6d\n        /* \"contract/lottery.sol\":9040:9057  roundQueue[round] */\n      0x00\n        /* \"contract/lottery.sol\":9051:9056  round */\n      dup6\n        /* \"contract/lottery.sol\":9040:9057  roundQueue[round] */\n      0xff\n      and\n      0xff\n      and\n      dup2\n      mstore\n      0x20\n      add\n      swap1\n      dup2\n      mstore\n      0x20\n      add\n      0x00\n      keccak256\n        /* \"contract/lottery.sol\":9058:9067  headIndex */\n      0x6e\n        /* \"contract/lottery.sol\":9058:9074  headIndex[round] */\n      0x00\n        /* \"contract/lottery.sol\":9068:9073  round */\n      dup7\n        /* \"contract/lottery.sol\":9058:9074  headIndex[round] */\n      0xff\n      and\n      0xff\n      and\n      dup2\n      mstore\n      0x20\n      add\n      swap1\n      dup2\n      mstore\n      0x20\n      add\n      0x00\n      keccak256\n      sload\n        /* \"contract/lottery.sol\":9040:9075  roundQueue[round][headIndex[round]] */\n      dup2\n      sload\n      dup2\n      lt\n      tag_285\n      jumpi\n      invalid\n    tag_285:\n      swap1\n      0x00\n      mstore\n      keccak256(0x00, 0x20)\n      add\n      0x00\n      swap1\n      sload\n      swap1\n      0x0100\n      exp\n      swap1\n      div\n      0xffffffffffffffffffffffffffffffffffffffff\n      and\n        /* \"contract/lottery.sol\":9016:9075  address rewardAddress = roundQueue[round][headIndex[round]] */\n      swap1\n      pop\n        /* \"contract/lottery.sol\":9090:9099  bool sent */\n      0x00\n        /* \"contract/lottery.sol\":9110:9123  rewardAddress */\n      dup2\n        /* \"contract/lottery.sol\":9102:9129  payable(rewardAddress).send */\n      0xffffffffffffffffffffffffffffffffffffffff\n      and\n        /* \"contract/lottery.sol\":9102:9137  payable(rewardAddress).send(reward) */\n      0x08fc\n        /* \"contract/lottery.sol\":9130:9136  reward */\n      dup5\n        /* \"contract/lottery.sol\":9102:9137  payable(rewardAddress).send(reward) */\n      swap1\n      dup2\n      iszero\n      mul\n      swap1\n      mload(0x40)\n      0x00\n      mload(0x40)\n      dup1\n      dup4\n      sub\n      dup2\n      dup6\n      dup9\n      dup9\n      call\n      swap4\n      pop\n      pop\n      pop\n      pop\n        /* \"contract/lottery.sol\":9090:9137  bool sent = payable(rewardAddress).send(reward) */\n      swap1\n      pop\n        /* \"contract/lottery.sol\":9156:9160  sent */\n      dup1\n        /* \"contract/lottery.sol\":9152:9929  if (sent) {\r... */\n      iszero\n      tag_288\n      jumpi\n        /* \"contract/lottery.sol\":9185:9201  uint rewardValue */\n      0x00\n        /* \"contract/lottery.sol\":9217:9245  referralRewardProfitPercents */\n      0x66\n      0x01\n      swap1\n      sload\n      swap1\n      0x0100\n      exp\n      swap1\n      div\n      0xff\n      and\n        /* \"contract/lottery.sol\":9204:9245  onePercent * referralRewardProfitPercents */\n      0xff\n      and\n        /* \"contract/lottery.sol\":9204:9214  onePercent */\n      dup6\n        /* \"contract/lottery.sol\":9204:9245  onePercent * referralRewardProfitPercents */\n      mul\n        /* \"contract/lottery.sol\":9185:9245  uint rewardValue = onePercent * referralRewardProfitPercents */\n      swap1\n      pop\n        /* \"contract/lottery.sol\":9268:9327  sendPostRewardToReferrer(rewardAddress, round, rewardValue) */\n      tag_289\n        /* \"contract/lottery.sol\":9293:9306  rewardAddress */\n      dup4\n        /* \"contract/lottery.sol\":9308:9313  round */\n      dup8\n        /* \"contract/lottery.sol\":9315:9326  rewardValue */\n      dup4\n        /* \"contract/lottery.sol\":9268:9292  sendPostRewardToReferrer */\n      tag_290\n        /* \"contract/lottery.sol\":9268:9327  sendPostRewardToReferrer(rewardAddress, round, rewardValue) */\n      jump\t// in\n    tag_289:\n        /* \"contract/lottery.sol\":9412:9418  reward */\n      dup4\n        /* \"contract/lottery.sol\":9364:9369  users */\n      0x6b\n        /* \"contract/lottery.sol\":9364:9384  users[rewardAddress] */\n      0x00\n        /* \"contract/lottery.sol\":9370:9383  rewardAddress */\n      dup6\n        /* \"contract/lottery.sol\":9364:9384  users[rewardAddress] */\n      0xffffffffffffffffffffffffffffffffffffffff\n      and\n      0xffffffffffffffffffffffffffffffffffffffff\n      and\n      dup2\n      mstore\n      0x20\n      add\n      swap1\n      dup2\n      mstore\n      0x20\n      add\n      0x00\n      keccak256\n        /* \"contract/lottery.sol\":9364:9391  users[rewardAddress].rounds */\n      0x07\n      add\n        /* \"contract/lottery.sol\":9364:9398  users[rewardAddress].rounds[round] */\n      0x00\n        /* \"contract/lottery.sol\":9392:9397  round */\n      dup9\n        /* \"contract/lottery.sol\":9364:9398  users[rewardAddress].rounds[round] */\n      0xff\n      and\n      0xff\n      and\n      dup2\n      mstore\n      0x20\n      add\n      swap1\n      dup2\n      mstore\n      0x20\n      add\n      0x00\n      keccak256\n        /* \"contract/lottery.sol\":9364:9408  users[rewardAddress].rounds[round].rewardSum */\n      0x01\n      add\n      0x00\n        /* \"contract/lottery.sol\":9364:9418  users[rewardAddress].rounds[round].rewardSum += reward */\n      dup3\n      dup3\n      sload\n      add\n      swap3\n      pop\n      pop\n      dup2\n      swap1\n      sstore\n      pop\n        /* \"contract/lottery.sol\":9437:9442  users */\n      0x6b\n        /* \"contract/lottery.sol\":9437:9457  users[rewardAddress] */\n      0x00\n        /* \"contract/lottery.sol\":9443:9456  rewardAddress */\n      dup5\n        /* \"contract/lottery.sol\":9437:9457  users[rewardAddress] */\n      0xffffffffffffffffffffffffffffffffffffffff\n      and\n      0xffffffffffffffffffffffffffffffffffffffff\n      and\n      dup2\n      mstore\n      0x20\n      add\n      swap1\n      dup2\n      mstore\n      0x20\n      add\n      0x00\n      keccak256\n        /* \"contract/lottery.sol\":9437:9464  users[rewardAddress].rounds */\n      0x07\n      add\n        /* \"contract/lottery.sol\":9437:9471  users[rewardAddress].rounds[round] */\n      0x00\n        /* \"contract/lottery.sol\":9465:9470  round */\n      dup8\n        /* \"contract/lottery.sol\":9437:9471  users[rewardAddress].rounds[round] */\n      0xff\n      and\n      0xff\n      and\n      dup2\n      mstore\n      0x20\n      add\n      swap1\n      dup2\n      mstore\n      0x20\n      add\n      0x00\n      keccak256\n        /* \"contract/lottery.sol\":9437:9479  users[rewardAddress].rounds[round].payouts */\n      0x00\n      add\n      0x04\n        /* \"contract/lottery.sol\":9437:9481  users[rewardAddress].rounds[round].payouts++ */\n      dup2\n      dup2\n      swap1\n      sload\n      swap1\n      0x0100\n      exp\n      swap1\n      div\n      0xffff\n      and\n      dup1\n      swap3\n      swap2\n      swap1\n      0x01\n      add\n      swap2\n      swap1\n      0x0100\n      exp\n      dup2\n      sload\n      dup2\n      0xffff\n      mul\n      not\n      and\n      swap1\n      dup4\n      0xffff\n      and\n      mul\n      or\n      swap1\n      sstore\n      pop\n      pop\n        /* \"contract/lottery.sol\":9540:9546  reward */\n      dup4\n        /* \"contract/lottery.sol\":9500:9505  users */\n      0x6b\n        /* \"contract/lottery.sol\":9500:9520  users[rewardAddress] */\n      0x00\n        /* \"contract/lottery.sol\":9506:9519  rewardAddress */\n      dup6\n        /* \"contract/lottery.sol\":9500:9520  users[rewardAddress] */\n      0xffffffffffffffffffffffffffffffffffffffff\n      and\n      0xffffffffffffffffffffffffffffffffffffffff\n      and\n      dup2\n      mstore\n      0x20\n      add\n      swap1\n      dup2\n      mstore\n      0x20\n      add\n      0x00\n      keccak256\n        /* \"contract/lottery.sol\":9500:9536  users[rewardAddress].roundsRewardSum */\n      0x05\n      add\n      0x00\n        /* \"contract/lottery.sol\":9500:9546  users[rewardAddress].roundsRewardSum += reward */\n      dup3\n      dup3\n      sload\n      add\n      swap3\n      pop\n      pop\n      dup2\n      swap1\n      sstore\n      pop\n        /* \"contract/lottery.sol\":9598:9604  reward */\n      dup4\n        /* \"contract/lottery.sol\":9565:9570  users */\n      0x6b\n        /* \"contract/lottery.sol\":9565:9585  users[rewardAddress] */\n      0x00\n        /* \"contract/lottery.sol\":9571:9584  rewardAddress */\n      dup6\n        /* \"contract/lottery.sol\":9565:9585  users[rewardAddress] */\n      0xffffffffffffffffffffffffffffffffffffffff\n      and\n      0xffffffffffffffffffffffffffffffffffffffff\n      and\n      dup2\n      mstore\n      0x20\n      add\n      swap1\n      dup2\n      mstore\n      0x20\n      add\n      0x00\n      keccak256\n        /* \"contract/lottery.sol\":9565:9594  users[rewardAddress].turnover */\n      0x09\n      add\n      0x00\n        /* \"contract/lottery.sol\":9565:9604  users[rewardAddress].turnover += reward */\n      dup3\n      dup3\n      sload\n      add\n      swap3\n      pop\n      pop\n      dup2\n      swap1\n      sstore\n      pop\n        /* \"contract/lottery.sol\":9665:9670  users */\n      0x6b\n        /* \"contract/lottery.sol\":9665:9685  users[rewardAddress] */\n      0x00\n        /* \"contract/lottery.sol\":9671:9684  rewardAddress */\n      dup5\n        /* \"contract/lottery.sol\":9665:9685  users[rewardAddress] */\n      0xffffffffffffffffffffffffffffffffffffffff\n      and\n      0xffffffffffffffffffffffffffffffffffffffff\n      and\n      dup2\n      mstore\n      0x20\n      add\n      swap1\n      dup2\n      mstore\n      0x20\n      add\n      0x00\n      keccak256\n        /* \"contract/lottery.sol\":9665:9692  users[rewardAddress].rounds */\n      0x07\n      add\n        /* \"contract/lottery.sol\":9665:9699  users[rewardAddress].rounds[round] */\n      0x00\n        /* \"contract/lottery.sol\":9693:9698  round */\n      dup8\n        /* \"contract/lottery.sol\":9665:9699  users[rewardAddress].rounds[round] */\n      0xff\n      and\n      0xff\n      and\n      dup2\n      mstore\n      0x20\n      add\n      swap1\n      dup2\n      mstore\n      0x20\n      add\n      0x00\n      keccak256\n        /* \"contract/lottery.sol\":9665:9716  users[rewardAddress].rounds[round].lastTimeBuyround */\n      0x03\n      add\n      sload\n        /* \"contract/lottery.sol\":9659:9662  now */\n      timestamp\n        /* \"contract/lottery.sol\":9659:9716  now - users[rewardAddress].rounds[round].lastTimeBuyround */\n      sub\n        /* \"contract/lottery.sol\":9642:9655  25 * 31536000 */\n      0x2efe0780\n        /* \"contract/lottery.sol\":9642:9717  25 * 31536000 / (now - users[rewardAddress].rounds[round].lastTimeBuyround) */\n      dup2\n      tag_291\n      jumpi\n      invalid\n    tag_291:\n      div\n        /* \"contract/lottery.sol\":9623:9632  RoiRounds */\n      0x35\n        /* \"contract/lottery.sol\":9633:9638  round */\n      dup8\n        /* \"contract/lottery.sol\":9623:9639  RoiRounds[round] */\n      0xff\n      and\n      0x10\n      dup2\n      lt\n      tag_292\n      jumpi\n      invalid\n    tag_292:\n      add\n        /* \"contract/lottery.sol\":9623:9717  RoiRounds[round] = 25 * 31536000 / (now - users[rewardAddress].rounds[round].lastTimeBuyround) */\n      dup2\n      swap1\n      sstore\n      pop\n        /* \"contract/lottery.sol\":9759:9769  msg.sender */\n      caller\n        /* \"contract/lottery.sol\":9742:9850  roundPayout(now, msg.sender, users[rewardAddress].id, round, reward, users[msg.sender].id, RoiRounds[round]) */\n      0xffffffffffffffffffffffffffffffffffffffff\n      and\n      0xe4183700b5bfcfeaf533b813f60f33ff4a041fa7bf73db1dd14fbb3eace4fa35\n        /* \"contract/lottery.sol\":9754:9757  now */\n      timestamp\n        /* \"contract/lottery.sol\":9771:9776  users */\n      0x6b\n        /* \"contract/lottery.sol\":9771:9791  users[rewardAddress] */\n      0x00\n        /* \"contract/lottery.sol\":9777:9790  rewardAddress */\n      dup8\n        /* \"contract/lottery.sol\":9771:9791  users[rewardAddress] */\n      0xffffffffffffffffffffffffffffffffffffffff\n      and\n      0xffffffffffffffffffffffffffffffffffffffff\n      and\n      dup2\n      mstore\n      0x20\n      add\n      swap1\n      dup2\n      mstore\n      0x20\n      add\n      0x00\n      keccak256\n        /* \"contract/lottery.sol\":9771:9794  users[rewardAddress].id */\n      0x00\n      add\n      sload\n        /* \"contract/lottery.sol\":9796:9801  round */\n      dup10\n        /* \"contract/lottery.sol\":9803:9809  reward */\n      dup9\n        /* \"contract/lottery.sol\":9811:9816  users */\n      0x6b\n        /* \"contract/lottery.sol\":9811:9828  users[msg.sender] */\n      0x00\n        /* \"contract/lottery.sol\":9817:9827  msg.sender */\n      caller\n        /* \"contract/lottery.sol\":9811:9828  users[msg.sender] */\n      0xffffffffffffffffffffffffffffffffffffffff\n      and\n      0xffffffffffffffffffffffffffffffffffffffff\n      and\n      dup2\n      mstore\n      0x20\n      add\n      swap1\n      dup2\n      mstore\n      0x20\n      add\n      0x00\n      keccak256\n        /* \"contract/lottery.sol\":9811:9831  users[msg.sender].id */\n      0x00\n      add\n      sload\n        /* \"contract/lottery.sol\":9833:9842  RoiRounds */\n      0x35\n        /* \"contract/lottery.sol\":9843:9848  round */\n      dup14\n        /* \"contract/lottery.sol\":9833:9849  RoiRounds[round] */\n      0xff\n      and\n      0x10\n      dup2\n      lt\n      tag_294\n      jumpi\n      invalid\n    tag_294:\n      add\n      sload\n        /* \"contract/lottery.sol\":9742:9850  roundPayout(now, msg.sender, users[rewardAddress].id, round, reward, users[msg.sender].id, RoiRounds[round]) */\n      mload(0x40)\n      dup1\n      dup8\n      dup2\n      mstore\n      0x20\n      add\n      dup7\n      dup2\n      mstore\n      0x20\n      add\n      dup6\n      0xff\n      and\n      dup2\n      mstore\n      0x20\n      add\n      dup5\n      dup2\n      mstore\n      0x20\n      add\n      dup4\n      dup2\n      mstore\n      0x20\n      add\n      dup3\n      dup2\n      mstore\n      0x20\n      add\n      swap7\n      pop\n      pop\n      pop\n      pop\n      pop\n      pop\n      pop\n      mload(0x40)\n      dup1\n      swap2\n      sub\n      swap1\n      log2\n        /* \"contract/lottery.sol\":9152:9929  if (sent) {\r... */\n      pop\n      jump(tag_296)\n    tag_288:\n        /* \"contract/lottery.sol\":9891:9896  owner */\n      0x66\n      0x02\n      swap1\n      sload\n      swap1\n      0x0100\n      exp\n      swap1\n      div\n      0xffffffffffffffffffffffffffffffffffffffff\n      and\n        /* \"contract/lottery.sol\":9891:9905  owner.transfer */\n      0xffffffffffffffffffffffffffffffffffffffff\n      and\n        /* \"contract/lottery.sol\":9891:9913  owner.transfer(reward) */\n      0x08fc\n        /* \"contract/lottery.sol\":9906:9912  reward */\n      dup5\n        /* \"contract/lottery.sol\":9891:9913  owner.transfer(reward) */\n      swap1\n      dup2\n      iszero\n      mul\n      swap1\n      mload(0x40)\n      0x00\n      mload(0x40)\n      dup1\n      dup4\n      sub\n      dup2\n      dup6\n      dup9\n      dup9\n      call\n      swap4\n      pop\n      pop\n      pop\n      pop\n      iszero\n      dup1\n      iszero\n      tag_298\n      jumpi\n      returndatasize\n      0x00\n      dup1\n      returndatacopy\n      revert(0x00, returndatasize)\n    tag_298:\n      pop\n        /* \"contract/lottery.sol\":9152:9929  if (sent) {\r... */\n    tag_296:\n        /* \"contract/lottery.sol\":9992:9997  users */\n      0x6b\n        /* \"contract/lottery.sol\":9992:10012  users[rewardAddress] */\n      0x00\n        /* \"contract/lottery.sol\":9998:10011  rewardAddress */\n      dup4\n        /* \"contract/lottery.sol\":9992:10012  users[rewardAddress] */\n      0xffffffffffffffffffffffffffffffffffffffff\n      and\n      0xffffffffffffffffffffffffffffffffffffffff\n      and\n      dup2\n      mstore\n      0x20\n      add\n      swap1\n      dup2\n      mstore\n      0x20\n      add\n      0x00\n      keccak256\n        /* \"contract/lottery.sol\":9992:10019  users[rewardAddress].rounds */\n      0x07\n      add\n        /* \"contract/lottery.sol\":9992:10026  users[rewardAddress].rounds[round] */\n      0x00\n        /* \"contract/lottery.sol\":10020:10025  round */\n      dup7\n        /* \"contract/lottery.sol\":9992:10026  users[rewardAddress].rounds[round] */\n      0xff\n      and\n      0xff\n      and\n      dup2\n      mstore\n      0x20\n      add\n      swap1\n      dup2\n      mstore\n      0x20\n      add\n      0x00\n      keccak256\n        /* \"contract/lottery.sol\":9992:10037  users[rewardAddress].rounds[round].maxPayouts */\n      0x00\n      add\n      0x02\n      swap1\n      sload\n      swap1\n      0x0100\n      exp\n      swap1\n      div\n      0xffff\n      and\n        /* \"contract/lottery.sol\":9947:10037  users[rewardAddress].rounds[round].payouts < users[rewardAddress].rounds[round].maxPayouts */\n      0xffff\n      and\n        /* \"contract/lottery.sol\":9947:9952  users */\n      0x6b\n        /* \"contract/lottery.sol\":9947:9967  users[rewardAddress] */\n      0x00\n        /* \"contract/lottery.sol\":9953:9966  rewardAddress */\n      dup5\n        /* \"contract/lottery.sol\":9947:9967  users[rewardAddress] */\n      0xffffffffffffffffffffffffffffffffffffffff\n      and\n      0xffffffffffffffffffffffffffffffffffffffff\n      and\n      dup2\n      mstore\n      0x20\n      add\n      swap1\n      dup2\n      mstore\n      0x20\n      add\n      0x00\n      keccak256\n        /* \"contract/lottery.sol\":9947:9974  users[rewardAddress].rounds */\n      0x07\n      add\n        /* \"contract/lottery.sol\":9947:9981  users[rewardAddress].rounds[round] */\n      0x00\n        /* \"contract/lottery.sol\":9975:9980  round */\n      dup8\n        /* \"contract/lottery.sol\":9947:9981  users[rewardAddress].rounds[round] */\n      0xff\n      and\n      0xff\n      and\n      dup2\n      mstore\n      0x20\n      add\n      swap1\n      dup2\n      mstore\n      0x20\n      add\n      0x00\n      keccak256\n        /* \"contract/lottery.sol\":9947:9989  users[rewardAddress].rounds[round].payouts */\n      0x00\n      add\n      0x04\n      swap1\n      sload\n      swap1\n      0x0100\n      exp\n      swap1\n      div\n      0xffff\n      and\n        /* \"contract/lottery.sol\":9947:10037  users[rewardAddress].rounds[round].payouts < users[rewardAddress].rounds[round].maxPayouts */\n      0xffff\n      and\n      lt\n        /* \"contract/lottery.sol\":9943:10291  if (users[rewardAddress].rounds[round].payouts < users[rewardAddress].rounds[round].maxPayouts) {\r... */\n      iszero\n      tag_299\n      jumpi\n        /* \"contract/lottery.sol\":10058:10068  roundQueue */\n      0x6d\n        /* \"contract/lottery.sol\":10058:10075  roundQueue[round] */\n      0x00\n        /* \"contract/lottery.sol\":10069:10074  round */\n      dup7\n        /* \"contract/lottery.sol\":10058:10075  roundQueue[round] */\n      0xff\n      and\n      0xff\n      and\n      dup2\n      mstore\n      0x20\n      add\n      swap1\n      dup2\n      mstore\n      0x20\n      add\n      0x00\n      keccak256\n        /* \"contract/lottery.sol\":10081:10094  rewardAddress */\n      dup3\n        /* \"contract/lottery.sol\":10058:10095  roundQueue[round].push(rewardAddress) */\n      swap1\n      dup1\n      0x01\n      dup2\n      sload\n      add\n      dup1\n      dup3\n      sstore\n      dup1\n      swap2\n      pop\n      pop\n      0x01\n      swap1\n      sub\n      swap1\n      0x00\n      mstore\n      keccak256(0x00, 0x20)\n      add\n      0x00\n      swap1\n      swap2\n      swap1\n      swap2\n      swap1\n      swap2\n      0x0100\n      exp\n      dup2\n      sload\n      dup2\n      0xffffffffffffffffffffffffffffffffffffffff\n      mul\n      not\n      and\n      swap1\n      dup4\n      0xffffffffffffffffffffffffffffffffffffffff\n      and\n      mul\n      or\n      swap1\n      sstore\n      pop\n        /* \"contract/lottery.sol\":9943:10291  if (users[rewardAddress].rounds[round].payouts < users[rewardAddress].rounds[round].maxPayouts) {\r... */\n      jump(tag_301)\n    tag_299:\n        /* \"contract/lottery.sol\":10180:10185  false */\n      0x00\n        /* \"contract/lottery.sol\":10136:10141  users */\n      0x6b\n        /* \"contract/lottery.sol\":10136:10156  users[rewardAddress] */\n      0x00\n        /* \"contract/lottery.sol\":10142:10155  rewardAddress */\n      dup5\n        /* \"contract/lottery.sol\":10136:10156  users[rewardAddress] */\n      0xffffffffffffffffffffffffffffffffffffffff\n      and\n      0xffffffffffffffffffffffffffffffffffffffff\n      and\n      dup2\n      mstore\n      0x20\n      add\n      swap1\n      dup2\n      mstore\n      0x20\n      add\n      0x00\n      keccak256\n        /* \"contract/lottery.sol\":10136:10163  users[rewardAddress].rounds */\n      0x07\n      add\n        /* \"contract/lottery.sol\":10136:10170  users[rewardAddress].rounds[round] */\n      0x00\n        /* \"contract/lottery.sol\":10164:10169  round */\n      dup8\n        /* \"contract/lottery.sol\":10136:10170  users[rewardAddress].rounds[round] */\n      0xff\n      and\n      0xff\n      and\n      dup2\n      mstore\n      0x20\n      add\n      swap1\n      dup2\n      mstore\n      0x20\n      add\n      0x00\n      keccak256\n        /* \"contract/lottery.sol\":10136:10177  users[rewardAddress].rounds[round].active */\n      0x00\n      add\n      0x06\n        /* \"contract/lottery.sol\":10136:10185  users[rewardAddress].rounds[round].active = false */\n      0x0100\n      exp\n      dup2\n      sload\n      dup2\n      0xff\n      mul\n      not\n      and\n      swap1\n      dup4\n      iszero\n      iszero\n      mul\n      or\n      swap1\n      sstore\n      pop\n        /* \"contract/lottery.sol\":10232:10242  msg.sender */\n      caller\n        /* \"contract/lottery.sol\":10209:10275  roundDeactivation(now, msg.sender, users[rewardAddress].id, round) */\n      0xffffffffffffffffffffffffffffffffffffffff\n      and\n      0x1524ba6dfa482cf4eda16273d76657ddb7f563b2e8a6c3f294564de0ffc66211\n        /* \"contract/lottery.sol\":10227:10230  now */\n      timestamp\n        /* \"contract/lottery.sol\":10244:10249  users */\n      0x6b\n        /* \"contract/lottery.sol\":10244:10264  users[rewardAddress] */\n      0x00\n        /* \"contract/lottery.sol\":10250:10263  rewardAddress */\n      dup7\n        /* \"contract/lottery.sol\":10244:10264  users[rewardAddress] */\n      0xffffffffffffffffffffffffffffffffffffffff\n      and\n      0xffffffffffffffffffffffffffffffffffffffff\n      and\n      dup2\n      mstore\n      0x20\n      add\n      swap1\n      dup2\n      mstore\n      0x20\n      add\n      0x00\n      keccak256\n        /* \"contract/lottery.sol\":10244:10267  users[rewardAddress].id */\n      0x00\n      add\n      sload\n        /* \"contract/lottery.sol\":10269:10274  round */\n      dup9\n        /* \"contract/lottery.sol\":10209:10275  roundDeactivation(now, msg.sender, users[rewardAddress].id, round) */\n      mload(0x40)\n      dup1\n      dup5\n      dup2\n      mstore\n      0x20\n      add\n      dup4\n      dup2\n      mstore\n      0x20\n      add\n      dup3\n      0xff\n      and\n      dup2\n      mstore\n      0x20\n      add\n      swap4\n      pop\n      pop\n      pop\n      pop\n      mload(0x40)\n      dup1\n      swap2\n      sub\n      swap1\n      log2\n        /* \"contract/lottery.sol\":9943:10291  if (users[rewardAddress].rounds[round].payouts < users[rewardAddress].rounds[round].maxPayouts) {\r... */\n    tag_301:\n        /* \"contract/lottery.sol\":10312:10322  roundQueue */\n      0x6d\n        /* \"contract/lottery.sol\":10312:10329  roundQueue[round] */\n      0x00\n        /* \"contract/lottery.sol\":10323:10328  round */\n      dup7\n        /* \"contract/lottery.sol\":10312:10329  roundQueue[round] */\n      0xff\n      and\n      0xff\n      and\n      dup2\n      mstore\n      0x20\n      add\n      swap1\n      dup2\n      mstore\n      0x20\n      add\n      0x00\n      keccak256\n        /* \"contract/lottery.sol\":10330:10339  headIndex */\n      0x6e\n        /* \"contract/lottery.sol\":10330:10346  headIndex[round] */\n      0x00\n        /* \"contract/lottery.sol\":10340:10345  round */\n      dup8\n        /* \"contract/lottery.sol\":10330:10346  headIndex[round] */\n      0xff\n      and\n      0xff\n      and\n      dup2\n      mstore\n      0x20\n      add\n      swap1\n      dup2\n      mstore\n      0x20\n      add\n      0x00\n      keccak256\n      sload\n        /* \"contract/lottery.sol\":10312:10347  roundQueue[round][headIndex[round]] */\n      dup2\n      sload\n      dup2\n      lt\n      tag_302\n      jumpi\n      invalid\n    tag_302:\n      swap1\n      0x00\n      mstore\n      keccak256(0x00, 0x20)\n      add\n      0x00\n        /* \"contract/lottery.sol\":10305:10347  delete roundQueue[round][headIndex[round]] */\n      0x0100\n      exp\n      dup2\n      sload\n      swap1\n      0xffffffffffffffffffffffffffffffffffffffff\n      mul\n      not\n      and\n      swap1\n      sstore\n        /* \"contract/lottery.sol\":10362:10371  headIndex */\n      0x6e\n        /* \"contract/lottery.sol\":10362:10378  headIndex[round] */\n      0x00\n        /* \"contract/lottery.sol\":10372:10377  round */\n      dup7\n        /* \"contract/lottery.sol\":10362:10378  headIndex[round] */\n      0xff\n      and\n      0xff\n      and\n      dup2\n      mstore\n      0x20\n      add\n      swap1\n      dup2\n      mstore\n      0x20\n      add\n      0x00\n      keccak256\n      0x00\n        /* \"contract/lottery.sol\":10362:10380  headIndex[round]++ */\n      dup2\n      sload\n      dup1\n      swap3\n      swap2\n      swap1\n      0x01\n      add\n      swap2\n      swap1\n      pop\n      sstore\n      pop\n        /* \"contract/lottery.sol\":8946:10612  if (roundQueue[round][headIndex[round]] != msg.sender) {\r... */\n      pop\n      pop\n      jump(tag_304)\n    tag_284:\n        /* \"contract/lottery.sol\":10413:10418  owner */\n      0x66\n      0x02\n      swap1\n      sload\n      swap1\n      0x0100\n      exp\n      swap1\n      div\n      0xffffffffffffffffffffffffffffffffffffffff\n      and\n        /* \"contract/lottery.sol\":10413:10427  owner.transfer */\n      0xffffffffffffffffffffffffffffffffffffffff\n      and\n        /* \"contract/lottery.sol\":10413:10435  owner.transfer(reward) */\n      0x08fc\n        /* \"contract/lottery.sol\":10428:10434  reward */\n      dup3\n        /* \"contract/lottery.sol\":10413:10435  owner.transfer(reward) */\n      swap1\n      dup2\n      iszero\n      mul\n      swap1\n      mload(0x40)\n      0x00\n      mload(0x40)\n      dup1\n      dup4\n      sub\n      dup2\n      dup6\n      dup9\n      dup9\n      call\n      swap4\n      pop\n      pop\n      pop\n      pop\n      iszero\n      dup1\n      iszero\n      tag_306\n      jumpi\n      returndatasize\n      0x00\n      dup1\n      returndatacopy\n      revert(0x00, returndatasize)\n    tag_306:\n      pop\n        /* \"contract/lottery.sol\":10450:10455  users */\n      0x6b\n        /* \"contract/lottery.sol\":10450:10462  users[owner] */\n      0x00\n        /* \"contract/lottery.sol\":10456:10461  owner */\n      0x66\n      0x02\n      swap1\n      sload\n      swap1\n      0x0100\n      exp\n      swap1\n      div\n      0xffffffffffffffffffffffffffffffffffffffff\n      and\n        /* \"contract/lottery.sol\":10450:10462  users[owner] */\n      0xffffffffffffffffffffffffffffffffffffffff\n      and\n      0xffffffffffffffffffffffffffffffffffffffff\n      and\n      dup2\n      mstore\n      0x20\n      add\n      swap1\n      dup2\n      mstore\n      0x20\n      add\n      0x00\n      keccak256\n        /* \"contract/lottery.sol\":10450:10469  users[owner].rounds */\n      0x07\n      add\n        /* \"contract/lottery.sol\":10450:10476  users[owner].rounds[round] */\n      0x00\n        /* \"contract/lottery.sol\":10470:10475  round */\n      dup5\n        /* \"contract/lottery.sol\":10450:10476  users[owner].rounds[round] */\n      0xff\n      and\n      0xff\n      and\n      dup2\n      mstore\n      0x20\n      add\n      swap1\n      dup2\n      mstore\n      0x20\n      add\n      0x00\n      keccak256\n        /* \"contract/lottery.sol\":10450:10484  users[owner].rounds[round].payouts */\n      0x00\n      add\n      0x04\n        /* \"contract/lottery.sol\":10450:10486  users[owner].rounds[round].payouts++ */\n      dup2\n      dup2\n      swap1\n      sload\n      swap1\n      0x0100\n      exp\n      swap1\n      div\n      0xffff\n      and\n      dup1\n      swap3\n      swap2\n      swap1\n      0x01\n      add\n      swap2\n      swap1\n      0x0100\n      exp\n      dup2\n      sload\n      dup2\n      0xffff\n      mul\n      not\n      and\n      swap1\n      dup4\n      0xffff\n      and\n      mul\n      or\n      swap1\n      sstore\n      pop\n      pop\n        /* \"contract/lottery.sol\":10541:10547  reward */\n      dup1\n        /* \"contract/lottery.sol\":10501:10506  users */\n      0x6b\n        /* \"contract/lottery.sol\":10501:10513  users[owner] */\n      0x00\n        /* \"contract/lottery.sol\":10507:10512  owner */\n      0x66\n      0x02\n      swap1\n      sload\n      swap1\n      0x0100\n      exp\n      swap1\n      div\n      0xffffffffffffffffffffffffffffffffffffffff\n      and\n        /* \"contract/lottery.sol\":10501:10513  users[owner] */\n      0xffffffffffffffffffffffffffffffffffffffff\n      and\n      0xffffffffffffffffffffffffffffffffffffffff\n      and\n      dup2\n      mstore\n      0x20\n      add\n      swap1\n      dup2\n      mstore\n      0x20\n      add\n      0x00\n      keccak256\n        /* \"contract/lottery.sol\":10501:10520  users[owner].rounds */\n      0x07\n      add\n        /* \"contract/lottery.sol\":10501:10527  users[owner].rounds[round] */\n      0x00\n        /* \"contract/lottery.sol\":10521:10526  round */\n      dup6\n        /* \"contract/lottery.sol\":10501:10527  users[owner].rounds[round] */\n      0xff\n      and\n      0xff\n      and\n      dup2\n      mstore\n      0x20\n      add\n      swap1\n      dup2\n      mstore\n      0x20\n      add\n      0x00\n      keccak256\n        /* \"contract/lottery.sol\":10501:10537  users[owner].rounds[round].rewardSum */\n      0x01\n      add\n      0x00\n        /* \"contract/lottery.sol\":10501:10547  users[owner].rounds[round].rewardSum += reward */\n      dup3\n      dup3\n      sload\n      add\n      swap3\n      pop\n      pop\n      dup2\n      swap1\n      sstore\n      pop\n        /* \"contract/lottery.sol\":10594:10600  reward */\n      dup1\n        /* \"contract/lottery.sol\":10562:10567  users */\n      0x6b\n        /* \"contract/lottery.sol\":10562:10574  users[owner] */\n      0x00\n        /* \"contract/lottery.sol\":10568:10573  owner */\n      0x66\n      0x02\n      swap1\n      sload\n      swap1\n      0x0100\n      exp\n      swap1\n      div\n      0xffffffffffffffffffffffffffffffffffffffff\n      and\n        /* \"contract/lottery.sol\":10562:10574  users[owner] */\n      0xffffffffffffffffffffffffffffffffffffffff\n      and\n      0xffffffffffffffffffffffffffffffffffffffff\n      and\n      dup2\n      mstore\n      0x20\n      add\n      swap1\n      dup2\n      mstore\n      0x20\n      add\n      0x00\n      keccak256\n        /* \"contract/lottery.sol\":10562:10590  users[owner].roundsRewardSum */\n      0x05\n      add\n      0x00\n        /* \"contract/lottery.sol\":10562:10600  users[owner].roundsRewardSum += reward */\n      dup3\n      dup3\n      sload\n      add\n      swap3\n      pop\n      pop\n      dup2\n      swap1\n      sstore\n      pop\n        /* \"contract/lottery.sol\":8946:10612  if (roundQueue[round][headIndex[round]] != msg.sender) {\r... */\n    tag_304:\n        /* \"contract/lottery.sol\":10626:10642  uint rewardValue */\n      0x00\n        /* \"contract/lottery.sol\":10658:10680  referralRewardPercents */\n      0x66\n      0x00\n      swap1\n      sload\n      swap1\n      0x0100\n      exp\n      swap1\n      div\n      0xff\n      and\n        /* \"contract/lottery.sol\":10645:10680  onePercent * referralRewardPercents */\n      0xff\n      and\n        /* \"contract/lottery.sol\":10645:10655  onePercent */\n      dup4\n        /* \"contract/lottery.sol\":10645:10680  onePercent * referralRewardPercents */\n      mul\n        /* \"contract/lottery.sol\":10626:10680  uint rewardValue = onePercent * referralRewardPercents */\n      swap1\n      pop\n        /* \"contract/lottery.sol\":10695:10747  sendRewardToReferrer(msg.sender, round, rewardValue) */\n      tag_307\n        /* \"contract/lottery.sol\":10716:10726  msg.sender */\n      caller\n        /* \"contract/lottery.sol\":10728:10733  round */\n      dup6\n        /* \"contract/lottery.sol\":10735:10746  rewardValue */\n      dup4\n        /* \"contract/lottery.sol\":10695:10715  sendRewardToReferrer */\n      tag_308\n        /* \"contract/lottery.sol\":10695:10747  sendRewardToReferrer(msg.sender, round, rewardValue) */\n      jump\t// in\n    tag_307:\n        /* \"contract/lottery.sol\":10769:10781  bool success */\n      0x00\n        /* \"contract/lottery.sol\":10787:10796  marketing */\n      0x67\n      0x00\n      swap1\n      sload\n      swap1\n      0x0100\n      exp\n      swap1\n      div\n      0xffffffffffffffffffffffffffffffffffffffff\n      and\n        /* \"contract/lottery.sol\":10787:10801  marketing.call */\n      0xffffffffffffffffffffffffffffffffffffffff\n      and\n        /* \"contract/lottery.sol\":3094:3095  7 */\n      0x07\n        /* \"contract/lottery.sol\":10809:10839  onePercent * marketingPercents */\n      0xff\n      and\n        /* \"contract/lottery.sol\":10809:10819  onePercent */\n      dup6\n        /* \"contract/lottery.sol\":10809:10839  onePercent * marketingPercents */\n      mul\n        /* \"contract/lottery.sol\":10787:10844  marketing.call{value: onePercent * marketingPercents}(\"\") */\n      mload(0x40)\n      dup1\n      0x00\n      add\n      swap1\n      pop\n      0x00\n      mload(0x40)\n      dup1\n      dup4\n      sub\n      dup2\n      dup6\n      dup8\n      gas\n      call\n      swap3\n      pop\n      pop\n      pop\n      returndatasize\n      dup1\n      0x00\n      dup2\n      eq\n      tag_311\n      jumpi\n      mload(0x40)\n      swap2\n      pop\n      and(add(returndatasize, 0x3f), not(0x1f))\n      dup3\n      add\n      0x40\n      mstore\n      returndatasize\n      dup3\n      mstore\n      returndatasize\n      0x00\n      0x20\n      dup5\n      add\n      returndatacopy\n      jump(tag_310)\n    tag_311:\n      0x60\n      swap2\n      pop\n    tag_310:\n      pop\n        /* \"contract/lottery.sol\":10768:10844  (bool success, ) = marketing.call{value: onePercent * marketingPercents}(\"\") */\n      pop\n      swap1\n      pop\n        /* \"contract/lottery.sol\":10863:10870  success */\n      dup1\n        /* \"contract/lottery.sol\":10855:10906  require(success, \"transfer failed while buy round\") */\n      tag_312\n      jumpi\n      mload(0x40)\n      0x08c379a000000000000000000000000000000000000000000000000000000000\n      dup2\n      mstore\n      0x04\n      add\n      dup1\n      dup1\n      0x20\n      add\n      dup3\n      dup2\n      sub\n      dup3\n      mstore\n      0x1f\n      dup2\n      mstore\n      0x20\n      add\n      dup1\n      0x7472616e73666572206661696c6564207768696c652062757920726f756e6400\n      dup2\n      mstore\n      pop\n      0x20\n      add\n      swap2\n      pop\n      pop\n      mload(0x40)\n      dup1\n      swap2\n      sub\n      swap1\n      revert\n    tag_312:\n        /* \"contract/lottery.sol\":430:431  _ */\n      pop\n      pop\n      pop\n      pop\n        /* \"contract/lottery.sol\":136:137  1 */\n      0x01\n        /* \"contract/lottery.sol\":442:449  _status */\n      0x00\n        /* \"contract/lottery.sol\":442:464  _status = _NOT_ENTERED */\n      dup2\n      swap1\n      sstore\n      pop\n        /* \"contract/lottery.sol\":6716:10914  function buyround(uint8 round) public payable nonReentrant{\r... */\n      pop\n      jump\t// out\n        /* \"contract/lottery.sol\":17007:17104  function getroundPrices() public view returns(uint[] memory) {\r... */\n    tag_69:\n        /* \"contract/lottery.sol\":17053:17066  uint[] memory */\n      0x60\n        /* \"contract/lottery.sol\":17086:17096  roundPrice */\n      0x68\n        /* \"contract/lottery.sol\":17079:17096  return roundPrice */\n      dup1\n      sload\n      dup1\n      0x20\n      mul\n      0x20\n      add\n      mload(0x40)\n      swap1\n      dup2\n      add\n      0x40\n      mstore\n      dup1\n      swap3\n      swap2\n      swap1\n      dup2\n      dup2\n      mstore\n      0x20\n      add\n      dup3\n      dup1\n      sload\n      dup1\n      iszero\n      tag_314\n      jumpi\n      0x20\n      mul\n      dup3\n      add\n      swap2\n      swap1\n      0x00\n      mstore\n      keccak256(0x00, 0x20)\n      swap1\n    tag_315:\n      dup2\n      sload\n      dup2\n      mstore\n      0x20\n      add\n      swap1\n      0x01\n      add\n      swap1\n      dup1\n      dup4\n      gt\n      tag_315\n      jumpi\n    tag_314:\n      pop\n      pop\n      pop\n      pop\n      pop\n      swap1\n      pop\n        /* \"contract/lottery.sol\":17007:17104  function getroundPrices() public view returns(uint[] memory) {\r... */\n      swap1\n      jump\t// out\n        /* \"contract/lottery.sol\":4795:4983  function isContract(address addr) public view returns (bool) {\r... */\n    tag_76:\n        /* \"contract/lottery.sol\":4850:4854  bool */\n      0x00\n        /* \"contract/lottery.sol\":4867:4878  uint32 size */\n      dup1\n        /* \"contract/lottery.sol\":4933:4937  addr */\n      dup3\n        /* \"contract/lottery.sol\":4921:4938  extcodesize(addr) */\n      extcodesize\n        /* \"contract/lottery.sol\":4913:4938  size := extcodesize(addr) */\n      swap1\n      pop\n        /* \"contract/lottery.sol\":4974:4975  0 */\n      0x00\n        /* \"contract/lottery.sol\":4966:4970  size */\n      dup2\n        /* \"contract/lottery.sol\":4966:4975  size != 0 */\n      0xffffffff\n      and\n      eq\n      iszero\n        /* \"contract/lottery.sol\":4959:4975  return size != 0 */\n      swap2\n      pop\n      pop\n        /* \"contract/lottery.sol\":4795:4983  function isContract(address addr) public view returns (bool) {\r... */\n      swap2\n      swap1\n      pop\n      jump\t// out\n        /* \"contract/lottery.sol\":525:555  address[50] public  todayWiner */\n    tag_84:\n      0x01\n      dup2\n      0x32\n      dup2\n      lt\n      tag_317\n      jumpi\n      invalid\n    tag_317:\n      add\n      0x00\n      swap2\n      pop\n      sload\n      swap1\n      0x0100\n      exp\n      swap1\n      div\n      0xffffffffffffffffffffffffffffffffffffffff\n      and\n      dup2\n      jump\t// out\n        /* \"contract/lottery.sol\":2903:2951  uint public constant registrationPrice = 0 ether */\n    tag_87:\n        /* \"contract/lottery.sol\":2944:2951  0 ether */\n      0x00\n        /* \"contract/lottery.sol\":2903:2951  uint public constant registrationPrice = 0 ether */\n      dup2\n      jump\t// out\n        /* \"contract/lottery.sol\":15781:17001  function getUserrounds(address userAddress) public view returns (bool[] memory, uint16[] memory, uint16[] memory, uint16[] memory, uint[] memory, uint[] memory) {\r... */\n    tag_91:\n        /* \"contract/lottery.sol\":15846:15859  bool[] memory */\n      0x60\n        /* \"contract/lottery.sol\":15861:15876  uint16[] memory */\n      dup1\n        /* \"contract/lottery.sol\":15878:15893  uint16[] memory */\n      0x60\n        /* \"contract/lottery.sol\":15895:15910  uint16[] memory */\n      dup1\n        /* \"contract/lottery.sol\":15912:15925  uint[] memory */\n      0x60\n        /* \"contract/lottery.sol\":15927:15940  uint[] memory */\n      dup1\n        /* \"contract/lottery.sol\":15953:15973  bool[] memory active */\n      0x60\n        /* \"contract/lottery.sol\":16001:16002  1 */\n      0x01\n        /* \"contract/lottery.sol\":15987:15998  totalrounds */\n      sload(0x69)\n        /* \"contract/lottery.sol\":15987:16002  totalrounds + 1 */\n      add\n        /* \"contract/lottery.sol\":15976:16003  new bool[](totalrounds + 1) */\n      0xffffffffffffffff\n      dup2\n      gt\n      dup1\n      iszero\n      tag_320\n      jumpi\n      0x00\n      dup1\n      revert\n    tag_320:\n      pop\n      mload(0x40)\n      swap1\n      dup1\n      dup3\n      mstore\n      dup1\n      0x20\n      mul\n      0x20\n      add\n      dup3\n      add\n      0x40\n      mstore\n      dup1\n      iszero\n      tag_321\n      jumpi\n      dup2\n      0x20\n      add\n      0x20\n      dup3\n      mul\n      dup1\n      calldatasize\n      dup4\n      calldatacopy\n      dup1\n      dup3\n      add\n      swap2\n      pop\n      pop\n      swap1\n      pop\n    tag_321:\n      pop\n        /* \"contract/lottery.sol\":15953:16003  bool[] memory active = new bool[](totalrounds + 1) */\n      swap1\n      pop\n        /* \"contract/lottery.sol\":16014:16037  uint16[] memory payouts */\n      0x60\n        /* \"contract/lottery.sol\":16067:16068  1 */\n      0x01\n        /* \"contract/lottery.sol\":16053:16064  totalrounds */\n      sload(0x69)\n        /* \"contract/lottery.sol\":16053:16068  totalrounds + 1 */\n      add\n        /* \"contract/lottery.sol\":16040:16069  new uint16[](totalrounds + 1) */\n      0xffffffffffffffff\n      dup2\n      gt\n      dup1\n      iszero\n      tag_322\n      jumpi\n      0x00\n      dup1\n      revert\n    tag_322:\n      pop\n      mload(0x40)\n      swap1\n      dup1\n      dup3\n      mstore\n      dup1\n      0x20\n      mul\n      0x20\n      add\n      dup3\n      add\n      0x40\n      mstore\n      dup1\n      iszero\n      tag_323\n      jumpi\n      dup2\n      0x20\n      add\n      0x20\n      dup3\n      mul\n      dup1\n      calldatasize\n      dup4\n      calldatacopy\n      dup1\n      dup3\n      add\n      swap2\n      pop\n      pop\n      swap1\n      pop\n    tag_323:\n      pop\n        /* \"contract/lottery.sol\":16014:16069  uint16[] memory payouts = new uint16[](totalrounds + 1) */\n      swap1\n      pop\n        /* \"contract/lottery.sol\":16080:16106  uint16[] memory maxPayouts */\n      0x60\n        /* \"contract/lottery.sol\":16136:16137  1 */\n      0x01\n        /* \"contract/lottery.sol\":16122:16133  totalrounds */\n      sload(0x69)\n        /* \"contract/lottery.sol\":16122:16137  totalrounds + 1 */\n      add\n        /* \"contract/lottery.sol\":16109:16138  new uint16[](totalrounds + 1) */\n      0xffffffffffffffff\n      dup2\n      gt\n      dup1\n      iszero\n      tag_324\n      jumpi\n      0x00\n      dup1\n      revert\n    tag_324:\n      pop\n      mload(0x40)\n      swap1\n      dup1\n      dup3\n      mstore\n      dup1\n      0x20\n      mul\n      0x20\n      add\n      dup3\n      add\n      0x40\n      mstore\n      dup1\n      iszero\n      tag_325\n      jumpi\n      dup2\n      0x20\n      add\n      0x20\n      dup3\n      mul\n      dup1\n      calldatasize\n      dup4\n      calldatacopy\n      dup1\n      dup3\n      add\n      swap2\n      pop\n      pop\n      swap1\n      pop\n    tag_325:\n      pop\n        /* \"contract/lottery.sol\":16080:16138  uint16[] memory maxPayouts = new uint16[](totalrounds + 1) */\n      swap1\n      pop\n        /* \"contract/lottery.sol\":16149:16180  uint16[] memory activationTimes */\n      0x60\n        /* \"contract/lottery.sol\":16210:16211  1 */\n      0x01\n        /* \"contract/lottery.sol\":16196:16207  totalrounds */\n      sload(0x69)\n        /* \"contract/lottery.sol\":16196:16211  totalrounds + 1 */\n      add\n        /* \"contract/lottery.sol\":16183:16212  new uint16[](totalrounds + 1) */\n      0xffffffffffffffff\n      dup2\n      gt\n      dup1\n      iszero\n      tag_326\n      jumpi\n      0x00\n      dup1\n      revert\n    tag_326:\n      pop\n      mload(0x40)\n      swap1\n      dup1\n      dup3\n      mstore\n      dup1\n      0x20\n      mul\n      0x20\n      add\n      dup3\n      add\n      0x40\n      mstore\n      dup1\n      iszero\n      tag_327\n      jumpi\n      dup2\n      0x20\n      add\n      0x20\n      dup3\n      mul\n      dup1\n      calldatasize\n      dup4\n      calldatacopy\n      dup1\n      dup3\n      add\n      swap2\n      pop\n      pop\n      swap1\n      pop\n    tag_327:\n      pop\n        /* \"contract/lottery.sol\":16149:16212  uint16[] memory activationTimes = new uint16[](totalrounds + 1) */\n      swap1\n      pop\n        /* \"contract/lottery.sol\":16223:16246  uint[] memory rewardSum */\n      0x60\n        /* \"contract/lottery.sol\":16274:16275  1 */\n      0x01\n        /* \"contract/lottery.sol\":16260:16271  totalrounds */\n      sload(0x69)\n        /* \"contract/lottery.sol\":16260:16275  totalrounds + 1 */\n      add\n        /* \"contract/lottery.sol\":16249:16276  new uint[](totalrounds + 1) */\n      0xffffffffffffffff\n      dup2\n      gt\n      dup1\n      iszero\n      tag_328\n      jumpi\n      0x00\n      dup1\n      revert\n    tag_328:\n      pop\n      mload(0x40)\n      swap1\n      dup1\n      dup3\n      mstore\n      dup1\n      0x20\n      mul\n      0x20\n      add\n      dup3\n      add\n      0x40\n      mstore\n      dup1\n      iszero\n      tag_329\n      jumpi\n      dup2\n      0x20\n      add\n      0x20\n      dup3\n      mul\n      dup1\n      calldatasize\n      dup4\n      calldatacopy\n      dup1\n      dup3\n      add\n      swap2\n      pop\n      pop\n      swap1\n      pop\n    tag_329:\n      pop\n        /* \"contract/lottery.sol\":16223:16276  uint[] memory rewardSum = new uint[](totalrounds + 1) */\n      swap1\n      pop\n        /* \"contract/lottery.sol\":16287:16318  uint[] memory referralPayoutSum */\n      0x60\n        /* \"contract/lottery.sol\":16346:16347  1 */\n      0x01\n        /* \"contract/lottery.sol\":16332:16343  totalrounds */\n      sload(0x69)\n        /* \"contract/lottery.sol\":16332:16347  totalrounds + 1 */\n      add\n        /* \"contract/lottery.sol\":16321:16348  new uint[](totalrounds + 1) */\n      0xffffffffffffffff\n      dup2\n      gt\n      dup1\n      iszero\n      tag_330\n      jumpi\n      0x00\n      dup1\n      revert\n    tag_330:\n      pop\n      mload(0x40)\n      swap1\n      dup1\n      dup3\n      mstore\n      dup1\n      0x20\n      mul\n      0x20\n      add\n      dup3\n      add\n      0x40\n      mstore\n      dup1\n      iszero\n      tag_331\n      jumpi\n      dup2\n      0x20\n      add\n      0x20\n      dup3\n      mul\n      dup1\n      calldatasize\n      dup4\n      calldatacopy\n      dup1\n      dup3\n      add\n      swap2\n      pop\n      pop\n      swap1\n      pop\n    tag_331:\n      pop\n        /* \"contract/lottery.sol\":16287:16348  uint[] memory referralPayoutSum = new uint[](totalrounds + 1) */\n      swap1\n      pop\n        /* \"contract/lottery.sol\":16364:16375  uint8 round */\n      0x00\n        /* \"contract/lottery.sol\":16378:16379  1 */\n      0x01\n        /* \"contract/lottery.sol\":16364:16379  uint8 round = 1 */\n      swap1\n      pop\n        /* \"contract/lottery.sol\":16359:16900  for (uint8 round = 1; round <= totalrounds; round++) {\r... */\n    tag_332:\n        /* \"contract/lottery.sol\":16390:16401  totalrounds */\n      sload(0x69)\n        /* \"contract/lottery.sol\":16381:16386  round */\n      dup2\n        /* \"contract/lottery.sol\":16381:16401  round <= totalrounds */\n      0xff\n      and\n      gt\n        /* \"contract/lottery.sol\":16359:16900  for (uint8 round = 1; round <= totalrounds; round++) {\r... */\n      tag_333\n      jumpi\n        /* \"contract/lottery.sol\":16443:16448  users */\n      0x6b\n        /* \"contract/lottery.sol\":16443:16461  users[userAddress] */\n      0x00\n        /* \"contract/lottery.sol\":16449:16460  userAddress */\n      dup16\n        /* \"contract/lottery.sol\":16443:16461  users[userAddress] */\n      0xffffffffffffffffffffffffffffffffffffffff\n      and\n      0xffffffffffffffffffffffffffffffffffffffff\n      and\n      dup2\n      mstore\n      0x20\n      add\n      swap1\n      dup2\n      mstore\n      0x20\n      add\n      0x00\n      keccak256\n        /* \"contract/lottery.sol\":16443:16468  users[userAddress].rounds */\n      0x07\n      add\n        /* \"contract/lottery.sol\":16443:16475  users[userAddress].rounds[round] */\n      0x00\n        /* \"contract/lottery.sol\":16469:16474  round */\n      dup3\n        /* \"contract/lottery.sol\":16443:16475  users[userAddress].rounds[round] */\n      0xff\n      and\n      0xff\n      and\n      dup2\n      mstore\n      0x20\n      add\n      swap1\n      dup2\n      mstore\n      0x20\n      add\n      0x00\n      keccak256\n        /* \"contract/lottery.sol\":16443:16482  users[userAddress].rounds[round].active */\n      0x00\n      add\n      0x06\n      swap1\n      sload\n      swap1\n      0x0100\n      exp\n      swap1\n      div\n      0xff\n      and\n        /* \"contract/lottery.sol\":16427:16433  active */\n      dup8\n        /* \"contract/lottery.sol\":16434:16439  round */\n      dup3\n        /* \"contract/lottery.sol\":16427:16440  active[round] */\n      0xff\n      and\n      dup2\n      mload\n      dup2\n      lt\n      tag_335\n      jumpi\n      invalid\n    tag_335:\n      0x20\n      mul\n      0x20\n      add\n      add\n        /* \"contract/lottery.sol\":16427:16482  active[round] = users[userAddress].rounds[round].active */\n      swap1\n      iszero\n      iszero\n      swap1\n      dup2\n      iszero\n      iszero\n      dup2\n      mstore\n      pop\n      pop\n        /* \"contract/lottery.sol\":16514:16519  users */\n      0x6b\n        /* \"contract/lottery.sol\":16514:16532  users[userAddress] */\n      0x00\n        /* \"contract/lottery.sol\":16520:16531  userAddress */\n      dup16\n        /* \"contract/lottery.sol\":16514:16532  users[userAddress] */\n      0xffffffffffffffffffffffffffffffffffffffff\n      and\n      0xffffffffffffffffffffffffffffffffffffffff\n      and\n      dup2\n      mstore\n      0x20\n      add\n      swap1\n      dup2\n      mstore\n      0x20\n      add\n      0x00\n      keccak256\n        /* \"contract/lottery.sol\":16514:16539  users[userAddress].rounds */\n      0x07\n      add\n        /* \"contract/lottery.sol\":16514:16546  users[userAddress].rounds[round] */\n      0x00\n        /* \"contract/lottery.sol\":16540:16545  round */\n      dup3\n        /* \"contract/lottery.sol\":16514:16546  users[userAddress].rounds[round] */\n      0xff\n      and\n      0xff\n      and\n      dup2\n      mstore\n      0x20\n      add\n      swap1\n      dup2\n      mstore\n      0x20\n      add\n      0x00\n      keccak256\n        /* \"contract/lottery.sol\":16514:16554  users[userAddress].rounds[round].payouts */\n      0x00\n      add\n      0x04\n      swap1\n      sload\n      swap1\n      0x0100\n      exp\n      swap1\n      div\n      0xffff\n      and\n        /* \"contract/lottery.sol\":16497:16504  payouts */\n      dup7\n        /* \"contract/lottery.sol\":16505:16510  round */\n      dup3\n        /* \"contract/lottery.sol\":16497:16511  payouts[round] */\n      0xff\n      and\n      dup2\n      mload\n      dup2\n      lt\n      tag_336\n      jumpi\n      invalid\n    tag_336:\n      0x20\n      mul\n      0x20\n      add\n      add\n        /* \"contract/lottery.sol\":16497:16554  payouts[round] = users[userAddress].rounds[round].payouts */\n      swap1\n      0xffff\n      and\n      swap1\n      dup2\n      0xffff\n      and\n      dup2\n      mstore\n      pop\n      pop\n        /* \"contract/lottery.sol\":16589:16594  users */\n      0x6b\n        /* \"contract/lottery.sol\":16589:16607  users[userAddress] */\n      0x00\n        /* \"contract/lottery.sol\":16595:16606  userAddress */\n      dup16\n        /* \"contract/lottery.sol\":16589:16607  users[userAddress] */\n      0xffffffffffffffffffffffffffffffffffffffff\n      and\n      0xffffffffffffffffffffffffffffffffffffffff\n      and\n      dup2\n      mstore\n      0x20\n      add\n      swap1\n      dup2\n      mstore\n      0x20\n      add\n      0x00\n      keccak256\n        /* \"contract/lottery.sol\":16589:16614  users[userAddress].rounds */\n      0x07\n      add\n        /* \"contract/lottery.sol\":16589:16621  users[userAddress].rounds[round] */\n      0x00\n        /* \"contract/lottery.sol\":16615:16620  round */\n      dup3\n        /* \"contract/lottery.sol\":16589:16621  users[userAddress].rounds[round] */\n      0xff\n      and\n      0xff\n      and\n      dup2\n      mstore\n      0x20\n      add\n      swap1\n      dup2\n      mstore\n      0x20\n      add\n      0x00\n      keccak256\n        /* \"contract/lottery.sol\":16589:16632  users[userAddress].rounds[round].maxPayouts */\n      0x00\n      add\n      0x02\n      swap1\n      sload\n      swap1\n      0x0100\n      exp\n      swap1\n      div\n      0xffff\n      and\n        /* \"contract/lottery.sol\":16569:16579  maxPayouts */\n      dup6\n        /* \"contract/lottery.sol\":16580:16585  round */\n      dup3\n        /* \"contract/lottery.sol\":16569:16586  maxPayouts[round] */\n      0xff\n      and\n      dup2\n      mload\n      dup2\n      lt\n      tag_337\n      jumpi\n      invalid\n    tag_337:\n      0x20\n      mul\n      0x20\n      add\n      add\n        /* \"contract/lottery.sol\":16569:16632  maxPayouts[round] = users[userAddress].rounds[round].maxPayouts */\n      swap1\n      0xffff\n      and\n      swap1\n      dup2\n      0xffff\n      and\n      dup2\n      mstore\n      pop\n      pop\n        /* \"contract/lottery.sol\":16672:16677  users */\n      0x6b\n        /* \"contract/lottery.sol\":16672:16690  users[userAddress] */\n      0x00\n        /* \"contract/lottery.sol\":16678:16689  userAddress */\n      dup16\n        /* \"contract/lottery.sol\":16672:16690  users[userAddress] */\n      0xffffffffffffffffffffffffffffffffffffffff\n      and\n      0xffffffffffffffffffffffffffffffffffffffff\n      and\n      dup2\n      mstore\n      0x20\n      add\n      swap1\n      dup2\n      mstore\n      0x20\n      add\n      0x00\n      keccak256\n        /* \"contract/lottery.sol\":16672:16697  users[userAddress].rounds */\n      0x07\n      add\n        /* \"contract/lottery.sol\":16672:16704  users[userAddress].rounds[round] */\n      0x00\n        /* \"contract/lottery.sol\":16698:16703  round */\n      dup3\n        /* \"contract/lottery.sol\":16672:16704  users[userAddress].rounds[round] */\n      0xff\n      and\n      0xff\n      and\n      dup2\n      mstore\n      0x20\n      add\n      swap1\n      dup2\n      mstore\n      0x20\n      add\n      0x00\n      keccak256\n        /* \"contract/lottery.sol\":16672:16720  users[userAddress].rounds[round].activationTimes */\n      0x00\n      add\n      0x00\n      swap1\n      sload\n      swap1\n      0x0100\n      exp\n      swap1\n      div\n      0xffff\n      and\n        /* \"contract/lottery.sol\":16647:16662  activationTimes */\n      dup5\n        /* \"contract/lottery.sol\":16663:16668  round */\n      dup3\n        /* \"contract/lottery.sol\":16647:16669  activationTimes[round] */\n      0xff\n      and\n      dup2\n      mload\n      dup2\n      lt\n      tag_338\n      jumpi\n      invalid\n    tag_338:\n      0x20\n      mul\n      0x20\n      add\n      add\n        /* \"contract/lottery.sol\":16647:16720  activationTimes[round] = users[userAddress].rounds[round].activationTimes */\n      swap1\n      0xffff\n      and\n      swap1\n      dup2\n      0xffff\n      and\n      dup2\n      mstore\n      pop\n      pop\n        /* \"contract/lottery.sol\":16754:16759  users */\n      0x6b\n        /* \"contract/lottery.sol\":16754:16772  users[userAddress] */\n      0x00\n        /* \"contract/lottery.sol\":16760:16771  userAddress */\n      dup16\n        /* \"contract/lottery.sol\":16754:16772  users[userAddress] */\n      0xffffffffffffffffffffffffffffffffffffffff\n      and\n      0xffffffffffffffffffffffffffffffffffffffff\n      and\n      dup2\n      mstore\n      0x20\n      add\n      swap1\n      dup2\n      mstore\n      0x20\n      add\n      0x00\n      keccak256\n        /* \"contract/lottery.sol\":16754:16779  users[userAddress].rounds */\n      0x07\n      add\n        /* \"contract/lottery.sol\":16754:16786  users[userAddress].rounds[round] */\n      0x00\n        /* \"contract/lottery.sol\":16780:16785  round */\n      dup3\n        /* \"contract/lottery.sol\":16754:16786  users[userAddress].rounds[round] */\n      0xff\n      and\n      0xff\n      and\n      dup2\n      mstore\n      0x20\n      add\n      swap1\n      dup2\n      mstore\n      0x20\n      add\n      0x00\n      keccak256\n        /* \"contract/lottery.sol\":16754:16796  users[userAddress].rounds[round].rewardSum */\n      0x01\n      add\n      sload\n        /* \"contract/lottery.sol\":16735:16744  rewardSum */\n      dup4\n        /* \"contract/lottery.sol\":16745:16750  round */\n      dup3\n        /* \"contract/lottery.sol\":16735:16751  rewardSum[round] */\n      0xff\n      and\n      dup2\n      mload\n      dup2\n      lt\n      tag_339\n      jumpi\n      invalid\n    tag_339:\n      0x20\n      mul\n      0x20\n      add\n      add\n        /* \"contract/lottery.sol\":16735:16796  rewardSum[round] = users[userAddress].rounds[round].rewardSum */\n      dup2\n      dup2\n      mstore\n      pop\n      pop\n        /* \"contract/lottery.sol\":16838:16843  users */\n      0x6b\n        /* \"contract/lottery.sol\":16838:16856  users[userAddress] */\n      0x00\n        /* \"contract/lottery.sol\":16844:16855  userAddress */\n      dup16\n        /* \"contract/lottery.sol\":16838:16856  users[userAddress] */\n      0xffffffffffffffffffffffffffffffffffffffff\n      and\n      0xffffffffffffffffffffffffffffffffffffffff\n      and\n      dup2\n      mstore\n      0x20\n      add\n      swap1\n      dup2\n      mstore\n      0x20\n      add\n      0x00\n      keccak256\n        /* \"contract/lottery.sol\":16838:16863  users[userAddress].rounds */\n      0x07\n      add\n        /* \"contract/lottery.sol\":16838:16870  users[userAddress].rounds[round] */\n      0x00\n        /* \"contract/lottery.sol\":16864:16869  round */\n      dup3\n        /* \"contract/lottery.sol\":16838:16870  users[userAddress].rounds[round] */\n      0xff\n      and\n      0xff\n      and\n      dup2\n      mstore\n      0x20\n      add\n      swap1\n      dup2\n      mstore\n      0x20\n      add\n      0x00\n      keccak256\n        /* \"contract/lottery.sol\":16838:16888  users[userAddress].rounds[round].referralPayoutSum */\n      0x02\n      add\n      sload\n        /* \"contract/lottery.sol\":16811:16828  referralPayoutSum */\n      dup3\n        /* \"contract/lottery.sol\":16829:16834  round */\n      dup3\n        /* \"contract/lottery.sol\":16811:16835  referralPayoutSum[round] */\n      0xff\n      and\n      dup2\n      mload\n      dup2\n      lt\n      tag_340\n      jumpi\n      invalid\n    tag_340:\n      0x20\n      mul\n      0x20\n      add\n      add\n        /* \"contract/lottery.sol\":16811:16888  referralPayoutSum[round] = users[userAddress].rounds[round].referralPayoutSum */\n      dup2\n      dup2\n      mstore\n      pop\n      pop\n        /* \"contract/lottery.sol\":16403:16410  round++ */\n      dup1\n      dup1\n      0x01\n      add\n      swap2\n      pop\n      pop\n        /* \"contract/lottery.sol\":16359:16900  for (uint8 round = 1; round <= totalrounds; round++) {\r... */\n      jump(tag_332)\n    tag_333:\n      pop\n        /* \"contract/lottery.sol\":16918:16924  active */\n      dup6\n        /* \"contract/lottery.sol\":16926:16933  payouts */\n      dup6\n        /* \"contract/lottery.sol\":16935:16945  maxPayouts */\n      dup6\n        /* \"contract/lottery.sol\":16947:16962  activationTimes */\n      dup6\n        /* \"contract/lottery.sol\":16964:16973  rewardSum */\n      dup6\n        /* \"contract/lottery.sol\":16975:16992  referralPayoutSum */\n      dup6\n        /* \"contract/lottery.sol\":16910:16993  return (active, payouts, maxPayouts, activationTimes, rewardSum, referralPayoutSum) */\n      swap12\n      pop\n      swap12\n      pop\n      swap12\n      pop\n      swap12\n      pop\n      swap12\n      pop\n      swap12\n      pop\n      pop\n      pop\n      pop\n      pop\n      pop\n      pop\n        /* \"contract/lottery.sol\":15781:17001  function getUserrounds(address userAddress) public view returns (bool[] memory, uint16[] memory, uint16[] memory, uint16[] memory, uint[] memory, uint[] memory) {\r... */\n      swap2\n      swap4\n      swap6\n      pop\n      swap2\n      swap4\n      swap6\n      jump\t// out\n        /* \"contract/lottery.sol\":697:735  address[16] public nextWinerSecretGame */\n    tag_113:\n      0x55\n      dup2\n      0x10\n      dup2\n      lt\n      tag_341\n      jumpi\n      invalid\n    tag_341:\n      add\n      0x00\n      swap2\n      pop\n      sload\n      swap1\n      0x0100\n      exp\n      swap1\n      div\n      0xffffffffffffffffffffffffffffffffffffffff\n      and\n      dup2\n      jump\t// out\n        /* \"contract/lottery.sol\":17429:17624  function getGlobalStatistic() public view returns(uint[5] memory result) {\r... */\n    tag_116:\n        /* \"contract/lottery.sol\":17479:17500  uint[5] memory result */\n      tag_343\n      tag_344\n      jump\t// in\n    tag_343:\n        /* \"contract/lottery.sol\":17513:17616  return [globalStat.members, globalStat.transactions, globalStat.turnover, todayWinerValue, timeLottery] */\n      mload(0x40)\n      dup1\n      0xa0\n      add\n      0x40\n      mstore\n      dup1\n        /* \"contract/lottery.sol\":17521:17531  globalStat */\n      0x6f\n        /* \"contract/lottery.sol\":17521:17539  globalStat.members */\n      0x00\n      add\n      sload\n        /* \"contract/lottery.sol\":17513:17616  return [globalStat.members, globalStat.transactions, globalStat.turnover, todayWinerValue, timeLottery] */\n      dup2\n      mstore\n      0x20\n      add\n        /* \"contract/lottery.sol\":17541:17551  globalStat */\n      0x6f\n        /* \"contract/lottery.sol\":17541:17564  globalStat.transactions */\n      0x01\n      add\n      sload\n        /* \"contract/lottery.sol\":17513:17616  return [globalStat.members, globalStat.transactions, globalStat.turnover, todayWinerValue, timeLottery] */\n      dup2\n      mstore\n      0x20\n      add\n        /* \"contract/lottery.sol\":17566:17576  globalStat */\n      0x6f\n        /* \"contract/lottery.sol\":17566:17585  globalStat.turnover */\n      0x02\n      add\n      sload\n        /* \"contract/lottery.sol\":17513:17616  return [globalStat.members, globalStat.transactions, globalStat.turnover, todayWinerValue, timeLottery] */\n      dup2\n      mstore\n      0x20\n      add\n        /* \"contract/lottery.sol\":17587:17602  todayWinerValue */\n      sload(0x33)\n        /* \"contract/lottery.sol\":17513:17616  return [globalStat.members, globalStat.transactions, globalStat.turnover, todayWinerValue, timeLottery] */\n      dup2\n      mstore\n      0x20\n      add\n        /* \"contract/lottery.sol\":17604:17615  timeLottery */\n      sload(0x34)\n        /* \"contract/lottery.sol\":17513:17616  return [globalStat.members, globalStat.transactions, globalStat.turnover, todayWinerValue, timeLottery] */\n      dup2\n      mstore\n      pop\n      swap1\n      pop\n        /* \"contract/lottery.sol\":17429:17624  function getGlobalStatistic() public view returns(uint[5] memory result) {\r... */\n      swap1\n      jump\t// out\n        /* \"contract/lottery.sol\":2958:2997  uint8 public constant rewardPayouts = 2 */\n    tag_122:\n        /* \"contract/lottery.sol\":2996:2997  2 */\n      0x02\n        /* \"contract/lottery.sol\":2958:2997  uint8 public constant rewardPayouts = 2 */\n      dup2\n      jump\t// out\n        /* \"contract/lottery.sol\":3241:3273  address payable public marketing */\n    tag_125:\n      0x67\n      0x00\n      swap1\n      sload\n      swap1\n      0x0100\n      exp\n      swap1\n      div\n      0xffffffffffffffffffffffffffffffffffffffff\n      and\n      dup2\n      jump\t// out\n        /* \"contract/lottery.sol\":17211:17313  function gettimeRoundEnd() public view returns(uint[16] memory) {\r... */\n    tag_128:\n        /* \"contract/lottery.sol\":17258:17273  uint[16] memory */\n      tag_346\n      tag_347\n      jump\t// in\n    tag_346:\n        /* \"contract/lottery.sol\":17293:17305  timeRoudsEnd */\n      0x45\n        /* \"contract/lottery.sol\":17286:17305  return timeRoudsEnd */\n      0x10\n      dup1\n      0x20\n      mul\n      mload(0x40)\n      swap1\n      dup2\n      add\n      0x40\n      mstore\n      dup1\n      swap3\n      swap2\n      swap1\n      dup3\n      0x10\n      dup1\n      iszero\n      tag_349\n      jumpi\n      0x20\n      mul\n      dup3\n      add\n      swap2\n    tag_350:\n      dup2\n      sload\n      dup2\n      mstore\n      0x20\n      add\n      swap1\n      0x01\n      add\n      swap1\n      dup1\n      dup4\n      gt\n      tag_350\n      jumpi\n    tag_349:\n      pop\n      pop\n      pop\n      pop\n      pop\n      swap1\n      pop\n        /* \"contract/lottery.sol\":17211:17313  function gettimeRoundEnd() public view returns(uint[16] memory) {\r... */\n      swap1\n      jump\t// out\n        /* \"contract/lottery.sol\":19084:19372  function calcSecretPrize(uint8 round) public view returns(uint value) {\r... */\n    tag_135:\n        /* \"contract/lottery.sol\":19142:19152  uint value */\n      0x00\n        /* \"contract/lottery.sol\":19165:19183  uint priceAllRound */\n      dup1\n        /* \"contract/lottery.sol\":19198:19205  uint8 i */\n      0x00\n        /* \"contract/lottery.sol\":19208:19209  1 */\n      0x01\n        /* \"contract/lottery.sol\":19198:19209  uint8 i = 1 */\n      swap1\n      pop\n        /* \"contract/lottery.sol\":19194:19290  for(uint8 i = 1; i <= totalrounds; i++) {\r... */\n    tag_352:\n        /* \"contract/lottery.sol\":19216:19227  totalrounds */\n      sload(0x69)\n        /* \"contract/lottery.sol\":19211:19212  i */\n      dup2\n        /* \"contract/lottery.sol\":19211:19227  i <= totalrounds */\n      0xff\n      and\n      gt\n        /* \"contract/lottery.sol\":19194:19290  for(uint8 i = 1; i <= totalrounds; i++) {\r... */\n      tag_353\n      jumpi\n        /* \"contract/lottery.sol\":19265:19275  roundPrice */\n      0x68\n        /* \"contract/lottery.sol\":19276:19277  i */\n      dup2\n        /* \"contract/lottery.sol\":19265:19278  roundPrice[i] */\n      0xff\n      and\n      dup2\n      sload\n      dup2\n      lt\n      tag_355\n      jumpi\n      invalid\n    tag_355:\n      swap1\n      0x00\n      mstore\n      keccak256(0x00, 0x20)\n      add\n      sload\n        /* \"contract/lottery.sol\":19249:19278  priceAllRound+= roundPrice[i] */\n      dup3\n      add\n      swap2\n      pop\n        /* \"contract/lottery.sol\":19229:19232  i++ */\n      dup1\n      dup1\n      0x01\n      add\n      swap2\n      pop\n      pop\n        /* \"contract/lottery.sol\":19194:19290  for(uint8 i = 1; i <= totalrounds; i++) {\r... */\n      jump(tag_352)\n    tag_353:\n      pop\n        /* \"contract/lottery.sol\":19343:19353  roundPrice */\n      0x68\n        /* \"contract/lottery.sol\":19354:19359  round */\n      dup4\n        /* \"contract/lottery.sol\":19343:19360  roundPrice[round] */\n      0xff\n      and\n      dup2\n      sload\n      dup2\n      lt\n      tag_357\n      jumpi\n      invalid\n    tag_357:\n      swap1\n      0x00\n      mstore\n      keccak256(0x00, 0x20)\n      add\n      sload\n        /* \"contract/lottery.sol\":19329:19342  priceAllRound */\n      dup2\n        /* \"contract/lottery.sol\":19307:19328  address(this).balance */\n      selfbalance\n        /* \"contract/lottery.sol\":19307:19342  address(this).balance/priceAllRound */\n      dup2\n      tag_359\n      jumpi\n      invalid\n    tag_359:\n      div\n        /* \"contract/lottery.sol\":19307:19360  address(this).balance/priceAllRound*roundPrice[round] */\n      mul\n        /* \"contract/lottery.sol\":19300:19360  return address(this).balance/priceAllRound*roundPrice[round] */\n      swap2\n      pop\n      pop\n        /* \"contract/lottery.sol\":19084:19372  function calcSecretPrize(uint8 round) public view returns(uint value) {\r... */\n      swap2\n      swap1\n      pop\n      jump\t// out\n        /* \"contract/lottery.sol\":17985:18108  function getUserIdByAddress(address userAddress) public view returns (uint) {\r... */\n    tag_139:\n        /* \"contract/lottery.sol\":18055:18059  uint */\n      0x00\n        /* \"contract/lottery.sol\":18079:18084  users */\n      0x6b\n        /* \"contract/lottery.sol\":18079:18097  users[userAddress] */\n      0x00\n        /* \"contract/lottery.sol\":18085:18096  userAddress */\n      dup4\n        /* \"contract/lottery.sol\":18079:18097  users[userAddress] */\n      0xffffffffffffffffffffffffffffffffffffffff\n      and\n      0xffffffffffffffffffffffffffffffffffffffff\n      and\n      dup2\n      mstore\n      0x20\n      add\n      swap1\n      dup2\n      mstore\n      0x20\n      add\n      0x00\n      keccak256\n        /* \"contract/lottery.sol\":18079:18100  users[userAddress].id */\n      0x00\n      add\n      sload\n        /* \"contract/lottery.sol\":18072:18100  return users[userAddress].id */\n      swap1\n      pop\n        /* \"contract/lottery.sol\":17985:18108  function getUserIdByAddress(address userAddress) public view returns (uint) {\r... */\n      swap2\n      swap1\n      pop\n      jump\t// out\n        /* \"contract/lottery.sol\":18306:18506  function getReferrer(address userAddress) public view returns (address) {\r... */\n    tag_143:\n        /* \"contract/lottery.sol\":18369:18376  address */\n      0x00\n        /* \"contract/lottery.sol\":18397:18426  isUserRegistered(userAddress) */\n      tag_362\n        /* \"contract/lottery.sol\":18414:18425  userAddress */\n      dup3\n        /* \"contract/lottery.sol\":18397:18413  isUserRegistered */\n      tag_61\n        /* \"contract/lottery.sol\":18397:18426  isUserRegistered(userAddress) */\n      jump\t// in\n    tag_362:\n        /* \"contract/lottery.sol\":18389:18453  require(isUserRegistered(userAddress), \"User is not registered\") */\n      tag_363\n      jumpi\n      mload(0x40)\n      0x08c379a000000000000000000000000000000000000000000000000000000000\n      dup2\n      mstore\n      0x04\n      add\n      dup1\n      dup1\n      0x20\n      add\n      dup3\n      dup2\n      sub\n      dup3\n      mstore\n      0x16\n      dup2\n      mstore\n      0x20\n      add\n      dup1\n      0x55736572206973206e6f74207265676973746572656400000000000000000000\n      dup2\n      mstore\n      pop\n      0x20\n      add\n      swap2\n      pop\n      pop\n      mload(0x40)\n      dup1\n      swap2\n      sub\n      swap1\n      revert\n    tag_363:\n        /* \"contract/lottery.sol\":18471:18476  users */\n      0x6b\n        /* \"contract/lottery.sol\":18471:18489  users[userAddress] */\n      0x00\n        /* \"contract/lottery.sol\":18477:18488  userAddress */\n      dup4\n        /* \"contract/lottery.sol\":18471:18489  users[userAddress] */\n      0xffffffffffffffffffffffffffffffffffffffff\n      and\n      0xffffffffffffffffffffffffffffffffffffffff\n      and\n      dup2\n      mstore\n      0x20\n      add\n      swap1\n      dup2\n      mstore\n      0x20\n      add\n      0x00\n      keccak256\n        /* \"contract/lottery.sol\":18471:18498  users[userAddress].referrer */\n      0x02\n      add\n      0x00\n      swap1\n      sload\n      swap1\n      0x0100\n      exp\n      swap1\n      div\n      0xffffffffffffffffffffffffffffffffffffffff\n      and\n        /* \"contract/lottery.sol\":18464:18498  return users[userAddress].referrer */\n      swap1\n      pop\n        /* \"contract/lottery.sol\":18306:18506  function getReferrer(address userAddress) public view returns (address) {\r... */\n      swap2\n      swap1\n      pop\n      jump\t// out\n        /* \"contract/lottery.sol\":3102:3141  uint8 public referralRewardPercents = 9 */\n    tag_146:\n      0x66\n      0x00\n      swap1\n      sload\n      swap1\n      0x0100\n      exp\n      swap1\n      div\n      0xff\n      and\n      dup2\n      jump\t// out\n        /* \"contract/lottery.sol\":15157:15775  function getUserroundsMissedProfit(address userAddress) public view returns ( uint[] memory, uint[] memory) {\r... */\n    tag_152:\n        /* \"contract/lottery.sol\":15235:15248  uint[] memory */\n      0x60\n        /* \"contract/lottery.sol\":15250:15263  uint[] memory */\n      dup1\n        /* \"contract/lottery.sol\":15278:15312  uint[] memory missedRefferalProfit */\n      0x60\n        /* \"contract/lottery.sol\":15340:15341  1 */\n      0x01\n        /* \"contract/lottery.sol\":15326:15337  totalrounds */\n      sload(0x69)\n        /* \"contract/lottery.sol\":15326:15341  totalrounds + 1 */\n      add\n        /* \"contract/lottery.sol\":15315:15342  new uint[](totalrounds + 1) */\n      0xffffffffffffffff\n      dup2\n      gt\n      dup1\n      iszero\n      tag_365\n      jumpi\n      0x00\n      dup1\n      revert\n    tag_365:\n      pop\n      mload(0x40)\n      swap1\n      dup1\n      dup3\n      mstore\n      dup1\n      0x20\n      mul\n      0x20\n      add\n      dup3\n      add\n      0x40\n      mstore\n      dup1\n      iszero\n      tag_366\n      jumpi\n      dup2\n      0x20\n      add\n      0x20\n      dup3\n      mul\n      dup1\n      calldatasize\n      dup4\n      calldatacopy\n      dup1\n      dup3\n      add\n      swap2\n      pop\n      pop\n      swap1\n      pop\n    tag_366:\n      pop\n        /* \"contract/lottery.sol\":15278:15342  uint[] memory missedRefferalProfit = new uint[](totalrounds + 1) */\n      swap1\n      pop\n        /* \"contract/lottery.sol\":15353:15391  uint[] memory missedRefferalPostProfit */\n      0x60\n        /* \"contract/lottery.sol\":15419:15420  1 */\n      0x01\n        /* \"contract/lottery.sol\":15405:15416  totalrounds */\n      sload(0x69)\n        /* \"contract/lottery.sol\":15405:15420  totalrounds + 1 */\n      add\n        /* \"contract/lottery.sol\":15394:15421  new uint[](totalrounds + 1) */\n      0xffffffffffffffff\n      dup2\n      gt\n      dup1\n      iszero\n      tag_367\n      jumpi\n      0x00\n      dup1\n      revert\n    tag_367:\n      pop\n      mload(0x40)\n      swap1\n      dup1\n      dup3\n      mstore\n      dup1\n      0x20\n      mul\n      0x20\n      add\n      dup3\n      add\n      0x40\n      mstore\n      dup1\n      iszero\n      tag_368\n      jumpi\n      dup2\n      0x20\n      add\n      0x20\n      dup3\n      mul\n      dup1\n      calldatasize\n      dup4\n      calldatacopy\n      dup1\n      dup3\n      add\n      swap2\n      pop\n      pop\n      swap1\n      pop\n    tag_368:\n      pop\n        /* \"contract/lottery.sol\":15353:15421  uint[] memory missedRefferalPostProfit = new uint[](totalrounds + 1) */\n      swap1\n      pop\n        /* \"contract/lottery.sol\":15437:15448  uint8 round */\n      0x00\n        /* \"contract/lottery.sol\":15451:15452  1 */\n      0x01\n        /* \"contract/lottery.sol\":15437:15452  uint8 round = 1 */\n      swap1\n      pop\n        /* \"contract/lottery.sol\":15432:15701  for (uint8 round = 1; round <= totalrounds; round++) {\r... */\n    tag_369:\n        /* \"contract/lottery.sol\":15463:15474  totalrounds */\n      sload(0x69)\n        /* \"contract/lottery.sol\":15454:15459  round */\n      dup2\n        /* \"contract/lottery.sol\":15454:15474  round <= totalrounds */\n      0xff\n      and\n      gt\n        /* \"contract/lottery.sol\":15432:15701  for (uint8 round = 1; round <= totalrounds; round++) {\r... */\n      tag_370\n      jumpi\n        /* \"contract/lottery.sol\":15530:15535  users */\n      0x6b\n        /* \"contract/lottery.sol\":15530:15548  users[userAddress] */\n      0x00\n        /* \"contract/lottery.sol\":15536:15547  userAddress */\n      dup8\n        /* \"contract/lottery.sol\":15530:15548  users[userAddress] */\n      0xffffffffffffffffffffffffffffffffffffffff\n      and\n      0xffffffffffffffffffffffffffffffffffffffff\n      and\n      dup2\n      mstore\n      0x20\n      add\n      swap1\n      dup2\n      mstore\n      0x20\n      add\n      0x00\n      keccak256\n        /* \"contract/lottery.sol\":15530:15555  users[userAddress].rounds */\n      0x07\n      add\n        /* \"contract/lottery.sol\":15530:15562  users[userAddress].rounds[round] */\n      0x00\n        /* \"contract/lottery.sol\":15556:15561  round */\n      dup3\n        /* \"contract/lottery.sol\":15530:15562  users[userAddress].rounds[round] */\n      0xff\n      and\n      0xff\n      and\n      dup2\n      mstore\n      0x20\n      add\n      swap1\n      dup2\n      mstore\n      0x20\n      add\n      0x00\n      keccak256\n        /* \"contract/lottery.sol\":15530:15583  users[userAddress].rounds[round].missedRefferalProfit */\n      0x04\n      add\n      sload\n        /* \"contract/lottery.sol\":15500:15520  missedRefferalProfit */\n      dup4\n        /* \"contract/lottery.sol\":15521:15526  round */\n      dup3\n        /* \"contract/lottery.sol\":15500:15527  missedRefferalProfit[round] */\n      0xff\n      and\n      dup2\n      mload\n      dup2\n      lt\n      tag_372\n      jumpi\n      invalid\n    tag_372:\n      0x20\n      mul\n      0x20\n      add\n      add\n        /* \"contract/lottery.sol\":15500:15583  missedRefferalProfit[round] = users[userAddress].rounds[round].missedRefferalProfit */\n      dup2\n      dup2\n      mstore\n      pop\n      pop\n        /* \"contract/lottery.sol\":15632:15637  users */\n      0x6b\n        /* \"contract/lottery.sol\":15632:15650  users[userAddress] */\n      0x00\n        /* \"contract/lottery.sol\":15638:15649  userAddress */\n      dup8\n        /* \"contract/lottery.sol\":15632:15650  users[userAddress] */\n      0xffffffffffffffffffffffffffffffffffffffff\n      and\n      0xffffffffffffffffffffffffffffffffffffffff\n      and\n      dup2\n      mstore\n      0x20\n      add\n      swap1\n      dup2\n      mstore\n      0x20\n      add\n      0x00\n      keccak256\n        /* \"contract/lottery.sol\":15632:15657  users[userAddress].rounds */\n      0x07\n      add\n        /* \"contract/lottery.sol\":15632:15664  users[userAddress].rounds[round] */\n      0x00\n        /* \"contract/lottery.sol\":15658:15663  round */\n      dup3\n        /* \"contract/lottery.sol\":15632:15664  users[userAddress].rounds[round] */\n      0xff\n      and\n      0xff\n      and\n      dup2\n      mstore\n      0x20\n      add\n      swap1\n      dup2\n      mstore\n      0x20\n      add\n      0x00\n      keccak256\n        /* \"contract/lottery.sol\":15632:15689  users[userAddress].rounds[round].missedRefferalPostProfit */\n      0x05\n      add\n      sload\n        /* \"contract/lottery.sol\":15598:15622  missedRefferalPostProfit */\n      dup3\n        /* \"contract/lottery.sol\":15623:15628  round */\n      dup3\n        /* \"contract/lottery.sol\":15598:15629  missedRefferalPostProfit[round] */\n      0xff\n      and\n      dup2\n      mload\n      dup2\n      lt\n      tag_373\n      jumpi\n      invalid\n    tag_373:\n      0x20\n      mul\n      0x20\n      add\n      add\n        /* \"contract/lottery.sol\":15598:15689  missedRefferalPostProfit[round] = users[userAddress].rounds[round].missedRefferalPostProfit */\n      dup2\n      dup2\n      mstore\n      pop\n      pop\n        /* \"contract/lottery.sol\":15476:15483  round++ */\n      dup1\n      dup1\n      0x01\n      add\n      swap2\n      pop\n      pop\n        /* \"contract/lottery.sol\":15432:15701  for (uint8 round = 1; round <= totalrounds; round++) {\r... */\n      jump(tag_369)\n    tag_370:\n      pop\n        /* \"contract/lottery.sol\":15720:15740  missedRefferalProfit */\n      dup2\n        /* \"contract/lottery.sol\":15742:15766  missedRefferalPostProfit */\n      dup2\n        /* \"contract/lottery.sol\":15711:15767  return ( missedRefferalProfit, missedRefferalPostProfit) */\n      swap4\n      pop\n      swap4\n      pop\n      pop\n      pop\n        /* \"contract/lottery.sol\":15157:15775  function getUserroundsMissedProfit(address userAddress) public view returns ( uint[] memory, uint[] memory) {\r... */\n      swap2\n      pop\n      swap2\n      jump\t// out\n        /* \"contract/lottery.sol\":662:690  uint[16] public timeRoudsEnd */\n    tag_162:\n      0x45\n      dup2\n      0x10\n      dup2\n      lt\n      tag_374\n      jumpi\n      invalid\n    tag_374:\n      add\n      0x00\n      swap2\n      pop\n      swap1\n      pop\n      sload\n      dup2\n      jump\t// out\n        /* \"contract/lottery.sol\":3280:3658  uint[] public roundPrice = [\r... */\n    tag_166:\n      0x68\n      dup2\n      dup2\n      sload\n      dup2\n      lt\n      tag_376\n      jumpi\n      invalid\n    tag_376:\n      swap1\n      0x00\n      mstore\n      keccak256(0x00, 0x20)\n      add\n      0x00\n      swap2\n      pop\n      swap1\n      pop\n      sload\n      dup2\n      jump\t// out\n        /* \"contract/lottery.sol\":630:655  uint[16] public RoiRounds */\n    tag_170:\n      0x35\n      dup2\n      0x10\n      dup2\n      lt\n      tag_378\n      jumpi\n      invalid\n    tag_378:\n      add\n      0x00\n      swap2\n      pop\n      swap1\n      pop\n      sload\n      dup2\n      jump\t// out\n        /* \"contract/lottery.sol\":14612:15147  function getUser(address userAddress) public view returns(uint, uint, uint, address, uint, uint, uint, uint, uint, uint) {\r... */\n    tag_174:\n        /* \"contract/lottery.sol\":14670:14674  uint */\n      0x00\n        /* \"contract/lottery.sol\":14676:14680  uint */\n      dup1\n        /* \"contract/lottery.sol\":14682:14686  uint */\n      0x00\n        /* \"contract/lottery.sol\":14688:14695  address */\n      dup1\n        /* \"contract/lottery.sol\":14697:14701  uint */\n      0x00\n        /* \"contract/lottery.sol\":14703:14707  uint */\n      dup1\n        /* \"contract/lottery.sol\":14709:14713  uint */\n      0x00\n        /* \"contract/lottery.sol\":14715:14719  uint */\n      dup1\n        /* \"contract/lottery.sol\":14721:14725  uint */\n      0x00\n        /* \"contract/lottery.sol\":14727:14731  uint */\n      dup1\n        /* \"contract/lottery.sol\":14744:14760  User memory user */\n      tag_381\n      tag_382\n      jump\t// in\n    tag_381:\n        /* \"contract/lottery.sol\":14763:14768  users */\n      0x6b\n        /* \"contract/lottery.sol\":14763:14781  users[userAddress] */\n      0x00\n        /* \"contract/lottery.sol\":14769:14780  userAddress */\n      dup14\n        /* \"contract/lottery.sol\":14763:14781  users[userAddress] */\n      0xffffffffffffffffffffffffffffffffffffffff\n      and\n      0xffffffffffffffffffffffffffffffffffffffff\n      and\n      dup2\n      mstore\n      0x20\n      add\n      swap1\n      dup2\n      mstore\n      0x20\n      add\n      0x00\n      keccak256\n        /* \"contract/lottery.sol\":14744:14781  User memory user = users[userAddress] */\n      mload(0x40)\n      dup1\n      0x0120\n      add\n      0x40\n      mstore\n      swap1\n      dup2\n      0x00\n      dup3\n      add\n      sload\n      dup2\n      mstore\n      0x20\n      add\n      0x01\n      dup3\n      add\n      sload\n      dup2\n      mstore\n      0x20\n      add\n      0x02\n      dup3\n      add\n      0x00\n      swap1\n      sload\n      swap1\n      0x0100\n      exp\n      swap1\n      div\n      0xffffffffffffffffffffffffffffffffffffffff\n      and\n      0xffffffffffffffffffffffffffffffffffffffff\n      and\n      0xffffffffffffffffffffffffffffffffffffffff\n      and\n      dup2\n      mstore\n      0x20\n      add\n      0x03\n      dup3\n      add\n      sload\n      dup2\n      mstore\n      0x20\n      add\n      0x04\n      dup3\n      add\n      sload\n      dup2\n      mstore\n      0x20\n      add\n      0x05\n      dup3\n      add\n      sload\n      dup2\n      mstore\n      0x20\n      add\n      0x06\n      dup3\n      add\n      sload\n      dup2\n      mstore\n      0x20\n      add\n      0x08\n      dup3\n      add\n      0x00\n      swap1\n      sload\n      swap1\n      0x0100\n      exp\n      swap1\n      div\n      0xff\n      and\n      0xff\n      and\n      0xff\n      and\n      dup2\n      mstore\n      0x20\n      add\n      0x09\n      dup3\n      add\n      sload\n      dup2\n      mstore\n      pop\n      pop\n      swap1\n      pop\n        /* \"contract/lottery.sol\":14814:14818  user */\n      dup1\n        /* \"contract/lottery.sol\":14814:14821  user.id */\n      0x00\n      add\n      mload\n        /* \"contract/lottery.sol\":14836:14840  user */\n      dup2\n        /* \"contract/lottery.sol\":14836:14862  user.registrationTimestamp */\n      0x20\n      add\n      mload\n        /* \"contract/lottery.sol\":14877:14882  users */\n      0x6b\n        /* \"contract/lottery.sol\":14877:14897  users[user.referrer] */\n      0x00\n        /* \"contract/lottery.sol\":14883:14887  user */\n      dup5\n        /* \"contract/lottery.sol\":14883:14896  user.referrer */\n      0x40\n      add\n      mload\n        /* \"contract/lottery.sol\":14877:14897  users[user.referrer] */\n      0xffffffffffffffffffffffffffffffffffffffff\n      and\n      0xffffffffffffffffffffffffffffffffffffffff\n      and\n      dup2\n      mstore\n      0x20\n      add\n      swap1\n      dup2\n      mstore\n      0x20\n      add\n      0x00\n      keccak256\n        /* \"contract/lottery.sol\":14877:14900  users[user.referrer].id */\n      0x00\n      add\n      sload\n        /* \"contract/lottery.sol\":14915:14919  user */\n      dup4\n        /* \"contract/lottery.sol\":14915:14928  user.referrer */\n      0x40\n      add\n      mload\n        /* \"contract/lottery.sol\":14943:14947  user */\n      dup5\n        /* \"contract/lottery.sol\":14943:14957  user.referrals */\n      0x60\n      add\n      mload\n        /* \"contract/lottery.sol\":14972:14976  user */\n      dup6\n        /* \"contract/lottery.sol\":14972:14994  user.referralPayoutSum */\n      0x80\n      add\n      mload\n        /* \"contract/lottery.sol\":15009:15013  user */\n      dup7\n        /* \"contract/lottery.sol\":15009:15029  user.roundsRewardSum */\n      0xa0\n      add\n      mload\n        /* \"contract/lottery.sol\":15044:15048  user */\n      dup8\n        /* \"contract/lottery.sol\":15044:15072  user.missedReferralPayoutSum */\n      0xc0\n      add\n      mload\n        /* \"contract/lottery.sol\":15087:15091  user */\n      dup9\n        /* \"contract/lottery.sol\":15087:15100  user.maxRound */\n      0xe0\n      add\n      mload\n        /* \"contract/lottery.sol\":15115:15119  user */\n      dup10\n        /* \"contract/lottery.sol\":15115:15128  user.turnover */\n      0x0100\n      add\n      mload\n        /* \"contract/lottery.sol\":14792:15139  return (\r... */\n      dup2\n      0xff\n      and\n      swap2\n      pop\n      swap11\n      pop\n      swap11\n      pop\n      swap11\n      pop\n      swap11\n      pop\n      swap11\n      pop\n      swap11\n      pop\n      swap11\n      pop\n      swap11\n      pop\n      swap11\n      pop\n      swap11\n      pop\n      pop\n        /* \"contract/lottery.sol\":14612:15147  function getUser(address userAddress) public view returns(uint, uint, uint, address, uint, uint, uint, uint, uint, uint) {\r... */\n      swap2\n      swap4\n      swap6\n      swap8\n      swap10\n      pop\n      swap2\n      swap4\n      swap6\n      swap8\n      swap10\n      jump\t// out\n        /* \"contract/lottery.sol\":17630:17734  function getContractBalance() public view returns (uint) {\r... */\n    tag_177:\n        /* \"contract/lottery.sol\":17681:17685  uint */\n      0x00\n        /* \"contract/lottery.sol\":17705:17726  address(this).balance */\n      selfbalance\n        /* \"contract/lottery.sol\":17698:17726  return address(this).balance */\n      swap1\n      pop\n        /* \"contract/lottery.sol\":17630:17734  function getContractBalance() public view returns (uint) {\r... */\n      swap1\n      jump\t// out\n        /* \"contract/lottery.sol\":600:623  uint public timeLottery */\n    tag_180:\n      sload(0x34)\n      dup2\n      jump\t// out\n        /* \"contract/lottery.sol\":10920:10955  function income() public payable {} */\n    tag_182:\n      jump\t// out\n        /* \"contract/lottery.sol\":17858:17979  function getUserAddressById(uint userId) public view returns (address) {\r... */\n    tag_186:\n        /* \"contract/lottery.sol\":17920:17927  address */\n      0x00\n        /* \"contract/lottery.sol\":17947:17963  usersAddressById */\n      0x6c\n        /* \"contract/lottery.sol\":17947:17971  usersAddressById[userId] */\n      0x00\n        /* \"contract/lottery.sol\":17964:17970  userId */\n      dup4\n        /* \"contract/lottery.sol\":17947:17971  usersAddressById[userId] */\n      dup2\n      mstore\n      0x20\n      add\n      swap1\n      dup2\n      mstore\n      0x20\n      add\n      0x00\n      keccak256\n      0x00\n      swap1\n      sload\n      swap1\n      0x0100\n      exp\n      swap1\n      div\n      0xffffffffffffffffffffffffffffffffffffffff\n      and\n        /* \"contract/lottery.sol\":17940:17971  return usersAddressById[userId] */\n      swap1\n      pop\n        /* \"contract/lottery.sol\":17858:17979  function getUserAddressById(uint userId) public view returns (address) {\r... */\n      swap2\n      swap1\n      pop\n      jump\t// out\n        /* \"contract/lottery.sol\":17320:17423  function getLotteryWiner() public view returns(address[50] memory) {\r... */\n    tag_189:\n        /* \"contract/lottery.sol\":17367:17385  address[50] memory */\n      tag_386\n      tag_387\n      jump\t// in\n    tag_386:\n        /* \"contract/lottery.sol\":17405:17415  todayWiner */\n      0x01\n        /* \"contract/lottery.sol\":17398:17415  return todayWiner */\n      0x32\n      dup1\n      0x20\n      mul\n      mload(0x40)\n      swap1\n      dup2\n      add\n      0x40\n      mstore\n      dup1\n      swap3\n      swap2\n      swap1\n      dup3\n      0x32\n      dup1\n      iszero\n      tag_389\n      jumpi\n      0x20\n      mul\n      dup3\n      add\n      swap2\n    tag_390:\n      dup2\n      0x00\n      swap1\n      sload\n      swap1\n      0x0100\n      exp\n      swap1\n      div\n      0xffffffffffffffffffffffffffffffffffffffff\n      and\n      0xffffffffffffffffffffffffffffffffffffffff\n      and\n      dup2\n      mstore\n      0x20\n      add\n      swap1\n      0x01\n      add\n      swap1\n      dup1\n      dup4\n      gt\n      tag_390\n      jumpi\n    tag_389:\n      pop\n      pop\n      pop\n      pop\n      pop\n      swap1\n      pop\n        /* \"contract/lottery.sol\":17320:17423  function getLotteryWiner() public view returns(address[50] memory) {\r... */\n      swap1\n      jump\t// out\n        /* \"contract/lottery.sol\":3206:3234  address payable public owner */\n    tag_195:\n      0x66\n      0x02\n      swap1\n      sload\n      swap1\n      0x0100\n      exp\n      swap1\n      div\n      0xffffffffffffffffffffffffffffffffffffffff\n      and\n      dup2\n      jump\t// out\n        /* \"contract/lottery.sol\":10961:12218  function Lottery(uint ticket) public {\r... */\n    tag_199:\n        /* \"contract/lottery.sol\":11031:11036  owner */\n      0x66\n      0x02\n      swap1\n      sload\n      swap1\n      0x0100\n      exp\n      swap1\n      div\n      0xffffffffffffffffffffffffffffffffffffffff\n      and\n        /* \"contract/lottery.sol\":11017:11036  msg.sender == owner */\n      0xffffffffffffffffffffffffffffffffffffffff\n      and\n        /* \"contract/lottery.sol\":11017:11027  msg.sender */\n      caller\n        /* \"contract/lottery.sol\":11017:11036  msg.sender == owner */\n      0xffffffffffffffffffffffffffffffffffffffff\n      and\n      eq\n        /* \"contract/lottery.sol\":11009:11062  require(msg.sender == owner, \"you are not an owner!\") */\n      tag_392\n      jumpi\n      mload(0x40)\n      0x08c379a000000000000000000000000000000000000000000000000000000000\n      dup2\n      mstore\n      0x04\n      add\n      dup1\n      dup1\n      0x20\n      add\n      dup3\n      dup2\n      sub\n      dup3\n      mstore\n      0x15\n      dup2\n      mstore\n      0x20\n      add\n      dup1\n      0x796f7520617265206e6f7420616e206f776e6572210000000000000000000000\n      dup2\n      mstore\n      pop\n      0x20\n      add\n      swap2\n      pop\n      pop\n      mload(0x40)\n      dup1\n      swap2\n      sub\n      swap1\n      revert\n    tag_392:\n        /* \"contract/lottery.sol\":11077:11084  uint8 i */\n      0x00\n        /* \"contract/lottery.sol\":11073:11157  for(uint8 i = 0; i <= 49; i++) {\r... */\n    tag_393:\n        /* \"contract/lottery.sol\":11095:11097  49 */\n      0x31\n        /* \"contract/lottery.sol\":11090:11091  i */\n      dup2\n        /* \"contract/lottery.sol\":11090:11097  i <= 49 */\n      0xff\n      and\n      gt\n        /* \"contract/lottery.sol\":11073:11157  for(uint8 i = 0; i <= 49; i++) {\r... */\n      tag_394\n      jumpi\n        /* \"contract/lottery.sol\":11143:11144  0 */\n      0x00\n        /* \"contract/lottery.sol\":11119:11129  todayWiner */\n      0x01\n        /* \"contract/lottery.sol\":11130:11131  i */\n      dup3\n        /* \"contract/lottery.sol\":11119:11132  todayWiner[i] */\n      0xff\n      and\n      0x32\n      dup2\n      lt\n      tag_396\n      jumpi\n      invalid\n    tag_396:\n      add\n      0x00\n        /* \"contract/lottery.sol\":11119:11145  todayWiner[i] = address(0) */\n      0x0100\n      exp\n      dup2\n      sload\n      dup2\n      0xffffffffffffffffffffffffffffffffffffffff\n      mul\n      not\n      and\n      swap1\n      dup4\n      0xffffffffffffffffffffffffffffffffffffffff\n      and\n      mul\n      or\n      swap1\n      sstore\n      pop\n        /* \"contract/lottery.sol\":11099:11102  i++ */\n      dup1\n      dup1\n      0x01\n      add\n      swap2\n      pop\n      pop\n        /* \"contract/lottery.sol\":11073:11157  for(uint8 i = 0; i <= 49; i++) {\r... */\n      jump(tag_393)\n    tag_394:\n      pop\n        /* \"contract/lottery.sol\":11167:11190  uint totalLotteryPlayer */\n      0x00\n        /* \"contract/lottery.sol\":11206:11217  uint8 round */\n      dup1\n        /* \"contract/lottery.sol\":11220:11221  1 */\n      0x01\n        /* \"contract/lottery.sol\":11206:11221  uint8 round = 1 */\n      swap1\n      pop\n        /* \"contract/lottery.sol\":11202:11512  for(uint8 round = 1; round <= totalrounds; round++) {\r... */\n    tag_398:\n        /* \"contract/lottery.sol\":11232:11243  totalrounds */\n      sload(0x69)\n        /* \"contract/lottery.sol\":11223:11228  round */\n      dup2\n        /* \"contract/lottery.sol\":11223:11243  round <= totalrounds */\n      0xff\n      and\n      gt\n        /* \"contract/lottery.sol\":11202:11512  for(uint8 round = 1; round <= totalrounds; round++) {\r... */\n      tag_399\n      jumpi\n        /* \"contract/lottery.sol\":11273:11279  uint i */\n      0x00\n        /* \"contract/lottery.sol\":11282:11291  headIndex */\n      0x6e\n        /* \"contract/lottery.sol\":11282:11298  headIndex[round] */\n      0x00\n        /* \"contract/lottery.sol\":11292:11297  round */\n      dup4\n        /* \"contract/lottery.sol\":11282:11298  headIndex[round] */\n      0xff\n      and\n      0xff\n      and\n      dup2\n      mstore\n      0x20\n      add\n      swap1\n      dup2\n      mstore\n      0x20\n      add\n      0x00\n      keccak256\n      sload\n        /* \"contract/lottery.sol\":11273:11298  uint i = headIndex[round] */\n      swap1\n      pop\n        /* \"contract/lottery.sol\":11269:11489  for(uint i = headIndex[round]; i < roundQueue[round].length; i++) {\r... */\n    tag_401:\n        /* \"contract/lottery.sol\":11304:11314  roundQueue */\n      0x6d\n        /* \"contract/lottery.sol\":11304:11321  roundQueue[round] */\n      0x00\n        /* \"contract/lottery.sol\":11315:11320  round */\n      dup4\n        /* \"contract/lottery.sol\":11304:11321  roundQueue[round] */\n      0xff\n      and\n      0xff\n      and\n      dup2\n      mstore\n      0x20\n      add\n      swap1\n      dup2\n      mstore\n      0x20\n      add\n      0x00\n      keccak256\n        /* \"contract/lottery.sol\":11304:11328  roundQueue[round].length */\n      dup1\n      sload\n      swap1\n      pop\n        /* \"contract/lottery.sol\":11300:11301  i */\n      dup2\n        /* \"contract/lottery.sol\":11300:11328  i < roundQueue[round].length */\n      lt\n        /* \"contract/lottery.sol\":11269:11489  for(uint i = headIndex[round]; i < roundQueue[round].length; i++) {\r... */\n      iszero\n      tag_402\n      jumpi\n        /* \"contract/lottery.sol\":11406:11409  now */\n      timestamp\n        /* \"contract/lottery.sol\":11398:11403  86400 */\n      0x015180\n        /* \"contract/lottery.sol\":11357:11375  lastTimeActivation */\n      0x65\n        /* \"contract/lottery.sol\":11357:11397  lastTimeActivation[roundQueue[round][i]] */\n      0x00\n        /* \"contract/lottery.sol\":11376:11386  roundQueue */\n      0x6d\n        /* \"contract/lottery.sol\":11376:11393  roundQueue[round] */\n      0x00\n        /* \"contract/lottery.sol\":11387:11392  round */\n      dup8\n        /* \"contract/lottery.sol\":11376:11393  roundQueue[round] */\n      0xff\n      and\n      0xff\n      and\n      dup2\n      mstore\n      0x20\n      add\n      swap1\n      dup2\n      mstore\n      0x20\n      add\n      0x00\n      keccak256\n        /* \"contract/lottery.sol\":11394:11395  i */\n      dup6\n        /* \"contract/lottery.sol\":11376:11396  roundQueue[round][i] */\n      dup2\n      sload\n      dup2\n      lt\n      tag_404\n      jumpi\n      invalid\n    tag_404:\n      swap1\n      0x00\n      mstore\n      keccak256(0x00, 0x20)\n      add\n      0x00\n      swap1\n      sload\n      swap1\n      0x0100\n      exp\n      swap1\n      div\n      0xffffffffffffffffffffffffffffffffffffffff\n      and\n        /* \"contract/lottery.sol\":11357:11397  lastTimeActivation[roundQueue[round][i]] */\n      0xffffffffffffffffffffffffffffffffffffffff\n      and\n      0xffffffffffffffffffffffffffffffffffffffff\n      and\n      dup2\n      mstore\n      0x20\n      add\n      swap1\n      dup2\n      mstore\n      0x20\n      add\n      0x00\n      keccak256\n      sload\n        /* \"contract/lottery.sol\":11357:11403  lastTimeActivation[roundQueue[round][i]]+86400 */\n      add\n        /* \"contract/lottery.sol\":11357:11409  lastTimeActivation[roundQueue[round][i]]+86400 > now */\n      gt\n        /* \"contract/lottery.sol\":11354:11474  if(lastTimeActivation[roundQueue[round][i]]+86400 > now) {\r... */\n      iszero\n      tag_406\n      jumpi\n        /* \"contract/lottery.sol\":11434:11454  totalLotteryPlayer++ */\n      dup3\n      dup1\n      0x01\n      add\n      swap4\n      pop\n      pop\n        /* \"contract/lottery.sol\":11354:11474  if(lastTimeActivation[roundQueue[round][i]]+86400 > now) {\r... */\n    tag_406:\n        /* \"contract/lottery.sol\":11330:11333  i++ */\n      dup1\n      dup1\n      0x01\n      add\n      swap2\n      pop\n      pop\n        /* \"contract/lottery.sol\":11269:11489  for(uint i = headIndex[round]; i < roundQueue[round].length; i++) {\r... */\n      jump(tag_401)\n    tag_402:\n      pop\n        /* \"contract/lottery.sol\":11245:11252  round++ */\n      dup1\n      dup1\n      0x01\n      add\n      swap2\n      pop\n      pop\n        /* \"contract/lottery.sol\":11202:11512  for(uint8 round = 1; round <= totalrounds; round++) {\r... */\n      jump(tag_398)\n    tag_399:\n      pop\n        /* \"contract/lottery.sol\":11568:11574  ticket */\n      dup2\n        /* \"contract/lottery.sol\":11564:11565  2 */\n      0x02\n        /* \"contract/lottery.sol\":11541:11562  address(this).balance */\n      selfbalance\n        /* \"contract/lottery.sol\":11541:11565  address(this).balance /2 */\n      dup2\n      tag_407\n      jumpi\n      invalid\n    tag_407:\n      div\n        /* \"contract/lottery.sol\":11541:11574  address(this).balance /2 / ticket */\n      dup2\n      tag_408\n      jumpi\n      invalid\n    tag_408:\n      div\n        /* \"contract/lottery.sol\":11522:11537  todayWinerValue */\n      0x33\n        /* \"contract/lottery.sol\":11522:11574  todayWinerValue =  address(this).balance /2 / ticket */\n      dup2\n      swap1\n      sstore\n      pop\n        /* \"contract/lottery.sol\":11599:11602  now */\n      timestamp\n        /* \"contract/lottery.sol\":11585:11596  timeLottery */\n      0x34\n        /* \"contract/lottery.sol\":11585:11602  timeLottery = now */\n      dup2\n      swap1\n      sstore\n      pop\n        /* \"contract/lottery.sol\":11613:11622  uint rand */\n      0x00\n        /* \"contract/lottery.sol\":11644:11650  ticket */\n      dup3\n        /* \"contract/lottery.sol\":11625:11643  totalLotteryPlayer */\n      dup3\n        /* \"contract/lottery.sol\":11625:11650  totalLotteryPlayer/ticket */\n      dup2\n      tag_409\n      jumpi\n      invalid\n    tag_409:\n      div\n        /* \"contract/lottery.sol\":11613:11650  uint rand = totalLotteryPlayer/ticket */\n      swap1\n      pop\n        /* \"contract/lottery.sol\":11661:11674  uint caunting */\n      0x00\n        /* \"contract/lottery.sol\":11685:11699  uint8 luckyNum */\n      dup1\n        /* \"contract/lottery.sol\":11714:11725  uint8 round */\n      0x00\n        /* \"contract/lottery.sol\":11728:11729  1 */\n      0x01\n        /* \"contract/lottery.sol\":11714:11729  uint8 round = 1 */\n      swap1\n      pop\n        /* \"contract/lottery.sol\":11710:12211  for(uint8 round = 1; round <= totalrounds; round++) {        \r... */\n    tag_410:\n        /* \"contract/lottery.sol\":11740:11751  totalrounds */\n      sload(0x69)\n        /* \"contract/lottery.sol\":11731:11736  round */\n      dup2\n        /* \"contract/lottery.sol\":11731:11751  round <= totalrounds */\n      0xff\n      and\n      gt\n        /* \"contract/lottery.sol\":11710:12211  for(uint8 round = 1; round <= totalrounds; round++) {        \r... */\n      tag_411\n      jumpi\n        /* \"contract/lottery.sol\":11789:11795  uint i */\n      0x00\n        /* \"contract/lottery.sol\":11798:11807  headIndex */\n      0x6e\n        /* \"contract/lottery.sol\":11798:11814  headIndex[round] */\n      0x00\n        /* \"contract/lottery.sol\":11808:11813  round */\n      dup4\n        /* \"contract/lottery.sol\":11798:11814  headIndex[round] */\n      0xff\n      and\n      0xff\n      and\n      dup2\n      mstore\n      0x20\n      add\n      swap1\n      dup2\n      mstore\n      0x20\n      add\n      0x00\n      keccak256\n      sload\n        /* \"contract/lottery.sol\":11789:11814  uint i = headIndex[round] */\n      swap1\n      pop\n        /* \"contract/lottery.sol\":11785:12200  for(uint i = headIndex[round]; i < roundQueue[round].length; i++) {\r... */\n    tag_413:\n        /* \"contract/lottery.sol\":11820:11830  roundQueue */\n      0x6d\n        /* \"contract/lottery.sol\":11820:11837  roundQueue[round] */\n      0x00\n        /* \"contract/lottery.sol\":11831:11836  round */\n      dup4\n        /* \"contract/lottery.sol\":11820:11837  roundQueue[round] */\n      0xff\n      and\n      0xff\n      and\n      dup2\n      mstore\n      0x20\n      add\n      swap1\n      dup2\n      mstore\n      0x20\n      add\n      0x00\n      keccak256\n        /* \"contract/lottery.sol\":11820:11844  roundQueue[round].length */\n      dup1\n      sload\n      swap1\n      pop\n        /* \"contract/lottery.sol\":11816:11817  i */\n      dup2\n        /* \"contract/lottery.sol\":11816:11844  i < roundQueue[round].length */\n      lt\n        /* \"contract/lottery.sol\":11785:12200  for(uint i = headIndex[round]; i < roundQueue[round].length; i++) {\r... */\n      iszero\n      tag_414\n      jumpi\n        /* \"contract/lottery.sol\":11870:11880  caunting++ */\n      dup4\n      dup1\n      0x01\n      add\n      swap5\n      pop\n      pop\n        /* \"contract/lottery.sol\":11922:11923  0 */\n      0x00\n        /* \"contract/lottery.sol\":11914:11918  rand */\n      dup6\n        /* \"contract/lottery.sol\":11903:11911  caunting */\n      dup6\n        /* \"contract/lottery.sol\":11903:11918  caunting % rand */\n      dup2\n      tag_416\n      jumpi\n      invalid\n    tag_416:\n      mod\n        /* \"contract/lottery.sol\":11903:11923  caunting % rand == 0 */\n      eq\n        /* \"contract/lottery.sol\":11903:11979  caunting % rand == 0 && lastTimeActivation[roundQueue[round][i]]+86400 > now */\n      dup1\n      iszero\n      tag_417\n      jumpi\n      pop\n        /* \"contract/lottery.sol\":11976:11979  now */\n      timestamp\n        /* \"contract/lottery.sol\":11968:11973  86400 */\n      0x015180\n        /* \"contract/lottery.sol\":11927:11945  lastTimeActivation */\n      0x65\n        /* \"contract/lottery.sol\":11927:11967  lastTimeActivation[roundQueue[round][i]] */\n      0x00\n        /* \"contract/lottery.sol\":11946:11956  roundQueue */\n      0x6d\n        /* \"contract/lottery.sol\":11946:11963  roundQueue[round] */\n      0x00\n        /* \"contract/lottery.sol\":11957:11962  round */\n      dup8\n        /* \"contract/lottery.sol\":11946:11963  roundQueue[round] */\n      0xff\n      and\n      0xff\n      and\n      dup2\n      mstore\n      0x20\n      add\n      swap1\n      dup2\n      mstore\n      0x20\n      add\n      0x00\n      keccak256\n        /* \"contract/lottery.sol\":11964:11965  i */\n      dup6\n        /* \"contract/lottery.sol\":11946:11966  roundQueue[round][i] */\n      dup2\n      sload\n      dup2\n      lt\n      tag_418\n      jumpi\n      invalid\n    tag_418:\n      swap1\n      0x00\n      mstore\n      keccak256(0x00, 0x20)\n      add\n      0x00\n      swap1\n      sload\n      swap1\n      0x0100\n      exp\n      swap1\n      div\n      0xffffffffffffffffffffffffffffffffffffffff\n      and\n        /* \"contract/lottery.sol\":11927:11967  lastTimeActivation[roundQueue[round][i]] */\n      0xffffffffffffffffffffffffffffffffffffffff\n      and\n      0xffffffffffffffffffffffffffffffffffffffff\n      and\n      dup2\n      mstore\n      0x20\n      add\n      swap1\n      dup2\n      mstore\n      0x20\n      add\n      0x00\n      keccak256\n      sload\n        /* \"contract/lottery.sol\":11927:11973  lastTimeActivation[roundQueue[round][i]]+86400 */\n      add\n        /* \"contract/lottery.sol\":11927:11979  lastTimeActivation[roundQueue[round][i]]+86400 > now */\n      gt\n        /* \"contract/lottery.sol\":11903:11979  caunting % rand == 0 && lastTimeActivation[roundQueue[round][i]]+86400 > now */\n    tag_417:\n        /* \"contract/lottery.sol\":11900:12185  if(caunting % rand == 0 && lastTimeActivation[roundQueue[round][i]]+86400 > now) {\r... */\n      iszero\n      tag_420\n      jumpi\n        /* \"contract/lottery.sol\":12027:12037  roundQueue */\n      0x6d\n        /* \"contract/lottery.sol\":12027:12044  roundQueue[round] */\n      0x00\n        /* \"contract/lottery.sol\":12038:12043  round */\n      dup4\n        /* \"contract/lottery.sol\":12027:12044  roundQueue[round] */\n      0xff\n      and\n      0xff\n      and\n      dup2\n      mstore\n      0x20\n      add\n      swap1\n      dup2\n      mstore\n      0x20\n      add\n      0x00\n      keccak256\n        /* \"contract/lottery.sol\":12045:12046  i */\n      dup2\n        /* \"contract/lottery.sol\":12027:12047  roundQueue[round][i] */\n      dup2\n      sload\n      dup2\n      lt\n      tag_421\n      jumpi\n      invalid\n    tag_421:\n      swap1\n      0x00\n      mstore\n      keccak256(0x00, 0x20)\n      add\n      0x00\n      swap1\n      sload\n      swap1\n      0x0100\n      exp\n      swap1\n      div\n      0xffffffffffffffffffffffffffffffffffffffff\n      and\n        /* \"contract/lottery.sol\":12004:12014  todayWiner */\n      0x01\n        /* \"contract/lottery.sol\":12015:12023  luckyNum */\n      dup5\n        /* \"contract/lottery.sol\":12004:12024  todayWiner[luckyNum] */\n      0xff\n      and\n      0x32\n      dup2\n      lt\n      tag_423\n      jumpi\n      invalid\n    tag_423:\n      add\n      0x00\n        /* \"contract/lottery.sol\":12004:12047  todayWiner[luckyNum] = roundQueue[round][i] */\n      0x0100\n      exp\n      dup2\n      sload\n      dup2\n      0xffffffffffffffffffffffffffffffffffffffff\n      mul\n      not\n      and\n      swap1\n      dup4\n      0xffffffffffffffffffffffffffffffffffffffff\n      and\n      mul\n      or\n      swap1\n      sstore\n      pop\n        /* \"contract/lottery.sol\":12071:12081  luckyNum++ */\n      dup3\n      dup1\n      0x01\n      add\n      swap4\n      pop\n      pop\n        /* \"contract/lottery.sol\":12126:12136  roundQueue */\n      0x6d\n        /* \"contract/lottery.sol\":12126:12143  roundQueue[round] */\n      0x00\n        /* \"contract/lottery.sol\":12137:12142  round */\n      dup4\n        /* \"contract/lottery.sol\":12126:12143  roundQueue[round] */\n      0xff\n      and\n      0xff\n      and\n      dup2\n      mstore\n      0x20\n      add\n      swap1\n      dup2\n      mstore\n      0x20\n      add\n      0x00\n      keccak256\n        /* \"contract/lottery.sol\":12144:12145  i */\n      dup2\n        /* \"contract/lottery.sol\":12126:12146  roundQueue[round][i] */\n      dup2\n      sload\n      dup2\n      lt\n      tag_425\n      jumpi\n      invalid\n    tag_425:\n      swap1\n      0x00\n      mstore\n      keccak256(0x00, 0x20)\n      add\n      0x00\n      swap1\n      sload\n      swap1\n      0x0100\n      exp\n      swap1\n      div\n      0xffffffffffffffffffffffffffffffffffffffff\n      and\n        /* \"contract/lottery.sol\":12110:12164  winLottery(now, roundQueue[round][i], todayWinerValue) */\n      0xffffffffffffffffffffffffffffffffffffffff\n      and\n      0xedac0922924cc83017073b98842693d865d06a82c38175d4a1cb0811ef86193f\n        /* \"contract/lottery.sol\":12121:12124  now */\n      timestamp\n        /* \"contract/lottery.sol\":12148:12163  todayWinerValue */\n      sload(0x33)\n        /* \"contract/lottery.sol\":12110:12164  winLottery(now, roundQueue[round][i], todayWinerValue) */\n      mload(0x40)\n      dup1\n      dup4\n      dup2\n      mstore\n      0x20\n      add\n      dup3\n      dup2\n      mstore\n      0x20\n      add\n      swap3\n      pop\n      pop\n      pop\n      mload(0x40)\n      dup1\n      swap2\n      sub\n      swap1\n      log2\n        /* \"contract/lottery.sol\":11900:12185  if(caunting % rand == 0 && lastTimeActivation[roundQueue[round][i]]+86400 > now) {\r... */\n    tag_420:\n        /* \"contract/lottery.sol\":11846:11849  i++ */\n      dup1\n      dup1\n      0x01\n      add\n      swap2\n      pop\n      pop\n        /* \"contract/lottery.sol\":11785:12200  for(uint i = headIndex[round]; i < roundQueue[round].length; i++) {\r... */\n      jump(tag_413)\n    tag_414:\n      pop\n        /* \"contract/lottery.sol\":11753:11760  round++ */\n      dup1\n      dup1\n      0x01\n      add\n      swap2\n      pop\n      pop\n        /* \"contract/lottery.sol\":11710:12211  for(uint8 round = 1; round <= totalrounds; round++) {        \r... */\n      jump(tag_410)\n    tag_411:\n      pop\n        /* \"contract/lottery.sol\":10961:12218  function Lottery(uint ticket) public {\r... */\n      pop\n      pop\n      pop\n      pop\n      pop\n      jump\t// out\n        /* \"contract/lottery.sol\":5642:6710  function registerWithReferrer(address referrer) public payable {\r... */\n    tag_202:\n        /* \"contract/lottery.sol\":5724:5750  isUserRegistered(referrer) */\n      tag_428\n        /* \"contract/lottery.sol\":5741:5749  referrer */\n      dup2\n        /* \"contract/lottery.sol\":5724:5740  isUserRegistered */\n      tag_61\n        /* \"contract/lottery.sol\":5724:5750  isUserRegistered(referrer) */\n      jump\t// in\n    tag_428:\n        /* \"contract/lottery.sol\":5716:5781  require(isUserRegistered(referrer), \"Referrer is not registered\") */\n      tag_429\n      jumpi\n      mload(0x40)\n      0x08c379a000000000000000000000000000000000000000000000000000000000\n      dup2\n      mstore\n      0x04\n      add\n      dup1\n      dup1\n      0x20\n      add\n      dup3\n      dup2\n      sub\n      dup3\n      mstore\n      0x1a\n      dup2\n      mstore\n      0x20\n      add\n      dup1\n      0x5265666572726572206973206e6f742072656769737465726564000000000000\n      dup2\n      mstore\n      pop\n      0x20\n      add\n      swap2\n      pop\n      pop\n      mload(0x40)\n      dup1\n      swap2\n      sub\n      swap1\n      revert\n    tag_429:\n        /* \"contract/lottery.sol\":5801:5829  isUserRegistered(msg.sender) */\n      tag_430\n        /* \"contract/lottery.sol\":5818:5828  msg.sender */\n      caller\n        /* \"contract/lottery.sol\":5801:5817  isUserRegistered */\n      tag_61\n        /* \"contract/lottery.sol\":5801:5829  isUserRegistered(msg.sender) */\n      jump\t// in\n    tag_430:\n        /* \"contract/lottery.sol\":5800:5829  !isUserRegistered(msg.sender) */\n      iszero\n        /* \"contract/lottery.sol\":5792:5857  require(!isUserRegistered(msg.sender), \"User already registered\") */\n      tag_431\n      jumpi\n      mload(0x40)\n      0x08c379a000000000000000000000000000000000000000000000000000000000\n      dup2\n      mstore\n      0x04\n      add\n      dup1\n      dup1\n      0x20\n      add\n      dup3\n      dup2\n      sub\n      dup3\n      mstore\n      0x17\n      dup2\n      mstore\n      0x20\n      add\n      dup1\n      0x5573657220616c72656164792072656769737465726564000000000000000000\n      dup2\n      mstore\n      pop\n      0x20\n      add\n      swap2\n      pop\n      pop\n      mload(0x40)\n      dup1\n      swap2\n      sub\n      swap1\n      revert\n    tag_431:\n        /* \"contract/lottery.sol\":5877:5899  isContract(msg.sender) */\n      tag_432\n        /* \"contract/lottery.sol\":5888:5898  msg.sender */\n      caller\n        /* \"contract/lottery.sol\":5877:5887  isContract */\n      tag_76\n        /* \"contract/lottery.sol\":5877:5899  isContract(msg.sender) */\n      jump\t// in\n    tag_432:\n        /* \"contract/lottery.sol\":5876:5899  !isContract(msg.sender) */\n      iszero\n        /* \"contract/lottery.sol\":5868:5925  require(!isContract(msg.sender), \"Can not be a contract\") */\n      tag_433\n      jumpi\n      mload(0x40)\n      0x08c379a000000000000000000000000000000000000000000000000000000000\n      dup2\n      mstore\n      0x04\n      add\n      dup1\n      dup1\n      0x20\n      add\n      dup3\n      dup2\n      sub\n      dup3\n      mstore\n      0x15\n      dup2\n      mstore\n      0x20\n      add\n      dup1\n      0x43616e206e6f74206265206120636f6e74726163740000000000000000000000\n      dup2\n      mstore\n      pop\n      0x20\n      add\n      swap2\n      pop\n      pop\n      mload(0x40)\n      dup1\n      swap2\n      sub\n      swap1\n      revert\n    tag_433:\n        /* \"contract/lottery.sol\":5936:5952  User memory user */\n      tag_434\n      tag_382\n      jump\t// in\n    tag_434:\n        /* \"contract/lottery.sol\":5955:6273  User({\r... */\n      mload(0x40)\n      dup1\n      0x0120\n      add\n      0x40\n      mstore\n      dup1\n        /* \"contract/lottery.sol\":5980:5989  newUserId */\n      0x6a\n      0x00\n        /* \"contract/lottery.sol\":5980:5991  newUserId++ */\n      dup2\n      sload\n      dup1\n      swap3\n      swap2\n      swap1\n      0x01\n      add\n      swap2\n      swap1\n      pop\n      sstore\n        /* \"contract/lottery.sol\":5955:6273  User({\r... */\n      dup2\n      mstore\n      0x20\n      add\n        /* \"contract/lottery.sol\":6029:6032  now */\n      timestamp\n        /* \"contract/lottery.sol\":5955:6273  User({\r... */\n      dup2\n      mstore\n      0x20\n      add\n        /* \"contract/lottery.sol\":6058:6066  referrer */\n      dup4\n        /* \"contract/lottery.sol\":5955:6273  User({\r... */\n      0xffffffffffffffffffffffffffffffffffffffff\n      and\n      dup2\n      mstore\n      0x20\n      add\n        /* \"contract/lottery.sol\":6093:6094  0 */\n      0x00\n        /* \"contract/lottery.sol\":5955:6273  User({\r... */\n      dup2\n      mstore\n      0x20\n      add\n        /* \"contract/lottery.sol\":6129:6130  0 */\n      0x00\n        /* \"contract/lottery.sol\":5955:6273  User({\r... */\n      dup2\n      mstore\n      0x20\n      add\n        /* \"contract/lottery.sol\":6163:6164  0 */\n      0x00\n        /* \"contract/lottery.sol\":5955:6273  User({\r... */\n      dup2\n      mstore\n      0x20\n      add\n        /* \"contract/lottery.sol\":6205:6206  0 */\n      0x00\n        /* \"contract/lottery.sol\":5955:6273  User({\r... */\n      dup2\n      mstore\n      0x20\n      add\n        /* \"contract/lottery.sol\":6232:6233  0 */\n      0x00\n        /* \"contract/lottery.sol\":5955:6273  User({\r... */\n      0xff\n      and\n      dup2\n      mstore\n      0x20\n      add\n        /* \"contract/lottery.sol\":6258:6259  0 */\n      0x00\n        /* \"contract/lottery.sol\":5955:6273  User({\r... */\n      dup2\n      mstore\n      pop\n        /* \"contract/lottery.sol\":5936:6273  User memory user = User({\r... */\n      swap1\n      pop\n        /* \"contract/lottery.sol\":6304:6308  user */\n      dup1\n        /* \"contract/lottery.sol\":6284:6289  users */\n      0x6b\n        /* \"contract/lottery.sol\":6284:6301  users[msg.sender] */\n      0x00\n        /* \"contract/lottery.sol\":6290:6300  msg.sender */\n      caller\n        /* \"contract/lottery.sol\":6284:6301  users[msg.sender] */\n      0xffffffffffffffffffffffffffffffffffffffff\n      and\n      0xffffffffffffffffffffffffffffffffffffffff\n      and\n      dup2\n      mstore\n      0x20\n      add\n      swap1\n      dup2\n      mstore\n      0x20\n      add\n      0x00\n      keccak256\n        /* \"contract/lottery.sol\":6284:6308  users[msg.sender] = user */\n      0x00\n      dup3\n      add\n      mload\n      dup2\n      0x00\n      add\n      sstore\n      0x20\n      dup3\n      add\n      mload\n      dup2\n      0x01\n      add\n      sstore\n      0x40\n      dup3\n      add\n      mload\n      dup2\n      0x02\n      add\n      exp(0x0100, 0x00)\n      dup2\n      sload\n      dup2\n      0xffffffffffffffffffffffffffffffffffffffff\n      mul\n      not\n      and\n      swap1\n      dup4\n      0xffffffffffffffffffffffffffffffffffffffff\n      and\n      mul\n      or\n      swap1\n      sstore\n      pop\n      0x60\n      dup3\n      add\n      mload\n      dup2\n      0x03\n      add\n      sstore\n      0x80\n      dup3\n      add\n      mload\n      dup2\n      0x04\n      add\n      sstore\n      0xa0\n      dup3\n      add\n      mload\n      dup2\n      0x05\n      add\n      sstore\n      0xc0\n      dup3\n      add\n      mload\n      dup2\n      0x06\n      add\n      sstore\n      0xe0\n      dup3\n      add\n      mload\n      dup2\n      0x08\n      add\n      exp(0x0100, 0x00)\n      dup2\n      sload\n      dup2\n      0xff\n      mul\n      not\n      and\n      swap1\n      dup4\n      0xff\n      and\n      mul\n      or\n      swap1\n      sstore\n      pop\n      0x0100\n      dup3\n      add\n      mload\n      dup2\n      0x09\n      add\n      sstore\n      swap1\n      pop\n      pop\n        /* \"contract/lottery.sol\":6347:6357  msg.sender */\n      caller\n        /* \"contract/lottery.sol\":6319:6335  usersAddressById */\n      0x6c\n        /* \"contract/lottery.sol\":6319:6344  usersAddressById[user.id] */\n      0x00\n        /* \"contract/lottery.sol\":6336:6340  user */\n      dup4\n        /* \"contract/lottery.sol\":6336:6343  user.id */\n      0x00\n      add\n      mload\n        /* \"contract/lottery.sol\":6319:6344  usersAddressById[user.id] */\n      dup2\n      mstore\n      0x20\n      add\n      swap1\n      dup2\n      mstore\n      0x20\n      add\n      0x00\n      keccak256\n      0x00\n        /* \"contract/lottery.sol\":6319:6357  usersAddressById[user.id] = msg.sender */\n      0x0100\n      exp\n      dup2\n      sload\n      dup2\n      0xffffffffffffffffffffffffffffffffffffffff\n      mul\n      not\n      and\n      swap1\n      dup4\n      0xffffffffffffffffffffffffffffffffffffffff\n      and\n      mul\n      or\n      swap1\n      sstore\n      pop\n        /* \"contract/lottery.sol\":6368:6378  uint8 line */\n      0x00\n        /* \"contract/lottery.sol\":6381:6382  1 */\n      0x01\n        /* \"contract/lottery.sol\":6368:6382  uint8 line = 1 */\n      swap1\n      pop\n        /* \"contract/lottery.sol\":6393:6404  address ref */\n      0x00\n        /* \"contract/lottery.sol\":6407:6415  referrer */\n      dup4\n        /* \"contract/lottery.sol\":6393:6415  address ref = referrer */\n      swap1\n      pop\n        /* \"contract/lottery.sol\":6444:6445  0 */\n      0x00\n        /* \"contract/lottery.sol\":6429:6446  ref != address(0) */\n      0xffffffffffffffffffffffffffffffffffffffff\n      and\n        /* \"contract/lottery.sol\":6429:6432  ref */\n      dup2\n        /* \"contract/lottery.sol\":6429:6446  ref != address(0) */\n      0xffffffffffffffffffffffffffffffffffffffff\n      and\n      eq\n        /* \"contract/lottery.sol\":6426:6558  if(ref != address(0)) {\r... */\n      tag_435\n      jumpi\n        /* \"contract/lottery.sol\":6463:6468  users */\n      0x6b\n        /* \"contract/lottery.sol\":6463:6473  users[ref] */\n      0x00\n        /* \"contract/lottery.sol\":6469:6472  ref */\n      dup3\n        /* \"contract/lottery.sol\":6463:6473  users[ref] */\n      0xffffffffffffffffffffffffffffffffffffffff\n      and\n      0xffffffffffffffffffffffffffffffffffffffff\n      and\n      dup2\n      mstore\n      0x20\n      add\n      swap1\n      dup2\n      mstore\n      0x20\n      add\n      0x00\n      keccak256\n        /* \"contract/lottery.sol\":6463:6483  users[ref].referrals */\n      0x03\n      add\n      0x00\n        /* \"contract/lottery.sol\":6463:6485  users[ref].referrals++ */\n      dup2\n      sload\n      dup1\n      swap3\n      swap2\n      swap1\n      0x01\n      add\n      swap2\n      swap1\n      pop\n      sstore\n      pop\n        /* \"contract/lottery.sol\":6506:6511  users */\n      0x6b\n        /* \"contract/lottery.sol\":6506:6516  users[ref] */\n      0x00\n        /* \"contract/lottery.sol\":6512:6515  ref */\n      dup3\n        /* \"contract/lottery.sol\":6506:6516  users[ref] */\n      0xffffffffffffffffffffffffffffffffffffffff\n      and\n      0xffffffffffffffffffffffffffffffffffffffff\n      and\n      dup2\n      mstore\n      0x20\n      add\n      swap1\n      dup2\n      mstore\n      0x20\n      add\n      0x00\n      keccak256\n        /* \"contract/lottery.sol\":6506:6525  users[ref].referrer */\n      0x02\n      add\n      0x00\n      swap1\n      sload\n      swap1\n      0x0100\n      exp\n      swap1\n      div\n      0xffffffffffffffffffffffffffffffffffffffff\n      and\n        /* \"contract/lottery.sol\":6500:6525  ref = users[ref].referrer */\n      swap1\n      pop\n        /* \"contract/lottery.sol\":6540:6546  line++ */\n      dup2\n      dup1\n      0x01\n      add\n      swap3\n      pop\n      pop\n        /* \"contract/lottery.sol\":6426:6558  if(ref != address(0)) {\r... */\n    tag_435:\n        /* \"contract/lottery.sol\":6568:6578  globalStat */\n      0x6f\n        /* \"contract/lottery.sol\":6568:6586  globalStat.members */\n      0x00\n      add\n      0x00\n        /* \"contract/lottery.sol\":6568:6588  globalStat.members++ */\n      dup2\n      sload\n      dup1\n      swap3\n      swap2\n      swap1\n      0x01\n      add\n      swap2\n      swap1\n      pop\n      sstore\n      pop\n        /* \"contract/lottery.sol\":6599:6609  globalStat */\n      0x6f\n        /* \"contract/lottery.sol\":6599:6622  globalStat.transactions */\n      0x01\n      add\n      0x00\n        /* \"contract/lottery.sol\":6599:6624  globalStat.transactions++ */\n      dup2\n      sload\n      dup1\n      swap3\n      swap2\n      swap1\n      0x01\n      add\n      swap2\n      swap1\n      pop\n      sstore\n      pop\n        /* \"contract/lottery.sol\":6662:6672  msg.sender */\n      caller\n        /* \"contract/lottery.sol\":6640:6702  UserRegistration(now, msg.sender, user.id, users[referrer].id) */\n      0xffffffffffffffffffffffffffffffffffffffff\n      and\n      0x588149fb6f65171a24789e864d05feb177506df6fc9e86c55d0d19b5122bdffc\n        /* \"contract/lottery.sol\":6657:6660  now */\n      timestamp\n        /* \"contract/lottery.sol\":6674:6678  user */\n      dup6\n        /* \"contract/lottery.sol\":6674:6681  user.id */\n      0x00\n      add\n      mload\n        /* \"contract/lottery.sol\":6683:6688  users */\n      0x6b\n        /* \"contract/lottery.sol\":6683:6698  users[referrer] */\n      0x00\n        /* \"contract/lottery.sol\":6689:6697  referrer */\n      dup10\n        /* \"contract/lottery.sol\":6683:6698  users[referrer] */\n      0xffffffffffffffffffffffffffffffffffffffff\n      and\n      0xffffffffffffffffffffffffffffffffffffffff\n      and\n      dup2\n      mstore\n      0x20\n      add\n      swap1\n      dup2\n      mstore\n      0x20\n      add\n      0x00\n      keccak256\n        /* \"contract/lottery.sol\":6683:6701  users[referrer].id */\n      0x00\n      add\n      sload\n        /* \"contract/lottery.sol\":6640:6702  UserRegistration(now, msg.sender, user.id, users[referrer].id) */\n      mload(0x40)\n      dup1\n      dup5\n      dup2\n      mstore\n      0x20\n      add\n      dup4\n      dup2\n      mstore\n      0x20\n      add\n      dup3\n      dup2\n      mstore\n      0x20\n      add\n      swap4\n      pop\n      pop\n      pop\n      pop\n      mload(0x40)\n      dup1\n      swap2\n      sub\n      swap1\n      log2\n        /* \"contract/lottery.sol\":5642:6710  function registerWithReferrer(address referrer) public payable {\r... */\n      pop\n      pop\n      pop\n      pop\n      jump\t// out\n        /* \"contract/lottery.sol\":3148:3193  uint8 public referralRewardProfitPercents = 8 */\n    tag_205:\n      0x66\n      0x01\n      swap1\n      sload\n      swap1\n      0x0100\n      exp\n      swap1\n      div\n      0xff\n      and\n      dup2\n      jump\t// out\n        /* \"contract/lottery.sol\":3737:3774  mapping(address => User) public users */\n    tag_209:\n      mstore(0x20, 0x6b)\n      dup1\n      0x00\n      mstore\n      keccak256(0x00, 0x40)\n      0x00\n      swap2\n      pop\n      swap1\n      pop\n      dup1\n      0x00\n      add\n      sload\n      swap1\n      dup1\n      0x01\n      add\n      sload\n      swap1\n      dup1\n      0x02\n      add\n      0x00\n      swap1\n      sload\n      swap1\n      0x0100\n      exp\n      swap1\n      div\n      0xffffffffffffffffffffffffffffffffffffffff\n      and\n      swap1\n      dup1\n      0x03\n      add\n      sload\n      swap1\n      dup1\n      0x04\n      add\n      sload\n      swap1\n      dup1\n      0x05\n      add\n      sload\n      swap1\n      dup1\n      0x06\n      add\n      sload\n      swap1\n      dup1\n      0x08\n      add\n      0x00\n      swap1\n      sload\n      swap1\n      0x0100\n      exp\n      swap1\n      div\n      0xff\n      and\n      swap1\n      dup1\n      0x09\n      add\n      sload\n      swap1\n      pop\n      dup10\n      jump\t// out\n        /* \"contract/lottery.sol\":742:792  mapping(address => uint) public lastTimeActivation */\n    tag_213:\n      mstore(0x20, 0x65)\n      dup1\n      0x00\n      mstore\n      keccak256(0x00, 0x40)\n      0x00\n      swap2\n      pop\n      swap1\n      pop\n      sload\n      dup2\n      jump\t// out\n        /* \"contract/lottery.sol\":5422:5549  function buyFirstRound(address referrer) public payable {\r... */\n    tag_216:\n        /* \"contract/lottery.sol\":5489:5519  registerWithReferrer(referrer) */\n      tag_437\n        /* \"contract/lottery.sol\":5510:5518  referrer */\n      dup2\n        /* \"contract/lottery.sol\":5489:5509  registerWithReferrer */\n      tag_202\n        /* \"contract/lottery.sol\":5489:5519  registerWithReferrer(referrer) */\n      jump\t// in\n    tag_437:\n        /* \"contract/lottery.sol\":5530:5541  buyround(1) */\n      tag_438\n        /* \"contract/lottery.sol\":5539:5540  1 */\n      0x01\n        /* \"contract/lottery.sol\":5530:5538  buyround */\n      tag_66\n        /* \"contract/lottery.sol\":5530:5541  buyround(1) */\n      jump\t// in\n    tag_438:\n        /* \"contract/lottery.sol\":5422:5549  function buyFirstRound(address referrer) public payable {\r... */\n      pop\n      jump\t// out\n        /* \"contract/lottery.sol\":18114:18300  function getReferrerId(address userAddress) public view returns (uint) {\r... */\n    tag_220:\n        /* \"contract/lottery.sol\":18179:18183  uint */\n      0x00\n        /* \"contract/lottery.sol\":18196:18219  address referrerAddress */\n      dup1\n        /* \"contract/lottery.sol\":18222:18227  users */\n      0x6b\n        /* \"contract/lottery.sol\":18222:18240  users[userAddress] */\n      0x00\n        /* \"contract/lottery.sol\":18228:18239  userAddress */\n      dup5\n        /* \"contract/lottery.sol\":18222:18240  users[userAddress] */\n      0xffffffffffffffffffffffffffffffffffffffff\n      and\n      0xffffffffffffffffffffffffffffffffffffffff\n      and\n      dup2\n      mstore\n      0x20\n      add\n      swap1\n      dup2\n      mstore\n      0x20\n      add\n      0x00\n      keccak256\n        /* \"contract/lottery.sol\":18222:18249  users[userAddress].referrer */\n      0x02\n      add\n      0x00\n      swap1\n      sload\n      swap1\n      0x0100\n      exp\n      swap1\n      div\n      0xffffffffffffffffffffffffffffffffffffffff\n      and\n        /* \"contract/lottery.sol\":18196:18249  address referrerAddress = users[userAddress].referrer */\n      swap1\n      pop\n        /* \"contract/lottery.sol\":18267:18272  users */\n      0x6b\n        /* \"contract/lottery.sol\":18267:18289  users[referrerAddress] */\n      0x00\n        /* \"contract/lottery.sol\":18273:18288  referrerAddress */\n      dup3\n        /* \"contract/lottery.sol\":18267:18289  users[referrerAddress] */\n      0xffffffffffffffffffffffffffffffffffffffff\n      and\n      0xffffffffffffffffffffffffffffffffffffffff\n      and\n      dup2\n      mstore\n      0x20\n      add\n      swap1\n      dup2\n      mstore\n      0x20\n      add\n      0x00\n      keccak256\n        /* \"contract/lottery.sol\":18267:18292  users[referrerAddress].id */\n      0x00\n      add\n      sload\n        /* \"contract/lottery.sol\":18260:18292  return users[referrerAddress].id */\n      swap2\n      pop\n      pop\n        /* \"contract/lottery.sol\":18114:18300  function getReferrerId(address userAddress) public view returns (uint) {\r... */\n      swap2\n      swap1\n      pop\n      jump\t// out\n        /* \"contract/lottery.sol\":3004:3045  uint8 public constant rewardPercents = 75 */\n    tag_223:\n        /* \"contract/lottery.sol\":3043:3045  75 */\n      0x4b\n        /* \"contract/lottery.sol\":3004:3045  uint8 public constant rewardPercents = 75 */\n      dup2\n      jump\t// out\n        /* \"contract/lottery.sol\":12224:12698  function getPrize() public nonReentrant{\r... */\n    tag_226:\n        /* \"contract/lottery.sol\":180:181  2 */\n      0x02\n        /* \"contract/lottery.sol\":335:342  _status */\n      sload(0x00)\n        /* \"contract/lottery.sol\":335:354  _status != _ENTERED */\n      eq\n      iszero\n        /* \"contract/lottery.sol\":327:390  require(_status != _ENTERED, \"ReentrancyGuard: reentrant call\") */\n      tag_441\n      jumpi\n      mload(0x40)\n      0x08c379a000000000000000000000000000000000000000000000000000000000\n      dup2\n      mstore\n      0x04\n      add\n      dup1\n      dup1\n      0x20\n      add\n      dup3\n      dup2\n      sub\n      dup3\n      mstore\n      0x1f\n      dup2\n      mstore\n      0x20\n      add\n      dup1\n      0x5265656e7472616e637947756172643a207265656e7472616e742063616c6c00\n      dup2\n      mstore\n      pop\n      0x20\n      add\n      swap2\n      pop\n      pop\n      mload(0x40)\n      dup1\n      swap2\n      sub\n      swap1\n      revert\n    tag_441:\n        /* \"contract/lottery.sol\":180:181  2 */\n      0x02\n        /* \"contract/lottery.sol\":401:408  _status */\n      0x00\n        /* \"contract/lottery.sol\":401:419  _status = _ENTERED */\n      dup2\n      swap1\n      sstore\n      pop\n        /* \"contract/lottery.sol\":12280:12291  uint8 lucky */\n      0x00\n        /* \"contract/lottery.sol\":12275:12691  for (uint8 lucky = 0; lucky <= 49; lucky++) {\r... */\n    tag_443:\n        /* \"contract/lottery.sol\":12306:12308  49 */\n      0x31\n        /* \"contract/lottery.sol\":12297:12302  lucky */\n      dup2\n        /* \"contract/lottery.sol\":12297:12308  lucky <= 49 */\n      0xff\n      and\n      gt\n        /* \"contract/lottery.sol\":12275:12691  for (uint8 lucky = 0; lucky <= 49; lucky++) {\r... */\n      tag_444\n      jumpi\n        /* \"contract/lottery.sol\":12359:12369  msg.sender */\n      caller\n        /* \"contract/lottery.sol\":12338:12369  todayWiner[lucky] == msg.sender */\n      0xffffffffffffffffffffffffffffffffffffffff\n      and\n        /* \"contract/lottery.sol\":12338:12348  todayWiner */\n      0x01\n        /* \"contract/lottery.sol\":12349:12354  lucky */\n      dup3\n        /* \"contract/lottery.sol\":12338:12355  todayWiner[lucky] */\n      0xff\n      and\n      0x32\n      dup2\n      lt\n      tag_446\n      jumpi\n      invalid\n    tag_446:\n      add\n      0x00\n      swap1\n      sload\n      swap1\n      0x0100\n      exp\n      swap1\n      div\n      0xffffffffffffffffffffffffffffffffffffffff\n      and\n        /* \"contract/lottery.sol\":12338:12369  todayWiner[lucky] == msg.sender */\n      0xffffffffffffffffffffffffffffffffffffffff\n      and\n      eq\n        /* \"contract/lottery.sol\":12334:12680  if (todayWiner[lucky] == msg.sender){\r... */\n      iszero\n      tag_448\n      jumpi\n        /* \"contract/lottery.sol\":12390:12400  globalStat */\n      0x6f\n        /* \"contract/lottery.sol\":12390:12406  globalStat.lucky */\n      0x03\n      add\n      0x00\n        /* \"contract/lottery.sol\":12390:12408  globalStat.lucky++ */\n      dup2\n      sload\n      dup1\n      swap3\n      swap2\n      swap1\n      0x01\n      add\n      swap2\n      swap1\n      pop\n      sstore\n      pop\n        /* \"contract/lottery.sol\":12460:12461  0 */\n      0x00\n        /* \"contract/lottery.sol\":12432:12442  todayWiner */\n      0x01\n        /* \"contract/lottery.sol\":12443:12448  lucky */\n      dup3\n        /* \"contract/lottery.sol\":12432:12449  todayWiner[lucky] */\n      0xff\n      and\n      0x32\n      dup2\n      lt\n      tag_449\n      jumpi\n      invalid\n    tag_449:\n      add\n      0x00\n        /* \"contract/lottery.sol\":12432:12462  todayWiner[lucky] = address(0) */\n      0x0100\n      exp\n      dup2\n      sload\n      dup2\n      0xffffffffffffffffffffffffffffffffffffffff\n      mul\n      not\n      and\n      swap1\n      dup4\n      0xffffffffffffffffffffffffffffffffffffffff\n      and\n      mul\n      or\n      swap1\n      sstore\n      pop\n        /* \"contract/lottery.sol\":12481:12494  bool payPrize */\n      0x00\n        /* \"contract/lottery.sol\":12505:12515  msg.sender */\n      caller\n        /* \"contract/lottery.sol\":12497:12521  payable(msg.sender).send */\n      0xffffffffffffffffffffffffffffffffffffffff\n      and\n        /* \"contract/lottery.sol\":12497:12538  payable(msg.sender).send(todayWinerValue) */\n      0x08fc\n        /* \"contract/lottery.sol\":12522:12537  todayWinerValue */\n      sload(0x33)\n        /* \"contract/lottery.sol\":12497:12538  payable(msg.sender).send(todayWinerValue) */\n      swap1\n      dup2\n      iszero\n      mul\n      swap1\n      mload(0x40)\n      0x00\n      mload(0x40)\n      dup1\n      dup4\n      sub\n      dup2\n      dup6\n      dup9\n      dup9\n      call\n      swap4\n      pop\n      pop\n      pop\n      pop\n        /* \"contract/lottery.sol\":12481:12538  bool payPrize = payable(msg.sender).send(todayWinerValue) */\n      swap1\n      pop\n        /* \"contract/lottery.sol\":12562:12570  payPrize */\n      dup1\n        /* \"contract/lottery.sol\":12558:12665  if (payPrize) {\r... */\n      iszero\n      tag_452\n      jumpi\n        /* \"contract/lottery.sol\":12617:12627  msg.sender */\n      caller\n        /* \"contract/lottery.sol\":12601:12645  payedPrize(now, msg.sender, todayWinerValue) */\n      0xffffffffffffffffffffffffffffffffffffffff\n      and\n      0x7c73022fe9ef1ddffacfe32ab067b48a23250b0c20fbabeace91e3cd9e63a9c0\n        /* \"contract/lottery.sol\":12612:12615  now */\n      timestamp\n        /* \"contract/lottery.sol\":12629:12644  todayWinerValue */\n      sload(0x33)\n        /* \"contract/lottery.sol\":12601:12645  payedPrize(now, msg.sender, todayWinerValue) */\n      mload(0x40)\n      dup1\n      dup4\n      dup2\n      mstore\n      0x20\n      add\n      dup3\n      dup2\n      mstore\n      0x20\n      add\n      swap3\n      pop\n      pop\n      pop\n      mload(0x40)\n      dup1\n      swap2\n      sub\n      swap1\n      log2\n        /* \"contract/lottery.sol\":12558:12665  if (payPrize) {\r... */\n    tag_452:\n        /* \"contract/lottery.sol\":12334:12680  if (todayWiner[lucky] == msg.sender){\r... */\n      pop\n    tag_448:\n        /* \"contract/lottery.sol\":12310:12317  lucky++ */\n      dup1\n      dup1\n      0x01\n      add\n      swap2\n      pop\n      pop\n        /* \"contract/lottery.sol\":12275:12691  for (uint8 lucky = 0; lucky <= 49; lucky++) {\r... */\n      jump(tag_443)\n    tag_444:\n      pop\n        /* \"contract/lottery.sol\":136:137  1 */\n      0x01\n        /* \"contract/lottery.sol\":442:449  _status */\n      0x00\n        /* \"contract/lottery.sol\":442:464  _status = _NOT_ENTERED */\n      dup2\n      swap1\n      sstore\n      pop\n        /* \"contract/lottery.sol\":12224:12698  function getPrize() public nonReentrant{\r... */\n      jump\t// out\n        /* \"contract/lottery.sol\":17110:17205  function getRoiRound() public view returns(uint[16] memory) {\r... */\n    tag_229:\n        /* \"contract/lottery.sol\":17153:17168  uint[16] memory */\n      tag_453\n      tag_347\n      jump\t// in\n    tag_453:\n        /* \"contract/lottery.sol\":17188:17197  RoiRounds */\n      0x35\n        /* \"contract/lottery.sol\":17181:17197  return RoiRounds */\n      0x10\n      dup1\n      0x20\n      mul\n      mload(0x40)\n      swap1\n      dup2\n      add\n      0x40\n      mstore\n      dup1\n      swap3\n      swap2\n      swap1\n      dup3\n      0x10\n      dup1\n      iszero\n      tag_455\n      jumpi\n      0x20\n      mul\n      dup3\n      add\n      swap2\n    tag_456:\n      dup2\n      sload\n      dup2\n      mstore\n      0x20\n      add\n      swap1\n      0x01\n      add\n      swap1\n      dup1\n      dup4\n      gt\n      tag_456\n      jumpi\n    tag_455:\n      pop\n      pop\n      pop\n      pop\n      pop\n      swap1\n      pop\n        /* \"contract/lottery.sol\":17110:17205  function getRoiRound() public view returns(uint[16] memory) {\r... */\n      swap1\n      jump\t// out\n        /* \"contract/lottery.sol\":18512:19078  function getPlaceInQueue(address userAddress, uint8 round) public view returns(uint, uint) {\r... */\n    tag_236:\n        /* \"contract/lottery.sol\":18591:18595  uint */\n      0x00\n        /* \"contract/lottery.sol\":18597:18601  uint */\n      dup1\n        /* \"contract/lottery.sol\":18630:18631  0 */\n      0x00\n        /* \"contract/lottery.sol\":18622:18627  round */\n      dup4\n        /* \"contract/lottery.sol\":18622:18631  round > 0 */\n      0xff\n      and\n      gt\n        /* \"contract/lottery.sol\":18622:18655  round > 0 && round <= totalrounds */\n      dup1\n      iszero\n      tag_458\n      jumpi\n      pop\n        /* \"contract/lottery.sol\":18644:18655  totalrounds */\n      sload(0x69)\n        /* \"contract/lottery.sol\":18635:18640  round */\n      dup4\n        /* \"contract/lottery.sol\":18635:18655  round <= totalrounds */\n      0xff\n      and\n      gt\n      iszero\n        /* \"contract/lottery.sol\":18622:18655  round > 0 && round <= totalrounds */\n    tag_458:\n        /* \"contract/lottery.sol\":18614:18673  require(round > 0 && round <= totalrounds, \"Invalid round\") */\n      tag_459\n      jumpi\n      mload(0x40)\n      0x08c379a000000000000000000000000000000000000000000000000000000000\n      dup2\n      mstore\n      0x04\n      add\n      dup1\n      dup1\n      0x20\n      add\n      dup3\n      dup2\n      sub\n      dup3\n      mstore\n      0x0d\n      dup2\n      mstore\n      0x20\n      add\n      dup1\n      0x496e76616c696420726f756e6400000000000000000000000000000000000000\n      dup2\n      mstore\n      pop\n      0x20\n      add\n      swap2\n      pop\n      pop\n      mload(0x40)\n      dup1\n      swap2\n      sub\n      swap1\n      revert\n    tag_459:\n        /* \"contract/lottery.sol\":18688:18693  users */\n      0x6b\n        /* \"contract/lottery.sol\":18688:18706  users[userAddress] */\n      0x00\n        /* \"contract/lottery.sol\":18694:18705  userAddress */\n      dup6\n        /* \"contract/lottery.sol\":18688:18706  users[userAddress] */\n      0xffffffffffffffffffffffffffffffffffffffff\n      and\n      0xffffffffffffffffffffffffffffffffffffffff\n      and\n      dup2\n      mstore\n      0x20\n      add\n      swap1\n      dup2\n      mstore\n      0x20\n      add\n      0x00\n      keccak256\n        /* \"contract/lottery.sol\":18688:18713  users[userAddress].rounds */\n      0x07\n      add\n        /* \"contract/lottery.sol\":18688:18720  users[userAddress].rounds[round] */\n      0x00\n        /* \"contract/lottery.sol\":18714:18719  round */\n      dup5\n        /* \"contract/lottery.sol\":18688:18720  users[userAddress].rounds[round] */\n      0xff\n      and\n      0xff\n      and\n      dup2\n      mstore\n      0x20\n      add\n      swap1\n      dup2\n      mstore\n      0x20\n      add\n      0x00\n      keccak256\n        /* \"contract/lottery.sol\":18688:18727  users[userAddress].rounds[round].active */\n      0x00\n      add\n      0x06\n      swap1\n      sload\n      swap1\n      0x0100\n      exp\n      swap1\n      div\n      0xff\n      and\n        /* \"contract/lottery.sol\":18684:18769  if(!users[userAddress].rounds[round].active) {\r... */\n      tag_460\n      jumpi\n        /* \"contract/lottery.sol\":18752:18753  0 */\n      0x00\n        /* \"contract/lottery.sol\":18755:18756  0 */\n      dup1\n        /* \"contract/lottery.sol\":18744:18757  return (0, 0) */\n      swap2\n      pop\n      swap2\n      pop\n      jump(tag_457)\n        /* \"contract/lottery.sol\":18684:18769  if(!users[userAddress].rounds[round].active) {\r... */\n    tag_460:\n        /* \"contract/lottery.sol\":18779:18789  uint place */\n      0x00\n        /* \"contract/lottery.sol\":18808:18814  uint i */\n      dup1\n        /* \"contract/lottery.sol\":18817:18826  headIndex */\n      0x6e\n        /* \"contract/lottery.sol\":18817:18833  headIndex[round] */\n      0x00\n        /* \"contract/lottery.sol\":18827:18832  round */\n      dup7\n        /* \"contract/lottery.sol\":18817:18833  headIndex[round] */\n      0xff\n      and\n      0xff\n      and\n      dup2\n      mstore\n      0x20\n      add\n      swap1\n      dup2\n      mstore\n      0x20\n      add\n      0x00\n      keccak256\n      sload\n        /* \"contract/lottery.sol\":18808:18833  uint i = headIndex[round] */\n      swap1\n      pop\n        /* \"contract/lottery.sol\":18804:19052  for(uint i = headIndex[round]; i < roundQueue[round].length; i++) {\r... */\n    tag_461:\n        /* \"contract/lottery.sol\":18839:18849  roundQueue */\n      0x6d\n        /* \"contract/lottery.sol\":18839:18856  roundQueue[round] */\n      0x00\n        /* \"contract/lottery.sol\":18850:18855  round */\n      dup7\n        /* \"contract/lottery.sol\":18839:18856  roundQueue[round] */\n      0xff\n      and\n      0xff\n      and\n      dup2\n      mstore\n      0x20\n      add\n      swap1\n      dup2\n      mstore\n      0x20\n      add\n      0x00\n      keccak256\n        /* \"contract/lottery.sol\":18839:18863  roundQueue[round].length */\n      dup1\n      sload\n      swap1\n      pop\n        /* \"contract/lottery.sol\":18835:18836  i */\n      dup2\n        /* \"contract/lottery.sol\":18835:18863  i < roundQueue[round].length */\n      lt\n        /* \"contract/lottery.sol\":18804:19052  for(uint i = headIndex[round]; i < roundQueue[round].length; i++) {\r... */\n      iszero\n      tag_462\n      jumpi\n        /* \"contract/lottery.sol\":18885:18892  place++ */\n      dup2\n      dup1\n      0x01\n      add\n      swap3\n      pop\n      pop\n        /* \"contract/lottery.sol\":18934:18945  userAddress */\n      dup6\n        /* \"contract/lottery.sol\":18910:18945  roundQueue[round][i] == userAddress */\n      0xffffffffffffffffffffffffffffffffffffffff\n      and\n        /* \"contract/lottery.sol\":18910:18920  roundQueue */\n      0x6d\n        /* \"contract/lottery.sol\":18910:18927  roundQueue[round] */\n      0x00\n        /* \"contract/lottery.sol\":18921:18926  round */\n      dup8\n        /* \"contract/lottery.sol\":18910:18927  roundQueue[round] */\n      0xff\n      and\n      0xff\n      and\n      dup2\n      mstore\n      0x20\n      add\n      swap1\n      dup2\n      mstore\n      0x20\n      add\n      0x00\n      keccak256\n        /* \"contract/lottery.sol\":18928:18929  i */\n      dup3\n        /* \"contract/lottery.sol\":18910:18930  roundQueue[round][i] */\n      dup2\n      sload\n      dup2\n      lt\n      tag_464\n      jumpi\n      invalid\n    tag_464:\n      swap1\n      0x00\n      mstore\n      keccak256(0x00, 0x20)\n      add\n      0x00\n      swap1\n      sload\n      swap1\n      0x0100\n      exp\n      swap1\n      div\n      0xffffffffffffffffffffffffffffffffffffffff\n      and\n        /* \"contract/lottery.sol\":18910:18945  roundQueue[round][i] == userAddress */\n      0xffffffffffffffffffffffffffffffffffffffff\n      and\n      eq\n        /* \"contract/lottery.sol\":18907:19041  if(roundQueue[round][i] == userAddress) {\r... */\n      iszero\n      tag_466\n      jumpi\n        /* \"contract/lottery.sol\":18974:18979  place */\n      dup2\n        /* \"contract/lottery.sol\":19008:19017  headIndex */\n      0x6e\n        /* \"contract/lottery.sol\":19008:19024  headIndex[round] */\n      0x00\n        /* \"contract/lottery.sol\":19018:19023  round */\n      dup8\n        /* \"contract/lottery.sol\":19008:19024  headIndex[round] */\n      0xff\n      and\n      0xff\n      and\n      dup2\n      mstore\n      0x20\n      add\n      swap1\n      dup2\n      mstore\n      0x20\n      add\n      0x00\n      keccak256\n      sload\n        /* \"contract/lottery.sol\":18981:18991  roundQueue */\n      0x6d\n        /* \"contract/lottery.sol\":18981:18998  roundQueue[round] */\n      0x00\n        /* \"contract/lottery.sol\":18992:18997  round */\n      dup9\n        /* \"contract/lottery.sol\":18981:18998  roundQueue[round] */\n      0xff\n      and\n      0xff\n      and\n      dup2\n      mstore\n      0x20\n      add\n      swap1\n      dup2\n      mstore\n      0x20\n      add\n      0x00\n      keccak256\n        /* \"contract/lottery.sol\":18981:19005  roundQueue[round].length */\n      dup1\n      sload\n      swap1\n      pop\n        /* \"contract/lottery.sol\":18981:19024  roundQueue[round].length - headIndex[round] */\n      sub\n        /* \"contract/lottery.sol\":18966:19025  return (place, roundQueue[round].length - headIndex[round]) */\n      swap4\n      pop\n      swap4\n      pop\n      pop\n      pop\n      jump(tag_457)\n        /* \"contract/lottery.sol\":18907:19041  if(roundQueue[round][i] == userAddress) {\r... */\n    tag_466:\n        /* \"contract/lottery.sol\":18865:18868  i++ */\n      dup1\n      dup1\n      0x01\n      add\n      swap2\n      pop\n      pop\n        /* \"contract/lottery.sol\":18804:19052  for(uint i = headIndex[round]; i < roundQueue[round].length; i++) {\r... */\n      jump(tag_461)\n    tag_462:\n      pop\n        /* \"contract/lottery.sol\":19062:19070  revert() */\n      0x00\n      dup1\n      revert\n        /* \"contract/lottery.sol\":18512:19078  function getPlaceInQueue(address userAddress, uint8 round) public view returns(uint, uint) {\r... */\n    tag_457:\n      swap3\n      pop\n      swap3\n      swap1\n      pop\n      jump\t// out\n        /* \"contract/lottery.sol\":3052:3095  uint8 public constant marketingPercents = 7 */\n    tag_239:\n        /* \"contract/lottery.sol\":3094:3095  7 */\n      0x07\n        /* \"contract/lottery.sol\":3052:3095  uint8 public constant marketingPercents = 7 */\n      dup2\n      jump\t// out\n        /* \"contract/lottery.sol\":566:593  uint public todayWinerValue */\n    tag_242:\n      sload(0x33)\n      dup2\n      jump\t// out\n        /* \"contract/lottery.sol\":13649:14606  function sendPostRewardToReferrer(address userAddress, uint8 round, uint rewardValue) private {\r... */\n    tag_290:\n        /* \"contract/lottery.sol\":13764:13780  address referrer */\n      0x00\n        /* \"contract/lottery.sol\":13783:13788  users */\n      0x6b\n        /* \"contract/lottery.sol\":13783:13801  users[userAddress] */\n      0x00\n        /* \"contract/lottery.sol\":13789:13800  userAddress */\n      dup6\n        /* \"contract/lottery.sol\":13783:13801  users[userAddress] */\n      0xffffffffffffffffffffffffffffffffffffffff\n      and\n      0xffffffffffffffffffffffffffffffffffffffff\n      and\n      dup2\n      mstore\n      0x20\n      add\n      swap1\n      dup2\n      mstore\n      0x20\n      add\n      0x00\n      keccak256\n        /* \"contract/lottery.sol\":13783:13810  users[userAddress].referrer */\n      0x02\n      add\n      0x00\n      swap1\n      sload\n      swap1\n      0x0100\n      exp\n      swap1\n      div\n      0xffffffffffffffffffffffffffffffffffffffff\n      and\n        /* \"contract/lottery.sol\":13764:13810  address referrer = users[userAddress].referrer */\n      swap1\n      pop\n        /* \"contract/lottery.sol\":13836:13841  users */\n      0x6b\n        /* \"contract/lottery.sol\":13836:13851  users[referrer] */\n      0x00\n        /* \"contract/lottery.sol\":13842:13850  referrer */\n      dup3\n        /* \"contract/lottery.sol\":13836:13851  users[referrer] */\n      0xffffffffffffffffffffffffffffffffffffffff\n      and\n      0xffffffffffffffffffffffffffffffffffffffff\n      and\n      dup2\n      mstore\n      0x20\n      add\n      swap1\n      dup2\n      mstore\n      0x20\n      add\n      0x00\n      keccak256\n        /* \"contract/lottery.sol\":13836:13858  users[referrer].rounds */\n      0x07\n      add\n        /* \"contract/lottery.sol\":13836:13865  users[referrer].rounds[round] */\n      0x00\n        /* \"contract/lottery.sol\":13859:13864  round */\n      dup5\n        /* \"contract/lottery.sol\":13836:13865  users[referrer].rounds[round] */\n      0xff\n      and\n      0xff\n      and\n      dup2\n      mstore\n      0x20\n      add\n      swap1\n      dup2\n      mstore\n      0x20\n      add\n      0x00\n      keccak256\n        /* \"contract/lottery.sol\":13836:13872  users[referrer].rounds[round].active */\n      0x00\n      add\n      0x06\n      swap1\n      sload\n      swap1\n      0x0100\n      exp\n      swap1\n      div\n      0xff\n      and\n        /* \"contract/lottery.sol\":13831:14193  if (!users[referrer].rounds[round].active ) {\r... */\n      tag_468\n      jumpi\n        /* \"contract/lottery.sol\":13933:13944  rewardValue */\n      dup2\n        /* \"contract/lottery.sol\":13890:13895  users */\n      0x6b\n        /* \"contract/lottery.sol\":13890:13905  users[referrer] */\n      0x00\n        /* \"contract/lottery.sol\":13896:13904  referrer */\n      dup4\n        /* \"contract/lottery.sol\":13890:13905  users[referrer] */\n      0xffffffffffffffffffffffffffffffffffffffff\n      and\n      0xffffffffffffffffffffffffffffffffffffffff\n      and\n      dup2\n      mstore\n      0x20\n      add\n      swap1\n      dup2\n      mstore\n      0x20\n      add\n      0x00\n      keccak256\n        /* \"contract/lottery.sol\":13890:13929  users[referrer].missedReferralPayoutSum */\n      0x06\n      add\n      0x00\n        /* \"contract/lottery.sol\":13890:13944  users[referrer].missedReferralPayoutSum += rewardValue */\n      dup3\n      dup3\n      sload\n      add\n      swap3\n      pop\n      pop\n      dup2\n      swap1\n      sstore\n      pop\n        /* \"contract/lottery.sol\":14017:14028  rewardValue */\n      dup2\n        /* \"contract/lottery.sol\":13959:13964  users */\n      0x6b\n        /* \"contract/lottery.sol\":13959:13974  users[referrer] */\n      0x00\n        /* \"contract/lottery.sol\":13965:13973  referrer */\n      dup4\n        /* \"contract/lottery.sol\":13959:13974  users[referrer] */\n      0xffffffffffffffffffffffffffffffffffffffff\n      and\n      0xffffffffffffffffffffffffffffffffffffffff\n      and\n      dup2\n      mstore\n      0x20\n      add\n      swap1\n      dup2\n      mstore\n      0x20\n      add\n      0x00\n      keccak256\n        /* \"contract/lottery.sol\":13959:13981  users[referrer].rounds */\n      0x07\n      add\n        /* \"contract/lottery.sol\":13959:13988  users[referrer].rounds[round] */\n      0x00\n        /* \"contract/lottery.sol\":13982:13987  round */\n      dup6\n        /* \"contract/lottery.sol\":13959:13988  users[referrer].rounds[round] */\n      0xff\n      and\n      0xff\n      and\n      dup2\n      mstore\n      0x20\n      add\n      swap1\n      dup2\n      mstore\n      0x20\n      add\n      0x00\n      keccak256\n        /* \"contract/lottery.sol\":13959:14013  users[referrer].rounds[round].missedRefferalPostProfit */\n      0x05\n      add\n      0x00\n        /* \"contract/lottery.sol\":13959:14028  users[referrer].rounds[round].missedRefferalPostProfit += rewardValue */\n      dup3\n      dup3\n      sload\n      add\n      swap3\n      pop\n      pop\n      dup2\n      swap1\n      sstore\n      pop\n        /* \"contract/lottery.sol\":14078:14086  referrer */\n      dup1\n        /* \"contract/lottery.sol\":14048:14150  MissedReferralPostPayout(now, referrer, users[referrer].id, users[userAddress].id, round, rewardValue) */\n      0xffffffffffffffffffffffffffffffffffffffff\n      and\n      0x0883bf1f67528bdc0cbaa14cb71f54e9f4e65ec49eceaf639cb93a9e50aefc4c\n        /* \"contract/lottery.sol\":14073:14076  now */\n      timestamp\n        /* \"contract/lottery.sol\":14088:14093  users */\n      0x6b\n        /* \"contract/lottery.sol\":14088:14103  users[referrer] */\n      0x00\n        /* \"contract/lottery.sol\":14094:14102  referrer */\n      dup6\n        /* \"contract/lottery.sol\":14088:14103  users[referrer] */\n      0xffffffffffffffffffffffffffffffffffffffff\n      and\n      0xffffffffffffffffffffffffffffffffffffffff\n      and\n      dup2\n      mstore\n      0x20\n      add\n      swap1\n      dup2\n      mstore\n      0x20\n      add\n      0x00\n      keccak256\n        /* \"contract/lottery.sol\":14088:14106  users[referrer].id */\n      0x00\n      add\n      sload\n        /* \"contract/lottery.sol\":14108:14113  users */\n      0x6b\n        /* \"contract/lottery.sol\":14108:14126  users[userAddress] */\n      0x00\n        /* \"contract/lottery.sol\":14114:14125  userAddress */\n      dup10\n        /* \"contract/lottery.sol\":14108:14126  users[userAddress] */\n      0xffffffffffffffffffffffffffffffffffffffff\n      and\n      0xffffffffffffffffffffffffffffffffffffffff\n      and\n      dup2\n      mstore\n      0x20\n      add\n      swap1\n      dup2\n      mstore\n      0x20\n      add\n      0x00\n      keccak256\n        /* \"contract/lottery.sol\":14108:14129  users[userAddress].id */\n      0x00\n      add\n      sload\n        /* \"contract/lottery.sol\":14131:14136  round */\n      dup8\n        /* \"contract/lottery.sol\":14138:14149  rewardValue */\n      dup8\n        /* \"contract/lottery.sol\":14048:14150  MissedReferralPostPayout(now, referrer, users[referrer].id, users[userAddress].id, round, rewardValue) */\n      mload(0x40)\n      dup1\n      dup7\n      dup2\n      mstore\n      0x20\n      add\n      dup6\n      dup2\n      mstore\n      0x20\n      add\n      dup5\n      dup2\n      mstore\n      0x20\n      add\n      dup4\n      0xff\n      and\n      dup2\n      mstore\n      0x20\n      add\n      dup3\n      dup2\n      mstore\n      0x20\n      add\n      swap6\n      pop\n      pop\n      pop\n      pop\n      pop\n      pop\n      mload(0x40)\n      dup1\n      swap2\n      sub\n      swap1\n      log2\n        /* \"contract/lottery.sol\":14176:14181  owner */\n      0x66\n      0x02\n      swap1\n      sload\n      swap1\n      0x0100\n      exp\n      swap1\n      div\n      0xffffffffffffffffffffffffffffffffffffffff\n      and\n        /* \"contract/lottery.sol\":14165:14181  referrer = owner */\n      swap1\n      pop\n        /* \"contract/lottery.sol\":13831:14193  if (!users[referrer].rounds[round].active ) {\r... */\n    tag_468:\n        /* \"contract/lottery.sol\":14203:14212  bool sent */\n      0x00\n        /* \"contract/lottery.sol\":14223:14231  referrer */\n      dup2\n        /* \"contract/lottery.sol\":14215:14237  payable(referrer).send */\n      0xffffffffffffffffffffffffffffffffffffffff\n      and\n        /* \"contract/lottery.sol\":14215:14250  payable(referrer).send(rewardValue) */\n      0x08fc\n        /* \"contract/lottery.sol\":14238:14249  rewardValue */\n      dup5\n        /* \"contract/lottery.sol\":14215:14250  payable(referrer).send(rewardValue) */\n      swap1\n      dup2\n      iszero\n      mul\n      swap1\n      mload(0x40)\n      0x00\n      mload(0x40)\n      dup1\n      dup4\n      sub\n      dup2\n      dup6\n      dup9\n      dup9\n      call\n      swap4\n      pop\n      pop\n      pop\n      pop\n        /* \"contract/lottery.sol\":14203:14250  bool sent = payable(referrer).send(rewardValue) */\n      swap1\n      pop\n        /* \"contract/lottery.sol\":14265:14269  sent */\n      dup1\n        /* \"contract/lottery.sol\":14261:14599  if (sent) {\r... */\n      iszero\n      tag_470\n      jumpi\n        /* \"contract/lottery.sol\":14337:14348  rewardValue */\n      dup3\n        /* \"contract/lottery.sol\":14286:14291  users */\n      0x6b\n        /* \"contract/lottery.sol\":14286:14301  users[referrer] */\n      0x00\n        /* \"contract/lottery.sol\":14292:14300  referrer */\n      dup5\n        /* \"contract/lottery.sol\":14286:14301  users[referrer] */\n      0xffffffffffffffffffffffffffffffffffffffff\n      and\n      0xffffffffffffffffffffffffffffffffffffffff\n      and\n      dup2\n      mstore\n      0x20\n      add\n      swap1\n      dup2\n      mstore\n      0x20\n      add\n      0x00\n      keccak256\n        /* \"contract/lottery.sol\":14286:14308  users[referrer].rounds */\n      0x07\n      add\n        /* \"contract/lottery.sol\":14286:14315  users[referrer].rounds[round] */\n      0x00\n        /* \"contract/lottery.sol\":14309:14314  round */\n      dup7\n        /* \"contract/lottery.sol\":14286:14315  users[referrer].rounds[round] */\n      0xff\n      and\n      0xff\n      and\n      dup2\n      mstore\n      0x20\n      add\n      swap1\n      dup2\n      mstore\n      0x20\n      add\n      0x00\n      keccak256\n        /* \"contract/lottery.sol\":14286:14333  users[referrer].rounds[round].referralPayoutSum */\n      0x02\n      add\n      0x00\n        /* \"contract/lottery.sol\":14286:14348  users[referrer].rounds[round].referralPayoutSum += rewardValue */\n      dup3\n      dup3\n      sload\n      add\n      swap3\n      pop\n      pop\n      dup2\n      swap1\n      sstore\n      pop\n        /* \"contract/lottery.sol\":14400:14411  rewardValue */\n      dup3\n        /* \"contract/lottery.sol\":14363:14368  users */\n      0x6b\n        /* \"contract/lottery.sol\":14363:14378  users[referrer] */\n      0x00\n        /* \"contract/lottery.sol\":14369:14377  referrer */\n      dup5\n        /* \"contract/lottery.sol\":14363:14378  users[referrer] */\n      0xffffffffffffffffffffffffffffffffffffffff\n      and\n      0xffffffffffffffffffffffffffffffffffffffff\n      and\n      dup2\n      mstore\n      0x20\n      add\n      swap1\n      dup2\n      mstore\n      0x20\n      add\n      0x00\n      keccak256\n        /* \"contract/lottery.sol\":14363:14396  users[referrer].referralPayoutSum */\n      0x04\n      add\n      0x00\n        /* \"contract/lottery.sol\":14363:14411  users[referrer].referralPayoutSum += rewardValue */\n      dup3\n      dup3\n      sload\n      add\n      swap3\n      pop\n      pop\n      dup2\n      swap1\n      sstore\n      pop\n        /* \"contract/lottery.sol\":14455:14463  referrer */\n      dup2\n        /* \"contract/lottery.sol\":14431:14527  ReferralPostPayout(now, referrer, users[referrer].id, users[userAddress].id, round, rewardValue) */\n      0xffffffffffffffffffffffffffffffffffffffff\n      and\n      0x0ed8e24e8c3d702aae6ec32d5d8fbb15b20e1905fcd8e9a2313dff009a821750\n        /* \"contract/lottery.sol\":14450:14453  now */\n      timestamp\n        /* \"contract/lottery.sol\":14465:14470  users */\n      0x6b\n        /* \"contract/lottery.sol\":14465:14480  users[referrer] */\n      0x00\n        /* \"contract/lottery.sol\":14471:14479  referrer */\n      dup7\n        /* \"contract/lottery.sol\":14465:14480  users[referrer] */\n      0xffffffffffffffffffffffffffffffffffffffff\n      and\n      0xffffffffffffffffffffffffffffffffffffffff\n      and\n      dup2\n      mstore\n      0x20\n      add\n      swap1\n      dup2\n      mstore\n      0x20\n      add\n      0x00\n      keccak256\n        /* \"contract/lottery.sol\":14465:14483  users[referrer].id */\n      0x00\n      add\n      sload\n        /* \"contract/lottery.sol\":14485:14490  users */\n      0x6b\n        /* \"contract/lottery.sol\":14485:14503  users[userAddress] */\n      0x00\n        /* \"contract/lottery.sol\":14491:14502  userAddress */\n      dup11\n        /* \"contract/lottery.sol\":14485:14503  users[userAddress] */\n      0xffffffffffffffffffffffffffffffffffffffff\n      and\n      0xffffffffffffffffffffffffffffffffffffffff\n      and\n      dup2\n      mstore\n      0x20\n      add\n      swap1\n      dup2\n      mstore\n      0x20\n      add\n      0x00\n      keccak256\n        /* \"contract/lottery.sol\":14485:14506  users[userAddress].id */\n      0x00\n      add\n      sload\n        /* \"contract/lottery.sol\":14508:14513  round */\n      dup9\n        /* \"contract/lottery.sol\":14515:14526  rewardValue */\n      dup9\n        /* \"contract/lottery.sol\":14431:14527  ReferralPostPayout(now, referrer, users[referrer].id, users[userAddress].id, round, rewardValue) */\n      mload(0x40)\n      dup1\n      dup7\n      dup2\n      mstore\n      0x20\n      add\n      dup6\n      dup2\n      mstore\n      0x20\n      add\n      dup5\n      dup2\n      mstore\n      0x20\n      add\n      dup4\n      0xff\n      and\n      dup2\n      mstore\n      0x20\n      add\n      dup3\n      dup2\n      mstore\n      0x20\n      add\n      swap6\n      pop\n      pop\n      pop\n      pop\n      pop\n      pop\n      mload(0x40)\n      dup1\n      swap2\n      sub\n      swap1\n      log2\n        /* \"contract/lottery.sol\":14261:14599  if (sent) {\r... */\n      jump(tag_471)\n    tag_470:\n        /* \"contract/lottery.sol\":14560:14565  owner */\n      0x66\n      0x02\n      swap1\n      sload\n      swap1\n      0x0100\n      exp\n      swap1\n      div\n      0xffffffffffffffffffffffffffffffffffffffff\n      and\n        /* \"contract/lottery.sol\":14560:14574  owner.transfer */\n      0xffffffffffffffffffffffffffffffffffffffff\n      and\n        /* \"contract/lottery.sol\":14560:14587  owner.transfer(rewardValue) */\n      0x08fc\n        /* \"contract/lottery.sol\":14575:14586  rewardValue */\n      dup5\n        /* \"contract/lottery.sol\":14560:14587  owner.transfer(rewardValue) */\n      swap1\n      dup2\n      iszero\n      mul\n      swap1\n      mload(0x40)\n      0x00\n      mload(0x40)\n      dup1\n      dup4\n      sub\n      dup2\n      dup6\n      dup9\n      dup9\n      call\n      swap4\n      pop\n      pop\n      pop\n      pop\n      iszero\n      dup1\n      iszero\n      tag_473\n      jumpi\n      returndatasize\n      0x00\n      dup1\n      returndatacopy\n      revert(0x00, returndatasize)\n    tag_473:\n      pop\n        /* \"contract/lottery.sol\":14261:14599  if (sent) {\r... */\n    tag_471:\n        /* \"contract/lottery.sol\":13649:14606  function sendPostRewardToReferrer(address userAddress, uint8 round, uint rewardValue) private {\r... */\n      pop\n      pop\n      pop\n      pop\n      pop\n      jump\t// out\n        /* \"contract/lottery.sol\":12704:13643  function sendRewardToReferrer(address userAddress, uint8 round, uint rewardValue) private {\r... */\n    tag_308:\n        /* \"contract/lottery.sol\":12814:12830  address referrer */\n      0x00\n        /* \"contract/lottery.sol\":12833:12838  users */\n      0x6b\n        /* \"contract/lottery.sol\":12833:12851  users[userAddress] */\n      0x00\n        /* \"contract/lottery.sol\":12839:12850  userAddress */\n      dup6\n        /* \"contract/lottery.sol\":12833:12851  users[userAddress] */\n      0xffffffffffffffffffffffffffffffffffffffff\n      and\n      0xffffffffffffffffffffffffffffffffffffffff\n      and\n      dup2\n      mstore\n      0x20\n      add\n      swap1\n      dup2\n      mstore\n      0x20\n      add\n      0x00\n      keccak256\n        /* \"contract/lottery.sol\":12833:12860  users[userAddress].referrer */\n      0x02\n      add\n      0x00\n      swap1\n      sload\n      swap1\n      0x0100\n      exp\n      swap1\n      div\n      0xffffffffffffffffffffffffffffffffffffffff\n      and\n        /* \"contract/lottery.sol\":12814:12860  address referrer = users[userAddress].referrer */\n      swap1\n      pop\n        /* \"contract/lottery.sol\":12886:12891  users */\n      0x6b\n        /* \"contract/lottery.sol\":12886:12901  users[referrer] */\n      0x00\n        /* \"contract/lottery.sol\":12892:12900  referrer */\n      dup3\n        /* \"contract/lottery.sol\":12886:12901  users[referrer] */\n      0xffffffffffffffffffffffffffffffffffffffff\n      and\n      0xffffffffffffffffffffffffffffffffffffffff\n      and\n      dup2\n      mstore\n      0x20\n      add\n      swap1\n      dup2\n      mstore\n      0x20\n      add\n      0x00\n      keccak256\n        /* \"contract/lottery.sol\":12886:12908  users[referrer].rounds */\n      0x07\n      add\n        /* \"contract/lottery.sol\":12886:12915  users[referrer].rounds[round] */\n      0x00\n        /* \"contract/lottery.sol\":12909:12914  round */\n      dup5\n        /* \"contract/lottery.sol\":12886:12915  users[referrer].rounds[round] */\n      0xff\n      and\n      0xff\n      and\n      dup2\n      mstore\n      0x20\n      add\n      swap1\n      dup2\n      mstore\n      0x20\n      add\n      0x00\n      keccak256\n        /* \"contract/lottery.sol\":12886:12922  users[referrer].rounds[round].active */\n      0x00\n      add\n      0x06\n      swap1\n      sload\n      swap1\n      0x0100\n      exp\n      swap1\n      div\n      0xff\n      and\n        /* \"contract/lottery.sol\":12881:13234  if (!users[referrer].rounds[round].active) {\r... */\n      tag_475\n      jumpi\n        /* \"contract/lottery.sol\":12982:12993  rewardValue */\n      dup2\n        /* \"contract/lottery.sol\":12939:12944  users */\n      0x6b\n        /* \"contract/lottery.sol\":12939:12954  users[referrer] */\n      0x00\n        /* \"contract/lottery.sol\":12945:12953  referrer */\n      dup4\n        /* \"contract/lottery.sol\":12939:12954  users[referrer] */\n      0xffffffffffffffffffffffffffffffffffffffff\n      and\n      0xffffffffffffffffffffffffffffffffffffffff\n      and\n      dup2\n      mstore\n      0x20\n      add\n      swap1\n      dup2\n      mstore\n      0x20\n      add\n      0x00\n      keccak256\n        /* \"contract/lottery.sol\":12939:12978  users[referrer].missedReferralPayoutSum */\n      0x06\n      add\n      0x00\n        /* \"contract/lottery.sol\":12939:12993  users[referrer].missedReferralPayoutSum += rewardValue */\n      dup3\n      dup3\n      sload\n      add\n      swap3\n      pop\n      pop\n      dup2\n      swap1\n      sstore\n      pop\n        /* \"contract/lottery.sol\":13062:13073  rewardValue */\n      dup2\n        /* \"contract/lottery.sol\":13008:13013  users */\n      0x6b\n        /* \"contract/lottery.sol\":13008:13023  users[referrer] */\n      0x00\n        /* \"contract/lottery.sol\":13014:13022  referrer */\n      dup4\n        /* \"contract/lottery.sol\":13008:13023  users[referrer] */\n      0xffffffffffffffffffffffffffffffffffffffff\n      and\n      0xffffffffffffffffffffffffffffffffffffffff\n      and\n      dup2\n      mstore\n      0x20\n      add\n      swap1\n      dup2\n      mstore\n      0x20\n      add\n      0x00\n      keccak256\n        /* \"contract/lottery.sol\":13008:13030  users[referrer].rounds */\n      0x07\n      add\n        /* \"contract/lottery.sol\":13008:13037  users[referrer].rounds[round] */\n      0x00\n        /* \"contract/lottery.sol\":13031:13036  round */\n      dup6\n        /* \"contract/lottery.sol\":13008:13037  users[referrer].rounds[round] */\n      0xff\n      and\n      0xff\n      and\n      dup2\n      mstore\n      0x20\n      add\n      swap1\n      dup2\n      mstore\n      0x20\n      add\n      0x00\n      keccak256\n        /* \"contract/lottery.sol\":13008:13058  users[referrer].rounds[round].missedRefferalProfit */\n      0x04\n      add\n      0x00\n        /* \"contract/lottery.sol\":13008:13073  users[referrer].rounds[round].missedRefferalProfit += rewardValue */\n      dup3\n      dup3\n      sload\n      add\n      swap3\n      pop\n      pop\n      dup2\n      swap1\n      sstore\n      pop\n        /* \"contract/lottery.sol\":13119:13127  referrer */\n      dup1\n        /* \"contract/lottery.sol\":13093:13191  MissedReferralPayout(now, referrer, users[referrer].id, users[userAddress].id, round, rewardValue) */\n      0xffffffffffffffffffffffffffffffffffffffff\n      and\n      0x71571cfdf540d399d1a547446d2f4090641fc35ae5bf0fa7148c5368a7d5912e\n        /* \"contract/lottery.sol\":13114:13117  now */\n      timestamp\n        /* \"contract/lottery.sol\":13129:13134  users */\n      0x6b\n        /* \"contract/lottery.sol\":13129:13144  users[referrer] */\n      0x00\n        /* \"contract/lottery.sol\":13135:13143  referrer */\n      dup6\n        /* \"contract/lottery.sol\":13129:13144  users[referrer] */\n      0xffffffffffffffffffffffffffffffffffffffff\n      and\n      0xffffffffffffffffffffffffffffffffffffffff\n      and\n      dup2\n      mstore\n      0x20\n      add\n      swap1\n      dup2\n      mstore\n      0x20\n      add\n      0x00\n      keccak256\n        /* \"contract/lottery.sol\":13129:13147  users[referrer].id */\n      0x00\n      add\n      sload\n        /* \"contract/lottery.sol\":13149:13154  users */\n      0x6b\n        /* \"contract/lottery.sol\":13149:13167  users[userAddress] */\n      0x00\n        /* \"contract/lottery.sol\":13155:13166  userAddress */\n      dup10\n        /* \"contract/lottery.sol\":13149:13167  users[userAddress] */\n      0xffffffffffffffffffffffffffffffffffffffff\n      and\n      0xffffffffffffffffffffffffffffffffffffffff\n      and\n      dup2\n      mstore\n      0x20\n      add\n      swap1\n      dup2\n      mstore\n      0x20\n      add\n      0x00\n      keccak256\n        /* \"contract/lottery.sol\":13149:13170  users[userAddress].id */\n      0x00\n      add\n      sload\n        /* \"contract/lottery.sol\":13172:13177  round */\n      dup8\n        /* \"contract/lottery.sol\":13179:13190  rewardValue */\n      dup8\n        /* \"contract/lottery.sol\":13093:13191  MissedReferralPayout(now, referrer, users[referrer].id, users[userAddress].id, round, rewardValue) */\n      mload(0x40)\n      dup1\n      dup7\n      dup2\n      mstore\n      0x20\n      add\n      dup6\n      dup2\n      mstore\n      0x20\n      add\n      dup5\n      dup2\n      mstore\n      0x20\n      add\n      dup4\n      0xff\n      and\n      dup2\n      mstore\n      0x20\n      add\n      dup3\n      dup2\n      mstore\n      0x20\n      add\n      swap6\n      pop\n      pop\n      pop\n      pop\n      pop\n      pop\n      mload(0x40)\n      dup1\n      swap2\n      sub\n      swap1\n      log2\n        /* \"contract/lottery.sol\":13217:13222  owner */\n      0x66\n      0x02\n      swap1\n      sload\n      swap1\n      0x0100\n      exp\n      swap1\n      div\n      0xffffffffffffffffffffffffffffffffffffffff\n      and\n        /* \"contract/lottery.sol\":13206:13222  referrer = owner */\n      swap1\n      pop\n        /* \"contract/lottery.sol\":12881:13234  if (!users[referrer].rounds[round].active) {\r... */\n    tag_475:\n        /* \"contract/lottery.sol\":13244:13253  bool sent */\n      0x00\n        /* \"contract/lottery.sol\":13264:13272  referrer */\n      dup2\n        /* \"contract/lottery.sol\":13256:13278  payable(referrer).send */\n      0xffffffffffffffffffffffffffffffffffffffff\n      and\n        /* \"contract/lottery.sol\":13256:13291  payable(referrer).send(rewardValue) */\n      0x08fc\n        /* \"contract/lottery.sol\":13279:13290  rewardValue */\n      dup5\n        /* \"contract/lottery.sol\":13256:13291  payable(referrer).send(rewardValue) */\n      swap1\n      dup2\n      iszero\n      mul\n      swap1\n      mload(0x40)\n      0x00\n      mload(0x40)\n      dup1\n      dup4\n      sub\n      dup2\n      dup6\n      dup9\n      dup9\n      call\n      swap4\n      pop\n      pop\n      pop\n      pop\n        /* \"contract/lottery.sol\":13244:13291  bool sent = payable(referrer).send(rewardValue) */\n      swap1\n      pop\n        /* \"contract/lottery.sol\":13306:13310  sent */\n      dup1\n        /* \"contract/lottery.sol\":13302:13636  if (sent) {\r... */\n      iszero\n      tag_477\n      jumpi\n        /* \"contract/lottery.sol\":13378:13389  rewardValue */\n      dup3\n        /* \"contract/lottery.sol\":13327:13332  users */\n      0x6b\n        /* \"contract/lottery.sol\":13327:13342  users[referrer] */\n      0x00\n        /* \"contract/lottery.sol\":13333:13341  referrer */\n      dup5\n        /* \"contract/lottery.sol\":13327:13342  users[referrer] */\n      0xffffffffffffffffffffffffffffffffffffffff\n      and\n      0xffffffffffffffffffffffffffffffffffffffff\n      and\n      dup2\n      mstore\n      0x20\n      add\n      swap1\n      dup2\n      mstore\n      0x20\n      add\n      0x00\n      keccak256\n        /* \"contract/lottery.sol\":13327:13349  users[referrer].rounds */\n      0x07\n      add\n        /* \"contract/lottery.sol\":13327:13356  users[referrer].rounds[round] */\n      0x00\n        /* \"contract/lottery.sol\":13350:13355  round */\n      dup7\n        /* \"contract/lottery.sol\":13327:13356  users[referrer].rounds[round] */\n      0xff\n      and\n      0xff\n      and\n      dup2\n      mstore\n      0x20\n      add\n      swap1\n      dup2\n      mstore\n      0x20\n      add\n      0x00\n      keccak256\n        /* \"contract/lottery.sol\":13327:13374  users[referrer].rounds[round].referralPayoutSum */\n      0x02\n      add\n      0x00\n        /* \"contract/lottery.sol\":13327:13389  users[referrer].rounds[round].referralPayoutSum += rewardValue */\n      dup3\n      dup3\n      sload\n      add\n      swap3\n      pop\n      pop\n      dup2\n      swap1\n      sstore\n      pop\n        /* \"contract/lottery.sol\":13441:13452  rewardValue */\n      dup3\n        /* \"contract/lottery.sol\":13404:13409  users */\n      0x6b\n        /* \"contract/lottery.sol\":13404:13419  users[referrer] */\n      0x00\n        /* \"contract/lottery.sol\":13410:13418  referrer */\n      dup5\n        /* \"contract/lottery.sol\":13404:13419  users[referrer] */\n      0xffffffffffffffffffffffffffffffffffffffff\n      and\n      0xffffffffffffffffffffffffffffffffffffffff\n      and\n      dup2\n      mstore\n      0x20\n      add\n      swap1\n      dup2\n      mstore\n      0x20\n      add\n      0x00\n      keccak256\n        /* \"contract/lottery.sol\":13404:13437  users[referrer].referralPayoutSum */\n      0x04\n      add\n      0x00\n        /* \"contract/lottery.sol\":13404:13452  users[referrer].referralPayoutSum += rewardValue */\n      dup3\n      dup3\n      sload\n      add\n      swap3\n      pop\n      pop\n      dup2\n      swap1\n      sstore\n      pop\n        /* \"contract/lottery.sol\":13492:13500  referrer */\n      dup2\n        /* \"contract/lottery.sol\":13472:13564  ReferralPayout(now, referrer, users[referrer].id, users[userAddress].id, round, rewardValue) */\n      0xffffffffffffffffffffffffffffffffffffffff\n      and\n      0xadbead61ed0e78434af1793fe9c549f995680ccc1d4cc2015e78bffc67b7b181\n        /* \"contract/lottery.sol\":13487:13490  now */\n      timestamp\n        /* \"contract/lottery.sol\":13502:13507  users */\n      0x6b\n        /* \"contract/lottery.sol\":13502:13517  users[referrer] */\n      0x00\n        /* \"contract/lottery.sol\":13508:13516  referrer */\n      dup7\n        /* \"contract/lottery.sol\":13502:13517  users[referrer] */\n      0xffffffffffffffffffffffffffffffffffffffff\n      and\n      0xffffffffffffffffffffffffffffffffffffffff\n      and\n      dup2\n      mstore\n      0x20\n      add\n      swap1\n      dup2\n      mstore\n      0x20\n      add\n      0x00\n      keccak256\n        /* \"contract/lottery.sol\":13502:13520  users[referrer].id */\n      0x00\n      add\n      sload\n        /* \"contract/lottery.sol\":13522:13527  users */\n      0x6b\n        /* \"contract/lottery.sol\":13522:13540  users[userAddress] */\n      0x00\n        /* \"contract/lottery.sol\":13528:13539  userAddress */\n      dup11\n        /* \"contract/lottery.sol\":13522:13540  users[userAddress] */\n      0xffffffffffffffffffffffffffffffffffffffff\n      and\n      0xffffffffffffffffffffffffffffffffffffffff\n      and\n      dup2\n      mstore\n      0x20\n      add\n      swap1\n      dup2\n      mstore\n      0x20\n      add\n      0x00\n      keccak256\n        /* \"contract/lottery.sol\":13522:13543  users[userAddress].id */\n      0x00\n      add\n      sload\n        /* \"contract/lottery.sol\":13545:13550  round */\n      dup9\n        /* \"contract/lottery.sol\":13552:13563  rewardValue */\n      dup9\n        /* \"contract/lottery.sol\":13472:13564  ReferralPayout(now, referrer, users[referrer].id, users[userAddress].id, round, rewardValue) */\n      mload(0x40)\n      dup1\n      dup7\n      dup2\n      mstore\n      0x20\n      add\n      dup6\n      dup2\n      mstore\n      0x20\n      add\n      dup5\n      dup2\n      mstore\n      0x20\n      add\n      dup4\n      0xff\n      and\n      dup2\n      mstore\n      0x20\n      add\n      dup3\n      dup2\n      mstore\n      0x20\n      add\n      swap6\n      pop\n      pop\n      pop\n      pop\n      pop\n      pop\n      mload(0x40)\n      dup1\n      swap2\n      sub\n      swap1\n      log2\n        /* \"contract/lottery.sol\":13302:13636  if (sent) {\r... */\n      jump(tag_478)\n    tag_477:\n        /* \"contract/lottery.sol\":13597:13602  owner */\n      0x66\n      0x02\n      swap1\n      sload\n      swap1\n      0x0100\n      exp\n      swap1\n      div\n      0xffffffffffffffffffffffffffffffffffffffff\n      and\n        /* \"contract/lottery.sol\":13597:13611  owner.transfer */\n      0xffffffffffffffffffffffffffffffffffffffff\n      and\n        /* \"contract/lottery.sol\":13597:13624  owner.transfer(rewardValue) */\n      0x08fc\n        /* \"contract/lottery.sol\":13612:13623  rewardValue */\n      dup5\n        /* \"contract/lottery.sol\":13597:13624  owner.transfer(rewardValue) */\n      swap1\n      dup2\n      iszero\n      mul\n      swap1\n      mload(0x40)\n      0x00\n      mload(0x40)\n      dup1\n      dup4\n      sub\n      dup2\n      dup6\n      dup9\n      dup9\n      call\n      swap4\n      pop\n      pop\n      pop\n      pop\n      iszero\n      dup1\n      iszero\n      tag_480\n      jumpi\n      returndatasize\n      0x00\n      dup1\n      returndatacopy\n      revert(0x00, returndatasize)\n    tag_480:\n      pop\n        /* \"contract/lottery.sol\":13302:13636  if (sent) {\r... */\n    tag_478:\n        /* \"contract/lottery.sol\":12704:13643  function sendRewardToReferrer(address userAddress, uint8 round, uint rewardValue) private {\r... */\n      pop\n      pop\n      pop\n      pop\n      pop\n      jump\t// out\n    tag_344:\n      mload(0x40)\n      dup1\n      0xa0\n      add\n      0x40\n      mstore\n      dup1\n      0x05\n      swap1\n      0x20\n      dup3\n      mul\n      dup1\n      calldatasize\n      dup4\n      calldatacopy\n      dup1\n      dup3\n      add\n      swap2\n      pop\n      pop\n      swap1\n      pop\n      pop\n      swap1\n      jump\t// out\n    tag_347:\n      mload(0x40)\n      dup1\n      0x0200\n      add\n      0x40\n      mstore\n      dup1\n      0x10\n      swap1\n      0x20\n      dup3\n      mul\n      dup1\n      calldatasize\n      dup4\n      calldatacopy\n      dup1\n      dup3\n      add\n      swap2\n      pop\n      pop\n      swap1\n      pop\n      pop\n      swap1\n      jump\t// out\n    tag_382:\n      mload(0x40)\n      dup1\n      0x0120\n      add\n      0x40\n      mstore\n      dup1\n      0x00\n      dup2\n      mstore\n      0x20\n      add\n      0x00\n      dup2\n      mstore\n      0x20\n      add\n      and(0xffffffffffffffffffffffffffffffffffffffff, 0x00)\n      dup2\n      mstore\n      0x20\n      add\n      0x00\n      dup2\n      mstore\n      0x20\n      add\n      0x00\n      dup2\n      mstore\n      0x20\n      add\n      0x00\n      dup2\n      mstore\n      0x20\n      add\n      0x00\n      dup2\n      mstore\n      0x20\n      add\n      and(0xff, 0x00)\n      dup2\n      mstore\n      0x20\n      add\n      0x00\n      dup2\n      mstore\n      pop\n      swap1\n      jump\t// out\n    tag_387:\n      mload(0x40)\n      dup1\n      0x0640\n      add\n      0x40\n      mstore\n      dup1\n      0x32\n      swap1\n      0x20\n      dup3\n      mul\n      dup1\n      calldatasize\n      dup4\n      calldatacopy\n      dup1\n      dup3\n      add\n      swap2\n      pop\n      pop\n      swap1\n      pop\n      pop\n      swap1\n      jump\t// out\n    stop\n    data_b6be230979c9056288d8dc9ecf24c47d930143c98ecebf6ab7c712e8601758a8 43616e27742066696e6420726f756e6420746f206275792e204d617962652073656e742076616c756520697320696e76616c69642e\n\n    auxdata: 0xa2646970667358221220f484bedcf9c35c1364754e8bd9ee9d0dd5babe4997f96c2d096877c324f2783564736f6c634300060c0033\n}\n",
				"bytecode": {
					"linkReferences": {},
					"object": "60806040526009606660006101000a81548160ff021916908360ff1602179055506008606660016101000a81548160ff021916908360ff160217905550604051806102000160405280600067ffffffffffffffff16815260200166b1a2bc2ec5000067ffffffffffffffff16815260200167011c37937e08000067ffffffffffffffff1681526020016701cdda4faccd000067ffffffffffffffff16815260200167030d98d59a96000067ffffffffffffffff168152602001670494654067e1000067ffffffffffffffff1681526020016706f05b59d3b2000067ffffffffffffffff1681526020016709b6e64a8ec6000067ffffffffffffffff168152602001670e92596fd629000067ffffffffffffffff16815260200167141f6f514c51000067ffffffffffffffff168152602001671b0fcaab2003000067ffffffffffffffff16815260200167214e8348c4f0000067ffffffffffffffff1681526020016730927f74c9de000067ffffffffffffffff16815260200167482a1c730008000067ffffffffffffffff16815260200167654ecf52ac5a000067ffffffffffffffff168152602001678ac7230489e8000067ffffffffffffffff168152506068906010620001d0929190620006d6565b506001606880549050036069556002606a55348015620001ef57600080fd5b5060405162005a1738038062005a17833981810160405260208110156200021557600080fd5b8101908080519060200190929190505050600160008190555033606660026101000a81548173ffffffffffffffffffffffffffffffffffffffff021916908373ffffffffffffffffffffffffffffffffffffffff16021790555080606760006101000a81548173ffffffffffffffffffffffffffffffffffffffff021916908373ffffffffffffffffffffffffffffffffffffffff16021790555060405180610120016040528060018152602001428152602001600073ffffffffffffffffffffffffffffffffffffffff16815260200160008152602001600081526020016000815260200160008152602001600060ff1681526020016000815250606b6000606660029054906101000a900473ffffffffffffffffffffffffffffffffffffffff1673ffffffffffffffffffffffffffffffffffffffff1673ffffffffffffffffffffffffffffffffffffffff168152602001908152602001600020600082015181600001556020820151816001015560408201518160020160006101000a81548173ffffffffffffffffffffffffffffffffffffffff021916908373ffffffffffffffffffffffffffffffffffffffff160217905550606082015181600301556080820151816004015560a0820151816005015560c0820151816006015560e08201518160080160006101000a81548160ff021916908360ff1602179055506101008201518160090155905050606660029054906101000a900473ffffffffffffffffffffffffffffffffffffffff16606c60006001815260200190815260200160002060006101000a81548173ffffffffffffffffffffffffffffffffffffffff021916908373ffffffffffffffffffffffffffffffffffffffff160217905550606f60000160008154809291906001019190505550606f600101600081548092919060010191905055506000600190505b6069548160ff1611620006ce57620d2f00420160458260ff1660108110620004ee57fe5b01819055506001606b6000606660029054906101000a900473ffffffffffffffffffffffffffffffffffffffff1673ffffffffffffffffffffffffffffffffffffffff1673ffffffffffffffffffffffffffffffffffffffff16815260200190815260200160002060070160008360ff1660ff16815260200190815260200160002060000160066101000a81548160ff021916908315150217905550600f606b6000606660029054906101000a900473ffffffffffffffffffffffffffffffffffffffff1673ffffffffffffffffffffffffffffffffffffffff1673ffffffffffffffffffffffffffffffffffffffff16815260200190815260200160002060070160008360ff1660ff16815260200190815260200160002060000160026101000a81548161ffff021916908361ffff160217905550606d60008260ff1660ff168152602001908152602001600020606660029054906101000a900473ffffffffffffffffffffffffffffffffffffffff169080600181540180825580915050600190039060005260206000200160009091909190916101000a81548173ffffffffffffffffffffffffffffffffffffffff021916908373ffffffffffffffffffffffffffffffffffffffff1602179055508080600101915050620004ca565b505062000753565b82805482825590600052602060002090810192821562000721579160200282015b8281111562000720578251829067ffffffffffffffff16905591602001919060010190620006f7565b5b50905062000730919062000734565b5090565b5b808211156200074f57600081600090555060010162000735565b5090565b6152b480620007636000396000f3fe60806040526004361061024a5760003560e01c8063693864f311610139578063a7345f56116100b6578063bfe248931161007a578063bfe248931461106c578063c34f6b0d1461109a578063c8e161a1146110b1578063cfce504414611104578063eca2c0261461117d578063f21efb5b146111ab5761031b565b8063a7345f5614610e7a578063a87430ba14610ea8578063a9a9cfe014610f5e578063b3791e7f14610fc3578063bd4b77ee146110075761031b565b80638a03ad86116100fd5780638a03ad8614610d025780638c4636c114610d675780638da5cb5b14610dba578063950fabf314610dfb578063968763a014610e365761031b565b8063693864f314610b995780636f77926b14610be85780636f9fb98a14610ca25780637ccd94da14610ccd57806388b4504614610cf85761031b565b80632d3e474a116101c75780634cdbe9081161018b5780634cdbe908146109ae5780635a8a14d0146109dc5780635c279ff914610a0d5780635ce974b914610afb5780635d7b1cc914610b4a5761031b565b80632d3e474a146107e85780633336b63e14610829578063375e3b551461087c578063385399f9146108ce5780634a9fefc7146109335761031b565b8063216586581161020e57806321658658146104c9578063230f7f82146104f457806326efd443146107025780632a2c908e146107675780632cc8da43146107ba5761031b565b806301b91a1714610320578063162790551461038c578063163f7522146103f35780631aa3a0081461045a5780631dfd8fe0146104645761031b565b3661031b576000600190505b6069548160ff16116102c7573460688260ff168154811061027357fe5b906000526020600020015414156102ba5760018160ff1614801561029d575061029b336111d6565b155b156102ab576102aa611225565b5b6102b481611252565b50610319565b8080600101915050610256565b506040517f08c379a000000000000000000000000000000000000000000000000000000000815260040180806020018281038252603581526020018061524a6035913960400191505060405180910390fd5b005b600080fd5b34801561032c57600080fd5b506103356129f2565b6040518080602001828103825283818151815260200191508051906020019060200280838360005b8381101561037857808201518184015260208101905061035d565b505050509050019250505060405180910390f35b34801561039857600080fd5b506103db600480360360208110156103af57600080fd5b81019080803573ffffffffffffffffffffffffffffffffffffffff169060200190929190505050612a4a565b60405180821515815260200191505060405180910390f35b3480156103ff57600080fd5b506104426004803603602081101561041657600080fd5b81019080803573ffffffffffffffffffffffffffffffffffffffff1690602001909291905050506111d6565b60405180821515815260200191505060405180910390f35b610462611225565b005b34801561047057600080fd5b5061049d6004803603602081101561048757600080fd5b8101908080359060200190929190505050612a64565b604051808273ffffffffffffffffffffffffffffffffffffffff16815260200191505060405180910390f35b3480156104d557600080fd5b506104de612a97565b6040518082815260200191505060405180910390f35b34801561050057600080fd5b506105436004803603602081101561051757600080fd5b81019080803573ffffffffffffffffffffffffffffffffffffffff169060200190929190505050612a9c565b6040518080602001806020018060200180602001806020018060200187810387528d818151815260200191508051906020019060200280838360005b8381101561059a57808201518184015260208101905061057f565b5050505090500187810386528c818151815260200191508051906020019060200280838360005b838110156105dc5780820151818401526020810190506105c1565b5050505090500187810385528b818151815260200191508051906020019060200280838360005b8381101561061e578082015181840152602081019050610603565b5050505090500187810384528a818151815260200191508051906020019060200280838360005b83811015610660578082015181840152602081019050610645565b50505050905001878103835289818151815260200191508051906020019060200280838360005b838110156106a2578082015181840152602081019050610687565b50505050905001878103825288818151815260200191508051906020019060200280838360005b838110156106e45780820151818401526020810190506106c9565b505050509050019c5050505050505050505050505060405180910390f35b34801561070e57600080fd5b5061073b6004803603602081101561072557600080fd5b8101908080359060200190929190505050612ff2565b604051808273ffffffffffffffffffffffffffffffffffffffff16815260200191505060405180910390f35b34801561077357600080fd5b5061077c613025565b6040518082600560200280838360005b838110156107a757808201518184015260208101905061078c565b5050505090500191505060405180910390f35b3480156107c657600080fd5b506107cf61306c565b604051808260ff16815260200191505060405180910390f35b3480156107f457600080fd5b506107fd613071565b604051808273ffffffffffffffffffffffffffffffffffffffff16815260200191505060405180910390f35b34801561083557600080fd5b5061083e613097565b6040518082601060200280838360005b8381101561086957808201518184015260208101905061084e565b5050505090500191505060405180910390f35b34801561088857600080fd5b506108b86004803603602081101561089f57600080fd5b81019080803560ff1690602001909291905050506130e2565b6040518082815260200191505060405180910390f35b3480156108da57600080fd5b5061091d600480360360208110156108f157600080fd5b81019080803573ffffffffffffffffffffffffffffffffffffffff169060200190929190505050613153565b6040518082815260200191505060405180910390f35b34801561093f57600080fd5b506109826004803603602081101561095657600080fd5b81019080803573ffffffffffffffffffffffffffffffffffffffff16906020019092919050505061319f565b604051808273ffffffffffffffffffffffffffffffffffffffff16815260200191505060405180910390f35b3480156109ba57600080fd5b506109c3613286565b604051808260ff16815260200191505060405180910390f35b610a0b600480360360208110156109f257600080fd5b81019080803560ff169060200190929190505050611252565b005b348015610a1957600080fd5b50610a5c60048036036020811015610a3057600080fd5b81019080803573ffffffffffffffffffffffffffffffffffffffff169060200190929190505050613299565b604051808060200180602001838103835285818151815260200191508051906020019060200280838360005b83811015610aa3578082015181840152602081019050610a88565b50505050905001838103825284818151815260200191508051906020019060200280838360005b83811015610ae5578082015181840152602081019050610aca565b5050505090500194505050505060405180910390f35b348015610b0757600080fd5b50610b3460048036036020811015610b1e57600080fd5b810190808035906020019092919050505061345a565b6040518082815260200191505060405180910390f35b348015610b5657600080fd5b50610b8360048036036020811015610b6d57600080fd5b8101908080359060200190929190505050613472565b6040518082815260200191505060405180910390f35b348015610ba557600080fd5b50610bd260048036036020811015610bbc57600080fd5b8101908080359060200190929190505050613493565b6040518082815260200191505060405180910390f35b348015610bf457600080fd5b50610c3760048036036020811015610c0b57600080fd5b81019080803573ffffffffffffffffffffffffffffffffffffffff1690602001909291905050506134ab565b604051808b81526020018a81526020018981526020018873ffffffffffffffffffffffffffffffffffffffff1681526020018781526020018681526020018581526020018481526020018381526020018281526020019a505050505050505050505060405180910390f35b348015610cae57600080fd5b50610cb7613665565b6040518082815260200191505060405180910390f35b348015610cd957600080fd5b50610ce261366d565b6040518082815260200191505060405180910390f35b610d00613673565b005b348015610d0e57600080fd5b50610d3b60048036036020811015610d2557600080fd5b8101908080359060200190929190505050613675565b604051808273ffffffffffffffffffffffffffffffffffffffff16815260200191505060405180910390f35b348015610d7357600080fd5b50610d7c6136b2565b6040518082603260200280838360005b83811015610da7578082015181840152602081019050610d8c565b5050505090500191505060405180910390f35b348015610dc657600080fd5b50610dcf613733565b604051808273ffffffffffffffffffffffffffffffffffffffff16815260200191505060405180910390f35b348015610e0757600080fd5b50610e3460048036036020811015610e1e57600080fd5b8101908080359060200190929190505050613759565b005b610e7860048036036020811015610e4c57600080fd5b81019080803573ffffffffffffffffffffffffffffffffffffffff169060200190929190505050613c4e565b005b348015610e8657600080fd5b50610e8f614155565b604051808260ff16815260200191505060405180910390f35b348015610eb457600080fd5b50610ef760048036036020811015610ecb57600080fd5b81019080803573ffffffffffffffffffffffffffffffffffffffff169060200190929190505050614168565b604051808a81526020018981526020018873ffffffffffffffffffffffffffffffffffffffff1681526020018781526020018681526020018581526020018481526020018360ff168152602001828152602001995050505050505050505060405180910390f35b348015610f6a57600080fd5b50610fad60048036036020811015610f8157600080fd5b81019080803573ffffffffffffffffffffffffffffffffffffffff1690602001909291905050506141e3565b6040518082815260200191505060405180910390f35b61100560048036036020811015610fd957600080fd5b81019080803573ffffffffffffffffffffffffffffffffffffffff1690602001909291905050506141fb565b005b34801561101357600080fd5b506110566004803603602081101561102a57600080fd5b81019080803573ffffffffffffffffffffffffffffffffffffffff169060200190929190505050614211565b6040518082815260200191505060405180910390f35b34801561107857600080fd5b506110816142c4565b604051808260ff16815260200191505060405180910390f35b3480156110a657600080fd5b506110af6142c9565b005b3480156110bd57600080fd5b506110c66144d7565b6040518082601060200280838360005b838110156110f15780820151818401526020810190506110d6565b5050505090500191505060405180910390f35b34801561111057600080fd5b506111606004803603604081101561112757600080fd5b81019080803573ffffffffffffffffffffffffffffffffffffffff169060200190929190803560ff169060200190929190505050614522565b604051808381526020018281526020019250505060405180910390f35b34801561118957600080fd5b50611192614755565b604051808260ff16815260200191505060405180910390f35b3480156111b757600080fd5b506111c061475a565b6040518082815260200191505060405180910390f35b600080606b60008473ffffffffffffffffffffffffffffffffffffffff1673ffffffffffffffffffffffffffffffffffffffff1681526020019081526020016000206000015414159050919050565b611250606660029054906101000a900473ffffffffffffffffffffffffffffffffffffffff16613c4e565b565b600260005414156112cb576040517f08c379a000000000000000000000000000000000000000000000000000000000815260040180806020018281038252601f8152602001807f5265656e7472616e637947756172643a207265656e7472616e742063616c6c0081525060200191505060405180910390fd5b60026000819055506112dc336111d6565b61134e576040517f08c379a00000000000000000000000000000000000000000000000000000000081526004018080602001828103825260168152602001807f55736572206973206e6f7420726567697374657265640000000000000000000081525060200191505060405180910390fd5b60008160ff1611801561136657506069548160ff1611155b6113d8576040517f08c379a000000000000000000000000000000000000000000000000000000000815260040180806020018281038252600d8152602001807f496e76616c696420726f756e640000000000000000000000000000000000000081525060200191505060405180910390fd5b3460688260ff16815481106113e957fe5b906000526020600020015414611467576040517f08c379a00000000000000000000000000000000000000000000000000000000081526004018080602001828103825260118152602001807f496e76616c696420424e422076616c756500000000000000000000000000000081525060200191505060405180910390fd5b61147033612a4a565b156114e3576040517f08c379a00000000000000000000000000000000000000000000000000000000081526004018080602001828103825260158152602001807f43616e206e6f74206265206120636f6e7472616374000000000000000000000081525060200191505060405180910390fd5b6001606b60003373ffffffffffffffffffffffffffffffffffffffff1673ffffffffffffffffffffffffffffffffffffffff16815260200190815260200160002060080160009054906101000a900460ff160160ff168160ff1611156115b1576040517f08c379a00000000000000000000000000000000000000000000000000000000081526004018080602001828103825260138152602001807f526f756e64206e6f7420617661696c61626c650000000000000000000000000081525060200191505060405180910390fd5b4260458260ff16601081106115c257fe5b015410156117035760006115d5826130e2565b9050600060558360ff16601081106115e957fe5b0160009054906101000a900473ffffffffffffffffffffffffffffffffffffffff1673ffffffffffffffffffffffffffffffffffffffff166108fc839081150290604051600060405180830381858888f19350505050905080156116fc576201518060458460ff166010811061165b57fe5b016000828254019250508190555060558360ff166010811061167957fe5b0160009054906101000a900473ffffffffffffffffffffffffffffffffffffffff1673ffffffffffffffffffffffffffffffffffffffff167f8ea1a10de3733db603227ca0e3cd0feb6da4f1c33fb15cb9265fa333a64797c2428585604051808481526020018360ff168152602001828152602001935050505060405180910390a25b5050611739565b610e1060458260ff166010811061171657fe5b016000828254019250508190555042604560006010811061173357fe5b01819055505b3360558260ff166010811061174a57fe5b0160006101000a81548173ffffffffffffffffffffffffffffffffffffffff021916908373ffffffffffffffffffffffffffffffffffffffff160217905550606b60003373ffffffffffffffffffffffffffffffffffffffff1673ffffffffffffffffffffffffffffffffffffffff168152602001908152602001600020600801600081819054906101000a900460ff168092919060010191906101000a81548160ff021916908360ff1602179055505034606b60003373ffffffffffffffffffffffffffffffffffffffff1673ffffffffffffffffffffffffffffffffffffffff16815260200190815260200160002060090160008282540192505081905550606f6001016000815480929190600101919050555034606f6002016000828254019250508190555042606560003373ffffffffffffffffffffffffffffffffffffffff1673ffffffffffffffffffffffffffffffffffffffff1681526020019081526020016000208190555042606b60003373ffffffffffffffffffffffffffffffffffffffff1673ffffffffffffffffffffffffffffffffffffffff16815260200190815260200160002060070160008360ff1660ff1681526020019081526020016000206003018190555060006064348161192457fe5b049050606b60003373ffffffffffffffffffffffffffffffffffffffff1673ffffffffffffffffffffffffffffffffffffffff16815260200190815260200160002060070160008360ff1660ff16815260200190815260200160002060000160069054906101000a900460ff16611c4957606b60003373ffffffffffffffffffffffffffffffffffffffff1673ffffffffffffffffffffffffffffffffffffffff16815260200190815260200160002060070160008360ff1660ff168152602001908152602001600020600001600081819054906101000a900461ffff168092919060010191906101000a81548161ffff021916908361ffff16021790555050600260ff16606b60003373ffffffffffffffffffffffffffffffffffffffff1673ffffffffffffffffffffffffffffffffffffffff16815260200190815260200160002060070160008460ff1660ff16815260200190815260200160002060000160028282829054906101000a900461ffff160192506101000a81548161ffff021916908361ffff1602179055506001606b60003373ffffffffffffffffffffffffffffffffffffffff1673ffffffffffffffffffffffffffffffffffffffff16815260200190815260200160002060070160008460ff1660ff16815260200190815260200160002060000160066101000a81548160ff021916908315150217905550606d60008360ff1660ff168152602001908152602001600020339080600181540180825580915050600190039060005260206000200160009091909190916101000a81548173ffffffffffffffffffffffffffffffffffffffff021916908373ffffffffffffffffffffffffffffffffffffffff1602179055503373ffffffffffffffffffffffffffffffffffffffff167f2f201bc547acc49919922eaf7ecea9f3389adca4dc6ab3fb4a7498cbbaac63a242606b60003373ffffffffffffffffffffffffffffffffffffffff1673ffffffffffffffffffffffffffffffffffffffff1681526020019081526020016000206000015485604051808481526020018381526020018260ff168152602001935050505060405180910390a2611e80565b606b60003373ffffffffffffffffffffffffffffffffffffffff1673ffffffffffffffffffffffffffffffffffffffff16815260200190815260200160002060070160008360ff1660ff168152602001908152602001600020600001600081819054906101000a900461ffff168092919060010191906101000a81548161ffff021916908361ffff16021790555050600260ff16606b60003373ffffffffffffffffffffffffffffffffffffffff1673ffffffffffffffffffffffffffffffffffffffff16815260200190815260200160002060070160008460ff1660ff16815260200190815260200160002060000160028282829054906101000a900461ffff160192506101000a81548161ffff021916908361ffff1602179055503373ffffffffffffffffffffffffffffffffffffffff167f31bfa9ab73d15b5d752f5928d978dd4daba1b2dd420bb2d965c54cfe366c553442606b60003373ffffffffffffffffffffffffffffffffffffffff1673ffffffffffffffffffffffffffffffffffffffff1681526020019081526020016000206000015485606b60003373ffffffffffffffffffffffffffffffffffffffff1673ffffffffffffffffffffffffffffffffffffffff16815260200190815260200160002060070160008860ff1660ff16815260200190815260200160002060000160029054906101000a900461ffff16604051808581526020018481526020018360ff1681526020018261ffff16815260200194505050505060405180910390a25b6000604b60ff16820290503373ffffffffffffffffffffffffffffffffffffffff16606d60008560ff1660ff168152602001908152602001600020606e60008660ff1660ff1681526020019081526020016000205481548110611edf57fe5b9060005260206000200160009054906101000a900473ffffffffffffffffffffffffffffffffffffffff1673ffffffffffffffffffffffffffffffffffffffff16146126a2576000606d60008560ff1660ff168152602001908152602001600020606e60008660ff1660ff1681526020019081526020016000205481548110611f6457fe5b9060005260206000200160009054906101000a900473ffffffffffffffffffffffffffffffffffffffff16905060008173ffffffffffffffffffffffffffffffffffffffff166108fc849081150290604051600060405180830381858888f1935050505090508015612322576000606660019054906101000a900460ff1660ff1685029050611ff4838783614760565b83606b60008573ffffffffffffffffffffffffffffffffffffffff1673ffffffffffffffffffffffffffffffffffffffff16815260200190815260200160002060070160008860ff1660ff16815260200190815260200160002060010160008282540192505081905550606b60008473ffffffffffffffffffffffffffffffffffffffff1673ffffffffffffffffffffffffffffffffffffffff16815260200190815260200160002060070160008760ff1660ff168152602001908152602001600020600001600481819054906101000a900461ffff168092919060010191906101000a81548161ffff021916908361ffff1602179055505083606b60008573ffffffffffffffffffffffffffffffffffffffff1673ffffffffffffffffffffffffffffffffffffffff1681526020019081526020016000206005016000828254019250508190555083606b60008573ffffffffffffffffffffffffffffffffffffffff1673ffffffffffffffffffffffffffffffffffffffff16815260200190815260200160002060090160008282540192505081905550606b60008473ffffffffffffffffffffffffffffffffffffffff1673ffffffffffffffffffffffffffffffffffffffff16815260200190815260200160002060070160008760ff1660ff168152602001908152602001600020600301544203632efe0780816121f857fe5b0460358760ff166010811061220957fe5b01819055503373ffffffffffffffffffffffffffffffffffffffff167fe4183700b5bfcfeaf533b813f60f33ff4a041fa7bf73db1dd14fbb3eace4fa3542606b60008773ffffffffffffffffffffffffffffffffffffffff1673ffffffffffffffffffffffffffffffffffffffff168152602001908152602001600020600001548988606b60003373ffffffffffffffffffffffffffffffffffffffff1673ffffffffffffffffffffffffffffffffffffffff1681526020019081526020016000206000015460358d60ff16601081106122df57fe5b0154604051808781526020018681526020018560ff168152602001848152602001838152602001828152602001965050505050505060405180910390a25061238c565b606660029054906101000a900473ffffffffffffffffffffffffffffffffffffffff1673ffffffffffffffffffffffffffffffffffffffff166108fc849081150290604051600060405180830381858888f1935050505015801561238a573d6000803e3d6000fd5b505b606b60008373ffffffffffffffffffffffffffffffffffffffff1673ffffffffffffffffffffffffffffffffffffffff16815260200190815260200160002060070160008660ff1660ff16815260200190815260200160002060000160029054906101000a900461ffff1661ffff16606b60008473ffffffffffffffffffffffffffffffffffffffff1673ffffffffffffffffffffffffffffffffffffffff16815260200190815260200160002060070160008760ff1660ff16815260200190815260200160002060000160049054906101000a900461ffff1661ffff1610156124ef57606d60008660ff1660ff168152602001908152602001600020829080600181540180825580915050600190039060005260206000200160009091909190916101000a81548173ffffffffffffffffffffffffffffffffffffffff021916908373ffffffffffffffffffffffffffffffffffffffff160217905550612608565b6000606b60008473ffffffffffffffffffffffffffffffffffffffff1673ffffffffffffffffffffffffffffffffffffffff16815260200190815260200160002060070160008760ff1660ff16815260200190815260200160002060000160066101000a81548160ff0219169083151502179055503373ffffffffffffffffffffffffffffffffffffffff167f1524ba6dfa482cf4eda16273d76657ddb7f563b2e8a6c3f294564de0ffc6621142606b60008673ffffffffffffffffffffffffffffffffffffffff1673ffffffffffffffffffffffffffffffffffffffff1681526020019081526020016000206000015488604051808481526020018381526020018260ff168152602001935050505060405180910390a25b606d60008660ff1660ff168152602001908152602001600020606e60008760ff1660ff168152602001908152602001600020548154811061264557fe5b9060005260206000200160006101000a81549073ffffffffffffffffffffffffffffffffffffffff0219169055606e60008660ff1660ff1681526020019081526020016000206000815480929190600101919050555050506128bb565b606660029054906101000a900473ffffffffffffffffffffffffffffffffffffffff1673ffffffffffffffffffffffffffffffffffffffff166108fc829081150290604051600060405180830381858888f1935050505015801561270a573d6000803e3d6000fd5b50606b6000606660029054906101000a900473ffffffffffffffffffffffffffffffffffffffff1673ffffffffffffffffffffffffffffffffffffffff1673ffffffffffffffffffffffffffffffffffffffff16815260200190815260200160002060070160008460ff1660ff168152602001908152602001600020600001600481819054906101000a900461ffff168092919060010191906101000a81548161ffff021916908361ffff1602179055505080606b6000606660029054906101000a900473ffffffffffffffffffffffffffffffffffffffff1673ffffffffffffffffffffffffffffffffffffffff1673ffffffffffffffffffffffffffffffffffffffff16815260200190815260200160002060070160008560ff1660ff1681526020019081526020016000206001016000828254019250508190555080606b6000606660029054906101000a900473ffffffffffffffffffffffffffffffffffffffff1673ffffffffffffffffffffffffffffffffffffffff1673ffffffffffffffffffffffffffffffffffffffff168152602001908152602001600020600501600082825401925050819055505b6000606660009054906101000a900460ff1660ff16830290506128df338583614c6e565b6000606760009054906101000a900473ffffffffffffffffffffffffffffffffffffffff1673ffffffffffffffffffffffffffffffffffffffff16600760ff16850260405180600001905060006040518083038185875af1925050503d8060008114612967576040519150601f19603f3d011682016040523d82523d6000602084013e61296c565b606091505b50509050806129e3576040517f08c379a000000000000000000000000000000000000000000000000000000000815260040180806020018281038252601f8152602001807f7472616e73666572206661696c6564207768696c652062757920726f756e640081525060200191505060405180910390fd5b50505050600160008190555050565b60606068805480602002602001604051908101604052809291908181526020018280548015612a4057602002820191906000526020600020905b815481526020019060010190808311612a2c575b5050505050905090565b600080823b905060008163ffffffff161415915050919050565b60018160328110612a7157fe5b016000915054906101000a900473ffffffffffffffffffffffffffffffffffffffff1681565b600081565b606080606080606080606060016069540167ffffffffffffffff81118015612ac357600080fd5b50604051908082528060200260200182016040528015612af25781602001602082028036833780820191505090505b509050606060016069540167ffffffffffffffff81118015612b1357600080fd5b50604051908082528060200260200182016040528015612b425781602001602082028036833780820191505090505b509050606060016069540167ffffffffffffffff81118015612b6357600080fd5b50604051908082528060200260200182016040528015612b925781602001602082028036833780820191505090505b509050606060016069540167ffffffffffffffff81118015612bb357600080fd5b50604051908082528060200260200182016040528015612be25781602001602082028036833780820191505090505b509050606060016069540167ffffffffffffffff81118015612c0357600080fd5b50604051908082528060200260200182016040528015612c325781602001602082028036833780820191505090505b509050606060016069540167ffffffffffffffff81118015612c5357600080fd5b50604051908082528060200260200182016040528015612c825781602001602082028036833780820191505090505b5090506000600190505b6069548160ff1611612fd057606b60008f73ffffffffffffffffffffffffffffffffffffffff1673ffffffffffffffffffffffffffffffffffffffff16815260200190815260200160002060070160008260ff1660ff16815260200190815260200160002060000160069054906101000a900460ff16878260ff1681518110612d1157fe5b602002602001019015159081151581525050606b60008f73ffffffffffffffffffffffffffffffffffffffff1673ffffffffffffffffffffffffffffffffffffffff16815260200190815260200160002060070160008260ff1660ff16815260200190815260200160002060000160049054906101000a900461ffff16868260ff1681518110612d9d57fe5b602002602001019061ffff16908161ffff1681525050606b60008f73ffffffffffffffffffffffffffffffffffffffff1673ffffffffffffffffffffffffffffffffffffffff16815260200190815260200160002060070160008260ff1660ff16815260200190815260200160002060000160029054906101000a900461ffff16858260ff1681518110612e2d57fe5b602002602001019061ffff16908161ffff1681525050606b60008f73ffffffffffffffffffffffffffffffffffffffff1673ffffffffffffffffffffffffffffffffffffffff16815260200190815260200160002060070160008260ff1660ff16815260200190815260200160002060000160009054906101000a900461ffff16848260ff1681518110612ebd57fe5b602002602001019061ffff16908161ffff1681525050606b60008f73ffffffffffffffffffffffffffffffffffffffff1673ffffffffffffffffffffffffffffffffffffffff16815260200190815260200160002060070160008260ff1660ff16815260200190815260200160002060010154838260ff1681518110612f3f57fe5b602002602001018181525050606b60008f73ffffffffffffffffffffffffffffffffffffffff1673ffffffffffffffffffffffffffffffffffffffff16815260200190815260200160002060070160008260ff1660ff16815260200190815260200160002060020154828260ff1681518110612fb757fe5b6020026020010181815250508080600101915050612c8c565b508585858585859b509b509b509b509b509b5050505050505091939550919395565b60558160108110612fff57fe5b016000915054906101000a900473ffffffffffffffffffffffffffffffffffffffff1681565b61302d61517c565b6040518060a00160405280606f600001548152602001606f600101548152602001606f6002015481526020016033548152602001603454815250905090565b600281565b606760009054906101000a900473ffffffffffffffffffffffffffffffffffffffff1681565b61309f61519e565b60456010806020026040519081016040528092919082601080156130d8576020028201915b8154815260200190600101908083116130c4575b5050505050905090565b6000806000600190505b6069548160ff16116131245760688160ff168154811061310857fe5b90600052602060002001548201915080806001019150506130ec565b5060688360ff168154811061313557fe5b906000526020600020015481478161314957fe5b0402915050919050565b6000606b60008373ffffffffffffffffffffffffffffffffffffffff1673ffffffffffffffffffffffffffffffffffffffff168152602001908152602001600020600001549050919050565b60006131aa826111d6565b61321c576040517f08c379a00000000000000000000000000000000000000000000000000000000081526004018080602001828103825260168152602001807f55736572206973206e6f7420726567697374657265640000000000000000000081525060200191505060405180910390fd5b606b60008373ffffffffffffffffffffffffffffffffffffffff1673ffffffffffffffffffffffffffffffffffffffff16815260200190815260200160002060020160009054906101000a900473ffffffffffffffffffffffffffffffffffffffff169050919050565b606660009054906101000a900460ff1681565b606080606060016069540167ffffffffffffffff811180156132ba57600080fd5b506040519080825280602002602001820160405280156132e95781602001602082028036833780820191505090505b509050606060016069540167ffffffffffffffff8111801561330a57600080fd5b506040519080825280602002602001820160405280156133395781602001602082028036833780820191505090505b5090506000600190505b6069548160ff161161344c57606b60008773ffffffffffffffffffffffffffffffffffffffff1673ffffffffffffffffffffffffffffffffffffffff16815260200190815260200160002060070160008260ff1660ff16815260200190815260200160002060040154838260ff16815181106133bb57fe5b602002602001018181525050606b60008773ffffffffffffffffffffffffffffffffffffffff1673ffffffffffffffffffffffffffffffffffffffff16815260200190815260200160002060070160008260ff1660ff16815260200190815260200160002060050154828260ff168151811061343357fe5b6020026020010181815250508080600101915050613343565b508181935093505050915091565b6045816010811061346757fe5b016000915090505481565b6068818154811061347f57fe5b906000526020600020016000915090505481565b603581601081106134a057fe5b016000915090505481565b6000806000806000806000806000806134c26151c1565b606b60008d73ffffffffffffffffffffffffffffffffffffffff1673ffffffffffffffffffffffffffffffffffffffff1681526020019081526020016000206040518061012001604052908160008201548152602001600182015481526020016002820160009054906101000a900473ffffffffffffffffffffffffffffffffffffffff1673ffffffffffffffffffffffffffffffffffffffff1673ffffffffffffffffffffffffffffffffffffffff168152602001600382015481526020016004820154815260200160058201548152602001600682015481526020016008820160009054906101000a900460ff1660ff1660ff168152602001600982015481525050905080600001518160200151606b6000846040015173ffffffffffffffffffffffffffffffffffffffff1673ffffffffffffffffffffffffffffffffffffffff168152602001908152602001600020600001548360400151846060015185608001518660a001518760c001518860e001518961010001518160ff1691509a509a509a509a509a509a509a509a509a509a50509193959799509193959799565b600047905090565b60345481565b565b6000606c600083815260200190815260200160002060009054906101000a900473ffffffffffffffffffffffffffffffffffffffff169050919050565b6136ba615226565b6001603280602002604051908101604052809291908260328015613729576020028201915b8160009054906101000a900473ffffffffffffffffffffffffffffffffffffffff1673ffffffffffffffffffffffffffffffffffffffff16815260200190600101908083116136df575b5050505050905090565b606660029054906101000a900473ffffffffffffffffffffffffffffffffffffffff1681565b606660029054906101000a900473ffffffffffffffffffffffffffffffffffffffff1673ffffffffffffffffffffffffffffffffffffffff163373ffffffffffffffffffffffffffffffffffffffff161461381c576040517f08c379a00000000000000000000000000000000000000000000000000000000081526004018080602001828103825260158152602001807f796f7520617265206e6f7420616e206f776e657221000000000000000000000081525060200191505060405180910390fd5b60005b60318160ff161161388857600060018260ff166032811061383c57fe5b0160006101000a81548173ffffffffffffffffffffffffffffffffffffffff021916908373ffffffffffffffffffffffffffffffffffffffff160217905550808060010191505061381f565b50600080600190505b6069548160ff161161399e576000606e60008360ff1660ff1681526020019081526020016000205490505b606d60008360ff1660ff1681526020019081526020016000208054905081101561399057426201518060656000606d60008760ff1660ff168152602001908152602001600020858154811061390d57fe5b9060005260206000200160009054906101000a900473ffffffffffffffffffffffffffffffffffffffff1673ffffffffffffffffffffffffffffffffffffffff1673ffffffffffffffffffffffffffffffffffffffff168152602001908152602001600020540111156139835782806001019350505b80806001019150506138bc565b508080600101915050613891565b5081600247816139aa57fe5b04816139b257fe5b046033819055504260348190555060008282816139cb57fe5b0490506000806000600190505b6069548160ff1611613c46576000606e60008360ff1660ff1681526020019081526020016000205490505b606d60008360ff1660ff16815260200190815260200160002080549050811015613c385783806001019450506000858581613a3a57fe5b06148015613ad95750426201518060656000606d60008760ff1660ff1681526020019081526020016000208581548110613a7057fe5b9060005260206000200160009054906101000a900473ffffffffffffffffffffffffffffffffffffffff1673ffffffffffffffffffffffffffffffffffffffff1673ffffffffffffffffffffffffffffffffffffffff1681526020019081526020016000205401115b15613c2b57606d60008360ff1660ff1681526020019081526020016000208181548110613b0257fe5b9060005260206000200160009054906101000a900473ffffffffffffffffffffffffffffffffffffffff1660018460ff1660328110613b3d57fe5b0160006101000a81548173ffffffffffffffffffffffffffffffffffffffff021916908373ffffffffffffffffffffffffffffffffffffffff1602179055508280600101935050606d60008360ff1660ff1681526020019081526020016000208181548110613ba857fe5b9060005260206000200160009054906101000a900473ffffffffffffffffffffffffffffffffffffffff1673ffffffffffffffffffffffffffffffffffffffff167fedac0922924cc83017073b98842693d865d06a82c38175d4a1cb0811ef86193f42603354604051808381526020018281526020019250505060405180910390a25b8080600101915050613a03565b5080806001019150506139d8565b505050505050565b613c57816111d6565b613cc9576040517f08c379a000000000000000000000000000000000000000000000000000000000815260040180806020018281038252601a8152602001807f5265666572726572206973206e6f74207265676973746572656400000000000081525060200191505060405180910390fd5b613cd2336111d6565b15613d45576040517f08c379a00000000000000000000000000000000000000000000000000000000081526004018080602001828103825260178152602001807f5573657220616c7265616479207265676973746572656400000000000000000081525060200191505060405180910390fd5b613d4e33612a4a565b15613dc1576040517f08c379a00000000000000000000000000000000000000000000000000000000081526004018080602001828103825260158152602001807f43616e206e6f74206265206120636f6e7472616374000000000000000000000081525060200191505060405180910390fd5b613dc96151c1565b604051806101200160405280606a60008154809291906001019190505581526020014281526020018373ffffffffffffffffffffffffffffffffffffffff16815260200160008152602001600081526020016000815260200160008152602001600060ff1681526020016000815250905080606b60003373ffffffffffffffffffffffffffffffffffffffff1673ffffffffffffffffffffffffffffffffffffffff168152602001908152602001600020600082015181600001556020820151816001015560408201518160020160006101000a81548173ffffffffffffffffffffffffffffffffffffffff021916908373ffffffffffffffffffffffffffffffffffffffff160217905550606082015181600301556080820151816004015560a0820151816005015560c0820151816006015560e08201518160080160006101000a81548160ff021916908360ff160217905550610100820151816009015590505033606c60008360000151815260200190815260200160002060006101000a81548173ffffffffffffffffffffffffffffffffffffffff021916908373ffffffffffffffffffffffffffffffffffffffff1602179055506000600190506000839050600073ffffffffffffffffffffffffffffffffffffffff168173ffffffffffffffffffffffffffffffffffffffff161461408157606b60008273ffffffffffffffffffffffffffffffffffffffff1673ffffffffffffffffffffffffffffffffffffffff16815260200190815260200160002060030160008154809291906001019190505550606b60008273ffffffffffffffffffffffffffffffffffffffff1673ffffffffffffffffffffffffffffffffffffffff16815260200190815260200160002060020160009054906101000a900473ffffffffffffffffffffffffffffffffffffffff16905081806001019250505b606f60000160008154809291906001019190505550606f600101600081548092919060010191905055503373ffffffffffffffffffffffffffffffffffffffff167f588149fb6f65171a24789e864d05feb177506df6fc9e86c55d0d19b5122bdffc428560000151606b60008973ffffffffffffffffffffffffffffffffffffffff1673ffffffffffffffffffffffffffffffffffffffff1681526020019081526020016000206000015460405180848152602001838152602001828152602001935050505060405180910390a250505050565b606660019054906101000a900460ff1681565b606b6020528060005260406000206000915090508060000154908060010154908060020160009054906101000a900473ffffffffffffffffffffffffffffffffffffffff16908060030154908060040154908060050154908060060154908060080160009054906101000a900460ff16908060090154905089565b60656020528060005260406000206000915090505481565b61420481613c4e565b61420e6001611252565b50565b600080606b60008473ffffffffffffffffffffffffffffffffffffffff1673ffffffffffffffffffffffffffffffffffffffff16815260200190815260200160002060020160009054906101000a900473ffffffffffffffffffffffffffffffffffffffff169050606b60008273ffffffffffffffffffffffffffffffffffffffff1673ffffffffffffffffffffffffffffffffffffffff16815260200190815260200160002060000154915050919050565b604b81565b60026000541415614342576040517f08c379a000000000000000000000000000000000000000000000000000000000815260040180806020018281038252601f8152602001807f5265656e7472616e637947756172643a207265656e7472616e742063616c6c0081525060200191505060405180910390fd5b600260008190555060005b60318160ff16116144cc573373ffffffffffffffffffffffffffffffffffffffff1660018260ff166032811061437f57fe5b0160009054906101000a900473ffffffffffffffffffffffffffffffffffffffff1673ffffffffffffffffffffffffffffffffffffffff1614156144bf57606f60030160008154809291906001019190505550600060018260ff16603281106143e457fe5b0160006101000a81548173ffffffffffffffffffffffffffffffffffffffff021916908373ffffffffffffffffffffffffffffffffffffffff16021790555060003373ffffffffffffffffffffffffffffffffffffffff166108fc6033549081150290604051600060405180830381858888f19350505050905080156144bd573373ffffffffffffffffffffffffffffffffffffffff167f7c73022fe9ef1ddffacfe32ab067b48a23250b0c20fbabeace91e3cd9e63a9c042603354604051808381526020018281526020019250505060405180910390a25b505b808060010191505061434d565b506001600081905550565b6144df61519e565b6035601080602002604051908101604052809291908260108015614518576020028201915b815481526020019060010190808311614504575b5050505050905090565b60008060008360ff1611801561453d57506069548360ff1611155b6145af576040517f08c379a000000000000000000000000000000000000000000000000000000000815260040180806020018281038252600d8152602001807f496e76616c696420726f756e640000000000000000000000000000000000000081525060200191505060405180910390fd5b606b60008573ffffffffffffffffffffffffffffffffffffffff1673ffffffffffffffffffffffffffffffffffffffff16815260200190815260200160002060070160008460ff1660ff16815260200190815260200160002060000160069054906101000a900460ff16614629576000809150915061474e565b600080606e60008660ff1660ff1681526020019081526020016000205490505b606d60008660ff1660ff168152602001908152602001600020805490508110156147485781806001019250508573ffffffffffffffffffffffffffffffffffffffff16606d60008760ff1660ff16815260200190815260200160002082815481106146b057fe5b9060005260206000200160009054906101000a900473ffffffffffffffffffffffffffffffffffffffff1673ffffffffffffffffffffffffffffffffffffffff16141561473b5781606e60008760ff1660ff16815260200190815260200160002054606d60008860ff1660ff168152602001908152602001600020805490500393509350505061474e565b8080600101915050614649565b50600080fd5b9250929050565b600781565b60335481565b6000606b60008573ffffffffffffffffffffffffffffffffffffffff1673ffffffffffffffffffffffffffffffffffffffff16815260200190815260200160002060020160009054906101000a900473ffffffffffffffffffffffffffffffffffffffff169050606b60008273ffffffffffffffffffffffffffffffffffffffff1673ffffffffffffffffffffffffffffffffffffffff16815260200190815260200160002060070160008460ff1660ff16815260200190815260200160002060000160069054906101000a900460ff16614a0a5781606b60008373ffffffffffffffffffffffffffffffffffffffff1673ffffffffffffffffffffffffffffffffffffffff1681526020019081526020016000206006016000828254019250508190555081606b60008373ffffffffffffffffffffffffffffffffffffffff1673ffffffffffffffffffffffffffffffffffffffff16815260200190815260200160002060070160008560ff1660ff168152602001908152602001600020600501600082825401925050819055508073ffffffffffffffffffffffffffffffffffffffff167f0883bf1f67528bdc0cbaa14cb71f54e9f4e65ec49eceaf639cb93a9e50aefc4c42606b60008573ffffffffffffffffffffffffffffffffffffffff1673ffffffffffffffffffffffffffffffffffffffff16815260200190815260200160002060000154606b60008973ffffffffffffffffffffffffffffffffffffffff1673ffffffffffffffffffffffffffffffffffffffff168152602001908152602001600020600001548787604051808681526020018581526020018481526020018360ff1681526020018281526020019550505050505060405180910390a2606660029054906101000a900473ffffffffffffffffffffffffffffffffffffffff1690505b60008173ffffffffffffffffffffffffffffffffffffffff166108fc849081150290604051600060405180830381858888f1935050505090508015614bfd5782606b60008473ffffffffffffffffffffffffffffffffffffffff1673ffffffffffffffffffffffffffffffffffffffff16815260200190815260200160002060070160008660ff1660ff1681526020019081526020016000206002016000828254019250508190555082606b60008473ffffffffffffffffffffffffffffffffffffffff1673ffffffffffffffffffffffffffffffffffffffff168152602001908152602001600020600401600082825401925050819055508173ffffffffffffffffffffffffffffffffffffffff167f0ed8e24e8c3d702aae6ec32d5d8fbb15b20e1905fcd8e9a2313dff009a82175042606b60008673ffffffffffffffffffffffffffffffffffffffff1673ffffffffffffffffffffffffffffffffffffffff16815260200190815260200160002060000154606b60008a73ffffffffffffffffffffffffffffffffffffffff1673ffffffffffffffffffffffffffffffffffffffff168152602001908152602001600020600001548888604051808681526020018581526020018481526020018360ff1681526020018281526020019550505050505060405180910390a2614c67565b606660029054906101000a900473ffffffffffffffffffffffffffffffffffffffff1673ffffffffffffffffffffffffffffffffffffffff166108fc849081150290604051600060405180830381858888f19350505050158015614c65573d6000803e3d6000fd5b505b5050505050565b6000606b60008573ffffffffffffffffffffffffffffffffffffffff1673ffffffffffffffffffffffffffffffffffffffff16815260200190815260200160002060020160009054906101000a900473ffffffffffffffffffffffffffffffffffffffff169050606b60008273ffffffffffffffffffffffffffffffffffffffff1673ffffffffffffffffffffffffffffffffffffffff16815260200190815260200160002060070160008460ff1660ff16815260200190815260200160002060000160069054906101000a900460ff16614f185781606b60008373ffffffffffffffffffffffffffffffffffffffff1673ffffffffffffffffffffffffffffffffffffffff1681526020019081526020016000206006016000828254019250508190555081606b60008373ffffffffffffffffffffffffffffffffffffffff1673ffffffffffffffffffffffffffffffffffffffff16815260200190815260200160002060070160008560ff1660ff168152602001908152602001600020600401600082825401925050819055508073ffffffffffffffffffffffffffffffffffffffff167f71571cfdf540d399d1a547446d2f4090641fc35ae5bf0fa7148c5368a7d5912e42606b60008573ffffffffffffffffffffffffffffffffffffffff1673ffffffffffffffffffffffffffffffffffffffff16815260200190815260200160002060000154606b60008973ffffffffffffffffffffffffffffffffffffffff1673ffffffffffffffffffffffffffffffffffffffff168152602001908152602001600020600001548787604051808681526020018581526020018481526020018360ff1681526020018281526020019550505050505060405180910390a2606660029054906101000a900473ffffffffffffffffffffffffffffffffffffffff1690505b60008173ffffffffffffffffffffffffffffffffffffffff166108fc849081150290604051600060405180830381858888f193505050509050801561510b5782606b60008473ffffffffffffffffffffffffffffffffffffffff1673ffffffffffffffffffffffffffffffffffffffff16815260200190815260200160002060070160008660ff1660ff1681526020019081526020016000206002016000828254019250508190555082606b60008473ffffffffffffffffffffffffffffffffffffffff1673ffffffffffffffffffffffffffffffffffffffff168152602001908152602001600020600401600082825401925050819055508173ffffffffffffffffffffffffffffffffffffffff167fadbead61ed0e78434af1793fe9c549f995680ccc1d4cc2015e78bffc67b7b18142606b60008673ffffffffffffffffffffffffffffffffffffffff1673ffffffffffffffffffffffffffffffffffffffff16815260200190815260200160002060000154606b60008a73ffffffffffffffffffffffffffffffffffffffff1673ffffffffffffffffffffffffffffffffffffffff168152602001908152602001600020600001548888604051808681526020018581526020018481526020018360ff1681526020018281526020019550505050505060405180910390a2615175565b606660029054906101000a900473ffffffffffffffffffffffffffffffffffffffff1673ffffffffffffffffffffffffffffffffffffffff166108fc849081150290604051600060405180830381858888f19350505050158015615173573d6000803e3d6000fd5b505b5050505050565b6040518060a00160405280600590602082028036833780820191505090505090565b604051806102000160405280601090602082028036833780820191505090505090565b6040518061012001604052806000815260200160008152602001600073ffffffffffffffffffffffffffffffffffffffff16815260200160008152602001600081526020016000815260200160008152602001600060ff168152602001600081525090565b60405180610640016040528060329060208202803683378082019150509050509056fe43616e27742066696e6420726f756e6420746f206275792e204d617962652073656e742076616c756520697320696e76616c69642ea2646970667358221220f484bedcf9c35c1364754e8bd9ee9d0dd5babe4997f96c2d096877c324f2783564736f6c634300060c0033",
					"opcodes": "PUSH1 0x80 PUSH1 0x40 MSTORE PUSH1 0x9 PUSH1 0x66 PUSH1 0x0 PUSH2 0x100 EXP DUP2 SLOAD DUP2 PUSH1 0xFF MUL NOT AND SWAP1 DUP4 PUSH1 0xFF AND MUL OR SWAP1 SSTORE POP PUSH1 0x8 PUSH1 0x66 PUSH1 0x1 PUSH2 0x100 EXP DUP2 SLOAD DUP2 PUSH1 0xFF MUL NOT AND SWAP1 DUP4 PUSH1 0xFF AND MUL OR SWAP1 SSTORE POP PUSH1 0x40 MLOAD DUP1 PUSH2 0x200 ADD PUSH1 0x40 MSTORE DUP1 PUSH1 0x0 PUSH8 0xFFFFFFFFFFFFFFFF AND DUP2 MSTORE PUSH1 0x20 ADD PUSH7 0xB1A2BC2EC50000 PUSH8 0xFFFFFFFFFFFFFFFF AND DUP2 MSTORE PUSH1 0x20 ADD PUSH8 0x11C37937E080000 PUSH8 0xFFFFFFFFFFFFFFFF AND DUP2 MSTORE PUSH1 0x20 ADD PUSH8 0x1CDDA4FACCD0000 PUSH8 0xFFFFFFFFFFFFFFFF AND DUP2 MSTORE PUSH1 0x20 ADD PUSH8 0x30D98D59A960000 PUSH8 0xFFFFFFFFFFFFFFFF AND DUP2 MSTORE PUSH1 0x20 ADD PUSH8 0x494654067E10000 PUSH8 0xFFFFFFFFFFFFFFFF AND DUP2 MSTORE PUSH1 0x20 ADD PUSH8 0x6F05B59D3B20000 PUSH8 0xFFFFFFFFFFFFFFFF AND DUP2 MSTORE PUSH1 0x20 ADD PUSH8 0x9B6E64A8EC60000 PUSH8 0xFFFFFFFFFFFFFFFF AND DUP2 MSTORE PUSH1 0x20 ADD PUSH8 0xE92596FD6290000 PUSH8 0xFFFFFFFFFFFFFFFF AND DUP2 MSTORE PUSH1 0x20 ADD PUSH8 0x141F6F514C510000 PUSH8 0xFFFFFFFFFFFFFFFF AND DUP2 MSTORE PUSH1 0x20 ADD PUSH8 0x1B0FCAAB20030000 PUSH8 0xFFFFFFFFFFFFFFFF AND DUP2 MSTORE PUSH1 0x20 ADD PUSH8 0x214E8348C4F00000 PUSH8 0xFFFFFFFFFFFFFFFF AND DUP2 MSTORE PUSH1 0x20 ADD PUSH8 0x30927F74C9DE0000 PUSH8 0xFFFFFFFFFFFFFFFF AND DUP2 MSTORE PUSH1 0x20 ADD PUSH8 0x482A1C7300080000 PUSH8 0xFFFFFFFFFFFFFFFF AND DUP2 MSTORE PUSH1 0x20 ADD PUSH8 0x654ECF52AC5A0000 PUSH8 0xFFFFFFFFFFFFFFFF AND DUP2 MSTORE PUSH1 0x20 ADD PUSH8 0x8AC7230489E80000 PUSH8 0xFFFFFFFFFFFFFFFF AND DUP2 MSTORE POP PUSH1 0x68 SWAP1 PUSH1 0x10 PUSH3 0x1D0 SWAP3 SWAP2 SWAP1 PUSH3 0x6D6 JUMP JUMPDEST POP PUSH1 0x1 PUSH1 0x68 DUP1 SLOAD SWAP1 POP SUB PUSH1 0x69 SSTORE PUSH1 0x2 PUSH1 0x6A SSTORE CALLVALUE DUP1 ISZERO PUSH3 0x1EF JUMPI PUSH1 0x0 DUP1 REVERT JUMPDEST POP PUSH1 0x40 MLOAD PUSH3 0x5A17 CODESIZE SUB DUP1 PUSH3 0x5A17 DUP4 CODECOPY DUP2 DUP2 ADD PUSH1 0x40 MSTORE PUSH1 0x20 DUP2 LT ISZERO PUSH3 0x215 JUMPI PUSH1 0x0 DUP1 REVERT JUMPDEST DUP2 ADD SWAP1 DUP1 DUP1 MLOAD SWAP1 PUSH1 0x20 ADD SWAP1 SWAP3 SWAP2 SWAP1 POP POP POP PUSH1 0x1 PUSH1 0x0 DUP2 SWAP1 SSTORE POP CALLER PUSH1 0x66 PUSH1 0x2 PUSH2 0x100 EXP DUP2 SLOAD DUP2 PUSH20 0xFFFFFFFFFFFFFFFFFFFFFFFFFFFFFFFFFFFFFFFF MUL NOT AND SWAP1 DUP4 PUSH20 0xFFFFFFFFFFFFFFFFFFFFFFFFFFFFFFFFFFFFFFFF AND MUL OR SWAP1 SSTORE POP DUP1 PUSH1 0x67 PUSH1 0x0 PUSH2 0x100 EXP DUP2 SLOAD DUP2 PUSH20 0xFFFFFFFFFFFFFFFFFFFFFFFFFFFFFFFFFFFFFFFF MUL NOT AND SWAP1 DUP4 PUSH20 0xFFFFFFFFFFFFFFFFFFFFFFFFFFFFFFFFFFFFFFFF AND MUL OR SWAP1 SSTORE POP PUSH1 0x40 MLOAD DUP1 PUSH2 0x120 ADD PUSH1 0x40 MSTORE DUP1 PUSH1 0x1 DUP2 MSTORE PUSH1 0x20 ADD TIMESTAMP DUP2 MSTORE PUSH1 0x20 ADD PUSH1 0x0 PUSH20 0xFFFFFFFFFFFFFFFFFFFFFFFFFFFFFFFFFFFFFFFF AND DUP2 MSTORE PUSH1 0x20 ADD PUSH1 0x0 DUP2 MSTORE PUSH1 0x20 ADD PUSH1 0x0 DUP2 MSTORE PUSH1 0x20 ADD PUSH1 0x0 DUP2 MSTORE PUSH1 0x20 ADD PUSH1 0x0 DUP2 MSTORE PUSH1 0x20 ADD PUSH1 0x0 PUSH1 0xFF AND DUP2 MSTORE PUSH1 0x20 ADD PUSH1 0x0 DUP2 MSTORE POP PUSH1 0x6B PUSH1 0x0 PUSH1 0x66 PUSH1 0x2 SWAP1 SLOAD SWAP1 PUSH2 0x100 EXP SWAP1 DIV PUSH20 0xFFFFFFFFFFFFFFFFFFFFFFFFFFFFFFFFFFFFFFFF AND PUSH20 0xFFFFFFFFFFFFFFFFFFFFFFFFFFFFFFFFFFFFFFFF AND PUSH20 0xFFFFFFFFFFFFFFFFFFFFFFFFFFFFFFFFFFFFFFFF AND DUP2 MSTORE PUSH1 0x20 ADD SWAP1 DUP2 MSTORE PUSH1 0x20 ADD PUSH1 0x0 KECCAK256 PUSH1 0x0 DUP3 ADD MLOAD DUP2 PUSH1 0x0 ADD SSTORE PUSH1 0x20 DUP3 ADD MLOAD DUP2 PUSH1 0x1 ADD SSTORE PUSH1 0x40 DUP3 ADD MLOAD DUP2 PUSH1 0x2 ADD PUSH1 0x0 PUSH2 0x100 EXP DUP2 SLOAD DUP2 PUSH20 0xFFFFFFFFFFFFFFFFFFFFFFFFFFFFFFFFFFFFFFFF MUL NOT AND SWAP1 DUP4 PUSH20 0xFFFFFFFFFFFFFFFFFFFFFFFFFFFFFFFFFFFFFFFF AND MUL OR SWAP1 SSTORE POP PUSH1 0x60 DUP3 ADD MLOAD DUP2 PUSH1 0x3 ADD SSTORE PUSH1 0x80 DUP3 ADD MLOAD DUP2 PUSH1 0x4 ADD SSTORE PUSH1 0xA0 DUP3 ADD MLOAD DUP2 PUSH1 0x5 ADD SSTORE PUSH1 0xC0 DUP3 ADD MLOAD DUP2 PUSH1 0x6 ADD SSTORE PUSH1 0xE0 DUP3 ADD MLOAD DUP2 PUSH1 0x8 ADD PUSH1 0x0 PUSH2 0x100 EXP DUP2 SLOAD DUP2 PUSH1 0xFF MUL NOT AND SWAP1 DUP4 PUSH1 0xFF AND MUL OR SWAP1 SSTORE POP PUSH2 0x100 DUP3 ADD MLOAD DUP2 PUSH1 0x9 ADD SSTORE SWAP1 POP POP PUSH1 0x66 PUSH1 0x2 SWAP1 SLOAD SWAP1 PUSH2 0x100 EXP SWAP1 DIV PUSH20 0xFFFFFFFFFFFFFFFFFFFFFFFFFFFFFFFFFFFFFFFF AND PUSH1 0x6C PUSH1 0x0 PUSH1 0x1 DUP2 MSTORE PUSH1 0x20 ADD SWAP1 DUP2 MSTORE PUSH1 0x20 ADD PUSH1 0x0 KECCAK256 PUSH1 0x0 PUSH2 0x100 EXP DUP2 SLOAD DUP2 PUSH20 0xFFFFFFFFFFFFFFFFFFFFFFFFFFFFFFFFFFFFFFFF MUL NOT AND SWAP1 DUP4 PUSH20 0xFFFFFFFFFFFFFFFFFFFFFFFFFFFFFFFFFFFFFFFF AND MUL OR SWAP1 SSTORE POP PUSH1 0x6F PUSH1 0x0 ADD PUSH1 0x0 DUP2 SLOAD DUP1 SWAP3 SWAP2 SWAP1 PUSH1 0x1 ADD SWAP2 SWAP1 POP SSTORE POP PUSH1 0x6F PUSH1 0x1 ADD PUSH1 0x0 DUP2 SLOAD DUP1 SWAP3 SWAP2 SWAP1 PUSH1 0x1 ADD SWAP2 SWAP1 POP SSTORE POP PUSH1 0x0 PUSH1 0x1 SWAP1 POP JUMPDEST PUSH1 0x69 SLOAD DUP2 PUSH1 0xFF AND GT PUSH3 0x6CE JUMPI PUSH3 0xD2F00 TIMESTAMP ADD PUSH1 0x45 DUP3 PUSH1 0xFF AND PUSH1 0x10 DUP2 LT PUSH3 0x4EE JUMPI INVALID JUMPDEST ADD DUP2 SWAP1 SSTORE POP PUSH1 0x1 PUSH1 0x6B PUSH1 0x0 PUSH1 0x66 PUSH1 0x2 SWAP1 SLOAD SWAP1 PUSH2 0x100 EXP SWAP1 DIV PUSH20 0xFFFFFFFFFFFFFFFFFFFFFFFFFFFFFFFFFFFFFFFF AND PUSH20 0xFFFFFFFFFFFFFFFFFFFFFFFFFFFFFFFFFFFFFFFF AND PUSH20 0xFFFFFFFFFFFFFFFFFFFFFFFFFFFFFFFFFFFFFFFF AND DUP2 MSTORE PUSH1 0x20 ADD SWAP1 DUP2 MSTORE PUSH1 0x20 ADD PUSH1 0x0 KECCAK256 PUSH1 0x7 ADD PUSH1 0x0 DUP4 PUSH1 0xFF AND PUSH1 0xFF AND DUP2 MSTORE PUSH1 0x20 ADD SWAP1 DUP2 MSTORE PUSH1 0x20 ADD PUSH1 0x0 KECCAK256 PUSH1 0x0 ADD PUSH1 0x6 PUSH2 0x100 EXP DUP2 SLOAD DUP2 PUSH1 0xFF MUL NOT AND SWAP1 DUP4 ISZERO ISZERO MUL OR SWAP1 SSTORE POP PUSH1 0xF PUSH1 0x6B PUSH1 0x0 PUSH1 0x66 PUSH1 0x2 SWAP1 SLOAD SWAP1 PUSH2 0x100 EXP SWAP1 DIV PUSH20 0xFFFFFFFFFFFFFFFFFFFFFFFFFFFFFFFFFFFFFFFF AND PUSH20 0xFFFFFFFFFFFFFFFFFFFFFFFFFFFFFFFFFFFFFFFF AND PUSH20 0xFFFFFFFFFFFFFFFFFFFFFFFFFFFFFFFFFFFFFFFF AND DUP2 MSTORE PUSH1 0x20 ADD SWAP1 DUP2 MSTORE PUSH1 0x20 ADD PUSH1 0x0 KECCAK256 PUSH1 0x7 ADD PUSH1 0x0 DUP4 PUSH1 0xFF AND PUSH1 0xFF AND DUP2 MSTORE PUSH1 0x20 ADD SWAP1 DUP2 MSTORE PUSH1 0x20 ADD PUSH1 0x0 KECCAK256 PUSH1 0x0 ADD PUSH1 0x2 PUSH2 0x100 EXP DUP2 SLOAD DUP2 PUSH2 0xFFFF MUL NOT AND SWAP1 DUP4 PUSH2 0xFFFF AND MUL OR SWAP1 SSTORE POP PUSH1 0x6D PUSH1 0x0 DUP3 PUSH1 0xFF AND PUSH1 0xFF AND DUP2 MSTORE PUSH1 0x20 ADD SWAP1 DUP2 MSTORE PUSH1 0x20 ADD PUSH1 0x0 KECCAK256 PUSH1 0x66 PUSH1 0x2 SWAP1 SLOAD SWAP1 PUSH2 0x100 EXP SWAP1 DIV PUSH20 0xFFFFFFFFFFFFFFFFFFFFFFFFFFFFFFFFFFFFFFFF AND SWAP1 DUP1 PUSH1 0x1 DUP2 SLOAD ADD DUP1 DUP3 SSTORE DUP1 SWAP2 POP POP PUSH1 0x1 SWAP1 SUB SWAP1 PUSH1 0x0 MSTORE PUSH1 0x20 PUSH1 0x0 KECCAK256 ADD PUSH1 0x0 SWAP1 SWAP2 SWAP1 SWAP2 SWAP1 SWAP2 PUSH2 0x100 EXP DUP2 SLOAD DUP2 PUSH20 0xFFFFFFFFFFFFFFFFFFFFFFFFFFFFFFFFFFFFFFFF MUL NOT AND SWAP1 DUP4 PUSH20 0xFFFFFFFFFFFFFFFFFFFFFFFFFFFFFFFFFFFFFFFF AND MUL OR SWAP1 SSTORE POP DUP1 DUP1 PUSH1 0x1 ADD SWAP2 POP POP PUSH3 0x4CA JUMP JUMPDEST POP POP PUSH3 0x753 JUMP JUMPDEST DUP3 DUP1 SLOAD DUP3 DUP3 SSTORE SWAP1 PUSH1 0x0 MSTORE PUSH1 0x20 PUSH1 0x0 KECCAK256 SWAP1 DUP2 ADD SWAP3 DUP3 ISZERO PUSH3 0x721 JUMPI SWAP2 PUSH1 0x20 MUL DUP3 ADD JUMPDEST DUP3 DUP2 GT ISZERO PUSH3 0x720 JUMPI DUP3 MLOAD DUP3 SWAP1 PUSH8 0xFFFFFFFFFFFFFFFF AND SWAP1 SSTORE SWAP2 PUSH1 0x20 ADD SWAP2 SWAP1 PUSH1 0x1 ADD SWAP1 PUSH3 0x6F7 JUMP JUMPDEST JUMPDEST POP SWAP1 POP PUSH3 0x730 SWAP2 SWAP1 PUSH3 0x734 JUMP JUMPDEST POP SWAP1 JUMP JUMPDEST JUMPDEST DUP1 DUP3 GT ISZERO PUSH3 0x74F JUMPI PUSH1 0x0 DUP2 PUSH1 0x0 SWAP1 SSTORE POP PUSH1 0x1 ADD PUSH3 0x735 JUMP JUMPDEST POP SWAP1 JUMP JUMPDEST PUSH2 0x52B4 DUP1 PUSH3 0x763 PUSH1 0x0 CODECOPY PUSH1 0x0 RETURN INVALID PUSH1 0x80 PUSH1 0x40 MSTORE PUSH1 0x4 CALLDATASIZE LT PUSH2 0x24A JUMPI PUSH1 0x0 CALLDATALOAD PUSH1 0xE0 SHR DUP1 PUSH4 0x693864F3 GT PUSH2 0x139 JUMPI DUP1 PUSH4 0xA7345F56 GT PUSH2 0xB6 JUMPI DUP1 PUSH4 0xBFE24893 GT PUSH2 0x7A JUMPI DUP1 PUSH4 0xBFE24893 EQ PUSH2 0x106C JUMPI DUP1 PUSH4 0xC34F6B0D EQ PUSH2 0x109A JUMPI DUP1 PUSH4 0xC8E161A1 EQ PUSH2 0x10B1 JUMPI DUP1 PUSH4 0xCFCE5044 EQ PUSH2 0x1104 JUMPI DUP1 PUSH4 0xECA2C026 EQ PUSH2 0x117D JUMPI DUP1 PUSH4 0xF21EFB5B EQ PUSH2 0x11AB JUMPI PUSH2 0x31B JUMP JUMPDEST DUP1 PUSH4 0xA7345F56 EQ PUSH2 0xE7A JUMPI DUP1 PUSH4 0xA87430BA EQ PUSH2 0xEA8 JUMPI DUP1 PUSH4 0xA9A9CFE0 EQ PUSH2 0xF5E JUMPI DUP1 PUSH4 0xB3791E7F EQ PUSH2 0xFC3 JUMPI DUP1 PUSH4 0xBD4B77EE EQ PUSH2 0x1007 JUMPI PUSH2 0x31B JUMP JUMPDEST DUP1 PUSH4 0x8A03AD86 GT PUSH2 0xFD JUMPI DUP1 PUSH4 0x8A03AD86 EQ PUSH2 0xD02 JUMPI DUP1 PUSH4 0x8C4636C1 EQ PUSH2 0xD67 JUMPI DUP1 PUSH4 0x8DA5CB5B EQ PUSH2 0xDBA JUMPI DUP1 PUSH4 0x950FABF3 EQ PUSH2 0xDFB JUMPI DUP1 PUSH4 0x968763A0 EQ PUSH2 0xE36 JUMPI PUSH2 0x31B JUMP JUMPDEST DUP1 PUSH4 0x693864F3 EQ PUSH2 0xB99 JUMPI DUP1 PUSH4 0x6F77926B EQ PUSH2 0xBE8 JUMPI DUP1 PUSH4 0x6F9FB98A EQ PUSH2 0xCA2 JUMPI DUP1 PUSH4 0x7CCD94DA EQ PUSH2 0xCCD JUMPI DUP1 PUSH4 0x88B45046 EQ PUSH2 0xCF8 JUMPI PUSH2 0x31B JUMP JUMPDEST DUP1 PUSH4 0x2D3E474A GT PUSH2 0x1C7 JUMPI DUP1 PUSH4 0x4CDBE908 GT PUSH2 0x18B JUMPI DUP1 PUSH4 0x4CDBE908 EQ PUSH2 0x9AE JUMPI DUP1 PUSH4 0x5A8A14D0 EQ PUSH2 0x9DC JUMPI DUP1 PUSH4 0x5C279FF9 EQ PUSH2 0xA0D JUMPI DUP1 PUSH4 0x5CE974B9 EQ PUSH2 0xAFB JUMPI DUP1 PUSH4 0x5D7B1CC9 EQ PUSH2 0xB4A JUMPI PUSH2 0x31B JUMP JUMPDEST DUP1 PUSH4 0x2D3E474A EQ PUSH2 0x7E8 JUMPI DUP1 PUSH4 0x3336B63E EQ PUSH2 0x829 JUMPI DUP1 PUSH4 0x375E3B55 EQ PUSH2 0x87C JUMPI DUP1 PUSH4 0x385399F9 EQ PUSH2 0x8CE JUMPI DUP1 PUSH4 0x4A9FEFC7 EQ PUSH2 0x933 JUMPI PUSH2 0x31B JUMP JUMPDEST DUP1 PUSH4 0x21658658 GT PUSH2 0x20E JUMPI DUP1 PUSH4 0x21658658 EQ PUSH2 0x4C9 JUMPI DUP1 PUSH4 0x230F7F82 EQ PUSH2 0x4F4 JUMPI DUP1 PUSH4 0x26EFD443 EQ PUSH2 0x702 JUMPI DUP1 PUSH4 0x2A2C908E EQ PUSH2 0x767 JUMPI DUP1 PUSH4 0x2CC8DA43 EQ PUSH2 0x7BA JUMPI PUSH2 0x31B JUMP JUMPDEST DUP1 PUSH4 0x1B91A17 EQ PUSH2 0x320 JUMPI DUP1 PUSH4 0x16279055 EQ PUSH2 0x38C JUMPI DUP1 PUSH4 0x163F7522 EQ PUSH2 0x3F3 JUMPI DUP1 PUSH4 0x1AA3A008 EQ PUSH2 0x45A JUMPI DUP1 PUSH4 0x1DFD8FE0 EQ PUSH2 0x464 JUMPI PUSH2 0x31B JUMP JUMPDEST CALLDATASIZE PUSH2 0x31B JUMPI PUSH1 0x0 PUSH1 0x1 SWAP1 POP JUMPDEST PUSH1 0x69 SLOAD DUP2 PUSH1 0xFF AND GT PUSH2 0x2C7 JUMPI CALLVALUE PUSH1 0x68 DUP3 PUSH1 0xFF AND DUP2 SLOAD DUP2 LT PUSH2 0x273 JUMPI INVALID JUMPDEST SWAP1 PUSH1 0x0 MSTORE PUSH1 0x20 PUSH1 0x0 KECCAK256 ADD SLOAD EQ ISZERO PUSH2 0x2BA JUMPI PUSH1 0x1 DUP2 PUSH1 0xFF AND EQ DUP1 ISZERO PUSH2 0x29D JUMPI POP PUSH2 0x29B CALLER PUSH2 0x11D6 JUMP JUMPDEST ISZERO JUMPDEST ISZERO PUSH2 0x2AB JUMPI PUSH2 0x2AA PUSH2 0x1225 JUMP JUMPDEST JUMPDEST PUSH2 0x2B4 DUP2 PUSH2 0x1252 JUMP JUMPDEST POP PUSH2 0x319 JUMP JUMPDEST DUP1 DUP1 PUSH1 0x1 ADD SWAP2 POP POP PUSH2 0x256 JUMP JUMPDEST POP PUSH1 0x40 MLOAD PUSH32 0x8C379A000000000000000000000000000000000000000000000000000000000 DUP2 MSTORE PUSH1 0x4 ADD DUP1 DUP1 PUSH1 0x20 ADD DUP3 DUP2 SUB DUP3 MSTORE PUSH1 0x35 DUP2 MSTORE PUSH1 0x20 ADD DUP1 PUSH2 0x524A PUSH1 0x35 SWAP2 CODECOPY PUSH1 0x40 ADD SWAP2 POP POP PUSH1 0x40 MLOAD DUP1 SWAP2 SUB SWAP1 REVERT JUMPDEST STOP JUMPDEST PUSH1 0x0 DUP1 REVERT JUMPDEST CALLVALUE DUP1 ISZERO PUSH2 0x32C JUMPI PUSH1 0x0 DUP1 REVERT JUMPDEST POP PUSH2 0x335 PUSH2 0x29F2 JUMP JUMPDEST PUSH1 0x40 MLOAD DUP1 DUP1 PUSH1 0x20 ADD DUP3 DUP2 SUB DUP3 MSTORE DUP4 DUP2 DUP2 MLOAD DUP2 MSTORE PUSH1 0x20 ADD SWAP2 POP DUP1 MLOAD SWAP1 PUSH1 0x20 ADD SWAP1 PUSH1 0x20 MUL DUP1 DUP4 DUP4 PUSH1 0x0 JUMPDEST DUP4 DUP2 LT ISZERO PUSH2 0x378 JUMPI DUP1 DUP3 ADD MLOAD DUP2 DUP5 ADD MSTORE PUSH1 0x20 DUP2 ADD SWAP1 POP PUSH2 0x35D JUMP JUMPDEST POP POP POP POP SWAP1 POP ADD SWAP3 POP POP POP PUSH1 0x40 MLOAD DUP1 SWAP2 SUB SWAP1 RETURN JUMPDEST CALLVALUE DUP1 ISZERO PUSH2 0x398 JUMPI PUSH1 0x0 DUP1 REVERT JUMPDEST POP PUSH2 0x3DB PUSH1 0x4 DUP1 CALLDATASIZE SUB PUSH1 0x20 DUP2 LT ISZERO PUSH2 0x3AF JUMPI PUSH1 0x0 DUP1 REVERT JUMPDEST DUP2 ADD SWAP1 DUP1 DUP1 CALLDATALOAD PUSH20 0xFFFFFFFFFFFFFFFFFFFFFFFFFFFFFFFFFFFFFFFF AND SWAP1 PUSH1 0x20 ADD SWAP1 SWAP3 SWAP2 SWAP1 POP POP POP PUSH2 0x2A4A JUMP JUMPDEST PUSH1 0x40 MLOAD DUP1 DUP3 ISZERO ISZERO DUP2 MSTORE PUSH1 0x20 ADD SWAP2 POP POP PUSH1 0x40 MLOAD DUP1 SWAP2 SUB SWAP1 RETURN JUMPDEST CALLVALUE DUP1 ISZERO PUSH2 0x3FF JUMPI PUSH1 0x0 DUP1 REVERT JUMPDEST POP PUSH2 0x442 PUSH1 0x4 DUP1 CALLDATASIZE SUB PUSH1 0x20 DUP2 LT ISZERO PUSH2 0x416 JUMPI PUSH1 0x0 DUP1 REVERT JUMPDEST DUP2 ADD SWAP1 DUP1 DUP1 CALLDATALOAD PUSH20 0xFFFFFFFFFFFFFFFFFFFFFFFFFFFFFFFFFFFFFFFF AND SWAP1 PUSH1 0x20 ADD SWAP1 SWAP3 SWAP2 SWAP1 POP POP POP PUSH2 0x11D6 JUMP JUMPDEST PUSH1 0x40 MLOAD DUP1 DUP3 ISZERO ISZERO DUP2 MSTORE PUSH1 0x20 ADD SWAP2 POP POP PUSH1 0x40 MLOAD DUP1 SWAP2 SUB SWAP1 RETURN JUMPDEST PUSH2 0x462 PUSH2 0x1225 JUMP JUMPDEST STOP JUMPDEST CALLVALUE DUP1 ISZERO PUSH2 0x470 JUMPI PUSH1 0x0 DUP1 REVERT JUMPDEST POP PUSH2 0x49D PUSH1 0x4 DUP1 CALLDATASIZE SUB PUSH1 0x20 DUP2 LT ISZERO PUSH2 0x487 JUMPI PUSH1 0x0 DUP1 REVERT JUMPDEST DUP2 ADD SWAP1 DUP1 DUP1 CALLDATALOAD SWAP1 PUSH1 0x20 ADD SWAP1 SWAP3 SWAP2 SWAP1 POP POP POP PUSH2 0x2A64 JUMP JUMPDEST PUSH1 0x40 MLOAD DUP1 DUP3 PUSH20 0xFFFFFFFFFFFFFFFFFFFFFFFFFFFFFFFFFFFFFFFF AND DUP2 MSTORE PUSH1 0x20 ADD SWAP2 POP POP PUSH1 0x40 MLOAD DUP1 SWAP2 SUB SWAP1 RETURN JUMPDEST CALLVALUE DUP1 ISZERO PUSH2 0x4D5 JUMPI PUSH1 0x0 DUP1 REVERT JUMPDEST POP PUSH2 0x4DE PUSH2 0x2A97 JUMP JUMPDEST PUSH1 0x40 MLOAD DUP1 DUP3 DUP2 MSTORE PUSH1 0x20 ADD SWAP2 POP POP PUSH1 0x40 MLOAD DUP1 SWAP2 SUB SWAP1 RETURN JUMPDEST CALLVALUE DUP1 ISZERO PUSH2 0x500 JUMPI PUSH1 0x0 DUP1 REVERT JUMPDEST POP PUSH2 0x543 PUSH1 0x4 DUP1 CALLDATASIZE SUB PUSH1 0x20 DUP2 LT ISZERO PUSH2 0x517 JUMPI PUSH1 0x0 DUP1 REVERT JUMPDEST DUP2 ADD SWAP1 DUP1 DUP1 CALLDATALOAD PUSH20 0xFFFFFFFFFFFFFFFFFFFFFFFFFFFFFFFFFFFFFFFF AND SWAP1 PUSH1 0x20 ADD SWAP1 SWAP3 SWAP2 SWAP1 POP POP POP PUSH2 0x2A9C JUMP JUMPDEST PUSH1 0x40 MLOAD DUP1 DUP1 PUSH1 0x20 ADD DUP1 PUSH1 0x20 ADD DUP1 PUSH1 0x20 ADD DUP1 PUSH1 0x20 ADD DUP1 PUSH1 0x20 ADD DUP1 PUSH1 0x20 ADD DUP8 DUP2 SUB DUP8 MSTORE DUP14 DUP2 DUP2 MLOAD DUP2 MSTORE PUSH1 0x20 ADD SWAP2 POP DUP1 MLOAD SWAP1 PUSH1 0x20 ADD SWAP1 PUSH1 0x20 MUL DUP1 DUP4 DUP4 PUSH1 0x0 JUMPDEST DUP4 DUP2 LT ISZERO PUSH2 0x59A JUMPI DUP1 DUP3 ADD MLOAD DUP2 DUP5 ADD MSTORE PUSH1 0x20 DUP2 ADD SWAP1 POP PUSH2 0x57F JUMP JUMPDEST POP POP POP POP SWAP1 POP ADD DUP8 DUP2 SUB DUP7 MSTORE DUP13 DUP2 DUP2 MLOAD DUP2 MSTORE PUSH1 0x20 ADD SWAP2 POP DUP1 MLOAD SWAP1 PUSH1 0x20 ADD SWAP1 PUSH1 0x20 MUL DUP1 DUP4 DUP4 PUSH1 0x0 JUMPDEST DUP4 DUP2 LT ISZERO PUSH2 0x5DC JUMPI DUP1 DUP3 ADD MLOAD DUP2 DUP5 ADD MSTORE PUSH1 0x20 DUP2 ADD SWAP1 POP PUSH2 0x5C1 JUMP JUMPDEST POP POP POP POP SWAP1 POP ADD DUP8 DUP2 SUB DUP6 MSTORE DUP12 DUP2 DUP2 MLOAD DUP2 MSTORE PUSH1 0x20 ADD SWAP2 POP DUP1 MLOAD SWAP1 PUSH1 0x20 ADD SWAP1 PUSH1 0x20 MUL DUP1 DUP4 DUP4 PUSH1 0x0 JUMPDEST DUP4 DUP2 LT ISZERO PUSH2 0x61E JUMPI DUP1 DUP3 ADD MLOAD DUP2 DUP5 ADD MSTORE PUSH1 0x20 DUP2 ADD SWAP1 POP PUSH2 0x603 JUMP JUMPDEST POP POP POP POP SWAP1 POP ADD DUP8 DUP2 SUB DUP5 MSTORE DUP11 DUP2 DUP2 MLOAD DUP2 MSTORE PUSH1 0x20 ADD SWAP2 POP DUP1 MLOAD SWAP1 PUSH1 0x20 ADD SWAP1 PUSH1 0x20 MUL DUP1 DUP4 DUP4 PUSH1 0x0 JUMPDEST DUP4 DUP2 LT ISZERO PUSH2 0x660 JUMPI DUP1 DUP3 ADD MLOAD DUP2 DUP5 ADD MSTORE PUSH1 0x20 DUP2 ADD SWAP1 POP PUSH2 0x645 JUMP JUMPDEST POP POP POP POP SWAP1 POP ADD DUP8 DUP2 SUB DUP4 MSTORE DUP10 DUP2 DUP2 MLOAD DUP2 MSTORE PUSH1 0x20 ADD SWAP2 POP DUP1 MLOAD SWAP1 PUSH1 0x20 ADD SWAP1 PUSH1 0x20 MUL DUP1 DUP4 DUP4 PUSH1 0x0 JUMPDEST DUP4 DUP2 LT ISZERO PUSH2 0x6A2 JUMPI DUP1 DUP3 ADD MLOAD DUP2 DUP5 ADD MSTORE PUSH1 0x20 DUP2 ADD SWAP1 POP PUSH2 0x687 JUMP JUMPDEST POP POP POP POP SWAP1 POP ADD DUP8 DUP2 SUB DUP3 MSTORE DUP9 DUP2 DUP2 MLOAD DUP2 MSTORE PUSH1 0x20 ADD SWAP2 POP DUP1 MLOAD SWAP1 PUSH1 0x20 ADD SWAP1 PUSH1 0x20 MUL DUP1 DUP4 DUP4 PUSH1 0x0 JUMPDEST DUP4 DUP2 LT ISZERO PUSH2 0x6E4 JUMPI DUP1 DUP3 ADD MLOAD DUP2 DUP5 ADD MSTORE PUSH1 0x20 DUP2 ADD SWAP1 POP PUSH2 0x6C9 JUMP JUMPDEST POP POP POP POP SWAP1 POP ADD SWAP13 POP POP POP POP POP POP POP POP POP POP POP POP POP PUSH1 0x40 MLOAD DUP1 SWAP2 SUB SWAP1 RETURN JUMPDEST CALLVALUE DUP1 ISZERO PUSH2 0x70E JUMPI PUSH1 0x0 DUP1 REVERT JUMPDEST POP PUSH2 0x73B PUSH1 0x4 DUP1 CALLDATASIZE SUB PUSH1 0x20 DUP2 LT ISZERO PUSH2 0x725 JUMPI PUSH1 0x0 DUP1 REVERT JUMPDEST DUP2 ADD SWAP1 DUP1 DUP1 CALLDATALOAD SWAP1 PUSH1 0x20 ADD SWAP1 SWAP3 SWAP2 SWAP1 POP POP POP PUSH2 0x2FF2 JUMP JUMPDEST PUSH1 0x40 MLOAD DUP1 DUP3 PUSH20 0xFFFFFFFFFFFFFFFFFFFFFFFFFFFFFFFFFFFFFFFF AND DUP2 MSTORE PUSH1 0x20 ADD SWAP2 POP POP PUSH1 0x40 MLOAD DUP1 SWAP2 SUB SWAP1 RETURN JUMPDEST CALLVALUE DUP1 ISZERO PUSH2 0x773 JUMPI PUSH1 0x0 DUP1 REVERT JUMPDEST POP PUSH2 0x77C PUSH2 0x3025 JUMP JUMPDEST PUSH1 0x40 MLOAD DUP1 DUP3 PUSH1 0x5 PUSH1 0x20 MUL DUP1 DUP4 DUP4 PUSH1 0x0 JUMPDEST DUP4 DUP2 LT ISZERO PUSH2 0x7A7 JUMPI DUP1 DUP3 ADD MLOAD DUP2 DUP5 ADD MSTORE PUSH1 0x20 DUP2 ADD SWAP1 POP PUSH2 0x78C JUMP JUMPDEST POP POP POP POP SWAP1 POP ADD SWAP2 POP POP PUSH1 0x40 MLOAD DUP1 SWAP2 SUB SWAP1 RETURN JUMPDEST CALLVALUE DUP1 ISZERO PUSH2 0x7C6 JUMPI PUSH1 0x0 DUP1 REVERT JUMPDEST POP PUSH2 0x7CF PUSH2 0x306C JUMP JUMPDEST PUSH1 0x40 MLOAD DUP1 DUP3 PUSH1 0xFF AND DUP2 MSTORE PUSH1 0x20 ADD SWAP2 POP POP PUSH1 0x40 MLOAD DUP1 SWAP2 SUB SWAP1 RETURN JUMPDEST CALLVALUE DUP1 ISZERO PUSH2 0x7F4 JUMPI PUSH1 0x0 DUP1 REVERT JUMPDEST POP PUSH2 0x7FD PUSH2 0x3071 JUMP JUMPDEST PUSH1 0x40 MLOAD DUP1 DUP3 PUSH20 0xFFFFFFFFFFFFFFFFFFFFFFFFFFFFFFFFFFFFFFFF AND DUP2 MSTORE PUSH1 0x20 ADD SWAP2 POP POP PUSH1 0x40 MLOAD DUP1 SWAP2 SUB SWAP1 RETURN JUMPDEST CALLVALUE DUP1 ISZERO PUSH2 0x835 JUMPI PUSH1 0x0 DUP1 REVERT JUMPDEST POP PUSH2 0x83E PUSH2 0x3097 JUMP JUMPDEST PUSH1 0x40 MLOAD DUP1 DUP3 PUSH1 0x10 PUSH1 0x20 MUL DUP1 DUP4 DUP4 PUSH1 0x0 JUMPDEST DUP4 DUP2 LT ISZERO PUSH2 0x869 JUMPI DUP1 DUP3 ADD MLOAD DUP2 DUP5 ADD MSTORE PUSH1 0x20 DUP2 ADD SWAP1 POP PUSH2 0x84E JUMP JUMPDEST POP POP POP POP SWAP1 POP ADD SWAP2 POP POP PUSH1 0x40 MLOAD DUP1 SWAP2 SUB SWAP1 RETURN JUMPDEST CALLVALUE DUP1 ISZERO PUSH2 0x888 JUMPI PUSH1 0x0 DUP1 REVERT JUMPDEST POP PUSH2 0x8B8 PUSH1 0x4 DUP1 CALLDATASIZE SUB PUSH1 0x20 DUP2 LT ISZERO PUSH2 0x89F JUMPI PUSH1 0x0 DUP1 REVERT JUMPDEST DUP2 ADD SWAP1 DUP1 DUP1 CALLDATALOAD PUSH1 0xFF AND SWAP1 PUSH1 0x20 ADD SWAP1 SWAP3 SWAP2 SWAP1 POP POP POP PUSH2 0x30E2 JUMP JUMPDEST PUSH1 0x40 MLOAD DUP1 DUP3 DUP2 MSTORE PUSH1 0x20 ADD SWAP2 POP POP PUSH1 0x40 MLOAD DUP1 SWAP2 SUB SWAP1 RETURN JUMPDEST CALLVALUE DUP1 ISZERO PUSH2 0x8DA JUMPI PUSH1 0x0 DUP1 REVERT JUMPDEST POP PUSH2 0x91D PUSH1 0x4 DUP1 CALLDATASIZE SUB PUSH1 0x20 DUP2 LT ISZERO PUSH2 0x8F1 JUMPI PUSH1 0x0 DUP1 REVERT JUMPDEST DUP2 ADD SWAP1 DUP1 DUP1 CALLDATALOAD PUSH20 0xFFFFFFFFFFFFFFFFFFFFFFFFFFFFFFFFFFFFFFFF AND SWAP1 PUSH1 0x20 ADD SWAP1 SWAP3 SWAP2 SWAP1 POP POP POP PUSH2 0x3153 JUMP JUMPDEST PUSH1 0x40 MLOAD DUP1 DUP3 DUP2 MSTORE PUSH1 0x20 ADD SWAP2 POP POP PUSH1 0x40 MLOAD DUP1 SWAP2 SUB SWAP1 RETURN JUMPDEST CALLVALUE DUP1 ISZERO PUSH2 0x93F JUMPI PUSH1 0x0 DUP1 REVERT JUMPDEST POP PUSH2 0x982 PUSH1 0x4 DUP1 CALLDATASIZE SUB PUSH1 0x20 DUP2 LT ISZERO PUSH2 0x956 JUMPI PUSH1 0x0 DUP1 REVERT JUMPDEST DUP2 ADD SWAP1 DUP1 DUP1 CALLDATALOAD PUSH20 0xFFFFFFFFFFFFFFFFFFFFFFFFFFFFFFFFFFFFFFFF AND SWAP1 PUSH1 0x20 ADD SWAP1 SWAP3 SWAP2 SWAP1 POP POP POP PUSH2 0x319F JUMP JUMPDEST PUSH1 0x40 MLOAD DUP1 DUP3 PUSH20 0xFFFFFFFFFFFFFFFFFFFFFFFFFFFFFFFFFFFFFFFF AND DUP2 MSTORE PUSH1 0x20 ADD SWAP2 POP POP PUSH1 0x40 MLOAD DUP1 SWAP2 SUB SWAP1 RETURN JUMPDEST CALLVALUE DUP1 ISZERO PUSH2 0x9BA JUMPI PUSH1 0x0 DUP1 REVERT JUMPDEST POP PUSH2 0x9C3 PUSH2 0x3286 JUMP JUMPDEST PUSH1 0x40 MLOAD DUP1 DUP3 PUSH1 0xFF AND DUP2 MSTORE PUSH1 0x20 ADD SWAP2 POP POP PUSH1 0x40 MLOAD DUP1 SWAP2 SUB SWAP1 RETURN JUMPDEST PUSH2 0xA0B PUSH1 0x4 DUP1 CALLDATASIZE SUB PUSH1 0x20 DUP2 LT ISZERO PUSH2 0x9F2 JUMPI PUSH1 0x0 DUP1 REVERT JUMPDEST DUP2 ADD SWAP1 DUP1 DUP1 CALLDATALOAD PUSH1 0xFF AND SWAP1 PUSH1 0x20 ADD SWAP1 SWAP3 SWAP2 SWAP1 POP POP POP PUSH2 0x1252 JUMP JUMPDEST STOP JUMPDEST CALLVALUE DUP1 ISZERO PUSH2 0xA19 JUMPI PUSH1 0x0 DUP1 REVERT JUMPDEST POP PUSH2 0xA5C PUSH1 0x4 DUP1 CALLDATASIZE SUB PUSH1 0x20 DUP2 LT ISZERO PUSH2 0xA30 JUMPI PUSH1 0x0 DUP1 REVERT JUMPDEST DUP2 ADD SWAP1 DUP1 DUP1 CALLDATALOAD PUSH20 0xFFFFFFFFFFFFFFFFFFFFFFFFFFFFFFFFFFFFFFFF AND SWAP1 PUSH1 0x20 ADD SWAP1 SWAP3 SWAP2 SWAP1 POP POP POP PUSH2 0x3299 JUMP JUMPDEST PUSH1 0x40 MLOAD DUP1 DUP1 PUSH1 0x20 ADD DUP1 PUSH1 0x20 ADD DUP4 DUP2 SUB DUP4 MSTORE DUP6 DUP2 DUP2 MLOAD DUP2 MSTORE PUSH1 0x20 ADD SWAP2 POP DUP1 MLOAD SWAP1 PUSH1 0x20 ADD SWAP1 PUSH1 0x20 MUL DUP1 DUP4 DUP4 PUSH1 0x0 JUMPDEST DUP4 DUP2 LT ISZERO PUSH2 0xAA3 JUMPI DUP1 DUP3 ADD MLOAD DUP2 DUP5 ADD MSTORE PUSH1 0x20 DUP2 ADD SWAP1 POP PUSH2 0xA88 JUMP JUMPDEST POP POP POP POP SWAP1 POP ADD DUP4 DUP2 SUB DUP3 MSTORE DUP5 DUP2 DUP2 MLOAD DUP2 MSTORE PUSH1 0x20 ADD SWAP2 POP DUP1 MLOAD SWAP1 PUSH1 0x20 ADD SWAP1 PUSH1 0x20 MUL DUP1 DUP4 DUP4 PUSH1 0x0 JUMPDEST DUP4 DUP2 LT ISZERO PUSH2 0xAE5 JUMPI DUP1 DUP3 ADD MLOAD DUP2 DUP5 ADD MSTORE PUSH1 0x20 DUP2 ADD SWAP1 POP PUSH2 0xACA JUMP JUMPDEST POP POP POP POP SWAP1 POP ADD SWAP5 POP POP POP POP POP PUSH1 0x40 MLOAD DUP1 SWAP2 SUB SWAP1 RETURN JUMPDEST CALLVALUE DUP1 ISZERO PUSH2 0xB07 JUMPI PUSH1 0x0 DUP1 REVERT JUMPDEST POP PUSH2 0xB34 PUSH1 0x4 DUP1 CALLDATASIZE SUB PUSH1 0x20 DUP2 LT ISZERO PUSH2 0xB1E JUMPI PUSH1 0x0 DUP1 REVERT JUMPDEST DUP2 ADD SWAP1 DUP1 DUP1 CALLDATALOAD SWAP1 PUSH1 0x20 ADD SWAP1 SWAP3 SWAP2 SWAP1 POP POP POP PUSH2 0x345A JUMP JUMPDEST PUSH1 0x40 MLOAD DUP1 DUP3 DUP2 MSTORE PUSH1 0x20 ADD SWAP2 POP POP PUSH1 0x40 MLOAD DUP1 SWAP2 SUB SWAP1 RETURN JUMPDEST CALLVALUE DUP1 ISZERO PUSH2 0xB56 JUMPI PUSH1 0x0 DUP1 REVERT JUMPDEST POP PUSH2 0xB83 PUSH1 0x4 DUP1 CALLDATASIZE SUB PUSH1 0x20 DUP2 LT ISZERO PUSH2 0xB6D JUMPI PUSH1 0x0 DUP1 REVERT JUMPDEST DUP2 ADD SWAP1 DUP1 DUP1 CALLDATALOAD SWAP1 PUSH1 0x20 ADD SWAP1 SWAP3 SWAP2 SWAP1 POP POP POP PUSH2 0x3472 JUMP JUMPDEST PUSH1 0x40 MLOAD DUP1 DUP3 DUP2 MSTORE PUSH1 0x20 ADD SWAP2 POP POP PUSH1 0x40 MLOAD DUP1 SWAP2 SUB SWAP1 RETURN JUMPDEST CALLVALUE DUP1 ISZERO PUSH2 0xBA5 JUMPI PUSH1 0x0 DUP1 REVERT JUMPDEST POP PUSH2 0xBD2 PUSH1 0x4 DUP1 CALLDATASIZE SUB PUSH1 0x20 DUP2 LT ISZERO PUSH2 0xBBC JUMPI PUSH1 0x0 DUP1 REVERT JUMPDEST DUP2 ADD SWAP1 DUP1 DUP1 CALLDATALOAD SWAP1 PUSH1 0x20 ADD SWAP1 SWAP3 SWAP2 SWAP1 POP POP POP PUSH2 0x3493 JUMP JUMPDEST PUSH1 0x40 MLOAD DUP1 DUP3 DUP2 MSTORE PUSH1 0x20 ADD SWAP2 POP POP PUSH1 0x40 MLOAD DUP1 SWAP2 SUB SWAP1 RETURN JUMPDEST CALLVALUE DUP1 ISZERO PUSH2 0xBF4 JUMPI PUSH1 0x0 DUP1 REVERT JUMPDEST POP PUSH2 0xC37 PUSH1 0x4 DUP1 CALLDATASIZE SUB PUSH1 0x20 DUP2 LT ISZERO PUSH2 0xC0B JUMPI PUSH1 0x0 DUP1 REVERT JUMPDEST DUP2 ADD SWAP1 DUP1 DUP1 CALLDATALOAD PUSH20 0xFFFFFFFFFFFFFFFFFFFFFFFFFFFFFFFFFFFFFFFF AND SWAP1 PUSH1 0x20 ADD SWAP1 SWAP3 SWAP2 SWAP1 POP POP POP PUSH2 0x34AB JUMP JUMPDEST PUSH1 0x40 MLOAD DUP1 DUP12 DUP2 MSTORE PUSH1 0x20 ADD DUP11 DUP2 MSTORE PUSH1 0x20 ADD DUP10 DUP2 MSTORE PUSH1 0x20 ADD DUP9 PUSH20 0xFFFFFFFFFFFFFFFFFFFFFFFFFFFFFFFFFFFFFFFF AND DUP2 MSTORE PUSH1 0x20 ADD DUP8 DUP2 MSTORE PUSH1 0x20 ADD DUP7 DUP2 MSTORE PUSH1 0x20 ADD DUP6 DUP2 MSTORE PUSH1 0x20 ADD DUP5 DUP2 MSTORE PUSH1 0x20 ADD DUP4 DUP2 MSTORE PUSH1 0x20 ADD DUP3 DUP2 MSTORE PUSH1 0x20 ADD SWAP11 POP POP POP POP POP POP POP POP POP POP POP PUSH1 0x40 MLOAD DUP1 SWAP2 SUB SWAP1 RETURN JUMPDEST CALLVALUE DUP1 ISZERO PUSH2 0xCAE JUMPI PUSH1 0x0 DUP1 REVERT JUMPDEST POP PUSH2 0xCB7 PUSH2 0x3665 JUMP JUMPDEST PUSH1 0x40 MLOAD DUP1 DUP3 DUP2 MSTORE PUSH1 0x20 ADD SWAP2 POP POP PUSH1 0x40 MLOAD DUP1 SWAP2 SUB SWAP1 RETURN JUMPDEST CALLVALUE DUP1 ISZERO PUSH2 0xCD9 JUMPI PUSH1 0x0 DUP1 REVERT JUMPDEST POP PUSH2 0xCE2 PUSH2 0x366D JUMP JUMPDEST PUSH1 0x40 MLOAD DUP1 DUP3 DUP2 MSTORE PUSH1 0x20 ADD SWAP2 POP POP PUSH1 0x40 MLOAD DUP1 SWAP2 SUB SWAP1 RETURN JUMPDEST PUSH2 0xD00 PUSH2 0x3673 JUMP JUMPDEST STOP JUMPDEST CALLVALUE DUP1 ISZERO PUSH2 0xD0E JUMPI PUSH1 0x0 DUP1 REVERT JUMPDEST POP PUSH2 0xD3B PUSH1 0x4 DUP1 CALLDATASIZE SUB PUSH1 0x20 DUP2 LT ISZERO PUSH2 0xD25 JUMPI PUSH1 0x0 DUP1 REVERT JUMPDEST DUP2 ADD SWAP1 DUP1 DUP1 CALLDATALOAD SWAP1 PUSH1 0x20 ADD SWAP1 SWAP3 SWAP2 SWAP1 POP POP POP PUSH2 0x3675 JUMP JUMPDEST PUSH1 0x40 MLOAD DUP1 DUP3 PUSH20 0xFFFFFFFFFFFFFFFFFFFFFFFFFFFFFFFFFFFFFFFF AND DUP2 MSTORE PUSH1 0x20 ADD SWAP2 POP POP PUSH1 0x40 MLOAD DUP1 SWAP2 SUB SWAP1 RETURN JUMPDEST CALLVALUE DUP1 ISZERO PUSH2 0xD73 JUMPI PUSH1 0x0 DUP1 REVERT JUMPDEST POP PUSH2 0xD7C PUSH2 0x36B2 JUMP JUMPDEST PUSH1 0x40 MLOAD DUP1 DUP3 PUSH1 0x32 PUSH1 0x20 MUL DUP1 DUP4 DUP4 PUSH1 0x0 JUMPDEST DUP4 DUP2 LT ISZERO PUSH2 0xDA7 JUMPI DUP1 DUP3 ADD MLOAD DUP2 DUP5 ADD MSTORE PUSH1 0x20 DUP2 ADD SWAP1 POP PUSH2 0xD8C JUMP JUMPDEST POP POP POP POP SWAP1 POP ADD SWAP2 POP POP PUSH1 0x40 MLOAD DUP1 SWAP2 SUB SWAP1 RETURN JUMPDEST CALLVALUE DUP1 ISZERO PUSH2 0xDC6 JUMPI PUSH1 0x0 DUP1 REVERT JUMPDEST POP PUSH2 0xDCF PUSH2 0x3733 JUMP JUMPDEST PUSH1 0x40 MLOAD DUP1 DUP3 PUSH20 0xFFFFFFFFFFFFFFFFFFFFFFFFFFFFFFFFFFFFFFFF AND DUP2 MSTORE PUSH1 0x20 ADD SWAP2 POP POP PUSH1 0x40 MLOAD DUP1 SWAP2 SUB SWAP1 RETURN JUMPDEST CALLVALUE DUP1 ISZERO PUSH2 0xE07 JUMPI PUSH1 0x0 DUP1 REVERT JUMPDEST POP PUSH2 0xE34 PUSH1 0x4 DUP1 CALLDATASIZE SUB PUSH1 0x20 DUP2 LT ISZERO PUSH2 0xE1E JUMPI PUSH1 0x0 DUP1 REVERT JUMPDEST DUP2 ADD SWAP1 DUP1 DUP1 CALLDATALOAD SWAP1 PUSH1 0x20 ADD SWAP1 SWAP3 SWAP2 SWAP1 POP POP POP PUSH2 0x3759 JUMP JUMPDEST STOP JUMPDEST PUSH2 0xE78 PUSH1 0x4 DUP1 CALLDATASIZE SUB PUSH1 0x20 DUP2 LT ISZERO PUSH2 0xE4C JUMPI PUSH1 0x0 DUP1 REVERT JUMPDEST DUP2 ADD SWAP1 DUP1 DUP1 CALLDATALOAD PUSH20 0xFFFFFFFFFFFFFFFFFFFFFFFFFFFFFFFFFFFFFFFF AND SWAP1 PUSH1 0x20 ADD SWAP1 SWAP3 SWAP2 SWAP1 POP POP POP PUSH2 0x3C4E JUMP JUMPDEST STOP JUMPDEST CALLVALUE DUP1 ISZERO PUSH2 0xE86 JUMPI PUSH1 0x0 DUP1 REVERT JUMPDEST POP PUSH2 0xE8F PUSH2 0x4155 JUMP JUMPDEST PUSH1 0x40 MLOAD DUP1 DUP3 PUSH1 0xFF AND DUP2 MSTORE PUSH1 0x20 ADD SWAP2 POP POP PUSH1 0x40 MLOAD DUP1 SWAP2 SUB SWAP1 RETURN JUMPDEST CALLVALUE DUP1 ISZERO PUSH2 0xEB4 JUMPI PUSH1 0x0 DUP1 REVERT JUMPDEST POP PUSH2 0xEF7 PUSH1 0x4 DUP1 CALLDATASIZE SUB PUSH1 0x20 DUP2 LT ISZERO PUSH2 0xECB JUMPI PUSH1 0x0 DUP1 REVERT JUMPDEST DUP2 ADD SWAP1 DUP1 DUP1 CALLDATALOAD PUSH20 0xFFFFFFFFFFFFFFFFFFFFFFFFFFFFFFFFFFFFFFFF AND SWAP1 PUSH1 0x20 ADD SWAP1 SWAP3 SWAP2 SWAP1 POP POP POP PUSH2 0x4168 JUMP JUMPDEST PUSH1 0x40 MLOAD DUP1 DUP11 DUP2 MSTORE PUSH1 0x20 ADD DUP10 DUP2 MSTORE PUSH1 0x20 ADD DUP9 PUSH20 0xFFFFFFFFFFFFFFFFFFFFFFFFFFFFFFFFFFFFFFFF AND DUP2 MSTORE PUSH1 0x20 ADD DUP8 DUP2 MSTORE PUSH1 0x20 ADD DUP7 DUP2 MSTORE PUSH1 0x20 ADD DUP6 DUP2 MSTORE PUSH1 0x20 ADD DUP5 DUP2 MSTORE PUSH1 0x20 ADD DUP4 PUSH1 0xFF AND DUP2 MSTORE PUSH1 0x20 ADD DUP3 DUP2 MSTORE PUSH1 0x20 ADD SWAP10 POP POP POP POP POP POP POP POP POP POP PUSH1 0x40 MLOAD DUP1 SWAP2 SUB SWAP1 RETURN JUMPDEST CALLVALUE DUP1 ISZERO PUSH2 0xF6A JUMPI PUSH1 0x0 DUP1 REVERT JUMPDEST POP PUSH2 0xFAD PUSH1 0x4 DUP1 CALLDATASIZE SUB PUSH1 0x20 DUP2 LT ISZERO PUSH2 0xF81 JUMPI PUSH1 0x0 DUP1 REVERT JUMPDEST DUP2 ADD SWAP1 DUP1 DUP1 CALLDATALOAD PUSH20 0xFFFFFFFFFFFFFFFFFFFFFFFFFFFFFFFFFFFFFFFF AND SWAP1 PUSH1 0x20 ADD SWAP1 SWAP3 SWAP2 SWAP1 POP POP POP PUSH2 0x41E3 JUMP JUMPDEST PUSH1 0x40 MLOAD DUP1 DUP3 DUP2 MSTORE PUSH1 0x20 ADD SWAP2 POP POP PUSH1 0x40 MLOAD DUP1 SWAP2 SUB SWAP1 RETURN JUMPDEST PUSH2 0x1005 PUSH1 0x4 DUP1 CALLDATASIZE SUB PUSH1 0x20 DUP2 LT ISZERO PUSH2 0xFD9 JUMPI PUSH1 0x0 DUP1 REVERT JUMPDEST DUP2 ADD SWAP1 DUP1 DUP1 CALLDATALOAD PUSH20 0xFFFFFFFFFFFFFFFFFFFFFFFFFFFFFFFFFFFFFFFF AND SWAP1 PUSH1 0x20 ADD SWAP1 SWAP3 SWAP2 SWAP1 POP POP POP PUSH2 0x41FB JUMP JUMPDEST STOP JUMPDEST CALLVALUE DUP1 ISZERO PUSH2 0x1013 JUMPI PUSH1 0x0 DUP1 REVERT JUMPDEST POP PUSH2 0x1056 PUSH1 0x4 DUP1 CALLDATASIZE SUB PUSH1 0x20 DUP2 LT ISZERO PUSH2 0x102A JUMPI PUSH1 0x0 DUP1 REVERT JUMPDEST DUP2 ADD SWAP1 DUP1 DUP1 CALLDATALOAD PUSH20 0xFFFFFFFFFFFFFFFFFFFFFFFFFFFFFFFFFFFFFFFF AND SWAP1 PUSH1 0x20 ADD SWAP1 SWAP3 SWAP2 SWAP1 POP POP POP PUSH2 0x4211 JUMP JUMPDEST PUSH1 0x40 MLOAD DUP1 DUP3 DUP2 MSTORE PUSH1 0x20 ADD SWAP2 POP POP PUSH1 0x40 MLOAD DUP1 SWAP2 SUB SWAP1 RETURN JUMPDEST CALLVALUE DUP1 ISZERO PUSH2 0x1078 JUMPI PUSH1 0x0 DUP1 REVERT JUMPDEST POP PUSH2 0x1081 PUSH2 0x42C4 JUMP JUMPDEST PUSH1 0x40 MLOAD DUP1 DUP3 PUSH1 0xFF AND DUP2 MSTORE PUSH1 0x20 ADD SWAP2 POP POP PUSH1 0x40 MLOAD DUP1 SWAP2 SUB SWAP1 RETURN JUMPDEST CALLVALUE DUP1 ISZERO PUSH2 0x10A6 JUMPI PUSH1 0x0 DUP1 REVERT JUMPDEST POP PUSH2 0x10AF PUSH2 0x42C9 JUMP JUMPDEST STOP JUMPDEST CALLVALUE DUP1 ISZERO PUSH2 0x10BD JUMPI PUSH1 0x0 DUP1 REVERT JUMPDEST POP PUSH2 0x10C6 PUSH2 0x44D7 JUMP JUMPDEST PUSH1 0x40 MLOAD DUP1 DUP3 PUSH1 0x10 PUSH1 0x20 MUL DUP1 DUP4 DUP4 PUSH1 0x0 JUMPDEST DUP4 DUP2 LT ISZERO PUSH2 0x10F1 JUMPI DUP1 DUP3 ADD MLOAD DUP2 DUP5 ADD MSTORE PUSH1 0x20 DUP2 ADD SWAP1 POP PUSH2 0x10D6 JUMP JUMPDEST POP POP POP POP SWAP1 POP ADD SWAP2 POP POP PUSH1 0x40 MLOAD DUP1 SWAP2 SUB SWAP1 RETURN JUMPDEST CALLVALUE DUP1 ISZERO PUSH2 0x1110 JUMPI PUSH1 0x0 DUP1 REVERT JUMPDEST POP PUSH2 0x1160 PUSH1 0x4 DUP1 CALLDATASIZE SUB PUSH1 0x40 DUP2 LT ISZERO PUSH2 0x1127 JUMPI PUSH1 0x0 DUP1 REVERT JUMPDEST DUP2 ADD SWAP1 DUP1 DUP1 CALLDATALOAD PUSH20 0xFFFFFFFFFFFFFFFFFFFFFFFFFFFFFFFFFFFFFFFF AND SWAP1 PUSH1 0x20 ADD SWAP1 SWAP3 SWAP2 SWAP1 DUP1 CALLDATALOAD PUSH1 0xFF AND SWAP1 PUSH1 0x20 ADD SWAP1 SWAP3 SWAP2 SWAP1 POP POP POP PUSH2 0x4522 JUMP JUMPDEST PUSH1 0x40 MLOAD DUP1 DUP4 DUP2 MSTORE PUSH1 0x20 ADD DUP3 DUP2 MSTORE PUSH1 0x20 ADD SWAP3 POP POP POP PUSH1 0x40 MLOAD DUP1 SWAP2 SUB SWAP1 RETURN JUMPDEST CALLVALUE DUP1 ISZERO PUSH2 0x1189 JUMPI PUSH1 0x0 DUP1 REVERT JUMPDEST POP PUSH2 0x1192 PUSH2 0x4755 JUMP JUMPDEST PUSH1 0x40 MLOAD DUP1 DUP3 PUSH1 0xFF AND DUP2 MSTORE PUSH1 0x20 ADD SWAP2 POP POP PUSH1 0x40 MLOAD DUP1 SWAP2 SUB SWAP1 RETURN JUMPDEST CALLVALUE DUP1 ISZERO PUSH2 0x11B7 JUMPI PUSH1 0x0 DUP1 REVERT JUMPDEST POP PUSH2 0x11C0 PUSH2 0x475A JUMP JUMPDEST PUSH1 0x40 MLOAD DUP1 DUP3 DUP2 MSTORE PUSH1 0x20 ADD SWAP2 POP POP PUSH1 0x40 MLOAD DUP1 SWAP2 SUB SWAP1 RETURN JUMPDEST PUSH1 0x0 DUP1 PUSH1 0x6B PUSH1 0x0 DUP5 PUSH20 0xFFFFFFFFFFFFFFFFFFFFFFFFFFFFFFFFFFFFFFFF AND PUSH20 0xFFFFFFFFFFFFFFFFFFFFFFFFFFFFFFFFFFFFFFFF AND DUP2 MSTORE PUSH1 0x20 ADD SWAP1 DUP2 MSTORE PUSH1 0x20 ADD PUSH1 0x0 KECCAK256 PUSH1 0x0 ADD SLOAD EQ ISZERO SWAP1 POP SWAP2 SWAP1 POP JUMP JUMPDEST PUSH2 0x1250 PUSH1 0x66 PUSH1 0x2 SWAP1 SLOAD SWAP1 PUSH2 0x100 EXP SWAP1 DIV PUSH20 0xFFFFFFFFFFFFFFFFFFFFFFFFFFFFFFFFFFFFFFFF AND PUSH2 0x3C4E JUMP JUMPDEST JUMP JUMPDEST PUSH1 0x2 PUSH1 0x0 SLOAD EQ ISZERO PUSH2 0x12CB JUMPI PUSH1 0x40 MLOAD PUSH32 0x8C379A000000000000000000000000000000000000000000000000000000000 DUP2 MSTORE PUSH1 0x4 ADD DUP1 DUP1 PUSH1 0x20 ADD DUP3 DUP2 SUB DUP3 MSTORE PUSH1 0x1F DUP2 MSTORE PUSH1 0x20 ADD DUP1 PUSH32 0x5265656E7472616E637947756172643A207265656E7472616E742063616C6C00 DUP2 MSTORE POP PUSH1 0x20 ADD SWAP2 POP POP PUSH1 0x40 MLOAD DUP1 SWAP2 SUB SWAP1 REVERT JUMPDEST PUSH1 0x2 PUSH1 0x0 DUP2 SWAP1 SSTORE POP PUSH2 0x12DC CALLER PUSH2 0x11D6 JUMP JUMPDEST PUSH2 0x134E JUMPI PUSH1 0x40 MLOAD PUSH32 0x8C379A000000000000000000000000000000000000000000000000000000000 DUP2 MSTORE PUSH1 0x4 ADD DUP1 DUP1 PUSH1 0x20 ADD DUP3 DUP2 SUB DUP3 MSTORE PUSH1 0x16 DUP2 MSTORE PUSH1 0x20 ADD DUP1 PUSH32 0x55736572206973206E6F74207265676973746572656400000000000000000000 DUP2 MSTORE POP PUSH1 0x20 ADD SWAP2 POP POP PUSH1 0x40 MLOAD DUP1 SWAP2 SUB SWAP1 REVERT JUMPDEST PUSH1 0x0 DUP2 PUSH1 0xFF AND GT DUP1 ISZERO PUSH2 0x1366 JUMPI POP PUSH1 0x69 SLOAD DUP2 PUSH1 0xFF AND GT ISZERO JUMPDEST PUSH2 0x13D8 JUMPI PUSH1 0x40 MLOAD PUSH32 0x8C379A000000000000000000000000000000000000000000000000000000000 DUP2 MSTORE PUSH1 0x4 ADD DUP1 DUP1 PUSH1 0x20 ADD DUP3 DUP2 SUB DUP3 MSTORE PUSH1 0xD DUP2 MSTORE PUSH1 0x20 ADD DUP1 PUSH32 0x496E76616C696420726F756E6400000000000000000000000000000000000000 DUP2 MSTORE POP PUSH1 0x20 ADD SWAP2 POP POP PUSH1 0x40 MLOAD DUP1 SWAP2 SUB SWAP1 REVERT JUMPDEST CALLVALUE PUSH1 0x68 DUP3 PUSH1 0xFF AND DUP2 SLOAD DUP2 LT PUSH2 0x13E9 JUMPI INVALID JUMPDEST SWAP1 PUSH1 0x0 MSTORE PUSH1 0x20 PUSH1 0x0 KECCAK256 ADD SLOAD EQ PUSH2 0x1467 JUMPI PUSH1 0x40 MLOAD PUSH32 0x8C379A000000000000000000000000000000000000000000000000000000000 DUP2 MSTORE PUSH1 0x4 ADD DUP1 DUP1 PUSH1 0x20 ADD DUP3 DUP2 SUB DUP3 MSTORE PUSH1 0x11 DUP2 MSTORE PUSH1 0x20 ADD DUP1 PUSH32 0x496E76616C696420424E422076616C7565000000000000000000000000000000 DUP2 MSTORE POP PUSH1 0x20 ADD SWAP2 POP POP PUSH1 0x40 MLOAD DUP1 SWAP2 SUB SWAP1 REVERT JUMPDEST PUSH2 0x1470 CALLER PUSH2 0x2A4A JUMP JUMPDEST ISZERO PUSH2 0x14E3 JUMPI PUSH1 0x40 MLOAD PUSH32 0x8C379A000000000000000000000000000000000000000000000000000000000 DUP2 MSTORE PUSH1 0x4 ADD DUP1 DUP1 PUSH1 0x20 ADD DUP3 DUP2 SUB DUP3 MSTORE PUSH1 0x15 DUP2 MSTORE PUSH1 0x20 ADD DUP1 PUSH32 0x43616E206E6F74206265206120636F6E74726163740000000000000000000000 DUP2 MSTORE POP PUSH1 0x20 ADD SWAP2 POP POP PUSH1 0x40 MLOAD DUP1 SWAP2 SUB SWAP1 REVERT JUMPDEST PUSH1 0x1 PUSH1 0x6B PUSH1 0x0 CALLER PUSH20 0xFFFFFFFFFFFFFFFFFFFFFFFFFFFFFFFFFFFFFFFF AND PUSH20 0xFFFFFFFFFFFFFFFFFFFFFFFFFFFFFFFFFFFFFFFF AND DUP2 MSTORE PUSH1 0x20 ADD SWAP1 DUP2 MSTORE PUSH1 0x20 ADD PUSH1 0x0 KECCAK256 PUSH1 0x8 ADD PUSH1 0x0 SWAP1 SLOAD SWAP1 PUSH2 0x100 EXP SWAP1 DIV PUSH1 0xFF AND ADD PUSH1 0xFF AND DUP2 PUSH1 0xFF AND GT ISZERO PUSH2 0x15B1 JUMPI PUSH1 0x40 MLOAD PUSH32 0x8C379A000000000000000000000000000000000000000000000000000000000 DUP2 MSTORE PUSH1 0x4 ADD DUP1 DUP1 PUSH1 0x20 ADD DUP3 DUP2 SUB DUP3 MSTORE PUSH1 0x13 DUP2 MSTORE PUSH1 0x20 ADD DUP1 PUSH32 0x526F756E64206E6F7420617661696C61626C6500000000000000000000000000 DUP2 MSTORE POP PUSH1 0x20 ADD SWAP2 POP POP PUSH1 0x40 MLOAD DUP1 SWAP2 SUB SWAP1 REVERT JUMPDEST TIMESTAMP PUSH1 0x45 DUP3 PUSH1 0xFF AND PUSH1 0x10 DUP2 LT PUSH2 0x15C2 JUMPI INVALID JUMPDEST ADD SLOAD LT ISZERO PUSH2 0x1703 JUMPI PUSH1 0x0 PUSH2 0x15D5 DUP3 PUSH2 0x30E2 JUMP JUMPDEST SWAP1 POP PUSH1 0x0 PUSH1 0x55 DUP4 PUSH1 0xFF AND PUSH1 0x10 DUP2 LT PUSH2 0x15E9 JUMPI INVALID JUMPDEST ADD PUSH1 0x0 SWAP1 SLOAD SWAP1 PUSH2 0x100 EXP SWAP1 DIV PUSH20 0xFFFFFFFFFFFFFFFFFFFFFFFFFFFFFFFFFFFFFFFF AND PUSH20 0xFFFFFFFFFFFFFFFFFFFFFFFFFFFFFFFFFFFFFFFF AND PUSH2 0x8FC DUP4 SWAP1 DUP2 ISZERO MUL SWAP1 PUSH1 0x40 MLOAD PUSH1 0x0 PUSH1 0x40 MLOAD DUP1 DUP4 SUB DUP2 DUP6 DUP9 DUP9 CALL SWAP4 POP POP POP POP SWAP1 POP DUP1 ISZERO PUSH2 0x16FC JUMPI PUSH3 0x15180 PUSH1 0x45 DUP5 PUSH1 0xFF AND PUSH1 0x10 DUP2 LT PUSH2 0x165B JUMPI INVALID JUMPDEST ADD PUSH1 0x0 DUP3 DUP3 SLOAD ADD SWAP3 POP POP DUP2 SWAP1 SSTORE POP PUSH1 0x55 DUP4 PUSH1 0xFF AND PUSH1 0x10 DUP2 LT PUSH2 0x1679 JUMPI INVALID JUMPDEST ADD PUSH1 0x0 SWAP1 SLOAD SWAP1 PUSH2 0x100 EXP SWAP1 DIV PUSH20 0xFFFFFFFFFFFFFFFFFFFFFFFFFFFFFFFFFFFFFFFF AND PUSH20 0xFFFFFFFFFFFFFFFFFFFFFFFFFFFFFFFFFFFFFFFF AND PUSH32 0x8EA1A10DE3733DB603227CA0E3CD0FEB6DA4F1C33FB15CB9265FA333A64797C2 TIMESTAMP DUP6 DUP6 PUSH1 0x40 MLOAD DUP1 DUP5 DUP2 MSTORE PUSH1 0x20 ADD DUP4 PUSH1 0xFF AND DUP2 MSTORE PUSH1 0x20 ADD DUP3 DUP2 MSTORE PUSH1 0x20 ADD SWAP4 POP POP POP POP PUSH1 0x40 MLOAD DUP1 SWAP2 SUB SWAP1 LOG2 JUMPDEST POP POP PUSH2 0x1739 JUMP JUMPDEST PUSH2 0xE10 PUSH1 0x45 DUP3 PUSH1 0xFF AND PUSH1 0x10 DUP2 LT PUSH2 0x1716 JUMPI INVALID JUMPDEST ADD PUSH1 0x0 DUP3 DUP3 SLOAD ADD SWAP3 POP POP DUP2 SWAP1 SSTORE POP TIMESTAMP PUSH1 0x45 PUSH1 0x0 PUSH1 0x10 DUP2 LT PUSH2 0x1733 JUMPI INVALID JUMPDEST ADD DUP2 SWAP1 SSTORE POP JUMPDEST CALLER PUSH1 0x55 DUP3 PUSH1 0xFF AND PUSH1 0x10 DUP2 LT PUSH2 0x174A JUMPI INVALID JUMPDEST ADD PUSH1 0x0 PUSH2 0x100 EXP DUP2 SLOAD DUP2 PUSH20 0xFFFFFFFFFFFFFFFFFFFFFFFFFFFFFFFFFFFFFFFF MUL NOT AND SWAP1 DUP4 PUSH20 0xFFFFFFFFFFFFFFFFFFFFFFFFFFFFFFFFFFFFFFFF AND MUL OR SWAP1 SSTORE POP PUSH1 0x6B PUSH1 0x0 CALLER PUSH20 0xFFFFFFFFFFFFFFFFFFFFFFFFFFFFFFFFFFFFFFFF AND PUSH20 0xFFFFFFFFFFFFFFFFFFFFFFFFFFFFFFFFFFFFFFFF AND DUP2 MSTORE PUSH1 0x20 ADD SWAP1 DUP2 MSTORE PUSH1 0x20 ADD PUSH1 0x0 KECCAK256 PUSH1 0x8 ADD PUSH1 0x0 DUP2 DUP2 SWAP1 SLOAD SWAP1 PUSH2 0x100 EXP SWAP1 DIV PUSH1 0xFF AND DUP1 SWAP3 SWAP2 SWAP1 PUSH1 0x1 ADD SWAP2 SWAP1 PUSH2 0x100 EXP DUP2 SLOAD DUP2 PUSH1 0xFF MUL NOT AND SWAP1 DUP4 PUSH1 0xFF AND MUL OR SWAP1 SSTORE POP POP CALLVALUE PUSH1 0x6B PUSH1 0x0 CALLER PUSH20 0xFFFFFFFFFFFFFFFFFFFFFFFFFFFFFFFFFFFFFFFF AND PUSH20 0xFFFFFFFFFFFFFFFFFFFFFFFFFFFFFFFFFFFFFFFF AND DUP2 MSTORE PUSH1 0x20 ADD SWAP1 DUP2 MSTORE PUSH1 0x20 ADD PUSH1 0x0 KECCAK256 PUSH1 0x9 ADD PUSH1 0x0 DUP3 DUP3 SLOAD ADD SWAP3 POP POP DUP2 SWAP1 SSTORE POP PUSH1 0x6F PUSH1 0x1 ADD PUSH1 0x0 DUP2 SLOAD DUP1 SWAP3 SWAP2 SWAP1 PUSH1 0x1 ADD SWAP2 SWAP1 POP SSTORE POP CALLVALUE PUSH1 0x6F PUSH1 0x2 ADD PUSH1 0x0 DUP3 DUP3 SLOAD ADD SWAP3 POP POP DUP2 SWAP1 SSTORE POP TIMESTAMP PUSH1 0x65 PUSH1 0x0 CALLER PUSH20 0xFFFFFFFFFFFFFFFFFFFFFFFFFFFFFFFFFFFFFFFF AND PUSH20 0xFFFFFFFFFFFFFFFFFFFFFFFFFFFFFFFFFFFFFFFF AND DUP2 MSTORE PUSH1 0x20 ADD SWAP1 DUP2 MSTORE PUSH1 0x20 ADD PUSH1 0x0 KECCAK256 DUP2 SWAP1 SSTORE POP TIMESTAMP PUSH1 0x6B PUSH1 0x0 CALLER PUSH20 0xFFFFFFFFFFFFFFFFFFFFFFFFFFFFFFFFFFFFFFFF AND PUSH20 0xFFFFFFFFFFFFFFFFFFFFFFFFFFFFFFFFFFFFFFFF AND DUP2 MSTORE PUSH1 0x20 ADD SWAP1 DUP2 MSTORE PUSH1 0x20 ADD PUSH1 0x0 KECCAK256 PUSH1 0x7 ADD PUSH1 0x0 DUP4 PUSH1 0xFF AND PUSH1 0xFF AND DUP2 MSTORE PUSH1 0x20 ADD SWAP1 DUP2 MSTORE PUSH1 0x20 ADD PUSH1 0x0 KECCAK256 PUSH1 0x3 ADD DUP2 SWAP1 SSTORE POP PUSH1 0x0 PUSH1 0x64 CALLVALUE DUP2 PUSH2 0x1924 JUMPI INVALID JUMPDEST DIV SWAP1 POP PUSH1 0x6B PUSH1 0x0 CALLER PUSH20 0xFFFFFFFFFFFFFFFFFFFFFFFFFFFFFFFFFFFFFFFF AND PUSH20 0xFFFFFFFFFFFFFFFFFFFFFFFFFFFFFFFFFFFFFFFF AND DUP2 MSTORE PUSH1 0x20 ADD SWAP1 DUP2 MSTORE PUSH1 0x20 ADD PUSH1 0x0 KECCAK256 PUSH1 0x7 ADD PUSH1 0x0 DUP4 PUSH1 0xFF AND PUSH1 0xFF AND DUP2 MSTORE PUSH1 0x20 ADD SWAP1 DUP2 MSTORE PUSH1 0x20 ADD PUSH1 0x0 KECCAK256 PUSH1 0x0 ADD PUSH1 0x6 SWAP1 SLOAD SWAP1 PUSH2 0x100 EXP SWAP1 DIV PUSH1 0xFF AND PUSH2 0x1C49 JUMPI PUSH1 0x6B PUSH1 0x0 CALLER PUSH20 0xFFFFFFFFFFFFFFFFFFFFFFFFFFFFFFFFFFFFFFFF AND PUSH20 0xFFFFFFFFFFFFFFFFFFFFFFFFFFFFFFFFFFFFFFFF AND DUP2 MSTORE PUSH1 0x20 ADD SWAP1 DUP2 MSTORE PUSH1 0x20 ADD PUSH1 0x0 KECCAK256 PUSH1 0x7 ADD PUSH1 0x0 DUP4 PUSH1 0xFF AND PUSH1 0xFF AND DUP2 MSTORE PUSH1 0x20 ADD SWAP1 DUP2 MSTORE PUSH1 0x20 ADD PUSH1 0x0 KECCAK256 PUSH1 0x0 ADD PUSH1 0x0 DUP2 DUP2 SWAP1 SLOAD SWAP1 PUSH2 0x100 EXP SWAP1 DIV PUSH2 0xFFFF AND DUP1 SWAP3 SWAP2 SWAP1 PUSH1 0x1 ADD SWAP2 SWAP1 PUSH2 0x100 EXP DUP2 SLOAD DUP2 PUSH2 0xFFFF MUL NOT AND SWAP1 DUP4 PUSH2 0xFFFF AND MUL OR SWAP1 SSTORE POP POP PUSH1 0x2 PUSH1 0xFF AND PUSH1 0x6B PUSH1 0x0 CALLER PUSH20 0xFFFFFFFFFFFFFFFFFFFFFFFFFFFFFFFFFFFFFFFF AND PUSH20 0xFFFFFFFFFFFFFFFFFFFFFFFFFFFFFFFFFFFFFFFF AND DUP2 MSTORE PUSH1 0x20 ADD SWAP1 DUP2 MSTORE PUSH1 0x20 ADD PUSH1 0x0 KECCAK256 PUSH1 0x7 ADD PUSH1 0x0 DUP5 PUSH1 0xFF AND PUSH1 0xFF AND DUP2 MSTORE PUSH1 0x20 ADD SWAP1 DUP2 MSTORE PUSH1 0x20 ADD PUSH1 0x0 KECCAK256 PUSH1 0x0 ADD PUSH1 0x2 DUP3 DUP3 DUP3 SWAP1 SLOAD SWAP1 PUSH2 0x100 EXP SWAP1 DIV PUSH2 0xFFFF AND ADD SWAP3 POP PUSH2 0x100 EXP DUP2 SLOAD DUP2 PUSH2 0xFFFF MUL NOT AND SWAP1 DUP4 PUSH2 0xFFFF AND MUL OR SWAP1 SSTORE POP PUSH1 0x1 PUSH1 0x6B PUSH1 0x0 CALLER PUSH20 0xFFFFFFFFFFFFFFFFFFFFFFFFFFFFFFFFFFFFFFFF AND PUSH20 0xFFFFFFFFFFFFFFFFFFFFFFFFFFFFFFFFFFFFFFFF AND DUP2 MSTORE PUSH1 0x20 ADD SWAP1 DUP2 MSTORE PUSH1 0x20 ADD PUSH1 0x0 KECCAK256 PUSH1 0x7 ADD PUSH1 0x0 DUP5 PUSH1 0xFF AND PUSH1 0xFF AND DUP2 MSTORE PUSH1 0x20 ADD SWAP1 DUP2 MSTORE PUSH1 0x20 ADD PUSH1 0x0 KECCAK256 PUSH1 0x0 ADD PUSH1 0x6 PUSH2 0x100 EXP DUP2 SLOAD DUP2 PUSH1 0xFF MUL NOT AND SWAP1 DUP4 ISZERO ISZERO MUL OR SWAP1 SSTORE POP PUSH1 0x6D PUSH1 0x0 DUP4 PUSH1 0xFF AND PUSH1 0xFF AND DUP2 MSTORE PUSH1 0x20 ADD SWAP1 DUP2 MSTORE PUSH1 0x20 ADD PUSH1 0x0 KECCAK256 CALLER SWAP1 DUP1 PUSH1 0x1 DUP2 SLOAD ADD DUP1 DUP3 SSTORE DUP1 SWAP2 POP POP PUSH1 0x1 SWAP1 SUB SWAP1 PUSH1 0x0 MSTORE PUSH1 0x20 PUSH1 0x0 KECCAK256 ADD PUSH1 0x0 SWAP1 SWAP2 SWAP1 SWAP2 SWAP1 SWAP2 PUSH2 0x100 EXP DUP2 SLOAD DUP2 PUSH20 0xFFFFFFFFFFFFFFFFFFFFFFFFFFFFFFFFFFFFFFFF MUL NOT AND SWAP1 DUP4 PUSH20 0xFFFFFFFFFFFFFFFFFFFFFFFFFFFFFFFFFFFFFFFF AND MUL OR SWAP1 SSTORE POP CALLER PUSH20 0xFFFFFFFFFFFFFFFFFFFFFFFFFFFFFFFFFFFFFFFF AND PUSH32 0x2F201BC547ACC49919922EAF7ECEA9F3389ADCA4DC6AB3FB4A7498CBBAAC63A2 TIMESTAMP PUSH1 0x6B PUSH1 0x0 CALLER PUSH20 0xFFFFFFFFFFFFFFFFFFFFFFFFFFFFFFFFFFFFFFFF AND PUSH20 0xFFFFFFFFFFFFFFFFFFFFFFFFFFFFFFFFFFFFFFFF AND DUP2 MSTORE PUSH1 0x20 ADD SWAP1 DUP2 MSTORE PUSH1 0x20 ADD PUSH1 0x0 KECCAK256 PUSH1 0x0 ADD SLOAD DUP6 PUSH1 0x40 MLOAD DUP1 DUP5 DUP2 MSTORE PUSH1 0x20 ADD DUP4 DUP2 MSTORE PUSH1 0x20 ADD DUP3 PUSH1 0xFF AND DUP2 MSTORE PUSH1 0x20 ADD SWAP4 POP POP POP POP PUSH1 0x40 MLOAD DUP1 SWAP2 SUB SWAP1 LOG2 PUSH2 0x1E80 JUMP JUMPDEST PUSH1 0x6B PUSH1 0x0 CALLER PUSH20 0xFFFFFFFFFFFFFFFFFFFFFFFFFFFFFFFFFFFFFFFF AND PUSH20 0xFFFFFFFFFFFFFFFFFFFFFFFFFFFFFFFFFFFFFFFF AND DUP2 MSTORE PUSH1 0x20 ADD SWAP1 DUP2 MSTORE PUSH1 0x20 ADD PUSH1 0x0 KECCAK256 PUSH1 0x7 ADD PUSH1 0x0 DUP4 PUSH1 0xFF AND PUSH1 0xFF AND DUP2 MSTORE PUSH1 0x20 ADD SWAP1 DUP2 MSTORE PUSH1 0x20 ADD PUSH1 0x0 KECCAK256 PUSH1 0x0 ADD PUSH1 0x0 DUP2 DUP2 SWAP1 SLOAD SWAP1 PUSH2 0x100 EXP SWAP1 DIV PUSH2 0xFFFF AND DUP1 SWAP3 SWAP2 SWAP1 PUSH1 0x1 ADD SWAP2 SWAP1 PUSH2 0x100 EXP DUP2 SLOAD DUP2 PUSH2 0xFFFF MUL NOT AND SWAP1 DUP4 PUSH2 0xFFFF AND MUL OR SWAP1 SSTORE POP POP PUSH1 0x2 PUSH1 0xFF AND PUSH1 0x6B PUSH1 0x0 CALLER PUSH20 0xFFFFFFFFFFFFFFFFFFFFFFFFFFFFFFFFFFFFFFFF AND PUSH20 0xFFFFFFFFFFFFFFFFFFFFFFFFFFFFFFFFFFFFFFFF AND DUP2 MSTORE PUSH1 0x20 ADD SWAP1 DUP2 MSTORE PUSH1 0x20 ADD PUSH1 0x0 KECCAK256 PUSH1 0x7 ADD PUSH1 0x0 DUP5 PUSH1 0xFF AND PUSH1 0xFF AND DUP2 MSTORE PUSH1 0x20 ADD SWAP1 DUP2 MSTORE PUSH1 0x20 ADD PUSH1 0x0 KECCAK256 PUSH1 0x0 ADD PUSH1 0x2 DUP3 DUP3 DUP3 SWAP1 SLOAD SWAP1 PUSH2 0x100 EXP SWAP1 DIV PUSH2 0xFFFF AND ADD SWAP3 POP PUSH2 0x100 EXP DUP2 SLOAD DUP2 PUSH2 0xFFFF MUL NOT AND SWAP1 DUP4 PUSH2 0xFFFF AND MUL OR SWAP1 SSTORE POP CALLER PUSH20 0xFFFFFFFFFFFFFFFFFFFFFFFFFFFFFFFFFFFFFFFF AND PUSH32 0x31BFA9AB73D15B5D752F5928D978DD4DABA1B2DD420BB2D965C54CFE366C5534 TIMESTAMP PUSH1 0x6B PUSH1 0x0 CALLER PUSH20 0xFFFFFFFFFFFFFFFFFFFFFFFFFFFFFFFFFFFFFFFF AND PUSH20 0xFFFFFFFFFFFFFFFFFFFFFFFFFFFFFFFFFFFFFFFF AND DUP2 MSTORE PUSH1 0x20 ADD SWAP1 DUP2 MSTORE PUSH1 0x20 ADD PUSH1 0x0 KECCAK256 PUSH1 0x0 ADD SLOAD DUP6 PUSH1 0x6B PUSH1 0x0 CALLER PUSH20 0xFFFFFFFFFFFFFFFFFFFFFFFFFFFFFFFFFFFFFFFF AND PUSH20 0xFFFFFFFFFFFFFFFFFFFFFFFFFFFFFFFFFFFFFFFF AND DUP2 MSTORE PUSH1 0x20 ADD SWAP1 DUP2 MSTORE PUSH1 0x20 ADD PUSH1 0x0 KECCAK256 PUSH1 0x7 ADD PUSH1 0x0 DUP9 PUSH1 0xFF AND PUSH1 0xFF AND DUP2 MSTORE PUSH1 0x20 ADD SWAP1 DUP2 MSTORE PUSH1 0x20 ADD PUSH1 0x0 KECCAK256 PUSH1 0x0 ADD PUSH1 0x2 SWAP1 SLOAD SWAP1 PUSH2 0x100 EXP SWAP1 DIV PUSH2 0xFFFF AND PUSH1 0x40 MLOAD DUP1 DUP6 DUP2 MSTORE PUSH1 0x20 ADD DUP5 DUP2 MSTORE PUSH1 0x20 ADD DUP4 PUSH1 0xFF AND DUP2 MSTORE PUSH1 0x20 ADD DUP3 PUSH2 0xFFFF AND DUP2 MSTORE PUSH1 0x20 ADD SWAP5 POP POP POP POP POP PUSH1 0x40 MLOAD DUP1 SWAP2 SUB SWAP1 LOG2 JUMPDEST PUSH1 0x0 PUSH1 0x4B PUSH1 0xFF AND DUP3 MUL SWAP1 POP CALLER PUSH20 0xFFFFFFFFFFFFFFFFFFFFFFFFFFFFFFFFFFFFFFFF AND PUSH1 0x6D PUSH1 0x0 DUP6 PUSH1 0xFF AND PUSH1 0xFF AND DUP2 MSTORE PUSH1 0x20 ADD SWAP1 DUP2 MSTORE PUSH1 0x20 ADD PUSH1 0x0 KECCAK256 PUSH1 0x6E PUSH1 0x0 DUP7 PUSH1 0xFF AND PUSH1 0xFF AND DUP2 MSTORE PUSH1 0x20 ADD SWAP1 DUP2 MSTORE PUSH1 0x20 ADD PUSH1 0x0 KECCAK256 SLOAD DUP2 SLOAD DUP2 LT PUSH2 0x1EDF JUMPI INVALID JUMPDEST SWAP1 PUSH1 0x0 MSTORE PUSH1 0x20 PUSH1 0x0 KECCAK256 ADD PUSH1 0x0 SWAP1 SLOAD SWAP1 PUSH2 0x100 EXP SWAP1 DIV PUSH20 0xFFFFFFFFFFFFFFFFFFFFFFFFFFFFFFFFFFFFFFFF AND PUSH20 0xFFFFFFFFFFFFFFFFFFFFFFFFFFFFFFFFFFFFFFFF AND EQ PUSH2 0x26A2 JUMPI PUSH1 0x0 PUSH1 0x6D PUSH1 0x0 DUP6 PUSH1 0xFF AND PUSH1 0xFF AND DUP2 MSTORE PUSH1 0x20 ADD SWAP1 DUP2 MSTORE PUSH1 0x20 ADD PUSH1 0x0 KECCAK256 PUSH1 0x6E PUSH1 0x0 DUP7 PUSH1 0xFF AND PUSH1 0xFF AND DUP2 MSTORE PUSH1 0x20 ADD SWAP1 DUP2 MSTORE PUSH1 0x20 ADD PUSH1 0x0 KECCAK256 SLOAD DUP2 SLOAD DUP2 LT PUSH2 0x1F64 JUMPI INVALID JUMPDEST SWAP1 PUSH1 0x0 MSTORE PUSH1 0x20 PUSH1 0x0 KECCAK256 ADD PUSH1 0x0 SWAP1 SLOAD SWAP1 PUSH2 0x100 EXP SWAP1 DIV PUSH20 0xFFFFFFFFFFFFFFFFFFFFFFFFFFFFFFFFFFFFFFFF AND SWAP1 POP PUSH1 0x0 DUP2 PUSH20 0xFFFFFFFFFFFFFFFFFFFFFFFFFFFFFFFFFFFFFFFF AND PUSH2 0x8FC DUP5 SWAP1 DUP2 ISZERO MUL SWAP1 PUSH1 0x40 MLOAD PUSH1 0x0 PUSH1 0x40 MLOAD DUP1 DUP4 SUB DUP2 DUP6 DUP9 DUP9 CALL SWAP4 POP POP POP POP SWAP1 POP DUP1 ISZERO PUSH2 0x2322 JUMPI PUSH1 0x0 PUSH1 0x66 PUSH1 0x1 SWAP1 SLOAD SWAP1 PUSH2 0x100 EXP SWAP1 DIV PUSH1 0xFF AND PUSH1 0xFF AND DUP6 MUL SWAP1 POP PUSH2 0x1FF4 DUP4 DUP8 DUP4 PUSH2 0x4760 JUMP JUMPDEST DUP4 PUSH1 0x6B PUSH1 0x0 DUP6 PUSH20 0xFFFFFFFFFFFFFFFFFFFFFFFFFFFFFFFFFFFFFFFF AND PUSH20 0xFFFFFFFFFFFFFFFFFFFFFFFFFFFFFFFFFFFFFFFF AND DUP2 MSTORE PUSH1 0x20 ADD SWAP1 DUP2 MSTORE PUSH1 0x20 ADD PUSH1 0x0 KECCAK256 PUSH1 0x7 ADD PUSH1 0x0 DUP9 PUSH1 0xFF AND PUSH1 0xFF AND DUP2 MSTORE PUSH1 0x20 ADD SWAP1 DUP2 MSTORE PUSH1 0x20 ADD PUSH1 0x0 KECCAK256 PUSH1 0x1 ADD PUSH1 0x0 DUP3 DUP3 SLOAD ADD SWAP3 POP POP DUP2 SWAP1 SSTORE POP PUSH1 0x6B PUSH1 0x0 DUP5 PUSH20 0xFFFFFFFFFFFFFFFFFFFFFFFFFFFFFFFFFFFFFFFF AND PUSH20 0xFFFFFFFFFFFFFFFFFFFFFFFFFFFFFFFFFFFFFFFF AND DUP2 MSTORE PUSH1 0x20 ADD SWAP1 DUP2 MSTORE PUSH1 0x20 ADD PUSH1 0x0 KECCAK256 PUSH1 0x7 ADD PUSH1 0x0 DUP8 PUSH1 0xFF AND PUSH1 0xFF AND DUP2 MSTORE PUSH1 0x20 ADD SWAP1 DUP2 MSTORE PUSH1 0x20 ADD PUSH1 0x0 KECCAK256 PUSH1 0x0 ADD PUSH1 0x4 DUP2 DUP2 SWAP1 SLOAD SWAP1 PUSH2 0x100 EXP SWAP1 DIV PUSH2 0xFFFF AND DUP1 SWAP3 SWAP2 SWAP1 PUSH1 0x1 ADD SWAP2 SWAP1 PUSH2 0x100 EXP DUP2 SLOAD DUP2 PUSH2 0xFFFF MUL NOT AND SWAP1 DUP4 PUSH2 0xFFFF AND MUL OR SWAP1 SSTORE POP POP DUP4 PUSH1 0x6B PUSH1 0x0 DUP6 PUSH20 0xFFFFFFFFFFFFFFFFFFFFFFFFFFFFFFFFFFFFFFFF AND PUSH20 0xFFFFFFFFFFFFFFFFFFFFFFFFFFFFFFFFFFFFFFFF AND DUP2 MSTORE PUSH1 0x20 ADD SWAP1 DUP2 MSTORE PUSH1 0x20 ADD PUSH1 0x0 KECCAK256 PUSH1 0x5 ADD PUSH1 0x0 DUP3 DUP3 SLOAD ADD SWAP3 POP POP DUP2 SWAP1 SSTORE POP DUP4 PUSH1 0x6B PUSH1 0x0 DUP6 PUSH20 0xFFFFFFFFFFFFFFFFFFFFFFFFFFFFFFFFFFFFFFFF AND PUSH20 0xFFFFFFFFFFFFFFFFFFFFFFFFFFFFFFFFFFFFFFFF AND DUP2 MSTORE PUSH1 0x20 ADD SWAP1 DUP2 MSTORE PUSH1 0x20 ADD PUSH1 0x0 KECCAK256 PUSH1 0x9 ADD PUSH1 0x0 DUP3 DUP3 SLOAD ADD SWAP3 POP POP DUP2 SWAP1 SSTORE POP PUSH1 0x6B PUSH1 0x0 DUP5 PUSH20 0xFFFFFFFFFFFFFFFFFFFFFFFFFFFFFFFFFFFFFFFF AND PUSH20 0xFFFFFFFFFFFFFFFFFFFFFFFFFFFFFFFFFFFFFFFF AND DUP2 MSTORE PUSH1 0x20 ADD SWAP1 DUP2 MSTORE PUSH1 0x20 ADD PUSH1 0x0 KECCAK256 PUSH1 0x7 ADD PUSH1 0x0 DUP8 PUSH1 0xFF AND PUSH1 0xFF AND DUP2 MSTORE PUSH1 0x20 ADD SWAP1 DUP2 MSTORE PUSH1 0x20 ADD PUSH1 0x0 KECCAK256 PUSH1 0x3 ADD SLOAD TIMESTAMP SUB PUSH4 0x2EFE0780 DUP2 PUSH2 0x21F8 JUMPI INVALID JUMPDEST DIV PUSH1 0x35 DUP8 PUSH1 0xFF AND PUSH1 0x10 DUP2 LT PUSH2 0x2209 JUMPI INVALID JUMPDEST ADD DUP2 SWAP1 SSTORE POP CALLER PUSH20 0xFFFFFFFFFFFFFFFFFFFFFFFFFFFFFFFFFFFFFFFF AND PUSH32 0xE4183700B5BFCFEAF533B813F60F33FF4A041FA7BF73DB1DD14FBB3EACE4FA35 TIMESTAMP PUSH1 0x6B PUSH1 0x0 DUP8 PUSH20 0xFFFFFFFFFFFFFFFFFFFFFFFFFFFFFFFFFFFFFFFF AND PUSH20 0xFFFFFFFFFFFFFFFFFFFFFFFFFFFFFFFFFFFFFFFF AND DUP2 MSTORE PUSH1 0x20 ADD SWAP1 DUP2 MSTORE PUSH1 0x20 ADD PUSH1 0x0 KECCAK256 PUSH1 0x0 ADD SLOAD DUP10 DUP9 PUSH1 0x6B PUSH1 0x0 CALLER PUSH20 0xFFFFFFFFFFFFFFFFFFFFFFFFFFFFFFFFFFFFFFFF AND PUSH20 0xFFFFFFFFFFFFFFFFFFFFFFFFFFFFFFFFFFFFFFFF AND DUP2 MSTORE PUSH1 0x20 ADD SWAP1 DUP2 MSTORE PUSH1 0x20 ADD PUSH1 0x0 KECCAK256 PUSH1 0x0 ADD SLOAD PUSH1 0x35 DUP14 PUSH1 0xFF AND PUSH1 0x10 DUP2 LT PUSH2 0x22DF JUMPI INVALID JUMPDEST ADD SLOAD PUSH1 0x40 MLOAD DUP1 DUP8 DUP2 MSTORE PUSH1 0x20 ADD DUP7 DUP2 MSTORE PUSH1 0x20 ADD DUP6 PUSH1 0xFF AND DUP2 MSTORE PUSH1 0x20 ADD DUP5 DUP2 MSTORE PUSH1 0x20 ADD DUP4 DUP2 MSTORE PUSH1 0x20 ADD DUP3 DUP2 MSTORE PUSH1 0x20 ADD SWAP7 POP POP POP POP POP POP POP PUSH1 0x40 MLOAD DUP1 SWAP2 SUB SWAP1 LOG2 POP PUSH2 0x238C JUMP JUMPDEST PUSH1 0x66 PUSH1 0x2 SWAP1 SLOAD SWAP1 PUSH2 0x100 EXP SWAP1 DIV PUSH20 0xFFFFFFFFFFFFFFFFFFFFFFFFFFFFFFFFFFFFFFFF AND PUSH20 0xFFFFFFFFFFFFFFFFFFFFFFFFFFFFFFFFFFFFFFFF AND PUSH2 0x8FC DUP5 SWAP1 DUP2 ISZERO MUL SWAP1 PUSH1 0x40 MLOAD PUSH1 0x0 PUSH1 0x40 MLOAD DUP1 DUP4 SUB DUP2 DUP6 DUP9 DUP9 CALL SWAP4 POP POP POP POP ISZERO DUP1 ISZERO PUSH2 0x238A JUMPI RETURNDATASIZE PUSH1 0x0 DUP1 RETURNDATACOPY RETURNDATASIZE PUSH1 0x0 REVERT JUMPDEST POP JUMPDEST PUSH1 0x6B PUSH1 0x0 DUP4 PUSH20 0xFFFFFFFFFFFFFFFFFFFFFFFFFFFFFFFFFFFFFFFF AND PUSH20 0xFFFFFFFFFFFFFFFFFFFFFFFFFFFFFFFFFFFFFFFF AND DUP2 MSTORE PUSH1 0x20 ADD SWAP1 DUP2 MSTORE PUSH1 0x20 ADD PUSH1 0x0 KECCAK256 PUSH1 0x7 ADD PUSH1 0x0 DUP7 PUSH1 0xFF AND PUSH1 0xFF AND DUP2 MSTORE PUSH1 0x20 ADD SWAP1 DUP2 MSTORE PUSH1 0x20 ADD PUSH1 0x0 KECCAK256 PUSH1 0x0 ADD PUSH1 0x2 SWAP1 SLOAD SWAP1 PUSH2 0x100 EXP SWAP1 DIV PUSH2 0xFFFF AND PUSH2 0xFFFF AND PUSH1 0x6B PUSH1 0x0 DUP5 PUSH20 0xFFFFFFFFFFFFFFFFFFFFFFFFFFFFFFFFFFFFFFFF AND PUSH20 0xFFFFFFFFFFFFFFFFFFFFFFFFFFFFFFFFFFFFFFFF AND DUP2 MSTORE PUSH1 0x20 ADD SWAP1 DUP2 MSTORE PUSH1 0x20 ADD PUSH1 0x0 KECCAK256 PUSH1 0x7 ADD PUSH1 0x0 DUP8 PUSH1 0xFF AND PUSH1 0xFF AND DUP2 MSTORE PUSH1 0x20 ADD SWAP1 DUP2 MSTORE PUSH1 0x20 ADD PUSH1 0x0 KECCAK256 PUSH1 0x0 ADD PUSH1 0x4 SWAP1 SLOAD SWAP1 PUSH2 0x100 EXP SWAP1 DIV PUSH2 0xFFFF AND PUSH2 0xFFFF AND LT ISZERO PUSH2 0x24EF JUMPI PUSH1 0x6D PUSH1 0x0 DUP7 PUSH1 0xFF AND PUSH1 0xFF AND DUP2 MSTORE PUSH1 0x20 ADD SWAP1 DUP2 MSTORE PUSH1 0x20 ADD PUSH1 0x0 KECCAK256 DUP3 SWAP1 DUP1 PUSH1 0x1 DUP2 SLOAD ADD DUP1 DUP3 SSTORE DUP1 SWAP2 POP POP PUSH1 0x1 SWAP1 SUB SWAP1 PUSH1 0x0 MSTORE PUSH1 0x20 PUSH1 0x0 KECCAK256 ADD PUSH1 0x0 SWAP1 SWAP2 SWAP1 SWAP2 SWAP1 SWAP2 PUSH2 0x100 EXP DUP2 SLOAD DUP2 PUSH20 0xFFFFFFFFFFFFFFFFFFFFFFFFFFFFFFFFFFFFFFFF MUL NOT AND SWAP1 DUP4 PUSH20 0xFFFFFFFFFFFFFFFFFFFFFFFFFFFFFFFFFFFFFFFF AND MUL OR SWAP1 SSTORE POP PUSH2 0x2608 JUMP JUMPDEST PUSH1 0x0 PUSH1 0x6B PUSH1 0x0 DUP5 PUSH20 0xFFFFFFFFFFFFFFFFFFFFFFFFFFFFFFFFFFFFFFFF AND PUSH20 0xFFFFFFFFFFFFFFFFFFFFFFFFFFFFFFFFFFFFFFFF AND DUP2 MSTORE PUSH1 0x20 ADD SWAP1 DUP2 MSTORE PUSH1 0x20 ADD PUSH1 0x0 KECCAK256 PUSH1 0x7 ADD PUSH1 0x0 DUP8 PUSH1 0xFF AND PUSH1 0xFF AND DUP2 MSTORE PUSH1 0x20 ADD SWAP1 DUP2 MSTORE PUSH1 0x20 ADD PUSH1 0x0 KECCAK256 PUSH1 0x0 ADD PUSH1 0x6 PUSH2 0x100 EXP DUP2 SLOAD DUP2 PUSH1 0xFF MUL NOT AND SWAP1 DUP4 ISZERO ISZERO MUL OR SWAP1 SSTORE POP CALLER PUSH20 0xFFFFFFFFFFFFFFFFFFFFFFFFFFFFFFFFFFFFFFFF AND PUSH32 0x1524BA6DFA482CF4EDA16273D76657DDB7F563B2E8A6C3F294564DE0FFC66211 TIMESTAMP PUSH1 0x6B PUSH1 0x0 DUP7 PUSH20 0xFFFFFFFFFFFFFFFFFFFFFFFFFFFFFFFFFFFFFFFF AND PUSH20 0xFFFFFFFFFFFFFFFFFFFFFFFFFFFFFFFFFFFFFFFF AND DUP2 MSTORE PUSH1 0x20 ADD SWAP1 DUP2 MSTORE PUSH1 0x20 ADD PUSH1 0x0 KECCAK256 PUSH1 0x0 ADD SLOAD DUP9 PUSH1 0x40 MLOAD DUP1 DUP5 DUP2 MSTORE PUSH1 0x20 ADD DUP4 DUP2 MSTORE PUSH1 0x20 ADD DUP3 PUSH1 0xFF AND DUP2 MSTORE PUSH1 0x20 ADD SWAP4 POP POP POP POP PUSH1 0x40 MLOAD DUP1 SWAP2 SUB SWAP1 LOG2 JUMPDEST PUSH1 0x6D PUSH1 0x0 DUP7 PUSH1 0xFF AND PUSH1 0xFF AND DUP2 MSTORE PUSH1 0x20 ADD SWAP1 DUP2 MSTORE PUSH1 0x20 ADD PUSH1 0x0 KECCAK256 PUSH1 0x6E PUSH1 0x0 DUP8 PUSH1 0xFF AND PUSH1 0xFF AND DUP2 MSTORE PUSH1 0x20 ADD SWAP1 DUP2 MSTORE PUSH1 0x20 ADD PUSH1 0x0 KECCAK256 SLOAD DUP2 SLOAD DUP2 LT PUSH2 0x2645 JUMPI INVALID JUMPDEST SWAP1 PUSH1 0x0 MSTORE PUSH1 0x20 PUSH1 0x0 KECCAK256 ADD PUSH1 0x0 PUSH2 0x100 EXP DUP2 SLOAD SWAP1 PUSH20 0xFFFFFFFFFFFFFFFFFFFFFFFFFFFFFFFFFFFFFFFF MUL NOT AND SWAP1 SSTORE PUSH1 0x6E PUSH1 0x0 DUP7 PUSH1 0xFF AND PUSH1 0xFF AND DUP2 MSTORE PUSH1 0x20 ADD SWAP1 DUP2 MSTORE PUSH1 0x20 ADD PUSH1 0x0 KECCAK256 PUSH1 0x0 DUP2 SLOAD DUP1 SWAP3 SWAP2 SWAP1 PUSH1 0x1 ADD SWAP2 SWAP1 POP SSTORE POP POP POP PUSH2 0x28BB JUMP JUMPDEST PUSH1 0x66 PUSH1 0x2 SWAP1 SLOAD SWAP1 PUSH2 0x100 EXP SWAP1 DIV PUSH20 0xFFFFFFFFFFFFFFFFFFFFFFFFFFFFFFFFFFFFFFFF AND PUSH20 0xFFFFFFFFFFFFFFFFFFFFFFFFFFFFFFFFFFFFFFFF AND PUSH2 0x8FC DUP3 SWAP1 DUP2 ISZERO MUL SWAP1 PUSH1 0x40 MLOAD PUSH1 0x0 PUSH1 0x40 MLOAD DUP1 DUP4 SUB DUP2 DUP6 DUP9 DUP9 CALL SWAP4 POP POP POP POP ISZERO DUP1 ISZERO PUSH2 0x270A JUMPI RETURNDATASIZE PUSH1 0x0 DUP1 RETURNDATACOPY RETURNDATASIZE PUSH1 0x0 REVERT JUMPDEST POP PUSH1 0x6B PUSH1 0x0 PUSH1 0x66 PUSH1 0x2 SWAP1 SLOAD SWAP1 PUSH2 0x100 EXP SWAP1 DIV PUSH20 0xFFFFFFFFFFFFFFFFFFFFFFFFFFFFFFFFFFFFFFFF AND PUSH20 0xFFFFFFFFFFFFFFFFFFFFFFFFFFFFFFFFFFFFFFFF AND PUSH20 0xFFFFFFFFFFFFFFFFFFFFFFFFFFFFFFFFFFFFFFFF AND DUP2 MSTORE PUSH1 0x20 ADD SWAP1 DUP2 MSTORE PUSH1 0x20 ADD PUSH1 0x0 KECCAK256 PUSH1 0x7 ADD PUSH1 0x0 DUP5 PUSH1 0xFF AND PUSH1 0xFF AND DUP2 MSTORE PUSH1 0x20 ADD SWAP1 DUP2 MSTORE PUSH1 0x20 ADD PUSH1 0x0 KECCAK256 PUSH1 0x0 ADD PUSH1 0x4 DUP2 DUP2 SWAP1 SLOAD SWAP1 PUSH2 0x100 EXP SWAP1 DIV PUSH2 0xFFFF AND DUP1 SWAP3 SWAP2 SWAP1 PUSH1 0x1 ADD SWAP2 SWAP1 PUSH2 0x100 EXP DUP2 SLOAD DUP2 PUSH2 0xFFFF MUL NOT AND SWAP1 DUP4 PUSH2 0xFFFF AND MUL OR SWAP1 SSTORE POP POP DUP1 PUSH1 0x6B PUSH1 0x0 PUSH1 0x66 PUSH1 0x2 SWAP1 SLOAD SWAP1 PUSH2 0x100 EXP SWAP1 DIV PUSH20 0xFFFFFFFFFFFFFFFFFFFFFFFFFFFFFFFFFFFFFFFF AND PUSH20 0xFFFFFFFFFFFFFFFFFFFFFFFFFFFFFFFFFFFFFFFF AND PUSH20 0xFFFFFFFFFFFFFFFFFFFFFFFFFFFFFFFFFFFFFFFF AND DUP2 MSTORE PUSH1 0x20 ADD SWAP1 DUP2 MSTORE PUSH1 0x20 ADD PUSH1 0x0 KECCAK256 PUSH1 0x7 ADD PUSH1 0x0 DUP6 PUSH1 0xFF AND PUSH1 0xFF AND DUP2 MSTORE PUSH1 0x20 ADD SWAP1 DUP2 MSTORE PUSH1 0x20 ADD PUSH1 0x0 KECCAK256 PUSH1 0x1 ADD PUSH1 0x0 DUP3 DUP3 SLOAD ADD SWAP3 POP POP DUP2 SWAP1 SSTORE POP DUP1 PUSH1 0x6B PUSH1 0x0 PUSH1 0x66 PUSH1 0x2 SWAP1 SLOAD SWAP1 PUSH2 0x100 EXP SWAP1 DIV PUSH20 0xFFFFFFFFFFFFFFFFFFFFFFFFFFFFFFFFFFFFFFFF AND PUSH20 0xFFFFFFFFFFFFFFFFFFFFFFFFFFFFFFFFFFFFFFFF AND PUSH20 0xFFFFFFFFFFFFFFFFFFFFFFFFFFFFFFFFFFFFFFFF AND DUP2 MSTORE PUSH1 0x20 ADD SWAP1 DUP2 MSTORE PUSH1 0x20 ADD PUSH1 0x0 KECCAK256 PUSH1 0x5 ADD PUSH1 0x0 DUP3 DUP3 SLOAD ADD SWAP3 POP POP DUP2 SWAP1 SSTORE POP JUMPDEST PUSH1 0x0 PUSH1 0x66 PUSH1 0x0 SWAP1 SLOAD SWAP1 PUSH2 0x100 EXP SWAP1 DIV PUSH1 0xFF AND PUSH1 0xFF AND DUP4 MUL SWAP1 POP PUSH2 0x28DF CALLER DUP6 DUP4 PUSH2 0x4C6E JUMP JUMPDEST PUSH1 0x0 PUSH1 0x67 PUSH1 0x0 SWAP1 SLOAD SWAP1 PUSH2 0x100 EXP SWAP1 DIV PUSH20 0xFFFFFFFFFFFFFFFFFFFFFFFFFFFFFFFFFFFFFFFF AND PUSH20 0xFFFFFFFFFFFFFFFFFFFFFFFFFFFFFFFFFFFFFFFF AND PUSH1 0x7 PUSH1 0xFF AND DUP6 MUL PUSH1 0x40 MLOAD DUP1 PUSH1 0x0 ADD SWAP1 POP PUSH1 0x0 PUSH1 0x40 MLOAD DUP1 DUP4 SUB DUP2 DUP6 DUP8 GAS CALL SWAP3 POP POP POP RETURNDATASIZE DUP1 PUSH1 0x0 DUP2 EQ PUSH2 0x2967 JUMPI PUSH1 0x40 MLOAD SWAP2 POP PUSH1 0x1F NOT PUSH1 0x3F RETURNDATASIZE ADD AND DUP3 ADD PUSH1 0x40 MSTORE RETURNDATASIZE DUP3 MSTORE RETURNDATASIZE PUSH1 0x0 PUSH1 0x20 DUP5 ADD RETURNDATACOPY PUSH2 0x296C JUMP JUMPDEST PUSH1 0x60 SWAP2 POP JUMPDEST POP POP SWAP1 POP DUP1 PUSH2 0x29E3 JUMPI PUSH1 0x40 MLOAD PUSH32 0x8C379A000000000000000000000000000000000000000000000000000000000 DUP2 MSTORE PUSH1 0x4 ADD DUP1 DUP1 PUSH1 0x20 ADD DUP3 DUP2 SUB DUP3 MSTORE PUSH1 0x1F DUP2 MSTORE PUSH1 0x20 ADD DUP1 PUSH32 0x7472616E73666572206661696C6564207768696C652062757920726F756E6400 DUP2 MSTORE POP PUSH1 0x20 ADD SWAP2 POP POP PUSH1 0x40 MLOAD DUP1 SWAP2 SUB SWAP1 REVERT JUMPDEST POP POP POP POP PUSH1 0x1 PUSH1 0x0 DUP2 SWAP1 SSTORE POP POP JUMP JUMPDEST PUSH1 0x60 PUSH1 0x68 DUP1 SLOAD DUP1 PUSH1 0x20 MUL PUSH1 0x20 ADD PUSH1 0x40 MLOAD SWAP1 DUP2 ADD PUSH1 0x40 MSTORE DUP1 SWAP3 SWAP2 SWAP1 DUP2 DUP2 MSTORE PUSH1 0x20 ADD DUP3 DUP1 SLOAD DUP1 ISZERO PUSH2 0x2A40 JUMPI PUSH1 0x20 MUL DUP3 ADD SWAP2 SWAP1 PUSH1 0x0 MSTORE PUSH1 0x20 PUSH1 0x0 KECCAK256 SWAP1 JUMPDEST DUP2 SLOAD DUP2 MSTORE PUSH1 0x20 ADD SWAP1 PUSH1 0x1 ADD SWAP1 DUP1 DUP4 GT PUSH2 0x2A2C JUMPI JUMPDEST POP POP POP POP POP SWAP1 POP SWAP1 JUMP JUMPDEST PUSH1 0x0 DUP1 DUP3 EXTCODESIZE SWAP1 POP PUSH1 0x0 DUP2 PUSH4 0xFFFFFFFF AND EQ ISZERO SWAP2 POP POP SWAP2 SWAP1 POP JUMP JUMPDEST PUSH1 0x1 DUP2 PUSH1 0x32 DUP2 LT PUSH2 0x2A71 JUMPI INVALID JUMPDEST ADD PUSH1 0x0 SWAP2 POP SLOAD SWAP1 PUSH2 0x100 EXP SWAP1 DIV PUSH20 0xFFFFFFFFFFFFFFFFFFFFFFFFFFFFFFFFFFFFFFFF AND DUP2 JUMP JUMPDEST PUSH1 0x0 DUP2 JUMP JUMPDEST PUSH1 0x60 DUP1 PUSH1 0x60 DUP1 PUSH1 0x60 DUP1 PUSH1 0x60 PUSH1 0x1 PUSH1 0x69 SLOAD ADD PUSH8 0xFFFFFFFFFFFFFFFF DUP2 GT DUP1 ISZERO PUSH2 0x2AC3 JUMPI PUSH1 0x0 DUP1 REVERT JUMPDEST POP PUSH1 0x40 MLOAD SWAP1 DUP1 DUP3 MSTORE DUP1 PUSH1 0x20 MUL PUSH1 0x20 ADD DUP3 ADD PUSH1 0x40 MSTORE DUP1 ISZERO PUSH2 0x2AF2 JUMPI DUP2 PUSH1 0x20 ADD PUSH1 0x20 DUP3 MUL DUP1 CALLDATASIZE DUP4 CALLDATACOPY DUP1 DUP3 ADD SWAP2 POP POP SWAP1 POP JUMPDEST POP SWAP1 POP PUSH1 0x60 PUSH1 0x1 PUSH1 0x69 SLOAD ADD PUSH8 0xFFFFFFFFFFFFFFFF DUP2 GT DUP1 ISZERO PUSH2 0x2B13 JUMPI PUSH1 0x0 DUP1 REVERT JUMPDEST POP PUSH1 0x40 MLOAD SWAP1 DUP1 DUP3 MSTORE DUP1 PUSH1 0x20 MUL PUSH1 0x20 ADD DUP3 ADD PUSH1 0x40 MSTORE DUP1 ISZERO PUSH2 0x2B42 JUMPI DUP2 PUSH1 0x20 ADD PUSH1 0x20 DUP3 MUL DUP1 CALLDATASIZE DUP4 CALLDATACOPY DUP1 DUP3 ADD SWAP2 POP POP SWAP1 POP JUMPDEST POP SWAP1 POP PUSH1 0x60 PUSH1 0x1 PUSH1 0x69 SLOAD ADD PUSH8 0xFFFFFFFFFFFFFFFF DUP2 GT DUP1 ISZERO PUSH2 0x2B63 JUMPI PUSH1 0x0 DUP1 REVERT JUMPDEST POP PUSH1 0x40 MLOAD SWAP1 DUP1 DUP3 MSTORE DUP1 PUSH1 0x20 MUL PUSH1 0x20 ADD DUP3 ADD PUSH1 0x40 MSTORE DUP1 ISZERO PUSH2 0x2B92 JUMPI DUP2 PUSH1 0x20 ADD PUSH1 0x20 DUP3 MUL DUP1 CALLDATASIZE DUP4 CALLDATACOPY DUP1 DUP3 ADD SWAP2 POP POP SWAP1 POP JUMPDEST POP SWAP1 POP PUSH1 0x60 PUSH1 0x1 PUSH1 0x69 SLOAD ADD PUSH8 0xFFFFFFFFFFFFFFFF DUP2 GT DUP1 ISZERO PUSH2 0x2BB3 JUMPI PUSH1 0x0 DUP1 REVERT JUMPDEST POP PUSH1 0x40 MLOAD SWAP1 DUP1 DUP3 MSTORE DUP1 PUSH1 0x20 MUL PUSH1 0x20 ADD DUP3 ADD PUSH1 0x40 MSTORE DUP1 ISZERO PUSH2 0x2BE2 JUMPI DUP2 PUSH1 0x20 ADD PUSH1 0x20 DUP3 MUL DUP1 CALLDATASIZE DUP4 CALLDATACOPY DUP1 DUP3 ADD SWAP2 POP POP SWAP1 POP JUMPDEST POP SWAP1 POP PUSH1 0x60 PUSH1 0x1 PUSH1 0x69 SLOAD ADD PUSH8 0xFFFFFFFFFFFFFFFF DUP2 GT DUP1 ISZERO PUSH2 0x2C03 JUMPI PUSH1 0x0 DUP1 REVERT JUMPDEST POP PUSH1 0x40 MLOAD SWAP1 DUP1 DUP3 MSTORE DUP1 PUSH1 0x20 MUL PUSH1 0x20 ADD DUP3 ADD PUSH1 0x40 MSTORE DUP1 ISZERO PUSH2 0x2C32 JUMPI DUP2 PUSH1 0x20 ADD PUSH1 0x20 DUP3 MUL DUP1 CALLDATASIZE DUP4 CALLDATACOPY DUP1 DUP3 ADD SWAP2 POP POP SWAP1 POP JUMPDEST POP SWAP1 POP PUSH1 0x60 PUSH1 0x1 PUSH1 0x69 SLOAD ADD PUSH8 0xFFFFFFFFFFFFFFFF DUP2 GT DUP1 ISZERO PUSH2 0x2C53 JUMPI PUSH1 0x0 DUP1 REVERT JUMPDEST POP PUSH1 0x40 MLOAD SWAP1 DUP1 DUP3 MSTORE DUP1 PUSH1 0x20 MUL PUSH1 0x20 ADD DUP3 ADD PUSH1 0x40 MSTORE DUP1 ISZERO PUSH2 0x2C82 JUMPI DUP2 PUSH1 0x20 ADD PUSH1 0x20 DUP3 MUL DUP1 CALLDATASIZE DUP4 CALLDATACOPY DUP1 DUP3 ADD SWAP2 POP POP SWAP1 POP JUMPDEST POP SWAP1 POP PUSH1 0x0 PUSH1 0x1 SWAP1 POP JUMPDEST PUSH1 0x69 SLOAD DUP2 PUSH1 0xFF AND GT PUSH2 0x2FD0 JUMPI PUSH1 0x6B PUSH1 0x0 DUP16 PUSH20 0xFFFFFFFFFFFFFFFFFFFFFFFFFFFFFFFFFFFFFFFF AND PUSH20 0xFFFFFFFFFFFFFFFFFFFFFFFFFFFFFFFFFFFFFFFF AND DUP2 MSTORE PUSH1 0x20 ADD SWAP1 DUP2 MSTORE PUSH1 0x20 ADD PUSH1 0x0 KECCAK256 PUSH1 0x7 ADD PUSH1 0x0 DUP3 PUSH1 0xFF AND PUSH1 0xFF AND DUP2 MSTORE PUSH1 0x20 ADD SWAP1 DUP2 MSTORE PUSH1 0x20 ADD PUSH1 0x0 KECCAK256 PUSH1 0x0 ADD PUSH1 0x6 SWAP1 SLOAD SWAP1 PUSH2 0x100 EXP SWAP1 DIV PUSH1 0xFF AND DUP8 DUP3 PUSH1 0xFF AND DUP2 MLOAD DUP2 LT PUSH2 0x2D11 JUMPI INVALID JUMPDEST PUSH1 0x20 MUL PUSH1 0x20 ADD ADD SWAP1 ISZERO ISZERO SWAP1 DUP2 ISZERO ISZERO DUP2 MSTORE POP POP PUSH1 0x6B PUSH1 0x0 DUP16 PUSH20 0xFFFFFFFFFFFFFFFFFFFFFFFFFFFFFFFFFFFFFFFF AND PUSH20 0xFFFFFFFFFFFFFFFFFFFFFFFFFFFFFFFFFFFFFFFF AND DUP2 MSTORE PUSH1 0x20 ADD SWAP1 DUP2 MSTORE PUSH1 0x20 ADD PUSH1 0x0 KECCAK256 PUSH1 0x7 ADD PUSH1 0x0 DUP3 PUSH1 0xFF AND PUSH1 0xFF AND DUP2 MSTORE PUSH1 0x20 ADD SWAP1 DUP2 MSTORE PUSH1 0x20 ADD PUSH1 0x0 KECCAK256 PUSH1 0x0 ADD PUSH1 0x4 SWAP1 SLOAD SWAP1 PUSH2 0x100 EXP SWAP1 DIV PUSH2 0xFFFF AND DUP7 DUP3 PUSH1 0xFF AND DUP2 MLOAD DUP2 LT PUSH2 0x2D9D JUMPI INVALID JUMPDEST PUSH1 0x20 MUL PUSH1 0x20 ADD ADD SWAP1 PUSH2 0xFFFF AND SWAP1 DUP2 PUSH2 0xFFFF AND DUP2 MSTORE POP POP PUSH1 0x6B PUSH1 0x0 DUP16 PUSH20 0xFFFFFFFFFFFFFFFFFFFFFFFFFFFFFFFFFFFFFFFF AND PUSH20 0xFFFFFFFFFFFFFFFFFFFFFFFFFFFFFFFFFFFFFFFF AND DUP2 MSTORE PUSH1 0x20 ADD SWAP1 DUP2 MSTORE PUSH1 0x20 ADD PUSH1 0x0 KECCAK256 PUSH1 0x7 ADD PUSH1 0x0 DUP3 PUSH1 0xFF AND PUSH1 0xFF AND DUP2 MSTORE PUSH1 0x20 ADD SWAP1 DUP2 MSTORE PUSH1 0x20 ADD PUSH1 0x0 KECCAK256 PUSH1 0x0 ADD PUSH1 0x2 SWAP1 SLOAD SWAP1 PUSH2 0x100 EXP SWAP1 DIV PUSH2 0xFFFF AND DUP6 DUP3 PUSH1 0xFF AND DUP2 MLOAD DUP2 LT PUSH2 0x2E2D JUMPI INVALID JUMPDEST PUSH1 0x20 MUL PUSH1 0x20 ADD ADD SWAP1 PUSH2 0xFFFF AND SWAP1 DUP2 PUSH2 0xFFFF AND DUP2 MSTORE POP POP PUSH1 0x6B PUSH1 0x0 DUP16 PUSH20 0xFFFFFFFFFFFFFFFFFFFFFFFFFFFFFFFFFFFFFFFF AND PUSH20 0xFFFFFFFFFFFFFFFFFFFFFFFFFFFFFFFFFFFFFFFF AND DUP2 MSTORE PUSH1 0x20 ADD SWAP1 DUP2 MSTORE PUSH1 0x20 ADD PUSH1 0x0 KECCAK256 PUSH1 0x7 ADD PUSH1 0x0 DUP3 PUSH1 0xFF AND PUSH1 0xFF AND DUP2 MSTORE PUSH1 0x20 ADD SWAP1 DUP2 MSTORE PUSH1 0x20 ADD PUSH1 0x0 KECCAK256 PUSH1 0x0 ADD PUSH1 0x0 SWAP1 SLOAD SWAP1 PUSH2 0x100 EXP SWAP1 DIV PUSH2 0xFFFF AND DUP5 DUP3 PUSH1 0xFF AND DUP2 MLOAD DUP2 LT PUSH2 0x2EBD JUMPI INVALID JUMPDEST PUSH1 0x20 MUL PUSH1 0x20 ADD ADD SWAP1 PUSH2 0xFFFF AND SWAP1 DUP2 PUSH2 0xFFFF AND DUP2 MSTORE POP POP PUSH1 0x6B PUSH1 0x0 DUP16 PUSH20 0xFFFFFFFFFFFFFFFFFFFFFFFFFFFFFFFFFFFFFFFF AND PUSH20 0xFFFFFFFFFFFFFFFFFFFFFFFFFFFFFFFFFFFFFFFF AND DUP2 MSTORE PUSH1 0x20 ADD SWAP1 DUP2 MSTORE PUSH1 0x20 ADD PUSH1 0x0 KECCAK256 PUSH1 0x7 ADD PUSH1 0x0 DUP3 PUSH1 0xFF AND PUSH1 0xFF AND DUP2 MSTORE PUSH1 0x20 ADD SWAP1 DUP2 MSTORE PUSH1 0x20 ADD PUSH1 0x0 KECCAK256 PUSH1 0x1 ADD SLOAD DUP4 DUP3 PUSH1 0xFF AND DUP2 MLOAD DUP2 LT PUSH2 0x2F3F JUMPI INVALID JUMPDEST PUSH1 0x20 MUL PUSH1 0x20 ADD ADD DUP2 DUP2 MSTORE POP POP PUSH1 0x6B PUSH1 0x0 DUP16 PUSH20 0xFFFFFFFFFFFFFFFFFFFFFFFFFFFFFFFFFFFFFFFF AND PUSH20 0xFFFFFFFFFFFFFFFFFFFFFFFFFFFFFFFFFFFFFFFF AND DUP2 MSTORE PUSH1 0x20 ADD SWAP1 DUP2 MSTORE PUSH1 0x20 ADD PUSH1 0x0 KECCAK256 PUSH1 0x7 ADD PUSH1 0x0 DUP3 PUSH1 0xFF AND PUSH1 0xFF AND DUP2 MSTORE PUSH1 0x20 ADD SWAP1 DUP2 MSTORE PUSH1 0x20 ADD PUSH1 0x0 KECCAK256 PUSH1 0x2 ADD SLOAD DUP3 DUP3 PUSH1 0xFF AND DUP2 MLOAD DUP2 LT PUSH2 0x2FB7 JUMPI INVALID JUMPDEST PUSH1 0x20 MUL PUSH1 0x20 ADD ADD DUP2 DUP2 MSTORE POP POP DUP1 DUP1 PUSH1 0x1 ADD SWAP2 POP POP PUSH2 0x2C8C JUMP JUMPDEST POP DUP6 DUP6 DUP6 DUP6 DUP6 DUP6 SWAP12 POP SWAP12 POP SWAP12 POP SWAP12 POP SWAP12 POP SWAP12 POP POP POP POP POP POP POP SWAP2 SWAP4 SWAP6 POP SWAP2 SWAP4 SWAP6 JUMP JUMPDEST PUSH1 0x55 DUP2 PUSH1 0x10 DUP2 LT PUSH2 0x2FFF JUMPI INVALID JUMPDEST ADD PUSH1 0x0 SWAP2 POP SLOAD SWAP1 PUSH2 0x100 EXP SWAP1 DIV PUSH20 0xFFFFFFFFFFFFFFFFFFFFFFFFFFFFFFFFFFFFFFFF AND DUP2 JUMP JUMPDEST PUSH2 0x302D PUSH2 0x517C JUMP JUMPDEST PUSH1 0x40 MLOAD DUP1 PUSH1 0xA0 ADD PUSH1 0x40 MSTORE DUP1 PUSH1 0x6F PUSH1 0x0 ADD SLOAD DUP2 MSTORE PUSH1 0x20 ADD PUSH1 0x6F PUSH1 0x1 ADD SLOAD DUP2 MSTORE PUSH1 0x20 ADD PUSH1 0x6F PUSH1 0x2 ADD SLOAD DUP2 MSTORE PUSH1 0x20 ADD PUSH1 0x33 SLOAD DUP2 MSTORE PUSH1 0x20 ADD PUSH1 0x34 SLOAD DUP2 MSTORE POP SWAP1 POP SWAP1 JUMP JUMPDEST PUSH1 0x2 DUP2 JUMP JUMPDEST PUSH1 0x67 PUSH1 0x0 SWAP1 SLOAD SWAP1 PUSH2 0x100 EXP SWAP1 DIV PUSH20 0xFFFFFFFFFFFFFFFFFFFFFFFFFFFFFFFFFFFFFFFF AND DUP2 JUMP JUMPDEST PUSH2 0x309F PUSH2 0x519E JUMP JUMPDEST PUSH1 0x45 PUSH1 0x10 DUP1 PUSH1 0x20 MUL PUSH1 0x40 MLOAD SWAP1 DUP2 ADD PUSH1 0x40 MSTORE DUP1 SWAP3 SWAP2 SWAP1 DUP3 PUSH1 0x10 DUP1 ISZERO PUSH2 0x30D8 JUMPI PUSH1 0x20 MUL DUP3 ADD SWAP2 JUMPDEST DUP2 SLOAD DUP2 MSTORE PUSH1 0x20 ADD SWAP1 PUSH1 0x1 ADD SWAP1 DUP1 DUP4 GT PUSH2 0x30C4 JUMPI JUMPDEST POP POP POP POP POP SWAP1 POP SWAP1 JUMP JUMPDEST PUSH1 0x0 DUP1 PUSH1 0x0 PUSH1 0x1 SWAP1 POP JUMPDEST PUSH1 0x69 SLOAD DUP2 PUSH1 0xFF AND GT PUSH2 0x3124 JUMPI PUSH1 0x68 DUP2 PUSH1 0xFF AND DUP2 SLOAD DUP2 LT PUSH2 0x3108 JUMPI INVALID JUMPDEST SWAP1 PUSH1 0x0 MSTORE PUSH1 0x20 PUSH1 0x0 KECCAK256 ADD SLOAD DUP3 ADD SWAP2 POP DUP1 DUP1 PUSH1 0x1 ADD SWAP2 POP POP PUSH2 0x30EC JUMP JUMPDEST POP PUSH1 0x68 DUP4 PUSH1 0xFF AND DUP2 SLOAD DUP2 LT PUSH2 0x3135 JUMPI INVALID JUMPDEST SWAP1 PUSH1 0x0 MSTORE PUSH1 0x20 PUSH1 0x0 KECCAK256 ADD SLOAD DUP2 SELFBALANCE DUP2 PUSH2 0x3149 JUMPI INVALID JUMPDEST DIV MUL SWAP2 POP POP SWAP2 SWAP1 POP JUMP JUMPDEST PUSH1 0x0 PUSH1 0x6B PUSH1 0x0 DUP4 PUSH20 0xFFFFFFFFFFFFFFFFFFFFFFFFFFFFFFFFFFFFFFFF AND PUSH20 0xFFFFFFFFFFFFFFFFFFFFFFFFFFFFFFFFFFFFFFFF AND DUP2 MSTORE PUSH1 0x20 ADD SWAP1 DUP2 MSTORE PUSH1 0x20 ADD PUSH1 0x0 KECCAK256 PUSH1 0x0 ADD SLOAD SWAP1 POP SWAP2 SWAP1 POP JUMP JUMPDEST PUSH1 0x0 PUSH2 0x31AA DUP3 PUSH2 0x11D6 JUMP JUMPDEST PUSH2 0x321C JUMPI PUSH1 0x40 MLOAD PUSH32 0x8C379A000000000000000000000000000000000000000000000000000000000 DUP2 MSTORE PUSH1 0x4 ADD DUP1 DUP1 PUSH1 0x20 ADD DUP3 DUP2 SUB DUP3 MSTORE PUSH1 0x16 DUP2 MSTORE PUSH1 0x20 ADD DUP1 PUSH32 0x55736572206973206E6F74207265676973746572656400000000000000000000 DUP2 MSTORE POP PUSH1 0x20 ADD SWAP2 POP POP PUSH1 0x40 MLOAD DUP1 SWAP2 SUB SWAP1 REVERT JUMPDEST PUSH1 0x6B PUSH1 0x0 DUP4 PUSH20 0xFFFFFFFFFFFFFFFFFFFFFFFFFFFFFFFFFFFFFFFF AND PUSH20 0xFFFFFFFFFFFFFFFFFFFFFFFFFFFFFFFFFFFFFFFF AND DUP2 MSTORE PUSH1 0x20 ADD SWAP1 DUP2 MSTORE PUSH1 0x20 ADD PUSH1 0x0 KECCAK256 PUSH1 0x2 ADD PUSH1 0x0 SWAP1 SLOAD SWAP1 PUSH2 0x100 EXP SWAP1 DIV PUSH20 0xFFFFFFFFFFFFFFFFFFFFFFFFFFFFFFFFFFFFFFFF AND SWAP1 POP SWAP2 SWAP1 POP JUMP JUMPDEST PUSH1 0x66 PUSH1 0x0 SWAP1 SLOAD SWAP1 PUSH2 0x100 EXP SWAP1 DIV PUSH1 0xFF AND DUP2 JUMP JUMPDEST PUSH1 0x60 DUP1 PUSH1 0x60 PUSH1 0x1 PUSH1 0x69 SLOAD ADD PUSH8 0xFFFFFFFFFFFFFFFF DUP2 GT DUP1 ISZERO PUSH2 0x32BA JUMPI PUSH1 0x0 DUP1 REVERT JUMPDEST POP PUSH1 0x40 MLOAD SWAP1 DUP1 DUP3 MSTORE DUP1 PUSH1 0x20 MUL PUSH1 0x20 ADD DUP3 ADD PUSH1 0x40 MSTORE DUP1 ISZERO PUSH2 0x32E9 JUMPI DUP2 PUSH1 0x20 ADD PUSH1 0x20 DUP3 MUL DUP1 CALLDATASIZE DUP4 CALLDATACOPY DUP1 DUP3 ADD SWAP2 POP POP SWAP1 POP JUMPDEST POP SWAP1 POP PUSH1 0x60 PUSH1 0x1 PUSH1 0x69 SLOAD ADD PUSH8 0xFFFFFFFFFFFFFFFF DUP2 GT DUP1 ISZERO PUSH2 0x330A JUMPI PUSH1 0x0 DUP1 REVERT JUMPDEST POP PUSH1 0x40 MLOAD SWAP1 DUP1 DUP3 MSTORE DUP1 PUSH1 0x20 MUL PUSH1 0x20 ADD DUP3 ADD PUSH1 0x40 MSTORE DUP1 ISZERO PUSH2 0x3339 JUMPI DUP2 PUSH1 0x20 ADD PUSH1 0x20 DUP3 MUL DUP1 CALLDATASIZE DUP4 CALLDATACOPY DUP1 DUP3 ADD SWAP2 POP POP SWAP1 POP JUMPDEST POP SWAP1 POP PUSH1 0x0 PUSH1 0x1 SWAP1 POP JUMPDEST PUSH1 0x69 SLOAD DUP2 PUSH1 0xFF AND GT PUSH2 0x344C JUMPI PUSH1 0x6B PUSH1 0x0 DUP8 PUSH20 0xFFFFFFFFFFFFFFFFFFFFFFFFFFFFFFFFFFFFFFFF AND PUSH20 0xFFFFFFFFFFFFFFFFFFFFFFFFFFFFFFFFFFFFFFFF AND DUP2 MSTORE PUSH1 0x20 ADD SWAP1 DUP2 MSTORE PUSH1 0x20 ADD PUSH1 0x0 KECCAK256 PUSH1 0x7 ADD PUSH1 0x0 DUP3 PUSH1 0xFF AND PUSH1 0xFF AND DUP2 MSTORE PUSH1 0x20 ADD SWAP1 DUP2 MSTORE PUSH1 0x20 ADD PUSH1 0x0 KECCAK256 PUSH1 0x4 ADD SLOAD DUP4 DUP3 PUSH1 0xFF AND DUP2 MLOAD DUP2 LT PUSH2 0x33BB JUMPI INVALID JUMPDEST PUSH1 0x20 MUL PUSH1 0x20 ADD ADD DUP2 DUP2 MSTORE POP POP PUSH1 0x6B PUSH1 0x0 DUP8 PUSH20 0xFFFFFFFFFFFFFFFFFFFFFFFFFFFFFFFFFFFFFFFF AND PUSH20 0xFFFFFFFFFFFFFFFFFFFFFFFFFFFFFFFFFFFFFFFF AND DUP2 MSTORE PUSH1 0x20 ADD SWAP1 DUP2 MSTORE PUSH1 0x20 ADD PUSH1 0x0 KECCAK256 PUSH1 0x7 ADD PUSH1 0x0 DUP3 PUSH1 0xFF AND PUSH1 0xFF AND DUP2 MSTORE PUSH1 0x20 ADD SWAP1 DUP2 MSTORE PUSH1 0x20 ADD PUSH1 0x0 KECCAK256 PUSH1 0x5 ADD SLOAD DUP3 DUP3 PUSH1 0xFF AND DUP2 MLOAD DUP2 LT PUSH2 0x3433 JUMPI INVALID JUMPDEST PUSH1 0x20 MUL PUSH1 0x20 ADD ADD DUP2 DUP2 MSTORE POP POP DUP1 DUP1 PUSH1 0x1 ADD SWAP2 POP POP PUSH2 0x3343 JUMP JUMPDEST POP DUP2 DUP2 SWAP4 POP SWAP4 POP POP POP SWAP2 POP SWAP2 JUMP JUMPDEST PUSH1 0x45 DUP2 PUSH1 0x10 DUP2 LT PUSH2 0x3467 JUMPI INVALID JUMPDEST ADD PUSH1 0x0 SWAP2 POP SWAP1 POP SLOAD DUP2 JUMP JUMPDEST PUSH1 0x68 DUP2 DUP2 SLOAD DUP2 LT PUSH2 0x347F JUMPI INVALID JUMPDEST SWAP1 PUSH1 0x0 MSTORE PUSH1 0x20 PUSH1 0x0 KECCAK256 ADD PUSH1 0x0 SWAP2 POP SWAP1 POP SLOAD DUP2 JUMP JUMPDEST PUSH1 0x35 DUP2 PUSH1 0x10 DUP2 LT PUSH2 0x34A0 JUMPI INVALID JUMPDEST ADD PUSH1 0x0 SWAP2 POP SWAP1 POP SLOAD DUP2 JUMP JUMPDEST PUSH1 0x0 DUP1 PUSH1 0x0 DUP1 PUSH1 0x0 DUP1 PUSH1 0x0 DUP1 PUSH1 0x0 DUP1 PUSH2 0x34C2 PUSH2 0x51C1 JUMP JUMPDEST PUSH1 0x6B PUSH1 0x0 DUP14 PUSH20 0xFFFFFFFFFFFFFFFFFFFFFFFFFFFFFFFFFFFFFFFF AND PUSH20 0xFFFFFFFFFFFFFFFFFFFFFFFFFFFFFFFFFFFFFFFF AND DUP2 MSTORE PUSH1 0x20 ADD SWAP1 DUP2 MSTORE PUSH1 0x20 ADD PUSH1 0x0 KECCAK256 PUSH1 0x40 MLOAD DUP1 PUSH2 0x120 ADD PUSH1 0x40 MSTORE SWAP1 DUP2 PUSH1 0x0 DUP3 ADD SLOAD DUP2 MSTORE PUSH1 0x20 ADD PUSH1 0x1 DUP3 ADD SLOAD DUP2 MSTORE PUSH1 0x20 ADD PUSH1 0x2 DUP3 ADD PUSH1 0x0 SWAP1 SLOAD SWAP1 PUSH2 0x100 EXP SWAP1 DIV PUSH20 0xFFFFFFFFFFFFFFFFFFFFFFFFFFFFFFFFFFFFFFFF AND PUSH20 0xFFFFFFFFFFFFFFFFFFFFFFFFFFFFFFFFFFFFFFFF AND PUSH20 0xFFFFFFFFFFFFFFFFFFFFFFFFFFFFFFFFFFFFFFFF AND DUP2 MSTORE PUSH1 0x20 ADD PUSH1 0x3 DUP3 ADD SLOAD DUP2 MSTORE PUSH1 0x20 ADD PUSH1 0x4 DUP3 ADD SLOAD DUP2 MSTORE PUSH1 0x20 ADD PUSH1 0x5 DUP3 ADD SLOAD DUP2 MSTORE PUSH1 0x20 ADD PUSH1 0x6 DUP3 ADD SLOAD DUP2 MSTORE PUSH1 0x20 ADD PUSH1 0x8 DUP3 ADD PUSH1 0x0 SWAP1 SLOAD SWAP1 PUSH2 0x100 EXP SWAP1 DIV PUSH1 0xFF AND PUSH1 0xFF AND PUSH1 0xFF AND DUP2 MSTORE PUSH1 0x20 ADD PUSH1 0x9 DUP3 ADD SLOAD DUP2 MSTORE POP POP SWAP1 POP DUP1 PUSH1 0x0 ADD MLOAD DUP2 PUSH1 0x20 ADD MLOAD PUSH1 0x6B PUSH1 0x0 DUP5 PUSH1 0x40 ADD MLOAD PUSH20 0xFFFFFFFFFFFFFFFFFFFFFFFFFFFFFFFFFFFFFFFF AND PUSH20 0xFFFFFFFFFFFFFFFFFFFFFFFFFFFFFFFFFFFFFFFF AND DUP2 MSTORE PUSH1 0x20 ADD SWAP1 DUP2 MSTORE PUSH1 0x20 ADD PUSH1 0x0 KECCAK256 PUSH1 0x0 ADD SLOAD DUP4 PUSH1 0x40 ADD MLOAD DUP5 PUSH1 0x60 ADD MLOAD DUP6 PUSH1 0x80 ADD MLOAD DUP7 PUSH1 0xA0 ADD MLOAD DUP8 PUSH1 0xC0 ADD MLOAD DUP9 PUSH1 0xE0 ADD MLOAD DUP10 PUSH2 0x100 ADD MLOAD DUP2 PUSH1 0xFF AND SWAP2 POP SWAP11 POP SWAP11 POP SWAP11 POP SWAP11 POP SWAP11 POP SWAP11 POP SWAP11 POP SWAP11 POP SWAP11 POP SWAP11 POP POP SWAP2 SWAP4 SWAP6 SWAP8 SWAP10 POP SWAP2 SWAP4 SWAP6 SWAP8 SWAP10 JUMP JUMPDEST PUSH1 0x0 SELFBALANCE SWAP1 POP SWAP1 JUMP JUMPDEST PUSH1 0x34 SLOAD DUP2 JUMP JUMPDEST JUMP JUMPDEST PUSH1 0x0 PUSH1 0x6C PUSH1 0x0 DUP4 DUP2 MSTORE PUSH1 0x20 ADD SWAP1 DUP2 MSTORE PUSH1 0x20 ADD PUSH1 0x0 KECCAK256 PUSH1 0x0 SWAP1 SLOAD SWAP1 PUSH2 0x100 EXP SWAP1 DIV PUSH20 0xFFFFFFFFFFFFFFFFFFFFFFFFFFFFFFFFFFFFFFFF AND SWAP1 POP SWAP2 SWAP1 POP JUMP JUMPDEST PUSH2 0x36BA PUSH2 0x5226 JUMP JUMPDEST PUSH1 0x1 PUSH1 0x32 DUP1 PUSH1 0x20 MUL PUSH1 0x40 MLOAD SWAP1 DUP2 ADD PUSH1 0x40 MSTORE DUP1 SWAP3 SWAP2 SWAP1 DUP3 PUSH1 0x32 DUP1 ISZERO PUSH2 0x3729 JUMPI PUSH1 0x20 MUL DUP3 ADD SWAP2 JUMPDEST DUP2 PUSH1 0x0 SWAP1 SLOAD SWAP1 PUSH2 0x100 EXP SWAP1 DIV PUSH20 0xFFFFFFFFFFFFFFFFFFFFFFFFFFFFFFFFFFFFFFFF AND PUSH20 0xFFFFFFFFFFFFFFFFFFFFFFFFFFFFFFFFFFFFFFFF AND DUP2 MSTORE PUSH1 0x20 ADD SWAP1 PUSH1 0x1 ADD SWAP1 DUP1 DUP4 GT PUSH2 0x36DF JUMPI JUMPDEST POP POP POP POP POP SWAP1 POP SWAP1 JUMP JUMPDEST PUSH1 0x66 PUSH1 0x2 SWAP1 SLOAD SWAP1 PUSH2 0x100 EXP SWAP1 DIV PUSH20 0xFFFFFFFFFFFFFFFFFFFFFFFFFFFFFFFFFFFFFFFF AND DUP2 JUMP JUMPDEST PUSH1 0x66 PUSH1 0x2 SWAP1 SLOAD SWAP1 PUSH2 0x100 EXP SWAP1 DIV PUSH20 0xFFFFFFFFFFFFFFFFFFFFFFFFFFFFFFFFFFFFFFFF AND PUSH20 0xFFFFFFFFFFFFFFFFFFFFFFFFFFFFFFFFFFFFFFFF AND CALLER PUSH20 0xFFFFFFFFFFFFFFFFFFFFFFFFFFFFFFFFFFFFFFFF AND EQ PUSH2 0x381C JUMPI PUSH1 0x40 MLOAD PUSH32 0x8C379A000000000000000000000000000000000000000000000000000000000 DUP2 MSTORE PUSH1 0x4 ADD DUP1 DUP1 PUSH1 0x20 ADD DUP3 DUP2 SUB DUP3 MSTORE PUSH1 0x15 DUP2 MSTORE PUSH1 0x20 ADD DUP1 PUSH32 0x796F7520617265206E6F7420616E206F776E6572210000000000000000000000 DUP2 MSTORE POP PUSH1 0x20 ADD SWAP2 POP POP PUSH1 0x40 MLOAD DUP1 SWAP2 SUB SWAP1 REVERT JUMPDEST PUSH1 0x0 JUMPDEST PUSH1 0x31 DUP2 PUSH1 0xFF AND GT PUSH2 0x3888 JUMPI PUSH1 0x0 PUSH1 0x1 DUP3 PUSH1 0xFF AND PUSH1 0x32 DUP2 LT PUSH2 0x383C JUMPI INVALID JUMPDEST ADD PUSH1 0x0 PUSH2 0x100 EXP DUP2 SLOAD DUP2 PUSH20 0xFFFFFFFFFFFFFFFFFFFFFFFFFFFFFFFFFFFFFFFF MUL NOT AND SWAP1 DUP4 PUSH20 0xFFFFFFFFFFFFFFFFFFFFFFFFFFFFFFFFFFFFFFFF AND MUL OR SWAP1 SSTORE POP DUP1 DUP1 PUSH1 0x1 ADD SWAP2 POP POP PUSH2 0x381F JUMP JUMPDEST POP PUSH1 0x0 DUP1 PUSH1 0x1 SWAP1 POP JUMPDEST PUSH1 0x69 SLOAD DUP2 PUSH1 0xFF AND GT PUSH2 0x399E JUMPI PUSH1 0x0 PUSH1 0x6E PUSH1 0x0 DUP4 PUSH1 0xFF AND PUSH1 0xFF AND DUP2 MSTORE PUSH1 0x20 ADD SWAP1 DUP2 MSTORE PUSH1 0x20 ADD PUSH1 0x0 KECCAK256 SLOAD SWAP1 POP JUMPDEST PUSH1 0x6D PUSH1 0x0 DUP4 PUSH1 0xFF AND PUSH1 0xFF AND DUP2 MSTORE PUSH1 0x20 ADD SWAP1 DUP2 MSTORE PUSH1 0x20 ADD PUSH1 0x0 KECCAK256 DUP1 SLOAD SWAP1 POP DUP2 LT ISZERO PUSH2 0x3990 JUMPI TIMESTAMP PUSH3 0x15180 PUSH1 0x65 PUSH1 0x0 PUSH1 0x6D PUSH1 0x0 DUP8 PUSH1 0xFF AND PUSH1 0xFF AND DUP2 MSTORE PUSH1 0x20 ADD SWAP1 DUP2 MSTORE PUSH1 0x20 ADD PUSH1 0x0 KECCAK256 DUP6 DUP2 SLOAD DUP2 LT PUSH2 0x390D JUMPI INVALID JUMPDEST SWAP1 PUSH1 0x0 MSTORE PUSH1 0x20 PUSH1 0x0 KECCAK256 ADD PUSH1 0x0 SWAP1 SLOAD SWAP1 PUSH2 0x100 EXP SWAP1 DIV PUSH20 0xFFFFFFFFFFFFFFFFFFFFFFFFFFFFFFFFFFFFFFFF AND PUSH20 0xFFFFFFFFFFFFFFFFFFFFFFFFFFFFFFFFFFFFFFFF AND PUSH20 0xFFFFFFFFFFFFFFFFFFFFFFFFFFFFFFFFFFFFFFFF AND DUP2 MSTORE PUSH1 0x20 ADD SWAP1 DUP2 MSTORE PUSH1 0x20 ADD PUSH1 0x0 KECCAK256 SLOAD ADD GT ISZERO PUSH2 0x3983 JUMPI DUP3 DUP1 PUSH1 0x1 ADD SWAP4 POP POP JUMPDEST DUP1 DUP1 PUSH1 0x1 ADD SWAP2 POP POP PUSH2 0x38BC JUMP JUMPDEST POP DUP1 DUP1 PUSH1 0x1 ADD SWAP2 POP POP PUSH2 0x3891 JUMP JUMPDEST POP DUP2 PUSH1 0x2 SELFBALANCE DUP2 PUSH2 0x39AA JUMPI INVALID JUMPDEST DIV DUP2 PUSH2 0x39B2 JUMPI INVALID JUMPDEST DIV PUSH1 0x33 DUP2 SWAP1 SSTORE POP TIMESTAMP PUSH1 0x34 DUP2 SWAP1 SSTORE POP PUSH1 0x0 DUP3 DUP3 DUP2 PUSH2 0x39CB JUMPI INVALID JUMPDEST DIV SWAP1 POP PUSH1 0x0 DUP1 PUSH1 0x0 PUSH1 0x1 SWAP1 POP JUMPDEST PUSH1 0x69 SLOAD DUP2 PUSH1 0xFF AND GT PUSH2 0x3C46 JUMPI PUSH1 0x0 PUSH1 0x6E PUSH1 0x0 DUP4 PUSH1 0xFF AND PUSH1 0xFF AND DUP2 MSTORE PUSH1 0x20 ADD SWAP1 DUP2 MSTORE PUSH1 0x20 ADD PUSH1 0x0 KECCAK256 SLOAD SWAP1 POP JUMPDEST PUSH1 0x6D PUSH1 0x0 DUP4 PUSH1 0xFF AND PUSH1 0xFF AND DUP2 MSTORE PUSH1 0x20 ADD SWAP1 DUP2 MSTORE PUSH1 0x20 ADD PUSH1 0x0 KECCAK256 DUP1 SLOAD SWAP1 POP DUP2 LT ISZERO PUSH2 0x3C38 JUMPI DUP4 DUP1 PUSH1 0x1 ADD SWAP5 POP POP PUSH1 0x0 DUP6 DUP6 DUP2 PUSH2 0x3A3A JUMPI INVALID JUMPDEST MOD EQ DUP1 ISZERO PUSH2 0x3AD9 JUMPI POP TIMESTAMP PUSH3 0x15180 PUSH1 0x65 PUSH1 0x0 PUSH1 0x6D PUSH1 0x0 DUP8 PUSH1 0xFF AND PUSH1 0xFF AND DUP2 MSTORE PUSH1 0x20 ADD SWAP1 DUP2 MSTORE PUSH1 0x20 ADD PUSH1 0x0 KECCAK256 DUP6 DUP2 SLOAD DUP2 LT PUSH2 0x3A70 JUMPI INVALID JUMPDEST SWAP1 PUSH1 0x0 MSTORE PUSH1 0x20 PUSH1 0x0 KECCAK256 ADD PUSH1 0x0 SWAP1 SLOAD SWAP1 PUSH2 0x100 EXP SWAP1 DIV PUSH20 0xFFFFFFFFFFFFFFFFFFFFFFFFFFFFFFFFFFFFFFFF AND PUSH20 0xFFFFFFFFFFFFFFFFFFFFFFFFFFFFFFFFFFFFFFFF AND PUSH20 0xFFFFFFFFFFFFFFFFFFFFFFFFFFFFFFFFFFFFFFFF AND DUP2 MSTORE PUSH1 0x20 ADD SWAP1 DUP2 MSTORE PUSH1 0x20 ADD PUSH1 0x0 KECCAK256 SLOAD ADD GT JUMPDEST ISZERO PUSH2 0x3C2B JUMPI PUSH1 0x6D PUSH1 0x0 DUP4 PUSH1 0xFF AND PUSH1 0xFF AND DUP2 MSTORE PUSH1 0x20 ADD SWAP1 DUP2 MSTORE PUSH1 0x20 ADD PUSH1 0x0 KECCAK256 DUP2 DUP2 SLOAD DUP2 LT PUSH2 0x3B02 JUMPI INVALID JUMPDEST SWAP1 PUSH1 0x0 MSTORE PUSH1 0x20 PUSH1 0x0 KECCAK256 ADD PUSH1 0x0 SWAP1 SLOAD SWAP1 PUSH2 0x100 EXP SWAP1 DIV PUSH20 0xFFFFFFFFFFFFFFFFFFFFFFFFFFFFFFFFFFFFFFFF AND PUSH1 0x1 DUP5 PUSH1 0xFF AND PUSH1 0x32 DUP2 LT PUSH2 0x3B3D JUMPI INVALID JUMPDEST ADD PUSH1 0x0 PUSH2 0x100 EXP DUP2 SLOAD DUP2 PUSH20 0xFFFFFFFFFFFFFFFFFFFFFFFFFFFFFFFFFFFFFFFF MUL NOT AND SWAP1 DUP4 PUSH20 0xFFFFFFFFFFFFFFFFFFFFFFFFFFFFFFFFFFFFFFFF AND MUL OR SWAP1 SSTORE POP DUP3 DUP1 PUSH1 0x1 ADD SWAP4 POP POP PUSH1 0x6D PUSH1 0x0 DUP4 PUSH1 0xFF AND PUSH1 0xFF AND DUP2 MSTORE PUSH1 0x20 ADD SWAP1 DUP2 MSTORE PUSH1 0x20 ADD PUSH1 0x0 KECCAK256 DUP2 DUP2 SLOAD DUP2 LT PUSH2 0x3BA8 JUMPI INVALID JUMPDEST SWAP1 PUSH1 0x0 MSTORE PUSH1 0x20 PUSH1 0x0 KECCAK256 ADD PUSH1 0x0 SWAP1 SLOAD SWAP1 PUSH2 0x100 EXP SWAP1 DIV PUSH20 0xFFFFFFFFFFFFFFFFFFFFFFFFFFFFFFFFFFFFFFFF AND PUSH20 0xFFFFFFFFFFFFFFFFFFFFFFFFFFFFFFFFFFFFFFFF AND PUSH32 0xEDAC0922924CC83017073B98842693D865D06A82C38175D4A1CB0811EF86193F TIMESTAMP PUSH1 0x33 SLOAD PUSH1 0x40 MLOAD DUP1 DUP4 DUP2 MSTORE PUSH1 0x20 ADD DUP3 DUP2 MSTORE PUSH1 0x20 ADD SWAP3 POP POP POP PUSH1 0x40 MLOAD DUP1 SWAP2 SUB SWAP1 LOG2 JUMPDEST DUP1 DUP1 PUSH1 0x1 ADD SWAP2 POP POP PUSH2 0x3A03 JUMP JUMPDEST POP DUP1 DUP1 PUSH1 0x1 ADD SWAP2 POP POP PUSH2 0x39D8 JUMP JUMPDEST POP POP POP POP POP POP JUMP JUMPDEST PUSH2 0x3C57 DUP2 PUSH2 0x11D6 JUMP JUMPDEST PUSH2 0x3CC9 JUMPI PUSH1 0x40 MLOAD PUSH32 0x8C379A000000000000000000000000000000000000000000000000000000000 DUP2 MSTORE PUSH1 0x4 ADD DUP1 DUP1 PUSH1 0x20 ADD DUP3 DUP2 SUB DUP3 MSTORE PUSH1 0x1A DUP2 MSTORE PUSH1 0x20 ADD DUP1 PUSH32 0x5265666572726572206973206E6F742072656769737465726564000000000000 DUP2 MSTORE POP PUSH1 0x20 ADD SWAP2 POP POP PUSH1 0x40 MLOAD DUP1 SWAP2 SUB SWAP1 REVERT JUMPDEST PUSH2 0x3CD2 CALLER PUSH2 0x11D6 JUMP JUMPDEST ISZERO PUSH2 0x3D45 JUMPI PUSH1 0x40 MLOAD PUSH32 0x8C379A000000000000000000000000000000000000000000000000000000000 DUP2 MSTORE PUSH1 0x4 ADD DUP1 DUP1 PUSH1 0x20 ADD DUP3 DUP2 SUB DUP3 MSTORE PUSH1 0x17 DUP2 MSTORE PUSH1 0x20 ADD DUP1 PUSH32 0x5573657220616C72656164792072656769737465726564000000000000000000 DUP2 MSTORE POP PUSH1 0x20 ADD SWAP2 POP POP PUSH1 0x40 MLOAD DUP1 SWAP2 SUB SWAP1 REVERT JUMPDEST PUSH2 0x3D4E CALLER PUSH2 0x2A4A JUMP JUMPDEST ISZERO PUSH2 0x3DC1 JUMPI PUSH1 0x40 MLOAD PUSH32 0x8C379A000000000000000000000000000000000000000000000000000000000 DUP2 MSTORE PUSH1 0x4 ADD DUP1 DUP1 PUSH1 0x20 ADD DUP3 DUP2 SUB DUP3 MSTORE PUSH1 0x15 DUP2 MSTORE PUSH1 0x20 ADD DUP1 PUSH32 0x43616E206E6F74206265206120636F6E74726163740000000000000000000000 DUP2 MSTORE POP PUSH1 0x20 ADD SWAP2 POP POP PUSH1 0x40 MLOAD DUP1 SWAP2 SUB SWAP1 REVERT JUMPDEST PUSH2 0x3DC9 PUSH2 0x51C1 JUMP JUMPDEST PUSH1 0x40 MLOAD DUP1 PUSH2 0x120 ADD PUSH1 0x40 MSTORE DUP1 PUSH1 0x6A PUSH1 0x0 DUP2 SLOAD DUP1 SWAP3 SWAP2 SWAP1 PUSH1 0x1 ADD SWAP2 SWAP1 POP SSTORE DUP2 MSTORE PUSH1 0x20 ADD TIMESTAMP DUP2 MSTORE PUSH1 0x20 ADD DUP4 PUSH20 0xFFFFFFFFFFFFFFFFFFFFFFFFFFFFFFFFFFFFFFFF AND DUP2 MSTORE PUSH1 0x20 ADD PUSH1 0x0 DUP2 MSTORE PUSH1 0x20 ADD PUSH1 0x0 DUP2 MSTORE PUSH1 0x20 ADD PUSH1 0x0 DUP2 MSTORE PUSH1 0x20 ADD PUSH1 0x0 DUP2 MSTORE PUSH1 0x20 ADD PUSH1 0x0 PUSH1 0xFF AND DUP2 MSTORE PUSH1 0x20 ADD PUSH1 0x0 DUP2 MSTORE POP SWAP1 POP DUP1 PUSH1 0x6B PUSH1 0x0 CALLER PUSH20 0xFFFFFFFFFFFFFFFFFFFFFFFFFFFFFFFFFFFFFFFF AND PUSH20 0xFFFFFFFFFFFFFFFFFFFFFFFFFFFFFFFFFFFFFFFF AND DUP2 MSTORE PUSH1 0x20 ADD SWAP1 DUP2 MSTORE PUSH1 0x20 ADD PUSH1 0x0 KECCAK256 PUSH1 0x0 DUP3 ADD MLOAD DUP2 PUSH1 0x0 ADD SSTORE PUSH1 0x20 DUP3 ADD MLOAD DUP2 PUSH1 0x1 ADD SSTORE PUSH1 0x40 DUP3 ADD MLOAD DUP2 PUSH1 0x2 ADD PUSH1 0x0 PUSH2 0x100 EXP DUP2 SLOAD DUP2 PUSH20 0xFFFFFFFFFFFFFFFFFFFFFFFFFFFFFFFFFFFFFFFF MUL NOT AND SWAP1 DUP4 PUSH20 0xFFFFFFFFFFFFFFFFFFFFFFFFFFFFFFFFFFFFFFFF AND MUL OR SWAP1 SSTORE POP PUSH1 0x60 DUP3 ADD MLOAD DUP2 PUSH1 0x3 ADD SSTORE PUSH1 0x80 DUP3 ADD MLOAD DUP2 PUSH1 0x4 ADD SSTORE PUSH1 0xA0 DUP3 ADD MLOAD DUP2 PUSH1 0x5 ADD SSTORE PUSH1 0xC0 DUP3 ADD MLOAD DUP2 PUSH1 0x6 ADD SSTORE PUSH1 0xE0 DUP3 ADD MLOAD DUP2 PUSH1 0x8 ADD PUSH1 0x0 PUSH2 0x100 EXP DUP2 SLOAD DUP2 PUSH1 0xFF MUL NOT AND SWAP1 DUP4 PUSH1 0xFF AND MUL OR SWAP1 SSTORE POP PUSH2 0x100 DUP3 ADD MLOAD DUP2 PUSH1 0x9 ADD SSTORE SWAP1 POP POP CALLER PUSH1 0x6C PUSH1 0x0 DUP4 PUSH1 0x0 ADD MLOAD DUP2 MSTORE PUSH1 0x20 ADD SWAP1 DUP2 MSTORE PUSH1 0x20 ADD PUSH1 0x0 KECCAK256 PUSH1 0x0 PUSH2 0x100 EXP DUP2 SLOAD DUP2 PUSH20 0xFFFFFFFFFFFFFFFFFFFFFFFFFFFFFFFFFFFFFFFF MUL NOT AND SWAP1 DUP4 PUSH20 0xFFFFFFFFFFFFFFFFFFFFFFFFFFFFFFFFFFFFFFFF AND MUL OR SWAP1 SSTORE POP PUSH1 0x0 PUSH1 0x1 SWAP1 POP PUSH1 0x0 DUP4 SWAP1 POP PUSH1 0x0 PUSH20 0xFFFFFFFFFFFFFFFFFFFFFFFFFFFFFFFFFFFFFFFF AND DUP2 PUSH20 0xFFFFFFFFFFFFFFFFFFFFFFFFFFFFFFFFFFFFFFFF AND EQ PUSH2 0x4081 JUMPI PUSH1 0x6B PUSH1 0x0 DUP3 PUSH20 0xFFFFFFFFFFFFFFFFFFFFFFFFFFFFFFFFFFFFFFFF AND PUSH20 0xFFFFFFFFFFFFFFFFFFFFFFFFFFFFFFFFFFFFFFFF AND DUP2 MSTORE PUSH1 0x20 ADD SWAP1 DUP2 MSTORE PUSH1 0x20 ADD PUSH1 0x0 KECCAK256 PUSH1 0x3 ADD PUSH1 0x0 DUP2 SLOAD DUP1 SWAP3 SWAP2 SWAP1 PUSH1 0x1 ADD SWAP2 SWAP1 POP SSTORE POP PUSH1 0x6B PUSH1 0x0 DUP3 PUSH20 0xFFFFFFFFFFFFFFFFFFFFFFFFFFFFFFFFFFFFFFFF AND PUSH20 0xFFFFFFFFFFFFFFFFFFFFFFFFFFFFFFFFFFFFFFFF AND DUP2 MSTORE PUSH1 0x20 ADD SWAP1 DUP2 MSTORE PUSH1 0x20 ADD PUSH1 0x0 KECCAK256 PUSH1 0x2 ADD PUSH1 0x0 SWAP1 SLOAD SWAP1 PUSH2 0x100 EXP SWAP1 DIV PUSH20 0xFFFFFFFFFFFFFFFFFFFFFFFFFFFFFFFFFFFFFFFF AND SWAP1 POP DUP2 DUP1 PUSH1 0x1 ADD SWAP3 POP POP JUMPDEST PUSH1 0x6F PUSH1 0x0 ADD PUSH1 0x0 DUP2 SLOAD DUP1 SWAP3 SWAP2 SWAP1 PUSH1 0x1 ADD SWAP2 SWAP1 POP SSTORE POP PUSH1 0x6F PUSH1 0x1 ADD PUSH1 0x0 DUP2 SLOAD DUP1 SWAP3 SWAP2 SWAP1 PUSH1 0x1 ADD SWAP2 SWAP1 POP SSTORE POP CALLER PUSH20 0xFFFFFFFFFFFFFFFFFFFFFFFFFFFFFFFFFFFFFFFF AND PUSH32 0x588149FB6F65171A24789E864D05FEB177506DF6FC9E86C55D0D19B5122BDFFC TIMESTAMP DUP6 PUSH1 0x0 ADD MLOAD PUSH1 0x6B PUSH1 0x0 DUP10 PUSH20 0xFFFFFFFFFFFFFFFFFFFFFFFFFFFFFFFFFFFFFFFF AND PUSH20 0xFFFFFFFFFFFFFFFFFFFFFFFFFFFFFFFFFFFFFFFF AND DUP2 MSTORE PUSH1 0x20 ADD SWAP1 DUP2 MSTORE PUSH1 0x20 ADD PUSH1 0x0 KECCAK256 PUSH1 0x0 ADD SLOAD PUSH1 0x40 MLOAD DUP1 DUP5 DUP2 MSTORE PUSH1 0x20 ADD DUP4 DUP2 MSTORE PUSH1 0x20 ADD DUP3 DUP2 MSTORE PUSH1 0x20 ADD SWAP4 POP POP POP POP PUSH1 0x40 MLOAD DUP1 SWAP2 SUB SWAP1 LOG2 POP POP POP POP JUMP JUMPDEST PUSH1 0x66 PUSH1 0x1 SWAP1 SLOAD SWAP1 PUSH2 0x100 EXP SWAP1 DIV PUSH1 0xFF AND DUP2 JUMP JUMPDEST PUSH1 0x6B PUSH1 0x20 MSTORE DUP1 PUSH1 0x0 MSTORE PUSH1 0x40 PUSH1 0x0 KECCAK256 PUSH1 0x0 SWAP2 POP SWAP1 POP DUP1 PUSH1 0x0 ADD SLOAD SWAP1 DUP1 PUSH1 0x1 ADD SLOAD SWAP1 DUP1 PUSH1 0x2 ADD PUSH1 0x0 SWAP1 SLOAD SWAP1 PUSH2 0x100 EXP SWAP1 DIV PUSH20 0xFFFFFFFFFFFFFFFFFFFFFFFFFFFFFFFFFFFFFFFF AND SWAP1 DUP1 PUSH1 0x3 ADD SLOAD SWAP1 DUP1 PUSH1 0x4 ADD SLOAD SWAP1 DUP1 PUSH1 0x5 ADD SLOAD SWAP1 DUP1 PUSH1 0x6 ADD SLOAD SWAP1 DUP1 PUSH1 0x8 ADD PUSH1 0x0 SWAP1 SLOAD SWAP1 PUSH2 0x100 EXP SWAP1 DIV PUSH1 0xFF AND SWAP1 DUP1 PUSH1 0x9 ADD SLOAD SWAP1 POP DUP10 JUMP JUMPDEST PUSH1 0x65 PUSH1 0x20 MSTORE DUP1 PUSH1 0x0 MSTORE PUSH1 0x40 PUSH1 0x0 KECCAK256 PUSH1 0x0 SWAP2 POP SWAP1 POP SLOAD DUP2 JUMP JUMPDEST PUSH2 0x4204 DUP2 PUSH2 0x3C4E JUMP JUMPDEST PUSH2 0x420E PUSH1 0x1 PUSH2 0x1252 JUMP JUMPDEST POP JUMP JUMPDEST PUSH1 0x0 DUP1 PUSH1 0x6B PUSH1 0x0 DUP5 PUSH20 0xFFFFFFFFFFFFFFFFFFFFFFFFFFFFFFFFFFFFFFFF AND PUSH20 0xFFFFFFFFFFFFFFFFFFFFFFFFFFFFFFFFFFFFFFFF AND DUP2 MSTORE PUSH1 0x20 ADD SWAP1 DUP2 MSTORE PUSH1 0x20 ADD PUSH1 0x0 KECCAK256 PUSH1 0x2 ADD PUSH1 0x0 SWAP1 SLOAD SWAP1 PUSH2 0x100 EXP SWAP1 DIV PUSH20 0xFFFFFFFFFFFFFFFFFFFFFFFFFFFFFFFFFFFFFFFF AND SWAP1 POP PUSH1 0x6B PUSH1 0x0 DUP3 PUSH20 0xFFFFFFFFFFFFFFFFFFFFFFFFFFFFFFFFFFFFFFFF AND PUSH20 0xFFFFFFFFFFFFFFFFFFFFFFFFFFFFFFFFFFFFFFFF AND DUP2 MSTORE PUSH1 0x20 ADD SWAP1 DUP2 MSTORE PUSH1 0x20 ADD PUSH1 0x0 KECCAK256 PUSH1 0x0 ADD SLOAD SWAP2 POP POP SWAP2 SWAP1 POP JUMP JUMPDEST PUSH1 0x4B DUP2 JUMP JUMPDEST PUSH1 0x2 PUSH1 0x0 SLOAD EQ ISZERO PUSH2 0x4342 JUMPI PUSH1 0x40 MLOAD PUSH32 0x8C379A000000000000000000000000000000000000000000000000000000000 DUP2 MSTORE PUSH1 0x4 ADD DUP1 DUP1 PUSH1 0x20 ADD DUP3 DUP2 SUB DUP3 MSTORE PUSH1 0x1F DUP2 MSTORE PUSH1 0x20 ADD DUP1 PUSH32 0x5265656E7472616E637947756172643A207265656E7472616E742063616C6C00 DUP2 MSTORE POP PUSH1 0x20 ADD SWAP2 POP POP PUSH1 0x40 MLOAD DUP1 SWAP2 SUB SWAP1 REVERT JUMPDEST PUSH1 0x2 PUSH1 0x0 DUP2 SWAP1 SSTORE POP PUSH1 0x0 JUMPDEST PUSH1 0x31 DUP2 PUSH1 0xFF AND GT PUSH2 0x44CC JUMPI CALLER PUSH20 0xFFFFFFFFFFFFFFFFFFFFFFFFFFFFFFFFFFFFFFFF AND PUSH1 0x1 DUP3 PUSH1 0xFF AND PUSH1 0x32 DUP2 LT PUSH2 0x437F JUMPI INVALID JUMPDEST ADD PUSH1 0x0 SWAP1 SLOAD SWAP1 PUSH2 0x100 EXP SWAP1 DIV PUSH20 0xFFFFFFFFFFFFFFFFFFFFFFFFFFFFFFFFFFFFFFFF AND PUSH20 0xFFFFFFFFFFFFFFFFFFFFFFFFFFFFFFFFFFFFFFFF AND EQ ISZERO PUSH2 0x44BF JUMPI PUSH1 0x6F PUSH1 0x3 ADD PUSH1 0x0 DUP2 SLOAD DUP1 SWAP3 SWAP2 SWAP1 PUSH1 0x1 ADD SWAP2 SWAP1 POP SSTORE POP PUSH1 0x0 PUSH1 0x1 DUP3 PUSH1 0xFF AND PUSH1 0x32 DUP2 LT PUSH2 0x43E4 JUMPI INVALID JUMPDEST ADD PUSH1 0x0 PUSH2 0x100 EXP DUP2 SLOAD DUP2 PUSH20 0xFFFFFFFFFFFFFFFFFFFFFFFFFFFFFFFFFFFFFFFF MUL NOT AND SWAP1 DUP4 PUSH20 0xFFFFFFFFFFFFFFFFFFFFFFFFFFFFFFFFFFFFFFFF AND MUL OR SWAP1 SSTORE POP PUSH1 0x0 CALLER PUSH20 0xFFFFFFFFFFFFFFFFFFFFFFFFFFFFFFFFFFFFFFFF AND PUSH2 0x8FC PUSH1 0x33 SLOAD SWAP1 DUP2 ISZERO MUL SWAP1 PUSH1 0x40 MLOAD PUSH1 0x0 PUSH1 0x40 MLOAD DUP1 DUP4 SUB DUP2 DUP6 DUP9 DUP9 CALL SWAP4 POP POP POP POP SWAP1 POP DUP1 ISZERO PUSH2 0x44BD JUMPI CALLER PUSH20 0xFFFFFFFFFFFFFFFFFFFFFFFFFFFFFFFFFFFFFFFF AND PUSH32 0x7C73022FE9EF1DDFFACFE32AB067B48A23250B0C20FBABEACE91E3CD9E63A9C0 TIMESTAMP PUSH1 0x33 SLOAD PUSH1 0x40 MLOAD DUP1 DUP4 DUP2 MSTORE PUSH1 0x20 ADD DUP3 DUP2 MSTORE PUSH1 0x20 ADD SWAP3 POP POP POP PUSH1 0x40 MLOAD DUP1 SWAP2 SUB SWAP1 LOG2 JUMPDEST POP JUMPDEST DUP1 DUP1 PUSH1 0x1 ADD SWAP2 POP POP PUSH2 0x434D JUMP JUMPDEST POP PUSH1 0x1 PUSH1 0x0 DUP2 SWAP1 SSTORE POP JUMP JUMPDEST PUSH2 0x44DF PUSH2 0x519E JUMP JUMPDEST PUSH1 0x35 PUSH1 0x10 DUP1 PUSH1 0x20 MUL PUSH1 0x40 MLOAD SWAP1 DUP2 ADD PUSH1 0x40 MSTORE DUP1 SWAP3 SWAP2 SWAP1 DUP3 PUSH1 0x10 DUP1 ISZERO PUSH2 0x4518 JUMPI PUSH1 0x20 MUL DUP3 ADD SWAP2 JUMPDEST DUP2 SLOAD DUP2 MSTORE PUSH1 0x20 ADD SWAP1 PUSH1 0x1 ADD SWAP1 DUP1 DUP4 GT PUSH2 0x4504 JUMPI JUMPDEST POP POP POP POP POP SWAP1 POP SWAP1 JUMP JUMPDEST PUSH1 0x0 DUP1 PUSH1 0x0 DUP4 PUSH1 0xFF AND GT DUP1 ISZERO PUSH2 0x453D JUMPI POP PUSH1 0x69 SLOAD DUP4 PUSH1 0xFF AND GT ISZERO JUMPDEST PUSH2 0x45AF JUMPI PUSH1 0x40 MLOAD PUSH32 0x8C379A000000000000000000000000000000000000000000000000000000000 DUP2 MSTORE PUSH1 0x4 ADD DUP1 DUP1 PUSH1 0x20 ADD DUP3 DUP2 SUB DUP3 MSTORE PUSH1 0xD DUP2 MSTORE PUSH1 0x20 ADD DUP1 PUSH32 0x496E76616C696420726F756E6400000000000000000000000000000000000000 DUP2 MSTORE POP PUSH1 0x20 ADD SWAP2 POP POP PUSH1 0x40 MLOAD DUP1 SWAP2 SUB SWAP1 REVERT JUMPDEST PUSH1 0x6B PUSH1 0x0 DUP6 PUSH20 0xFFFFFFFFFFFFFFFFFFFFFFFFFFFFFFFFFFFFFFFF AND PUSH20 0xFFFFFFFFFFFFFFFFFFFFFFFFFFFFFFFFFFFFFFFF AND DUP2 MSTORE PUSH1 0x20 ADD SWAP1 DUP2 MSTORE PUSH1 0x20 ADD PUSH1 0x0 KECCAK256 PUSH1 0x7 ADD PUSH1 0x0 DUP5 PUSH1 0xFF AND PUSH1 0xFF AND DUP2 MSTORE PUSH1 0x20 ADD SWAP1 DUP2 MSTORE PUSH1 0x20 ADD PUSH1 0x0 KECCAK256 PUSH1 0x0 ADD PUSH1 0x6 SWAP1 SLOAD SWAP1 PUSH2 0x100 EXP SWAP1 DIV PUSH1 0xFF AND PUSH2 0x4629 JUMPI PUSH1 0x0 DUP1 SWAP2 POP SWAP2 POP PUSH2 0x474E JUMP JUMPDEST PUSH1 0x0 DUP1 PUSH1 0x6E PUSH1 0x0 DUP7 PUSH1 0xFF AND PUSH1 0xFF AND DUP2 MSTORE PUSH1 0x20 ADD SWAP1 DUP2 MSTORE PUSH1 0x20 ADD PUSH1 0x0 KECCAK256 SLOAD SWAP1 POP JUMPDEST PUSH1 0x6D PUSH1 0x0 DUP7 PUSH1 0xFF AND PUSH1 0xFF AND DUP2 MSTORE PUSH1 0x20 ADD SWAP1 DUP2 MSTORE PUSH1 0x20 ADD PUSH1 0x0 KECCAK256 DUP1 SLOAD SWAP1 POP DUP2 LT ISZERO PUSH2 0x4748 JUMPI DUP2 DUP1 PUSH1 0x1 ADD SWAP3 POP POP DUP6 PUSH20 0xFFFFFFFFFFFFFFFFFFFFFFFFFFFFFFFFFFFFFFFF AND PUSH1 0x6D PUSH1 0x0 DUP8 PUSH1 0xFF AND PUSH1 0xFF AND DUP2 MSTORE PUSH1 0x20 ADD SWAP1 DUP2 MSTORE PUSH1 0x20 ADD PUSH1 0x0 KECCAK256 DUP3 DUP2 SLOAD DUP2 LT PUSH2 0x46B0 JUMPI INVALID JUMPDEST SWAP1 PUSH1 0x0 MSTORE PUSH1 0x20 PUSH1 0x0 KECCAK256 ADD PUSH1 0x0 SWAP1 SLOAD SWAP1 PUSH2 0x100 EXP SWAP1 DIV PUSH20 0xFFFFFFFFFFFFFFFFFFFFFFFFFFFFFFFFFFFFFFFF AND PUSH20 0xFFFFFFFFFFFFFFFFFFFFFFFFFFFFFFFFFFFFFFFF AND EQ ISZERO PUSH2 0x473B JUMPI DUP2 PUSH1 0x6E PUSH1 0x0 DUP8 PUSH1 0xFF AND PUSH1 0xFF AND DUP2 MSTORE PUSH1 0x20 ADD SWAP1 DUP2 MSTORE PUSH1 0x20 ADD PUSH1 0x0 KECCAK256 SLOAD PUSH1 0x6D PUSH1 0x0 DUP9 PUSH1 0xFF AND PUSH1 0xFF AND DUP2 MSTORE PUSH1 0x20 ADD SWAP1 DUP2 MSTORE PUSH1 0x20 ADD PUSH1 0x0 KECCAK256 DUP1 SLOAD SWAP1 POP SUB SWAP4 POP SWAP4 POP POP POP PUSH2 0x474E JUMP JUMPDEST DUP1 DUP1 PUSH1 0x1 ADD SWAP2 POP POP PUSH2 0x4649 JUMP JUMPDEST POP PUSH1 0x0 DUP1 REVERT JUMPDEST SWAP3 POP SWAP3 SWAP1 POP JUMP JUMPDEST PUSH1 0x7 DUP2 JUMP JUMPDEST PUSH1 0x33 SLOAD DUP2 JUMP JUMPDEST PUSH1 0x0 PUSH1 0x6B PUSH1 0x0 DUP6 PUSH20 0xFFFFFFFFFFFFFFFFFFFFFFFFFFFFFFFFFFFFFFFF AND PUSH20 0xFFFFFFFFFFFFFFFFFFFFFFFFFFFFFFFFFFFFFFFF AND DUP2 MSTORE PUSH1 0x20 ADD SWAP1 DUP2 MSTORE PUSH1 0x20 ADD PUSH1 0x0 KECCAK256 PUSH1 0x2 ADD PUSH1 0x0 SWAP1 SLOAD SWAP1 PUSH2 0x100 EXP SWAP1 DIV PUSH20 0xFFFFFFFFFFFFFFFFFFFFFFFFFFFFFFFFFFFFFFFF AND SWAP1 POP PUSH1 0x6B PUSH1 0x0 DUP3 PUSH20 0xFFFFFFFFFFFFFFFFFFFFFFFFFFFFFFFFFFFFFFFF AND PUSH20 0xFFFFFFFFFFFFFFFFFFFFFFFFFFFFFFFFFFFFFFFF AND DUP2 MSTORE PUSH1 0x20 ADD SWAP1 DUP2 MSTORE PUSH1 0x20 ADD PUSH1 0x0 KECCAK256 PUSH1 0x7 ADD PUSH1 0x0 DUP5 PUSH1 0xFF AND PUSH1 0xFF AND DUP2 MSTORE PUSH1 0x20 ADD SWAP1 DUP2 MSTORE PUSH1 0x20 ADD PUSH1 0x0 KECCAK256 PUSH1 0x0 ADD PUSH1 0x6 SWAP1 SLOAD SWAP1 PUSH2 0x100 EXP SWAP1 DIV PUSH1 0xFF AND PUSH2 0x4A0A JUMPI DUP2 PUSH1 0x6B PUSH1 0x0 DUP4 PUSH20 0xFFFFFFFFFFFFFFFFFFFFFFFFFFFFFFFFFFFFFFFF AND PUSH20 0xFFFFFFFFFFFFFFFFFFFFFFFFFFFFFFFFFFFFFFFF AND DUP2 MSTORE PUSH1 0x20 ADD SWAP1 DUP2 MSTORE PUSH1 0x20 ADD PUSH1 0x0 KECCAK256 PUSH1 0x6 ADD PUSH1 0x0 DUP3 DUP3 SLOAD ADD SWAP3 POP POP DUP2 SWAP1 SSTORE POP DUP2 PUSH1 0x6B PUSH1 0x0 DUP4 PUSH20 0xFFFFFFFFFFFFFFFFFFFFFFFFFFFFFFFFFFFFFFFF AND PUSH20 0xFFFFFFFFFFFFFFFFFFFFFFFFFFFFFFFFFFFFFFFF AND DUP2 MSTORE PUSH1 0x20 ADD SWAP1 DUP2 MSTORE PUSH1 0x20 ADD PUSH1 0x0 KECCAK256 PUSH1 0x7 ADD PUSH1 0x0 DUP6 PUSH1 0xFF AND PUSH1 0xFF AND DUP2 MSTORE PUSH1 0x20 ADD SWAP1 DUP2 MSTORE PUSH1 0x20 ADD PUSH1 0x0 KECCAK256 PUSH1 0x5 ADD PUSH1 0x0 DUP3 DUP3 SLOAD ADD SWAP3 POP POP DUP2 SWAP1 SSTORE POP DUP1 PUSH20 0xFFFFFFFFFFFFFFFFFFFFFFFFFFFFFFFFFFFFFFFF AND PUSH32 0x883BF1F67528BDC0CBAA14CB71F54E9F4E65EC49ECEAF639CB93A9E50AEFC4C TIMESTAMP PUSH1 0x6B PUSH1 0x0 DUP6 PUSH20 0xFFFFFFFFFFFFFFFFFFFFFFFFFFFFFFFFFFFFFFFF AND PUSH20 0xFFFFFFFFFFFFFFFFFFFFFFFFFFFFFFFFFFFFFFFF AND DUP2 MSTORE PUSH1 0x20 ADD SWAP1 DUP2 MSTORE PUSH1 0x20 ADD PUSH1 0x0 KECCAK256 PUSH1 0x0 ADD SLOAD PUSH1 0x6B PUSH1 0x0 DUP10 PUSH20 0xFFFFFFFFFFFFFFFFFFFFFFFFFFFFFFFFFFFFFFFF AND PUSH20 0xFFFFFFFFFFFFFFFFFFFFFFFFFFFFFFFFFFFFFFFF AND DUP2 MSTORE PUSH1 0x20 ADD SWAP1 DUP2 MSTORE PUSH1 0x20 ADD PUSH1 0x0 KECCAK256 PUSH1 0x0 ADD SLOAD DUP8 DUP8 PUSH1 0x40 MLOAD DUP1 DUP7 DUP2 MSTORE PUSH1 0x20 ADD DUP6 DUP2 MSTORE PUSH1 0x20 ADD DUP5 DUP2 MSTORE PUSH1 0x20 ADD DUP4 PUSH1 0xFF AND DUP2 MSTORE PUSH1 0x20 ADD DUP3 DUP2 MSTORE PUSH1 0x20 ADD SWAP6 POP POP POP POP POP POP PUSH1 0x40 MLOAD DUP1 SWAP2 SUB SWAP1 LOG2 PUSH1 0x66 PUSH1 0x2 SWAP1 SLOAD SWAP1 PUSH2 0x100 EXP SWAP1 DIV PUSH20 0xFFFFFFFFFFFFFFFFFFFFFFFFFFFFFFFFFFFFFFFF AND SWAP1 POP JUMPDEST PUSH1 0x0 DUP2 PUSH20 0xFFFFFFFFFFFFFFFFFFFFFFFFFFFFFFFFFFFFFFFF AND PUSH2 0x8FC DUP5 SWAP1 DUP2 ISZERO MUL SWAP1 PUSH1 0x40 MLOAD PUSH1 0x0 PUSH1 0x40 MLOAD DUP1 DUP4 SUB DUP2 DUP6 DUP9 DUP9 CALL SWAP4 POP POP POP POP SWAP1 POP DUP1 ISZERO PUSH2 0x4BFD JUMPI DUP3 PUSH1 0x6B PUSH1 0x0 DUP5 PUSH20 0xFFFFFFFFFFFFFFFFFFFFFFFFFFFFFFFFFFFFFFFF AND PUSH20 0xFFFFFFFFFFFFFFFFFFFFFFFFFFFFFFFFFFFFFFFF AND DUP2 MSTORE PUSH1 0x20 ADD SWAP1 DUP2 MSTORE PUSH1 0x20 ADD PUSH1 0x0 KECCAK256 PUSH1 0x7 ADD PUSH1 0x0 DUP7 PUSH1 0xFF AND PUSH1 0xFF AND DUP2 MSTORE PUSH1 0x20 ADD SWAP1 DUP2 MSTORE PUSH1 0x20 ADD PUSH1 0x0 KECCAK256 PUSH1 0x2 ADD PUSH1 0x0 DUP3 DUP3 SLOAD ADD SWAP3 POP POP DUP2 SWAP1 SSTORE POP DUP3 PUSH1 0x6B PUSH1 0x0 DUP5 PUSH20 0xFFFFFFFFFFFFFFFFFFFFFFFFFFFFFFFFFFFFFFFF AND PUSH20 0xFFFFFFFFFFFFFFFFFFFFFFFFFFFFFFFFFFFFFFFF AND DUP2 MSTORE PUSH1 0x20 ADD SWAP1 DUP2 MSTORE PUSH1 0x20 ADD PUSH1 0x0 KECCAK256 PUSH1 0x4 ADD PUSH1 0x0 DUP3 DUP3 SLOAD ADD SWAP3 POP POP DUP2 SWAP1 SSTORE POP DUP2 PUSH20 0xFFFFFFFFFFFFFFFFFFFFFFFFFFFFFFFFFFFFFFFF AND PUSH32 0xED8E24E8C3D702AAE6EC32D5D8FBB15B20E1905FCD8E9A2313DFF009A821750 TIMESTAMP PUSH1 0x6B PUSH1 0x0 DUP7 PUSH20 0xFFFFFFFFFFFFFFFFFFFFFFFFFFFFFFFFFFFFFFFF AND PUSH20 0xFFFFFFFFFFFFFFFFFFFFFFFFFFFFFFFFFFFFFFFF AND DUP2 MSTORE PUSH1 0x20 ADD SWAP1 DUP2 MSTORE PUSH1 0x20 ADD PUSH1 0x0 KECCAK256 PUSH1 0x0 ADD SLOAD PUSH1 0x6B PUSH1 0x0 DUP11 PUSH20 0xFFFFFFFFFFFFFFFFFFFFFFFFFFFFFFFFFFFFFFFF AND PUSH20 0xFFFFFFFFFFFFFFFFFFFFFFFFFFFFFFFFFFFFFFFF AND DUP2 MSTORE PUSH1 0x20 ADD SWAP1 DUP2 MSTORE PUSH1 0x20 ADD PUSH1 0x0 KECCAK256 PUSH1 0x0 ADD SLOAD DUP9 DUP9 PUSH1 0x40 MLOAD DUP1 DUP7 DUP2 MSTORE PUSH1 0x20 ADD DUP6 DUP2 MSTORE PUSH1 0x20 ADD DUP5 DUP2 MSTORE PUSH1 0x20 ADD DUP4 PUSH1 0xFF AND DUP2 MSTORE PUSH1 0x20 ADD DUP3 DUP2 MSTORE PUSH1 0x20 ADD SWAP6 POP POP POP POP POP POP PUSH1 0x40 MLOAD DUP1 SWAP2 SUB SWAP1 LOG2 PUSH2 0x4C67 JUMP JUMPDEST PUSH1 0x66 PUSH1 0x2 SWAP1 SLOAD SWAP1 PUSH2 0x100 EXP SWAP1 DIV PUSH20 0xFFFFFFFFFFFFFFFFFFFFFFFFFFFFFFFFFFFFFFFF AND PUSH20 0xFFFFFFFFFFFFFFFFFFFFFFFFFFFFFFFFFFFFFFFF AND PUSH2 0x8FC DUP5 SWAP1 DUP2 ISZERO MUL SWAP1 PUSH1 0x40 MLOAD PUSH1 0x0 PUSH1 0x40 MLOAD DUP1 DUP4 SUB DUP2 DUP6 DUP9 DUP9 CALL SWAP4 POP POP POP POP ISZERO DUP1 ISZERO PUSH2 0x4C65 JUMPI RETURNDATASIZE PUSH1 0x0 DUP1 RETURNDATACOPY RETURNDATASIZE PUSH1 0x0 REVERT JUMPDEST POP JUMPDEST POP POP POP POP POP JUMP JUMPDEST PUSH1 0x0 PUSH1 0x6B PUSH1 0x0 DUP6 PUSH20 0xFFFFFFFFFFFFFFFFFFFFFFFFFFFFFFFFFFFFFFFF AND PUSH20 0xFFFFFFFFFFFFFFFFFFFFFFFFFFFFFFFFFFFFFFFF AND DUP2 MSTORE PUSH1 0x20 ADD SWAP1 DUP2 MSTORE PUSH1 0x20 ADD PUSH1 0x0 KECCAK256 PUSH1 0x2 ADD PUSH1 0x0 SWAP1 SLOAD SWAP1 PUSH2 0x100 EXP SWAP1 DIV PUSH20 0xFFFFFFFFFFFFFFFFFFFFFFFFFFFFFFFFFFFFFFFF AND SWAP1 POP PUSH1 0x6B PUSH1 0x0 DUP3 PUSH20 0xFFFFFFFFFFFFFFFFFFFFFFFFFFFFFFFFFFFFFFFF AND PUSH20 0xFFFFFFFFFFFFFFFFFFFFFFFFFFFFFFFFFFFFFFFF AND DUP2 MSTORE PUSH1 0x20 ADD SWAP1 DUP2 MSTORE PUSH1 0x20 ADD PUSH1 0x0 KECCAK256 PUSH1 0x7 ADD PUSH1 0x0 DUP5 PUSH1 0xFF AND PUSH1 0xFF AND DUP2 MSTORE PUSH1 0x20 ADD SWAP1 DUP2 MSTORE PUSH1 0x20 ADD PUSH1 0x0 KECCAK256 PUSH1 0x0 ADD PUSH1 0x6 SWAP1 SLOAD SWAP1 PUSH2 0x100 EXP SWAP1 DIV PUSH1 0xFF AND PUSH2 0x4F18 JUMPI DUP2 PUSH1 0x6B PUSH1 0x0 DUP4 PUSH20 0xFFFFFFFFFFFFFFFFFFFFFFFFFFFFFFFFFFFFFFFF AND PUSH20 0xFFFFFFFFFFFFFFFFFFFFFFFFFFFFFFFFFFFFFFFF AND DUP2 MSTORE PUSH1 0x20 ADD SWAP1 DUP2 MSTORE PUSH1 0x20 ADD PUSH1 0x0 KECCAK256 PUSH1 0x6 ADD PUSH1 0x0 DUP3 DUP3 SLOAD ADD SWAP3 POP POP DUP2 SWAP1 SSTORE POP DUP2 PUSH1 0x6B PUSH1 0x0 DUP4 PUSH20 0xFFFFFFFFFFFFFFFFFFFFFFFFFFFFFFFFFFFFFFFF AND PUSH20 0xFFFFFFFFFFFFFFFFFFFFFFFFFFFFFFFFFFFFFFFF AND DUP2 MSTORE PUSH1 0x20 ADD SWAP1 DUP2 MSTORE PUSH1 0x20 ADD PUSH1 0x0 KECCAK256 PUSH1 0x7 ADD PUSH1 0x0 DUP6 PUSH1 0xFF AND PUSH1 0xFF AND DUP2 MSTORE PUSH1 0x20 ADD SWAP1 DUP2 MSTORE PUSH1 0x20 ADD PUSH1 0x0 KECCAK256 PUSH1 0x4 ADD PUSH1 0x0 DUP3 DUP3 SLOAD ADD SWAP3 POP POP DUP2 SWAP1 SSTORE POP DUP1 PUSH20 0xFFFFFFFFFFFFFFFFFFFFFFFFFFFFFFFFFFFFFFFF AND PUSH32 0x71571CFDF540D399D1A547446D2F4090641FC35AE5BF0FA7148C5368A7D5912E TIMESTAMP PUSH1 0x6B PUSH1 0x0 DUP6 PUSH20 0xFFFFFFFFFFFFFFFFFFFFFFFFFFFFFFFFFFFFFFFF AND PUSH20 0xFFFFFFFFFFFFFFFFFFFFFFFFFFFFFFFFFFFFFFFF AND DUP2 MSTORE PUSH1 0x20 ADD SWAP1 DUP2 MSTORE PUSH1 0x20 ADD PUSH1 0x0 KECCAK256 PUSH1 0x0 ADD SLOAD PUSH1 0x6B PUSH1 0x0 DUP10 PUSH20 0xFFFFFFFFFFFFFFFFFFFFFFFFFFFFFFFFFFFFFFFF AND PUSH20 0xFFFFFFFFFFFFFFFFFFFFFFFFFFFFFFFFFFFFFFFF AND DUP2 MSTORE PUSH1 0x20 ADD SWAP1 DUP2 MSTORE PUSH1 0x20 ADD PUSH1 0x0 KECCAK256 PUSH1 0x0 ADD SLOAD DUP8 DUP8 PUSH1 0x40 MLOAD DUP1 DUP7 DUP2 MSTORE PUSH1 0x20 ADD DUP6 DUP2 MSTORE PUSH1 0x20 ADD DUP5 DUP2 MSTORE PUSH1 0x20 ADD DUP4 PUSH1 0xFF AND DUP2 MSTORE PUSH1 0x20 ADD DUP3 DUP2 MSTORE PUSH1 0x20 ADD SWAP6 POP POP POP POP POP POP PUSH1 0x40 MLOAD DUP1 SWAP2 SUB SWAP1 LOG2 PUSH1 0x66 PUSH1 0x2 SWAP1 SLOAD SWAP1 PUSH2 0x100 EXP SWAP1 DIV PUSH20 0xFFFFFFFFFFFFFFFFFFFFFFFFFFFFFFFFFFFFFFFF AND SWAP1 POP JUMPDEST PUSH1 0x0 DUP2 PUSH20 0xFFFFFFFFFFFFFFFFFFFFFFFFFFFFFFFFFFFFFFFF AND PUSH2 0x8FC DUP5 SWAP1 DUP2 ISZERO MUL SWAP1 PUSH1 0x40 MLOAD PUSH1 0x0 PUSH1 0x40 MLOAD DUP1 DUP4 SUB DUP2 DUP6 DUP9 DUP9 CALL SWAP4 POP POP POP POP SWAP1 POP DUP1 ISZERO PUSH2 0x510B JUMPI DUP3 PUSH1 0x6B PUSH1 0x0 DUP5 PUSH20 0xFFFFFFFFFFFFFFFFFFFFFFFFFFFFFFFFFFFFFFFF AND PUSH20 0xFFFFFFFFFFFFFFFFFFFFFFFFFFFFFFFFFFFFFFFF AND DUP2 MSTORE PUSH1 0x20 ADD SWAP1 DUP2 MSTORE PUSH1 0x20 ADD PUSH1 0x0 KECCAK256 PUSH1 0x7 ADD PUSH1 0x0 DUP7 PUSH1 0xFF AND PUSH1 0xFF AND DUP2 MSTORE PUSH1 0x20 ADD SWAP1 DUP2 MSTORE PUSH1 0x20 ADD PUSH1 0x0 KECCAK256 PUSH1 0x2 ADD PUSH1 0x0 DUP3 DUP3 SLOAD ADD SWAP3 POP POP DUP2 SWAP1 SSTORE POP DUP3 PUSH1 0x6B PUSH1 0x0 DUP5 PUSH20 0xFFFFFFFFFFFFFFFFFFFFFFFFFFFFFFFFFFFFFFFF AND PUSH20 0xFFFFFFFFFFFFFFFFFFFFFFFFFFFFFFFFFFFFFFFF AND DUP2 MSTORE PUSH1 0x20 ADD SWAP1 DUP2 MSTORE PUSH1 0x20 ADD PUSH1 0x0 KECCAK256 PUSH1 0x4 ADD PUSH1 0x0 DUP3 DUP3 SLOAD ADD SWAP3 POP POP DUP2 SWAP1 SSTORE POP DUP2 PUSH20 0xFFFFFFFFFFFFFFFFFFFFFFFFFFFFFFFFFFFFFFFF AND PUSH32 0xADBEAD61ED0E78434AF1793FE9C549F995680CCC1D4CC2015E78BFFC67B7B181 TIMESTAMP PUSH1 0x6B PUSH1 0x0 DUP7 PUSH20 0xFFFFFFFFFFFFFFFFFFFFFFFFFFFFFFFFFFFFFFFF AND PUSH20 0xFFFFFFFFFFFFFFFFFFFFFFFFFFFFFFFFFFFFFFFF AND DUP2 MSTORE PUSH1 0x20 ADD SWAP1 DUP2 MSTORE PUSH1 0x20 ADD PUSH1 0x0 KECCAK256 PUSH1 0x0 ADD SLOAD PUSH1 0x6B PUSH1 0x0 DUP11 PUSH20 0xFFFFFFFFFFFFFFFFFFFFFFFFFFFFFFFFFFFFFFFF AND PUSH20 0xFFFFFFFFFFFFFFFFFFFFFFFFFFFFFFFFFFFFFFFF AND DUP2 MSTORE PUSH1 0x20 ADD SWAP1 DUP2 MSTORE PUSH1 0x20 ADD PUSH1 0x0 KECCAK256 PUSH1 0x0 ADD SLOAD DUP9 DUP9 PUSH1 0x40 MLOAD DUP1 DUP7 DUP2 MSTORE PUSH1 0x20 ADD DUP6 DUP2 MSTORE PUSH1 0x20 ADD DUP5 DUP2 MSTORE PUSH1 0x20 ADD DUP4 PUSH1 0xFF AND DUP2 MSTORE PUSH1 0x20 ADD DUP3 DUP2 MSTORE PUSH1 0x20 ADD SWAP6 POP POP POP POP POP POP PUSH1 0x40 MLOAD DUP1 SWAP2 SUB SWAP1 LOG2 PUSH2 0x5175 JUMP JUMPDEST PUSH1 0x66 PUSH1 0x2 SWAP1 SLOAD SWAP1 PUSH2 0x100 EXP SWAP1 DIV PUSH20 0xFFFFFFFFFFFFFFFFFFFFFFFFFFFFFFFFFFFFFFFF AND PUSH20 0xFFFFFFFFFFFFFFFFFFFFFFFFFFFFFFFFFFFFFFFF AND PUSH2 0x8FC DUP5 SWAP1 DUP2 ISZERO MUL SWAP1 PUSH1 0x40 MLOAD PUSH1 0x0 PUSH1 0x40 MLOAD DUP1 DUP4 SUB DUP2 DUP6 DUP9 DUP9 CALL SWAP4 POP POP POP POP ISZERO DUP1 ISZERO PUSH2 0x5173 JUMPI RETURNDATASIZE PUSH1 0x0 DUP1 RETURNDATACOPY RETURNDATASIZE PUSH1 0x0 REVERT JUMPDEST POP JUMPDEST POP POP POP POP POP JUMP JUMPDEST PUSH1 0x40 MLOAD DUP1 PUSH1 0xA0 ADD PUSH1 0x40 MSTORE DUP1 PUSH1 0x5 SWAP1 PUSH1 0x20 DUP3 MUL DUP1 CALLDATASIZE DUP4 CALLDATACOPY DUP1 DUP3 ADD SWAP2 POP POP SWAP1 POP POP SWAP1 JUMP JUMPDEST PUSH1 0x40 MLOAD DUP1 PUSH2 0x200 ADD PUSH1 0x40 MSTORE DUP1 PUSH1 0x10 SWAP1 PUSH1 0x20 DUP3 MUL DUP1 CALLDATASIZE DUP4 CALLDATACOPY DUP1 DUP3 ADD SWAP2 POP POP SWAP1 POP POP SWAP1 JUMP JUMPDEST PUSH1 0x40 MLOAD DUP1 PUSH2 0x120 ADD PUSH1 0x40 MSTORE DUP1 PUSH1 0x0 DUP2 MSTORE PUSH1 0x20 ADD PUSH1 0x0 DUP2 MSTORE PUSH1 0x20 ADD PUSH1 0x0 PUSH20 0xFFFFFFFFFFFFFFFFFFFFFFFFFFFFFFFFFFFFFFFF AND DUP2 MSTORE PUSH1 0x20 ADD PUSH1 0x0 DUP2 MSTORE PUSH1 0x20 ADD PUSH1 0x0 DUP2 MSTORE PUSH1 0x20 ADD PUSH1 0x0 DUP2 MSTORE PUSH1 0x20 ADD PUSH1 0x0 DUP2 MSTORE PUSH1 0x20 ADD PUSH1 0x0 PUSH1 0xFF AND DUP2 MSTORE PUSH1 0x20 ADD PUSH1 0x0 DUP2 MSTORE POP SWAP1 JUMP JUMPDEST PUSH1 0x40 MLOAD DUP1 PUSH2 0x640 ADD PUSH1 0x40 MSTORE DUP1 PUSH1 0x32 SWAP1 PUSH1 0x20 DUP3 MUL DUP1 CALLDATASIZE DUP4 CALLDATACOPY DUP1 DUP3 ADD SWAP2 POP POP SWAP1 POP POP SWAP1 JUMP INVALID NUMBER PUSH2 0x6E27 PUSH21 0x2066696E6420726F756E6420746F206275792E204D PUSH2 0x7962 PUSH6 0x2073656E7420 PUSH23 0x616C756520697320696E76616C69642EA2646970667358 0x22 SLT KECCAK256 DELEGATECALL DUP5 0xBE 0xDC 0xF9 0xC3 0x5C SGT PUSH5 0x754E8BD9EE SWAP14 0xD 0xD5 0xBA 0xBE 0x49 SWAP8 0xF9 PUSH13 0x2D096877C324F2783564736F6C PUSH4 0x4300060C STOP CALLER "
				},
				"gasEstimates": {
					"creation": {
						"codeDepositCost": "4234400",
						"executionCost": "infinite",
						"totalCost": "infinite"
					},
					"external": {
						"Lottery(uint256)": "infinite",
						"RoiRounds(uint256)": "1175",
						"buyFirstRound(address)": "infinite",
						"buyround(uint8)": "infinite",
						"calcSecretPrize(uint8)": "infinite",
						"getContractBalance()": "305",
						"getGlobalStatistic()": "infinite",
						"getLotteryWiner()": "infinite",
						"getPlaceInQueue(address,uint8)": "infinite",
						"getPrize()": "infinite",
						"getReferrer(address)": "2343",
						"getReferrerId(address)": "2280",
						"getRoiRound()": "infinite",
						"getUser(address)": "9543",
						"getUserAddressById(uint256)": "1265",
						"getUserIdByAddress(address)": "1314",
						"getUserrounds(address)": "infinite",
						"getUserroundsMissedProfit(address)": "infinite",
						"getroundPrices()": "infinite",
						"gettimeRoundEnd()": "infinite",
						"income()": "254",
						"isContract(address)": "1109",
						"isUserRegistered(address)": "1308",
						"lastTimeActivation(address)": "1258",
						"marketing()": "1093",
						"marketingPercents()": "343",
						"nextWinerSecretGame(uint256)": "1250",
						"owner()": "1186",
						"referralRewardPercents()": "1092",
						"referralRewardProfitPercents()": "1142",
						"register()": "infinite",
						"registerWithReferrer(address)": "infinite",
						"registrationPrice()": "251",
						"rewardPayouts()": "345",
						"rewardPercents()": "255",
						"roundPrice(uint256)": "2113",
						"timeLottery()": "1117",
						"timeRoudsEnd(uint256)": "1240",
						"todayWiner(uint256)": "1295",
						"todayWinerValue()": "1159",
						"users(address)": "7990"
					},
					"internal": {
						"sendPostRewardToReferrer(address,uint8,uint256)": "infinite",
						"sendRewardToReferrer(address,uint8,uint256)": "infinite"
					}
				},
				"methodIdentifiers": {
					"Lottery(uint256)": "950fabf3",
					"RoiRounds(uint256)": "693864f3",
					"buyFirstRound(address)": "b3791e7f",
					"buyround(uint8)": "5a8a14d0",
					"calcSecretPrize(uint8)": "375e3b55",
					"getContractBalance()": "6f9fb98a",
					"getGlobalStatistic()": "2a2c908e",
					"getLotteryWiner()": "8c4636c1",
					"getPlaceInQueue(address,uint8)": "cfce5044",
					"getPrize()": "c34f6b0d",
					"getReferrer(address)": "4a9fefc7",
					"getReferrerId(address)": "bd4b77ee",
					"getRoiRound()": "c8e161a1",
					"getUser(address)": "6f77926b",
					"getUserAddressById(uint256)": "8a03ad86",
					"getUserIdByAddress(address)": "385399f9",
					"getUserrounds(address)": "230f7f82",
					"getUserroundsMissedProfit(address)": "5c279ff9",
					"getroundPrices()": "01b91a17",
					"gettimeRoundEnd()": "3336b63e",
					"income()": "88b45046",
					"isContract(address)": "16279055",
					"isUserRegistered(address)": "163f7522",
					"lastTimeActivation(address)": "a9a9cfe0",
					"marketing()": "2d3e474a",
					"marketingPercents()": "eca2c026",
					"nextWinerSecretGame(uint256)": "26efd443",
					"owner()": "8da5cb5b",
					"referralRewardPercents()": "4cdbe908",
					"referralRewardProfitPercents()": "a7345f56",
					"register()": "1aa3a008",
					"registerWithReferrer(address)": "968763a0",
					"registrationPrice()": "21658658",
					"rewardPayouts()": "2cc8da43",
					"rewardPercents()": "bfe24893",
					"roundPrice(uint256)": "5d7b1cc9",
					"timeLottery()": "7ccd94da",
					"timeRoudsEnd(uint256)": "5ce974b9",
					"todayWiner(uint256)": "1dfd8fe0",
					"todayWinerValue()": "f21efb5b",
					"users(address)": "a87430ba"
				}
			},
			"storageLayout": {
				"storage": [
					{
						"astId": 9,
						"contract": "contract/lottery.sol:LotteryWCA",
						"label": "_status",
						"offset": 0,
						"slot": "0",
						"type": "t_uint256"
					},
					{
						"astId": 43,
						"contract": "contract/lottery.sol:LotteryWCA",
						"label": "todayWiner",
						"offset": 0,
						"slot": "1",
						"type": "t_array(t_address)50_storage"
					},
					{
						"astId": 45,
						"contract": "contract/lottery.sol:LotteryWCA",
						"label": "todayWinerValue",
						"offset": 0,
						"slot": "51",
						"type": "t_uint256"
					},
					{
						"astId": 47,
						"contract": "contract/lottery.sol:LotteryWCA",
						"label": "timeLottery",
						"offset": 0,
						"slot": "52",
						"type": "t_uint256"
					},
					{
						"astId": 51,
						"contract": "contract/lottery.sol:LotteryWCA",
						"label": "RoiRounds",
						"offset": 0,
						"slot": "53",
						"type": "t_array(t_uint256)16_storage"
					},
					{
						"astId": 55,
						"contract": "contract/lottery.sol:LotteryWCA",
						"label": "timeRoudsEnd",
						"offset": 0,
						"slot": "69",
						"type": "t_array(t_uint256)16_storage"
					},
					{
						"astId": 59,
						"contract": "contract/lottery.sol:LotteryWCA",
						"label": "nextWinerSecretGame",
						"offset": 0,
						"slot": "85",
						"type": "t_array(t_address)16_storage"
					},
					{
						"astId": 63,
						"contract": "contract/lottery.sol:LotteryWCA",
						"label": "lastTimeActivation",
						"offset": 0,
						"slot": "101",
						"type": "t_mapping(t_address,t_uint256)"
					},
					{
						"astId": 269,
						"contract": "contract/lottery.sol:LotteryWCA",
						"label": "referralRewardPercents",
						"offset": 0,
						"slot": "102",
						"type": "t_uint8"
					},
					{
						"astId": 272,
						"contract": "contract/lottery.sol:LotteryWCA",
						"label": "referralRewardProfitPercents",
						"offset": 1,
						"slot": "102",
						"type": "t_uint8"
					},
					{
						"astId": 274,
						"contract": "contract/lottery.sol:LotteryWCA",
						"label": "owner",
						"offset": 2,
						"slot": "102",
						"type": "t_address_payable"
					},
					{
						"astId": 276,
						"contract": "contract/lottery.sol:LotteryWCA",
						"label": "marketing",
						"offset": 0,
						"slot": "103",
						"type": "t_address_payable"
					},
					{
						"astId": 296,
						"contract": "contract/lottery.sol:LotteryWCA",
						"label": "roundPrice",
						"offset": 0,
						"slot": "104",
						"type": "t_array(t_uint256)dyn_storage"
					},
					{
						"astId": 302,
						"contract": "contract/lottery.sol:LotteryWCA",
						"label": "totalrounds",
						"offset": 0,
						"slot": "105",
						"type": "t_uint256"
					},
					{
						"astId": 305,
						"contract": "contract/lottery.sol:LotteryWCA",
						"label": "newUserId",
						"offset": 0,
						"slot": "106",
						"type": "t_uint256"
					},
					{
						"astId": 309,
						"contract": "contract/lottery.sol:LotteryWCA",
						"label": "users",
						"offset": 0,
						"slot": "107",
						"type": "t_mapping(t_address,t_struct(User)86_storage)"
					},
					{
						"astId": 313,
						"contract": "contract/lottery.sol:LotteryWCA",
						"label": "usersAddressById",
						"offset": 0,
						"slot": "108",
						"type": "t_mapping(t_uint256,t_address)"
					},
					{
						"astId": 318,
						"contract": "contract/lottery.sol:LotteryWCA",
						"label": "roundQueue",
						"offset": 0,
						"slot": "109",
						"type": "t_mapping(t_uint8,t_array(t_address)dyn_storage)"
					},
					{
						"astId": 322,
						"contract": "contract/lottery.sol:LotteryWCA",
						"label": "headIndex",
						"offset": 0,
						"slot": "110",
						"type": "t_mapping(t_uint8,t_uint256)"
					},
					{
						"astId": 324,
						"contract": "contract/lottery.sol:LotteryWCA",
						"label": "globalStat",
						"offset": 0,
						"slot": "111",
						"type": "t_struct(GlobalStat)114_storage"
					}
				],
				"types": {
					"t_address": {
						"encoding": "inplace",
						"label": "address",
						"numberOfBytes": "20"
					},
					"t_address_payable": {
						"encoding": "inplace",
						"label": "address payable",
						"numberOfBytes": "20"
					},
					"t_array(t_address)16_storage": {
						"base": "t_address",
						"encoding": "inplace",
						"label": "address[16]",
						"numberOfBytes": "512"
					},
					"t_array(t_address)50_storage": {
						"base": "t_address",
						"encoding": "inplace",
						"label": "address[50]",
						"numberOfBytes": "1600"
					},
					"t_array(t_address)dyn_storage": {
						"base": "t_address",
						"encoding": "dynamic_array",
						"label": "address[]",
						"numberOfBytes": "32"
					},
					"t_array(t_uint256)16_storage": {
						"base": "t_uint256",
						"encoding": "inplace",
						"label": "uint256[16]",
						"numberOfBytes": "512"
					},
					"t_array(t_uint256)dyn_storage": {
						"base": "t_uint256",
						"encoding": "dynamic_array",
						"label": "uint256[]",
						"numberOfBytes": "32"
					},
					"t_bool": {
						"encoding": "inplace",
						"label": "bool",
						"numberOfBytes": "1"
					},
					"t_mapping(t_address,t_struct(User)86_storage)": {
						"encoding": "mapping",
						"key": "t_address",
						"label": "mapping(address => struct LotteryWCA.User)",
						"numberOfBytes": "32",
						"value": "t_struct(User)86_storage"
					},
					"t_mapping(t_address,t_uint256)": {
						"encoding": "mapping",
						"key": "t_address",
						"label": "mapping(address => uint256)",
						"numberOfBytes": "32",
						"value": "t_uint256"
					},
					"t_mapping(t_uint256,t_address)": {
						"encoding": "mapping",
						"key": "t_uint256",
						"label": "mapping(uint256 => address)",
						"numberOfBytes": "32",
						"value": "t_address"
					},
					"t_mapping(t_uint8,t_array(t_address)dyn_storage)": {
						"encoding": "mapping",
						"key": "t_uint8",
						"label": "mapping(uint8 => address[])",
						"numberOfBytes": "32",
						"value": "t_array(t_address)dyn_storage"
					},
					"t_mapping(t_uint8,t_struct(UserroundInfo)105_storage)": {
						"encoding": "mapping",
						"key": "t_uint8",
						"label": "mapping(uint8 => struct LotteryWCA.UserroundInfo)",
						"numberOfBytes": "32",
						"value": "t_struct(UserroundInfo)105_storage"
					},
					"t_mapping(t_uint8,t_uint256)": {
						"encoding": "mapping",
						"key": "t_uint8",
						"label": "mapping(uint8 => uint256)",
						"numberOfBytes": "32",
						"value": "t_uint256"
					},
					"t_struct(GlobalStat)114_storage": {
						"encoding": "inplace",
						"label": "struct LotteryWCA.GlobalStat",
						"members": [
							{
								"astId": 107,
								"contract": "contract/lottery.sol:LotteryWCA",
								"label": "members",
								"offset": 0,
								"slot": "0",
								"type": "t_uint256"
							},
							{
								"astId": 109,
								"contract": "contract/lottery.sol:LotteryWCA",
								"label": "transactions",
								"offset": 0,
								"slot": "1",
								"type": "t_uint256"
							},
							{
								"astId": 111,
								"contract": "contract/lottery.sol:LotteryWCA",
								"label": "turnover",
								"offset": 0,
								"slot": "2",
								"type": "t_uint256"
							},
							{
								"astId": 113,
								"contract": "contract/lottery.sol:LotteryWCA",
								"label": "lucky",
								"offset": 0,
								"slot": "3",
								"type": "t_uint256"
							}
						],
						"numberOfBytes": "128"
					},
					"t_struct(User)86_storage": {
						"encoding": "inplace",
						"label": "struct LotteryWCA.User",
						"members": [
							{
								"astId": 65,
								"contract": "contract/lottery.sol:LotteryWCA",
								"label": "id",
								"offset": 0,
								"slot": "0",
								"type": "t_uint256"
							},
							{
								"astId": 67,
								"contract": "contract/lottery.sol:LotteryWCA",
								"label": "registrationTimestamp",
								"offset": 0,
								"slot": "1",
								"type": "t_uint256"
							},
							{
								"astId": 69,
								"contract": "contract/lottery.sol:LotteryWCA",
								"label": "referrer",
								"offset": 0,
								"slot": "2",
								"type": "t_address"
							},
							{
								"astId": 71,
								"contract": "contract/lottery.sol:LotteryWCA",
								"label": "referrals",
								"offset": 0,
								"slot": "3",
								"type": "t_uint256"
							},
							{
								"astId": 73,
								"contract": "contract/lottery.sol:LotteryWCA",
								"label": "referralPayoutSum",
								"offset": 0,
								"slot": "4",
								"type": "t_uint256"
							},
							{
								"astId": 75,
								"contract": "contract/lottery.sol:LotteryWCA",
								"label": "roundsRewardSum",
								"offset": 0,
								"slot": "5",
								"type": "t_uint256"
							},
							{
								"astId": 77,
								"contract": "contract/lottery.sol:LotteryWCA",
								"label": "missedReferralPayoutSum",
								"offset": 0,
								"slot": "6",
								"type": "t_uint256"
							},
							{
								"astId": 81,
								"contract": "contract/lottery.sol:LotteryWCA",
								"label": "rounds",
								"offset": 0,
								"slot": "7",
								"type": "t_mapping(t_uint8,t_struct(UserroundInfo)105_storage)"
							},
							{
								"astId": 83,
								"contract": "contract/lottery.sol:LotteryWCA",
								"label": "maxRound",
								"offset": 0,
								"slot": "8",
								"type": "t_uint8"
							},
							{
								"astId": 85,
								"contract": "contract/lottery.sol:LotteryWCA",
								"label": "turnover",
								"offset": 0,
								"slot": "9",
								"type": "t_uint256"
							}
						],
						"numberOfBytes": "320"
					},
					"t_struct(UserroundInfo)105_storage": {
						"encoding": "inplace",
						"label": "struct LotteryWCA.UserroundInfo",
						"members": [
							{
								"astId": 88,
								"contract": "contract/lottery.sol:LotteryWCA",
								"label": "activationTimes",
								"offset": 0,
								"slot": "0",
								"type": "t_uint16"
							},
							{
								"astId": 90,
								"contract": "contract/lottery.sol:LotteryWCA",
								"label": "maxPayouts",
								"offset": 2,
								"slot": "0",
								"type": "t_uint16"
							},
							{
								"astId": 92,
								"contract": "contract/lottery.sol:LotteryWCA",
								"label": "payouts",
								"offset": 4,
								"slot": "0",
								"type": "t_uint16"
							},
							{
								"astId": 94,
								"contract": "contract/lottery.sol:LotteryWCA",
								"label": "active",
								"offset": 6,
								"slot": "0",
								"type": "t_bool"
							},
							{
								"astId": 96,
								"contract": "contract/lottery.sol:LotteryWCA",
								"label": "rewardSum",
								"offset": 0,
								"slot": "1",
								"type": "t_uint256"
							},
							{
								"astId": 98,
								"contract": "contract/lottery.sol:LotteryWCA",
								"label": "referralPayoutSum",
								"offset": 0,
								"slot": "2",
								"type": "t_uint256"
							},
							{
								"astId": 100,
								"contract": "contract/lottery.sol:LotteryWCA",
								"label": "lastTimeBuyround",
								"offset": 0,
								"slot": "3",
								"type": "t_uint256"
							},
							{
								"astId": 102,
								"contract": "contract/lottery.sol:LotteryWCA",
								"label": "missedRefferalProfit",
								"offset": 0,
								"slot": "4",
								"type": "t_uint256"
							},
							{
								"astId": 104,
								"contract": "contract/lottery.sol:LotteryWCA",
								"label": "missedRefferalPostProfit",
								"offset": 0,
								"slot": "5",
								"type": "t_uint256"
							}
						],
						"numberOfBytes": "192"
					},
					"t_uint16": {
						"encoding": "inplace",
						"label": "uint16",
						"numberOfBytes": "2"
					},
					"t_uint256": {
						"encoding": "inplace",
						"label": "uint256",
						"numberOfBytes": "32"
					},
					"t_uint8": {
						"encoding": "inplace",
						"label": "uint8",
						"numberOfBytes": "1"
					}
				}
			},
			"userdoc": {
				"kind": "user",
				"methods": {},
				"version": 1
			}
		}
	}
}