{
	"contract/lottery.sol": {
		"LotteryWCA": {
			"abi": [
				{
					"inputs": [
						{
							"internalType": "address payable",
							"name": "_marketing",
							"type": "address"
						}
					],
					"stateMutability": "nonpayable",
					"type": "constructor"
				},
				{
					"anonymous": false,
					"inputs": [
						{
							"indexed": false,
							"internalType": "uint256",
							"name": "time",
							"type": "uint256"
						},
						{
							"indexed": true,
							"internalType": "address",
							"name": "adress",
							"type": "address"
						},
						{
							"indexed": false,
							"internalType": "uint256",
							"name": "userId",
							"type": "uint256"
						},
						{
							"indexed": false,
							"internalType": "uint8",
							"name": "round",
							"type": "uint8"
						}
					],
					"name": "Buyround",
					"type": "event"
				},
				{
					"anonymous": false,
					"inputs": [
						{
							"indexed": false,
							"internalType": "uint256",
							"name": "time",
							"type": "uint256"
						},
						{
							"indexed": true,
							"internalType": "address",
							"name": "adress",
							"type": "address"
						},
						{
							"indexed": false,
							"internalType": "uint256",
							"name": "userId",
							"type": "uint256"
						},
						{
							"indexed": false,
							"internalType": "uint8",
							"name": "round",
							"type": "uint8"
						},
						{
							"indexed": false,
							"internalType": "uint16",
							"name": "newMaxPayouts",
							"type": "uint16"
						}
					],
					"name": "IncreaseroundMaxPayouts",
					"type": "event"
				},
				{
					"anonymous": false,
					"inputs": [
						{
							"indexed": false,
							"internalType": "uint256",
							"name": "time",
							"type": "uint256"
						},
						{
							"indexed": true,
							"internalType": "address",
							"name": "adress",
							"type": "address"
						},
						{
							"indexed": false,
							"internalType": "uint256",
							"name": "referrerId",
							"type": "uint256"
						},
						{
							"indexed": false,
							"internalType": "uint256",
							"name": "referralId",
							"type": "uint256"
						},
						{
							"indexed": false,
							"internalType": "uint8",
							"name": "round",
							"type": "uint8"
						},
						{
							"indexed": false,
							"internalType": "uint256",
							"name": "rewardValue",
							"type": "uint256"
						}
					],
					"name": "MissedReferralPayout",
					"type": "event"
				},
				{
					"anonymous": false,
					"inputs": [
						{
							"indexed": false,
							"internalType": "uint256",
							"name": "time",
							"type": "uint256"
						},
						{
							"indexed": true,
							"internalType": "address",
							"name": "adress",
							"type": "address"
						},
						{
							"indexed": false,
							"internalType": "uint256",
							"name": "referrerId",
							"type": "uint256"
						},
						{
							"indexed": false,
							"internalType": "uint256",
							"name": "referralId",
							"type": "uint256"
						},
						{
							"indexed": false,
							"internalType": "uint8",
							"name": "round",
							"type": "uint8"
						},
						{
							"indexed": false,
							"internalType": "uint256",
							"name": "rewardValue",
							"type": "uint256"
						}
					],
					"name": "MissedReferralPostPayout",
					"type": "event"
				},
				{
					"anonymous": false,
					"inputs": [
						{
							"indexed": false,
							"internalType": "uint256",
							"name": "time",
							"type": "uint256"
						},
						{
							"indexed": true,
							"internalType": "address",
							"name": "adress",
							"type": "address"
						},
						{
							"indexed": false,
							"internalType": "uint256",
							"name": "referrerId",
							"type": "uint256"
						},
						{
							"indexed": false,
							"internalType": "uint256",
							"name": "referralId",
							"type": "uint256"
						},
						{
							"indexed": false,
							"internalType": "uint8",
							"name": "round",
							"type": "uint8"
						},
						{
							"indexed": false,
							"internalType": "uint256",
							"name": "rewardValue",
							"type": "uint256"
						}
					],
					"name": "ReferralPayout",
					"type": "event"
				},
				{
					"anonymous": false,
					"inputs": [
						{
							"indexed": false,
							"internalType": "uint256",
							"name": "time",
							"type": "uint256"
						},
						{
							"indexed": true,
							"internalType": "address",
							"name": "adress",
							"type": "address"
						},
						{
							"indexed": false,
							"internalType": "uint256",
							"name": "referrerId",
							"type": "uint256"
						},
						{
							"indexed": false,
							"internalType": "uint256",
							"name": "referralId",
							"type": "uint256"
						},
						{
							"indexed": false,
							"internalType": "uint8",
							"name": "round",
							"type": "uint8"
						},
						{
							"indexed": false,
							"internalType": "uint256",
							"name": "rewardValue",
							"type": "uint256"
						}
					],
					"name": "ReferralPostPayout",
					"type": "event"
				},
				{
					"anonymous": false,
					"inputs": [
						{
							"indexed": false,
							"internalType": "uint256",
							"name": "time",
							"type": "uint256"
						},
						{
							"indexed": true,
							"internalType": "address",
							"name": "adress",
							"type": "address"
						},
						{
							"indexed": false,
							"internalType": "uint256",
							"name": "referralId",
							"type": "uint256"
						},
						{
							"indexed": false,
							"internalType": "uint256",
							"name": "referrerId",
							"type": "uint256"
						}
					],
					"name": "UserRegistration",
					"type": "event"
				},
				{
					"anonymous": false,
					"inputs": [
						{
							"indexed": false,
							"internalType": "uint256",
							"name": "time",
							"type": "uint256"
						},
						{
							"indexed": true,
							"internalType": "address",
							"name": "WinerSecretGame",
							"type": "address"
						},
						{
							"indexed": false,
							"internalType": "uint8",
							"name": "round",
							"type": "uint8"
						},
						{
							"indexed": false,
							"internalType": "uint256",
							"name": "valueSecretPrize",
							"type": "uint256"
						}
					],
					"name": "WinerForeverGame",
					"type": "event"
				},
				{
					"anonymous": false,
					"inputs": [
						{
							"indexed": false,
							"internalType": "uint256",
							"name": "time",
							"type": "uint256"
						},
						{
							"indexed": true,
							"internalType": "address",
							"name": "payedUser",
							"type": "address"
						},
						{
							"indexed": false,
							"internalType": "uint256",
							"name": "payPrize",
							"type": "uint256"
						}
					],
					"name": "payedPrize",
					"type": "event"
				},
				{
					"anonymous": false,
					"inputs": [
						{
							"indexed": false,
							"internalType": "uint256",
							"name": "time",
							"type": "uint256"
						},
						{
							"indexed": true,
							"internalType": "address",
							"name": "adress",
							"type": "address"
						},
						{
							"indexed": false,
							"internalType": "uint256",
							"name": "userId",
							"type": "uint256"
						},
						{
							"indexed": false,
							"internalType": "uint8",
							"name": "round",
							"type": "uint8"
						}
					],
					"name": "roundDeactivation",
					"type": "event"
				},
				{
					"anonymous": false,
					"inputs": [
						{
							"indexed": false,
							"internalType": "uint256",
							"name": "time",
							"type": "uint256"
						},
						{
							"indexed": true,
							"internalType": "address",
							"name": "adress",
							"type": "address"
						},
						{
							"indexed": false,
							"internalType": "uint256",
							"name": "userId",
							"type": "uint256"
						},
						{
							"indexed": false,
							"internalType": "uint8",
							"name": "round",
							"type": "uint8"
						},
						{
							"indexed": false,
							"internalType": "uint256",
							"name": "rewardValue",
							"type": "uint256"
						},
						{
							"indexed": false,
							"internalType": "uint256",
							"name": "fromUserId",
							"type": "uint256"
						},
						{
							"indexed": false,
							"internalType": "uint256",
							"name": "RoiRound",
							"type": "uint256"
						}
					],
					"name": "roundPayout",
					"type": "event"
				},
				{
					"anonymous": false,
					"inputs": [
						{
							"indexed": false,
							"internalType": "uint256",
							"name": "time",
							"type": "uint256"
						},
						{
							"indexed": true,
							"internalType": "address",
							"name": "win",
							"type": "address"
						},
						{
							"indexed": false,
							"internalType": "uint256",
							"name": "winPrize",
							"type": "uint256"
						}
					],
					"name": "winLottery",
					"type": "event"
				},
				{
					"inputs": [
						{
							"internalType": "uint256",
							"name": "ticket",
							"type": "uint256"
						}
					],
					"name": "Lottery",
					"outputs": [],
					"stateMutability": "nonpayable",
					"type": "function"
				},
				{
					"inputs": [
						{
							"internalType": "uint256",
							"name": "",
							"type": "uint256"
						}
					],
					"name": "RoiRounds",
					"outputs": [
						{
							"internalType": "uint256",
							"name": "",
							"type": "uint256"
						}
					],
					"stateMutability": "view",
					"type": "function"
				},
				{
					"inputs": [
						{
							"internalType": "address",
							"name": "referrer",
							"type": "address"
						}
					],
					"name": "buyFirstRound",
					"outputs": [],
					"stateMutability": "payable",
					"type": "function"
				},
				{
					"inputs": [
						{
							"internalType": "uint8",
							"name": "round",
							"type": "uint8"
						}
					],
					"name": "buyround",
					"outputs": [],
					"stateMutability": "payable",
					"type": "function"
				},
				{
					"inputs": [
						{
							"internalType": "uint8",
							"name": "round",
							"type": "uint8"
						}
					],
					"name": "calcSecretPrize",
					"outputs": [
						{
							"internalType": "uint256",
							"name": "value",
							"type": "uint256"
						}
					],
					"stateMutability": "view",
					"type": "function"
				},
				{
					"inputs": [],
					"name": "getContractBalance",
					"outputs": [
						{
							"internalType": "uint256",
							"name": "",
							"type": "uint256"
						}
					],
					"stateMutability": "view",
					"type": "function"
				},
				{
					"inputs": [],
					"name": "getGlobalStatistic",
					"outputs": [
						{
							"internalType": "uint256[5]",
							"name": "result",
							"type": "uint256[5]"
						}
					],
					"stateMutability": "view",
					"type": "function"
				},
				{
					"inputs": [],
					"name": "getLotteryWiner",
					"outputs": [
						{
							"internalType": "address[50]",
							"name": "",
							"type": "address[50]"
						}
					],
					"stateMutability": "view",
					"type": "function"
				},
				{
					"inputs": [
						{
							"internalType": "address",
							"name": "userAddress",
							"type": "address"
						},
						{
							"internalType": "uint8",
							"name": "round",
							"type": "uint8"
						}
					],
					"name": "getPlaceInQueue",
					"outputs": [
						{
							"internalType": "uint256",
							"name": "",
							"type": "uint256"
						},
						{
							"internalType": "uint256",
							"name": "",
							"type": "uint256"
						}
					],
					"stateMutability": "view",
					"type": "function"
				},
				{
					"inputs": [],
					"name": "getPrize",
					"outputs": [],
					"stateMutability": "nonpayable",
					"type": "function"
				},
				{
					"inputs": [
						{
							"internalType": "address",
							"name": "userAddress",
							"type": "address"
						}
					],
					"name": "getReferrer",
					"outputs": [
						{
							"internalType": "address",
							"name": "",
							"type": "address"
						}
					],
					"stateMutability": "view",
					"type": "function"
				},
				{
					"inputs": [
						{
							"internalType": "address",
							"name": "userAddress",
							"type": "address"
						}
					],
					"name": "getReferrerId",
					"outputs": [
						{
							"internalType": "uint256",
							"name": "",
							"type": "uint256"
						}
					],
					"stateMutability": "view",
					"type": "function"
				},
				{
					"inputs": [],
					"name": "getRoiRound",
					"outputs": [
						{
							"internalType": "uint256[16]",
							"name": "",
							"type": "uint256[16]"
						}
					],
					"stateMutability": "view",
					"type": "function"
				},
				{
					"inputs": [
						{
							"internalType": "address",
							"name": "userAddress",
							"type": "address"
						}
					],
					"name": "getUser",
					"outputs": [
						{
							"internalType": "uint256",
							"name": "",
							"type": "uint256"
						},
						{
							"internalType": "uint256",
							"name": "",
							"type": "uint256"
						},
						{
							"internalType": "uint256",
							"name": "",
							"type": "uint256"
						},
						{
							"internalType": "address",
							"name": "",
							"type": "address"
						},
						{
							"internalType": "uint256",
							"name": "",
							"type": "uint256"
						},
						{
							"internalType": "uint256",
							"name": "",
							"type": "uint256"
						},
						{
							"internalType": "uint256",
							"name": "",
							"type": "uint256"
						},
						{
							"internalType": "uint256",
							"name": "",
							"type": "uint256"
						},
						{
							"internalType": "uint256",
							"name": "",
							"type": "uint256"
						},
						{
							"internalType": "uint256",
							"name": "",
							"type": "uint256"
						}
					],
					"stateMutability": "view",
					"type": "function"
				},
				{
					"inputs": [
						{
							"internalType": "uint256",
							"name": "userId",
							"type": "uint256"
						}
					],
					"name": "getUserAddressById",
					"outputs": [
						{
							"internalType": "address",
							"name": "",
							"type": "address"
						}
					],
					"stateMutability": "view",
					"type": "function"
				},
				{
					"inputs": [
						{
							"internalType": "address",
							"name": "userAddress",
							"type": "address"
						}
					],
					"name": "getUserIdByAddress",
					"outputs": [
						{
							"internalType": "uint256",
							"name": "",
							"type": "uint256"
						}
					],
					"stateMutability": "view",
					"type": "function"
				},
				{
					"inputs": [
						{
							"internalType": "address",
							"name": "userAddress",
							"type": "address"
						}
					],
					"name": "getUserrounds",
					"outputs": [
						{
							"internalType": "bool[]",
							"name": "",
							"type": "bool[]"
						},
						{
							"internalType": "uint16[]",
							"name": "",
							"type": "uint16[]"
						},
						{
							"internalType": "uint16[]",
							"name": "",
							"type": "uint16[]"
						},
						{
							"internalType": "uint16[]",
							"name": "",
							"type": "uint16[]"
						},
						{
							"internalType": "uint256[]",
							"name": "",
							"type": "uint256[]"
						},
						{
							"internalType": "uint256[]",
							"name": "",
							"type": "uint256[]"
						}
					],
					"stateMutability": "view",
					"type": "function"
				},
				{
					"inputs": [
						{
							"internalType": "address",
							"name": "userAddress",
							"type": "address"
						}
					],
					"name": "getUserroundsMissedProfit",
					"outputs": [
						{
							"internalType": "uint256[]",
							"name": "",
							"type": "uint256[]"
						},
						{
							"internalType": "uint256[]",
							"name": "",
							"type": "uint256[]"
						}
					],
					"stateMutability": "view",
					"type": "function"
				},
				{
					"inputs": [],
					"name": "getroundPrices",
					"outputs": [
						{
							"internalType": "uint256[]",
							"name": "",
							"type": "uint256[]"
						}
					],
					"stateMutability": "view",
					"type": "function"
				},
				{
					"inputs": [],
					"name": "gettimeRoundEnd",
					"outputs": [
						{
							"internalType": "uint256[16]",
							"name": "",
							"type": "uint256[16]"
						}
					],
					"stateMutability": "view",
					"type": "function"
				},
				{
					"inputs": [],
					"name": "income",
					"outputs": [],
					"stateMutability": "payable",
					"type": "function"
				},
				{
					"inputs": [
						{
							"internalType": "address",
							"name": "addr",
							"type": "address"
						}
					],
					"name": "isContract",
					"outputs": [
						{
							"internalType": "bool",
							"name": "",
							"type": "bool"
						}
					],
					"stateMutability": "view",
					"type": "function"
				},
				{
					"inputs": [
						{
							"internalType": "address",
							"name": "addr",
							"type": "address"
						}
					],
					"name": "isUserRegistered",
					"outputs": [
						{
							"internalType": "bool",
							"name": "",
							"type": "bool"
						}
					],
					"stateMutability": "view",
					"type": "function"
				},
				{
					"inputs": [
						{
							"internalType": "address",
							"name": "",
							"type": "address"
						}
					],
					"name": "lastTimeActivation",
					"outputs": [
						{
							"internalType": "uint256",
							"name": "",
							"type": "uint256"
						}
					],
					"stateMutability": "view",
					"type": "function"
				},
				{
					"inputs": [],
					"name": "marketing",
					"outputs": [
						{
							"internalType": "address payable",
							"name": "",
							"type": "address"
						}
					],
					"stateMutability": "view",
					"type": "function"
				},
				{
					"inputs": [],
					"name": "marketingPercents",
					"outputs": [
						{
							"internalType": "uint8",
							"name": "",
							"type": "uint8"
						}
					],
					"stateMutability": "view",
					"type": "function"
				},
				{
					"inputs": [
						{
							"internalType": "uint256",
							"name": "",
							"type": "uint256"
						}
					],
					"name": "nextWinerSecretGame",
					"outputs": [
						{
							"internalType": "address",
							"name": "",
							"type": "address"
						}
					],
					"stateMutability": "view",
					"type": "function"
				},
				{
					"inputs": [],
					"name": "owner",
					"outputs": [
						{
							"internalType": "address payable",
							"name": "",
							"type": "address"
						}
					],
					"stateMutability": "view",
					"type": "function"
				},
				{
					"inputs": [],
					"name": "referralRewardPercents",
					"outputs": [
						{
							"internalType": "uint8",
							"name": "",
							"type": "uint8"
						}
					],
					"stateMutability": "view",
					"type": "function"
				},
				{
					"inputs": [],
					"name": "referralRewardProfitPercents",
					"outputs": [
						{
							"internalType": "uint8",
							"name": "",
							"type": "uint8"
						}
					],
					"stateMutability": "view",
					"type": "function"
				},
				{
					"inputs": [],
					"name": "register",
					"outputs": [],
					"stateMutability": "payable",
					"type": "function"
				},
				{
					"inputs": [
						{
							"internalType": "address",
							"name": "referrer",
							"type": "address"
						}
					],
					"name": "registerWithReferrer",
					"outputs": [],
					"stateMutability": "payable",
					"type": "function"
				},
				{
					"inputs": [],
					"name": "registrationPrice",
					"outputs": [
						{
							"internalType": "uint256",
							"name": "",
							"type": "uint256"
						}
					],
					"stateMutability": "view",
					"type": "function"
				},
				{
					"inputs": [],
					"name": "rewardPayouts",
					"outputs": [
						{
							"internalType": "uint8",
							"name": "",
							"type": "uint8"
						}
					],
					"stateMutability": "view",
					"type": "function"
				},
				{
					"inputs": [],
					"name": "rewardPercents",
					"outputs": [
						{
							"internalType": "uint8",
							"name": "",
							"type": "uint8"
						}
					],
					"stateMutability": "view",
					"type": "function"
				},
				{
					"inputs": [
						{
							"internalType": "uint256",
							"name": "",
							"type": "uint256"
						}
					],
					"name": "roundPrice",
					"outputs": [
						{
							"internalType": "uint256",
							"name": "",
							"type": "uint256"
						}
					],
					"stateMutability": "view",
					"type": "function"
				},
				{
					"inputs": [],
					"name": "timeLottery",
					"outputs": [
						{
							"internalType": "uint256",
							"name": "",
							"type": "uint256"
						}
					],
					"stateMutability": "view",
					"type": "function"
				},
				{
					"inputs": [
						{
							"internalType": "uint256",
							"name": "",
							"type": "uint256"
						}
					],
					"name": "timeRoudsEnd",
					"outputs": [
						{
							"internalType": "uint256",
							"name": "",
							"type": "uint256"
						}
					],
					"stateMutability": "view",
					"type": "function"
				},
				{
					"inputs": [
						{
							"internalType": "uint256",
							"name": "",
							"type": "uint256"
						}
					],
					"name": "todayWiner",
					"outputs": [
						{
							"internalType": "address",
							"name": "",
							"type": "address"
						}
					],
					"stateMutability": "view",
					"type": "function"
				},
				{
					"inputs": [],
					"name": "todayWinerValue",
					"outputs": [
						{
							"internalType": "uint256",
							"name": "",
							"type": "uint256"
						}
					],
					"stateMutability": "view",
					"type": "function"
				},
				{
					"inputs": [
						{
							"internalType": "address",
							"name": "",
							"type": "address"
						}
					],
					"name": "users",
					"outputs": [
						{
							"internalType": "uint256",
							"name": "id",
							"type": "uint256"
						},
						{
							"internalType": "uint256",
							"name": "registrationTimestamp",
							"type": "uint256"
						},
						{
							"internalType": "address",
							"name": "referrer",
							"type": "address"
						},
						{
							"internalType": "uint256",
							"name": "referrals",
							"type": "uint256"
						},
						{
							"internalType": "uint256",
							"name": "referralPayoutSum",
							"type": "uint256"
						},
						{
							"internalType": "uint256",
							"name": "roundsRewardSum",
							"type": "uint256"
						},
						{
							"internalType": "uint256",
							"name": "missedReferralPayoutSum",
							"type": "uint256"
						},
						{
							"internalType": "uint8",
							"name": "maxRound",
							"type": "uint8"
						},
						{
							"internalType": "uint256",
							"name": "turnover",
							"type": "uint256"
						}
					],
					"stateMutability": "view",
					"type": "function"
				},
				{
					"stateMutability": "payable",
					"type": "receive"
				}
			],
			"devdoc": {
				"kind": "dev",
				"methods": {},
				"version": 1
			},
			"evm": {
				"assembly": "    /* \"contract/lottery.sol\":479:19373  contract LotteryWCA is ReentrancyGuard {\r... */\n  mstore(0x40, 0x80)\n    /* \"contract/lottery.sol\":3138:3139  9 */\n  0x09\n    /* \"contract/lottery.sol\":3100:3139  uint8 public referralRewardPercents = 9 */\n  0x66\n  exp(0x0100, 0x00)\n  dup2\n  sload\n  dup2\n  0xff\n  mul\n  not\n  and\n  swap1\n  dup4\n  0xff\n  and\n  mul\n  or\n  swap1\n  sstore\n  pop\n    /* \"contract/lottery.sol\":3190:3191  8 */\n  0x08\n    /* \"contract/lottery.sol\":3146:3191  uint8 public referralRewardProfitPercents = 8 */\n  0x66\n  exp(0x0100, 0x01)\n  dup2\n  sload\n  dup2\n  0xff\n  mul\n  not\n  and\n  swap1\n  dup4\n  0xff\n  and\n  mul\n  or\n  swap1\n  sstore\n  pop\n    /* \"contract/lottery.sol\":3278:3656  uint[] public roundPrice = [\r... */\n  mload(0x40)\n  dup1\n  0x0200\n  add\n  0x40\n  mstore\n  dup1\n    /* \"contract/lottery.sol\":3316:3323  0 ether */\n  0x00\n    /* \"contract/lottery.sol\":3278:3656  uint[] public roundPrice = [\r... */\n  0xffffffffffffffff\n  and\n  dup2\n  mstore\n  0x20\n  add\n    /* \"contract/lottery.sol\":3338:3348  0.05 ether */\n  0xb1a2bc2ec50000\n    /* \"contract/lottery.sol\":3278:3656  uint[] public roundPrice = [\r... */\n  0xffffffffffffffff\n  and\n  dup2\n  mstore\n  0x20\n  add\n    /* \"contract/lottery.sol\":3359:3369  0.08 ether */\n  0x011c37937e080000\n    /* \"contract/lottery.sol\":3278:3656  uint[] public roundPrice = [\r... */\n  0xffffffffffffffff\n  and\n  dup2\n  mstore\n  0x20\n  add\n    /* \"contract/lottery.sol\":3381:3391  0.13 ether */\n  0x01cdda4faccd0000\n    /* \"contract/lottery.sol\":3278:3656  uint[] public roundPrice = [\r... */\n  0xffffffffffffffff\n  and\n  dup2\n  mstore\n  0x20\n  add\n    /* \"contract/lottery.sol\":3404:3414  0.22 ether */\n  0x030d98d59a960000\n    /* \"contract/lottery.sol\":3278:3656  uint[] public roundPrice = [\r... */\n  0xffffffffffffffff\n  and\n  dup2\n  mstore\n  0x20\n  add\n    /* \"contract/lottery.sol\":3426:3436  0.33 ether */\n  0x0494654067e10000\n    /* \"contract/lottery.sol\":3278:3656  uint[] public roundPrice = [\r... */\n  0xffffffffffffffff\n  and\n  dup2\n  mstore\n  0x20\n  add\n    /* \"contract/lottery.sol\":3449:3458  0.5 ether */\n  0x06f05b59d3b20000\n    /* \"contract/lottery.sol\":3278:3656  uint[] public roundPrice = [\r... */\n  0xffffffffffffffff\n  and\n  dup2\n  mstore\n  0x20\n  add\n    /* \"contract/lottery.sol\":3470:3479  0.7 ether */\n  0x09b6e64a8ec60000\n    /* \"contract/lottery.sol\":3278:3656  uint[] public roundPrice = [\r... */\n  0xffffffffffffffff\n  and\n  dup2\n  mstore\n  0x20\n  add\n    /* \"contract/lottery.sol\":3492:3502  1.05 ether */\n  0x0e92596fd6290000\n    /* \"contract/lottery.sol\":3278:3656  uint[] public roundPrice = [\r... */\n  0xffffffffffffffff\n  and\n  dup2\n  mstore\n  0x20\n  add\n    /* \"contract/lottery.sol\":3513:3523  1.45 ether */\n  0x141f6f514c510000\n    /* \"contract/lottery.sol\":3278:3656  uint[] public roundPrice = [\r... */\n  0xffffffffffffffff\n  and\n  dup2\n  mstore\n  0x20\n  add\n    /* \"contract/lottery.sol\":3535:3545  1.95 ether */\n  0x1b0fcaab20030000\n    /* \"contract/lottery.sol\":3278:3656  uint[] public roundPrice = [\r... */\n  0xffffffffffffffff\n  and\n  dup2\n  mstore\n  0x20\n  add\n    /* \"contract/lottery.sol\":3557:3566  2.4 ether */\n  0x214e8348c4f00000\n    /* \"contract/lottery.sol\":3278:3656  uint[] public roundPrice = [\r... */\n  0xffffffffffffffff\n  and\n  dup2\n  mstore\n  0x20\n  add\n    /* \"contract/lottery.sol\":3578:3587  3.5 ether */\n  0x30927f74c9de0000\n    /* \"contract/lottery.sol\":3278:3656  uint[] public roundPrice = [\r... */\n  0xffffffffffffffff\n  and\n  dup2\n  mstore\n  0x20\n  add\n    /* \"contract/lottery.sol\":3599:3608  5.2 ether */\n  0x482a1c7300080000\n    /* \"contract/lottery.sol\":3278:3656  uint[] public roundPrice = [\r... */\n  0xffffffffffffffff\n  and\n  dup2\n  mstore\n  0x20\n  add\n    /* \"contract/lottery.sol\":3620:3629  7.3 ether */\n  0x654ecf52ac5a0000\n    /* \"contract/lottery.sol\":3278:3656  uint[] public roundPrice = [\r... */\n  0xffffffffffffffff\n  and\n  dup2\n  mstore\n  0x20\n  add\n    /* \"contract/lottery.sol\":3641:3649  10 ether */\n  0x8ac7230489e80000\n    /* \"contract/lottery.sol\":3278:3656  uint[] public roundPrice = [\r... */\n  0xffffffffffffffff\n  and\n  dup2\n  mstore\n  pop\n  0x68\n  swap1\n  0x10\n  tag_1\n  swap3\n  swap2\n  swap1\n  tag_2\n  jump\t// in\ntag_1:\n  pop\n    /* \"contract/lottery.sol\":3702:3703  1 */\n  0x01\n    /* \"contract/lottery.sol\":3682:3692  roundPrice */\n  0x68\n    /* \"contract/lottery.sol\":3682:3699  roundPrice.length */\n  dup1\n  sload\n  swap1\n  pop\n    /* \"contract/lottery.sol\":3682:3703  roundPrice.length - 1 */\n  sub\n    /* \"contract/lottery.sol\":3663:3703  uint totalrounds = roundPrice.length - 1 */\n  0x69\n  sstore\n    /* \"contract/lottery.sol\":3727:3728  2 */\n  0x02\n    /* \"contract/lottery.sol\":3710:3728  uint newUserId = 2 */\n  0x6a\n  sstore\n    /* \"contract/lottery.sol\":3939:4787  constructor(address payable _marketing) public {\r... */\n  callvalue\n  dup1\n  iszero\n  tag_3\n  jumpi\n  0x00\n  dup1\n  revert\ntag_3:\n  pop\n  mload(0x40)\n  sub(codesize, bytecodeSize)\n  dup1\n  bytecodeSize\n  dup4\n  codecopy\n  dup2\n  dup2\n  add\n  0x40\n  mstore\n  0x20\n  dup2\n  lt\n  iszero\n  tag_4\n  jumpi\n  0x00\n  dup1\n  revert\ntag_4:\n  dup2\n  add\n  swap1\n  dup1\n  dup1\n  mload\n  swap1\n  0x20\n  add\n  swap1\n  swap3\n  swap2\n  swap1\n  pop\n  pop\n  pop\n    /* \"contract/lottery.sol\":136:137  1 */\n  0x01\n    /* \"contract/lottery.sol\":254:261  _status */\n  0x00\n    /* \"contract/lottery.sol\":254:276  _status = _NOT_ENTERED */\n  dup2\n  swap1\n  sstore\n  pop\n    /* \"contract/lottery.sol\":4013:4023  msg.sender */\n  caller\n    /* \"contract/lottery.sol\":3997:4002  owner */\n  0x66\n  0x02\n    /* \"contract/lottery.sol\":3997:4024  owner = payable(msg.sender) */\n  0x0100\n  exp\n  dup2\n  sload\n  dup2\n  0xffffffffffffffffffffffffffffffffffffffff\n  mul\n  not\n  and\n  swap1\n  dup4\n  0xffffffffffffffffffffffffffffffffffffffff\n  and\n  mul\n  or\n  swap1\n  sstore\n  pop\n    /* \"contract/lottery.sol\":4047:4057  _marketing */\n  dup1\n    /* \"contract/lottery.sol\":4035:4044  marketing */\n  0x67\n  0x00\n    /* \"contract/lottery.sol\":4035:4057  marketing = _marketing */\n  0x0100\n  exp\n  dup2\n  sload\n  dup2\n  0xffffffffffffffffffffffffffffffffffffffff\n  mul\n  not\n  and\n  swap1\n  dup4\n  0xffffffffffffffffffffffffffffffffffffffff\n  and\n  mul\n  or\n  swap1\n  sstore\n  pop\n    /* \"contract/lottery.sol\":4083:4394  User({\r... */\n  mload(0x40)\n  dup1\n  0x0120\n  add\n  0x40\n  mstore\n  dup1\n    /* \"contract/lottery.sol\":4108:4109  1 */\n  0x01\n    /* \"contract/lottery.sol\":4083:4394  User({\r... */\n  dup2\n  mstore\n  0x20\n  add\n    /* \"contract/lottery.sol\":4147:4150  now */\n  timestamp\n    /* \"contract/lottery.sol\":4083:4394  User({\r... */\n  dup2\n  mstore\n  0x20\n  add\n    /* \"contract/lottery.sol\":4184:4185  0 */\n  0x00\n    /* \"contract/lottery.sol\":4083:4394  User({\r... */\n  0xffffffffffffffffffffffffffffffffffffffff\n  and\n  dup2\n  mstore\n  0x20\n  add\n    /* \"contract/lottery.sol\":4213:4214  0 */\n  0x00\n    /* \"contract/lottery.sol\":4083:4394  User({\r... */\n  dup2\n  mstore\n  0x20\n  add\n    /* \"contract/lottery.sol\":4249:4250  0 */\n  0x00\n    /* \"contract/lottery.sol\":4083:4394  User({\r... */\n  dup2\n  mstore\n  0x20\n  add\n    /* \"contract/lottery.sol\":4283:4284  0 */\n  0x00\n    /* \"contract/lottery.sol\":4083:4394  User({\r... */\n  dup2\n  mstore\n  0x20\n  add\n    /* \"contract/lottery.sol\":4325:4326  0 */\n  0x00\n    /* \"contract/lottery.sol\":4083:4394  User({\r... */\n  dup2\n  mstore\n  0x20\n  add\n    /* \"contract/lottery.sol\":4352:4353  0 */\n  0x00\n    /* \"contract/lottery.sol\":4083:4394  User({\r... */\n  0xff\n  and\n  dup2\n  mstore\n  0x20\n  add\n    /* \"contract/lottery.sol\":4379:4380  0 */\n  0x00\n    /* \"contract/lottery.sol\":4083:4394  User({\r... */\n  dup2\n  mstore\n  pop\n    /* \"contract/lottery.sol\":4068:4073  users */\n  0x6b\n    /* \"contract/lottery.sol\":4068:4080  users[owner] */\n  0x00\n    /* \"contract/lottery.sol\":4074:4079  owner */\n  0x66\n  0x02\n  swap1\n  sload\n  swap1\n  0x0100\n  exp\n  swap1\n  div\n  0xffffffffffffffffffffffffffffffffffffffff\n  and\n    /* \"contract/lottery.sol\":4068:4080  users[owner] */\n  0xffffffffffffffffffffffffffffffffffffffff\n  and\n  0xffffffffffffffffffffffffffffffffffffffff\n  and\n  dup2\n  mstore\n  0x20\n  add\n  swap1\n  dup2\n  mstore\n  0x20\n  add\n  0x00\n  keccak256\n    /* \"contract/lottery.sol\":4068:4394  users[owner] = User({\r... */\n  0x00\n  dup3\n  add\n  mload\n  dup2\n  0x00\n  add\n  sstore\n  0x20\n  dup3\n  add\n  mload\n  dup2\n  0x01\n  add\n  sstore\n  0x40\n  dup3\n  add\n  mload\n  dup2\n  0x02\n  add\n  exp(0x0100, 0x00)\n  dup2\n  sload\n  dup2\n  0xffffffffffffffffffffffffffffffffffffffff\n  mul\n  not\n  and\n  swap1\n  dup4\n  0xffffffffffffffffffffffffffffffffffffffff\n  and\n  mul\n  or\n  swap1\n  sstore\n  pop\n  0x60\n  dup3\n  add\n  mload\n  dup2\n  0x03\n  add\n  sstore\n  0x80\n  dup3\n  add\n  mload\n  dup2\n  0x04\n  add\n  sstore\n  0xa0\n  dup3\n  add\n  mload\n  dup2\n  0x05\n  add\n  sstore\n  0xc0\n  dup3\n  add\n  mload\n  dup2\n  0x06\n  add\n  sstore\n  0xe0\n  dup3\n  add\n  mload\n  dup2\n  0x08\n  add\n  exp(0x0100, 0x00)\n  dup2\n  sload\n  dup2\n  0xff\n  mul\n  not\n  and\n  swap1\n  dup4\n  0xff\n  and\n  mul\n  or\n  swap1\n  sstore\n  pop\n  0x0100\n  dup3\n  add\n  mload\n  dup2\n  0x09\n  add\n  sstore\n  swap1\n  pop\n  pop\n    /* \"contract/lottery.sol\":4427:4432  owner */\n  0x66\n  0x02\n  swap1\n  sload\n  swap1\n  0x0100\n  exp\n  swap1\n  div\n  0xffffffffffffffffffffffffffffffffffffffff\n  and\n    /* \"contract/lottery.sol\":4405:4421  usersAddressById */\n  0x6c\n    /* \"contract/lottery.sol\":4405:4424  usersAddressById[1] */\n  0x00\n    /* \"contract/lottery.sol\":4422:4423  1 */\n  0x01\n    /* \"contract/lottery.sol\":4405:4424  usersAddressById[1] */\n  dup2\n  mstore\n  0x20\n  add\n  swap1\n  dup2\n  mstore\n  0x20\n  add\n  0x00\n  keccak256\n  0x00\n    /* \"contract/lottery.sol\":4405:4432  usersAddressById[1] = owner */\n  0x0100\n  exp\n  dup2\n  sload\n  dup2\n  0xffffffffffffffffffffffffffffffffffffffff\n  mul\n  not\n  and\n  swap1\n  dup4\n  0xffffffffffffffffffffffffffffffffffffffff\n  and\n  mul\n  or\n  swap1\n  sstore\n  pop\n    /* \"contract/lottery.sol\":4443:4453  globalStat */\n  0x6f\n    /* \"contract/lottery.sol\":4443:4461  globalStat.members */\n  0x00\n  add\n  0x00\n    /* \"contract/lottery.sol\":4443:4463  globalStat.members++ */\n  dup2\n  sload\n  dup1\n  swap3\n  swap2\n  swap1\n  0x01\n  add\n  swap2\n  swap1\n  pop\n  sstore\n  pop\n    /* \"contract/lottery.sol\":4474:4484  globalStat */\n  0x6f\n    /* \"contract/lottery.sol\":4474:4497  globalStat.transactions */\n  0x01\n  add\n  0x00\n    /* \"contract/lottery.sol\":4474:4499  globalStat.transactions++ */\n  dup2\n  sload\n  dup1\n  swap3\n  swap2\n  swap1\n  0x01\n  add\n  swap2\n  swap1\n  pop\n  sstore\n  pop\n    /* \"contract/lottery.sol\":4514:4525  uint8 round */\n  0x00\n    /* \"contract/lottery.sol\":4528:4529  1 */\n  0x01\n    /* \"contract/lottery.sol\":4514:4529  uint8 round = 1 */\n  swap1\n  pop\n    /* \"contract/lottery.sol\":4510:4780  for(uint8 round = 1; round <= totalrounds; round++) {\r... */\ntag_9:\n    /* \"contract/lottery.sol\":4540:4551  totalrounds */\n  sload(0x69)\n    /* \"contract/lottery.sol\":4531:4536  round */\n  dup2\n    /* \"contract/lottery.sol\":4531:4551  round <= totalrounds */\n  0xff\n  and\n  gt\n    /* \"contract/lottery.sol\":4510:4780  for(uint8 round = 1; round <= totalrounds; round++) {\r... */\n  tag_10\n  jumpi\n    /* \"contract/lottery.sol\":4606:4612  864000 */\n  0x0d2f00\n    /* \"contract/lottery.sol\":4600:4603  now */\n  timestamp\n    /* \"contract/lottery.sol\":4600:4612  now + 864000 */\n  add\n    /* \"contract/lottery.sol\":4578:4590  timeRoudsEnd */\n  0x45\n    /* \"contract/lottery.sol\":4591:4596  round */\n  dup3\n    /* \"contract/lottery.sol\":4578:4597  timeRoudsEnd[round] */\n  0xff\n  and\n  0x10\n  dup2\n  lt\n  tag_12\n  jumpi\n  invalid\ntag_12:\n  add\n    /* \"contract/lottery.sol\":4578:4612  timeRoudsEnd[round] = now + 864000 */\n  dup2\n  swap1\n  sstore\n  pop\n    /* \"contract/lottery.sol\":4663:4667  true */\n  0x01\n    /* \"contract/lottery.sol\":4627:4632  users */\n  0x6b\n    /* \"contract/lottery.sol\":4627:4639  users[owner] */\n  0x00\n    /* \"contract/lottery.sol\":4633:4638  owner */\n  0x66\n  0x02\n  swap1\n  sload\n  swap1\n  0x0100\n  exp\n  swap1\n  div\n  0xffffffffffffffffffffffffffffffffffffffff\n  and\n    /* \"contract/lottery.sol\":4627:4639  users[owner] */\n  0xffffffffffffffffffffffffffffffffffffffff\n  and\n  0xffffffffffffffffffffffffffffffffffffffff\n  and\n  dup2\n  mstore\n  0x20\n  add\n  swap1\n  dup2\n  mstore\n  0x20\n  add\n  0x00\n  keccak256\n    /* \"contract/lottery.sol\":4627:4646  users[owner].rounds */\n  0x07\n  add\n    /* \"contract/lottery.sol\":4627:4653  users[owner].rounds[round] */\n  0x00\n    /* \"contract/lottery.sol\":4647:4652  round */\n  dup4\n    /* \"contract/lottery.sol\":4627:4653  users[owner].rounds[round] */\n  0xff\n  and\n  0xff\n  and\n  dup2\n  mstore\n  0x20\n  add\n  swap1\n  dup2\n  mstore\n  0x20\n  add\n  0x00\n  keccak256\n    /* \"contract/lottery.sol\":4627:4660  users[owner].rounds[round].active */\n  0x00\n  add\n  0x06\n    /* \"contract/lottery.sol\":4627:4667  users[owner].rounds[round].active = true */\n  0x0100\n  exp\n  dup2\n  sload\n  dup2\n  0xff\n  mul\n  not\n  and\n  swap1\n  dup4\n  iszero\n  iszero\n  mul\n  or\n  swap1\n  sstore\n  pop\n    /* \"contract/lottery.sol\":4722:4724  15 */\n  0x0f\n    /* \"contract/lottery.sol\":4682:4687  users */\n  0x6b\n    /* \"contract/lottery.sol\":4682:4694  users[owner] */\n  0x00\n    /* \"contract/lottery.sol\":4688:4693  owner */\n  0x66\n  0x02\n  swap1\n  sload\n  swap1\n  0x0100\n  exp\n  swap1\n  div\n  0xffffffffffffffffffffffffffffffffffffffff\n  and\n    /* \"contract/lottery.sol\":4682:4694  users[owner] */\n  0xffffffffffffffffffffffffffffffffffffffff\n  and\n  0xffffffffffffffffffffffffffffffffffffffff\n  and\n  dup2\n  mstore\n  0x20\n  add\n  swap1\n  dup2\n  mstore\n  0x20\n  add\n  0x00\n  keccak256\n    /* \"contract/lottery.sol\":4682:4701  users[owner].rounds */\n  0x07\n  add\n    /* \"contract/lottery.sol\":4682:4708  users[owner].rounds[round] */\n  0x00\n    /* \"contract/lottery.sol\":4702:4707  round */\n  dup4\n    /* \"contract/lottery.sol\":4682:4708  users[owner].rounds[round] */\n  0xff\n  and\n  0xff\n  and\n  dup2\n  mstore\n  0x20\n  add\n  swap1\n  dup2\n  mstore\n  0x20\n  add\n  0x00\n  keccak256\n    /* \"contract/lottery.sol\":4682:4719  users[owner].rounds[round].maxPayouts */\n  0x00\n  add\n  0x02\n    /* \"contract/lottery.sol\":4682:4724  users[owner].rounds[round].maxPayouts = 15 */\n  0x0100\n  exp\n  dup2\n  sload\n  dup2\n  0xffff\n  mul\n  not\n  and\n  swap1\n  dup4\n  0xffff\n  and\n  mul\n  or\n  swap1\n  sstore\n  pop\n    /* \"contract/lottery.sol\":4739:4749  roundQueue */\n  0x6d\n    /* \"contract/lottery.sol\":4739:4756  roundQueue[round] */\n  0x00\n    /* \"contract/lottery.sol\":4750:4755  round */\n  dup3\n    /* \"contract/lottery.sol\":4739:4756  roundQueue[round] */\n  0xff\n  and\n  0xff\n  and\n  dup2\n  mstore\n  0x20\n  add\n  swap1\n  dup2\n  mstore\n  0x20\n  add\n  0x00\n  keccak256\n    /* \"contract/lottery.sol\":4762:4767  owner */\n  0x66\n  0x02\n  swap1\n  sload\n  swap1\n  0x0100\n  exp\n  swap1\n  div\n  0xffffffffffffffffffffffffffffffffffffffff\n  and\n    /* \"contract/lottery.sol\":4739:4768  roundQueue[round].push(owner) */\n  swap1\n  dup1\n  0x01\n  dup2\n  sload\n  add\n  dup1\n  dup3\n  sstore\n  dup1\n  swap2\n  pop\n  pop\n  0x01\n  swap1\n  sub\n  swap1\n  0x00\n  mstore\n  keccak256(0x00, 0x20)\n  add\n  0x00\n  swap1\n  swap2\n  swap1\n  swap2\n  swap1\n  swap2\n  0x0100\n  exp\n  dup2\n  sload\n  dup2\n  0xffffffffffffffffffffffffffffffffffffffff\n  mul\n  not\n  and\n  swap1\n  dup4\n  0xffffffffffffffffffffffffffffffffffffffff\n  and\n  mul\n  or\n  swap1\n  sstore\n  pop\n    /* \"contract/lottery.sol\":4553:4560  round++ */\n  dup1\n  dup1\n  0x01\n  add\n  swap2\n  pop\n  pop\n    /* \"contract/lottery.sol\":4510:4780  for(uint8 round = 1; round <= totalrounds; round++) {\r... */\n  jump(tag_9)\ntag_10:\n  pop\n    /* \"contract/lottery.sol\":3939:4787  constructor(address payable _marketing) public {\r... */\n  pop\n    /* \"contract/lottery.sol\":479:19373  contract LotteryWCA is ReentrancyGuard {\r... */\n  jump(tag_15)\ntag_2:\n  dup3\n  dup1\n  sload\n  dup3\n  dup3\n  sstore\n  swap1\n  0x00\n  mstore\n  keccak256(0x00, 0x20)\n  swap1\n  dup2\n  add\n  swap3\n  dup3\n  iszero\n  tag_16\n  jumpi\n  swap2\n  0x20\n  mul\n  dup3\n  add\ntag_17:\n  dup3\n  dup2\n  gt\n  iszero\n  tag_18\n  jumpi\n  dup3\n  mload\n  dup3\n  swap1\n  0xffffffffffffffff\n  and\n  swap1\n  sstore\n  swap2\n  0x20\n  add\n  swap2\n  swap1\n  0x01\n  add\n  swap1\n  jump(tag_17)\ntag_18:\ntag_16:\n  pop\n  swap1\n  pop\n  tag_19\n  swap2\n  swap1\n  tag_20\n  jump\t// in\ntag_19:\n  pop\n  swap1\n  jump\t// out\ntag_20:\ntag_21:\n  dup1\n  dup3\n  gt\n  iszero\n  tag_22\n  jumpi\n  0x00\n  dup2\n  0x00\n  swap1\n  sstore\n  pop\n  0x01\n  add\n  jump(tag_21)\ntag_22:\n  pop\n  swap1\n  jump\t// out\ntag_15:\n  dataSize(sub_0)\n  dup1\n  dataOffset(sub_0)\n  0x00\n  codecopy\n  0x00\n  return\nstop\n\nsub_0: assembly {\n        /* \"contract/lottery.sol\":479:19373  contract LotteryWCA is ReentrancyGuard {\r... */\n      mstore(0x40, 0x80)\n      jumpi(tag_1, lt(calldatasize, 0x04))\n      shr(0xe0, calldataload(0x00))\n      dup1\n      0x693864f3\n      gt\n      tag_44\n      jumpi\n      dup1\n      0xa7345f56\n      gt\n      tag_45\n      jumpi\n      dup1\n      0xbfe24893\n      gt\n      tag_46\n      jumpi\n      dup1\n      0xbfe24893\n      eq\n      tag_38\n      jumpi\n      dup1\n      0xc34f6b0d\n      eq\n      tag_39\n      jumpi\n      dup1\n      0xc8e161a1\n      eq\n      tag_40\n      jumpi\n      dup1\n      0xcfce5044\n      eq\n      tag_41\n      jumpi\n      dup1\n      0xeca2c026\n      eq\n      tag_42\n      jumpi\n      dup1\n      0xf21efb5b\n      eq\n      tag_43\n      jumpi\n      jump(tag_2)\n    tag_46:\n      dup1\n      0xa7345f56\n      eq\n      tag_33\n      jumpi\n      dup1\n      0xa87430ba\n      eq\n      tag_34\n      jumpi\n      dup1\n      0xa9a9cfe0\n      eq\n      tag_35\n      jumpi\n      dup1\n      0xb3791e7f\n      eq\n      tag_36\n      jumpi\n      dup1\n      0xbd4b77ee\n      eq\n      tag_37\n      jumpi\n      jump(tag_2)\n    tag_45:\n      dup1\n      0x8a03ad86\n      gt\n      tag_47\n      jumpi\n      dup1\n      0x8a03ad86\n      eq\n      tag_28\n      jumpi\n      dup1\n      0x8c4636c1\n      eq\n      tag_29\n      jumpi\n      dup1\n      0x8da5cb5b\n      eq\n      tag_30\n      jumpi\n      dup1\n      0x950fabf3\n      eq\n      tag_31\n      jumpi\n      dup1\n      0x968763a0\n      eq\n      tag_32\n      jumpi\n      jump(tag_2)\n    tag_47:\n      dup1\n      0x693864f3\n      eq\n      tag_23\n      jumpi\n      dup1\n      0x6f77926b\n      eq\n      tag_24\n      jumpi\n      dup1\n      0x6f9fb98a\n      eq\n      tag_25\n      jumpi\n      dup1\n      0x7ccd94da\n      eq\n      tag_26\n      jumpi\n      dup1\n      0x88b45046\n      eq\n      tag_27\n      jumpi\n      jump(tag_2)\n    tag_44:\n      dup1\n      0x2d3e474a\n      gt\n      tag_48\n      jumpi\n      dup1\n      0x4cdbe908\n      gt\n      tag_49\n      jumpi\n      dup1\n      0x4cdbe908\n      eq\n      tag_18\n      jumpi\n      dup1\n      0x5a8a14d0\n      eq\n      tag_19\n      jumpi\n      dup1\n      0x5c279ff9\n      eq\n      tag_20\n      jumpi\n      dup1\n      0x5ce974b9\n      eq\n      tag_21\n      jumpi\n      dup1\n      0x5d7b1cc9\n      eq\n      tag_22\n      jumpi\n      jump(tag_2)\n    tag_49:\n      dup1\n      0x2d3e474a\n      eq\n      tag_13\n      jumpi\n      dup1\n      0x3336b63e\n      eq\n      tag_14\n      jumpi\n      dup1\n      0x375e3b55\n      eq\n      tag_15\n      jumpi\n      dup1\n      0x385399f9\n      eq\n      tag_16\n      jumpi\n      dup1\n      0x4a9fefc7\n      eq\n      tag_17\n      jumpi\n      jump(tag_2)\n    tag_48:\n      dup1\n      0x21658658\n      gt\n      tag_50\n      jumpi\n      dup1\n      0x21658658\n      eq\n      tag_8\n      jumpi\n      dup1\n      0x230f7f82\n      eq\n      tag_9\n      jumpi\n      dup1\n      0x26efd443\n      eq\n      tag_10\n      jumpi\n      dup1\n      0x2a2c908e\n      eq\n      tag_11\n      jumpi\n      dup1\n      0x2cc8da43\n      eq\n      tag_12\n      jumpi\n      jump(tag_2)\n    tag_50:\n      dup1\n      0x01b91a17\n      eq\n      tag_3\n      jumpi\n      dup1\n      0x16279055\n      eq\n      tag_4\n      jumpi\n      dup1\n      0x163f7522\n      eq\n      tag_5\n      jumpi\n      dup1\n      0x1aa3a008\n      eq\n      tag_6\n      jumpi\n      dup1\n      0x1dfd8fe0\n      eq\n      tag_7\n      jumpi\n      jump(tag_2)\n    tag_1:\n      jumpi(tag_2, calldatasize)\n        /* \"contract/lottery.sol\":5029:5040  uint8 round */\n      0x00\n        /* \"contract/lottery.sol\":5043:5044  1 */\n      0x01\n        /* \"contract/lottery.sol\":5029:5044  uint8 round = 1 */\n      swap1\n      pop\n        /* \"contract/lottery.sol\":5025:5331  for(uint8 round = 1; round <= totalrounds; round++) {\r... */\n    tag_53:\n        /* \"contract/lottery.sol\":5055:5066  totalrounds */\n      sload(0x69)\n        /* \"contract/lottery.sol\":5046:5051  round */\n      dup2\n        /* \"contract/lottery.sol\":5046:5066  round <= totalrounds */\n      0xff\n      and\n      gt\n        /* \"contract/lottery.sol\":5025:5331  for(uint8 round = 1; round <= totalrounds; round++) {\r... */\n      tag_54\n      jumpi\n        /* \"contract/lottery.sol\":5117:5126  msg.value */\n      callvalue\n        /* \"contract/lottery.sol\":5096:5106  roundPrice */\n      0x68\n        /* \"contract/lottery.sol\":5107:5112  round */\n      dup3\n        /* \"contract/lottery.sol\":5096:5113  roundPrice[round] */\n      0xff\n      and\n      dup2\n      sload\n      dup2\n      lt\n      tag_56\n      jumpi\n      invalid\n    tag_56:\n      swap1\n      0x00\n      mstore\n      keccak256(0x00, 0x20)\n      add\n      sload\n        /* \"contract/lottery.sol\":5096:5126  roundPrice[round] == msg.value */\n      eq\n        /* \"contract/lottery.sol\":5092:5320  if (roundPrice[round] == msg.value) {\r... */\n      iszero\n      tag_58\n      jumpi\n        /* \"contract/lottery.sol\":5159:5160  1 */\n      0x01\n        /* \"contract/lottery.sol\":5150:5155  round */\n      dup2\n        /* \"contract/lottery.sol\":5150:5160  round == 1 */\n      0xff\n      and\n      eq\n        /* \"contract/lottery.sol\":5150:5193  round == 1 && !isUserRegistered(msg.sender) */\n      dup1\n      iszero\n      tag_59\n      jumpi\n      pop\n        /* \"contract/lottery.sol\":5165:5193  isUserRegistered(msg.sender) */\n      tag_60\n        /* \"contract/lottery.sol\":5182:5192  msg.sender */\n      caller\n        /* \"contract/lottery.sol\":5165:5181  isUserRegistered */\n      tag_61\n        /* \"contract/lottery.sol\":5165:5193  isUserRegistered(msg.sender) */\n      jump\t// in\n    tag_60:\n        /* \"contract/lottery.sol\":5164:5193  !isUserRegistered(msg.sender) */\n      iszero\n        /* \"contract/lottery.sol\":5150:5193  round == 1 && !isUserRegistered(msg.sender) */\n    tag_59:\n        /* \"contract/lottery.sol\":5147:5246  if(round == 1 && !isUserRegistered(msg.sender)){\r... */\n      iszero\n      tag_62\n      jumpi\n        /* \"contract/lottery.sol\":5216:5226  register() */\n      tag_63\n        /* \"contract/lottery.sol\":5216:5224  register */\n      tag_64\n        /* \"contract/lottery.sol\":5216:5226  register() */\n      jump\t// in\n    tag_63:\n        /* \"contract/lottery.sol\":5147:5246  if(round == 1 && !isUserRegistered(msg.sender)){\r... */\n    tag_62:\n        /* \"contract/lottery.sol\":5264:5279  buyround(round) */\n      tag_65\n        /* \"contract/lottery.sol\":5273:5278  round */\n      dup2\n        /* \"contract/lottery.sol\":5264:5272  buyround */\n      tag_66\n        /* \"contract/lottery.sol\":5264:5279  buyround(round) */\n      jump\t// in\n    tag_65:\n        /* \"contract/lottery.sol\":5298:5305  return; */\n      pop\n      jump(tag_52)\n        /* \"contract/lottery.sol\":5092:5320  if (roundPrice[round] == msg.value) {\r... */\n    tag_58:\n        /* \"contract/lottery.sol\":5068:5075  round++ */\n      dup1\n      dup1\n      0x01\n      add\n      swap2\n      pop\n      pop\n        /* \"contract/lottery.sol\":5025:5331  for(uint8 round = 1; round <= totalrounds; round++) {\r... */\n      jump(tag_53)\n    tag_54:\n      pop\n        /* \"contract/lottery.sol\":5343:5406  revert(\"Can't find round to buy. Maybe sent value is invalid.\") */\n      mload(0x40)\n      0x08c379a000000000000000000000000000000000000000000000000000000000\n      dup2\n      mstore\n      0x04\n      add\n      dup1\n      dup1\n      0x20\n      add\n      dup3\n      dup2\n      sub\n      dup3\n      mstore\n      0x35\n      dup2\n      mstore\n      0x20\n      add\n      dup1\n      data_b6be230979c9056288d8dc9ecf24c47d930143c98ecebf6ab7c712e8601758a8\n      0x35\n      swap2\n      codecopy\n      0x40\n      add\n      swap2\n      pop\n      pop\n      mload(0x40)\n      dup1\n      swap2\n      sub\n      swap1\n      revert\n        /* \"contract/lottery.sol\":4987:5414  receive() external payable {\r... */\n    tag_52:\n        /* \"contract/lottery.sol\":479:19373  contract LotteryWCA is ReentrancyGuard {\r... */\n      stop\n    tag_2:\n      0x00\n      dup1\n      revert\n        /* \"contract/lottery.sol\":17005:17102  function getroundPrices() public view returns(uint[] memory) {\r... */\n    tag_3:\n      callvalue\n      dup1\n      iszero\n      tag_67\n      jumpi\n      0x00\n      dup1\n      revert\n    tag_67:\n      pop\n      tag_68\n      tag_69\n      jump\t// in\n    tag_68:\n      mload(0x40)\n      dup1\n      dup1\n      0x20\n      add\n      dup3\n      dup2\n      sub\n      dup3\n      mstore\n      dup4\n      dup2\n      dup2\n      mload\n      dup2\n      mstore\n      0x20\n      add\n      swap2\n      pop\n      dup1\n      mload\n      swap1\n      0x20\n      add\n      swap1\n      0x20\n      mul\n      dup1\n      dup4\n      dup4\n      0x00\n    tag_70:\n      dup4\n      dup2\n      lt\n      iszero\n      tag_72\n      jumpi\n      dup1\n      dup3\n      add\n      mload\n      dup2\n      dup5\n      add\n      mstore\n      0x20\n      dup2\n      add\n      swap1\n      pop\n      jump(tag_70)\n    tag_72:\n      pop\n      pop\n      pop\n      pop\n      swap1\n      pop\n      add\n      swap3\n      pop\n      pop\n      pop\n      mload(0x40)\n      dup1\n      swap2\n      sub\n      swap1\n      return\n        /* \"contract/lottery.sol\":4793:4981  function isContract(address addr) public view returns (bool) {\r... */\n    tag_4:\n      callvalue\n      dup1\n      iszero\n      tag_73\n      jumpi\n      0x00\n      dup1\n      revert\n    tag_73:\n      pop\n      tag_74\n      0x04\n      dup1\n      calldatasize\n      sub\n      0x20\n      dup2\n      lt\n      iszero\n      tag_75\n      jumpi\n      0x00\n      dup1\n      revert\n    tag_75:\n      dup2\n      add\n      swap1\n      dup1\n      dup1\n      calldataload\n      0xffffffffffffffffffffffffffffffffffffffff\n      and\n      swap1\n      0x20\n      add\n      swap1\n      swap3\n      swap2\n      swap1\n      pop\n      pop\n      pop\n      tag_76\n      jump\t// in\n    tag_74:\n      mload(0x40)\n      dup1\n      dup3\n      iszero\n      iszero\n      dup2\n      mstore\n      0x20\n      add\n      swap2\n      pop\n      pop\n      mload(0x40)\n      dup1\n      swap2\n      sub\n      swap1\n      return\n        /* \"contract/lottery.sol\":17738:17850  function isUserRegistered(address addr) public view returns (bool) {\r... */\n    tag_5:\n      callvalue\n      dup1\n      iszero\n      tag_77\n      jumpi\n      0x00\n      dup1\n      revert\n    tag_77:\n      pop\n      tag_78\n      0x04\n      dup1\n      calldatasize\n      sub\n      0x20\n      dup2\n      lt\n      iszero\n      tag_79\n      jumpi\n      0x00\n      dup1\n      revert\n    tag_79:\n      dup2\n      add\n      swap1\n      dup1\n      dup1\n      calldataload\n      0xffffffffffffffffffffffffffffffffffffffff\n      and\n      swap1\n      0x20\n      add\n      swap1\n      swap3\n      swap2\n      swap1\n      pop\n      pop\n      pop\n      tag_61\n      jump\t// in\n    tag_78:\n      mload(0x40)\n      dup1\n      dup3\n      iszero\n      iszero\n      dup2\n      mstore\n      0x20\n      add\n      swap2\n      pop\n      pop\n      mload(0x40)\n      dup1\n      swap2\n      sub\n      swap1\n      return\n        /* \"contract/lottery.sol\":5553:5634  function register() public payable {\r... */\n    tag_6:\n      tag_80\n      tag_64\n      jump\t// in\n    tag_80:\n      stop\n        /* \"contract/lottery.sol\":525:555  address[50] public  todayWiner */\n    tag_7:\n      callvalue\n      dup1\n      iszero\n      tag_81\n      jumpi\n      0x00\n      dup1\n      revert\n    tag_81:\n      pop\n      tag_82\n      0x04\n      dup1\n      calldatasize\n      sub\n      0x20\n      dup2\n      lt\n      iszero\n      tag_83\n      jumpi\n      0x00\n      dup1\n      revert\n    tag_83:\n      dup2\n      add\n      swap1\n      dup1\n      dup1\n      calldataload\n      swap1\n      0x20\n      add\n      swap1\n      swap3\n      swap2\n      swap1\n      pop\n      pop\n      pop\n      tag_84\n      jump\t// in\n    tag_82:\n      mload(0x40)\n      dup1\n      dup3\n      0xffffffffffffffffffffffffffffffffffffffff\n      and\n      dup2\n      mstore\n      0x20\n      add\n      swap2\n      pop\n      pop\n      mload(0x40)\n      dup1\n      swap2\n      sub\n      swap1\n      return\n        /* \"contract/lottery.sol\":2901:2949  uint public constant registrationPrice = 0 ether */\n    tag_8:\n      callvalue\n      dup1\n      iszero\n      tag_85\n      jumpi\n      0x00\n      dup1\n      revert\n    tag_85:\n      pop\n      tag_86\n      tag_87\n      jump\t// in\n    tag_86:\n      mload(0x40)\n      dup1\n      dup3\n      dup2\n      mstore\n      0x20\n      add\n      swap2\n      pop\n      pop\n      mload(0x40)\n      dup1\n      swap2\n      sub\n      swap1\n      return\n        /* \"contract/lottery.sol\":15779:16999  function getUserrounds(address userAddress) public view returns (bool[] memory, uint16[] memory, uint16[] memory, uint16[] memory, uint[] memory, uint[] memory) {\r... */\n    tag_9:\n      callvalue\n      dup1\n      iszero\n      tag_88\n      jumpi\n      0x00\n      dup1\n      revert\n    tag_88:\n      pop\n      tag_89\n      0x04\n      dup1\n      calldatasize\n      sub\n      0x20\n      dup2\n      lt\n      iszero\n      tag_90\n      jumpi\n      0x00\n      dup1\n      revert\n    tag_90:\n      dup2\n      add\n      swap1\n      dup1\n      dup1\n      calldataload\n      0xffffffffffffffffffffffffffffffffffffffff\n      and\n      swap1\n      0x20\n      add\n      swap1\n      swap3\n      swap2\n      swap1\n      pop\n      pop\n      pop\n      tag_91\n      jump\t// in\n    tag_89:\n      mload(0x40)\n      dup1\n      dup1\n      0x20\n      add\n      dup1\n      0x20\n      add\n      dup1\n      0x20\n      add\n      dup1\n      0x20\n      add\n      dup1\n      0x20\n      add\n      dup1\n      0x20\n      add\n      dup8\n      dup2\n      sub\n      dup8\n      mstore\n      dup14\n      dup2\n      dup2\n      mload\n      dup2\n      mstore\n      0x20\n      add\n      swap2\n      pop\n      dup1\n      mload\n      swap1\n      0x20\n      add\n      swap1\n      0x20\n      mul\n      dup1\n      dup4\n      dup4\n      0x00\n    tag_92:\n      dup4\n      dup2\n      lt\n      iszero\n      tag_94\n      jumpi\n      dup1\n      dup3\n      add\n      mload\n      dup2\n      dup5\n      add\n      mstore\n      0x20\n      dup2\n      add\n      swap1\n      pop\n      jump(tag_92)\n    tag_94:\n      pop\n      pop\n      pop\n      pop\n      swap1\n      pop\n      add\n      dup8\n      dup2\n      sub\n      dup7\n      mstore\n      dup13\n      dup2\n      dup2\n      mload\n      dup2\n      mstore\n      0x20\n      add\n      swap2\n      pop\n      dup1\n      mload\n      swap1\n      0x20\n      add\n      swap1\n      0x20\n      mul\n      dup1\n      dup4\n      dup4\n      0x00\n    tag_95:\n      dup4\n      dup2\n      lt\n      iszero\n      tag_97\n      jumpi\n      dup1\n      dup3\n      add\n      mload\n      dup2\n      dup5\n      add\n      mstore\n      0x20\n      dup2\n      add\n      swap1\n      pop\n      jump(tag_95)\n    tag_97:\n      pop\n      pop\n      pop\n      pop\n      swap1\n      pop\n      add\n      dup8\n      dup2\n      sub\n      dup6\n      mstore\n      dup12\n      dup2\n      dup2\n      mload\n      dup2\n      mstore\n      0x20\n      add\n      swap2\n      pop\n      dup1\n      mload\n      swap1\n      0x20\n      add\n      swap1\n      0x20\n      mul\n      dup1\n      dup4\n      dup4\n      0x00\n    tag_98:\n      dup4\n      dup2\n      lt\n      iszero\n      tag_100\n      jumpi\n      dup1\n      dup3\n      add\n      mload\n      dup2\n      dup5\n      add\n      mstore\n      0x20\n      dup2\n      add\n      swap1\n      pop\n      jump(tag_98)\n    tag_100:\n      pop\n      pop\n      pop\n      pop\n      swap1\n      pop\n      add\n      dup8\n      dup2\n      sub\n      dup5\n      mstore\n      dup11\n      dup2\n      dup2\n      mload\n      dup2\n      mstore\n      0x20\n      add\n      swap2\n      pop\n      dup1\n      mload\n      swap1\n      0x20\n      add\n      swap1\n      0x20\n      mul\n      dup1\n      dup4\n      dup4\n      0x00\n    tag_101:\n      dup4\n      dup2\n      lt\n      iszero\n      tag_103\n      jumpi\n      dup1\n      dup3\n      add\n      mload\n      dup2\n      dup5\n      add\n      mstore\n      0x20\n      dup2\n      add\n      swap1\n      pop\n      jump(tag_101)\n    tag_103:\n      pop\n      pop\n      pop\n      pop\n      swap1\n      pop\n      add\n      dup8\n      dup2\n      sub\n      dup4\n      mstore\n      dup10\n      dup2\n      dup2\n      mload\n      dup2\n      mstore\n      0x20\n      add\n      swap2\n      pop\n      dup1\n      mload\n      swap1\n      0x20\n      add\n      swap1\n      0x20\n      mul\n      dup1\n      dup4\n      dup4\n      0x00\n    tag_104:\n      dup4\n      dup2\n      lt\n      iszero\n      tag_106\n      jumpi\n      dup1\n      dup3\n      add\n      mload\n      dup2\n      dup5\n      add\n      mstore\n      0x20\n      dup2\n      add\n      swap1\n      pop\n      jump(tag_104)\n    tag_106:\n      pop\n      pop\n      pop\n      pop\n      swap1\n      pop\n      add\n      dup8\n      dup2\n      sub\n      dup3\n      mstore\n      dup9\n      dup2\n      dup2\n      mload\n      dup2\n      mstore\n      0x20\n      add\n      swap2\n      pop\n      dup1\n      mload\n      swap1\n      0x20\n      add\n      swap1\n      0x20\n      mul\n      dup1\n      dup4\n      dup4\n      0x00\n    tag_107:\n      dup4\n      dup2\n      lt\n      iszero\n      tag_109\n      jumpi\n      dup1\n      dup3\n      add\n      mload\n      dup2\n      dup5\n      add\n      mstore\n      0x20\n      dup2\n      add\n      swap1\n      pop\n      jump(tag_107)\n    tag_109:\n      pop\n      pop\n      pop\n      pop\n      swap1\n      pop\n      add\n      swap13\n      pop\n      pop\n      pop\n      pop\n      pop\n      pop\n      pop\n      pop\n      pop\n      pop\n      pop\n      pop\n      pop\n      mload(0x40)\n      dup1\n      swap2\n      sub\n      swap1\n      return\n        /* \"contract/lottery.sol\":697:735  address[16] public nextWinerSecretGame */\n    tag_10:\n      callvalue\n      dup1\n      iszero\n      tag_110\n      jumpi\n      0x00\n      dup1\n      revert\n    tag_110:\n      pop\n      tag_111\n      0x04\n      dup1\n      calldatasize\n      sub\n      0x20\n      dup2\n      lt\n      iszero\n      tag_112\n      jumpi\n      0x00\n      dup1\n      revert\n    tag_112:\n      dup2\n      add\n      swap1\n      dup1\n      dup1\n      calldataload\n      swap1\n      0x20\n      add\n      swap1\n      swap3\n      swap2\n      swap1\n      pop\n      pop\n      pop\n      tag_113\n      jump\t// in\n    tag_111:\n      mload(0x40)\n      dup1\n      dup3\n      0xffffffffffffffffffffffffffffffffffffffff\n      and\n      dup2\n      mstore\n      0x20\n      add\n      swap2\n      pop\n      pop\n      mload(0x40)\n      dup1\n      swap2\n      sub\n      swap1\n      return\n        /* \"contract/lottery.sol\":17427:17622  function getGlobalStatistic() public view returns(uint[5] memory result) {\r... */\n    tag_11:\n      callvalue\n      dup1\n      iszero\n      tag_114\n      jumpi\n      0x00\n      dup1\n      revert\n    tag_114:\n      pop\n      tag_115\n      tag_116\n      jump\t// in\n    tag_115:\n      mload(0x40)\n      dup1\n      dup3\n      mul(0x20, 0x05)\n      dup1\n      dup4\n      dup4\n      0x00\n    tag_117:\n      dup4\n      dup2\n      lt\n      iszero\n      tag_119\n      jumpi\n      dup1\n      dup3\n      add\n      mload\n      dup2\n      dup5\n      add\n      mstore\n      0x20\n      dup2\n      add\n      swap1\n      pop\n      jump(tag_117)\n    tag_119:\n      pop\n      pop\n      pop\n      pop\n      swap1\n      pop\n      add\n      swap2\n      pop\n      pop\n      mload(0x40)\n      dup1\n      swap2\n      sub\n      swap1\n      return\n        /* \"contract/lottery.sol\":2956:2995  uint8 public constant rewardPayouts = 2 */\n    tag_12:\n      callvalue\n      dup1\n      iszero\n      tag_120\n      jumpi\n      0x00\n      dup1\n      revert\n    tag_120:\n      pop\n      tag_121\n      tag_122\n      jump\t// in\n    tag_121:\n      mload(0x40)\n      dup1\n      dup3\n      0xff\n      and\n      dup2\n      mstore\n      0x20\n      add\n      swap2\n      pop\n      pop\n      mload(0x40)\n      dup1\n      swap2\n      sub\n      swap1\n      return\n        /* \"contract/lottery.sol\":3239:3271  address payable public marketing */\n    tag_13:\n      callvalue\n      dup1\n      iszero\n      tag_123\n      jumpi\n      0x00\n      dup1\n      revert\n    tag_123:\n      pop\n      tag_124\n      tag_125\n      jump\t// in\n    tag_124:\n      mload(0x40)\n      dup1\n      dup3\n      0xffffffffffffffffffffffffffffffffffffffff\n      and\n      dup2\n      mstore\n      0x20\n      add\n      swap2\n      pop\n      pop\n      mload(0x40)\n      dup1\n      swap2\n      sub\n      swap1\n      return\n        /* \"contract/lottery.sol\":17209:17311  function gettimeRoundEnd() public view returns(uint[16] memory) {\r... */\n    tag_14:\n      callvalue\n      dup1\n      iszero\n      tag_126\n      jumpi\n      0x00\n      dup1\n      revert\n    tag_126:\n      pop\n      tag_127\n      tag_128\n      jump\t// in\n    tag_127:\n      mload(0x40)\n      dup1\n      dup3\n      mul(0x20, 0x10)\n      dup1\n      dup4\n      dup4\n      0x00\n    tag_129:\n      dup4\n      dup2\n      lt\n      iszero\n      tag_131\n      jumpi\n      dup1\n      dup3\n      add\n      mload\n      dup2\n      dup5\n      add\n      mstore\n      0x20\n      dup2\n      add\n      swap1\n      pop\n      jump(tag_129)\n    tag_131:\n      pop\n      pop\n      pop\n      pop\n      swap1\n      pop\n      add\n      swap2\n      pop\n      pop\n      mload(0x40)\n      dup1\n      swap2\n      sub\n      swap1\n      return\n        /* \"contract/lottery.sol\":19082:19370  function calcSecretPrize(uint8 round) public view returns(uint value) {\r... */\n    tag_15:\n      callvalue\n      dup1\n      iszero\n      tag_132\n      jumpi\n      0x00\n      dup1\n      revert\n    tag_132:\n      pop\n      tag_133\n      0x04\n      dup1\n      calldatasize\n      sub\n      0x20\n      dup2\n      lt\n      iszero\n      tag_134\n      jumpi\n      0x00\n      dup1\n      revert\n    tag_134:\n      dup2\n      add\n      swap1\n      dup1\n      dup1\n      calldataload\n      0xff\n      and\n      swap1\n      0x20\n      add\n      swap1\n      swap3\n      swap2\n      swap1\n      pop\n      pop\n      pop\n      tag_135\n      jump\t// in\n    tag_133:\n      mload(0x40)\n      dup1\n      dup3\n      dup2\n      mstore\n      0x20\n      add\n      swap2\n      pop\n      pop\n      mload(0x40)\n      dup1\n      swap2\n      sub\n      swap1\n      return\n        /* \"contract/lottery.sol\":17983:18106  function getUserIdByAddress(address userAddress) public view returns (uint) {\r... */\n    tag_16:\n      callvalue\n      dup1\n      iszero\n      tag_136\n      jumpi\n      0x00\n      dup1\n      revert\n    tag_136:\n      pop\n      tag_137\n      0x04\n      dup1\n      calldatasize\n      sub\n      0x20\n      dup2\n      lt\n      iszero\n      tag_138\n      jumpi\n      0x00\n      dup1\n      revert\n    tag_138:\n      dup2\n      add\n      swap1\n      dup1\n      dup1\n      calldataload\n      0xffffffffffffffffffffffffffffffffffffffff\n      and\n      swap1\n      0x20\n      add\n      swap1\n      swap3\n      swap2\n      swap1\n      pop\n      pop\n      pop\n      tag_139\n      jump\t// in\n    tag_137:\n      mload(0x40)\n      dup1\n      dup3\n      dup2\n      mstore\n      0x20\n      add\n      swap2\n      pop\n      pop\n      mload(0x40)\n      dup1\n      swap2\n      sub\n      swap1\n      return\n        /* \"contract/lottery.sol\":18304:18504  function getReferrer(address userAddress) public view returns (address) {\r... */\n    tag_17:\n      callvalue\n      dup1\n      iszero\n      tag_140\n      jumpi\n      0x00\n      dup1\n      revert\n    tag_140:\n      pop\n      tag_141\n      0x04\n      dup1\n      calldatasize\n      sub\n      0x20\n      dup2\n      lt\n      iszero\n      tag_142\n      jumpi\n      0x00\n      dup1\n      revert\n    tag_142:\n      dup2\n      add\n      swap1\n      dup1\n      dup1\n      calldataload\n      0xffffffffffffffffffffffffffffffffffffffff\n      and\n      swap1\n      0x20\n      add\n      swap1\n      swap3\n      swap2\n      swap1\n      pop\n      pop\n      pop\n      tag_143\n      jump\t// in\n    tag_141:\n      mload(0x40)\n      dup1\n      dup3\n      0xffffffffffffffffffffffffffffffffffffffff\n      and\n      dup2\n      mstore\n      0x20\n      add\n      swap2\n      pop\n      pop\n      mload(0x40)\n      dup1\n      swap2\n      sub\n      swap1\n      return\n        /* \"contract/lottery.sol\":3100:3139  uint8 public referralRewardPercents = 9 */\n    tag_18:\n      callvalue\n      dup1\n      iszero\n      tag_144\n      jumpi\n      0x00\n      dup1\n      revert\n    tag_144:\n      pop\n      tag_145\n      tag_146\n      jump\t// in\n    tag_145:\n      mload(0x40)\n      dup1\n      dup3\n      0xff\n      and\n      dup2\n      mstore\n      0x20\n      add\n      swap2\n      pop\n      pop\n      mload(0x40)\n      dup1\n      swap2\n      sub\n      swap1\n      return\n        /* \"contract/lottery.sol\":6714:10912  function buyround(uint8 round) public payable nonReentrant{\r... */\n    tag_19:\n      tag_147\n      0x04\n      dup1\n      calldatasize\n      sub\n      0x20\n      dup2\n      lt\n      iszero\n      tag_148\n      jumpi\n      0x00\n      dup1\n      revert\n    tag_148:\n      dup2\n      add\n      swap1\n      dup1\n      dup1\n      calldataload\n      0xff\n      and\n      swap1\n      0x20\n      add\n      swap1\n      swap3\n      swap2\n      swap1\n      pop\n      pop\n      pop\n      tag_66\n      jump\t// in\n    tag_147:\n      stop\n        /* \"contract/lottery.sol\":15155:15773  function getUserroundsMissedProfit(address userAddress) public view returns ( uint[] memory, uint[] memory) {\r... */\n    tag_20:\n      callvalue\n      dup1\n      iszero\n      tag_149\n      jumpi\n      0x00\n      dup1\n      revert\n    tag_149:\n      pop\n      tag_150\n      0x04\n      dup1\n      calldatasize\n      sub\n      0x20\n      dup2\n      lt\n      iszero\n      tag_151\n      jumpi\n      0x00\n      dup1\n      revert\n    tag_151:\n      dup2\n      add\n      swap1\n      dup1\n      dup1\n      calldataload\n      0xffffffffffffffffffffffffffffffffffffffff\n      and\n      swap1\n      0x20\n      add\n      swap1\n      swap3\n      swap2\n      swap1\n      pop\n      pop\n      pop\n      tag_152\n      jump\t// in\n    tag_150:\n      mload(0x40)\n      dup1\n      dup1\n      0x20\n      add\n      dup1\n      0x20\n      add\n      dup4\n      dup2\n      sub\n      dup4\n      mstore\n      dup6\n      dup2\n      dup2\n      mload\n      dup2\n      mstore\n      0x20\n      add\n      swap2\n      pop\n      dup1\n      mload\n      swap1\n      0x20\n      add\n      swap1\n      0x20\n      mul\n      dup1\n      dup4\n      dup4\n      0x00\n    tag_153:\n      dup4\n      dup2\n      lt\n      iszero\n      tag_155\n      jumpi\n      dup1\n      dup3\n      add\n      mload\n      dup2\n      dup5\n      add\n      mstore\n      0x20\n      dup2\n      add\n      swap1\n      pop\n      jump(tag_153)\n    tag_155:\n      pop\n      pop\n      pop\n      pop\n      swap1\n      pop\n      add\n      dup4\n      dup2\n      sub\n      dup3\n      mstore\n      dup5\n      dup2\n      dup2\n      mload\n      dup2\n      mstore\n      0x20\n      add\n      swap2\n      pop\n      dup1\n      mload\n      swap1\n      0x20\n      add\n      swap1\n      0x20\n      mul\n      dup1\n      dup4\n      dup4\n      0x00\n    tag_156:\n      dup4\n      dup2\n      lt\n      iszero\n      tag_158\n      jumpi\n      dup1\n      dup3\n      add\n      mload\n      dup2\n      dup5\n      add\n      mstore\n      0x20\n      dup2\n      add\n      swap1\n      pop\n      jump(tag_156)\n    tag_158:\n      pop\n      pop\n      pop\n      pop\n      swap1\n      pop\n      add\n      swap5\n      pop\n      pop\n      pop\n      pop\n      pop\n      mload(0x40)\n      dup1\n      swap2\n      sub\n      swap1\n      return\n        /* \"contract/lottery.sol\":662:690  uint[16] public timeRoudsEnd */\n    tag_21:\n      callvalue\n      dup1\n      iszero\n      tag_159\n      jumpi\n      0x00\n      dup1\n      revert\n    tag_159:\n      pop\n      tag_160\n      0x04\n      dup1\n      calldatasize\n      sub\n      0x20\n      dup2\n      lt\n      iszero\n      tag_161\n      jumpi\n      0x00\n      dup1\n      revert\n    tag_161:\n      dup2\n      add\n      swap1\n      dup1\n      dup1\n      calldataload\n      swap1\n      0x20\n      add\n      swap1\n      swap3\n      swap2\n      swap1\n      pop\n      pop\n      pop\n      tag_162\n      jump\t// in\n    tag_160:\n      mload(0x40)\n      dup1\n      dup3\n      dup2\n      mstore\n      0x20\n      add\n      swap2\n      pop\n      pop\n      mload(0x40)\n      dup1\n      swap2\n      sub\n      swap1\n      return\n        /* \"contract/lottery.sol\":3278:3656  uint[] public roundPrice = [\r... */\n    tag_22:\n      callvalue\n      dup1\n      iszero\n      tag_163\n      jumpi\n      0x00\n      dup1\n      revert\n    tag_163:\n      pop\n      tag_164\n      0x04\n      dup1\n      calldatasize\n      sub\n      0x20\n      dup2\n      lt\n      iszero\n      tag_165\n      jumpi\n      0x00\n      dup1\n      revert\n    tag_165:\n      dup2\n      add\n      swap1\n      dup1\n      dup1\n      calldataload\n      swap1\n      0x20\n      add\n      swap1\n      swap3\n      swap2\n      swap1\n      pop\n      pop\n      pop\n      tag_166\n      jump\t// in\n    tag_164:\n      mload(0x40)\n      dup1\n      dup3\n      dup2\n      mstore\n      0x20\n      add\n      swap2\n      pop\n      pop\n      mload(0x40)\n      dup1\n      swap2\n      sub\n      swap1\n      return\n        /* \"contract/lottery.sol\":630:655  uint[16] public RoiRounds */\n    tag_23:\n      callvalue\n      dup1\n      iszero\n      tag_167\n      jumpi\n      0x00\n      dup1\n      revert\n    tag_167:\n      pop\n      tag_168\n      0x04\n      dup1\n      calldatasize\n      sub\n      0x20\n      dup2\n      lt\n      iszero\n      tag_169\n      jumpi\n      0x00\n      dup1\n      revert\n    tag_169:\n      dup2\n      add\n      swap1\n      dup1\n      dup1\n      calldataload\n      swap1\n      0x20\n      add\n      swap1\n      swap3\n      swap2\n      swap1\n      pop\n      pop\n      pop\n      tag_170\n      jump\t// in\n    tag_168:\n      mload(0x40)\n      dup1\n      dup3\n      dup2\n      mstore\n      0x20\n      add\n      swap2\n      pop\n      pop\n      mload(0x40)\n      dup1\n      swap2\n      sub\n      swap1\n      return\n        /* \"contract/lottery.sol\":14610:15145  function getUser(address userAddress) public view returns(uint, uint, uint, address, uint, uint, uint, uint, uint, uint) {\r... */\n    tag_24:\n      callvalue\n      dup1\n      iszero\n      tag_171\n      jumpi\n      0x00\n      dup1\n      revert\n    tag_171:\n      pop\n      tag_172\n      0x04\n      dup1\n      calldatasize\n      sub\n      0x20\n      dup2\n      lt\n      iszero\n      tag_173\n      jumpi\n      0x00\n      dup1\n      revert\n    tag_173:\n      dup2\n      add\n      swap1\n      dup1\n      dup1\n      calldataload\n      0xffffffffffffffffffffffffffffffffffffffff\n      and\n      swap1\n      0x20\n      add\n      swap1\n      swap3\n      swap2\n      swap1\n      pop\n      pop\n      pop\n      tag_174\n      jump\t// in\n    tag_172:\n      mload(0x40)\n      dup1\n      dup12\n      dup2\n      mstore\n      0x20\n      add\n      dup11\n      dup2\n      mstore\n      0x20\n      add\n      dup10\n      dup2\n      mstore\n      0x20\n      add\n      dup9\n      0xffffffffffffffffffffffffffffffffffffffff\n      and\n      dup2\n      mstore\n      0x20\n      add\n      dup8\n      dup2\n      mstore\n      0x20\n      add\n      dup7\n      dup2\n      mstore\n      0x20\n      add\n      dup6\n      dup2\n      mstore\n      0x20\n      add\n      dup5\n      dup2\n      mstore\n      0x20\n      add\n      dup4\n      dup2\n      mstore\n      0x20\n      add\n      dup3\n      dup2\n      mstore\n      0x20\n      add\n      swap11\n      pop\n      pop\n      pop\n      pop\n      pop\n      pop\n      pop\n      pop\n      pop\n      pop\n      pop\n      mload(0x40)\n      dup1\n      swap2\n      sub\n      swap1\n      return\n        /* \"contract/lottery.sol\":17628:17732  function getContractBalance() public view returns (uint) {\r... */\n    tag_25:\n      callvalue\n      dup1\n      iszero\n      tag_175\n      jumpi\n      0x00\n      dup1\n      revert\n    tag_175:\n      pop\n      tag_176\n      tag_177\n      jump\t// in\n    tag_176:\n      mload(0x40)\n      dup1\n      dup3\n      dup2\n      mstore\n      0x20\n      add\n      swap2\n      pop\n      pop\n      mload(0x40)\n      dup1\n      swap2\n      sub\n      swap1\n      return\n        /* \"contract/lottery.sol\":600:623  uint public timeLottery */\n    tag_26:\n      callvalue\n      dup1\n      iszero\n      tag_178\n      jumpi\n      0x00\n      dup1\n      revert\n    tag_178:\n      pop\n      tag_179\n      tag_180\n      jump\t// in\n    tag_179:\n      mload(0x40)\n      dup1\n      dup3\n      dup2\n      mstore\n      0x20\n      add\n      swap2\n      pop\n      pop\n      mload(0x40)\n      dup1\n      swap2\n      sub\n      swap1\n      return\n        /* \"contract/lottery.sol\":10918:10953  function income() public payable {} */\n    tag_27:\n      tag_181\n      tag_182\n      jump\t// in\n    tag_181:\n      stop\n        /* \"contract/lottery.sol\":17856:17977  function getUserAddressById(uint userId) public view returns (address) {\r... */\n    tag_28:\n      callvalue\n      dup1\n      iszero\n      tag_183\n      jumpi\n      0x00\n      dup1\n      revert\n    tag_183:\n      pop\n      tag_184\n      0x04\n      dup1\n      calldatasize\n      sub\n      0x20\n      dup2\n      lt\n      iszero\n      tag_185\n      jumpi\n      0x00\n      dup1\n      revert\n    tag_185:\n      dup2\n      add\n      swap1\n      dup1\n      dup1\n      calldataload\n      swap1\n      0x20\n      add\n      swap1\n      swap3\n      swap2\n      swap1\n      pop\n      pop\n      pop\n      tag_186\n      jump\t// in\n    tag_184:\n      mload(0x40)\n      dup1\n      dup3\n      0xffffffffffffffffffffffffffffffffffffffff\n      and\n      dup2\n      mstore\n      0x20\n      add\n      swap2\n      pop\n      pop\n      mload(0x40)\n      dup1\n      swap2\n      sub\n      swap1\n      return\n        /* \"contract/lottery.sol\":17318:17421  function getLotteryWiner() public view returns(address[50] memory) {\r... */\n    tag_29:\n      callvalue\n      dup1\n      iszero\n      tag_187\n      jumpi\n      0x00\n      dup1\n      revert\n    tag_187:\n      pop\n      tag_188\n      tag_189\n      jump\t// in\n    tag_188:\n      mload(0x40)\n      dup1\n      dup3\n      mul(0x20, 0x32)\n      dup1\n      dup4\n      dup4\n      0x00\n    tag_190:\n      dup4\n      dup2\n      lt\n      iszero\n      tag_192\n      jumpi\n      dup1\n      dup3\n      add\n      mload\n      dup2\n      dup5\n      add\n      mstore\n      0x20\n      dup2\n      add\n      swap1\n      pop\n      jump(tag_190)\n    tag_192:\n      pop\n      pop\n      pop\n      pop\n      swap1\n      pop\n      add\n      swap2\n      pop\n      pop\n      mload(0x40)\n      dup1\n      swap2\n      sub\n      swap1\n      return\n        /* \"contract/lottery.sol\":3204:3232  address payable public owner */\n    tag_30:\n      callvalue\n      dup1\n      iszero\n      tag_193\n      jumpi\n      0x00\n      dup1\n      revert\n    tag_193:\n      pop\n      tag_194\n      tag_195\n      jump\t// in\n    tag_194:\n      mload(0x40)\n      dup1\n      dup3\n      0xffffffffffffffffffffffffffffffffffffffff\n      and\n      dup2\n      mstore\n      0x20\n      add\n      swap2\n      pop\n      pop\n      mload(0x40)\n      dup1\n      swap2\n      sub\n      swap1\n      return\n        /* \"contract/lottery.sol\":10959:12216  function Lottery(uint ticket) public {\r... */\n    tag_31:\n      callvalue\n      dup1\n      iszero\n      tag_196\n      jumpi\n      0x00\n      dup1\n      revert\n    tag_196:\n      pop\n      tag_197\n      0x04\n      dup1\n      calldatasize\n      sub\n      0x20\n      dup2\n      lt\n      iszero\n      tag_198\n      jumpi\n      0x00\n      dup1\n      revert\n    tag_198:\n      dup2\n      add\n      swap1\n      dup1\n      dup1\n      calldataload\n      swap1\n      0x20\n      add\n      swap1\n      swap3\n      swap2\n      swap1\n      pop\n      pop\n      pop\n      tag_199\n      jump\t// in\n    tag_197:\n      stop\n        /* \"contract/lottery.sol\":5640:6708  function registerWithReferrer(address referrer) public payable {\r... */\n    tag_32:\n      tag_200\n      0x04\n      dup1\n      calldatasize\n      sub\n      0x20\n      dup2\n      lt\n      iszero\n      tag_201\n      jumpi\n      0x00\n      dup1\n      revert\n    tag_201:\n      dup2\n      add\n      swap1\n      dup1\n      dup1\n      calldataload\n      0xffffffffffffffffffffffffffffffffffffffff\n      and\n      swap1\n      0x20\n      add\n      swap1\n      swap3\n      swap2\n      swap1\n      pop\n      pop\n      pop\n      tag_202\n      jump\t// in\n    tag_200:\n      stop\n        /* \"contract/lottery.sol\":3146:3191  uint8 public referralRewardProfitPercents = 8 */\n    tag_33:\n      callvalue\n      dup1\n      iszero\n      tag_203\n      jumpi\n      0x00\n      dup1\n      revert\n    tag_203:\n      pop\n      tag_204\n      tag_205\n      jump\t// in\n    tag_204:\n      mload(0x40)\n      dup1\n      dup3\n      0xff\n      and\n      dup2\n      mstore\n      0x20\n      add\n      swap2\n      pop\n      pop\n      mload(0x40)\n      dup1\n      swap2\n      sub\n      swap1\n      return\n        /* \"contract/lottery.sol\":3735:3772  mapping(address => User) public users */\n    tag_34:\n      callvalue\n      dup1\n      iszero\n      tag_206\n      jumpi\n      0x00\n      dup1\n      revert\n    tag_206:\n      pop\n      tag_207\n      0x04\n      dup1\n      calldatasize\n      sub\n      0x20\n      dup2\n      lt\n      iszero\n      tag_208\n      jumpi\n      0x00\n      dup1\n      revert\n    tag_208:\n      dup2\n      add\n      swap1\n      dup1\n      dup1\n      calldataload\n      0xffffffffffffffffffffffffffffffffffffffff\n      and\n      swap1\n      0x20\n      add\n      swap1\n      swap3\n      swap2\n      swap1\n      pop\n      pop\n      pop\n      tag_209\n      jump\t// in\n    tag_207:\n      mload(0x40)\n      dup1\n      dup11\n      dup2\n      mstore\n      0x20\n      add\n      dup10\n      dup2\n      mstore\n      0x20\n      add\n      dup9\n      0xffffffffffffffffffffffffffffffffffffffff\n      and\n      dup2\n      mstore\n      0x20\n      add\n      dup8\n      dup2\n      mstore\n      0x20\n      add\n      dup7\n      dup2\n      mstore\n      0x20\n      add\n      dup6\n      dup2\n      mstore\n      0x20\n      add\n      dup5\n      dup2\n      mstore\n      0x20\n      add\n      dup4\n      0xff\n      and\n      dup2\n      mstore\n      0x20\n      add\n      dup3\n      dup2\n      mstore\n      0x20\n      add\n      swap10\n      pop\n      pop\n      pop\n      pop\n      pop\n      pop\n      pop\n      pop\n      pop\n      pop\n      mload(0x40)\n      dup1\n      swap2\n      sub\n      swap1\n      return\n        /* \"contract/lottery.sol\":742:792  mapping(address => uint) public lastTimeActivation */\n    tag_35:\n      callvalue\n      dup1\n      iszero\n      tag_210\n      jumpi\n      0x00\n      dup1\n      revert\n    tag_210:\n      pop\n      tag_211\n      0x04\n      dup1\n      calldatasize\n      sub\n      0x20\n      dup2\n      lt\n      iszero\n      tag_212\n      jumpi\n      0x00\n      dup1\n      revert\n    tag_212:\n      dup2\n      add\n      swap1\n      dup1\n      dup1\n      calldataload\n      0xffffffffffffffffffffffffffffffffffffffff\n      and\n      swap1\n      0x20\n      add\n      swap1\n      swap3\n      swap2\n      swap1\n      pop\n      pop\n      pop\n      tag_213\n      jump\t// in\n    tag_211:\n      mload(0x40)\n      dup1\n      dup3\n      dup2\n      mstore\n      0x20\n      add\n      swap2\n      pop\n      pop\n      mload(0x40)\n      dup1\n      swap2\n      sub\n      swap1\n      return\n        /* \"contract/lottery.sol\":5420:5547  function buyFirstRound(address referrer) public payable {\r... */\n    tag_36:\n      tag_214\n      0x04\n      dup1\n      calldatasize\n      sub\n      0x20\n      dup2\n      lt\n      iszero\n      tag_215\n      jumpi\n      0x00\n      dup1\n      revert\n    tag_215:\n      dup2\n      add\n      swap1\n      dup1\n      dup1\n      calldataload\n      0xffffffffffffffffffffffffffffffffffffffff\n      and\n      swap1\n      0x20\n      add\n      swap1\n      swap3\n      swap2\n      swap1\n      pop\n      pop\n      pop\n      tag_216\n      jump\t// in\n    tag_214:\n      stop\n        /* \"contract/lottery.sol\":18112:18298  function getReferrerId(address userAddress) public view returns (uint) {\r... */\n    tag_37:\n      callvalue\n      dup1\n      iszero\n      tag_217\n      jumpi\n      0x00\n      dup1\n      revert\n    tag_217:\n      pop\n      tag_218\n      0x04\n      dup1\n      calldatasize\n      sub\n      0x20\n      dup2\n      lt\n      iszero\n      tag_219\n      jumpi\n      0x00\n      dup1\n      revert\n    tag_219:\n      dup2\n      add\n      swap1\n      dup1\n      dup1\n      calldataload\n      0xffffffffffffffffffffffffffffffffffffffff\n      and\n      swap1\n      0x20\n      add\n      swap1\n      swap3\n      swap2\n      swap1\n      pop\n      pop\n      pop\n      tag_220\n      jump\t// in\n    tag_218:\n      mload(0x40)\n      dup1\n      dup3\n      dup2\n      mstore\n      0x20\n      add\n      swap2\n      pop\n      pop\n      mload(0x40)\n      dup1\n      swap2\n      sub\n      swap1\n      return\n        /* \"contract/lottery.sol\":3002:3043  uint8 public constant rewardPercents = 75 */\n    tag_38:\n      callvalue\n      dup1\n      iszero\n      tag_221\n      jumpi\n      0x00\n      dup1\n      revert\n    tag_221:\n      pop\n      tag_222\n      tag_223\n      jump\t// in\n    tag_222:\n      mload(0x40)\n      dup1\n      dup3\n      0xff\n      and\n      dup2\n      mstore\n      0x20\n      add\n      swap2\n      pop\n      pop\n      mload(0x40)\n      dup1\n      swap2\n      sub\n      swap1\n      return\n        /* \"contract/lottery.sol\":12222:12696  function getPrize() public nonReentrant{\r... */\n    tag_39:\n      callvalue\n      dup1\n      iszero\n      tag_224\n      jumpi\n      0x00\n      dup1\n      revert\n    tag_224:\n      pop\n      tag_225\n      tag_226\n      jump\t// in\n    tag_225:\n      stop\n        /* \"contract/lottery.sol\":17108:17203  function getRoiRound() public view returns(uint[16] memory) {\r... */\n    tag_40:\n      callvalue\n      dup1\n      iszero\n      tag_227\n      jumpi\n      0x00\n      dup1\n      revert\n    tag_227:\n      pop\n      tag_228\n      tag_229\n      jump\t// in\n    tag_228:\n      mload(0x40)\n      dup1\n      dup3\n      mul(0x20, 0x10)\n      dup1\n      dup4\n      dup4\n      0x00\n    tag_230:\n      dup4\n      dup2\n      lt\n      iszero\n      tag_232\n      jumpi\n      dup1\n      dup3\n      add\n      mload\n      dup2\n      dup5\n      add\n      mstore\n      0x20\n      dup2\n      add\n      swap1\n      pop\n      jump(tag_230)\n    tag_232:\n      pop\n      pop\n      pop\n      pop\n      swap1\n      pop\n      add\n      swap2\n      pop\n      pop\n      mload(0x40)\n      dup1\n      swap2\n      sub\n      swap1\n      return\n        /* \"contract/lottery.sol\":18510:19076  function getPlaceInQueue(address userAddress, uint8 round) public view returns(uint, uint) {\r... */\n    tag_41:\n      callvalue\n      dup1\n      iszero\n      tag_233\n      jumpi\n      0x00\n      dup1\n      revert\n    tag_233:\n      pop\n      tag_234\n      0x04\n      dup1\n      calldatasize\n      sub\n      0x40\n      dup2\n      lt\n      iszero\n      tag_235\n      jumpi\n      0x00\n      dup1\n      revert\n    tag_235:\n      dup2\n      add\n      swap1\n      dup1\n      dup1\n      calldataload\n      0xffffffffffffffffffffffffffffffffffffffff\n      and\n      swap1\n      0x20\n      add\n      swap1\n      swap3\n      swap2\n      swap1\n      dup1\n      calldataload\n      0xff\n      and\n      swap1\n      0x20\n      add\n      swap1\n      swap3\n      swap2\n      swap1\n      pop\n      pop\n      pop\n      tag_236\n      jump\t// in\n    tag_234:\n      mload(0x40)\n      dup1\n      dup4\n      dup2\n      mstore\n      0x20\n      add\n      dup3\n      dup2\n      mstore\n      0x20\n      add\n      swap3\n      pop\n      pop\n      pop\n      mload(0x40)\n      dup1\n      swap2\n      sub\n      swap1\n      return\n        /* \"contract/lottery.sol\":3050:3093  uint8 public constant marketingPercents = 7 */\n    tag_42:\n      callvalue\n      dup1\n      iszero\n      tag_237\n      jumpi\n      0x00\n      dup1\n      revert\n    tag_237:\n      pop\n      tag_238\n      tag_239\n      jump\t// in\n    tag_238:\n      mload(0x40)\n      dup1\n      dup3\n      0xff\n      and\n      dup2\n      mstore\n      0x20\n      add\n      swap2\n      pop\n      pop\n      mload(0x40)\n      dup1\n      swap2\n      sub\n      swap1\n      return\n        /* \"contract/lottery.sol\":566:593  uint public todayWinerValue */\n    tag_43:\n      callvalue\n      dup1\n      iszero\n      tag_240\n      jumpi\n      0x00\n      dup1\n      revert\n    tag_240:\n      pop\n      tag_241\n      tag_242\n      jump\t// in\n    tag_241:\n      mload(0x40)\n      dup1\n      dup3\n      dup2\n      mstore\n      0x20\n      add\n      swap2\n      pop\n      pop\n      mload(0x40)\n      dup1\n      swap2\n      sub\n      swap1\n      return\n        /* \"contract/lottery.sol\":17738:17850  function isUserRegistered(address addr) public view returns (bool) {\r... */\n    tag_61:\n        /* \"contract/lottery.sol\":17799:17803  bool */\n      0x00\n        /* \"contract/lottery.sol\":17841:17842  0 */\n      dup1\n        /* \"contract/lottery.sol\":17823:17828  users */\n      0x6b\n        /* \"contract/lottery.sol\":17823:17834  users[addr] */\n      0x00\n        /* \"contract/lottery.sol\":17829:17833  addr */\n      dup5\n        /* \"contract/lottery.sol\":17823:17834  users[addr] */\n      0xffffffffffffffffffffffffffffffffffffffff\n      and\n      0xffffffffffffffffffffffffffffffffffffffff\n      and\n      dup2\n      mstore\n      0x20\n      add\n      swap1\n      dup2\n      mstore\n      0x20\n      add\n      0x00\n      keccak256\n        /* \"contract/lottery.sol\":17823:17837  users[addr].id */\n      0x00\n      add\n      sload\n        /* \"contract/lottery.sol\":17823:17842  users[addr].id != 0 */\n      eq\n      iszero\n        /* \"contract/lottery.sol\":17816:17842  return users[addr].id != 0 */\n      swap1\n      pop\n        /* \"contract/lottery.sol\":17738:17850  function isUserRegistered(address addr) public view returns (bool) {\r... */\n      swap2\n      swap1\n      pop\n      jump\t// out\n        /* \"contract/lottery.sol\":5553:5634  function register() public payable {\r... */\n    tag_64:\n        /* \"contract/lottery.sol\":5599:5626  registerWithReferrer(owner) */\n      tag_245\n        /* \"contract/lottery.sol\":5620:5625  owner */\n      0x66\n      0x02\n      swap1\n      sload\n      swap1\n      0x0100\n      exp\n      swap1\n      div\n      0xffffffffffffffffffffffffffffffffffffffff\n      and\n        /* \"contract/lottery.sol\":5599:5619  registerWithReferrer */\n      tag_202\n        /* \"contract/lottery.sol\":5599:5626  registerWithReferrer(owner) */\n      jump\t// in\n    tag_245:\n        /* \"contract/lottery.sol\":5553:5634  function register() public payable {\r... */\n      jump\t// out\n        /* \"contract/lottery.sol\":6714:10912  function buyround(uint8 round) public payable nonReentrant{\r... */\n    tag_66:\n        /* \"contract/lottery.sol\":180:181  2 */\n      0x02\n        /* \"contract/lottery.sol\":335:342  _status */\n      sload(0x00)\n        /* \"contract/lottery.sol\":335:354  _status != _ENTERED */\n      eq\n      iszero\n        /* \"contract/lottery.sol\":327:390  require(_status != _ENTERED, \"ReentrancyGuard: reentrant call\") */\n      tag_247\n      jumpi\n      mload(0x40)\n      0x08c379a000000000000000000000000000000000000000000000000000000000\n      dup2\n      mstore\n      0x04\n      add\n      dup1\n      dup1\n      0x20\n      add\n      dup3\n      dup2\n      sub\n      dup3\n      mstore\n      0x1f\n      dup2\n      mstore\n      0x20\n      add\n      dup1\n      0x5265656e7472616e637947756172643a207265656e7472616e742063616c6c00\n      dup2\n      mstore\n      pop\n      0x20\n      add\n      swap2\n      pop\n      pop\n      mload(0x40)\n      dup1\n      swap2\n      sub\n      swap1\n      revert\n    tag_247:\n        /* \"contract/lottery.sol\":180:181  2 */\n      0x02\n        /* \"contract/lottery.sol\":401:408  _status */\n      0x00\n        /* \"contract/lottery.sol\":401:419  _status = _ENTERED */\n      dup2\n      swap1\n      sstore\n      pop\n        /* \"contract/lottery.sol\":6791:6819  isUserRegistered(msg.sender) */\n      tag_249\n        /* \"contract/lottery.sol\":6808:6818  msg.sender */\n      caller\n        /* \"contract/lottery.sol\":6791:6807  isUserRegistered */\n      tag_61\n        /* \"contract/lottery.sol\":6791:6819  isUserRegistered(msg.sender) */\n      jump\t// in\n    tag_249:\n        /* \"contract/lottery.sol\":6783:6846  require(isUserRegistered(msg.sender), \"User is not registered\") */\n      tag_250\n      jumpi\n      mload(0x40)\n      0x08c379a000000000000000000000000000000000000000000000000000000000\n      dup2\n      mstore\n      0x04\n      add\n      dup1\n      dup1\n      0x20\n      add\n      dup3\n      dup2\n      sub\n      dup3\n      mstore\n      0x16\n      dup2\n      mstore\n      0x20\n      add\n      dup1\n      0x55736572206973206e6f74207265676973746572656400000000000000000000\n      dup2\n      mstore\n      pop\n      0x20\n      add\n      swap2\n      pop\n      pop\n      mload(0x40)\n      dup1\n      swap2\n      sub\n      swap1\n      revert\n    tag_250:\n        /* \"contract/lottery.sol\":6873:6874  0 */\n      0x00\n        /* \"contract/lottery.sol\":6865:6870  round */\n      dup2\n        /* \"contract/lottery.sol\":6865:6874  round > 0 */\n      0xff\n      and\n      gt\n        /* \"contract/lottery.sol\":6865:6898  round > 0 && round <= totalrounds */\n      dup1\n      iszero\n      tag_251\n      jumpi\n      pop\n        /* \"contract/lottery.sol\":6887:6898  totalrounds */\n      sload(0x69)\n        /* \"contract/lottery.sol\":6878:6883  round */\n      dup2\n        /* \"contract/lottery.sol\":6878:6898  round <= totalrounds */\n      0xff\n      and\n      gt\n      iszero\n        /* \"contract/lottery.sol\":6865:6898  round > 0 && round <= totalrounds */\n    tag_251:\n        /* \"contract/lottery.sol\":6857:6916  require(round > 0 && round <= totalrounds, \"Invalid round\") */\n      tag_252\n      jumpi\n      mload(0x40)\n      0x08c379a000000000000000000000000000000000000000000000000000000000\n      dup2\n      mstore\n      0x04\n      add\n      dup1\n      dup1\n      0x20\n      add\n      dup3\n      dup2\n      sub\n      dup3\n      mstore\n      0x0d\n      dup2\n      mstore\n      0x20\n      add\n      dup1\n      0x496e76616c696420726f756e6400000000000000000000000000000000000000\n      dup2\n      mstore\n      pop\n      0x20\n      add\n      swap2\n      pop\n      pop\n      mload(0x40)\n      dup1\n      swap2\n      sub\n      swap1\n      revert\n    tag_252:\n        /* \"contract/lottery.sol\":6956:6965  msg.value */\n      callvalue\n        /* \"contract/lottery.sol\":6935:6945  roundPrice */\n      0x68\n        /* \"contract/lottery.sol\":6946:6951  round */\n      dup3\n        /* \"contract/lottery.sol\":6935:6952  roundPrice[round] */\n      0xff\n      and\n      dup2\n      sload\n      dup2\n      lt\n      tag_253\n      jumpi\n      invalid\n    tag_253:\n      swap1\n      0x00\n      mstore\n      keccak256(0x00, 0x20)\n      add\n      sload\n        /* \"contract/lottery.sol\":6935:6965  roundPrice[round] == msg.value */\n      eq\n        /* \"contract/lottery.sol\":6927:6987  require(roundPrice[round] == msg.value, \"Invalid BNB value\") */\n      tag_255\n      jumpi\n      mload(0x40)\n      0x08c379a000000000000000000000000000000000000000000000000000000000\n      dup2\n      mstore\n      0x04\n      add\n      dup1\n      dup1\n      0x20\n      add\n      dup3\n      dup2\n      sub\n      dup3\n      mstore\n      0x11\n      dup2\n      mstore\n      0x20\n      add\n      dup1\n      0x496e76616c696420424e422076616c7565000000000000000000000000000000\n      dup2\n      mstore\n      pop\n      0x20\n      add\n      swap2\n      pop\n      pop\n      mload(0x40)\n      dup1\n      swap2\n      sub\n      swap1\n      revert\n    tag_255:\n        /* \"contract/lottery.sol\":7007:7029  isContract(msg.sender) */\n      tag_256\n        /* \"contract/lottery.sol\":7018:7028  msg.sender */\n      caller\n        /* \"contract/lottery.sol\":7007:7017  isContract */\n      tag_76\n        /* \"contract/lottery.sol\":7007:7029  isContract(msg.sender) */\n      jump\t// in\n    tag_256:\n        /* \"contract/lottery.sol\":7006:7029  !isContract(msg.sender) */\n      iszero\n        /* \"contract/lottery.sol\":6998:7055  require(!isContract(msg.sender), \"Can not be a contract\") */\n      tag_257\n      jumpi\n      mload(0x40)\n      0x08c379a000000000000000000000000000000000000000000000000000000000\n      dup2\n      mstore\n      0x04\n      add\n      dup1\n      dup1\n      0x20\n      add\n      dup3\n      dup2\n      sub\n      dup3\n      mstore\n      0x15\n      dup2\n      mstore\n      0x20\n      add\n      dup1\n      0x43616e206e6f74206265206120636f6e74726163740000000000000000000000\n      dup2\n      mstore\n      pop\n      0x20\n      add\n      swap2\n      pop\n      pop\n      mload(0x40)\n      dup1\n      swap2\n      sub\n      swap1\n      revert\n    tag_257:\n        /* \"contract/lottery.sol\":7110:7111  1 */\n      0x01\n        /* \"contract/lottery.sol\":7083:7088  users */\n      0x6b\n        /* \"contract/lottery.sol\":7083:7100  users[msg.sender] */\n      0x00\n        /* \"contract/lottery.sol\":7089:7099  msg.sender */\n      caller\n        /* \"contract/lottery.sol\":7083:7100  users[msg.sender] */\n      0xffffffffffffffffffffffffffffffffffffffff\n      and\n      0xffffffffffffffffffffffffffffffffffffffff\n      and\n      dup2\n      mstore\n      0x20\n      add\n      swap1\n      dup2\n      mstore\n      0x20\n      add\n      0x00\n      keccak256\n        /* \"contract/lottery.sol\":7083:7109  users[msg.sender].maxRound */\n      0x08\n      add\n      0x00\n      swap1\n      sload\n      swap1\n      0x0100\n      exp\n      swap1\n      div\n      0xff\n      and\n        /* \"contract/lottery.sol\":7083:7111  users[msg.sender].maxRound+1 */\n      add\n        /* \"contract/lottery.sol\":7074:7111  round <= users[msg.sender].maxRound+1 */\n      0xff\n      and\n        /* \"contract/lottery.sol\":7074:7079  round */\n      dup2\n        /* \"contract/lottery.sol\":7074:7111  round <= users[msg.sender].maxRound+1 */\n      0xff\n      and\n      gt\n      iszero\n        /* \"contract/lottery.sol\":7066:7135  require(round <= users[msg.sender].maxRound+1, \"Round not available\") */\n      tag_258\n      jumpi\n      mload(0x40)\n      0x08c379a000000000000000000000000000000000000000000000000000000000\n      dup2\n      mstore\n      0x04\n      add\n      dup1\n      dup1\n      0x20\n      add\n      dup3\n      dup2\n      sub\n      dup3\n      mstore\n      0x13\n      dup2\n      mstore\n      0x20\n      add\n      dup1\n      0x526f756e64206e6f7420617661696c61626c6500000000000000000000000000\n      dup2\n      mstore\n      pop\n      0x20\n      add\n      swap2\n      pop\n      pop\n      mload(0x40)\n      dup1\n      swap2\n      sub\n      swap1\n      revert\n    tag_258:\n        /* \"contract/lottery.sol\":7172:7175  now */\n      timestamp\n        /* \"contract/lottery.sol\":7150:7162  timeRoudsEnd */\n      0x45\n        /* \"contract/lottery.sol\":7163:7168  round */\n      dup3\n        /* \"contract/lottery.sol\":7150:7169  timeRoudsEnd[round] */\n      0xff\n      and\n      0x10\n      dup2\n      lt\n      tag_259\n      jumpi\n      invalid\n    tag_259:\n      add\n      sload\n        /* \"contract/lottery.sol\":7150:7175  timeRoudsEnd[round] < now */\n      lt\n        /* \"contract/lottery.sol\":7146:7819  if (timeRoudsEnd[round] < now){\r... */\n      iszero\n      tag_261\n      jumpi\n        /* \"contract/lottery.sol\":7202:7223  uint valueSecretPrize */\n      0x00\n        /* \"contract/lottery.sol\":7225:7247  calcSecretPrize(round) */\n      tag_262\n        /* \"contract/lottery.sol\":7241:7246  round */\n      dup3\n        /* \"contract/lottery.sol\":7225:7240  calcSecretPrize */\n      tag_135\n        /* \"contract/lottery.sol\":7225:7247  calcSecretPrize(round) */\n      jump\t// in\n    tag_262:\n        /* \"contract/lottery.sol\":7202:7247  uint valueSecretPrize =calcSecretPrize(round) */\n      swap1\n      pop\n        /* \"contract/lottery.sol\":7274:7298  bool sendSecretGamePrize */\n      0x00\n        /* \"contract/lottery.sol\":7309:7328  nextWinerSecretGame */\n      0x55\n        /* \"contract/lottery.sol\":7329:7334  round */\n      dup4\n        /* \"contract/lottery.sol\":7309:7335  nextWinerSecretGame[round] */\n      0xff\n      and\n      0x10\n      dup2\n      lt\n      tag_263\n      jumpi\n      invalid\n    tag_263:\n      add\n      0x00\n      swap1\n      sload\n      swap1\n      0x0100\n      exp\n      swap1\n      div\n      0xffffffffffffffffffffffffffffffffffffffff\n      and\n        /* \"contract/lottery.sol\":7301:7341  payable(nextWinerSecretGame[round]).send */\n      0xffffffffffffffffffffffffffffffffffffffff\n      and\n        /* \"contract/lottery.sol\":7301:7359  payable(nextWinerSecretGame[round]).send(valueSecretPrize) */\n      0x08fc\n        /* \"contract/lottery.sol\":7342:7358  valueSecretPrize */\n      dup4\n        /* \"contract/lottery.sol\":7301:7359  payable(nextWinerSecretGame[round]).send(valueSecretPrize) */\n      swap1\n      dup2\n      iszero\n      mul\n      swap1\n      mload(0x40)\n      0x00\n      mload(0x40)\n      dup1\n      dup4\n      sub\n      dup2\n      dup6\n      dup9\n      dup9\n      call\n      swap4\n      pop\n      pop\n      pop\n      pop\n        /* \"contract/lottery.sol\":7274:7359  bool sendSecretGamePrize = payable(nextWinerSecretGame[round]).send(valueSecretPrize) */\n      swap1\n      pop\n        /* \"contract/lottery.sol\":7390:7409  sendSecretGamePrize */\n      dup1\n        /* \"contract/lottery.sol\":7386:7638  if (sendSecretGamePrize) {\r... */\n      iszero\n      tag_266\n      jumpi\n        /* \"contract/lottery.sol\":7465:7470  86400 */\n      0x015180\n        /* \"contract/lottery.sol\":7442:7454  timeRoudsEnd */\n      0x45\n        /* \"contract/lottery.sol\":7455:7460  round */\n      dup5\n        /* \"contract/lottery.sol\":7442:7461  timeRoudsEnd[round] */\n      0xff\n      and\n      0x10\n      dup2\n      lt\n      tag_267\n      jumpi\n      invalid\n    tag_267:\n      add\n      0x00\n        /* \"contract/lottery.sol\":7442:7470  timeRoudsEnd[round] += 86400 */\n      dup3\n      dup3\n      sload\n      add\n      swap3\n      pop\n      pop\n      dup2\n      swap1\n      sstore\n      pop\n        /* \"contract/lottery.sol\":7528:7547  nextWinerSecretGame */\n      0x55\n        /* \"contract/lottery.sol\":7548:7553  round */\n      dup4\n        /* \"contract/lottery.sol\":7528:7554  nextWinerSecretGame[round] */\n      0xff\n      and\n      0x10\n      dup2\n      lt\n      tag_269\n      jumpi\n      invalid\n    tag_269:\n      add\n      0x00\n      swap1\n      sload\n      swap1\n      0x0100\n      exp\n      swap1\n      div\n      0xffffffffffffffffffffffffffffffffffffffff\n      and\n        /* \"contract/lottery.sol\":7506:7580  WinerForeverGame(now, nextWinerSecretGame[round], round, valueSecretPrize) */\n      0xffffffffffffffffffffffffffffffffffffffff\n      and\n      0x8ea1a10de3733db603227ca0e3cd0feb6da4f1c33fb15cb9265fa333a64797c2\n        /* \"contract/lottery.sol\":7523:7526  now */\n      timestamp\n        /* \"contract/lottery.sol\":7556:7561  round */\n      dup6\n        /* \"contract/lottery.sol\":7563:7579  valueSecretPrize */\n      dup6\n        /* \"contract/lottery.sol\":7506:7580  WinerForeverGame(now, nextWinerSecretGame[round], round, valueSecretPrize) */\n      mload(0x40)\n      dup1\n      dup5\n      dup2\n      mstore\n      0x20\n      add\n      dup4\n      0xff\n      and\n      dup2\n      mstore\n      0x20\n      add\n      dup3\n      dup2\n      mstore\n      0x20\n      add\n      swap4\n      pop\n      pop\n      pop\n      pop\n      mload(0x40)\n      dup1\n      swap2\n      sub\n      swap1\n      log2\n        /* \"contract/lottery.sol\":7386:7638  if (sendSecretGamePrize) {\r... */\n    tag_266:\n        /* \"contract/lottery.sol\":7146:7819  if (timeRoudsEnd[round] < now){\r... */\n      pop\n      pop\n      jump(tag_271)\n    tag_261:\n        /* \"contract/lottery.sol\":7743:7747  3600 */\n      0x0e10\n        /* \"contract/lottery.sol\":7720:7732  timeRoudsEnd */\n      0x45\n        /* \"contract/lottery.sol\":7733:7738  round */\n      dup3\n        /* \"contract/lottery.sol\":7720:7739  timeRoudsEnd[round] */\n      0xff\n      and\n      0x10\n      dup2\n      lt\n      tag_272\n      jumpi\n      invalid\n    tag_272:\n      add\n      0x00\n        /* \"contract/lottery.sol\":7720:7747  timeRoudsEnd[round] += 3600 */\n      dup3\n      dup3\n      sload\n      add\n      swap3\n      pop\n      pop\n      dup2\n      swap1\n      sstore\n      pop\n        /* \"contract/lottery.sol\":7792:7795  now */\n      timestamp\n        /* \"contract/lottery.sol\":7774:7786  timeRoudsEnd */\n      0x45\n        /* \"contract/lottery.sol\":7787:7788  0 */\n      0x00\n        /* \"contract/lottery.sol\":7774:7789  timeRoudsEnd[0] */\n      0x10\n      dup2\n      lt\n      tag_274\n      jumpi\n      invalid\n    tag_274:\n      add\n        /* \"contract/lottery.sol\":7774:7795  timeRoudsEnd[0] = now */\n      dup2\n      swap1\n      sstore\n      pop\n        /* \"contract/lottery.sol\":7146:7819  if (timeRoudsEnd[round] < now){\r... */\n    tag_271:\n        /* \"contract/lottery.sol\":7858:7868  msg.sender */\n      caller\n        /* \"contract/lottery.sol\":7829:7848  nextWinerSecretGame */\n      0x55\n        /* \"contract/lottery.sol\":7849:7854  round */\n      dup3\n        /* \"contract/lottery.sol\":7829:7855  nextWinerSecretGame[round] */\n      0xff\n      and\n      0x10\n      dup2\n      lt\n      tag_276\n      jumpi\n      invalid\n    tag_276:\n      add\n      0x00\n        /* \"contract/lottery.sol\":7829:7868  nextWinerSecretGame[round] = msg.sender */\n      0x0100\n      exp\n      dup2\n      sload\n      dup2\n      0xffffffffffffffffffffffffffffffffffffffff\n      mul\n      not\n      and\n      swap1\n      dup4\n      0xffffffffffffffffffffffffffffffffffffffff\n      and\n      mul\n      or\n      swap1\n      sstore\n      pop\n        /* \"contract/lottery.sol\":7879:7884  users */\n      0x6b\n        /* \"contract/lottery.sol\":7879:7896  users[msg.sender] */\n      0x00\n        /* \"contract/lottery.sol\":7885:7895  msg.sender */\n      caller\n        /* \"contract/lottery.sol\":7879:7896  users[msg.sender] */\n      0xffffffffffffffffffffffffffffffffffffffff\n      and\n      0xffffffffffffffffffffffffffffffffffffffff\n      and\n      dup2\n      mstore\n      0x20\n      add\n      swap1\n      dup2\n      mstore\n      0x20\n      add\n      0x00\n      keccak256\n        /* \"contract/lottery.sol\":7879:7905  users[msg.sender].maxRound */\n      0x08\n      add\n      0x00\n        /* \"contract/lottery.sol\":7879:7907  users[msg.sender].maxRound++ */\n      dup2\n      dup2\n      swap1\n      sload\n      swap1\n      0x0100\n      exp\n      swap1\n      div\n      0xff\n      and\n      dup1\n      swap3\n      swap2\n      swap1\n      0x01\n      add\n      swap2\n      swap1\n      0x0100\n      exp\n      dup2\n      sload\n      dup2\n      0xff\n      mul\n      not\n      and\n      swap1\n      dup4\n      0xff\n      and\n      mul\n      or\n      swap1\n      sstore\n      pop\n      pop\n        /* \"contract/lottery.sol\":7948:7957  msg.value */\n      callvalue\n        /* \"contract/lottery.sol\":7918:7923  users */\n      0x6b\n        /* \"contract/lottery.sol\":7918:7935  users[msg.sender] */\n      0x00\n        /* \"contract/lottery.sol\":7924:7934  msg.sender */\n      caller\n        /* \"contract/lottery.sol\":7918:7935  users[msg.sender] */\n      0xffffffffffffffffffffffffffffffffffffffff\n      and\n      0xffffffffffffffffffffffffffffffffffffffff\n      and\n      dup2\n      mstore\n      0x20\n      add\n      swap1\n      dup2\n      mstore\n      0x20\n      add\n      0x00\n      keccak256\n        /* \"contract/lottery.sol\":7918:7944  users[msg.sender].turnover */\n      0x09\n      add\n      0x00\n        /* \"contract/lottery.sol\":7918:7957  users[msg.sender].turnover += msg.value */\n      dup3\n      dup3\n      sload\n      add\n      swap3\n      pop\n      pop\n      dup2\n      swap1\n      sstore\n      pop\n        /* \"contract/lottery.sol\":7968:7978  globalStat */\n      0x6f\n        /* \"contract/lottery.sol\":7968:7991  globalStat.transactions */\n      0x01\n      add\n      0x00\n        /* \"contract/lottery.sol\":7968:7993  globalStat.transactions++ */\n      dup2\n      sload\n      dup1\n      swap3\n      swap2\n      swap1\n      0x01\n      add\n      swap2\n      swap1\n      pop\n      sstore\n      pop\n        /* \"contract/lottery.sol\":8027:8036  msg.value */\n      callvalue\n        /* \"contract/lottery.sol\":8004:8014  globalStat */\n      0x6f\n        /* \"contract/lottery.sol\":8004:8023  globalStat.turnover */\n      0x02\n      add\n      0x00\n        /* \"contract/lottery.sol\":8004:8036  globalStat.turnover += msg.value */\n      dup3\n      dup3\n      sload\n      add\n      swap3\n      pop\n      pop\n      dup2\n      swap1\n      sstore\n      pop\n        /* \"contract/lottery.sol\":8080:8083  now */\n      timestamp\n        /* \"contract/lottery.sol\":8047:8065  lastTimeActivation */\n      0x65\n        /* \"contract/lottery.sol\":8047:8077  lastTimeActivation[msg.sender] */\n      0x00\n        /* \"contract/lottery.sol\":8066:8076  msg.sender */\n      caller\n        /* \"contract/lottery.sol\":8047:8077  lastTimeActivation[msg.sender] */\n      0xffffffffffffffffffffffffffffffffffffffff\n      and\n      0xffffffffffffffffffffffffffffffffffffffff\n      and\n      dup2\n      mstore\n      0x20\n      add\n      swap1\n      dup2\n      mstore\n      0x20\n      add\n      0x00\n      keccak256\n        /* \"contract/lottery.sol\":8047:8083  lastTimeActivation[msg.sender] = now */\n      dup2\n      swap1\n      sstore\n      pop\n        /* \"contract/lottery.sol\":8145:8148  now */\n      timestamp\n        /* \"contract/lottery.sol\":8094:8099  users */\n      0x6b\n        /* \"contract/lottery.sol\":8094:8111  users[msg.sender] */\n      0x00\n        /* \"contract/lottery.sol\":8100:8110  msg.sender */\n      caller\n        /* \"contract/lottery.sol\":8094:8111  users[msg.sender] */\n      0xffffffffffffffffffffffffffffffffffffffff\n      and\n      0xffffffffffffffffffffffffffffffffffffffff\n      and\n      dup2\n      mstore\n      0x20\n      add\n      swap1\n      dup2\n      mstore\n      0x20\n      add\n      0x00\n      keccak256\n        /* \"contract/lottery.sol\":8094:8118  users[msg.sender].rounds */\n      0x07\n      add\n        /* \"contract/lottery.sol\":8094:8125  users[msg.sender].rounds[round] */\n      0x00\n        /* \"contract/lottery.sol\":8119:8124  round */\n      dup4\n        /* \"contract/lottery.sol\":8094:8125  users[msg.sender].rounds[round] */\n      0xff\n      and\n      0xff\n      and\n      dup2\n      mstore\n      0x20\n      add\n      swap1\n      dup2\n      mstore\n      0x20\n      add\n      0x00\n      keccak256\n        /* \"contract/lottery.sol\":8094:8142  users[msg.sender].rounds[round].lastTimeBuyround */\n      0x03\n      add\n        /* \"contract/lottery.sol\":8094:8148  users[msg.sender].rounds[round].lastTimeBuyround = now */\n      dup2\n      swap1\n      sstore\n      pop\n        /* \"contract/lottery.sol\":8159:8174  uint onePercent */\n      0x00\n        /* \"contract/lottery.sol\":8189:8192  100 */\n      0x64\n        /* \"contract/lottery.sol\":8177:8186  msg.value */\n      callvalue\n        /* \"contract/lottery.sol\":8177:8192  msg.value / 100 */\n      dup2\n      tag_278\n      jumpi\n      invalid\n    tag_278:\n      div\n        /* \"contract/lottery.sol\":8159:8192  uint onePercent = msg.value / 100 */\n      swap1\n      pop\n        /* \"contract/lottery.sol\":8208:8213  users */\n      0x6b\n        /* \"contract/lottery.sol\":8208:8225  users[msg.sender] */\n      0x00\n        /* \"contract/lottery.sol\":8214:8224  msg.sender */\n      caller\n        /* \"contract/lottery.sol\":8208:8225  users[msg.sender] */\n      0xffffffffffffffffffffffffffffffffffffffff\n      and\n      0xffffffffffffffffffffffffffffffffffffffff\n      and\n      dup2\n      mstore\n      0x20\n      add\n      swap1\n      dup2\n      mstore\n      0x20\n      add\n      0x00\n      keccak256\n        /* \"contract/lottery.sol\":8208:8232  users[msg.sender].rounds */\n      0x07\n      add\n        /* \"contract/lottery.sol\":8208:8239  users[msg.sender].rounds[round] */\n      0x00\n        /* \"contract/lottery.sol\":8233:8238  round */\n      dup4\n        /* \"contract/lottery.sol\":8208:8239  users[msg.sender].rounds[round] */\n      0xff\n      and\n      0xff\n      and\n      dup2\n      mstore\n      0x20\n      add\n      swap1\n      dup2\n      mstore\n      0x20\n      add\n      0x00\n      keccak256\n        /* \"contract/lottery.sol\":8208:8246  users[msg.sender].rounds[round].active */\n      0x00\n      add\n      0x06\n      swap1\n      sload\n      swap1\n      0x0100\n      exp\n      swap1\n      div\n      0xff\n      and\n        /* \"contract/lottery.sol\":8203:8882  if (!users[msg.sender].rounds[round].active) {\r... */\n      tag_279\n      jumpi\n        /* \"contract/lottery.sol\":8263:8268  users */\n      0x6b\n        /* \"contract/lottery.sol\":8263:8280  users[msg.sender] */\n      0x00\n        /* \"contract/lottery.sol\":8269:8279  msg.sender */\n      caller\n        /* \"contract/lottery.sol\":8263:8280  users[msg.sender] */\n      0xffffffffffffffffffffffffffffffffffffffff\n      and\n      0xffffffffffffffffffffffffffffffffffffffff\n      and\n      dup2\n      mstore\n      0x20\n      add\n      swap1\n      dup2\n      mstore\n      0x20\n      add\n      0x00\n      keccak256\n        /* \"contract/lottery.sol\":8263:8287  users[msg.sender].rounds */\n      0x07\n      add\n        /* \"contract/lottery.sol\":8263:8294  users[msg.sender].rounds[round] */\n      0x00\n        /* \"contract/lottery.sol\":8288:8293  round */\n      dup4\n        /* \"contract/lottery.sol\":8263:8294  users[msg.sender].rounds[round] */\n      0xff\n      and\n      0xff\n      and\n      dup2\n      mstore\n      0x20\n      add\n      swap1\n      dup2\n      mstore\n      0x20\n      add\n      0x00\n      keccak256\n        /* \"contract/lottery.sol\":8263:8310  users[msg.sender].rounds[round].activationTimes */\n      0x00\n      add\n      0x00\n        /* \"contract/lottery.sol\":8263:8312  users[msg.sender].rounds[round].activationTimes++ */\n      dup2\n      dup2\n      swap1\n      sload\n      swap1\n      0x0100\n      exp\n      swap1\n      div\n      0xffff\n      and\n      dup1\n      swap3\n      swap2\n      swap1\n      0x01\n      add\n      swap2\n      swap1\n      0x0100\n      exp\n      dup2\n      sload\n      dup2\n      0xffff\n      mul\n      not\n      and\n      swap1\n      dup4\n      0xffff\n      and\n      mul\n      or\n      swap1\n      sstore\n      pop\n      pop\n        /* \"contract/lottery.sol\":2994:2995  2 */\n      0x02\n        /* \"contract/lottery.sol\":8327:8386  users[msg.sender].rounds[round].maxPayouts += rewardPayouts */\n      0xff\n      and\n        /* \"contract/lottery.sol\":8327:8332  users */\n      0x6b\n        /* \"contract/lottery.sol\":8327:8344  users[msg.sender] */\n      0x00\n        /* \"contract/lottery.sol\":8333:8343  msg.sender */\n      caller\n        /* \"contract/lottery.sol\":8327:8344  users[msg.sender] */\n      0xffffffffffffffffffffffffffffffffffffffff\n      and\n      0xffffffffffffffffffffffffffffffffffffffff\n      and\n      dup2\n      mstore\n      0x20\n      add\n      swap1\n      dup2\n      mstore\n      0x20\n      add\n      0x00\n      keccak256\n        /* \"contract/lottery.sol\":8327:8351  users[msg.sender].rounds */\n      0x07\n      add\n        /* \"contract/lottery.sol\":8327:8358  users[msg.sender].rounds[round] */\n      0x00\n        /* \"contract/lottery.sol\":8352:8357  round */\n      dup5\n        /* \"contract/lottery.sol\":8327:8358  users[msg.sender].rounds[round] */\n      0xff\n      and\n      0xff\n      and\n      dup2\n      mstore\n      0x20\n      add\n      swap1\n      dup2\n      mstore\n      0x20\n      add\n      0x00\n      keccak256\n        /* \"contract/lottery.sol\":8327:8369  users[msg.sender].rounds[round].maxPayouts */\n      0x00\n      add\n      0x02\n        /* \"contract/lottery.sol\":8327:8386  users[msg.sender].rounds[round].maxPayouts += rewardPayouts */\n      dup3\n      dup3\n      dup3\n      swap1\n      sload\n      swap1\n      0x0100\n      exp\n      swap1\n      div\n      0xffff\n      and\n      add\n      swap3\n      pop\n      0x0100\n      exp\n      dup2\n      sload\n      dup2\n      0xffff\n      mul\n      not\n      and\n      swap1\n      dup4\n      0xffff\n      and\n      mul\n      or\n      swap1\n      sstore\n      pop\n        /* \"contract/lottery.sol\":8442:8446  true */\n      0x01\n        /* \"contract/lottery.sol\":8401:8406  users */\n      0x6b\n        /* \"contract/lottery.sol\":8401:8418  users[msg.sender] */\n      0x00\n        /* \"contract/lottery.sol\":8407:8417  msg.sender */\n      caller\n        /* \"contract/lottery.sol\":8401:8418  users[msg.sender] */\n      0xffffffffffffffffffffffffffffffffffffffff\n      and\n      0xffffffffffffffffffffffffffffffffffffffff\n      and\n      dup2\n      mstore\n      0x20\n      add\n      swap1\n      dup2\n      mstore\n      0x20\n      add\n      0x00\n      keccak256\n        /* \"contract/lottery.sol\":8401:8425  users[msg.sender].rounds */\n      0x07\n      add\n        /* \"contract/lottery.sol\":8401:8432  users[msg.sender].rounds[round] */\n      0x00\n        /* \"contract/lottery.sol\":8426:8431  round */\n      dup5\n        /* \"contract/lottery.sol\":8401:8432  users[msg.sender].rounds[round] */\n      0xff\n      and\n      0xff\n      and\n      dup2\n      mstore\n      0x20\n      add\n      swap1\n      dup2\n      mstore\n      0x20\n      add\n      0x00\n      keccak256\n        /* \"contract/lottery.sol\":8401:8439  users[msg.sender].rounds[round].active */\n      0x00\n      add\n      0x06\n        /* \"contract/lottery.sol\":8401:8446  users[msg.sender].rounds[round].active = true */\n      0x0100\n      exp\n      dup2\n      sload\n      dup2\n      0xff\n      mul\n      not\n      and\n      swap1\n      dup4\n      iszero\n      iszero\n      mul\n      or\n      swap1\n      sstore\n      pop\n        /* \"contract/lottery.sol\":8461:8471  roundQueue */\n      0x6d\n        /* \"contract/lottery.sol\":8461:8478  roundQueue[round] */\n      0x00\n        /* \"contract/lottery.sol\":8472:8477  round */\n      dup4\n        /* \"contract/lottery.sol\":8461:8478  roundQueue[round] */\n      0xff\n      and\n      0xff\n      and\n      dup2\n      mstore\n      0x20\n      add\n      swap1\n      dup2\n      mstore\n      0x20\n      add\n      0x00\n      keccak256\n        /* \"contract/lottery.sol\":8484:8494  msg.sender */\n      caller\n        /* \"contract/lottery.sol\":8461:8495  roundQueue[round].push(msg.sender) */\n      swap1\n      dup1\n      0x01\n      dup2\n      sload\n      add\n      dup1\n      dup3\n      sstore\n      dup1\n      swap2\n      pop\n      pop\n      0x01\n      swap1\n      sub\n      swap1\n      0x00\n      mstore\n      keccak256(0x00, 0x20)\n      add\n      0x00\n      swap1\n      swap2\n      swap1\n      swap2\n      swap1\n      swap2\n      0x0100\n      exp\n      dup2\n      sload\n      dup2\n      0xffffffffffffffffffffffffffffffffffffffff\n      mul\n      not\n      and\n      swap1\n      dup4\n      0xffffffffffffffffffffffffffffffffffffffff\n      and\n      mul\n      or\n      swap1\n      sstore\n      pop\n        /* \"contract/lottery.sol\":8529:8539  msg.sender */\n      caller\n        /* \"contract/lottery.sol\":8515:8569  Buyround(now, msg.sender, users[msg.sender].id, round) */\n      0xffffffffffffffffffffffffffffffffffffffff\n      and\n      0x2f201bc547acc49919922eaf7ecea9f3389adca4dc6ab3fb4a7498cbbaac63a2\n        /* \"contract/lottery.sol\":8524:8527  now */\n      timestamp\n        /* \"contract/lottery.sol\":8541:8546  users */\n      0x6b\n        /* \"contract/lottery.sol\":8541:8558  users[msg.sender] */\n      0x00\n        /* \"contract/lottery.sol\":8547:8557  msg.sender */\n      caller\n        /* \"contract/lottery.sol\":8541:8558  users[msg.sender] */\n      0xffffffffffffffffffffffffffffffffffffffff\n      and\n      0xffffffffffffffffffffffffffffffffffffffff\n      and\n      dup2\n      mstore\n      0x20\n      add\n      swap1\n      dup2\n      mstore\n      0x20\n      add\n      0x00\n      keccak256\n        /* \"contract/lottery.sol\":8541:8561  users[msg.sender].id */\n      0x00\n      add\n      sload\n        /* \"contract/lottery.sol\":8563:8568  round */\n      dup6\n        /* \"contract/lottery.sol\":8515:8569  Buyround(now, msg.sender, users[msg.sender].id, round) */\n      mload(0x40)\n      dup1\n      dup5\n      dup2\n      mstore\n      0x20\n      add\n      dup4\n      dup2\n      mstore\n      0x20\n      add\n      dup3\n      0xff\n      and\n      dup2\n      mstore\n      0x20\n      add\n      swap4\n      pop\n      pop\n      pop\n      pop\n      mload(0x40)\n      dup1\n      swap2\n      sub\n      swap1\n      log2\n        /* \"contract/lottery.sol\":8203:8882  if (!users[msg.sender].rounds[round].active) {\r... */\n      jump(tag_281)\n    tag_279:\n        /* \"contract/lottery.sol\":8614:8619  users */\n      0x6b\n        /* \"contract/lottery.sol\":8614:8631  users[msg.sender] */\n      0x00\n        /* \"contract/lottery.sol\":8620:8630  msg.sender */\n      caller\n        /* \"contract/lottery.sol\":8614:8631  users[msg.sender] */\n      0xffffffffffffffffffffffffffffffffffffffff\n      and\n      0xffffffffffffffffffffffffffffffffffffffff\n      and\n      dup2\n      mstore\n      0x20\n      add\n      swap1\n      dup2\n      mstore\n      0x20\n      add\n      0x00\n      keccak256\n        /* \"contract/lottery.sol\":8614:8638  users[msg.sender].rounds */\n      0x07\n      add\n        /* \"contract/lottery.sol\":8614:8645  users[msg.sender].rounds[round] */\n      0x00\n        /* \"contract/lottery.sol\":8639:8644  round */\n      dup4\n        /* \"contract/lottery.sol\":8614:8645  users[msg.sender].rounds[round] */\n      0xff\n      and\n      0xff\n      and\n      dup2\n      mstore\n      0x20\n      add\n      swap1\n      dup2\n      mstore\n      0x20\n      add\n      0x00\n      keccak256\n        /* \"contract/lottery.sol\":8614:8661  users[msg.sender].rounds[round].activationTimes */\n      0x00\n      add\n      0x00\n        /* \"contract/lottery.sol\":8614:8663  users[msg.sender].rounds[round].activationTimes++ */\n      dup2\n      dup2\n      swap1\n      sload\n      swap1\n      0x0100\n      exp\n      swap1\n      div\n      0xffff\n      and\n      dup1\n      swap3\n      swap2\n      swap1\n      0x01\n      add\n      swap2\n      swap1\n      0x0100\n      exp\n      dup2\n      sload\n      dup2\n      0xffff\n      mul\n      not\n      and\n      swap1\n      dup4\n      0xffff\n      and\n      mul\n      or\n      swap1\n      sstore\n      pop\n      pop\n        /* \"contract/lottery.sol\":2994:2995  2 */\n      0x02\n        /* \"contract/lottery.sol\":8678:8737  users[msg.sender].rounds[round].maxPayouts += rewardPayouts */\n      0xff\n      and\n        /* \"contract/lottery.sol\":8678:8683  users */\n      0x6b\n        /* \"contract/lottery.sol\":8678:8695  users[msg.sender] */\n      0x00\n        /* \"contract/lottery.sol\":8684:8694  msg.sender */\n      caller\n        /* \"contract/lottery.sol\":8678:8695  users[msg.sender] */\n      0xffffffffffffffffffffffffffffffffffffffff\n      and\n      0xffffffffffffffffffffffffffffffffffffffff\n      and\n      dup2\n      mstore\n      0x20\n      add\n      swap1\n      dup2\n      mstore\n      0x20\n      add\n      0x00\n      keccak256\n        /* \"contract/lottery.sol\":8678:8702  users[msg.sender].rounds */\n      0x07\n      add\n        /* \"contract/lottery.sol\":8678:8709  users[msg.sender].rounds[round] */\n      0x00\n        /* \"contract/lottery.sol\":8703:8708  round */\n      dup5\n        /* \"contract/lottery.sol\":8678:8709  users[msg.sender].rounds[round] */\n      0xff\n      and\n      0xff\n      and\n      dup2\n      mstore\n      0x20\n      add\n      swap1\n      dup2\n      mstore\n      0x20\n      add\n      0x00\n      keccak256\n        /* \"contract/lottery.sol\":8678:8720  users[msg.sender].rounds[round].maxPayouts */\n      0x00\n      add\n      0x02\n        /* \"contract/lottery.sol\":8678:8737  users[msg.sender].rounds[round].maxPayouts += rewardPayouts */\n      dup3\n      dup3\n      dup3\n      swap1\n      sload\n      swap1\n      0x0100\n      exp\n      swap1\n      div\n      0xffff\n      and\n      add\n      swap3\n      pop\n      0x0100\n      exp\n      dup2\n      sload\n      dup2\n      0xffff\n      mul\n      not\n      and\n      swap1\n      dup4\n      0xffff\n      and\n      mul\n      or\n      swap1\n      sstore\n      pop\n        /* \"contract/lottery.sol\":8786:8796  msg.sender */\n      caller\n        /* \"contract/lottery.sol\":8757:8870  IncreaseroundMaxPayouts(now, msg.sender, users[msg.sender].id, round, users[msg.sender].rounds[round].maxPayouts) */\n      0xffffffffffffffffffffffffffffffffffffffff\n      and\n      0x31bfa9ab73d15b5d752f5928d978dd4daba1b2dd420bb2d965c54cfe366c5534\n        /* \"contract/lottery.sol\":8781:8784  now */\n      timestamp\n        /* \"contract/lottery.sol\":8798:8803  users */\n      0x6b\n        /* \"contract/lottery.sol\":8798:8815  users[msg.sender] */\n      0x00\n        /* \"contract/lottery.sol\":8804:8814  msg.sender */\n      caller\n        /* \"contract/lottery.sol\":8798:8815  users[msg.sender] */\n      0xffffffffffffffffffffffffffffffffffffffff\n      and\n      0xffffffffffffffffffffffffffffffffffffffff\n      and\n      dup2\n      mstore\n      0x20\n      add\n      swap1\n      dup2\n      mstore\n      0x20\n      add\n      0x00\n      keccak256\n        /* \"contract/lottery.sol\":8798:8818  users[msg.sender].id */\n      0x00\n      add\n      sload\n        /* \"contract/lottery.sol\":8820:8825  round */\n      dup6\n        /* \"contract/lottery.sol\":8827:8832  users */\n      0x6b\n        /* \"contract/lottery.sol\":8827:8844  users[msg.sender] */\n      0x00\n        /* \"contract/lottery.sol\":8833:8843  msg.sender */\n      caller\n        /* \"contract/lottery.sol\":8827:8844  users[msg.sender] */\n      0xffffffffffffffffffffffffffffffffffffffff\n      and\n      0xffffffffffffffffffffffffffffffffffffffff\n      and\n      dup2\n      mstore\n      0x20\n      add\n      swap1\n      dup2\n      mstore\n      0x20\n      add\n      0x00\n      keccak256\n        /* \"contract/lottery.sol\":8827:8851  users[msg.sender].rounds */\n      0x07\n      add\n        /* \"contract/lottery.sol\":8827:8858  users[msg.sender].rounds[round] */\n      0x00\n        /* \"contract/lottery.sol\":8852:8857  round */\n      dup9\n        /* \"contract/lottery.sol\":8827:8858  users[msg.sender].rounds[round] */\n      0xff\n      and\n      0xff\n      and\n      dup2\n      mstore\n      0x20\n      add\n      swap1\n      dup2\n      mstore\n      0x20\n      add\n      0x00\n      keccak256\n        /* \"contract/lottery.sol\":8827:8869  users[msg.sender].rounds[round].maxPayouts */\n      0x00\n      add\n      0x02\n      swap1\n      sload\n      swap1\n      0x0100\n      exp\n      swap1\n      div\n      0xffff\n      and\n        /* \"contract/lottery.sol\":8757:8870  IncreaseroundMaxPayouts(now, msg.sender, users[msg.sender].id, round, users[msg.sender].rounds[round].maxPayouts) */\n      mload(0x40)\n      dup1\n      dup6\n      dup2\n      mstore\n      0x20\n      add\n      dup5\n      dup2\n      mstore\n      0x20\n      add\n      dup4\n      0xff\n      and\n      dup2\n      mstore\n      0x20\n      add\n      dup3\n      0xffff\n      and\n      dup2\n      mstore\n      0x20\n      add\n      swap5\n      pop\n      pop\n      pop\n      pop\n      pop\n      mload(0x40)\n      dup1\n      swap2\n      sub\n      swap1\n      log2\n        /* \"contract/lottery.sol\":8203:8882  if (!users[msg.sender].rounds[round].active) {\r... */\n    tag_281:\n        /* \"contract/lottery.sol\":8892:8903  uint reward */\n      0x00\n        /* \"contract/lottery.sol\":3041:3043  75 */\n      0x4b\n        /* \"contract/lottery.sol\":8906:8933  onePercent * rewardPercents */\n      0xff\n      and\n        /* \"contract/lottery.sol\":8906:8916  onePercent */\n      dup3\n        /* \"contract/lottery.sol\":8906:8933  onePercent * rewardPercents */\n      mul\n        /* \"contract/lottery.sol\":8892:8933  uint reward = onePercent * rewardPercents */\n      swap1\n      pop\n        /* \"contract/lottery.sol\":8987:8997  msg.sender */\n      caller\n        /* \"contract/lottery.sol\":8948:8997  roundQueue[round][headIndex[round]] != msg.sender */\n      0xffffffffffffffffffffffffffffffffffffffff\n      and\n        /* \"contract/lottery.sol\":8948:8958  roundQueue */\n      0x6d\n        /* \"contract/lottery.sol\":8948:8965  roundQueue[round] */\n      0x00\n        /* \"contract/lottery.sol\":8959:8964  round */\n      dup6\n        /* \"contract/lottery.sol\":8948:8965  roundQueue[round] */\n      0xff\n      and\n      0xff\n      and\n      dup2\n      mstore\n      0x20\n      add\n      swap1\n      dup2\n      mstore\n      0x20\n      add\n      0x00\n      keccak256\n        /* \"contract/lottery.sol\":8966:8975  headIndex */\n      0x6e\n        /* \"contract/lottery.sol\":8966:8982  headIndex[round] */\n      0x00\n        /* \"contract/lottery.sol\":8976:8981  round */\n      dup7\n        /* \"contract/lottery.sol\":8966:8982  headIndex[round] */\n      0xff\n      and\n      0xff\n      and\n      dup2\n      mstore\n      0x20\n      add\n      swap1\n      dup2\n      mstore\n      0x20\n      add\n      0x00\n      keccak256\n      sload\n        /* \"contract/lottery.sol\":8948:8983  roundQueue[round][headIndex[round]] */\n      dup2\n      sload\n      dup2\n      lt\n      tag_282\n      jumpi\n      invalid\n    tag_282:\n      swap1\n      0x00\n      mstore\n      keccak256(0x00, 0x20)\n      add\n      0x00\n      swap1\n      sload\n      swap1\n      0x0100\n      exp\n      swap1\n      div\n      0xffffffffffffffffffffffffffffffffffffffff\n      and\n        /* \"contract/lottery.sol\":8948:8997  roundQueue[round][headIndex[round]] != msg.sender */\n      0xffffffffffffffffffffffffffffffffffffffff\n      and\n      eq\n        /* \"contract/lottery.sol\":8944:10610  if (roundQueue[round][headIndex[round]] != msg.sender) {\r... */\n      tag_284\n      jumpi\n        /* \"contract/lottery.sol\":9014:9035  address rewardAddress */\n      0x00\n        /* \"contract/lottery.sol\":9038:9048  roundQueue */\n      0x6d\n        /* \"contract/lottery.sol\":9038:9055  roundQueue[round] */\n      0x00\n        /* \"contract/lottery.sol\":9049:9054  round */\n      dup6\n        /* \"contract/lottery.sol\":9038:9055  roundQueue[round] */\n      0xff\n      and\n      0xff\n      and\n      dup2\n      mstore\n      0x20\n      add\n      swap1\n      dup2\n      mstore\n      0x20\n      add\n      0x00\n      keccak256\n        /* \"contract/lottery.sol\":9056:9065  headIndex */\n      0x6e\n        /* \"contract/lottery.sol\":9056:9072  headIndex[round] */\n      0x00\n        /* \"contract/lottery.sol\":9066:9071  round */\n      dup7\n        /* \"contract/lottery.sol\":9056:9072  headIndex[round] */\n      0xff\n      and\n      0xff\n      and\n      dup2\n      mstore\n      0x20\n      add\n      swap1\n      dup2\n      mstore\n      0x20\n      add\n      0x00\n      keccak256\n      sload\n        /* \"contract/lottery.sol\":9038:9073  roundQueue[round][headIndex[round]] */\n      dup2\n      sload\n      dup2\n      lt\n      tag_285\n      jumpi\n      invalid\n    tag_285:\n      swap1\n      0x00\n      mstore\n      keccak256(0x00, 0x20)\n      add\n      0x00\n      swap1\n      sload\n      swap1\n      0x0100\n      exp\n      swap1\n      div\n      0xffffffffffffffffffffffffffffffffffffffff\n      and\n        /* \"contract/lottery.sol\":9014:9073  address rewardAddress = roundQueue[round][headIndex[round]] */\n      swap1\n      pop\n        /* \"contract/lottery.sol\":9088:9097  bool sent */\n      0x00\n        /* \"contract/lottery.sol\":9108:9121  rewardAddress */\n      dup2\n        /* \"contract/lottery.sol\":9100:9127  payable(rewardAddress).send */\n      0xffffffffffffffffffffffffffffffffffffffff\n      and\n        /* \"contract/lottery.sol\":9100:9135  payable(rewardAddress).send(reward) */\n      0x08fc\n        /* \"contract/lottery.sol\":9128:9134  reward */\n      dup5\n        /* \"contract/lottery.sol\":9100:9135  payable(rewardAddress).send(reward) */\n      swap1\n      dup2\n      iszero\n      mul\n      swap1\n      mload(0x40)\n      0x00\n      mload(0x40)\n      dup1\n      dup4\n      sub\n      dup2\n      dup6\n      dup9\n      dup9\n      call\n      swap4\n      pop\n      pop\n      pop\n      pop\n        /* \"contract/lottery.sol\":9088:9135  bool sent = payable(rewardAddress).send(reward) */\n      swap1\n      pop\n        /* \"contract/lottery.sol\":9154:9158  sent */\n      dup1\n        /* \"contract/lottery.sol\":9150:9927  if (sent) {\r... */\n      iszero\n      tag_288\n      jumpi\n        /* \"contract/lottery.sol\":9183:9199  uint rewardValue */\n      0x00\n        /* \"contract/lottery.sol\":9215:9243  referralRewardProfitPercents */\n      0x66\n      0x01\n      swap1\n      sload\n      swap1\n      0x0100\n      exp\n      swap1\n      div\n      0xff\n      and\n        /* \"contract/lottery.sol\":9202:9243  onePercent * referralRewardProfitPercents */\n      0xff\n      and\n        /* \"contract/lottery.sol\":9202:9212  onePercent */\n      dup6\n        /* \"contract/lottery.sol\":9202:9243  onePercent * referralRewardProfitPercents */\n      mul\n        /* \"contract/lottery.sol\":9183:9243  uint rewardValue = onePercent * referralRewardProfitPercents */\n      swap1\n      pop\n        /* \"contract/lottery.sol\":9266:9325  sendPostRewardToReferrer(rewardAddress, round, rewardValue) */\n      tag_289\n        /* \"contract/lottery.sol\":9291:9304  rewardAddress */\n      dup4\n        /* \"contract/lottery.sol\":9306:9311  round */\n      dup8\n        /* \"contract/lottery.sol\":9313:9324  rewardValue */\n      dup4\n        /* \"contract/lottery.sol\":9266:9290  sendPostRewardToReferrer */\n      tag_290\n        /* \"contract/lottery.sol\":9266:9325  sendPostRewardToReferrer(rewardAddress, round, rewardValue) */\n      jump\t// in\n    tag_289:\n        /* \"contract/lottery.sol\":9410:9416  reward */\n      dup4\n        /* \"contract/lottery.sol\":9362:9367  users */\n      0x6b\n        /* \"contract/lottery.sol\":9362:9382  users[rewardAddress] */\n      0x00\n        /* \"contract/lottery.sol\":9368:9381  rewardAddress */\n      dup6\n        /* \"contract/lottery.sol\":9362:9382  users[rewardAddress] */\n      0xffffffffffffffffffffffffffffffffffffffff\n      and\n      0xffffffffffffffffffffffffffffffffffffffff\n      and\n      dup2\n      mstore\n      0x20\n      add\n      swap1\n      dup2\n      mstore\n      0x20\n      add\n      0x00\n      keccak256\n        /* \"contract/lottery.sol\":9362:9389  users[rewardAddress].rounds */\n      0x07\n      add\n        /* \"contract/lottery.sol\":9362:9396  users[rewardAddress].rounds[round] */\n      0x00\n        /* \"contract/lottery.sol\":9390:9395  round */\n      dup9\n        /* \"contract/lottery.sol\":9362:9396  users[rewardAddress].rounds[round] */\n      0xff\n      and\n      0xff\n      and\n      dup2\n      mstore\n      0x20\n      add\n      swap1\n      dup2\n      mstore\n      0x20\n      add\n      0x00\n      keccak256\n        /* \"contract/lottery.sol\":9362:9406  users[rewardAddress].rounds[round].rewardSum */\n      0x01\n      add\n      0x00\n        /* \"contract/lottery.sol\":9362:9416  users[rewardAddress].rounds[round].rewardSum += reward */\n      dup3\n      dup3\n      sload\n      add\n      swap3\n      pop\n      pop\n      dup2\n      swap1\n      sstore\n      pop\n        /* \"contract/lottery.sol\":9435:9440  users */\n      0x6b\n        /* \"contract/lottery.sol\":9435:9455  users[rewardAddress] */\n      0x00\n        /* \"contract/lottery.sol\":9441:9454  rewardAddress */\n      dup5\n        /* \"contract/lottery.sol\":9435:9455  users[rewardAddress] */\n      0xffffffffffffffffffffffffffffffffffffffff\n      and\n      0xffffffffffffffffffffffffffffffffffffffff\n      and\n      dup2\n      mstore\n      0x20\n      add\n      swap1\n      dup2\n      mstore\n      0x20\n      add\n      0x00\n      keccak256\n        /* \"contract/lottery.sol\":9435:9462  users[rewardAddress].rounds */\n      0x07\n      add\n        /* \"contract/lottery.sol\":9435:9469  users[rewardAddress].rounds[round] */\n      0x00\n        /* \"contract/lottery.sol\":9463:9468  round */\n      dup8\n        /* \"contract/lottery.sol\":9435:9469  users[rewardAddress].rounds[round] */\n      0xff\n      and\n      0xff\n      and\n      dup2\n      mstore\n      0x20\n      add\n      swap1\n      dup2\n      mstore\n      0x20\n      add\n      0x00\n      keccak256\n        /* \"contract/lottery.sol\":9435:9477  users[rewardAddress].rounds[round].payouts */\n      0x00\n      add\n      0x04\n        /* \"contract/lottery.sol\":9435:9479  users[rewardAddress].rounds[round].payouts++ */\n      dup2\n      dup2\n      swap1\n      sload\n      swap1\n      0x0100\n      exp\n      swap1\n      div\n      0xffff\n      and\n      dup1\n      swap3\n      swap2\n      swap1\n      0x01\n      add\n      swap2\n      swap1\n      0x0100\n      exp\n      dup2\n      sload\n      dup2\n      0xffff\n      mul\n      not\n      and\n      swap1\n      dup4\n      0xffff\n      and\n      mul\n      or\n      swap1\n      sstore\n      pop\n      pop\n        /* \"contract/lottery.sol\":9538:9544  reward */\n      dup4\n        /* \"contract/lottery.sol\":9498:9503  users */\n      0x6b\n        /* \"contract/lottery.sol\":9498:9518  users[rewardAddress] */\n      0x00\n        /* \"contract/lottery.sol\":9504:9517  rewardAddress */\n      dup6\n        /* \"contract/lottery.sol\":9498:9518  users[rewardAddress] */\n      0xffffffffffffffffffffffffffffffffffffffff\n      and\n      0xffffffffffffffffffffffffffffffffffffffff\n      and\n      dup2\n      mstore\n      0x20\n      add\n      swap1\n      dup2\n      mstore\n      0x20\n      add\n      0x00\n      keccak256\n        /* \"contract/lottery.sol\":9498:9534  users[rewardAddress].roundsRewardSum */\n      0x05\n      add\n      0x00\n        /* \"contract/lottery.sol\":9498:9544  users[rewardAddress].roundsRewardSum += reward */\n      dup3\n      dup3\n      sload\n      add\n      swap3\n      pop\n      pop\n      dup2\n      swap1\n      sstore\n      pop\n        /* \"contract/lottery.sol\":9596:9602  reward */\n      dup4\n        /* \"contract/lottery.sol\":9563:9568  users */\n      0x6b\n        /* \"contract/lottery.sol\":9563:9583  users[rewardAddress] */\n      0x00\n        /* \"contract/lottery.sol\":9569:9582  rewardAddress */\n      dup6\n        /* \"contract/lottery.sol\":9563:9583  users[rewardAddress] */\n      0xffffffffffffffffffffffffffffffffffffffff\n      and\n      0xffffffffffffffffffffffffffffffffffffffff\n      and\n      dup2\n      mstore\n      0x20\n      add\n      swap1\n      dup2\n      mstore\n      0x20\n      add\n      0x00\n      keccak256\n        /* \"contract/lottery.sol\":9563:9592  users[rewardAddress].turnover */\n      0x09\n      add\n      0x00\n        /* \"contract/lottery.sol\":9563:9602  users[rewardAddress].turnover += reward */\n      dup3\n      dup3\n      sload\n      add\n      swap3\n      pop\n      pop\n      dup2\n      swap1\n      sstore\n      pop\n        /* \"contract/lottery.sol\":9663:9668  users */\n      0x6b\n        /* \"contract/lottery.sol\":9663:9683  users[rewardAddress] */\n      0x00\n        /* \"contract/lottery.sol\":9669:9682  rewardAddress */\n      dup5\n        /* \"contract/lottery.sol\":9663:9683  users[rewardAddress] */\n      0xffffffffffffffffffffffffffffffffffffffff\n      and\n      0xffffffffffffffffffffffffffffffffffffffff\n      and\n      dup2\n      mstore\n      0x20\n      add\n      swap1\n      dup2\n      mstore\n      0x20\n      add\n      0x00\n      keccak256\n        /* \"contract/lottery.sol\":9663:9690  users[rewardAddress].rounds */\n      0x07\n      add\n        /* \"contract/lottery.sol\":9663:9697  users[rewardAddress].rounds[round] */\n      0x00\n        /* \"contract/lottery.sol\":9691:9696  round */\n      dup8\n        /* \"contract/lottery.sol\":9663:9697  users[rewardAddress].rounds[round] */\n      0xff\n      and\n      0xff\n      and\n      dup2\n      mstore\n      0x20\n      add\n      swap1\n      dup2\n      mstore\n      0x20\n      add\n      0x00\n      keccak256\n        /* \"contract/lottery.sol\":9663:9714  users[rewardAddress].rounds[round].lastTimeBuyround */\n      0x03\n      add\n      sload\n        /* \"contract/lottery.sol\":9657:9660  now */\n      timestamp\n        /* \"contract/lottery.sol\":9657:9714  now - users[rewardAddress].rounds[round].lastTimeBuyround */\n      sub\n        /* \"contract/lottery.sol\":9640:9653  25 * 31536000 */\n      0x2efe0780\n        /* \"contract/lottery.sol\":9640:9715  25 * 31536000 / (now - users[rewardAddress].rounds[round].lastTimeBuyround) */\n      dup2\n      tag_291\n      jumpi\n      invalid\n    tag_291:\n      div\n        /* \"contract/lottery.sol\":9621:9630  RoiRounds */\n      0x35\n        /* \"contract/lottery.sol\":9631:9636  round */\n      dup8\n        /* \"contract/lottery.sol\":9621:9637  RoiRounds[round] */\n      0xff\n      and\n      0x10\n      dup2\n      lt\n      tag_292\n      jumpi\n      invalid\n    tag_292:\n      add\n        /* \"contract/lottery.sol\":9621:9715  RoiRounds[round] = 25 * 31536000 / (now - users[rewardAddress].rounds[round].lastTimeBuyround) */\n      dup2\n      swap1\n      sstore\n      pop\n        /* \"contract/lottery.sol\":9757:9767  msg.sender */\n      caller\n        /* \"contract/lottery.sol\":9740:9848  roundPayout(now, msg.sender, users[rewardAddress].id, round, reward, users[msg.sender].id, RoiRounds[round]) */\n      0xffffffffffffffffffffffffffffffffffffffff\n      and\n      0xe4183700b5bfcfeaf533b813f60f33ff4a041fa7bf73db1dd14fbb3eace4fa35\n        /* \"contract/lottery.sol\":9752:9755  now */\n      timestamp\n        /* \"contract/lottery.sol\":9769:9774  users */\n      0x6b\n        /* \"contract/lottery.sol\":9769:9789  users[rewardAddress] */\n      0x00\n        /* \"contract/lottery.sol\":9775:9788  rewardAddress */\n      dup8\n        /* \"contract/lottery.sol\":9769:9789  users[rewardAddress] */\n      0xffffffffffffffffffffffffffffffffffffffff\n      and\n      0xffffffffffffffffffffffffffffffffffffffff\n      and\n      dup2\n      mstore\n      0x20\n      add\n      swap1\n      dup2\n      mstore\n      0x20\n      add\n      0x00\n      keccak256\n        /* \"contract/lottery.sol\":9769:9792  users[rewardAddress].id */\n      0x00\n      add\n      sload\n        /* \"contract/lottery.sol\":9794:9799  round */\n      dup10\n        /* \"contract/lottery.sol\":9801:9807  reward */\n      dup9\n        /* \"contract/lottery.sol\":9809:9814  users */\n      0x6b\n        /* \"contract/lottery.sol\":9809:9826  users[msg.sender] */\n      0x00\n        /* \"contract/lottery.sol\":9815:9825  msg.sender */\n      caller\n        /* \"contract/lottery.sol\":9809:9826  users[msg.sender] */\n      0xffffffffffffffffffffffffffffffffffffffff\n      and\n      0xffffffffffffffffffffffffffffffffffffffff\n      and\n      dup2\n      mstore\n      0x20\n      add\n      swap1\n      dup2\n      mstore\n      0x20\n      add\n      0x00\n      keccak256\n        /* \"contract/lottery.sol\":9809:9829  users[msg.sender].id */\n      0x00\n      add\n      sload\n        /* \"contract/lottery.sol\":9831:9840  RoiRounds */\n      0x35\n        /* \"contract/lottery.sol\":9841:9846  round */\n      dup14\n        /* \"contract/lottery.sol\":9831:9847  RoiRounds[round] */\n      0xff\n      and\n      0x10\n      dup2\n      lt\n      tag_294\n      jumpi\n      invalid\n    tag_294:\n      add\n      sload\n        /* \"contract/lottery.sol\":9740:9848  roundPayout(now, msg.sender, users[rewardAddress].id, round, reward, users[msg.sender].id, RoiRounds[round]) */\n      mload(0x40)\n      dup1\n      dup8\n      dup2\n      mstore\n      0x20\n      add\n      dup7\n      dup2\n      mstore\n      0x20\n      add\n      dup6\n      0xff\n      and\n      dup2\n      mstore\n      0x20\n      add\n      dup5\n      dup2\n      mstore\n      0x20\n      add\n      dup4\n      dup2\n      mstore\n      0x20\n      add\n      dup3\n      dup2\n      mstore\n      0x20\n      add\n      swap7\n      pop\n      pop\n      pop\n      pop\n      pop\n      pop\n      pop\n      mload(0x40)\n      dup1\n      swap2\n      sub\n      swap1\n      log2\n        /* \"contract/lottery.sol\":9150:9927  if (sent) {\r... */\n      pop\n      jump(tag_296)\n    tag_288:\n        /* \"contract/lottery.sol\":9889:9894  owner */\n      0x66\n      0x02\n      swap1\n      sload\n      swap1\n      0x0100\n      exp\n      swap1\n      div\n      0xffffffffffffffffffffffffffffffffffffffff\n      and\n        /* \"contract/lottery.sol\":9889:9903  owner.transfer */\n      0xffffffffffffffffffffffffffffffffffffffff\n      and\n        /* \"contract/lottery.sol\":9889:9911  owner.transfer(reward) */\n      0x08fc\n        /* \"contract/lottery.sol\":9904:9910  reward */\n      dup5\n        /* \"contract/lottery.sol\":9889:9911  owner.transfer(reward) */\n      swap1\n      dup2\n      iszero\n      mul\n      swap1\n      mload(0x40)\n      0x00\n      mload(0x40)\n      dup1\n      dup4\n      sub\n      dup2\n      dup6\n      dup9\n      dup9\n      call\n      swap4\n      pop\n      pop\n      pop\n      pop\n      iszero\n      dup1\n      iszero\n      tag_298\n      jumpi\n      returndatasize\n      0x00\n      dup1\n      returndatacopy\n      revert(0x00, returndatasize)\n    tag_298:\n      pop\n        /* \"contract/lottery.sol\":9150:9927  if (sent) {\r... */\n    tag_296:\n        /* \"contract/lottery.sol\":9990:9995  users */\n      0x6b\n        /* \"contract/lottery.sol\":9990:10010  users[rewardAddress] */\n      0x00\n        /* \"contract/lottery.sol\":9996:10009  rewardAddress */\n      dup4\n        /* \"contract/lottery.sol\":9990:10010  users[rewardAddress] */\n      0xffffffffffffffffffffffffffffffffffffffff\n      and\n      0xffffffffffffffffffffffffffffffffffffffff\n      and\n      dup2\n      mstore\n      0x20\n      add\n      swap1\n      dup2\n      mstore\n      0x20\n      add\n      0x00\n      keccak256\n        /* \"contract/lottery.sol\":9990:10017  users[rewardAddress].rounds */\n      0x07\n      add\n        /* \"contract/lottery.sol\":9990:10024  users[rewardAddress].rounds[round] */\n      0x00\n        /* \"contract/lottery.sol\":10018:10023  round */\n      dup7\n        /* \"contract/lottery.sol\":9990:10024  users[rewardAddress].rounds[round] */\n      0xff\n      and\n      0xff\n      and\n      dup2\n      mstore\n      0x20\n      add\n      swap1\n      dup2\n      mstore\n      0x20\n      add\n      0x00\n      keccak256\n        /* \"contract/lottery.sol\":9990:10035  users[rewardAddress].rounds[round].maxPayouts */\n      0x00\n      add\n      0x02\n      swap1\n      sload\n      swap1\n      0x0100\n      exp\n      swap1\n      div\n      0xffff\n      and\n        /* \"contract/lottery.sol\":9945:10035  users[rewardAddress].rounds[round].payouts < users[rewardAddress].rounds[round].maxPayouts */\n      0xffff\n      and\n        /* \"contract/lottery.sol\":9945:9950  users */\n      0x6b\n        /* \"contract/lottery.sol\":9945:9965  users[rewardAddress] */\n      0x00\n        /* \"contract/lottery.sol\":9951:9964  rewardAddress */\n      dup5\n        /* \"contract/lottery.sol\":9945:9965  users[rewardAddress] */\n      0xffffffffffffffffffffffffffffffffffffffff\n      and\n      0xffffffffffffffffffffffffffffffffffffffff\n      and\n      dup2\n      mstore\n      0x20\n      add\n      swap1\n      dup2\n      mstore\n      0x20\n      add\n      0x00\n      keccak256\n        /* \"contract/lottery.sol\":9945:9972  users[rewardAddress].rounds */\n      0x07\n      add\n        /* \"contract/lottery.sol\":9945:9979  users[rewardAddress].rounds[round] */\n      0x00\n        /* \"contract/lottery.sol\":9973:9978  round */\n      dup8\n        /* \"contract/lottery.sol\":9945:9979  users[rewardAddress].rounds[round] */\n      0xff\n      and\n      0xff\n      and\n      dup2\n      mstore\n      0x20\n      add\n      swap1\n      dup2\n      mstore\n      0x20\n      add\n      0x00\n      keccak256\n        /* \"contract/lottery.sol\":9945:9987  users[rewardAddress].rounds[round].payouts */\n      0x00\n      add\n      0x04\n      swap1\n      sload\n      swap1\n      0x0100\n      exp\n      swap1\n      div\n      0xffff\n      and\n        /* \"contract/lottery.sol\":9945:10035  users[rewardAddress].rounds[round].payouts < users[rewardAddress].rounds[round].maxPayouts */\n      0xffff\n      and\n      lt\n        /* \"contract/lottery.sol\":9941:10289  if (users[rewardAddress].rounds[round].payouts < users[rewardAddress].rounds[round].maxPayouts) {\r... */\n      iszero\n      tag_299\n      jumpi\n        /* \"contract/lottery.sol\":10056:10066  roundQueue */\n      0x6d\n        /* \"contract/lottery.sol\":10056:10073  roundQueue[round] */\n      0x00\n        /* \"contract/lottery.sol\":10067:10072  round */\n      dup7\n        /* \"contract/lottery.sol\":10056:10073  roundQueue[round] */\n      0xff\n      and\n      0xff\n      and\n      dup2\n      mstore\n      0x20\n      add\n      swap1\n      dup2\n      mstore\n      0x20\n      add\n      0x00\n      keccak256\n        /* \"contract/lottery.sol\":10079:10092  rewardAddress */\n      dup3\n        /* \"contract/lottery.sol\":10056:10093  roundQueue[round].push(rewardAddress) */\n      swap1\n      dup1\n      0x01\n      dup2\n      sload\n      add\n      dup1\n      dup3\n      sstore\n      dup1\n      swap2\n      pop\n      pop\n      0x01\n      swap1\n      sub\n      swap1\n      0x00\n      mstore\n      keccak256(0x00, 0x20)\n      add\n      0x00\n      swap1\n      swap2\n      swap1\n      swap2\n      swap1\n      swap2\n      0x0100\n      exp\n      dup2\n      sload\n      dup2\n      0xffffffffffffffffffffffffffffffffffffffff\n      mul\n      not\n      and\n      swap1\n      dup4\n      0xffffffffffffffffffffffffffffffffffffffff\n      and\n      mul\n      or\n      swap1\n      sstore\n      pop\n        /* \"contract/lottery.sol\":9941:10289  if (users[rewardAddress].rounds[round].payouts < users[rewardAddress].rounds[round].maxPayouts) {\r... */\n      jump(tag_301)\n    tag_299:\n        /* \"contract/lottery.sol\":10178:10183  false */\n      0x00\n        /* \"contract/lottery.sol\":10134:10139  users */\n      0x6b\n        /* \"contract/lottery.sol\":10134:10154  users[rewardAddress] */\n      0x00\n        /* \"contract/lottery.sol\":10140:10153  rewardAddress */\n      dup5\n        /* \"contract/lottery.sol\":10134:10154  users[rewardAddress] */\n      0xffffffffffffffffffffffffffffffffffffffff\n      and\n      0xffffffffffffffffffffffffffffffffffffffff\n      and\n      dup2\n      mstore\n      0x20\n      add\n      swap1\n      dup2\n      mstore\n      0x20\n      add\n      0x00\n      keccak256\n        /* \"contract/lottery.sol\":10134:10161  users[rewardAddress].rounds */\n      0x07\n      add\n        /* \"contract/lottery.sol\":10134:10168  users[rewardAddress].rounds[round] */\n      0x00\n        /* \"contract/lottery.sol\":10162:10167  round */\n      dup8\n        /* \"contract/lottery.sol\":10134:10168  users[rewardAddress].rounds[round] */\n      0xff\n      and\n      0xff\n      and\n      dup2\n      mstore\n      0x20\n      add\n      swap1\n      dup2\n      mstore\n      0x20\n      add\n      0x00\n      keccak256\n        /* \"contract/lottery.sol\":10134:10175  users[rewardAddress].rounds[round].active */\n      0x00\n      add\n      0x06\n        /* \"contract/lottery.sol\":10134:10183  users[rewardAddress].rounds[round].active = false */\n      0x0100\n      exp\n      dup2\n      sload\n      dup2\n      0xff\n      mul\n      not\n      and\n      swap1\n      dup4\n      iszero\n      iszero\n      mul\n      or\n      swap1\n      sstore\n      pop\n        /* \"contract/lottery.sol\":10230:10240  msg.sender */\n      caller\n        /* \"contract/lottery.sol\":10207:10273  roundDeactivation(now, msg.sender, users[rewardAddress].id, round) */\n      0xffffffffffffffffffffffffffffffffffffffff\n      and\n      0x1524ba6dfa482cf4eda16273d76657ddb7f563b2e8a6c3f294564de0ffc66211\n        /* \"contract/lottery.sol\":10225:10228  now */\n      timestamp\n        /* \"contract/lottery.sol\":10242:10247  users */\n      0x6b\n        /* \"contract/lottery.sol\":10242:10262  users[rewardAddress] */\n      0x00\n        /* \"contract/lottery.sol\":10248:10261  rewardAddress */\n      dup7\n        /* \"contract/lottery.sol\":10242:10262  users[rewardAddress] */\n      0xffffffffffffffffffffffffffffffffffffffff\n      and\n      0xffffffffffffffffffffffffffffffffffffffff\n      and\n      dup2\n      mstore\n      0x20\n      add\n      swap1\n      dup2\n      mstore\n      0x20\n      add\n      0x00\n      keccak256\n        /* \"contract/lottery.sol\":10242:10265  users[rewardAddress].id */\n      0x00\n      add\n      sload\n        /* \"contract/lottery.sol\":10267:10272  round */\n      dup9\n        /* \"contract/lottery.sol\":10207:10273  roundDeactivation(now, msg.sender, users[rewardAddress].id, round) */\n      mload(0x40)\n      dup1\n      dup5\n      dup2\n      mstore\n      0x20\n      add\n      dup4\n      dup2\n      mstore\n      0x20\n      add\n      dup3\n      0xff\n      and\n      dup2\n      mstore\n      0x20\n      add\n      swap4\n      pop\n      pop\n      pop\n      pop\n      mload(0x40)\n      dup1\n      swap2\n      sub\n      swap1\n      log2\n        /* \"contract/lottery.sol\":9941:10289  if (users[rewardAddress].rounds[round].payouts < users[rewardAddress].rounds[round].maxPayouts) {\r... */\n    tag_301:\n        /* \"contract/lottery.sol\":10310:10320  roundQueue */\n      0x6d\n        /* \"contract/lottery.sol\":10310:10327  roundQueue[round] */\n      0x00\n        /* \"contract/lottery.sol\":10321:10326  round */\n      dup7\n        /* \"contract/lottery.sol\":10310:10327  roundQueue[round] */\n      0xff\n      and\n      0xff\n      and\n      dup2\n      mstore\n      0x20\n      add\n      swap1\n      dup2\n      mstore\n      0x20\n      add\n      0x00\n      keccak256\n        /* \"contract/lottery.sol\":10328:10337  headIndex */\n      0x6e\n        /* \"contract/lottery.sol\":10328:10344  headIndex[round] */\n      0x00\n        /* \"contract/lottery.sol\":10338:10343  round */\n      dup8\n        /* \"contract/lottery.sol\":10328:10344  headIndex[round] */\n      0xff\n      and\n      0xff\n      and\n      dup2\n      mstore\n      0x20\n      add\n      swap1\n      dup2\n      mstore\n      0x20\n      add\n      0x00\n      keccak256\n      sload\n        /* \"contract/lottery.sol\":10310:10345  roundQueue[round][headIndex[round]] */\n      dup2\n      sload\n      dup2\n      lt\n      tag_302\n      jumpi\n      invalid\n    tag_302:\n      swap1\n      0x00\n      mstore\n      keccak256(0x00, 0x20)\n      add\n      0x00\n        /* \"contract/lottery.sol\":10303:10345  delete roundQueue[round][headIndex[round]] */\n      0x0100\n      exp\n      dup2\n      sload\n      swap1\n      0xffffffffffffffffffffffffffffffffffffffff\n      mul\n      not\n      and\n      swap1\n      sstore\n        /* \"contract/lottery.sol\":10360:10369  headIndex */\n      0x6e\n        /* \"contract/lottery.sol\":10360:10376  headIndex[round] */\n      0x00\n        /* \"contract/lottery.sol\":10370:10375  round */\n      dup7\n        /* \"contract/lottery.sol\":10360:10376  headIndex[round] */\n      0xff\n      and\n      0xff\n      and\n      dup2\n      mstore\n      0x20\n      add\n      swap1\n      dup2\n      mstore\n      0x20\n      add\n      0x00\n      keccak256\n      0x00\n        /* \"contract/lottery.sol\":10360:10378  headIndex[round]++ */\n      dup2\n      sload\n      dup1\n      swap3\n      swap2\n      swap1\n      0x01\n      add\n      swap2\n      swap1\n      pop\n      sstore\n      pop\n        /* \"contract/lottery.sol\":8944:10610  if (roundQueue[round][headIndex[round]] != msg.sender) {\r... */\n      pop\n      pop\n      jump(tag_304)\n    tag_284:\n        /* \"contract/lottery.sol\":10411:10416  owner */\n      0x66\n      0x02\n      swap1\n      sload\n      swap1\n      0x0100\n      exp\n      swap1\n      div\n      0xffffffffffffffffffffffffffffffffffffffff\n      and\n        /* \"contract/lottery.sol\":10411:10425  owner.transfer */\n      0xffffffffffffffffffffffffffffffffffffffff\n      and\n        /* \"contract/lottery.sol\":10411:10433  owner.transfer(reward) */\n      0x08fc\n        /* \"contract/lottery.sol\":10426:10432  reward */\n      dup3\n        /* \"contract/lottery.sol\":10411:10433  owner.transfer(reward) */\n      swap1\n      dup2\n      iszero\n      mul\n      swap1\n      mload(0x40)\n      0x00\n      mload(0x40)\n      dup1\n      dup4\n      sub\n      dup2\n      dup6\n      dup9\n      dup9\n      call\n      swap4\n      pop\n      pop\n      pop\n      pop\n      iszero\n      dup1\n      iszero\n      tag_306\n      jumpi\n      returndatasize\n      0x00\n      dup1\n      returndatacopy\n      revert(0x00, returndatasize)\n    tag_306:\n      pop\n        /* \"contract/lottery.sol\":10448:10453  users */\n      0x6b\n        /* \"contract/lottery.sol\":10448:10460  users[owner] */\n      0x00\n        /* \"contract/lottery.sol\":10454:10459  owner */\n      0x66\n      0x02\n      swap1\n      sload\n      swap1\n      0x0100\n      exp\n      swap1\n      div\n      0xffffffffffffffffffffffffffffffffffffffff\n      and\n        /* \"contract/lottery.sol\":10448:10460  users[owner] */\n      0xffffffffffffffffffffffffffffffffffffffff\n      and\n      0xffffffffffffffffffffffffffffffffffffffff\n      and\n      dup2\n      mstore\n      0x20\n      add\n      swap1\n      dup2\n      mstore\n      0x20\n      add\n      0x00\n      keccak256\n        /* \"contract/lottery.sol\":10448:10467  users[owner].rounds */\n      0x07\n      add\n        /* \"contract/lottery.sol\":10448:10474  users[owner].rounds[round] */\n      0x00\n        /* \"contract/lottery.sol\":10468:10473  round */\n      dup5\n        /* \"contract/lottery.sol\":10448:10474  users[owner].rounds[round] */\n      0xff\n      and\n      0xff\n      and\n      dup2\n      mstore\n      0x20\n      add\n      swap1\n      dup2\n      mstore\n      0x20\n      add\n      0x00\n      keccak256\n        /* \"contract/lottery.sol\":10448:10482  users[owner].rounds[round].payouts */\n      0x00\n      add\n      0x04\n        /* \"contract/lottery.sol\":10448:10484  users[owner].rounds[round].payouts++ */\n      dup2\n      dup2\n      swap1\n      sload\n      swap1\n      0x0100\n      exp\n      swap1\n      div\n      0xffff\n      and\n      dup1\n      swap3\n      swap2\n      swap1\n      0x01\n      add\n      swap2\n      swap1\n      0x0100\n      exp\n      dup2\n      sload\n      dup2\n      0xffff\n      mul\n      not\n      and\n      swap1\n      dup4\n      0xffff\n      and\n      mul\n      or\n      swap1\n      sstore\n      pop\n      pop\n        /* \"contract/lottery.sol\":10539:10545  reward */\n      dup1\n        /* \"contract/lottery.sol\":10499:10504  users */\n      0x6b\n        /* \"contract/lottery.sol\":10499:10511  users[owner] */\n      0x00\n        /* \"contract/lottery.sol\":10505:10510  owner */\n      0x66\n      0x02\n      swap1\n      sload\n      swap1\n      0x0100\n      exp\n      swap1\n      div\n      0xffffffffffffffffffffffffffffffffffffffff\n      and\n        /* \"contract/lottery.sol\":10499:10511  users[owner] */\n      0xffffffffffffffffffffffffffffffffffffffff\n      and\n      0xffffffffffffffffffffffffffffffffffffffff\n      and\n      dup2\n      mstore\n      0x20\n      add\n      swap1\n      dup2\n      mstore\n      0x20\n      add\n      0x00\n      keccak256\n        /* \"contract/lottery.sol\":10499:10518  users[owner].rounds */\n      0x07\n      add\n        /* \"contract/lottery.sol\":10499:10525  users[owner].rounds[round] */\n      0x00\n        /* \"contract/lottery.sol\":10519:10524  round */\n      dup6\n        /* \"contract/lottery.sol\":10499:10525  users[owner].rounds[round] */\n      0xff\n      and\n      0xff\n      and\n      dup2\n      mstore\n      0x20\n      add\n      swap1\n      dup2\n      mstore\n      0x20\n      add\n      0x00\n      keccak256\n        /* \"contract/lottery.sol\":10499:10535  users[owner].rounds[round].rewardSum */\n      0x01\n      add\n      0x00\n        /* \"contract/lottery.sol\":10499:10545  users[owner].rounds[round].rewardSum += reward */\n      dup3\n      dup3\n      sload\n      add\n      swap3\n      pop\n      pop\n      dup2\n      swap1\n      sstore\n      pop\n        /* \"contract/lottery.sol\":10592:10598  reward */\n      dup1\n        /* \"contract/lottery.sol\":10560:10565  users */\n      0x6b\n        /* \"contract/lottery.sol\":10560:10572  users[owner] */\n      0x00\n        /* \"contract/lottery.sol\":10566:10571  owner */\n      0x66\n      0x02\n      swap1\n      sload\n      swap1\n      0x0100\n      exp\n      swap1\n      div\n      0xffffffffffffffffffffffffffffffffffffffff\n      and\n        /* \"contract/lottery.sol\":10560:10572  users[owner] */\n      0xffffffffffffffffffffffffffffffffffffffff\n      and\n      0xffffffffffffffffffffffffffffffffffffffff\n      and\n      dup2\n      mstore\n      0x20\n      add\n      swap1\n      dup2\n      mstore\n      0x20\n      add\n      0x00\n      keccak256\n        /* \"contract/lottery.sol\":10560:10588  users[owner].roundsRewardSum */\n      0x05\n      add\n      0x00\n        /* \"contract/lottery.sol\":10560:10598  users[owner].roundsRewardSum += reward */\n      dup3\n      dup3\n      sload\n      add\n      swap3\n      pop\n      pop\n      dup2\n      swap1\n      sstore\n      pop\n        /* \"contract/lottery.sol\":8944:10610  if (roundQueue[round][headIndex[round]] != msg.sender) {\r... */\n    tag_304:\n        /* \"contract/lottery.sol\":10624:10640  uint rewardValue */\n      0x00\n        /* \"contract/lottery.sol\":10656:10678  referralRewardPercents */\n      0x66\n      0x00\n      swap1\n      sload\n      swap1\n      0x0100\n      exp\n      swap1\n      div\n      0xff\n      and\n        /* \"contract/lottery.sol\":10643:10678  onePercent * referralRewardPercents */\n      0xff\n      and\n        /* \"contract/lottery.sol\":10643:10653  onePercent */\n      dup4\n        /* \"contract/lottery.sol\":10643:10678  onePercent * referralRewardPercents */\n      mul\n        /* \"contract/lottery.sol\":10624:10678  uint rewardValue = onePercent * referralRewardPercents */\n      swap1\n      pop\n        /* \"contract/lottery.sol\":10693:10745  sendRewardToReferrer(msg.sender, round, rewardValue) */\n      tag_307\n        /* \"contract/lottery.sol\":10714:10724  msg.sender */\n      caller\n        /* \"contract/lottery.sol\":10726:10731  round */\n      dup6\n        /* \"contract/lottery.sol\":10733:10744  rewardValue */\n      dup4\n        /* \"contract/lottery.sol\":10693:10713  sendRewardToReferrer */\n      tag_308\n        /* \"contract/lottery.sol\":10693:10745  sendRewardToReferrer(msg.sender, round, rewardValue) */\n      jump\t// in\n    tag_307:\n        /* \"contract/lottery.sol\":10767:10779  bool success */\n      0x00\n        /* \"contract/lottery.sol\":10785:10794  marketing */\n      0x67\n      0x00\n      swap1\n      sload\n      swap1\n      0x0100\n      exp\n      swap1\n      div\n      0xffffffffffffffffffffffffffffffffffffffff\n      and\n        /* \"contract/lottery.sol\":10785:10799  marketing.call */\n      0xffffffffffffffffffffffffffffffffffffffff\n      and\n        /* \"contract/lottery.sol\":3092:3093  7 */\n      0x07\n        /* \"contract/lottery.sol\":10807:10837  onePercent * marketingPercents */\n      0xff\n      and\n        /* \"contract/lottery.sol\":10807:10817  onePercent */\n      dup6\n        /* \"contract/lottery.sol\":10807:10837  onePercent * marketingPercents */\n      mul\n        /* \"contract/lottery.sol\":10785:10842  marketing.call{value: onePercent * marketingPercents}(\"\") */\n      mload(0x40)\n      dup1\n      0x00\n      add\n      swap1\n      pop\n      0x00\n      mload(0x40)\n      dup1\n      dup4\n      sub\n      dup2\n      dup6\n      dup8\n      gas\n      call\n      swap3\n      pop\n      pop\n      pop\n      returndatasize\n      dup1\n      0x00\n      dup2\n      eq\n      tag_311\n      jumpi\n      mload(0x40)\n      swap2\n      pop\n      and(add(returndatasize, 0x3f), not(0x1f))\n      dup3\n      add\n      0x40\n      mstore\n      returndatasize\n      dup3\n      mstore\n      returndatasize\n      0x00\n      0x20\n      dup5\n      add\n      returndatacopy\n      jump(tag_310)\n    tag_311:\n      0x60\n      swap2\n      pop\n    tag_310:\n      pop\n        /* \"contract/lottery.sol\":10766:10842  (bool success, ) = marketing.call{value: onePercent * marketingPercents}(\"\") */\n      pop\n      swap1\n      pop\n        /* \"contract/lottery.sol\":10861:10868  success */\n      dup1\n        /* \"contract/lottery.sol\":10853:10904  require(success, \"transfer failed while buy round\") */\n      tag_312\n      jumpi\n      mload(0x40)\n      0x08c379a000000000000000000000000000000000000000000000000000000000\n      dup2\n      mstore\n      0x04\n      add\n      dup1\n      dup1\n      0x20\n      add\n      dup3\n      dup2\n      sub\n      dup3\n      mstore\n      0x1f\n      dup2\n      mstore\n      0x20\n      add\n      dup1\n      0x7472616e73666572206661696c6564207768696c652062757920726f756e6400\n      dup2\n      mstore\n      pop\n      0x20\n      add\n      swap2\n      pop\n      pop\n      mload(0x40)\n      dup1\n      swap2\n      sub\n      swap1\n      revert\n    tag_312:\n        /* \"contract/lottery.sol\":430:431  _ */\n      pop\n      pop\n      pop\n      pop\n        /* \"contract/lottery.sol\":136:137  1 */\n      0x01\n        /* \"contract/lottery.sol\":442:449  _status */\n      0x00\n        /* \"contract/lottery.sol\":442:464  _status = _NOT_ENTERED */\n      dup2\n      swap1\n      sstore\n      pop\n        /* \"contract/lottery.sol\":6714:10912  function buyround(uint8 round) public payable nonReentrant{\r... */\n      pop\n      jump\t// out\n        /* \"contract/lottery.sol\":17005:17102  function getroundPrices() public view returns(uint[] memory) {\r... */\n    tag_69:\n        /* \"contract/lottery.sol\":17051:17064  uint[] memory */\n      0x60\n        /* \"contract/lottery.sol\":17084:17094  roundPrice */\n      0x68\n        /* \"contract/lottery.sol\":17077:17094  return roundPrice */\n      dup1\n      sload\n      dup1\n      0x20\n      mul\n      0x20\n      add\n      mload(0x40)\n      swap1\n      dup2\n      add\n      0x40\n      mstore\n      dup1\n      swap3\n      swap2\n      swap1\n      dup2\n      dup2\n      mstore\n      0x20\n      add\n      dup3\n      dup1\n      sload\n      dup1\n      iszero\n      tag_314\n      jumpi\n      0x20\n      mul\n      dup3\n      add\n      swap2\n      swap1\n      0x00\n      mstore\n      keccak256(0x00, 0x20)\n      swap1\n    tag_315:\n      dup2\n      sload\n      dup2\n      mstore\n      0x20\n      add\n      swap1\n      0x01\n      add\n      swap1\n      dup1\n      dup4\n      gt\n      tag_315\n      jumpi\n    tag_314:\n      pop\n      pop\n      pop\n      pop\n      pop\n      swap1\n      pop\n        /* \"contract/lottery.sol\":17005:17102  function getroundPrices() public view returns(uint[] memory) {\r... */\n      swap1\n      jump\t// out\n        /* \"contract/lottery.sol\":4793:4981  function isContract(address addr) public view returns (bool) {\r... */\n    tag_76:\n        /* \"contract/lottery.sol\":4848:4852  bool */\n      0x00\n        /* \"contract/lottery.sol\":4865:4876  uint32 size */\n      dup1\n        /* \"contract/lottery.sol\":4931:4935  addr */\n      dup3\n        /* \"contract/lottery.sol\":4919:4936  extcodesize(addr) */\n      extcodesize\n        /* \"contract/lottery.sol\":4911:4936  size := extcodesize(addr) */\n      swap1\n      pop\n        /* \"contract/lottery.sol\":4972:4973  0 */\n      0x00\n        /* \"contract/lottery.sol\":4964:4968  size */\n      dup2\n        /* \"contract/lottery.sol\":4964:4973  size != 0 */\n      0xffffffff\n      and\n      eq\n      iszero\n        /* \"contract/lottery.sol\":4957:4973  return size != 0 */\n      swap2\n      pop\n      pop\n        /* \"contract/lottery.sol\":4793:4981  function isContract(address addr) public view returns (bool) {\r... */\n      swap2\n      swap1\n      pop\n      jump\t// out\n        /* \"contract/lottery.sol\":525:555  address[50] public  todayWiner */\n    tag_84:\n      0x01\n      dup2\n      0x32\n      dup2\n      lt\n      tag_317\n      jumpi\n      invalid\n    tag_317:\n      add\n      0x00\n      swap2\n      pop\n      sload\n      swap1\n      0x0100\n      exp\n      swap1\n      div\n      0xffffffffffffffffffffffffffffffffffffffff\n      and\n      dup2\n      jump\t// out\n        /* \"contract/lottery.sol\":2901:2949  uint public constant registrationPrice = 0 ether */\n    tag_87:\n        /* \"contract/lottery.sol\":2942:2949  0 ether */\n      0x00\n        /* \"contract/lottery.sol\":2901:2949  uint public constant registrationPrice = 0 ether */\n      dup2\n      jump\t// out\n        /* \"contract/lottery.sol\":15779:16999  function getUserrounds(address userAddress) public view returns (bool[] memory, uint16[] memory, uint16[] memory, uint16[] memory, uint[] memory, uint[] memory) {\r... */\n    tag_91:\n        /* \"contract/lottery.sol\":15844:15857  bool[] memory */\n      0x60\n        /* \"contract/lottery.sol\":15859:15874  uint16[] memory */\n      dup1\n        /* \"contract/lottery.sol\":15876:15891  uint16[] memory */\n      0x60\n        /* \"contract/lottery.sol\":15893:15908  uint16[] memory */\n      dup1\n        /* \"contract/lottery.sol\":15910:15923  uint[] memory */\n      0x60\n        /* \"contract/lottery.sol\":15925:15938  uint[] memory */\n      dup1\n        /* \"contract/lottery.sol\":15951:15971  bool[] memory active */\n      0x60\n        /* \"contract/lottery.sol\":15999:16000  1 */\n      0x01\n        /* \"contract/lottery.sol\":15985:15996  totalrounds */\n      sload(0x69)\n        /* \"contract/lottery.sol\":15985:16000  totalrounds + 1 */\n      add\n        /* \"contract/lottery.sol\":15974:16001  new bool[](totalrounds + 1) */\n      0xffffffffffffffff\n      dup2\n      gt\n      dup1\n      iszero\n      tag_320\n      jumpi\n      0x00\n      dup1\n      revert\n    tag_320:\n      pop\n      mload(0x40)\n      swap1\n      dup1\n      dup3\n      mstore\n      dup1\n      0x20\n      mul\n      0x20\n      add\n      dup3\n      add\n      0x40\n      mstore\n      dup1\n      iszero\n      tag_321\n      jumpi\n      dup2\n      0x20\n      add\n      0x20\n      dup3\n      mul\n      dup1\n      calldatasize\n      dup4\n      calldatacopy\n      dup1\n      dup3\n      add\n      swap2\n      pop\n      pop\n      swap1\n      pop\n    tag_321:\n      pop\n        /* \"contract/lottery.sol\":15951:16001  bool[] memory active = new bool[](totalrounds + 1) */\n      swap1\n      pop\n        /* \"contract/lottery.sol\":16012:16035  uint16[] memory payouts */\n      0x60\n        /* \"contract/lottery.sol\":16065:16066  1 */\n      0x01\n        /* \"contract/lottery.sol\":16051:16062  totalrounds */\n      sload(0x69)\n        /* \"contract/lottery.sol\":16051:16066  totalrounds + 1 */\n      add\n        /* \"contract/lottery.sol\":16038:16067  new uint16[](totalrounds + 1) */\n      0xffffffffffffffff\n      dup2\n      gt\n      dup1\n      iszero\n      tag_322\n      jumpi\n      0x00\n      dup1\n      revert\n    tag_322:\n      pop\n      mload(0x40)\n      swap1\n      dup1\n      dup3\n      mstore\n      dup1\n      0x20\n      mul\n      0x20\n      add\n      dup3\n      add\n      0x40\n      mstore\n      dup1\n      iszero\n      tag_323\n      jumpi\n      dup2\n      0x20\n      add\n      0x20\n      dup3\n      mul\n      dup1\n      calldatasize\n      dup4\n      calldatacopy\n      dup1\n      dup3\n      add\n      swap2\n      pop\n      pop\n      swap1\n      pop\n    tag_323:\n      pop\n        /* \"contract/lottery.sol\":16012:16067  uint16[] memory payouts = new uint16[](totalrounds + 1) */\n      swap1\n      pop\n        /* \"contract/lottery.sol\":16078:16104  uint16[] memory maxPayouts */\n      0x60\n        /* \"contract/lottery.sol\":16134:16135  1 */\n      0x01\n        /* \"contract/lottery.sol\":16120:16131  totalrounds */\n      sload(0x69)\n        /* \"contract/lottery.sol\":16120:16135  totalrounds + 1 */\n      add\n        /* \"contract/lottery.sol\":16107:16136  new uint16[](totalrounds + 1) */\n      0xffffffffffffffff\n      dup2\n      gt\n      dup1\n      iszero\n      tag_324\n      jumpi\n      0x00\n      dup1\n      revert\n    tag_324:\n      pop\n      mload(0x40)\n      swap1\n      dup1\n      dup3\n      mstore\n      dup1\n      0x20\n      mul\n      0x20\n      add\n      dup3\n      add\n      0x40\n      mstore\n      dup1\n      iszero\n      tag_325\n      jumpi\n      dup2\n      0x20\n      add\n      0x20\n      dup3\n      mul\n      dup1\n      calldatasize\n      dup4\n      calldatacopy\n      dup1\n      dup3\n      add\n      swap2\n      pop\n      pop\n      swap1\n      pop\n    tag_325:\n      pop\n        /* \"contract/lottery.sol\":16078:16136  uint16[] memory maxPayouts = new uint16[](totalrounds + 1) */\n      swap1\n      pop\n        /* \"contract/lottery.sol\":16147:16178  uint16[] memory activationTimes */\n      0x60\n        /* \"contract/lottery.sol\":16208:16209  1 */\n      0x01\n        /* \"contract/lottery.sol\":16194:16205  totalrounds */\n      sload(0x69)\n        /* \"contract/lottery.sol\":16194:16209  totalrounds + 1 */\n      add\n        /* \"contract/lottery.sol\":16181:16210  new uint16[](totalrounds + 1) */\n      0xffffffffffffffff\n      dup2\n      gt\n      dup1\n      iszero\n      tag_326\n      jumpi\n      0x00\n      dup1\n      revert\n    tag_326:\n      pop\n      mload(0x40)\n      swap1\n      dup1\n      dup3\n      mstore\n      dup1\n      0x20\n      mul\n      0x20\n      add\n      dup3\n      add\n      0x40\n      mstore\n      dup1\n      iszero\n      tag_327\n      jumpi\n      dup2\n      0x20\n      add\n      0x20\n      dup3\n      mul\n      dup1\n      calldatasize\n      dup4\n      calldatacopy\n      dup1\n      dup3\n      add\n      swap2\n      pop\n      pop\n      swap1\n      pop\n    tag_327:\n      pop\n        /* \"contract/lottery.sol\":16147:16210  uint16[] memory activationTimes = new uint16[](totalrounds + 1) */\n      swap1\n      pop\n        /* \"contract/lottery.sol\":16221:16244  uint[] memory rewardSum */\n      0x60\n        /* \"contract/lottery.sol\":16272:16273  1 */\n      0x01\n        /* \"contract/lottery.sol\":16258:16269  totalrounds */\n      sload(0x69)\n        /* \"contract/lottery.sol\":16258:16273  totalrounds + 1 */\n      add\n        /* \"contract/lottery.sol\":16247:16274  new uint[](totalrounds + 1) */\n      0xffffffffffffffff\n      dup2\n      gt\n      dup1\n      iszero\n      tag_328\n      jumpi\n      0x00\n      dup1\n      revert\n    tag_328:\n      pop\n      mload(0x40)\n      swap1\n      dup1\n      dup3\n      mstore\n      dup1\n      0x20\n      mul\n      0x20\n      add\n      dup3\n      add\n      0x40\n      mstore\n      dup1\n      iszero\n      tag_329\n      jumpi\n      dup2\n      0x20\n      add\n      0x20\n      dup3\n      mul\n      dup1\n      calldatasize\n      dup4\n      calldatacopy\n      dup1\n      dup3\n      add\n      swap2\n      pop\n      pop\n      swap1\n      pop\n    tag_329:\n      pop\n        /* \"contract/lottery.sol\":16221:16274  uint[] memory rewardSum = new uint[](totalrounds + 1) */\n      swap1\n      pop\n        /* \"contract/lottery.sol\":16285:16316  uint[] memory referralPayoutSum */\n      0x60\n        /* \"contract/lottery.sol\":16344:16345  1 */\n      0x01\n        /* \"contract/lottery.sol\":16330:16341  totalrounds */\n      sload(0x69)\n        /* \"contract/lottery.sol\":16330:16345  totalrounds + 1 */\n      add\n        /* \"contract/lottery.sol\":16319:16346  new uint[](totalrounds + 1) */\n      0xffffffffffffffff\n      dup2\n      gt\n      dup1\n      iszero\n      tag_330\n      jumpi\n      0x00\n      dup1\n      revert\n    tag_330:\n      pop\n      mload(0x40)\n      swap1\n      dup1\n      dup3\n      mstore\n      dup1\n      0x20\n      mul\n      0x20\n      add\n      dup3\n      add\n      0x40\n      mstore\n      dup1\n      iszero\n      tag_331\n      jumpi\n      dup2\n      0x20\n      add\n      0x20\n      dup3\n      mul\n      dup1\n      calldatasize\n      dup4\n      calldatacopy\n      dup1\n      dup3\n      add\n      swap2\n      pop\n      pop\n      swap1\n      pop\n    tag_331:\n      pop\n        /* \"contract/lottery.sol\":16285:16346  uint[] memory referralPayoutSum = new uint[](totalrounds + 1) */\n      swap1\n      pop\n        /* \"contract/lottery.sol\":16362:16373  uint8 round */\n      0x00\n        /* \"contract/lottery.sol\":16376:16377  1 */\n      0x01\n        /* \"contract/lottery.sol\":16362:16377  uint8 round = 1 */\n      swap1\n      pop\n        /* \"contract/lottery.sol\":16357:16898  for (uint8 round = 1; round <= totalrounds; round++) {\r... */\n    tag_332:\n        /* \"contract/lottery.sol\":16388:16399  totalrounds */\n      sload(0x69)\n        /* \"contract/lottery.sol\":16379:16384  round */\n      dup2\n        /* \"contract/lottery.sol\":16379:16399  round <= totalrounds */\n      0xff\n      and\n      gt\n        /* \"contract/lottery.sol\":16357:16898  for (uint8 round = 1; round <= totalrounds; round++) {\r... */\n      tag_333\n      jumpi\n        /* \"contract/lottery.sol\":16441:16446  users */\n      0x6b\n        /* \"contract/lottery.sol\":16441:16459  users[userAddress] */\n      0x00\n        /* \"contract/lottery.sol\":16447:16458  userAddress */\n      dup16\n        /* \"contract/lottery.sol\":16441:16459  users[userAddress] */\n      0xffffffffffffffffffffffffffffffffffffffff\n      and\n      0xffffffffffffffffffffffffffffffffffffffff\n      and\n      dup2\n      mstore\n      0x20\n      add\n      swap1\n      dup2\n      mstore\n      0x20\n      add\n      0x00\n      keccak256\n        /* \"contract/lottery.sol\":16441:16466  users[userAddress].rounds */\n      0x07\n      add\n        /* \"contract/lottery.sol\":16441:16473  users[userAddress].rounds[round] */\n      0x00\n        /* \"contract/lottery.sol\":16467:16472  round */\n      dup3\n        /* \"contract/lottery.sol\":16441:16473  users[userAddress].rounds[round] */\n      0xff\n      and\n      0xff\n      and\n      dup2\n      mstore\n      0x20\n      add\n      swap1\n      dup2\n      mstore\n      0x20\n      add\n      0x00\n      keccak256\n        /* \"contract/lottery.sol\":16441:16480  users[userAddress].rounds[round].active */\n      0x00\n      add\n      0x06\n      swap1\n      sload\n      swap1\n      0x0100\n      exp\n      swap1\n      div\n      0xff\n      and\n        /* \"contract/lottery.sol\":16425:16431  active */\n      dup8\n        /* \"contract/lottery.sol\":16432:16437  round */\n      dup3\n        /* \"contract/lottery.sol\":16425:16438  active[round] */\n      0xff\n      and\n      dup2\n      mload\n      dup2\n      lt\n      tag_335\n      jumpi\n      invalid\n    tag_335:\n      0x20\n      mul\n      0x20\n      add\n      add\n        /* \"contract/lottery.sol\":16425:16480  active[round] = users[userAddress].rounds[round].active */\n      swap1\n      iszero\n      iszero\n      swap1\n      dup2\n      iszero\n      iszero\n      dup2\n      mstore\n      pop\n      pop\n        /* \"contract/lottery.sol\":16512:16517  users */\n      0x6b\n        /* \"contract/lottery.sol\":16512:16530  users[userAddress] */\n      0x00\n        /* \"contract/lottery.sol\":16518:16529  userAddress */\n      dup16\n        /* \"contract/lottery.sol\":16512:16530  users[userAddress] */\n      0xffffffffffffffffffffffffffffffffffffffff\n      and\n      0xffffffffffffffffffffffffffffffffffffffff\n      and\n      dup2\n      mstore\n      0x20\n      add\n      swap1\n      dup2\n      mstore\n      0x20\n      add\n      0x00\n      keccak256\n        /* \"contract/lottery.sol\":16512:16537  users[userAddress].rounds */\n      0x07\n      add\n        /* \"contract/lottery.sol\":16512:16544  users[userAddress].rounds[round] */\n      0x00\n        /* \"contract/lottery.sol\":16538:16543  round */\n      dup3\n        /* \"contract/lottery.sol\":16512:16544  users[userAddress].rounds[round] */\n      0xff\n      and\n      0xff\n      and\n      dup2\n      mstore\n      0x20\n      add\n      swap1\n      dup2\n      mstore\n      0x20\n      add\n      0x00\n      keccak256\n        /* \"contract/lottery.sol\":16512:16552  users[userAddress].rounds[round].payouts */\n      0x00\n      add\n      0x04\n      swap1\n      sload\n      swap1\n      0x0100\n      exp\n      swap1\n      div\n      0xffff\n      and\n        /* \"contract/lottery.sol\":16495:16502  payouts */\n      dup7\n        /* \"contract/lottery.sol\":16503:16508  round */\n      dup3\n        /* \"contract/lottery.sol\":16495:16509  payouts[round] */\n      0xff\n      and\n      dup2\n      mload\n      dup2\n      lt\n      tag_336\n      jumpi\n      invalid\n    tag_336:\n      0x20\n      mul\n      0x20\n      add\n      add\n        /* \"contract/lottery.sol\":16495:16552  payouts[round] = users[userAddress].rounds[round].payouts */\n      swap1\n      0xffff\n      and\n      swap1\n      dup2\n      0xffff\n      and\n      dup2\n      mstore\n      pop\n      pop\n        /* \"contract/lottery.sol\":16587:16592  users */\n      0x6b\n        /* \"contract/lottery.sol\":16587:16605  users[userAddress] */\n      0x00\n        /* \"contract/lottery.sol\":16593:16604  userAddress */\n      dup16\n        /* \"contract/lottery.sol\":16587:16605  users[userAddress] */\n      0xffffffffffffffffffffffffffffffffffffffff\n      and\n      0xffffffffffffffffffffffffffffffffffffffff\n      and\n      dup2\n      mstore\n      0x20\n      add\n      swap1\n      dup2\n      mstore\n      0x20\n      add\n      0x00\n      keccak256\n        /* \"contract/lottery.sol\":16587:16612  users[userAddress].rounds */\n      0x07\n      add\n        /* \"contract/lottery.sol\":16587:16619  users[userAddress].rounds[round] */\n      0x00\n        /* \"contract/lottery.sol\":16613:16618  round */\n      dup3\n        /* \"contract/lottery.sol\":16587:16619  users[userAddress].rounds[round] */\n      0xff\n      and\n      0xff\n      and\n      dup2\n      mstore\n      0x20\n      add\n      swap1\n      dup2\n      mstore\n      0x20\n      add\n      0x00\n      keccak256\n        /* \"contract/lottery.sol\":16587:16630  users[userAddress].rounds[round].maxPayouts */\n      0x00\n      add\n      0x02\n      swap1\n      sload\n      swap1\n      0x0100\n      exp\n      swap1\n      div\n      0xffff\n      and\n        /* \"contract/lottery.sol\":16567:16577  maxPayouts */\n      dup6\n        /* \"contract/lottery.sol\":16578:16583  round */\n      dup3\n        /* \"contract/lottery.sol\":16567:16584  maxPayouts[round] */\n      0xff\n      and\n      dup2\n      mload\n      dup2\n      lt\n      tag_337\n      jumpi\n      invalid\n    tag_337:\n      0x20\n      mul\n      0x20\n      add\n      add\n        /* \"contract/lottery.sol\":16567:16630  maxPayouts[round] = users[userAddress].rounds[round].maxPayouts */\n      swap1\n      0xffff\n      and\n      swap1\n      dup2\n      0xffff\n      and\n      dup2\n      mstore\n      pop\n      pop\n        /* \"contract/lottery.sol\":16670:16675  users */\n      0x6b\n        /* \"contract/lottery.sol\":16670:16688  users[userAddress] */\n      0x00\n        /* \"contract/lottery.sol\":16676:16687  userAddress */\n      dup16\n        /* \"contract/lottery.sol\":16670:16688  users[userAddress] */\n      0xffffffffffffffffffffffffffffffffffffffff\n      and\n      0xffffffffffffffffffffffffffffffffffffffff\n      and\n      dup2\n      mstore\n      0x20\n      add\n      swap1\n      dup2\n      mstore\n      0x20\n      add\n      0x00\n      keccak256\n        /* \"contract/lottery.sol\":16670:16695  users[userAddress].rounds */\n      0x07\n      add\n        /* \"contract/lottery.sol\":16670:16702  users[userAddress].rounds[round] */\n      0x00\n        /* \"contract/lottery.sol\":16696:16701  round */\n      dup3\n        /* \"contract/lottery.sol\":16670:16702  users[userAddress].rounds[round] */\n      0xff\n      and\n      0xff\n      and\n      dup2\n      mstore\n      0x20\n      add\n      swap1\n      dup2\n      mstore\n      0x20\n      add\n      0x00\n      keccak256\n        /* \"contract/lottery.sol\":16670:16718  users[userAddress].rounds[round].activationTimes */\n      0x00\n      add\n      0x00\n      swap1\n      sload\n      swap1\n      0x0100\n      exp\n      swap1\n      div\n      0xffff\n      and\n        /* \"contract/lottery.sol\":16645:16660  activationTimes */\n      dup5\n        /* \"contract/lottery.sol\":16661:16666  round */\n      dup3\n        /* \"contract/lottery.sol\":16645:16667  activationTimes[round] */\n      0xff\n      and\n      dup2\n      mload\n      dup2\n      lt\n      tag_338\n      jumpi\n      invalid\n    tag_338:\n      0x20\n      mul\n      0x20\n      add\n      add\n        /* \"contract/lottery.sol\":16645:16718  activationTimes[round] = users[userAddress].rounds[round].activationTimes */\n      swap1\n      0xffff\n      and\n      swap1\n      dup2\n      0xffff\n      and\n      dup2\n      mstore\n      pop\n      pop\n        /* \"contract/lottery.sol\":16752:16757  users */\n      0x6b\n        /* \"contract/lottery.sol\":16752:16770  users[userAddress] */\n      0x00\n        /* \"contract/lottery.sol\":16758:16769  userAddress */\n      dup16\n        /* \"contract/lottery.sol\":16752:16770  users[userAddress] */\n      0xffffffffffffffffffffffffffffffffffffffff\n      and\n      0xffffffffffffffffffffffffffffffffffffffff\n      and\n      dup2\n      mstore\n      0x20\n      add\n      swap1\n      dup2\n      mstore\n      0x20\n      add\n      0x00\n      keccak256\n        /* \"contract/lottery.sol\":16752:16777  users[userAddress].rounds */\n      0x07\n      add\n        /* \"contract/lottery.sol\":16752:16784  users[userAddress].rounds[round] */\n      0x00\n        /* \"contract/lottery.sol\":16778:16783  round */\n      dup3\n        /* \"contract/lottery.sol\":16752:16784  users[userAddress].rounds[round] */\n      0xff\n      and\n      0xff\n      and\n      dup2\n      mstore\n      0x20\n      add\n      swap1\n      dup2\n      mstore\n      0x20\n      add\n      0x00\n      keccak256\n        /* \"contract/lottery.sol\":16752:16794  users[userAddress].rounds[round].rewardSum */\n      0x01\n      add\n      sload\n        /* \"contract/lottery.sol\":16733:16742  rewardSum */\n      dup4\n        /* \"contract/lottery.sol\":16743:16748  round */\n      dup3\n        /* \"contract/lottery.sol\":16733:16749  rewardSum[round] */\n      0xff\n      and\n      dup2\n      mload\n      dup2\n      lt\n      tag_339\n      jumpi\n      invalid\n    tag_339:\n      0x20\n      mul\n      0x20\n      add\n      add\n        /* \"contract/lottery.sol\":16733:16794  rewardSum[round] = users[userAddress].rounds[round].rewardSum */\n      dup2\n      dup2\n      mstore\n      pop\n      pop\n        /* \"contract/lottery.sol\":16836:16841  users */\n      0x6b\n        /* \"contract/lottery.sol\":16836:16854  users[userAddress] */\n      0x00\n        /* \"contract/lottery.sol\":16842:16853  userAddress */\n      dup16\n        /* \"contract/lottery.sol\":16836:16854  users[userAddress] */\n      0xffffffffffffffffffffffffffffffffffffffff\n      and\n      0xffffffffffffffffffffffffffffffffffffffff\n      and\n      dup2\n      mstore\n      0x20\n      add\n      swap1\n      dup2\n      mstore\n      0x20\n      add\n      0x00\n      keccak256\n        /* \"contract/lottery.sol\":16836:16861  users[userAddress].rounds */\n      0x07\n      add\n        /* \"contract/lottery.sol\":16836:16868  users[userAddress].rounds[round] */\n      0x00\n        /* \"contract/lottery.sol\":16862:16867  round */\n      dup3\n        /* \"contract/lottery.sol\":16836:16868  users[userAddress].rounds[round] */\n      0xff\n      and\n      0xff\n      and\n      dup2\n      mstore\n      0x20\n      add\n      swap1\n      dup2\n      mstore\n      0x20\n      add\n      0x00\n      keccak256\n        /* \"contract/lottery.sol\":16836:16886  users[userAddress].rounds[round].referralPayoutSum */\n      0x02\n      add\n      sload\n        /* \"contract/lottery.sol\":16809:16826  referralPayoutSum */\n      dup3\n        /* \"contract/lottery.sol\":16827:16832  round */\n      dup3\n        /* \"contract/lottery.sol\":16809:16833  referralPayoutSum[round] */\n      0xff\n      and\n      dup2\n      mload\n      dup2\n      lt\n      tag_340\n      jumpi\n      invalid\n    tag_340:\n      0x20\n      mul\n      0x20\n      add\n      add\n        /* \"contract/lottery.sol\":16809:16886  referralPayoutSum[round] = users[userAddress].rounds[round].referralPayoutSum */\n      dup2\n      dup2\n      mstore\n      pop\n      pop\n        /* \"contract/lottery.sol\":16401:16408  round++ */\n      dup1\n      dup1\n      0x01\n      add\n      swap2\n      pop\n      pop\n        /* \"contract/lottery.sol\":16357:16898  for (uint8 round = 1; round <= totalrounds; round++) {\r... */\n      jump(tag_332)\n    tag_333:\n      pop\n        /* \"contract/lottery.sol\":16916:16922  active */\n      dup6\n        /* \"contract/lottery.sol\":16924:16931  payouts */\n      dup6\n        /* \"contract/lottery.sol\":16933:16943  maxPayouts */\n      dup6\n        /* \"contract/lottery.sol\":16945:16960  activationTimes */\n      dup6\n        /* \"contract/lottery.sol\":16962:16971  rewardSum */\n      dup6\n        /* \"contract/lottery.sol\":16973:16990  referralPayoutSum */\n      dup6\n        /* \"contract/lottery.sol\":16908:16991  return (active, payouts, maxPayouts, activationTimes, rewardSum, referralPayoutSum) */\n      swap12\n      pop\n      swap12\n      pop\n      swap12\n      pop\n      swap12\n      pop\n      swap12\n      pop\n      swap12\n      pop\n      pop\n      pop\n      pop\n      pop\n      pop\n      pop\n        /* \"contract/lottery.sol\":15779:16999  function getUserrounds(address userAddress) public view returns (bool[] memory, uint16[] memory, uint16[] memory, uint16[] memory, uint[] memory, uint[] memory) {\r... */\n      swap2\n      swap4\n      swap6\n      pop\n      swap2\n      swap4\n      swap6\n      jump\t// out\n        /* \"contract/lottery.sol\":697:735  address[16] public nextWinerSecretGame */\n    tag_113:\n      0x55\n      dup2\n      0x10\n      dup2\n      lt\n      tag_341\n      jumpi\n      invalid\n    tag_341:\n      add\n      0x00\n      swap2\n      pop\n      sload\n      swap1\n      0x0100\n      exp\n      swap1\n      div\n      0xffffffffffffffffffffffffffffffffffffffff\n      and\n      dup2\n      jump\t// out\n        /* \"contract/lottery.sol\":17427:17622  function getGlobalStatistic() public view returns(uint[5] memory result) {\r... */\n    tag_116:\n        /* \"contract/lottery.sol\":17477:17498  uint[5] memory result */\n      tag_343\n      tag_344\n      jump\t// in\n    tag_343:\n        /* \"contract/lottery.sol\":17511:17614  return [globalStat.members, globalStat.transactions, globalStat.turnover, todayWinerValue, timeLottery] */\n      mload(0x40)\n      dup1\n      0xa0\n      add\n      0x40\n      mstore\n      dup1\n        /* \"contract/lottery.sol\":17519:17529  globalStat */\n      0x6f\n        /* \"contract/lottery.sol\":17519:17537  globalStat.members */\n      0x00\n      add\n      sload\n        /* \"contract/lottery.sol\":17511:17614  return [globalStat.members, globalStat.transactions, globalStat.turnover, todayWinerValue, timeLottery] */\n      dup2\n      mstore\n      0x20\n      add\n        /* \"contract/lottery.sol\":17539:17549  globalStat */\n      0x6f\n        /* \"contract/lottery.sol\":17539:17562  globalStat.transactions */\n      0x01\n      add\n      sload\n        /* \"contract/lottery.sol\":17511:17614  return [globalStat.members, globalStat.transactions, globalStat.turnover, todayWinerValue, timeLottery] */\n      dup2\n      mstore\n      0x20\n      add\n        /* \"contract/lottery.sol\":17564:17574  globalStat */\n      0x6f\n        /* \"contract/lottery.sol\":17564:17583  globalStat.turnover */\n      0x02\n      add\n      sload\n        /* \"contract/lottery.sol\":17511:17614  return [globalStat.members, globalStat.transactions, globalStat.turnover, todayWinerValue, timeLottery] */\n      dup2\n      mstore\n      0x20\n      add\n        /* \"contract/lottery.sol\":17585:17600  todayWinerValue */\n      sload(0x33)\n        /* \"contract/lottery.sol\":17511:17614  return [globalStat.members, globalStat.transactions, globalStat.turnover, todayWinerValue, timeLottery] */\n      dup2\n      mstore\n      0x20\n      add\n        /* \"contract/lottery.sol\":17602:17613  timeLottery */\n      sload(0x34)\n        /* \"contract/lottery.sol\":17511:17614  return [globalStat.members, globalStat.transactions, globalStat.turnover, todayWinerValue, timeLottery] */\n      dup2\n      mstore\n      pop\n      swap1\n      pop\n        /* \"contract/lottery.sol\":17427:17622  function getGlobalStatistic() public view returns(uint[5] memory result) {\r... */\n      swap1\n      jump\t// out\n        /* \"contract/lottery.sol\":2956:2995  uint8 public constant rewardPayouts = 2 */\n    tag_122:\n        /* \"contract/lottery.sol\":2994:2995  2 */\n      0x02\n        /* \"contract/lottery.sol\":2956:2995  uint8 public constant rewardPayouts = 2 */\n      dup2\n      jump\t// out\n        /* \"contract/lottery.sol\":3239:3271  address payable public marketing */\n    tag_125:\n      0x67\n      0x00\n      swap1\n      sload\n      swap1\n      0x0100\n      exp\n      swap1\n      div\n      0xffffffffffffffffffffffffffffffffffffffff\n      and\n      dup2\n      jump\t// out\n        /* \"contract/lottery.sol\":17209:17311  function gettimeRoundEnd() public view returns(uint[16] memory) {\r... */\n    tag_128:\n        /* \"contract/lottery.sol\":17256:17271  uint[16] memory */\n      tag_346\n      tag_347\n      jump\t// in\n    tag_346:\n        /* \"contract/lottery.sol\":17291:17303  timeRoudsEnd */\n      0x45\n        /* \"contract/lottery.sol\":17284:17303  return timeRoudsEnd */\n      0x10\n      dup1\n      0x20\n      mul\n      mload(0x40)\n      swap1\n      dup2\n      add\n      0x40\n      mstore\n      dup1\n      swap3\n      swap2\n      swap1\n      dup3\n      0x10\n      dup1\n      iszero\n      tag_349\n      jumpi\n      0x20\n      mul\n      dup3\n      add\n      swap2\n    tag_350:\n      dup2\n      sload\n      dup2\n      mstore\n      0x20\n      add\n      swap1\n      0x01\n      add\n      swap1\n      dup1\n      dup4\n      gt\n      tag_350\n      jumpi\n    tag_349:\n      pop\n      pop\n      pop\n      pop\n      pop\n      swap1\n      pop\n        /* \"contract/lottery.sol\":17209:17311  function gettimeRoundEnd() public view returns(uint[16] memory) {\r... */\n      swap1\n      jump\t// out\n        /* \"contract/lottery.sol\":19082:19370  function calcSecretPrize(uint8 round) public view returns(uint value) {\r... */\n    tag_135:\n        /* \"contract/lottery.sol\":19140:19150  uint value */\n      0x00\n        /* \"contract/lottery.sol\":19163:19181  uint priceAllRound */\n      dup1\n        /* \"contract/lottery.sol\":19196:19203  uint8 i */\n      0x00\n        /* \"contract/lottery.sol\":19206:19207  1 */\n      0x01\n        /* \"contract/lottery.sol\":19196:19207  uint8 i = 1 */\n      swap1\n      pop\n        /* \"contract/lottery.sol\":19192:19288  for(uint8 i = 1; i <= totalrounds; i++) {\r... */\n    tag_352:\n        /* \"contract/lottery.sol\":19214:19225  totalrounds */\n      sload(0x69)\n        /* \"contract/lottery.sol\":19209:19210  i */\n      dup2\n        /* \"contract/lottery.sol\":19209:19225  i <= totalrounds */\n      0xff\n      and\n      gt\n        /* \"contract/lottery.sol\":19192:19288  for(uint8 i = 1; i <= totalrounds; i++) {\r... */\n      tag_353\n      jumpi\n        /* \"contract/lottery.sol\":19263:19273  roundPrice */\n      0x68\n        /* \"contract/lottery.sol\":19274:19275  i */\n      dup2\n        /* \"contract/lottery.sol\":19263:19276  roundPrice[i] */\n      0xff\n      and\n      dup2\n      sload\n      dup2\n      lt\n      tag_355\n      jumpi\n      invalid\n    tag_355:\n      swap1\n      0x00\n      mstore\n      keccak256(0x00, 0x20)\n      add\n      sload\n        /* \"contract/lottery.sol\":19247:19276  priceAllRound+= roundPrice[i] */\n      dup3\n      add\n      swap2\n      pop\n        /* \"contract/lottery.sol\":19227:19230  i++ */\n      dup1\n      dup1\n      0x01\n      add\n      swap2\n      pop\n      pop\n        /* \"contract/lottery.sol\":19192:19288  for(uint8 i = 1; i <= totalrounds; i++) {\r... */\n      jump(tag_352)\n    tag_353:\n      pop\n        /* \"contract/lottery.sol\":19341:19351  roundPrice */\n      0x68\n        /* \"contract/lottery.sol\":19352:19357  round */\n      dup4\n        /* \"contract/lottery.sol\":19341:19358  roundPrice[round] */\n      0xff\n      and\n      dup2\n      sload\n      dup2\n      lt\n      tag_357\n      jumpi\n      invalid\n    tag_357:\n      swap1\n      0x00\n      mstore\n      keccak256(0x00, 0x20)\n      add\n      sload\n        /* \"contract/lottery.sol\":19327:19340  priceAllRound */\n      dup2\n        /* \"contract/lottery.sol\":19305:19326  address(this).balance */\n      selfbalance\n        /* \"contract/lottery.sol\":19305:19340  address(this).balance/priceAllRound */\n      dup2\n      tag_359\n      jumpi\n      invalid\n    tag_359:\n      div\n        /* \"contract/lottery.sol\":19305:19358  address(this).balance/priceAllRound*roundPrice[round] */\n      mul\n        /* \"contract/lottery.sol\":19298:19358  return address(this).balance/priceAllRound*roundPrice[round] */\n      swap2\n      pop\n      pop\n        /* \"contract/lottery.sol\":19082:19370  function calcSecretPrize(uint8 round) public view returns(uint value) {\r... */\n      swap2\n      swap1\n      pop\n      jump\t// out\n        /* \"contract/lottery.sol\":17983:18106  function getUserIdByAddress(address userAddress) public view returns (uint) {\r... */\n    tag_139:\n        /* \"contract/lottery.sol\":18053:18057  uint */\n      0x00\n        /* \"contract/lottery.sol\":18077:18082  users */\n      0x6b\n        /* \"contract/lottery.sol\":18077:18095  users[userAddress] */\n      0x00\n        /* \"contract/lottery.sol\":18083:18094  userAddress */\n      dup4\n        /* \"contract/lottery.sol\":18077:18095  users[userAddress] */\n      0xffffffffffffffffffffffffffffffffffffffff\n      and\n      0xffffffffffffffffffffffffffffffffffffffff\n      and\n      dup2\n      mstore\n      0x20\n      add\n      swap1\n      dup2\n      mstore\n      0x20\n      add\n      0x00\n      keccak256\n        /* \"contract/lottery.sol\":18077:18098  users[userAddress].id */\n      0x00\n      add\n      sload\n        /* \"contract/lottery.sol\":18070:18098  return users[userAddress].id */\n      swap1\n      pop\n        /* \"contract/lottery.sol\":17983:18106  function getUserIdByAddress(address userAddress) public view returns (uint) {\r... */\n      swap2\n      swap1\n      pop\n      jump\t// out\n        /* \"contract/lottery.sol\":18304:18504  function getReferrer(address userAddress) public view returns (address) {\r... */\n    tag_143:\n        /* \"contract/lottery.sol\":18367:18374  address */\n      0x00\n        /* \"contract/lottery.sol\":18395:18424  isUserRegistered(userAddress) */\n      tag_362\n        /* \"contract/lottery.sol\":18412:18423  userAddress */\n      dup3\n        /* \"contract/lottery.sol\":18395:18411  isUserRegistered */\n      tag_61\n        /* \"contract/lottery.sol\":18395:18424  isUserRegistered(userAddress) */\n      jump\t// in\n    tag_362:\n        /* \"contract/lottery.sol\":18387:18451  require(isUserRegistered(userAddress), \"User is not registered\") */\n      tag_363\n      jumpi\n      mload(0x40)\n      0x08c379a000000000000000000000000000000000000000000000000000000000\n      dup2\n      mstore\n      0x04\n      add\n      dup1\n      dup1\n      0x20\n      add\n      dup3\n      dup2\n      sub\n      dup3\n      mstore\n      0x16\n      dup2\n      mstore\n      0x20\n      add\n      dup1\n      0x55736572206973206e6f74207265676973746572656400000000000000000000\n      dup2\n      mstore\n      pop\n      0x20\n      add\n      swap2\n      pop\n      pop\n      mload(0x40)\n      dup1\n      swap2\n      sub\n      swap1\n      revert\n    tag_363:\n        /* \"contract/lottery.sol\":18469:18474  users */\n      0x6b\n        /* \"contract/lottery.sol\":18469:18487  users[userAddress] */\n      0x00\n        /* \"contract/lottery.sol\":18475:18486  userAddress */\n      dup4\n        /* \"contract/lottery.sol\":18469:18487  users[userAddress] */\n      0xffffffffffffffffffffffffffffffffffffffff\n      and\n      0xffffffffffffffffffffffffffffffffffffffff\n      and\n      dup2\n      mstore\n      0x20\n      add\n      swap1\n      dup2\n      mstore\n      0x20\n      add\n      0x00\n      keccak256\n        /* \"contract/lottery.sol\":18469:18496  users[userAddress].referrer */\n      0x02\n      add\n      0x00\n      swap1\n      sload\n      swap1\n      0x0100\n      exp\n      swap1\n      div\n      0xffffffffffffffffffffffffffffffffffffffff\n      and\n        /* \"contract/lottery.sol\":18462:18496  return users[userAddress].referrer */\n      swap1\n      pop\n        /* \"contract/lottery.sol\":18304:18504  function getReferrer(address userAddress) public view returns (address) {\r... */\n      swap2\n      swap1\n      pop\n      jump\t// out\n        /* \"contract/lottery.sol\":3100:3139  uint8 public referralRewardPercents = 9 */\n    tag_146:\n      0x66\n      0x00\n      swap1\n      sload\n      swap1\n      0x0100\n      exp\n      swap1\n      div\n      0xff\n      and\n      dup2\n      jump\t// out\n        /* \"contract/lottery.sol\":15155:15773  function getUserroundsMissedProfit(address userAddress) public view returns ( uint[] memory, uint[] memory) {\r... */\n    tag_152:\n        /* \"contract/lottery.sol\":15233:15246  uint[] memory */\n      0x60\n        /* \"contract/lottery.sol\":15248:15261  uint[] memory */\n      dup1\n        /* \"contract/lottery.sol\":15276:15310  uint[] memory missedRefferalProfit */\n      0x60\n        /* \"contract/lottery.sol\":15338:15339  1 */\n      0x01\n        /* \"contract/lottery.sol\":15324:15335  totalrounds */\n      sload(0x69)\n        /* \"contract/lottery.sol\":15324:15339  totalrounds + 1 */\n      add\n        /* \"contract/lottery.sol\":15313:15340  new uint[](totalrounds + 1) */\n      0xffffffffffffffff\n      dup2\n      gt\n      dup1\n      iszero\n      tag_365\n      jumpi\n      0x00\n      dup1\n      revert\n    tag_365:\n      pop\n      mload(0x40)\n      swap1\n      dup1\n      dup3\n      mstore\n      dup1\n      0x20\n      mul\n      0x20\n      add\n      dup3\n      add\n      0x40\n      mstore\n      dup1\n      iszero\n      tag_366\n      jumpi\n      dup2\n      0x20\n      add\n      0x20\n      dup3\n      mul\n      dup1\n      calldatasize\n      dup4\n      calldatacopy\n      dup1\n      dup3\n      add\n      swap2\n      pop\n      pop\n      swap1\n      pop\n    tag_366:\n      pop\n        /* \"contract/lottery.sol\":15276:15340  uint[] memory missedRefferalProfit = new uint[](totalrounds + 1) */\n      swap1\n      pop\n        /* \"contract/lottery.sol\":15351:15389  uint[] memory missedRefferalPostProfit */\n      0x60\n        /* \"contract/lottery.sol\":15417:15418  1 */\n      0x01\n        /* \"contract/lottery.sol\":15403:15414  totalrounds */\n      sload(0x69)\n        /* \"contract/lottery.sol\":15403:15418  totalrounds + 1 */\n      add\n        /* \"contract/lottery.sol\":15392:15419  new uint[](totalrounds + 1) */\n      0xffffffffffffffff\n      dup2\n      gt\n      dup1\n      iszero\n      tag_367\n      jumpi\n      0x00\n      dup1\n      revert\n    tag_367:\n      pop\n      mload(0x40)\n      swap1\n      dup1\n      dup3\n      mstore\n      dup1\n      0x20\n      mul\n      0x20\n      add\n      dup3\n      add\n      0x40\n      mstore\n      dup1\n      iszero\n      tag_368\n      jumpi\n      dup2\n      0x20\n      add\n      0x20\n      dup3\n      mul\n      dup1\n      calldatasize\n      dup4\n      calldatacopy\n      dup1\n      dup3\n      add\n      swap2\n      pop\n      pop\n      swap1\n      pop\n    tag_368:\n      pop\n        /* \"contract/lottery.sol\":15351:15419  uint[] memory missedRefferalPostProfit = new uint[](totalrounds + 1) */\n      swap1\n      pop\n        /* \"contract/lottery.sol\":15435:15446  uint8 round */\n      0x00\n        /* \"contract/lottery.sol\":15449:15450  1 */\n      0x01\n        /* \"contract/lottery.sol\":15435:15450  uint8 round = 1 */\n      swap1\n      pop\n        /* \"contract/lottery.sol\":15430:15699  for (uint8 round = 1; round <= totalrounds; round++) {\r... */\n    tag_369:\n        /* \"contract/lottery.sol\":15461:15472  totalrounds */\n      sload(0x69)\n        /* \"contract/lottery.sol\":15452:15457  round */\n      dup2\n        /* \"contract/lottery.sol\":15452:15472  round <= totalrounds */\n      0xff\n      and\n      gt\n        /* \"contract/lottery.sol\":15430:15699  for (uint8 round = 1; round <= totalrounds; round++) {\r... */\n      tag_370\n      jumpi\n        /* \"contract/lottery.sol\":15528:15533  users */\n      0x6b\n        /* \"contract/lottery.sol\":15528:15546  users[userAddress] */\n      0x00\n        /* \"contract/lottery.sol\":15534:15545  userAddress */\n      dup8\n        /* \"contract/lottery.sol\":15528:15546  users[userAddress] */\n      0xffffffffffffffffffffffffffffffffffffffff\n      and\n      0xffffffffffffffffffffffffffffffffffffffff\n      and\n      dup2\n      mstore\n      0x20\n      add\n      swap1\n      dup2\n      mstore\n      0x20\n      add\n      0x00\n      keccak256\n        /* \"contract/lottery.sol\":15528:15553  users[userAddress].rounds */\n      0x07\n      add\n        /* \"contract/lottery.sol\":15528:15560  users[userAddress].rounds[round] */\n      0x00\n        /* \"contract/lottery.sol\":15554:15559  round */\n      dup3\n        /* \"contract/lottery.sol\":15528:15560  users[userAddress].rounds[round] */\n      0xff\n      and\n      0xff\n      and\n      dup2\n      mstore\n      0x20\n      add\n      swap1\n      dup2\n      mstore\n      0x20\n      add\n      0x00\n      keccak256\n        /* \"contract/lottery.sol\":15528:15581  users[userAddress].rounds[round].missedRefferalProfit */\n      0x04\n      add\n      sload\n        /* \"contract/lottery.sol\":15498:15518  missedRefferalProfit */\n      dup4\n        /* \"contract/lottery.sol\":15519:15524  round */\n      dup3\n        /* \"contract/lottery.sol\":15498:15525  missedRefferalProfit[round] */\n      0xff\n      and\n      dup2\n      mload\n      dup2\n      lt\n      tag_372\n      jumpi\n      invalid\n    tag_372:\n      0x20\n      mul\n      0x20\n      add\n      add\n        /* \"contract/lottery.sol\":15498:15581  missedRefferalProfit[round] = users[userAddress].rounds[round].missedRefferalProfit */\n      dup2\n      dup2\n      mstore\n      pop\n      pop\n        /* \"contract/lottery.sol\":15630:15635  users */\n      0x6b\n        /* \"contract/lottery.sol\":15630:15648  users[userAddress] */\n      0x00\n        /* \"contract/lottery.sol\":15636:15647  userAddress */\n      dup8\n        /* \"contract/lottery.sol\":15630:15648  users[userAddress] */\n      0xffffffffffffffffffffffffffffffffffffffff\n      and\n      0xffffffffffffffffffffffffffffffffffffffff\n      and\n      dup2\n      mstore\n      0x20\n      add\n      swap1\n      dup2\n      mstore\n      0x20\n      add\n      0x00\n      keccak256\n        /* \"contract/lottery.sol\":15630:15655  users[userAddress].rounds */\n      0x07\n      add\n        /* \"contract/lottery.sol\":15630:15662  users[userAddress].rounds[round] */\n      0x00\n        /* \"contract/lottery.sol\":15656:15661  round */\n      dup3\n        /* \"contract/lottery.sol\":15630:15662  users[userAddress].rounds[round] */\n      0xff\n      and\n      0xff\n      and\n      dup2\n      mstore\n      0x20\n      add\n      swap1\n      dup2\n      mstore\n      0x20\n      add\n      0x00\n      keccak256\n        /* \"contract/lottery.sol\":15630:15687  users[userAddress].rounds[round].missedRefferalPostProfit */\n      0x05\n      add\n      sload\n        /* \"contract/lottery.sol\":15596:15620  missedRefferalPostProfit */\n      dup3\n        /* \"contract/lottery.sol\":15621:15626  round */\n      dup3\n        /* \"contract/lottery.sol\":15596:15627  missedRefferalPostProfit[round] */\n      0xff\n      and\n      dup2\n      mload\n      dup2\n      lt\n      tag_373\n      jumpi\n      invalid\n    tag_373:\n      0x20\n      mul\n      0x20\n      add\n      add\n        /* \"contract/lottery.sol\":15596:15687  missedRefferalPostProfit[round] = users[userAddress].rounds[round].missedRefferalPostProfit */\n      dup2\n      dup2\n      mstore\n      pop\n      pop\n        /* \"contract/lottery.sol\":15474:15481  round++ */\n      dup1\n      dup1\n      0x01\n      add\n      swap2\n      pop\n      pop\n        /* \"contract/lottery.sol\":15430:15699  for (uint8 round = 1; round <= totalrounds; round++) {\r... */\n      jump(tag_369)\n    tag_370:\n      pop\n        /* \"contract/lottery.sol\":15718:15738  missedRefferalProfit */\n      dup2\n        /* \"contract/lottery.sol\":15740:15764  missedRefferalPostProfit */\n      dup2\n        /* \"contract/lottery.sol\":15709:15765  return ( missedRefferalProfit, missedRefferalPostProfit) */\n      swap4\n      pop\n      swap4\n      pop\n      pop\n      pop\n        /* \"contract/lottery.sol\":15155:15773  function getUserroundsMissedProfit(address userAddress) public view returns ( uint[] memory, uint[] memory) {\r... */\n      swap2\n      pop\n      swap2\n      jump\t// out\n        /* \"contract/lottery.sol\":662:690  uint[16] public timeRoudsEnd */\n    tag_162:\n      0x45\n      dup2\n      0x10\n      dup2\n      lt\n      tag_374\n      jumpi\n      invalid\n    tag_374:\n      add\n      0x00\n      swap2\n      pop\n      swap1\n      pop\n      sload\n      dup2\n      jump\t// out\n        /* \"contract/lottery.sol\":3278:3656  uint[] public roundPrice = [\r... */\n    tag_166:\n      0x68\n      dup2\n      dup2\n      sload\n      dup2\n      lt\n      tag_376\n      jumpi\n      invalid\n    tag_376:\n      swap1\n      0x00\n      mstore\n      keccak256(0x00, 0x20)\n      add\n      0x00\n      swap2\n      pop\n      swap1\n      pop\n      sload\n      dup2\n      jump\t// out\n        /* \"contract/lottery.sol\":630:655  uint[16] public RoiRounds */\n    tag_170:\n      0x35\n      dup2\n      0x10\n      dup2\n      lt\n      tag_378\n      jumpi\n      invalid\n    tag_378:\n      add\n      0x00\n      swap2\n      pop\n      swap1\n      pop\n      sload\n      dup2\n      jump\t// out\n        /* \"contract/lottery.sol\":14610:15145  function getUser(address userAddress) public view returns(uint, uint, uint, address, uint, uint, uint, uint, uint, uint) {\r... */\n    tag_174:\n        /* \"contract/lottery.sol\":14668:14672  uint */\n      0x00\n        /* \"contract/lottery.sol\":14674:14678  uint */\n      dup1\n        /* \"contract/lottery.sol\":14680:14684  uint */\n      0x00\n        /* \"contract/lottery.sol\":14686:14693  address */\n      dup1\n        /* \"contract/lottery.sol\":14695:14699  uint */\n      0x00\n        /* \"contract/lottery.sol\":14701:14705  uint */\n      dup1\n        /* \"contract/lottery.sol\":14707:14711  uint */\n      0x00\n        /* \"contract/lottery.sol\":14713:14717  uint */\n      dup1\n        /* \"contract/lottery.sol\":14719:14723  uint */\n      0x00\n        /* \"contract/lottery.sol\":14725:14729  uint */\n      dup1\n        /* \"contract/lottery.sol\":14742:14758  User memory user */\n      tag_381\n      tag_382\n      jump\t// in\n    tag_381:\n        /* \"contract/lottery.sol\":14761:14766  users */\n      0x6b\n        /* \"contract/lottery.sol\":14761:14779  users[userAddress] */\n      0x00\n        /* \"contract/lottery.sol\":14767:14778  userAddress */\n      dup14\n        /* \"contract/lottery.sol\":14761:14779  users[userAddress] */\n      0xffffffffffffffffffffffffffffffffffffffff\n      and\n      0xffffffffffffffffffffffffffffffffffffffff\n      and\n      dup2\n      mstore\n      0x20\n      add\n      swap1\n      dup2\n      mstore\n      0x20\n      add\n      0x00\n      keccak256\n        /* \"contract/lottery.sol\":14742:14779  User memory user = users[userAddress] */\n      mload(0x40)\n      dup1\n      0x0120\n      add\n      0x40\n      mstore\n      swap1\n      dup2\n      0x00\n      dup3\n      add\n      sload\n      dup2\n      mstore\n      0x20\n      add\n      0x01\n      dup3\n      add\n      sload\n      dup2\n      mstore\n      0x20\n      add\n      0x02\n      dup3\n      add\n      0x00\n      swap1\n      sload\n      swap1\n      0x0100\n      exp\n      swap1\n      div\n      0xffffffffffffffffffffffffffffffffffffffff\n      and\n      0xffffffffffffffffffffffffffffffffffffffff\n      and\n      0xffffffffffffffffffffffffffffffffffffffff\n      and\n      dup2\n      mstore\n      0x20\n      add\n      0x03\n      dup3\n      add\n      sload\n      dup2\n      mstore\n      0x20\n      add\n      0x04\n      dup3\n      add\n      sload\n      dup2\n      mstore\n      0x20\n      add\n      0x05\n      dup3\n      add\n      sload\n      dup2\n      mstore\n      0x20\n      add\n      0x06\n      dup3\n      add\n      sload\n      dup2\n      mstore\n      0x20\n      add\n      0x08\n      dup3\n      add\n      0x00\n      swap1\n      sload\n      swap1\n      0x0100\n      exp\n      swap1\n      div\n      0xff\n      and\n      0xff\n      and\n      0xff\n      and\n      dup2\n      mstore\n      0x20\n      add\n      0x09\n      dup3\n      add\n      sload\n      dup2\n      mstore\n      pop\n      pop\n      swap1\n      pop\n        /* \"contract/lottery.sol\":14812:14816  user */\n      dup1\n        /* \"contract/lottery.sol\":14812:14819  user.id */\n      0x00\n      add\n      mload\n        /* \"contract/lottery.sol\":14834:14838  user */\n      dup2\n        /* \"contract/lottery.sol\":14834:14860  user.registrationTimestamp */\n      0x20\n      add\n      mload\n        /* \"contract/lottery.sol\":14875:14880  users */\n      0x6b\n        /* \"contract/lottery.sol\":14875:14895  users[user.referrer] */\n      0x00\n        /* \"contract/lottery.sol\":14881:14885  user */\n      dup5\n        /* \"contract/lottery.sol\":14881:14894  user.referrer */\n      0x40\n      add\n      mload\n        /* \"contract/lottery.sol\":14875:14895  users[user.referrer] */\n      0xffffffffffffffffffffffffffffffffffffffff\n      and\n      0xffffffffffffffffffffffffffffffffffffffff\n      and\n      dup2\n      mstore\n      0x20\n      add\n      swap1\n      dup2\n      mstore\n      0x20\n      add\n      0x00\n      keccak256\n        /* \"contract/lottery.sol\":14875:14898  users[user.referrer].id */\n      0x00\n      add\n      sload\n        /* \"contract/lottery.sol\":14913:14917  user */\n      dup4\n        /* \"contract/lottery.sol\":14913:14926  user.referrer */\n      0x40\n      add\n      mload\n        /* \"contract/lottery.sol\":14941:14945  user */\n      dup5\n        /* \"contract/lottery.sol\":14941:14955  user.referrals */\n      0x60\n      add\n      mload\n        /* \"contract/lottery.sol\":14970:14974  user */\n      dup6\n        /* \"contract/lottery.sol\":14970:14992  user.referralPayoutSum */\n      0x80\n      add\n      mload\n        /* \"contract/lottery.sol\":15007:15011  user */\n      dup7\n        /* \"contract/lottery.sol\":15007:15027  user.roundsRewardSum */\n      0xa0\n      add\n      mload\n        /* \"contract/lottery.sol\":15042:15046  user */\n      dup8\n        /* \"contract/lottery.sol\":15042:15070  user.missedReferralPayoutSum */\n      0xc0\n      add\n      mload\n        /* \"contract/lottery.sol\":15085:15089  user */\n      dup9\n        /* \"contract/lottery.sol\":15085:15098  user.maxRound */\n      0xe0\n      add\n      mload\n        /* \"contract/lottery.sol\":15113:15117  user */\n      dup10\n        /* \"contract/lottery.sol\":15113:15126  user.turnover */\n      0x0100\n      add\n      mload\n        /* \"contract/lottery.sol\":14790:15137  return (\r... */\n      dup2\n      0xff\n      and\n      swap2\n      pop\n      swap11\n      pop\n      swap11\n      pop\n      swap11\n      pop\n      swap11\n      pop\n      swap11\n      pop\n      swap11\n      pop\n      swap11\n      pop\n      swap11\n      pop\n      swap11\n      pop\n      swap11\n      pop\n      pop\n        /* \"contract/lottery.sol\":14610:15145  function getUser(address userAddress) public view returns(uint, uint, uint, address, uint, uint, uint, uint, uint, uint) {\r... */\n      swap2\n      swap4\n      swap6\n      swap8\n      swap10\n      pop\n      swap2\n      swap4\n      swap6\n      swap8\n      swap10\n      jump\t// out\n        /* \"contract/lottery.sol\":17628:17732  function getContractBalance() public view returns (uint) {\r... */\n    tag_177:\n        /* \"contract/lottery.sol\":17679:17683  uint */\n      0x00\n        /* \"contract/lottery.sol\":17703:17724  address(this).balance */\n      selfbalance\n        /* \"contract/lottery.sol\":17696:17724  return address(this).balance */\n      swap1\n      pop\n        /* \"contract/lottery.sol\":17628:17732  function getContractBalance() public view returns (uint) {\r... */\n      swap1\n      jump\t// out\n        /* \"contract/lottery.sol\":600:623  uint public timeLottery */\n    tag_180:\n      sload(0x34)\n      dup2\n      jump\t// out\n        /* \"contract/lottery.sol\":10918:10953  function income() public payable {} */\n    tag_182:\n      jump\t// out\n        /* \"contract/lottery.sol\":17856:17977  function getUserAddressById(uint userId) public view returns (address) {\r... */\n    tag_186:\n        /* \"contract/lottery.sol\":17918:17925  address */\n      0x00\n        /* \"contract/lottery.sol\":17945:17961  usersAddressById */\n      0x6c\n        /* \"contract/lottery.sol\":17945:17969  usersAddressById[userId] */\n      0x00\n        /* \"contract/lottery.sol\":17962:17968  userId */\n      dup4\n        /* \"contract/lottery.sol\":17945:17969  usersAddressById[userId] */\n      dup2\n      mstore\n      0x20\n      add\n      swap1\n      dup2\n      mstore\n      0x20\n      add\n      0x00\n      keccak256\n      0x00\n      swap1\n      sload\n      swap1\n      0x0100\n      exp\n      swap1\n      div\n      0xffffffffffffffffffffffffffffffffffffffff\n      and\n        /* \"contract/lottery.sol\":17938:17969  return usersAddressById[userId] */\n      swap1\n      pop\n        /* \"contract/lottery.sol\":17856:17977  function getUserAddressById(uint userId) public view returns (address) {\r... */\n      swap2\n      swap1\n      pop\n      jump\t// out\n        /* \"contract/lottery.sol\":17318:17421  function getLotteryWiner() public view returns(address[50] memory) {\r... */\n    tag_189:\n        /* \"contract/lottery.sol\":17365:17383  address[50] memory */\n      tag_386\n      tag_387\n      jump\t// in\n    tag_386:\n        /* \"contract/lottery.sol\":17403:17413  todayWiner */\n      0x01\n        /* \"contract/lottery.sol\":17396:17413  return todayWiner */\n      0x32\n      dup1\n      0x20\n      mul\n      mload(0x40)\n      swap1\n      dup2\n      add\n      0x40\n      mstore\n      dup1\n      swap3\n      swap2\n      swap1\n      dup3\n      0x32\n      dup1\n      iszero\n      tag_389\n      jumpi\n      0x20\n      mul\n      dup3\n      add\n      swap2\n    tag_390:\n      dup2\n      0x00\n      swap1\n      sload\n      swap1\n      0x0100\n      exp\n      swap1\n      div\n      0xffffffffffffffffffffffffffffffffffffffff\n      and\n      0xffffffffffffffffffffffffffffffffffffffff\n      and\n      dup2\n      mstore\n      0x20\n      add\n      swap1\n      0x01\n      add\n      swap1\n      dup1\n      dup4\n      gt\n      tag_390\n      jumpi\n    tag_389:\n      pop\n      pop\n      pop\n      pop\n      pop\n      swap1\n      pop\n        /* \"contract/lottery.sol\":17318:17421  function getLotteryWiner() public view returns(address[50] memory) {\r... */\n      swap1\n      jump\t// out\n        /* \"contract/lottery.sol\":3204:3232  address payable public owner */\n    tag_195:\n      0x66\n      0x02\n      swap1\n      sload\n      swap1\n      0x0100\n      exp\n      swap1\n      div\n      0xffffffffffffffffffffffffffffffffffffffff\n      and\n      dup2\n      jump\t// out\n        /* \"contract/lottery.sol\":10959:12216  function Lottery(uint ticket) public {\r... */\n    tag_199:\n        /* \"contract/lottery.sol\":11029:11034  owner */\n      0x66\n      0x02\n      swap1\n      sload\n      swap1\n      0x0100\n      exp\n      swap1\n      div\n      0xffffffffffffffffffffffffffffffffffffffff\n      and\n        /* \"contract/lottery.sol\":11015:11034  msg.sender == owner */\n      0xffffffffffffffffffffffffffffffffffffffff\n      and\n        /* \"contract/lottery.sol\":11015:11025  msg.sender */\n      caller\n        /* \"contract/lottery.sol\":11015:11034  msg.sender == owner */\n      0xffffffffffffffffffffffffffffffffffffffff\n      and\n      eq\n        /* \"contract/lottery.sol\":11007:11060  require(msg.sender == owner, \"you are not an owner!\") */\n      tag_392\n      jumpi\n      mload(0x40)\n      0x08c379a000000000000000000000000000000000000000000000000000000000\n      dup2\n      mstore\n      0x04\n      add\n      dup1\n      dup1\n      0x20\n      add\n      dup3\n      dup2\n      sub\n      dup3\n      mstore\n      0x15\n      dup2\n      mstore\n      0x20\n      add\n      dup1\n      0x796f7520617265206e6f7420616e206f776e6572210000000000000000000000\n      dup2\n      mstore\n      pop\n      0x20\n      add\n      swap2\n      pop\n      pop\n      mload(0x40)\n      dup1\n      swap2\n      sub\n      swap1\n      revert\n    tag_392:\n        /* \"contract/lottery.sol\":11075:11082  uint8 i */\n      0x00\n        /* \"contract/lottery.sol\":11071:11155  for(uint8 i = 0; i <= 49; i++) {\r... */\n    tag_393:\n        /* \"contract/lottery.sol\":11093:11095  49 */\n      0x31\n        /* \"contract/lottery.sol\":11088:11089  i */\n      dup2\n        /* \"contract/lottery.sol\":11088:11095  i <= 49 */\n      0xff\n      and\n      gt\n        /* \"contract/lottery.sol\":11071:11155  for(uint8 i = 0; i <= 49; i++) {\r... */\n      tag_394\n      jumpi\n        /* \"contract/lottery.sol\":11141:11142  0 */\n      0x00\n        /* \"contract/lottery.sol\":11117:11127  todayWiner */\n      0x01\n        /* \"contract/lottery.sol\":11128:11129  i */\n      dup3\n        /* \"contract/lottery.sol\":11117:11130  todayWiner[i] */\n      0xff\n      and\n      0x32\n      dup2\n      lt\n      tag_396\n      jumpi\n      invalid\n    tag_396:\n      add\n      0x00\n        /* \"contract/lottery.sol\":11117:11143  todayWiner[i] = address(0) */\n      0x0100\n      exp\n      dup2\n      sload\n      dup2\n      0xffffffffffffffffffffffffffffffffffffffff\n      mul\n      not\n      and\n      swap1\n      dup4\n      0xffffffffffffffffffffffffffffffffffffffff\n      and\n      mul\n      or\n      swap1\n      sstore\n      pop\n        /* \"contract/lottery.sol\":11097:11100  i++ */\n      dup1\n      dup1\n      0x01\n      add\n      swap2\n      pop\n      pop\n        /* \"contract/lottery.sol\":11071:11155  for(uint8 i = 0; i <= 49; i++) {\r... */\n      jump(tag_393)\n    tag_394:\n      pop\n        /* \"contract/lottery.sol\":11165:11188  uint totalLotteryPlayer */\n      0x00\n        /* \"contract/lottery.sol\":11204:11215  uint8 round */\n      dup1\n        /* \"contract/lottery.sol\":11218:11219  1 */\n      0x01\n        /* \"contract/lottery.sol\":11204:11219  uint8 round = 1 */\n      swap1\n      pop\n        /* \"contract/lottery.sol\":11200:11510  for(uint8 round = 1; round <= totalrounds; round++) {\r... */\n    tag_398:\n        /* \"contract/lottery.sol\":11230:11241  totalrounds */\n      sload(0x69)\n        /* \"contract/lottery.sol\":11221:11226  round */\n      dup2\n        /* \"contract/lottery.sol\":11221:11241  round <= totalrounds */\n      0xff\n      and\n      gt\n        /* \"contract/lottery.sol\":11200:11510  for(uint8 round = 1; round <= totalrounds; round++) {\r... */\n      tag_399\n      jumpi\n        /* \"contract/lottery.sol\":11271:11277  uint i */\n      0x00\n        /* \"contract/lottery.sol\":11280:11289  headIndex */\n      0x6e\n        /* \"contract/lottery.sol\":11280:11296  headIndex[round] */\n      0x00\n        /* \"contract/lottery.sol\":11290:11295  round */\n      dup4\n        /* \"contract/lottery.sol\":11280:11296  headIndex[round] */\n      0xff\n      and\n      0xff\n      and\n      dup2\n      mstore\n      0x20\n      add\n      swap1\n      dup2\n      mstore\n      0x20\n      add\n      0x00\n      keccak256\n      sload\n        /* \"contract/lottery.sol\":11271:11296  uint i = headIndex[round] */\n      swap1\n      pop\n        /* \"contract/lottery.sol\":11267:11487  for(uint i = headIndex[round]; i < roundQueue[round].length; i++) {\r... */\n    tag_401:\n        /* \"contract/lottery.sol\":11302:11312  roundQueue */\n      0x6d\n        /* \"contract/lottery.sol\":11302:11319  roundQueue[round] */\n      0x00\n        /* \"contract/lottery.sol\":11313:11318  round */\n      dup4\n        /* \"contract/lottery.sol\":11302:11319  roundQueue[round] */\n      0xff\n      and\n      0xff\n      and\n      dup2\n      mstore\n      0x20\n      add\n      swap1\n      dup2\n      mstore\n      0x20\n      add\n      0x00\n      keccak256\n        /* \"contract/lottery.sol\":11302:11326  roundQueue[round].length */\n      dup1\n      sload\n      swap1\n      pop\n        /* \"contract/lottery.sol\":11298:11299  i */\n      dup2\n        /* \"contract/lottery.sol\":11298:11326  i < roundQueue[round].length */\n      lt\n        /* \"contract/lottery.sol\":11267:11487  for(uint i = headIndex[round]; i < roundQueue[round].length; i++) {\r... */\n      iszero\n      tag_402\n      jumpi\n        /* \"contract/lottery.sol\":11404:11407  now */\n      timestamp\n        /* \"contract/lottery.sol\":11396:11401  86400 */\n      0x015180\n        /* \"contract/lottery.sol\":11355:11373  lastTimeActivation */\n      0x65\n        /* \"contract/lottery.sol\":11355:11395  lastTimeActivation[roundQueue[round][i]] */\n      0x00\n        /* \"contract/lottery.sol\":11374:11384  roundQueue */\n      0x6d\n        /* \"contract/lottery.sol\":11374:11391  roundQueue[round] */\n      0x00\n        /* \"contract/lottery.sol\":11385:11390  round */\n      dup8\n        /* \"contract/lottery.sol\":11374:11391  roundQueue[round] */\n      0xff\n      and\n      0xff\n      and\n      dup2\n      mstore\n      0x20\n      add\n      swap1\n      dup2\n      mstore\n      0x20\n      add\n      0x00\n      keccak256\n        /* \"contract/lottery.sol\":11392:11393  i */\n      dup6\n        /* \"contract/lottery.sol\":11374:11394  roundQueue[round][i] */\n      dup2\n      sload\n      dup2\n      lt\n      tag_404\n      jumpi\n      invalid\n    tag_404:\n      swap1\n      0x00\n      mstore\n      keccak256(0x00, 0x20)\n      add\n      0x00\n      swap1\n      sload\n      swap1\n      0x0100\n      exp\n      swap1\n      div\n      0xffffffffffffffffffffffffffffffffffffffff\n      and\n        /* \"contract/lottery.sol\":11355:11395  lastTimeActivation[roundQueue[round][i]] */\n      0xffffffffffffffffffffffffffffffffffffffff\n      and\n      0xffffffffffffffffffffffffffffffffffffffff\n      and\n      dup2\n      mstore\n      0x20\n      add\n      swap1\n      dup2\n      mstore\n      0x20\n      add\n      0x00\n      keccak256\n      sload\n        /* \"contract/lottery.sol\":11355:11401  lastTimeActivation[roundQueue[round][i]]+86400 */\n      add\n        /* \"contract/lottery.sol\":11355:11407  lastTimeActivation[roundQueue[round][i]]+86400 > now */\n      gt\n        /* \"contract/lottery.sol\":11352:11472  if(lastTimeActivation[roundQueue[round][i]]+86400 > now) {\r... */\n      iszero\n      tag_406\n      jumpi\n        /* \"contract/lottery.sol\":11432:11452  totalLotteryPlayer++ */\n      dup3\n      dup1\n      0x01\n      add\n      swap4\n      pop\n      pop\n        /* \"contract/lottery.sol\":11352:11472  if(lastTimeActivation[roundQueue[round][i]]+86400 > now) {\r... */\n    tag_406:\n        /* \"contract/lottery.sol\":11328:11331  i++ */\n      dup1\n      dup1\n      0x01\n      add\n      swap2\n      pop\n      pop\n        /* \"contract/lottery.sol\":11267:11487  for(uint i = headIndex[round]; i < roundQueue[round].length; i++) {\r... */\n      jump(tag_401)\n    tag_402:\n      pop\n        /* \"contract/lottery.sol\":11243:11250  round++ */\n      dup1\n      dup1\n      0x01\n      add\n      swap2\n      pop\n      pop\n        /* \"contract/lottery.sol\":11200:11510  for(uint8 round = 1; round <= totalrounds; round++) {\r... */\n      jump(tag_398)\n    tag_399:\n      pop\n        /* \"contract/lottery.sol\":11566:11572  ticket */\n      dup2\n        /* \"contract/lottery.sol\":11562:11563  2 */\n      0x02\n        /* \"contract/lottery.sol\":11539:11560  address(this).balance */\n      selfbalance\n        /* \"contract/lottery.sol\":11539:11563  address(this).balance /2 */\n      dup2\n      tag_407\n      jumpi\n      invalid\n    tag_407:\n      div\n        /* \"contract/lottery.sol\":11539:11572  address(this).balance /2 / ticket */\n      dup2\n      tag_408\n      jumpi\n      invalid\n    tag_408:\n      div\n        /* \"contract/lottery.sol\":11520:11535  todayWinerValue */\n      0x33\n        /* \"contract/lottery.sol\":11520:11572  todayWinerValue =  address(this).balance /2 / ticket */\n      dup2\n      swap1\n      sstore\n      pop\n        /* \"contract/lottery.sol\":11597:11600  now */\n      timestamp\n        /* \"contract/lottery.sol\":11583:11594  timeLottery */\n      0x34\n        /* \"contract/lottery.sol\":11583:11600  timeLottery = now */\n      dup2\n      swap1\n      sstore\n      pop\n        /* \"contract/lottery.sol\":11611:11620  uint rand */\n      0x00\n        /* \"contract/lottery.sol\":11642:11648  ticket */\n      dup3\n        /* \"contract/lottery.sol\":11623:11641  totalLotteryPlayer */\n      dup3\n        /* \"contract/lottery.sol\":11623:11648  totalLotteryPlayer/ticket */\n      dup2\n      tag_409\n      jumpi\n      invalid\n    tag_409:\n      div\n        /* \"contract/lottery.sol\":11611:11648  uint rand = totalLotteryPlayer/ticket */\n      swap1\n      pop\n        /* \"contract/lottery.sol\":11659:11672  uint caunting */\n      0x00\n        /* \"contract/lottery.sol\":11683:11697  uint8 luckyNum */\n      dup1\n        /* \"contract/lottery.sol\":11712:11723  uint8 round */\n      0x00\n        /* \"contract/lottery.sol\":11726:11727  1 */\n      0x01\n        /* \"contract/lottery.sol\":11712:11727  uint8 round = 1 */\n      swap1\n      pop\n        /* \"contract/lottery.sol\":11708:12209  for(uint8 round = 1; round <= totalrounds; round++) {        \r... */\n    tag_410:\n        /* \"contract/lottery.sol\":11738:11749  totalrounds */\n      sload(0x69)\n        /* \"contract/lottery.sol\":11729:11734  round */\n      dup2\n        /* \"contract/lottery.sol\":11729:11749  round <= totalrounds */\n      0xff\n      and\n      gt\n        /* \"contract/lottery.sol\":11708:12209  for(uint8 round = 1; round <= totalrounds; round++) {        \r... */\n      tag_411\n      jumpi\n        /* \"contract/lottery.sol\":11787:11793  uint i */\n      0x00\n        /* \"contract/lottery.sol\":11796:11805  headIndex */\n      0x6e\n        /* \"contract/lottery.sol\":11796:11812  headIndex[round] */\n      0x00\n        /* \"contract/lottery.sol\":11806:11811  round */\n      dup4\n        /* \"contract/lottery.sol\":11796:11812  headIndex[round] */\n      0xff\n      and\n      0xff\n      and\n      dup2\n      mstore\n      0x20\n      add\n      swap1\n      dup2\n      mstore\n      0x20\n      add\n      0x00\n      keccak256\n      sload\n        /* \"contract/lottery.sol\":11787:11812  uint i = headIndex[round] */\n      swap1\n      pop\n        /* \"contract/lottery.sol\":11783:12198  for(uint i = headIndex[round]; i < roundQueue[round].length; i++) {\r... */\n    tag_413:\n        /* \"contract/lottery.sol\":11818:11828  roundQueue */\n      0x6d\n        /* \"contract/lottery.sol\":11818:11835  roundQueue[round] */\n      0x00\n        /* \"contract/lottery.sol\":11829:11834  round */\n      dup4\n        /* \"contract/lottery.sol\":11818:11835  roundQueue[round] */\n      0xff\n      and\n      0xff\n      and\n      dup2\n      mstore\n      0x20\n      add\n      swap1\n      dup2\n      mstore\n      0x20\n      add\n      0x00\n      keccak256\n        /* \"contract/lottery.sol\":11818:11842  roundQueue[round].length */\n      dup1\n      sload\n      swap1\n      pop\n        /* \"contract/lottery.sol\":11814:11815  i */\n      dup2\n        /* \"contract/lottery.sol\":11814:11842  i < roundQueue[round].length */\n      lt\n        /* \"contract/lottery.sol\":11783:12198  for(uint i = headIndex[round]; i < roundQueue[round].length; i++) {\r... */\n      iszero\n      tag_414\n      jumpi\n        /* \"contract/lottery.sol\":11868:11878  caunting++ */\n      dup4\n      dup1\n      0x01\n      add\n      swap5\n      pop\n      pop\n        /* \"contract/lottery.sol\":11920:11921  0 */\n      0x00\n        /* \"contract/lottery.sol\":11912:11916  rand */\n      dup6\n        /* \"contract/lottery.sol\":11901:11909  caunting */\n      dup6\n        /* \"contract/lottery.sol\":11901:11916  caunting % rand */\n      dup2\n      tag_416\n      jumpi\n      invalid\n    tag_416:\n      mod\n        /* \"contract/lottery.sol\":11901:11921  caunting % rand == 0 */\n      eq\n        /* \"contract/lottery.sol\":11901:11977  caunting % rand == 0 && lastTimeActivation[roundQueue[round][i]]+86400 > now */\n      dup1\n      iszero\n      tag_417\n      jumpi\n      pop\n        /* \"contract/lottery.sol\":11974:11977  now */\n      timestamp\n        /* \"contract/lottery.sol\":11966:11971  86400 */\n      0x015180\n        /* \"contract/lottery.sol\":11925:11943  lastTimeActivation */\n      0x65\n        /* \"contract/lottery.sol\":11925:11965  lastTimeActivation[roundQueue[round][i]] */\n      0x00\n        /* \"contract/lottery.sol\":11944:11954  roundQueue */\n      0x6d\n        /* \"contract/lottery.sol\":11944:11961  roundQueue[round] */\n      0x00\n        /* \"contract/lottery.sol\":11955:11960  round */\n      dup8\n        /* \"contract/lottery.sol\":11944:11961  roundQueue[round] */\n      0xff\n      and\n      0xff\n      and\n      dup2\n      mstore\n      0x20\n      add\n      swap1\n      dup2\n      mstore\n      0x20\n      add\n      0x00\n      keccak256\n        /* \"contract/lottery.sol\":11962:11963  i */\n      dup6\n        /* \"contract/lottery.sol\":11944:11964  roundQueue[round][i] */\n      dup2\n      sload\n      dup2\n      lt\n      tag_418\n      jumpi\n      invalid\n    tag_418:\n      swap1\n      0x00\n      mstore\n      keccak256(0x00, 0x20)\n      add\n      0x00\n      swap1\n      sload\n      swap1\n      0x0100\n      exp\n      swap1\n      div\n      0xffffffffffffffffffffffffffffffffffffffff\n      and\n        /* \"contract/lottery.sol\":11925:11965  lastTimeActivation[roundQueue[round][i]] */\n      0xffffffffffffffffffffffffffffffffffffffff\n      and\n      0xffffffffffffffffffffffffffffffffffffffff\n      and\n      dup2\n      mstore\n      0x20\n      add\n      swap1\n      dup2\n      mstore\n      0x20\n      add\n      0x00\n      keccak256\n      sload\n        /* \"contract/lottery.sol\":11925:11971  lastTimeActivation[roundQueue[round][i]]+86400 */\n      add\n        /* \"contract/lottery.sol\":11925:11977  lastTimeActivation[roundQueue[round][i]]+86400 > now */\n      gt\n        /* \"contract/lottery.sol\":11901:11977  caunting % rand == 0 && lastTimeActivation[roundQueue[round][i]]+86400 > now */\n    tag_417:\n        /* \"contract/lottery.sol\":11898:12183  if(caunting % rand == 0 && lastTimeActivation[roundQueue[round][i]]+86400 > now) {\r... */\n      iszero\n      tag_420\n      jumpi\n        /* \"contract/lottery.sol\":12025:12035  roundQueue */\n      0x6d\n        /* \"contract/lottery.sol\":12025:12042  roundQueue[round] */\n      0x00\n        /* \"contract/lottery.sol\":12036:12041  round */\n      dup4\n        /* \"contract/lottery.sol\":12025:12042  roundQueue[round] */\n      0xff\n      and\n      0xff\n      and\n      dup2\n      mstore\n      0x20\n      add\n      swap1\n      dup2\n      mstore\n      0x20\n      add\n      0x00\n      keccak256\n        /* \"contract/lottery.sol\":12043:12044  i */\n      dup2\n        /* \"contract/lottery.sol\":12025:12045  roundQueue[round][i] */\n      dup2\n      sload\n      dup2\n      lt\n      tag_421\n      jumpi\n      invalid\n    tag_421:\n      swap1\n      0x00\n      mstore\n      keccak256(0x00, 0x20)\n      add\n      0x00\n      swap1\n      sload\n      swap1\n      0x0100\n      exp\n      swap1\n      div\n      0xffffffffffffffffffffffffffffffffffffffff\n      and\n        /* \"contract/lottery.sol\":12002:12012  todayWiner */\n      0x01\n        /* \"contract/lottery.sol\":12013:12021  luckyNum */\n      dup5\n        /* \"contract/lottery.sol\":12002:12022  todayWiner[luckyNum] */\n      0xff\n      and\n      0x32\n      dup2\n      lt\n      tag_423\n      jumpi\n      invalid\n    tag_423:\n      add\n      0x00\n        /* \"contract/lottery.sol\":12002:12045  todayWiner[luckyNum] = roundQueue[round][i] */\n      0x0100\n      exp\n      dup2\n      sload\n      dup2\n      0xffffffffffffffffffffffffffffffffffffffff\n      mul\n      not\n      and\n      swap1\n      dup4\n      0xffffffffffffffffffffffffffffffffffffffff\n      and\n      mul\n      or\n      swap1\n      sstore\n      pop\n        /* \"contract/lottery.sol\":12069:12079  luckyNum++ */\n      dup3\n      dup1\n      0x01\n      add\n      swap4\n      pop\n      pop\n        /* \"contract/lottery.sol\":12124:12134  roundQueue */\n      0x6d\n        /* \"contract/lottery.sol\":12124:12141  roundQueue[round] */\n      0x00\n        /* \"contract/lottery.sol\":12135:12140  round */\n      dup4\n        /* \"contract/lottery.sol\":12124:12141  roundQueue[round] */\n      0xff\n      and\n      0xff\n      and\n      dup2\n      mstore\n      0x20\n      add\n      swap1\n      dup2\n      mstore\n      0x20\n      add\n      0x00\n      keccak256\n        /* \"contract/lottery.sol\":12142:12143  i */\n      dup2\n        /* \"contract/lottery.sol\":12124:12144  roundQueue[round][i] */\n      dup2\n      sload\n      dup2\n      lt\n      tag_425\n      jumpi\n      invalid\n    tag_425:\n      swap1\n      0x00\n      mstore\n      keccak256(0x00, 0x20)\n      add\n      0x00\n      swap1\n      sload\n      swap1\n      0x0100\n      exp\n      swap1\n      div\n      0xffffffffffffffffffffffffffffffffffffffff\n      and\n        /* \"contract/lottery.sol\":12108:12162  winLottery(now, roundQueue[round][i], todayWinerValue) */\n      0xffffffffffffffffffffffffffffffffffffffff\n      and\n      0xedac0922924cc83017073b98842693d865d06a82c38175d4a1cb0811ef86193f\n        /* \"contract/lottery.sol\":12119:12122  now */\n      timestamp\n        /* \"contract/lottery.sol\":12146:12161  todayWinerValue */\n      sload(0x33)\n        /* \"contract/lottery.sol\":12108:12162  winLottery(now, roundQueue[round][i], todayWinerValue) */\n      mload(0x40)\n      dup1\n      dup4\n      dup2\n      mstore\n      0x20\n      add\n      dup3\n      dup2\n      mstore\n      0x20\n      add\n      swap3\n      pop\n      pop\n      pop\n      mload(0x40)\n      dup1\n      swap2\n      sub\n      swap1\n      log2\n        /* \"contract/lottery.sol\":11898:12183  if(caunting % rand == 0 && lastTimeActivation[roundQueue[round][i]]+86400 > now) {\r... */\n    tag_420:\n        /* \"contract/lottery.sol\":11844:11847  i++ */\n      dup1\n      dup1\n      0x01\n      add\n      swap2\n      pop\n      pop\n        /* \"contract/lottery.sol\":11783:12198  for(uint i = headIndex[round]; i < roundQueue[round].length; i++) {\r... */\n      jump(tag_413)\n    tag_414:\n      pop\n        /* \"contract/lottery.sol\":11751:11758  round++ */\n      dup1\n      dup1\n      0x01\n      add\n      swap2\n      pop\n      pop\n        /* \"contract/lottery.sol\":11708:12209  for(uint8 round = 1; round <= totalrounds; round++) {        \r... */\n      jump(tag_410)\n    tag_411:\n      pop\n        /* \"contract/lottery.sol\":10959:12216  function Lottery(uint ticket) public {\r... */\n      pop\n      pop\n      pop\n      pop\n      pop\n      jump\t// out\n        /* \"contract/lottery.sol\":5640:6708  function registerWithReferrer(address referrer) public payable {\r... */\n    tag_202:\n        /* \"contract/lottery.sol\":5722:5748  isUserRegistered(referrer) */\n      tag_428\n        /* \"contract/lottery.sol\":5739:5747  referrer */\n      dup2\n        /* \"contract/lottery.sol\":5722:5738  isUserRegistered */\n      tag_61\n        /* \"contract/lottery.sol\":5722:5748  isUserRegistered(referrer) */\n      jump\t// in\n    tag_428:\n        /* \"contract/lottery.sol\":5714:5779  require(isUserRegistered(referrer), \"Referrer is not registered\") */\n      tag_429\n      jumpi\n      mload(0x40)\n      0x08c379a000000000000000000000000000000000000000000000000000000000\n      dup2\n      mstore\n      0x04\n      add\n      dup1\n      dup1\n      0x20\n      add\n      dup3\n      dup2\n      sub\n      dup3\n      mstore\n      0x1a\n      dup2\n      mstore\n      0x20\n      add\n      dup1\n      0x5265666572726572206973206e6f742072656769737465726564000000000000\n      dup2\n      mstore\n      pop\n      0x20\n      add\n      swap2\n      pop\n      pop\n      mload(0x40)\n      dup1\n      swap2\n      sub\n      swap1\n      revert\n    tag_429:\n        /* \"contract/lottery.sol\":5799:5827  isUserRegistered(msg.sender) */\n      tag_430\n        /* \"contract/lottery.sol\":5816:5826  msg.sender */\n      caller\n        /* \"contract/lottery.sol\":5799:5815  isUserRegistered */\n      tag_61\n        /* \"contract/lottery.sol\":5799:5827  isUserRegistered(msg.sender) */\n      jump\t// in\n    tag_430:\n        /* \"contract/lottery.sol\":5798:5827  !isUserRegistered(msg.sender) */\n      iszero\n        /* \"contract/lottery.sol\":5790:5855  require(!isUserRegistered(msg.sender), \"User already registered\") */\n      tag_431\n      jumpi\n      mload(0x40)\n      0x08c379a000000000000000000000000000000000000000000000000000000000\n      dup2\n      mstore\n      0x04\n      add\n      dup1\n      dup1\n      0x20\n      add\n      dup3\n      dup2\n      sub\n      dup3\n      mstore\n      0x17\n      dup2\n      mstore\n      0x20\n      add\n      dup1\n      0x5573657220616c72656164792072656769737465726564000000000000000000\n      dup2\n      mstore\n      pop\n      0x20\n      add\n      swap2\n      pop\n      pop\n      mload(0x40)\n      dup1\n      swap2\n      sub\n      swap1\n      revert\n    tag_431:\n        /* \"contract/lottery.sol\":5875:5897  isContract(msg.sender) */\n      tag_432\n        /* \"contract/lottery.sol\":5886:5896  msg.sender */\n      caller\n        /* \"contract/lottery.sol\":5875:5885  isContract */\n      tag_76\n        /* \"contract/lottery.sol\":5875:5897  isContract(msg.sender) */\n      jump\t// in\n    tag_432:\n        /* \"contract/lottery.sol\":5874:5897  !isContract(msg.sender) */\n      iszero\n        /* \"contract/lottery.sol\":5866:5923  require(!isContract(msg.sender), \"Can not be a contract\") */\n      tag_433\n      jumpi\n      mload(0x40)\n      0x08c379a000000000000000000000000000000000000000000000000000000000\n      dup2\n      mstore\n      0x04\n      add\n      dup1\n      dup1\n      0x20\n      add\n      dup3\n      dup2\n      sub\n      dup3\n      mstore\n      0x15\n      dup2\n      mstore\n      0x20\n      add\n      dup1\n      0x43616e206e6f74206265206120636f6e74726163740000000000000000000000\n      dup2\n      mstore\n      pop\n      0x20\n      add\n      swap2\n      pop\n      pop\n      mload(0x40)\n      dup1\n      swap2\n      sub\n      swap1\n      revert\n    tag_433:\n        /* \"contract/lottery.sol\":5934:5950  User memory user */\n      tag_434\n      tag_382\n      jump\t// in\n    tag_434:\n        /* \"contract/lottery.sol\":5953:6271  User({\r... */\n      mload(0x40)\n      dup1\n      0x0120\n      add\n      0x40\n      mstore\n      dup1\n        /* \"contract/lottery.sol\":5978:5987  newUserId */\n      0x6a\n      0x00\n        /* \"contract/lottery.sol\":5978:5989  newUserId++ */\n      dup2\n      sload\n      dup1\n      swap3\n      swap2\n      swap1\n      0x01\n      add\n      swap2\n      swap1\n      pop\n      sstore\n        /* \"contract/lottery.sol\":5953:6271  User({\r... */\n      dup2\n      mstore\n      0x20\n      add\n        /* \"contract/lottery.sol\":6027:6030  now */\n      timestamp\n        /* \"contract/lottery.sol\":5953:6271  User({\r... */\n      dup2\n      mstore\n      0x20\n      add\n        /* \"contract/lottery.sol\":6056:6064  referrer */\n      dup4\n        /* \"contract/lottery.sol\":5953:6271  User({\r... */\n      0xffffffffffffffffffffffffffffffffffffffff\n      and\n      dup2\n      mstore\n      0x20\n      add\n        /* \"contract/lottery.sol\":6091:6092  0 */\n      0x00\n        /* \"contract/lottery.sol\":5953:6271  User({\r... */\n      dup2\n      mstore\n      0x20\n      add\n        /* \"contract/lottery.sol\":6127:6128  0 */\n      0x00\n        /* \"contract/lottery.sol\":5953:6271  User({\r... */\n      dup2\n      mstore\n      0x20\n      add\n        /* \"contract/lottery.sol\":6161:6162  0 */\n      0x00\n        /* \"contract/lottery.sol\":5953:6271  User({\r... */\n      dup2\n      mstore\n      0x20\n      add\n        /* \"contract/lottery.sol\":6203:6204  0 */\n      0x00\n        /* \"contract/lottery.sol\":5953:6271  User({\r... */\n      dup2\n      mstore\n      0x20\n      add\n        /* \"contract/lottery.sol\":6230:6231  0 */\n      0x00\n        /* \"contract/lottery.sol\":5953:6271  User({\r... */\n      0xff\n      and\n      dup2\n      mstore\n      0x20\n      add\n        /* \"contract/lottery.sol\":6256:6257  0 */\n      0x00\n        /* \"contract/lottery.sol\":5953:6271  User({\r... */\n      dup2\n      mstore\n      pop\n        /* \"contract/lottery.sol\":5934:6271  User memory user = User({\r... */\n      swap1\n      pop\n        /* \"contract/lottery.sol\":6302:6306  user */\n      dup1\n        /* \"contract/lottery.sol\":6282:6287  users */\n      0x6b\n        /* \"contract/lottery.sol\":6282:6299  users[msg.sender] */\n      0x00\n        /* \"contract/lottery.sol\":6288:6298  msg.sender */\n      caller\n        /* \"contract/lottery.sol\":6282:6299  users[msg.sender] */\n      0xffffffffffffffffffffffffffffffffffffffff\n      and\n      0xffffffffffffffffffffffffffffffffffffffff\n      and\n      dup2\n      mstore\n      0x20\n      add\n      swap1\n      dup2\n      mstore\n      0x20\n      add\n      0x00\n      keccak256\n        /* \"contract/lottery.sol\":6282:6306  users[msg.sender] = user */\n      0x00\n      dup3\n      add\n      mload\n      dup2\n      0x00\n      add\n      sstore\n      0x20\n      dup3\n      add\n      mload\n      dup2\n      0x01\n      add\n      sstore\n      0x40\n      dup3\n      add\n      mload\n      dup2\n      0x02\n      add\n      exp(0x0100, 0x00)\n      dup2\n      sload\n      dup2\n      0xffffffffffffffffffffffffffffffffffffffff\n      mul\n      not\n      and\n      swap1\n      dup4\n      0xffffffffffffffffffffffffffffffffffffffff\n      and\n      mul\n      or\n      swap1\n      sstore\n      pop\n      0x60\n      dup3\n      add\n      mload\n      dup2\n      0x03\n      add\n      sstore\n      0x80\n      dup3\n      add\n      mload\n      dup2\n      0x04\n      add\n      sstore\n      0xa0\n      dup3\n      add\n      mload\n      dup2\n      0x05\n      add\n      sstore\n      0xc0\n      dup3\n      add\n      mload\n      dup2\n      0x06\n      add\n      sstore\n      0xe0\n      dup3\n      add\n      mload\n      dup2\n      0x08\n      add\n      exp(0x0100, 0x00)\n      dup2\n      sload\n      dup2\n      0xff\n      mul\n      not\n      and\n      swap1\n      dup4\n      0xff\n      and\n      mul\n      or\n      swap1\n      sstore\n      pop\n      0x0100\n      dup3\n      add\n      mload\n      dup2\n      0x09\n      add\n      sstore\n      swap1\n      pop\n      pop\n        /* \"contract/lottery.sol\":6345:6355  msg.sender */\n      caller\n        /* \"contract/lottery.sol\":6317:6333  usersAddressById */\n      0x6c\n        /* \"contract/lottery.sol\":6317:6342  usersAddressById[user.id] */\n      0x00\n        /* \"contract/lottery.sol\":6334:6338  user */\n      dup4\n        /* \"contract/lottery.sol\":6334:6341  user.id */\n      0x00\n      add\n      mload\n        /* \"contract/lottery.sol\":6317:6342  usersAddressById[user.id] */\n      dup2\n      mstore\n      0x20\n      add\n      swap1\n      dup2\n      mstore\n      0x20\n      add\n      0x00\n      keccak256\n      0x00\n        /* \"contract/lottery.sol\":6317:6355  usersAddressById[user.id] = msg.sender */\n      0x0100\n      exp\n      dup2\n      sload\n      dup2\n      0xffffffffffffffffffffffffffffffffffffffff\n      mul\n      not\n      and\n      swap1\n      dup4\n      0xffffffffffffffffffffffffffffffffffffffff\n      and\n      mul\n      or\n      swap1\n      sstore\n      pop\n        /* \"contract/lottery.sol\":6366:6376  uint8 line */\n      0x00\n        /* \"contract/lottery.sol\":6379:6380  1 */\n      0x01\n        /* \"contract/lottery.sol\":6366:6380  uint8 line = 1 */\n      swap1\n      pop\n        /* \"contract/lottery.sol\":6391:6402  address ref */\n      0x00\n        /* \"contract/lottery.sol\":6405:6413  referrer */\n      dup4\n        /* \"contract/lottery.sol\":6391:6413  address ref = referrer */\n      swap1\n      pop\n        /* \"contract/lottery.sol\":6442:6443  0 */\n      0x00\n        /* \"contract/lottery.sol\":6427:6444  ref != address(0) */\n      0xffffffffffffffffffffffffffffffffffffffff\n      and\n        /* \"contract/lottery.sol\":6427:6430  ref */\n      dup2\n        /* \"contract/lottery.sol\":6427:6444  ref != address(0) */\n      0xffffffffffffffffffffffffffffffffffffffff\n      and\n      eq\n        /* \"contract/lottery.sol\":6424:6556  if(ref != address(0)) {\r... */\n      tag_435\n      jumpi\n        /* \"contract/lottery.sol\":6461:6466  users */\n      0x6b\n        /* \"contract/lottery.sol\":6461:6471  users[ref] */\n      0x00\n        /* \"contract/lottery.sol\":6467:6470  ref */\n      dup3\n        /* \"contract/lottery.sol\":6461:6471  users[ref] */\n      0xffffffffffffffffffffffffffffffffffffffff\n      and\n      0xffffffffffffffffffffffffffffffffffffffff\n      and\n      dup2\n      mstore\n      0x20\n      add\n      swap1\n      dup2\n      mstore\n      0x20\n      add\n      0x00\n      keccak256\n        /* \"contract/lottery.sol\":6461:6481  users[ref].referrals */\n      0x03\n      add\n      0x00\n        /* \"contract/lottery.sol\":6461:6483  users[ref].referrals++ */\n      dup2\n      sload\n      dup1\n      swap3\n      swap2\n      swap1\n      0x01\n      add\n      swap2\n      swap1\n      pop\n      sstore\n      pop\n        /* \"contract/lottery.sol\":6504:6509  users */\n      0x6b\n        /* \"contract/lottery.sol\":6504:6514  users[ref] */\n      0x00\n        /* \"contract/lottery.sol\":6510:6513  ref */\n      dup3\n        /* \"contract/lottery.sol\":6504:6514  users[ref] */\n      0xffffffffffffffffffffffffffffffffffffffff\n      and\n      0xffffffffffffffffffffffffffffffffffffffff\n      and\n      dup2\n      mstore\n      0x20\n      add\n      swap1\n      dup2\n      mstore\n      0x20\n      add\n      0x00\n      keccak256\n        /* \"contract/lottery.sol\":6504:6523  users[ref].referrer */\n      0x02\n      add\n      0x00\n      swap1\n      sload\n      swap1\n      0x0100\n      exp\n      swap1\n      div\n      0xffffffffffffffffffffffffffffffffffffffff\n      and\n        /* \"contract/lottery.sol\":6498:6523  ref = users[ref].referrer */\n      swap1\n      pop\n        /* \"contract/lottery.sol\":6538:6544  line++ */\n      dup2\n      dup1\n      0x01\n      add\n      swap3\n      pop\n      pop\n        /* \"contract/lottery.sol\":6424:6556  if(ref != address(0)) {\r... */\n    tag_435:\n        /* \"contract/lottery.sol\":6566:6576  globalStat */\n      0x6f\n        /* \"contract/lottery.sol\":6566:6584  globalStat.members */\n      0x00\n      add\n      0x00\n        /* \"contract/lottery.sol\":6566:6586  globalStat.members++ */\n      dup2\n      sload\n      dup1\n      swap3\n      swap2\n      swap1\n      0x01\n      add\n      swap2\n      swap1\n      pop\n      sstore\n      pop\n        /* \"contract/lottery.sol\":6597:6607  globalStat */\n      0x6f\n        /* \"contract/lottery.sol\":6597:6620  globalStat.transactions */\n      0x01\n      add\n      0x00\n        /* \"contract/lottery.sol\":6597:6622  globalStat.transactions++ */\n      dup2\n      sload\n      dup1\n      swap3\n      swap2\n      swap1\n      0x01\n      add\n      swap2\n      swap1\n      pop\n      sstore\n      pop\n        /* \"contract/lottery.sol\":6660:6670  msg.sender */\n      caller\n        /* \"contract/lottery.sol\":6638:6700  UserRegistration(now, msg.sender, user.id, users[referrer].id) */\n      0xffffffffffffffffffffffffffffffffffffffff\n      and\n      0x588149fb6f65171a24789e864d05feb177506df6fc9e86c55d0d19b5122bdffc\n        /* \"contract/lottery.sol\":6655:6658  now */\n      timestamp\n        /* \"contract/lottery.sol\":6672:6676  user */\n      dup6\n        /* \"contract/lottery.sol\":6672:6679  user.id */\n      0x00\n      add\n      mload\n        /* \"contract/lottery.sol\":6681:6686  users */\n      0x6b\n        /* \"contract/lottery.sol\":6681:6696  users[referrer] */\n      0x00\n        /* \"contract/lottery.sol\":6687:6695  referrer */\n      dup10\n        /* \"contract/lottery.sol\":6681:6696  users[referrer] */\n      0xffffffffffffffffffffffffffffffffffffffff\n      and\n      0xffffffffffffffffffffffffffffffffffffffff\n      and\n      dup2\n      mstore\n      0x20\n      add\n      swap1\n      dup2\n      mstore\n      0x20\n      add\n      0x00\n      keccak256\n        /* \"contract/lottery.sol\":6681:6699  users[referrer].id */\n      0x00\n      add\n      sload\n        /* \"contract/lottery.sol\":6638:6700  UserRegistration(now, msg.sender, user.id, users[referrer].id) */\n      mload(0x40)\n      dup1\n      dup5\n      dup2\n      mstore\n      0x20\n      add\n      dup4\n      dup2\n      mstore\n      0x20\n      add\n      dup3\n      dup2\n      mstore\n      0x20\n      add\n      swap4\n      pop\n      pop\n      pop\n      pop\n      mload(0x40)\n      dup1\n      swap2\n      sub\n      swap1\n      log2\n        /* \"contract/lottery.sol\":5640:6708  function registerWithReferrer(address referrer) public payable {\r... */\n      pop\n      pop\n      pop\n      pop\n      jump\t// out\n        /* \"contract/lottery.sol\":3146:3191  uint8 public referralRewardProfitPercents = 8 */\n    tag_205:\n      0x66\n      0x01\n      swap1\n      sload\n      swap1\n      0x0100\n      exp\n      swap1\n      div\n      0xff\n      and\n      dup2\n      jump\t// out\n        /* \"contract/lottery.sol\":3735:3772  mapping(address => User) public users */\n    tag_209:\n      mstore(0x20, 0x6b)\n      dup1\n      0x00\n      mstore\n      keccak256(0x00, 0x40)\n      0x00\n      swap2\n      pop\n      swap1\n      pop\n      dup1\n      0x00\n      add\n      sload\n      swap1\n      dup1\n      0x01\n      add\n      sload\n      swap1\n      dup1\n      0x02\n      add\n      0x00\n      swap1\n      sload\n      swap1\n      0x0100\n      exp\n      swap1\n      div\n      0xffffffffffffffffffffffffffffffffffffffff\n      and\n      swap1\n      dup1\n      0x03\n      add\n      sload\n      swap1\n      dup1\n      0x04\n      add\n      sload\n      swap1\n      dup1\n      0x05\n      add\n      sload\n      swap1\n      dup1\n      0x06\n      add\n      sload\n      swap1\n      dup1\n      0x08\n      add\n      0x00\n      swap1\n      sload\n      swap1\n      0x0100\n      exp\n      swap1\n      div\n      0xff\n      and\n      swap1\n      dup1\n      0x09\n      add\n      sload\n      swap1\n      pop\n      dup10\n      jump\t// out\n        /* \"contract/lottery.sol\":742:792  mapping(address => uint) public lastTimeActivation */\n    tag_213:\n      mstore(0x20, 0x65)\n      dup1\n      0x00\n      mstore\n      keccak256(0x00, 0x40)\n      0x00\n      swap2\n      pop\n      swap1\n      pop\n      sload\n      dup2\n      jump\t// out\n        /* \"contract/lottery.sol\":5420:5547  function buyFirstRound(address referrer) public payable {\r... */\n    tag_216:\n        /* \"contract/lottery.sol\":5487:5517  registerWithReferrer(referrer) */\n      tag_437\n        /* \"contract/lottery.sol\":5508:5516  referrer */\n      dup2\n        /* \"contract/lottery.sol\":5487:5507  registerWithReferrer */\n      tag_202\n        /* \"contract/lottery.sol\":5487:5517  registerWithReferrer(referrer) */\n      jump\t// in\n    tag_437:\n        /* \"contract/lottery.sol\":5528:5539  buyround(1) */\n      tag_438\n        /* \"contract/lottery.sol\":5537:5538  1 */\n      0x01\n        /* \"contract/lottery.sol\":5528:5536  buyround */\n      tag_66\n        /* \"contract/lottery.sol\":5528:5539  buyround(1) */\n      jump\t// in\n    tag_438:\n        /* \"contract/lottery.sol\":5420:5547  function buyFirstRound(address referrer) public payable {\r... */\n      pop\n      jump\t// out\n        /* \"contract/lottery.sol\":18112:18298  function getReferrerId(address userAddress) public view returns (uint) {\r... */\n    tag_220:\n        /* \"contract/lottery.sol\":18177:18181  uint */\n      0x00\n        /* \"contract/lottery.sol\":18194:18217  address referrerAddress */\n      dup1\n        /* \"contract/lottery.sol\":18220:18225  users */\n      0x6b\n        /* \"contract/lottery.sol\":18220:18238  users[userAddress] */\n      0x00\n        /* \"contract/lottery.sol\":18226:18237  userAddress */\n      dup5\n        /* \"contract/lottery.sol\":18220:18238  users[userAddress] */\n      0xffffffffffffffffffffffffffffffffffffffff\n      and\n      0xffffffffffffffffffffffffffffffffffffffff\n      and\n      dup2\n      mstore\n      0x20\n      add\n      swap1\n      dup2\n      mstore\n      0x20\n      add\n      0x00\n      keccak256\n        /* \"contract/lottery.sol\":18220:18247  users[userAddress].referrer */\n      0x02\n      add\n      0x00\n      swap1\n      sload\n      swap1\n      0x0100\n      exp\n      swap1\n      div\n      0xffffffffffffffffffffffffffffffffffffffff\n      and\n        /* \"contract/lottery.sol\":18194:18247  address referrerAddress = users[userAddress].referrer */\n      swap1\n      pop\n        /* \"contract/lottery.sol\":18265:18270  users */\n      0x6b\n        /* \"contract/lottery.sol\":18265:18287  users[referrerAddress] */\n      0x00\n        /* \"contract/lottery.sol\":18271:18286  referrerAddress */\n      dup3\n        /* \"contract/lottery.sol\":18265:18287  users[referrerAddress] */\n      0xffffffffffffffffffffffffffffffffffffffff\n      and\n      0xffffffffffffffffffffffffffffffffffffffff\n      and\n      dup2\n      mstore\n      0x20\n      add\n      swap1\n      dup2\n      mstore\n      0x20\n      add\n      0x00\n      keccak256\n        /* \"contract/lottery.sol\":18265:18290  users[referrerAddress].id */\n      0x00\n      add\n      sload\n        /* \"contract/lottery.sol\":18258:18290  return users[referrerAddress].id */\n      swap2\n      pop\n      pop\n        /* \"contract/lottery.sol\":18112:18298  function getReferrerId(address userAddress) public view returns (uint) {\r... */\n      swap2\n      swap1\n      pop\n      jump\t// out\n        /* \"contract/lottery.sol\":3002:3043  uint8 public constant rewardPercents = 75 */\n    tag_223:\n        /* \"contract/lottery.sol\":3041:3043  75 */\n      0x4b\n        /* \"contract/lottery.sol\":3002:3043  uint8 public constant rewardPercents = 75 */\n      dup2\n      jump\t// out\n        /* \"contract/lottery.sol\":12222:12696  function getPrize() public nonReentrant{\r... */\n    tag_226:\n        /* \"contract/lottery.sol\":180:181  2 */\n      0x02\n        /* \"contract/lottery.sol\":335:342  _status */\n      sload(0x00)\n        /* \"contract/lottery.sol\":335:354  _status != _ENTERED */\n      eq\n      iszero\n        /* \"contract/lottery.sol\":327:390  require(_status != _ENTERED, \"ReentrancyGuard: reentrant call\") */\n      tag_441\n      jumpi\n      mload(0x40)\n      0x08c379a000000000000000000000000000000000000000000000000000000000\n      dup2\n      mstore\n      0x04\n      add\n      dup1\n      dup1\n      0x20\n      add\n      dup3\n      dup2\n      sub\n      dup3\n      mstore\n      0x1f\n      dup2\n      mstore\n      0x20\n      add\n      dup1\n      0x5265656e7472616e637947756172643a207265656e7472616e742063616c6c00\n      dup2\n      mstore\n      pop\n      0x20\n      add\n      swap2\n      pop\n      pop\n      mload(0x40)\n      dup1\n      swap2\n      sub\n      swap1\n      revert\n    tag_441:\n        /* \"contract/lottery.sol\":180:181  2 */\n      0x02\n        /* \"contract/lottery.sol\":401:408  _status */\n      0x00\n        /* \"contract/lottery.sol\":401:419  _status = _ENTERED */\n      dup2\n      swap1\n      sstore\n      pop\n        /* \"contract/lottery.sol\":12278:12289  uint8 lucky */\n      0x00\n        /* \"contract/lottery.sol\":12273:12689  for (uint8 lucky = 0; lucky <= 49; lucky++) {\r... */\n    tag_443:\n        /* \"contract/lottery.sol\":12304:12306  49 */\n      0x31\n        /* \"contract/lottery.sol\":12295:12300  lucky */\n      dup2\n        /* \"contract/lottery.sol\":12295:12306  lucky <= 49 */\n      0xff\n      and\n      gt\n        /* \"contract/lottery.sol\":12273:12689  for (uint8 lucky = 0; lucky <= 49; lucky++) {\r... */\n      tag_444\n      jumpi\n        /* \"contract/lottery.sol\":12357:12367  msg.sender */\n      caller\n        /* \"contract/lottery.sol\":12336:12367  todayWiner[lucky] == msg.sender */\n      0xffffffffffffffffffffffffffffffffffffffff\n      and\n        /* \"contract/lottery.sol\":12336:12346  todayWiner */\n      0x01\n        /* \"contract/lottery.sol\":12347:12352  lucky */\n      dup3\n        /* \"contract/lottery.sol\":12336:12353  todayWiner[lucky] */\n      0xff\n      and\n      0x32\n      dup2\n      lt\n      tag_446\n      jumpi\n      invalid\n    tag_446:\n      add\n      0x00\n      swap1\n      sload\n      swap1\n      0x0100\n      exp\n      swap1\n      div\n      0xffffffffffffffffffffffffffffffffffffffff\n      and\n        /* \"contract/lottery.sol\":12336:12367  todayWiner[lucky] == msg.sender */\n      0xffffffffffffffffffffffffffffffffffffffff\n      and\n      eq\n        /* \"contract/lottery.sol\":12332:12678  if (todayWiner[lucky] == msg.sender){\r... */\n      iszero\n      tag_448\n      jumpi\n        /* \"contract/lottery.sol\":12388:12398  globalStat */\n      0x6f\n        /* \"contract/lottery.sol\":12388:12404  globalStat.lucky */\n      0x03\n      add\n      0x00\n        /* \"contract/lottery.sol\":12388:12406  globalStat.lucky++ */\n      dup2\n      sload\n      dup1\n      swap3\n      swap2\n      swap1\n      0x01\n      add\n      swap2\n      swap1\n      pop\n      sstore\n      pop\n        /* \"contract/lottery.sol\":12458:12459  0 */\n      0x00\n        /* \"contract/lottery.sol\":12430:12440  todayWiner */\n      0x01\n        /* \"contract/lottery.sol\":12441:12446  lucky */\n      dup3\n        /* \"contract/lottery.sol\":12430:12447  todayWiner[lucky] */\n      0xff\n      and\n      0x32\n      dup2\n      lt\n      tag_449\n      jumpi\n      invalid\n    tag_449:\n      add\n      0x00\n        /* \"contract/lottery.sol\":12430:12460  todayWiner[lucky] = address(0) */\n      0x0100\n      exp\n      dup2\n      sload\n      dup2\n      0xffffffffffffffffffffffffffffffffffffffff\n      mul\n      not\n      and\n      swap1\n      dup4\n      0xffffffffffffffffffffffffffffffffffffffff\n      and\n      mul\n      or\n      swap1\n      sstore\n      pop\n        /* \"contract/lottery.sol\":12479:12492  bool payPrize */\n      0x00\n        /* \"contract/lottery.sol\":12503:12513  msg.sender */\n      caller\n        /* \"contract/lottery.sol\":12495:12519  payable(msg.sender).send */\n      0xffffffffffffffffffffffffffffffffffffffff\n      and\n        /* \"contract/lottery.sol\":12495:12536  payable(msg.sender).send(todayWinerValue) */\n      0x08fc\n        /* \"contract/lottery.sol\":12520:12535  todayWinerValue */\n      sload(0x33)\n        /* \"contract/lottery.sol\":12495:12536  payable(msg.sender).send(todayWinerValue) */\n      swap1\n      dup2\n      iszero\n      mul\n      swap1\n      mload(0x40)\n      0x00\n      mload(0x40)\n      dup1\n      dup4\n      sub\n      dup2\n      dup6\n      dup9\n      dup9\n      call\n      swap4\n      pop\n      pop\n      pop\n      pop\n        /* \"contract/lottery.sol\":12479:12536  bool payPrize = payable(msg.sender).send(todayWinerValue) */\n      swap1\n      pop\n        /* \"contract/lottery.sol\":12560:12568  payPrize */\n      dup1\n        /* \"contract/lottery.sol\":12556:12663  if (payPrize) {\r... */\n      iszero\n      tag_452\n      jumpi\n        /* \"contract/lottery.sol\":12615:12625  msg.sender */\n      caller\n        /* \"contract/lottery.sol\":12599:12643  payedPrize(now, msg.sender, todayWinerValue) */\n      0xffffffffffffffffffffffffffffffffffffffff\n      and\n      0x7c73022fe9ef1ddffacfe32ab067b48a23250b0c20fbabeace91e3cd9e63a9c0\n        /* \"contract/lottery.sol\":12610:12613  now */\n      timestamp\n        /* \"contract/lottery.sol\":12627:12642  todayWinerValue */\n      sload(0x33)\n        /* \"contract/lottery.sol\":12599:12643  payedPrize(now, msg.sender, todayWinerValue) */\n      mload(0x40)\n      dup1\n      dup4\n      dup2\n      mstore\n      0x20\n      add\n      dup3\n      dup2\n      mstore\n      0x20\n      add\n      swap3\n      pop\n      pop\n      pop\n      mload(0x40)\n      dup1\n      swap2\n      sub\n      swap1\n      log2\n        /* \"contract/lottery.sol\":12556:12663  if (payPrize) {\r... */\n    tag_452:\n        /* \"contract/lottery.sol\":12332:12678  if (todayWiner[lucky] == msg.sender){\r... */\n      pop\n    tag_448:\n        /* \"contract/lottery.sol\":12308:12315  lucky++ */\n      dup1\n      dup1\n      0x01\n      add\n      swap2\n      pop\n      pop\n        /* \"contract/lottery.sol\":12273:12689  for (uint8 lucky = 0; lucky <= 49; lucky++) {\r... */\n      jump(tag_443)\n    tag_444:\n      pop\n        /* \"contract/lottery.sol\":136:137  1 */\n      0x01\n        /* \"contract/lottery.sol\":442:449  _status */\n      0x00\n        /* \"contract/lottery.sol\":442:464  _status = _NOT_ENTERED */\n      dup2\n      swap1\n      sstore\n      pop\n        /* \"contract/lottery.sol\":12222:12696  function getPrize() public nonReentrant{\r... */\n      jump\t// out\n        /* \"contract/lottery.sol\":17108:17203  function getRoiRound() public view returns(uint[16] memory) {\r... */\n    tag_229:\n        /* \"contract/lottery.sol\":17151:17166  uint[16] memory */\n      tag_453\n      tag_347\n      jump\t// in\n    tag_453:\n        /* \"contract/lottery.sol\":17186:17195  RoiRounds */\n      0x35\n        /* \"contract/lottery.sol\":17179:17195  return RoiRounds */\n      0x10\n      dup1\n      0x20\n      mul\n      mload(0x40)\n      swap1\n      dup2\n      add\n      0x40\n      mstore\n      dup1\n      swap3\n      swap2\n      swap1\n      dup3\n      0x10\n      dup1\n      iszero\n      tag_455\n      jumpi\n      0x20\n      mul\n      dup3\n      add\n      swap2\n    tag_456:\n      dup2\n      sload\n      dup2\n      mstore\n      0x20\n      add\n      swap1\n      0x01\n      add\n      swap1\n      dup1\n      dup4\n      gt\n      tag_456\n      jumpi\n    tag_455:\n      pop\n      pop\n      pop\n      pop\n      pop\n      swap1\n      pop\n        /* \"contract/lottery.sol\":17108:17203  function getRoiRound() public view returns(uint[16] memory) {\r... */\n      swap1\n      jump\t// out\n        /* \"contract/lottery.sol\":18510:19076  function getPlaceInQueue(address userAddress, uint8 round) public view returns(uint, uint) {\r... */\n    tag_236:\n        /* \"contract/lottery.sol\":18589:18593  uint */\n      0x00\n        /* \"contract/lottery.sol\":18595:18599  uint */\n      dup1\n        /* \"contract/lottery.sol\":18628:18629  0 */\n      0x00\n        /* \"contract/lottery.sol\":18620:18625  round */\n      dup4\n        /* \"contract/lottery.sol\":18620:18629  round > 0 */\n      0xff\n      and\n      gt\n        /* \"contract/lottery.sol\":18620:18653  round > 0 && round <= totalrounds */\n      dup1\n      iszero\n      tag_458\n      jumpi\n      pop\n        /* \"contract/lottery.sol\":18642:18653  totalrounds */\n      sload(0x69)\n        /* \"contract/lottery.sol\":18633:18638  round */\n      dup4\n        /* \"contract/lottery.sol\":18633:18653  round <= totalrounds */\n      0xff\n      and\n      gt\n      iszero\n        /* \"contract/lottery.sol\":18620:18653  round > 0 && round <= totalrounds */\n    tag_458:\n        /* \"contract/lottery.sol\":18612:18671  require(round > 0 && round <= totalrounds, \"Invalid round\") */\n      tag_459\n      jumpi\n      mload(0x40)\n      0x08c379a000000000000000000000000000000000000000000000000000000000\n      dup2\n      mstore\n      0x04\n      add\n      dup1\n      dup1\n      0x20\n      add\n      dup3\n      dup2\n      sub\n      dup3\n      mstore\n      0x0d\n      dup2\n      mstore\n      0x20\n      add\n      dup1\n      0x496e76616c696420726f756e6400000000000000000000000000000000000000\n      dup2\n      mstore\n      pop\n      0x20\n      add\n      swap2\n      pop\n      pop\n      mload(0x40)\n      dup1\n      swap2\n      sub\n      swap1\n      revert\n    tag_459:\n        /* \"contract/lottery.sol\":18686:18691  users */\n      0x6b\n        /* \"contract/lottery.sol\":18686:18704  users[userAddress] */\n      0x00\n        /* \"contract/lottery.sol\":18692:18703  userAddress */\n      dup6\n        /* \"contract/lottery.sol\":18686:18704  users[userAddress] */\n      0xffffffffffffffffffffffffffffffffffffffff\n      and\n      0xffffffffffffffffffffffffffffffffffffffff\n      and\n      dup2\n      mstore\n      0x20\n      add\n      swap1\n      dup2\n      mstore\n      0x20\n      add\n      0x00\n      keccak256\n        /* \"contract/lottery.sol\":18686:18711  users[userAddress].rounds */\n      0x07\n      add\n        /* \"contract/lottery.sol\":18686:18718  users[userAddress].rounds[round] */\n      0x00\n        /* \"contract/lottery.sol\":18712:18717  round */\n      dup5\n        /* \"contract/lottery.sol\":18686:18718  users[userAddress].rounds[round] */\n      0xff\n      and\n      0xff\n      and\n      dup2\n      mstore\n      0x20\n      add\n      swap1\n      dup2\n      mstore\n      0x20\n      add\n      0x00\n      keccak256\n        /* \"contract/lottery.sol\":18686:18725  users[userAddress].rounds[round].active */\n      0x00\n      add\n      0x06\n      swap1\n      sload\n      swap1\n      0x0100\n      exp\n      swap1\n      div\n      0xff\n      and\n        /* \"contract/lottery.sol\":18682:18767  if(!users[userAddress].rounds[round].active) {\r... */\n      tag_460\n      jumpi\n        /* \"contract/lottery.sol\":18750:18751  0 */\n      0x00\n        /* \"contract/lottery.sol\":18753:18754  0 */\n      dup1\n        /* \"contract/lottery.sol\":18742:18755  return (0, 0) */\n      swap2\n      pop\n      swap2\n      pop\n      jump(tag_457)\n        /* \"contract/lottery.sol\":18682:18767  if(!users[userAddress].rounds[round].active) {\r... */\n    tag_460:\n        /* \"contract/lottery.sol\":18777:18787  uint place */\n      0x00\n        /* \"contract/lottery.sol\":18806:18812  uint i */\n      dup1\n        /* \"contract/lottery.sol\":18815:18824  headIndex */\n      0x6e\n        /* \"contract/lottery.sol\":18815:18831  headIndex[round] */\n      0x00\n        /* \"contract/lottery.sol\":18825:18830  round */\n      dup7\n        /* \"contract/lottery.sol\":18815:18831  headIndex[round] */\n      0xff\n      and\n      0xff\n      and\n      dup2\n      mstore\n      0x20\n      add\n      swap1\n      dup2\n      mstore\n      0x20\n      add\n      0x00\n      keccak256\n      sload\n        /* \"contract/lottery.sol\":18806:18831  uint i = headIndex[round] */\n      swap1\n      pop\n        /* \"contract/lottery.sol\":18802:19050  for(uint i = headIndex[round]; i < roundQueue[round].length; i++) {\r... */\n    tag_461:\n        /* \"contract/lottery.sol\":18837:18847  roundQueue */\n      0x6d\n        /* \"contract/lottery.sol\":18837:18854  roundQueue[round] */\n      0x00\n        /* \"contract/lottery.sol\":18848:18853  round */\n      dup7\n        /* \"contract/lottery.sol\":18837:18854  roundQueue[round] */\n      0xff\n      and\n      0xff\n      and\n      dup2\n      mstore\n      0x20\n      add\n      swap1\n      dup2\n      mstore\n      0x20\n      add\n      0x00\n      keccak256\n        /* \"contract/lottery.sol\":18837:18861  roundQueue[round].length */\n      dup1\n      sload\n      swap1\n      pop\n        /* \"contract/lottery.sol\":18833:18834  i */\n      dup2\n        /* \"contract/lottery.sol\":18833:18861  i < roundQueue[round].length */\n      lt\n        /* \"contract/lottery.sol\":18802:19050  for(uint i = headIndex[round]; i < roundQueue[round].length; i++) {\r... */\n      iszero\n      tag_462\n      jumpi\n        /* \"contract/lottery.sol\":18883:18890  place++ */\n      dup2\n      dup1\n      0x01\n      add\n      swap3\n      pop\n      pop\n        /* \"contract/lottery.sol\":18932:18943  userAddress */\n      dup6\n        /* \"contract/lottery.sol\":18908:18943  roundQueue[round][i] == userAddress */\n      0xffffffffffffffffffffffffffffffffffffffff\n      and\n        /* \"contract/lottery.sol\":18908:18918  roundQueue */\n      0x6d\n        /* \"contract/lottery.sol\":18908:18925  roundQueue[round] */\n      0x00\n        /* \"contract/lottery.sol\":18919:18924  round */\n      dup8\n        /* \"contract/lottery.sol\":18908:18925  roundQueue[round] */\n      0xff\n      and\n      0xff\n      and\n      dup2\n      mstore\n      0x20\n      add\n      swap1\n      dup2\n      mstore\n      0x20\n      add\n      0x00\n      keccak256\n        /* \"contract/lottery.sol\":18926:18927  i */\n      dup3\n        /* \"contract/lottery.sol\":18908:18928  roundQueue[round][i] */\n      dup2\n      sload\n      dup2\n      lt\n      tag_464\n      jumpi\n      invalid\n    tag_464:\n      swap1\n      0x00\n      mstore\n      keccak256(0x00, 0x20)\n      add\n      0x00\n      swap1\n      sload\n      swap1\n      0x0100\n      exp\n      swap1\n      div\n      0xffffffffffffffffffffffffffffffffffffffff\n      and\n        /* \"contract/lottery.sol\":18908:18943  roundQueue[round][i] == userAddress */\n      0xffffffffffffffffffffffffffffffffffffffff\n      and\n      eq\n        /* \"contract/lottery.sol\":18905:19039  if(roundQueue[round][i] == userAddress) {\r... */\n      iszero\n      tag_466\n      jumpi\n        /* \"contract/lottery.sol\":18972:18977  place */\n      dup2\n        /* \"contract/lottery.sol\":19006:19015  headIndex */\n      0x6e\n        /* \"contract/lottery.sol\":19006:19022  headIndex[round] */\n      0x00\n        /* \"contract/lottery.sol\":19016:19021  round */\n      dup8\n        /* \"contract/lottery.sol\":19006:19022  headIndex[round] */\n      0xff\n      and\n      0xff\n      and\n      dup2\n      mstore\n      0x20\n      add\n      swap1\n      dup2\n      mstore\n      0x20\n      add\n      0x00\n      keccak256\n      sload\n        /* \"contract/lottery.sol\":18979:18989  roundQueue */\n      0x6d\n        /* \"contract/lottery.sol\":18979:18996  roundQueue[round] */\n      0x00\n        /* \"contract/lottery.sol\":18990:18995  round */\n      dup9\n        /* \"contract/lottery.sol\":18979:18996  roundQueue[round] */\n      0xff\n      and\n      0xff\n      and\n      dup2\n      mstore\n      0x20\n      add\n      swap1\n      dup2\n      mstore\n      0x20\n      add\n      0x00\n      keccak256\n        /* \"contract/lottery.sol\":18979:19003  roundQueue[round].length */\n      dup1\n      sload\n      swap1\n      pop\n        /* \"contract/lottery.sol\":18979:19022  roundQueue[round].length - headIndex[round] */\n      sub\n        /* \"contract/lottery.sol\":18964:19023  return (place, roundQueue[round].length - headIndex[round]) */\n      swap4\n      pop\n      swap4\n      pop\n      pop\n      pop\n      jump(tag_457)\n        /* \"contract/lottery.sol\":18905:19039  if(roundQueue[round][i] == userAddress) {\r... */\n    tag_466:\n        /* \"contract/lottery.sol\":18863:18866  i++ */\n      dup1\n      dup1\n      0x01\n      add\n      swap2\n      pop\n      pop\n        /* \"contract/lottery.sol\":18802:19050  for(uint i = headIndex[round]; i < roundQueue[round].length; i++) {\r... */\n      jump(tag_461)\n    tag_462:\n      pop\n        /* \"contract/lottery.sol\":19060:19068  revert() */\n      0x00\n      dup1\n      revert\n        /* \"contract/lottery.sol\":18510:19076  function getPlaceInQueue(address userAddress, uint8 round) public view returns(uint, uint) {\r... */\n    tag_457:\n      swap3\n      pop\n      swap3\n      swap1\n      pop\n      jump\t// out\n        /* \"contract/lottery.sol\":3050:3093  uint8 public constant marketingPercents = 7 */\n    tag_239:\n        /* \"contract/lottery.sol\":3092:3093  7 */\n      0x07\n        /* \"contract/lottery.sol\":3050:3093  uint8 public constant marketingPercents = 7 */\n      dup2\n      jump\t// out\n        /* \"contract/lottery.sol\":566:593  uint public todayWinerValue */\n    tag_242:\n      sload(0x33)\n      dup2\n      jump\t// out\n        /* \"contract/lottery.sol\":13647:14604  function sendPostRewardToReferrer(address userAddress, uint8 round, uint rewardValue) private {\r... */\n    tag_290:\n        /* \"contract/lottery.sol\":13762:13778  address referrer */\n      0x00\n        /* \"contract/lottery.sol\":13781:13786  users */\n      0x6b\n        /* \"contract/lottery.sol\":13781:13799  users[userAddress] */\n      0x00\n        /* \"contract/lottery.sol\":13787:13798  userAddress */\n      dup6\n        /* \"contract/lottery.sol\":13781:13799  users[userAddress] */\n      0xffffffffffffffffffffffffffffffffffffffff\n      and\n      0xffffffffffffffffffffffffffffffffffffffff\n      and\n      dup2\n      mstore\n      0x20\n      add\n      swap1\n      dup2\n      mstore\n      0x20\n      add\n      0x00\n      keccak256\n        /* \"contract/lottery.sol\":13781:13808  users[userAddress].referrer */\n      0x02\n      add\n      0x00\n      swap1\n      sload\n      swap1\n      0x0100\n      exp\n      swap1\n      div\n      0xffffffffffffffffffffffffffffffffffffffff\n      and\n        /* \"contract/lottery.sol\":13762:13808  address referrer = users[userAddress].referrer */\n      swap1\n      pop\n        /* \"contract/lottery.sol\":13834:13839  users */\n      0x6b\n        /* \"contract/lottery.sol\":13834:13849  users[referrer] */\n      0x00\n        /* \"contract/lottery.sol\":13840:13848  referrer */\n      dup3\n        /* \"contract/lottery.sol\":13834:13849  users[referrer] */\n      0xffffffffffffffffffffffffffffffffffffffff\n      and\n      0xffffffffffffffffffffffffffffffffffffffff\n      and\n      dup2\n      mstore\n      0x20\n      add\n      swap1\n      dup2\n      mstore\n      0x20\n      add\n      0x00\n      keccak256\n        /* \"contract/lottery.sol\":13834:13856  users[referrer].rounds */\n      0x07\n      add\n        /* \"contract/lottery.sol\":13834:13863  users[referrer].rounds[round] */\n      0x00\n        /* \"contract/lottery.sol\":13857:13862  round */\n      dup5\n        /* \"contract/lottery.sol\":13834:13863  users[referrer].rounds[round] */\n      0xff\n      and\n      0xff\n      and\n      dup2\n      mstore\n      0x20\n      add\n      swap1\n      dup2\n      mstore\n      0x20\n      add\n      0x00\n      keccak256\n        /* \"contract/lottery.sol\":13834:13870  users[referrer].rounds[round].active */\n      0x00\n      add\n      0x06\n      swap1\n      sload\n      swap1\n      0x0100\n      exp\n      swap1\n      div\n      0xff\n      and\n        /* \"contract/lottery.sol\":13829:14191  if (!users[referrer].rounds[round].active ) {\r... */\n      tag_468\n      jumpi\n        /* \"contract/lottery.sol\":13931:13942  rewardValue */\n      dup2\n        /* \"contract/lottery.sol\":13888:13893  users */\n      0x6b\n        /* \"contract/lottery.sol\":13888:13903  users[referrer] */\n      0x00\n        /* \"contract/lottery.sol\":13894:13902  referrer */\n      dup4\n        /* \"contract/lottery.sol\":13888:13903  users[referrer] */\n      0xffffffffffffffffffffffffffffffffffffffff\n      and\n      0xffffffffffffffffffffffffffffffffffffffff\n      and\n      dup2\n      mstore\n      0x20\n      add\n      swap1\n      dup2\n      mstore\n      0x20\n      add\n      0x00\n      keccak256\n        /* \"contract/lottery.sol\":13888:13927  users[referrer].missedReferralPayoutSum */\n      0x06\n      add\n      0x00\n        /* \"contract/lottery.sol\":13888:13942  users[referrer].missedReferralPayoutSum += rewardValue */\n      dup3\n      dup3\n      sload\n      add\n      swap3\n      pop\n      pop\n      dup2\n      swap1\n      sstore\n      pop\n        /* \"contract/lottery.sol\":14015:14026  rewardValue */\n      dup2\n        /* \"contract/lottery.sol\":13957:13962  users */\n      0x6b\n        /* \"contract/lottery.sol\":13957:13972  users[referrer] */\n      0x00\n        /* \"contract/lottery.sol\":13963:13971  referrer */\n      dup4\n        /* \"contract/lottery.sol\":13957:13972  users[referrer] */\n      0xffffffffffffffffffffffffffffffffffffffff\n      and\n      0xffffffffffffffffffffffffffffffffffffffff\n      and\n      dup2\n      mstore\n      0x20\n      add\n      swap1\n      dup2\n      mstore\n      0x20\n      add\n      0x00\n      keccak256\n        /* \"contract/lottery.sol\":13957:13979  users[referrer].rounds */\n      0x07\n      add\n        /* \"contract/lottery.sol\":13957:13986  users[referrer].rounds[round] */\n      0x00\n        /* \"contract/lottery.sol\":13980:13985  round */\n      dup6\n        /* \"contract/lottery.sol\":13957:13986  users[referrer].rounds[round] */\n      0xff\n      and\n      0xff\n      and\n      dup2\n      mstore\n      0x20\n      add\n      swap1\n      dup2\n      mstore\n      0x20\n      add\n      0x00\n      keccak256\n        /* \"contract/lottery.sol\":13957:14011  users[referrer].rounds[round].missedRefferalPostProfit */\n      0x05\n      add\n      0x00\n        /* \"contract/lottery.sol\":13957:14026  users[referrer].rounds[round].missedRefferalPostProfit += rewardValue */\n      dup3\n      dup3\n      sload\n      add\n      swap3\n      pop\n      pop\n      dup2\n      swap1\n      sstore\n      pop\n        /* \"contract/lottery.sol\":14076:14084  referrer */\n      dup1\n        /* \"contract/lottery.sol\":14046:14148  MissedReferralPostPayout(now, referrer, users[referrer].id, users[userAddress].id, round, rewardValue) */\n      0xffffffffffffffffffffffffffffffffffffffff\n      and\n      0x0883bf1f67528bdc0cbaa14cb71f54e9f4e65ec49eceaf639cb93a9e50aefc4c\n        /* \"contract/lottery.sol\":14071:14074  now */\n      timestamp\n        /* \"contract/lottery.sol\":14086:14091  users */\n      0x6b\n        /* \"contract/lottery.sol\":14086:14101  users[referrer] */\n      0x00\n        /* \"contract/lottery.sol\":14092:14100  referrer */\n      dup6\n        /* \"contract/lottery.sol\":14086:14101  users[referrer] */\n      0xffffffffffffffffffffffffffffffffffffffff\n      and\n      0xffffffffffffffffffffffffffffffffffffffff\n      and\n      dup2\n      mstore\n      0x20\n      add\n      swap1\n      dup2\n      mstore\n      0x20\n      add\n      0x00\n      keccak256\n        /* \"contract/lottery.sol\":14086:14104  users[referrer].id */\n      0x00\n      add\n      sload\n        /* \"contract/lottery.sol\":14106:14111  users */\n      0x6b\n        /* \"contract/lottery.sol\":14106:14124  users[userAddress] */\n      0x00\n        /* \"contract/lottery.sol\":14112:14123  userAddress */\n      dup10\n        /* \"contract/lottery.sol\":14106:14124  users[userAddress] */\n      0xffffffffffffffffffffffffffffffffffffffff\n      and\n      0xffffffffffffffffffffffffffffffffffffffff\n      and\n      dup2\n      mstore\n      0x20\n      add\n      swap1\n      dup2\n      mstore\n      0x20\n      add\n      0x00\n      keccak256\n        /* \"contract/lottery.sol\":14106:14127  users[userAddress].id */\n      0x00\n      add\n      sload\n        /* \"contract/lottery.sol\":14129:14134  round */\n      dup8\n        /* \"contract/lottery.sol\":14136:14147  rewardValue */\n      dup8\n        /* \"contract/lottery.sol\":14046:14148  MissedReferralPostPayout(now, referrer, users[referrer].id, users[userAddress].id, round, rewardValue) */\n      mload(0x40)\n      dup1\n      dup7\n      dup2\n      mstore\n      0x20\n      add\n      dup6\n      dup2\n      mstore\n      0x20\n      add\n      dup5\n      dup2\n      mstore\n      0x20\n      add\n      dup4\n      0xff\n      and\n      dup2\n      mstore\n      0x20\n      add\n      dup3\n      dup2\n      mstore\n      0x20\n      add\n      swap6\n      pop\n      pop\n      pop\n      pop\n      pop\n      pop\n      mload(0x40)\n      dup1\n      swap2\n      sub\n      swap1\n      log2\n        /* \"contract/lottery.sol\":14174:14179  owner */\n      0x66\n      0x02\n      swap1\n      sload\n      swap1\n      0x0100\n      exp\n      swap1\n      div\n      0xffffffffffffffffffffffffffffffffffffffff\n      and\n        /* \"contract/lottery.sol\":14163:14179  referrer = owner */\n      swap1\n      pop\n        /* \"contract/lottery.sol\":13829:14191  if (!users[referrer].rounds[round].active ) {\r... */\n    tag_468:\n        /* \"contract/lottery.sol\":14201:14210  bool sent */\n      0x00\n        /* \"contract/lottery.sol\":14221:14229  referrer */\n      dup2\n        /* \"contract/lottery.sol\":14213:14235  payable(referrer).send */\n      0xffffffffffffffffffffffffffffffffffffffff\n      and\n        /* \"contract/lottery.sol\":14213:14248  payable(referrer).send(rewardValue) */\n      0x08fc\n        /* \"contract/lottery.sol\":14236:14247  rewardValue */\n      dup5\n        /* \"contract/lottery.sol\":14213:14248  payable(referrer).send(rewardValue) */\n      swap1\n      dup2\n      iszero\n      mul\n      swap1\n      mload(0x40)\n      0x00\n      mload(0x40)\n      dup1\n      dup4\n      sub\n      dup2\n      dup6\n      dup9\n      dup9\n      call\n      swap4\n      pop\n      pop\n      pop\n      pop\n        /* \"contract/lottery.sol\":14201:14248  bool sent = payable(referrer).send(rewardValue) */\n      swap1\n      pop\n        /* \"contract/lottery.sol\":14263:14267  sent */\n      dup1\n        /* \"contract/lottery.sol\":14259:14597  if (sent) {\r... */\n      iszero\n      tag_470\n      jumpi\n        /* \"contract/lottery.sol\":14335:14346  rewardValue */\n      dup3\n        /* \"contract/lottery.sol\":14284:14289  users */\n      0x6b\n        /* \"contract/lottery.sol\":14284:14299  users[referrer] */\n      0x00\n        /* \"contract/lottery.sol\":14290:14298  referrer */\n      dup5\n        /* \"contract/lottery.sol\":14284:14299  users[referrer] */\n      0xffffffffffffffffffffffffffffffffffffffff\n      and\n      0xffffffffffffffffffffffffffffffffffffffff\n      and\n      dup2\n      mstore\n      0x20\n      add\n      swap1\n      dup2\n      mstore\n      0x20\n      add\n      0x00\n      keccak256\n        /* \"contract/lottery.sol\":14284:14306  users[referrer].rounds */\n      0x07\n      add\n        /* \"contract/lottery.sol\":14284:14313  users[referrer].rounds[round] */\n      0x00\n        /* \"contract/lottery.sol\":14307:14312  round */\n      dup7\n        /* \"contract/lottery.sol\":14284:14313  users[referrer].rounds[round] */\n      0xff\n      and\n      0xff\n      and\n      dup2\n      mstore\n      0x20\n      add\n      swap1\n      dup2\n      mstore\n      0x20\n      add\n      0x00\n      keccak256\n        /* \"contract/lottery.sol\":14284:14331  users[referrer].rounds[round].referralPayoutSum */\n      0x02\n      add\n      0x00\n        /* \"contract/lottery.sol\":14284:14346  users[referrer].rounds[round].referralPayoutSum += rewardValue */\n      dup3\n      dup3\n      sload\n      add\n      swap3\n      pop\n      pop\n      dup2\n      swap1\n      sstore\n      pop\n        /* \"contract/lottery.sol\":14398:14409  rewardValue */\n      dup3\n        /* \"contract/lottery.sol\":14361:14366  users */\n      0x6b\n        /* \"contract/lottery.sol\":14361:14376  users[referrer] */\n      0x00\n        /* \"contract/lottery.sol\":14367:14375  referrer */\n      dup5\n        /* \"contract/lottery.sol\":14361:14376  users[referrer] */\n      0xffffffffffffffffffffffffffffffffffffffff\n      and\n      0xffffffffffffffffffffffffffffffffffffffff\n      and\n      dup2\n      mstore\n      0x20\n      add\n      swap1\n      dup2\n      mstore\n      0x20\n      add\n      0x00\n      keccak256\n        /* \"contract/lottery.sol\":14361:14394  users[referrer].referralPayoutSum */\n      0x04\n      add\n      0x00\n        /* \"contract/lottery.sol\":14361:14409  users[referrer].referralPayoutSum += rewardValue */\n      dup3\n      dup3\n      sload\n      add\n      swap3\n      pop\n      pop\n      dup2\n      swap1\n      sstore\n      pop\n        /* \"contract/lottery.sol\":14453:14461  referrer */\n      dup2\n        /* \"contract/lottery.sol\":14429:14525  ReferralPostPayout(now, referrer, users[referrer].id, users[userAddress].id, round, rewardValue) */\n      0xffffffffffffffffffffffffffffffffffffffff\n      and\n      0x0ed8e24e8c3d702aae6ec32d5d8fbb15b20e1905fcd8e9a2313dff009a821750\n        /* \"contract/lottery.sol\":14448:14451  now */\n      timestamp\n        /* \"contract/lottery.sol\":14463:14468  users */\n      0x6b\n        /* \"contract/lottery.sol\":14463:14478  users[referrer] */\n      0x00\n        /* \"contract/lottery.sol\":14469:14477  referrer */\n      dup7\n        /* \"contract/lottery.sol\":14463:14478  users[referrer] */\n      0xffffffffffffffffffffffffffffffffffffffff\n      and\n      0xffffffffffffffffffffffffffffffffffffffff\n      and\n      dup2\n      mstore\n      0x20\n      add\n      swap1\n      dup2\n      mstore\n      0x20\n      add\n      0x00\n      keccak256\n        /* \"contract/lottery.sol\":14463:14481  users[referrer].id */\n      0x00\n      add\n      sload\n        /* \"contract/lottery.sol\":14483:14488  users */\n      0x6b\n        /* \"contract/lottery.sol\":14483:14501  users[userAddress] */\n      0x00\n        /* \"contract/lottery.sol\":14489:14500  userAddress */\n      dup11\n        /* \"contract/lottery.sol\":14483:14501  users[userAddress] */\n      0xffffffffffffffffffffffffffffffffffffffff\n      and\n      0xffffffffffffffffffffffffffffffffffffffff\n      and\n      dup2\n      mstore\n      0x20\n      add\n      swap1\n      dup2\n      mstore\n      0x20\n      add\n      0x00\n      keccak256\n        /* \"contract/lottery.sol\":14483:14504  users[userAddress].id */\n      0x00\n      add\n      sload\n        /* \"contract/lottery.sol\":14506:14511  round */\n      dup9\n        /* \"contract/lottery.sol\":14513:14524  rewardValue */\n      dup9\n        /* \"contract/lottery.sol\":14429:14525  ReferralPostPayout(now, referrer, users[referrer].id, users[userAddress].id, round, rewardValue) */\n      mload(0x40)\n      dup1\n      dup7\n      dup2\n      mstore\n      0x20\n      add\n      dup6\n      dup2\n      mstore\n      0x20\n      add\n      dup5\n      dup2\n      mstore\n      0x20\n      add\n      dup4\n      0xff\n      and\n      dup2\n      mstore\n      0x20\n      add\n      dup3\n      dup2\n      mstore\n      0x20\n      add\n      swap6\n      pop\n      pop\n      pop\n      pop\n      pop\n      pop\n      mload(0x40)\n      dup1\n      swap2\n      sub\n      swap1\n      log2\n        /* \"contract/lottery.sol\":14259:14597  if (sent) {\r... */\n      jump(tag_471)\n    tag_470:\n        /* \"contract/lottery.sol\":14558:14563  owner */\n      0x66\n      0x02\n      swap1\n      sload\n      swap1\n      0x0100\n      exp\n      swap1\n      div\n      0xffffffffffffffffffffffffffffffffffffffff\n      and\n        /* \"contract/lottery.sol\":14558:14572  owner.transfer */\n      0xffffffffffffffffffffffffffffffffffffffff\n      and\n        /* \"contract/lottery.sol\":14558:14585  owner.transfer(rewardValue) */\n      0x08fc\n        /* \"contract/lottery.sol\":14573:14584  rewardValue */\n      dup5\n        /* \"contract/lottery.sol\":14558:14585  owner.transfer(rewardValue) */\n      swap1\n      dup2\n      iszero\n      mul\n      swap1\n      mload(0x40)\n      0x00\n      mload(0x40)\n      dup1\n      dup4\n      sub\n      dup2\n      dup6\n      dup9\n      dup9\n      call\n      swap4\n      pop\n      pop\n      pop\n      pop\n      iszero\n      dup1\n      iszero\n      tag_473\n      jumpi\n      returndatasize\n      0x00\n      dup1\n      returndatacopy\n      revert(0x00, returndatasize)\n    tag_473:\n      pop\n        /* \"contract/lottery.sol\":14259:14597  if (sent) {\r... */\n    tag_471:\n        /* \"contract/lottery.sol\":13647:14604  function sendPostRewardToReferrer(address userAddress, uint8 round, uint rewardValue) private {\r... */\n      pop\n      pop\n      pop\n      pop\n      pop\n      jump\t// out\n        /* \"contract/lottery.sol\":12702:13641  function sendRewardToReferrer(address userAddress, uint8 round, uint rewardValue) private {\r... */\n    tag_308:\n        /* \"contract/lottery.sol\":12812:12828  address referrer */\n      0x00\n        /* \"contract/lottery.sol\":12831:12836  users */\n      0x6b\n        /* \"contract/lottery.sol\":12831:12849  users[userAddress] */\n      0x00\n        /* \"contract/lottery.sol\":12837:12848  userAddress */\n      dup6\n        /* \"contract/lottery.sol\":12831:12849  users[userAddress] */\n      0xffffffffffffffffffffffffffffffffffffffff\n      and\n      0xffffffffffffffffffffffffffffffffffffffff\n      and\n      dup2\n      mstore\n      0x20\n      add\n      swap1\n      dup2\n      mstore\n      0x20\n      add\n      0x00\n      keccak256\n        /* \"contract/lottery.sol\":12831:12858  users[userAddress].referrer */\n      0x02\n      add\n      0x00\n      swap1\n      sload\n      swap1\n      0x0100\n      exp\n      swap1\n      div\n      0xffffffffffffffffffffffffffffffffffffffff\n      and\n        /* \"contract/lottery.sol\":12812:12858  address referrer = users[userAddress].referrer */\n      swap1\n      pop\n        /* \"contract/lottery.sol\":12884:12889  users */\n      0x6b\n        /* \"contract/lottery.sol\":12884:12899  users[referrer] */\n      0x00\n        /* \"contract/lottery.sol\":12890:12898  referrer */\n      dup3\n        /* \"contract/lottery.sol\":12884:12899  users[referrer] */\n      0xffffffffffffffffffffffffffffffffffffffff\n      and\n      0xffffffffffffffffffffffffffffffffffffffff\n      and\n      dup2\n      mstore\n      0x20\n      add\n      swap1\n      dup2\n      mstore\n      0x20\n      add\n      0x00\n      keccak256\n        /* \"contract/lottery.sol\":12884:12906  users[referrer].rounds */\n      0x07\n      add\n        /* \"contract/lottery.sol\":12884:12913  users[referrer].rounds[round] */\n      0x00\n        /* \"contract/lottery.sol\":12907:12912  round */\n      dup5\n        /* \"contract/lottery.sol\":12884:12913  users[referrer].rounds[round] */\n      0xff\n      and\n      0xff\n      and\n      dup2\n      mstore\n      0x20\n      add\n      swap1\n      dup2\n      mstore\n      0x20\n      add\n      0x00\n      keccak256\n        /* \"contract/lottery.sol\":12884:12920  users[referrer].rounds[round].active */\n      0x00\n      add\n      0x06\n      swap1\n      sload\n      swap1\n      0x0100\n      exp\n      swap1\n      div\n      0xff\n      and\n        /* \"contract/lottery.sol\":12879:13232  if (!users[referrer].rounds[round].active) {\r... */\n      tag_475\n      jumpi\n        /* \"contract/lottery.sol\":12980:12991  rewardValue */\n      dup2\n        /* \"contract/lottery.sol\":12937:12942  users */\n      0x6b\n        /* \"contract/lottery.sol\":12937:12952  users[referrer] */\n      0x00\n        /* \"contract/lottery.sol\":12943:12951  referrer */\n      dup4\n        /* \"contract/lottery.sol\":12937:12952  users[referrer] */\n      0xffffffffffffffffffffffffffffffffffffffff\n      and\n      0xffffffffffffffffffffffffffffffffffffffff\n      and\n      dup2\n      mstore\n      0x20\n      add\n      swap1\n      dup2\n      mstore\n      0x20\n      add\n      0x00\n      keccak256\n        /* \"contract/lottery.sol\":12937:12976  users[referrer].missedReferralPayoutSum */\n      0x06\n      add\n      0x00\n        /* \"contract/lottery.sol\":12937:12991  users[referrer].missedReferralPayoutSum += rewardValue */\n      dup3\n      dup3\n      sload\n      add\n      swap3\n      pop\n      pop\n      dup2\n      swap1\n      sstore\n      pop\n        /* \"contract/lottery.sol\":13060:13071  rewardValue */\n      dup2\n        /* \"contract/lottery.sol\":13006:13011  users */\n      0x6b\n        /* \"contract/lottery.sol\":13006:13021  users[referrer] */\n      0x00\n        /* \"contract/lottery.sol\":13012:13020  referrer */\n      dup4\n        /* \"contract/lottery.sol\":13006:13021  users[referrer] */\n      0xffffffffffffffffffffffffffffffffffffffff\n      and\n      0xffffffffffffffffffffffffffffffffffffffff\n      and\n      dup2\n      mstore\n      0x20\n      add\n      swap1\n      dup2\n      mstore\n      0x20\n      add\n      0x00\n      keccak256\n        /* \"contract/lottery.sol\":13006:13028  users[referrer].rounds */\n      0x07\n      add\n        /* \"contract/lottery.sol\":13006:13035  users[referrer].rounds[round] */\n      0x00\n        /* \"contract/lottery.sol\":13029:13034  round */\n      dup6\n        /* \"contract/lottery.sol\":13006:13035  users[referrer].rounds[round] */\n      0xff\n      and\n      0xff\n      and\n      dup2\n      mstore\n      0x20\n      add\n      swap1\n      dup2\n      mstore\n      0x20\n      add\n      0x00\n      keccak256\n        /* \"contract/lottery.sol\":13006:13056  users[referrer].rounds[round].missedRefferalProfit */\n      0x04\n      add\n      0x00\n        /* \"contract/lottery.sol\":13006:13071  users[referrer].rounds[round].missedRefferalProfit += rewardValue */\n      dup3\n      dup3\n      sload\n      add\n      swap3\n      pop\n      pop\n      dup2\n      swap1\n      sstore\n      pop\n        /* \"contract/lottery.sol\":13117:13125  referrer */\n      dup1\n        /* \"contract/lottery.sol\":13091:13189  MissedReferralPayout(now, referrer, users[referrer].id, users[userAddress].id, round, rewardValue) */\n      0xffffffffffffffffffffffffffffffffffffffff\n      and\n      0x71571cfdf540d399d1a547446d2f4090641fc35ae5bf0fa7148c5368a7d5912e\n        /* \"contract/lottery.sol\":13112:13115  now */\n      timestamp\n        /* \"contract/lottery.sol\":13127:13132  users */\n      0x6b\n        /* \"contract/lottery.sol\":13127:13142  users[referrer] */\n      0x00\n        /* \"contract/lottery.sol\":13133:13141  referrer */\n      dup6\n        /* \"contract/lottery.sol\":13127:13142  users[referrer] */\n      0xffffffffffffffffffffffffffffffffffffffff\n      and\n      0xffffffffffffffffffffffffffffffffffffffff\n      and\n      dup2\n      mstore\n      0x20\n      add\n      swap1\n      dup2\n      mstore\n      0x20\n      add\n      0x00\n      keccak256\n        /* \"contract/lottery.sol\":13127:13145  users[referrer].id */\n      0x00\n      add\n      sload\n        /* \"contract/lottery.sol\":13147:13152  users */\n      0x6b\n        /* \"contract/lottery.sol\":13147:13165  users[userAddress] */\n      0x00\n        /* \"contract/lottery.sol\":13153:13164  userAddress */\n      dup10\n        /* \"contract/lottery.sol\":13147:13165  users[userAddress] */\n      0xffffffffffffffffffffffffffffffffffffffff\n      and\n      0xffffffffffffffffffffffffffffffffffffffff\n      and\n      dup2\n      mstore\n      0x20\n      add\n      swap1\n      dup2\n      mstore\n      0x20\n      add\n      0x00\n      keccak256\n        /* \"contract/lottery.sol\":13147:13168  users[userAddress].id */\n      0x00\n      add\n      sload\n        /* \"contract/lottery.sol\":13170:13175  round */\n      dup8\n        /* \"contract/lottery.sol\":13177:13188  rewardValue */\n      dup8\n        /* \"contract/lottery.sol\":13091:13189  MissedReferralPayout(now, referrer, users[referrer].id, users[userAddress].id, round, rewardValue) */\n      mload(0x40)\n      dup1\n      dup7\n      dup2\n      mstore\n      0x20\n      add\n      dup6\n      dup2\n      mstore\n      0x20\n      add\n      dup5\n      dup2\n      mstore\n      0x20\n      add\n      dup4\n      0xff\n      and\n      dup2\n      mstore\n      0x20\n      add\n      dup3\n      dup2\n      mstore\n      0x20\n      add\n      swap6\n      pop\n      pop\n      pop\n      pop\n      pop\n      pop\n      mload(0x40)\n      dup1\n      swap2\n      sub\n      swap1\n      log2\n        /* \"contract/lottery.sol\":13215:13220  owner */\n      0x66\n      0x02\n      swap1\n      sload\n      swap1\n      0x0100\n      exp\n      swap1\n      div\n      0xffffffffffffffffffffffffffffffffffffffff\n      and\n        /* \"contract/lottery.sol\":13204:13220  referrer = owner */\n      swap1\n      pop\n        /* \"contract/lottery.sol\":12879:13232  if (!users[referrer].rounds[round].active) {\r... */\n    tag_475:\n        /* \"contract/lottery.sol\":13242:13251  bool sent */\n      0x00\n        /* \"contract/lottery.sol\":13262:13270  referrer */\n      dup2\n        /* \"contract/lottery.sol\":13254:13276  payable(referrer).send */\n      0xffffffffffffffffffffffffffffffffffffffff\n      and\n        /* \"contract/lottery.sol\":13254:13289  payable(referrer).send(rewardValue) */\n      0x08fc\n        /* \"contract/lottery.sol\":13277:13288  rewardValue */\n      dup5\n        /* \"contract/lottery.sol\":13254:13289  payable(referrer).send(rewardValue) */\n      swap1\n      dup2\n      iszero\n      mul\n      swap1\n      mload(0x40)\n      0x00\n      mload(0x40)\n      dup1\n      dup4\n      sub\n      dup2\n      dup6\n      dup9\n      dup9\n      call\n      swap4\n      pop\n      pop\n      pop\n      pop\n        /* \"contract/lottery.sol\":13242:13289  bool sent = payable(referrer).send(rewardValue) */\n      swap1\n      pop\n        /* \"contract/lottery.sol\":13304:13308  sent */\n      dup1\n        /* \"contract/lottery.sol\":13300:13634  if (sent) {\r... */\n      iszero\n      tag_477\n      jumpi\n        /* \"contract/lottery.sol\":13376:13387  rewardValue */\n      dup3\n        /* \"contract/lottery.sol\":13325:13330  users */\n      0x6b\n        /* \"contract/lottery.sol\":13325:13340  users[referrer] */\n      0x00\n        /* \"contract/lottery.sol\":13331:13339  referrer */\n      dup5\n        /* \"contract/lottery.sol\":13325:13340  users[referrer] */\n      0xffffffffffffffffffffffffffffffffffffffff\n      and\n      0xffffffffffffffffffffffffffffffffffffffff\n      and\n      dup2\n      mstore\n      0x20\n      add\n      swap1\n      dup2\n      mstore\n      0x20\n      add\n      0x00\n      keccak256\n        /* \"contract/lottery.sol\":13325:13347  users[referrer].rounds */\n      0x07\n      add\n        /* \"contract/lottery.sol\":13325:13354  users[referrer].rounds[round] */\n      0x00\n        /* \"contract/lottery.sol\":13348:13353  round */\n      dup7\n        /* \"contract/lottery.sol\":13325:13354  users[referrer].rounds[round] */\n      0xff\n      and\n      0xff\n      and\n      dup2\n      mstore\n      0x20\n      add\n      swap1\n      dup2\n      mstore\n      0x20\n      add\n      0x00\n      keccak256\n        /* \"contract/lottery.sol\":13325:13372  users[referrer].rounds[round].referralPayoutSum */\n      0x02\n      add\n      0x00\n        /* \"contract/lottery.sol\":13325:13387  users[referrer].rounds[round].referralPayoutSum += rewardValue */\n      dup3\n      dup3\n      sload\n      add\n      swap3\n      pop\n      pop\n      dup2\n      swap1\n      sstore\n      pop\n        /* \"contract/lottery.sol\":13439:13450  rewardValue */\n      dup3\n        /* \"contract/lottery.sol\":13402:13407  users */\n      0x6b\n        /* \"contract/lottery.sol\":13402:13417  users[referrer] */\n      0x00\n        /* \"contract/lottery.sol\":13408:13416  referrer */\n      dup5\n        /* \"contract/lottery.sol\":13402:13417  users[referrer] */\n      0xffffffffffffffffffffffffffffffffffffffff\n      and\n      0xffffffffffffffffffffffffffffffffffffffff\n      and\n      dup2\n      mstore\n      0x20\n      add\n      swap1\n      dup2\n      mstore\n      0x20\n      add\n      0x00\n      keccak256\n        /* \"contract/lottery.sol\":13402:13435  users[referrer].referralPayoutSum */\n      0x04\n      add\n      0x00\n        /* \"contract/lottery.sol\":13402:13450  users[referrer].referralPayoutSum += rewardValue */\n      dup3\n      dup3\n      sload\n      add\n      swap3\n      pop\n      pop\n      dup2\n      swap1\n      sstore\n      pop\n        /* \"contract/lottery.sol\":13490:13498  referrer */\n      dup2\n        /* \"contract/lottery.sol\":13470:13562  ReferralPayout(now, referrer, users[referrer].id, users[userAddress].id, round, rewardValue) */\n      0xffffffffffffffffffffffffffffffffffffffff\n      and\n      0xadbead61ed0e78434af1793fe9c549f995680ccc1d4cc2015e78bffc67b7b181\n        /* \"contract/lottery.sol\":13485:13488  now */\n      timestamp\n        /* \"contract/lottery.sol\":13500:13505  users */\n      0x6b\n        /* \"contract/lottery.sol\":13500:13515  users[referrer] */\n      0x00\n        /* \"contract/lottery.sol\":13506:13514  referrer */\n      dup7\n        /* \"contract/lottery.sol\":13500:13515  users[referrer] */\n      0xffffffffffffffffffffffffffffffffffffffff\n      and\n      0xffffffffffffffffffffffffffffffffffffffff\n      and\n      dup2\n      mstore\n      0x20\n      add\n      swap1\n      dup2\n      mstore\n      0x20\n      add\n      0x00\n      keccak256\n        /* \"contract/lottery.sol\":13500:13518  users[referrer].id */\n      0x00\n      add\n      sload\n        /* \"contract/lottery.sol\":13520:13525  users */\n      0x6b\n        /* \"contract/lottery.sol\":13520:13538  users[userAddress] */\n      0x00\n        /* \"contract/lottery.sol\":13526:13537  userAddress */\n      dup11\n        /* \"contract/lottery.sol\":13520:13538  users[userAddress] */\n      0xffffffffffffffffffffffffffffffffffffffff\n      and\n      0xffffffffffffffffffffffffffffffffffffffff\n      and\n      dup2\n      mstore\n      0x20\n      add\n      swap1\n      dup2\n      mstore\n      0x20\n      add\n      0x00\n      keccak256\n        /* \"contract/lottery.sol\":13520:13541  users[userAddress].id */\n      0x00\n      add\n      sload\n        /* \"contract/lottery.sol\":13543:13548  round */\n      dup9\n        /* \"contract/lottery.sol\":13550:13561  rewardValue */\n      dup9\n        /* \"contract/lottery.sol\":13470:13562  ReferralPayout(now, referrer, users[referrer].id, users[userAddress].id, round, rewardValue) */\n      mload(0x40)\n      dup1\n      dup7\n      dup2\n      mstore\n      0x20\n      add\n      dup6\n      dup2\n      mstore\n      0x20\n      add\n      dup5\n      dup2\n      mstore\n      0x20\n      add\n      dup4\n      0xff\n      and\n      dup2\n      mstore\n      0x20\n      add\n      dup3\n      dup2\n      mstore\n      0x20\n      add\n      swap6\n      pop\n      pop\n      pop\n      pop\n      pop\n      pop\n      mload(0x40)\n      dup1\n      swap2\n      sub\n      swap1\n      log2\n        /* \"contract/lottery.sol\":13300:13634  if (sent) {\r... */\n      jump(tag_478)\n    tag_477:\n        /* \"contract/lottery.sol\":13595:13600  owner */\n      0x66\n      0x02\n      swap1\n      sload\n      swap1\n      0x0100\n      exp\n      swap1\n      div\n      0xffffffffffffffffffffffffffffffffffffffff\n      and\n        /* \"contract/lottery.sol\":13595:13609  owner.transfer */\n      0xffffffffffffffffffffffffffffffffffffffff\n      and\n        /* \"contract/lottery.sol\":13595:13622  owner.transfer(rewardValue) */\n      0x08fc\n        /* \"contract/lottery.sol\":13610:13621  rewardValue */\n      dup5\n        /* \"contract/lottery.sol\":13595:13622  owner.transfer(rewardValue) */\n      swap1\n      dup2\n      iszero\n      mul\n      swap1\n      mload(0x40)\n      0x00\n      mload(0x40)\n      dup1\n      dup4\n      sub\n      dup2\n      dup6\n      dup9\n      dup9\n      call\n      swap4\n      pop\n      pop\n      pop\n      pop\n      iszero\n      dup1\n      iszero\n      tag_480\n      jumpi\n      returndatasize\n      0x00\n      dup1\n      returndatacopy\n      revert(0x00, returndatasize)\n    tag_480:\n      pop\n        /* \"contract/lottery.sol\":13300:13634  if (sent) {\r... */\n    tag_478:\n        /* \"contract/lottery.sol\":12702:13641  function sendRewardToReferrer(address userAddress, uint8 round, uint rewardValue) private {\r... */\n      pop\n      pop\n      pop\n      pop\n      pop\n      jump\t// out\n    tag_344:\n      mload(0x40)\n      dup1\n      0xa0\n      add\n      0x40\n      mstore\n      dup1\n      0x05\n      swap1\n      0x20\n      dup3\n      mul\n      dup1\n      calldatasize\n      dup4\n      calldatacopy\n      dup1\n      dup3\n      add\n      swap2\n      pop\n      pop\n      swap1\n      pop\n      pop\n      swap1\n      jump\t// out\n    tag_347:\n      mload(0x40)\n      dup1\n      0x0200\n      add\n      0x40\n      mstore\n      dup1\n      0x10\n      swap1\n      0x20\n      dup3\n      mul\n      dup1\n      calldatasize\n      dup4\n      calldatacopy\n      dup1\n      dup3\n      add\n      swap2\n      pop\n      pop\n      swap1\n      pop\n      pop\n      swap1\n      jump\t// out\n    tag_382:\n      mload(0x40)\n      dup1\n      0x0120\n      add\n      0x40\n      mstore\n      dup1\n      0x00\n      dup2\n      mstore\n      0x20\n      add\n      0x00\n      dup2\n      mstore\n      0x20\n      add\n      and(0xffffffffffffffffffffffffffffffffffffffff, 0x00)\n      dup2\n      mstore\n      0x20\n      add\n      0x00\n      dup2\n      mstore\n      0x20\n      add\n      0x00\n      dup2\n      mstore\n      0x20\n      add\n      0x00\n      dup2\n      mstore\n      0x20\n      add\n      0x00\n      dup2\n      mstore\n      0x20\n      add\n      and(0xff, 0x00)\n      dup2\n      mstore\n      0x20\n      add\n      0x00\n      dup2\n      mstore\n      pop\n      swap1\n      jump\t// out\n    tag_387:\n      mload(0x40)\n      dup1\n      0x0640\n      add\n      0x40\n      mstore\n      dup1\n      0x32\n      swap1\n      0x20\n      dup3\n      mul\n      dup1\n      calldatasize\n      dup4\n      calldatacopy\n      dup1\n      dup3\n      add\n      swap2\n      pop\n      pop\n      swap1\n      pop\n      pop\n      swap1\n      jump\t// out\n    stop\n    data_b6be230979c9056288d8dc9ecf24c47d930143c98ecebf6ab7c712e8601758a8 43616e27742066696e6420726f756e6420746f206275792e204d617962652073656e742076616c756520697320696e76616c69642e\n\n    auxdata: 0xa26469706673582212208c864f2342593033ce43ba47b85fd4c4eda264b9e3ad4abfd9cc00cc0a2528ea64736f6c634300060c0033\n}\n",
				"bytecode": {
					"linkReferences": {},
					"object": "60806040526009606660006101000a81548160ff021916908360ff1602179055506008606660016101000a81548160ff021916908360ff160217905550604051806102000160405280600067ffffffffffffffff16815260200166b1a2bc2ec5000067ffffffffffffffff16815260200167011c37937e08000067ffffffffffffffff1681526020016701cdda4faccd000067ffffffffffffffff16815260200167030d98d59a96000067ffffffffffffffff168152602001670494654067e1000067ffffffffffffffff1681526020016706f05b59d3b2000067ffffffffffffffff1681526020016709b6e64a8ec6000067ffffffffffffffff168152602001670e92596fd629000067ffffffffffffffff16815260200167141f6f514c51000067ffffffffffffffff168152602001671b0fcaab2003000067ffffffffffffffff16815260200167214e8348c4f0000067ffffffffffffffff1681526020016730927f74c9de000067ffffffffffffffff16815260200167482a1c730008000067ffffffffffffffff16815260200167654ecf52ac5a000067ffffffffffffffff168152602001678ac7230489e8000067ffffffffffffffff168152506068906010620001d0929190620006d6565b506001606880549050036069556002606a55348015620001ef57600080fd5b5060405162005a1738038062005a17833981810160405260208110156200021557600080fd5b8101908080519060200190929190505050600160008190555033606660026101000a81548173ffffffffffffffffffffffffffffffffffffffff021916908373ffffffffffffffffffffffffffffffffffffffff16021790555080606760006101000a81548173ffffffffffffffffffffffffffffffffffffffff021916908373ffffffffffffffffffffffffffffffffffffffff16021790555060405180610120016040528060018152602001428152602001600073ffffffffffffffffffffffffffffffffffffffff16815260200160008152602001600081526020016000815260200160008152602001600060ff1681526020016000815250606b6000606660029054906101000a900473ffffffffffffffffffffffffffffffffffffffff1673ffffffffffffffffffffffffffffffffffffffff1673ffffffffffffffffffffffffffffffffffffffff168152602001908152602001600020600082015181600001556020820151816001015560408201518160020160006101000a81548173ffffffffffffffffffffffffffffffffffffffff021916908373ffffffffffffffffffffffffffffffffffffffff160217905550606082015181600301556080820151816004015560a0820151816005015560c0820151816006015560e08201518160080160006101000a81548160ff021916908360ff1602179055506101008201518160090155905050606660029054906101000a900473ffffffffffffffffffffffffffffffffffffffff16606c60006001815260200190815260200160002060006101000a81548173ffffffffffffffffffffffffffffffffffffffff021916908373ffffffffffffffffffffffffffffffffffffffff160217905550606f60000160008154809291906001019190505550606f600101600081548092919060010191905055506000600190505b6069548160ff1611620006ce57620d2f00420160458260ff1660108110620004ee57fe5b01819055506001606b6000606660029054906101000a900473ffffffffffffffffffffffffffffffffffffffff1673ffffffffffffffffffffffffffffffffffffffff1673ffffffffffffffffffffffffffffffffffffffff16815260200190815260200160002060070160008360ff1660ff16815260200190815260200160002060000160066101000a81548160ff021916908315150217905550600f606b6000606660029054906101000a900473ffffffffffffffffffffffffffffffffffffffff1673ffffffffffffffffffffffffffffffffffffffff1673ffffffffffffffffffffffffffffffffffffffff16815260200190815260200160002060070160008360ff1660ff16815260200190815260200160002060000160026101000a81548161ffff021916908361ffff160217905550606d60008260ff1660ff168152602001908152602001600020606660029054906101000a900473ffffffffffffffffffffffffffffffffffffffff169080600181540180825580915050600190039060005260206000200160009091909190916101000a81548173ffffffffffffffffffffffffffffffffffffffff021916908373ffffffffffffffffffffffffffffffffffffffff1602179055508080600101915050620004ca565b505062000753565b82805482825590600052602060002090810192821562000721579160200282015b8281111562000720578251829067ffffffffffffffff16905591602001919060010190620006f7565b5b50905062000730919062000734565b5090565b5b808211156200074f57600081600090555060010162000735565b5090565b6152b480620007636000396000f3fe60806040526004361061024a5760003560e01c8063693864f311610139578063a7345f56116100b6578063bfe248931161007a578063bfe248931461106c578063c34f6b0d1461109a578063c8e161a1146110b1578063cfce504414611104578063eca2c0261461117d578063f21efb5b146111ab5761031b565b8063a7345f5614610e7a578063a87430ba14610ea8578063a9a9cfe014610f5e578063b3791e7f14610fc3578063bd4b77ee146110075761031b565b80638a03ad86116100fd5780638a03ad8614610d025780638c4636c114610d675780638da5cb5b14610dba578063950fabf314610dfb578063968763a014610e365761031b565b8063693864f314610b995780636f77926b14610be85780636f9fb98a14610ca25780637ccd94da14610ccd57806388b4504614610cf85761031b565b80632d3e474a116101c75780634cdbe9081161018b5780634cdbe908146109ae5780635a8a14d0146109dc5780635c279ff914610a0d5780635ce974b914610afb5780635d7b1cc914610b4a5761031b565b80632d3e474a146107e85780633336b63e14610829578063375e3b551461087c578063385399f9146108ce5780634a9fefc7146109335761031b565b8063216586581161020e57806321658658146104c9578063230f7f82146104f457806326efd443146107025780632a2c908e146107675780632cc8da43146107ba5761031b565b806301b91a1714610320578063162790551461038c578063163f7522146103f35780631aa3a0081461045a5780631dfd8fe0146104645761031b565b3661031b576000600190505b6069548160ff16116102c7573460688260ff168154811061027357fe5b906000526020600020015414156102ba5760018160ff1614801561029d575061029b336111d6565b155b156102ab576102aa611225565b5b6102b481611252565b50610319565b8080600101915050610256565b506040517f08c379a000000000000000000000000000000000000000000000000000000000815260040180806020018281038252603581526020018061524a6035913960400191505060405180910390fd5b005b600080fd5b34801561032c57600080fd5b506103356129f2565b6040518080602001828103825283818151815260200191508051906020019060200280838360005b8381101561037857808201518184015260208101905061035d565b505050509050019250505060405180910390f35b34801561039857600080fd5b506103db600480360360208110156103af57600080fd5b81019080803573ffffffffffffffffffffffffffffffffffffffff169060200190929190505050612a4a565b60405180821515815260200191505060405180910390f35b3480156103ff57600080fd5b506104426004803603602081101561041657600080fd5b81019080803573ffffffffffffffffffffffffffffffffffffffff1690602001909291905050506111d6565b60405180821515815260200191505060405180910390f35b610462611225565b005b34801561047057600080fd5b5061049d6004803603602081101561048757600080fd5b8101908080359060200190929190505050612a64565b604051808273ffffffffffffffffffffffffffffffffffffffff16815260200191505060405180910390f35b3480156104d557600080fd5b506104de612a97565b6040518082815260200191505060405180910390f35b34801561050057600080fd5b506105436004803603602081101561051757600080fd5b81019080803573ffffffffffffffffffffffffffffffffffffffff169060200190929190505050612a9c565b6040518080602001806020018060200180602001806020018060200187810387528d818151815260200191508051906020019060200280838360005b8381101561059a57808201518184015260208101905061057f565b5050505090500187810386528c818151815260200191508051906020019060200280838360005b838110156105dc5780820151818401526020810190506105c1565b5050505090500187810385528b818151815260200191508051906020019060200280838360005b8381101561061e578082015181840152602081019050610603565b5050505090500187810384528a818151815260200191508051906020019060200280838360005b83811015610660578082015181840152602081019050610645565b50505050905001878103835289818151815260200191508051906020019060200280838360005b838110156106a2578082015181840152602081019050610687565b50505050905001878103825288818151815260200191508051906020019060200280838360005b838110156106e45780820151818401526020810190506106c9565b505050509050019c5050505050505050505050505060405180910390f35b34801561070e57600080fd5b5061073b6004803603602081101561072557600080fd5b8101908080359060200190929190505050612ff2565b604051808273ffffffffffffffffffffffffffffffffffffffff16815260200191505060405180910390f35b34801561077357600080fd5b5061077c613025565b6040518082600560200280838360005b838110156107a757808201518184015260208101905061078c565b5050505090500191505060405180910390f35b3480156107c657600080fd5b506107cf61306c565b604051808260ff16815260200191505060405180910390f35b3480156107f457600080fd5b506107fd613071565b604051808273ffffffffffffffffffffffffffffffffffffffff16815260200191505060405180910390f35b34801561083557600080fd5b5061083e613097565b6040518082601060200280838360005b8381101561086957808201518184015260208101905061084e565b5050505090500191505060405180910390f35b34801561088857600080fd5b506108b86004803603602081101561089f57600080fd5b81019080803560ff1690602001909291905050506130e2565b6040518082815260200191505060405180910390f35b3480156108da57600080fd5b5061091d600480360360208110156108f157600080fd5b81019080803573ffffffffffffffffffffffffffffffffffffffff169060200190929190505050613153565b6040518082815260200191505060405180910390f35b34801561093f57600080fd5b506109826004803603602081101561095657600080fd5b81019080803573ffffffffffffffffffffffffffffffffffffffff16906020019092919050505061319f565b604051808273ffffffffffffffffffffffffffffffffffffffff16815260200191505060405180910390f35b3480156109ba57600080fd5b506109c3613286565b604051808260ff16815260200191505060405180910390f35b610a0b600480360360208110156109f257600080fd5b81019080803560ff169060200190929190505050611252565b005b348015610a1957600080fd5b50610a5c60048036036020811015610a3057600080fd5b81019080803573ffffffffffffffffffffffffffffffffffffffff169060200190929190505050613299565b604051808060200180602001838103835285818151815260200191508051906020019060200280838360005b83811015610aa3578082015181840152602081019050610a88565b50505050905001838103825284818151815260200191508051906020019060200280838360005b83811015610ae5578082015181840152602081019050610aca565b5050505090500194505050505060405180910390f35b348015610b0757600080fd5b50610b3460048036036020811015610b1e57600080fd5b810190808035906020019092919050505061345a565b6040518082815260200191505060405180910390f35b348015610b5657600080fd5b50610b8360048036036020811015610b6d57600080fd5b8101908080359060200190929190505050613472565b6040518082815260200191505060405180910390f35b348015610ba557600080fd5b50610bd260048036036020811015610bbc57600080fd5b8101908080359060200190929190505050613493565b6040518082815260200191505060405180910390f35b348015610bf457600080fd5b50610c3760048036036020811015610c0b57600080fd5b81019080803573ffffffffffffffffffffffffffffffffffffffff1690602001909291905050506134ab565b604051808b81526020018a81526020018981526020018873ffffffffffffffffffffffffffffffffffffffff1681526020018781526020018681526020018581526020018481526020018381526020018281526020019a505050505050505050505060405180910390f35b348015610cae57600080fd5b50610cb7613665565b6040518082815260200191505060405180910390f35b348015610cd957600080fd5b50610ce261366d565b6040518082815260200191505060405180910390f35b610d00613673565b005b348015610d0e57600080fd5b50610d3b60048036036020811015610d2557600080fd5b8101908080359060200190929190505050613675565b604051808273ffffffffffffffffffffffffffffffffffffffff16815260200191505060405180910390f35b348015610d7357600080fd5b50610d7c6136b2565b6040518082603260200280838360005b83811015610da7578082015181840152602081019050610d8c565b5050505090500191505060405180910390f35b348015610dc657600080fd5b50610dcf613733565b604051808273ffffffffffffffffffffffffffffffffffffffff16815260200191505060405180910390f35b348015610e0757600080fd5b50610e3460048036036020811015610e1e57600080fd5b8101908080359060200190929190505050613759565b005b610e7860048036036020811015610e4c57600080fd5b81019080803573ffffffffffffffffffffffffffffffffffffffff169060200190929190505050613c4e565b005b348015610e8657600080fd5b50610e8f614155565b604051808260ff16815260200191505060405180910390f35b348015610eb457600080fd5b50610ef760048036036020811015610ecb57600080fd5b81019080803573ffffffffffffffffffffffffffffffffffffffff169060200190929190505050614168565b604051808a81526020018981526020018873ffffffffffffffffffffffffffffffffffffffff1681526020018781526020018681526020018581526020018481526020018360ff168152602001828152602001995050505050505050505060405180910390f35b348015610f6a57600080fd5b50610fad60048036036020811015610f8157600080fd5b81019080803573ffffffffffffffffffffffffffffffffffffffff1690602001909291905050506141e3565b6040518082815260200191505060405180910390f35b61100560048036036020811015610fd957600080fd5b81019080803573ffffffffffffffffffffffffffffffffffffffff1690602001909291905050506141fb565b005b34801561101357600080fd5b506110566004803603602081101561102a57600080fd5b81019080803573ffffffffffffffffffffffffffffffffffffffff169060200190929190505050614211565b6040518082815260200191505060405180910390f35b34801561107857600080fd5b506110816142c4565b604051808260ff16815260200191505060405180910390f35b3480156110a657600080fd5b506110af6142c9565b005b3480156110bd57600080fd5b506110c66144d7565b6040518082601060200280838360005b838110156110f15780820151818401526020810190506110d6565b5050505090500191505060405180910390f35b34801561111057600080fd5b506111606004803603604081101561112757600080fd5b81019080803573ffffffffffffffffffffffffffffffffffffffff169060200190929190803560ff169060200190929190505050614522565b604051808381526020018281526020019250505060405180910390f35b34801561118957600080fd5b50611192614755565b604051808260ff16815260200191505060405180910390f35b3480156111b757600080fd5b506111c061475a565b6040518082815260200191505060405180910390f35b600080606b60008473ffffffffffffffffffffffffffffffffffffffff1673ffffffffffffffffffffffffffffffffffffffff1681526020019081526020016000206000015414159050919050565b611250606660029054906101000a900473ffffffffffffffffffffffffffffffffffffffff16613c4e565b565b600260005414156112cb576040517f08c379a000000000000000000000000000000000000000000000000000000000815260040180806020018281038252601f8152602001807f5265656e7472616e637947756172643a207265656e7472616e742063616c6c0081525060200191505060405180910390fd5b60026000819055506112dc336111d6565b61134e576040517f08c379a00000000000000000000000000000000000000000000000000000000081526004018080602001828103825260168152602001807f55736572206973206e6f7420726567697374657265640000000000000000000081525060200191505060405180910390fd5b60008160ff1611801561136657506069548160ff1611155b6113d8576040517f08c379a000000000000000000000000000000000000000000000000000000000815260040180806020018281038252600d8152602001807f496e76616c696420726f756e640000000000000000000000000000000000000081525060200191505060405180910390fd5b3460688260ff16815481106113e957fe5b906000526020600020015414611467576040517f08c379a00000000000000000000000000000000000000000000000000000000081526004018080602001828103825260118152602001807f496e76616c696420424e422076616c756500000000000000000000000000000081525060200191505060405180910390fd5b61147033612a4a565b156114e3576040517f08c379a00000000000000000000000000000000000000000000000000000000081526004018080602001828103825260158152602001807f43616e206e6f74206265206120636f6e7472616374000000000000000000000081525060200191505060405180910390fd5b6001606b60003373ffffffffffffffffffffffffffffffffffffffff1673ffffffffffffffffffffffffffffffffffffffff16815260200190815260200160002060080160009054906101000a900460ff160160ff168160ff1611156115b1576040517f08c379a00000000000000000000000000000000000000000000000000000000081526004018080602001828103825260138152602001807f526f756e64206e6f7420617661696c61626c650000000000000000000000000081525060200191505060405180910390fd5b4260458260ff16601081106115c257fe5b015410156117035760006115d5826130e2565b9050600060558360ff16601081106115e957fe5b0160009054906101000a900473ffffffffffffffffffffffffffffffffffffffff1673ffffffffffffffffffffffffffffffffffffffff166108fc839081150290604051600060405180830381858888f19350505050905080156116fc576201518060458460ff166010811061165b57fe5b016000828254019250508190555060558360ff166010811061167957fe5b0160009054906101000a900473ffffffffffffffffffffffffffffffffffffffff1673ffffffffffffffffffffffffffffffffffffffff167f8ea1a10de3733db603227ca0e3cd0feb6da4f1c33fb15cb9265fa333a64797c2428585604051808481526020018360ff168152602001828152602001935050505060405180910390a25b5050611739565b610e1060458260ff166010811061171657fe5b016000828254019250508190555042604560006010811061173357fe5b01819055505b3360558260ff166010811061174a57fe5b0160006101000a81548173ffffffffffffffffffffffffffffffffffffffff021916908373ffffffffffffffffffffffffffffffffffffffff160217905550606b60003373ffffffffffffffffffffffffffffffffffffffff1673ffffffffffffffffffffffffffffffffffffffff168152602001908152602001600020600801600081819054906101000a900460ff168092919060010191906101000a81548160ff021916908360ff1602179055505034606b60003373ffffffffffffffffffffffffffffffffffffffff1673ffffffffffffffffffffffffffffffffffffffff16815260200190815260200160002060090160008282540192505081905550606f6001016000815480929190600101919050555034606f6002016000828254019250508190555042606560003373ffffffffffffffffffffffffffffffffffffffff1673ffffffffffffffffffffffffffffffffffffffff1681526020019081526020016000208190555042606b60003373ffffffffffffffffffffffffffffffffffffffff1673ffffffffffffffffffffffffffffffffffffffff16815260200190815260200160002060070160008360ff1660ff1681526020019081526020016000206003018190555060006064348161192457fe5b049050606b60003373ffffffffffffffffffffffffffffffffffffffff1673ffffffffffffffffffffffffffffffffffffffff16815260200190815260200160002060070160008360ff1660ff16815260200190815260200160002060000160069054906101000a900460ff16611c4957606b60003373ffffffffffffffffffffffffffffffffffffffff1673ffffffffffffffffffffffffffffffffffffffff16815260200190815260200160002060070160008360ff1660ff168152602001908152602001600020600001600081819054906101000a900461ffff168092919060010191906101000a81548161ffff021916908361ffff16021790555050600260ff16606b60003373ffffffffffffffffffffffffffffffffffffffff1673ffffffffffffffffffffffffffffffffffffffff16815260200190815260200160002060070160008460ff1660ff16815260200190815260200160002060000160028282829054906101000a900461ffff160192506101000a81548161ffff021916908361ffff1602179055506001606b60003373ffffffffffffffffffffffffffffffffffffffff1673ffffffffffffffffffffffffffffffffffffffff16815260200190815260200160002060070160008460ff1660ff16815260200190815260200160002060000160066101000a81548160ff021916908315150217905550606d60008360ff1660ff168152602001908152602001600020339080600181540180825580915050600190039060005260206000200160009091909190916101000a81548173ffffffffffffffffffffffffffffffffffffffff021916908373ffffffffffffffffffffffffffffffffffffffff1602179055503373ffffffffffffffffffffffffffffffffffffffff167f2f201bc547acc49919922eaf7ecea9f3389adca4dc6ab3fb4a7498cbbaac63a242606b60003373ffffffffffffffffffffffffffffffffffffffff1673ffffffffffffffffffffffffffffffffffffffff1681526020019081526020016000206000015485604051808481526020018381526020018260ff168152602001935050505060405180910390a2611e80565b606b60003373ffffffffffffffffffffffffffffffffffffffff1673ffffffffffffffffffffffffffffffffffffffff16815260200190815260200160002060070160008360ff1660ff168152602001908152602001600020600001600081819054906101000a900461ffff168092919060010191906101000a81548161ffff021916908361ffff16021790555050600260ff16606b60003373ffffffffffffffffffffffffffffffffffffffff1673ffffffffffffffffffffffffffffffffffffffff16815260200190815260200160002060070160008460ff1660ff16815260200190815260200160002060000160028282829054906101000a900461ffff160192506101000a81548161ffff021916908361ffff1602179055503373ffffffffffffffffffffffffffffffffffffffff167f31bfa9ab73d15b5d752f5928d978dd4daba1b2dd420bb2d965c54cfe366c553442606b60003373ffffffffffffffffffffffffffffffffffffffff1673ffffffffffffffffffffffffffffffffffffffff1681526020019081526020016000206000015485606b60003373ffffffffffffffffffffffffffffffffffffffff1673ffffffffffffffffffffffffffffffffffffffff16815260200190815260200160002060070160008860ff1660ff16815260200190815260200160002060000160029054906101000a900461ffff16604051808581526020018481526020018360ff1681526020018261ffff16815260200194505050505060405180910390a25b6000604b60ff16820290503373ffffffffffffffffffffffffffffffffffffffff16606d60008560ff1660ff168152602001908152602001600020606e60008660ff1660ff1681526020019081526020016000205481548110611edf57fe5b9060005260206000200160009054906101000a900473ffffffffffffffffffffffffffffffffffffffff1673ffffffffffffffffffffffffffffffffffffffff16146126a2576000606d60008560ff1660ff168152602001908152602001600020606e60008660ff1660ff1681526020019081526020016000205481548110611f6457fe5b9060005260206000200160009054906101000a900473ffffffffffffffffffffffffffffffffffffffff16905060008173ffffffffffffffffffffffffffffffffffffffff166108fc849081150290604051600060405180830381858888f1935050505090508015612322576000606660019054906101000a900460ff1660ff1685029050611ff4838783614760565b83606b60008573ffffffffffffffffffffffffffffffffffffffff1673ffffffffffffffffffffffffffffffffffffffff16815260200190815260200160002060070160008860ff1660ff16815260200190815260200160002060010160008282540192505081905550606b60008473ffffffffffffffffffffffffffffffffffffffff1673ffffffffffffffffffffffffffffffffffffffff16815260200190815260200160002060070160008760ff1660ff168152602001908152602001600020600001600481819054906101000a900461ffff168092919060010191906101000a81548161ffff021916908361ffff1602179055505083606b60008573ffffffffffffffffffffffffffffffffffffffff1673ffffffffffffffffffffffffffffffffffffffff1681526020019081526020016000206005016000828254019250508190555083606b60008573ffffffffffffffffffffffffffffffffffffffff1673ffffffffffffffffffffffffffffffffffffffff16815260200190815260200160002060090160008282540192505081905550606b60008473ffffffffffffffffffffffffffffffffffffffff1673ffffffffffffffffffffffffffffffffffffffff16815260200190815260200160002060070160008760ff1660ff168152602001908152602001600020600301544203632efe0780816121f857fe5b0460358760ff166010811061220957fe5b01819055503373ffffffffffffffffffffffffffffffffffffffff167fe4183700b5bfcfeaf533b813f60f33ff4a041fa7bf73db1dd14fbb3eace4fa3542606b60008773ffffffffffffffffffffffffffffffffffffffff1673ffffffffffffffffffffffffffffffffffffffff168152602001908152602001600020600001548988606b60003373ffffffffffffffffffffffffffffffffffffffff1673ffffffffffffffffffffffffffffffffffffffff1681526020019081526020016000206000015460358d60ff16601081106122df57fe5b0154604051808781526020018681526020018560ff168152602001848152602001838152602001828152602001965050505050505060405180910390a25061238c565b606660029054906101000a900473ffffffffffffffffffffffffffffffffffffffff1673ffffffffffffffffffffffffffffffffffffffff166108fc849081150290604051600060405180830381858888f1935050505015801561238a573d6000803e3d6000fd5b505b606b60008373ffffffffffffffffffffffffffffffffffffffff1673ffffffffffffffffffffffffffffffffffffffff16815260200190815260200160002060070160008660ff1660ff16815260200190815260200160002060000160029054906101000a900461ffff1661ffff16606b60008473ffffffffffffffffffffffffffffffffffffffff1673ffffffffffffffffffffffffffffffffffffffff16815260200190815260200160002060070160008760ff1660ff16815260200190815260200160002060000160049054906101000a900461ffff1661ffff1610156124ef57606d60008660ff1660ff168152602001908152602001600020829080600181540180825580915050600190039060005260206000200160009091909190916101000a81548173ffffffffffffffffffffffffffffffffffffffff021916908373ffffffffffffffffffffffffffffffffffffffff160217905550612608565b6000606b60008473ffffffffffffffffffffffffffffffffffffffff1673ffffffffffffffffffffffffffffffffffffffff16815260200190815260200160002060070160008760ff1660ff16815260200190815260200160002060000160066101000a81548160ff0219169083151502179055503373ffffffffffffffffffffffffffffffffffffffff167f1524ba6dfa482cf4eda16273d76657ddb7f563b2e8a6c3f294564de0ffc6621142606b60008673ffffffffffffffffffffffffffffffffffffffff1673ffffffffffffffffffffffffffffffffffffffff1681526020019081526020016000206000015488604051808481526020018381526020018260ff168152602001935050505060405180910390a25b606d60008660ff1660ff168152602001908152602001600020606e60008760ff1660ff168152602001908152602001600020548154811061264557fe5b9060005260206000200160006101000a81549073ffffffffffffffffffffffffffffffffffffffff0219169055606e60008660ff1660ff1681526020019081526020016000206000815480929190600101919050555050506128bb565b606660029054906101000a900473ffffffffffffffffffffffffffffffffffffffff1673ffffffffffffffffffffffffffffffffffffffff166108fc829081150290604051600060405180830381858888f1935050505015801561270a573d6000803e3d6000fd5b50606b6000606660029054906101000a900473ffffffffffffffffffffffffffffffffffffffff1673ffffffffffffffffffffffffffffffffffffffff1673ffffffffffffffffffffffffffffffffffffffff16815260200190815260200160002060070160008460ff1660ff168152602001908152602001600020600001600481819054906101000a900461ffff168092919060010191906101000a81548161ffff021916908361ffff1602179055505080606b6000606660029054906101000a900473ffffffffffffffffffffffffffffffffffffffff1673ffffffffffffffffffffffffffffffffffffffff1673ffffffffffffffffffffffffffffffffffffffff16815260200190815260200160002060070160008560ff1660ff1681526020019081526020016000206001016000828254019250508190555080606b6000606660029054906101000a900473ffffffffffffffffffffffffffffffffffffffff1673ffffffffffffffffffffffffffffffffffffffff1673ffffffffffffffffffffffffffffffffffffffff168152602001908152602001600020600501600082825401925050819055505b6000606660009054906101000a900460ff1660ff16830290506128df338583614c6e565b6000606760009054906101000a900473ffffffffffffffffffffffffffffffffffffffff1673ffffffffffffffffffffffffffffffffffffffff16600760ff16850260405180600001905060006040518083038185875af1925050503d8060008114612967576040519150601f19603f3d011682016040523d82523d6000602084013e61296c565b606091505b50509050806129e3576040517f08c379a000000000000000000000000000000000000000000000000000000000815260040180806020018281038252601f8152602001807f7472616e73666572206661696c6564207768696c652062757920726f756e640081525060200191505060405180910390fd5b50505050600160008190555050565b60606068805480602002602001604051908101604052809291908181526020018280548015612a4057602002820191906000526020600020905b815481526020019060010190808311612a2c575b5050505050905090565b600080823b905060008163ffffffff161415915050919050565b60018160328110612a7157fe5b016000915054906101000a900473ffffffffffffffffffffffffffffffffffffffff1681565b600081565b606080606080606080606060016069540167ffffffffffffffff81118015612ac357600080fd5b50604051908082528060200260200182016040528015612af25781602001602082028036833780820191505090505b509050606060016069540167ffffffffffffffff81118015612b1357600080fd5b50604051908082528060200260200182016040528015612b425781602001602082028036833780820191505090505b509050606060016069540167ffffffffffffffff81118015612b6357600080fd5b50604051908082528060200260200182016040528015612b925781602001602082028036833780820191505090505b509050606060016069540167ffffffffffffffff81118015612bb357600080fd5b50604051908082528060200260200182016040528015612be25781602001602082028036833780820191505090505b509050606060016069540167ffffffffffffffff81118015612c0357600080fd5b50604051908082528060200260200182016040528015612c325781602001602082028036833780820191505090505b509050606060016069540167ffffffffffffffff81118015612c5357600080fd5b50604051908082528060200260200182016040528015612c825781602001602082028036833780820191505090505b5090506000600190505b6069548160ff1611612fd057606b60008f73ffffffffffffffffffffffffffffffffffffffff1673ffffffffffffffffffffffffffffffffffffffff16815260200190815260200160002060070160008260ff1660ff16815260200190815260200160002060000160069054906101000a900460ff16878260ff1681518110612d1157fe5b602002602001019015159081151581525050606b60008f73ffffffffffffffffffffffffffffffffffffffff1673ffffffffffffffffffffffffffffffffffffffff16815260200190815260200160002060070160008260ff1660ff16815260200190815260200160002060000160049054906101000a900461ffff16868260ff1681518110612d9d57fe5b602002602001019061ffff16908161ffff1681525050606b60008f73ffffffffffffffffffffffffffffffffffffffff1673ffffffffffffffffffffffffffffffffffffffff16815260200190815260200160002060070160008260ff1660ff16815260200190815260200160002060000160029054906101000a900461ffff16858260ff1681518110612e2d57fe5b602002602001019061ffff16908161ffff1681525050606b60008f73ffffffffffffffffffffffffffffffffffffffff1673ffffffffffffffffffffffffffffffffffffffff16815260200190815260200160002060070160008260ff1660ff16815260200190815260200160002060000160009054906101000a900461ffff16848260ff1681518110612ebd57fe5b602002602001019061ffff16908161ffff1681525050606b60008f73ffffffffffffffffffffffffffffffffffffffff1673ffffffffffffffffffffffffffffffffffffffff16815260200190815260200160002060070160008260ff1660ff16815260200190815260200160002060010154838260ff1681518110612f3f57fe5b602002602001018181525050606b60008f73ffffffffffffffffffffffffffffffffffffffff1673ffffffffffffffffffffffffffffffffffffffff16815260200190815260200160002060070160008260ff1660ff16815260200190815260200160002060020154828260ff1681518110612fb757fe5b6020026020010181815250508080600101915050612c8c565b508585858585859b509b509b509b509b509b5050505050505091939550919395565b60558160108110612fff57fe5b016000915054906101000a900473ffffffffffffffffffffffffffffffffffffffff1681565b61302d61517c565b6040518060a00160405280606f600001548152602001606f600101548152602001606f6002015481526020016033548152602001603454815250905090565b600281565b606760009054906101000a900473ffffffffffffffffffffffffffffffffffffffff1681565b61309f61519e565b60456010806020026040519081016040528092919082601080156130d8576020028201915b8154815260200190600101908083116130c4575b5050505050905090565b6000806000600190505b6069548160ff16116131245760688160ff168154811061310857fe5b90600052602060002001548201915080806001019150506130ec565b5060688360ff168154811061313557fe5b906000526020600020015481478161314957fe5b0402915050919050565b6000606b60008373ffffffffffffffffffffffffffffffffffffffff1673ffffffffffffffffffffffffffffffffffffffff168152602001908152602001600020600001549050919050565b60006131aa826111d6565b61321c576040517f08c379a00000000000000000000000000000000000000000000000000000000081526004018080602001828103825260168152602001807f55736572206973206e6f7420726567697374657265640000000000000000000081525060200191505060405180910390fd5b606b60008373ffffffffffffffffffffffffffffffffffffffff1673ffffffffffffffffffffffffffffffffffffffff16815260200190815260200160002060020160009054906101000a900473ffffffffffffffffffffffffffffffffffffffff169050919050565b606660009054906101000a900460ff1681565b606080606060016069540167ffffffffffffffff811180156132ba57600080fd5b506040519080825280602002602001820160405280156132e95781602001602082028036833780820191505090505b509050606060016069540167ffffffffffffffff8111801561330a57600080fd5b506040519080825280602002602001820160405280156133395781602001602082028036833780820191505090505b5090506000600190505b6069548160ff161161344c57606b60008773ffffffffffffffffffffffffffffffffffffffff1673ffffffffffffffffffffffffffffffffffffffff16815260200190815260200160002060070160008260ff1660ff16815260200190815260200160002060040154838260ff16815181106133bb57fe5b602002602001018181525050606b60008773ffffffffffffffffffffffffffffffffffffffff1673ffffffffffffffffffffffffffffffffffffffff16815260200190815260200160002060070160008260ff1660ff16815260200190815260200160002060050154828260ff168151811061343357fe5b6020026020010181815250508080600101915050613343565b508181935093505050915091565b6045816010811061346757fe5b016000915090505481565b6068818154811061347f57fe5b906000526020600020016000915090505481565b603581601081106134a057fe5b016000915090505481565b6000806000806000806000806000806134c26151c1565b606b60008d73ffffffffffffffffffffffffffffffffffffffff1673ffffffffffffffffffffffffffffffffffffffff1681526020019081526020016000206040518061012001604052908160008201548152602001600182015481526020016002820160009054906101000a900473ffffffffffffffffffffffffffffffffffffffff1673ffffffffffffffffffffffffffffffffffffffff1673ffffffffffffffffffffffffffffffffffffffff168152602001600382015481526020016004820154815260200160058201548152602001600682015481526020016008820160009054906101000a900460ff1660ff1660ff168152602001600982015481525050905080600001518160200151606b6000846040015173ffffffffffffffffffffffffffffffffffffffff1673ffffffffffffffffffffffffffffffffffffffff168152602001908152602001600020600001548360400151846060015185608001518660a001518760c001518860e001518961010001518160ff1691509a509a509a509a509a509a509a509a509a509a50509193959799509193959799565b600047905090565b60345481565b565b6000606c600083815260200190815260200160002060009054906101000a900473ffffffffffffffffffffffffffffffffffffffff169050919050565b6136ba615226565b6001603280602002604051908101604052809291908260328015613729576020028201915b8160009054906101000a900473ffffffffffffffffffffffffffffffffffffffff1673ffffffffffffffffffffffffffffffffffffffff16815260200190600101908083116136df575b5050505050905090565b606660029054906101000a900473ffffffffffffffffffffffffffffffffffffffff1681565b606660029054906101000a900473ffffffffffffffffffffffffffffffffffffffff1673ffffffffffffffffffffffffffffffffffffffff163373ffffffffffffffffffffffffffffffffffffffff161461381c576040517f08c379a00000000000000000000000000000000000000000000000000000000081526004018080602001828103825260158152602001807f796f7520617265206e6f7420616e206f776e657221000000000000000000000081525060200191505060405180910390fd5b60005b60318160ff161161388857600060018260ff166032811061383c57fe5b0160006101000a81548173ffffffffffffffffffffffffffffffffffffffff021916908373ffffffffffffffffffffffffffffffffffffffff160217905550808060010191505061381f565b50600080600190505b6069548160ff161161399e576000606e60008360ff1660ff1681526020019081526020016000205490505b606d60008360ff1660ff1681526020019081526020016000208054905081101561399057426201518060656000606d60008760ff1660ff168152602001908152602001600020858154811061390d57fe5b9060005260206000200160009054906101000a900473ffffffffffffffffffffffffffffffffffffffff1673ffffffffffffffffffffffffffffffffffffffff1673ffffffffffffffffffffffffffffffffffffffff168152602001908152602001600020540111156139835782806001019350505b80806001019150506138bc565b508080600101915050613891565b5081600247816139aa57fe5b04816139b257fe5b046033819055504260348190555060008282816139cb57fe5b0490506000806000600190505b6069548160ff1611613c46576000606e60008360ff1660ff1681526020019081526020016000205490505b606d60008360ff1660ff16815260200190815260200160002080549050811015613c385783806001019450506000858581613a3a57fe5b06148015613ad95750426201518060656000606d60008760ff1660ff1681526020019081526020016000208581548110613a7057fe5b9060005260206000200160009054906101000a900473ffffffffffffffffffffffffffffffffffffffff1673ffffffffffffffffffffffffffffffffffffffff1673ffffffffffffffffffffffffffffffffffffffff1681526020019081526020016000205401115b15613c2b57606d60008360ff1660ff1681526020019081526020016000208181548110613b0257fe5b9060005260206000200160009054906101000a900473ffffffffffffffffffffffffffffffffffffffff1660018460ff1660328110613b3d57fe5b0160006101000a81548173ffffffffffffffffffffffffffffffffffffffff021916908373ffffffffffffffffffffffffffffffffffffffff1602179055508280600101935050606d60008360ff1660ff1681526020019081526020016000208181548110613ba857fe5b9060005260206000200160009054906101000a900473ffffffffffffffffffffffffffffffffffffffff1673ffffffffffffffffffffffffffffffffffffffff167fedac0922924cc83017073b98842693d865d06a82c38175d4a1cb0811ef86193f42603354604051808381526020018281526020019250505060405180910390a25b8080600101915050613a03565b5080806001019150506139d8565b505050505050565b613c57816111d6565b613cc9576040517f08c379a000000000000000000000000000000000000000000000000000000000815260040180806020018281038252601a8152602001807f5265666572726572206973206e6f74207265676973746572656400000000000081525060200191505060405180910390fd5b613cd2336111d6565b15613d45576040517f08c379a00000000000000000000000000000000000000000000000000000000081526004018080602001828103825260178152602001807f5573657220616c7265616479207265676973746572656400000000000000000081525060200191505060405180910390fd5b613d4e33612a4a565b15613dc1576040517f08c379a00000000000000000000000000000000000000000000000000000000081526004018080602001828103825260158152602001807f43616e206e6f74206265206120636f6e7472616374000000000000000000000081525060200191505060405180910390fd5b613dc96151c1565b604051806101200160405280606a60008154809291906001019190505581526020014281526020018373ffffffffffffffffffffffffffffffffffffffff16815260200160008152602001600081526020016000815260200160008152602001600060ff1681526020016000815250905080606b60003373ffffffffffffffffffffffffffffffffffffffff1673ffffffffffffffffffffffffffffffffffffffff168152602001908152602001600020600082015181600001556020820151816001015560408201518160020160006101000a81548173ffffffffffffffffffffffffffffffffffffffff021916908373ffffffffffffffffffffffffffffffffffffffff160217905550606082015181600301556080820151816004015560a0820151816005015560c0820151816006015560e08201518160080160006101000a81548160ff021916908360ff160217905550610100820151816009015590505033606c60008360000151815260200190815260200160002060006101000a81548173ffffffffffffffffffffffffffffffffffffffff021916908373ffffffffffffffffffffffffffffffffffffffff1602179055506000600190506000839050600073ffffffffffffffffffffffffffffffffffffffff168173ffffffffffffffffffffffffffffffffffffffff161461408157606b60008273ffffffffffffffffffffffffffffffffffffffff1673ffffffffffffffffffffffffffffffffffffffff16815260200190815260200160002060030160008154809291906001019190505550606b60008273ffffffffffffffffffffffffffffffffffffffff1673ffffffffffffffffffffffffffffffffffffffff16815260200190815260200160002060020160009054906101000a900473ffffffffffffffffffffffffffffffffffffffff16905081806001019250505b606f60000160008154809291906001019190505550606f600101600081548092919060010191905055503373ffffffffffffffffffffffffffffffffffffffff167f588149fb6f65171a24789e864d05feb177506df6fc9e86c55d0d19b5122bdffc428560000151606b60008973ffffffffffffffffffffffffffffffffffffffff1673ffffffffffffffffffffffffffffffffffffffff1681526020019081526020016000206000015460405180848152602001838152602001828152602001935050505060405180910390a250505050565b606660019054906101000a900460ff1681565b606b6020528060005260406000206000915090508060000154908060010154908060020160009054906101000a900473ffffffffffffffffffffffffffffffffffffffff16908060030154908060040154908060050154908060060154908060080160009054906101000a900460ff16908060090154905089565b60656020528060005260406000206000915090505481565b61420481613c4e565b61420e6001611252565b50565b600080606b60008473ffffffffffffffffffffffffffffffffffffffff1673ffffffffffffffffffffffffffffffffffffffff16815260200190815260200160002060020160009054906101000a900473ffffffffffffffffffffffffffffffffffffffff169050606b60008273ffffffffffffffffffffffffffffffffffffffff1673ffffffffffffffffffffffffffffffffffffffff16815260200190815260200160002060000154915050919050565b604b81565b60026000541415614342576040517f08c379a000000000000000000000000000000000000000000000000000000000815260040180806020018281038252601f8152602001807f5265656e7472616e637947756172643a207265656e7472616e742063616c6c0081525060200191505060405180910390fd5b600260008190555060005b60318160ff16116144cc573373ffffffffffffffffffffffffffffffffffffffff1660018260ff166032811061437f57fe5b0160009054906101000a900473ffffffffffffffffffffffffffffffffffffffff1673ffffffffffffffffffffffffffffffffffffffff1614156144bf57606f60030160008154809291906001019190505550600060018260ff16603281106143e457fe5b0160006101000a81548173ffffffffffffffffffffffffffffffffffffffff021916908373ffffffffffffffffffffffffffffffffffffffff16021790555060003373ffffffffffffffffffffffffffffffffffffffff166108fc6033549081150290604051600060405180830381858888f19350505050905080156144bd573373ffffffffffffffffffffffffffffffffffffffff167f7c73022fe9ef1ddffacfe32ab067b48a23250b0c20fbabeace91e3cd9e63a9c042603354604051808381526020018281526020019250505060405180910390a25b505b808060010191505061434d565b506001600081905550565b6144df61519e565b6035601080602002604051908101604052809291908260108015614518576020028201915b815481526020019060010190808311614504575b5050505050905090565b60008060008360ff1611801561453d57506069548360ff1611155b6145af576040517f08c379a000000000000000000000000000000000000000000000000000000000815260040180806020018281038252600d8152602001807f496e76616c696420726f756e640000000000000000000000000000000000000081525060200191505060405180910390fd5b606b60008573ffffffffffffffffffffffffffffffffffffffff1673ffffffffffffffffffffffffffffffffffffffff16815260200190815260200160002060070160008460ff1660ff16815260200190815260200160002060000160069054906101000a900460ff16614629576000809150915061474e565b600080606e60008660ff1660ff1681526020019081526020016000205490505b606d60008660ff1660ff168152602001908152602001600020805490508110156147485781806001019250508573ffffffffffffffffffffffffffffffffffffffff16606d60008760ff1660ff16815260200190815260200160002082815481106146b057fe5b9060005260206000200160009054906101000a900473ffffffffffffffffffffffffffffffffffffffff1673ffffffffffffffffffffffffffffffffffffffff16141561473b5781606e60008760ff1660ff16815260200190815260200160002054606d60008860ff1660ff168152602001908152602001600020805490500393509350505061474e565b8080600101915050614649565b50600080fd5b9250929050565b600781565b60335481565b6000606b60008573ffffffffffffffffffffffffffffffffffffffff1673ffffffffffffffffffffffffffffffffffffffff16815260200190815260200160002060020160009054906101000a900473ffffffffffffffffffffffffffffffffffffffff169050606b60008273ffffffffffffffffffffffffffffffffffffffff1673ffffffffffffffffffffffffffffffffffffffff16815260200190815260200160002060070160008460ff1660ff16815260200190815260200160002060000160069054906101000a900460ff16614a0a5781606b60008373ffffffffffffffffffffffffffffffffffffffff1673ffffffffffffffffffffffffffffffffffffffff1681526020019081526020016000206006016000828254019250508190555081606b60008373ffffffffffffffffffffffffffffffffffffffff1673ffffffffffffffffffffffffffffffffffffffff16815260200190815260200160002060070160008560ff1660ff168152602001908152602001600020600501600082825401925050819055508073ffffffffffffffffffffffffffffffffffffffff167f0883bf1f67528bdc0cbaa14cb71f54e9f4e65ec49eceaf639cb93a9e50aefc4c42606b60008573ffffffffffffffffffffffffffffffffffffffff1673ffffffffffffffffffffffffffffffffffffffff16815260200190815260200160002060000154606b60008973ffffffffffffffffffffffffffffffffffffffff1673ffffffffffffffffffffffffffffffffffffffff168152602001908152602001600020600001548787604051808681526020018581526020018481526020018360ff1681526020018281526020019550505050505060405180910390a2606660029054906101000a900473ffffffffffffffffffffffffffffffffffffffff1690505b60008173ffffffffffffffffffffffffffffffffffffffff166108fc849081150290604051600060405180830381858888f1935050505090508015614bfd5782606b60008473ffffffffffffffffffffffffffffffffffffffff1673ffffffffffffffffffffffffffffffffffffffff16815260200190815260200160002060070160008660ff1660ff1681526020019081526020016000206002016000828254019250508190555082606b60008473ffffffffffffffffffffffffffffffffffffffff1673ffffffffffffffffffffffffffffffffffffffff168152602001908152602001600020600401600082825401925050819055508173ffffffffffffffffffffffffffffffffffffffff167f0ed8e24e8c3d702aae6ec32d5d8fbb15b20e1905fcd8e9a2313dff009a82175042606b60008673ffffffffffffffffffffffffffffffffffffffff1673ffffffffffffffffffffffffffffffffffffffff16815260200190815260200160002060000154606b60008a73ffffffffffffffffffffffffffffffffffffffff1673ffffffffffffffffffffffffffffffffffffffff168152602001908152602001600020600001548888604051808681526020018581526020018481526020018360ff1681526020018281526020019550505050505060405180910390a2614c67565b606660029054906101000a900473ffffffffffffffffffffffffffffffffffffffff1673ffffffffffffffffffffffffffffffffffffffff166108fc849081150290604051600060405180830381858888f19350505050158015614c65573d6000803e3d6000fd5b505b5050505050565b6000606b60008573ffffffffffffffffffffffffffffffffffffffff1673ffffffffffffffffffffffffffffffffffffffff16815260200190815260200160002060020160009054906101000a900473ffffffffffffffffffffffffffffffffffffffff169050606b60008273ffffffffffffffffffffffffffffffffffffffff1673ffffffffffffffffffffffffffffffffffffffff16815260200190815260200160002060070160008460ff1660ff16815260200190815260200160002060000160069054906101000a900460ff16614f185781606b60008373ffffffffffffffffffffffffffffffffffffffff1673ffffffffffffffffffffffffffffffffffffffff1681526020019081526020016000206006016000828254019250508190555081606b60008373ffffffffffffffffffffffffffffffffffffffff1673ffffffffffffffffffffffffffffffffffffffff16815260200190815260200160002060070160008560ff1660ff168152602001908152602001600020600401600082825401925050819055508073ffffffffffffffffffffffffffffffffffffffff167f71571cfdf540d399d1a547446d2f4090641fc35ae5bf0fa7148c5368a7d5912e42606b60008573ffffffffffffffffffffffffffffffffffffffff1673ffffffffffffffffffffffffffffffffffffffff16815260200190815260200160002060000154606b60008973ffffffffffffffffffffffffffffffffffffffff1673ffffffffffffffffffffffffffffffffffffffff168152602001908152602001600020600001548787604051808681526020018581526020018481526020018360ff1681526020018281526020019550505050505060405180910390a2606660029054906101000a900473ffffffffffffffffffffffffffffffffffffffff1690505b60008173ffffffffffffffffffffffffffffffffffffffff166108fc849081150290604051600060405180830381858888f193505050509050801561510b5782606b60008473ffffffffffffffffffffffffffffffffffffffff1673ffffffffffffffffffffffffffffffffffffffff16815260200190815260200160002060070160008660ff1660ff1681526020019081526020016000206002016000828254019250508190555082606b60008473ffffffffffffffffffffffffffffffffffffffff1673ffffffffffffffffffffffffffffffffffffffff168152602001908152602001600020600401600082825401925050819055508173ffffffffffffffffffffffffffffffffffffffff167fadbead61ed0e78434af1793fe9c549f995680ccc1d4cc2015e78bffc67b7b18142606b60008673ffffffffffffffffffffffffffffffffffffffff1673ffffffffffffffffffffffffffffffffffffffff16815260200190815260200160002060000154606b60008a73ffffffffffffffffffffffffffffffffffffffff1673ffffffffffffffffffffffffffffffffffffffff168152602001908152602001600020600001548888604051808681526020018581526020018481526020018360ff1681526020018281526020019550505050505060405180910390a2615175565b606660029054906101000a900473ffffffffffffffffffffffffffffffffffffffff1673ffffffffffffffffffffffffffffffffffffffff166108fc849081150290604051600060405180830381858888f19350505050158015615173573d6000803e3d6000fd5b505b5050505050565b6040518060a00160405280600590602082028036833780820191505090505090565b604051806102000160405280601090602082028036833780820191505090505090565b6040518061012001604052806000815260200160008152602001600073ffffffffffffffffffffffffffffffffffffffff16815260200160008152602001600081526020016000815260200160008152602001600060ff168152602001600081525090565b60405180610640016040528060329060208202803683378082019150509050509056fe43616e27742066696e6420726f756e6420746f206275792e204d617962652073656e742076616c756520697320696e76616c69642ea26469706673582212208c864f2342593033ce43ba47b85fd4c4eda264b9e3ad4abfd9cc00cc0a2528ea64736f6c634300060c0033",
					"opcodes": "PUSH1 0x80 PUSH1 0x40 MSTORE PUSH1 0x9 PUSH1 0x66 PUSH1 0x0 PUSH2 0x100 EXP DUP2 SLOAD DUP2 PUSH1 0xFF MUL NOT AND SWAP1 DUP4 PUSH1 0xFF AND MUL OR SWAP1 SSTORE POP PUSH1 0x8 PUSH1 0x66 PUSH1 0x1 PUSH2 0x100 EXP DUP2 SLOAD DUP2 PUSH1 0xFF MUL NOT AND SWAP1 DUP4 PUSH1 0xFF AND MUL OR SWAP1 SSTORE POP PUSH1 0x40 MLOAD DUP1 PUSH2 0x200 ADD PUSH1 0x40 MSTORE DUP1 PUSH1 0x0 PUSH8 0xFFFFFFFFFFFFFFFF AND DUP2 MSTORE PUSH1 0x20 ADD PUSH7 0xB1A2BC2EC50000 PUSH8 0xFFFFFFFFFFFFFFFF AND DUP2 MSTORE PUSH1 0x20 ADD PUSH8 0x11C37937E080000 PUSH8 0xFFFFFFFFFFFFFFFF AND DUP2 MSTORE PUSH1 0x20 ADD PUSH8 0x1CDDA4FACCD0000 PUSH8 0xFFFFFFFFFFFFFFFF AND DUP2 MSTORE PUSH1 0x20 ADD PUSH8 0x30D98D59A960000 PUSH8 0xFFFFFFFFFFFFFFFF AND DUP2 MSTORE PUSH1 0x20 ADD PUSH8 0x494654067E10000 PUSH8 0xFFFFFFFFFFFFFFFF AND DUP2 MSTORE PUSH1 0x20 ADD PUSH8 0x6F05B59D3B20000 PUSH8 0xFFFFFFFFFFFFFFFF AND DUP2 MSTORE PUSH1 0x20 ADD PUSH8 0x9B6E64A8EC60000 PUSH8 0xFFFFFFFFFFFFFFFF AND DUP2 MSTORE PUSH1 0x20 ADD PUSH8 0xE92596FD6290000 PUSH8 0xFFFFFFFFFFFFFFFF AND DUP2 MSTORE PUSH1 0x20 ADD PUSH8 0x141F6F514C510000 PUSH8 0xFFFFFFFFFFFFFFFF AND DUP2 MSTORE PUSH1 0x20 ADD PUSH8 0x1B0FCAAB20030000 PUSH8 0xFFFFFFFFFFFFFFFF AND DUP2 MSTORE PUSH1 0x20 ADD PUSH8 0x214E8348C4F00000 PUSH8 0xFFFFFFFFFFFFFFFF AND DUP2 MSTORE PUSH1 0x20 ADD PUSH8 0x30927F74C9DE0000 PUSH8 0xFFFFFFFFFFFFFFFF AND DUP2 MSTORE PUSH1 0x20 ADD PUSH8 0x482A1C7300080000 PUSH8 0xFFFFFFFFFFFFFFFF AND DUP2 MSTORE PUSH1 0x20 ADD PUSH8 0x654ECF52AC5A0000 PUSH8 0xFFFFFFFFFFFFFFFF AND DUP2 MSTORE PUSH1 0x20 ADD PUSH8 0x8AC7230489E80000 PUSH8 0xFFFFFFFFFFFFFFFF AND DUP2 MSTORE POP PUSH1 0x68 SWAP1 PUSH1 0x10 PUSH3 0x1D0 SWAP3 SWAP2 SWAP1 PUSH3 0x6D6 JUMP JUMPDEST POP PUSH1 0x1 PUSH1 0x68 DUP1 SLOAD SWAP1 POP SUB PUSH1 0x69 SSTORE PUSH1 0x2 PUSH1 0x6A SSTORE CALLVALUE DUP1 ISZERO PUSH3 0x1EF JUMPI PUSH1 0x0 DUP1 REVERT JUMPDEST POP PUSH1 0x40 MLOAD PUSH3 0x5A17 CODESIZE SUB DUP1 PUSH3 0x5A17 DUP4 CODECOPY DUP2 DUP2 ADD PUSH1 0x40 MSTORE PUSH1 0x20 DUP2 LT ISZERO PUSH3 0x215 JUMPI PUSH1 0x0 DUP1 REVERT JUMPDEST DUP2 ADD SWAP1 DUP1 DUP1 MLOAD SWAP1 PUSH1 0x20 ADD SWAP1 SWAP3 SWAP2 SWAP1 POP POP POP PUSH1 0x1 PUSH1 0x0 DUP2 SWAP1 SSTORE POP CALLER PUSH1 0x66 PUSH1 0x2 PUSH2 0x100 EXP DUP2 SLOAD DUP2 PUSH20 0xFFFFFFFFFFFFFFFFFFFFFFFFFFFFFFFFFFFFFFFF MUL NOT AND SWAP1 DUP4 PUSH20 0xFFFFFFFFFFFFFFFFFFFFFFFFFFFFFFFFFFFFFFFF AND MUL OR SWAP1 SSTORE POP DUP1 PUSH1 0x67 PUSH1 0x0 PUSH2 0x100 EXP DUP2 SLOAD DUP2 PUSH20 0xFFFFFFFFFFFFFFFFFFFFFFFFFFFFFFFFFFFFFFFF MUL NOT AND SWAP1 DUP4 PUSH20 0xFFFFFFFFFFFFFFFFFFFFFFFFFFFFFFFFFFFFFFFF AND MUL OR SWAP1 SSTORE POP PUSH1 0x40 MLOAD DUP1 PUSH2 0x120 ADD PUSH1 0x40 MSTORE DUP1 PUSH1 0x1 DUP2 MSTORE PUSH1 0x20 ADD TIMESTAMP DUP2 MSTORE PUSH1 0x20 ADD PUSH1 0x0 PUSH20 0xFFFFFFFFFFFFFFFFFFFFFFFFFFFFFFFFFFFFFFFF AND DUP2 MSTORE PUSH1 0x20 ADD PUSH1 0x0 DUP2 MSTORE PUSH1 0x20 ADD PUSH1 0x0 DUP2 MSTORE PUSH1 0x20 ADD PUSH1 0x0 DUP2 MSTORE PUSH1 0x20 ADD PUSH1 0x0 DUP2 MSTORE PUSH1 0x20 ADD PUSH1 0x0 PUSH1 0xFF AND DUP2 MSTORE PUSH1 0x20 ADD PUSH1 0x0 DUP2 MSTORE POP PUSH1 0x6B PUSH1 0x0 PUSH1 0x66 PUSH1 0x2 SWAP1 SLOAD SWAP1 PUSH2 0x100 EXP SWAP1 DIV PUSH20 0xFFFFFFFFFFFFFFFFFFFFFFFFFFFFFFFFFFFFFFFF AND PUSH20 0xFFFFFFFFFFFFFFFFFFFFFFFFFFFFFFFFFFFFFFFF AND PUSH20 0xFFFFFFFFFFFFFFFFFFFFFFFFFFFFFFFFFFFFFFFF AND DUP2 MSTORE PUSH1 0x20 ADD SWAP1 DUP2 MSTORE PUSH1 0x20 ADD PUSH1 0x0 KECCAK256 PUSH1 0x0 DUP3 ADD MLOAD DUP2 PUSH1 0x0 ADD SSTORE PUSH1 0x20 DUP3 ADD MLOAD DUP2 PUSH1 0x1 ADD SSTORE PUSH1 0x40 DUP3 ADD MLOAD DUP2 PUSH1 0x2 ADD PUSH1 0x0 PUSH2 0x100 EXP DUP2 SLOAD DUP2 PUSH20 0xFFFFFFFFFFFFFFFFFFFFFFFFFFFFFFFFFFFFFFFF MUL NOT AND SWAP1 DUP4 PUSH20 0xFFFFFFFFFFFFFFFFFFFFFFFFFFFFFFFFFFFFFFFF AND MUL OR SWAP1 SSTORE POP PUSH1 0x60 DUP3 ADD MLOAD DUP2 PUSH1 0x3 ADD SSTORE PUSH1 0x80 DUP3 ADD MLOAD DUP2 PUSH1 0x4 ADD SSTORE PUSH1 0xA0 DUP3 ADD MLOAD DUP2 PUSH1 0x5 ADD SSTORE PUSH1 0xC0 DUP3 ADD MLOAD DUP2 PUSH1 0x6 ADD SSTORE PUSH1 0xE0 DUP3 ADD MLOAD DUP2 PUSH1 0x8 ADD PUSH1 0x0 PUSH2 0x100 EXP DUP2 SLOAD DUP2 PUSH1 0xFF MUL NOT AND SWAP1 DUP4 PUSH1 0xFF AND MUL OR SWAP1 SSTORE POP PUSH2 0x100 DUP3 ADD MLOAD DUP2 PUSH1 0x9 ADD SSTORE SWAP1 POP POP PUSH1 0x66 PUSH1 0x2 SWAP1 SLOAD SWAP1 PUSH2 0x100 EXP SWAP1 DIV PUSH20 0xFFFFFFFFFFFFFFFFFFFFFFFFFFFFFFFFFFFFFFFF AND PUSH1 0x6C PUSH1 0x0 PUSH1 0x1 DUP2 MSTORE PUSH1 0x20 ADD SWAP1 DUP2 MSTORE PUSH1 0x20 ADD PUSH1 0x0 KECCAK256 PUSH1 0x0 PUSH2 0x100 EXP DUP2 SLOAD DUP2 PUSH20 0xFFFFFFFFFFFFFFFFFFFFFFFFFFFFFFFFFFFFFFFF MUL NOT AND SWAP1 DUP4 PUSH20 0xFFFFFFFFFFFFFFFFFFFFFFFFFFFFFFFFFFFFFFFF AND MUL OR SWAP1 SSTORE POP PUSH1 0x6F PUSH1 0x0 ADD PUSH1 0x0 DUP2 SLOAD DUP1 SWAP3 SWAP2 SWAP1 PUSH1 0x1 ADD SWAP2 SWAP1 POP SSTORE POP PUSH1 0x6F PUSH1 0x1 ADD PUSH1 0x0 DUP2 SLOAD DUP1 SWAP3 SWAP2 SWAP1 PUSH1 0x1 ADD SWAP2 SWAP1 POP SSTORE POP PUSH1 0x0 PUSH1 0x1 SWAP1 POP JUMPDEST PUSH1 0x69 SLOAD DUP2 PUSH1 0xFF AND GT PUSH3 0x6CE JUMPI PUSH3 0xD2F00 TIMESTAMP ADD PUSH1 0x45 DUP3 PUSH1 0xFF AND PUSH1 0x10 DUP2 LT PUSH3 0x4EE JUMPI INVALID JUMPDEST ADD DUP2 SWAP1 SSTORE POP PUSH1 0x1 PUSH1 0x6B PUSH1 0x0 PUSH1 0x66 PUSH1 0x2 SWAP1 SLOAD SWAP1 PUSH2 0x100 EXP SWAP1 DIV PUSH20 0xFFFFFFFFFFFFFFFFFFFFFFFFFFFFFFFFFFFFFFFF AND PUSH20 0xFFFFFFFFFFFFFFFFFFFFFFFFFFFFFFFFFFFFFFFF AND PUSH20 0xFFFFFFFFFFFFFFFFFFFFFFFFFFFFFFFFFFFFFFFF AND DUP2 MSTORE PUSH1 0x20 ADD SWAP1 DUP2 MSTORE PUSH1 0x20 ADD PUSH1 0x0 KECCAK256 PUSH1 0x7 ADD PUSH1 0x0 DUP4 PUSH1 0xFF AND PUSH1 0xFF AND DUP2 MSTORE PUSH1 0x20 ADD SWAP1 DUP2 MSTORE PUSH1 0x20 ADD PUSH1 0x0 KECCAK256 PUSH1 0x0 ADD PUSH1 0x6 PUSH2 0x100 EXP DUP2 SLOAD DUP2 PUSH1 0xFF MUL NOT AND SWAP1 DUP4 ISZERO ISZERO MUL OR SWAP1 SSTORE POP PUSH1 0xF PUSH1 0x6B PUSH1 0x0 PUSH1 0x66 PUSH1 0x2 SWAP1 SLOAD SWAP1 PUSH2 0x100 EXP SWAP1 DIV PUSH20 0xFFFFFFFFFFFFFFFFFFFFFFFFFFFFFFFFFFFFFFFF AND PUSH20 0xFFFFFFFFFFFFFFFFFFFFFFFFFFFFFFFFFFFFFFFF AND PUSH20 0xFFFFFFFFFFFFFFFFFFFFFFFFFFFFFFFFFFFFFFFF AND DUP2 MSTORE PUSH1 0x20 ADD SWAP1 DUP2 MSTORE PUSH1 0x20 ADD PUSH1 0x0 KECCAK256 PUSH1 0x7 ADD PUSH1 0x0 DUP4 PUSH1 0xFF AND PUSH1 0xFF AND DUP2 MSTORE PUSH1 0x20 ADD SWAP1 DUP2 MSTORE PUSH1 0x20 ADD PUSH1 0x0 KECCAK256 PUSH1 0x0 ADD PUSH1 0x2 PUSH2 0x100 EXP DUP2 SLOAD DUP2 PUSH2 0xFFFF MUL NOT AND SWAP1 DUP4 PUSH2 0xFFFF AND MUL OR SWAP1 SSTORE POP PUSH1 0x6D PUSH1 0x0 DUP3 PUSH1 0xFF AND PUSH1 0xFF AND DUP2 MSTORE PUSH1 0x20 ADD SWAP1 DUP2 MSTORE PUSH1 0x20 ADD PUSH1 0x0 KECCAK256 PUSH1 0x66 PUSH1 0x2 SWAP1 SLOAD SWAP1 PUSH2 0x100 EXP SWAP1 DIV PUSH20 0xFFFFFFFFFFFFFFFFFFFFFFFFFFFFFFFFFFFFFFFF AND SWAP1 DUP1 PUSH1 0x1 DUP2 SLOAD ADD DUP1 DUP3 SSTORE DUP1 SWAP2 POP POP PUSH1 0x1 SWAP1 SUB SWAP1 PUSH1 0x0 MSTORE PUSH1 0x20 PUSH1 0x0 KECCAK256 ADD PUSH1 0x0 SWAP1 SWAP2 SWAP1 SWAP2 SWAP1 SWAP2 PUSH2 0x100 EXP DUP2 SLOAD DUP2 PUSH20 0xFFFFFFFFFFFFFFFFFFFFFFFFFFFFFFFFFFFFFFFF MUL NOT AND SWAP1 DUP4 PUSH20 0xFFFFFFFFFFFFFFFFFFFFFFFFFFFFFFFFFFFFFFFF AND MUL OR SWAP1 SSTORE POP DUP1 DUP1 PUSH1 0x1 ADD SWAP2 POP POP PUSH3 0x4CA JUMP JUMPDEST POP POP PUSH3 0x753 JUMP JUMPDEST DUP3 DUP1 SLOAD DUP3 DUP3 SSTORE SWAP1 PUSH1 0x0 MSTORE PUSH1 0x20 PUSH1 0x0 KECCAK256 SWAP1 DUP2 ADD SWAP3 DUP3 ISZERO PUSH3 0x721 JUMPI SWAP2 PUSH1 0x20 MUL DUP3 ADD JUMPDEST DUP3 DUP2 GT ISZERO PUSH3 0x720 JUMPI DUP3 MLOAD DUP3 SWAP1 PUSH8 0xFFFFFFFFFFFFFFFF AND SWAP1 SSTORE SWAP2 PUSH1 0x20 ADD SWAP2 SWAP1 PUSH1 0x1 ADD SWAP1 PUSH3 0x6F7 JUMP JUMPDEST JUMPDEST POP SWAP1 POP PUSH3 0x730 SWAP2 SWAP1 PUSH3 0x734 JUMP JUMPDEST POP SWAP1 JUMP JUMPDEST JUMPDEST DUP1 DUP3 GT ISZERO PUSH3 0x74F JUMPI PUSH1 0x0 DUP2 PUSH1 0x0 SWAP1 SSTORE POP PUSH1 0x1 ADD PUSH3 0x735 JUMP JUMPDEST POP SWAP1 JUMP JUMPDEST PUSH2 0x52B4 DUP1 PUSH3 0x763 PUSH1 0x0 CODECOPY PUSH1 0x0 RETURN INVALID PUSH1 0x80 PUSH1 0x40 MSTORE PUSH1 0x4 CALLDATASIZE LT PUSH2 0x24A JUMPI PUSH1 0x0 CALLDATALOAD PUSH1 0xE0 SHR DUP1 PUSH4 0x693864F3 GT PUSH2 0x139 JUMPI DUP1 PUSH4 0xA7345F56 GT PUSH2 0xB6 JUMPI DUP1 PUSH4 0xBFE24893 GT PUSH2 0x7A JUMPI DUP1 PUSH4 0xBFE24893 EQ PUSH2 0x106C JUMPI DUP1 PUSH4 0xC34F6B0D EQ PUSH2 0x109A JUMPI DUP1 PUSH4 0xC8E161A1 EQ PUSH2 0x10B1 JUMPI DUP1 PUSH4 0xCFCE5044 EQ PUSH2 0x1104 JUMPI DUP1 PUSH4 0xECA2C026 EQ PUSH2 0x117D JUMPI DUP1 PUSH4 0xF21EFB5B EQ PUSH2 0x11AB JUMPI PUSH2 0x31B JUMP JUMPDEST DUP1 PUSH4 0xA7345F56 EQ PUSH2 0xE7A JUMPI DUP1 PUSH4 0xA87430BA EQ PUSH2 0xEA8 JUMPI DUP1 PUSH4 0xA9A9CFE0 EQ PUSH2 0xF5E JUMPI DUP1 PUSH4 0xB3791E7F EQ PUSH2 0xFC3 JUMPI DUP1 PUSH4 0xBD4B77EE EQ PUSH2 0x1007 JUMPI PUSH2 0x31B JUMP JUMPDEST DUP1 PUSH4 0x8A03AD86 GT PUSH2 0xFD JUMPI DUP1 PUSH4 0x8A03AD86 EQ PUSH2 0xD02 JUMPI DUP1 PUSH4 0x8C4636C1 EQ PUSH2 0xD67 JUMPI DUP1 PUSH4 0x8DA5CB5B EQ PUSH2 0xDBA JUMPI DUP1 PUSH4 0x950FABF3 EQ PUSH2 0xDFB JUMPI DUP1 PUSH4 0x968763A0 EQ PUSH2 0xE36 JUMPI PUSH2 0x31B JUMP JUMPDEST DUP1 PUSH4 0x693864F3 EQ PUSH2 0xB99 JUMPI DUP1 PUSH4 0x6F77926B EQ PUSH2 0xBE8 JUMPI DUP1 PUSH4 0x6F9FB98A EQ PUSH2 0xCA2 JUMPI DUP1 PUSH4 0x7CCD94DA EQ PUSH2 0xCCD JUMPI DUP1 PUSH4 0x88B45046 EQ PUSH2 0xCF8 JUMPI PUSH2 0x31B JUMP JUMPDEST DUP1 PUSH4 0x2D3E474A GT PUSH2 0x1C7 JUMPI DUP1 PUSH4 0x4CDBE908 GT PUSH2 0x18B JUMPI DUP1 PUSH4 0x4CDBE908 EQ PUSH2 0x9AE JUMPI DUP1 PUSH4 0x5A8A14D0 EQ PUSH2 0x9DC JUMPI DUP1 PUSH4 0x5C279FF9 EQ PUSH2 0xA0D JUMPI DUP1 PUSH4 0x5CE974B9 EQ PUSH2 0xAFB JUMPI DUP1 PUSH4 0x5D7B1CC9 EQ PUSH2 0xB4A JUMPI PUSH2 0x31B JUMP JUMPDEST DUP1 PUSH4 0x2D3E474A EQ PUSH2 0x7E8 JUMPI DUP1 PUSH4 0x3336B63E EQ PUSH2 0x829 JUMPI DUP1 PUSH4 0x375E3B55 EQ PUSH2 0x87C JUMPI DUP1 PUSH4 0x385399F9 EQ PUSH2 0x8CE JUMPI DUP1 PUSH4 0x4A9FEFC7 EQ PUSH2 0x933 JUMPI PUSH2 0x31B JUMP JUMPDEST DUP1 PUSH4 0x21658658 GT PUSH2 0x20E JUMPI DUP1 PUSH4 0x21658658 EQ PUSH2 0x4C9 JUMPI DUP1 PUSH4 0x230F7F82 EQ PUSH2 0x4F4 JUMPI DUP1 PUSH4 0x26EFD443 EQ PUSH2 0x702 JUMPI DUP1 PUSH4 0x2A2C908E EQ PUSH2 0x767 JUMPI DUP1 PUSH4 0x2CC8DA43 EQ PUSH2 0x7BA JUMPI PUSH2 0x31B JUMP JUMPDEST DUP1 PUSH4 0x1B91A17 EQ PUSH2 0x320 JUMPI DUP1 PUSH4 0x16279055 EQ PUSH2 0x38C JUMPI DUP1 PUSH4 0x163F7522 EQ PUSH2 0x3F3 JUMPI DUP1 PUSH4 0x1AA3A008 EQ PUSH2 0x45A JUMPI DUP1 PUSH4 0x1DFD8FE0 EQ PUSH2 0x464 JUMPI PUSH2 0x31B JUMP JUMPDEST CALLDATASIZE PUSH2 0x31B JUMPI PUSH1 0x0 PUSH1 0x1 SWAP1 POP JUMPDEST PUSH1 0x69 SLOAD DUP2 PUSH1 0xFF AND GT PUSH2 0x2C7 JUMPI CALLVALUE PUSH1 0x68 DUP3 PUSH1 0xFF AND DUP2 SLOAD DUP2 LT PUSH2 0x273 JUMPI INVALID JUMPDEST SWAP1 PUSH1 0x0 MSTORE PUSH1 0x20 PUSH1 0x0 KECCAK256 ADD SLOAD EQ ISZERO PUSH2 0x2BA JUMPI PUSH1 0x1 DUP2 PUSH1 0xFF AND EQ DUP1 ISZERO PUSH2 0x29D JUMPI POP PUSH2 0x29B CALLER PUSH2 0x11D6 JUMP JUMPDEST ISZERO JUMPDEST ISZERO PUSH2 0x2AB JUMPI PUSH2 0x2AA PUSH2 0x1225 JUMP JUMPDEST JUMPDEST PUSH2 0x2B4 DUP2 PUSH2 0x1252 JUMP JUMPDEST POP PUSH2 0x319 JUMP JUMPDEST DUP1 DUP1 PUSH1 0x1 ADD SWAP2 POP POP PUSH2 0x256 JUMP JUMPDEST POP PUSH1 0x40 MLOAD PUSH32 0x8C379A000000000000000000000000000000000000000000000000000000000 DUP2 MSTORE PUSH1 0x4 ADD DUP1 DUP1 PUSH1 0x20 ADD DUP3 DUP2 SUB DUP3 MSTORE PUSH1 0x35 DUP2 MSTORE PUSH1 0x20 ADD DUP1 PUSH2 0x524A PUSH1 0x35 SWAP2 CODECOPY PUSH1 0x40 ADD SWAP2 POP POP PUSH1 0x40 MLOAD DUP1 SWAP2 SUB SWAP1 REVERT JUMPDEST STOP JUMPDEST PUSH1 0x0 DUP1 REVERT JUMPDEST CALLVALUE DUP1 ISZERO PUSH2 0x32C JUMPI PUSH1 0x0 DUP1 REVERT JUMPDEST POP PUSH2 0x335 PUSH2 0x29F2 JUMP JUMPDEST PUSH1 0x40 MLOAD DUP1 DUP1 PUSH1 0x20 ADD DUP3 DUP2 SUB DUP3 MSTORE DUP4 DUP2 DUP2 MLOAD DUP2 MSTORE PUSH1 0x20 ADD SWAP2 POP DUP1 MLOAD SWAP1 PUSH1 0x20 ADD SWAP1 PUSH1 0x20 MUL DUP1 DUP4 DUP4 PUSH1 0x0 JUMPDEST DUP4 DUP2 LT ISZERO PUSH2 0x378 JUMPI DUP1 DUP3 ADD MLOAD DUP2 DUP5 ADD MSTORE PUSH1 0x20 DUP2 ADD SWAP1 POP PUSH2 0x35D JUMP JUMPDEST POP POP POP POP SWAP1 POP ADD SWAP3 POP POP POP PUSH1 0x40 MLOAD DUP1 SWAP2 SUB SWAP1 RETURN JUMPDEST CALLVALUE DUP1 ISZERO PUSH2 0x398 JUMPI PUSH1 0x0 DUP1 REVERT JUMPDEST POP PUSH2 0x3DB PUSH1 0x4 DUP1 CALLDATASIZE SUB PUSH1 0x20 DUP2 LT ISZERO PUSH2 0x3AF JUMPI PUSH1 0x0 DUP1 REVERT JUMPDEST DUP2 ADD SWAP1 DUP1 DUP1 CALLDATALOAD PUSH20 0xFFFFFFFFFFFFFFFFFFFFFFFFFFFFFFFFFFFFFFFF AND SWAP1 PUSH1 0x20 ADD SWAP1 SWAP3 SWAP2 SWAP1 POP POP POP PUSH2 0x2A4A JUMP JUMPDEST PUSH1 0x40 MLOAD DUP1 DUP3 ISZERO ISZERO DUP2 MSTORE PUSH1 0x20 ADD SWAP2 POP POP PUSH1 0x40 MLOAD DUP1 SWAP2 SUB SWAP1 RETURN JUMPDEST CALLVALUE DUP1 ISZERO PUSH2 0x3FF JUMPI PUSH1 0x0 DUP1 REVERT JUMPDEST POP PUSH2 0x442 PUSH1 0x4 DUP1 CALLDATASIZE SUB PUSH1 0x20 DUP2 LT ISZERO PUSH2 0x416 JUMPI PUSH1 0x0 DUP1 REVERT JUMPDEST DUP2 ADD SWAP1 DUP1 DUP1 CALLDATALOAD PUSH20 0xFFFFFFFFFFFFFFFFFFFFFFFFFFFFFFFFFFFFFFFF AND SWAP1 PUSH1 0x20 ADD SWAP1 SWAP3 SWAP2 SWAP1 POP POP POP PUSH2 0x11D6 JUMP JUMPDEST PUSH1 0x40 MLOAD DUP1 DUP3 ISZERO ISZERO DUP2 MSTORE PUSH1 0x20 ADD SWAP2 POP POP PUSH1 0x40 MLOAD DUP1 SWAP2 SUB SWAP1 RETURN JUMPDEST PUSH2 0x462 PUSH2 0x1225 JUMP JUMPDEST STOP JUMPDEST CALLVALUE DUP1 ISZERO PUSH2 0x470 JUMPI PUSH1 0x0 DUP1 REVERT JUMPDEST POP PUSH2 0x49D PUSH1 0x4 DUP1 CALLDATASIZE SUB PUSH1 0x20 DUP2 LT ISZERO PUSH2 0x487 JUMPI PUSH1 0x0 DUP1 REVERT JUMPDEST DUP2 ADD SWAP1 DUP1 DUP1 CALLDATALOAD SWAP1 PUSH1 0x20 ADD SWAP1 SWAP3 SWAP2 SWAP1 POP POP POP PUSH2 0x2A64 JUMP JUMPDEST PUSH1 0x40 MLOAD DUP1 DUP3 PUSH20 0xFFFFFFFFFFFFFFFFFFFFFFFFFFFFFFFFFFFFFFFF AND DUP2 MSTORE PUSH1 0x20 ADD SWAP2 POP POP PUSH1 0x40 MLOAD DUP1 SWAP2 SUB SWAP1 RETURN JUMPDEST CALLVALUE DUP1 ISZERO PUSH2 0x4D5 JUMPI PUSH1 0x0 DUP1 REVERT JUMPDEST POP PUSH2 0x4DE PUSH2 0x2A97 JUMP JUMPDEST PUSH1 0x40 MLOAD DUP1 DUP3 DUP2 MSTORE PUSH1 0x20 ADD SWAP2 POP POP PUSH1 0x40 MLOAD DUP1 SWAP2 SUB SWAP1 RETURN JUMPDEST CALLVALUE DUP1 ISZERO PUSH2 0x500 JUMPI PUSH1 0x0 DUP1 REVERT JUMPDEST POP PUSH2 0x543 PUSH1 0x4 DUP1 CALLDATASIZE SUB PUSH1 0x20 DUP2 LT ISZERO PUSH2 0x517 JUMPI PUSH1 0x0 DUP1 REVERT JUMPDEST DUP2 ADD SWAP1 DUP1 DUP1 CALLDATALOAD PUSH20 0xFFFFFFFFFFFFFFFFFFFFFFFFFFFFFFFFFFFFFFFF AND SWAP1 PUSH1 0x20 ADD SWAP1 SWAP3 SWAP2 SWAP1 POP POP POP PUSH2 0x2A9C JUMP JUMPDEST PUSH1 0x40 MLOAD DUP1 DUP1 PUSH1 0x20 ADD DUP1 PUSH1 0x20 ADD DUP1 PUSH1 0x20 ADD DUP1 PUSH1 0x20 ADD DUP1 PUSH1 0x20 ADD DUP1 PUSH1 0x20 ADD DUP8 DUP2 SUB DUP8 MSTORE DUP14 DUP2 DUP2 MLOAD DUP2 MSTORE PUSH1 0x20 ADD SWAP2 POP DUP1 MLOAD SWAP1 PUSH1 0x20 ADD SWAP1 PUSH1 0x20 MUL DUP1 DUP4 DUP4 PUSH1 0x0 JUMPDEST DUP4 DUP2 LT ISZERO PUSH2 0x59A JUMPI DUP1 DUP3 ADD MLOAD DUP2 DUP5 ADD MSTORE PUSH1 0x20 DUP2 ADD SWAP1 POP PUSH2 0x57F JUMP JUMPDEST POP POP POP POP SWAP1 POP ADD DUP8 DUP2 SUB DUP7 MSTORE DUP13 DUP2 DUP2 MLOAD DUP2 MSTORE PUSH1 0x20 ADD SWAP2 POP DUP1 MLOAD SWAP1 PUSH1 0x20 ADD SWAP1 PUSH1 0x20 MUL DUP1 DUP4 DUP4 PUSH1 0x0 JUMPDEST DUP4 DUP2 LT ISZERO PUSH2 0x5DC JUMPI DUP1 DUP3 ADD MLOAD DUP2 DUP5 ADD MSTORE PUSH1 0x20 DUP2 ADD SWAP1 POP PUSH2 0x5C1 JUMP JUMPDEST POP POP POP POP SWAP1 POP ADD DUP8 DUP2 SUB DUP6 MSTORE DUP12 DUP2 DUP2 MLOAD DUP2 MSTORE PUSH1 0x20 ADD SWAP2 POP DUP1 MLOAD SWAP1 PUSH1 0x20 ADD SWAP1 PUSH1 0x20 MUL DUP1 DUP4 DUP4 PUSH1 0x0 JUMPDEST DUP4 DUP2 LT ISZERO PUSH2 0x61E JUMPI DUP1 DUP3 ADD MLOAD DUP2 DUP5 ADD MSTORE PUSH1 0x20 DUP2 ADD SWAP1 POP PUSH2 0x603 JUMP JUMPDEST POP POP POP POP SWAP1 POP ADD DUP8 DUP2 SUB DUP5 MSTORE DUP11 DUP2 DUP2 MLOAD DUP2 MSTORE PUSH1 0x20 ADD SWAP2 POP DUP1 MLOAD SWAP1 PUSH1 0x20 ADD SWAP1 PUSH1 0x20 MUL DUP1 DUP4 DUP4 PUSH1 0x0 JUMPDEST DUP4 DUP2 LT ISZERO PUSH2 0x660 JUMPI DUP1 DUP3 ADD MLOAD DUP2 DUP5 ADD MSTORE PUSH1 0x20 DUP2 ADD SWAP1 POP PUSH2 0x645 JUMP JUMPDEST POP POP POP POP SWAP1 POP ADD DUP8 DUP2 SUB DUP4 MSTORE DUP10 DUP2 DUP2 MLOAD DUP2 MSTORE PUSH1 0x20 ADD SWAP2 POP DUP1 MLOAD SWAP1 PUSH1 0x20 ADD SWAP1 PUSH1 0x20 MUL DUP1 DUP4 DUP4 PUSH1 0x0 JUMPDEST DUP4 DUP2 LT ISZERO PUSH2 0x6A2 JUMPI DUP1 DUP3 ADD MLOAD DUP2 DUP5 ADD MSTORE PUSH1 0x20 DUP2 ADD SWAP1 POP PUSH2 0x687 JUMP JUMPDEST POP POP POP POP SWAP1 POP ADD DUP8 DUP2 SUB DUP3 MSTORE DUP9 DUP2 DUP2 MLOAD DUP2 MSTORE PUSH1 0x20 ADD SWAP2 POP DUP1 MLOAD SWAP1 PUSH1 0x20 ADD SWAP1 PUSH1 0x20 MUL DUP1 DUP4 DUP4 PUSH1 0x0 JUMPDEST DUP4 DUP2 LT ISZERO PUSH2 0x6E4 JUMPI DUP1 DUP3 ADD MLOAD DUP2 DUP5 ADD MSTORE PUSH1 0x20 DUP2 ADD SWAP1 POP PUSH2 0x6C9 JUMP JUMPDEST POP POP POP POP SWAP1 POP ADD SWAP13 POP POP POP POP POP POP POP POP POP POP POP POP POP PUSH1 0x40 MLOAD DUP1 SWAP2 SUB SWAP1 RETURN JUMPDEST CALLVALUE DUP1 ISZERO PUSH2 0x70E JUMPI PUSH1 0x0 DUP1 REVERT JUMPDEST POP PUSH2 0x73B PUSH1 0x4 DUP1 CALLDATASIZE SUB PUSH1 0x20 DUP2 LT ISZERO PUSH2 0x725 JUMPI PUSH1 0x0 DUP1 REVERT JUMPDEST DUP2 ADD SWAP1 DUP1 DUP1 CALLDATALOAD SWAP1 PUSH1 0x20 ADD SWAP1 SWAP3 SWAP2 SWAP1 POP POP POP PUSH2 0x2FF2 JUMP JUMPDEST PUSH1 0x40 MLOAD DUP1 DUP3 PUSH20 0xFFFFFFFFFFFFFFFFFFFFFFFFFFFFFFFFFFFFFFFF AND DUP2 MSTORE PUSH1 0x20 ADD SWAP2 POP POP PUSH1 0x40 MLOAD DUP1 SWAP2 SUB SWAP1 RETURN JUMPDEST CALLVALUE DUP1 ISZERO PUSH2 0x773 JUMPI PUSH1 0x0 DUP1 REVERT JUMPDEST POP PUSH2 0x77C PUSH2 0x3025 JUMP JUMPDEST PUSH1 0x40 MLOAD DUP1 DUP3 PUSH1 0x5 PUSH1 0x20 MUL DUP1 DUP4 DUP4 PUSH1 0x0 JUMPDEST DUP4 DUP2 LT ISZERO PUSH2 0x7A7 JUMPI DUP1 DUP3 ADD MLOAD DUP2 DUP5 ADD MSTORE PUSH1 0x20 DUP2 ADD SWAP1 POP PUSH2 0x78C JUMP JUMPDEST POP POP POP POP SWAP1 POP ADD SWAP2 POP POP PUSH1 0x40 MLOAD DUP1 SWAP2 SUB SWAP1 RETURN JUMPDEST CALLVALUE DUP1 ISZERO PUSH2 0x7C6 JUMPI PUSH1 0x0 DUP1 REVERT JUMPDEST POP PUSH2 0x7CF PUSH2 0x306C JUMP JUMPDEST PUSH1 0x40 MLOAD DUP1 DUP3 PUSH1 0xFF AND DUP2 MSTORE PUSH1 0x20 ADD SWAP2 POP POP PUSH1 0x40 MLOAD DUP1 SWAP2 SUB SWAP1 RETURN JUMPDEST CALLVALUE DUP1 ISZERO PUSH2 0x7F4 JUMPI PUSH1 0x0 DUP1 REVERT JUMPDEST POP PUSH2 0x7FD PUSH2 0x3071 JUMP JUMPDEST PUSH1 0x40 MLOAD DUP1 DUP3 PUSH20 0xFFFFFFFFFFFFFFFFFFFFFFFFFFFFFFFFFFFFFFFF AND DUP2 MSTORE PUSH1 0x20 ADD SWAP2 POP POP PUSH1 0x40 MLOAD DUP1 SWAP2 SUB SWAP1 RETURN JUMPDEST CALLVALUE DUP1 ISZERO PUSH2 0x835 JUMPI PUSH1 0x0 DUP1 REVERT JUMPDEST POP PUSH2 0x83E PUSH2 0x3097 JUMP JUMPDEST PUSH1 0x40 MLOAD DUP1 DUP3 PUSH1 0x10 PUSH1 0x20 MUL DUP1 DUP4 DUP4 PUSH1 0x0 JUMPDEST DUP4 DUP2 LT ISZERO PUSH2 0x869 JUMPI DUP1 DUP3 ADD MLOAD DUP2 DUP5 ADD MSTORE PUSH1 0x20 DUP2 ADD SWAP1 POP PUSH2 0x84E JUMP JUMPDEST POP POP POP POP SWAP1 POP ADD SWAP2 POP POP PUSH1 0x40 MLOAD DUP1 SWAP2 SUB SWAP1 RETURN JUMPDEST CALLVALUE DUP1 ISZERO PUSH2 0x888 JUMPI PUSH1 0x0 DUP1 REVERT JUMPDEST POP PUSH2 0x8B8 PUSH1 0x4 DUP1 CALLDATASIZE SUB PUSH1 0x20 DUP2 LT ISZERO PUSH2 0x89F JUMPI PUSH1 0x0 DUP1 REVERT JUMPDEST DUP2 ADD SWAP1 DUP1 DUP1 CALLDATALOAD PUSH1 0xFF AND SWAP1 PUSH1 0x20 ADD SWAP1 SWAP3 SWAP2 SWAP1 POP POP POP PUSH2 0x30E2 JUMP JUMPDEST PUSH1 0x40 MLOAD DUP1 DUP3 DUP2 MSTORE PUSH1 0x20 ADD SWAP2 POP POP PUSH1 0x40 MLOAD DUP1 SWAP2 SUB SWAP1 RETURN JUMPDEST CALLVALUE DUP1 ISZERO PUSH2 0x8DA JUMPI PUSH1 0x0 DUP1 REVERT JUMPDEST POP PUSH2 0x91D PUSH1 0x4 DUP1 CALLDATASIZE SUB PUSH1 0x20 DUP2 LT ISZERO PUSH2 0x8F1 JUMPI PUSH1 0x0 DUP1 REVERT JUMPDEST DUP2 ADD SWAP1 DUP1 DUP1 CALLDATALOAD PUSH20 0xFFFFFFFFFFFFFFFFFFFFFFFFFFFFFFFFFFFFFFFF AND SWAP1 PUSH1 0x20 ADD SWAP1 SWAP3 SWAP2 SWAP1 POP POP POP PUSH2 0x3153 JUMP JUMPDEST PUSH1 0x40 MLOAD DUP1 DUP3 DUP2 MSTORE PUSH1 0x20 ADD SWAP2 POP POP PUSH1 0x40 MLOAD DUP1 SWAP2 SUB SWAP1 RETURN JUMPDEST CALLVALUE DUP1 ISZERO PUSH2 0x93F JUMPI PUSH1 0x0 DUP1 REVERT JUMPDEST POP PUSH2 0x982 PUSH1 0x4 DUP1 CALLDATASIZE SUB PUSH1 0x20 DUP2 LT ISZERO PUSH2 0x956 JUMPI PUSH1 0x0 DUP1 REVERT JUMPDEST DUP2 ADD SWAP1 DUP1 DUP1 CALLDATALOAD PUSH20 0xFFFFFFFFFFFFFFFFFFFFFFFFFFFFFFFFFFFFFFFF AND SWAP1 PUSH1 0x20 ADD SWAP1 SWAP3 SWAP2 SWAP1 POP POP POP PUSH2 0x319F JUMP JUMPDEST PUSH1 0x40 MLOAD DUP1 DUP3 PUSH20 0xFFFFFFFFFFFFFFFFFFFFFFFFFFFFFFFFFFFFFFFF AND DUP2 MSTORE PUSH1 0x20 ADD SWAP2 POP POP PUSH1 0x40 MLOAD DUP1 SWAP2 SUB SWAP1 RETURN JUMPDEST CALLVALUE DUP1 ISZERO PUSH2 0x9BA JUMPI PUSH1 0x0 DUP1 REVERT JUMPDEST POP PUSH2 0x9C3 PUSH2 0x3286 JUMP JUMPDEST PUSH1 0x40 MLOAD DUP1 DUP3 PUSH1 0xFF AND DUP2 MSTORE PUSH1 0x20 ADD SWAP2 POP POP PUSH1 0x40 MLOAD DUP1 SWAP2 SUB SWAP1 RETURN JUMPDEST PUSH2 0xA0B PUSH1 0x4 DUP1 CALLDATASIZE SUB PUSH1 0x20 DUP2 LT ISZERO PUSH2 0x9F2 JUMPI PUSH1 0x0 DUP1 REVERT JUMPDEST DUP2 ADD SWAP1 DUP1 DUP1 CALLDATALOAD PUSH1 0xFF AND SWAP1 PUSH1 0x20 ADD SWAP1 SWAP3 SWAP2 SWAP1 POP POP POP PUSH2 0x1252 JUMP JUMPDEST STOP JUMPDEST CALLVALUE DUP1 ISZERO PUSH2 0xA19 JUMPI PUSH1 0x0 DUP1 REVERT JUMPDEST POP PUSH2 0xA5C PUSH1 0x4 DUP1 CALLDATASIZE SUB PUSH1 0x20 DUP2 LT ISZERO PUSH2 0xA30 JUMPI PUSH1 0x0 DUP1 REVERT JUMPDEST DUP2 ADD SWAP1 DUP1 DUP1 CALLDATALOAD PUSH20 0xFFFFFFFFFFFFFFFFFFFFFFFFFFFFFFFFFFFFFFFF AND SWAP1 PUSH1 0x20 ADD SWAP1 SWAP3 SWAP2 SWAP1 POP POP POP PUSH2 0x3299 JUMP JUMPDEST PUSH1 0x40 MLOAD DUP1 DUP1 PUSH1 0x20 ADD DUP1 PUSH1 0x20 ADD DUP4 DUP2 SUB DUP4 MSTORE DUP6 DUP2 DUP2 MLOAD DUP2 MSTORE PUSH1 0x20 ADD SWAP2 POP DUP1 MLOAD SWAP1 PUSH1 0x20 ADD SWAP1 PUSH1 0x20 MUL DUP1 DUP4 DUP4 PUSH1 0x0 JUMPDEST DUP4 DUP2 LT ISZERO PUSH2 0xAA3 JUMPI DUP1 DUP3 ADD MLOAD DUP2 DUP5 ADD MSTORE PUSH1 0x20 DUP2 ADD SWAP1 POP PUSH2 0xA88 JUMP JUMPDEST POP POP POP POP SWAP1 POP ADD DUP4 DUP2 SUB DUP3 MSTORE DUP5 DUP2 DUP2 MLOAD DUP2 MSTORE PUSH1 0x20 ADD SWAP2 POP DUP1 MLOAD SWAP1 PUSH1 0x20 ADD SWAP1 PUSH1 0x20 MUL DUP1 DUP4 DUP4 PUSH1 0x0 JUMPDEST DUP4 DUP2 LT ISZERO PUSH2 0xAE5 JUMPI DUP1 DUP3 ADD MLOAD DUP2 DUP5 ADD MSTORE PUSH1 0x20 DUP2 ADD SWAP1 POP PUSH2 0xACA JUMP JUMPDEST POP POP POP POP SWAP1 POP ADD SWAP5 POP POP POP POP POP PUSH1 0x40 MLOAD DUP1 SWAP2 SUB SWAP1 RETURN JUMPDEST CALLVALUE DUP1 ISZERO PUSH2 0xB07 JUMPI PUSH1 0x0 DUP1 REVERT JUMPDEST POP PUSH2 0xB34 PUSH1 0x4 DUP1 CALLDATASIZE SUB PUSH1 0x20 DUP2 LT ISZERO PUSH2 0xB1E JUMPI PUSH1 0x0 DUP1 REVERT JUMPDEST DUP2 ADD SWAP1 DUP1 DUP1 CALLDATALOAD SWAP1 PUSH1 0x20 ADD SWAP1 SWAP3 SWAP2 SWAP1 POP POP POP PUSH2 0x345A JUMP JUMPDEST PUSH1 0x40 MLOAD DUP1 DUP3 DUP2 MSTORE PUSH1 0x20 ADD SWAP2 POP POP PUSH1 0x40 MLOAD DUP1 SWAP2 SUB SWAP1 RETURN JUMPDEST CALLVALUE DUP1 ISZERO PUSH2 0xB56 JUMPI PUSH1 0x0 DUP1 REVERT JUMPDEST POP PUSH2 0xB83 PUSH1 0x4 DUP1 CALLDATASIZE SUB PUSH1 0x20 DUP2 LT ISZERO PUSH2 0xB6D JUMPI PUSH1 0x0 DUP1 REVERT JUMPDEST DUP2 ADD SWAP1 DUP1 DUP1 CALLDATALOAD SWAP1 PUSH1 0x20 ADD SWAP1 SWAP3 SWAP2 SWAP1 POP POP POP PUSH2 0x3472 JUMP JUMPDEST PUSH1 0x40 MLOAD DUP1 DUP3 DUP2 MSTORE PUSH1 0x20 ADD SWAP2 POP POP PUSH1 0x40 MLOAD DUP1 SWAP2 SUB SWAP1 RETURN JUMPDEST CALLVALUE DUP1 ISZERO PUSH2 0xBA5 JUMPI PUSH1 0x0 DUP1 REVERT JUMPDEST POP PUSH2 0xBD2 PUSH1 0x4 DUP1 CALLDATASIZE SUB PUSH1 0x20 DUP2 LT ISZERO PUSH2 0xBBC JUMPI PUSH1 0x0 DUP1 REVERT JUMPDEST DUP2 ADD SWAP1 DUP1 DUP1 CALLDATALOAD SWAP1 PUSH1 0x20 ADD SWAP1 SWAP3 SWAP2 SWAP1 POP POP POP PUSH2 0x3493 JUMP JUMPDEST PUSH1 0x40 MLOAD DUP1 DUP3 DUP2 MSTORE PUSH1 0x20 ADD SWAP2 POP POP PUSH1 0x40 MLOAD DUP1 SWAP2 SUB SWAP1 RETURN JUMPDEST CALLVALUE DUP1 ISZERO PUSH2 0xBF4 JUMPI PUSH1 0x0 DUP1 REVERT JUMPDEST POP PUSH2 0xC37 PUSH1 0x4 DUP1 CALLDATASIZE SUB PUSH1 0x20 DUP2 LT ISZERO PUSH2 0xC0B JUMPI PUSH1 0x0 DUP1 REVERT JUMPDEST DUP2 ADD SWAP1 DUP1 DUP1 CALLDATALOAD PUSH20 0xFFFFFFFFFFFFFFFFFFFFFFFFFFFFFFFFFFFFFFFF AND SWAP1 PUSH1 0x20 ADD SWAP1 SWAP3 SWAP2 SWAP1 POP POP POP PUSH2 0x34AB JUMP JUMPDEST PUSH1 0x40 MLOAD DUP1 DUP12 DUP2 MSTORE PUSH1 0x20 ADD DUP11 DUP2 MSTORE PUSH1 0x20 ADD DUP10 DUP2 MSTORE PUSH1 0x20 ADD DUP9 PUSH20 0xFFFFFFFFFFFFFFFFFFFFFFFFFFFFFFFFFFFFFFFF AND DUP2 MSTORE PUSH1 0x20 ADD DUP8 DUP2 MSTORE PUSH1 0x20 ADD DUP7 DUP2 MSTORE PUSH1 0x20 ADD DUP6 DUP2 MSTORE PUSH1 0x20 ADD DUP5 DUP2 MSTORE PUSH1 0x20 ADD DUP4 DUP2 MSTORE PUSH1 0x20 ADD DUP3 DUP2 MSTORE PUSH1 0x20 ADD SWAP11 POP POP POP POP POP POP POP POP POP POP POP PUSH1 0x40 MLOAD DUP1 SWAP2 SUB SWAP1 RETURN JUMPDEST CALLVALUE DUP1 ISZERO PUSH2 0xCAE JUMPI PUSH1 0x0 DUP1 REVERT JUMPDEST POP PUSH2 0xCB7 PUSH2 0x3665 JUMP JUMPDEST PUSH1 0x40 MLOAD DUP1 DUP3 DUP2 MSTORE PUSH1 0x20 ADD SWAP2 POP POP PUSH1 0x40 MLOAD DUP1 SWAP2 SUB SWAP1 RETURN JUMPDEST CALLVALUE DUP1 ISZERO PUSH2 0xCD9 JUMPI PUSH1 0x0 DUP1 REVERT JUMPDEST POP PUSH2 0xCE2 PUSH2 0x366D JUMP JUMPDEST PUSH1 0x40 MLOAD DUP1 DUP3 DUP2 MSTORE PUSH1 0x20 ADD SWAP2 POP POP PUSH1 0x40 MLOAD DUP1 SWAP2 SUB SWAP1 RETURN JUMPDEST PUSH2 0xD00 PUSH2 0x3673 JUMP JUMPDEST STOP JUMPDEST CALLVALUE DUP1 ISZERO PUSH2 0xD0E JUMPI PUSH1 0x0 DUP1 REVERT JUMPDEST POP PUSH2 0xD3B PUSH1 0x4 DUP1 CALLDATASIZE SUB PUSH1 0x20 DUP2 LT ISZERO PUSH2 0xD25 JUMPI PUSH1 0x0 DUP1 REVERT JUMPDEST DUP2 ADD SWAP1 DUP1 DUP1 CALLDATALOAD SWAP1 PUSH1 0x20 ADD SWAP1 SWAP3 SWAP2 SWAP1 POP POP POP PUSH2 0x3675 JUMP JUMPDEST PUSH1 0x40 MLOAD DUP1 DUP3 PUSH20 0xFFFFFFFFFFFFFFFFFFFFFFFFFFFFFFFFFFFFFFFF AND DUP2 MSTORE PUSH1 0x20 ADD SWAP2 POP POP PUSH1 0x40 MLOAD DUP1 SWAP2 SUB SWAP1 RETURN JUMPDEST CALLVALUE DUP1 ISZERO PUSH2 0xD73 JUMPI PUSH1 0x0 DUP1 REVERT JUMPDEST POP PUSH2 0xD7C PUSH2 0x36B2 JUMP JUMPDEST PUSH1 0x40 MLOAD DUP1 DUP3 PUSH1 0x32 PUSH1 0x20 MUL DUP1 DUP4 DUP4 PUSH1 0x0 JUMPDEST DUP4 DUP2 LT ISZERO PUSH2 0xDA7 JUMPI DUP1 DUP3 ADD MLOAD DUP2 DUP5 ADD MSTORE PUSH1 0x20 DUP2 ADD SWAP1 POP PUSH2 0xD8C JUMP JUMPDEST POP POP POP POP SWAP1 POP ADD SWAP2 POP POP PUSH1 0x40 MLOAD DUP1 SWAP2 SUB SWAP1 RETURN JUMPDEST CALLVALUE DUP1 ISZERO PUSH2 0xDC6 JUMPI PUSH1 0x0 DUP1 REVERT JUMPDEST POP PUSH2 0xDCF PUSH2 0x3733 JUMP JUMPDEST PUSH1 0x40 MLOAD DUP1 DUP3 PUSH20 0xFFFFFFFFFFFFFFFFFFFFFFFFFFFFFFFFFFFFFFFF AND DUP2 MSTORE PUSH1 0x20 ADD SWAP2 POP POP PUSH1 0x40 MLOAD DUP1 SWAP2 SUB SWAP1 RETURN JUMPDEST CALLVALUE DUP1 ISZERO PUSH2 0xE07 JUMPI PUSH1 0x0 DUP1 REVERT JUMPDEST POP PUSH2 0xE34 PUSH1 0x4 DUP1 CALLDATASIZE SUB PUSH1 0x20 DUP2 LT ISZERO PUSH2 0xE1E JUMPI PUSH1 0x0 DUP1 REVERT JUMPDEST DUP2 ADD SWAP1 DUP1 DUP1 CALLDATALOAD SWAP1 PUSH1 0x20 ADD SWAP1 SWAP3 SWAP2 SWAP1 POP POP POP PUSH2 0x3759 JUMP JUMPDEST STOP JUMPDEST PUSH2 0xE78 PUSH1 0x4 DUP1 CALLDATASIZE SUB PUSH1 0x20 DUP2 LT ISZERO PUSH2 0xE4C JUMPI PUSH1 0x0 DUP1 REVERT JUMPDEST DUP2 ADD SWAP1 DUP1 DUP1 CALLDATALOAD PUSH20 0xFFFFFFFFFFFFFFFFFFFFFFFFFFFFFFFFFFFFFFFF AND SWAP1 PUSH1 0x20 ADD SWAP1 SWAP3 SWAP2 SWAP1 POP POP POP PUSH2 0x3C4E JUMP JUMPDEST STOP JUMPDEST CALLVALUE DUP1 ISZERO PUSH2 0xE86 JUMPI PUSH1 0x0 DUP1 REVERT JUMPDEST POP PUSH2 0xE8F PUSH2 0x4155 JUMP JUMPDEST PUSH1 0x40 MLOAD DUP1 DUP3 PUSH1 0xFF AND DUP2 MSTORE PUSH1 0x20 ADD SWAP2 POP POP PUSH1 0x40 MLOAD DUP1 SWAP2 SUB SWAP1 RETURN JUMPDEST CALLVALUE DUP1 ISZERO PUSH2 0xEB4 JUMPI PUSH1 0x0 DUP1 REVERT JUMPDEST POP PUSH2 0xEF7 PUSH1 0x4 DUP1 CALLDATASIZE SUB PUSH1 0x20 DUP2 LT ISZERO PUSH2 0xECB JUMPI PUSH1 0x0 DUP1 REVERT JUMPDEST DUP2 ADD SWAP1 DUP1 DUP1 CALLDATALOAD PUSH20 0xFFFFFFFFFFFFFFFFFFFFFFFFFFFFFFFFFFFFFFFF AND SWAP1 PUSH1 0x20 ADD SWAP1 SWAP3 SWAP2 SWAP1 POP POP POP PUSH2 0x4168 JUMP JUMPDEST PUSH1 0x40 MLOAD DUP1 DUP11 DUP2 MSTORE PUSH1 0x20 ADD DUP10 DUP2 MSTORE PUSH1 0x20 ADD DUP9 PUSH20 0xFFFFFFFFFFFFFFFFFFFFFFFFFFFFFFFFFFFFFFFF AND DUP2 MSTORE PUSH1 0x20 ADD DUP8 DUP2 MSTORE PUSH1 0x20 ADD DUP7 DUP2 MSTORE PUSH1 0x20 ADD DUP6 DUP2 MSTORE PUSH1 0x20 ADD DUP5 DUP2 MSTORE PUSH1 0x20 ADD DUP4 PUSH1 0xFF AND DUP2 MSTORE PUSH1 0x20 ADD DUP3 DUP2 MSTORE PUSH1 0x20 ADD SWAP10 POP POP POP POP POP POP POP POP POP POP PUSH1 0x40 MLOAD DUP1 SWAP2 SUB SWAP1 RETURN JUMPDEST CALLVALUE DUP1 ISZERO PUSH2 0xF6A JUMPI PUSH1 0x0 DUP1 REVERT JUMPDEST POP PUSH2 0xFAD PUSH1 0x4 DUP1 CALLDATASIZE SUB PUSH1 0x20 DUP2 LT ISZERO PUSH2 0xF81 JUMPI PUSH1 0x0 DUP1 REVERT JUMPDEST DUP2 ADD SWAP1 DUP1 DUP1 CALLDATALOAD PUSH20 0xFFFFFFFFFFFFFFFFFFFFFFFFFFFFFFFFFFFFFFFF AND SWAP1 PUSH1 0x20 ADD SWAP1 SWAP3 SWAP2 SWAP1 POP POP POP PUSH2 0x41E3 JUMP JUMPDEST PUSH1 0x40 MLOAD DUP1 DUP3 DUP2 MSTORE PUSH1 0x20 ADD SWAP2 POP POP PUSH1 0x40 MLOAD DUP1 SWAP2 SUB SWAP1 RETURN JUMPDEST PUSH2 0x1005 PUSH1 0x4 DUP1 CALLDATASIZE SUB PUSH1 0x20 DUP2 LT ISZERO PUSH2 0xFD9 JUMPI PUSH1 0x0 DUP1 REVERT JUMPDEST DUP2 ADD SWAP1 DUP1 DUP1 CALLDATALOAD PUSH20 0xFFFFFFFFFFFFFFFFFFFFFFFFFFFFFFFFFFFFFFFF AND SWAP1 PUSH1 0x20 ADD SWAP1 SWAP3 SWAP2 SWAP1 POP POP POP PUSH2 0x41FB JUMP JUMPDEST STOP JUMPDEST CALLVALUE DUP1 ISZERO PUSH2 0x1013 JUMPI PUSH1 0x0 DUP1 REVERT JUMPDEST POP PUSH2 0x1056 PUSH1 0x4 DUP1 CALLDATASIZE SUB PUSH1 0x20 DUP2 LT ISZERO PUSH2 0x102A JUMPI PUSH1 0x0 DUP1 REVERT JUMPDEST DUP2 ADD SWAP1 DUP1 DUP1 CALLDATALOAD PUSH20 0xFFFFFFFFFFFFFFFFFFFFFFFFFFFFFFFFFFFFFFFF AND SWAP1 PUSH1 0x20 ADD SWAP1 SWAP3 SWAP2 SWAP1 POP POP POP PUSH2 0x4211 JUMP JUMPDEST PUSH1 0x40 MLOAD DUP1 DUP3 DUP2 MSTORE PUSH1 0x20 ADD SWAP2 POP POP PUSH1 0x40 MLOAD DUP1 SWAP2 SUB SWAP1 RETURN JUMPDEST CALLVALUE DUP1 ISZERO PUSH2 0x1078 JUMPI PUSH1 0x0 DUP1 REVERT JUMPDEST POP PUSH2 0x1081 PUSH2 0x42C4 JUMP JUMPDEST PUSH1 0x40 MLOAD DUP1 DUP3 PUSH1 0xFF AND DUP2 MSTORE PUSH1 0x20 ADD SWAP2 POP POP PUSH1 0x40 MLOAD DUP1 SWAP2 SUB SWAP1 RETURN JUMPDEST CALLVALUE DUP1 ISZERO PUSH2 0x10A6 JUMPI PUSH1 0x0 DUP1 REVERT JUMPDEST POP PUSH2 0x10AF PUSH2 0x42C9 JUMP JUMPDEST STOP JUMPDEST CALLVALUE DUP1 ISZERO PUSH2 0x10BD JUMPI PUSH1 0x0 DUP1 REVERT JUMPDEST POP PUSH2 0x10C6 PUSH2 0x44D7 JUMP JUMPDEST PUSH1 0x40 MLOAD DUP1 DUP3 PUSH1 0x10 PUSH1 0x20 MUL DUP1 DUP4 DUP4 PUSH1 0x0 JUMPDEST DUP4 DUP2 LT ISZERO PUSH2 0x10F1 JUMPI DUP1 DUP3 ADD MLOAD DUP2 DUP5 ADD MSTORE PUSH1 0x20 DUP2 ADD SWAP1 POP PUSH2 0x10D6 JUMP JUMPDEST POP POP POP POP SWAP1 POP ADD SWAP2 POP POP PUSH1 0x40 MLOAD DUP1 SWAP2 SUB SWAP1 RETURN JUMPDEST CALLVALUE DUP1 ISZERO PUSH2 0x1110 JUMPI PUSH1 0x0 DUP1 REVERT JUMPDEST POP PUSH2 0x1160 PUSH1 0x4 DUP1 CALLDATASIZE SUB PUSH1 0x40 DUP2 LT ISZERO PUSH2 0x1127 JUMPI PUSH1 0x0 DUP1 REVERT JUMPDEST DUP2 ADD SWAP1 DUP1 DUP1 CALLDATALOAD PUSH20 0xFFFFFFFFFFFFFFFFFFFFFFFFFFFFFFFFFFFFFFFF AND SWAP1 PUSH1 0x20 ADD SWAP1 SWAP3 SWAP2 SWAP1 DUP1 CALLDATALOAD PUSH1 0xFF AND SWAP1 PUSH1 0x20 ADD SWAP1 SWAP3 SWAP2 SWAP1 POP POP POP PUSH2 0x4522 JUMP JUMPDEST PUSH1 0x40 MLOAD DUP1 DUP4 DUP2 MSTORE PUSH1 0x20 ADD DUP3 DUP2 MSTORE PUSH1 0x20 ADD SWAP3 POP POP POP PUSH1 0x40 MLOAD DUP1 SWAP2 SUB SWAP1 RETURN JUMPDEST CALLVALUE DUP1 ISZERO PUSH2 0x1189 JUMPI PUSH1 0x0 DUP1 REVERT JUMPDEST POP PUSH2 0x1192 PUSH2 0x4755 JUMP JUMPDEST PUSH1 0x40 MLOAD DUP1 DUP3 PUSH1 0xFF AND DUP2 MSTORE PUSH1 0x20 ADD SWAP2 POP POP PUSH1 0x40 MLOAD DUP1 SWAP2 SUB SWAP1 RETURN JUMPDEST CALLVALUE DUP1 ISZERO PUSH2 0x11B7 JUMPI PUSH1 0x0 DUP1 REVERT JUMPDEST POP PUSH2 0x11C0 PUSH2 0x475A JUMP JUMPDEST PUSH1 0x40 MLOAD DUP1 DUP3 DUP2 MSTORE PUSH1 0x20 ADD SWAP2 POP POP PUSH1 0x40 MLOAD DUP1 SWAP2 SUB SWAP1 RETURN JUMPDEST PUSH1 0x0 DUP1 PUSH1 0x6B PUSH1 0x0 DUP5 PUSH20 0xFFFFFFFFFFFFFFFFFFFFFFFFFFFFFFFFFFFFFFFF AND PUSH20 0xFFFFFFFFFFFFFFFFFFFFFFFFFFFFFFFFFFFFFFFF AND DUP2 MSTORE PUSH1 0x20 ADD SWAP1 DUP2 MSTORE PUSH1 0x20 ADD PUSH1 0x0 KECCAK256 PUSH1 0x0 ADD SLOAD EQ ISZERO SWAP1 POP SWAP2 SWAP1 POP JUMP JUMPDEST PUSH2 0x1250 PUSH1 0x66 PUSH1 0x2 SWAP1 SLOAD SWAP1 PUSH2 0x100 EXP SWAP1 DIV PUSH20 0xFFFFFFFFFFFFFFFFFFFFFFFFFFFFFFFFFFFFFFFF AND PUSH2 0x3C4E JUMP JUMPDEST JUMP JUMPDEST PUSH1 0x2 PUSH1 0x0 SLOAD EQ ISZERO PUSH2 0x12CB JUMPI PUSH1 0x40 MLOAD PUSH32 0x8C379A000000000000000000000000000000000000000000000000000000000 DUP2 MSTORE PUSH1 0x4 ADD DUP1 DUP1 PUSH1 0x20 ADD DUP3 DUP2 SUB DUP3 MSTORE PUSH1 0x1F DUP2 MSTORE PUSH1 0x20 ADD DUP1 PUSH32 0x5265656E7472616E637947756172643A207265656E7472616E742063616C6C00 DUP2 MSTORE POP PUSH1 0x20 ADD SWAP2 POP POP PUSH1 0x40 MLOAD DUP1 SWAP2 SUB SWAP1 REVERT JUMPDEST PUSH1 0x2 PUSH1 0x0 DUP2 SWAP1 SSTORE POP PUSH2 0x12DC CALLER PUSH2 0x11D6 JUMP JUMPDEST PUSH2 0x134E JUMPI PUSH1 0x40 MLOAD PUSH32 0x8C379A000000000000000000000000000000000000000000000000000000000 DUP2 MSTORE PUSH1 0x4 ADD DUP1 DUP1 PUSH1 0x20 ADD DUP3 DUP2 SUB DUP3 MSTORE PUSH1 0x16 DUP2 MSTORE PUSH1 0x20 ADD DUP1 PUSH32 0x55736572206973206E6F74207265676973746572656400000000000000000000 DUP2 MSTORE POP PUSH1 0x20 ADD SWAP2 POP POP PUSH1 0x40 MLOAD DUP1 SWAP2 SUB SWAP1 REVERT JUMPDEST PUSH1 0x0 DUP2 PUSH1 0xFF AND GT DUP1 ISZERO PUSH2 0x1366 JUMPI POP PUSH1 0x69 SLOAD DUP2 PUSH1 0xFF AND GT ISZERO JUMPDEST PUSH2 0x13D8 JUMPI PUSH1 0x40 MLOAD PUSH32 0x8C379A000000000000000000000000000000000000000000000000000000000 DUP2 MSTORE PUSH1 0x4 ADD DUP1 DUP1 PUSH1 0x20 ADD DUP3 DUP2 SUB DUP3 MSTORE PUSH1 0xD DUP2 MSTORE PUSH1 0x20 ADD DUP1 PUSH32 0x496E76616C696420726F756E6400000000000000000000000000000000000000 DUP2 MSTORE POP PUSH1 0x20 ADD SWAP2 POP POP PUSH1 0x40 MLOAD DUP1 SWAP2 SUB SWAP1 REVERT JUMPDEST CALLVALUE PUSH1 0x68 DUP3 PUSH1 0xFF AND DUP2 SLOAD DUP2 LT PUSH2 0x13E9 JUMPI INVALID JUMPDEST SWAP1 PUSH1 0x0 MSTORE PUSH1 0x20 PUSH1 0x0 KECCAK256 ADD SLOAD EQ PUSH2 0x1467 JUMPI PUSH1 0x40 MLOAD PUSH32 0x8C379A000000000000000000000000000000000000000000000000000000000 DUP2 MSTORE PUSH1 0x4 ADD DUP1 DUP1 PUSH1 0x20 ADD DUP3 DUP2 SUB DUP3 MSTORE PUSH1 0x11 DUP2 MSTORE PUSH1 0x20 ADD DUP1 PUSH32 0x496E76616C696420424E422076616C7565000000000000000000000000000000 DUP2 MSTORE POP PUSH1 0x20 ADD SWAP2 POP POP PUSH1 0x40 MLOAD DUP1 SWAP2 SUB SWAP1 REVERT JUMPDEST PUSH2 0x1470 CALLER PUSH2 0x2A4A JUMP JUMPDEST ISZERO PUSH2 0x14E3 JUMPI PUSH1 0x40 MLOAD PUSH32 0x8C379A000000000000000000000000000000000000000000000000000000000 DUP2 MSTORE PUSH1 0x4 ADD DUP1 DUP1 PUSH1 0x20 ADD DUP3 DUP2 SUB DUP3 MSTORE PUSH1 0x15 DUP2 MSTORE PUSH1 0x20 ADD DUP1 PUSH32 0x43616E206E6F74206265206120636F6E74726163740000000000000000000000 DUP2 MSTORE POP PUSH1 0x20 ADD SWAP2 POP POP PUSH1 0x40 MLOAD DUP1 SWAP2 SUB SWAP1 REVERT JUMPDEST PUSH1 0x1 PUSH1 0x6B PUSH1 0x0 CALLER PUSH20 0xFFFFFFFFFFFFFFFFFFFFFFFFFFFFFFFFFFFFFFFF AND PUSH20 0xFFFFFFFFFFFFFFFFFFFFFFFFFFFFFFFFFFFFFFFF AND DUP2 MSTORE PUSH1 0x20 ADD SWAP1 DUP2 MSTORE PUSH1 0x20 ADD PUSH1 0x0 KECCAK256 PUSH1 0x8 ADD PUSH1 0x0 SWAP1 SLOAD SWAP1 PUSH2 0x100 EXP SWAP1 DIV PUSH1 0xFF AND ADD PUSH1 0xFF AND DUP2 PUSH1 0xFF AND GT ISZERO PUSH2 0x15B1 JUMPI PUSH1 0x40 MLOAD PUSH32 0x8C379A000000000000000000000000000000000000000000000000000000000 DUP2 MSTORE PUSH1 0x4 ADD DUP1 DUP1 PUSH1 0x20 ADD DUP3 DUP2 SUB DUP3 MSTORE PUSH1 0x13 DUP2 MSTORE PUSH1 0x20 ADD DUP1 PUSH32 0x526F756E64206E6F7420617661696C61626C6500000000000000000000000000 DUP2 MSTORE POP PUSH1 0x20 ADD SWAP2 POP POP PUSH1 0x40 MLOAD DUP1 SWAP2 SUB SWAP1 REVERT JUMPDEST TIMESTAMP PUSH1 0x45 DUP3 PUSH1 0xFF AND PUSH1 0x10 DUP2 LT PUSH2 0x15C2 JUMPI INVALID JUMPDEST ADD SLOAD LT ISZERO PUSH2 0x1703 JUMPI PUSH1 0x0 PUSH2 0x15D5 DUP3 PUSH2 0x30E2 JUMP JUMPDEST SWAP1 POP PUSH1 0x0 PUSH1 0x55 DUP4 PUSH1 0xFF AND PUSH1 0x10 DUP2 LT PUSH2 0x15E9 JUMPI INVALID JUMPDEST ADD PUSH1 0x0 SWAP1 SLOAD SWAP1 PUSH2 0x100 EXP SWAP1 DIV PUSH20 0xFFFFFFFFFFFFFFFFFFFFFFFFFFFFFFFFFFFFFFFF AND PUSH20 0xFFFFFFFFFFFFFFFFFFFFFFFFFFFFFFFFFFFFFFFF AND PUSH2 0x8FC DUP4 SWAP1 DUP2 ISZERO MUL SWAP1 PUSH1 0x40 MLOAD PUSH1 0x0 PUSH1 0x40 MLOAD DUP1 DUP4 SUB DUP2 DUP6 DUP9 DUP9 CALL SWAP4 POP POP POP POP SWAP1 POP DUP1 ISZERO PUSH2 0x16FC JUMPI PUSH3 0x15180 PUSH1 0x45 DUP5 PUSH1 0xFF AND PUSH1 0x10 DUP2 LT PUSH2 0x165B JUMPI INVALID JUMPDEST ADD PUSH1 0x0 DUP3 DUP3 SLOAD ADD SWAP3 POP POP DUP2 SWAP1 SSTORE POP PUSH1 0x55 DUP4 PUSH1 0xFF AND PUSH1 0x10 DUP2 LT PUSH2 0x1679 JUMPI INVALID JUMPDEST ADD PUSH1 0x0 SWAP1 SLOAD SWAP1 PUSH2 0x100 EXP SWAP1 DIV PUSH20 0xFFFFFFFFFFFFFFFFFFFFFFFFFFFFFFFFFFFFFFFF AND PUSH20 0xFFFFFFFFFFFFFFFFFFFFFFFFFFFFFFFFFFFFFFFF AND PUSH32 0x8EA1A10DE3733DB603227CA0E3CD0FEB6DA4F1C33FB15CB9265FA333A64797C2 TIMESTAMP DUP6 DUP6 PUSH1 0x40 MLOAD DUP1 DUP5 DUP2 MSTORE PUSH1 0x20 ADD DUP4 PUSH1 0xFF AND DUP2 MSTORE PUSH1 0x20 ADD DUP3 DUP2 MSTORE PUSH1 0x20 ADD SWAP4 POP POP POP POP PUSH1 0x40 MLOAD DUP1 SWAP2 SUB SWAP1 LOG2 JUMPDEST POP POP PUSH2 0x1739 JUMP JUMPDEST PUSH2 0xE10 PUSH1 0x45 DUP3 PUSH1 0xFF AND PUSH1 0x10 DUP2 LT PUSH2 0x1716 JUMPI INVALID JUMPDEST ADD PUSH1 0x0 DUP3 DUP3 SLOAD ADD SWAP3 POP POP DUP2 SWAP1 SSTORE POP TIMESTAMP PUSH1 0x45 PUSH1 0x0 PUSH1 0x10 DUP2 LT PUSH2 0x1733 JUMPI INVALID JUMPDEST ADD DUP2 SWAP1 SSTORE POP JUMPDEST CALLER PUSH1 0x55 DUP3 PUSH1 0xFF AND PUSH1 0x10 DUP2 LT PUSH2 0x174A JUMPI INVALID JUMPDEST ADD PUSH1 0x0 PUSH2 0x100 EXP DUP2 SLOAD DUP2 PUSH20 0xFFFFFFFFFFFFFFFFFFFFFFFFFFFFFFFFFFFFFFFF MUL NOT AND SWAP1 DUP4 PUSH20 0xFFFFFFFFFFFFFFFFFFFFFFFFFFFFFFFFFFFFFFFF AND MUL OR SWAP1 SSTORE POP PUSH1 0x6B PUSH1 0x0 CALLER PUSH20 0xFFFFFFFFFFFFFFFFFFFFFFFFFFFFFFFFFFFFFFFF AND PUSH20 0xFFFFFFFFFFFFFFFFFFFFFFFFFFFFFFFFFFFFFFFF AND DUP2 MSTORE PUSH1 0x20 ADD SWAP1 DUP2 MSTORE PUSH1 0x20 ADD PUSH1 0x0 KECCAK256 PUSH1 0x8 ADD PUSH1 0x0 DUP2 DUP2 SWAP1 SLOAD SWAP1 PUSH2 0x100 EXP SWAP1 DIV PUSH1 0xFF AND DUP1 SWAP3 SWAP2 SWAP1 PUSH1 0x1 ADD SWAP2 SWAP1 PUSH2 0x100 EXP DUP2 SLOAD DUP2 PUSH1 0xFF MUL NOT AND SWAP1 DUP4 PUSH1 0xFF AND MUL OR SWAP1 SSTORE POP POP CALLVALUE PUSH1 0x6B PUSH1 0x0 CALLER PUSH20 0xFFFFFFFFFFFFFFFFFFFFFFFFFFFFFFFFFFFFFFFF AND PUSH20 0xFFFFFFFFFFFFFFFFFFFFFFFFFFFFFFFFFFFFFFFF AND DUP2 MSTORE PUSH1 0x20 ADD SWAP1 DUP2 MSTORE PUSH1 0x20 ADD PUSH1 0x0 KECCAK256 PUSH1 0x9 ADD PUSH1 0x0 DUP3 DUP3 SLOAD ADD SWAP3 POP POP DUP2 SWAP1 SSTORE POP PUSH1 0x6F PUSH1 0x1 ADD PUSH1 0x0 DUP2 SLOAD DUP1 SWAP3 SWAP2 SWAP1 PUSH1 0x1 ADD SWAP2 SWAP1 POP SSTORE POP CALLVALUE PUSH1 0x6F PUSH1 0x2 ADD PUSH1 0x0 DUP3 DUP3 SLOAD ADD SWAP3 POP POP DUP2 SWAP1 SSTORE POP TIMESTAMP PUSH1 0x65 PUSH1 0x0 CALLER PUSH20 0xFFFFFFFFFFFFFFFFFFFFFFFFFFFFFFFFFFFFFFFF AND PUSH20 0xFFFFFFFFFFFFFFFFFFFFFFFFFFFFFFFFFFFFFFFF AND DUP2 MSTORE PUSH1 0x20 ADD SWAP1 DUP2 MSTORE PUSH1 0x20 ADD PUSH1 0x0 KECCAK256 DUP2 SWAP1 SSTORE POP TIMESTAMP PUSH1 0x6B PUSH1 0x0 CALLER PUSH20 0xFFFFFFFFFFFFFFFFFFFFFFFFFFFFFFFFFFFFFFFF AND PUSH20 0xFFFFFFFFFFFFFFFFFFFFFFFFFFFFFFFFFFFFFFFF AND DUP2 MSTORE PUSH1 0x20 ADD SWAP1 DUP2 MSTORE PUSH1 0x20 ADD PUSH1 0x0 KECCAK256 PUSH1 0x7 ADD PUSH1 0x0 DUP4 PUSH1 0xFF AND PUSH1 0xFF AND DUP2 MSTORE PUSH1 0x20 ADD SWAP1 DUP2 MSTORE PUSH1 0x20 ADD PUSH1 0x0 KECCAK256 PUSH1 0x3 ADD DUP2 SWAP1 SSTORE POP PUSH1 0x0 PUSH1 0x64 CALLVALUE DUP2 PUSH2 0x1924 JUMPI INVALID JUMPDEST DIV SWAP1 POP PUSH1 0x6B PUSH1 0x0 CALLER PUSH20 0xFFFFFFFFFFFFFFFFFFFFFFFFFFFFFFFFFFFFFFFF AND PUSH20 0xFFFFFFFFFFFFFFFFFFFFFFFFFFFFFFFFFFFFFFFF AND DUP2 MSTORE PUSH1 0x20 ADD SWAP1 DUP2 MSTORE PUSH1 0x20 ADD PUSH1 0x0 KECCAK256 PUSH1 0x7 ADD PUSH1 0x0 DUP4 PUSH1 0xFF AND PUSH1 0xFF AND DUP2 MSTORE PUSH1 0x20 ADD SWAP1 DUP2 MSTORE PUSH1 0x20 ADD PUSH1 0x0 KECCAK256 PUSH1 0x0 ADD PUSH1 0x6 SWAP1 SLOAD SWAP1 PUSH2 0x100 EXP SWAP1 DIV PUSH1 0xFF AND PUSH2 0x1C49 JUMPI PUSH1 0x6B PUSH1 0x0 CALLER PUSH20 0xFFFFFFFFFFFFFFFFFFFFFFFFFFFFFFFFFFFFFFFF AND PUSH20 0xFFFFFFFFFFFFFFFFFFFFFFFFFFFFFFFFFFFFFFFF AND DUP2 MSTORE PUSH1 0x20 ADD SWAP1 DUP2 MSTORE PUSH1 0x20 ADD PUSH1 0x0 KECCAK256 PUSH1 0x7 ADD PUSH1 0x0 DUP4 PUSH1 0xFF AND PUSH1 0xFF AND DUP2 MSTORE PUSH1 0x20 ADD SWAP1 DUP2 MSTORE PUSH1 0x20 ADD PUSH1 0x0 KECCAK256 PUSH1 0x0 ADD PUSH1 0x0 DUP2 DUP2 SWAP1 SLOAD SWAP1 PUSH2 0x100 EXP SWAP1 DIV PUSH2 0xFFFF AND DUP1 SWAP3 SWAP2 SWAP1 PUSH1 0x1 ADD SWAP2 SWAP1 PUSH2 0x100 EXP DUP2 SLOAD DUP2 PUSH2 0xFFFF MUL NOT AND SWAP1 DUP4 PUSH2 0xFFFF AND MUL OR SWAP1 SSTORE POP POP PUSH1 0x2 PUSH1 0xFF AND PUSH1 0x6B PUSH1 0x0 CALLER PUSH20 0xFFFFFFFFFFFFFFFFFFFFFFFFFFFFFFFFFFFFFFFF AND PUSH20 0xFFFFFFFFFFFFFFFFFFFFFFFFFFFFFFFFFFFFFFFF AND DUP2 MSTORE PUSH1 0x20 ADD SWAP1 DUP2 MSTORE PUSH1 0x20 ADD PUSH1 0x0 KECCAK256 PUSH1 0x7 ADD PUSH1 0x0 DUP5 PUSH1 0xFF AND PUSH1 0xFF AND DUP2 MSTORE PUSH1 0x20 ADD SWAP1 DUP2 MSTORE PUSH1 0x20 ADD PUSH1 0x0 KECCAK256 PUSH1 0x0 ADD PUSH1 0x2 DUP3 DUP3 DUP3 SWAP1 SLOAD SWAP1 PUSH2 0x100 EXP SWAP1 DIV PUSH2 0xFFFF AND ADD SWAP3 POP PUSH2 0x100 EXP DUP2 SLOAD DUP2 PUSH2 0xFFFF MUL NOT AND SWAP1 DUP4 PUSH2 0xFFFF AND MUL OR SWAP1 SSTORE POP PUSH1 0x1 PUSH1 0x6B PUSH1 0x0 CALLER PUSH20 0xFFFFFFFFFFFFFFFFFFFFFFFFFFFFFFFFFFFFFFFF AND PUSH20 0xFFFFFFFFFFFFFFFFFFFFFFFFFFFFFFFFFFFFFFFF AND DUP2 MSTORE PUSH1 0x20 ADD SWAP1 DUP2 MSTORE PUSH1 0x20 ADD PUSH1 0x0 KECCAK256 PUSH1 0x7 ADD PUSH1 0x0 DUP5 PUSH1 0xFF AND PUSH1 0xFF AND DUP2 MSTORE PUSH1 0x20 ADD SWAP1 DUP2 MSTORE PUSH1 0x20 ADD PUSH1 0x0 KECCAK256 PUSH1 0x0 ADD PUSH1 0x6 PUSH2 0x100 EXP DUP2 SLOAD DUP2 PUSH1 0xFF MUL NOT AND SWAP1 DUP4 ISZERO ISZERO MUL OR SWAP1 SSTORE POP PUSH1 0x6D PUSH1 0x0 DUP4 PUSH1 0xFF AND PUSH1 0xFF AND DUP2 MSTORE PUSH1 0x20 ADD SWAP1 DUP2 MSTORE PUSH1 0x20 ADD PUSH1 0x0 KECCAK256 CALLER SWAP1 DUP1 PUSH1 0x1 DUP2 SLOAD ADD DUP1 DUP3 SSTORE DUP1 SWAP2 POP POP PUSH1 0x1 SWAP1 SUB SWAP1 PUSH1 0x0 MSTORE PUSH1 0x20 PUSH1 0x0 KECCAK256 ADD PUSH1 0x0 SWAP1 SWAP2 SWAP1 SWAP2 SWAP1 SWAP2 PUSH2 0x100 EXP DUP2 SLOAD DUP2 PUSH20 0xFFFFFFFFFFFFFFFFFFFFFFFFFFFFFFFFFFFFFFFF MUL NOT AND SWAP1 DUP4 PUSH20 0xFFFFFFFFFFFFFFFFFFFFFFFFFFFFFFFFFFFFFFFF AND MUL OR SWAP1 SSTORE POP CALLER PUSH20 0xFFFFFFFFFFFFFFFFFFFFFFFFFFFFFFFFFFFFFFFF AND PUSH32 0x2F201BC547ACC49919922EAF7ECEA9F3389ADCA4DC6AB3FB4A7498CBBAAC63A2 TIMESTAMP PUSH1 0x6B PUSH1 0x0 CALLER PUSH20 0xFFFFFFFFFFFFFFFFFFFFFFFFFFFFFFFFFFFFFFFF AND PUSH20 0xFFFFFFFFFFFFFFFFFFFFFFFFFFFFFFFFFFFFFFFF AND DUP2 MSTORE PUSH1 0x20 ADD SWAP1 DUP2 MSTORE PUSH1 0x20 ADD PUSH1 0x0 KECCAK256 PUSH1 0x0 ADD SLOAD DUP6 PUSH1 0x40 MLOAD DUP1 DUP5 DUP2 MSTORE PUSH1 0x20 ADD DUP4 DUP2 MSTORE PUSH1 0x20 ADD DUP3 PUSH1 0xFF AND DUP2 MSTORE PUSH1 0x20 ADD SWAP4 POP POP POP POP PUSH1 0x40 MLOAD DUP1 SWAP2 SUB SWAP1 LOG2 PUSH2 0x1E80 JUMP JUMPDEST PUSH1 0x6B PUSH1 0x0 CALLER PUSH20 0xFFFFFFFFFFFFFFFFFFFFFFFFFFFFFFFFFFFFFFFF AND PUSH20 0xFFFFFFFFFFFFFFFFFFFFFFFFFFFFFFFFFFFFFFFF AND DUP2 MSTORE PUSH1 0x20 ADD SWAP1 DUP2 MSTORE PUSH1 0x20 ADD PUSH1 0x0 KECCAK256 PUSH1 0x7 ADD PUSH1 0x0 DUP4 PUSH1 0xFF AND PUSH1 0xFF AND DUP2 MSTORE PUSH1 0x20 ADD SWAP1 DUP2 MSTORE PUSH1 0x20 ADD PUSH1 0x0 KECCAK256 PUSH1 0x0 ADD PUSH1 0x0 DUP2 DUP2 SWAP1 SLOAD SWAP1 PUSH2 0x100 EXP SWAP1 DIV PUSH2 0xFFFF AND DUP1 SWAP3 SWAP2 SWAP1 PUSH1 0x1 ADD SWAP2 SWAP1 PUSH2 0x100 EXP DUP2 SLOAD DUP2 PUSH2 0xFFFF MUL NOT AND SWAP1 DUP4 PUSH2 0xFFFF AND MUL OR SWAP1 SSTORE POP POP PUSH1 0x2 PUSH1 0xFF AND PUSH1 0x6B PUSH1 0x0 CALLER PUSH20 0xFFFFFFFFFFFFFFFFFFFFFFFFFFFFFFFFFFFFFFFF AND PUSH20 0xFFFFFFFFFFFFFFFFFFFFFFFFFFFFFFFFFFFFFFFF AND DUP2 MSTORE PUSH1 0x20 ADD SWAP1 DUP2 MSTORE PUSH1 0x20 ADD PUSH1 0x0 KECCAK256 PUSH1 0x7 ADD PUSH1 0x0 DUP5 PUSH1 0xFF AND PUSH1 0xFF AND DUP2 MSTORE PUSH1 0x20 ADD SWAP1 DUP2 MSTORE PUSH1 0x20 ADD PUSH1 0x0 KECCAK256 PUSH1 0x0 ADD PUSH1 0x2 DUP3 DUP3 DUP3 SWAP1 SLOAD SWAP1 PUSH2 0x100 EXP SWAP1 DIV PUSH2 0xFFFF AND ADD SWAP3 POP PUSH2 0x100 EXP DUP2 SLOAD DUP2 PUSH2 0xFFFF MUL NOT AND SWAP1 DUP4 PUSH2 0xFFFF AND MUL OR SWAP1 SSTORE POP CALLER PUSH20 0xFFFFFFFFFFFFFFFFFFFFFFFFFFFFFFFFFFFFFFFF AND PUSH32 0x31BFA9AB73D15B5D752F5928D978DD4DABA1B2DD420BB2D965C54CFE366C5534 TIMESTAMP PUSH1 0x6B PUSH1 0x0 CALLER PUSH20 0xFFFFFFFFFFFFFFFFFFFFFFFFFFFFFFFFFFFFFFFF AND PUSH20 0xFFFFFFFFFFFFFFFFFFFFFFFFFFFFFFFFFFFFFFFF AND DUP2 MSTORE PUSH1 0x20 ADD SWAP1 DUP2 MSTORE PUSH1 0x20 ADD PUSH1 0x0 KECCAK256 PUSH1 0x0 ADD SLOAD DUP6 PUSH1 0x6B PUSH1 0x0 CALLER PUSH20 0xFFFFFFFFFFFFFFFFFFFFFFFFFFFFFFFFFFFFFFFF AND PUSH20 0xFFFFFFFFFFFFFFFFFFFFFFFFFFFFFFFFFFFFFFFF AND DUP2 MSTORE PUSH1 0x20 ADD SWAP1 DUP2 MSTORE PUSH1 0x20 ADD PUSH1 0x0 KECCAK256 PUSH1 0x7 ADD PUSH1 0x0 DUP9 PUSH1 0xFF AND PUSH1 0xFF AND DUP2 MSTORE PUSH1 0x20 ADD SWAP1 DUP2 MSTORE PUSH1 0x20 ADD PUSH1 0x0 KECCAK256 PUSH1 0x0 ADD PUSH1 0x2 SWAP1 SLOAD SWAP1 PUSH2 0x100 EXP SWAP1 DIV PUSH2 0xFFFF AND PUSH1 0x40 MLOAD DUP1 DUP6 DUP2 MSTORE PUSH1 0x20 ADD DUP5 DUP2 MSTORE PUSH1 0x20 ADD DUP4 PUSH1 0xFF AND DUP2 MSTORE PUSH1 0x20 ADD DUP3 PUSH2 0xFFFF AND DUP2 MSTORE PUSH1 0x20 ADD SWAP5 POP POP POP POP POP PUSH1 0x40 MLOAD DUP1 SWAP2 SUB SWAP1 LOG2 JUMPDEST PUSH1 0x0 PUSH1 0x4B PUSH1 0xFF AND DUP3 MUL SWAP1 POP CALLER PUSH20 0xFFFFFFFFFFFFFFFFFFFFFFFFFFFFFFFFFFFFFFFF AND PUSH1 0x6D PUSH1 0x0 DUP6 PUSH1 0xFF AND PUSH1 0xFF AND DUP2 MSTORE PUSH1 0x20 ADD SWAP1 DUP2 MSTORE PUSH1 0x20 ADD PUSH1 0x0 KECCAK256 PUSH1 0x6E PUSH1 0x0 DUP7 PUSH1 0xFF AND PUSH1 0xFF AND DUP2 MSTORE PUSH1 0x20 ADD SWAP1 DUP2 MSTORE PUSH1 0x20 ADD PUSH1 0x0 KECCAK256 SLOAD DUP2 SLOAD DUP2 LT PUSH2 0x1EDF JUMPI INVALID JUMPDEST SWAP1 PUSH1 0x0 MSTORE PUSH1 0x20 PUSH1 0x0 KECCAK256 ADD PUSH1 0x0 SWAP1 SLOAD SWAP1 PUSH2 0x100 EXP SWAP1 DIV PUSH20 0xFFFFFFFFFFFFFFFFFFFFFFFFFFFFFFFFFFFFFFFF AND PUSH20 0xFFFFFFFFFFFFFFFFFFFFFFFFFFFFFFFFFFFFFFFF AND EQ PUSH2 0x26A2 JUMPI PUSH1 0x0 PUSH1 0x6D PUSH1 0x0 DUP6 PUSH1 0xFF AND PUSH1 0xFF AND DUP2 MSTORE PUSH1 0x20 ADD SWAP1 DUP2 MSTORE PUSH1 0x20 ADD PUSH1 0x0 KECCAK256 PUSH1 0x6E PUSH1 0x0 DUP7 PUSH1 0xFF AND PUSH1 0xFF AND DUP2 MSTORE PUSH1 0x20 ADD SWAP1 DUP2 MSTORE PUSH1 0x20 ADD PUSH1 0x0 KECCAK256 SLOAD DUP2 SLOAD DUP2 LT PUSH2 0x1F64 JUMPI INVALID JUMPDEST SWAP1 PUSH1 0x0 MSTORE PUSH1 0x20 PUSH1 0x0 KECCAK256 ADD PUSH1 0x0 SWAP1 SLOAD SWAP1 PUSH2 0x100 EXP SWAP1 DIV PUSH20 0xFFFFFFFFFFFFFFFFFFFFFFFFFFFFFFFFFFFFFFFF AND SWAP1 POP PUSH1 0x0 DUP2 PUSH20 0xFFFFFFFFFFFFFFFFFFFFFFFFFFFFFFFFFFFFFFFF AND PUSH2 0x8FC DUP5 SWAP1 DUP2 ISZERO MUL SWAP1 PUSH1 0x40 MLOAD PUSH1 0x0 PUSH1 0x40 MLOAD DUP1 DUP4 SUB DUP2 DUP6 DUP9 DUP9 CALL SWAP4 POP POP POP POP SWAP1 POP DUP1 ISZERO PUSH2 0x2322 JUMPI PUSH1 0x0 PUSH1 0x66 PUSH1 0x1 SWAP1 SLOAD SWAP1 PUSH2 0x100 EXP SWAP1 DIV PUSH1 0xFF AND PUSH1 0xFF AND DUP6 MUL SWAP1 POP PUSH2 0x1FF4 DUP4 DUP8 DUP4 PUSH2 0x4760 JUMP JUMPDEST DUP4 PUSH1 0x6B PUSH1 0x0 DUP6 PUSH20 0xFFFFFFFFFFFFFFFFFFFFFFFFFFFFFFFFFFFFFFFF AND PUSH20 0xFFFFFFFFFFFFFFFFFFFFFFFFFFFFFFFFFFFFFFFF AND DUP2 MSTORE PUSH1 0x20 ADD SWAP1 DUP2 MSTORE PUSH1 0x20 ADD PUSH1 0x0 KECCAK256 PUSH1 0x7 ADD PUSH1 0x0 DUP9 PUSH1 0xFF AND PUSH1 0xFF AND DUP2 MSTORE PUSH1 0x20 ADD SWAP1 DUP2 MSTORE PUSH1 0x20 ADD PUSH1 0x0 KECCAK256 PUSH1 0x1 ADD PUSH1 0x0 DUP3 DUP3 SLOAD ADD SWAP3 POP POP DUP2 SWAP1 SSTORE POP PUSH1 0x6B PUSH1 0x0 DUP5 PUSH20 0xFFFFFFFFFFFFFFFFFFFFFFFFFFFFFFFFFFFFFFFF AND PUSH20 0xFFFFFFFFFFFFFFFFFFFFFFFFFFFFFFFFFFFFFFFF AND DUP2 MSTORE PUSH1 0x20 ADD SWAP1 DUP2 MSTORE PUSH1 0x20 ADD PUSH1 0x0 KECCAK256 PUSH1 0x7 ADD PUSH1 0x0 DUP8 PUSH1 0xFF AND PUSH1 0xFF AND DUP2 MSTORE PUSH1 0x20 ADD SWAP1 DUP2 MSTORE PUSH1 0x20 ADD PUSH1 0x0 KECCAK256 PUSH1 0x0 ADD PUSH1 0x4 DUP2 DUP2 SWAP1 SLOAD SWAP1 PUSH2 0x100 EXP SWAP1 DIV PUSH2 0xFFFF AND DUP1 SWAP3 SWAP2 SWAP1 PUSH1 0x1 ADD SWAP2 SWAP1 PUSH2 0x100 EXP DUP2 SLOAD DUP2 PUSH2 0xFFFF MUL NOT AND SWAP1 DUP4 PUSH2 0xFFFF AND MUL OR SWAP1 SSTORE POP POP DUP4 PUSH1 0x6B PUSH1 0x0 DUP6 PUSH20 0xFFFFFFFFFFFFFFFFFFFFFFFFFFFFFFFFFFFFFFFF AND PUSH20 0xFFFFFFFFFFFFFFFFFFFFFFFFFFFFFFFFFFFFFFFF AND DUP2 MSTORE PUSH1 0x20 ADD SWAP1 DUP2 MSTORE PUSH1 0x20 ADD PUSH1 0x0 KECCAK256 PUSH1 0x5 ADD PUSH1 0x0 DUP3 DUP3 SLOAD ADD SWAP3 POP POP DUP2 SWAP1 SSTORE POP DUP4 PUSH1 0x6B PUSH1 0x0 DUP6 PUSH20 0xFFFFFFFFFFFFFFFFFFFFFFFFFFFFFFFFFFFFFFFF AND PUSH20 0xFFFFFFFFFFFFFFFFFFFFFFFFFFFFFFFFFFFFFFFF AND DUP2 MSTORE PUSH1 0x20 ADD SWAP1 DUP2 MSTORE PUSH1 0x20 ADD PUSH1 0x0 KECCAK256 PUSH1 0x9 ADD PUSH1 0x0 DUP3 DUP3 SLOAD ADD SWAP3 POP POP DUP2 SWAP1 SSTORE POP PUSH1 0x6B PUSH1 0x0 DUP5 PUSH20 0xFFFFFFFFFFFFFFFFFFFFFFFFFFFFFFFFFFFFFFFF AND PUSH20 0xFFFFFFFFFFFFFFFFFFFFFFFFFFFFFFFFFFFFFFFF AND DUP2 MSTORE PUSH1 0x20 ADD SWAP1 DUP2 MSTORE PUSH1 0x20 ADD PUSH1 0x0 KECCAK256 PUSH1 0x7 ADD PUSH1 0x0 DUP8 PUSH1 0xFF AND PUSH1 0xFF AND DUP2 MSTORE PUSH1 0x20 ADD SWAP1 DUP2 MSTORE PUSH1 0x20 ADD PUSH1 0x0 KECCAK256 PUSH1 0x3 ADD SLOAD TIMESTAMP SUB PUSH4 0x2EFE0780 DUP2 PUSH2 0x21F8 JUMPI INVALID JUMPDEST DIV PUSH1 0x35 DUP8 PUSH1 0xFF AND PUSH1 0x10 DUP2 LT PUSH2 0x2209 JUMPI INVALID JUMPDEST ADD DUP2 SWAP1 SSTORE POP CALLER PUSH20 0xFFFFFFFFFFFFFFFFFFFFFFFFFFFFFFFFFFFFFFFF AND PUSH32 0xE4183700B5BFCFEAF533B813F60F33FF4A041FA7BF73DB1DD14FBB3EACE4FA35 TIMESTAMP PUSH1 0x6B PUSH1 0x0 DUP8 PUSH20 0xFFFFFFFFFFFFFFFFFFFFFFFFFFFFFFFFFFFFFFFF AND PUSH20 0xFFFFFFFFFFFFFFFFFFFFFFFFFFFFFFFFFFFFFFFF AND DUP2 MSTORE PUSH1 0x20 ADD SWAP1 DUP2 MSTORE PUSH1 0x20 ADD PUSH1 0x0 KECCAK256 PUSH1 0x0 ADD SLOAD DUP10 DUP9 PUSH1 0x6B PUSH1 0x0 CALLER PUSH20 0xFFFFFFFFFFFFFFFFFFFFFFFFFFFFFFFFFFFFFFFF AND PUSH20 0xFFFFFFFFFFFFFFFFFFFFFFFFFFFFFFFFFFFFFFFF AND DUP2 MSTORE PUSH1 0x20 ADD SWAP1 DUP2 MSTORE PUSH1 0x20 ADD PUSH1 0x0 KECCAK256 PUSH1 0x0 ADD SLOAD PUSH1 0x35 DUP14 PUSH1 0xFF AND PUSH1 0x10 DUP2 LT PUSH2 0x22DF JUMPI INVALID JUMPDEST ADD SLOAD PUSH1 0x40 MLOAD DUP1 DUP8 DUP2 MSTORE PUSH1 0x20 ADD DUP7 DUP2 MSTORE PUSH1 0x20 ADD DUP6 PUSH1 0xFF AND DUP2 MSTORE PUSH1 0x20 ADD DUP5 DUP2 MSTORE PUSH1 0x20 ADD DUP4 DUP2 MSTORE PUSH1 0x20 ADD DUP3 DUP2 MSTORE PUSH1 0x20 ADD SWAP7 POP POP POP POP POP POP POP PUSH1 0x40 MLOAD DUP1 SWAP2 SUB SWAP1 LOG2 POP PUSH2 0x238C JUMP JUMPDEST PUSH1 0x66 PUSH1 0x2 SWAP1 SLOAD SWAP1 PUSH2 0x100 EXP SWAP1 DIV PUSH20 0xFFFFFFFFFFFFFFFFFFFFFFFFFFFFFFFFFFFFFFFF AND PUSH20 0xFFFFFFFFFFFFFFFFFFFFFFFFFFFFFFFFFFFFFFFF AND PUSH2 0x8FC DUP5 SWAP1 DUP2 ISZERO MUL SWAP1 PUSH1 0x40 MLOAD PUSH1 0x0 PUSH1 0x40 MLOAD DUP1 DUP4 SUB DUP2 DUP6 DUP9 DUP9 CALL SWAP4 POP POP POP POP ISZERO DUP1 ISZERO PUSH2 0x238A JUMPI RETURNDATASIZE PUSH1 0x0 DUP1 RETURNDATACOPY RETURNDATASIZE PUSH1 0x0 REVERT JUMPDEST POP JUMPDEST PUSH1 0x6B PUSH1 0x0 DUP4 PUSH20 0xFFFFFFFFFFFFFFFFFFFFFFFFFFFFFFFFFFFFFFFF AND PUSH20 0xFFFFFFFFFFFFFFFFFFFFFFFFFFFFFFFFFFFFFFFF AND DUP2 MSTORE PUSH1 0x20 ADD SWAP1 DUP2 MSTORE PUSH1 0x20 ADD PUSH1 0x0 KECCAK256 PUSH1 0x7 ADD PUSH1 0x0 DUP7 PUSH1 0xFF AND PUSH1 0xFF AND DUP2 MSTORE PUSH1 0x20 ADD SWAP1 DUP2 MSTORE PUSH1 0x20 ADD PUSH1 0x0 KECCAK256 PUSH1 0x0 ADD PUSH1 0x2 SWAP1 SLOAD SWAP1 PUSH2 0x100 EXP SWAP1 DIV PUSH2 0xFFFF AND PUSH2 0xFFFF AND PUSH1 0x6B PUSH1 0x0 DUP5 PUSH20 0xFFFFFFFFFFFFFFFFFFFFFFFFFFFFFFFFFFFFFFFF AND PUSH20 0xFFFFFFFFFFFFFFFFFFFFFFFFFFFFFFFFFFFFFFFF AND DUP2 MSTORE PUSH1 0x20 ADD SWAP1 DUP2 MSTORE PUSH1 0x20 ADD PUSH1 0x0 KECCAK256 PUSH1 0x7 ADD PUSH1 0x0 DUP8 PUSH1 0xFF AND PUSH1 0xFF AND DUP2 MSTORE PUSH1 0x20 ADD SWAP1 DUP2 MSTORE PUSH1 0x20 ADD PUSH1 0x0 KECCAK256 PUSH1 0x0 ADD PUSH1 0x4 SWAP1 SLOAD SWAP1 PUSH2 0x100 EXP SWAP1 DIV PUSH2 0xFFFF AND PUSH2 0xFFFF AND LT ISZERO PUSH2 0x24EF JUMPI PUSH1 0x6D PUSH1 0x0 DUP7 PUSH1 0xFF AND PUSH1 0xFF AND DUP2 MSTORE PUSH1 0x20 ADD SWAP1 DUP2 MSTORE PUSH1 0x20 ADD PUSH1 0x0 KECCAK256 DUP3 SWAP1 DUP1 PUSH1 0x1 DUP2 SLOAD ADD DUP1 DUP3 SSTORE DUP1 SWAP2 POP POP PUSH1 0x1 SWAP1 SUB SWAP1 PUSH1 0x0 MSTORE PUSH1 0x20 PUSH1 0x0 KECCAK256 ADD PUSH1 0x0 SWAP1 SWAP2 SWAP1 SWAP2 SWAP1 SWAP2 PUSH2 0x100 EXP DUP2 SLOAD DUP2 PUSH20 0xFFFFFFFFFFFFFFFFFFFFFFFFFFFFFFFFFFFFFFFF MUL NOT AND SWAP1 DUP4 PUSH20 0xFFFFFFFFFFFFFFFFFFFFFFFFFFFFFFFFFFFFFFFF AND MUL OR SWAP1 SSTORE POP PUSH2 0x2608 JUMP JUMPDEST PUSH1 0x0 PUSH1 0x6B PUSH1 0x0 DUP5 PUSH20 0xFFFFFFFFFFFFFFFFFFFFFFFFFFFFFFFFFFFFFFFF AND PUSH20 0xFFFFFFFFFFFFFFFFFFFFFFFFFFFFFFFFFFFFFFFF AND DUP2 MSTORE PUSH1 0x20 ADD SWAP1 DUP2 MSTORE PUSH1 0x20 ADD PUSH1 0x0 KECCAK256 PUSH1 0x7 ADD PUSH1 0x0 DUP8 PUSH1 0xFF AND PUSH1 0xFF AND DUP2 MSTORE PUSH1 0x20 ADD SWAP1 DUP2 MSTORE PUSH1 0x20 ADD PUSH1 0x0 KECCAK256 PUSH1 0x0 ADD PUSH1 0x6 PUSH2 0x100 EXP DUP2 SLOAD DUP2 PUSH1 0xFF MUL NOT AND SWAP1 DUP4 ISZERO ISZERO MUL OR SWAP1 SSTORE POP CALLER PUSH20 0xFFFFFFFFFFFFFFFFFFFFFFFFFFFFFFFFFFFFFFFF AND PUSH32 0x1524BA6DFA482CF4EDA16273D76657DDB7F563B2E8A6C3F294564DE0FFC66211 TIMESTAMP PUSH1 0x6B PUSH1 0x0 DUP7 PUSH20 0xFFFFFFFFFFFFFFFFFFFFFFFFFFFFFFFFFFFFFFFF AND PUSH20 0xFFFFFFFFFFFFFFFFFFFFFFFFFFFFFFFFFFFFFFFF AND DUP2 MSTORE PUSH1 0x20 ADD SWAP1 DUP2 MSTORE PUSH1 0x20 ADD PUSH1 0x0 KECCAK256 PUSH1 0x0 ADD SLOAD DUP9 PUSH1 0x40 MLOAD DUP1 DUP5 DUP2 MSTORE PUSH1 0x20 ADD DUP4 DUP2 MSTORE PUSH1 0x20 ADD DUP3 PUSH1 0xFF AND DUP2 MSTORE PUSH1 0x20 ADD SWAP4 POP POP POP POP PUSH1 0x40 MLOAD DUP1 SWAP2 SUB SWAP1 LOG2 JUMPDEST PUSH1 0x6D PUSH1 0x0 DUP7 PUSH1 0xFF AND PUSH1 0xFF AND DUP2 MSTORE PUSH1 0x20 ADD SWAP1 DUP2 MSTORE PUSH1 0x20 ADD PUSH1 0x0 KECCAK256 PUSH1 0x6E PUSH1 0x0 DUP8 PUSH1 0xFF AND PUSH1 0xFF AND DUP2 MSTORE PUSH1 0x20 ADD SWAP1 DUP2 MSTORE PUSH1 0x20 ADD PUSH1 0x0 KECCAK256 SLOAD DUP2 SLOAD DUP2 LT PUSH2 0x2645 JUMPI INVALID JUMPDEST SWAP1 PUSH1 0x0 MSTORE PUSH1 0x20 PUSH1 0x0 KECCAK256 ADD PUSH1 0x0 PUSH2 0x100 EXP DUP2 SLOAD SWAP1 PUSH20 0xFFFFFFFFFFFFFFFFFFFFFFFFFFFFFFFFFFFFFFFF MUL NOT AND SWAP1 SSTORE PUSH1 0x6E PUSH1 0x0 DUP7 PUSH1 0xFF AND PUSH1 0xFF AND DUP2 MSTORE PUSH1 0x20 ADD SWAP1 DUP2 MSTORE PUSH1 0x20 ADD PUSH1 0x0 KECCAK256 PUSH1 0x0 DUP2 SLOAD DUP1 SWAP3 SWAP2 SWAP1 PUSH1 0x1 ADD SWAP2 SWAP1 POP SSTORE POP POP POP PUSH2 0x28BB JUMP JUMPDEST PUSH1 0x66 PUSH1 0x2 SWAP1 SLOAD SWAP1 PUSH2 0x100 EXP SWAP1 DIV PUSH20 0xFFFFFFFFFFFFFFFFFFFFFFFFFFFFFFFFFFFFFFFF AND PUSH20 0xFFFFFFFFFFFFFFFFFFFFFFFFFFFFFFFFFFFFFFFF AND PUSH2 0x8FC DUP3 SWAP1 DUP2 ISZERO MUL SWAP1 PUSH1 0x40 MLOAD PUSH1 0x0 PUSH1 0x40 MLOAD DUP1 DUP4 SUB DUP2 DUP6 DUP9 DUP9 CALL SWAP4 POP POP POP POP ISZERO DUP1 ISZERO PUSH2 0x270A JUMPI RETURNDATASIZE PUSH1 0x0 DUP1 RETURNDATACOPY RETURNDATASIZE PUSH1 0x0 REVERT JUMPDEST POP PUSH1 0x6B PUSH1 0x0 PUSH1 0x66 PUSH1 0x2 SWAP1 SLOAD SWAP1 PUSH2 0x100 EXP SWAP1 DIV PUSH20 0xFFFFFFFFFFFFFFFFFFFFFFFFFFFFFFFFFFFFFFFF AND PUSH20 0xFFFFFFFFFFFFFFFFFFFFFFFFFFFFFFFFFFFFFFFF AND PUSH20 0xFFFFFFFFFFFFFFFFFFFFFFFFFFFFFFFFFFFFFFFF AND DUP2 MSTORE PUSH1 0x20 ADD SWAP1 DUP2 MSTORE PUSH1 0x20 ADD PUSH1 0x0 KECCAK256 PUSH1 0x7 ADD PUSH1 0x0 DUP5 PUSH1 0xFF AND PUSH1 0xFF AND DUP2 MSTORE PUSH1 0x20 ADD SWAP1 DUP2 MSTORE PUSH1 0x20 ADD PUSH1 0x0 KECCAK256 PUSH1 0x0 ADD PUSH1 0x4 DUP2 DUP2 SWAP1 SLOAD SWAP1 PUSH2 0x100 EXP SWAP1 DIV PUSH2 0xFFFF AND DUP1 SWAP3 SWAP2 SWAP1 PUSH1 0x1 ADD SWAP2 SWAP1 PUSH2 0x100 EXP DUP2 SLOAD DUP2 PUSH2 0xFFFF MUL NOT AND SWAP1 DUP4 PUSH2 0xFFFF AND MUL OR SWAP1 SSTORE POP POP DUP1 PUSH1 0x6B PUSH1 0x0 PUSH1 0x66 PUSH1 0x2 SWAP1 SLOAD SWAP1 PUSH2 0x100 EXP SWAP1 DIV PUSH20 0xFFFFFFFFFFFFFFFFFFFFFFFFFFFFFFFFFFFFFFFF AND PUSH20 0xFFFFFFFFFFFFFFFFFFFFFFFFFFFFFFFFFFFFFFFF AND PUSH20 0xFFFFFFFFFFFFFFFFFFFFFFFFFFFFFFFFFFFFFFFF AND DUP2 MSTORE PUSH1 0x20 ADD SWAP1 DUP2 MSTORE PUSH1 0x20 ADD PUSH1 0x0 KECCAK256 PUSH1 0x7 ADD PUSH1 0x0 DUP6 PUSH1 0xFF AND PUSH1 0xFF AND DUP2 MSTORE PUSH1 0x20 ADD SWAP1 DUP2 MSTORE PUSH1 0x20 ADD PUSH1 0x0 KECCAK256 PUSH1 0x1 ADD PUSH1 0x0 DUP3 DUP3 SLOAD ADD SWAP3 POP POP DUP2 SWAP1 SSTORE POP DUP1 PUSH1 0x6B PUSH1 0x0 PUSH1 0x66 PUSH1 0x2 SWAP1 SLOAD SWAP1 PUSH2 0x100 EXP SWAP1 DIV PUSH20 0xFFFFFFFFFFFFFFFFFFFFFFFFFFFFFFFFFFFFFFFF AND PUSH20 0xFFFFFFFFFFFFFFFFFFFFFFFFFFFFFFFFFFFFFFFF AND PUSH20 0xFFFFFFFFFFFFFFFFFFFFFFFFFFFFFFFFFFFFFFFF AND DUP2 MSTORE PUSH1 0x20 ADD SWAP1 DUP2 MSTORE PUSH1 0x20 ADD PUSH1 0x0 KECCAK256 PUSH1 0x5 ADD PUSH1 0x0 DUP3 DUP3 SLOAD ADD SWAP3 POP POP DUP2 SWAP1 SSTORE POP JUMPDEST PUSH1 0x0 PUSH1 0x66 PUSH1 0x0 SWAP1 SLOAD SWAP1 PUSH2 0x100 EXP SWAP1 DIV PUSH1 0xFF AND PUSH1 0xFF AND DUP4 MUL SWAP1 POP PUSH2 0x28DF CALLER DUP6 DUP4 PUSH2 0x4C6E JUMP JUMPDEST PUSH1 0x0 PUSH1 0x67 PUSH1 0x0 SWAP1 SLOAD SWAP1 PUSH2 0x100 EXP SWAP1 DIV PUSH20 0xFFFFFFFFFFFFFFFFFFFFFFFFFFFFFFFFFFFFFFFF AND PUSH20 0xFFFFFFFFFFFFFFFFFFFFFFFFFFFFFFFFFFFFFFFF AND PUSH1 0x7 PUSH1 0xFF AND DUP6 MUL PUSH1 0x40 MLOAD DUP1 PUSH1 0x0 ADD SWAP1 POP PUSH1 0x0 PUSH1 0x40 MLOAD DUP1 DUP4 SUB DUP2 DUP6 DUP8 GAS CALL SWAP3 POP POP POP RETURNDATASIZE DUP1 PUSH1 0x0 DUP2 EQ PUSH2 0x2967 JUMPI PUSH1 0x40 MLOAD SWAP2 POP PUSH1 0x1F NOT PUSH1 0x3F RETURNDATASIZE ADD AND DUP3 ADD PUSH1 0x40 MSTORE RETURNDATASIZE DUP3 MSTORE RETURNDATASIZE PUSH1 0x0 PUSH1 0x20 DUP5 ADD RETURNDATACOPY PUSH2 0x296C JUMP JUMPDEST PUSH1 0x60 SWAP2 POP JUMPDEST POP POP SWAP1 POP DUP1 PUSH2 0x29E3 JUMPI PUSH1 0x40 MLOAD PUSH32 0x8C379A000000000000000000000000000000000000000000000000000000000 DUP2 MSTORE PUSH1 0x4 ADD DUP1 DUP1 PUSH1 0x20 ADD DUP3 DUP2 SUB DUP3 MSTORE PUSH1 0x1F DUP2 MSTORE PUSH1 0x20 ADD DUP1 PUSH32 0x7472616E73666572206661696C6564207768696C652062757920726F756E6400 DUP2 MSTORE POP PUSH1 0x20 ADD SWAP2 POP POP PUSH1 0x40 MLOAD DUP1 SWAP2 SUB SWAP1 REVERT JUMPDEST POP POP POP POP PUSH1 0x1 PUSH1 0x0 DUP2 SWAP1 SSTORE POP POP JUMP JUMPDEST PUSH1 0x60 PUSH1 0x68 DUP1 SLOAD DUP1 PUSH1 0x20 MUL PUSH1 0x20 ADD PUSH1 0x40 MLOAD SWAP1 DUP2 ADD PUSH1 0x40 MSTORE DUP1 SWAP3 SWAP2 SWAP1 DUP2 DUP2 MSTORE PUSH1 0x20 ADD DUP3 DUP1 SLOAD DUP1 ISZERO PUSH2 0x2A40 JUMPI PUSH1 0x20 MUL DUP3 ADD SWAP2 SWAP1 PUSH1 0x0 MSTORE PUSH1 0x20 PUSH1 0x0 KECCAK256 SWAP1 JUMPDEST DUP2 SLOAD DUP2 MSTORE PUSH1 0x20 ADD SWAP1 PUSH1 0x1 ADD SWAP1 DUP1 DUP4 GT PUSH2 0x2A2C JUMPI JUMPDEST POP POP POP POP POP SWAP1 POP SWAP1 JUMP JUMPDEST PUSH1 0x0 DUP1 DUP3 EXTCODESIZE SWAP1 POP PUSH1 0x0 DUP2 PUSH4 0xFFFFFFFF AND EQ ISZERO SWAP2 POP POP SWAP2 SWAP1 POP JUMP JUMPDEST PUSH1 0x1 DUP2 PUSH1 0x32 DUP2 LT PUSH2 0x2A71 JUMPI INVALID JUMPDEST ADD PUSH1 0x0 SWAP2 POP SLOAD SWAP1 PUSH2 0x100 EXP SWAP1 DIV PUSH20 0xFFFFFFFFFFFFFFFFFFFFFFFFFFFFFFFFFFFFFFFF AND DUP2 JUMP JUMPDEST PUSH1 0x0 DUP2 JUMP JUMPDEST PUSH1 0x60 DUP1 PUSH1 0x60 DUP1 PUSH1 0x60 DUP1 PUSH1 0x60 PUSH1 0x1 PUSH1 0x69 SLOAD ADD PUSH8 0xFFFFFFFFFFFFFFFF DUP2 GT DUP1 ISZERO PUSH2 0x2AC3 JUMPI PUSH1 0x0 DUP1 REVERT JUMPDEST POP PUSH1 0x40 MLOAD SWAP1 DUP1 DUP3 MSTORE DUP1 PUSH1 0x20 MUL PUSH1 0x20 ADD DUP3 ADD PUSH1 0x40 MSTORE DUP1 ISZERO PUSH2 0x2AF2 JUMPI DUP2 PUSH1 0x20 ADD PUSH1 0x20 DUP3 MUL DUP1 CALLDATASIZE DUP4 CALLDATACOPY DUP1 DUP3 ADD SWAP2 POP POP SWAP1 POP JUMPDEST POP SWAP1 POP PUSH1 0x60 PUSH1 0x1 PUSH1 0x69 SLOAD ADD PUSH8 0xFFFFFFFFFFFFFFFF DUP2 GT DUP1 ISZERO PUSH2 0x2B13 JUMPI PUSH1 0x0 DUP1 REVERT JUMPDEST POP PUSH1 0x40 MLOAD SWAP1 DUP1 DUP3 MSTORE DUP1 PUSH1 0x20 MUL PUSH1 0x20 ADD DUP3 ADD PUSH1 0x40 MSTORE DUP1 ISZERO PUSH2 0x2B42 JUMPI DUP2 PUSH1 0x20 ADD PUSH1 0x20 DUP3 MUL DUP1 CALLDATASIZE DUP4 CALLDATACOPY DUP1 DUP3 ADD SWAP2 POP POP SWAP1 POP JUMPDEST POP SWAP1 POP PUSH1 0x60 PUSH1 0x1 PUSH1 0x69 SLOAD ADD PUSH8 0xFFFFFFFFFFFFFFFF DUP2 GT DUP1 ISZERO PUSH2 0x2B63 JUMPI PUSH1 0x0 DUP1 REVERT JUMPDEST POP PUSH1 0x40 MLOAD SWAP1 DUP1 DUP3 MSTORE DUP1 PUSH1 0x20 MUL PUSH1 0x20 ADD DUP3 ADD PUSH1 0x40 MSTORE DUP1 ISZERO PUSH2 0x2B92 JUMPI DUP2 PUSH1 0x20 ADD PUSH1 0x20 DUP3 MUL DUP1 CALLDATASIZE DUP4 CALLDATACOPY DUP1 DUP3 ADD SWAP2 POP POP SWAP1 POP JUMPDEST POP SWAP1 POP PUSH1 0x60 PUSH1 0x1 PUSH1 0x69 SLOAD ADD PUSH8 0xFFFFFFFFFFFFFFFF DUP2 GT DUP1 ISZERO PUSH2 0x2BB3 JUMPI PUSH1 0x0 DUP1 REVERT JUMPDEST POP PUSH1 0x40 MLOAD SWAP1 DUP1 DUP3 MSTORE DUP1 PUSH1 0x20 MUL PUSH1 0x20 ADD DUP3 ADD PUSH1 0x40 MSTORE DUP1 ISZERO PUSH2 0x2BE2 JUMPI DUP2 PUSH1 0x20 ADD PUSH1 0x20 DUP3 MUL DUP1 CALLDATASIZE DUP4 CALLDATACOPY DUP1 DUP3 ADD SWAP2 POP POP SWAP1 POP JUMPDEST POP SWAP1 POP PUSH1 0x60 PUSH1 0x1 PUSH1 0x69 SLOAD ADD PUSH8 0xFFFFFFFFFFFFFFFF DUP2 GT DUP1 ISZERO PUSH2 0x2C03 JUMPI PUSH1 0x0 DUP1 REVERT JUMPDEST POP PUSH1 0x40 MLOAD SWAP1 DUP1 DUP3 MSTORE DUP1 PUSH1 0x20 MUL PUSH1 0x20 ADD DUP3 ADD PUSH1 0x40 MSTORE DUP1 ISZERO PUSH2 0x2C32 JUMPI DUP2 PUSH1 0x20 ADD PUSH1 0x20 DUP3 MUL DUP1 CALLDATASIZE DUP4 CALLDATACOPY DUP1 DUP3 ADD SWAP2 POP POP SWAP1 POP JUMPDEST POP SWAP1 POP PUSH1 0x60 PUSH1 0x1 PUSH1 0x69 SLOAD ADD PUSH8 0xFFFFFFFFFFFFFFFF DUP2 GT DUP1 ISZERO PUSH2 0x2C53 JUMPI PUSH1 0x0 DUP1 REVERT JUMPDEST POP PUSH1 0x40 MLOAD SWAP1 DUP1 DUP3 MSTORE DUP1 PUSH1 0x20 MUL PUSH1 0x20 ADD DUP3 ADD PUSH1 0x40 MSTORE DUP1 ISZERO PUSH2 0x2C82 JUMPI DUP2 PUSH1 0x20 ADD PUSH1 0x20 DUP3 MUL DUP1 CALLDATASIZE DUP4 CALLDATACOPY DUP1 DUP3 ADD SWAP2 POP POP SWAP1 POP JUMPDEST POP SWAP1 POP PUSH1 0x0 PUSH1 0x1 SWAP1 POP JUMPDEST PUSH1 0x69 SLOAD DUP2 PUSH1 0xFF AND GT PUSH2 0x2FD0 JUMPI PUSH1 0x6B PUSH1 0x0 DUP16 PUSH20 0xFFFFFFFFFFFFFFFFFFFFFFFFFFFFFFFFFFFFFFFF AND PUSH20 0xFFFFFFFFFFFFFFFFFFFFFFFFFFFFFFFFFFFFFFFF AND DUP2 MSTORE PUSH1 0x20 ADD SWAP1 DUP2 MSTORE PUSH1 0x20 ADD PUSH1 0x0 KECCAK256 PUSH1 0x7 ADD PUSH1 0x0 DUP3 PUSH1 0xFF AND PUSH1 0xFF AND DUP2 MSTORE PUSH1 0x20 ADD SWAP1 DUP2 MSTORE PUSH1 0x20 ADD PUSH1 0x0 KECCAK256 PUSH1 0x0 ADD PUSH1 0x6 SWAP1 SLOAD SWAP1 PUSH2 0x100 EXP SWAP1 DIV PUSH1 0xFF AND DUP8 DUP3 PUSH1 0xFF AND DUP2 MLOAD DUP2 LT PUSH2 0x2D11 JUMPI INVALID JUMPDEST PUSH1 0x20 MUL PUSH1 0x20 ADD ADD SWAP1 ISZERO ISZERO SWAP1 DUP2 ISZERO ISZERO DUP2 MSTORE POP POP PUSH1 0x6B PUSH1 0x0 DUP16 PUSH20 0xFFFFFFFFFFFFFFFFFFFFFFFFFFFFFFFFFFFFFFFF AND PUSH20 0xFFFFFFFFFFFFFFFFFFFFFFFFFFFFFFFFFFFFFFFF AND DUP2 MSTORE PUSH1 0x20 ADD SWAP1 DUP2 MSTORE PUSH1 0x20 ADD PUSH1 0x0 KECCAK256 PUSH1 0x7 ADD PUSH1 0x0 DUP3 PUSH1 0xFF AND PUSH1 0xFF AND DUP2 MSTORE PUSH1 0x20 ADD SWAP1 DUP2 MSTORE PUSH1 0x20 ADD PUSH1 0x0 KECCAK256 PUSH1 0x0 ADD PUSH1 0x4 SWAP1 SLOAD SWAP1 PUSH2 0x100 EXP SWAP1 DIV PUSH2 0xFFFF AND DUP7 DUP3 PUSH1 0xFF AND DUP2 MLOAD DUP2 LT PUSH2 0x2D9D JUMPI INVALID JUMPDEST PUSH1 0x20 MUL PUSH1 0x20 ADD ADD SWAP1 PUSH2 0xFFFF AND SWAP1 DUP2 PUSH2 0xFFFF AND DUP2 MSTORE POP POP PUSH1 0x6B PUSH1 0x0 DUP16 PUSH20 0xFFFFFFFFFFFFFFFFFFFFFFFFFFFFFFFFFFFFFFFF AND PUSH20 0xFFFFFFFFFFFFFFFFFFFFFFFFFFFFFFFFFFFFFFFF AND DUP2 MSTORE PUSH1 0x20 ADD SWAP1 DUP2 MSTORE PUSH1 0x20 ADD PUSH1 0x0 KECCAK256 PUSH1 0x7 ADD PUSH1 0x0 DUP3 PUSH1 0xFF AND PUSH1 0xFF AND DUP2 MSTORE PUSH1 0x20 ADD SWAP1 DUP2 MSTORE PUSH1 0x20 ADD PUSH1 0x0 KECCAK256 PUSH1 0x0 ADD PUSH1 0x2 SWAP1 SLOAD SWAP1 PUSH2 0x100 EXP SWAP1 DIV PUSH2 0xFFFF AND DUP6 DUP3 PUSH1 0xFF AND DUP2 MLOAD DUP2 LT PUSH2 0x2E2D JUMPI INVALID JUMPDEST PUSH1 0x20 MUL PUSH1 0x20 ADD ADD SWAP1 PUSH2 0xFFFF AND SWAP1 DUP2 PUSH2 0xFFFF AND DUP2 MSTORE POP POP PUSH1 0x6B PUSH1 0x0 DUP16 PUSH20 0xFFFFFFFFFFFFFFFFFFFFFFFFFFFFFFFFFFFFFFFF AND PUSH20 0xFFFFFFFFFFFFFFFFFFFFFFFFFFFFFFFFFFFFFFFF AND DUP2 MSTORE PUSH1 0x20 ADD SWAP1 DUP2 MSTORE PUSH1 0x20 ADD PUSH1 0x0 KECCAK256 PUSH1 0x7 ADD PUSH1 0x0 DUP3 PUSH1 0xFF AND PUSH1 0xFF AND DUP2 MSTORE PUSH1 0x20 ADD SWAP1 DUP2 MSTORE PUSH1 0x20 ADD PUSH1 0x0 KECCAK256 PUSH1 0x0 ADD PUSH1 0x0 SWAP1 SLOAD SWAP1 PUSH2 0x100 EXP SWAP1 DIV PUSH2 0xFFFF AND DUP5 DUP3 PUSH1 0xFF AND DUP2 MLOAD DUP2 LT PUSH2 0x2EBD JUMPI INVALID JUMPDEST PUSH1 0x20 MUL PUSH1 0x20 ADD ADD SWAP1 PUSH2 0xFFFF AND SWAP1 DUP2 PUSH2 0xFFFF AND DUP2 MSTORE POP POP PUSH1 0x6B PUSH1 0x0 DUP16 PUSH20 0xFFFFFFFFFFFFFFFFFFFFFFFFFFFFFFFFFFFFFFFF AND PUSH20 0xFFFFFFFFFFFFFFFFFFFFFFFFFFFFFFFFFFFFFFFF AND DUP2 MSTORE PUSH1 0x20 ADD SWAP1 DUP2 MSTORE PUSH1 0x20 ADD PUSH1 0x0 KECCAK256 PUSH1 0x7 ADD PUSH1 0x0 DUP3 PUSH1 0xFF AND PUSH1 0xFF AND DUP2 MSTORE PUSH1 0x20 ADD SWAP1 DUP2 MSTORE PUSH1 0x20 ADD PUSH1 0x0 KECCAK256 PUSH1 0x1 ADD SLOAD DUP4 DUP3 PUSH1 0xFF AND DUP2 MLOAD DUP2 LT PUSH2 0x2F3F JUMPI INVALID JUMPDEST PUSH1 0x20 MUL PUSH1 0x20 ADD ADD DUP2 DUP2 MSTORE POP POP PUSH1 0x6B PUSH1 0x0 DUP16 PUSH20 0xFFFFFFFFFFFFFFFFFFFFFFFFFFFFFFFFFFFFFFFF AND PUSH20 0xFFFFFFFFFFFFFFFFFFFFFFFFFFFFFFFFFFFFFFFF AND DUP2 MSTORE PUSH1 0x20 ADD SWAP1 DUP2 MSTORE PUSH1 0x20 ADD PUSH1 0x0 KECCAK256 PUSH1 0x7 ADD PUSH1 0x0 DUP3 PUSH1 0xFF AND PUSH1 0xFF AND DUP2 MSTORE PUSH1 0x20 ADD SWAP1 DUP2 MSTORE PUSH1 0x20 ADD PUSH1 0x0 KECCAK256 PUSH1 0x2 ADD SLOAD DUP3 DUP3 PUSH1 0xFF AND DUP2 MLOAD DUP2 LT PUSH2 0x2FB7 JUMPI INVALID JUMPDEST PUSH1 0x20 MUL PUSH1 0x20 ADD ADD DUP2 DUP2 MSTORE POP POP DUP1 DUP1 PUSH1 0x1 ADD SWAP2 POP POP PUSH2 0x2C8C JUMP JUMPDEST POP DUP6 DUP6 DUP6 DUP6 DUP6 DUP6 SWAP12 POP SWAP12 POP SWAP12 POP SWAP12 POP SWAP12 POP SWAP12 POP POP POP POP POP POP POP SWAP2 SWAP4 SWAP6 POP SWAP2 SWAP4 SWAP6 JUMP JUMPDEST PUSH1 0x55 DUP2 PUSH1 0x10 DUP2 LT PUSH2 0x2FFF JUMPI INVALID JUMPDEST ADD PUSH1 0x0 SWAP2 POP SLOAD SWAP1 PUSH2 0x100 EXP SWAP1 DIV PUSH20 0xFFFFFFFFFFFFFFFFFFFFFFFFFFFFFFFFFFFFFFFF AND DUP2 JUMP JUMPDEST PUSH2 0x302D PUSH2 0x517C JUMP JUMPDEST PUSH1 0x40 MLOAD DUP1 PUSH1 0xA0 ADD PUSH1 0x40 MSTORE DUP1 PUSH1 0x6F PUSH1 0x0 ADD SLOAD DUP2 MSTORE PUSH1 0x20 ADD PUSH1 0x6F PUSH1 0x1 ADD SLOAD DUP2 MSTORE PUSH1 0x20 ADD PUSH1 0x6F PUSH1 0x2 ADD SLOAD DUP2 MSTORE PUSH1 0x20 ADD PUSH1 0x33 SLOAD DUP2 MSTORE PUSH1 0x20 ADD PUSH1 0x34 SLOAD DUP2 MSTORE POP SWAP1 POP SWAP1 JUMP JUMPDEST PUSH1 0x2 DUP2 JUMP JUMPDEST PUSH1 0x67 PUSH1 0x0 SWAP1 SLOAD SWAP1 PUSH2 0x100 EXP SWAP1 DIV PUSH20 0xFFFFFFFFFFFFFFFFFFFFFFFFFFFFFFFFFFFFFFFF AND DUP2 JUMP JUMPDEST PUSH2 0x309F PUSH2 0x519E JUMP JUMPDEST PUSH1 0x45 PUSH1 0x10 DUP1 PUSH1 0x20 MUL PUSH1 0x40 MLOAD SWAP1 DUP2 ADD PUSH1 0x40 MSTORE DUP1 SWAP3 SWAP2 SWAP1 DUP3 PUSH1 0x10 DUP1 ISZERO PUSH2 0x30D8 JUMPI PUSH1 0x20 MUL DUP3 ADD SWAP2 JUMPDEST DUP2 SLOAD DUP2 MSTORE PUSH1 0x20 ADD SWAP1 PUSH1 0x1 ADD SWAP1 DUP1 DUP4 GT PUSH2 0x30C4 JUMPI JUMPDEST POP POP POP POP POP SWAP1 POP SWAP1 JUMP JUMPDEST PUSH1 0x0 DUP1 PUSH1 0x0 PUSH1 0x1 SWAP1 POP JUMPDEST PUSH1 0x69 SLOAD DUP2 PUSH1 0xFF AND GT PUSH2 0x3124 JUMPI PUSH1 0x68 DUP2 PUSH1 0xFF AND DUP2 SLOAD DUP2 LT PUSH2 0x3108 JUMPI INVALID JUMPDEST SWAP1 PUSH1 0x0 MSTORE PUSH1 0x20 PUSH1 0x0 KECCAK256 ADD SLOAD DUP3 ADD SWAP2 POP DUP1 DUP1 PUSH1 0x1 ADD SWAP2 POP POP PUSH2 0x30EC JUMP JUMPDEST POP PUSH1 0x68 DUP4 PUSH1 0xFF AND DUP2 SLOAD DUP2 LT PUSH2 0x3135 JUMPI INVALID JUMPDEST SWAP1 PUSH1 0x0 MSTORE PUSH1 0x20 PUSH1 0x0 KECCAK256 ADD SLOAD DUP2 SELFBALANCE DUP2 PUSH2 0x3149 JUMPI INVALID JUMPDEST DIV MUL SWAP2 POP POP SWAP2 SWAP1 POP JUMP JUMPDEST PUSH1 0x0 PUSH1 0x6B PUSH1 0x0 DUP4 PUSH20 0xFFFFFFFFFFFFFFFFFFFFFFFFFFFFFFFFFFFFFFFF AND PUSH20 0xFFFFFFFFFFFFFFFFFFFFFFFFFFFFFFFFFFFFFFFF AND DUP2 MSTORE PUSH1 0x20 ADD SWAP1 DUP2 MSTORE PUSH1 0x20 ADD PUSH1 0x0 KECCAK256 PUSH1 0x0 ADD SLOAD SWAP1 POP SWAP2 SWAP1 POP JUMP JUMPDEST PUSH1 0x0 PUSH2 0x31AA DUP3 PUSH2 0x11D6 JUMP JUMPDEST PUSH2 0x321C JUMPI PUSH1 0x40 MLOAD PUSH32 0x8C379A000000000000000000000000000000000000000000000000000000000 DUP2 MSTORE PUSH1 0x4 ADD DUP1 DUP1 PUSH1 0x20 ADD DUP3 DUP2 SUB DUP3 MSTORE PUSH1 0x16 DUP2 MSTORE PUSH1 0x20 ADD DUP1 PUSH32 0x55736572206973206E6F74207265676973746572656400000000000000000000 DUP2 MSTORE POP PUSH1 0x20 ADD SWAP2 POP POP PUSH1 0x40 MLOAD DUP1 SWAP2 SUB SWAP1 REVERT JUMPDEST PUSH1 0x6B PUSH1 0x0 DUP4 PUSH20 0xFFFFFFFFFFFFFFFFFFFFFFFFFFFFFFFFFFFFFFFF AND PUSH20 0xFFFFFFFFFFFFFFFFFFFFFFFFFFFFFFFFFFFFFFFF AND DUP2 MSTORE PUSH1 0x20 ADD SWAP1 DUP2 MSTORE PUSH1 0x20 ADD PUSH1 0x0 KECCAK256 PUSH1 0x2 ADD PUSH1 0x0 SWAP1 SLOAD SWAP1 PUSH2 0x100 EXP SWAP1 DIV PUSH20 0xFFFFFFFFFFFFFFFFFFFFFFFFFFFFFFFFFFFFFFFF AND SWAP1 POP SWAP2 SWAP1 POP JUMP JUMPDEST PUSH1 0x66 PUSH1 0x0 SWAP1 SLOAD SWAP1 PUSH2 0x100 EXP SWAP1 DIV PUSH1 0xFF AND DUP2 JUMP JUMPDEST PUSH1 0x60 DUP1 PUSH1 0x60 PUSH1 0x1 PUSH1 0x69 SLOAD ADD PUSH8 0xFFFFFFFFFFFFFFFF DUP2 GT DUP1 ISZERO PUSH2 0x32BA JUMPI PUSH1 0x0 DUP1 REVERT JUMPDEST POP PUSH1 0x40 MLOAD SWAP1 DUP1 DUP3 MSTORE DUP1 PUSH1 0x20 MUL PUSH1 0x20 ADD DUP3 ADD PUSH1 0x40 MSTORE DUP1 ISZERO PUSH2 0x32E9 JUMPI DUP2 PUSH1 0x20 ADD PUSH1 0x20 DUP3 MUL DUP1 CALLDATASIZE DUP4 CALLDATACOPY DUP1 DUP3 ADD SWAP2 POP POP SWAP1 POP JUMPDEST POP SWAP1 POP PUSH1 0x60 PUSH1 0x1 PUSH1 0x69 SLOAD ADD PUSH8 0xFFFFFFFFFFFFFFFF DUP2 GT DUP1 ISZERO PUSH2 0x330A JUMPI PUSH1 0x0 DUP1 REVERT JUMPDEST POP PUSH1 0x40 MLOAD SWAP1 DUP1 DUP3 MSTORE DUP1 PUSH1 0x20 MUL PUSH1 0x20 ADD DUP3 ADD PUSH1 0x40 MSTORE DUP1 ISZERO PUSH2 0x3339 JUMPI DUP2 PUSH1 0x20 ADD PUSH1 0x20 DUP3 MUL DUP1 CALLDATASIZE DUP4 CALLDATACOPY DUP1 DUP3 ADD SWAP2 POP POP SWAP1 POP JUMPDEST POP SWAP1 POP PUSH1 0x0 PUSH1 0x1 SWAP1 POP JUMPDEST PUSH1 0x69 SLOAD DUP2 PUSH1 0xFF AND GT PUSH2 0x344C JUMPI PUSH1 0x6B PUSH1 0x0 DUP8 PUSH20 0xFFFFFFFFFFFFFFFFFFFFFFFFFFFFFFFFFFFFFFFF AND PUSH20 0xFFFFFFFFFFFFFFFFFFFFFFFFFFFFFFFFFFFFFFFF AND DUP2 MSTORE PUSH1 0x20 ADD SWAP1 DUP2 MSTORE PUSH1 0x20 ADD PUSH1 0x0 KECCAK256 PUSH1 0x7 ADD PUSH1 0x0 DUP3 PUSH1 0xFF AND PUSH1 0xFF AND DUP2 MSTORE PUSH1 0x20 ADD SWAP1 DUP2 MSTORE PUSH1 0x20 ADD PUSH1 0x0 KECCAK256 PUSH1 0x4 ADD SLOAD DUP4 DUP3 PUSH1 0xFF AND DUP2 MLOAD DUP2 LT PUSH2 0x33BB JUMPI INVALID JUMPDEST PUSH1 0x20 MUL PUSH1 0x20 ADD ADD DUP2 DUP2 MSTORE POP POP PUSH1 0x6B PUSH1 0x0 DUP8 PUSH20 0xFFFFFFFFFFFFFFFFFFFFFFFFFFFFFFFFFFFFFFFF AND PUSH20 0xFFFFFFFFFFFFFFFFFFFFFFFFFFFFFFFFFFFFFFFF AND DUP2 MSTORE PUSH1 0x20 ADD SWAP1 DUP2 MSTORE PUSH1 0x20 ADD PUSH1 0x0 KECCAK256 PUSH1 0x7 ADD PUSH1 0x0 DUP3 PUSH1 0xFF AND PUSH1 0xFF AND DUP2 MSTORE PUSH1 0x20 ADD SWAP1 DUP2 MSTORE PUSH1 0x20 ADD PUSH1 0x0 KECCAK256 PUSH1 0x5 ADD SLOAD DUP3 DUP3 PUSH1 0xFF AND DUP2 MLOAD DUP2 LT PUSH2 0x3433 JUMPI INVALID JUMPDEST PUSH1 0x20 MUL PUSH1 0x20 ADD ADD DUP2 DUP2 MSTORE POP POP DUP1 DUP1 PUSH1 0x1 ADD SWAP2 POP POP PUSH2 0x3343 JUMP JUMPDEST POP DUP2 DUP2 SWAP4 POP SWAP4 POP POP POP SWAP2 POP SWAP2 JUMP JUMPDEST PUSH1 0x45 DUP2 PUSH1 0x10 DUP2 LT PUSH2 0x3467 JUMPI INVALID JUMPDEST ADD PUSH1 0x0 SWAP2 POP SWAP1 POP SLOAD DUP2 JUMP JUMPDEST PUSH1 0x68 DUP2 DUP2 SLOAD DUP2 LT PUSH2 0x347F JUMPI INVALID JUMPDEST SWAP1 PUSH1 0x0 MSTORE PUSH1 0x20 PUSH1 0x0 KECCAK256 ADD PUSH1 0x0 SWAP2 POP SWAP1 POP SLOAD DUP2 JUMP JUMPDEST PUSH1 0x35 DUP2 PUSH1 0x10 DUP2 LT PUSH2 0x34A0 JUMPI INVALID JUMPDEST ADD PUSH1 0x0 SWAP2 POP SWAP1 POP SLOAD DUP2 JUMP JUMPDEST PUSH1 0x0 DUP1 PUSH1 0x0 DUP1 PUSH1 0x0 DUP1 PUSH1 0x0 DUP1 PUSH1 0x0 DUP1 PUSH2 0x34C2 PUSH2 0x51C1 JUMP JUMPDEST PUSH1 0x6B PUSH1 0x0 DUP14 PUSH20 0xFFFFFFFFFFFFFFFFFFFFFFFFFFFFFFFFFFFFFFFF AND PUSH20 0xFFFFFFFFFFFFFFFFFFFFFFFFFFFFFFFFFFFFFFFF AND DUP2 MSTORE PUSH1 0x20 ADD SWAP1 DUP2 MSTORE PUSH1 0x20 ADD PUSH1 0x0 KECCAK256 PUSH1 0x40 MLOAD DUP1 PUSH2 0x120 ADD PUSH1 0x40 MSTORE SWAP1 DUP2 PUSH1 0x0 DUP3 ADD SLOAD DUP2 MSTORE PUSH1 0x20 ADD PUSH1 0x1 DUP3 ADD SLOAD DUP2 MSTORE PUSH1 0x20 ADD PUSH1 0x2 DUP3 ADD PUSH1 0x0 SWAP1 SLOAD SWAP1 PUSH2 0x100 EXP SWAP1 DIV PUSH20 0xFFFFFFFFFFFFFFFFFFFFFFFFFFFFFFFFFFFFFFFF AND PUSH20 0xFFFFFFFFFFFFFFFFFFFFFFFFFFFFFFFFFFFFFFFF AND PUSH20 0xFFFFFFFFFFFFFFFFFFFFFFFFFFFFFFFFFFFFFFFF AND DUP2 MSTORE PUSH1 0x20 ADD PUSH1 0x3 DUP3 ADD SLOAD DUP2 MSTORE PUSH1 0x20 ADD PUSH1 0x4 DUP3 ADD SLOAD DUP2 MSTORE PUSH1 0x20 ADD PUSH1 0x5 DUP3 ADD SLOAD DUP2 MSTORE PUSH1 0x20 ADD PUSH1 0x6 DUP3 ADD SLOAD DUP2 MSTORE PUSH1 0x20 ADD PUSH1 0x8 DUP3 ADD PUSH1 0x0 SWAP1 SLOAD SWAP1 PUSH2 0x100 EXP SWAP1 DIV PUSH1 0xFF AND PUSH1 0xFF AND PUSH1 0xFF AND DUP2 MSTORE PUSH1 0x20 ADD PUSH1 0x9 DUP3 ADD SLOAD DUP2 MSTORE POP POP SWAP1 POP DUP1 PUSH1 0x0 ADD MLOAD DUP2 PUSH1 0x20 ADD MLOAD PUSH1 0x6B PUSH1 0x0 DUP5 PUSH1 0x40 ADD MLOAD PUSH20 0xFFFFFFFFFFFFFFFFFFFFFFFFFFFFFFFFFFFFFFFF AND PUSH20 0xFFFFFFFFFFFFFFFFFFFFFFFFFFFFFFFFFFFFFFFF AND DUP2 MSTORE PUSH1 0x20 ADD SWAP1 DUP2 MSTORE PUSH1 0x20 ADD PUSH1 0x0 KECCAK256 PUSH1 0x0 ADD SLOAD DUP4 PUSH1 0x40 ADD MLOAD DUP5 PUSH1 0x60 ADD MLOAD DUP6 PUSH1 0x80 ADD MLOAD DUP7 PUSH1 0xA0 ADD MLOAD DUP8 PUSH1 0xC0 ADD MLOAD DUP9 PUSH1 0xE0 ADD MLOAD DUP10 PUSH2 0x100 ADD MLOAD DUP2 PUSH1 0xFF AND SWAP2 POP SWAP11 POP SWAP11 POP SWAP11 POP SWAP11 POP SWAP11 POP SWAP11 POP SWAP11 POP SWAP11 POP SWAP11 POP SWAP11 POP POP SWAP2 SWAP4 SWAP6 SWAP8 SWAP10 POP SWAP2 SWAP4 SWAP6 SWAP8 SWAP10 JUMP JUMPDEST PUSH1 0x0 SELFBALANCE SWAP1 POP SWAP1 JUMP JUMPDEST PUSH1 0x34 SLOAD DUP2 JUMP JUMPDEST JUMP JUMPDEST PUSH1 0x0 PUSH1 0x6C PUSH1 0x0 DUP4 DUP2 MSTORE PUSH1 0x20 ADD SWAP1 DUP2 MSTORE PUSH1 0x20 ADD PUSH1 0x0 KECCAK256 PUSH1 0x0 SWAP1 SLOAD SWAP1 PUSH2 0x100 EXP SWAP1 DIV PUSH20 0xFFFFFFFFFFFFFFFFFFFFFFFFFFFFFFFFFFFFFFFF AND SWAP1 POP SWAP2 SWAP1 POP JUMP JUMPDEST PUSH2 0x36BA PUSH2 0x5226 JUMP JUMPDEST PUSH1 0x1 PUSH1 0x32 DUP1 PUSH1 0x20 MUL PUSH1 0x40 MLOAD SWAP1 DUP2 ADD PUSH1 0x40 MSTORE DUP1 SWAP3 SWAP2 SWAP1 DUP3 PUSH1 0x32 DUP1 ISZERO PUSH2 0x3729 JUMPI PUSH1 0x20 MUL DUP3 ADD SWAP2 JUMPDEST DUP2 PUSH1 0x0 SWAP1 SLOAD SWAP1 PUSH2 0x100 EXP SWAP1 DIV PUSH20 0xFFFFFFFFFFFFFFFFFFFFFFFFFFFFFFFFFFFFFFFF AND PUSH20 0xFFFFFFFFFFFFFFFFFFFFFFFFFFFFFFFFFFFFFFFF AND DUP2 MSTORE PUSH1 0x20 ADD SWAP1 PUSH1 0x1 ADD SWAP1 DUP1 DUP4 GT PUSH2 0x36DF JUMPI JUMPDEST POP POP POP POP POP SWAP1 POP SWAP1 JUMP JUMPDEST PUSH1 0x66 PUSH1 0x2 SWAP1 SLOAD SWAP1 PUSH2 0x100 EXP SWAP1 DIV PUSH20 0xFFFFFFFFFFFFFFFFFFFFFFFFFFFFFFFFFFFFFFFF AND DUP2 JUMP JUMPDEST PUSH1 0x66 PUSH1 0x2 SWAP1 SLOAD SWAP1 PUSH2 0x100 EXP SWAP1 DIV PUSH20 0xFFFFFFFFFFFFFFFFFFFFFFFFFFFFFFFFFFFFFFFF AND PUSH20 0xFFFFFFFFFFFFFFFFFFFFFFFFFFFFFFFFFFFFFFFF AND CALLER PUSH20 0xFFFFFFFFFFFFFFFFFFFFFFFFFFFFFFFFFFFFFFFF AND EQ PUSH2 0x381C JUMPI PUSH1 0x40 MLOAD PUSH32 0x8C379A000000000000000000000000000000000000000000000000000000000 DUP2 MSTORE PUSH1 0x4 ADD DUP1 DUP1 PUSH1 0x20 ADD DUP3 DUP2 SUB DUP3 MSTORE PUSH1 0x15 DUP2 MSTORE PUSH1 0x20 ADD DUP1 PUSH32 0x796F7520617265206E6F7420616E206F776E6572210000000000000000000000 DUP2 MSTORE POP PUSH1 0x20 ADD SWAP2 POP POP PUSH1 0x40 MLOAD DUP1 SWAP2 SUB SWAP1 REVERT JUMPDEST PUSH1 0x0 JUMPDEST PUSH1 0x31 DUP2 PUSH1 0xFF AND GT PUSH2 0x3888 JUMPI PUSH1 0x0 PUSH1 0x1 DUP3 PUSH1 0xFF AND PUSH1 0x32 DUP2 LT PUSH2 0x383C JUMPI INVALID JUMPDEST ADD PUSH1 0x0 PUSH2 0x100 EXP DUP2 SLOAD DUP2 PUSH20 0xFFFFFFFFFFFFFFFFFFFFFFFFFFFFFFFFFFFFFFFF MUL NOT AND SWAP1 DUP4 PUSH20 0xFFFFFFFFFFFFFFFFFFFFFFFFFFFFFFFFFFFFFFFF AND MUL OR SWAP1 SSTORE POP DUP1 DUP1 PUSH1 0x1 ADD SWAP2 POP POP PUSH2 0x381F JUMP JUMPDEST POP PUSH1 0x0 DUP1 PUSH1 0x1 SWAP1 POP JUMPDEST PUSH1 0x69 SLOAD DUP2 PUSH1 0xFF AND GT PUSH2 0x399E JUMPI PUSH1 0x0 PUSH1 0x6E PUSH1 0x0 DUP4 PUSH1 0xFF AND PUSH1 0xFF AND DUP2 MSTORE PUSH1 0x20 ADD SWAP1 DUP2 MSTORE PUSH1 0x20 ADD PUSH1 0x0 KECCAK256 SLOAD SWAP1 POP JUMPDEST PUSH1 0x6D PUSH1 0x0 DUP4 PUSH1 0xFF AND PUSH1 0xFF AND DUP2 MSTORE PUSH1 0x20 ADD SWAP1 DUP2 MSTORE PUSH1 0x20 ADD PUSH1 0x0 KECCAK256 DUP1 SLOAD SWAP1 POP DUP2 LT ISZERO PUSH2 0x3990 JUMPI TIMESTAMP PUSH3 0x15180 PUSH1 0x65 PUSH1 0x0 PUSH1 0x6D PUSH1 0x0 DUP8 PUSH1 0xFF AND PUSH1 0xFF AND DUP2 MSTORE PUSH1 0x20 ADD SWAP1 DUP2 MSTORE PUSH1 0x20 ADD PUSH1 0x0 KECCAK256 DUP6 DUP2 SLOAD DUP2 LT PUSH2 0x390D JUMPI INVALID JUMPDEST SWAP1 PUSH1 0x0 MSTORE PUSH1 0x20 PUSH1 0x0 KECCAK256 ADD PUSH1 0x0 SWAP1 SLOAD SWAP1 PUSH2 0x100 EXP SWAP1 DIV PUSH20 0xFFFFFFFFFFFFFFFFFFFFFFFFFFFFFFFFFFFFFFFF AND PUSH20 0xFFFFFFFFFFFFFFFFFFFFFFFFFFFFFFFFFFFFFFFF AND PUSH20 0xFFFFFFFFFFFFFFFFFFFFFFFFFFFFFFFFFFFFFFFF AND DUP2 MSTORE PUSH1 0x20 ADD SWAP1 DUP2 MSTORE PUSH1 0x20 ADD PUSH1 0x0 KECCAK256 SLOAD ADD GT ISZERO PUSH2 0x3983 JUMPI DUP3 DUP1 PUSH1 0x1 ADD SWAP4 POP POP JUMPDEST DUP1 DUP1 PUSH1 0x1 ADD SWAP2 POP POP PUSH2 0x38BC JUMP JUMPDEST POP DUP1 DUP1 PUSH1 0x1 ADD SWAP2 POP POP PUSH2 0x3891 JUMP JUMPDEST POP DUP2 PUSH1 0x2 SELFBALANCE DUP2 PUSH2 0x39AA JUMPI INVALID JUMPDEST DIV DUP2 PUSH2 0x39B2 JUMPI INVALID JUMPDEST DIV PUSH1 0x33 DUP2 SWAP1 SSTORE POP TIMESTAMP PUSH1 0x34 DUP2 SWAP1 SSTORE POP PUSH1 0x0 DUP3 DUP3 DUP2 PUSH2 0x39CB JUMPI INVALID JUMPDEST DIV SWAP1 POP PUSH1 0x0 DUP1 PUSH1 0x0 PUSH1 0x1 SWAP1 POP JUMPDEST PUSH1 0x69 SLOAD DUP2 PUSH1 0xFF AND GT PUSH2 0x3C46 JUMPI PUSH1 0x0 PUSH1 0x6E PUSH1 0x0 DUP4 PUSH1 0xFF AND PUSH1 0xFF AND DUP2 MSTORE PUSH1 0x20 ADD SWAP1 DUP2 MSTORE PUSH1 0x20 ADD PUSH1 0x0 KECCAK256 SLOAD SWAP1 POP JUMPDEST PUSH1 0x6D PUSH1 0x0 DUP4 PUSH1 0xFF AND PUSH1 0xFF AND DUP2 MSTORE PUSH1 0x20 ADD SWAP1 DUP2 MSTORE PUSH1 0x20 ADD PUSH1 0x0 KECCAK256 DUP1 SLOAD SWAP1 POP DUP2 LT ISZERO PUSH2 0x3C38 JUMPI DUP4 DUP1 PUSH1 0x1 ADD SWAP5 POP POP PUSH1 0x0 DUP6 DUP6 DUP2 PUSH2 0x3A3A JUMPI INVALID JUMPDEST MOD EQ DUP1 ISZERO PUSH2 0x3AD9 JUMPI POP TIMESTAMP PUSH3 0x15180 PUSH1 0x65 PUSH1 0x0 PUSH1 0x6D PUSH1 0x0 DUP8 PUSH1 0xFF AND PUSH1 0xFF AND DUP2 MSTORE PUSH1 0x20 ADD SWAP1 DUP2 MSTORE PUSH1 0x20 ADD PUSH1 0x0 KECCAK256 DUP6 DUP2 SLOAD DUP2 LT PUSH2 0x3A70 JUMPI INVALID JUMPDEST SWAP1 PUSH1 0x0 MSTORE PUSH1 0x20 PUSH1 0x0 KECCAK256 ADD PUSH1 0x0 SWAP1 SLOAD SWAP1 PUSH2 0x100 EXP SWAP1 DIV PUSH20 0xFFFFFFFFFFFFFFFFFFFFFFFFFFFFFFFFFFFFFFFF AND PUSH20 0xFFFFFFFFFFFFFFFFFFFFFFFFFFFFFFFFFFFFFFFF AND PUSH20 0xFFFFFFFFFFFFFFFFFFFFFFFFFFFFFFFFFFFFFFFF AND DUP2 MSTORE PUSH1 0x20 ADD SWAP1 DUP2 MSTORE PUSH1 0x20 ADD PUSH1 0x0 KECCAK256 SLOAD ADD GT JUMPDEST ISZERO PUSH2 0x3C2B JUMPI PUSH1 0x6D PUSH1 0x0 DUP4 PUSH1 0xFF AND PUSH1 0xFF AND DUP2 MSTORE PUSH1 0x20 ADD SWAP1 DUP2 MSTORE PUSH1 0x20 ADD PUSH1 0x0 KECCAK256 DUP2 DUP2 SLOAD DUP2 LT PUSH2 0x3B02 JUMPI INVALID JUMPDEST SWAP1 PUSH1 0x0 MSTORE PUSH1 0x20 PUSH1 0x0 KECCAK256 ADD PUSH1 0x0 SWAP1 SLOAD SWAP1 PUSH2 0x100 EXP SWAP1 DIV PUSH20 0xFFFFFFFFFFFFFFFFFFFFFFFFFFFFFFFFFFFFFFFF AND PUSH1 0x1 DUP5 PUSH1 0xFF AND PUSH1 0x32 DUP2 LT PUSH2 0x3B3D JUMPI INVALID JUMPDEST ADD PUSH1 0x0 PUSH2 0x100 EXP DUP2 SLOAD DUP2 PUSH20 0xFFFFFFFFFFFFFFFFFFFFFFFFFFFFFFFFFFFFFFFF MUL NOT AND SWAP1 DUP4 PUSH20 0xFFFFFFFFFFFFFFFFFFFFFFFFFFFFFFFFFFFFFFFF AND MUL OR SWAP1 SSTORE POP DUP3 DUP1 PUSH1 0x1 ADD SWAP4 POP POP PUSH1 0x6D PUSH1 0x0 DUP4 PUSH1 0xFF AND PUSH1 0xFF AND DUP2 MSTORE PUSH1 0x20 ADD SWAP1 DUP2 MSTORE PUSH1 0x20 ADD PUSH1 0x0 KECCAK256 DUP2 DUP2 SLOAD DUP2 LT PUSH2 0x3BA8 JUMPI INVALID JUMPDEST SWAP1 PUSH1 0x0 MSTORE PUSH1 0x20 PUSH1 0x0 KECCAK256 ADD PUSH1 0x0 SWAP1 SLOAD SWAP1 PUSH2 0x100 EXP SWAP1 DIV PUSH20 0xFFFFFFFFFFFFFFFFFFFFFFFFFFFFFFFFFFFFFFFF AND PUSH20 0xFFFFFFFFFFFFFFFFFFFFFFFFFFFFFFFFFFFFFFFF AND PUSH32 0xEDAC0922924CC83017073B98842693D865D06A82C38175D4A1CB0811EF86193F TIMESTAMP PUSH1 0x33 SLOAD PUSH1 0x40 MLOAD DUP1 DUP4 DUP2 MSTORE PUSH1 0x20 ADD DUP3 DUP2 MSTORE PUSH1 0x20 ADD SWAP3 POP POP POP PUSH1 0x40 MLOAD DUP1 SWAP2 SUB SWAP1 LOG2 JUMPDEST DUP1 DUP1 PUSH1 0x1 ADD SWAP2 POP POP PUSH2 0x3A03 JUMP JUMPDEST POP DUP1 DUP1 PUSH1 0x1 ADD SWAP2 POP POP PUSH2 0x39D8 JUMP JUMPDEST POP POP POP POP POP POP JUMP JUMPDEST PUSH2 0x3C57 DUP2 PUSH2 0x11D6 JUMP JUMPDEST PUSH2 0x3CC9 JUMPI PUSH1 0x40 MLOAD PUSH32 0x8C379A000000000000000000000000000000000000000000000000000000000 DUP2 MSTORE PUSH1 0x4 ADD DUP1 DUP1 PUSH1 0x20 ADD DUP3 DUP2 SUB DUP3 MSTORE PUSH1 0x1A DUP2 MSTORE PUSH1 0x20 ADD DUP1 PUSH32 0x5265666572726572206973206E6F742072656769737465726564000000000000 DUP2 MSTORE POP PUSH1 0x20 ADD SWAP2 POP POP PUSH1 0x40 MLOAD DUP1 SWAP2 SUB SWAP1 REVERT JUMPDEST PUSH2 0x3CD2 CALLER PUSH2 0x11D6 JUMP JUMPDEST ISZERO PUSH2 0x3D45 JUMPI PUSH1 0x40 MLOAD PUSH32 0x8C379A000000000000000000000000000000000000000000000000000000000 DUP2 MSTORE PUSH1 0x4 ADD DUP1 DUP1 PUSH1 0x20 ADD DUP3 DUP2 SUB DUP3 MSTORE PUSH1 0x17 DUP2 MSTORE PUSH1 0x20 ADD DUP1 PUSH32 0x5573657220616C72656164792072656769737465726564000000000000000000 DUP2 MSTORE POP PUSH1 0x20 ADD SWAP2 POP POP PUSH1 0x40 MLOAD DUP1 SWAP2 SUB SWAP1 REVERT JUMPDEST PUSH2 0x3D4E CALLER PUSH2 0x2A4A JUMP JUMPDEST ISZERO PUSH2 0x3DC1 JUMPI PUSH1 0x40 MLOAD PUSH32 0x8C379A000000000000000000000000000000000000000000000000000000000 DUP2 MSTORE PUSH1 0x4 ADD DUP1 DUP1 PUSH1 0x20 ADD DUP3 DUP2 SUB DUP3 MSTORE PUSH1 0x15 DUP2 MSTORE PUSH1 0x20 ADD DUP1 PUSH32 0x43616E206E6F74206265206120636F6E74726163740000000000000000000000 DUP2 MSTORE POP PUSH1 0x20 ADD SWAP2 POP POP PUSH1 0x40 MLOAD DUP1 SWAP2 SUB SWAP1 REVERT JUMPDEST PUSH2 0x3DC9 PUSH2 0x51C1 JUMP JUMPDEST PUSH1 0x40 MLOAD DUP1 PUSH2 0x120 ADD PUSH1 0x40 MSTORE DUP1 PUSH1 0x6A PUSH1 0x0 DUP2 SLOAD DUP1 SWAP3 SWAP2 SWAP1 PUSH1 0x1 ADD SWAP2 SWAP1 POP SSTORE DUP2 MSTORE PUSH1 0x20 ADD TIMESTAMP DUP2 MSTORE PUSH1 0x20 ADD DUP4 PUSH20 0xFFFFFFFFFFFFFFFFFFFFFFFFFFFFFFFFFFFFFFFF AND DUP2 MSTORE PUSH1 0x20 ADD PUSH1 0x0 DUP2 MSTORE PUSH1 0x20 ADD PUSH1 0x0 DUP2 MSTORE PUSH1 0x20 ADD PUSH1 0x0 DUP2 MSTORE PUSH1 0x20 ADD PUSH1 0x0 DUP2 MSTORE PUSH1 0x20 ADD PUSH1 0x0 PUSH1 0xFF AND DUP2 MSTORE PUSH1 0x20 ADD PUSH1 0x0 DUP2 MSTORE POP SWAP1 POP DUP1 PUSH1 0x6B PUSH1 0x0 CALLER PUSH20 0xFFFFFFFFFFFFFFFFFFFFFFFFFFFFFFFFFFFFFFFF AND PUSH20 0xFFFFFFFFFFFFFFFFFFFFFFFFFFFFFFFFFFFFFFFF AND DUP2 MSTORE PUSH1 0x20 ADD SWAP1 DUP2 MSTORE PUSH1 0x20 ADD PUSH1 0x0 KECCAK256 PUSH1 0x0 DUP3 ADD MLOAD DUP2 PUSH1 0x0 ADD SSTORE PUSH1 0x20 DUP3 ADD MLOAD DUP2 PUSH1 0x1 ADD SSTORE PUSH1 0x40 DUP3 ADD MLOAD DUP2 PUSH1 0x2 ADD PUSH1 0x0 PUSH2 0x100 EXP DUP2 SLOAD DUP2 PUSH20 0xFFFFFFFFFFFFFFFFFFFFFFFFFFFFFFFFFFFFFFFF MUL NOT AND SWAP1 DUP4 PUSH20 0xFFFFFFFFFFFFFFFFFFFFFFFFFFFFFFFFFFFFFFFF AND MUL OR SWAP1 SSTORE POP PUSH1 0x60 DUP3 ADD MLOAD DUP2 PUSH1 0x3 ADD SSTORE PUSH1 0x80 DUP3 ADD MLOAD DUP2 PUSH1 0x4 ADD SSTORE PUSH1 0xA0 DUP3 ADD MLOAD DUP2 PUSH1 0x5 ADD SSTORE PUSH1 0xC0 DUP3 ADD MLOAD DUP2 PUSH1 0x6 ADD SSTORE PUSH1 0xE0 DUP3 ADD MLOAD DUP2 PUSH1 0x8 ADD PUSH1 0x0 PUSH2 0x100 EXP DUP2 SLOAD DUP2 PUSH1 0xFF MUL NOT AND SWAP1 DUP4 PUSH1 0xFF AND MUL OR SWAP1 SSTORE POP PUSH2 0x100 DUP3 ADD MLOAD DUP2 PUSH1 0x9 ADD SSTORE SWAP1 POP POP CALLER PUSH1 0x6C PUSH1 0x0 DUP4 PUSH1 0x0 ADD MLOAD DUP2 MSTORE PUSH1 0x20 ADD SWAP1 DUP2 MSTORE PUSH1 0x20 ADD PUSH1 0x0 KECCAK256 PUSH1 0x0 PUSH2 0x100 EXP DUP2 SLOAD DUP2 PUSH20 0xFFFFFFFFFFFFFFFFFFFFFFFFFFFFFFFFFFFFFFFF MUL NOT AND SWAP1 DUP4 PUSH20 0xFFFFFFFFFFFFFFFFFFFFFFFFFFFFFFFFFFFFFFFF AND MUL OR SWAP1 SSTORE POP PUSH1 0x0 PUSH1 0x1 SWAP1 POP PUSH1 0x0 DUP4 SWAP1 POP PUSH1 0x0 PUSH20 0xFFFFFFFFFFFFFFFFFFFFFFFFFFFFFFFFFFFFFFFF AND DUP2 PUSH20 0xFFFFFFFFFFFFFFFFFFFFFFFFFFFFFFFFFFFFFFFF AND EQ PUSH2 0x4081 JUMPI PUSH1 0x6B PUSH1 0x0 DUP3 PUSH20 0xFFFFFFFFFFFFFFFFFFFFFFFFFFFFFFFFFFFFFFFF AND PUSH20 0xFFFFFFFFFFFFFFFFFFFFFFFFFFFFFFFFFFFFFFFF AND DUP2 MSTORE PUSH1 0x20 ADD SWAP1 DUP2 MSTORE PUSH1 0x20 ADD PUSH1 0x0 KECCAK256 PUSH1 0x3 ADD PUSH1 0x0 DUP2 SLOAD DUP1 SWAP3 SWAP2 SWAP1 PUSH1 0x1 ADD SWAP2 SWAP1 POP SSTORE POP PUSH1 0x6B PUSH1 0x0 DUP3 PUSH20 0xFFFFFFFFFFFFFFFFFFFFFFFFFFFFFFFFFFFFFFFF AND PUSH20 0xFFFFFFFFFFFFFFFFFFFFFFFFFFFFFFFFFFFFFFFF AND DUP2 MSTORE PUSH1 0x20 ADD SWAP1 DUP2 MSTORE PUSH1 0x20 ADD PUSH1 0x0 KECCAK256 PUSH1 0x2 ADD PUSH1 0x0 SWAP1 SLOAD SWAP1 PUSH2 0x100 EXP SWAP1 DIV PUSH20 0xFFFFFFFFFFFFFFFFFFFFFFFFFFFFFFFFFFFFFFFF AND SWAP1 POP DUP2 DUP1 PUSH1 0x1 ADD SWAP3 POP POP JUMPDEST PUSH1 0x6F PUSH1 0x0 ADD PUSH1 0x0 DUP2 SLOAD DUP1 SWAP3 SWAP2 SWAP1 PUSH1 0x1 ADD SWAP2 SWAP1 POP SSTORE POP PUSH1 0x6F PUSH1 0x1 ADD PUSH1 0x0 DUP2 SLOAD DUP1 SWAP3 SWAP2 SWAP1 PUSH1 0x1 ADD SWAP2 SWAP1 POP SSTORE POP CALLER PUSH20 0xFFFFFFFFFFFFFFFFFFFFFFFFFFFFFFFFFFFFFFFF AND PUSH32 0x588149FB6F65171A24789E864D05FEB177506DF6FC9E86C55D0D19B5122BDFFC TIMESTAMP DUP6 PUSH1 0x0 ADD MLOAD PUSH1 0x6B PUSH1 0x0 DUP10 PUSH20 0xFFFFFFFFFFFFFFFFFFFFFFFFFFFFFFFFFFFFFFFF AND PUSH20 0xFFFFFFFFFFFFFFFFFFFFFFFFFFFFFFFFFFFFFFFF AND DUP2 MSTORE PUSH1 0x20 ADD SWAP1 DUP2 MSTORE PUSH1 0x20 ADD PUSH1 0x0 KECCAK256 PUSH1 0x0 ADD SLOAD PUSH1 0x40 MLOAD DUP1 DUP5 DUP2 MSTORE PUSH1 0x20 ADD DUP4 DUP2 MSTORE PUSH1 0x20 ADD DUP3 DUP2 MSTORE PUSH1 0x20 ADD SWAP4 POP POP POP POP PUSH1 0x40 MLOAD DUP1 SWAP2 SUB SWAP1 LOG2 POP POP POP POP JUMP JUMPDEST PUSH1 0x66 PUSH1 0x1 SWAP1 SLOAD SWAP1 PUSH2 0x100 EXP SWAP1 DIV PUSH1 0xFF AND DUP2 JUMP JUMPDEST PUSH1 0x6B PUSH1 0x20 MSTORE DUP1 PUSH1 0x0 MSTORE PUSH1 0x40 PUSH1 0x0 KECCAK256 PUSH1 0x0 SWAP2 POP SWAP1 POP DUP1 PUSH1 0x0 ADD SLOAD SWAP1 DUP1 PUSH1 0x1 ADD SLOAD SWAP1 DUP1 PUSH1 0x2 ADD PUSH1 0x0 SWAP1 SLOAD SWAP1 PUSH2 0x100 EXP SWAP1 DIV PUSH20 0xFFFFFFFFFFFFFFFFFFFFFFFFFFFFFFFFFFFFFFFF AND SWAP1 DUP1 PUSH1 0x3 ADD SLOAD SWAP1 DUP1 PUSH1 0x4 ADD SLOAD SWAP1 DUP1 PUSH1 0x5 ADD SLOAD SWAP1 DUP1 PUSH1 0x6 ADD SLOAD SWAP1 DUP1 PUSH1 0x8 ADD PUSH1 0x0 SWAP1 SLOAD SWAP1 PUSH2 0x100 EXP SWAP1 DIV PUSH1 0xFF AND SWAP1 DUP1 PUSH1 0x9 ADD SLOAD SWAP1 POP DUP10 JUMP JUMPDEST PUSH1 0x65 PUSH1 0x20 MSTORE DUP1 PUSH1 0x0 MSTORE PUSH1 0x40 PUSH1 0x0 KECCAK256 PUSH1 0x0 SWAP2 POP SWAP1 POP SLOAD DUP2 JUMP JUMPDEST PUSH2 0x4204 DUP2 PUSH2 0x3C4E JUMP JUMPDEST PUSH2 0x420E PUSH1 0x1 PUSH2 0x1252 JUMP JUMPDEST POP JUMP JUMPDEST PUSH1 0x0 DUP1 PUSH1 0x6B PUSH1 0x0 DUP5 PUSH20 0xFFFFFFFFFFFFFFFFFFFFFFFFFFFFFFFFFFFFFFFF AND PUSH20 0xFFFFFFFFFFFFFFFFFFFFFFFFFFFFFFFFFFFFFFFF AND DUP2 MSTORE PUSH1 0x20 ADD SWAP1 DUP2 MSTORE PUSH1 0x20 ADD PUSH1 0x0 KECCAK256 PUSH1 0x2 ADD PUSH1 0x0 SWAP1 SLOAD SWAP1 PUSH2 0x100 EXP SWAP1 DIV PUSH20 0xFFFFFFFFFFFFFFFFFFFFFFFFFFFFFFFFFFFFFFFF AND SWAP1 POP PUSH1 0x6B PUSH1 0x0 DUP3 PUSH20 0xFFFFFFFFFFFFFFFFFFFFFFFFFFFFFFFFFFFFFFFF AND PUSH20 0xFFFFFFFFFFFFFFFFFFFFFFFFFFFFFFFFFFFFFFFF AND DUP2 MSTORE PUSH1 0x20 ADD SWAP1 DUP2 MSTORE PUSH1 0x20 ADD PUSH1 0x0 KECCAK256 PUSH1 0x0 ADD SLOAD SWAP2 POP POP SWAP2 SWAP1 POP JUMP JUMPDEST PUSH1 0x4B DUP2 JUMP JUMPDEST PUSH1 0x2 PUSH1 0x0 SLOAD EQ ISZERO PUSH2 0x4342 JUMPI PUSH1 0x40 MLOAD PUSH32 0x8C379A000000000000000000000000000000000000000000000000000000000 DUP2 MSTORE PUSH1 0x4 ADD DUP1 DUP1 PUSH1 0x20 ADD DUP3 DUP2 SUB DUP3 MSTORE PUSH1 0x1F DUP2 MSTORE PUSH1 0x20 ADD DUP1 PUSH32 0x5265656E7472616E637947756172643A207265656E7472616E742063616C6C00 DUP2 MSTORE POP PUSH1 0x20 ADD SWAP2 POP POP PUSH1 0x40 MLOAD DUP1 SWAP2 SUB SWAP1 REVERT JUMPDEST PUSH1 0x2 PUSH1 0x0 DUP2 SWAP1 SSTORE POP PUSH1 0x0 JUMPDEST PUSH1 0x31 DUP2 PUSH1 0xFF AND GT PUSH2 0x44CC JUMPI CALLER PUSH20 0xFFFFFFFFFFFFFFFFFFFFFFFFFFFFFFFFFFFFFFFF AND PUSH1 0x1 DUP3 PUSH1 0xFF AND PUSH1 0x32 DUP2 LT PUSH2 0x437F JUMPI INVALID JUMPDEST ADD PUSH1 0x0 SWAP1 SLOAD SWAP1 PUSH2 0x100 EXP SWAP1 DIV PUSH20 0xFFFFFFFFFFFFFFFFFFFFFFFFFFFFFFFFFFFFFFFF AND PUSH20 0xFFFFFFFFFFFFFFFFFFFFFFFFFFFFFFFFFFFFFFFF AND EQ ISZERO PUSH2 0x44BF JUMPI PUSH1 0x6F PUSH1 0x3 ADD PUSH1 0x0 DUP2 SLOAD DUP1 SWAP3 SWAP2 SWAP1 PUSH1 0x1 ADD SWAP2 SWAP1 POP SSTORE POP PUSH1 0x0 PUSH1 0x1 DUP3 PUSH1 0xFF AND PUSH1 0x32 DUP2 LT PUSH2 0x43E4 JUMPI INVALID JUMPDEST ADD PUSH1 0x0 PUSH2 0x100 EXP DUP2 SLOAD DUP2 PUSH20 0xFFFFFFFFFFFFFFFFFFFFFFFFFFFFFFFFFFFFFFFF MUL NOT AND SWAP1 DUP4 PUSH20 0xFFFFFFFFFFFFFFFFFFFFFFFFFFFFFFFFFFFFFFFF AND MUL OR SWAP1 SSTORE POP PUSH1 0x0 CALLER PUSH20 0xFFFFFFFFFFFFFFFFFFFFFFFFFFFFFFFFFFFFFFFF AND PUSH2 0x8FC PUSH1 0x33 SLOAD SWAP1 DUP2 ISZERO MUL SWAP1 PUSH1 0x40 MLOAD PUSH1 0x0 PUSH1 0x40 MLOAD DUP1 DUP4 SUB DUP2 DUP6 DUP9 DUP9 CALL SWAP4 POP POP POP POP SWAP1 POP DUP1 ISZERO PUSH2 0x44BD JUMPI CALLER PUSH20 0xFFFFFFFFFFFFFFFFFFFFFFFFFFFFFFFFFFFFFFFF AND PUSH32 0x7C73022FE9EF1DDFFACFE32AB067B48A23250B0C20FBABEACE91E3CD9E63A9C0 TIMESTAMP PUSH1 0x33 SLOAD PUSH1 0x40 MLOAD DUP1 DUP4 DUP2 MSTORE PUSH1 0x20 ADD DUP3 DUP2 MSTORE PUSH1 0x20 ADD SWAP3 POP POP POP PUSH1 0x40 MLOAD DUP1 SWAP2 SUB SWAP1 LOG2 JUMPDEST POP JUMPDEST DUP1 DUP1 PUSH1 0x1 ADD SWAP2 POP POP PUSH2 0x434D JUMP JUMPDEST POP PUSH1 0x1 PUSH1 0x0 DUP2 SWAP1 SSTORE POP JUMP JUMPDEST PUSH2 0x44DF PUSH2 0x519E JUMP JUMPDEST PUSH1 0x35 PUSH1 0x10 DUP1 PUSH1 0x20 MUL PUSH1 0x40 MLOAD SWAP1 DUP2 ADD PUSH1 0x40 MSTORE DUP1 SWAP3 SWAP2 SWAP1 DUP3 PUSH1 0x10 DUP1 ISZERO PUSH2 0x4518 JUMPI PUSH1 0x20 MUL DUP3 ADD SWAP2 JUMPDEST DUP2 SLOAD DUP2 MSTORE PUSH1 0x20 ADD SWAP1 PUSH1 0x1 ADD SWAP1 DUP1 DUP4 GT PUSH2 0x4504 JUMPI JUMPDEST POP POP POP POP POP SWAP1 POP SWAP1 JUMP JUMPDEST PUSH1 0x0 DUP1 PUSH1 0x0 DUP4 PUSH1 0xFF AND GT DUP1 ISZERO PUSH2 0x453D JUMPI POP PUSH1 0x69 SLOAD DUP4 PUSH1 0xFF AND GT ISZERO JUMPDEST PUSH2 0x45AF JUMPI PUSH1 0x40 MLOAD PUSH32 0x8C379A000000000000000000000000000000000000000000000000000000000 DUP2 MSTORE PUSH1 0x4 ADD DUP1 DUP1 PUSH1 0x20 ADD DUP3 DUP2 SUB DUP3 MSTORE PUSH1 0xD DUP2 MSTORE PUSH1 0x20 ADD DUP1 PUSH32 0x496E76616C696420726F756E6400000000000000000000000000000000000000 DUP2 MSTORE POP PUSH1 0x20 ADD SWAP2 POP POP PUSH1 0x40 MLOAD DUP1 SWAP2 SUB SWAP1 REVERT JUMPDEST PUSH1 0x6B PUSH1 0x0 DUP6 PUSH20 0xFFFFFFFFFFFFFFFFFFFFFFFFFFFFFFFFFFFFFFFF AND PUSH20 0xFFFFFFFFFFFFFFFFFFFFFFFFFFFFFFFFFFFFFFFF AND DUP2 MSTORE PUSH1 0x20 ADD SWAP1 DUP2 MSTORE PUSH1 0x20 ADD PUSH1 0x0 KECCAK256 PUSH1 0x7 ADD PUSH1 0x0 DUP5 PUSH1 0xFF AND PUSH1 0xFF AND DUP2 MSTORE PUSH1 0x20 ADD SWAP1 DUP2 MSTORE PUSH1 0x20 ADD PUSH1 0x0 KECCAK256 PUSH1 0x0 ADD PUSH1 0x6 SWAP1 SLOAD SWAP1 PUSH2 0x100 EXP SWAP1 DIV PUSH1 0xFF AND PUSH2 0x4629 JUMPI PUSH1 0x0 DUP1 SWAP2 POP SWAP2 POP PUSH2 0x474E JUMP JUMPDEST PUSH1 0x0 DUP1 PUSH1 0x6E PUSH1 0x0 DUP7 PUSH1 0xFF AND PUSH1 0xFF AND DUP2 MSTORE PUSH1 0x20 ADD SWAP1 DUP2 MSTORE PUSH1 0x20 ADD PUSH1 0x0 KECCAK256 SLOAD SWAP1 POP JUMPDEST PUSH1 0x6D PUSH1 0x0 DUP7 PUSH1 0xFF AND PUSH1 0xFF AND DUP2 MSTORE PUSH1 0x20 ADD SWAP1 DUP2 MSTORE PUSH1 0x20 ADD PUSH1 0x0 KECCAK256 DUP1 SLOAD SWAP1 POP DUP2 LT ISZERO PUSH2 0x4748 JUMPI DUP2 DUP1 PUSH1 0x1 ADD SWAP3 POP POP DUP6 PUSH20 0xFFFFFFFFFFFFFFFFFFFFFFFFFFFFFFFFFFFFFFFF AND PUSH1 0x6D PUSH1 0x0 DUP8 PUSH1 0xFF AND PUSH1 0xFF AND DUP2 MSTORE PUSH1 0x20 ADD SWAP1 DUP2 MSTORE PUSH1 0x20 ADD PUSH1 0x0 KECCAK256 DUP3 DUP2 SLOAD DUP2 LT PUSH2 0x46B0 JUMPI INVALID JUMPDEST SWAP1 PUSH1 0x0 MSTORE PUSH1 0x20 PUSH1 0x0 KECCAK256 ADD PUSH1 0x0 SWAP1 SLOAD SWAP1 PUSH2 0x100 EXP SWAP1 DIV PUSH20 0xFFFFFFFFFFFFFFFFFFFFFFFFFFFFFFFFFFFFFFFF AND PUSH20 0xFFFFFFFFFFFFFFFFFFFFFFFFFFFFFFFFFFFFFFFF AND EQ ISZERO PUSH2 0x473B JUMPI DUP2 PUSH1 0x6E PUSH1 0x0 DUP8 PUSH1 0xFF AND PUSH1 0xFF AND DUP2 MSTORE PUSH1 0x20 ADD SWAP1 DUP2 MSTORE PUSH1 0x20 ADD PUSH1 0x0 KECCAK256 SLOAD PUSH1 0x6D PUSH1 0x0 DUP9 PUSH1 0xFF AND PUSH1 0xFF AND DUP2 MSTORE PUSH1 0x20 ADD SWAP1 DUP2 MSTORE PUSH1 0x20 ADD PUSH1 0x0 KECCAK256 DUP1 SLOAD SWAP1 POP SUB SWAP4 POP SWAP4 POP POP POP PUSH2 0x474E JUMP JUMPDEST DUP1 DUP1 PUSH1 0x1 ADD SWAP2 POP POP PUSH2 0x4649 JUMP JUMPDEST POP PUSH1 0x0 DUP1 REVERT JUMPDEST SWAP3 POP SWAP3 SWAP1 POP JUMP JUMPDEST PUSH1 0x7 DUP2 JUMP JUMPDEST PUSH1 0x33 SLOAD DUP2 JUMP JUMPDEST PUSH1 0x0 PUSH1 0x6B PUSH1 0x0 DUP6 PUSH20 0xFFFFFFFFFFFFFFFFFFFFFFFFFFFFFFFFFFFFFFFF AND PUSH20 0xFFFFFFFFFFFFFFFFFFFFFFFFFFFFFFFFFFFFFFFF AND DUP2 MSTORE PUSH1 0x20 ADD SWAP1 DUP2 MSTORE PUSH1 0x20 ADD PUSH1 0x0 KECCAK256 PUSH1 0x2 ADD PUSH1 0x0 SWAP1 SLOAD SWAP1 PUSH2 0x100 EXP SWAP1 DIV PUSH20 0xFFFFFFFFFFFFFFFFFFFFFFFFFFFFFFFFFFFFFFFF AND SWAP1 POP PUSH1 0x6B PUSH1 0x0 DUP3 PUSH20 0xFFFFFFFFFFFFFFFFFFFFFFFFFFFFFFFFFFFFFFFF AND PUSH20 0xFFFFFFFFFFFFFFFFFFFFFFFFFFFFFFFFFFFFFFFF AND DUP2 MSTORE PUSH1 0x20 ADD SWAP1 DUP2 MSTORE PUSH1 0x20 ADD PUSH1 0x0 KECCAK256 PUSH1 0x7 ADD PUSH1 0x0 DUP5 PUSH1 0xFF AND PUSH1 0xFF AND DUP2 MSTORE PUSH1 0x20 ADD SWAP1 DUP2 MSTORE PUSH1 0x20 ADD PUSH1 0x0 KECCAK256 PUSH1 0x0 ADD PUSH1 0x6 SWAP1 SLOAD SWAP1 PUSH2 0x100 EXP SWAP1 DIV PUSH1 0xFF AND PUSH2 0x4A0A JUMPI DUP2 PUSH1 0x6B PUSH1 0x0 DUP4 PUSH20 0xFFFFFFFFFFFFFFFFFFFFFFFFFFFFFFFFFFFFFFFF AND PUSH20 0xFFFFFFFFFFFFFFFFFFFFFFFFFFFFFFFFFFFFFFFF AND DUP2 MSTORE PUSH1 0x20 ADD SWAP1 DUP2 MSTORE PUSH1 0x20 ADD PUSH1 0x0 KECCAK256 PUSH1 0x6 ADD PUSH1 0x0 DUP3 DUP3 SLOAD ADD SWAP3 POP POP DUP2 SWAP1 SSTORE POP DUP2 PUSH1 0x6B PUSH1 0x0 DUP4 PUSH20 0xFFFFFFFFFFFFFFFFFFFFFFFFFFFFFFFFFFFFFFFF AND PUSH20 0xFFFFFFFFFFFFFFFFFFFFFFFFFFFFFFFFFFFFFFFF AND DUP2 MSTORE PUSH1 0x20 ADD SWAP1 DUP2 MSTORE PUSH1 0x20 ADD PUSH1 0x0 KECCAK256 PUSH1 0x7 ADD PUSH1 0x0 DUP6 PUSH1 0xFF AND PUSH1 0xFF AND DUP2 MSTORE PUSH1 0x20 ADD SWAP1 DUP2 MSTORE PUSH1 0x20 ADD PUSH1 0x0 KECCAK256 PUSH1 0x5 ADD PUSH1 0x0 DUP3 DUP3 SLOAD ADD SWAP3 POP POP DUP2 SWAP1 SSTORE POP DUP1 PUSH20 0xFFFFFFFFFFFFFFFFFFFFFFFFFFFFFFFFFFFFFFFF AND PUSH32 0x883BF1F67528BDC0CBAA14CB71F54E9F4E65EC49ECEAF639CB93A9E50AEFC4C TIMESTAMP PUSH1 0x6B PUSH1 0x0 DUP6 PUSH20 0xFFFFFFFFFFFFFFFFFFFFFFFFFFFFFFFFFFFFFFFF AND PUSH20 0xFFFFFFFFFFFFFFFFFFFFFFFFFFFFFFFFFFFFFFFF AND DUP2 MSTORE PUSH1 0x20 ADD SWAP1 DUP2 MSTORE PUSH1 0x20 ADD PUSH1 0x0 KECCAK256 PUSH1 0x0 ADD SLOAD PUSH1 0x6B PUSH1 0x0 DUP10 PUSH20 0xFFFFFFFFFFFFFFFFFFFFFFFFFFFFFFFFFFFFFFFF AND PUSH20 0xFFFFFFFFFFFFFFFFFFFFFFFFFFFFFFFFFFFFFFFF AND DUP2 MSTORE PUSH1 0x20 ADD SWAP1 DUP2 MSTORE PUSH1 0x20 ADD PUSH1 0x0 KECCAK256 PUSH1 0x0 ADD SLOAD DUP8 DUP8 PUSH1 0x40 MLOAD DUP1 DUP7 DUP2 MSTORE PUSH1 0x20 ADD DUP6 DUP2 MSTORE PUSH1 0x20 ADD DUP5 DUP2 MSTORE PUSH1 0x20 ADD DUP4 PUSH1 0xFF AND DUP2 MSTORE PUSH1 0x20 ADD DUP3 DUP2 MSTORE PUSH1 0x20 ADD SWAP6 POP POP POP POP POP POP PUSH1 0x40 MLOAD DUP1 SWAP2 SUB SWAP1 LOG2 PUSH1 0x66 PUSH1 0x2 SWAP1 SLOAD SWAP1 PUSH2 0x100 EXP SWAP1 DIV PUSH20 0xFFFFFFFFFFFFFFFFFFFFFFFFFFFFFFFFFFFFFFFF AND SWAP1 POP JUMPDEST PUSH1 0x0 DUP2 PUSH20 0xFFFFFFFFFFFFFFFFFFFFFFFFFFFFFFFFFFFFFFFF AND PUSH2 0x8FC DUP5 SWAP1 DUP2 ISZERO MUL SWAP1 PUSH1 0x40 MLOAD PUSH1 0x0 PUSH1 0x40 MLOAD DUP1 DUP4 SUB DUP2 DUP6 DUP9 DUP9 CALL SWAP4 POP POP POP POP SWAP1 POP DUP1 ISZERO PUSH2 0x4BFD JUMPI DUP3 PUSH1 0x6B PUSH1 0x0 DUP5 PUSH20 0xFFFFFFFFFFFFFFFFFFFFFFFFFFFFFFFFFFFFFFFF AND PUSH20 0xFFFFFFFFFFFFFFFFFFFFFFFFFFFFFFFFFFFFFFFF AND DUP2 MSTORE PUSH1 0x20 ADD SWAP1 DUP2 MSTORE PUSH1 0x20 ADD PUSH1 0x0 KECCAK256 PUSH1 0x7 ADD PUSH1 0x0 DUP7 PUSH1 0xFF AND PUSH1 0xFF AND DUP2 MSTORE PUSH1 0x20 ADD SWAP1 DUP2 MSTORE PUSH1 0x20 ADD PUSH1 0x0 KECCAK256 PUSH1 0x2 ADD PUSH1 0x0 DUP3 DUP3 SLOAD ADD SWAP3 POP POP DUP2 SWAP1 SSTORE POP DUP3 PUSH1 0x6B PUSH1 0x0 DUP5 PUSH20 0xFFFFFFFFFFFFFFFFFFFFFFFFFFFFFFFFFFFFFFFF AND PUSH20 0xFFFFFFFFFFFFFFFFFFFFFFFFFFFFFFFFFFFFFFFF AND DUP2 MSTORE PUSH1 0x20 ADD SWAP1 DUP2 MSTORE PUSH1 0x20 ADD PUSH1 0x0 KECCAK256 PUSH1 0x4 ADD PUSH1 0x0 DUP3 DUP3 SLOAD ADD SWAP3 POP POP DUP2 SWAP1 SSTORE POP DUP2 PUSH20 0xFFFFFFFFFFFFFFFFFFFFFFFFFFFFFFFFFFFFFFFF AND PUSH32 0xED8E24E8C3D702AAE6EC32D5D8FBB15B20E1905FCD8E9A2313DFF009A821750 TIMESTAMP PUSH1 0x6B PUSH1 0x0 DUP7 PUSH20 0xFFFFFFFFFFFFFFFFFFFFFFFFFFFFFFFFFFFFFFFF AND PUSH20 0xFFFFFFFFFFFFFFFFFFFFFFFFFFFFFFFFFFFFFFFF AND DUP2 MSTORE PUSH1 0x20 ADD SWAP1 DUP2 MSTORE PUSH1 0x20 ADD PUSH1 0x0 KECCAK256 PUSH1 0x0 ADD SLOAD PUSH1 0x6B PUSH1 0x0 DUP11 PUSH20 0xFFFFFFFFFFFFFFFFFFFFFFFFFFFFFFFFFFFFFFFF AND PUSH20 0xFFFFFFFFFFFFFFFFFFFFFFFFFFFFFFFFFFFFFFFF AND DUP2 MSTORE PUSH1 0x20 ADD SWAP1 DUP2 MSTORE PUSH1 0x20 ADD PUSH1 0x0 KECCAK256 PUSH1 0x0 ADD SLOAD DUP9 DUP9 PUSH1 0x40 MLOAD DUP1 DUP7 DUP2 MSTORE PUSH1 0x20 ADD DUP6 DUP2 MSTORE PUSH1 0x20 ADD DUP5 DUP2 MSTORE PUSH1 0x20 ADD DUP4 PUSH1 0xFF AND DUP2 MSTORE PUSH1 0x20 ADD DUP3 DUP2 MSTORE PUSH1 0x20 ADD SWAP6 POP POP POP POP POP POP PUSH1 0x40 MLOAD DUP1 SWAP2 SUB SWAP1 LOG2 PUSH2 0x4C67 JUMP JUMPDEST PUSH1 0x66 PUSH1 0x2 SWAP1 SLOAD SWAP1 PUSH2 0x100 EXP SWAP1 DIV PUSH20 0xFFFFFFFFFFFFFFFFFFFFFFFFFFFFFFFFFFFFFFFF AND PUSH20 0xFFFFFFFFFFFFFFFFFFFFFFFFFFFFFFFFFFFFFFFF AND PUSH2 0x8FC DUP5 SWAP1 DUP2 ISZERO MUL SWAP1 PUSH1 0x40 MLOAD PUSH1 0x0 PUSH1 0x40 MLOAD DUP1 DUP4 SUB DUP2 DUP6 DUP9 DUP9 CALL SWAP4 POP POP POP POP ISZERO DUP1 ISZERO PUSH2 0x4C65 JUMPI RETURNDATASIZE PUSH1 0x0 DUP1 RETURNDATACOPY RETURNDATASIZE PUSH1 0x0 REVERT JUMPDEST POP JUMPDEST POP POP POP POP POP JUMP JUMPDEST PUSH1 0x0 PUSH1 0x6B PUSH1 0x0 DUP6 PUSH20 0xFFFFFFFFFFFFFFFFFFFFFFFFFFFFFFFFFFFFFFFF AND PUSH20 0xFFFFFFFFFFFFFFFFFFFFFFFFFFFFFFFFFFFFFFFF AND DUP2 MSTORE PUSH1 0x20 ADD SWAP1 DUP2 MSTORE PUSH1 0x20 ADD PUSH1 0x0 KECCAK256 PUSH1 0x2 ADD PUSH1 0x0 SWAP1 SLOAD SWAP1 PUSH2 0x100 EXP SWAP1 DIV PUSH20 0xFFFFFFFFFFFFFFFFFFFFFFFFFFFFFFFFFFFFFFFF AND SWAP1 POP PUSH1 0x6B PUSH1 0x0 DUP3 PUSH20 0xFFFFFFFFFFFFFFFFFFFFFFFFFFFFFFFFFFFFFFFF AND PUSH20 0xFFFFFFFFFFFFFFFFFFFFFFFFFFFFFFFFFFFFFFFF AND DUP2 MSTORE PUSH1 0x20 ADD SWAP1 DUP2 MSTORE PUSH1 0x20 ADD PUSH1 0x0 KECCAK256 PUSH1 0x7 ADD PUSH1 0x0 DUP5 PUSH1 0xFF AND PUSH1 0xFF AND DUP2 MSTORE PUSH1 0x20 ADD SWAP1 DUP2 MSTORE PUSH1 0x20 ADD PUSH1 0x0 KECCAK256 PUSH1 0x0 ADD PUSH1 0x6 SWAP1 SLOAD SWAP1 PUSH2 0x100 EXP SWAP1 DIV PUSH1 0xFF AND PUSH2 0x4F18 JUMPI DUP2 PUSH1 0x6B PUSH1 0x0 DUP4 PUSH20 0xFFFFFFFFFFFFFFFFFFFFFFFFFFFFFFFFFFFFFFFF AND PUSH20 0xFFFFFFFFFFFFFFFFFFFFFFFFFFFFFFFFFFFFFFFF AND DUP2 MSTORE PUSH1 0x20 ADD SWAP1 DUP2 MSTORE PUSH1 0x20 ADD PUSH1 0x0 KECCAK256 PUSH1 0x6 ADD PUSH1 0x0 DUP3 DUP3 SLOAD ADD SWAP3 POP POP DUP2 SWAP1 SSTORE POP DUP2 PUSH1 0x6B PUSH1 0x0 DUP4 PUSH20 0xFFFFFFFFFFFFFFFFFFFFFFFFFFFFFFFFFFFFFFFF AND PUSH20 0xFFFFFFFFFFFFFFFFFFFFFFFFFFFFFFFFFFFFFFFF AND DUP2 MSTORE PUSH1 0x20 ADD SWAP1 DUP2 MSTORE PUSH1 0x20 ADD PUSH1 0x0 KECCAK256 PUSH1 0x7 ADD PUSH1 0x0 DUP6 PUSH1 0xFF AND PUSH1 0xFF AND DUP2 MSTORE PUSH1 0x20 ADD SWAP1 DUP2 MSTORE PUSH1 0x20 ADD PUSH1 0x0 KECCAK256 PUSH1 0x4 ADD PUSH1 0x0 DUP3 DUP3 SLOAD ADD SWAP3 POP POP DUP2 SWAP1 SSTORE POP DUP1 PUSH20 0xFFFFFFFFFFFFFFFFFFFFFFFFFFFFFFFFFFFFFFFF AND PUSH32 0x71571CFDF540D399D1A547446D2F4090641FC35AE5BF0FA7148C5368A7D5912E TIMESTAMP PUSH1 0x6B PUSH1 0x0 DUP6 PUSH20 0xFFFFFFFFFFFFFFFFFFFFFFFFFFFFFFFFFFFFFFFF AND PUSH20 0xFFFFFFFFFFFFFFFFFFFFFFFFFFFFFFFFFFFFFFFF AND DUP2 MSTORE PUSH1 0x20 ADD SWAP1 DUP2 MSTORE PUSH1 0x20 ADD PUSH1 0x0 KECCAK256 PUSH1 0x0 ADD SLOAD PUSH1 0x6B PUSH1 0x0 DUP10 PUSH20 0xFFFFFFFFFFFFFFFFFFFFFFFFFFFFFFFFFFFFFFFF AND PUSH20 0xFFFFFFFFFFFFFFFFFFFFFFFFFFFFFFFFFFFFFFFF AND DUP2 MSTORE PUSH1 0x20 ADD SWAP1 DUP2 MSTORE PUSH1 0x20 ADD PUSH1 0x0 KECCAK256 PUSH1 0x0 ADD SLOAD DUP8 DUP8 PUSH1 0x40 MLOAD DUP1 DUP7 DUP2 MSTORE PUSH1 0x20 ADD DUP6 DUP2 MSTORE PUSH1 0x20 ADD DUP5 DUP2 MSTORE PUSH1 0x20 ADD DUP4 PUSH1 0xFF AND DUP2 MSTORE PUSH1 0x20 ADD DUP3 DUP2 MSTORE PUSH1 0x20 ADD SWAP6 POP POP POP POP POP POP PUSH1 0x40 MLOAD DUP1 SWAP2 SUB SWAP1 LOG2 PUSH1 0x66 PUSH1 0x2 SWAP1 SLOAD SWAP1 PUSH2 0x100 EXP SWAP1 DIV PUSH20 0xFFFFFFFFFFFFFFFFFFFFFFFFFFFFFFFFFFFFFFFF AND SWAP1 POP JUMPDEST PUSH1 0x0 DUP2 PUSH20 0xFFFFFFFFFFFFFFFFFFFFFFFFFFFFFFFFFFFFFFFF AND PUSH2 0x8FC DUP5 SWAP1 DUP2 ISZERO MUL SWAP1 PUSH1 0x40 MLOAD PUSH1 0x0 PUSH1 0x40 MLOAD DUP1 DUP4 SUB DUP2 DUP6 DUP9 DUP9 CALL SWAP4 POP POP POP POP SWAP1 POP DUP1 ISZERO PUSH2 0x510B JUMPI DUP3 PUSH1 0x6B PUSH1 0x0 DUP5 PUSH20 0xFFFFFFFFFFFFFFFFFFFFFFFFFFFFFFFFFFFFFFFF AND PUSH20 0xFFFFFFFFFFFFFFFFFFFFFFFFFFFFFFFFFFFFFFFF AND DUP2 MSTORE PUSH1 0x20 ADD SWAP1 DUP2 MSTORE PUSH1 0x20 ADD PUSH1 0x0 KECCAK256 PUSH1 0x7 ADD PUSH1 0x0 DUP7 PUSH1 0xFF AND PUSH1 0xFF AND DUP2 MSTORE PUSH1 0x20 ADD SWAP1 DUP2 MSTORE PUSH1 0x20 ADD PUSH1 0x0 KECCAK256 PUSH1 0x2 ADD PUSH1 0x0 DUP3 DUP3 SLOAD ADD SWAP3 POP POP DUP2 SWAP1 SSTORE POP DUP3 PUSH1 0x6B PUSH1 0x0 DUP5 PUSH20 0xFFFFFFFFFFFFFFFFFFFFFFFFFFFFFFFFFFFFFFFF AND PUSH20 0xFFFFFFFFFFFFFFFFFFFFFFFFFFFFFFFFFFFFFFFF AND DUP2 MSTORE PUSH1 0x20 ADD SWAP1 DUP2 MSTORE PUSH1 0x20 ADD PUSH1 0x0 KECCAK256 PUSH1 0x4 ADD PUSH1 0x0 DUP3 DUP3 SLOAD ADD SWAP3 POP POP DUP2 SWAP1 SSTORE POP DUP2 PUSH20 0xFFFFFFFFFFFFFFFFFFFFFFFFFFFFFFFFFFFFFFFF AND PUSH32 0xADBEAD61ED0E78434AF1793FE9C549F995680CCC1D4CC2015E78BFFC67B7B181 TIMESTAMP PUSH1 0x6B PUSH1 0x0 DUP7 PUSH20 0xFFFFFFFFFFFFFFFFFFFFFFFFFFFFFFFFFFFFFFFF AND PUSH20 0xFFFFFFFFFFFFFFFFFFFFFFFFFFFFFFFFFFFFFFFF AND DUP2 MSTORE PUSH1 0x20 ADD SWAP1 DUP2 MSTORE PUSH1 0x20 ADD PUSH1 0x0 KECCAK256 PUSH1 0x0 ADD SLOAD PUSH1 0x6B PUSH1 0x0 DUP11 PUSH20 0xFFFFFFFFFFFFFFFFFFFFFFFFFFFFFFFFFFFFFFFF AND PUSH20 0xFFFFFFFFFFFFFFFFFFFFFFFFFFFFFFFFFFFFFFFF AND DUP2 MSTORE PUSH1 0x20 ADD SWAP1 DUP2 MSTORE PUSH1 0x20 ADD PUSH1 0x0 KECCAK256 PUSH1 0x0 ADD SLOAD DUP9 DUP9 PUSH1 0x40 MLOAD DUP1 DUP7 DUP2 MSTORE PUSH1 0x20 ADD DUP6 DUP2 MSTORE PUSH1 0x20 ADD DUP5 DUP2 MSTORE PUSH1 0x20 ADD DUP4 PUSH1 0xFF AND DUP2 MSTORE PUSH1 0x20 ADD DUP3 DUP2 MSTORE PUSH1 0x20 ADD SWAP6 POP POP POP POP POP POP PUSH1 0x40 MLOAD DUP1 SWAP2 SUB SWAP1 LOG2 PUSH2 0x5175 JUMP JUMPDEST PUSH1 0x66 PUSH1 0x2 SWAP1 SLOAD SWAP1 PUSH2 0x100 EXP SWAP1 DIV PUSH20 0xFFFFFFFFFFFFFFFFFFFFFFFFFFFFFFFFFFFFFFFF AND PUSH20 0xFFFFFFFFFFFFFFFFFFFFFFFFFFFFFFFFFFFFFFFF AND PUSH2 0x8FC DUP5 SWAP1 DUP2 ISZERO MUL SWAP1 PUSH1 0x40 MLOAD PUSH1 0x0 PUSH1 0x40 MLOAD DUP1 DUP4 SUB DUP2 DUP6 DUP9 DUP9 CALL SWAP4 POP POP POP POP ISZERO DUP1 ISZERO PUSH2 0x5173 JUMPI RETURNDATASIZE PUSH1 0x0 DUP1 RETURNDATACOPY RETURNDATASIZE PUSH1 0x0 REVERT JUMPDEST POP JUMPDEST POP POP POP POP POP JUMP JUMPDEST PUSH1 0x40 MLOAD DUP1 PUSH1 0xA0 ADD PUSH1 0x40 MSTORE DUP1 PUSH1 0x5 SWAP1 PUSH1 0x20 DUP3 MUL DUP1 CALLDATASIZE DUP4 CALLDATACOPY DUP1 DUP3 ADD SWAP2 POP POP SWAP1 POP POP SWAP1 JUMP JUMPDEST PUSH1 0x40 MLOAD DUP1 PUSH2 0x200 ADD PUSH1 0x40 MSTORE DUP1 PUSH1 0x10 SWAP1 PUSH1 0x20 DUP3 MUL DUP1 CALLDATASIZE DUP4 CALLDATACOPY DUP1 DUP3 ADD SWAP2 POP POP SWAP1 POP POP SWAP1 JUMP JUMPDEST PUSH1 0x40 MLOAD DUP1 PUSH2 0x120 ADD PUSH1 0x40 MSTORE DUP1 PUSH1 0x0 DUP2 MSTORE PUSH1 0x20 ADD PUSH1 0x0 DUP2 MSTORE PUSH1 0x20 ADD PUSH1 0x0 PUSH20 0xFFFFFFFFFFFFFFFFFFFFFFFFFFFFFFFFFFFFFFFF AND DUP2 MSTORE PUSH1 0x20 ADD PUSH1 0x0 DUP2 MSTORE PUSH1 0x20 ADD PUSH1 0x0 DUP2 MSTORE PUSH1 0x20 ADD PUSH1 0x0 DUP2 MSTORE PUSH1 0x20 ADD PUSH1 0x0 DUP2 MSTORE PUSH1 0x20 ADD PUSH1 0x0 PUSH1 0xFF AND DUP2 MSTORE PUSH1 0x20 ADD PUSH1 0x0 DUP2 MSTORE POP SWAP1 JUMP JUMPDEST PUSH1 0x40 MLOAD DUP1 PUSH2 0x640 ADD PUSH1 0x40 MSTORE DUP1 PUSH1 0x32 SWAP1 PUSH1 0x20 DUP3 MUL DUP1 CALLDATASIZE DUP4 CALLDATACOPY DUP1 DUP3 ADD SWAP2 POP POP SWAP1 POP POP SWAP1 JUMP INVALID NUMBER PUSH2 0x6E27 PUSH21 0x2066696E6420726F756E6420746F206275792E204D PUSH2 0x7962 PUSH6 0x2073656E7420 PUSH23 0x616C756520697320696E76616C69642EA2646970667358 0x22 SLT KECCAK256 DUP13 DUP7 0x4F 0x23 TIMESTAMP MSIZE ADDRESS CALLER 0xCE NUMBER 0xBA SELFBALANCE 0xB8 0x5F 0xD4 0xC4 0xED LOG2 PUSH5 0xB9E3AD4ABF 0xD9 0xCC STOP 0xCC EXP 0x25 0x28 0xEA PUSH5 0x736F6C6343 STOP MOD 0xC STOP CALLER "
				},
				"gasEstimates": {
					"creation": {
						"codeDepositCost": "4234400",
						"executionCost": "infinite",
						"totalCost": "infinite"
					},
					"external": {
						"Lottery(uint256)": "infinite",
						"RoiRounds(uint256)": "1175",
						"buyFirstRound(address)": "infinite",
						"buyround(uint8)": "infinite",
						"calcSecretPrize(uint8)": "infinite",
						"getContractBalance()": "305",
						"getGlobalStatistic()": "infinite",
						"getLotteryWiner()": "infinite",
						"getPlaceInQueue(address,uint8)": "infinite",
						"getPrize()": "infinite",
						"getReferrer(address)": "2343",
						"getReferrerId(address)": "2280",
						"getRoiRound()": "infinite",
						"getUser(address)": "9543",
						"getUserAddressById(uint256)": "1265",
						"getUserIdByAddress(address)": "1314",
						"getUserrounds(address)": "infinite",
						"getUserroundsMissedProfit(address)": "infinite",
						"getroundPrices()": "infinite",
						"gettimeRoundEnd()": "infinite",
						"income()": "254",
						"isContract(address)": "1109",
						"isUserRegistered(address)": "1308",
						"lastTimeActivation(address)": "1258",
						"marketing()": "1093",
						"marketingPercents()": "343",
						"nextWinerSecretGame(uint256)": "1250",
						"owner()": "1186",
						"referralRewardPercents()": "1092",
						"referralRewardProfitPercents()": "1142",
						"register()": "infinite",
						"registerWithReferrer(address)": "infinite",
						"registrationPrice()": "251",
						"rewardPayouts()": "345",
						"rewardPercents()": "255",
						"roundPrice(uint256)": "2113",
						"timeLottery()": "1117",
						"timeRoudsEnd(uint256)": "1240",
						"todayWiner(uint256)": "1295",
						"todayWinerValue()": "1159",
						"users(address)": "7990"
					},
					"internal": {
						"sendPostRewardToReferrer(address,uint8,uint256)": "infinite",
						"sendRewardToReferrer(address,uint8,uint256)": "infinite"
					}
				},
				"methodIdentifiers": {
					"Lottery(uint256)": "950fabf3",
					"RoiRounds(uint256)": "693864f3",
					"buyFirstRound(address)": "b3791e7f",
					"buyround(uint8)": "5a8a14d0",
					"calcSecretPrize(uint8)": "375e3b55",
					"getContractBalance()": "6f9fb98a",
					"getGlobalStatistic()": "2a2c908e",
					"getLotteryWiner()": "8c4636c1",
					"getPlaceInQueue(address,uint8)": "cfce5044",
					"getPrize()": "c34f6b0d",
					"getReferrer(address)": "4a9fefc7",
					"getReferrerId(address)": "bd4b77ee",
					"getRoiRound()": "c8e161a1",
					"getUser(address)": "6f77926b",
					"getUserAddressById(uint256)": "8a03ad86",
					"getUserIdByAddress(address)": "385399f9",
					"getUserrounds(address)": "230f7f82",
					"getUserroundsMissedProfit(address)": "5c279ff9",
					"getroundPrices()": "01b91a17",
					"gettimeRoundEnd()": "3336b63e",
					"income()": "88b45046",
					"isContract(address)": "16279055",
					"isUserRegistered(address)": "163f7522",
					"lastTimeActivation(address)": "a9a9cfe0",
					"marketing()": "2d3e474a",
					"marketingPercents()": "eca2c026",
					"nextWinerSecretGame(uint256)": "26efd443",
					"owner()": "8da5cb5b",
					"referralRewardPercents()": "4cdbe908",
					"referralRewardProfitPercents()": "a7345f56",
					"register()": "1aa3a008",
					"registerWithReferrer(address)": "968763a0",
					"registrationPrice()": "21658658",
					"rewardPayouts()": "2cc8da43",
					"rewardPercents()": "bfe24893",
					"roundPrice(uint256)": "5d7b1cc9",
					"timeLottery()": "7ccd94da",
					"timeRoudsEnd(uint256)": "5ce974b9",
					"todayWiner(uint256)": "1dfd8fe0",
					"todayWinerValue()": "f21efb5b",
					"users(address)": "a87430ba"
				}
			},
			"storageLayout": {
				"storage": [
					{
						"astId": 9,
						"contract": "contract/lottery.sol:LotteryWCA",
						"label": "_status",
						"offset": 0,
						"slot": "0",
						"type": "t_uint256"
					},
					{
						"astId": 43,
						"contract": "contract/lottery.sol:LotteryWCA",
						"label": "todayWiner",
						"offset": 0,
						"slot": "1",
						"type": "t_array(t_address)50_storage"
					},
					{
						"astId": 45,
						"contract": "contract/lottery.sol:LotteryWCA",
						"label": "todayWinerValue",
						"offset": 0,
						"slot": "51",
						"type": "t_uint256"
					},
					{
						"astId": 47,
						"contract": "contract/lottery.sol:LotteryWCA",
						"label": "timeLottery",
						"offset": 0,
						"slot": "52",
						"type": "t_uint256"
					},
					{
						"astId": 51,
						"contract": "contract/lottery.sol:LotteryWCA",
						"label": "RoiRounds",
						"offset": 0,
						"slot": "53",
						"type": "t_array(t_uint256)16_storage"
					},
					{
						"astId": 55,
						"contract": "contract/lottery.sol:LotteryWCA",
						"label": "timeRoudsEnd",
						"offset": 0,
						"slot": "69",
						"type": "t_array(t_uint256)16_storage"
					},
					{
						"astId": 59,
						"contract": "contract/lottery.sol:LotteryWCA",
						"label": "nextWinerSecretGame",
						"offset": 0,
						"slot": "85",
						"type": "t_array(t_address)16_storage"
					},
					{
						"astId": 63,
						"contract": "contract/lottery.sol:LotteryWCA",
						"label": "lastTimeActivation",
						"offset": 0,
						"slot": "101",
						"type": "t_mapping(t_address,t_uint256)"
					},
					{
						"astId": 269,
						"contract": "contract/lottery.sol:LotteryWCA",
						"label": "referralRewardPercents",
						"offset": 0,
						"slot": "102",
						"type": "t_uint8"
					},
					{
						"astId": 272,
						"contract": "contract/lottery.sol:LotteryWCA",
						"label": "referralRewardProfitPercents",
						"offset": 1,
						"slot": "102",
						"type": "t_uint8"
					},
					{
						"astId": 274,
						"contract": "contract/lottery.sol:LotteryWCA",
						"label": "owner",
						"offset": 2,
						"slot": "102",
						"type": "t_address_payable"
					},
					{
						"astId": 276,
						"contract": "contract/lottery.sol:LotteryWCA",
						"label": "marketing",
						"offset": 0,
						"slot": "103",
						"type": "t_address_payable"
					},
					{
						"astId": 296,
						"contract": "contract/lottery.sol:LotteryWCA",
						"label": "roundPrice",
						"offset": 0,
						"slot": "104",
						"type": "t_array(t_uint256)dyn_storage"
					},
					{
						"astId": 302,
						"contract": "contract/lottery.sol:LotteryWCA",
						"label": "totalrounds",
						"offset": 0,
						"slot": "105",
						"type": "t_uint256"
					},
					{
						"astId": 305,
						"contract": "contract/lottery.sol:LotteryWCA",
						"label": "newUserId",
						"offset": 0,
						"slot": "106",
						"type": "t_uint256"
					},
					{
						"astId": 309,
						"contract": "contract/lottery.sol:LotteryWCA",
						"label": "users",
						"offset": 0,
						"slot": "107",
						"type": "t_mapping(t_address,t_struct(User)86_storage)"
					},
					{
						"astId": 313,
						"contract": "contract/lottery.sol:LotteryWCA",
						"label": "usersAddressById",
						"offset": 0,
						"slot": "108",
						"type": "t_mapping(t_uint256,t_address)"
					},
					{
						"astId": 318,
						"contract": "contract/lottery.sol:LotteryWCA",
						"label": "roundQueue",
						"offset": 0,
						"slot": "109",
						"type": "t_mapping(t_uint8,t_array(t_address)dyn_storage)"
					},
					{
						"astId": 322,
						"contract": "contract/lottery.sol:LotteryWCA",
						"label": "headIndex",
						"offset": 0,
						"slot": "110",
						"type": "t_mapping(t_uint8,t_uint256)"
					},
					{
						"astId": 324,
						"contract": "contract/lottery.sol:LotteryWCA",
						"label": "globalStat",
						"offset": 0,
						"slot": "111",
						"type": "t_struct(GlobalStat)114_storage"
					}
				],
				"types": {
					"t_address": {
						"encoding": "inplace",
						"label": "address",
						"numberOfBytes": "20"
					},
					"t_address_payable": {
						"encoding": "inplace",
						"label": "address payable",
						"numberOfBytes": "20"
					},
					"t_array(t_address)16_storage": {
						"base": "t_address",
						"encoding": "inplace",
						"label": "address[16]",
						"numberOfBytes": "512"
					},
					"t_array(t_address)50_storage": {
						"base": "t_address",
						"encoding": "inplace",
						"label": "address[50]",
						"numberOfBytes": "1600"
					},
					"t_array(t_address)dyn_storage": {
						"base": "t_address",
						"encoding": "dynamic_array",
						"label": "address[]",
						"numberOfBytes": "32"
					},
					"t_array(t_uint256)16_storage": {
						"base": "t_uint256",
						"encoding": "inplace",
						"label": "uint256[16]",
						"numberOfBytes": "512"
					},
					"t_array(t_uint256)dyn_storage": {
						"base": "t_uint256",
						"encoding": "dynamic_array",
						"label": "uint256[]",
						"numberOfBytes": "32"
					},
					"t_bool": {
						"encoding": "inplace",
						"label": "bool",
						"numberOfBytes": "1"
					},
					"t_mapping(t_address,t_struct(User)86_storage)": {
						"encoding": "mapping",
						"key": "t_address",
						"label": "mapping(address => struct LotteryWCA.User)",
						"numberOfBytes": "32",
						"value": "t_struct(User)86_storage"
					},
					"t_mapping(t_address,t_uint256)": {
						"encoding": "mapping",
						"key": "t_address",
						"label": "mapping(address => uint256)",
						"numberOfBytes": "32",
						"value": "t_uint256"
					},
					"t_mapping(t_uint256,t_address)": {
						"encoding": "mapping",
						"key": "t_uint256",
						"label": "mapping(uint256 => address)",
						"numberOfBytes": "32",
						"value": "t_address"
					},
					"t_mapping(t_uint8,t_array(t_address)dyn_storage)": {
						"encoding": "mapping",
						"key": "t_uint8",
						"label": "mapping(uint8 => address[])",
						"numberOfBytes": "32",
						"value": "t_array(t_address)dyn_storage"
					},
					"t_mapping(t_uint8,t_struct(UserroundInfo)105_storage)": {
						"encoding": "mapping",
						"key": "t_uint8",
						"label": "mapping(uint8 => struct LotteryWCA.UserroundInfo)",
						"numberOfBytes": "32",
						"value": "t_struct(UserroundInfo)105_storage"
					},
					"t_mapping(t_uint8,t_uint256)": {
						"encoding": "mapping",
						"key": "t_uint8",
						"label": "mapping(uint8 => uint256)",
						"numberOfBytes": "32",
						"value": "t_uint256"
					},
					"t_struct(GlobalStat)114_storage": {
						"encoding": "inplace",
						"label": "struct LotteryWCA.GlobalStat",
						"members": [
							{
								"astId": 107,
								"contract": "contract/lottery.sol:LotteryWCA",
								"label": "members",
								"offset": 0,
								"slot": "0",
								"type": "t_uint256"
							},
							{
								"astId": 109,
								"contract": "contract/lottery.sol:LotteryWCA",
								"label": "transactions",
								"offset": 0,
								"slot": "1",
								"type": "t_uint256"
							},
							{
								"astId": 111,
								"contract": "contract/lottery.sol:LotteryWCA",
								"label": "turnover",
								"offset": 0,
								"slot": "2",
								"type": "t_uint256"
							},
							{
								"astId": 113,
								"contract": "contract/lottery.sol:LotteryWCA",
								"label": "lucky",
								"offset": 0,
								"slot": "3",
								"type": "t_uint256"
							}
						],
						"numberOfBytes": "128"
					},
					"t_struct(User)86_storage": {
						"encoding": "inplace",
						"label": "struct LotteryWCA.User",
						"members": [
							{
								"astId": 65,
								"contract": "contract/lottery.sol:LotteryWCA",
								"label": "id",
								"offset": 0,
								"slot": "0",
								"type": "t_uint256"
							},
							{
								"astId": 67,
								"contract": "contract/lottery.sol:LotteryWCA",
								"label": "registrationTimestamp",
								"offset": 0,
								"slot": "1",
								"type": "t_uint256"
							},
							{
								"astId": 69,
								"contract": "contract/lottery.sol:LotteryWCA",
								"label": "referrer",
								"offset": 0,
								"slot": "2",
								"type": "t_address"
							},
							{
								"astId": 71,
								"contract": "contract/lottery.sol:LotteryWCA",
								"label": "referrals",
								"offset": 0,
								"slot": "3",
								"type": "t_uint256"
							},
							{
								"astId": 73,
								"contract": "contract/lottery.sol:LotteryWCA",
								"label": "referralPayoutSum",
								"offset": 0,
								"slot": "4",
								"type": "t_uint256"
							},
							{
								"astId": 75,
								"contract": "contract/lottery.sol:LotteryWCA",
								"label": "roundsRewardSum",
								"offset": 0,
								"slot": "5",
								"type": "t_uint256"
							},
							{
								"astId": 77,
								"contract": "contract/lottery.sol:LotteryWCA",
								"label": "missedReferralPayoutSum",
								"offset": 0,
								"slot": "6",
								"type": "t_uint256"
							},
							{
								"astId": 81,
								"contract": "contract/lottery.sol:LotteryWCA",
								"label": "rounds",
								"offset": 0,
								"slot": "7",
								"type": "t_mapping(t_uint8,t_struct(UserroundInfo)105_storage)"
							},
							{
								"astId": 83,
								"contract": "contract/lottery.sol:LotteryWCA",
								"label": "maxRound",
								"offset": 0,
								"slot": "8",
								"type": "t_uint8"
							},
							{
								"astId": 85,
								"contract": "contract/lottery.sol:LotteryWCA",
								"label": "turnover",
								"offset": 0,
								"slot": "9",
								"type": "t_uint256"
							}
						],
						"numberOfBytes": "320"
					},
					"t_struct(UserroundInfo)105_storage": {
						"encoding": "inplace",
						"label": "struct LotteryWCA.UserroundInfo",
						"members": [
							{
								"astId": 88,
								"contract": "contract/lottery.sol:LotteryWCA",
								"label": "activationTimes",
								"offset": 0,
								"slot": "0",
								"type": "t_uint16"
							},
							{
								"astId": 90,
								"contract": "contract/lottery.sol:LotteryWCA",
								"label": "maxPayouts",
								"offset": 2,
								"slot": "0",
								"type": "t_uint16"
							},
							{
								"astId": 92,
								"contract": "contract/lottery.sol:LotteryWCA",
								"label": "payouts",
								"offset": 4,
								"slot": "0",
								"type": "t_uint16"
							},
							{
								"astId": 94,
								"contract": "contract/lottery.sol:LotteryWCA",
								"label": "active",
								"offset": 6,
								"slot": "0",
								"type": "t_bool"
							},
							{
								"astId": 96,
								"contract": "contract/lottery.sol:LotteryWCA",
								"label": "rewardSum",
								"offset": 0,
								"slot": "1",
								"type": "t_uint256"
							},
							{
								"astId": 98,
								"contract": "contract/lottery.sol:LotteryWCA",
								"label": "referralPayoutSum",
								"offset": 0,
								"slot": "2",
								"type": "t_uint256"
							},
							{
								"astId": 100,
								"contract": "contract/lottery.sol:LotteryWCA",
								"label": "lastTimeBuyround",
								"offset": 0,
								"slot": "3",
								"type": "t_uint256"
							},
							{
								"astId": 102,
								"contract": "contract/lottery.sol:LotteryWCA",
								"label": "missedRefferalProfit",
								"offset": 0,
								"slot": "4",
								"type": "t_uint256"
							},
							{
								"astId": 104,
								"contract": "contract/lottery.sol:LotteryWCA",
								"label": "missedRefferalPostProfit",
								"offset": 0,
								"slot": "5",
								"type": "t_uint256"
							}
						],
						"numberOfBytes": "192"
					},
					"t_uint16": {
						"encoding": "inplace",
						"label": "uint16",
						"numberOfBytes": "2"
					},
					"t_uint256": {
						"encoding": "inplace",
						"label": "uint256",
						"numberOfBytes": "32"
					},
					"t_uint8": {
						"encoding": "inplace",
						"label": "uint8",
						"numberOfBytes": "1"
					}
				}
			},
			"userdoc": {
				"kind": "user",
				"methods": {},
				"version": 1
			}
		}
	}
}