{
	"contract/lottery.sol": {
		"LotteryWCA": {
			"abi": [
				{
					"inputs": [
						{
							"internalType": "address payable",
							"name": "_marketing",
							"type": "address"
						}
					],
					"stateMutability": "nonpayable",
					"type": "constructor"
				},
				{
					"anonymous": false,
					"inputs": [
						{
							"indexed": false,
							"internalType": "uint256",
							"name": "time",
							"type": "uint256"
						},
						{
							"indexed": true,
							"internalType": "address",
							"name": "adress",
							"type": "address"
						},
						{
							"indexed": false,
							"internalType": "uint256",
							"name": "userId",
							"type": "uint256"
						},
						{
							"indexed": false,
							"internalType": "uint8",
							"name": "round",
							"type": "uint8"
						}
					],
					"name": "Buyround",
					"type": "event"
				},
				{
					"anonymous": false,
					"inputs": [
						{
							"indexed": false,
							"internalType": "uint256",
							"name": "time",
							"type": "uint256"
						},
						{
							"indexed": true,
							"internalType": "address",
							"name": "adress",
							"type": "address"
						},
						{
							"indexed": false,
							"internalType": "uint256",
							"name": "userId",
							"type": "uint256"
						},
						{
							"indexed": false,
							"internalType": "uint8",
							"name": "round",
							"type": "uint8"
						},
						{
							"indexed": false,
							"internalType": "uint16",
							"name": "newMaxPayouts",
							"type": "uint16"
						}
					],
					"name": "IncreaseroundMaxPayouts",
					"type": "event"
				},
				{
					"anonymous": false,
					"inputs": [
						{
							"indexed": false,
							"internalType": "uint256",
							"name": "time",
							"type": "uint256"
						},
						{
							"indexed": true,
							"internalType": "address",
							"name": "adress",
							"type": "address"
						},
						{
							"indexed": false,
							"internalType": "uint256",
							"name": "referrerId",
							"type": "uint256"
						},
						{
							"indexed": false,
							"internalType": "uint256",
							"name": "referralId",
							"type": "uint256"
						},
						{
							"indexed": false,
							"internalType": "uint8",
							"name": "round",
							"type": "uint8"
						},
						{
							"indexed": false,
							"internalType": "uint256",
							"name": "rewardValue",
							"type": "uint256"
						}
					],
					"name": "MissedReferralPayout",
					"type": "event"
				},
				{
					"anonymous": false,
					"inputs": [
						{
							"indexed": false,
							"internalType": "uint256",
							"name": "time",
							"type": "uint256"
						},
						{
							"indexed": true,
							"internalType": "address",
							"name": "adress",
							"type": "address"
						},
						{
							"indexed": false,
							"internalType": "uint256",
							"name": "referrerId",
							"type": "uint256"
						},
						{
							"indexed": false,
							"internalType": "uint256",
							"name": "referralId",
							"type": "uint256"
						},
						{
							"indexed": false,
							"internalType": "uint8",
							"name": "round",
							"type": "uint8"
						},
						{
							"indexed": false,
							"internalType": "uint256",
							"name": "rewardValue",
							"type": "uint256"
						}
					],
					"name": "MissedReferralPostPayout",
					"type": "event"
				},
				{
					"anonymous": false,
					"inputs": [
						{
							"indexed": false,
							"internalType": "uint256",
							"name": "time",
							"type": "uint256"
						},
						{
							"indexed": true,
							"internalType": "address",
							"name": "adress",
							"type": "address"
						},
						{
							"indexed": false,
							"internalType": "uint256",
							"name": "referrerId",
							"type": "uint256"
						},
						{
							"indexed": false,
							"internalType": "uint256",
							"name": "referralId",
							"type": "uint256"
						},
						{
							"indexed": false,
							"internalType": "uint8",
							"name": "round",
							"type": "uint8"
						},
						{
							"indexed": false,
							"internalType": "uint256",
							"name": "rewardValue",
							"type": "uint256"
						}
					],
					"name": "ReferralPayout",
					"type": "event"
				},
				{
					"anonymous": false,
					"inputs": [
						{
							"indexed": false,
							"internalType": "uint256",
							"name": "time",
							"type": "uint256"
						},
						{
							"indexed": true,
							"internalType": "address",
							"name": "adress",
							"type": "address"
						},
						{
							"indexed": false,
							"internalType": "uint256",
							"name": "referrerId",
							"type": "uint256"
						},
						{
							"indexed": false,
							"internalType": "uint256",
							"name": "referralId",
							"type": "uint256"
						},
						{
							"indexed": false,
							"internalType": "uint8",
							"name": "round",
							"type": "uint8"
						},
						{
							"indexed": false,
							"internalType": "uint256",
							"name": "rewardValue",
							"type": "uint256"
						}
					],
					"name": "ReferralPostPayout",
					"type": "event"
				},
				{
					"anonymous": false,
					"inputs": [
						{
							"indexed": false,
							"internalType": "uint256",
							"name": "time",
							"type": "uint256"
						},
						{
							"indexed": true,
							"internalType": "address",
							"name": "adress",
							"type": "address"
						},
						{
							"indexed": false,
							"internalType": "uint256",
							"name": "referralId",
							"type": "uint256"
						},
						{
							"indexed": false,
							"internalType": "uint256",
							"name": "referrerId",
							"type": "uint256"
						}
					],
					"name": "UserRegistration",
					"type": "event"
				},
				{
					"anonymous": false,
					"inputs": [
						{
							"indexed": false,
							"internalType": "uint256",
							"name": "time",
							"type": "uint256"
						},
						{
							"indexed": true,
							"internalType": "address",
							"name": "WinerSecretGame",
							"type": "address"
						},
						{
							"indexed": false,
							"internalType": "uint8",
							"name": "round",
							"type": "uint8"
						},
						{
							"indexed": false,
							"internalType": "uint256",
							"name": "valueSecretPrize",
							"type": "uint256"
						}
					],
					"name": "WinerForeverGame",
					"type": "event"
				},
				{
					"anonymous": false,
					"inputs": [
						{
							"indexed": false,
							"internalType": "uint256",
							"name": "time",
							"type": "uint256"
						},
						{
							"indexed": true,
							"internalType": "address",
							"name": "payedUser",
							"type": "address"
						},
						{
							"indexed": false,
							"internalType": "uint256",
							"name": "payPrize",
							"type": "uint256"
						}
					],
					"name": "payedPrize",
					"type": "event"
				},
				{
					"anonymous": false,
					"inputs": [
						{
							"indexed": false,
							"internalType": "uint256",
							"name": "time",
							"type": "uint256"
						},
						{
							"indexed": true,
							"internalType": "address",
							"name": "adress",
							"type": "address"
						},
						{
							"indexed": false,
							"internalType": "uint256",
							"name": "userId",
							"type": "uint256"
						},
						{
							"indexed": false,
							"internalType": "uint8",
							"name": "round",
							"type": "uint8"
						}
					],
					"name": "roundDeactivation",
					"type": "event"
				},
				{
					"anonymous": false,
					"inputs": [
						{
							"indexed": false,
							"internalType": "uint256",
							"name": "time",
							"type": "uint256"
						},
						{
							"indexed": true,
							"internalType": "address",
							"name": "adress",
							"type": "address"
						},
						{
							"indexed": false,
							"internalType": "uint256",
							"name": "userId",
							"type": "uint256"
						},
						{
							"indexed": false,
							"internalType": "uint8",
							"name": "round",
							"type": "uint8"
						},
						{
							"indexed": false,
							"internalType": "uint256",
							"name": "rewardValue",
							"type": "uint256"
						},
						{
							"indexed": false,
							"internalType": "uint256",
							"name": "fromUserId",
							"type": "uint256"
						},
						{
							"indexed": false,
							"internalType": "uint256",
							"name": "RoiRound",
							"type": "uint256"
						}
					],
					"name": "roundPayout",
					"type": "event"
				},
				{
					"anonymous": false,
					"inputs": [
						{
							"indexed": false,
							"internalType": "uint256",
							"name": "time",
							"type": "uint256"
						},
						{
							"indexed": true,
							"internalType": "address",
							"name": "win",
							"type": "address"
						},
						{
							"indexed": false,
							"internalType": "uint256",
							"name": "winPrize",
							"type": "uint256"
						}
					],
					"name": "winLottery",
					"type": "event"
				},
				{
					"inputs": [
						{
							"internalType": "uint256",
							"name": "ticket",
							"type": "uint256"
						}
					],
					"name": "Lottery",
					"outputs": [],
					"stateMutability": "nonpayable",
					"type": "function"
				},
				{
					"inputs": [
						{
							"internalType": "uint256",
							"name": "",
							"type": "uint256"
						}
					],
					"name": "RoiRounds",
					"outputs": [
						{
							"internalType": "uint256",
							"name": "",
							"type": "uint256"
						}
					],
					"stateMutability": "view",
					"type": "function"
				},
				{
					"inputs": [
						{
							"internalType": "address",
							"name": "referrer",
							"type": "address"
						}
					],
					"name": "buyFirstRound",
					"outputs": [],
					"stateMutability": "payable",
					"type": "function"
				},
				{
					"inputs": [
						{
							"internalType": "uint8",
							"name": "round",
							"type": "uint8"
						}
					],
					"name": "buyround",
					"outputs": [],
					"stateMutability": "payable",
					"type": "function"
				},
				{
					"inputs": [
						{
							"internalType": "uint8",
							"name": "round",
							"type": "uint8"
						}
					],
					"name": "calcSecretPrize",
					"outputs": [
						{
							"internalType": "uint256",
							"name": "value",
							"type": "uint256"
						}
					],
					"stateMutability": "view",
					"type": "function"
				},
				{
					"inputs": [],
					"name": "getContractBalance",
					"outputs": [
						{
							"internalType": "uint256",
							"name": "",
							"type": "uint256"
						}
					],
					"stateMutability": "view",
					"type": "function"
				},
				{
					"inputs": [],
					"name": "getGlobalStatistic",
					"outputs": [
						{
							"internalType": "uint256[5]",
							"name": "result",
							"type": "uint256[5]"
						}
					],
					"stateMutability": "view",
					"type": "function"
				},
				{
					"inputs": [],
					"name": "getLotteryWiner",
					"outputs": [
						{
							"internalType": "address[50]",
							"name": "",
							"type": "address[50]"
						}
					],
					"stateMutability": "view",
					"type": "function"
				},
				{
					"inputs": [
						{
							"internalType": "address",
							"name": "userAddress",
							"type": "address"
						},
						{
							"internalType": "uint8",
							"name": "round",
							"type": "uint8"
						}
					],
					"name": "getPlaceInQueue",
					"outputs": [
						{
							"internalType": "uint256",
							"name": "",
							"type": "uint256"
						},
						{
							"internalType": "uint256",
							"name": "",
							"type": "uint256"
						}
					],
					"stateMutability": "view",
					"type": "function"
				},
				{
					"inputs": [],
					"name": "getPrize",
					"outputs": [],
					"stateMutability": "nonpayable",
					"type": "function"
				},
				{
					"inputs": [
						{
							"internalType": "address",
							"name": "userAddress",
							"type": "address"
						}
					],
					"name": "getReferrer",
					"outputs": [
						{
							"internalType": "address",
							"name": "",
							"type": "address"
						}
					],
					"stateMutability": "view",
					"type": "function"
				},
				{
					"inputs": [
						{
							"internalType": "address",
							"name": "userAddress",
							"type": "address"
						}
					],
					"name": "getReferrerId",
					"outputs": [
						{
							"internalType": "uint256",
							"name": "",
							"type": "uint256"
						}
					],
					"stateMutability": "view",
					"type": "function"
				},
				{
					"inputs": [],
					"name": "getRoiRound",
					"outputs": [
						{
							"internalType": "uint256[16]",
							"name": "",
							"type": "uint256[16]"
						}
					],
					"stateMutability": "view",
					"type": "function"
				},
				{
					"inputs": [
						{
							"internalType": "address",
							"name": "userAddress",
							"type": "address"
						}
					],
					"name": "getUser",
					"outputs": [
						{
							"internalType": "uint256",
							"name": "",
							"type": "uint256"
						},
						{
							"internalType": "uint256",
							"name": "",
							"type": "uint256"
						},
						{
							"internalType": "uint256",
							"name": "",
							"type": "uint256"
						},
						{
							"internalType": "address",
							"name": "",
							"type": "address"
						},
						{
							"internalType": "uint256",
							"name": "",
							"type": "uint256"
						},
						{
							"internalType": "uint256",
							"name": "",
							"type": "uint256"
						},
						{
							"internalType": "uint256",
							"name": "",
							"type": "uint256"
						},
						{
							"internalType": "uint256",
							"name": "",
							"type": "uint256"
						},
						{
							"internalType": "uint256",
							"name": "",
							"type": "uint256"
						},
						{
							"internalType": "uint256",
							"name": "",
							"type": "uint256"
						}
					],
					"stateMutability": "view",
					"type": "function"
				},
				{
					"inputs": [
						{
							"internalType": "uint256",
							"name": "userId",
							"type": "uint256"
						}
					],
					"name": "getUserAddressById",
					"outputs": [
						{
							"internalType": "address",
							"name": "",
							"type": "address"
						}
					],
					"stateMutability": "view",
					"type": "function"
				},
				{
					"inputs": [
						{
							"internalType": "address",
							"name": "userAddress",
							"type": "address"
						}
					],
					"name": "getUserIdByAddress",
					"outputs": [
						{
							"internalType": "uint256",
							"name": "",
							"type": "uint256"
						}
					],
					"stateMutability": "view",
					"type": "function"
				},
				{
					"inputs": [
						{
							"internalType": "address",
							"name": "userAddress",
							"type": "address"
						}
					],
					"name": "getUserrounds",
					"outputs": [
						{
							"internalType": "bool[]",
							"name": "",
							"type": "bool[]"
						},
						{
							"internalType": "uint16[]",
							"name": "",
							"type": "uint16[]"
						},
						{
							"internalType": "uint16[]",
							"name": "",
							"type": "uint16[]"
						},
						{
							"internalType": "uint16[]",
							"name": "",
							"type": "uint16[]"
						},
						{
							"internalType": "uint256[]",
							"name": "",
							"type": "uint256[]"
						},
						{
							"internalType": "uint256[]",
							"name": "",
							"type": "uint256[]"
						}
					],
					"stateMutability": "view",
					"type": "function"
				},
				{
					"inputs": [
						{
							"internalType": "address",
							"name": "userAddress",
							"type": "address"
						}
					],
					"name": "getUserroundsMissedProfit",
					"outputs": [
						{
							"internalType": "uint256[]",
							"name": "",
							"type": "uint256[]"
						},
						{
							"internalType": "uint256[]",
							"name": "",
							"type": "uint256[]"
						}
					],
					"stateMutability": "view",
					"type": "function"
				},
				{
					"inputs": [],
					"name": "getroundPrices",
					"outputs": [
						{
							"internalType": "uint256[]",
							"name": "",
							"type": "uint256[]"
						}
					],
					"stateMutability": "view",
					"type": "function"
				},
				{
					"inputs": [],
					"name": "gettimeRoundEnd",
					"outputs": [
						{
							"internalType": "uint256[16]",
							"name": "",
							"type": "uint256[16]"
						}
					],
					"stateMutability": "view",
					"type": "function"
				},
				{
					"inputs": [],
					"name": "income",
					"outputs": [],
					"stateMutability": "payable",
					"type": "function"
				},
				{
					"inputs": [
						{
							"internalType": "address",
							"name": "addr",
							"type": "address"
						}
					],
					"name": "isContract",
					"outputs": [
						{
							"internalType": "bool",
							"name": "",
							"type": "bool"
						}
					],
					"stateMutability": "view",
					"type": "function"
				},
				{
					"inputs": [
						{
							"internalType": "address",
							"name": "addr",
							"type": "address"
						}
					],
					"name": "isUserRegistered",
					"outputs": [
						{
							"internalType": "bool",
							"name": "",
							"type": "bool"
						}
					],
					"stateMutability": "view",
					"type": "function"
				},
				{
					"inputs": [
						{
							"internalType": "address",
							"name": "",
							"type": "address"
						}
					],
					"name": "lastTimeActivation",
					"outputs": [
						{
							"internalType": "uint256",
							"name": "",
							"type": "uint256"
						}
					],
					"stateMutability": "view",
					"type": "function"
				},
				{
					"inputs": [],
					"name": "marketing",
					"outputs": [
						{
							"internalType": "address payable",
							"name": "",
							"type": "address"
						}
					],
					"stateMutability": "view",
					"type": "function"
				},
				{
					"inputs": [],
					"name": "marketingPercents",
					"outputs": [
						{
							"internalType": "uint8",
							"name": "",
							"type": "uint8"
						}
					],
					"stateMutability": "view",
					"type": "function"
				},
				{
					"inputs": [
						{
							"internalType": "uint256",
							"name": "",
							"type": "uint256"
						}
					],
					"name": "nextWinerSecretGame",
					"outputs": [
						{
							"internalType": "address",
							"name": "",
							"type": "address"
						}
					],
					"stateMutability": "view",
					"type": "function"
				},
				{
					"inputs": [],
					"name": "owner",
					"outputs": [
						{
							"internalType": "address payable",
							"name": "",
							"type": "address"
						}
					],
					"stateMutability": "view",
					"type": "function"
				},
				{
					"inputs": [],
					"name": "referralRewardPercents",
					"outputs": [
						{
							"internalType": "uint8",
							"name": "",
							"type": "uint8"
						}
					],
					"stateMutability": "view",
					"type": "function"
				},
				{
					"inputs": [],
					"name": "referralRewardProfitPercents",
					"outputs": [
						{
							"internalType": "uint8",
							"name": "",
							"type": "uint8"
						}
					],
					"stateMutability": "view",
					"type": "function"
				},
				{
					"inputs": [],
					"name": "register",
					"outputs": [],
					"stateMutability": "payable",
					"type": "function"
				},
				{
					"inputs": [
						{
							"internalType": "address",
							"name": "referrer",
							"type": "address"
						}
					],
					"name": "registerWithReferrer",
					"outputs": [],
					"stateMutability": "payable",
					"type": "function"
				},
				{
					"inputs": [],
					"name": "registrationPrice",
					"outputs": [
						{
							"internalType": "uint256",
							"name": "",
							"type": "uint256"
						}
					],
					"stateMutability": "view",
					"type": "function"
				},
				{
					"inputs": [],
					"name": "rewardPayouts",
					"outputs": [
						{
							"internalType": "uint8",
							"name": "",
							"type": "uint8"
						}
					],
					"stateMutability": "view",
					"type": "function"
				},
				{
					"inputs": [],
					"name": "rewardPercents",
					"outputs": [
						{
							"internalType": "uint8",
							"name": "",
							"type": "uint8"
						}
					],
					"stateMutability": "view",
					"type": "function"
				},
				{
					"inputs": [
						{
							"internalType": "uint256",
							"name": "",
							"type": "uint256"
						}
					],
					"name": "roundPrice",
					"outputs": [
						{
							"internalType": "uint256",
							"name": "",
							"type": "uint256"
						}
					],
					"stateMutability": "view",
					"type": "function"
				},
				{
					"inputs": [],
					"name": "timeLottery",
					"outputs": [
						{
							"internalType": "uint256",
							"name": "",
							"type": "uint256"
						}
					],
					"stateMutability": "view",
					"type": "function"
				},
				{
					"inputs": [
						{
							"internalType": "uint256",
							"name": "",
							"type": "uint256"
						}
					],
					"name": "timeRoudsEnd",
					"outputs": [
						{
							"internalType": "uint256",
							"name": "",
							"type": "uint256"
						}
					],
					"stateMutability": "view",
					"type": "function"
				},
				{
					"inputs": [
						{
							"internalType": "uint256",
							"name": "",
							"type": "uint256"
						}
					],
					"name": "todayWiner",
					"outputs": [
						{
							"internalType": "address",
							"name": "",
							"type": "address"
						}
					],
					"stateMutability": "view",
					"type": "function"
				},
				{
					"inputs": [],
					"name": "todayWinerValue",
					"outputs": [
						{
							"internalType": "uint256",
							"name": "",
							"type": "uint256"
						}
					],
					"stateMutability": "view",
					"type": "function"
				},
				{
					"inputs": [
						{
							"internalType": "address",
							"name": "",
							"type": "address"
						}
					],
					"name": "users",
					"outputs": [
						{
							"internalType": "uint256",
							"name": "id",
							"type": "uint256"
						},
						{
							"internalType": "uint256",
							"name": "registrationTimestamp",
							"type": "uint256"
						},
						{
							"internalType": "address",
							"name": "referrer",
							"type": "address"
						},
						{
							"internalType": "uint256",
							"name": "referrals",
							"type": "uint256"
						},
						{
							"internalType": "uint256",
							"name": "referralPayoutSum",
							"type": "uint256"
						},
						{
							"internalType": "uint256",
							"name": "roundsRewardSum",
							"type": "uint256"
						},
						{
							"internalType": "uint256",
							"name": "missedReferralPayoutSum",
							"type": "uint256"
						},
						{
							"internalType": "uint8",
							"name": "maxRound",
							"type": "uint8"
						},
						{
							"internalType": "uint256",
							"name": "turnover",
							"type": "uint256"
						}
					],
					"stateMutability": "view",
					"type": "function"
				},
				{
					"stateMutability": "payable",
					"type": "receive"
				}
			],
			"devdoc": {
				"kind": "dev",
				"methods": {},
				"version": 1
			},
			"evm": {
				"assembly": "    /* \"contract/lottery.sol\":479:19377  contract LotteryWCA is ReentrancyGuard {\r... */\n  mstore(0x40, 0x80)\n    /* \"contract/lottery.sol\":3140:3141  9 */\n  0x09\n    /* \"contract/lottery.sol\":3102:3141  uint8 public referralRewardPercents = 9 */\n  0x66\n  exp(0x0100, 0x00)\n  dup2\n  sload\n  dup2\n  0xff\n  mul\n  not\n  and\n  swap1\n  dup4\n  0xff\n  and\n  mul\n  or\n  swap1\n  sstore\n  pop\n    /* \"contract/lottery.sol\":3192:3193  8 */\n  0x08\n    /* \"contract/lottery.sol\":3148:3193  uint8 public referralRewardProfitPercents = 8 */\n  0x66\n  exp(0x0100, 0x01)\n  dup2\n  sload\n  dup2\n  0xff\n  mul\n  not\n  and\n  swap1\n  dup4\n  0xff\n  and\n  mul\n  or\n  swap1\n  sstore\n  pop\n    /* \"contract/lottery.sol\":3280:3660  uint[] public roundPrice = [\r... */\n  mload(0x40)\n  dup1\n  0x0200\n  add\n  0x40\n  mstore\n  dup1\n    /* \"contract/lottery.sol\":3318:3325  0 ether */\n  0x00\n    /* \"contract/lottery.sol\":3280:3660  uint[] public roundPrice = [\r... */\n  0xffffffffffffffff\n  and\n  dup2\n  mstore\n  0x20\n  add\n    /* \"contract/lottery.sol\":3340:3350  0.05 ether */\n  0xb1a2bc2ec50000\n    /* \"contract/lottery.sol\":3280:3660  uint[] public roundPrice = [\r... */\n  0xffffffffffffffff\n  and\n  dup2\n  mstore\n  0x20\n  add\n    /* \"contract/lottery.sol\":3361:3371  0.08 ether */\n  0x011c37937e080000\n    /* \"contract/lottery.sol\":3280:3660  uint[] public roundPrice = [\r... */\n  0xffffffffffffffff\n  and\n  dup2\n  mstore\n  0x20\n  add\n    /* \"contract/lottery.sol\":3383:3393  0.13 ether */\n  0x01cdda4faccd0000\n    /* \"contract/lottery.sol\":3280:3660  uint[] public roundPrice = [\r... */\n  0xffffffffffffffff\n  and\n  dup2\n  mstore\n  0x20\n  add\n    /* \"contract/lottery.sol\":3406:3416  0.22 ether */\n  0x030d98d59a960000\n    /* \"contract/lottery.sol\":3280:3660  uint[] public roundPrice = [\r... */\n  0xffffffffffffffff\n  and\n  dup2\n  mstore\n  0x20\n  add\n    /* \"contract/lottery.sol\":3428:3438  0.33 ether */\n  0x0494654067e10000\n    /* \"contract/lottery.sol\":3280:3660  uint[] public roundPrice = [\r... */\n  0xffffffffffffffff\n  and\n  dup2\n  mstore\n  0x20\n  add\n    /* \"contract/lottery.sol\":3451:3460  0.5 ether */\n  0x06f05b59d3b20000\n    /* \"contract/lottery.sol\":3280:3660  uint[] public roundPrice = [\r... */\n  0xffffffffffffffff\n  and\n  dup2\n  mstore\n  0x20\n  add\n    /* \"contract/lottery.sol\":3472:3481  0.7 ether */\n  0x09b6e64a8ec60000\n    /* \"contract/lottery.sol\":3280:3660  uint[] public roundPrice = [\r... */\n  0xffffffffffffffff\n  and\n  dup2\n  mstore\n  0x20\n  add\n    /* \"contract/lottery.sol\":3494:3504  1.05 ether */\n  0x0e92596fd6290000\n    /* \"contract/lottery.sol\":3280:3660  uint[] public roundPrice = [\r... */\n  0xffffffffffffffff\n  and\n  dup2\n  mstore\n  0x20\n  add\n    /* \"contract/lottery.sol\":3515:3525  1.45 ether */\n  0x141f6f514c510000\n    /* \"contract/lottery.sol\":3280:3660  uint[] public roundPrice = [\r... */\n  0xffffffffffffffff\n  and\n  dup2\n  mstore\n  0x20\n  add\n    /* \"contract/lottery.sol\":3537:3547  1.95 ether */\n  0x1b0fcaab20030000\n    /* \"contract/lottery.sol\":3280:3660  uint[] public roundPrice = [\r... */\n  0xffffffffffffffff\n  and\n  dup2\n  mstore\n  0x20\n  add\n    /* \"contract/lottery.sol\":3559:3568  2.4 ether */\n  0x214e8348c4f00000\n    /* \"contract/lottery.sol\":3280:3660  uint[] public roundPrice = [\r... */\n  0xffffffffffffffff\n  and\n  dup2\n  mstore\n  0x20\n  add\n    /* \"contract/lottery.sol\":3580:3589  3.5 ether */\n  0x30927f74c9de0000\n    /* \"contract/lottery.sol\":3280:3660  uint[] public roundPrice = [\r... */\n  0xffffffffffffffff\n  and\n  dup2\n  mstore\n  0x20\n  add\n    /* \"contract/lottery.sol\":3601:3610  5.2 ether */\n  0x482a1c7300080000\n    /* \"contract/lottery.sol\":3280:3660  uint[] public roundPrice = [\r... */\n  0xffffffffffffffff\n  and\n  dup2\n  mstore\n  0x20\n  add\n    /* \"contract/lottery.sol\":3622:3631  7.3 ether */\n  0x654ecf52ac5a0000\n    /* \"contract/lottery.sol\":3280:3660  uint[] public roundPrice = [\r... */\n  0xffffffffffffffff\n  and\n  dup2\n  mstore\n  0x20\n  add\n    /* \"contract/lottery.sol\":3643:3651  10 ether */\n  0x8ac7230489e80000\n    /* \"contract/lottery.sol\":3280:3660  uint[] public roundPrice = [\r... */\n  0xffffffffffffffff\n  and\n  dup2\n  mstore\n  pop\n  0x68\n  swap1\n  0x10\n  tag_1\n  swap3\n  swap2\n  swap1\n  tag_2\n  jump\t// in\ntag_1:\n  pop\n    /* \"contract/lottery.sol\":3706:3707  1 */\n  0x01\n    /* \"contract/lottery.sol\":3686:3696  roundPrice */\n  0x68\n    /* \"contract/lottery.sol\":3686:3703  roundPrice.length */\n  dup1\n  sload\n  swap1\n  pop\n    /* \"contract/lottery.sol\":3686:3707  roundPrice.length - 1 */\n  sub\n    /* \"contract/lottery.sol\":3667:3707  uint totalrounds = roundPrice.length - 1 */\n  0x69\n  sstore\n    /* \"contract/lottery.sol\":3731:3732  2 */\n  0x02\n    /* \"contract/lottery.sol\":3714:3732  uint newUserId = 2 */\n  0x6a\n  sstore\n    /* \"contract/lottery.sol\":3943:4791  constructor(address payable _marketing) public {\r... */\n  callvalue\n  dup1\n  iszero\n  tag_3\n  jumpi\n  0x00\n  dup1\n  revert\ntag_3:\n  pop\n  mload(0x40)\n  sub(codesize, bytecodeSize)\n  dup1\n  bytecodeSize\n  dup4\n  codecopy\n  dup2\n  dup2\n  add\n  0x40\n  mstore\n  0x20\n  dup2\n  lt\n  iszero\n  tag_4\n  jumpi\n  0x00\n  dup1\n  revert\ntag_4:\n  dup2\n  add\n  swap1\n  dup1\n  dup1\n  mload\n  swap1\n  0x20\n  add\n  swap1\n  swap3\n  swap2\n  swap1\n  pop\n  pop\n  pop\n    /* \"contract/lottery.sol\":136:137  1 */\n  0x01\n    /* \"contract/lottery.sol\":254:261  _status */\n  0x00\n    /* \"contract/lottery.sol\":254:276  _status = _NOT_ENTERED */\n  dup2\n  swap1\n  sstore\n  pop\n    /* \"contract/lottery.sol\":4017:4027  msg.sender */\n  caller\n    /* \"contract/lottery.sol\":4001:4006  owner */\n  0x66\n  0x02\n    /* \"contract/lottery.sol\":4001:4028  owner = payable(msg.sender) */\n  0x0100\n  exp\n  dup2\n  sload\n  dup2\n  0xffffffffffffffffffffffffffffffffffffffff\n  mul\n  not\n  and\n  swap1\n  dup4\n  0xffffffffffffffffffffffffffffffffffffffff\n  and\n  mul\n  or\n  swap1\n  sstore\n  pop\n    /* \"contract/lottery.sol\":4051:4061  _marketing */\n  dup1\n    /* \"contract/lottery.sol\":4039:4048  marketing */\n  0x67\n  0x00\n    /* \"contract/lottery.sol\":4039:4061  marketing = _marketing */\n  0x0100\n  exp\n  dup2\n  sload\n  dup2\n  0xffffffffffffffffffffffffffffffffffffffff\n  mul\n  not\n  and\n  swap1\n  dup4\n  0xffffffffffffffffffffffffffffffffffffffff\n  and\n  mul\n  or\n  swap1\n  sstore\n  pop\n    /* \"contract/lottery.sol\":4087:4398  User({\r... */\n  mload(0x40)\n  dup1\n  0x0120\n  add\n  0x40\n  mstore\n  dup1\n    /* \"contract/lottery.sol\":4112:4113  1 */\n  0x01\n    /* \"contract/lottery.sol\":4087:4398  User({\r... */\n  dup2\n  mstore\n  0x20\n  add\n    /* \"contract/lottery.sol\":4151:4154  now */\n  timestamp\n    /* \"contract/lottery.sol\":4087:4398  User({\r... */\n  dup2\n  mstore\n  0x20\n  add\n    /* \"contract/lottery.sol\":4188:4189  0 */\n  0x00\n    /* \"contract/lottery.sol\":4087:4398  User({\r... */\n  0xffffffffffffffffffffffffffffffffffffffff\n  and\n  dup2\n  mstore\n  0x20\n  add\n    /* \"contract/lottery.sol\":4217:4218  0 */\n  0x00\n    /* \"contract/lottery.sol\":4087:4398  User({\r... */\n  dup2\n  mstore\n  0x20\n  add\n    /* \"contract/lottery.sol\":4253:4254  0 */\n  0x00\n    /* \"contract/lottery.sol\":4087:4398  User({\r... */\n  dup2\n  mstore\n  0x20\n  add\n    /* \"contract/lottery.sol\":4287:4288  0 */\n  0x00\n    /* \"contract/lottery.sol\":4087:4398  User({\r... */\n  dup2\n  mstore\n  0x20\n  add\n    /* \"contract/lottery.sol\":4329:4330  0 */\n  0x00\n    /* \"contract/lottery.sol\":4087:4398  User({\r... */\n  dup2\n  mstore\n  0x20\n  add\n    /* \"contract/lottery.sol\":4356:4357  0 */\n  0x00\n    /* \"contract/lottery.sol\":4087:4398  User({\r... */\n  0xff\n  and\n  dup2\n  mstore\n  0x20\n  add\n    /* \"contract/lottery.sol\":4383:4384  0 */\n  0x00\n    /* \"contract/lottery.sol\":4087:4398  User({\r... */\n  dup2\n  mstore\n  pop\n    /* \"contract/lottery.sol\":4072:4077  users */\n  0x6b\n    /* \"contract/lottery.sol\":4072:4084  users[owner] */\n  0x00\n    /* \"contract/lottery.sol\":4078:4083  owner */\n  0x66\n  0x02\n  swap1\n  sload\n  swap1\n  0x0100\n  exp\n  swap1\n  div\n  0xffffffffffffffffffffffffffffffffffffffff\n  and\n    /* \"contract/lottery.sol\":4072:4084  users[owner] */\n  0xffffffffffffffffffffffffffffffffffffffff\n  and\n  0xffffffffffffffffffffffffffffffffffffffff\n  and\n  dup2\n  mstore\n  0x20\n  add\n  swap1\n  dup2\n  mstore\n  0x20\n  add\n  0x00\n  keccak256\n    /* \"contract/lottery.sol\":4072:4398  users[owner] = User({\r... */\n  0x00\n  dup3\n  add\n  mload\n  dup2\n  0x00\n  add\n  sstore\n  0x20\n  dup3\n  add\n  mload\n  dup2\n  0x01\n  add\n  sstore\n  0x40\n  dup3\n  add\n  mload\n  dup2\n  0x02\n  add\n  exp(0x0100, 0x00)\n  dup2\n  sload\n  dup2\n  0xffffffffffffffffffffffffffffffffffffffff\n  mul\n  not\n  and\n  swap1\n  dup4\n  0xffffffffffffffffffffffffffffffffffffffff\n  and\n  mul\n  or\n  swap1\n  sstore\n  pop\n  0x60\n  dup3\n  add\n  mload\n  dup2\n  0x03\n  add\n  sstore\n  0x80\n  dup3\n  add\n  mload\n  dup2\n  0x04\n  add\n  sstore\n  0xa0\n  dup3\n  add\n  mload\n  dup2\n  0x05\n  add\n  sstore\n  0xc0\n  dup3\n  add\n  mload\n  dup2\n  0x06\n  add\n  sstore\n  0xe0\n  dup3\n  add\n  mload\n  dup2\n  0x08\n  add\n  exp(0x0100, 0x00)\n  dup2\n  sload\n  dup2\n  0xff\n  mul\n  not\n  and\n  swap1\n  dup4\n  0xff\n  and\n  mul\n  or\n  swap1\n  sstore\n  pop\n  0x0100\n  dup3\n  add\n  mload\n  dup2\n  0x09\n  add\n  sstore\n  swap1\n  pop\n  pop\n    /* \"contract/lottery.sol\":4431:4436  owner */\n  0x66\n  0x02\n  swap1\n  sload\n  swap1\n  0x0100\n  exp\n  swap1\n  div\n  0xffffffffffffffffffffffffffffffffffffffff\n  and\n    /* \"contract/lottery.sol\":4409:4425  usersAddressById */\n  0x6c\n    /* \"contract/lottery.sol\":4409:4428  usersAddressById[1] */\n  0x00\n    /* \"contract/lottery.sol\":4426:4427  1 */\n  0x01\n    /* \"contract/lottery.sol\":4409:4428  usersAddressById[1] */\n  dup2\n  mstore\n  0x20\n  add\n  swap1\n  dup2\n  mstore\n  0x20\n  add\n  0x00\n  keccak256\n  0x00\n    /* \"contract/lottery.sol\":4409:4436  usersAddressById[1] = owner */\n  0x0100\n  exp\n  dup2\n  sload\n  dup2\n  0xffffffffffffffffffffffffffffffffffffffff\n  mul\n  not\n  and\n  swap1\n  dup4\n  0xffffffffffffffffffffffffffffffffffffffff\n  and\n  mul\n  or\n  swap1\n  sstore\n  pop\n    /* \"contract/lottery.sol\":4447:4457  globalStat */\n  0x6f\n    /* \"contract/lottery.sol\":4447:4465  globalStat.members */\n  0x00\n  add\n  0x00\n    /* \"contract/lottery.sol\":4447:4467  globalStat.members++ */\n  dup2\n  sload\n  dup1\n  swap3\n  swap2\n  swap1\n  0x01\n  add\n  swap2\n  swap1\n  pop\n  sstore\n  pop\n    /* \"contract/lottery.sol\":4478:4488  globalStat */\n  0x6f\n    /* \"contract/lottery.sol\":4478:4501  globalStat.transactions */\n  0x01\n  add\n  0x00\n    /* \"contract/lottery.sol\":4478:4503  globalStat.transactions++ */\n  dup2\n  sload\n  dup1\n  swap3\n  swap2\n  swap1\n  0x01\n  add\n  swap2\n  swap1\n  pop\n  sstore\n  pop\n    /* \"contract/lottery.sol\":4518:4529  uint8 round */\n  0x00\n    /* \"contract/lottery.sol\":4532:4533  1 */\n  0x01\n    /* \"contract/lottery.sol\":4518:4533  uint8 round = 1 */\n  swap1\n  pop\n    /* \"contract/lottery.sol\":4514:4784  for(uint8 round = 1; round <= totalrounds; round++) {\r... */\ntag_9:\n    /* \"contract/lottery.sol\":4544:4555  totalrounds */\n  sload(0x69)\n    /* \"contract/lottery.sol\":4535:4540  round */\n  dup2\n    /* \"contract/lottery.sol\":4535:4555  round <= totalrounds */\n  0xff\n  and\n  gt\n    /* \"contract/lottery.sol\":4514:4784  for(uint8 round = 1; round <= totalrounds; round++) {\r... */\n  tag_10\n  jumpi\n    /* \"contract/lottery.sol\":4610:4616  864000 */\n  0x0d2f00\n    /* \"contract/lottery.sol\":4604:4607  now */\n  timestamp\n    /* \"contract/lottery.sol\":4604:4616  now + 864000 */\n  add\n    /* \"contract/lottery.sol\":4582:4594  timeRoudsEnd */\n  0x45\n    /* \"contract/lottery.sol\":4595:4600  round */\n  dup3\n    /* \"contract/lottery.sol\":4582:4601  timeRoudsEnd[round] */\n  0xff\n  and\n  0x10\n  dup2\n  lt\n  tag_12\n  jumpi\n  invalid\ntag_12:\n  add\n    /* \"contract/lottery.sol\":4582:4616  timeRoudsEnd[round] = now + 864000 */\n  dup2\n  swap1\n  sstore\n  pop\n    /* \"contract/lottery.sol\":4667:4671  true */\n  0x01\n    /* \"contract/lottery.sol\":4631:4636  users */\n  0x6b\n    /* \"contract/lottery.sol\":4631:4643  users[owner] */\n  0x00\n    /* \"contract/lottery.sol\":4637:4642  owner */\n  0x66\n  0x02\n  swap1\n  sload\n  swap1\n  0x0100\n  exp\n  swap1\n  div\n  0xffffffffffffffffffffffffffffffffffffffff\n  and\n    /* \"contract/lottery.sol\":4631:4643  users[owner] */\n  0xffffffffffffffffffffffffffffffffffffffff\n  and\n  0xffffffffffffffffffffffffffffffffffffffff\n  and\n  dup2\n  mstore\n  0x20\n  add\n  swap1\n  dup2\n  mstore\n  0x20\n  add\n  0x00\n  keccak256\n    /* \"contract/lottery.sol\":4631:4650  users[owner].rounds */\n  0x07\n  add\n    /* \"contract/lottery.sol\":4631:4657  users[owner].rounds[round] */\n  0x00\n    /* \"contract/lottery.sol\":4651:4656  round */\n  dup4\n    /* \"contract/lottery.sol\":4631:4657  users[owner].rounds[round] */\n  0xff\n  and\n  0xff\n  and\n  dup2\n  mstore\n  0x20\n  add\n  swap1\n  dup2\n  mstore\n  0x20\n  add\n  0x00\n  keccak256\n    /* \"contract/lottery.sol\":4631:4664  users[owner].rounds[round].active */\n  0x00\n  add\n  0x06\n    /* \"contract/lottery.sol\":4631:4671  users[owner].rounds[round].active = true */\n  0x0100\n  exp\n  dup2\n  sload\n  dup2\n  0xff\n  mul\n  not\n  and\n  swap1\n  dup4\n  iszero\n  iszero\n  mul\n  or\n  swap1\n  sstore\n  pop\n    /* \"contract/lottery.sol\":4726:4728  15 */\n  0x0f\n    /* \"contract/lottery.sol\":4686:4691  users */\n  0x6b\n    /* \"contract/lottery.sol\":4686:4698  users[owner] */\n  0x00\n    /* \"contract/lottery.sol\":4692:4697  owner */\n  0x66\n  0x02\n  swap1\n  sload\n  swap1\n  0x0100\n  exp\n  swap1\n  div\n  0xffffffffffffffffffffffffffffffffffffffff\n  and\n    /* \"contract/lottery.sol\":4686:4698  users[owner] */\n  0xffffffffffffffffffffffffffffffffffffffff\n  and\n  0xffffffffffffffffffffffffffffffffffffffff\n  and\n  dup2\n  mstore\n  0x20\n  add\n  swap1\n  dup2\n  mstore\n  0x20\n  add\n  0x00\n  keccak256\n    /* \"contract/lottery.sol\":4686:4705  users[owner].rounds */\n  0x07\n  add\n    /* \"contract/lottery.sol\":4686:4712  users[owner].rounds[round] */\n  0x00\n    /* \"contract/lottery.sol\":4706:4711  round */\n  dup4\n    /* \"contract/lottery.sol\":4686:4712  users[owner].rounds[round] */\n  0xff\n  and\n  0xff\n  and\n  dup2\n  mstore\n  0x20\n  add\n  swap1\n  dup2\n  mstore\n  0x20\n  add\n  0x00\n  keccak256\n    /* \"contract/lottery.sol\":4686:4723  users[owner].rounds[round].maxPayouts */\n  0x00\n  add\n  0x02\n    /* \"contract/lottery.sol\":4686:4728  users[owner].rounds[round].maxPayouts = 15 */\n  0x0100\n  exp\n  dup2\n  sload\n  dup2\n  0xffff\n  mul\n  not\n  and\n  swap1\n  dup4\n  0xffff\n  and\n  mul\n  or\n  swap1\n  sstore\n  pop\n    /* \"contract/lottery.sol\":4743:4753  roundQueue */\n  0x6d\n    /* \"contract/lottery.sol\":4743:4760  roundQueue[round] */\n  0x00\n    /* \"contract/lottery.sol\":4754:4759  round */\n  dup3\n    /* \"contract/lottery.sol\":4743:4760  roundQueue[round] */\n  0xff\n  and\n  0xff\n  and\n  dup2\n  mstore\n  0x20\n  add\n  swap1\n  dup2\n  mstore\n  0x20\n  add\n  0x00\n  keccak256\n    /* \"contract/lottery.sol\":4766:4771  owner */\n  0x66\n  0x02\n  swap1\n  sload\n  swap1\n  0x0100\n  exp\n  swap1\n  div\n  0xffffffffffffffffffffffffffffffffffffffff\n  and\n    /* \"contract/lottery.sol\":4743:4772  roundQueue[round].push(owner) */\n  swap1\n  dup1\n  0x01\n  dup2\n  sload\n  add\n  dup1\n  dup3\n  sstore\n  dup1\n  swap2\n  pop\n  pop\n  0x01\n  swap1\n  sub\n  swap1\n  0x00\n  mstore\n  keccak256(0x00, 0x20)\n  add\n  0x00\n  swap1\n  swap2\n  swap1\n  swap2\n  swap1\n  swap2\n  0x0100\n  exp\n  dup2\n  sload\n  dup2\n  0xffffffffffffffffffffffffffffffffffffffff\n  mul\n  not\n  and\n  swap1\n  dup4\n  0xffffffffffffffffffffffffffffffffffffffff\n  and\n  mul\n  or\n  swap1\n  sstore\n  pop\n    /* \"contract/lottery.sol\":4557:4564  round++ */\n  dup1\n  dup1\n  0x01\n  add\n  swap2\n  pop\n  pop\n    /* \"contract/lottery.sol\":4514:4784  for(uint8 round = 1; round <= totalrounds; round++) {\r... */\n  jump(tag_9)\ntag_10:\n  pop\n    /* \"contract/lottery.sol\":3943:4791  constructor(address payable _marketing) public {\r... */\n  pop\n    /* \"contract/lottery.sol\":479:19377  contract LotteryWCA is ReentrancyGuard {\r... */\n  jump(tag_15)\ntag_2:\n  dup3\n  dup1\n  sload\n  dup3\n  dup3\n  sstore\n  swap1\n  0x00\n  mstore\n  keccak256(0x00, 0x20)\n  swap1\n  dup2\n  add\n  swap3\n  dup3\n  iszero\n  tag_16\n  jumpi\n  swap2\n  0x20\n  mul\n  dup3\n  add\ntag_17:\n  dup3\n  dup2\n  gt\n  iszero\n  tag_18\n  jumpi\n  dup3\n  mload\n  dup3\n  swap1\n  0xffffffffffffffff\n  and\n  swap1\n  sstore\n  swap2\n  0x20\n  add\n  swap2\n  swap1\n  0x01\n  add\n  swap1\n  jump(tag_17)\ntag_18:\ntag_16:\n  pop\n  swap1\n  pop\n  tag_19\n  swap2\n  swap1\n  tag_20\n  jump\t// in\ntag_19:\n  pop\n  swap1\n  jump\t// out\ntag_20:\ntag_21:\n  dup1\n  dup3\n  gt\n  iszero\n  tag_22\n  jumpi\n  0x00\n  dup2\n  0x00\n  swap1\n  sstore\n  pop\n  0x01\n  add\n  jump(tag_21)\ntag_22:\n  pop\n  swap1\n  jump\t// out\ntag_15:\n  dataSize(sub_0)\n  dup1\n  dataOffset(sub_0)\n  0x00\n  codecopy\n  0x00\n  return\nstop\n\nsub_0: assembly {\n        /* \"contract/lottery.sol\":479:19377  contract LotteryWCA is ReentrancyGuard {\r... */\n      mstore(0x40, 0x80)\n      jumpi(tag_1, lt(calldatasize, 0x04))\n      shr(0xe0, calldataload(0x00))\n      dup1\n      0x693864f3\n      gt\n      tag_44\n      jumpi\n      dup1\n      0xa7345f56\n      gt\n      tag_45\n      jumpi\n      dup1\n      0xbfe24893\n      gt\n      tag_46\n      jumpi\n      dup1\n      0xbfe24893\n      eq\n      tag_38\n      jumpi\n      dup1\n      0xc34f6b0d\n      eq\n      tag_39\n      jumpi\n      dup1\n      0xc8e161a1\n      eq\n      tag_40\n      jumpi\n      dup1\n      0xcfce5044\n      eq\n      tag_41\n      jumpi\n      dup1\n      0xeca2c026\n      eq\n      tag_42\n      jumpi\n      dup1\n      0xf21efb5b\n      eq\n      tag_43\n      jumpi\n      jump(tag_2)\n    tag_46:\n      dup1\n      0xa7345f56\n      eq\n      tag_33\n      jumpi\n      dup1\n      0xa87430ba\n      eq\n      tag_34\n      jumpi\n      dup1\n      0xa9a9cfe0\n      eq\n      tag_35\n      jumpi\n      dup1\n      0xb3791e7f\n      eq\n      tag_36\n      jumpi\n      dup1\n      0xbd4b77ee\n      eq\n      tag_37\n      jumpi\n      jump(tag_2)\n    tag_45:\n      dup1\n      0x8a03ad86\n      gt\n      tag_47\n      jumpi\n      dup1\n      0x8a03ad86\n      eq\n      tag_28\n      jumpi\n      dup1\n      0x8c4636c1\n      eq\n      tag_29\n      jumpi\n      dup1\n      0x8da5cb5b\n      eq\n      tag_30\n      jumpi\n      dup1\n      0x950fabf3\n      eq\n      tag_31\n      jumpi\n      dup1\n      0x968763a0\n      eq\n      tag_32\n      jumpi\n      jump(tag_2)\n    tag_47:\n      dup1\n      0x693864f3\n      eq\n      tag_23\n      jumpi\n      dup1\n      0x6f77926b\n      eq\n      tag_24\n      jumpi\n      dup1\n      0x6f9fb98a\n      eq\n      tag_25\n      jumpi\n      dup1\n      0x7ccd94da\n      eq\n      tag_26\n      jumpi\n      dup1\n      0x88b45046\n      eq\n      tag_27\n      jumpi\n      jump(tag_2)\n    tag_44:\n      dup1\n      0x2d3e474a\n      gt\n      tag_48\n      jumpi\n      dup1\n      0x4cdbe908\n      gt\n      tag_49\n      jumpi\n      dup1\n      0x4cdbe908\n      eq\n      tag_18\n      jumpi\n      dup1\n      0x5a8a14d0\n      eq\n      tag_19\n      jumpi\n      dup1\n      0x5c279ff9\n      eq\n      tag_20\n      jumpi\n      dup1\n      0x5ce974b9\n      eq\n      tag_21\n      jumpi\n      dup1\n      0x5d7b1cc9\n      eq\n      tag_22\n      jumpi\n      jump(tag_2)\n    tag_49:\n      dup1\n      0x2d3e474a\n      eq\n      tag_13\n      jumpi\n      dup1\n      0x3336b63e\n      eq\n      tag_14\n      jumpi\n      dup1\n      0x375e3b55\n      eq\n      tag_15\n      jumpi\n      dup1\n      0x385399f9\n      eq\n      tag_16\n      jumpi\n      dup1\n      0x4a9fefc7\n      eq\n      tag_17\n      jumpi\n      jump(tag_2)\n    tag_48:\n      dup1\n      0x21658658\n      gt\n      tag_50\n      jumpi\n      dup1\n      0x21658658\n      eq\n      tag_8\n      jumpi\n      dup1\n      0x230f7f82\n      eq\n      tag_9\n      jumpi\n      dup1\n      0x26efd443\n      eq\n      tag_10\n      jumpi\n      dup1\n      0x2a2c908e\n      eq\n      tag_11\n      jumpi\n      dup1\n      0x2cc8da43\n      eq\n      tag_12\n      jumpi\n      jump(tag_2)\n    tag_50:\n      dup1\n      0x01b91a17\n      eq\n      tag_3\n      jumpi\n      dup1\n      0x16279055\n      eq\n      tag_4\n      jumpi\n      dup1\n      0x163f7522\n      eq\n      tag_5\n      jumpi\n      dup1\n      0x1aa3a008\n      eq\n      tag_6\n      jumpi\n      dup1\n      0x1dfd8fe0\n      eq\n      tag_7\n      jumpi\n      jump(tag_2)\n    tag_1:\n      jumpi(tag_2, calldatasize)\n        /* \"contract/lottery.sol\":5033:5044  uint8 round */\n      0x00\n        /* \"contract/lottery.sol\":5047:5048  1 */\n      0x01\n        /* \"contract/lottery.sol\":5033:5048  uint8 round = 1 */\n      swap1\n      pop\n        /* \"contract/lottery.sol\":5029:5335  for(uint8 round = 1; round <= totalrounds; round++) {\r... */\n    tag_53:\n        /* \"contract/lottery.sol\":5059:5070  totalrounds */\n      sload(0x69)\n        /* \"contract/lottery.sol\":5050:5055  round */\n      dup2\n        /* \"contract/lottery.sol\":5050:5070  round <= totalrounds */\n      0xff\n      and\n      gt\n        /* \"contract/lottery.sol\":5029:5335  for(uint8 round = 1; round <= totalrounds; round++) {\r... */\n      tag_54\n      jumpi\n        /* \"contract/lottery.sol\":5121:5130  msg.value */\n      callvalue\n        /* \"contract/lottery.sol\":5100:5110  roundPrice */\n      0x68\n        /* \"contract/lottery.sol\":5111:5116  round */\n      dup3\n        /* \"contract/lottery.sol\":5100:5117  roundPrice[round] */\n      0xff\n      and\n      dup2\n      sload\n      dup2\n      lt\n      tag_56\n      jumpi\n      invalid\n    tag_56:\n      swap1\n      0x00\n      mstore\n      keccak256(0x00, 0x20)\n      add\n      sload\n        /* \"contract/lottery.sol\":5100:5130  roundPrice[round] == msg.value */\n      eq\n        /* \"contract/lottery.sol\":5096:5324  if (roundPrice[round] == msg.value) {\r... */\n      iszero\n      tag_58\n      jumpi\n        /* \"contract/lottery.sol\":5163:5164  1 */\n      0x01\n        /* \"contract/lottery.sol\":5154:5159  round */\n      dup2\n        /* \"contract/lottery.sol\":5154:5164  round == 1 */\n      0xff\n      and\n      eq\n        /* \"contract/lottery.sol\":5154:5197  round == 1 && !isUserRegistered(msg.sender) */\n      dup1\n      iszero\n      tag_59\n      jumpi\n      pop\n        /* \"contract/lottery.sol\":5169:5197  isUserRegistered(msg.sender) */\n      tag_60\n        /* \"contract/lottery.sol\":5186:5196  msg.sender */\n      caller\n        /* \"contract/lottery.sol\":5169:5185  isUserRegistered */\n      tag_61\n        /* \"contract/lottery.sol\":5169:5197  isUserRegistered(msg.sender) */\n      jump\t// in\n    tag_60:\n        /* \"contract/lottery.sol\":5168:5197  !isUserRegistered(msg.sender) */\n      iszero\n        /* \"contract/lottery.sol\":5154:5197  round == 1 && !isUserRegistered(msg.sender) */\n    tag_59:\n        /* \"contract/lottery.sol\":5151:5250  if(round == 1 && !isUserRegistered(msg.sender)){\r... */\n      iszero\n      tag_62\n      jumpi\n        /* \"contract/lottery.sol\":5220:5230  register() */\n      tag_63\n        /* \"contract/lottery.sol\":5220:5228  register */\n      tag_64\n        /* \"contract/lottery.sol\":5220:5230  register() */\n      jump\t// in\n    tag_63:\n        /* \"contract/lottery.sol\":5151:5250  if(round == 1 && !isUserRegistered(msg.sender)){\r... */\n    tag_62:\n        /* \"contract/lottery.sol\":5268:5283  buyround(round) */\n      tag_65\n        /* \"contract/lottery.sol\":5277:5282  round */\n      dup2\n        /* \"contract/lottery.sol\":5268:5276  buyround */\n      tag_66\n        /* \"contract/lottery.sol\":5268:5283  buyround(round) */\n      jump\t// in\n    tag_65:\n        /* \"contract/lottery.sol\":5302:5309  return; */\n      pop\n      jump(tag_52)\n        /* \"contract/lottery.sol\":5096:5324  if (roundPrice[round] == msg.value) {\r... */\n    tag_58:\n        /* \"contract/lottery.sol\":5072:5079  round++ */\n      dup1\n      dup1\n      0x01\n      add\n      swap2\n      pop\n      pop\n        /* \"contract/lottery.sol\":5029:5335  for(uint8 round = 1; round <= totalrounds; round++) {\r... */\n      jump(tag_53)\n    tag_54:\n      pop\n        /* \"contract/lottery.sol\":5347:5410  revert(\"Can't find round to buy. Maybe sent value is invalid.\") */\n      mload(0x40)\n      0x08c379a000000000000000000000000000000000000000000000000000000000\n      dup2\n      mstore\n      0x04\n      add\n      dup1\n      dup1\n      0x20\n      add\n      dup3\n      dup2\n      sub\n      dup3\n      mstore\n      0x35\n      dup2\n      mstore\n      0x20\n      add\n      dup1\n      data_b6be230979c9056288d8dc9ecf24c47d930143c98ecebf6ab7c712e8601758a8\n      0x35\n      swap2\n      codecopy\n      0x40\n      add\n      swap2\n      pop\n      pop\n      mload(0x40)\n      dup1\n      swap2\n      sub\n      swap1\n      revert\n        /* \"contract/lottery.sol\":4991:5418  receive() external payable {\r... */\n    tag_52:\n        /* \"contract/lottery.sol\":479:19377  contract LotteryWCA is ReentrancyGuard {\r... */\n      stop\n    tag_2:\n      0x00\n      dup1\n      revert\n        /* \"contract/lottery.sol\":17009:17106  function getroundPrices() public view returns(uint[] memory) {\r... */\n    tag_3:\n      callvalue\n      dup1\n      iszero\n      tag_67\n      jumpi\n      0x00\n      dup1\n      revert\n    tag_67:\n      pop\n      tag_68\n      tag_69\n      jump\t// in\n    tag_68:\n      mload(0x40)\n      dup1\n      dup1\n      0x20\n      add\n      dup3\n      dup2\n      sub\n      dup3\n      mstore\n      dup4\n      dup2\n      dup2\n      mload\n      dup2\n      mstore\n      0x20\n      add\n      swap2\n      pop\n      dup1\n      mload\n      swap1\n      0x20\n      add\n      swap1\n      0x20\n      mul\n      dup1\n      dup4\n      dup4\n      0x00\n    tag_70:\n      dup4\n      dup2\n      lt\n      iszero\n      tag_72\n      jumpi\n      dup1\n      dup3\n      add\n      mload\n      dup2\n      dup5\n      add\n      mstore\n      0x20\n      dup2\n      add\n      swap1\n      pop\n      jump(tag_70)\n    tag_72:\n      pop\n      pop\n      pop\n      pop\n      swap1\n      pop\n      add\n      swap3\n      pop\n      pop\n      pop\n      mload(0x40)\n      dup1\n      swap2\n      sub\n      swap1\n      return\n        /* \"contract/lottery.sol\":4797:4985  function isContract(address addr) public view returns (bool) {\r... */\n    tag_4:\n      callvalue\n      dup1\n      iszero\n      tag_73\n      jumpi\n      0x00\n      dup1\n      revert\n    tag_73:\n      pop\n      tag_74\n      0x04\n      dup1\n      calldatasize\n      sub\n      0x20\n      dup2\n      lt\n      iszero\n      tag_75\n      jumpi\n      0x00\n      dup1\n      revert\n    tag_75:\n      dup2\n      add\n      swap1\n      dup1\n      dup1\n      calldataload\n      0xffffffffffffffffffffffffffffffffffffffff\n      and\n      swap1\n      0x20\n      add\n      swap1\n      swap3\n      swap2\n      swap1\n      pop\n      pop\n      pop\n      tag_76\n      jump\t// in\n    tag_74:\n      mload(0x40)\n      dup1\n      dup3\n      iszero\n      iszero\n      dup2\n      mstore\n      0x20\n      add\n      swap2\n      pop\n      pop\n      mload(0x40)\n      dup1\n      swap2\n      sub\n      swap1\n      return\n        /* \"contract/lottery.sol\":17742:17854  function isUserRegistered(address addr) public view returns (bool) {\r... */\n    tag_5:\n      callvalue\n      dup1\n      iszero\n      tag_77\n      jumpi\n      0x00\n      dup1\n      revert\n    tag_77:\n      pop\n      tag_78\n      0x04\n      dup1\n      calldatasize\n      sub\n      0x20\n      dup2\n      lt\n      iszero\n      tag_79\n      jumpi\n      0x00\n      dup1\n      revert\n    tag_79:\n      dup2\n      add\n      swap1\n      dup1\n      dup1\n      calldataload\n      0xffffffffffffffffffffffffffffffffffffffff\n      and\n      swap1\n      0x20\n      add\n      swap1\n      swap3\n      swap2\n      swap1\n      pop\n      pop\n      pop\n      tag_61\n      jump\t// in\n    tag_78:\n      mload(0x40)\n      dup1\n      dup3\n      iszero\n      iszero\n      dup2\n      mstore\n      0x20\n      add\n      swap2\n      pop\n      pop\n      mload(0x40)\n      dup1\n      swap2\n      sub\n      swap1\n      return\n        /* \"contract/lottery.sol\":5557:5638  function register() public payable {\r... */\n    tag_6:\n      tag_80\n      tag_64\n      jump\t// in\n    tag_80:\n      stop\n        /* \"contract/lottery.sol\":525:555  address[50] public  todayWiner */\n    tag_7:\n      callvalue\n      dup1\n      iszero\n      tag_81\n      jumpi\n      0x00\n      dup1\n      revert\n    tag_81:\n      pop\n      tag_82\n      0x04\n      dup1\n      calldatasize\n      sub\n      0x20\n      dup2\n      lt\n      iszero\n      tag_83\n      jumpi\n      0x00\n      dup1\n      revert\n    tag_83:\n      dup2\n      add\n      swap1\n      dup1\n      dup1\n      calldataload\n      swap1\n      0x20\n      add\n      swap1\n      swap3\n      swap2\n      swap1\n      pop\n      pop\n      pop\n      tag_84\n      jump\t// in\n    tag_82:\n      mload(0x40)\n      dup1\n      dup3\n      0xffffffffffffffffffffffffffffffffffffffff\n      and\n      dup2\n      mstore\n      0x20\n      add\n      swap2\n      pop\n      pop\n      mload(0x40)\n      dup1\n      swap2\n      sub\n      swap1\n      return\n        /* \"contract/lottery.sol\":2903:2951  uint public constant registrationPrice = 0 ether */\n    tag_8:\n      callvalue\n      dup1\n      iszero\n      tag_85\n      jumpi\n      0x00\n      dup1\n      revert\n    tag_85:\n      pop\n      tag_86\n      tag_87\n      jump\t// in\n    tag_86:\n      mload(0x40)\n      dup1\n      dup3\n      dup2\n      mstore\n      0x20\n      add\n      swap2\n      pop\n      pop\n      mload(0x40)\n      dup1\n      swap2\n      sub\n      swap1\n      return\n        /* \"contract/lottery.sol\":15783:17003  function getUserrounds(address userAddress) public view returns (bool[] memory, uint16[] memory, uint16[] memory, uint16[] memory, uint[] memory, uint[] memory) {\r... */\n    tag_9:\n      callvalue\n      dup1\n      iszero\n      tag_88\n      jumpi\n      0x00\n      dup1\n      revert\n    tag_88:\n      pop\n      tag_89\n      0x04\n      dup1\n      calldatasize\n      sub\n      0x20\n      dup2\n      lt\n      iszero\n      tag_90\n      jumpi\n      0x00\n      dup1\n      revert\n    tag_90:\n      dup2\n      add\n      swap1\n      dup1\n      dup1\n      calldataload\n      0xffffffffffffffffffffffffffffffffffffffff\n      and\n      swap1\n      0x20\n      add\n      swap1\n      swap3\n      swap2\n      swap1\n      pop\n      pop\n      pop\n      tag_91\n      jump\t// in\n    tag_89:\n      mload(0x40)\n      dup1\n      dup1\n      0x20\n      add\n      dup1\n      0x20\n      add\n      dup1\n      0x20\n      add\n      dup1\n      0x20\n      add\n      dup1\n      0x20\n      add\n      dup1\n      0x20\n      add\n      dup8\n      dup2\n      sub\n      dup8\n      mstore\n      dup14\n      dup2\n      dup2\n      mload\n      dup2\n      mstore\n      0x20\n      add\n      swap2\n      pop\n      dup1\n      mload\n      swap1\n      0x20\n      add\n      swap1\n      0x20\n      mul\n      dup1\n      dup4\n      dup4\n      0x00\n    tag_92:\n      dup4\n      dup2\n      lt\n      iszero\n      tag_94\n      jumpi\n      dup1\n      dup3\n      add\n      mload\n      dup2\n      dup5\n      add\n      mstore\n      0x20\n      dup2\n      add\n      swap1\n      pop\n      jump(tag_92)\n    tag_94:\n      pop\n      pop\n      pop\n      pop\n      swap1\n      pop\n      add\n      dup8\n      dup2\n      sub\n      dup7\n      mstore\n      dup13\n      dup2\n      dup2\n      mload\n      dup2\n      mstore\n      0x20\n      add\n      swap2\n      pop\n      dup1\n      mload\n      swap1\n      0x20\n      add\n      swap1\n      0x20\n      mul\n      dup1\n      dup4\n      dup4\n      0x00\n    tag_95:\n      dup4\n      dup2\n      lt\n      iszero\n      tag_97\n      jumpi\n      dup1\n      dup3\n      add\n      mload\n      dup2\n      dup5\n      add\n      mstore\n      0x20\n      dup2\n      add\n      swap1\n      pop\n      jump(tag_95)\n    tag_97:\n      pop\n      pop\n      pop\n      pop\n      swap1\n      pop\n      add\n      dup8\n      dup2\n      sub\n      dup6\n      mstore\n      dup12\n      dup2\n      dup2\n      mload\n      dup2\n      mstore\n      0x20\n      add\n      swap2\n      pop\n      dup1\n      mload\n      swap1\n      0x20\n      add\n      swap1\n      0x20\n      mul\n      dup1\n      dup4\n      dup4\n      0x00\n    tag_98:\n      dup4\n      dup2\n      lt\n      iszero\n      tag_100\n      jumpi\n      dup1\n      dup3\n      add\n      mload\n      dup2\n      dup5\n      add\n      mstore\n      0x20\n      dup2\n      add\n      swap1\n      pop\n      jump(tag_98)\n    tag_100:\n      pop\n      pop\n      pop\n      pop\n      swap1\n      pop\n      add\n      dup8\n      dup2\n      sub\n      dup5\n      mstore\n      dup11\n      dup2\n      dup2\n      mload\n      dup2\n      mstore\n      0x20\n      add\n      swap2\n      pop\n      dup1\n      mload\n      swap1\n      0x20\n      add\n      swap1\n      0x20\n      mul\n      dup1\n      dup4\n      dup4\n      0x00\n    tag_101:\n      dup4\n      dup2\n      lt\n      iszero\n      tag_103\n      jumpi\n      dup1\n      dup3\n      add\n      mload\n      dup2\n      dup5\n      add\n      mstore\n      0x20\n      dup2\n      add\n      swap1\n      pop\n      jump(tag_101)\n    tag_103:\n      pop\n      pop\n      pop\n      pop\n      swap1\n      pop\n      add\n      dup8\n      dup2\n      sub\n      dup4\n      mstore\n      dup10\n      dup2\n      dup2\n      mload\n      dup2\n      mstore\n      0x20\n      add\n      swap2\n      pop\n      dup1\n      mload\n      swap1\n      0x20\n      add\n      swap1\n      0x20\n      mul\n      dup1\n      dup4\n      dup4\n      0x00\n    tag_104:\n      dup4\n      dup2\n      lt\n      iszero\n      tag_106\n      jumpi\n      dup1\n      dup3\n      add\n      mload\n      dup2\n      dup5\n      add\n      mstore\n      0x20\n      dup2\n      add\n      swap1\n      pop\n      jump(tag_104)\n    tag_106:\n      pop\n      pop\n      pop\n      pop\n      swap1\n      pop\n      add\n      dup8\n      dup2\n      sub\n      dup3\n      mstore\n      dup9\n      dup2\n      dup2\n      mload\n      dup2\n      mstore\n      0x20\n      add\n      swap2\n      pop\n      dup1\n      mload\n      swap1\n      0x20\n      add\n      swap1\n      0x20\n      mul\n      dup1\n      dup4\n      dup4\n      0x00\n    tag_107:\n      dup4\n      dup2\n      lt\n      iszero\n      tag_109\n      jumpi\n      dup1\n      dup3\n      add\n      mload\n      dup2\n      dup5\n      add\n      mstore\n      0x20\n      dup2\n      add\n      swap1\n      pop\n      jump(tag_107)\n    tag_109:\n      pop\n      pop\n      pop\n      pop\n      swap1\n      pop\n      add\n      swap13\n      pop\n      pop\n      pop\n      pop\n      pop\n      pop\n      pop\n      pop\n      pop\n      pop\n      pop\n      pop\n      pop\n      mload(0x40)\n      dup1\n      swap2\n      sub\n      swap1\n      return\n        /* \"contract/lottery.sol\":697:735  address[16] public nextWinerSecretGame */\n    tag_10:\n      callvalue\n      dup1\n      iszero\n      tag_110\n      jumpi\n      0x00\n      dup1\n      revert\n    tag_110:\n      pop\n      tag_111\n      0x04\n      dup1\n      calldatasize\n      sub\n      0x20\n      dup2\n      lt\n      iszero\n      tag_112\n      jumpi\n      0x00\n      dup1\n      revert\n    tag_112:\n      dup2\n      add\n      swap1\n      dup1\n      dup1\n      calldataload\n      swap1\n      0x20\n      add\n      swap1\n      swap3\n      swap2\n      swap1\n      pop\n      pop\n      pop\n      tag_113\n      jump\t// in\n    tag_111:\n      mload(0x40)\n      dup1\n      dup3\n      0xffffffffffffffffffffffffffffffffffffffff\n      and\n      dup2\n      mstore\n      0x20\n      add\n      swap2\n      pop\n      pop\n      mload(0x40)\n      dup1\n      swap2\n      sub\n      swap1\n      return\n        /* \"contract/lottery.sol\":17431:17626  function getGlobalStatistic() public view returns(uint[5] memory result) {\r... */\n    tag_11:\n      callvalue\n      dup1\n      iszero\n      tag_114\n      jumpi\n      0x00\n      dup1\n      revert\n    tag_114:\n      pop\n      tag_115\n      tag_116\n      jump\t// in\n    tag_115:\n      mload(0x40)\n      dup1\n      dup3\n      mul(0x20, 0x05)\n      dup1\n      dup4\n      dup4\n      0x00\n    tag_117:\n      dup4\n      dup2\n      lt\n      iszero\n      tag_119\n      jumpi\n      dup1\n      dup3\n      add\n      mload\n      dup2\n      dup5\n      add\n      mstore\n      0x20\n      dup2\n      add\n      swap1\n      pop\n      jump(tag_117)\n    tag_119:\n      pop\n      pop\n      pop\n      pop\n      swap1\n      pop\n      add\n      swap2\n      pop\n      pop\n      mload(0x40)\n      dup1\n      swap2\n      sub\n      swap1\n      return\n        /* \"contract/lottery.sol\":2958:2997  uint8 public constant rewardPayouts = 2 */\n    tag_12:\n      callvalue\n      dup1\n      iszero\n      tag_120\n      jumpi\n      0x00\n      dup1\n      revert\n    tag_120:\n      pop\n      tag_121\n      tag_122\n      jump\t// in\n    tag_121:\n      mload(0x40)\n      dup1\n      dup3\n      0xff\n      and\n      dup2\n      mstore\n      0x20\n      add\n      swap2\n      pop\n      pop\n      mload(0x40)\n      dup1\n      swap2\n      sub\n      swap1\n      return\n        /* \"contract/lottery.sol\":3241:3273  address payable public marketing */\n    tag_13:\n      callvalue\n      dup1\n      iszero\n      tag_123\n      jumpi\n      0x00\n      dup1\n      revert\n    tag_123:\n      pop\n      tag_124\n      tag_125\n      jump\t// in\n    tag_124:\n      mload(0x40)\n      dup1\n      dup3\n      0xffffffffffffffffffffffffffffffffffffffff\n      and\n      dup2\n      mstore\n      0x20\n      add\n      swap2\n      pop\n      pop\n      mload(0x40)\n      dup1\n      swap2\n      sub\n      swap1\n      return\n        /* \"contract/lottery.sol\":17213:17315  function gettimeRoundEnd() public view returns(uint[16] memory) {\r... */\n    tag_14:\n      callvalue\n      dup1\n      iszero\n      tag_126\n      jumpi\n      0x00\n      dup1\n      revert\n    tag_126:\n      pop\n      tag_127\n      tag_128\n      jump\t// in\n    tag_127:\n      mload(0x40)\n      dup1\n      dup3\n      mul(0x20, 0x10)\n      dup1\n      dup4\n      dup4\n      0x00\n    tag_129:\n      dup4\n      dup2\n      lt\n      iszero\n      tag_131\n      jumpi\n      dup1\n      dup3\n      add\n      mload\n      dup2\n      dup5\n      add\n      mstore\n      0x20\n      dup2\n      add\n      swap1\n      pop\n      jump(tag_129)\n    tag_131:\n      pop\n      pop\n      pop\n      pop\n      swap1\n      pop\n      add\n      swap2\n      pop\n      pop\n      mload(0x40)\n      dup1\n      swap2\n      sub\n      swap1\n      return\n        /* \"contract/lottery.sol\":19086:19374  function calcSecretPrize(uint8 round) public view returns(uint value) {\r... */\n    tag_15:\n      callvalue\n      dup1\n      iszero\n      tag_132\n      jumpi\n      0x00\n      dup1\n      revert\n    tag_132:\n      pop\n      tag_133\n      0x04\n      dup1\n      calldatasize\n      sub\n      0x20\n      dup2\n      lt\n      iszero\n      tag_134\n      jumpi\n      0x00\n      dup1\n      revert\n    tag_134:\n      dup2\n      add\n      swap1\n      dup1\n      dup1\n      calldataload\n      0xff\n      and\n      swap1\n      0x20\n      add\n      swap1\n      swap3\n      swap2\n      swap1\n      pop\n      pop\n      pop\n      tag_135\n      jump\t// in\n    tag_133:\n      mload(0x40)\n      dup1\n      dup3\n      dup2\n      mstore\n      0x20\n      add\n      swap2\n      pop\n      pop\n      mload(0x40)\n      dup1\n      swap2\n      sub\n      swap1\n      return\n        /* \"contract/lottery.sol\":17987:18110  function getUserIdByAddress(address userAddress) public view returns (uint) {\r... */\n    tag_16:\n      callvalue\n      dup1\n      iszero\n      tag_136\n      jumpi\n      0x00\n      dup1\n      revert\n    tag_136:\n      pop\n      tag_137\n      0x04\n      dup1\n      calldatasize\n      sub\n      0x20\n      dup2\n      lt\n      iszero\n      tag_138\n      jumpi\n      0x00\n      dup1\n      revert\n    tag_138:\n      dup2\n      add\n      swap1\n      dup1\n      dup1\n      calldataload\n      0xffffffffffffffffffffffffffffffffffffffff\n      and\n      swap1\n      0x20\n      add\n      swap1\n      swap3\n      swap2\n      swap1\n      pop\n      pop\n      pop\n      tag_139\n      jump\t// in\n    tag_137:\n      mload(0x40)\n      dup1\n      dup3\n      dup2\n      mstore\n      0x20\n      add\n      swap2\n      pop\n      pop\n      mload(0x40)\n      dup1\n      swap2\n      sub\n      swap1\n      return\n        /* \"contract/lottery.sol\":18308:18508  function getReferrer(address userAddress) public view returns (address) {\r... */\n    tag_17:\n      callvalue\n      dup1\n      iszero\n      tag_140\n      jumpi\n      0x00\n      dup1\n      revert\n    tag_140:\n      pop\n      tag_141\n      0x04\n      dup1\n      calldatasize\n      sub\n      0x20\n      dup2\n      lt\n      iszero\n      tag_142\n      jumpi\n      0x00\n      dup1\n      revert\n    tag_142:\n      dup2\n      add\n      swap1\n      dup1\n      dup1\n      calldataload\n      0xffffffffffffffffffffffffffffffffffffffff\n      and\n      swap1\n      0x20\n      add\n      swap1\n      swap3\n      swap2\n      swap1\n      pop\n      pop\n      pop\n      tag_143\n      jump\t// in\n    tag_141:\n      mload(0x40)\n      dup1\n      dup3\n      0xffffffffffffffffffffffffffffffffffffffff\n      and\n      dup2\n      mstore\n      0x20\n      add\n      swap2\n      pop\n      pop\n      mload(0x40)\n      dup1\n      swap2\n      sub\n      swap1\n      return\n        /* \"contract/lottery.sol\":3102:3141  uint8 public referralRewardPercents = 9 */\n    tag_18:\n      callvalue\n      dup1\n      iszero\n      tag_144\n      jumpi\n      0x00\n      dup1\n      revert\n    tag_144:\n      pop\n      tag_145\n      tag_146\n      jump\t// in\n    tag_145:\n      mload(0x40)\n      dup1\n      dup3\n      0xff\n      and\n      dup2\n      mstore\n      0x20\n      add\n      swap2\n      pop\n      pop\n      mload(0x40)\n      dup1\n      swap2\n      sub\n      swap1\n      return\n        /* \"contract/lottery.sol\":6718:10916  function buyround(uint8 round) public payable nonReentrant{\r... */\n    tag_19:\n      tag_147\n      0x04\n      dup1\n      calldatasize\n      sub\n      0x20\n      dup2\n      lt\n      iszero\n      tag_148\n      jumpi\n      0x00\n      dup1\n      revert\n    tag_148:\n      dup2\n      add\n      swap1\n      dup1\n      dup1\n      calldataload\n      0xff\n      and\n      swap1\n      0x20\n      add\n      swap1\n      swap3\n      swap2\n      swap1\n      pop\n      pop\n      pop\n      tag_66\n      jump\t// in\n    tag_147:\n      stop\n        /* \"contract/lottery.sol\":15159:15777  function getUserroundsMissedProfit(address userAddress) public view returns ( uint[] memory, uint[] memory) {\r... */\n    tag_20:\n      callvalue\n      dup1\n      iszero\n      tag_149\n      jumpi\n      0x00\n      dup1\n      revert\n    tag_149:\n      pop\n      tag_150\n      0x04\n      dup1\n      calldatasize\n      sub\n      0x20\n      dup2\n      lt\n      iszero\n      tag_151\n      jumpi\n      0x00\n      dup1\n      revert\n    tag_151:\n      dup2\n      add\n      swap1\n      dup1\n      dup1\n      calldataload\n      0xffffffffffffffffffffffffffffffffffffffff\n      and\n      swap1\n      0x20\n      add\n      swap1\n      swap3\n      swap2\n      swap1\n      pop\n      pop\n      pop\n      tag_152\n      jump\t// in\n    tag_150:\n      mload(0x40)\n      dup1\n      dup1\n      0x20\n      add\n      dup1\n      0x20\n      add\n      dup4\n      dup2\n      sub\n      dup4\n      mstore\n      dup6\n      dup2\n      dup2\n      mload\n      dup2\n      mstore\n      0x20\n      add\n      swap2\n      pop\n      dup1\n      mload\n      swap1\n      0x20\n      add\n      swap1\n      0x20\n      mul\n      dup1\n      dup4\n      dup4\n      0x00\n    tag_153:\n      dup4\n      dup2\n      lt\n      iszero\n      tag_155\n      jumpi\n      dup1\n      dup3\n      add\n      mload\n      dup2\n      dup5\n      add\n      mstore\n      0x20\n      dup2\n      add\n      swap1\n      pop\n      jump(tag_153)\n    tag_155:\n      pop\n      pop\n      pop\n      pop\n      swap1\n      pop\n      add\n      dup4\n      dup2\n      sub\n      dup3\n      mstore\n      dup5\n      dup2\n      dup2\n      mload\n      dup2\n      mstore\n      0x20\n      add\n      swap2\n      pop\n      dup1\n      mload\n      swap1\n      0x20\n      add\n      swap1\n      0x20\n      mul\n      dup1\n      dup4\n      dup4\n      0x00\n    tag_156:\n      dup4\n      dup2\n      lt\n      iszero\n      tag_158\n      jumpi\n      dup1\n      dup3\n      add\n      mload\n      dup2\n      dup5\n      add\n      mstore\n      0x20\n      dup2\n      add\n      swap1\n      pop\n      jump(tag_156)\n    tag_158:\n      pop\n      pop\n      pop\n      pop\n      swap1\n      pop\n      add\n      swap5\n      pop\n      pop\n      pop\n      pop\n      pop\n      mload(0x40)\n      dup1\n      swap2\n      sub\n      swap1\n      return\n        /* \"contract/lottery.sol\":662:690  uint[16] public timeRoudsEnd */\n    tag_21:\n      callvalue\n      dup1\n      iszero\n      tag_159\n      jumpi\n      0x00\n      dup1\n      revert\n    tag_159:\n      pop\n      tag_160\n      0x04\n      dup1\n      calldatasize\n      sub\n      0x20\n      dup2\n      lt\n      iszero\n      tag_161\n      jumpi\n      0x00\n      dup1\n      revert\n    tag_161:\n      dup2\n      add\n      swap1\n      dup1\n      dup1\n      calldataload\n      swap1\n      0x20\n      add\n      swap1\n      swap3\n      swap2\n      swap1\n      pop\n      pop\n      pop\n      tag_162\n      jump\t// in\n    tag_160:\n      mload(0x40)\n      dup1\n      dup3\n      dup2\n      mstore\n      0x20\n      add\n      swap2\n      pop\n      pop\n      mload(0x40)\n      dup1\n      swap2\n      sub\n      swap1\n      return\n        /* \"contract/lottery.sol\":3280:3660  uint[] public roundPrice = [\r... */\n    tag_22:\n      callvalue\n      dup1\n      iszero\n      tag_163\n      jumpi\n      0x00\n      dup1\n      revert\n    tag_163:\n      pop\n      tag_164\n      0x04\n      dup1\n      calldatasize\n      sub\n      0x20\n      dup2\n      lt\n      iszero\n      tag_165\n      jumpi\n      0x00\n      dup1\n      revert\n    tag_165:\n      dup2\n      add\n      swap1\n      dup1\n      dup1\n      calldataload\n      swap1\n      0x20\n      add\n      swap1\n      swap3\n      swap2\n      swap1\n      pop\n      pop\n      pop\n      tag_166\n      jump\t// in\n    tag_164:\n      mload(0x40)\n      dup1\n      dup3\n      dup2\n      mstore\n      0x20\n      add\n      swap2\n      pop\n      pop\n      mload(0x40)\n      dup1\n      swap2\n      sub\n      swap1\n      return\n        /* \"contract/lottery.sol\":630:655  uint[16] public RoiRounds */\n    tag_23:\n      callvalue\n      dup1\n      iszero\n      tag_167\n      jumpi\n      0x00\n      dup1\n      revert\n    tag_167:\n      pop\n      tag_168\n      0x04\n      dup1\n      calldatasize\n      sub\n      0x20\n      dup2\n      lt\n      iszero\n      tag_169\n      jumpi\n      0x00\n      dup1\n      revert\n    tag_169:\n      dup2\n      add\n      swap1\n      dup1\n      dup1\n      calldataload\n      swap1\n      0x20\n      add\n      swap1\n      swap3\n      swap2\n      swap1\n      pop\n      pop\n      pop\n      tag_170\n      jump\t// in\n    tag_168:\n      mload(0x40)\n      dup1\n      dup3\n      dup2\n      mstore\n      0x20\n      add\n      swap2\n      pop\n      pop\n      mload(0x40)\n      dup1\n      swap2\n      sub\n      swap1\n      return\n        /* \"contract/lottery.sol\":14614:15149  function getUser(address userAddress) public view returns(uint, uint, uint, address, uint, uint, uint, uint, uint, uint) {\r... */\n    tag_24:\n      callvalue\n      dup1\n      iszero\n      tag_171\n      jumpi\n      0x00\n      dup1\n      revert\n    tag_171:\n      pop\n      tag_172\n      0x04\n      dup1\n      calldatasize\n      sub\n      0x20\n      dup2\n      lt\n      iszero\n      tag_173\n      jumpi\n      0x00\n      dup1\n      revert\n    tag_173:\n      dup2\n      add\n      swap1\n      dup1\n      dup1\n      calldataload\n      0xffffffffffffffffffffffffffffffffffffffff\n      and\n      swap1\n      0x20\n      add\n      swap1\n      swap3\n      swap2\n      swap1\n      pop\n      pop\n      pop\n      tag_174\n      jump\t// in\n    tag_172:\n      mload(0x40)\n      dup1\n      dup12\n      dup2\n      mstore\n      0x20\n      add\n      dup11\n      dup2\n      mstore\n      0x20\n      add\n      dup10\n      dup2\n      mstore\n      0x20\n      add\n      dup9\n      0xffffffffffffffffffffffffffffffffffffffff\n      and\n      dup2\n      mstore\n      0x20\n      add\n      dup8\n      dup2\n      mstore\n      0x20\n      add\n      dup7\n      dup2\n      mstore\n      0x20\n      add\n      dup6\n      dup2\n      mstore\n      0x20\n      add\n      dup5\n      dup2\n      mstore\n      0x20\n      add\n      dup4\n      dup2\n      mstore\n      0x20\n      add\n      dup3\n      dup2\n      mstore\n      0x20\n      add\n      swap11\n      pop\n      pop\n      pop\n      pop\n      pop\n      pop\n      pop\n      pop\n      pop\n      pop\n      pop\n      mload(0x40)\n      dup1\n      swap2\n      sub\n      swap1\n      return\n        /* \"contract/lottery.sol\":17632:17736  function getContractBalance() public view returns (uint) {\r... */\n    tag_25:\n      callvalue\n      dup1\n      iszero\n      tag_175\n      jumpi\n      0x00\n      dup1\n      revert\n    tag_175:\n      pop\n      tag_176\n      tag_177\n      jump\t// in\n    tag_176:\n      mload(0x40)\n      dup1\n      dup3\n      dup2\n      mstore\n      0x20\n      add\n      swap2\n      pop\n      pop\n      mload(0x40)\n      dup1\n      swap2\n      sub\n      swap1\n      return\n        /* \"contract/lottery.sol\":600:623  uint public timeLottery */\n    tag_26:\n      callvalue\n      dup1\n      iszero\n      tag_178\n      jumpi\n      0x00\n      dup1\n      revert\n    tag_178:\n      pop\n      tag_179\n      tag_180\n      jump\t// in\n    tag_179:\n      mload(0x40)\n      dup1\n      dup3\n      dup2\n      mstore\n      0x20\n      add\n      swap2\n      pop\n      pop\n      mload(0x40)\n      dup1\n      swap2\n      sub\n      swap1\n      return\n        /* \"contract/lottery.sol\":10922:10957  function income() public payable {} */\n    tag_27:\n      tag_181\n      tag_182\n      jump\t// in\n    tag_181:\n      stop\n        /* \"contract/lottery.sol\":17860:17981  function getUserAddressById(uint userId) public view returns (address) {\r... */\n    tag_28:\n      callvalue\n      dup1\n      iszero\n      tag_183\n      jumpi\n      0x00\n      dup1\n      revert\n    tag_183:\n      pop\n      tag_184\n      0x04\n      dup1\n      calldatasize\n      sub\n      0x20\n      dup2\n      lt\n      iszero\n      tag_185\n      jumpi\n      0x00\n      dup1\n      revert\n    tag_185:\n      dup2\n      add\n      swap1\n      dup1\n      dup1\n      calldataload\n      swap1\n      0x20\n      add\n      swap1\n      swap3\n      swap2\n      swap1\n      pop\n      pop\n      pop\n      tag_186\n      jump\t// in\n    tag_184:\n      mload(0x40)\n      dup1\n      dup3\n      0xffffffffffffffffffffffffffffffffffffffff\n      and\n      dup2\n      mstore\n      0x20\n      add\n      swap2\n      pop\n      pop\n      mload(0x40)\n      dup1\n      swap2\n      sub\n      swap1\n      return\n        /* \"contract/lottery.sol\":17322:17425  function getLotteryWiner() public view returns(address[50] memory) {\r... */\n    tag_29:\n      callvalue\n      dup1\n      iszero\n      tag_187\n      jumpi\n      0x00\n      dup1\n      revert\n    tag_187:\n      pop\n      tag_188\n      tag_189\n      jump\t// in\n    tag_188:\n      mload(0x40)\n      dup1\n      dup3\n      mul(0x20, 0x32)\n      dup1\n      dup4\n      dup4\n      0x00\n    tag_190:\n      dup4\n      dup2\n      lt\n      iszero\n      tag_192\n      jumpi\n      dup1\n      dup3\n      add\n      mload\n      dup2\n      dup5\n      add\n      mstore\n      0x20\n      dup2\n      add\n      swap1\n      pop\n      jump(tag_190)\n    tag_192:\n      pop\n      pop\n      pop\n      pop\n      swap1\n      pop\n      add\n      swap2\n      pop\n      pop\n      mload(0x40)\n      dup1\n      swap2\n      sub\n      swap1\n      return\n        /* \"contract/lottery.sol\":3206:3234  address payable public owner */\n    tag_30:\n      callvalue\n      dup1\n      iszero\n      tag_193\n      jumpi\n      0x00\n      dup1\n      revert\n    tag_193:\n      pop\n      tag_194\n      tag_195\n      jump\t// in\n    tag_194:\n      mload(0x40)\n      dup1\n      dup3\n      0xffffffffffffffffffffffffffffffffffffffff\n      and\n      dup2\n      mstore\n      0x20\n      add\n      swap2\n      pop\n      pop\n      mload(0x40)\n      dup1\n      swap2\n      sub\n      swap1\n      return\n        /* \"contract/lottery.sol\":10963:12220  function Lottery(uint ticket) public {\r... */\n    tag_31:\n      callvalue\n      dup1\n      iszero\n      tag_196\n      jumpi\n      0x00\n      dup1\n      revert\n    tag_196:\n      pop\n      tag_197\n      0x04\n      dup1\n      calldatasize\n      sub\n      0x20\n      dup2\n      lt\n      iszero\n      tag_198\n      jumpi\n      0x00\n      dup1\n      revert\n    tag_198:\n      dup2\n      add\n      swap1\n      dup1\n      dup1\n      calldataload\n      swap1\n      0x20\n      add\n      swap1\n      swap3\n      swap2\n      swap1\n      pop\n      pop\n      pop\n      tag_199\n      jump\t// in\n    tag_197:\n      stop\n        /* \"contract/lottery.sol\":5644:6712  function registerWithReferrer(address referrer) public payable {\r... */\n    tag_32:\n      tag_200\n      0x04\n      dup1\n      calldatasize\n      sub\n      0x20\n      dup2\n      lt\n      iszero\n      tag_201\n      jumpi\n      0x00\n      dup1\n      revert\n    tag_201:\n      dup2\n      add\n      swap1\n      dup1\n      dup1\n      calldataload\n      0xffffffffffffffffffffffffffffffffffffffff\n      and\n      swap1\n      0x20\n      add\n      swap1\n      swap3\n      swap2\n      swap1\n      pop\n      pop\n      pop\n      tag_202\n      jump\t// in\n    tag_200:\n      stop\n        /* \"contract/lottery.sol\":3148:3193  uint8 public referralRewardProfitPercents = 8 */\n    tag_33:\n      callvalue\n      dup1\n      iszero\n      tag_203\n      jumpi\n      0x00\n      dup1\n      revert\n    tag_203:\n      pop\n      tag_204\n      tag_205\n      jump\t// in\n    tag_204:\n      mload(0x40)\n      dup1\n      dup3\n      0xff\n      and\n      dup2\n      mstore\n      0x20\n      add\n      swap2\n      pop\n      pop\n      mload(0x40)\n      dup1\n      swap2\n      sub\n      swap1\n      return\n        /* \"contract/lottery.sol\":3739:3776  mapping(address => User) public users */\n    tag_34:\n      callvalue\n      dup1\n      iszero\n      tag_206\n      jumpi\n      0x00\n      dup1\n      revert\n    tag_206:\n      pop\n      tag_207\n      0x04\n      dup1\n      calldatasize\n      sub\n      0x20\n      dup2\n      lt\n      iszero\n      tag_208\n      jumpi\n      0x00\n      dup1\n      revert\n    tag_208:\n      dup2\n      add\n      swap1\n      dup1\n      dup1\n      calldataload\n      0xffffffffffffffffffffffffffffffffffffffff\n      and\n      swap1\n      0x20\n      add\n      swap1\n      swap3\n      swap2\n      swap1\n      pop\n      pop\n      pop\n      tag_209\n      jump\t// in\n    tag_207:\n      mload(0x40)\n      dup1\n      dup11\n      dup2\n      mstore\n      0x20\n      add\n      dup10\n      dup2\n      mstore\n      0x20\n      add\n      dup9\n      0xffffffffffffffffffffffffffffffffffffffff\n      and\n      dup2\n      mstore\n      0x20\n      add\n      dup8\n      dup2\n      mstore\n      0x20\n      add\n      dup7\n      dup2\n      mstore\n      0x20\n      add\n      dup6\n      dup2\n      mstore\n      0x20\n      add\n      dup5\n      dup2\n      mstore\n      0x20\n      add\n      dup4\n      0xff\n      and\n      dup2\n      mstore\n      0x20\n      add\n      dup3\n      dup2\n      mstore\n      0x20\n      add\n      swap10\n      pop\n      pop\n      pop\n      pop\n      pop\n      pop\n      pop\n      pop\n      pop\n      pop\n      mload(0x40)\n      dup1\n      swap2\n      sub\n      swap1\n      return\n        /* \"contract/lottery.sol\":742:792  mapping(address => uint) public lastTimeActivation */\n    tag_35:\n      callvalue\n      dup1\n      iszero\n      tag_210\n      jumpi\n      0x00\n      dup1\n      revert\n    tag_210:\n      pop\n      tag_211\n      0x04\n      dup1\n      calldatasize\n      sub\n      0x20\n      dup2\n      lt\n      iszero\n      tag_212\n      jumpi\n      0x00\n      dup1\n      revert\n    tag_212:\n      dup2\n      add\n      swap1\n      dup1\n      dup1\n      calldataload\n      0xffffffffffffffffffffffffffffffffffffffff\n      and\n      swap1\n      0x20\n      add\n      swap1\n      swap3\n      swap2\n      swap1\n      pop\n      pop\n      pop\n      tag_213\n      jump\t// in\n    tag_211:\n      mload(0x40)\n      dup1\n      dup3\n      dup2\n      mstore\n      0x20\n      add\n      swap2\n      pop\n      pop\n      mload(0x40)\n      dup1\n      swap2\n      sub\n      swap1\n      return\n        /* \"contract/lottery.sol\":5424:5551  function buyFirstRound(address referrer) public payable {\r... */\n    tag_36:\n      tag_214\n      0x04\n      dup1\n      calldatasize\n      sub\n      0x20\n      dup2\n      lt\n      iszero\n      tag_215\n      jumpi\n      0x00\n      dup1\n      revert\n    tag_215:\n      dup2\n      add\n      swap1\n      dup1\n      dup1\n      calldataload\n      0xffffffffffffffffffffffffffffffffffffffff\n      and\n      swap1\n      0x20\n      add\n      swap1\n      swap3\n      swap2\n      swap1\n      pop\n      pop\n      pop\n      tag_216\n      jump\t// in\n    tag_214:\n      stop\n        /* \"contract/lottery.sol\":18116:18302  function getReferrerId(address userAddress) public view returns (uint) {\r... */\n    tag_37:\n      callvalue\n      dup1\n      iszero\n      tag_217\n      jumpi\n      0x00\n      dup1\n      revert\n    tag_217:\n      pop\n      tag_218\n      0x04\n      dup1\n      calldatasize\n      sub\n      0x20\n      dup2\n      lt\n      iszero\n      tag_219\n      jumpi\n      0x00\n      dup1\n      revert\n    tag_219:\n      dup2\n      add\n      swap1\n      dup1\n      dup1\n      calldataload\n      0xffffffffffffffffffffffffffffffffffffffff\n      and\n      swap1\n      0x20\n      add\n      swap1\n      swap3\n      swap2\n      swap1\n      pop\n      pop\n      pop\n      tag_220\n      jump\t// in\n    tag_218:\n      mload(0x40)\n      dup1\n      dup3\n      dup2\n      mstore\n      0x20\n      add\n      swap2\n      pop\n      pop\n      mload(0x40)\n      dup1\n      swap2\n      sub\n      swap1\n      return\n        /* \"contract/lottery.sol\":3004:3045  uint8 public constant rewardPercents = 75 */\n    tag_38:\n      callvalue\n      dup1\n      iszero\n      tag_221\n      jumpi\n      0x00\n      dup1\n      revert\n    tag_221:\n      pop\n      tag_222\n      tag_223\n      jump\t// in\n    tag_222:\n      mload(0x40)\n      dup1\n      dup3\n      0xff\n      and\n      dup2\n      mstore\n      0x20\n      add\n      swap2\n      pop\n      pop\n      mload(0x40)\n      dup1\n      swap2\n      sub\n      swap1\n      return\n        /* \"contract/lottery.sol\":12226:12700  function getPrize() public nonReentrant{\r... */\n    tag_39:\n      callvalue\n      dup1\n      iszero\n      tag_224\n      jumpi\n      0x00\n      dup1\n      revert\n    tag_224:\n      pop\n      tag_225\n      tag_226\n      jump\t// in\n    tag_225:\n      stop\n        /* \"contract/lottery.sol\":17112:17207  function getRoiRound() public view returns(uint[16] memory) {\r... */\n    tag_40:\n      callvalue\n      dup1\n      iszero\n      tag_227\n      jumpi\n      0x00\n      dup1\n      revert\n    tag_227:\n      pop\n      tag_228\n      tag_229\n      jump\t// in\n    tag_228:\n      mload(0x40)\n      dup1\n      dup3\n      mul(0x20, 0x10)\n      dup1\n      dup4\n      dup4\n      0x00\n    tag_230:\n      dup4\n      dup2\n      lt\n      iszero\n      tag_232\n      jumpi\n      dup1\n      dup3\n      add\n      mload\n      dup2\n      dup5\n      add\n      mstore\n      0x20\n      dup2\n      add\n      swap1\n      pop\n      jump(tag_230)\n    tag_232:\n      pop\n      pop\n      pop\n      pop\n      swap1\n      pop\n      add\n      swap2\n      pop\n      pop\n      mload(0x40)\n      dup1\n      swap2\n      sub\n      swap1\n      return\n        /* \"contract/lottery.sol\":18514:19080  function getPlaceInQueue(address userAddress, uint8 round) public view returns(uint, uint) {\r... */\n    tag_41:\n      callvalue\n      dup1\n      iszero\n      tag_233\n      jumpi\n      0x00\n      dup1\n      revert\n    tag_233:\n      pop\n      tag_234\n      0x04\n      dup1\n      calldatasize\n      sub\n      0x40\n      dup2\n      lt\n      iszero\n      tag_235\n      jumpi\n      0x00\n      dup1\n      revert\n    tag_235:\n      dup2\n      add\n      swap1\n      dup1\n      dup1\n      calldataload\n      0xffffffffffffffffffffffffffffffffffffffff\n      and\n      swap1\n      0x20\n      add\n      swap1\n      swap3\n      swap2\n      swap1\n      dup1\n      calldataload\n      0xff\n      and\n      swap1\n      0x20\n      add\n      swap1\n      swap3\n      swap2\n      swap1\n      pop\n      pop\n      pop\n      tag_236\n      jump\t// in\n    tag_234:\n      mload(0x40)\n      dup1\n      dup4\n      dup2\n      mstore\n      0x20\n      add\n      dup3\n      dup2\n      mstore\n      0x20\n      add\n      swap3\n      pop\n      pop\n      pop\n      mload(0x40)\n      dup1\n      swap2\n      sub\n      swap1\n      return\n        /* \"contract/lottery.sol\":3052:3095  uint8 public constant marketingPercents = 7 */\n    tag_42:\n      callvalue\n      dup1\n      iszero\n      tag_237\n      jumpi\n      0x00\n      dup1\n      revert\n    tag_237:\n      pop\n      tag_238\n      tag_239\n      jump\t// in\n    tag_238:\n      mload(0x40)\n      dup1\n      dup3\n      0xff\n      and\n      dup2\n      mstore\n      0x20\n      add\n      swap2\n      pop\n      pop\n      mload(0x40)\n      dup1\n      swap2\n      sub\n      swap1\n      return\n        /* \"contract/lottery.sol\":566:593  uint public todayWinerValue */\n    tag_43:\n      callvalue\n      dup1\n      iszero\n      tag_240\n      jumpi\n      0x00\n      dup1\n      revert\n    tag_240:\n      pop\n      tag_241\n      tag_242\n      jump\t// in\n    tag_241:\n      mload(0x40)\n      dup1\n      dup3\n      dup2\n      mstore\n      0x20\n      add\n      swap2\n      pop\n      pop\n      mload(0x40)\n      dup1\n      swap2\n      sub\n      swap1\n      return\n        /* \"contract/lottery.sol\":17742:17854  function isUserRegistered(address addr) public view returns (bool) {\r... */\n    tag_61:\n        /* \"contract/lottery.sol\":17803:17807  bool */\n      0x00\n        /* \"contract/lottery.sol\":17845:17846  0 */\n      dup1\n        /* \"contract/lottery.sol\":17827:17832  users */\n      0x6b\n        /* \"contract/lottery.sol\":17827:17838  users[addr] */\n      0x00\n        /* \"contract/lottery.sol\":17833:17837  addr */\n      dup5\n        /* \"contract/lottery.sol\":17827:17838  users[addr] */\n      0xffffffffffffffffffffffffffffffffffffffff\n      and\n      0xffffffffffffffffffffffffffffffffffffffff\n      and\n      dup2\n      mstore\n      0x20\n      add\n      swap1\n      dup2\n      mstore\n      0x20\n      add\n      0x00\n      keccak256\n        /* \"contract/lottery.sol\":17827:17841  users[addr].id */\n      0x00\n      add\n      sload\n        /* \"contract/lottery.sol\":17827:17846  users[addr].id != 0 */\n      eq\n      iszero\n        /* \"contract/lottery.sol\":17820:17846  return users[addr].id != 0 */\n      swap1\n      pop\n        /* \"contract/lottery.sol\":17742:17854  function isUserRegistered(address addr) public view returns (bool) {\r... */\n      swap2\n      swap1\n      pop\n      jump\t// out\n        /* \"contract/lottery.sol\":5557:5638  function register() public payable {\r... */\n    tag_64:\n        /* \"contract/lottery.sol\":5603:5630  registerWithReferrer(owner) */\n      tag_245\n        /* \"contract/lottery.sol\":5624:5629  owner */\n      0x66\n      0x02\n      swap1\n      sload\n      swap1\n      0x0100\n      exp\n      swap1\n      div\n      0xffffffffffffffffffffffffffffffffffffffff\n      and\n        /* \"contract/lottery.sol\":5603:5623  registerWithReferrer */\n      tag_202\n        /* \"contract/lottery.sol\":5603:5630  registerWithReferrer(owner) */\n      jump\t// in\n    tag_245:\n        /* \"contract/lottery.sol\":5557:5638  function register() public payable {\r... */\n      jump\t// out\n        /* \"contract/lottery.sol\":6718:10916  function buyround(uint8 round) public payable nonReentrant{\r... */\n    tag_66:\n        /* \"contract/lottery.sol\":180:181  2 */\n      0x02\n        /* \"contract/lottery.sol\":335:342  _status */\n      sload(0x00)\n        /* \"contract/lottery.sol\":335:354  _status != _ENTERED */\n      eq\n      iszero\n        /* \"contract/lottery.sol\":327:390  require(_status != _ENTERED, \"ReentrancyGuard: reentrant call\") */\n      tag_247\n      jumpi\n      mload(0x40)\n      0x08c379a000000000000000000000000000000000000000000000000000000000\n      dup2\n      mstore\n      0x04\n      add\n      dup1\n      dup1\n      0x20\n      add\n      dup3\n      dup2\n      sub\n      dup3\n      mstore\n      0x1f\n      dup2\n      mstore\n      0x20\n      add\n      dup1\n      0x5265656e7472616e637947756172643a207265656e7472616e742063616c6c00\n      dup2\n      mstore\n      pop\n      0x20\n      add\n      swap2\n      pop\n      pop\n      mload(0x40)\n      dup1\n      swap2\n      sub\n      swap1\n      revert\n    tag_247:\n        /* \"contract/lottery.sol\":180:181  2 */\n      0x02\n        /* \"contract/lottery.sol\":401:408  _status */\n      0x00\n        /* \"contract/lottery.sol\":401:419  _status = _ENTERED */\n      dup2\n      swap1\n      sstore\n      pop\n        /* \"contract/lottery.sol\":6795:6823  isUserRegistered(msg.sender) */\n      tag_249\n        /* \"contract/lottery.sol\":6812:6822  msg.sender */\n      caller\n        /* \"contract/lottery.sol\":6795:6811  isUserRegistered */\n      tag_61\n        /* \"contract/lottery.sol\":6795:6823  isUserRegistered(msg.sender) */\n      jump\t// in\n    tag_249:\n        /* \"contract/lottery.sol\":6787:6850  require(isUserRegistered(msg.sender), \"User is not registered\") */\n      tag_250\n      jumpi\n      mload(0x40)\n      0x08c379a000000000000000000000000000000000000000000000000000000000\n      dup2\n      mstore\n      0x04\n      add\n      dup1\n      dup1\n      0x20\n      add\n      dup3\n      dup2\n      sub\n      dup3\n      mstore\n      0x16\n      dup2\n      mstore\n      0x20\n      add\n      dup1\n      0x55736572206973206e6f74207265676973746572656400000000000000000000\n      dup2\n      mstore\n      pop\n      0x20\n      add\n      swap2\n      pop\n      pop\n      mload(0x40)\n      dup1\n      swap2\n      sub\n      swap1\n      revert\n    tag_250:\n        /* \"contract/lottery.sol\":6877:6878  0 */\n      0x00\n        /* \"contract/lottery.sol\":6869:6874  round */\n      dup2\n        /* \"contract/lottery.sol\":6869:6878  round > 0 */\n      0xff\n      and\n      gt\n        /* \"contract/lottery.sol\":6869:6902  round > 0 && round <= totalrounds */\n      dup1\n      iszero\n      tag_251\n      jumpi\n      pop\n        /* \"contract/lottery.sol\":6891:6902  totalrounds */\n      sload(0x69)\n        /* \"contract/lottery.sol\":6882:6887  round */\n      dup2\n        /* \"contract/lottery.sol\":6882:6902  round <= totalrounds */\n      0xff\n      and\n      gt\n      iszero\n        /* \"contract/lottery.sol\":6869:6902  round > 0 && round <= totalrounds */\n    tag_251:\n        /* \"contract/lottery.sol\":6861:6920  require(round > 0 && round <= totalrounds, \"Invalid round\") */\n      tag_252\n      jumpi\n      mload(0x40)\n      0x08c379a000000000000000000000000000000000000000000000000000000000\n      dup2\n      mstore\n      0x04\n      add\n      dup1\n      dup1\n      0x20\n      add\n      dup3\n      dup2\n      sub\n      dup3\n      mstore\n      0x0d\n      dup2\n      mstore\n      0x20\n      add\n      dup1\n      0x496e76616c696420726f756e6400000000000000000000000000000000000000\n      dup2\n      mstore\n      pop\n      0x20\n      add\n      swap2\n      pop\n      pop\n      mload(0x40)\n      dup1\n      swap2\n      sub\n      swap1\n      revert\n    tag_252:\n        /* \"contract/lottery.sol\":6960:6969  msg.value */\n      callvalue\n        /* \"contract/lottery.sol\":6939:6949  roundPrice */\n      0x68\n        /* \"contract/lottery.sol\":6950:6955  round */\n      dup3\n        /* \"contract/lottery.sol\":6939:6956  roundPrice[round] */\n      0xff\n      and\n      dup2\n      sload\n      dup2\n      lt\n      tag_253\n      jumpi\n      invalid\n    tag_253:\n      swap1\n      0x00\n      mstore\n      keccak256(0x00, 0x20)\n      add\n      sload\n        /* \"contract/lottery.sol\":6939:6969  roundPrice[round] == msg.value */\n      eq\n        /* \"contract/lottery.sol\":6931:6991  require(roundPrice[round] == msg.value, \"Invalid BNB value\") */\n      tag_255\n      jumpi\n      mload(0x40)\n      0x08c379a000000000000000000000000000000000000000000000000000000000\n      dup2\n      mstore\n      0x04\n      add\n      dup1\n      dup1\n      0x20\n      add\n      dup3\n      dup2\n      sub\n      dup3\n      mstore\n      0x11\n      dup2\n      mstore\n      0x20\n      add\n      dup1\n      0x496e76616c696420424e422076616c7565000000000000000000000000000000\n      dup2\n      mstore\n      pop\n      0x20\n      add\n      swap2\n      pop\n      pop\n      mload(0x40)\n      dup1\n      swap2\n      sub\n      swap1\n      revert\n    tag_255:\n        /* \"contract/lottery.sol\":7011:7033  isContract(msg.sender) */\n      tag_256\n        /* \"contract/lottery.sol\":7022:7032  msg.sender */\n      caller\n        /* \"contract/lottery.sol\":7011:7021  isContract */\n      tag_76\n        /* \"contract/lottery.sol\":7011:7033  isContract(msg.sender) */\n      jump\t// in\n    tag_256:\n        /* \"contract/lottery.sol\":7010:7033  !isContract(msg.sender) */\n      iszero\n        /* \"contract/lottery.sol\":7002:7059  require(!isContract(msg.sender), \"Can not be a contract\") */\n      tag_257\n      jumpi\n      mload(0x40)\n      0x08c379a000000000000000000000000000000000000000000000000000000000\n      dup2\n      mstore\n      0x04\n      add\n      dup1\n      dup1\n      0x20\n      add\n      dup3\n      dup2\n      sub\n      dup3\n      mstore\n      0x15\n      dup2\n      mstore\n      0x20\n      add\n      dup1\n      0x43616e206e6f74206265206120636f6e74726163740000000000000000000000\n      dup2\n      mstore\n      pop\n      0x20\n      add\n      swap2\n      pop\n      pop\n      mload(0x40)\n      dup1\n      swap2\n      sub\n      swap1\n      revert\n    tag_257:\n        /* \"contract/lottery.sol\":7114:7115  1 */\n      0x01\n        /* \"contract/lottery.sol\":7087:7092  users */\n      0x6b\n        /* \"contract/lottery.sol\":7087:7104  users[msg.sender] */\n      0x00\n        /* \"contract/lottery.sol\":7093:7103  msg.sender */\n      caller\n        /* \"contract/lottery.sol\":7087:7104  users[msg.sender] */\n      0xffffffffffffffffffffffffffffffffffffffff\n      and\n      0xffffffffffffffffffffffffffffffffffffffff\n      and\n      dup2\n      mstore\n      0x20\n      add\n      swap1\n      dup2\n      mstore\n      0x20\n      add\n      0x00\n      keccak256\n        /* \"contract/lottery.sol\":7087:7113  users[msg.sender].maxRound */\n      0x08\n      add\n      0x00\n      swap1\n      sload\n      swap1\n      0x0100\n      exp\n      swap1\n      div\n      0xff\n      and\n        /* \"contract/lottery.sol\":7087:7115  users[msg.sender].maxRound+1 */\n      add\n        /* \"contract/lottery.sol\":7078:7115  round <= users[msg.sender].maxRound+1 */\n      0xff\n      and\n        /* \"contract/lottery.sol\":7078:7083  round */\n      dup2\n        /* \"contract/lottery.sol\":7078:7115  round <= users[msg.sender].maxRound+1 */\n      0xff\n      and\n      gt\n      iszero\n        /* \"contract/lottery.sol\":7070:7139  require(round <= users[msg.sender].maxRound+1, \"Round not available\") */\n      tag_258\n      jumpi\n      mload(0x40)\n      0x08c379a000000000000000000000000000000000000000000000000000000000\n      dup2\n      mstore\n      0x04\n      add\n      dup1\n      dup1\n      0x20\n      add\n      dup3\n      dup2\n      sub\n      dup3\n      mstore\n      0x13\n      dup2\n      mstore\n      0x20\n      add\n      dup1\n      0x526f756e64206e6f7420617661696c61626c6500000000000000000000000000\n      dup2\n      mstore\n      pop\n      0x20\n      add\n      swap2\n      pop\n      pop\n      mload(0x40)\n      dup1\n      swap2\n      sub\n      swap1\n      revert\n    tag_258:\n        /* \"contract/lottery.sol\":7176:7179  now */\n      timestamp\n        /* \"contract/lottery.sol\":7154:7166  timeRoudsEnd */\n      0x45\n        /* \"contract/lottery.sol\":7167:7172  round */\n      dup3\n        /* \"contract/lottery.sol\":7154:7173  timeRoudsEnd[round] */\n      0xff\n      and\n      0x10\n      dup2\n      lt\n      tag_259\n      jumpi\n      invalid\n    tag_259:\n      add\n      sload\n        /* \"contract/lottery.sol\":7154:7179  timeRoudsEnd[round] < now */\n      lt\n        /* \"contract/lottery.sol\":7150:7823  if (timeRoudsEnd[round] < now){\r... */\n      iszero\n      tag_261\n      jumpi\n        /* \"contract/lottery.sol\":7206:7227  uint valueSecretPrize */\n      0x00\n        /* \"contract/lottery.sol\":7229:7251  calcSecretPrize(round) */\n      tag_262\n        /* \"contract/lottery.sol\":7245:7250  round */\n      dup3\n        /* \"contract/lottery.sol\":7229:7244  calcSecretPrize */\n      tag_135\n        /* \"contract/lottery.sol\":7229:7251  calcSecretPrize(round) */\n      jump\t// in\n    tag_262:\n        /* \"contract/lottery.sol\":7206:7251  uint valueSecretPrize =calcSecretPrize(round) */\n      swap1\n      pop\n        /* \"contract/lottery.sol\":7278:7302  bool sendSecretGamePrize */\n      0x00\n        /* \"contract/lottery.sol\":7313:7332  nextWinerSecretGame */\n      0x55\n        /* \"contract/lottery.sol\":7333:7338  round */\n      dup4\n        /* \"contract/lottery.sol\":7313:7339  nextWinerSecretGame[round] */\n      0xff\n      and\n      0x10\n      dup2\n      lt\n      tag_263\n      jumpi\n      invalid\n    tag_263:\n      add\n      0x00\n      swap1\n      sload\n      swap1\n      0x0100\n      exp\n      swap1\n      div\n      0xffffffffffffffffffffffffffffffffffffffff\n      and\n        /* \"contract/lottery.sol\":7305:7345  payable(nextWinerSecretGame[round]).send */\n      0xffffffffffffffffffffffffffffffffffffffff\n      and\n        /* \"contract/lottery.sol\":7305:7363  payable(nextWinerSecretGame[round]).send(valueSecretPrize) */\n      0x08fc\n        /* \"contract/lottery.sol\":7346:7362  valueSecretPrize */\n      dup4\n        /* \"contract/lottery.sol\":7305:7363  payable(nextWinerSecretGame[round]).send(valueSecretPrize) */\n      swap1\n      dup2\n      iszero\n      mul\n      swap1\n      mload(0x40)\n      0x00\n      mload(0x40)\n      dup1\n      dup4\n      sub\n      dup2\n      dup6\n      dup9\n      dup9\n      call\n      swap4\n      pop\n      pop\n      pop\n      pop\n        /* \"contract/lottery.sol\":7278:7363  bool sendSecretGamePrize = payable(nextWinerSecretGame[round]).send(valueSecretPrize) */\n      swap1\n      pop\n        /* \"contract/lottery.sol\":7394:7413  sendSecretGamePrize */\n      dup1\n        /* \"contract/lottery.sol\":7390:7642  if (sendSecretGamePrize) {\r... */\n      iszero\n      tag_266\n      jumpi\n        /* \"contract/lottery.sol\":7469:7474  86400 */\n      0x015180\n        /* \"contract/lottery.sol\":7446:7458  timeRoudsEnd */\n      0x45\n        /* \"contract/lottery.sol\":7459:7464  round */\n      dup5\n        /* \"contract/lottery.sol\":7446:7465  timeRoudsEnd[round] */\n      0xff\n      and\n      0x10\n      dup2\n      lt\n      tag_267\n      jumpi\n      invalid\n    tag_267:\n      add\n      0x00\n        /* \"contract/lottery.sol\":7446:7474  timeRoudsEnd[round] += 86400 */\n      dup3\n      dup3\n      sload\n      add\n      swap3\n      pop\n      pop\n      dup2\n      swap1\n      sstore\n      pop\n        /* \"contract/lottery.sol\":7532:7551  nextWinerSecretGame */\n      0x55\n        /* \"contract/lottery.sol\":7552:7557  round */\n      dup4\n        /* \"contract/lottery.sol\":7532:7558  nextWinerSecretGame[round] */\n      0xff\n      and\n      0x10\n      dup2\n      lt\n      tag_269\n      jumpi\n      invalid\n    tag_269:\n      add\n      0x00\n      swap1\n      sload\n      swap1\n      0x0100\n      exp\n      swap1\n      div\n      0xffffffffffffffffffffffffffffffffffffffff\n      and\n        /* \"contract/lottery.sol\":7510:7584  WinerForeverGame(now, nextWinerSecretGame[round], round, valueSecretPrize) */\n      0xffffffffffffffffffffffffffffffffffffffff\n      and\n      0x8ea1a10de3733db603227ca0e3cd0feb6da4f1c33fb15cb9265fa333a64797c2\n        /* \"contract/lottery.sol\":7527:7530  now */\n      timestamp\n        /* \"contract/lottery.sol\":7560:7565  round */\n      dup6\n        /* \"contract/lottery.sol\":7567:7583  valueSecretPrize */\n      dup6\n        /* \"contract/lottery.sol\":7510:7584  WinerForeverGame(now, nextWinerSecretGame[round], round, valueSecretPrize) */\n      mload(0x40)\n      dup1\n      dup5\n      dup2\n      mstore\n      0x20\n      add\n      dup4\n      0xff\n      and\n      dup2\n      mstore\n      0x20\n      add\n      dup3\n      dup2\n      mstore\n      0x20\n      add\n      swap4\n      pop\n      pop\n      pop\n      pop\n      mload(0x40)\n      dup1\n      swap2\n      sub\n      swap1\n      log2\n        /* \"contract/lottery.sol\":7390:7642  if (sendSecretGamePrize) {\r... */\n    tag_266:\n        /* \"contract/lottery.sol\":7150:7823  if (timeRoudsEnd[round] < now){\r... */\n      pop\n      pop\n      jump(tag_271)\n    tag_261:\n        /* \"contract/lottery.sol\":7747:7751  3600 */\n      0x0e10\n        /* \"contract/lottery.sol\":7724:7736  timeRoudsEnd */\n      0x45\n        /* \"contract/lottery.sol\":7737:7742  round */\n      dup3\n        /* \"contract/lottery.sol\":7724:7743  timeRoudsEnd[round] */\n      0xff\n      and\n      0x10\n      dup2\n      lt\n      tag_272\n      jumpi\n      invalid\n    tag_272:\n      add\n      0x00\n        /* \"contract/lottery.sol\":7724:7751  timeRoudsEnd[round] += 3600 */\n      dup3\n      dup3\n      sload\n      add\n      swap3\n      pop\n      pop\n      dup2\n      swap1\n      sstore\n      pop\n        /* \"contract/lottery.sol\":7796:7799  now */\n      timestamp\n        /* \"contract/lottery.sol\":7778:7790  timeRoudsEnd */\n      0x45\n        /* \"contract/lottery.sol\":7791:7792  0 */\n      0x00\n        /* \"contract/lottery.sol\":7778:7793  timeRoudsEnd[0] */\n      0x10\n      dup2\n      lt\n      tag_274\n      jumpi\n      invalid\n    tag_274:\n      add\n        /* \"contract/lottery.sol\":7778:7799  timeRoudsEnd[0] = now */\n      dup2\n      swap1\n      sstore\n      pop\n        /* \"contract/lottery.sol\":7150:7823  if (timeRoudsEnd[round] < now){\r... */\n    tag_271:\n        /* \"contract/lottery.sol\":7862:7872  msg.sender */\n      caller\n        /* \"contract/lottery.sol\":7833:7852  nextWinerSecretGame */\n      0x55\n        /* \"contract/lottery.sol\":7853:7858  round */\n      dup3\n        /* \"contract/lottery.sol\":7833:7859  nextWinerSecretGame[round] */\n      0xff\n      and\n      0x10\n      dup2\n      lt\n      tag_276\n      jumpi\n      invalid\n    tag_276:\n      add\n      0x00\n        /* \"contract/lottery.sol\":7833:7872  nextWinerSecretGame[round] = msg.sender */\n      0x0100\n      exp\n      dup2\n      sload\n      dup2\n      0xffffffffffffffffffffffffffffffffffffffff\n      mul\n      not\n      and\n      swap1\n      dup4\n      0xffffffffffffffffffffffffffffffffffffffff\n      and\n      mul\n      or\n      swap1\n      sstore\n      pop\n        /* \"contract/lottery.sol\":7883:7888  users */\n      0x6b\n        /* \"contract/lottery.sol\":7883:7900  users[msg.sender] */\n      0x00\n        /* \"contract/lottery.sol\":7889:7899  msg.sender */\n      caller\n        /* \"contract/lottery.sol\":7883:7900  users[msg.sender] */\n      0xffffffffffffffffffffffffffffffffffffffff\n      and\n      0xffffffffffffffffffffffffffffffffffffffff\n      and\n      dup2\n      mstore\n      0x20\n      add\n      swap1\n      dup2\n      mstore\n      0x20\n      add\n      0x00\n      keccak256\n        /* \"contract/lottery.sol\":7883:7909  users[msg.sender].maxRound */\n      0x08\n      add\n      0x00\n        /* \"contract/lottery.sol\":7883:7911  users[msg.sender].maxRound++ */\n      dup2\n      dup2\n      swap1\n      sload\n      swap1\n      0x0100\n      exp\n      swap1\n      div\n      0xff\n      and\n      dup1\n      swap3\n      swap2\n      swap1\n      0x01\n      add\n      swap2\n      swap1\n      0x0100\n      exp\n      dup2\n      sload\n      dup2\n      0xff\n      mul\n      not\n      and\n      swap1\n      dup4\n      0xff\n      and\n      mul\n      or\n      swap1\n      sstore\n      pop\n      pop\n        /* \"contract/lottery.sol\":7952:7961  msg.value */\n      callvalue\n        /* \"contract/lottery.sol\":7922:7927  users */\n      0x6b\n        /* \"contract/lottery.sol\":7922:7939  users[msg.sender] */\n      0x00\n        /* \"contract/lottery.sol\":7928:7938  msg.sender */\n      caller\n        /* \"contract/lottery.sol\":7922:7939  users[msg.sender] */\n      0xffffffffffffffffffffffffffffffffffffffff\n      and\n      0xffffffffffffffffffffffffffffffffffffffff\n      and\n      dup2\n      mstore\n      0x20\n      add\n      swap1\n      dup2\n      mstore\n      0x20\n      add\n      0x00\n      keccak256\n        /* \"contract/lottery.sol\":7922:7948  users[msg.sender].turnover */\n      0x09\n      add\n      0x00\n        /* \"contract/lottery.sol\":7922:7961  users[msg.sender].turnover += msg.value */\n      dup3\n      dup3\n      sload\n      add\n      swap3\n      pop\n      pop\n      dup2\n      swap1\n      sstore\n      pop\n        /* \"contract/lottery.sol\":7972:7982  globalStat */\n      0x6f\n        /* \"contract/lottery.sol\":7972:7995  globalStat.transactions */\n      0x01\n      add\n      0x00\n        /* \"contract/lottery.sol\":7972:7997  globalStat.transactions++ */\n      dup2\n      sload\n      dup1\n      swap3\n      swap2\n      swap1\n      0x01\n      add\n      swap2\n      swap1\n      pop\n      sstore\n      pop\n        /* \"contract/lottery.sol\":8031:8040  msg.value */\n      callvalue\n        /* \"contract/lottery.sol\":8008:8018  globalStat */\n      0x6f\n        /* \"contract/lottery.sol\":8008:8027  globalStat.turnover */\n      0x02\n      add\n      0x00\n        /* \"contract/lottery.sol\":8008:8040  globalStat.turnover += msg.value */\n      dup3\n      dup3\n      sload\n      add\n      swap3\n      pop\n      pop\n      dup2\n      swap1\n      sstore\n      pop\n        /* \"contract/lottery.sol\":8084:8087  now */\n      timestamp\n        /* \"contract/lottery.sol\":8051:8069  lastTimeActivation */\n      0x65\n        /* \"contract/lottery.sol\":8051:8081  lastTimeActivation[msg.sender] */\n      0x00\n        /* \"contract/lottery.sol\":8070:8080  msg.sender */\n      caller\n        /* \"contract/lottery.sol\":8051:8081  lastTimeActivation[msg.sender] */\n      0xffffffffffffffffffffffffffffffffffffffff\n      and\n      0xffffffffffffffffffffffffffffffffffffffff\n      and\n      dup2\n      mstore\n      0x20\n      add\n      swap1\n      dup2\n      mstore\n      0x20\n      add\n      0x00\n      keccak256\n        /* \"contract/lottery.sol\":8051:8087  lastTimeActivation[msg.sender] = now */\n      dup2\n      swap1\n      sstore\n      pop\n        /* \"contract/lottery.sol\":8149:8152  now */\n      timestamp\n        /* \"contract/lottery.sol\":8098:8103  users */\n      0x6b\n        /* \"contract/lottery.sol\":8098:8115  users[msg.sender] */\n      0x00\n        /* \"contract/lottery.sol\":8104:8114  msg.sender */\n      caller\n        /* \"contract/lottery.sol\":8098:8115  users[msg.sender] */\n      0xffffffffffffffffffffffffffffffffffffffff\n      and\n      0xffffffffffffffffffffffffffffffffffffffff\n      and\n      dup2\n      mstore\n      0x20\n      add\n      swap1\n      dup2\n      mstore\n      0x20\n      add\n      0x00\n      keccak256\n        /* \"contract/lottery.sol\":8098:8122  users[msg.sender].rounds */\n      0x07\n      add\n        /* \"contract/lottery.sol\":8098:8129  users[msg.sender].rounds[round] */\n      0x00\n        /* \"contract/lottery.sol\":8123:8128  round */\n      dup4\n        /* \"contract/lottery.sol\":8098:8129  users[msg.sender].rounds[round] */\n      0xff\n      and\n      0xff\n      and\n      dup2\n      mstore\n      0x20\n      add\n      swap1\n      dup2\n      mstore\n      0x20\n      add\n      0x00\n      keccak256\n        /* \"contract/lottery.sol\":8098:8146  users[msg.sender].rounds[round].lastTimeBuyround */\n      0x03\n      add\n        /* \"contract/lottery.sol\":8098:8152  users[msg.sender].rounds[round].lastTimeBuyround = now */\n      dup2\n      swap1\n      sstore\n      pop\n        /* \"contract/lottery.sol\":8163:8178  uint onePercent */\n      0x00\n        /* \"contract/lottery.sol\":8193:8196  100 */\n      0x64\n        /* \"contract/lottery.sol\":8181:8190  msg.value */\n      callvalue\n        /* \"contract/lottery.sol\":8181:8196  msg.value / 100 */\n      dup2\n      tag_278\n      jumpi\n      invalid\n    tag_278:\n      div\n        /* \"contract/lottery.sol\":8163:8196  uint onePercent = msg.value / 100 */\n      swap1\n      pop\n        /* \"contract/lottery.sol\":8212:8217  users */\n      0x6b\n        /* \"contract/lottery.sol\":8212:8229  users[msg.sender] */\n      0x00\n        /* \"contract/lottery.sol\":8218:8228  msg.sender */\n      caller\n        /* \"contract/lottery.sol\":8212:8229  users[msg.sender] */\n      0xffffffffffffffffffffffffffffffffffffffff\n      and\n      0xffffffffffffffffffffffffffffffffffffffff\n      and\n      dup2\n      mstore\n      0x20\n      add\n      swap1\n      dup2\n      mstore\n      0x20\n      add\n      0x00\n      keccak256\n        /* \"contract/lottery.sol\":8212:8236  users[msg.sender].rounds */\n      0x07\n      add\n        /* \"contract/lottery.sol\":8212:8243  users[msg.sender].rounds[round] */\n      0x00\n        /* \"contract/lottery.sol\":8237:8242  round */\n      dup4\n        /* \"contract/lottery.sol\":8212:8243  users[msg.sender].rounds[round] */\n      0xff\n      and\n      0xff\n      and\n      dup2\n      mstore\n      0x20\n      add\n      swap1\n      dup2\n      mstore\n      0x20\n      add\n      0x00\n      keccak256\n        /* \"contract/lottery.sol\":8212:8250  users[msg.sender].rounds[round].active */\n      0x00\n      add\n      0x06\n      swap1\n      sload\n      swap1\n      0x0100\n      exp\n      swap1\n      div\n      0xff\n      and\n        /* \"contract/lottery.sol\":8207:8886  if (!users[msg.sender].rounds[round].active) {\r... */\n      tag_279\n      jumpi\n        /* \"contract/lottery.sol\":8267:8272  users */\n      0x6b\n        /* \"contract/lottery.sol\":8267:8284  users[msg.sender] */\n      0x00\n        /* \"contract/lottery.sol\":8273:8283  msg.sender */\n      caller\n        /* \"contract/lottery.sol\":8267:8284  users[msg.sender] */\n      0xffffffffffffffffffffffffffffffffffffffff\n      and\n      0xffffffffffffffffffffffffffffffffffffffff\n      and\n      dup2\n      mstore\n      0x20\n      add\n      swap1\n      dup2\n      mstore\n      0x20\n      add\n      0x00\n      keccak256\n        /* \"contract/lottery.sol\":8267:8291  users[msg.sender].rounds */\n      0x07\n      add\n        /* \"contract/lottery.sol\":8267:8298  users[msg.sender].rounds[round] */\n      0x00\n        /* \"contract/lottery.sol\":8292:8297  round */\n      dup4\n        /* \"contract/lottery.sol\":8267:8298  users[msg.sender].rounds[round] */\n      0xff\n      and\n      0xff\n      and\n      dup2\n      mstore\n      0x20\n      add\n      swap1\n      dup2\n      mstore\n      0x20\n      add\n      0x00\n      keccak256\n        /* \"contract/lottery.sol\":8267:8314  users[msg.sender].rounds[round].activationTimes */\n      0x00\n      add\n      0x00\n        /* \"contract/lottery.sol\":8267:8316  users[msg.sender].rounds[round].activationTimes++ */\n      dup2\n      dup2\n      swap1\n      sload\n      swap1\n      0x0100\n      exp\n      swap1\n      div\n      0xffff\n      and\n      dup1\n      swap3\n      swap2\n      swap1\n      0x01\n      add\n      swap2\n      swap1\n      0x0100\n      exp\n      dup2\n      sload\n      dup2\n      0xffff\n      mul\n      not\n      and\n      swap1\n      dup4\n      0xffff\n      and\n      mul\n      or\n      swap1\n      sstore\n      pop\n      pop\n        /* \"contract/lottery.sol\":2996:2997  2 */\n      0x02\n        /* \"contract/lottery.sol\":8331:8390  users[msg.sender].rounds[round].maxPayouts += rewardPayouts */\n      0xff\n      and\n        /* \"contract/lottery.sol\":8331:8336  users */\n      0x6b\n        /* \"contract/lottery.sol\":8331:8348  users[msg.sender] */\n      0x00\n        /* \"contract/lottery.sol\":8337:8347  msg.sender */\n      caller\n        /* \"contract/lottery.sol\":8331:8348  users[msg.sender] */\n      0xffffffffffffffffffffffffffffffffffffffff\n      and\n      0xffffffffffffffffffffffffffffffffffffffff\n      and\n      dup2\n      mstore\n      0x20\n      add\n      swap1\n      dup2\n      mstore\n      0x20\n      add\n      0x00\n      keccak256\n        /* \"contract/lottery.sol\":8331:8355  users[msg.sender].rounds */\n      0x07\n      add\n        /* \"contract/lottery.sol\":8331:8362  users[msg.sender].rounds[round] */\n      0x00\n        /* \"contract/lottery.sol\":8356:8361  round */\n      dup5\n        /* \"contract/lottery.sol\":8331:8362  users[msg.sender].rounds[round] */\n      0xff\n      and\n      0xff\n      and\n      dup2\n      mstore\n      0x20\n      add\n      swap1\n      dup2\n      mstore\n      0x20\n      add\n      0x00\n      keccak256\n        /* \"contract/lottery.sol\":8331:8373  users[msg.sender].rounds[round].maxPayouts */\n      0x00\n      add\n      0x02\n        /* \"contract/lottery.sol\":8331:8390  users[msg.sender].rounds[round].maxPayouts += rewardPayouts */\n      dup3\n      dup3\n      dup3\n      swap1\n      sload\n      swap1\n      0x0100\n      exp\n      swap1\n      div\n      0xffff\n      and\n      add\n      swap3\n      pop\n      0x0100\n      exp\n      dup2\n      sload\n      dup2\n      0xffff\n      mul\n      not\n      and\n      swap1\n      dup4\n      0xffff\n      and\n      mul\n      or\n      swap1\n      sstore\n      pop\n        /* \"contract/lottery.sol\":8446:8450  true */\n      0x01\n        /* \"contract/lottery.sol\":8405:8410  users */\n      0x6b\n        /* \"contract/lottery.sol\":8405:8422  users[msg.sender] */\n      0x00\n        /* \"contract/lottery.sol\":8411:8421  msg.sender */\n      caller\n        /* \"contract/lottery.sol\":8405:8422  users[msg.sender] */\n      0xffffffffffffffffffffffffffffffffffffffff\n      and\n      0xffffffffffffffffffffffffffffffffffffffff\n      and\n      dup2\n      mstore\n      0x20\n      add\n      swap1\n      dup2\n      mstore\n      0x20\n      add\n      0x00\n      keccak256\n        /* \"contract/lottery.sol\":8405:8429  users[msg.sender].rounds */\n      0x07\n      add\n        /* \"contract/lottery.sol\":8405:8436  users[msg.sender].rounds[round] */\n      0x00\n        /* \"contract/lottery.sol\":8430:8435  round */\n      dup5\n        /* \"contract/lottery.sol\":8405:8436  users[msg.sender].rounds[round] */\n      0xff\n      and\n      0xff\n      and\n      dup2\n      mstore\n      0x20\n      add\n      swap1\n      dup2\n      mstore\n      0x20\n      add\n      0x00\n      keccak256\n        /* \"contract/lottery.sol\":8405:8443  users[msg.sender].rounds[round].active */\n      0x00\n      add\n      0x06\n        /* \"contract/lottery.sol\":8405:8450  users[msg.sender].rounds[round].active = true */\n      0x0100\n      exp\n      dup2\n      sload\n      dup2\n      0xff\n      mul\n      not\n      and\n      swap1\n      dup4\n      iszero\n      iszero\n      mul\n      or\n      swap1\n      sstore\n      pop\n        /* \"contract/lottery.sol\":8465:8475  roundQueue */\n      0x6d\n        /* \"contract/lottery.sol\":8465:8482  roundQueue[round] */\n      0x00\n        /* \"contract/lottery.sol\":8476:8481  round */\n      dup4\n        /* \"contract/lottery.sol\":8465:8482  roundQueue[round] */\n      0xff\n      and\n      0xff\n      and\n      dup2\n      mstore\n      0x20\n      add\n      swap1\n      dup2\n      mstore\n      0x20\n      add\n      0x00\n      keccak256\n        /* \"contract/lottery.sol\":8488:8498  msg.sender */\n      caller\n        /* \"contract/lottery.sol\":8465:8499  roundQueue[round].push(msg.sender) */\n      swap1\n      dup1\n      0x01\n      dup2\n      sload\n      add\n      dup1\n      dup3\n      sstore\n      dup1\n      swap2\n      pop\n      pop\n      0x01\n      swap1\n      sub\n      swap1\n      0x00\n      mstore\n      keccak256(0x00, 0x20)\n      add\n      0x00\n      swap1\n      swap2\n      swap1\n      swap2\n      swap1\n      swap2\n      0x0100\n      exp\n      dup2\n      sload\n      dup2\n      0xffffffffffffffffffffffffffffffffffffffff\n      mul\n      not\n      and\n      swap1\n      dup4\n      0xffffffffffffffffffffffffffffffffffffffff\n      and\n      mul\n      or\n      swap1\n      sstore\n      pop\n        /* \"contract/lottery.sol\":8533:8543  msg.sender */\n      caller\n        /* \"contract/lottery.sol\":8519:8573  Buyround(now, msg.sender, users[msg.sender].id, round) */\n      0xffffffffffffffffffffffffffffffffffffffff\n      and\n      0x2f201bc547acc49919922eaf7ecea9f3389adca4dc6ab3fb4a7498cbbaac63a2\n        /* \"contract/lottery.sol\":8528:8531  now */\n      timestamp\n        /* \"contract/lottery.sol\":8545:8550  users */\n      0x6b\n        /* \"contract/lottery.sol\":8545:8562  users[msg.sender] */\n      0x00\n        /* \"contract/lottery.sol\":8551:8561  msg.sender */\n      caller\n        /* \"contract/lottery.sol\":8545:8562  users[msg.sender] */\n      0xffffffffffffffffffffffffffffffffffffffff\n      and\n      0xffffffffffffffffffffffffffffffffffffffff\n      and\n      dup2\n      mstore\n      0x20\n      add\n      swap1\n      dup2\n      mstore\n      0x20\n      add\n      0x00\n      keccak256\n        /* \"contract/lottery.sol\":8545:8565  users[msg.sender].id */\n      0x00\n      add\n      sload\n        /* \"contract/lottery.sol\":8567:8572  round */\n      dup6\n        /* \"contract/lottery.sol\":8519:8573  Buyround(now, msg.sender, users[msg.sender].id, round) */\n      mload(0x40)\n      dup1\n      dup5\n      dup2\n      mstore\n      0x20\n      add\n      dup4\n      dup2\n      mstore\n      0x20\n      add\n      dup3\n      0xff\n      and\n      dup2\n      mstore\n      0x20\n      add\n      swap4\n      pop\n      pop\n      pop\n      pop\n      mload(0x40)\n      dup1\n      swap2\n      sub\n      swap1\n      log2\n        /* \"contract/lottery.sol\":8207:8886  if (!users[msg.sender].rounds[round].active) {\r... */\n      jump(tag_281)\n    tag_279:\n        /* \"contract/lottery.sol\":8618:8623  users */\n      0x6b\n        /* \"contract/lottery.sol\":8618:8635  users[msg.sender] */\n      0x00\n        /* \"contract/lottery.sol\":8624:8634  msg.sender */\n      caller\n        /* \"contract/lottery.sol\":8618:8635  users[msg.sender] */\n      0xffffffffffffffffffffffffffffffffffffffff\n      and\n      0xffffffffffffffffffffffffffffffffffffffff\n      and\n      dup2\n      mstore\n      0x20\n      add\n      swap1\n      dup2\n      mstore\n      0x20\n      add\n      0x00\n      keccak256\n        /* \"contract/lottery.sol\":8618:8642  users[msg.sender].rounds */\n      0x07\n      add\n        /* \"contract/lottery.sol\":8618:8649  users[msg.sender].rounds[round] */\n      0x00\n        /* \"contract/lottery.sol\":8643:8648  round */\n      dup4\n        /* \"contract/lottery.sol\":8618:8649  users[msg.sender].rounds[round] */\n      0xff\n      and\n      0xff\n      and\n      dup2\n      mstore\n      0x20\n      add\n      swap1\n      dup2\n      mstore\n      0x20\n      add\n      0x00\n      keccak256\n        /* \"contract/lottery.sol\":8618:8665  users[msg.sender].rounds[round].activationTimes */\n      0x00\n      add\n      0x00\n        /* \"contract/lottery.sol\":8618:8667  users[msg.sender].rounds[round].activationTimes++ */\n      dup2\n      dup2\n      swap1\n      sload\n      swap1\n      0x0100\n      exp\n      swap1\n      div\n      0xffff\n      and\n      dup1\n      swap3\n      swap2\n      swap1\n      0x01\n      add\n      swap2\n      swap1\n      0x0100\n      exp\n      dup2\n      sload\n      dup2\n      0xffff\n      mul\n      not\n      and\n      swap1\n      dup4\n      0xffff\n      and\n      mul\n      or\n      swap1\n      sstore\n      pop\n      pop\n        /* \"contract/lottery.sol\":2996:2997  2 */\n      0x02\n        /* \"contract/lottery.sol\":8682:8741  users[msg.sender].rounds[round].maxPayouts += rewardPayouts */\n      0xff\n      and\n        /* \"contract/lottery.sol\":8682:8687  users */\n      0x6b\n        /* \"contract/lottery.sol\":8682:8699  users[msg.sender] */\n      0x00\n        /* \"contract/lottery.sol\":8688:8698  msg.sender */\n      caller\n        /* \"contract/lottery.sol\":8682:8699  users[msg.sender] */\n      0xffffffffffffffffffffffffffffffffffffffff\n      and\n      0xffffffffffffffffffffffffffffffffffffffff\n      and\n      dup2\n      mstore\n      0x20\n      add\n      swap1\n      dup2\n      mstore\n      0x20\n      add\n      0x00\n      keccak256\n        /* \"contract/lottery.sol\":8682:8706  users[msg.sender].rounds */\n      0x07\n      add\n        /* \"contract/lottery.sol\":8682:8713  users[msg.sender].rounds[round] */\n      0x00\n        /* \"contract/lottery.sol\":8707:8712  round */\n      dup5\n        /* \"contract/lottery.sol\":8682:8713  users[msg.sender].rounds[round] */\n      0xff\n      and\n      0xff\n      and\n      dup2\n      mstore\n      0x20\n      add\n      swap1\n      dup2\n      mstore\n      0x20\n      add\n      0x00\n      keccak256\n        /* \"contract/lottery.sol\":8682:8724  users[msg.sender].rounds[round].maxPayouts */\n      0x00\n      add\n      0x02\n        /* \"contract/lottery.sol\":8682:8741  users[msg.sender].rounds[round].maxPayouts += rewardPayouts */\n      dup3\n      dup3\n      dup3\n      swap1\n      sload\n      swap1\n      0x0100\n      exp\n      swap1\n      div\n      0xffff\n      and\n      add\n      swap3\n      pop\n      0x0100\n      exp\n      dup2\n      sload\n      dup2\n      0xffff\n      mul\n      not\n      and\n      swap1\n      dup4\n      0xffff\n      and\n      mul\n      or\n      swap1\n      sstore\n      pop\n        /* \"contract/lottery.sol\":8790:8800  msg.sender */\n      caller\n        /* \"contract/lottery.sol\":8761:8874  IncreaseroundMaxPayouts(now, msg.sender, users[msg.sender].id, round, users[msg.sender].rounds[round].maxPayouts) */\n      0xffffffffffffffffffffffffffffffffffffffff\n      and\n      0x31bfa9ab73d15b5d752f5928d978dd4daba1b2dd420bb2d965c54cfe366c5534\n        /* \"contract/lottery.sol\":8785:8788  now */\n      timestamp\n        /* \"contract/lottery.sol\":8802:8807  users */\n      0x6b\n        /* \"contract/lottery.sol\":8802:8819  users[msg.sender] */\n      0x00\n        /* \"contract/lottery.sol\":8808:8818  msg.sender */\n      caller\n        /* \"contract/lottery.sol\":8802:8819  users[msg.sender] */\n      0xffffffffffffffffffffffffffffffffffffffff\n      and\n      0xffffffffffffffffffffffffffffffffffffffff\n      and\n      dup2\n      mstore\n      0x20\n      add\n      swap1\n      dup2\n      mstore\n      0x20\n      add\n      0x00\n      keccak256\n        /* \"contract/lottery.sol\":8802:8822  users[msg.sender].id */\n      0x00\n      add\n      sload\n        /* \"contract/lottery.sol\":8824:8829  round */\n      dup6\n        /* \"contract/lottery.sol\":8831:8836  users */\n      0x6b\n        /* \"contract/lottery.sol\":8831:8848  users[msg.sender] */\n      0x00\n        /* \"contract/lottery.sol\":8837:8847  msg.sender */\n      caller\n        /* \"contract/lottery.sol\":8831:8848  users[msg.sender] */\n      0xffffffffffffffffffffffffffffffffffffffff\n      and\n      0xffffffffffffffffffffffffffffffffffffffff\n      and\n      dup2\n      mstore\n      0x20\n      add\n      swap1\n      dup2\n      mstore\n      0x20\n      add\n      0x00\n      keccak256\n        /* \"contract/lottery.sol\":8831:8855  users[msg.sender].rounds */\n      0x07\n      add\n        /* \"contract/lottery.sol\":8831:8862  users[msg.sender].rounds[round] */\n      0x00\n        /* \"contract/lottery.sol\":8856:8861  round */\n      dup9\n        /* \"contract/lottery.sol\":8831:8862  users[msg.sender].rounds[round] */\n      0xff\n      and\n      0xff\n      and\n      dup2\n      mstore\n      0x20\n      add\n      swap1\n      dup2\n      mstore\n      0x20\n      add\n      0x00\n      keccak256\n        /* \"contract/lottery.sol\":8831:8873  users[msg.sender].rounds[round].maxPayouts */\n      0x00\n      add\n      0x02\n      swap1\n      sload\n      swap1\n      0x0100\n      exp\n      swap1\n      div\n      0xffff\n      and\n        /* \"contract/lottery.sol\":8761:8874  IncreaseroundMaxPayouts(now, msg.sender, users[msg.sender].id, round, users[msg.sender].rounds[round].maxPayouts) */\n      mload(0x40)\n      dup1\n      dup6\n      dup2\n      mstore\n      0x20\n      add\n      dup5\n      dup2\n      mstore\n      0x20\n      add\n      dup4\n      0xff\n      and\n      dup2\n      mstore\n      0x20\n      add\n      dup3\n      0xffff\n      and\n      dup2\n      mstore\n      0x20\n      add\n      swap5\n      pop\n      pop\n      pop\n      pop\n      pop\n      mload(0x40)\n      dup1\n      swap2\n      sub\n      swap1\n      log2\n        /* \"contract/lottery.sol\":8207:8886  if (!users[msg.sender].rounds[round].active) {\r... */\n    tag_281:\n        /* \"contract/lottery.sol\":8896:8907  uint reward */\n      0x00\n        /* \"contract/lottery.sol\":3043:3045  75 */\n      0x4b\n        /* \"contract/lottery.sol\":8910:8937  onePercent * rewardPercents */\n      0xff\n      and\n        /* \"contract/lottery.sol\":8910:8920  onePercent */\n      dup3\n        /* \"contract/lottery.sol\":8910:8937  onePercent * rewardPercents */\n      mul\n        /* \"contract/lottery.sol\":8896:8937  uint reward = onePercent * rewardPercents */\n      swap1\n      pop\n        /* \"contract/lottery.sol\":8991:9001  msg.sender */\n      caller\n        /* \"contract/lottery.sol\":8952:9001  roundQueue[round][headIndex[round]] != msg.sender */\n      0xffffffffffffffffffffffffffffffffffffffff\n      and\n        /* \"contract/lottery.sol\":8952:8962  roundQueue */\n      0x6d\n        /* \"contract/lottery.sol\":8952:8969  roundQueue[round] */\n      0x00\n        /* \"contract/lottery.sol\":8963:8968  round */\n      dup6\n        /* \"contract/lottery.sol\":8952:8969  roundQueue[round] */\n      0xff\n      and\n      0xff\n      and\n      dup2\n      mstore\n      0x20\n      add\n      swap1\n      dup2\n      mstore\n      0x20\n      add\n      0x00\n      keccak256\n        /* \"contract/lottery.sol\":8970:8979  headIndex */\n      0x6e\n        /* \"contract/lottery.sol\":8970:8986  headIndex[round] */\n      0x00\n        /* \"contract/lottery.sol\":8980:8985  round */\n      dup7\n        /* \"contract/lottery.sol\":8970:8986  headIndex[round] */\n      0xff\n      and\n      0xff\n      and\n      dup2\n      mstore\n      0x20\n      add\n      swap1\n      dup2\n      mstore\n      0x20\n      add\n      0x00\n      keccak256\n      sload\n        /* \"contract/lottery.sol\":8952:8987  roundQueue[round][headIndex[round]] */\n      dup2\n      sload\n      dup2\n      lt\n      tag_282\n      jumpi\n      invalid\n    tag_282:\n      swap1\n      0x00\n      mstore\n      keccak256(0x00, 0x20)\n      add\n      0x00\n      swap1\n      sload\n      swap1\n      0x0100\n      exp\n      swap1\n      div\n      0xffffffffffffffffffffffffffffffffffffffff\n      and\n        /* \"contract/lottery.sol\":8952:9001  roundQueue[round][headIndex[round]] != msg.sender */\n      0xffffffffffffffffffffffffffffffffffffffff\n      and\n      eq\n        /* \"contract/lottery.sol\":8948:10614  if (roundQueue[round][headIndex[round]] != msg.sender) {\r... */\n      tag_284\n      jumpi\n        /* \"contract/lottery.sol\":9018:9039  address rewardAddress */\n      0x00\n        /* \"contract/lottery.sol\":9042:9052  roundQueue */\n      0x6d\n        /* \"contract/lottery.sol\":9042:9059  roundQueue[round] */\n      0x00\n        /* \"contract/lottery.sol\":9053:9058  round */\n      dup6\n        /* \"contract/lottery.sol\":9042:9059  roundQueue[round] */\n      0xff\n      and\n      0xff\n      and\n      dup2\n      mstore\n      0x20\n      add\n      swap1\n      dup2\n      mstore\n      0x20\n      add\n      0x00\n      keccak256\n        /* \"contract/lottery.sol\":9060:9069  headIndex */\n      0x6e\n        /* \"contract/lottery.sol\":9060:9076  headIndex[round] */\n      0x00\n        /* \"contract/lottery.sol\":9070:9075  round */\n      dup7\n        /* \"contract/lottery.sol\":9060:9076  headIndex[round] */\n      0xff\n      and\n      0xff\n      and\n      dup2\n      mstore\n      0x20\n      add\n      swap1\n      dup2\n      mstore\n      0x20\n      add\n      0x00\n      keccak256\n      sload\n        /* \"contract/lottery.sol\":9042:9077  roundQueue[round][headIndex[round]] */\n      dup2\n      sload\n      dup2\n      lt\n      tag_285\n      jumpi\n      invalid\n    tag_285:\n      swap1\n      0x00\n      mstore\n      keccak256(0x00, 0x20)\n      add\n      0x00\n      swap1\n      sload\n      swap1\n      0x0100\n      exp\n      swap1\n      div\n      0xffffffffffffffffffffffffffffffffffffffff\n      and\n        /* \"contract/lottery.sol\":9018:9077  address rewardAddress = roundQueue[round][headIndex[round]] */\n      swap1\n      pop\n        /* \"contract/lottery.sol\":9092:9101  bool sent */\n      0x00\n        /* \"contract/lottery.sol\":9112:9125  rewardAddress */\n      dup2\n        /* \"contract/lottery.sol\":9104:9131  payable(rewardAddress).send */\n      0xffffffffffffffffffffffffffffffffffffffff\n      and\n        /* \"contract/lottery.sol\":9104:9139  payable(rewardAddress).send(reward) */\n      0x08fc\n        /* \"contract/lottery.sol\":9132:9138  reward */\n      dup5\n        /* \"contract/lottery.sol\":9104:9139  payable(rewardAddress).send(reward) */\n      swap1\n      dup2\n      iszero\n      mul\n      swap1\n      mload(0x40)\n      0x00\n      mload(0x40)\n      dup1\n      dup4\n      sub\n      dup2\n      dup6\n      dup9\n      dup9\n      call\n      swap4\n      pop\n      pop\n      pop\n      pop\n        /* \"contract/lottery.sol\":9092:9139  bool sent = payable(rewardAddress).send(reward) */\n      swap1\n      pop\n        /* \"contract/lottery.sol\":9158:9162  sent */\n      dup1\n        /* \"contract/lottery.sol\":9154:9931  if (sent) {\r... */\n      iszero\n      tag_288\n      jumpi\n        /* \"contract/lottery.sol\":9187:9203  uint rewardValue */\n      0x00\n        /* \"contract/lottery.sol\":9219:9247  referralRewardProfitPercents */\n      0x66\n      0x01\n      swap1\n      sload\n      swap1\n      0x0100\n      exp\n      swap1\n      div\n      0xff\n      and\n        /* \"contract/lottery.sol\":9206:9247  onePercent * referralRewardProfitPercents */\n      0xff\n      and\n        /* \"contract/lottery.sol\":9206:9216  onePercent */\n      dup6\n        /* \"contract/lottery.sol\":9206:9247  onePercent * referralRewardProfitPercents */\n      mul\n        /* \"contract/lottery.sol\":9187:9247  uint rewardValue = onePercent * referralRewardProfitPercents */\n      swap1\n      pop\n        /* \"contract/lottery.sol\":9270:9329  sendPostRewardToReferrer(rewardAddress, round, rewardValue) */\n      tag_289\n        /* \"contract/lottery.sol\":9295:9308  rewardAddress */\n      dup4\n        /* \"contract/lottery.sol\":9310:9315  round */\n      dup8\n        /* \"contract/lottery.sol\":9317:9328  rewardValue */\n      dup4\n        /* \"contract/lottery.sol\":9270:9294  sendPostRewardToReferrer */\n      tag_290\n        /* \"contract/lottery.sol\":9270:9329  sendPostRewardToReferrer(rewardAddress, round, rewardValue) */\n      jump\t// in\n    tag_289:\n        /* \"contract/lottery.sol\":9414:9420  reward */\n      dup4\n        /* \"contract/lottery.sol\":9366:9371  users */\n      0x6b\n        /* \"contract/lottery.sol\":9366:9386  users[rewardAddress] */\n      0x00\n        /* \"contract/lottery.sol\":9372:9385  rewardAddress */\n      dup6\n        /* \"contract/lottery.sol\":9366:9386  users[rewardAddress] */\n      0xffffffffffffffffffffffffffffffffffffffff\n      and\n      0xffffffffffffffffffffffffffffffffffffffff\n      and\n      dup2\n      mstore\n      0x20\n      add\n      swap1\n      dup2\n      mstore\n      0x20\n      add\n      0x00\n      keccak256\n        /* \"contract/lottery.sol\":9366:9393  users[rewardAddress].rounds */\n      0x07\n      add\n        /* \"contract/lottery.sol\":9366:9400  users[rewardAddress].rounds[round] */\n      0x00\n        /* \"contract/lottery.sol\":9394:9399  round */\n      dup9\n        /* \"contract/lottery.sol\":9366:9400  users[rewardAddress].rounds[round] */\n      0xff\n      and\n      0xff\n      and\n      dup2\n      mstore\n      0x20\n      add\n      swap1\n      dup2\n      mstore\n      0x20\n      add\n      0x00\n      keccak256\n        /* \"contract/lottery.sol\":9366:9410  users[rewardAddress].rounds[round].rewardSum */\n      0x01\n      add\n      0x00\n        /* \"contract/lottery.sol\":9366:9420  users[rewardAddress].rounds[round].rewardSum += reward */\n      dup3\n      dup3\n      sload\n      add\n      swap3\n      pop\n      pop\n      dup2\n      swap1\n      sstore\n      pop\n        /* \"contract/lottery.sol\":9439:9444  users */\n      0x6b\n        /* \"contract/lottery.sol\":9439:9459  users[rewardAddress] */\n      0x00\n        /* \"contract/lottery.sol\":9445:9458  rewardAddress */\n      dup5\n        /* \"contract/lottery.sol\":9439:9459  users[rewardAddress] */\n      0xffffffffffffffffffffffffffffffffffffffff\n      and\n      0xffffffffffffffffffffffffffffffffffffffff\n      and\n      dup2\n      mstore\n      0x20\n      add\n      swap1\n      dup2\n      mstore\n      0x20\n      add\n      0x00\n      keccak256\n        /* \"contract/lottery.sol\":9439:9466  users[rewardAddress].rounds */\n      0x07\n      add\n        /* \"contract/lottery.sol\":9439:9473  users[rewardAddress].rounds[round] */\n      0x00\n        /* \"contract/lottery.sol\":9467:9472  round */\n      dup8\n        /* \"contract/lottery.sol\":9439:9473  users[rewardAddress].rounds[round] */\n      0xff\n      and\n      0xff\n      and\n      dup2\n      mstore\n      0x20\n      add\n      swap1\n      dup2\n      mstore\n      0x20\n      add\n      0x00\n      keccak256\n        /* \"contract/lottery.sol\":9439:9481  users[rewardAddress].rounds[round].payouts */\n      0x00\n      add\n      0x04\n        /* \"contract/lottery.sol\":9439:9483  users[rewardAddress].rounds[round].payouts++ */\n      dup2\n      dup2\n      swap1\n      sload\n      swap1\n      0x0100\n      exp\n      swap1\n      div\n      0xffff\n      and\n      dup1\n      swap3\n      swap2\n      swap1\n      0x01\n      add\n      swap2\n      swap1\n      0x0100\n      exp\n      dup2\n      sload\n      dup2\n      0xffff\n      mul\n      not\n      and\n      swap1\n      dup4\n      0xffff\n      and\n      mul\n      or\n      swap1\n      sstore\n      pop\n      pop\n        /* \"contract/lottery.sol\":9542:9548  reward */\n      dup4\n        /* \"contract/lottery.sol\":9502:9507  users */\n      0x6b\n        /* \"contract/lottery.sol\":9502:9522  users[rewardAddress] */\n      0x00\n        /* \"contract/lottery.sol\":9508:9521  rewardAddress */\n      dup6\n        /* \"contract/lottery.sol\":9502:9522  users[rewardAddress] */\n      0xffffffffffffffffffffffffffffffffffffffff\n      and\n      0xffffffffffffffffffffffffffffffffffffffff\n      and\n      dup2\n      mstore\n      0x20\n      add\n      swap1\n      dup2\n      mstore\n      0x20\n      add\n      0x00\n      keccak256\n        /* \"contract/lottery.sol\":9502:9538  users[rewardAddress].roundsRewardSum */\n      0x05\n      add\n      0x00\n        /* \"contract/lottery.sol\":9502:9548  users[rewardAddress].roundsRewardSum += reward */\n      dup3\n      dup3\n      sload\n      add\n      swap3\n      pop\n      pop\n      dup2\n      swap1\n      sstore\n      pop\n        /* \"contract/lottery.sol\":9600:9606  reward */\n      dup4\n        /* \"contract/lottery.sol\":9567:9572  users */\n      0x6b\n        /* \"contract/lottery.sol\":9567:9587  users[rewardAddress] */\n      0x00\n        /* \"contract/lottery.sol\":9573:9586  rewardAddress */\n      dup6\n        /* \"contract/lottery.sol\":9567:9587  users[rewardAddress] */\n      0xffffffffffffffffffffffffffffffffffffffff\n      and\n      0xffffffffffffffffffffffffffffffffffffffff\n      and\n      dup2\n      mstore\n      0x20\n      add\n      swap1\n      dup2\n      mstore\n      0x20\n      add\n      0x00\n      keccak256\n        /* \"contract/lottery.sol\":9567:9596  users[rewardAddress].turnover */\n      0x09\n      add\n      0x00\n        /* \"contract/lottery.sol\":9567:9606  users[rewardAddress].turnover += reward */\n      dup3\n      dup3\n      sload\n      add\n      swap3\n      pop\n      pop\n      dup2\n      swap1\n      sstore\n      pop\n        /* \"contract/lottery.sol\":9667:9672  users */\n      0x6b\n        /* \"contract/lottery.sol\":9667:9687  users[rewardAddress] */\n      0x00\n        /* \"contract/lottery.sol\":9673:9686  rewardAddress */\n      dup5\n        /* \"contract/lottery.sol\":9667:9687  users[rewardAddress] */\n      0xffffffffffffffffffffffffffffffffffffffff\n      and\n      0xffffffffffffffffffffffffffffffffffffffff\n      and\n      dup2\n      mstore\n      0x20\n      add\n      swap1\n      dup2\n      mstore\n      0x20\n      add\n      0x00\n      keccak256\n        /* \"contract/lottery.sol\":9667:9694  users[rewardAddress].rounds */\n      0x07\n      add\n        /* \"contract/lottery.sol\":9667:9701  users[rewardAddress].rounds[round] */\n      0x00\n        /* \"contract/lottery.sol\":9695:9700  round */\n      dup8\n        /* \"contract/lottery.sol\":9667:9701  users[rewardAddress].rounds[round] */\n      0xff\n      and\n      0xff\n      and\n      dup2\n      mstore\n      0x20\n      add\n      swap1\n      dup2\n      mstore\n      0x20\n      add\n      0x00\n      keccak256\n        /* \"contract/lottery.sol\":9667:9718  users[rewardAddress].rounds[round].lastTimeBuyround */\n      0x03\n      add\n      sload\n        /* \"contract/lottery.sol\":9661:9664  now */\n      timestamp\n        /* \"contract/lottery.sol\":9661:9718  now - users[rewardAddress].rounds[round].lastTimeBuyround */\n      sub\n        /* \"contract/lottery.sol\":9644:9657  25 * 31536000 */\n      0x2efe0780\n        /* \"contract/lottery.sol\":9644:9719  25 * 31536000 / (now - users[rewardAddress].rounds[round].lastTimeBuyround) */\n      dup2\n      tag_291\n      jumpi\n      invalid\n    tag_291:\n      div\n        /* \"contract/lottery.sol\":9625:9634  RoiRounds */\n      0x35\n        /* \"contract/lottery.sol\":9635:9640  round */\n      dup8\n        /* \"contract/lottery.sol\":9625:9641  RoiRounds[round] */\n      0xff\n      and\n      0x10\n      dup2\n      lt\n      tag_292\n      jumpi\n      invalid\n    tag_292:\n      add\n        /* \"contract/lottery.sol\":9625:9719  RoiRounds[round] = 25 * 31536000 / (now - users[rewardAddress].rounds[round].lastTimeBuyround) */\n      dup2\n      swap1\n      sstore\n      pop\n        /* \"contract/lottery.sol\":9761:9771  msg.sender */\n      caller\n        /* \"contract/lottery.sol\":9744:9852  roundPayout(now, msg.sender, users[rewardAddress].id, round, reward, users[msg.sender].id, RoiRounds[round]) */\n      0xffffffffffffffffffffffffffffffffffffffff\n      and\n      0xe4183700b5bfcfeaf533b813f60f33ff4a041fa7bf73db1dd14fbb3eace4fa35\n        /* \"contract/lottery.sol\":9756:9759  now */\n      timestamp\n        /* \"contract/lottery.sol\":9773:9778  users */\n      0x6b\n        /* \"contract/lottery.sol\":9773:9793  users[rewardAddress] */\n      0x00\n        /* \"contract/lottery.sol\":9779:9792  rewardAddress */\n      dup8\n        /* \"contract/lottery.sol\":9773:9793  users[rewardAddress] */\n      0xffffffffffffffffffffffffffffffffffffffff\n      and\n      0xffffffffffffffffffffffffffffffffffffffff\n      and\n      dup2\n      mstore\n      0x20\n      add\n      swap1\n      dup2\n      mstore\n      0x20\n      add\n      0x00\n      keccak256\n        /* \"contract/lottery.sol\":9773:9796  users[rewardAddress].id */\n      0x00\n      add\n      sload\n        /* \"contract/lottery.sol\":9798:9803  round */\n      dup10\n        /* \"contract/lottery.sol\":9805:9811  reward */\n      dup9\n        /* \"contract/lottery.sol\":9813:9818  users */\n      0x6b\n        /* \"contract/lottery.sol\":9813:9830  users[msg.sender] */\n      0x00\n        /* \"contract/lottery.sol\":9819:9829  msg.sender */\n      caller\n        /* \"contract/lottery.sol\":9813:9830  users[msg.sender] */\n      0xffffffffffffffffffffffffffffffffffffffff\n      and\n      0xffffffffffffffffffffffffffffffffffffffff\n      and\n      dup2\n      mstore\n      0x20\n      add\n      swap1\n      dup2\n      mstore\n      0x20\n      add\n      0x00\n      keccak256\n        /* \"contract/lottery.sol\":9813:9833  users[msg.sender].id */\n      0x00\n      add\n      sload\n        /* \"contract/lottery.sol\":9835:9844  RoiRounds */\n      0x35\n        /* \"contract/lottery.sol\":9845:9850  round */\n      dup14\n        /* \"contract/lottery.sol\":9835:9851  RoiRounds[round] */\n      0xff\n      and\n      0x10\n      dup2\n      lt\n      tag_294\n      jumpi\n      invalid\n    tag_294:\n      add\n      sload\n        /* \"contract/lottery.sol\":9744:9852  roundPayout(now, msg.sender, users[rewardAddress].id, round, reward, users[msg.sender].id, RoiRounds[round]) */\n      mload(0x40)\n      dup1\n      dup8\n      dup2\n      mstore\n      0x20\n      add\n      dup7\n      dup2\n      mstore\n      0x20\n      add\n      dup6\n      0xff\n      and\n      dup2\n      mstore\n      0x20\n      add\n      dup5\n      dup2\n      mstore\n      0x20\n      add\n      dup4\n      dup2\n      mstore\n      0x20\n      add\n      dup3\n      dup2\n      mstore\n      0x20\n      add\n      swap7\n      pop\n      pop\n      pop\n      pop\n      pop\n      pop\n      pop\n      mload(0x40)\n      dup1\n      swap2\n      sub\n      swap1\n      log2\n        /* \"contract/lottery.sol\":9154:9931  if (sent) {\r... */\n      pop\n      jump(tag_296)\n    tag_288:\n        /* \"contract/lottery.sol\":9893:9898  owner */\n      0x66\n      0x02\n      swap1\n      sload\n      swap1\n      0x0100\n      exp\n      swap1\n      div\n      0xffffffffffffffffffffffffffffffffffffffff\n      and\n        /* \"contract/lottery.sol\":9893:9907  owner.transfer */\n      0xffffffffffffffffffffffffffffffffffffffff\n      and\n        /* \"contract/lottery.sol\":9893:9915  owner.transfer(reward) */\n      0x08fc\n        /* \"contract/lottery.sol\":9908:9914  reward */\n      dup5\n        /* \"contract/lottery.sol\":9893:9915  owner.transfer(reward) */\n      swap1\n      dup2\n      iszero\n      mul\n      swap1\n      mload(0x40)\n      0x00\n      mload(0x40)\n      dup1\n      dup4\n      sub\n      dup2\n      dup6\n      dup9\n      dup9\n      call\n      swap4\n      pop\n      pop\n      pop\n      pop\n      iszero\n      dup1\n      iszero\n      tag_298\n      jumpi\n      returndatasize\n      0x00\n      dup1\n      returndatacopy\n      revert(0x00, returndatasize)\n    tag_298:\n      pop\n        /* \"contract/lottery.sol\":9154:9931  if (sent) {\r... */\n    tag_296:\n        /* \"contract/lottery.sol\":9994:9999  users */\n      0x6b\n        /* \"contract/lottery.sol\":9994:10014  users[rewardAddress] */\n      0x00\n        /* \"contract/lottery.sol\":10000:10013  rewardAddress */\n      dup4\n        /* \"contract/lottery.sol\":9994:10014  users[rewardAddress] */\n      0xffffffffffffffffffffffffffffffffffffffff\n      and\n      0xffffffffffffffffffffffffffffffffffffffff\n      and\n      dup2\n      mstore\n      0x20\n      add\n      swap1\n      dup2\n      mstore\n      0x20\n      add\n      0x00\n      keccak256\n        /* \"contract/lottery.sol\":9994:10021  users[rewardAddress].rounds */\n      0x07\n      add\n        /* \"contract/lottery.sol\":9994:10028  users[rewardAddress].rounds[round] */\n      0x00\n        /* \"contract/lottery.sol\":10022:10027  round */\n      dup7\n        /* \"contract/lottery.sol\":9994:10028  users[rewardAddress].rounds[round] */\n      0xff\n      and\n      0xff\n      and\n      dup2\n      mstore\n      0x20\n      add\n      swap1\n      dup2\n      mstore\n      0x20\n      add\n      0x00\n      keccak256\n        /* \"contract/lottery.sol\":9994:10039  users[rewardAddress].rounds[round].maxPayouts */\n      0x00\n      add\n      0x02\n      swap1\n      sload\n      swap1\n      0x0100\n      exp\n      swap1\n      div\n      0xffff\n      and\n        /* \"contract/lottery.sol\":9949:10039  users[rewardAddress].rounds[round].payouts < users[rewardAddress].rounds[round].maxPayouts */\n      0xffff\n      and\n        /* \"contract/lottery.sol\":9949:9954  users */\n      0x6b\n        /* \"contract/lottery.sol\":9949:9969  users[rewardAddress] */\n      0x00\n        /* \"contract/lottery.sol\":9955:9968  rewardAddress */\n      dup5\n        /* \"contract/lottery.sol\":9949:9969  users[rewardAddress] */\n      0xffffffffffffffffffffffffffffffffffffffff\n      and\n      0xffffffffffffffffffffffffffffffffffffffff\n      and\n      dup2\n      mstore\n      0x20\n      add\n      swap1\n      dup2\n      mstore\n      0x20\n      add\n      0x00\n      keccak256\n        /* \"contract/lottery.sol\":9949:9976  users[rewardAddress].rounds */\n      0x07\n      add\n        /* \"contract/lottery.sol\":9949:9983  users[rewardAddress].rounds[round] */\n      0x00\n        /* \"contract/lottery.sol\":9977:9982  round */\n      dup8\n        /* \"contract/lottery.sol\":9949:9983  users[rewardAddress].rounds[round] */\n      0xff\n      and\n      0xff\n      and\n      dup2\n      mstore\n      0x20\n      add\n      swap1\n      dup2\n      mstore\n      0x20\n      add\n      0x00\n      keccak256\n        /* \"contract/lottery.sol\":9949:9991  users[rewardAddress].rounds[round].payouts */\n      0x00\n      add\n      0x04\n      swap1\n      sload\n      swap1\n      0x0100\n      exp\n      swap1\n      div\n      0xffff\n      and\n        /* \"contract/lottery.sol\":9949:10039  users[rewardAddress].rounds[round].payouts < users[rewardAddress].rounds[round].maxPayouts */\n      0xffff\n      and\n      lt\n        /* \"contract/lottery.sol\":9945:10293  if (users[rewardAddress].rounds[round].payouts < users[rewardAddress].rounds[round].maxPayouts) {\r... */\n      iszero\n      tag_299\n      jumpi\n        /* \"contract/lottery.sol\":10060:10070  roundQueue */\n      0x6d\n        /* \"contract/lottery.sol\":10060:10077  roundQueue[round] */\n      0x00\n        /* \"contract/lottery.sol\":10071:10076  round */\n      dup7\n        /* \"contract/lottery.sol\":10060:10077  roundQueue[round] */\n      0xff\n      and\n      0xff\n      and\n      dup2\n      mstore\n      0x20\n      add\n      swap1\n      dup2\n      mstore\n      0x20\n      add\n      0x00\n      keccak256\n        /* \"contract/lottery.sol\":10083:10096  rewardAddress */\n      dup3\n        /* \"contract/lottery.sol\":10060:10097  roundQueue[round].push(rewardAddress) */\n      swap1\n      dup1\n      0x01\n      dup2\n      sload\n      add\n      dup1\n      dup3\n      sstore\n      dup1\n      swap2\n      pop\n      pop\n      0x01\n      swap1\n      sub\n      swap1\n      0x00\n      mstore\n      keccak256(0x00, 0x20)\n      add\n      0x00\n      swap1\n      swap2\n      swap1\n      swap2\n      swap1\n      swap2\n      0x0100\n      exp\n      dup2\n      sload\n      dup2\n      0xffffffffffffffffffffffffffffffffffffffff\n      mul\n      not\n      and\n      swap1\n      dup4\n      0xffffffffffffffffffffffffffffffffffffffff\n      and\n      mul\n      or\n      swap1\n      sstore\n      pop\n        /* \"contract/lottery.sol\":9945:10293  if (users[rewardAddress].rounds[round].payouts < users[rewardAddress].rounds[round].maxPayouts) {\r... */\n      jump(tag_301)\n    tag_299:\n        /* \"contract/lottery.sol\":10182:10187  false */\n      0x00\n        /* \"contract/lottery.sol\":10138:10143  users */\n      0x6b\n        /* \"contract/lottery.sol\":10138:10158  users[rewardAddress] */\n      0x00\n        /* \"contract/lottery.sol\":10144:10157  rewardAddress */\n      dup5\n        /* \"contract/lottery.sol\":10138:10158  users[rewardAddress] */\n      0xffffffffffffffffffffffffffffffffffffffff\n      and\n      0xffffffffffffffffffffffffffffffffffffffff\n      and\n      dup2\n      mstore\n      0x20\n      add\n      swap1\n      dup2\n      mstore\n      0x20\n      add\n      0x00\n      keccak256\n        /* \"contract/lottery.sol\":10138:10165  users[rewardAddress].rounds */\n      0x07\n      add\n        /* \"contract/lottery.sol\":10138:10172  users[rewardAddress].rounds[round] */\n      0x00\n        /* \"contract/lottery.sol\":10166:10171  round */\n      dup8\n        /* \"contract/lottery.sol\":10138:10172  users[rewardAddress].rounds[round] */\n      0xff\n      and\n      0xff\n      and\n      dup2\n      mstore\n      0x20\n      add\n      swap1\n      dup2\n      mstore\n      0x20\n      add\n      0x00\n      keccak256\n        /* \"contract/lottery.sol\":10138:10179  users[rewardAddress].rounds[round].active */\n      0x00\n      add\n      0x06\n        /* \"contract/lottery.sol\":10138:10187  users[rewardAddress].rounds[round].active = false */\n      0x0100\n      exp\n      dup2\n      sload\n      dup2\n      0xff\n      mul\n      not\n      and\n      swap1\n      dup4\n      iszero\n      iszero\n      mul\n      or\n      swap1\n      sstore\n      pop\n        /* \"contract/lottery.sol\":10234:10244  msg.sender */\n      caller\n        /* \"contract/lottery.sol\":10211:10277  roundDeactivation(now, msg.sender, users[rewardAddress].id, round) */\n      0xffffffffffffffffffffffffffffffffffffffff\n      and\n      0x1524ba6dfa482cf4eda16273d76657ddb7f563b2e8a6c3f294564de0ffc66211\n        /* \"contract/lottery.sol\":10229:10232  now */\n      timestamp\n        /* \"contract/lottery.sol\":10246:10251  users */\n      0x6b\n        /* \"contract/lottery.sol\":10246:10266  users[rewardAddress] */\n      0x00\n        /* \"contract/lottery.sol\":10252:10265  rewardAddress */\n      dup7\n        /* \"contract/lottery.sol\":10246:10266  users[rewardAddress] */\n      0xffffffffffffffffffffffffffffffffffffffff\n      and\n      0xffffffffffffffffffffffffffffffffffffffff\n      and\n      dup2\n      mstore\n      0x20\n      add\n      swap1\n      dup2\n      mstore\n      0x20\n      add\n      0x00\n      keccak256\n        /* \"contract/lottery.sol\":10246:10269  users[rewardAddress].id */\n      0x00\n      add\n      sload\n        /* \"contract/lottery.sol\":10271:10276  round */\n      dup9\n        /* \"contract/lottery.sol\":10211:10277  roundDeactivation(now, msg.sender, users[rewardAddress].id, round) */\n      mload(0x40)\n      dup1\n      dup5\n      dup2\n      mstore\n      0x20\n      add\n      dup4\n      dup2\n      mstore\n      0x20\n      add\n      dup3\n      0xff\n      and\n      dup2\n      mstore\n      0x20\n      add\n      swap4\n      pop\n      pop\n      pop\n      pop\n      mload(0x40)\n      dup1\n      swap2\n      sub\n      swap1\n      log2\n        /* \"contract/lottery.sol\":9945:10293  if (users[rewardAddress].rounds[round].payouts < users[rewardAddress].rounds[round].maxPayouts) {\r... */\n    tag_301:\n        /* \"contract/lottery.sol\":10314:10324  roundQueue */\n      0x6d\n        /* \"contract/lottery.sol\":10314:10331  roundQueue[round] */\n      0x00\n        /* \"contract/lottery.sol\":10325:10330  round */\n      dup7\n        /* \"contract/lottery.sol\":10314:10331  roundQueue[round] */\n      0xff\n      and\n      0xff\n      and\n      dup2\n      mstore\n      0x20\n      add\n      swap1\n      dup2\n      mstore\n      0x20\n      add\n      0x00\n      keccak256\n        /* \"contract/lottery.sol\":10332:10341  headIndex */\n      0x6e\n        /* \"contract/lottery.sol\":10332:10348  headIndex[round] */\n      0x00\n        /* \"contract/lottery.sol\":10342:10347  round */\n      dup8\n        /* \"contract/lottery.sol\":10332:10348  headIndex[round] */\n      0xff\n      and\n      0xff\n      and\n      dup2\n      mstore\n      0x20\n      add\n      swap1\n      dup2\n      mstore\n      0x20\n      add\n      0x00\n      keccak256\n      sload\n        /* \"contract/lottery.sol\":10314:10349  roundQueue[round][headIndex[round]] */\n      dup2\n      sload\n      dup2\n      lt\n      tag_302\n      jumpi\n      invalid\n    tag_302:\n      swap1\n      0x00\n      mstore\n      keccak256(0x00, 0x20)\n      add\n      0x00\n        /* \"contract/lottery.sol\":10307:10349  delete roundQueue[round][headIndex[round]] */\n      0x0100\n      exp\n      dup2\n      sload\n      swap1\n      0xffffffffffffffffffffffffffffffffffffffff\n      mul\n      not\n      and\n      swap1\n      sstore\n        /* \"contract/lottery.sol\":10364:10373  headIndex */\n      0x6e\n        /* \"contract/lottery.sol\":10364:10380  headIndex[round] */\n      0x00\n        /* \"contract/lottery.sol\":10374:10379  round */\n      dup7\n        /* \"contract/lottery.sol\":10364:10380  headIndex[round] */\n      0xff\n      and\n      0xff\n      and\n      dup2\n      mstore\n      0x20\n      add\n      swap1\n      dup2\n      mstore\n      0x20\n      add\n      0x00\n      keccak256\n      0x00\n        /* \"contract/lottery.sol\":10364:10382  headIndex[round]++ */\n      dup2\n      sload\n      dup1\n      swap3\n      swap2\n      swap1\n      0x01\n      add\n      swap2\n      swap1\n      pop\n      sstore\n      pop\n        /* \"contract/lottery.sol\":8948:10614  if (roundQueue[round][headIndex[round]] != msg.sender) {\r... */\n      pop\n      pop\n      jump(tag_304)\n    tag_284:\n        /* \"contract/lottery.sol\":10415:10420  owner */\n      0x66\n      0x02\n      swap1\n      sload\n      swap1\n      0x0100\n      exp\n      swap1\n      div\n      0xffffffffffffffffffffffffffffffffffffffff\n      and\n        /* \"contract/lottery.sol\":10415:10429  owner.transfer */\n      0xffffffffffffffffffffffffffffffffffffffff\n      and\n        /* \"contract/lottery.sol\":10415:10437  owner.transfer(reward) */\n      0x08fc\n        /* \"contract/lottery.sol\":10430:10436  reward */\n      dup3\n        /* \"contract/lottery.sol\":10415:10437  owner.transfer(reward) */\n      swap1\n      dup2\n      iszero\n      mul\n      swap1\n      mload(0x40)\n      0x00\n      mload(0x40)\n      dup1\n      dup4\n      sub\n      dup2\n      dup6\n      dup9\n      dup9\n      call\n      swap4\n      pop\n      pop\n      pop\n      pop\n      iszero\n      dup1\n      iszero\n      tag_306\n      jumpi\n      returndatasize\n      0x00\n      dup1\n      returndatacopy\n      revert(0x00, returndatasize)\n    tag_306:\n      pop\n        /* \"contract/lottery.sol\":10452:10457  users */\n      0x6b\n        /* \"contract/lottery.sol\":10452:10464  users[owner] */\n      0x00\n        /* \"contract/lottery.sol\":10458:10463  owner */\n      0x66\n      0x02\n      swap1\n      sload\n      swap1\n      0x0100\n      exp\n      swap1\n      div\n      0xffffffffffffffffffffffffffffffffffffffff\n      and\n        /* \"contract/lottery.sol\":10452:10464  users[owner] */\n      0xffffffffffffffffffffffffffffffffffffffff\n      and\n      0xffffffffffffffffffffffffffffffffffffffff\n      and\n      dup2\n      mstore\n      0x20\n      add\n      swap1\n      dup2\n      mstore\n      0x20\n      add\n      0x00\n      keccak256\n        /* \"contract/lottery.sol\":10452:10471  users[owner].rounds */\n      0x07\n      add\n        /* \"contract/lottery.sol\":10452:10478  users[owner].rounds[round] */\n      0x00\n        /* \"contract/lottery.sol\":10472:10477  round */\n      dup5\n        /* \"contract/lottery.sol\":10452:10478  users[owner].rounds[round] */\n      0xff\n      and\n      0xff\n      and\n      dup2\n      mstore\n      0x20\n      add\n      swap1\n      dup2\n      mstore\n      0x20\n      add\n      0x00\n      keccak256\n        /* \"contract/lottery.sol\":10452:10486  users[owner].rounds[round].payouts */\n      0x00\n      add\n      0x04\n        /* \"contract/lottery.sol\":10452:10488  users[owner].rounds[round].payouts++ */\n      dup2\n      dup2\n      swap1\n      sload\n      swap1\n      0x0100\n      exp\n      swap1\n      div\n      0xffff\n      and\n      dup1\n      swap3\n      swap2\n      swap1\n      0x01\n      add\n      swap2\n      swap1\n      0x0100\n      exp\n      dup2\n      sload\n      dup2\n      0xffff\n      mul\n      not\n      and\n      swap1\n      dup4\n      0xffff\n      and\n      mul\n      or\n      swap1\n      sstore\n      pop\n      pop\n        /* \"contract/lottery.sol\":10543:10549  reward */\n      dup1\n        /* \"contract/lottery.sol\":10503:10508  users */\n      0x6b\n        /* \"contract/lottery.sol\":10503:10515  users[owner] */\n      0x00\n        /* \"contract/lottery.sol\":10509:10514  owner */\n      0x66\n      0x02\n      swap1\n      sload\n      swap1\n      0x0100\n      exp\n      swap1\n      div\n      0xffffffffffffffffffffffffffffffffffffffff\n      and\n        /* \"contract/lottery.sol\":10503:10515  users[owner] */\n      0xffffffffffffffffffffffffffffffffffffffff\n      and\n      0xffffffffffffffffffffffffffffffffffffffff\n      and\n      dup2\n      mstore\n      0x20\n      add\n      swap1\n      dup2\n      mstore\n      0x20\n      add\n      0x00\n      keccak256\n        /* \"contract/lottery.sol\":10503:10522  users[owner].rounds */\n      0x07\n      add\n        /* \"contract/lottery.sol\":10503:10529  users[owner].rounds[round] */\n      0x00\n        /* \"contract/lottery.sol\":10523:10528  round */\n      dup6\n        /* \"contract/lottery.sol\":10503:10529  users[owner].rounds[round] */\n      0xff\n      and\n      0xff\n      and\n      dup2\n      mstore\n      0x20\n      add\n      swap1\n      dup2\n      mstore\n      0x20\n      add\n      0x00\n      keccak256\n        /* \"contract/lottery.sol\":10503:10539  users[owner].rounds[round].rewardSum */\n      0x01\n      add\n      0x00\n        /* \"contract/lottery.sol\":10503:10549  users[owner].rounds[round].rewardSum += reward */\n      dup3\n      dup3\n      sload\n      add\n      swap3\n      pop\n      pop\n      dup2\n      swap1\n      sstore\n      pop\n        /* \"contract/lottery.sol\":10596:10602  reward */\n      dup1\n        /* \"contract/lottery.sol\":10564:10569  users */\n      0x6b\n        /* \"contract/lottery.sol\":10564:10576  users[owner] */\n      0x00\n        /* \"contract/lottery.sol\":10570:10575  owner */\n      0x66\n      0x02\n      swap1\n      sload\n      swap1\n      0x0100\n      exp\n      swap1\n      div\n      0xffffffffffffffffffffffffffffffffffffffff\n      and\n        /* \"contract/lottery.sol\":10564:10576  users[owner] */\n      0xffffffffffffffffffffffffffffffffffffffff\n      and\n      0xffffffffffffffffffffffffffffffffffffffff\n      and\n      dup2\n      mstore\n      0x20\n      add\n      swap1\n      dup2\n      mstore\n      0x20\n      add\n      0x00\n      keccak256\n        /* \"contract/lottery.sol\":10564:10592  users[owner].roundsRewardSum */\n      0x05\n      add\n      0x00\n        /* \"contract/lottery.sol\":10564:10602  users[owner].roundsRewardSum += reward */\n      dup3\n      dup3\n      sload\n      add\n      swap3\n      pop\n      pop\n      dup2\n      swap1\n      sstore\n      pop\n        /* \"contract/lottery.sol\":8948:10614  if (roundQueue[round][headIndex[round]] != msg.sender) {\r... */\n    tag_304:\n        /* \"contract/lottery.sol\":10628:10644  uint rewardValue */\n      0x00\n        /* \"contract/lottery.sol\":10660:10682  referralRewardPercents */\n      0x66\n      0x00\n      swap1\n      sload\n      swap1\n      0x0100\n      exp\n      swap1\n      div\n      0xff\n      and\n        /* \"contract/lottery.sol\":10647:10682  onePercent * referralRewardPercents */\n      0xff\n      and\n        /* \"contract/lottery.sol\":10647:10657  onePercent */\n      dup4\n        /* \"contract/lottery.sol\":10647:10682  onePercent * referralRewardPercents */\n      mul\n        /* \"contract/lottery.sol\":10628:10682  uint rewardValue = onePercent * referralRewardPercents */\n      swap1\n      pop\n        /* \"contract/lottery.sol\":10697:10749  sendRewardToReferrer(msg.sender, round, rewardValue) */\n      tag_307\n        /* \"contract/lottery.sol\":10718:10728  msg.sender */\n      caller\n        /* \"contract/lottery.sol\":10730:10735  round */\n      dup6\n        /* \"contract/lottery.sol\":10737:10748  rewardValue */\n      dup4\n        /* \"contract/lottery.sol\":10697:10717  sendRewardToReferrer */\n      tag_308\n        /* \"contract/lottery.sol\":10697:10749  sendRewardToReferrer(msg.sender, round, rewardValue) */\n      jump\t// in\n    tag_307:\n        /* \"contract/lottery.sol\":10771:10783  bool success */\n      0x00\n        /* \"contract/lottery.sol\":10789:10798  marketing */\n      0x67\n      0x00\n      swap1\n      sload\n      swap1\n      0x0100\n      exp\n      swap1\n      div\n      0xffffffffffffffffffffffffffffffffffffffff\n      and\n        /* \"contract/lottery.sol\":10789:10803  marketing.call */\n      0xffffffffffffffffffffffffffffffffffffffff\n      and\n        /* \"contract/lottery.sol\":3094:3095  7 */\n      0x07\n        /* \"contract/lottery.sol\":10811:10841  onePercent * marketingPercents */\n      0xff\n      and\n        /* \"contract/lottery.sol\":10811:10821  onePercent */\n      dup6\n        /* \"contract/lottery.sol\":10811:10841  onePercent * marketingPercents */\n      mul\n        /* \"contract/lottery.sol\":10789:10846  marketing.call{value: onePercent * marketingPercents}(\"\") */\n      mload(0x40)\n      dup1\n      0x00\n      add\n      swap1\n      pop\n      0x00\n      mload(0x40)\n      dup1\n      dup4\n      sub\n      dup2\n      dup6\n      dup8\n      gas\n      call\n      swap3\n      pop\n      pop\n      pop\n      returndatasize\n      dup1\n      0x00\n      dup2\n      eq\n      tag_311\n      jumpi\n      mload(0x40)\n      swap2\n      pop\n      and(add(returndatasize, 0x3f), not(0x1f))\n      dup3\n      add\n      0x40\n      mstore\n      returndatasize\n      dup3\n      mstore\n      returndatasize\n      0x00\n      0x20\n      dup5\n      add\n      returndatacopy\n      jump(tag_310)\n    tag_311:\n      0x60\n      swap2\n      pop\n    tag_310:\n      pop\n        /* \"contract/lottery.sol\":10770:10846  (bool success, ) = marketing.call{value: onePercent * marketingPercents}(\"\") */\n      pop\n      swap1\n      pop\n        /* \"contract/lottery.sol\":10865:10872  success */\n      dup1\n        /* \"contract/lottery.sol\":10857:10908  require(success, \"transfer failed while buy round\") */\n      tag_312\n      jumpi\n      mload(0x40)\n      0x08c379a000000000000000000000000000000000000000000000000000000000\n      dup2\n      mstore\n      0x04\n      add\n      dup1\n      dup1\n      0x20\n      add\n      dup3\n      dup2\n      sub\n      dup3\n      mstore\n      0x1f\n      dup2\n      mstore\n      0x20\n      add\n      dup1\n      0x7472616e73666572206661696c6564207768696c652062757920726f756e6400\n      dup2\n      mstore\n      pop\n      0x20\n      add\n      swap2\n      pop\n      pop\n      mload(0x40)\n      dup1\n      swap2\n      sub\n      swap1\n      revert\n    tag_312:\n        /* \"contract/lottery.sol\":430:431  _ */\n      pop\n      pop\n      pop\n      pop\n        /* \"contract/lottery.sol\":136:137  1 */\n      0x01\n        /* \"contract/lottery.sol\":442:449  _status */\n      0x00\n        /* \"contract/lottery.sol\":442:464  _status = _NOT_ENTERED */\n      dup2\n      swap1\n      sstore\n      pop\n        /* \"contract/lottery.sol\":6718:10916  function buyround(uint8 round) public payable nonReentrant{\r... */\n      pop\n      jump\t// out\n        /* \"contract/lottery.sol\":17009:17106  function getroundPrices() public view returns(uint[] memory) {\r... */\n    tag_69:\n        /* \"contract/lottery.sol\":17055:17068  uint[] memory */\n      0x60\n        /* \"contract/lottery.sol\":17088:17098  roundPrice */\n      0x68\n        /* \"contract/lottery.sol\":17081:17098  return roundPrice */\n      dup1\n      sload\n      dup1\n      0x20\n      mul\n      0x20\n      add\n      mload(0x40)\n      swap1\n      dup2\n      add\n      0x40\n      mstore\n      dup1\n      swap3\n      swap2\n      swap1\n      dup2\n      dup2\n      mstore\n      0x20\n      add\n      dup3\n      dup1\n      sload\n      dup1\n      iszero\n      tag_314\n      jumpi\n      0x20\n      mul\n      dup3\n      add\n      swap2\n      swap1\n      0x00\n      mstore\n      keccak256(0x00, 0x20)\n      swap1\n    tag_315:\n      dup2\n      sload\n      dup2\n      mstore\n      0x20\n      add\n      swap1\n      0x01\n      add\n      swap1\n      dup1\n      dup4\n      gt\n      tag_315\n      jumpi\n    tag_314:\n      pop\n      pop\n      pop\n      pop\n      pop\n      swap1\n      pop\n        /* \"contract/lottery.sol\":17009:17106  function getroundPrices() public view returns(uint[] memory) {\r... */\n      swap1\n      jump\t// out\n        /* \"contract/lottery.sol\":4797:4985  function isContract(address addr) public view returns (bool) {\r... */\n    tag_76:\n        /* \"contract/lottery.sol\":4852:4856  bool */\n      0x00\n        /* \"contract/lottery.sol\":4869:4880  uint32 size */\n      dup1\n        /* \"contract/lottery.sol\":4935:4939  addr */\n      dup3\n        /* \"contract/lottery.sol\":4923:4940  extcodesize(addr) */\n      extcodesize\n        /* \"contract/lottery.sol\":4915:4940  size := extcodesize(addr) */\n      swap1\n      pop\n        /* \"contract/lottery.sol\":4976:4977  0 */\n      0x00\n        /* \"contract/lottery.sol\":4968:4972  size */\n      dup2\n        /* \"contract/lottery.sol\":4968:4977  size != 0 */\n      0xffffffff\n      and\n      eq\n      iszero\n        /* \"contract/lottery.sol\":4961:4977  return size != 0 */\n      swap2\n      pop\n      pop\n        /* \"contract/lottery.sol\":4797:4985  function isContract(address addr) public view returns (bool) {\r... */\n      swap2\n      swap1\n      pop\n      jump\t// out\n        /* \"contract/lottery.sol\":525:555  address[50] public  todayWiner */\n    tag_84:\n      0x01\n      dup2\n      0x32\n      dup2\n      lt\n      tag_317\n      jumpi\n      invalid\n    tag_317:\n      add\n      0x00\n      swap2\n      pop\n      sload\n      swap1\n      0x0100\n      exp\n      swap1\n      div\n      0xffffffffffffffffffffffffffffffffffffffff\n      and\n      dup2\n      jump\t// out\n        /* \"contract/lottery.sol\":2903:2951  uint public constant registrationPrice = 0 ether */\n    tag_87:\n        /* \"contract/lottery.sol\":2944:2951  0 ether */\n      0x00\n        /* \"contract/lottery.sol\":2903:2951  uint public constant registrationPrice = 0 ether */\n      dup2\n      jump\t// out\n        /* \"contract/lottery.sol\":15783:17003  function getUserrounds(address userAddress) public view returns (bool[] memory, uint16[] memory, uint16[] memory, uint16[] memory, uint[] memory, uint[] memory) {\r... */\n    tag_91:\n        /* \"contract/lottery.sol\":15848:15861  bool[] memory */\n      0x60\n        /* \"contract/lottery.sol\":15863:15878  uint16[] memory */\n      dup1\n        /* \"contract/lottery.sol\":15880:15895  uint16[] memory */\n      0x60\n        /* \"contract/lottery.sol\":15897:15912  uint16[] memory */\n      dup1\n        /* \"contract/lottery.sol\":15914:15927  uint[] memory */\n      0x60\n        /* \"contract/lottery.sol\":15929:15942  uint[] memory */\n      dup1\n        /* \"contract/lottery.sol\":15955:15975  bool[] memory active */\n      0x60\n        /* \"contract/lottery.sol\":16003:16004  1 */\n      0x01\n        /* \"contract/lottery.sol\":15989:16000  totalrounds */\n      sload(0x69)\n        /* \"contract/lottery.sol\":15989:16004  totalrounds + 1 */\n      add\n        /* \"contract/lottery.sol\":15978:16005  new bool[](totalrounds + 1) */\n      0xffffffffffffffff\n      dup2\n      gt\n      dup1\n      iszero\n      tag_320\n      jumpi\n      0x00\n      dup1\n      revert\n    tag_320:\n      pop\n      mload(0x40)\n      swap1\n      dup1\n      dup3\n      mstore\n      dup1\n      0x20\n      mul\n      0x20\n      add\n      dup3\n      add\n      0x40\n      mstore\n      dup1\n      iszero\n      tag_321\n      jumpi\n      dup2\n      0x20\n      add\n      0x20\n      dup3\n      mul\n      dup1\n      calldatasize\n      dup4\n      calldatacopy\n      dup1\n      dup3\n      add\n      swap2\n      pop\n      pop\n      swap1\n      pop\n    tag_321:\n      pop\n        /* \"contract/lottery.sol\":15955:16005  bool[] memory active = new bool[](totalrounds + 1) */\n      swap1\n      pop\n        /* \"contract/lottery.sol\":16016:16039  uint16[] memory payouts */\n      0x60\n        /* \"contract/lottery.sol\":16069:16070  1 */\n      0x01\n        /* \"contract/lottery.sol\":16055:16066  totalrounds */\n      sload(0x69)\n        /* \"contract/lottery.sol\":16055:16070  totalrounds + 1 */\n      add\n        /* \"contract/lottery.sol\":16042:16071  new uint16[](totalrounds + 1) */\n      0xffffffffffffffff\n      dup2\n      gt\n      dup1\n      iszero\n      tag_322\n      jumpi\n      0x00\n      dup1\n      revert\n    tag_322:\n      pop\n      mload(0x40)\n      swap1\n      dup1\n      dup3\n      mstore\n      dup1\n      0x20\n      mul\n      0x20\n      add\n      dup3\n      add\n      0x40\n      mstore\n      dup1\n      iszero\n      tag_323\n      jumpi\n      dup2\n      0x20\n      add\n      0x20\n      dup3\n      mul\n      dup1\n      calldatasize\n      dup4\n      calldatacopy\n      dup1\n      dup3\n      add\n      swap2\n      pop\n      pop\n      swap1\n      pop\n    tag_323:\n      pop\n        /* \"contract/lottery.sol\":16016:16071  uint16[] memory payouts = new uint16[](totalrounds + 1) */\n      swap1\n      pop\n        /* \"contract/lottery.sol\":16082:16108  uint16[] memory maxPayouts */\n      0x60\n        /* \"contract/lottery.sol\":16138:16139  1 */\n      0x01\n        /* \"contract/lottery.sol\":16124:16135  totalrounds */\n      sload(0x69)\n        /* \"contract/lottery.sol\":16124:16139  totalrounds + 1 */\n      add\n        /* \"contract/lottery.sol\":16111:16140  new uint16[](totalrounds + 1) */\n      0xffffffffffffffff\n      dup2\n      gt\n      dup1\n      iszero\n      tag_324\n      jumpi\n      0x00\n      dup1\n      revert\n    tag_324:\n      pop\n      mload(0x40)\n      swap1\n      dup1\n      dup3\n      mstore\n      dup1\n      0x20\n      mul\n      0x20\n      add\n      dup3\n      add\n      0x40\n      mstore\n      dup1\n      iszero\n      tag_325\n      jumpi\n      dup2\n      0x20\n      add\n      0x20\n      dup3\n      mul\n      dup1\n      calldatasize\n      dup4\n      calldatacopy\n      dup1\n      dup3\n      add\n      swap2\n      pop\n      pop\n      swap1\n      pop\n    tag_325:\n      pop\n        /* \"contract/lottery.sol\":16082:16140  uint16[] memory maxPayouts = new uint16[](totalrounds + 1) */\n      swap1\n      pop\n        /* \"contract/lottery.sol\":16151:16182  uint16[] memory activationTimes */\n      0x60\n        /* \"contract/lottery.sol\":16212:16213  1 */\n      0x01\n        /* \"contract/lottery.sol\":16198:16209  totalrounds */\n      sload(0x69)\n        /* \"contract/lottery.sol\":16198:16213  totalrounds + 1 */\n      add\n        /* \"contract/lottery.sol\":16185:16214  new uint16[](totalrounds + 1) */\n      0xffffffffffffffff\n      dup2\n      gt\n      dup1\n      iszero\n      tag_326\n      jumpi\n      0x00\n      dup1\n      revert\n    tag_326:\n      pop\n      mload(0x40)\n      swap1\n      dup1\n      dup3\n      mstore\n      dup1\n      0x20\n      mul\n      0x20\n      add\n      dup3\n      add\n      0x40\n      mstore\n      dup1\n      iszero\n      tag_327\n      jumpi\n      dup2\n      0x20\n      add\n      0x20\n      dup3\n      mul\n      dup1\n      calldatasize\n      dup4\n      calldatacopy\n      dup1\n      dup3\n      add\n      swap2\n      pop\n      pop\n      swap1\n      pop\n    tag_327:\n      pop\n        /* \"contract/lottery.sol\":16151:16214  uint16[] memory activationTimes = new uint16[](totalrounds + 1) */\n      swap1\n      pop\n        /* \"contract/lottery.sol\":16225:16248  uint[] memory rewardSum */\n      0x60\n        /* \"contract/lottery.sol\":16276:16277  1 */\n      0x01\n        /* \"contract/lottery.sol\":16262:16273  totalrounds */\n      sload(0x69)\n        /* \"contract/lottery.sol\":16262:16277  totalrounds + 1 */\n      add\n        /* \"contract/lottery.sol\":16251:16278  new uint[](totalrounds + 1) */\n      0xffffffffffffffff\n      dup2\n      gt\n      dup1\n      iszero\n      tag_328\n      jumpi\n      0x00\n      dup1\n      revert\n    tag_328:\n      pop\n      mload(0x40)\n      swap1\n      dup1\n      dup3\n      mstore\n      dup1\n      0x20\n      mul\n      0x20\n      add\n      dup3\n      add\n      0x40\n      mstore\n      dup1\n      iszero\n      tag_329\n      jumpi\n      dup2\n      0x20\n      add\n      0x20\n      dup3\n      mul\n      dup1\n      calldatasize\n      dup4\n      calldatacopy\n      dup1\n      dup3\n      add\n      swap2\n      pop\n      pop\n      swap1\n      pop\n    tag_329:\n      pop\n        /* \"contract/lottery.sol\":16225:16278  uint[] memory rewardSum = new uint[](totalrounds + 1) */\n      swap1\n      pop\n        /* \"contract/lottery.sol\":16289:16320  uint[] memory referralPayoutSum */\n      0x60\n        /* \"contract/lottery.sol\":16348:16349  1 */\n      0x01\n        /* \"contract/lottery.sol\":16334:16345  totalrounds */\n      sload(0x69)\n        /* \"contract/lottery.sol\":16334:16349  totalrounds + 1 */\n      add\n        /* \"contract/lottery.sol\":16323:16350  new uint[](totalrounds + 1) */\n      0xffffffffffffffff\n      dup2\n      gt\n      dup1\n      iszero\n      tag_330\n      jumpi\n      0x00\n      dup1\n      revert\n    tag_330:\n      pop\n      mload(0x40)\n      swap1\n      dup1\n      dup3\n      mstore\n      dup1\n      0x20\n      mul\n      0x20\n      add\n      dup3\n      add\n      0x40\n      mstore\n      dup1\n      iszero\n      tag_331\n      jumpi\n      dup2\n      0x20\n      add\n      0x20\n      dup3\n      mul\n      dup1\n      calldatasize\n      dup4\n      calldatacopy\n      dup1\n      dup3\n      add\n      swap2\n      pop\n      pop\n      swap1\n      pop\n    tag_331:\n      pop\n        /* \"contract/lottery.sol\":16289:16350  uint[] memory referralPayoutSum = new uint[](totalrounds + 1) */\n      swap1\n      pop\n        /* \"contract/lottery.sol\":16366:16377  uint8 round */\n      0x00\n        /* \"contract/lottery.sol\":16380:16381  1 */\n      0x01\n        /* \"contract/lottery.sol\":16366:16381  uint8 round = 1 */\n      swap1\n      pop\n        /* \"contract/lottery.sol\":16361:16902  for (uint8 round = 1; round <= totalrounds; round++) {\r... */\n    tag_332:\n        /* \"contract/lottery.sol\":16392:16403  totalrounds */\n      sload(0x69)\n        /* \"contract/lottery.sol\":16383:16388  round */\n      dup2\n        /* \"contract/lottery.sol\":16383:16403  round <= totalrounds */\n      0xff\n      and\n      gt\n        /* \"contract/lottery.sol\":16361:16902  for (uint8 round = 1; round <= totalrounds; round++) {\r... */\n      tag_333\n      jumpi\n        /* \"contract/lottery.sol\":16445:16450  users */\n      0x6b\n        /* \"contract/lottery.sol\":16445:16463  users[userAddress] */\n      0x00\n        /* \"contract/lottery.sol\":16451:16462  userAddress */\n      dup16\n        /* \"contract/lottery.sol\":16445:16463  users[userAddress] */\n      0xffffffffffffffffffffffffffffffffffffffff\n      and\n      0xffffffffffffffffffffffffffffffffffffffff\n      and\n      dup2\n      mstore\n      0x20\n      add\n      swap1\n      dup2\n      mstore\n      0x20\n      add\n      0x00\n      keccak256\n        /* \"contract/lottery.sol\":16445:16470  users[userAddress].rounds */\n      0x07\n      add\n        /* \"contract/lottery.sol\":16445:16477  users[userAddress].rounds[round] */\n      0x00\n        /* \"contract/lottery.sol\":16471:16476  round */\n      dup3\n        /* \"contract/lottery.sol\":16445:16477  users[userAddress].rounds[round] */\n      0xff\n      and\n      0xff\n      and\n      dup2\n      mstore\n      0x20\n      add\n      swap1\n      dup2\n      mstore\n      0x20\n      add\n      0x00\n      keccak256\n        /* \"contract/lottery.sol\":16445:16484  users[userAddress].rounds[round].active */\n      0x00\n      add\n      0x06\n      swap1\n      sload\n      swap1\n      0x0100\n      exp\n      swap1\n      div\n      0xff\n      and\n        /* \"contract/lottery.sol\":16429:16435  active */\n      dup8\n        /* \"contract/lottery.sol\":16436:16441  round */\n      dup3\n        /* \"contract/lottery.sol\":16429:16442  active[round] */\n      0xff\n      and\n      dup2\n      mload\n      dup2\n      lt\n      tag_335\n      jumpi\n      invalid\n    tag_335:\n      0x20\n      mul\n      0x20\n      add\n      add\n        /* \"contract/lottery.sol\":16429:16484  active[round] = users[userAddress].rounds[round].active */\n      swap1\n      iszero\n      iszero\n      swap1\n      dup2\n      iszero\n      iszero\n      dup2\n      mstore\n      pop\n      pop\n        /* \"contract/lottery.sol\":16516:16521  users */\n      0x6b\n        /* \"contract/lottery.sol\":16516:16534  users[userAddress] */\n      0x00\n        /* \"contract/lottery.sol\":16522:16533  userAddress */\n      dup16\n        /* \"contract/lottery.sol\":16516:16534  users[userAddress] */\n      0xffffffffffffffffffffffffffffffffffffffff\n      and\n      0xffffffffffffffffffffffffffffffffffffffff\n      and\n      dup2\n      mstore\n      0x20\n      add\n      swap1\n      dup2\n      mstore\n      0x20\n      add\n      0x00\n      keccak256\n        /* \"contract/lottery.sol\":16516:16541  users[userAddress].rounds */\n      0x07\n      add\n        /* \"contract/lottery.sol\":16516:16548  users[userAddress].rounds[round] */\n      0x00\n        /* \"contract/lottery.sol\":16542:16547  round */\n      dup3\n        /* \"contract/lottery.sol\":16516:16548  users[userAddress].rounds[round] */\n      0xff\n      and\n      0xff\n      and\n      dup2\n      mstore\n      0x20\n      add\n      swap1\n      dup2\n      mstore\n      0x20\n      add\n      0x00\n      keccak256\n        /* \"contract/lottery.sol\":16516:16556  users[userAddress].rounds[round].payouts */\n      0x00\n      add\n      0x04\n      swap1\n      sload\n      swap1\n      0x0100\n      exp\n      swap1\n      div\n      0xffff\n      and\n        /* \"contract/lottery.sol\":16499:16506  payouts */\n      dup7\n        /* \"contract/lottery.sol\":16507:16512  round */\n      dup3\n        /* \"contract/lottery.sol\":16499:16513  payouts[round] */\n      0xff\n      and\n      dup2\n      mload\n      dup2\n      lt\n      tag_336\n      jumpi\n      invalid\n    tag_336:\n      0x20\n      mul\n      0x20\n      add\n      add\n        /* \"contract/lottery.sol\":16499:16556  payouts[round] = users[userAddress].rounds[round].payouts */\n      swap1\n      0xffff\n      and\n      swap1\n      dup2\n      0xffff\n      and\n      dup2\n      mstore\n      pop\n      pop\n        /* \"contract/lottery.sol\":16591:16596  users */\n      0x6b\n        /* \"contract/lottery.sol\":16591:16609  users[userAddress] */\n      0x00\n        /* \"contract/lottery.sol\":16597:16608  userAddress */\n      dup16\n        /* \"contract/lottery.sol\":16591:16609  users[userAddress] */\n      0xffffffffffffffffffffffffffffffffffffffff\n      and\n      0xffffffffffffffffffffffffffffffffffffffff\n      and\n      dup2\n      mstore\n      0x20\n      add\n      swap1\n      dup2\n      mstore\n      0x20\n      add\n      0x00\n      keccak256\n        /* \"contract/lottery.sol\":16591:16616  users[userAddress].rounds */\n      0x07\n      add\n        /* \"contract/lottery.sol\":16591:16623  users[userAddress].rounds[round] */\n      0x00\n        /* \"contract/lottery.sol\":16617:16622  round */\n      dup3\n        /* \"contract/lottery.sol\":16591:16623  users[userAddress].rounds[round] */\n      0xff\n      and\n      0xff\n      and\n      dup2\n      mstore\n      0x20\n      add\n      swap1\n      dup2\n      mstore\n      0x20\n      add\n      0x00\n      keccak256\n        /* \"contract/lottery.sol\":16591:16634  users[userAddress].rounds[round].maxPayouts */\n      0x00\n      add\n      0x02\n      swap1\n      sload\n      swap1\n      0x0100\n      exp\n      swap1\n      div\n      0xffff\n      and\n        /* \"contract/lottery.sol\":16571:16581  maxPayouts */\n      dup6\n        /* \"contract/lottery.sol\":16582:16587  round */\n      dup3\n        /* \"contract/lottery.sol\":16571:16588  maxPayouts[round] */\n      0xff\n      and\n      dup2\n      mload\n      dup2\n      lt\n      tag_337\n      jumpi\n      invalid\n    tag_337:\n      0x20\n      mul\n      0x20\n      add\n      add\n        /* \"contract/lottery.sol\":16571:16634  maxPayouts[round] = users[userAddress].rounds[round].maxPayouts */\n      swap1\n      0xffff\n      and\n      swap1\n      dup2\n      0xffff\n      and\n      dup2\n      mstore\n      pop\n      pop\n        /* \"contract/lottery.sol\":16674:16679  users */\n      0x6b\n        /* \"contract/lottery.sol\":16674:16692  users[userAddress] */\n      0x00\n        /* \"contract/lottery.sol\":16680:16691  userAddress */\n      dup16\n        /* \"contract/lottery.sol\":16674:16692  users[userAddress] */\n      0xffffffffffffffffffffffffffffffffffffffff\n      and\n      0xffffffffffffffffffffffffffffffffffffffff\n      and\n      dup2\n      mstore\n      0x20\n      add\n      swap1\n      dup2\n      mstore\n      0x20\n      add\n      0x00\n      keccak256\n        /* \"contract/lottery.sol\":16674:16699  users[userAddress].rounds */\n      0x07\n      add\n        /* \"contract/lottery.sol\":16674:16706  users[userAddress].rounds[round] */\n      0x00\n        /* \"contract/lottery.sol\":16700:16705  round */\n      dup3\n        /* \"contract/lottery.sol\":16674:16706  users[userAddress].rounds[round] */\n      0xff\n      and\n      0xff\n      and\n      dup2\n      mstore\n      0x20\n      add\n      swap1\n      dup2\n      mstore\n      0x20\n      add\n      0x00\n      keccak256\n        /* \"contract/lottery.sol\":16674:16722  users[userAddress].rounds[round].activationTimes */\n      0x00\n      add\n      0x00\n      swap1\n      sload\n      swap1\n      0x0100\n      exp\n      swap1\n      div\n      0xffff\n      and\n        /* \"contract/lottery.sol\":16649:16664  activationTimes */\n      dup5\n        /* \"contract/lottery.sol\":16665:16670  round */\n      dup3\n        /* \"contract/lottery.sol\":16649:16671  activationTimes[round] */\n      0xff\n      and\n      dup2\n      mload\n      dup2\n      lt\n      tag_338\n      jumpi\n      invalid\n    tag_338:\n      0x20\n      mul\n      0x20\n      add\n      add\n        /* \"contract/lottery.sol\":16649:16722  activationTimes[round] = users[userAddress].rounds[round].activationTimes */\n      swap1\n      0xffff\n      and\n      swap1\n      dup2\n      0xffff\n      and\n      dup2\n      mstore\n      pop\n      pop\n        /* \"contract/lottery.sol\":16756:16761  users */\n      0x6b\n        /* \"contract/lottery.sol\":16756:16774  users[userAddress] */\n      0x00\n        /* \"contract/lottery.sol\":16762:16773  userAddress */\n      dup16\n        /* \"contract/lottery.sol\":16756:16774  users[userAddress] */\n      0xffffffffffffffffffffffffffffffffffffffff\n      and\n      0xffffffffffffffffffffffffffffffffffffffff\n      and\n      dup2\n      mstore\n      0x20\n      add\n      swap1\n      dup2\n      mstore\n      0x20\n      add\n      0x00\n      keccak256\n        /* \"contract/lottery.sol\":16756:16781  users[userAddress].rounds */\n      0x07\n      add\n        /* \"contract/lottery.sol\":16756:16788  users[userAddress].rounds[round] */\n      0x00\n        /* \"contract/lottery.sol\":16782:16787  round */\n      dup3\n        /* \"contract/lottery.sol\":16756:16788  users[userAddress].rounds[round] */\n      0xff\n      and\n      0xff\n      and\n      dup2\n      mstore\n      0x20\n      add\n      swap1\n      dup2\n      mstore\n      0x20\n      add\n      0x00\n      keccak256\n        /* \"contract/lottery.sol\":16756:16798  users[userAddress].rounds[round].rewardSum */\n      0x01\n      add\n      sload\n        /* \"contract/lottery.sol\":16737:16746  rewardSum */\n      dup4\n        /* \"contract/lottery.sol\":16747:16752  round */\n      dup3\n        /* \"contract/lottery.sol\":16737:16753  rewardSum[round] */\n      0xff\n      and\n      dup2\n      mload\n      dup2\n      lt\n      tag_339\n      jumpi\n      invalid\n    tag_339:\n      0x20\n      mul\n      0x20\n      add\n      add\n        /* \"contract/lottery.sol\":16737:16798  rewardSum[round] = users[userAddress].rounds[round].rewardSum */\n      dup2\n      dup2\n      mstore\n      pop\n      pop\n        /* \"contract/lottery.sol\":16840:16845  users */\n      0x6b\n        /* \"contract/lottery.sol\":16840:16858  users[userAddress] */\n      0x00\n        /* \"contract/lottery.sol\":16846:16857  userAddress */\n      dup16\n        /* \"contract/lottery.sol\":16840:16858  users[userAddress] */\n      0xffffffffffffffffffffffffffffffffffffffff\n      and\n      0xffffffffffffffffffffffffffffffffffffffff\n      and\n      dup2\n      mstore\n      0x20\n      add\n      swap1\n      dup2\n      mstore\n      0x20\n      add\n      0x00\n      keccak256\n        /* \"contract/lottery.sol\":16840:16865  users[userAddress].rounds */\n      0x07\n      add\n        /* \"contract/lottery.sol\":16840:16872  users[userAddress].rounds[round] */\n      0x00\n        /* \"contract/lottery.sol\":16866:16871  round */\n      dup3\n        /* \"contract/lottery.sol\":16840:16872  users[userAddress].rounds[round] */\n      0xff\n      and\n      0xff\n      and\n      dup2\n      mstore\n      0x20\n      add\n      swap1\n      dup2\n      mstore\n      0x20\n      add\n      0x00\n      keccak256\n        /* \"contract/lottery.sol\":16840:16890  users[userAddress].rounds[round].referralPayoutSum */\n      0x02\n      add\n      sload\n        /* \"contract/lottery.sol\":16813:16830  referralPayoutSum */\n      dup3\n        /* \"contract/lottery.sol\":16831:16836  round */\n      dup3\n        /* \"contract/lottery.sol\":16813:16837  referralPayoutSum[round] */\n      0xff\n      and\n      dup2\n      mload\n      dup2\n      lt\n      tag_340\n      jumpi\n      invalid\n    tag_340:\n      0x20\n      mul\n      0x20\n      add\n      add\n        /* \"contract/lottery.sol\":16813:16890  referralPayoutSum[round] = users[userAddress].rounds[round].referralPayoutSum */\n      dup2\n      dup2\n      mstore\n      pop\n      pop\n        /* \"contract/lottery.sol\":16405:16412  round++ */\n      dup1\n      dup1\n      0x01\n      add\n      swap2\n      pop\n      pop\n        /* \"contract/lottery.sol\":16361:16902  for (uint8 round = 1; round <= totalrounds; round++) {\r... */\n      jump(tag_332)\n    tag_333:\n      pop\n        /* \"contract/lottery.sol\":16920:16926  active */\n      dup6\n        /* \"contract/lottery.sol\":16928:16935  payouts */\n      dup6\n        /* \"contract/lottery.sol\":16937:16947  maxPayouts */\n      dup6\n        /* \"contract/lottery.sol\":16949:16964  activationTimes */\n      dup6\n        /* \"contract/lottery.sol\":16966:16975  rewardSum */\n      dup6\n        /* \"contract/lottery.sol\":16977:16994  referralPayoutSum */\n      dup6\n        /* \"contract/lottery.sol\":16912:16995  return (active, payouts, maxPayouts, activationTimes, rewardSum, referralPayoutSum) */\n      swap12\n      pop\n      swap12\n      pop\n      swap12\n      pop\n      swap12\n      pop\n      swap12\n      pop\n      swap12\n      pop\n      pop\n      pop\n      pop\n      pop\n      pop\n      pop\n        /* \"contract/lottery.sol\":15783:17003  function getUserrounds(address userAddress) public view returns (bool[] memory, uint16[] memory, uint16[] memory, uint16[] memory, uint[] memory, uint[] memory) {\r... */\n      swap2\n      swap4\n      swap6\n      pop\n      swap2\n      swap4\n      swap6\n      jump\t// out\n        /* \"contract/lottery.sol\":697:735  address[16] public nextWinerSecretGame */\n    tag_113:\n      0x55\n      dup2\n      0x10\n      dup2\n      lt\n      tag_341\n      jumpi\n      invalid\n    tag_341:\n      add\n      0x00\n      swap2\n      pop\n      sload\n      swap1\n      0x0100\n      exp\n      swap1\n      div\n      0xffffffffffffffffffffffffffffffffffffffff\n      and\n      dup2\n      jump\t// out\n        /* \"contract/lottery.sol\":17431:17626  function getGlobalStatistic() public view returns(uint[5] memory result) {\r... */\n    tag_116:\n        /* \"contract/lottery.sol\":17481:17502  uint[5] memory result */\n      tag_343\n      tag_344\n      jump\t// in\n    tag_343:\n        /* \"contract/lottery.sol\":17515:17618  return [globalStat.members, globalStat.transactions, globalStat.turnover, todayWinerValue, timeLottery] */\n      mload(0x40)\n      dup1\n      0xa0\n      add\n      0x40\n      mstore\n      dup1\n        /* \"contract/lottery.sol\":17523:17533  globalStat */\n      0x6f\n        /* \"contract/lottery.sol\":17523:17541  globalStat.members */\n      0x00\n      add\n      sload\n        /* \"contract/lottery.sol\":17515:17618  return [globalStat.members, globalStat.transactions, globalStat.turnover, todayWinerValue, timeLottery] */\n      dup2\n      mstore\n      0x20\n      add\n        /* \"contract/lottery.sol\":17543:17553  globalStat */\n      0x6f\n        /* \"contract/lottery.sol\":17543:17566  globalStat.transactions */\n      0x01\n      add\n      sload\n        /* \"contract/lottery.sol\":17515:17618  return [globalStat.members, globalStat.transactions, globalStat.turnover, todayWinerValue, timeLottery] */\n      dup2\n      mstore\n      0x20\n      add\n        /* \"contract/lottery.sol\":17568:17578  globalStat */\n      0x6f\n        /* \"contract/lottery.sol\":17568:17587  globalStat.turnover */\n      0x02\n      add\n      sload\n        /* \"contract/lottery.sol\":17515:17618  return [globalStat.members, globalStat.transactions, globalStat.turnover, todayWinerValue, timeLottery] */\n      dup2\n      mstore\n      0x20\n      add\n        /* \"contract/lottery.sol\":17589:17604  todayWinerValue */\n      sload(0x33)\n        /* \"contract/lottery.sol\":17515:17618  return [globalStat.members, globalStat.transactions, globalStat.turnover, todayWinerValue, timeLottery] */\n      dup2\n      mstore\n      0x20\n      add\n        /* \"contract/lottery.sol\":17606:17617  timeLottery */\n      sload(0x34)\n        /* \"contract/lottery.sol\":17515:17618  return [globalStat.members, globalStat.transactions, globalStat.turnover, todayWinerValue, timeLottery] */\n      dup2\n      mstore\n      pop\n      swap1\n      pop\n        /* \"contract/lottery.sol\":17431:17626  function getGlobalStatistic() public view returns(uint[5] memory result) {\r... */\n      swap1\n      jump\t// out\n        /* \"contract/lottery.sol\":2958:2997  uint8 public constant rewardPayouts = 2 */\n    tag_122:\n        /* \"contract/lottery.sol\":2996:2997  2 */\n      0x02\n        /* \"contract/lottery.sol\":2958:2997  uint8 public constant rewardPayouts = 2 */\n      dup2\n      jump\t// out\n        /* \"contract/lottery.sol\":3241:3273  address payable public marketing */\n    tag_125:\n      0x67\n      0x00\n      swap1\n      sload\n      swap1\n      0x0100\n      exp\n      swap1\n      div\n      0xffffffffffffffffffffffffffffffffffffffff\n      and\n      dup2\n      jump\t// out\n        /* \"contract/lottery.sol\":17213:17315  function gettimeRoundEnd() public view returns(uint[16] memory) {\r... */\n    tag_128:\n        /* \"contract/lottery.sol\":17260:17275  uint[16] memory */\n      tag_346\n      tag_347\n      jump\t// in\n    tag_346:\n        /* \"contract/lottery.sol\":17295:17307  timeRoudsEnd */\n      0x45\n        /* \"contract/lottery.sol\":17288:17307  return timeRoudsEnd */\n      0x10\n      dup1\n      0x20\n      mul\n      mload(0x40)\n      swap1\n      dup2\n      add\n      0x40\n      mstore\n      dup1\n      swap3\n      swap2\n      swap1\n      dup3\n      0x10\n      dup1\n      iszero\n      tag_349\n      jumpi\n      0x20\n      mul\n      dup3\n      add\n      swap2\n    tag_350:\n      dup2\n      sload\n      dup2\n      mstore\n      0x20\n      add\n      swap1\n      0x01\n      add\n      swap1\n      dup1\n      dup4\n      gt\n      tag_350\n      jumpi\n    tag_349:\n      pop\n      pop\n      pop\n      pop\n      pop\n      swap1\n      pop\n        /* \"contract/lottery.sol\":17213:17315  function gettimeRoundEnd() public view returns(uint[16] memory) {\r... */\n      swap1\n      jump\t// out\n        /* \"contract/lottery.sol\":19086:19374  function calcSecretPrize(uint8 round) public view returns(uint value) {\r... */\n    tag_135:\n        /* \"contract/lottery.sol\":19144:19154  uint value */\n      0x00\n        /* \"contract/lottery.sol\":19167:19185  uint priceAllRound */\n      dup1\n        /* \"contract/lottery.sol\":19200:19207  uint8 i */\n      0x00\n        /* \"contract/lottery.sol\":19210:19211  1 */\n      0x01\n        /* \"contract/lottery.sol\":19200:19211  uint8 i = 1 */\n      swap1\n      pop\n        /* \"contract/lottery.sol\":19196:19292  for(uint8 i = 1; i <= totalrounds; i++) {\r... */\n    tag_352:\n        /* \"contract/lottery.sol\":19218:19229  totalrounds */\n      sload(0x69)\n        /* \"contract/lottery.sol\":19213:19214  i */\n      dup2\n        /* \"contract/lottery.sol\":19213:19229  i <= totalrounds */\n      0xff\n      and\n      gt\n        /* \"contract/lottery.sol\":19196:19292  for(uint8 i = 1; i <= totalrounds; i++) {\r... */\n      tag_353\n      jumpi\n        /* \"contract/lottery.sol\":19267:19277  roundPrice */\n      0x68\n        /* \"contract/lottery.sol\":19278:19279  i */\n      dup2\n        /* \"contract/lottery.sol\":19267:19280  roundPrice[i] */\n      0xff\n      and\n      dup2\n      sload\n      dup2\n      lt\n      tag_355\n      jumpi\n      invalid\n    tag_355:\n      swap1\n      0x00\n      mstore\n      keccak256(0x00, 0x20)\n      add\n      sload\n        /* \"contract/lottery.sol\":19251:19280  priceAllRound+= roundPrice[i] */\n      dup3\n      add\n      swap2\n      pop\n        /* \"contract/lottery.sol\":19231:19234  i++ */\n      dup1\n      dup1\n      0x01\n      add\n      swap2\n      pop\n      pop\n        /* \"contract/lottery.sol\":19196:19292  for(uint8 i = 1; i <= totalrounds; i++) {\r... */\n      jump(tag_352)\n    tag_353:\n      pop\n        /* \"contract/lottery.sol\":19345:19355  roundPrice */\n      0x68\n        /* \"contract/lottery.sol\":19356:19361  round */\n      dup4\n        /* \"contract/lottery.sol\":19345:19362  roundPrice[round] */\n      0xff\n      and\n      dup2\n      sload\n      dup2\n      lt\n      tag_357\n      jumpi\n      invalid\n    tag_357:\n      swap1\n      0x00\n      mstore\n      keccak256(0x00, 0x20)\n      add\n      sload\n        /* \"contract/lottery.sol\":19331:19344  priceAllRound */\n      dup2\n        /* \"contract/lottery.sol\":19309:19330  address(this).balance */\n      selfbalance\n        /* \"contract/lottery.sol\":19309:19344  address(this).balance/priceAllRound */\n      dup2\n      tag_359\n      jumpi\n      invalid\n    tag_359:\n      div\n        /* \"contract/lottery.sol\":19309:19362  address(this).balance/priceAllRound*roundPrice[round] */\n      mul\n        /* \"contract/lottery.sol\":19302:19362  return address(this).balance/priceAllRound*roundPrice[round] */\n      swap2\n      pop\n      pop\n        /* \"contract/lottery.sol\":19086:19374  function calcSecretPrize(uint8 round) public view returns(uint value) {\r... */\n      swap2\n      swap1\n      pop\n      jump\t// out\n        /* \"contract/lottery.sol\":17987:18110  function getUserIdByAddress(address userAddress) public view returns (uint) {\r... */\n    tag_139:\n        /* \"contract/lottery.sol\":18057:18061  uint */\n      0x00\n        /* \"contract/lottery.sol\":18081:18086  users */\n      0x6b\n        /* \"contract/lottery.sol\":18081:18099  users[userAddress] */\n      0x00\n        /* \"contract/lottery.sol\":18087:18098  userAddress */\n      dup4\n        /* \"contract/lottery.sol\":18081:18099  users[userAddress] */\n      0xffffffffffffffffffffffffffffffffffffffff\n      and\n      0xffffffffffffffffffffffffffffffffffffffff\n      and\n      dup2\n      mstore\n      0x20\n      add\n      swap1\n      dup2\n      mstore\n      0x20\n      add\n      0x00\n      keccak256\n        /* \"contract/lottery.sol\":18081:18102  users[userAddress].id */\n      0x00\n      add\n      sload\n        /* \"contract/lottery.sol\":18074:18102  return users[userAddress].id */\n      swap1\n      pop\n        /* \"contract/lottery.sol\":17987:18110  function getUserIdByAddress(address userAddress) public view returns (uint) {\r... */\n      swap2\n      swap1\n      pop\n      jump\t// out\n        /* \"contract/lottery.sol\":18308:18508  function getReferrer(address userAddress) public view returns (address) {\r... */\n    tag_143:\n        /* \"contract/lottery.sol\":18371:18378  address */\n      0x00\n        /* \"contract/lottery.sol\":18399:18428  isUserRegistered(userAddress) */\n      tag_362\n        /* \"contract/lottery.sol\":18416:18427  userAddress */\n      dup3\n        /* \"contract/lottery.sol\":18399:18415  isUserRegistered */\n      tag_61\n        /* \"contract/lottery.sol\":18399:18428  isUserRegistered(userAddress) */\n      jump\t// in\n    tag_362:\n        /* \"contract/lottery.sol\":18391:18455  require(isUserRegistered(userAddress), \"User is not registered\") */\n      tag_363\n      jumpi\n      mload(0x40)\n      0x08c379a000000000000000000000000000000000000000000000000000000000\n      dup2\n      mstore\n      0x04\n      add\n      dup1\n      dup1\n      0x20\n      add\n      dup3\n      dup2\n      sub\n      dup3\n      mstore\n      0x16\n      dup2\n      mstore\n      0x20\n      add\n      dup1\n      0x55736572206973206e6f74207265676973746572656400000000000000000000\n      dup2\n      mstore\n      pop\n      0x20\n      add\n      swap2\n      pop\n      pop\n      mload(0x40)\n      dup1\n      swap2\n      sub\n      swap1\n      revert\n    tag_363:\n        /* \"contract/lottery.sol\":18473:18478  users */\n      0x6b\n        /* \"contract/lottery.sol\":18473:18491  users[userAddress] */\n      0x00\n        /* \"contract/lottery.sol\":18479:18490  userAddress */\n      dup4\n        /* \"contract/lottery.sol\":18473:18491  users[userAddress] */\n      0xffffffffffffffffffffffffffffffffffffffff\n      and\n      0xffffffffffffffffffffffffffffffffffffffff\n      and\n      dup2\n      mstore\n      0x20\n      add\n      swap1\n      dup2\n      mstore\n      0x20\n      add\n      0x00\n      keccak256\n        /* \"contract/lottery.sol\":18473:18500  users[userAddress].referrer */\n      0x02\n      add\n      0x00\n      swap1\n      sload\n      swap1\n      0x0100\n      exp\n      swap1\n      div\n      0xffffffffffffffffffffffffffffffffffffffff\n      and\n        /* \"contract/lottery.sol\":18466:18500  return users[userAddress].referrer */\n      swap1\n      pop\n        /* \"contract/lottery.sol\":18308:18508  function getReferrer(address userAddress) public view returns (address) {\r... */\n      swap2\n      swap1\n      pop\n      jump\t// out\n        /* \"contract/lottery.sol\":3102:3141  uint8 public referralRewardPercents = 9 */\n    tag_146:\n      0x66\n      0x00\n      swap1\n      sload\n      swap1\n      0x0100\n      exp\n      swap1\n      div\n      0xff\n      and\n      dup2\n      jump\t// out\n        /* \"contract/lottery.sol\":15159:15777  function getUserroundsMissedProfit(address userAddress) public view returns ( uint[] memory, uint[] memory) {\r... */\n    tag_152:\n        /* \"contract/lottery.sol\":15237:15250  uint[] memory */\n      0x60\n        /* \"contract/lottery.sol\":15252:15265  uint[] memory */\n      dup1\n        /* \"contract/lottery.sol\":15280:15314  uint[] memory missedRefferalProfit */\n      0x60\n        /* \"contract/lottery.sol\":15342:15343  1 */\n      0x01\n        /* \"contract/lottery.sol\":15328:15339  totalrounds */\n      sload(0x69)\n        /* \"contract/lottery.sol\":15328:15343  totalrounds + 1 */\n      add\n        /* \"contract/lottery.sol\":15317:15344  new uint[](totalrounds + 1) */\n      0xffffffffffffffff\n      dup2\n      gt\n      dup1\n      iszero\n      tag_365\n      jumpi\n      0x00\n      dup1\n      revert\n    tag_365:\n      pop\n      mload(0x40)\n      swap1\n      dup1\n      dup3\n      mstore\n      dup1\n      0x20\n      mul\n      0x20\n      add\n      dup3\n      add\n      0x40\n      mstore\n      dup1\n      iszero\n      tag_366\n      jumpi\n      dup2\n      0x20\n      add\n      0x20\n      dup3\n      mul\n      dup1\n      calldatasize\n      dup4\n      calldatacopy\n      dup1\n      dup3\n      add\n      swap2\n      pop\n      pop\n      swap1\n      pop\n    tag_366:\n      pop\n        /* \"contract/lottery.sol\":15280:15344  uint[] memory missedRefferalProfit = new uint[](totalrounds + 1) */\n      swap1\n      pop\n        /* \"contract/lottery.sol\":15355:15393  uint[] memory missedRefferalPostProfit */\n      0x60\n        /* \"contract/lottery.sol\":15421:15422  1 */\n      0x01\n        /* \"contract/lottery.sol\":15407:15418  totalrounds */\n      sload(0x69)\n        /* \"contract/lottery.sol\":15407:15422  totalrounds + 1 */\n      add\n        /* \"contract/lottery.sol\":15396:15423  new uint[](totalrounds + 1) */\n      0xffffffffffffffff\n      dup2\n      gt\n      dup1\n      iszero\n      tag_367\n      jumpi\n      0x00\n      dup1\n      revert\n    tag_367:\n      pop\n      mload(0x40)\n      swap1\n      dup1\n      dup3\n      mstore\n      dup1\n      0x20\n      mul\n      0x20\n      add\n      dup3\n      add\n      0x40\n      mstore\n      dup1\n      iszero\n      tag_368\n      jumpi\n      dup2\n      0x20\n      add\n      0x20\n      dup3\n      mul\n      dup1\n      calldatasize\n      dup4\n      calldatacopy\n      dup1\n      dup3\n      add\n      swap2\n      pop\n      pop\n      swap1\n      pop\n    tag_368:\n      pop\n        /* \"contract/lottery.sol\":15355:15423  uint[] memory missedRefferalPostProfit = new uint[](totalrounds + 1) */\n      swap1\n      pop\n        /* \"contract/lottery.sol\":15439:15450  uint8 round */\n      0x00\n        /* \"contract/lottery.sol\":15453:15454  1 */\n      0x01\n        /* \"contract/lottery.sol\":15439:15454  uint8 round = 1 */\n      swap1\n      pop\n        /* \"contract/lottery.sol\":15434:15703  for (uint8 round = 1; round <= totalrounds; round++) {\r... */\n    tag_369:\n        /* \"contract/lottery.sol\":15465:15476  totalrounds */\n      sload(0x69)\n        /* \"contract/lottery.sol\":15456:15461  round */\n      dup2\n        /* \"contract/lottery.sol\":15456:15476  round <= totalrounds */\n      0xff\n      and\n      gt\n        /* \"contract/lottery.sol\":15434:15703  for (uint8 round = 1; round <= totalrounds; round++) {\r... */\n      tag_370\n      jumpi\n        /* \"contract/lottery.sol\":15532:15537  users */\n      0x6b\n        /* \"contract/lottery.sol\":15532:15550  users[userAddress] */\n      0x00\n        /* \"contract/lottery.sol\":15538:15549  userAddress */\n      dup8\n        /* \"contract/lottery.sol\":15532:15550  users[userAddress] */\n      0xffffffffffffffffffffffffffffffffffffffff\n      and\n      0xffffffffffffffffffffffffffffffffffffffff\n      and\n      dup2\n      mstore\n      0x20\n      add\n      swap1\n      dup2\n      mstore\n      0x20\n      add\n      0x00\n      keccak256\n        /* \"contract/lottery.sol\":15532:15557  users[userAddress].rounds */\n      0x07\n      add\n        /* \"contract/lottery.sol\":15532:15564  users[userAddress].rounds[round] */\n      0x00\n        /* \"contract/lottery.sol\":15558:15563  round */\n      dup3\n        /* \"contract/lottery.sol\":15532:15564  users[userAddress].rounds[round] */\n      0xff\n      and\n      0xff\n      and\n      dup2\n      mstore\n      0x20\n      add\n      swap1\n      dup2\n      mstore\n      0x20\n      add\n      0x00\n      keccak256\n        /* \"contract/lottery.sol\":15532:15585  users[userAddress].rounds[round].missedRefferalProfit */\n      0x04\n      add\n      sload\n        /* \"contract/lottery.sol\":15502:15522  missedRefferalProfit */\n      dup4\n        /* \"contract/lottery.sol\":15523:15528  round */\n      dup3\n        /* \"contract/lottery.sol\":15502:15529  missedRefferalProfit[round] */\n      0xff\n      and\n      dup2\n      mload\n      dup2\n      lt\n      tag_372\n      jumpi\n      invalid\n    tag_372:\n      0x20\n      mul\n      0x20\n      add\n      add\n        /* \"contract/lottery.sol\":15502:15585  missedRefferalProfit[round] = users[userAddress].rounds[round].missedRefferalProfit */\n      dup2\n      dup2\n      mstore\n      pop\n      pop\n        /* \"contract/lottery.sol\":15634:15639  users */\n      0x6b\n        /* \"contract/lottery.sol\":15634:15652  users[userAddress] */\n      0x00\n        /* \"contract/lottery.sol\":15640:15651  userAddress */\n      dup8\n        /* \"contract/lottery.sol\":15634:15652  users[userAddress] */\n      0xffffffffffffffffffffffffffffffffffffffff\n      and\n      0xffffffffffffffffffffffffffffffffffffffff\n      and\n      dup2\n      mstore\n      0x20\n      add\n      swap1\n      dup2\n      mstore\n      0x20\n      add\n      0x00\n      keccak256\n        /* \"contract/lottery.sol\":15634:15659  users[userAddress].rounds */\n      0x07\n      add\n        /* \"contract/lottery.sol\":15634:15666  users[userAddress].rounds[round] */\n      0x00\n        /* \"contract/lottery.sol\":15660:15665  round */\n      dup3\n        /* \"contract/lottery.sol\":15634:15666  users[userAddress].rounds[round] */\n      0xff\n      and\n      0xff\n      and\n      dup2\n      mstore\n      0x20\n      add\n      swap1\n      dup2\n      mstore\n      0x20\n      add\n      0x00\n      keccak256\n        /* \"contract/lottery.sol\":15634:15691  users[userAddress].rounds[round].missedRefferalPostProfit */\n      0x05\n      add\n      sload\n        /* \"contract/lottery.sol\":15600:15624  missedRefferalPostProfit */\n      dup3\n        /* \"contract/lottery.sol\":15625:15630  round */\n      dup3\n        /* \"contract/lottery.sol\":15600:15631  missedRefferalPostProfit[round] */\n      0xff\n      and\n      dup2\n      mload\n      dup2\n      lt\n      tag_373\n      jumpi\n      invalid\n    tag_373:\n      0x20\n      mul\n      0x20\n      add\n      add\n        /* \"contract/lottery.sol\":15600:15691  missedRefferalPostProfit[round] = users[userAddress].rounds[round].missedRefferalPostProfit */\n      dup2\n      dup2\n      mstore\n      pop\n      pop\n        /* \"contract/lottery.sol\":15478:15485  round++ */\n      dup1\n      dup1\n      0x01\n      add\n      swap2\n      pop\n      pop\n        /* \"contract/lottery.sol\":15434:15703  for (uint8 round = 1; round <= totalrounds; round++) {\r... */\n      jump(tag_369)\n    tag_370:\n      pop\n        /* \"contract/lottery.sol\":15722:15742  missedRefferalProfit */\n      dup2\n        /* \"contract/lottery.sol\":15744:15768  missedRefferalPostProfit */\n      dup2\n        /* \"contract/lottery.sol\":15713:15769  return ( missedRefferalProfit, missedRefferalPostProfit) */\n      swap4\n      pop\n      swap4\n      pop\n      pop\n      pop\n        /* \"contract/lottery.sol\":15159:15777  function getUserroundsMissedProfit(address userAddress) public view returns ( uint[] memory, uint[] memory) {\r... */\n      swap2\n      pop\n      swap2\n      jump\t// out\n        /* \"contract/lottery.sol\":662:690  uint[16] public timeRoudsEnd */\n    tag_162:\n      0x45\n      dup2\n      0x10\n      dup2\n      lt\n      tag_374\n      jumpi\n      invalid\n    tag_374:\n      add\n      0x00\n      swap2\n      pop\n      swap1\n      pop\n      sload\n      dup2\n      jump\t// out\n        /* \"contract/lottery.sol\":3280:3660  uint[] public roundPrice = [\r... */\n    tag_166:\n      0x68\n      dup2\n      dup2\n      sload\n      dup2\n      lt\n      tag_376\n      jumpi\n      invalid\n    tag_376:\n      swap1\n      0x00\n      mstore\n      keccak256(0x00, 0x20)\n      add\n      0x00\n      swap2\n      pop\n      swap1\n      pop\n      sload\n      dup2\n      jump\t// out\n        /* \"contract/lottery.sol\":630:655  uint[16] public RoiRounds */\n    tag_170:\n      0x35\n      dup2\n      0x10\n      dup2\n      lt\n      tag_378\n      jumpi\n      invalid\n    tag_378:\n      add\n      0x00\n      swap2\n      pop\n      swap1\n      pop\n      sload\n      dup2\n      jump\t// out\n        /* \"contract/lottery.sol\":14614:15149  function getUser(address userAddress) public view returns(uint, uint, uint, address, uint, uint, uint, uint, uint, uint) {\r... */\n    tag_174:\n        /* \"contract/lottery.sol\":14672:14676  uint */\n      0x00\n        /* \"contract/lottery.sol\":14678:14682  uint */\n      dup1\n        /* \"contract/lottery.sol\":14684:14688  uint */\n      0x00\n        /* \"contract/lottery.sol\":14690:14697  address */\n      dup1\n        /* \"contract/lottery.sol\":14699:14703  uint */\n      0x00\n        /* \"contract/lottery.sol\":14705:14709  uint */\n      dup1\n        /* \"contract/lottery.sol\":14711:14715  uint */\n      0x00\n        /* \"contract/lottery.sol\":14717:14721  uint */\n      dup1\n        /* \"contract/lottery.sol\":14723:14727  uint */\n      0x00\n        /* \"contract/lottery.sol\":14729:14733  uint */\n      dup1\n        /* \"contract/lottery.sol\":14746:14762  User memory user */\n      tag_381\n      tag_382\n      jump\t// in\n    tag_381:\n        /* \"contract/lottery.sol\":14765:14770  users */\n      0x6b\n        /* \"contract/lottery.sol\":14765:14783  users[userAddress] */\n      0x00\n        /* \"contract/lottery.sol\":14771:14782  userAddress */\n      dup14\n        /* \"contract/lottery.sol\":14765:14783  users[userAddress] */\n      0xffffffffffffffffffffffffffffffffffffffff\n      and\n      0xffffffffffffffffffffffffffffffffffffffff\n      and\n      dup2\n      mstore\n      0x20\n      add\n      swap1\n      dup2\n      mstore\n      0x20\n      add\n      0x00\n      keccak256\n        /* \"contract/lottery.sol\":14746:14783  User memory user = users[userAddress] */\n      mload(0x40)\n      dup1\n      0x0120\n      add\n      0x40\n      mstore\n      swap1\n      dup2\n      0x00\n      dup3\n      add\n      sload\n      dup2\n      mstore\n      0x20\n      add\n      0x01\n      dup3\n      add\n      sload\n      dup2\n      mstore\n      0x20\n      add\n      0x02\n      dup3\n      add\n      0x00\n      swap1\n      sload\n      swap1\n      0x0100\n      exp\n      swap1\n      div\n      0xffffffffffffffffffffffffffffffffffffffff\n      and\n      0xffffffffffffffffffffffffffffffffffffffff\n      and\n      0xffffffffffffffffffffffffffffffffffffffff\n      and\n      dup2\n      mstore\n      0x20\n      add\n      0x03\n      dup3\n      add\n      sload\n      dup2\n      mstore\n      0x20\n      add\n      0x04\n      dup3\n      add\n      sload\n      dup2\n      mstore\n      0x20\n      add\n      0x05\n      dup3\n      add\n      sload\n      dup2\n      mstore\n      0x20\n      add\n      0x06\n      dup3\n      add\n      sload\n      dup2\n      mstore\n      0x20\n      add\n      0x08\n      dup3\n      add\n      0x00\n      swap1\n      sload\n      swap1\n      0x0100\n      exp\n      swap1\n      div\n      0xff\n      and\n      0xff\n      and\n      0xff\n      and\n      dup2\n      mstore\n      0x20\n      add\n      0x09\n      dup3\n      add\n      sload\n      dup2\n      mstore\n      pop\n      pop\n      swap1\n      pop\n        /* \"contract/lottery.sol\":14816:14820  user */\n      dup1\n        /* \"contract/lottery.sol\":14816:14823  user.id */\n      0x00\n      add\n      mload\n        /* \"contract/lottery.sol\":14838:14842  user */\n      dup2\n        /* \"contract/lottery.sol\":14838:14864  user.registrationTimestamp */\n      0x20\n      add\n      mload\n        /* \"contract/lottery.sol\":14879:14884  users */\n      0x6b\n        /* \"contract/lottery.sol\":14879:14899  users[user.referrer] */\n      0x00\n        /* \"contract/lottery.sol\":14885:14889  user */\n      dup5\n        /* \"contract/lottery.sol\":14885:14898  user.referrer */\n      0x40\n      add\n      mload\n        /* \"contract/lottery.sol\":14879:14899  users[user.referrer] */\n      0xffffffffffffffffffffffffffffffffffffffff\n      and\n      0xffffffffffffffffffffffffffffffffffffffff\n      and\n      dup2\n      mstore\n      0x20\n      add\n      swap1\n      dup2\n      mstore\n      0x20\n      add\n      0x00\n      keccak256\n        /* \"contract/lottery.sol\":14879:14902  users[user.referrer].id */\n      0x00\n      add\n      sload\n        /* \"contract/lottery.sol\":14917:14921  user */\n      dup4\n        /* \"contract/lottery.sol\":14917:14930  user.referrer */\n      0x40\n      add\n      mload\n        /* \"contract/lottery.sol\":14945:14949  user */\n      dup5\n        /* \"contract/lottery.sol\":14945:14959  user.referrals */\n      0x60\n      add\n      mload\n        /* \"contract/lottery.sol\":14974:14978  user */\n      dup6\n        /* \"contract/lottery.sol\":14974:14996  user.referralPayoutSum */\n      0x80\n      add\n      mload\n        /* \"contract/lottery.sol\":15011:15015  user */\n      dup7\n        /* \"contract/lottery.sol\":15011:15031  user.roundsRewardSum */\n      0xa0\n      add\n      mload\n        /* \"contract/lottery.sol\":15046:15050  user */\n      dup8\n        /* \"contract/lottery.sol\":15046:15074  user.missedReferralPayoutSum */\n      0xc0\n      add\n      mload\n        /* \"contract/lottery.sol\":15089:15093  user */\n      dup9\n        /* \"contract/lottery.sol\":15089:15102  user.maxRound */\n      0xe0\n      add\n      mload\n        /* \"contract/lottery.sol\":15117:15121  user */\n      dup10\n        /* \"contract/lottery.sol\":15117:15130  user.turnover */\n      0x0100\n      add\n      mload\n        /* \"contract/lottery.sol\":14794:15141  return (\r... */\n      dup2\n      0xff\n      and\n      swap2\n      pop\n      swap11\n      pop\n      swap11\n      pop\n      swap11\n      pop\n      swap11\n      pop\n      swap11\n      pop\n      swap11\n      pop\n      swap11\n      pop\n      swap11\n      pop\n      swap11\n      pop\n      swap11\n      pop\n      pop\n        /* \"contract/lottery.sol\":14614:15149  function getUser(address userAddress) public view returns(uint, uint, uint, address, uint, uint, uint, uint, uint, uint) {\r... */\n      swap2\n      swap4\n      swap6\n      swap8\n      swap10\n      pop\n      swap2\n      swap4\n      swap6\n      swap8\n      swap10\n      jump\t// out\n        /* \"contract/lottery.sol\":17632:17736  function getContractBalance() public view returns (uint) {\r... */\n    tag_177:\n        /* \"contract/lottery.sol\":17683:17687  uint */\n      0x00\n        /* \"contract/lottery.sol\":17707:17728  address(this).balance */\n      selfbalance\n        /* \"contract/lottery.sol\":17700:17728  return address(this).balance */\n      swap1\n      pop\n        /* \"contract/lottery.sol\":17632:17736  function getContractBalance() public view returns (uint) {\r... */\n      swap1\n      jump\t// out\n        /* \"contract/lottery.sol\":600:623  uint public timeLottery */\n    tag_180:\n      sload(0x34)\n      dup2\n      jump\t// out\n        /* \"contract/lottery.sol\":10922:10957  function income() public payable {} */\n    tag_182:\n      jump\t// out\n        /* \"contract/lottery.sol\":17860:17981  function getUserAddressById(uint userId) public view returns (address) {\r... */\n    tag_186:\n        /* \"contract/lottery.sol\":17922:17929  address */\n      0x00\n        /* \"contract/lottery.sol\":17949:17965  usersAddressById */\n      0x6c\n        /* \"contract/lottery.sol\":17949:17973  usersAddressById[userId] */\n      0x00\n        /* \"contract/lottery.sol\":17966:17972  userId */\n      dup4\n        /* \"contract/lottery.sol\":17949:17973  usersAddressById[userId] */\n      dup2\n      mstore\n      0x20\n      add\n      swap1\n      dup2\n      mstore\n      0x20\n      add\n      0x00\n      keccak256\n      0x00\n      swap1\n      sload\n      swap1\n      0x0100\n      exp\n      swap1\n      div\n      0xffffffffffffffffffffffffffffffffffffffff\n      and\n        /* \"contract/lottery.sol\":17942:17973  return usersAddressById[userId] */\n      swap1\n      pop\n        /* \"contract/lottery.sol\":17860:17981  function getUserAddressById(uint userId) public view returns (address) {\r... */\n      swap2\n      swap1\n      pop\n      jump\t// out\n        /* \"contract/lottery.sol\":17322:17425  function getLotteryWiner() public view returns(address[50] memory) {\r... */\n    tag_189:\n        /* \"contract/lottery.sol\":17369:17387  address[50] memory */\n      tag_386\n      tag_387\n      jump\t// in\n    tag_386:\n        /* \"contract/lottery.sol\":17407:17417  todayWiner */\n      0x01\n        /* \"contract/lottery.sol\":17400:17417  return todayWiner */\n      0x32\n      dup1\n      0x20\n      mul\n      mload(0x40)\n      swap1\n      dup2\n      add\n      0x40\n      mstore\n      dup1\n      swap3\n      swap2\n      swap1\n      dup3\n      0x32\n      dup1\n      iszero\n      tag_389\n      jumpi\n      0x20\n      mul\n      dup3\n      add\n      swap2\n    tag_390:\n      dup2\n      0x00\n      swap1\n      sload\n      swap1\n      0x0100\n      exp\n      swap1\n      div\n      0xffffffffffffffffffffffffffffffffffffffff\n      and\n      0xffffffffffffffffffffffffffffffffffffffff\n      and\n      dup2\n      mstore\n      0x20\n      add\n      swap1\n      0x01\n      add\n      swap1\n      dup1\n      dup4\n      gt\n      tag_390\n      jumpi\n    tag_389:\n      pop\n      pop\n      pop\n      pop\n      pop\n      swap1\n      pop\n        /* \"contract/lottery.sol\":17322:17425  function getLotteryWiner() public view returns(address[50] memory) {\r... */\n      swap1\n      jump\t// out\n        /* \"contract/lottery.sol\":3206:3234  address payable public owner */\n    tag_195:\n      0x66\n      0x02\n      swap1\n      sload\n      swap1\n      0x0100\n      exp\n      swap1\n      div\n      0xffffffffffffffffffffffffffffffffffffffff\n      and\n      dup2\n      jump\t// out\n        /* \"contract/lottery.sol\":10963:12220  function Lottery(uint ticket) public {\r... */\n    tag_199:\n        /* \"contract/lottery.sol\":11033:11038  owner */\n      0x66\n      0x02\n      swap1\n      sload\n      swap1\n      0x0100\n      exp\n      swap1\n      div\n      0xffffffffffffffffffffffffffffffffffffffff\n      and\n        /* \"contract/lottery.sol\":11019:11038  msg.sender == owner */\n      0xffffffffffffffffffffffffffffffffffffffff\n      and\n        /* \"contract/lottery.sol\":11019:11029  msg.sender */\n      caller\n        /* \"contract/lottery.sol\":11019:11038  msg.sender == owner */\n      0xffffffffffffffffffffffffffffffffffffffff\n      and\n      eq\n        /* \"contract/lottery.sol\":11011:11064  require(msg.sender == owner, \"you are not an owner!\") */\n      tag_392\n      jumpi\n      mload(0x40)\n      0x08c379a000000000000000000000000000000000000000000000000000000000\n      dup2\n      mstore\n      0x04\n      add\n      dup1\n      dup1\n      0x20\n      add\n      dup3\n      dup2\n      sub\n      dup3\n      mstore\n      0x15\n      dup2\n      mstore\n      0x20\n      add\n      dup1\n      0x796f7520617265206e6f7420616e206f776e6572210000000000000000000000\n      dup2\n      mstore\n      pop\n      0x20\n      add\n      swap2\n      pop\n      pop\n      mload(0x40)\n      dup1\n      swap2\n      sub\n      swap1\n      revert\n    tag_392:\n        /* \"contract/lottery.sol\":11079:11086  uint8 i */\n      0x00\n        /* \"contract/lottery.sol\":11075:11159  for(uint8 i = 0; i <= 49; i++) {\r... */\n    tag_393:\n        /* \"contract/lottery.sol\":11097:11099  49 */\n      0x31\n        /* \"contract/lottery.sol\":11092:11093  i */\n      dup2\n        /* \"contract/lottery.sol\":11092:11099  i <= 49 */\n      0xff\n      and\n      gt\n        /* \"contract/lottery.sol\":11075:11159  for(uint8 i = 0; i <= 49; i++) {\r... */\n      tag_394\n      jumpi\n        /* \"contract/lottery.sol\":11145:11146  0 */\n      0x00\n        /* \"contract/lottery.sol\":11121:11131  todayWiner */\n      0x01\n        /* \"contract/lottery.sol\":11132:11133  i */\n      dup3\n        /* \"contract/lottery.sol\":11121:11134  todayWiner[i] */\n      0xff\n      and\n      0x32\n      dup2\n      lt\n      tag_396\n      jumpi\n      invalid\n    tag_396:\n      add\n      0x00\n        /* \"contract/lottery.sol\":11121:11147  todayWiner[i] = address(0) */\n      0x0100\n      exp\n      dup2\n      sload\n      dup2\n      0xffffffffffffffffffffffffffffffffffffffff\n      mul\n      not\n      and\n      swap1\n      dup4\n      0xffffffffffffffffffffffffffffffffffffffff\n      and\n      mul\n      or\n      swap1\n      sstore\n      pop\n        /* \"contract/lottery.sol\":11101:11104  i++ */\n      dup1\n      dup1\n      0x01\n      add\n      swap2\n      pop\n      pop\n        /* \"contract/lottery.sol\":11075:11159  for(uint8 i = 0; i <= 49; i++) {\r... */\n      jump(tag_393)\n    tag_394:\n      pop\n        /* \"contract/lottery.sol\":11169:11192  uint totalLotteryPlayer */\n      0x00\n        /* \"contract/lottery.sol\":11208:11219  uint8 round */\n      dup1\n        /* \"contract/lottery.sol\":11222:11223  1 */\n      0x01\n        /* \"contract/lottery.sol\":11208:11223  uint8 round = 1 */\n      swap1\n      pop\n        /* \"contract/lottery.sol\":11204:11514  for(uint8 round = 1; round <= totalrounds; round++) {\r... */\n    tag_398:\n        /* \"contract/lottery.sol\":11234:11245  totalrounds */\n      sload(0x69)\n        /* \"contract/lottery.sol\":11225:11230  round */\n      dup2\n        /* \"contract/lottery.sol\":11225:11245  round <= totalrounds */\n      0xff\n      and\n      gt\n        /* \"contract/lottery.sol\":11204:11514  for(uint8 round = 1; round <= totalrounds; round++) {\r... */\n      tag_399\n      jumpi\n        /* \"contract/lottery.sol\":11275:11281  uint i */\n      0x00\n        /* \"contract/lottery.sol\":11284:11293  headIndex */\n      0x6e\n        /* \"contract/lottery.sol\":11284:11300  headIndex[round] */\n      0x00\n        /* \"contract/lottery.sol\":11294:11299  round */\n      dup4\n        /* \"contract/lottery.sol\":11284:11300  headIndex[round] */\n      0xff\n      and\n      0xff\n      and\n      dup2\n      mstore\n      0x20\n      add\n      swap1\n      dup2\n      mstore\n      0x20\n      add\n      0x00\n      keccak256\n      sload\n        /* \"contract/lottery.sol\":11275:11300  uint i = headIndex[round] */\n      swap1\n      pop\n        /* \"contract/lottery.sol\":11271:11491  for(uint i = headIndex[round]; i < roundQueue[round].length; i++) {\r... */\n    tag_401:\n        /* \"contract/lottery.sol\":11306:11316  roundQueue */\n      0x6d\n        /* \"contract/lottery.sol\":11306:11323  roundQueue[round] */\n      0x00\n        /* \"contract/lottery.sol\":11317:11322  round */\n      dup4\n        /* \"contract/lottery.sol\":11306:11323  roundQueue[round] */\n      0xff\n      and\n      0xff\n      and\n      dup2\n      mstore\n      0x20\n      add\n      swap1\n      dup2\n      mstore\n      0x20\n      add\n      0x00\n      keccak256\n        /* \"contract/lottery.sol\":11306:11330  roundQueue[round].length */\n      dup1\n      sload\n      swap1\n      pop\n        /* \"contract/lottery.sol\":11302:11303  i */\n      dup2\n        /* \"contract/lottery.sol\":11302:11330  i < roundQueue[round].length */\n      lt\n        /* \"contract/lottery.sol\":11271:11491  for(uint i = headIndex[round]; i < roundQueue[round].length; i++) {\r... */\n      iszero\n      tag_402\n      jumpi\n        /* \"contract/lottery.sol\":11408:11411  now */\n      timestamp\n        /* \"contract/lottery.sol\":11400:11405  86400 */\n      0x015180\n        /* \"contract/lottery.sol\":11359:11377  lastTimeActivation */\n      0x65\n        /* \"contract/lottery.sol\":11359:11399  lastTimeActivation[roundQueue[round][i]] */\n      0x00\n        /* \"contract/lottery.sol\":11378:11388  roundQueue */\n      0x6d\n        /* \"contract/lottery.sol\":11378:11395  roundQueue[round] */\n      0x00\n        /* \"contract/lottery.sol\":11389:11394  round */\n      dup8\n        /* \"contract/lottery.sol\":11378:11395  roundQueue[round] */\n      0xff\n      and\n      0xff\n      and\n      dup2\n      mstore\n      0x20\n      add\n      swap1\n      dup2\n      mstore\n      0x20\n      add\n      0x00\n      keccak256\n        /* \"contract/lottery.sol\":11396:11397  i */\n      dup6\n        /* \"contract/lottery.sol\":11378:11398  roundQueue[round][i] */\n      dup2\n      sload\n      dup2\n      lt\n      tag_404\n      jumpi\n      invalid\n    tag_404:\n      swap1\n      0x00\n      mstore\n      keccak256(0x00, 0x20)\n      add\n      0x00\n      swap1\n      sload\n      swap1\n      0x0100\n      exp\n      swap1\n      div\n      0xffffffffffffffffffffffffffffffffffffffff\n      and\n        /* \"contract/lottery.sol\":11359:11399  lastTimeActivation[roundQueue[round][i]] */\n      0xffffffffffffffffffffffffffffffffffffffff\n      and\n      0xffffffffffffffffffffffffffffffffffffffff\n      and\n      dup2\n      mstore\n      0x20\n      add\n      swap1\n      dup2\n      mstore\n      0x20\n      add\n      0x00\n      keccak256\n      sload\n        /* \"contract/lottery.sol\":11359:11405  lastTimeActivation[roundQueue[round][i]]+86400 */\n      add\n        /* \"contract/lottery.sol\":11359:11411  lastTimeActivation[roundQueue[round][i]]+86400 > now */\n      gt\n        /* \"contract/lottery.sol\":11356:11476  if(lastTimeActivation[roundQueue[round][i]]+86400 > now) {\r... */\n      iszero\n      tag_406\n      jumpi\n        /* \"contract/lottery.sol\":11436:11456  totalLotteryPlayer++ */\n      dup3\n      dup1\n      0x01\n      add\n      swap4\n      pop\n      pop\n        /* \"contract/lottery.sol\":11356:11476  if(lastTimeActivation[roundQueue[round][i]]+86400 > now) {\r... */\n    tag_406:\n        /* \"contract/lottery.sol\":11332:11335  i++ */\n      dup1\n      dup1\n      0x01\n      add\n      swap2\n      pop\n      pop\n        /* \"contract/lottery.sol\":11271:11491  for(uint i = headIndex[round]; i < roundQueue[round].length; i++) {\r... */\n      jump(tag_401)\n    tag_402:\n      pop\n        /* \"contract/lottery.sol\":11247:11254  round++ */\n      dup1\n      dup1\n      0x01\n      add\n      swap2\n      pop\n      pop\n        /* \"contract/lottery.sol\":11204:11514  for(uint8 round = 1; round <= totalrounds; round++) {\r... */\n      jump(tag_398)\n    tag_399:\n      pop\n        /* \"contract/lottery.sol\":11570:11576  ticket */\n      dup2\n        /* \"contract/lottery.sol\":11566:11567  2 */\n      0x02\n        /* \"contract/lottery.sol\":11543:11564  address(this).balance */\n      selfbalance\n        /* \"contract/lottery.sol\":11543:11567  address(this).balance /2 */\n      dup2\n      tag_407\n      jumpi\n      invalid\n    tag_407:\n      div\n        /* \"contract/lottery.sol\":11543:11576  address(this).balance /2 / ticket */\n      dup2\n      tag_408\n      jumpi\n      invalid\n    tag_408:\n      div\n        /* \"contract/lottery.sol\":11524:11539  todayWinerValue */\n      0x33\n        /* \"contract/lottery.sol\":11524:11576  todayWinerValue =  address(this).balance /2 / ticket */\n      dup2\n      swap1\n      sstore\n      pop\n        /* \"contract/lottery.sol\":11601:11604  now */\n      timestamp\n        /* \"contract/lottery.sol\":11587:11598  timeLottery */\n      0x34\n        /* \"contract/lottery.sol\":11587:11604  timeLottery = now */\n      dup2\n      swap1\n      sstore\n      pop\n        /* \"contract/lottery.sol\":11615:11624  uint rand */\n      0x00\n        /* \"contract/lottery.sol\":11646:11652  ticket */\n      dup3\n        /* \"contract/lottery.sol\":11627:11645  totalLotteryPlayer */\n      dup3\n        /* \"contract/lottery.sol\":11627:11652  totalLotteryPlayer/ticket */\n      dup2\n      tag_409\n      jumpi\n      invalid\n    tag_409:\n      div\n        /* \"contract/lottery.sol\":11615:11652  uint rand = totalLotteryPlayer/ticket */\n      swap1\n      pop\n        /* \"contract/lottery.sol\":11663:11676  uint caunting */\n      0x00\n        /* \"contract/lottery.sol\":11687:11701  uint8 luckyNum */\n      dup1\n        /* \"contract/lottery.sol\":11716:11727  uint8 round */\n      0x00\n        /* \"contract/lottery.sol\":11730:11731  1 */\n      0x01\n        /* \"contract/lottery.sol\":11716:11731  uint8 round = 1 */\n      swap1\n      pop\n        /* \"contract/lottery.sol\":11712:12213  for(uint8 round = 1; round <= totalrounds; round++) {        \r... */\n    tag_410:\n        /* \"contract/lottery.sol\":11742:11753  totalrounds */\n      sload(0x69)\n        /* \"contract/lottery.sol\":11733:11738  round */\n      dup2\n        /* \"contract/lottery.sol\":11733:11753  round <= totalrounds */\n      0xff\n      and\n      gt\n        /* \"contract/lottery.sol\":11712:12213  for(uint8 round = 1; round <= totalrounds; round++) {        \r... */\n      tag_411\n      jumpi\n        /* \"contract/lottery.sol\":11791:11797  uint i */\n      0x00\n        /* \"contract/lottery.sol\":11800:11809  headIndex */\n      0x6e\n        /* \"contract/lottery.sol\":11800:11816  headIndex[round] */\n      0x00\n        /* \"contract/lottery.sol\":11810:11815  round */\n      dup4\n        /* \"contract/lottery.sol\":11800:11816  headIndex[round] */\n      0xff\n      and\n      0xff\n      and\n      dup2\n      mstore\n      0x20\n      add\n      swap1\n      dup2\n      mstore\n      0x20\n      add\n      0x00\n      keccak256\n      sload\n        /* \"contract/lottery.sol\":11791:11816  uint i = headIndex[round] */\n      swap1\n      pop\n        /* \"contract/lottery.sol\":11787:12202  for(uint i = headIndex[round]; i < roundQueue[round].length; i++) {\r... */\n    tag_413:\n        /* \"contract/lottery.sol\":11822:11832  roundQueue */\n      0x6d\n        /* \"contract/lottery.sol\":11822:11839  roundQueue[round] */\n      0x00\n        /* \"contract/lottery.sol\":11833:11838  round */\n      dup4\n        /* \"contract/lottery.sol\":11822:11839  roundQueue[round] */\n      0xff\n      and\n      0xff\n      and\n      dup2\n      mstore\n      0x20\n      add\n      swap1\n      dup2\n      mstore\n      0x20\n      add\n      0x00\n      keccak256\n        /* \"contract/lottery.sol\":11822:11846  roundQueue[round].length */\n      dup1\n      sload\n      swap1\n      pop\n        /* \"contract/lottery.sol\":11818:11819  i */\n      dup2\n        /* \"contract/lottery.sol\":11818:11846  i < roundQueue[round].length */\n      lt\n        /* \"contract/lottery.sol\":11787:12202  for(uint i = headIndex[round]; i < roundQueue[round].length; i++) {\r... */\n      iszero\n      tag_414\n      jumpi\n        /* \"contract/lottery.sol\":11872:11882  caunting++ */\n      dup4\n      dup1\n      0x01\n      add\n      swap5\n      pop\n      pop\n        /* \"contract/lottery.sol\":11924:11925  0 */\n      0x00\n        /* \"contract/lottery.sol\":11916:11920  rand */\n      dup6\n        /* \"contract/lottery.sol\":11905:11913  caunting */\n      dup6\n        /* \"contract/lottery.sol\":11905:11920  caunting % rand */\n      dup2\n      tag_416\n      jumpi\n      invalid\n    tag_416:\n      mod\n        /* \"contract/lottery.sol\":11905:11925  caunting % rand == 0 */\n      eq\n        /* \"contract/lottery.sol\":11905:11981  caunting % rand == 0 && lastTimeActivation[roundQueue[round][i]]+86400 > now */\n      dup1\n      iszero\n      tag_417\n      jumpi\n      pop\n        /* \"contract/lottery.sol\":11978:11981  now */\n      timestamp\n        /* \"contract/lottery.sol\":11970:11975  86400 */\n      0x015180\n        /* \"contract/lottery.sol\":11929:11947  lastTimeActivation */\n      0x65\n        /* \"contract/lottery.sol\":11929:11969  lastTimeActivation[roundQueue[round][i]] */\n      0x00\n        /* \"contract/lottery.sol\":11948:11958  roundQueue */\n      0x6d\n        /* \"contract/lottery.sol\":11948:11965  roundQueue[round] */\n      0x00\n        /* \"contract/lottery.sol\":11959:11964  round */\n      dup8\n        /* \"contract/lottery.sol\":11948:11965  roundQueue[round] */\n      0xff\n      and\n      0xff\n      and\n      dup2\n      mstore\n      0x20\n      add\n      swap1\n      dup2\n      mstore\n      0x20\n      add\n      0x00\n      keccak256\n        /* \"contract/lottery.sol\":11966:11967  i */\n      dup6\n        /* \"contract/lottery.sol\":11948:11968  roundQueue[round][i] */\n      dup2\n      sload\n      dup2\n      lt\n      tag_418\n      jumpi\n      invalid\n    tag_418:\n      swap1\n      0x00\n      mstore\n      keccak256(0x00, 0x20)\n      add\n      0x00\n      swap1\n      sload\n      swap1\n      0x0100\n      exp\n      swap1\n      div\n      0xffffffffffffffffffffffffffffffffffffffff\n      and\n        /* \"contract/lottery.sol\":11929:11969  lastTimeActivation[roundQueue[round][i]] */\n      0xffffffffffffffffffffffffffffffffffffffff\n      and\n      0xffffffffffffffffffffffffffffffffffffffff\n      and\n      dup2\n      mstore\n      0x20\n      add\n      swap1\n      dup2\n      mstore\n      0x20\n      add\n      0x00\n      keccak256\n      sload\n        /* \"contract/lottery.sol\":11929:11975  lastTimeActivation[roundQueue[round][i]]+86400 */\n      add\n        /* \"contract/lottery.sol\":11929:11981  lastTimeActivation[roundQueue[round][i]]+86400 > now */\n      gt\n        /* \"contract/lottery.sol\":11905:11981  caunting % rand == 0 && lastTimeActivation[roundQueue[round][i]]+86400 > now */\n    tag_417:\n        /* \"contract/lottery.sol\":11902:12187  if(caunting % rand == 0 && lastTimeActivation[roundQueue[round][i]]+86400 > now) {\r... */\n      iszero\n      tag_420\n      jumpi\n        /* \"contract/lottery.sol\":12029:12039  roundQueue */\n      0x6d\n        /* \"contract/lottery.sol\":12029:12046  roundQueue[round] */\n      0x00\n        /* \"contract/lottery.sol\":12040:12045  round */\n      dup4\n        /* \"contract/lottery.sol\":12029:12046  roundQueue[round] */\n      0xff\n      and\n      0xff\n      and\n      dup2\n      mstore\n      0x20\n      add\n      swap1\n      dup2\n      mstore\n      0x20\n      add\n      0x00\n      keccak256\n        /* \"contract/lottery.sol\":12047:12048  i */\n      dup2\n        /* \"contract/lottery.sol\":12029:12049  roundQueue[round][i] */\n      dup2\n      sload\n      dup2\n      lt\n      tag_421\n      jumpi\n      invalid\n    tag_421:\n      swap1\n      0x00\n      mstore\n      keccak256(0x00, 0x20)\n      add\n      0x00\n      swap1\n      sload\n      swap1\n      0x0100\n      exp\n      swap1\n      div\n      0xffffffffffffffffffffffffffffffffffffffff\n      and\n        /* \"contract/lottery.sol\":12006:12016  todayWiner */\n      0x01\n        /* \"contract/lottery.sol\":12017:12025  luckyNum */\n      dup5\n        /* \"contract/lottery.sol\":12006:12026  todayWiner[luckyNum] */\n      0xff\n      and\n      0x32\n      dup2\n      lt\n      tag_423\n      jumpi\n      invalid\n    tag_423:\n      add\n      0x00\n        /* \"contract/lottery.sol\":12006:12049  todayWiner[luckyNum] = roundQueue[round][i] */\n      0x0100\n      exp\n      dup2\n      sload\n      dup2\n      0xffffffffffffffffffffffffffffffffffffffff\n      mul\n      not\n      and\n      swap1\n      dup4\n      0xffffffffffffffffffffffffffffffffffffffff\n      and\n      mul\n      or\n      swap1\n      sstore\n      pop\n        /* \"contract/lottery.sol\":12073:12083  luckyNum++ */\n      dup3\n      dup1\n      0x01\n      add\n      swap4\n      pop\n      pop\n        /* \"contract/lottery.sol\":12128:12138  roundQueue */\n      0x6d\n        /* \"contract/lottery.sol\":12128:12145  roundQueue[round] */\n      0x00\n        /* \"contract/lottery.sol\":12139:12144  round */\n      dup4\n        /* \"contract/lottery.sol\":12128:12145  roundQueue[round] */\n      0xff\n      and\n      0xff\n      and\n      dup2\n      mstore\n      0x20\n      add\n      swap1\n      dup2\n      mstore\n      0x20\n      add\n      0x00\n      keccak256\n        /* \"contract/lottery.sol\":12146:12147  i */\n      dup2\n        /* \"contract/lottery.sol\":12128:12148  roundQueue[round][i] */\n      dup2\n      sload\n      dup2\n      lt\n      tag_425\n      jumpi\n      invalid\n    tag_425:\n      swap1\n      0x00\n      mstore\n      keccak256(0x00, 0x20)\n      add\n      0x00\n      swap1\n      sload\n      swap1\n      0x0100\n      exp\n      swap1\n      div\n      0xffffffffffffffffffffffffffffffffffffffff\n      and\n        /* \"contract/lottery.sol\":12112:12166  winLottery(now, roundQueue[round][i], todayWinerValue) */\n      0xffffffffffffffffffffffffffffffffffffffff\n      and\n      0xedac0922924cc83017073b98842693d865d06a82c38175d4a1cb0811ef86193f\n        /* \"contract/lottery.sol\":12123:12126  now */\n      timestamp\n        /* \"contract/lottery.sol\":12150:12165  todayWinerValue */\n      sload(0x33)\n        /* \"contract/lottery.sol\":12112:12166  winLottery(now, roundQueue[round][i], todayWinerValue) */\n      mload(0x40)\n      dup1\n      dup4\n      dup2\n      mstore\n      0x20\n      add\n      dup3\n      dup2\n      mstore\n      0x20\n      add\n      swap3\n      pop\n      pop\n      pop\n      mload(0x40)\n      dup1\n      swap2\n      sub\n      swap1\n      log2\n        /* \"contract/lottery.sol\":11902:12187  if(caunting % rand == 0 && lastTimeActivation[roundQueue[round][i]]+86400 > now) {\r... */\n    tag_420:\n        /* \"contract/lottery.sol\":11848:11851  i++ */\n      dup1\n      dup1\n      0x01\n      add\n      swap2\n      pop\n      pop\n        /* \"contract/lottery.sol\":11787:12202  for(uint i = headIndex[round]; i < roundQueue[round].length; i++) {\r... */\n      jump(tag_413)\n    tag_414:\n      pop\n        /* \"contract/lottery.sol\":11755:11762  round++ */\n      dup1\n      dup1\n      0x01\n      add\n      swap2\n      pop\n      pop\n        /* \"contract/lottery.sol\":11712:12213  for(uint8 round = 1; round <= totalrounds; round++) {        \r... */\n      jump(tag_410)\n    tag_411:\n      pop\n        /* \"contract/lottery.sol\":10963:12220  function Lottery(uint ticket) public {\r... */\n      pop\n      pop\n      pop\n      pop\n      pop\n      jump\t// out\n        /* \"contract/lottery.sol\":5644:6712  function registerWithReferrer(address referrer) public payable {\r... */\n    tag_202:\n        /* \"contract/lottery.sol\":5726:5752  isUserRegistered(referrer) */\n      tag_428\n        /* \"contract/lottery.sol\":5743:5751  referrer */\n      dup2\n        /* \"contract/lottery.sol\":5726:5742  isUserRegistered */\n      tag_61\n        /* \"contract/lottery.sol\":5726:5752  isUserRegistered(referrer) */\n      jump\t// in\n    tag_428:\n        /* \"contract/lottery.sol\":5718:5783  require(isUserRegistered(referrer), \"Referrer is not registered\") */\n      tag_429\n      jumpi\n      mload(0x40)\n      0x08c379a000000000000000000000000000000000000000000000000000000000\n      dup2\n      mstore\n      0x04\n      add\n      dup1\n      dup1\n      0x20\n      add\n      dup3\n      dup2\n      sub\n      dup3\n      mstore\n      0x1a\n      dup2\n      mstore\n      0x20\n      add\n      dup1\n      0x5265666572726572206973206e6f742072656769737465726564000000000000\n      dup2\n      mstore\n      pop\n      0x20\n      add\n      swap2\n      pop\n      pop\n      mload(0x40)\n      dup1\n      swap2\n      sub\n      swap1\n      revert\n    tag_429:\n        /* \"contract/lottery.sol\":5803:5831  isUserRegistered(msg.sender) */\n      tag_430\n        /* \"contract/lottery.sol\":5820:5830  msg.sender */\n      caller\n        /* \"contract/lottery.sol\":5803:5819  isUserRegistered */\n      tag_61\n        /* \"contract/lottery.sol\":5803:5831  isUserRegistered(msg.sender) */\n      jump\t// in\n    tag_430:\n        /* \"contract/lottery.sol\":5802:5831  !isUserRegistered(msg.sender) */\n      iszero\n        /* \"contract/lottery.sol\":5794:5859  require(!isUserRegistered(msg.sender), \"User already registered\") */\n      tag_431\n      jumpi\n      mload(0x40)\n      0x08c379a000000000000000000000000000000000000000000000000000000000\n      dup2\n      mstore\n      0x04\n      add\n      dup1\n      dup1\n      0x20\n      add\n      dup3\n      dup2\n      sub\n      dup3\n      mstore\n      0x17\n      dup2\n      mstore\n      0x20\n      add\n      dup1\n      0x5573657220616c72656164792072656769737465726564000000000000000000\n      dup2\n      mstore\n      pop\n      0x20\n      add\n      swap2\n      pop\n      pop\n      mload(0x40)\n      dup1\n      swap2\n      sub\n      swap1\n      revert\n    tag_431:\n        /* \"contract/lottery.sol\":5879:5901  isContract(msg.sender) */\n      tag_432\n        /* \"contract/lottery.sol\":5890:5900  msg.sender */\n      caller\n        /* \"contract/lottery.sol\":5879:5889  isContract */\n      tag_76\n        /* \"contract/lottery.sol\":5879:5901  isContract(msg.sender) */\n      jump\t// in\n    tag_432:\n        /* \"contract/lottery.sol\":5878:5901  !isContract(msg.sender) */\n      iszero\n        /* \"contract/lottery.sol\":5870:5927  require(!isContract(msg.sender), \"Can not be a contract\") */\n      tag_433\n      jumpi\n      mload(0x40)\n      0x08c379a000000000000000000000000000000000000000000000000000000000\n      dup2\n      mstore\n      0x04\n      add\n      dup1\n      dup1\n      0x20\n      add\n      dup3\n      dup2\n      sub\n      dup3\n      mstore\n      0x15\n      dup2\n      mstore\n      0x20\n      add\n      dup1\n      0x43616e206e6f74206265206120636f6e74726163740000000000000000000000\n      dup2\n      mstore\n      pop\n      0x20\n      add\n      swap2\n      pop\n      pop\n      mload(0x40)\n      dup1\n      swap2\n      sub\n      swap1\n      revert\n    tag_433:\n        /* \"contract/lottery.sol\":5938:5954  User memory user */\n      tag_434\n      tag_382\n      jump\t// in\n    tag_434:\n        /* \"contract/lottery.sol\":5957:6275  User({\r... */\n      mload(0x40)\n      dup1\n      0x0120\n      add\n      0x40\n      mstore\n      dup1\n        /* \"contract/lottery.sol\":5982:5991  newUserId */\n      0x6a\n      0x00\n        /* \"contract/lottery.sol\":5982:5993  newUserId++ */\n      dup2\n      sload\n      dup1\n      swap3\n      swap2\n      swap1\n      0x01\n      add\n      swap2\n      swap1\n      pop\n      sstore\n        /* \"contract/lottery.sol\":5957:6275  User({\r... */\n      dup2\n      mstore\n      0x20\n      add\n        /* \"contract/lottery.sol\":6031:6034  now */\n      timestamp\n        /* \"contract/lottery.sol\":5957:6275  User({\r... */\n      dup2\n      mstore\n      0x20\n      add\n        /* \"contract/lottery.sol\":6060:6068  referrer */\n      dup4\n        /* \"contract/lottery.sol\":5957:6275  User({\r... */\n      0xffffffffffffffffffffffffffffffffffffffff\n      and\n      dup2\n      mstore\n      0x20\n      add\n        /* \"contract/lottery.sol\":6095:6096  0 */\n      0x00\n        /* \"contract/lottery.sol\":5957:6275  User({\r... */\n      dup2\n      mstore\n      0x20\n      add\n        /* \"contract/lottery.sol\":6131:6132  0 */\n      0x00\n        /* \"contract/lottery.sol\":5957:6275  User({\r... */\n      dup2\n      mstore\n      0x20\n      add\n        /* \"contract/lottery.sol\":6165:6166  0 */\n      0x00\n        /* \"contract/lottery.sol\":5957:6275  User({\r... */\n      dup2\n      mstore\n      0x20\n      add\n        /* \"contract/lottery.sol\":6207:6208  0 */\n      0x00\n        /* \"contract/lottery.sol\":5957:6275  User({\r... */\n      dup2\n      mstore\n      0x20\n      add\n        /* \"contract/lottery.sol\":6234:6235  0 */\n      0x00\n        /* \"contract/lottery.sol\":5957:6275  User({\r... */\n      0xff\n      and\n      dup2\n      mstore\n      0x20\n      add\n        /* \"contract/lottery.sol\":6260:6261  0 */\n      0x00\n        /* \"contract/lottery.sol\":5957:6275  User({\r... */\n      dup2\n      mstore\n      pop\n        /* \"contract/lottery.sol\":5938:6275  User memory user = User({\r... */\n      swap1\n      pop\n        /* \"contract/lottery.sol\":6306:6310  user */\n      dup1\n        /* \"contract/lottery.sol\":6286:6291  users */\n      0x6b\n        /* \"contract/lottery.sol\":6286:6303  users[msg.sender] */\n      0x00\n        /* \"contract/lottery.sol\":6292:6302  msg.sender */\n      caller\n        /* \"contract/lottery.sol\":6286:6303  users[msg.sender] */\n      0xffffffffffffffffffffffffffffffffffffffff\n      and\n      0xffffffffffffffffffffffffffffffffffffffff\n      and\n      dup2\n      mstore\n      0x20\n      add\n      swap1\n      dup2\n      mstore\n      0x20\n      add\n      0x00\n      keccak256\n        /* \"contract/lottery.sol\":6286:6310  users[msg.sender] = user */\n      0x00\n      dup3\n      add\n      mload\n      dup2\n      0x00\n      add\n      sstore\n      0x20\n      dup3\n      add\n      mload\n      dup2\n      0x01\n      add\n      sstore\n      0x40\n      dup3\n      add\n      mload\n      dup2\n      0x02\n      add\n      exp(0x0100, 0x00)\n      dup2\n      sload\n      dup2\n      0xffffffffffffffffffffffffffffffffffffffff\n      mul\n      not\n      and\n      swap1\n      dup4\n      0xffffffffffffffffffffffffffffffffffffffff\n      and\n      mul\n      or\n      swap1\n      sstore\n      pop\n      0x60\n      dup3\n      add\n      mload\n      dup2\n      0x03\n      add\n      sstore\n      0x80\n      dup3\n      add\n      mload\n      dup2\n      0x04\n      add\n      sstore\n      0xa0\n      dup3\n      add\n      mload\n      dup2\n      0x05\n      add\n      sstore\n      0xc0\n      dup3\n      add\n      mload\n      dup2\n      0x06\n      add\n      sstore\n      0xe0\n      dup3\n      add\n      mload\n      dup2\n      0x08\n      add\n      exp(0x0100, 0x00)\n      dup2\n      sload\n      dup2\n      0xff\n      mul\n      not\n      and\n      swap1\n      dup4\n      0xff\n      and\n      mul\n      or\n      swap1\n      sstore\n      pop\n      0x0100\n      dup3\n      add\n      mload\n      dup2\n      0x09\n      add\n      sstore\n      swap1\n      pop\n      pop\n        /* \"contract/lottery.sol\":6349:6359  msg.sender */\n      caller\n        /* \"contract/lottery.sol\":6321:6337  usersAddressById */\n      0x6c\n        /* \"contract/lottery.sol\":6321:6346  usersAddressById[user.id] */\n      0x00\n        /* \"contract/lottery.sol\":6338:6342  user */\n      dup4\n        /* \"contract/lottery.sol\":6338:6345  user.id */\n      0x00\n      add\n      mload\n        /* \"contract/lottery.sol\":6321:6346  usersAddressById[user.id] */\n      dup2\n      mstore\n      0x20\n      add\n      swap1\n      dup2\n      mstore\n      0x20\n      add\n      0x00\n      keccak256\n      0x00\n        /* \"contract/lottery.sol\":6321:6359  usersAddressById[user.id] = msg.sender */\n      0x0100\n      exp\n      dup2\n      sload\n      dup2\n      0xffffffffffffffffffffffffffffffffffffffff\n      mul\n      not\n      and\n      swap1\n      dup4\n      0xffffffffffffffffffffffffffffffffffffffff\n      and\n      mul\n      or\n      swap1\n      sstore\n      pop\n        /* \"contract/lottery.sol\":6370:6380  uint8 line */\n      0x00\n        /* \"contract/lottery.sol\":6383:6384  1 */\n      0x01\n        /* \"contract/lottery.sol\":6370:6384  uint8 line = 1 */\n      swap1\n      pop\n        /* \"contract/lottery.sol\":6395:6406  address ref */\n      0x00\n        /* \"contract/lottery.sol\":6409:6417  referrer */\n      dup4\n        /* \"contract/lottery.sol\":6395:6417  address ref = referrer */\n      swap1\n      pop\n        /* \"contract/lottery.sol\":6446:6447  0 */\n      0x00\n        /* \"contract/lottery.sol\":6431:6448  ref != address(0) */\n      0xffffffffffffffffffffffffffffffffffffffff\n      and\n        /* \"contract/lottery.sol\":6431:6434  ref */\n      dup2\n        /* \"contract/lottery.sol\":6431:6448  ref != address(0) */\n      0xffffffffffffffffffffffffffffffffffffffff\n      and\n      eq\n        /* \"contract/lottery.sol\":6428:6560  if(ref != address(0)) {\r... */\n      tag_435\n      jumpi\n        /* \"contract/lottery.sol\":6465:6470  users */\n      0x6b\n        /* \"contract/lottery.sol\":6465:6475  users[ref] */\n      0x00\n        /* \"contract/lottery.sol\":6471:6474  ref */\n      dup3\n        /* \"contract/lottery.sol\":6465:6475  users[ref] */\n      0xffffffffffffffffffffffffffffffffffffffff\n      and\n      0xffffffffffffffffffffffffffffffffffffffff\n      and\n      dup2\n      mstore\n      0x20\n      add\n      swap1\n      dup2\n      mstore\n      0x20\n      add\n      0x00\n      keccak256\n        /* \"contract/lottery.sol\":6465:6485  users[ref].referrals */\n      0x03\n      add\n      0x00\n        /* \"contract/lottery.sol\":6465:6487  users[ref].referrals++ */\n      dup2\n      sload\n      dup1\n      swap3\n      swap2\n      swap1\n      0x01\n      add\n      swap2\n      swap1\n      pop\n      sstore\n      pop\n        /* \"contract/lottery.sol\":6508:6513  users */\n      0x6b\n        /* \"contract/lottery.sol\":6508:6518  users[ref] */\n      0x00\n        /* \"contract/lottery.sol\":6514:6517  ref */\n      dup3\n        /* \"contract/lottery.sol\":6508:6518  users[ref] */\n      0xffffffffffffffffffffffffffffffffffffffff\n      and\n      0xffffffffffffffffffffffffffffffffffffffff\n      and\n      dup2\n      mstore\n      0x20\n      add\n      swap1\n      dup2\n      mstore\n      0x20\n      add\n      0x00\n      keccak256\n        /* \"contract/lottery.sol\":6508:6527  users[ref].referrer */\n      0x02\n      add\n      0x00\n      swap1\n      sload\n      swap1\n      0x0100\n      exp\n      swap1\n      div\n      0xffffffffffffffffffffffffffffffffffffffff\n      and\n        /* \"contract/lottery.sol\":6502:6527  ref = users[ref].referrer */\n      swap1\n      pop\n        /* \"contract/lottery.sol\":6542:6548  line++ */\n      dup2\n      dup1\n      0x01\n      add\n      swap3\n      pop\n      pop\n        /* \"contract/lottery.sol\":6428:6560  if(ref != address(0)) {\r... */\n    tag_435:\n        /* \"contract/lottery.sol\":6570:6580  globalStat */\n      0x6f\n        /* \"contract/lottery.sol\":6570:6588  globalStat.members */\n      0x00\n      add\n      0x00\n        /* \"contract/lottery.sol\":6570:6590  globalStat.members++ */\n      dup2\n      sload\n      dup1\n      swap3\n      swap2\n      swap1\n      0x01\n      add\n      swap2\n      swap1\n      pop\n      sstore\n      pop\n        /* \"contract/lottery.sol\":6601:6611  globalStat */\n      0x6f\n        /* \"contract/lottery.sol\":6601:6624  globalStat.transactions */\n      0x01\n      add\n      0x00\n        /* \"contract/lottery.sol\":6601:6626  globalStat.transactions++ */\n      dup2\n      sload\n      dup1\n      swap3\n      swap2\n      swap1\n      0x01\n      add\n      swap2\n      swap1\n      pop\n      sstore\n      pop\n        /* \"contract/lottery.sol\":6664:6674  msg.sender */\n      caller\n        /* \"contract/lottery.sol\":6642:6704  UserRegistration(now, msg.sender, user.id, users[referrer].id) */\n      0xffffffffffffffffffffffffffffffffffffffff\n      and\n      0x588149fb6f65171a24789e864d05feb177506df6fc9e86c55d0d19b5122bdffc\n        /* \"contract/lottery.sol\":6659:6662  now */\n      timestamp\n        /* \"contract/lottery.sol\":6676:6680  user */\n      dup6\n        /* \"contract/lottery.sol\":6676:6683  user.id */\n      0x00\n      add\n      mload\n        /* \"contract/lottery.sol\":6685:6690  users */\n      0x6b\n        /* \"contract/lottery.sol\":6685:6700  users[referrer] */\n      0x00\n        /* \"contract/lottery.sol\":6691:6699  referrer */\n      dup10\n        /* \"contract/lottery.sol\":6685:6700  users[referrer] */\n      0xffffffffffffffffffffffffffffffffffffffff\n      and\n      0xffffffffffffffffffffffffffffffffffffffff\n      and\n      dup2\n      mstore\n      0x20\n      add\n      swap1\n      dup2\n      mstore\n      0x20\n      add\n      0x00\n      keccak256\n        /* \"contract/lottery.sol\":6685:6703  users[referrer].id */\n      0x00\n      add\n      sload\n        /* \"contract/lottery.sol\":6642:6704  UserRegistration(now, msg.sender, user.id, users[referrer].id) */\n      mload(0x40)\n      dup1\n      dup5\n      dup2\n      mstore\n      0x20\n      add\n      dup4\n      dup2\n      mstore\n      0x20\n      add\n      dup3\n      dup2\n      mstore\n      0x20\n      add\n      swap4\n      pop\n      pop\n      pop\n      pop\n      mload(0x40)\n      dup1\n      swap2\n      sub\n      swap1\n      log2\n        /* \"contract/lottery.sol\":5644:6712  function registerWithReferrer(address referrer) public payable {\r... */\n      pop\n      pop\n      pop\n      pop\n      jump\t// out\n        /* \"contract/lottery.sol\":3148:3193  uint8 public referralRewardProfitPercents = 8 */\n    tag_205:\n      0x66\n      0x01\n      swap1\n      sload\n      swap1\n      0x0100\n      exp\n      swap1\n      div\n      0xff\n      and\n      dup2\n      jump\t// out\n        /* \"contract/lottery.sol\":3739:3776  mapping(address => User) public users */\n    tag_209:\n      mstore(0x20, 0x6b)\n      dup1\n      0x00\n      mstore\n      keccak256(0x00, 0x40)\n      0x00\n      swap2\n      pop\n      swap1\n      pop\n      dup1\n      0x00\n      add\n      sload\n      swap1\n      dup1\n      0x01\n      add\n      sload\n      swap1\n      dup1\n      0x02\n      add\n      0x00\n      swap1\n      sload\n      swap1\n      0x0100\n      exp\n      swap1\n      div\n      0xffffffffffffffffffffffffffffffffffffffff\n      and\n      swap1\n      dup1\n      0x03\n      add\n      sload\n      swap1\n      dup1\n      0x04\n      add\n      sload\n      swap1\n      dup1\n      0x05\n      add\n      sload\n      swap1\n      dup1\n      0x06\n      add\n      sload\n      swap1\n      dup1\n      0x08\n      add\n      0x00\n      swap1\n      sload\n      swap1\n      0x0100\n      exp\n      swap1\n      div\n      0xff\n      and\n      swap1\n      dup1\n      0x09\n      add\n      sload\n      swap1\n      pop\n      dup10\n      jump\t// out\n        /* \"contract/lottery.sol\":742:792  mapping(address => uint) public lastTimeActivation */\n    tag_213:\n      mstore(0x20, 0x65)\n      dup1\n      0x00\n      mstore\n      keccak256(0x00, 0x40)\n      0x00\n      swap2\n      pop\n      swap1\n      pop\n      sload\n      dup2\n      jump\t// out\n        /* \"contract/lottery.sol\":5424:5551  function buyFirstRound(address referrer) public payable {\r... */\n    tag_216:\n        /* \"contract/lottery.sol\":5491:5521  registerWithReferrer(referrer) */\n      tag_437\n        /* \"contract/lottery.sol\":5512:5520  referrer */\n      dup2\n        /* \"contract/lottery.sol\":5491:5511  registerWithReferrer */\n      tag_202\n        /* \"contract/lottery.sol\":5491:5521  registerWithReferrer(referrer) */\n      jump\t// in\n    tag_437:\n        /* \"contract/lottery.sol\":5532:5543  buyround(1) */\n      tag_438\n        /* \"contract/lottery.sol\":5541:5542  1 */\n      0x01\n        /* \"contract/lottery.sol\":5532:5540  buyround */\n      tag_66\n        /* \"contract/lottery.sol\":5532:5543  buyround(1) */\n      jump\t// in\n    tag_438:\n        /* \"contract/lottery.sol\":5424:5551  function buyFirstRound(address referrer) public payable {\r... */\n      pop\n      jump\t// out\n        /* \"contract/lottery.sol\":18116:18302  function getReferrerId(address userAddress) public view returns (uint) {\r... */\n    tag_220:\n        /* \"contract/lottery.sol\":18181:18185  uint */\n      0x00\n        /* \"contract/lottery.sol\":18198:18221  address referrerAddress */\n      dup1\n        /* \"contract/lottery.sol\":18224:18229  users */\n      0x6b\n        /* \"contract/lottery.sol\":18224:18242  users[userAddress] */\n      0x00\n        /* \"contract/lottery.sol\":18230:18241  userAddress */\n      dup5\n        /* \"contract/lottery.sol\":18224:18242  users[userAddress] */\n      0xffffffffffffffffffffffffffffffffffffffff\n      and\n      0xffffffffffffffffffffffffffffffffffffffff\n      and\n      dup2\n      mstore\n      0x20\n      add\n      swap1\n      dup2\n      mstore\n      0x20\n      add\n      0x00\n      keccak256\n        /* \"contract/lottery.sol\":18224:18251  users[userAddress].referrer */\n      0x02\n      add\n      0x00\n      swap1\n      sload\n      swap1\n      0x0100\n      exp\n      swap1\n      div\n      0xffffffffffffffffffffffffffffffffffffffff\n      and\n        /* \"contract/lottery.sol\":18198:18251  address referrerAddress = users[userAddress].referrer */\n      swap1\n      pop\n        /* \"contract/lottery.sol\":18269:18274  users */\n      0x6b\n        /* \"contract/lottery.sol\":18269:18291  users[referrerAddress] */\n      0x00\n        /* \"contract/lottery.sol\":18275:18290  referrerAddress */\n      dup3\n        /* \"contract/lottery.sol\":18269:18291  users[referrerAddress] */\n      0xffffffffffffffffffffffffffffffffffffffff\n      and\n      0xffffffffffffffffffffffffffffffffffffffff\n      and\n      dup2\n      mstore\n      0x20\n      add\n      swap1\n      dup2\n      mstore\n      0x20\n      add\n      0x00\n      keccak256\n        /* \"contract/lottery.sol\":18269:18294  users[referrerAddress].id */\n      0x00\n      add\n      sload\n        /* \"contract/lottery.sol\":18262:18294  return users[referrerAddress].id */\n      swap2\n      pop\n      pop\n        /* \"contract/lottery.sol\":18116:18302  function getReferrerId(address userAddress) public view returns (uint) {\r... */\n      swap2\n      swap1\n      pop\n      jump\t// out\n        /* \"contract/lottery.sol\":3004:3045  uint8 public constant rewardPercents = 75 */\n    tag_223:\n        /* \"contract/lottery.sol\":3043:3045  75 */\n      0x4b\n        /* \"contract/lottery.sol\":3004:3045  uint8 public constant rewardPercents = 75 */\n      dup2\n      jump\t// out\n        /* \"contract/lottery.sol\":12226:12700  function getPrize() public nonReentrant{\r... */\n    tag_226:\n        /* \"contract/lottery.sol\":180:181  2 */\n      0x02\n        /* \"contract/lottery.sol\":335:342  _status */\n      sload(0x00)\n        /* \"contract/lottery.sol\":335:354  _status != _ENTERED */\n      eq\n      iszero\n        /* \"contract/lottery.sol\":327:390  require(_status != _ENTERED, \"ReentrancyGuard: reentrant call\") */\n      tag_441\n      jumpi\n      mload(0x40)\n      0x08c379a000000000000000000000000000000000000000000000000000000000\n      dup2\n      mstore\n      0x04\n      add\n      dup1\n      dup1\n      0x20\n      add\n      dup3\n      dup2\n      sub\n      dup3\n      mstore\n      0x1f\n      dup2\n      mstore\n      0x20\n      add\n      dup1\n      0x5265656e7472616e637947756172643a207265656e7472616e742063616c6c00\n      dup2\n      mstore\n      pop\n      0x20\n      add\n      swap2\n      pop\n      pop\n      mload(0x40)\n      dup1\n      swap2\n      sub\n      swap1\n      revert\n    tag_441:\n        /* \"contract/lottery.sol\":180:181  2 */\n      0x02\n        /* \"contract/lottery.sol\":401:408  _status */\n      0x00\n        /* \"contract/lottery.sol\":401:419  _status = _ENTERED */\n      dup2\n      swap1\n      sstore\n      pop\n        /* \"contract/lottery.sol\":12282:12293  uint8 lucky */\n      0x00\n        /* \"contract/lottery.sol\":12277:12693  for (uint8 lucky = 0; lucky <= 49; lucky++) {\r... */\n    tag_443:\n        /* \"contract/lottery.sol\":12308:12310  49 */\n      0x31\n        /* \"contract/lottery.sol\":12299:12304  lucky */\n      dup2\n        /* \"contract/lottery.sol\":12299:12310  lucky <= 49 */\n      0xff\n      and\n      gt\n        /* \"contract/lottery.sol\":12277:12693  for (uint8 lucky = 0; lucky <= 49; lucky++) {\r... */\n      tag_444\n      jumpi\n        /* \"contract/lottery.sol\":12361:12371  msg.sender */\n      caller\n        /* \"contract/lottery.sol\":12340:12371  todayWiner[lucky] == msg.sender */\n      0xffffffffffffffffffffffffffffffffffffffff\n      and\n        /* \"contract/lottery.sol\":12340:12350  todayWiner */\n      0x01\n        /* \"contract/lottery.sol\":12351:12356  lucky */\n      dup3\n        /* \"contract/lottery.sol\":12340:12357  todayWiner[lucky] */\n      0xff\n      and\n      0x32\n      dup2\n      lt\n      tag_446\n      jumpi\n      invalid\n    tag_446:\n      add\n      0x00\n      swap1\n      sload\n      swap1\n      0x0100\n      exp\n      swap1\n      div\n      0xffffffffffffffffffffffffffffffffffffffff\n      and\n        /* \"contract/lottery.sol\":12340:12371  todayWiner[lucky] == msg.sender */\n      0xffffffffffffffffffffffffffffffffffffffff\n      and\n      eq\n        /* \"contract/lottery.sol\":12336:12682  if (todayWiner[lucky] == msg.sender){\r... */\n      iszero\n      tag_448\n      jumpi\n        /* \"contract/lottery.sol\":12392:12402  globalStat */\n      0x6f\n        /* \"contract/lottery.sol\":12392:12408  globalStat.lucky */\n      0x03\n      add\n      0x00\n        /* \"contract/lottery.sol\":12392:12410  globalStat.lucky++ */\n      dup2\n      sload\n      dup1\n      swap3\n      swap2\n      swap1\n      0x01\n      add\n      swap2\n      swap1\n      pop\n      sstore\n      pop\n        /* \"contract/lottery.sol\":12462:12463  0 */\n      0x00\n        /* \"contract/lottery.sol\":12434:12444  todayWiner */\n      0x01\n        /* \"contract/lottery.sol\":12445:12450  lucky */\n      dup3\n        /* \"contract/lottery.sol\":12434:12451  todayWiner[lucky] */\n      0xff\n      and\n      0x32\n      dup2\n      lt\n      tag_449\n      jumpi\n      invalid\n    tag_449:\n      add\n      0x00\n        /* \"contract/lottery.sol\":12434:12464  todayWiner[lucky] = address(0) */\n      0x0100\n      exp\n      dup2\n      sload\n      dup2\n      0xffffffffffffffffffffffffffffffffffffffff\n      mul\n      not\n      and\n      swap1\n      dup4\n      0xffffffffffffffffffffffffffffffffffffffff\n      and\n      mul\n      or\n      swap1\n      sstore\n      pop\n        /* \"contract/lottery.sol\":12483:12496  bool payPrize */\n      0x00\n        /* \"contract/lottery.sol\":12507:12517  msg.sender */\n      caller\n        /* \"contract/lottery.sol\":12499:12523  payable(msg.sender).send */\n      0xffffffffffffffffffffffffffffffffffffffff\n      and\n        /* \"contract/lottery.sol\":12499:12540  payable(msg.sender).send(todayWinerValue) */\n      0x08fc\n        /* \"contract/lottery.sol\":12524:12539  todayWinerValue */\n      sload(0x33)\n        /* \"contract/lottery.sol\":12499:12540  payable(msg.sender).send(todayWinerValue) */\n      swap1\n      dup2\n      iszero\n      mul\n      swap1\n      mload(0x40)\n      0x00\n      mload(0x40)\n      dup1\n      dup4\n      sub\n      dup2\n      dup6\n      dup9\n      dup9\n      call\n      swap4\n      pop\n      pop\n      pop\n      pop\n        /* \"contract/lottery.sol\":12483:12540  bool payPrize = payable(msg.sender).send(todayWinerValue) */\n      swap1\n      pop\n        /* \"contract/lottery.sol\":12564:12572  payPrize */\n      dup1\n        /* \"contract/lottery.sol\":12560:12667  if (payPrize) {\r... */\n      iszero\n      tag_452\n      jumpi\n        /* \"contract/lottery.sol\":12619:12629  msg.sender */\n      caller\n        /* \"contract/lottery.sol\":12603:12647  payedPrize(now, msg.sender, todayWinerValue) */\n      0xffffffffffffffffffffffffffffffffffffffff\n      and\n      0x7c73022fe9ef1ddffacfe32ab067b48a23250b0c20fbabeace91e3cd9e63a9c0\n        /* \"contract/lottery.sol\":12614:12617  now */\n      timestamp\n        /* \"contract/lottery.sol\":12631:12646  todayWinerValue */\n      sload(0x33)\n        /* \"contract/lottery.sol\":12603:12647  payedPrize(now, msg.sender, todayWinerValue) */\n      mload(0x40)\n      dup1\n      dup4\n      dup2\n      mstore\n      0x20\n      add\n      dup3\n      dup2\n      mstore\n      0x20\n      add\n      swap3\n      pop\n      pop\n      pop\n      mload(0x40)\n      dup1\n      swap2\n      sub\n      swap1\n      log2\n        /* \"contract/lottery.sol\":12560:12667  if (payPrize) {\r... */\n    tag_452:\n        /* \"contract/lottery.sol\":12336:12682  if (todayWiner[lucky] == msg.sender){\r... */\n      pop\n    tag_448:\n        /* \"contract/lottery.sol\":12312:12319  lucky++ */\n      dup1\n      dup1\n      0x01\n      add\n      swap2\n      pop\n      pop\n        /* \"contract/lottery.sol\":12277:12693  for (uint8 lucky = 0; lucky <= 49; lucky++) {\r... */\n      jump(tag_443)\n    tag_444:\n      pop\n        /* \"contract/lottery.sol\":136:137  1 */\n      0x01\n        /* \"contract/lottery.sol\":442:449  _status */\n      0x00\n        /* \"contract/lottery.sol\":442:464  _status = _NOT_ENTERED */\n      dup2\n      swap1\n      sstore\n      pop\n        /* \"contract/lottery.sol\":12226:12700  function getPrize() public nonReentrant{\r... */\n      jump\t// out\n        /* \"contract/lottery.sol\":17112:17207  function getRoiRound() public view returns(uint[16] memory) {\r... */\n    tag_229:\n        /* \"contract/lottery.sol\":17155:17170  uint[16] memory */\n      tag_453\n      tag_347\n      jump\t// in\n    tag_453:\n        /* \"contract/lottery.sol\":17190:17199  RoiRounds */\n      0x35\n        /* \"contract/lottery.sol\":17183:17199  return RoiRounds */\n      0x10\n      dup1\n      0x20\n      mul\n      mload(0x40)\n      swap1\n      dup2\n      add\n      0x40\n      mstore\n      dup1\n      swap3\n      swap2\n      swap1\n      dup3\n      0x10\n      dup1\n      iszero\n      tag_455\n      jumpi\n      0x20\n      mul\n      dup3\n      add\n      swap2\n    tag_456:\n      dup2\n      sload\n      dup2\n      mstore\n      0x20\n      add\n      swap1\n      0x01\n      add\n      swap1\n      dup1\n      dup4\n      gt\n      tag_456\n      jumpi\n    tag_455:\n      pop\n      pop\n      pop\n      pop\n      pop\n      swap1\n      pop\n        /* \"contract/lottery.sol\":17112:17207  function getRoiRound() public view returns(uint[16] memory) {\r... */\n      swap1\n      jump\t// out\n        /* \"contract/lottery.sol\":18514:19080  function getPlaceInQueue(address userAddress, uint8 round) public view returns(uint, uint) {\r... */\n    tag_236:\n        /* \"contract/lottery.sol\":18593:18597  uint */\n      0x00\n        /* \"contract/lottery.sol\":18599:18603  uint */\n      dup1\n        /* \"contract/lottery.sol\":18632:18633  0 */\n      0x00\n        /* \"contract/lottery.sol\":18624:18629  round */\n      dup4\n        /* \"contract/lottery.sol\":18624:18633  round > 0 */\n      0xff\n      and\n      gt\n        /* \"contract/lottery.sol\":18624:18657  round > 0 && round <= totalrounds */\n      dup1\n      iszero\n      tag_458\n      jumpi\n      pop\n        /* \"contract/lottery.sol\":18646:18657  totalrounds */\n      sload(0x69)\n        /* \"contract/lottery.sol\":18637:18642  round */\n      dup4\n        /* \"contract/lottery.sol\":18637:18657  round <= totalrounds */\n      0xff\n      and\n      gt\n      iszero\n        /* \"contract/lottery.sol\":18624:18657  round > 0 && round <= totalrounds */\n    tag_458:\n        /* \"contract/lottery.sol\":18616:18675  require(round > 0 && round <= totalrounds, \"Invalid round\") */\n      tag_459\n      jumpi\n      mload(0x40)\n      0x08c379a000000000000000000000000000000000000000000000000000000000\n      dup2\n      mstore\n      0x04\n      add\n      dup1\n      dup1\n      0x20\n      add\n      dup3\n      dup2\n      sub\n      dup3\n      mstore\n      0x0d\n      dup2\n      mstore\n      0x20\n      add\n      dup1\n      0x496e76616c696420726f756e6400000000000000000000000000000000000000\n      dup2\n      mstore\n      pop\n      0x20\n      add\n      swap2\n      pop\n      pop\n      mload(0x40)\n      dup1\n      swap2\n      sub\n      swap1\n      revert\n    tag_459:\n        /* \"contract/lottery.sol\":18690:18695  users */\n      0x6b\n        /* \"contract/lottery.sol\":18690:18708  users[userAddress] */\n      0x00\n        /* \"contract/lottery.sol\":18696:18707  userAddress */\n      dup6\n        /* \"contract/lottery.sol\":18690:18708  users[userAddress] */\n      0xffffffffffffffffffffffffffffffffffffffff\n      and\n      0xffffffffffffffffffffffffffffffffffffffff\n      and\n      dup2\n      mstore\n      0x20\n      add\n      swap1\n      dup2\n      mstore\n      0x20\n      add\n      0x00\n      keccak256\n        /* \"contract/lottery.sol\":18690:18715  users[userAddress].rounds */\n      0x07\n      add\n        /* \"contract/lottery.sol\":18690:18722  users[userAddress].rounds[round] */\n      0x00\n        /* \"contract/lottery.sol\":18716:18721  round */\n      dup5\n        /* \"contract/lottery.sol\":18690:18722  users[userAddress].rounds[round] */\n      0xff\n      and\n      0xff\n      and\n      dup2\n      mstore\n      0x20\n      add\n      swap1\n      dup2\n      mstore\n      0x20\n      add\n      0x00\n      keccak256\n        /* \"contract/lottery.sol\":18690:18729  users[userAddress].rounds[round].active */\n      0x00\n      add\n      0x06\n      swap1\n      sload\n      swap1\n      0x0100\n      exp\n      swap1\n      div\n      0xff\n      and\n        /* \"contract/lottery.sol\":18686:18771  if(!users[userAddress].rounds[round].active) {\r... */\n      tag_460\n      jumpi\n        /* \"contract/lottery.sol\":18754:18755  0 */\n      0x00\n        /* \"contract/lottery.sol\":18757:18758  0 */\n      dup1\n        /* \"contract/lottery.sol\":18746:18759  return (0, 0) */\n      swap2\n      pop\n      swap2\n      pop\n      jump(tag_457)\n        /* \"contract/lottery.sol\":18686:18771  if(!users[userAddress].rounds[round].active) {\r... */\n    tag_460:\n        /* \"contract/lottery.sol\":18781:18791  uint place */\n      0x00\n        /* \"contract/lottery.sol\":18810:18816  uint i */\n      dup1\n        /* \"contract/lottery.sol\":18819:18828  headIndex */\n      0x6e\n        /* \"contract/lottery.sol\":18819:18835  headIndex[round] */\n      0x00\n        /* \"contract/lottery.sol\":18829:18834  round */\n      dup7\n        /* \"contract/lottery.sol\":18819:18835  headIndex[round] */\n      0xff\n      and\n      0xff\n      and\n      dup2\n      mstore\n      0x20\n      add\n      swap1\n      dup2\n      mstore\n      0x20\n      add\n      0x00\n      keccak256\n      sload\n        /* \"contract/lottery.sol\":18810:18835  uint i = headIndex[round] */\n      swap1\n      pop\n        /* \"contract/lottery.sol\":18806:19054  for(uint i = headIndex[round]; i < roundQueue[round].length; i++) {\r... */\n    tag_461:\n        /* \"contract/lottery.sol\":18841:18851  roundQueue */\n      0x6d\n        /* \"contract/lottery.sol\":18841:18858  roundQueue[round] */\n      0x00\n        /* \"contract/lottery.sol\":18852:18857  round */\n      dup7\n        /* \"contract/lottery.sol\":18841:18858  roundQueue[round] */\n      0xff\n      and\n      0xff\n      and\n      dup2\n      mstore\n      0x20\n      add\n      swap1\n      dup2\n      mstore\n      0x20\n      add\n      0x00\n      keccak256\n        /* \"contract/lottery.sol\":18841:18865  roundQueue[round].length */\n      dup1\n      sload\n      swap1\n      pop\n        /* \"contract/lottery.sol\":18837:18838  i */\n      dup2\n        /* \"contract/lottery.sol\":18837:18865  i < roundQueue[round].length */\n      lt\n        /* \"contract/lottery.sol\":18806:19054  for(uint i = headIndex[round]; i < roundQueue[round].length; i++) {\r... */\n      iszero\n      tag_462\n      jumpi\n        /* \"contract/lottery.sol\":18887:18894  place++ */\n      dup2\n      dup1\n      0x01\n      add\n      swap3\n      pop\n      pop\n        /* \"contract/lottery.sol\":18936:18947  userAddress */\n      dup6\n        /* \"contract/lottery.sol\":18912:18947  roundQueue[round][i] == userAddress */\n      0xffffffffffffffffffffffffffffffffffffffff\n      and\n        /* \"contract/lottery.sol\":18912:18922  roundQueue */\n      0x6d\n        /* \"contract/lottery.sol\":18912:18929  roundQueue[round] */\n      0x00\n        /* \"contract/lottery.sol\":18923:18928  round */\n      dup8\n        /* \"contract/lottery.sol\":18912:18929  roundQueue[round] */\n      0xff\n      and\n      0xff\n      and\n      dup2\n      mstore\n      0x20\n      add\n      swap1\n      dup2\n      mstore\n      0x20\n      add\n      0x00\n      keccak256\n        /* \"contract/lottery.sol\":18930:18931  i */\n      dup3\n        /* \"contract/lottery.sol\":18912:18932  roundQueue[round][i] */\n      dup2\n      sload\n      dup2\n      lt\n      tag_464\n      jumpi\n      invalid\n    tag_464:\n      swap1\n      0x00\n      mstore\n      keccak256(0x00, 0x20)\n      add\n      0x00\n      swap1\n      sload\n      swap1\n      0x0100\n      exp\n      swap1\n      div\n      0xffffffffffffffffffffffffffffffffffffffff\n      and\n        /* \"contract/lottery.sol\":18912:18947  roundQueue[round][i] == userAddress */\n      0xffffffffffffffffffffffffffffffffffffffff\n      and\n      eq\n        /* \"contract/lottery.sol\":18909:19043  if(roundQueue[round][i] == userAddress) {\r... */\n      iszero\n      tag_466\n      jumpi\n        /* \"contract/lottery.sol\":18976:18981  place */\n      dup2\n        /* \"contract/lottery.sol\":19010:19019  headIndex */\n      0x6e\n        /* \"contract/lottery.sol\":19010:19026  headIndex[round] */\n      0x00\n        /* \"contract/lottery.sol\":19020:19025  round */\n      dup8\n        /* \"contract/lottery.sol\":19010:19026  headIndex[round] */\n      0xff\n      and\n      0xff\n      and\n      dup2\n      mstore\n      0x20\n      add\n      swap1\n      dup2\n      mstore\n      0x20\n      add\n      0x00\n      keccak256\n      sload\n        /* \"contract/lottery.sol\":18983:18993  roundQueue */\n      0x6d\n        /* \"contract/lottery.sol\":18983:19000  roundQueue[round] */\n      0x00\n        /* \"contract/lottery.sol\":18994:18999  round */\n      dup9\n        /* \"contract/lottery.sol\":18983:19000  roundQueue[round] */\n      0xff\n      and\n      0xff\n      and\n      dup2\n      mstore\n      0x20\n      add\n      swap1\n      dup2\n      mstore\n      0x20\n      add\n      0x00\n      keccak256\n        /* \"contract/lottery.sol\":18983:19007  roundQueue[round].length */\n      dup1\n      sload\n      swap1\n      pop\n        /* \"contract/lottery.sol\":18983:19026  roundQueue[round].length - headIndex[round] */\n      sub\n        /* \"contract/lottery.sol\":18968:19027  return (place, roundQueue[round].length - headIndex[round]) */\n      swap4\n      pop\n      swap4\n      pop\n      pop\n      pop\n      jump(tag_457)\n        /* \"contract/lottery.sol\":18909:19043  if(roundQueue[round][i] == userAddress) {\r... */\n    tag_466:\n        /* \"contract/lottery.sol\":18867:18870  i++ */\n      dup1\n      dup1\n      0x01\n      add\n      swap2\n      pop\n      pop\n        /* \"contract/lottery.sol\":18806:19054  for(uint i = headIndex[round]; i < roundQueue[round].length; i++) {\r... */\n      jump(tag_461)\n    tag_462:\n      pop\n        /* \"contract/lottery.sol\":19064:19072  revert() */\n      0x00\n      dup1\n      revert\n        /* \"contract/lottery.sol\":18514:19080  function getPlaceInQueue(address userAddress, uint8 round) public view returns(uint, uint) {\r... */\n    tag_457:\n      swap3\n      pop\n      swap3\n      swap1\n      pop\n      jump\t// out\n        /* \"contract/lottery.sol\":3052:3095  uint8 public constant marketingPercents = 7 */\n    tag_239:\n        /* \"contract/lottery.sol\":3094:3095  7 */\n      0x07\n        /* \"contract/lottery.sol\":3052:3095  uint8 public constant marketingPercents = 7 */\n      dup2\n      jump\t// out\n        /* \"contract/lottery.sol\":566:593  uint public todayWinerValue */\n    tag_242:\n      sload(0x33)\n      dup2\n      jump\t// out\n        /* \"contract/lottery.sol\":13651:14608  function sendPostRewardToReferrer(address userAddress, uint8 round, uint rewardValue) private {\r... */\n    tag_290:\n        /* \"contract/lottery.sol\":13766:13782  address referrer */\n      0x00\n        /* \"contract/lottery.sol\":13785:13790  users */\n      0x6b\n        /* \"contract/lottery.sol\":13785:13803  users[userAddress] */\n      0x00\n        /* \"contract/lottery.sol\":13791:13802  userAddress */\n      dup6\n        /* \"contract/lottery.sol\":13785:13803  users[userAddress] */\n      0xffffffffffffffffffffffffffffffffffffffff\n      and\n      0xffffffffffffffffffffffffffffffffffffffff\n      and\n      dup2\n      mstore\n      0x20\n      add\n      swap1\n      dup2\n      mstore\n      0x20\n      add\n      0x00\n      keccak256\n        /* \"contract/lottery.sol\":13785:13812  users[userAddress].referrer */\n      0x02\n      add\n      0x00\n      swap1\n      sload\n      swap1\n      0x0100\n      exp\n      swap1\n      div\n      0xffffffffffffffffffffffffffffffffffffffff\n      and\n        /* \"contract/lottery.sol\":13766:13812  address referrer = users[userAddress].referrer */\n      swap1\n      pop\n        /* \"contract/lottery.sol\":13838:13843  users */\n      0x6b\n        /* \"contract/lottery.sol\":13838:13853  users[referrer] */\n      0x00\n        /* \"contract/lottery.sol\":13844:13852  referrer */\n      dup3\n        /* \"contract/lottery.sol\":13838:13853  users[referrer] */\n      0xffffffffffffffffffffffffffffffffffffffff\n      and\n      0xffffffffffffffffffffffffffffffffffffffff\n      and\n      dup2\n      mstore\n      0x20\n      add\n      swap1\n      dup2\n      mstore\n      0x20\n      add\n      0x00\n      keccak256\n        /* \"contract/lottery.sol\":13838:13860  users[referrer].rounds */\n      0x07\n      add\n        /* \"contract/lottery.sol\":13838:13867  users[referrer].rounds[round] */\n      0x00\n        /* \"contract/lottery.sol\":13861:13866  round */\n      dup5\n        /* \"contract/lottery.sol\":13838:13867  users[referrer].rounds[round] */\n      0xff\n      and\n      0xff\n      and\n      dup2\n      mstore\n      0x20\n      add\n      swap1\n      dup2\n      mstore\n      0x20\n      add\n      0x00\n      keccak256\n        /* \"contract/lottery.sol\":13838:13874  users[referrer].rounds[round].active */\n      0x00\n      add\n      0x06\n      swap1\n      sload\n      swap1\n      0x0100\n      exp\n      swap1\n      div\n      0xff\n      and\n        /* \"contract/lottery.sol\":13833:14195  if (!users[referrer].rounds[round].active ) {\r... */\n      tag_468\n      jumpi\n        /* \"contract/lottery.sol\":13935:13946  rewardValue */\n      dup2\n        /* \"contract/lottery.sol\":13892:13897  users */\n      0x6b\n        /* \"contract/lottery.sol\":13892:13907  users[referrer] */\n      0x00\n        /* \"contract/lottery.sol\":13898:13906  referrer */\n      dup4\n        /* \"contract/lottery.sol\":13892:13907  users[referrer] */\n      0xffffffffffffffffffffffffffffffffffffffff\n      and\n      0xffffffffffffffffffffffffffffffffffffffff\n      and\n      dup2\n      mstore\n      0x20\n      add\n      swap1\n      dup2\n      mstore\n      0x20\n      add\n      0x00\n      keccak256\n        /* \"contract/lottery.sol\":13892:13931  users[referrer].missedReferralPayoutSum */\n      0x06\n      add\n      0x00\n        /* \"contract/lottery.sol\":13892:13946  users[referrer].missedReferralPayoutSum += rewardValue */\n      dup3\n      dup3\n      sload\n      add\n      swap3\n      pop\n      pop\n      dup2\n      swap1\n      sstore\n      pop\n        /* \"contract/lottery.sol\":14019:14030  rewardValue */\n      dup2\n        /* \"contract/lottery.sol\":13961:13966  users */\n      0x6b\n        /* \"contract/lottery.sol\":13961:13976  users[referrer] */\n      0x00\n        /* \"contract/lottery.sol\":13967:13975  referrer */\n      dup4\n        /* \"contract/lottery.sol\":13961:13976  users[referrer] */\n      0xffffffffffffffffffffffffffffffffffffffff\n      and\n      0xffffffffffffffffffffffffffffffffffffffff\n      and\n      dup2\n      mstore\n      0x20\n      add\n      swap1\n      dup2\n      mstore\n      0x20\n      add\n      0x00\n      keccak256\n        /* \"contract/lottery.sol\":13961:13983  users[referrer].rounds */\n      0x07\n      add\n        /* \"contract/lottery.sol\":13961:13990  users[referrer].rounds[round] */\n      0x00\n        /* \"contract/lottery.sol\":13984:13989  round */\n      dup6\n        /* \"contract/lottery.sol\":13961:13990  users[referrer].rounds[round] */\n      0xff\n      and\n      0xff\n      and\n      dup2\n      mstore\n      0x20\n      add\n      swap1\n      dup2\n      mstore\n      0x20\n      add\n      0x00\n      keccak256\n        /* \"contract/lottery.sol\":13961:14015  users[referrer].rounds[round].missedRefferalPostProfit */\n      0x05\n      add\n      0x00\n        /* \"contract/lottery.sol\":13961:14030  users[referrer].rounds[round].missedRefferalPostProfit += rewardValue */\n      dup3\n      dup3\n      sload\n      add\n      swap3\n      pop\n      pop\n      dup2\n      swap1\n      sstore\n      pop\n        /* \"contract/lottery.sol\":14080:14088  referrer */\n      dup1\n        /* \"contract/lottery.sol\":14050:14152  MissedReferralPostPayout(now, referrer, users[referrer].id, users[userAddress].id, round, rewardValue) */\n      0xffffffffffffffffffffffffffffffffffffffff\n      and\n      0x0883bf1f67528bdc0cbaa14cb71f54e9f4e65ec49eceaf639cb93a9e50aefc4c\n        /* \"contract/lottery.sol\":14075:14078  now */\n      timestamp\n        /* \"contract/lottery.sol\":14090:14095  users */\n      0x6b\n        /* \"contract/lottery.sol\":14090:14105  users[referrer] */\n      0x00\n        /* \"contract/lottery.sol\":14096:14104  referrer */\n      dup6\n        /* \"contract/lottery.sol\":14090:14105  users[referrer] */\n      0xffffffffffffffffffffffffffffffffffffffff\n      and\n      0xffffffffffffffffffffffffffffffffffffffff\n      and\n      dup2\n      mstore\n      0x20\n      add\n      swap1\n      dup2\n      mstore\n      0x20\n      add\n      0x00\n      keccak256\n        /* \"contract/lottery.sol\":14090:14108  users[referrer].id */\n      0x00\n      add\n      sload\n        /* \"contract/lottery.sol\":14110:14115  users */\n      0x6b\n        /* \"contract/lottery.sol\":14110:14128  users[userAddress] */\n      0x00\n        /* \"contract/lottery.sol\":14116:14127  userAddress */\n      dup10\n        /* \"contract/lottery.sol\":14110:14128  users[userAddress] */\n      0xffffffffffffffffffffffffffffffffffffffff\n      and\n      0xffffffffffffffffffffffffffffffffffffffff\n      and\n      dup2\n      mstore\n      0x20\n      add\n      swap1\n      dup2\n      mstore\n      0x20\n      add\n      0x00\n      keccak256\n        /* \"contract/lottery.sol\":14110:14131  users[userAddress].id */\n      0x00\n      add\n      sload\n        /* \"contract/lottery.sol\":14133:14138  round */\n      dup8\n        /* \"contract/lottery.sol\":14140:14151  rewardValue */\n      dup8\n        /* \"contract/lottery.sol\":14050:14152  MissedReferralPostPayout(now, referrer, users[referrer].id, users[userAddress].id, round, rewardValue) */\n      mload(0x40)\n      dup1\n      dup7\n      dup2\n      mstore\n      0x20\n      add\n      dup6\n      dup2\n      mstore\n      0x20\n      add\n      dup5\n      dup2\n      mstore\n      0x20\n      add\n      dup4\n      0xff\n      and\n      dup2\n      mstore\n      0x20\n      add\n      dup3\n      dup2\n      mstore\n      0x20\n      add\n      swap6\n      pop\n      pop\n      pop\n      pop\n      pop\n      pop\n      mload(0x40)\n      dup1\n      swap2\n      sub\n      swap1\n      log2\n        /* \"contract/lottery.sol\":14178:14183  owner */\n      0x66\n      0x02\n      swap1\n      sload\n      swap1\n      0x0100\n      exp\n      swap1\n      div\n      0xffffffffffffffffffffffffffffffffffffffff\n      and\n        /* \"contract/lottery.sol\":14167:14183  referrer = owner */\n      swap1\n      pop\n        /* \"contract/lottery.sol\":13833:14195  if (!users[referrer].rounds[round].active ) {\r... */\n    tag_468:\n        /* \"contract/lottery.sol\":14205:14214  bool sent */\n      0x00\n        /* \"contract/lottery.sol\":14225:14233  referrer */\n      dup2\n        /* \"contract/lottery.sol\":14217:14239  payable(referrer).send */\n      0xffffffffffffffffffffffffffffffffffffffff\n      and\n        /* \"contract/lottery.sol\":14217:14252  payable(referrer).send(rewardValue) */\n      0x08fc\n        /* \"contract/lottery.sol\":14240:14251  rewardValue */\n      dup5\n        /* \"contract/lottery.sol\":14217:14252  payable(referrer).send(rewardValue) */\n      swap1\n      dup2\n      iszero\n      mul\n      swap1\n      mload(0x40)\n      0x00\n      mload(0x40)\n      dup1\n      dup4\n      sub\n      dup2\n      dup6\n      dup9\n      dup9\n      call\n      swap4\n      pop\n      pop\n      pop\n      pop\n        /* \"contract/lottery.sol\":14205:14252  bool sent = payable(referrer).send(rewardValue) */\n      swap1\n      pop\n        /* \"contract/lottery.sol\":14267:14271  sent */\n      dup1\n        /* \"contract/lottery.sol\":14263:14601  if (sent) {\r... */\n      iszero\n      tag_470\n      jumpi\n        /* \"contract/lottery.sol\":14339:14350  rewardValue */\n      dup3\n        /* \"contract/lottery.sol\":14288:14293  users */\n      0x6b\n        /* \"contract/lottery.sol\":14288:14303  users[referrer] */\n      0x00\n        /* \"contract/lottery.sol\":14294:14302  referrer */\n      dup5\n        /* \"contract/lottery.sol\":14288:14303  users[referrer] */\n      0xffffffffffffffffffffffffffffffffffffffff\n      and\n      0xffffffffffffffffffffffffffffffffffffffff\n      and\n      dup2\n      mstore\n      0x20\n      add\n      swap1\n      dup2\n      mstore\n      0x20\n      add\n      0x00\n      keccak256\n        /* \"contract/lottery.sol\":14288:14310  users[referrer].rounds */\n      0x07\n      add\n        /* \"contract/lottery.sol\":14288:14317  users[referrer].rounds[round] */\n      0x00\n        /* \"contract/lottery.sol\":14311:14316  round */\n      dup7\n        /* \"contract/lottery.sol\":14288:14317  users[referrer].rounds[round] */\n      0xff\n      and\n      0xff\n      and\n      dup2\n      mstore\n      0x20\n      add\n      swap1\n      dup2\n      mstore\n      0x20\n      add\n      0x00\n      keccak256\n        /* \"contract/lottery.sol\":14288:14335  users[referrer].rounds[round].referralPayoutSum */\n      0x02\n      add\n      0x00\n        /* \"contract/lottery.sol\":14288:14350  users[referrer].rounds[round].referralPayoutSum += rewardValue */\n      dup3\n      dup3\n      sload\n      add\n      swap3\n      pop\n      pop\n      dup2\n      swap1\n      sstore\n      pop\n        /* \"contract/lottery.sol\":14402:14413  rewardValue */\n      dup3\n        /* \"contract/lottery.sol\":14365:14370  users */\n      0x6b\n        /* \"contract/lottery.sol\":14365:14380  users[referrer] */\n      0x00\n        /* \"contract/lottery.sol\":14371:14379  referrer */\n      dup5\n        /* \"contract/lottery.sol\":14365:14380  users[referrer] */\n      0xffffffffffffffffffffffffffffffffffffffff\n      and\n      0xffffffffffffffffffffffffffffffffffffffff\n      and\n      dup2\n      mstore\n      0x20\n      add\n      swap1\n      dup2\n      mstore\n      0x20\n      add\n      0x00\n      keccak256\n        /* \"contract/lottery.sol\":14365:14398  users[referrer].referralPayoutSum */\n      0x04\n      add\n      0x00\n        /* \"contract/lottery.sol\":14365:14413  users[referrer].referralPayoutSum += rewardValue */\n      dup3\n      dup3\n      sload\n      add\n      swap3\n      pop\n      pop\n      dup2\n      swap1\n      sstore\n      pop\n        /* \"contract/lottery.sol\":14457:14465  referrer */\n      dup2\n        /* \"contract/lottery.sol\":14433:14529  ReferralPostPayout(now, referrer, users[referrer].id, users[userAddress].id, round, rewardValue) */\n      0xffffffffffffffffffffffffffffffffffffffff\n      and\n      0x0ed8e24e8c3d702aae6ec32d5d8fbb15b20e1905fcd8e9a2313dff009a821750\n        /* \"contract/lottery.sol\":14452:14455  now */\n      timestamp\n        /* \"contract/lottery.sol\":14467:14472  users */\n      0x6b\n        /* \"contract/lottery.sol\":14467:14482  users[referrer] */\n      0x00\n        /* \"contract/lottery.sol\":14473:14481  referrer */\n      dup7\n        /* \"contract/lottery.sol\":14467:14482  users[referrer] */\n      0xffffffffffffffffffffffffffffffffffffffff\n      and\n      0xffffffffffffffffffffffffffffffffffffffff\n      and\n      dup2\n      mstore\n      0x20\n      add\n      swap1\n      dup2\n      mstore\n      0x20\n      add\n      0x00\n      keccak256\n        /* \"contract/lottery.sol\":14467:14485  users[referrer].id */\n      0x00\n      add\n      sload\n        /* \"contract/lottery.sol\":14487:14492  users */\n      0x6b\n        /* \"contract/lottery.sol\":14487:14505  users[userAddress] */\n      0x00\n        /* \"contract/lottery.sol\":14493:14504  userAddress */\n      dup11\n        /* \"contract/lottery.sol\":14487:14505  users[userAddress] */\n      0xffffffffffffffffffffffffffffffffffffffff\n      and\n      0xffffffffffffffffffffffffffffffffffffffff\n      and\n      dup2\n      mstore\n      0x20\n      add\n      swap1\n      dup2\n      mstore\n      0x20\n      add\n      0x00\n      keccak256\n        /* \"contract/lottery.sol\":14487:14508  users[userAddress].id */\n      0x00\n      add\n      sload\n        /* \"contract/lottery.sol\":14510:14515  round */\n      dup9\n        /* \"contract/lottery.sol\":14517:14528  rewardValue */\n      dup9\n        /* \"contract/lottery.sol\":14433:14529  ReferralPostPayout(now, referrer, users[referrer].id, users[userAddress].id, round, rewardValue) */\n      mload(0x40)\n      dup1\n      dup7\n      dup2\n      mstore\n      0x20\n      add\n      dup6\n      dup2\n      mstore\n      0x20\n      add\n      dup5\n      dup2\n      mstore\n      0x20\n      add\n      dup4\n      0xff\n      and\n      dup2\n      mstore\n      0x20\n      add\n      dup3\n      dup2\n      mstore\n      0x20\n      add\n      swap6\n      pop\n      pop\n      pop\n      pop\n      pop\n      pop\n      mload(0x40)\n      dup1\n      swap2\n      sub\n      swap1\n      log2\n        /* \"contract/lottery.sol\":14263:14601  if (sent) {\r... */\n      jump(tag_471)\n    tag_470:\n        /* \"contract/lottery.sol\":14562:14567  owner */\n      0x66\n      0x02\n      swap1\n      sload\n      swap1\n      0x0100\n      exp\n      swap1\n      div\n      0xffffffffffffffffffffffffffffffffffffffff\n      and\n        /* \"contract/lottery.sol\":14562:14576  owner.transfer */\n      0xffffffffffffffffffffffffffffffffffffffff\n      and\n        /* \"contract/lottery.sol\":14562:14589  owner.transfer(rewardValue) */\n      0x08fc\n        /* \"contract/lottery.sol\":14577:14588  rewardValue */\n      dup5\n        /* \"contract/lottery.sol\":14562:14589  owner.transfer(rewardValue) */\n      swap1\n      dup2\n      iszero\n      mul\n      swap1\n      mload(0x40)\n      0x00\n      mload(0x40)\n      dup1\n      dup4\n      sub\n      dup2\n      dup6\n      dup9\n      dup9\n      call\n      swap4\n      pop\n      pop\n      pop\n      pop\n      iszero\n      dup1\n      iszero\n      tag_473\n      jumpi\n      returndatasize\n      0x00\n      dup1\n      returndatacopy\n      revert(0x00, returndatasize)\n    tag_473:\n      pop\n        /* \"contract/lottery.sol\":14263:14601  if (sent) {\r... */\n    tag_471:\n        /* \"contract/lottery.sol\":13651:14608  function sendPostRewardToReferrer(address userAddress, uint8 round, uint rewardValue) private {\r... */\n      pop\n      pop\n      pop\n      pop\n      pop\n      jump\t// out\n        /* \"contract/lottery.sol\":12706:13645  function sendRewardToReferrer(address userAddress, uint8 round, uint rewardValue) private {\r... */\n    tag_308:\n        /* \"contract/lottery.sol\":12816:12832  address referrer */\n      0x00\n        /* \"contract/lottery.sol\":12835:12840  users */\n      0x6b\n        /* \"contract/lottery.sol\":12835:12853  users[userAddress] */\n      0x00\n        /* \"contract/lottery.sol\":12841:12852  userAddress */\n      dup6\n        /* \"contract/lottery.sol\":12835:12853  users[userAddress] */\n      0xffffffffffffffffffffffffffffffffffffffff\n      and\n      0xffffffffffffffffffffffffffffffffffffffff\n      and\n      dup2\n      mstore\n      0x20\n      add\n      swap1\n      dup2\n      mstore\n      0x20\n      add\n      0x00\n      keccak256\n        /* \"contract/lottery.sol\":12835:12862  users[userAddress].referrer */\n      0x02\n      add\n      0x00\n      swap1\n      sload\n      swap1\n      0x0100\n      exp\n      swap1\n      div\n      0xffffffffffffffffffffffffffffffffffffffff\n      and\n        /* \"contract/lottery.sol\":12816:12862  address referrer = users[userAddress].referrer */\n      swap1\n      pop\n        /* \"contract/lottery.sol\":12888:12893  users */\n      0x6b\n        /* \"contract/lottery.sol\":12888:12903  users[referrer] */\n      0x00\n        /* \"contract/lottery.sol\":12894:12902  referrer */\n      dup3\n        /* \"contract/lottery.sol\":12888:12903  users[referrer] */\n      0xffffffffffffffffffffffffffffffffffffffff\n      and\n      0xffffffffffffffffffffffffffffffffffffffff\n      and\n      dup2\n      mstore\n      0x20\n      add\n      swap1\n      dup2\n      mstore\n      0x20\n      add\n      0x00\n      keccak256\n        /* \"contract/lottery.sol\":12888:12910  users[referrer].rounds */\n      0x07\n      add\n        /* \"contract/lottery.sol\":12888:12917  users[referrer].rounds[round] */\n      0x00\n        /* \"contract/lottery.sol\":12911:12916  round */\n      dup5\n        /* \"contract/lottery.sol\":12888:12917  users[referrer].rounds[round] */\n      0xff\n      and\n      0xff\n      and\n      dup2\n      mstore\n      0x20\n      add\n      swap1\n      dup2\n      mstore\n      0x20\n      add\n      0x00\n      keccak256\n        /* \"contract/lottery.sol\":12888:12924  users[referrer].rounds[round].active */\n      0x00\n      add\n      0x06\n      swap1\n      sload\n      swap1\n      0x0100\n      exp\n      swap1\n      div\n      0xff\n      and\n        /* \"contract/lottery.sol\":12883:13236  if (!users[referrer].rounds[round].active) {\r... */\n      tag_475\n      jumpi\n        /* \"contract/lottery.sol\":12984:12995  rewardValue */\n      dup2\n        /* \"contract/lottery.sol\":12941:12946  users */\n      0x6b\n        /* \"contract/lottery.sol\":12941:12956  users[referrer] */\n      0x00\n        /* \"contract/lottery.sol\":12947:12955  referrer */\n      dup4\n        /* \"contract/lottery.sol\":12941:12956  users[referrer] */\n      0xffffffffffffffffffffffffffffffffffffffff\n      and\n      0xffffffffffffffffffffffffffffffffffffffff\n      and\n      dup2\n      mstore\n      0x20\n      add\n      swap1\n      dup2\n      mstore\n      0x20\n      add\n      0x00\n      keccak256\n        /* \"contract/lottery.sol\":12941:12980  users[referrer].missedReferralPayoutSum */\n      0x06\n      add\n      0x00\n        /* \"contract/lottery.sol\":12941:12995  users[referrer].missedReferralPayoutSum += rewardValue */\n      dup3\n      dup3\n      sload\n      add\n      swap3\n      pop\n      pop\n      dup2\n      swap1\n      sstore\n      pop\n        /* \"contract/lottery.sol\":13064:13075  rewardValue */\n      dup2\n        /* \"contract/lottery.sol\":13010:13015  users */\n      0x6b\n        /* \"contract/lottery.sol\":13010:13025  users[referrer] */\n      0x00\n        /* \"contract/lottery.sol\":13016:13024  referrer */\n      dup4\n        /* \"contract/lottery.sol\":13010:13025  users[referrer] */\n      0xffffffffffffffffffffffffffffffffffffffff\n      and\n      0xffffffffffffffffffffffffffffffffffffffff\n      and\n      dup2\n      mstore\n      0x20\n      add\n      swap1\n      dup2\n      mstore\n      0x20\n      add\n      0x00\n      keccak256\n        /* \"contract/lottery.sol\":13010:13032  users[referrer].rounds */\n      0x07\n      add\n        /* \"contract/lottery.sol\":13010:13039  users[referrer].rounds[round] */\n      0x00\n        /* \"contract/lottery.sol\":13033:13038  round */\n      dup6\n        /* \"contract/lottery.sol\":13010:13039  users[referrer].rounds[round] */\n      0xff\n      and\n      0xff\n      and\n      dup2\n      mstore\n      0x20\n      add\n      swap1\n      dup2\n      mstore\n      0x20\n      add\n      0x00\n      keccak256\n        /* \"contract/lottery.sol\":13010:13060  users[referrer].rounds[round].missedRefferalProfit */\n      0x04\n      add\n      0x00\n        /* \"contract/lottery.sol\":13010:13075  users[referrer].rounds[round].missedRefferalProfit += rewardValue */\n      dup3\n      dup3\n      sload\n      add\n      swap3\n      pop\n      pop\n      dup2\n      swap1\n      sstore\n      pop\n        /* \"contract/lottery.sol\":13121:13129  referrer */\n      dup1\n        /* \"contract/lottery.sol\":13095:13193  MissedReferralPayout(now, referrer, users[referrer].id, users[userAddress].id, round, rewardValue) */\n      0xffffffffffffffffffffffffffffffffffffffff\n      and\n      0x71571cfdf540d399d1a547446d2f4090641fc35ae5bf0fa7148c5368a7d5912e\n        /* \"contract/lottery.sol\":13116:13119  now */\n      timestamp\n        /* \"contract/lottery.sol\":13131:13136  users */\n      0x6b\n        /* \"contract/lottery.sol\":13131:13146  users[referrer] */\n      0x00\n        /* \"contract/lottery.sol\":13137:13145  referrer */\n      dup6\n        /* \"contract/lottery.sol\":13131:13146  users[referrer] */\n      0xffffffffffffffffffffffffffffffffffffffff\n      and\n      0xffffffffffffffffffffffffffffffffffffffff\n      and\n      dup2\n      mstore\n      0x20\n      add\n      swap1\n      dup2\n      mstore\n      0x20\n      add\n      0x00\n      keccak256\n        /* \"contract/lottery.sol\":13131:13149  users[referrer].id */\n      0x00\n      add\n      sload\n        /* \"contract/lottery.sol\":13151:13156  users */\n      0x6b\n        /* \"contract/lottery.sol\":13151:13169  users[userAddress] */\n      0x00\n        /* \"contract/lottery.sol\":13157:13168  userAddress */\n      dup10\n        /* \"contract/lottery.sol\":13151:13169  users[userAddress] */\n      0xffffffffffffffffffffffffffffffffffffffff\n      and\n      0xffffffffffffffffffffffffffffffffffffffff\n      and\n      dup2\n      mstore\n      0x20\n      add\n      swap1\n      dup2\n      mstore\n      0x20\n      add\n      0x00\n      keccak256\n        /* \"contract/lottery.sol\":13151:13172  users[userAddress].id */\n      0x00\n      add\n      sload\n        /* \"contract/lottery.sol\":13174:13179  round */\n      dup8\n        /* \"contract/lottery.sol\":13181:13192  rewardValue */\n      dup8\n        /* \"contract/lottery.sol\":13095:13193  MissedReferralPayout(now, referrer, users[referrer].id, users[userAddress].id, round, rewardValue) */\n      mload(0x40)\n      dup1\n      dup7\n      dup2\n      mstore\n      0x20\n      add\n      dup6\n      dup2\n      mstore\n      0x20\n      add\n      dup5\n      dup2\n      mstore\n      0x20\n      add\n      dup4\n      0xff\n      and\n      dup2\n      mstore\n      0x20\n      add\n      dup3\n      dup2\n      mstore\n      0x20\n      add\n      swap6\n      pop\n      pop\n      pop\n      pop\n      pop\n      pop\n      mload(0x40)\n      dup1\n      swap2\n      sub\n      swap1\n      log2\n        /* \"contract/lottery.sol\":13219:13224  owner */\n      0x66\n      0x02\n      swap1\n      sload\n      swap1\n      0x0100\n      exp\n      swap1\n      div\n      0xffffffffffffffffffffffffffffffffffffffff\n      and\n        /* \"contract/lottery.sol\":13208:13224  referrer = owner */\n      swap1\n      pop\n        /* \"contract/lottery.sol\":12883:13236  if (!users[referrer].rounds[round].active) {\r... */\n    tag_475:\n        /* \"contract/lottery.sol\":13246:13255  bool sent */\n      0x00\n        /* \"contract/lottery.sol\":13266:13274  referrer */\n      dup2\n        /* \"contract/lottery.sol\":13258:13280  payable(referrer).send */\n      0xffffffffffffffffffffffffffffffffffffffff\n      and\n        /* \"contract/lottery.sol\":13258:13293  payable(referrer).send(rewardValue) */\n      0x08fc\n        /* \"contract/lottery.sol\":13281:13292  rewardValue */\n      dup5\n        /* \"contract/lottery.sol\":13258:13293  payable(referrer).send(rewardValue) */\n      swap1\n      dup2\n      iszero\n      mul\n      swap1\n      mload(0x40)\n      0x00\n      mload(0x40)\n      dup1\n      dup4\n      sub\n      dup2\n      dup6\n      dup9\n      dup9\n      call\n      swap4\n      pop\n      pop\n      pop\n      pop\n        /* \"contract/lottery.sol\":13246:13293  bool sent = payable(referrer).send(rewardValue) */\n      swap1\n      pop\n        /* \"contract/lottery.sol\":13308:13312  sent */\n      dup1\n        /* \"contract/lottery.sol\":13304:13638  if (sent) {\r... */\n      iszero\n      tag_477\n      jumpi\n        /* \"contract/lottery.sol\":13380:13391  rewardValue */\n      dup3\n        /* \"contract/lottery.sol\":13329:13334  users */\n      0x6b\n        /* \"contract/lottery.sol\":13329:13344  users[referrer] */\n      0x00\n        /* \"contract/lottery.sol\":13335:13343  referrer */\n      dup5\n        /* \"contract/lottery.sol\":13329:13344  users[referrer] */\n      0xffffffffffffffffffffffffffffffffffffffff\n      and\n      0xffffffffffffffffffffffffffffffffffffffff\n      and\n      dup2\n      mstore\n      0x20\n      add\n      swap1\n      dup2\n      mstore\n      0x20\n      add\n      0x00\n      keccak256\n        /* \"contract/lottery.sol\":13329:13351  users[referrer].rounds */\n      0x07\n      add\n        /* \"contract/lottery.sol\":13329:13358  users[referrer].rounds[round] */\n      0x00\n        /* \"contract/lottery.sol\":13352:13357  round */\n      dup7\n        /* \"contract/lottery.sol\":13329:13358  users[referrer].rounds[round] */\n      0xff\n      and\n      0xff\n      and\n      dup2\n      mstore\n      0x20\n      add\n      swap1\n      dup2\n      mstore\n      0x20\n      add\n      0x00\n      keccak256\n        /* \"contract/lottery.sol\":13329:13376  users[referrer].rounds[round].referralPayoutSum */\n      0x02\n      add\n      0x00\n        /* \"contract/lottery.sol\":13329:13391  users[referrer].rounds[round].referralPayoutSum += rewardValue */\n      dup3\n      dup3\n      sload\n      add\n      swap3\n      pop\n      pop\n      dup2\n      swap1\n      sstore\n      pop\n        /* \"contract/lottery.sol\":13443:13454  rewardValue */\n      dup3\n        /* \"contract/lottery.sol\":13406:13411  users */\n      0x6b\n        /* \"contract/lottery.sol\":13406:13421  users[referrer] */\n      0x00\n        /* \"contract/lottery.sol\":13412:13420  referrer */\n      dup5\n        /* \"contract/lottery.sol\":13406:13421  users[referrer] */\n      0xffffffffffffffffffffffffffffffffffffffff\n      and\n      0xffffffffffffffffffffffffffffffffffffffff\n      and\n      dup2\n      mstore\n      0x20\n      add\n      swap1\n      dup2\n      mstore\n      0x20\n      add\n      0x00\n      keccak256\n        /* \"contract/lottery.sol\":13406:13439  users[referrer].referralPayoutSum */\n      0x04\n      add\n      0x00\n        /* \"contract/lottery.sol\":13406:13454  users[referrer].referralPayoutSum += rewardValue */\n      dup3\n      dup3\n      sload\n      add\n      swap3\n      pop\n      pop\n      dup2\n      swap1\n      sstore\n      pop\n        /* \"contract/lottery.sol\":13494:13502  referrer */\n      dup2\n        /* \"contract/lottery.sol\":13474:13566  ReferralPayout(now, referrer, users[referrer].id, users[userAddress].id, round, rewardValue) */\n      0xffffffffffffffffffffffffffffffffffffffff\n      and\n      0xadbead61ed0e78434af1793fe9c549f995680ccc1d4cc2015e78bffc67b7b181\n        /* \"contract/lottery.sol\":13489:13492  now */\n      timestamp\n        /* \"contract/lottery.sol\":13504:13509  users */\n      0x6b\n        /* \"contract/lottery.sol\":13504:13519  users[referrer] */\n      0x00\n        /* \"contract/lottery.sol\":13510:13518  referrer */\n      dup7\n        /* \"contract/lottery.sol\":13504:13519  users[referrer] */\n      0xffffffffffffffffffffffffffffffffffffffff\n      and\n      0xffffffffffffffffffffffffffffffffffffffff\n      and\n      dup2\n      mstore\n      0x20\n      add\n      swap1\n      dup2\n      mstore\n      0x20\n      add\n      0x00\n      keccak256\n        /* \"contract/lottery.sol\":13504:13522  users[referrer].id */\n      0x00\n      add\n      sload\n        /* \"contract/lottery.sol\":13524:13529  users */\n      0x6b\n        /* \"contract/lottery.sol\":13524:13542  users[userAddress] */\n      0x00\n        /* \"contract/lottery.sol\":13530:13541  userAddress */\n      dup11\n        /* \"contract/lottery.sol\":13524:13542  users[userAddress] */\n      0xffffffffffffffffffffffffffffffffffffffff\n      and\n      0xffffffffffffffffffffffffffffffffffffffff\n      and\n      dup2\n      mstore\n      0x20\n      add\n      swap1\n      dup2\n      mstore\n      0x20\n      add\n      0x00\n      keccak256\n        /* \"contract/lottery.sol\":13524:13545  users[userAddress].id */\n      0x00\n      add\n      sload\n        /* \"contract/lottery.sol\":13547:13552  round */\n      dup9\n        /* \"contract/lottery.sol\":13554:13565  rewardValue */\n      dup9\n        /* \"contract/lottery.sol\":13474:13566  ReferralPayout(now, referrer, users[referrer].id, users[userAddress].id, round, rewardValue) */\n      mload(0x40)\n      dup1\n      dup7\n      dup2\n      mstore\n      0x20\n      add\n      dup6\n      dup2\n      mstore\n      0x20\n      add\n      dup5\n      dup2\n      mstore\n      0x20\n      add\n      dup4\n      0xff\n      and\n      dup2\n      mstore\n      0x20\n      add\n      dup3\n      dup2\n      mstore\n      0x20\n      add\n      swap6\n      pop\n      pop\n      pop\n      pop\n      pop\n      pop\n      mload(0x40)\n      dup1\n      swap2\n      sub\n      swap1\n      log2\n        /* \"contract/lottery.sol\":13304:13638  if (sent) {\r... */\n      jump(tag_478)\n    tag_477:\n        /* \"contract/lottery.sol\":13599:13604  owner */\n      0x66\n      0x02\n      swap1\n      sload\n      swap1\n      0x0100\n      exp\n      swap1\n      div\n      0xffffffffffffffffffffffffffffffffffffffff\n      and\n        /* \"contract/lottery.sol\":13599:13613  owner.transfer */\n      0xffffffffffffffffffffffffffffffffffffffff\n      and\n        /* \"contract/lottery.sol\":13599:13626  owner.transfer(rewardValue) */\n      0x08fc\n        /* \"contract/lottery.sol\":13614:13625  rewardValue */\n      dup5\n        /* \"contract/lottery.sol\":13599:13626  owner.transfer(rewardValue) */\n      swap1\n      dup2\n      iszero\n      mul\n      swap1\n      mload(0x40)\n      0x00\n      mload(0x40)\n      dup1\n      dup4\n      sub\n      dup2\n      dup6\n      dup9\n      dup9\n      call\n      swap4\n      pop\n      pop\n      pop\n      pop\n      iszero\n      dup1\n      iszero\n      tag_480\n      jumpi\n      returndatasize\n      0x00\n      dup1\n      returndatacopy\n      revert(0x00, returndatasize)\n    tag_480:\n      pop\n        /* \"contract/lottery.sol\":13304:13638  if (sent) {\r... */\n    tag_478:\n        /* \"contract/lottery.sol\":12706:13645  function sendRewardToReferrer(address userAddress, uint8 round, uint rewardValue) private {\r... */\n      pop\n      pop\n      pop\n      pop\n      pop\n      jump\t// out\n    tag_344:\n      mload(0x40)\n      dup1\n      0xa0\n      add\n      0x40\n      mstore\n      dup1\n      0x05\n      swap1\n      0x20\n      dup3\n      mul\n      dup1\n      calldatasize\n      dup4\n      calldatacopy\n      dup1\n      dup3\n      add\n      swap2\n      pop\n      pop\n      swap1\n      pop\n      pop\n      swap1\n      jump\t// out\n    tag_347:\n      mload(0x40)\n      dup1\n      0x0200\n      add\n      0x40\n      mstore\n      dup1\n      0x10\n      swap1\n      0x20\n      dup3\n      mul\n      dup1\n      calldatasize\n      dup4\n      calldatacopy\n      dup1\n      dup3\n      add\n      swap2\n      pop\n      pop\n      swap1\n      pop\n      pop\n      swap1\n      jump\t// out\n    tag_382:\n      mload(0x40)\n      dup1\n      0x0120\n      add\n      0x40\n      mstore\n      dup1\n      0x00\n      dup2\n      mstore\n      0x20\n      add\n      0x00\n      dup2\n      mstore\n      0x20\n      add\n      and(0xffffffffffffffffffffffffffffffffffffffff, 0x00)\n      dup2\n      mstore\n      0x20\n      add\n      0x00\n      dup2\n      mstore\n      0x20\n      add\n      0x00\n      dup2\n      mstore\n      0x20\n      add\n      0x00\n      dup2\n      mstore\n      0x20\n      add\n      0x00\n      dup2\n      mstore\n      0x20\n      add\n      and(0xff, 0x00)\n      dup2\n      mstore\n      0x20\n      add\n      0x00\n      dup2\n      mstore\n      pop\n      swap1\n      jump\t// out\n    tag_387:\n      mload(0x40)\n      dup1\n      0x0640\n      add\n      0x40\n      mstore\n      dup1\n      0x32\n      swap1\n      0x20\n      dup3\n      mul\n      dup1\n      calldatasize\n      dup4\n      calldatacopy\n      dup1\n      dup3\n      add\n      swap2\n      pop\n      pop\n      swap1\n      pop\n      pop\n      swap1\n      jump\t// out\n    stop\n    data_b6be230979c9056288d8dc9ecf24c47d930143c98ecebf6ab7c712e8601758a8 43616e27742066696e6420726f756e6420746f206275792e204d617962652073656e742076616c756520697320696e76616c69642e\n\n    auxdata: 0xa2646970667358221220dc4f84eb775d6d685952ae65078ec038754312c4b076fb8fc7bc2f85755fb27964736f6c634300060c0033\n}\n",
				"bytecode": {
					"linkReferences": {},
					"object": "60806040526009606660006101000a81548160ff021916908360ff1602179055506008606660016101000a81548160ff021916908360ff160217905550604051806102000160405280600067ffffffffffffffff16815260200166b1a2bc2ec5000067ffffffffffffffff16815260200167011c37937e08000067ffffffffffffffff1681526020016701cdda4faccd000067ffffffffffffffff16815260200167030d98d59a96000067ffffffffffffffff168152602001670494654067e1000067ffffffffffffffff1681526020016706f05b59d3b2000067ffffffffffffffff1681526020016709b6e64a8ec6000067ffffffffffffffff168152602001670e92596fd629000067ffffffffffffffff16815260200167141f6f514c51000067ffffffffffffffff168152602001671b0fcaab2003000067ffffffffffffffff16815260200167214e8348c4f0000067ffffffffffffffff1681526020016730927f74c9de000067ffffffffffffffff16815260200167482a1c730008000067ffffffffffffffff16815260200167654ecf52ac5a000067ffffffffffffffff168152602001678ac7230489e8000067ffffffffffffffff168152506068906010620001d0929190620006d6565b506001606880549050036069556002606a55348015620001ef57600080fd5b5060405162005a1738038062005a17833981810160405260208110156200021557600080fd5b8101908080519060200190929190505050600160008190555033606660026101000a81548173ffffffffffffffffffffffffffffffffffffffff021916908373ffffffffffffffffffffffffffffffffffffffff16021790555080606760006101000a81548173ffffffffffffffffffffffffffffffffffffffff021916908373ffffffffffffffffffffffffffffffffffffffff16021790555060405180610120016040528060018152602001428152602001600073ffffffffffffffffffffffffffffffffffffffff16815260200160008152602001600081526020016000815260200160008152602001600060ff1681526020016000815250606b6000606660029054906101000a900473ffffffffffffffffffffffffffffffffffffffff1673ffffffffffffffffffffffffffffffffffffffff1673ffffffffffffffffffffffffffffffffffffffff168152602001908152602001600020600082015181600001556020820151816001015560408201518160020160006101000a81548173ffffffffffffffffffffffffffffffffffffffff021916908373ffffffffffffffffffffffffffffffffffffffff160217905550606082015181600301556080820151816004015560a0820151816005015560c0820151816006015560e08201518160080160006101000a81548160ff021916908360ff1602179055506101008201518160090155905050606660029054906101000a900473ffffffffffffffffffffffffffffffffffffffff16606c60006001815260200190815260200160002060006101000a81548173ffffffffffffffffffffffffffffffffffffffff021916908373ffffffffffffffffffffffffffffffffffffffff160217905550606f60000160008154809291906001019190505550606f600101600081548092919060010191905055506000600190505b6069548160ff1611620006ce57620d2f00420160458260ff1660108110620004ee57fe5b01819055506001606b6000606660029054906101000a900473ffffffffffffffffffffffffffffffffffffffff1673ffffffffffffffffffffffffffffffffffffffff1673ffffffffffffffffffffffffffffffffffffffff16815260200190815260200160002060070160008360ff1660ff16815260200190815260200160002060000160066101000a81548160ff021916908315150217905550600f606b6000606660029054906101000a900473ffffffffffffffffffffffffffffffffffffffff1673ffffffffffffffffffffffffffffffffffffffff1673ffffffffffffffffffffffffffffffffffffffff16815260200190815260200160002060070160008360ff1660ff16815260200190815260200160002060000160026101000a81548161ffff021916908361ffff160217905550606d60008260ff1660ff168152602001908152602001600020606660029054906101000a900473ffffffffffffffffffffffffffffffffffffffff169080600181540180825580915050600190039060005260206000200160009091909190916101000a81548173ffffffffffffffffffffffffffffffffffffffff021916908373ffffffffffffffffffffffffffffffffffffffff1602179055508080600101915050620004ca565b505062000753565b82805482825590600052602060002090810192821562000721579160200282015b8281111562000720578251829067ffffffffffffffff16905591602001919060010190620006f7565b5b50905062000730919062000734565b5090565b5b808211156200074f57600081600090555060010162000735565b5090565b6152b480620007636000396000f3fe60806040526004361061024a5760003560e01c8063693864f311610139578063a7345f56116100b6578063bfe248931161007a578063bfe248931461106c578063c34f6b0d1461109a578063c8e161a1146110b1578063cfce504414611104578063eca2c0261461117d578063f21efb5b146111ab5761031b565b8063a7345f5614610e7a578063a87430ba14610ea8578063a9a9cfe014610f5e578063b3791e7f14610fc3578063bd4b77ee146110075761031b565b80638a03ad86116100fd5780638a03ad8614610d025780638c4636c114610d675780638da5cb5b14610dba578063950fabf314610dfb578063968763a014610e365761031b565b8063693864f314610b995780636f77926b14610be85780636f9fb98a14610ca25780637ccd94da14610ccd57806388b4504614610cf85761031b565b80632d3e474a116101c75780634cdbe9081161018b5780634cdbe908146109ae5780635a8a14d0146109dc5780635c279ff914610a0d5780635ce974b914610afb5780635d7b1cc914610b4a5761031b565b80632d3e474a146107e85780633336b63e14610829578063375e3b551461087c578063385399f9146108ce5780634a9fefc7146109335761031b565b8063216586581161020e57806321658658146104c9578063230f7f82146104f457806326efd443146107025780632a2c908e146107675780632cc8da43146107ba5761031b565b806301b91a1714610320578063162790551461038c578063163f7522146103f35780631aa3a0081461045a5780631dfd8fe0146104645761031b565b3661031b576000600190505b6069548160ff16116102c7573460688260ff168154811061027357fe5b906000526020600020015414156102ba5760018160ff1614801561029d575061029b336111d6565b155b156102ab576102aa611225565b5b6102b481611252565b50610319565b8080600101915050610256565b506040517f08c379a000000000000000000000000000000000000000000000000000000000815260040180806020018281038252603581526020018061524a6035913960400191505060405180910390fd5b005b600080fd5b34801561032c57600080fd5b506103356129f2565b6040518080602001828103825283818151815260200191508051906020019060200280838360005b8381101561037857808201518184015260208101905061035d565b505050509050019250505060405180910390f35b34801561039857600080fd5b506103db600480360360208110156103af57600080fd5b81019080803573ffffffffffffffffffffffffffffffffffffffff169060200190929190505050612a4a565b60405180821515815260200191505060405180910390f35b3480156103ff57600080fd5b506104426004803603602081101561041657600080fd5b81019080803573ffffffffffffffffffffffffffffffffffffffff1690602001909291905050506111d6565b60405180821515815260200191505060405180910390f35b610462611225565b005b34801561047057600080fd5b5061049d6004803603602081101561048757600080fd5b8101908080359060200190929190505050612a64565b604051808273ffffffffffffffffffffffffffffffffffffffff16815260200191505060405180910390f35b3480156104d557600080fd5b506104de612a97565b6040518082815260200191505060405180910390f35b34801561050057600080fd5b506105436004803603602081101561051757600080fd5b81019080803573ffffffffffffffffffffffffffffffffffffffff169060200190929190505050612a9c565b6040518080602001806020018060200180602001806020018060200187810387528d818151815260200191508051906020019060200280838360005b8381101561059a57808201518184015260208101905061057f565b5050505090500187810386528c818151815260200191508051906020019060200280838360005b838110156105dc5780820151818401526020810190506105c1565b5050505090500187810385528b818151815260200191508051906020019060200280838360005b8381101561061e578082015181840152602081019050610603565b5050505090500187810384528a818151815260200191508051906020019060200280838360005b83811015610660578082015181840152602081019050610645565b50505050905001878103835289818151815260200191508051906020019060200280838360005b838110156106a2578082015181840152602081019050610687565b50505050905001878103825288818151815260200191508051906020019060200280838360005b838110156106e45780820151818401526020810190506106c9565b505050509050019c5050505050505050505050505060405180910390f35b34801561070e57600080fd5b5061073b6004803603602081101561072557600080fd5b8101908080359060200190929190505050612ff2565b604051808273ffffffffffffffffffffffffffffffffffffffff16815260200191505060405180910390f35b34801561077357600080fd5b5061077c613025565b6040518082600560200280838360005b838110156107a757808201518184015260208101905061078c565b5050505090500191505060405180910390f35b3480156107c657600080fd5b506107cf61306c565b604051808260ff16815260200191505060405180910390f35b3480156107f457600080fd5b506107fd613071565b604051808273ffffffffffffffffffffffffffffffffffffffff16815260200191505060405180910390f35b34801561083557600080fd5b5061083e613097565b6040518082601060200280838360005b8381101561086957808201518184015260208101905061084e565b5050505090500191505060405180910390f35b34801561088857600080fd5b506108b86004803603602081101561089f57600080fd5b81019080803560ff1690602001909291905050506130e2565b6040518082815260200191505060405180910390f35b3480156108da57600080fd5b5061091d600480360360208110156108f157600080fd5b81019080803573ffffffffffffffffffffffffffffffffffffffff169060200190929190505050613153565b6040518082815260200191505060405180910390f35b34801561093f57600080fd5b506109826004803603602081101561095657600080fd5b81019080803573ffffffffffffffffffffffffffffffffffffffff16906020019092919050505061319f565b604051808273ffffffffffffffffffffffffffffffffffffffff16815260200191505060405180910390f35b3480156109ba57600080fd5b506109c3613286565b604051808260ff16815260200191505060405180910390f35b610a0b600480360360208110156109f257600080fd5b81019080803560ff169060200190929190505050611252565b005b348015610a1957600080fd5b50610a5c60048036036020811015610a3057600080fd5b81019080803573ffffffffffffffffffffffffffffffffffffffff169060200190929190505050613299565b604051808060200180602001838103835285818151815260200191508051906020019060200280838360005b83811015610aa3578082015181840152602081019050610a88565b50505050905001838103825284818151815260200191508051906020019060200280838360005b83811015610ae5578082015181840152602081019050610aca565b5050505090500194505050505060405180910390f35b348015610b0757600080fd5b50610b3460048036036020811015610b1e57600080fd5b810190808035906020019092919050505061345a565b6040518082815260200191505060405180910390f35b348015610b5657600080fd5b50610b8360048036036020811015610b6d57600080fd5b8101908080359060200190929190505050613472565b6040518082815260200191505060405180910390f35b348015610ba557600080fd5b50610bd260048036036020811015610bbc57600080fd5b8101908080359060200190929190505050613493565b6040518082815260200191505060405180910390f35b348015610bf457600080fd5b50610c3760048036036020811015610c0b57600080fd5b81019080803573ffffffffffffffffffffffffffffffffffffffff1690602001909291905050506134ab565b604051808b81526020018a81526020018981526020018873ffffffffffffffffffffffffffffffffffffffff1681526020018781526020018681526020018581526020018481526020018381526020018281526020019a505050505050505050505060405180910390f35b348015610cae57600080fd5b50610cb7613665565b6040518082815260200191505060405180910390f35b348015610cd957600080fd5b50610ce261366d565b6040518082815260200191505060405180910390f35b610d00613673565b005b348015610d0e57600080fd5b50610d3b60048036036020811015610d2557600080fd5b8101908080359060200190929190505050613675565b604051808273ffffffffffffffffffffffffffffffffffffffff16815260200191505060405180910390f35b348015610d7357600080fd5b50610d7c6136b2565b6040518082603260200280838360005b83811015610da7578082015181840152602081019050610d8c565b5050505090500191505060405180910390f35b348015610dc657600080fd5b50610dcf613733565b604051808273ffffffffffffffffffffffffffffffffffffffff16815260200191505060405180910390f35b348015610e0757600080fd5b50610e3460048036036020811015610e1e57600080fd5b8101908080359060200190929190505050613759565b005b610e7860048036036020811015610e4c57600080fd5b81019080803573ffffffffffffffffffffffffffffffffffffffff169060200190929190505050613c4e565b005b348015610e8657600080fd5b50610e8f614155565b604051808260ff16815260200191505060405180910390f35b348015610eb457600080fd5b50610ef760048036036020811015610ecb57600080fd5b81019080803573ffffffffffffffffffffffffffffffffffffffff169060200190929190505050614168565b604051808a81526020018981526020018873ffffffffffffffffffffffffffffffffffffffff1681526020018781526020018681526020018581526020018481526020018360ff168152602001828152602001995050505050505050505060405180910390f35b348015610f6a57600080fd5b50610fad60048036036020811015610f8157600080fd5b81019080803573ffffffffffffffffffffffffffffffffffffffff1690602001909291905050506141e3565b6040518082815260200191505060405180910390f35b61100560048036036020811015610fd957600080fd5b81019080803573ffffffffffffffffffffffffffffffffffffffff1690602001909291905050506141fb565b005b34801561101357600080fd5b506110566004803603602081101561102a57600080fd5b81019080803573ffffffffffffffffffffffffffffffffffffffff169060200190929190505050614211565b6040518082815260200191505060405180910390f35b34801561107857600080fd5b506110816142c4565b604051808260ff16815260200191505060405180910390f35b3480156110a657600080fd5b506110af6142c9565b005b3480156110bd57600080fd5b506110c66144d7565b6040518082601060200280838360005b838110156110f15780820151818401526020810190506110d6565b5050505090500191505060405180910390f35b34801561111057600080fd5b506111606004803603604081101561112757600080fd5b81019080803573ffffffffffffffffffffffffffffffffffffffff169060200190929190803560ff169060200190929190505050614522565b604051808381526020018281526020019250505060405180910390f35b34801561118957600080fd5b50611192614755565b604051808260ff16815260200191505060405180910390f35b3480156111b757600080fd5b506111c061475a565b6040518082815260200191505060405180910390f35b600080606b60008473ffffffffffffffffffffffffffffffffffffffff1673ffffffffffffffffffffffffffffffffffffffff1681526020019081526020016000206000015414159050919050565b611250606660029054906101000a900473ffffffffffffffffffffffffffffffffffffffff16613c4e565b565b600260005414156112cb576040517f08c379a000000000000000000000000000000000000000000000000000000000815260040180806020018281038252601f8152602001807f5265656e7472616e637947756172643a207265656e7472616e742063616c6c0081525060200191505060405180910390fd5b60026000819055506112dc336111d6565b61134e576040517f08c379a00000000000000000000000000000000000000000000000000000000081526004018080602001828103825260168152602001807f55736572206973206e6f7420726567697374657265640000000000000000000081525060200191505060405180910390fd5b60008160ff1611801561136657506069548160ff1611155b6113d8576040517f08c379a000000000000000000000000000000000000000000000000000000000815260040180806020018281038252600d8152602001807f496e76616c696420726f756e640000000000000000000000000000000000000081525060200191505060405180910390fd5b3460688260ff16815481106113e957fe5b906000526020600020015414611467576040517f08c379a00000000000000000000000000000000000000000000000000000000081526004018080602001828103825260118152602001807f496e76616c696420424e422076616c756500000000000000000000000000000081525060200191505060405180910390fd5b61147033612a4a565b156114e3576040517f08c379a00000000000000000000000000000000000000000000000000000000081526004018080602001828103825260158152602001807f43616e206e6f74206265206120636f6e7472616374000000000000000000000081525060200191505060405180910390fd5b6001606b60003373ffffffffffffffffffffffffffffffffffffffff1673ffffffffffffffffffffffffffffffffffffffff16815260200190815260200160002060080160009054906101000a900460ff160160ff168160ff1611156115b1576040517f08c379a00000000000000000000000000000000000000000000000000000000081526004018080602001828103825260138152602001807f526f756e64206e6f7420617661696c61626c650000000000000000000000000081525060200191505060405180910390fd5b4260458260ff16601081106115c257fe5b015410156117035760006115d5826130e2565b9050600060558360ff16601081106115e957fe5b0160009054906101000a900473ffffffffffffffffffffffffffffffffffffffff1673ffffffffffffffffffffffffffffffffffffffff166108fc839081150290604051600060405180830381858888f19350505050905080156116fc576201518060458460ff166010811061165b57fe5b016000828254019250508190555060558360ff166010811061167957fe5b0160009054906101000a900473ffffffffffffffffffffffffffffffffffffffff1673ffffffffffffffffffffffffffffffffffffffff167f8ea1a10de3733db603227ca0e3cd0feb6da4f1c33fb15cb9265fa333a64797c2428585604051808481526020018360ff168152602001828152602001935050505060405180910390a25b5050611739565b610e1060458260ff166010811061171657fe5b016000828254019250508190555042604560006010811061173357fe5b01819055505b3360558260ff166010811061174a57fe5b0160006101000a81548173ffffffffffffffffffffffffffffffffffffffff021916908373ffffffffffffffffffffffffffffffffffffffff160217905550606b60003373ffffffffffffffffffffffffffffffffffffffff1673ffffffffffffffffffffffffffffffffffffffff168152602001908152602001600020600801600081819054906101000a900460ff168092919060010191906101000a81548160ff021916908360ff1602179055505034606b60003373ffffffffffffffffffffffffffffffffffffffff1673ffffffffffffffffffffffffffffffffffffffff16815260200190815260200160002060090160008282540192505081905550606f6001016000815480929190600101919050555034606f6002016000828254019250508190555042606560003373ffffffffffffffffffffffffffffffffffffffff1673ffffffffffffffffffffffffffffffffffffffff1681526020019081526020016000208190555042606b60003373ffffffffffffffffffffffffffffffffffffffff1673ffffffffffffffffffffffffffffffffffffffff16815260200190815260200160002060070160008360ff1660ff1681526020019081526020016000206003018190555060006064348161192457fe5b049050606b60003373ffffffffffffffffffffffffffffffffffffffff1673ffffffffffffffffffffffffffffffffffffffff16815260200190815260200160002060070160008360ff1660ff16815260200190815260200160002060000160069054906101000a900460ff16611c4957606b60003373ffffffffffffffffffffffffffffffffffffffff1673ffffffffffffffffffffffffffffffffffffffff16815260200190815260200160002060070160008360ff1660ff168152602001908152602001600020600001600081819054906101000a900461ffff168092919060010191906101000a81548161ffff021916908361ffff16021790555050600260ff16606b60003373ffffffffffffffffffffffffffffffffffffffff1673ffffffffffffffffffffffffffffffffffffffff16815260200190815260200160002060070160008460ff1660ff16815260200190815260200160002060000160028282829054906101000a900461ffff160192506101000a81548161ffff021916908361ffff1602179055506001606b60003373ffffffffffffffffffffffffffffffffffffffff1673ffffffffffffffffffffffffffffffffffffffff16815260200190815260200160002060070160008460ff1660ff16815260200190815260200160002060000160066101000a81548160ff021916908315150217905550606d60008360ff1660ff168152602001908152602001600020339080600181540180825580915050600190039060005260206000200160009091909190916101000a81548173ffffffffffffffffffffffffffffffffffffffff021916908373ffffffffffffffffffffffffffffffffffffffff1602179055503373ffffffffffffffffffffffffffffffffffffffff167f2f201bc547acc49919922eaf7ecea9f3389adca4dc6ab3fb4a7498cbbaac63a242606b60003373ffffffffffffffffffffffffffffffffffffffff1673ffffffffffffffffffffffffffffffffffffffff1681526020019081526020016000206000015485604051808481526020018381526020018260ff168152602001935050505060405180910390a2611e80565b606b60003373ffffffffffffffffffffffffffffffffffffffff1673ffffffffffffffffffffffffffffffffffffffff16815260200190815260200160002060070160008360ff1660ff168152602001908152602001600020600001600081819054906101000a900461ffff168092919060010191906101000a81548161ffff021916908361ffff16021790555050600260ff16606b60003373ffffffffffffffffffffffffffffffffffffffff1673ffffffffffffffffffffffffffffffffffffffff16815260200190815260200160002060070160008460ff1660ff16815260200190815260200160002060000160028282829054906101000a900461ffff160192506101000a81548161ffff021916908361ffff1602179055503373ffffffffffffffffffffffffffffffffffffffff167f31bfa9ab73d15b5d752f5928d978dd4daba1b2dd420bb2d965c54cfe366c553442606b60003373ffffffffffffffffffffffffffffffffffffffff1673ffffffffffffffffffffffffffffffffffffffff1681526020019081526020016000206000015485606b60003373ffffffffffffffffffffffffffffffffffffffff1673ffffffffffffffffffffffffffffffffffffffff16815260200190815260200160002060070160008860ff1660ff16815260200190815260200160002060000160029054906101000a900461ffff16604051808581526020018481526020018360ff1681526020018261ffff16815260200194505050505060405180910390a25b6000604b60ff16820290503373ffffffffffffffffffffffffffffffffffffffff16606d60008560ff1660ff168152602001908152602001600020606e60008660ff1660ff1681526020019081526020016000205481548110611edf57fe5b9060005260206000200160009054906101000a900473ffffffffffffffffffffffffffffffffffffffff1673ffffffffffffffffffffffffffffffffffffffff16146126a2576000606d60008560ff1660ff168152602001908152602001600020606e60008660ff1660ff1681526020019081526020016000205481548110611f6457fe5b9060005260206000200160009054906101000a900473ffffffffffffffffffffffffffffffffffffffff16905060008173ffffffffffffffffffffffffffffffffffffffff166108fc849081150290604051600060405180830381858888f1935050505090508015612322576000606660019054906101000a900460ff1660ff1685029050611ff4838783614760565b83606b60008573ffffffffffffffffffffffffffffffffffffffff1673ffffffffffffffffffffffffffffffffffffffff16815260200190815260200160002060070160008860ff1660ff16815260200190815260200160002060010160008282540192505081905550606b60008473ffffffffffffffffffffffffffffffffffffffff1673ffffffffffffffffffffffffffffffffffffffff16815260200190815260200160002060070160008760ff1660ff168152602001908152602001600020600001600481819054906101000a900461ffff168092919060010191906101000a81548161ffff021916908361ffff1602179055505083606b60008573ffffffffffffffffffffffffffffffffffffffff1673ffffffffffffffffffffffffffffffffffffffff1681526020019081526020016000206005016000828254019250508190555083606b60008573ffffffffffffffffffffffffffffffffffffffff1673ffffffffffffffffffffffffffffffffffffffff16815260200190815260200160002060090160008282540192505081905550606b60008473ffffffffffffffffffffffffffffffffffffffff1673ffffffffffffffffffffffffffffffffffffffff16815260200190815260200160002060070160008760ff1660ff168152602001908152602001600020600301544203632efe0780816121f857fe5b0460358760ff166010811061220957fe5b01819055503373ffffffffffffffffffffffffffffffffffffffff167fe4183700b5bfcfeaf533b813f60f33ff4a041fa7bf73db1dd14fbb3eace4fa3542606b60008773ffffffffffffffffffffffffffffffffffffffff1673ffffffffffffffffffffffffffffffffffffffff168152602001908152602001600020600001548988606b60003373ffffffffffffffffffffffffffffffffffffffff1673ffffffffffffffffffffffffffffffffffffffff1681526020019081526020016000206000015460358d60ff16601081106122df57fe5b0154604051808781526020018681526020018560ff168152602001848152602001838152602001828152602001965050505050505060405180910390a25061238c565b606660029054906101000a900473ffffffffffffffffffffffffffffffffffffffff1673ffffffffffffffffffffffffffffffffffffffff166108fc849081150290604051600060405180830381858888f1935050505015801561238a573d6000803e3d6000fd5b505b606b60008373ffffffffffffffffffffffffffffffffffffffff1673ffffffffffffffffffffffffffffffffffffffff16815260200190815260200160002060070160008660ff1660ff16815260200190815260200160002060000160029054906101000a900461ffff1661ffff16606b60008473ffffffffffffffffffffffffffffffffffffffff1673ffffffffffffffffffffffffffffffffffffffff16815260200190815260200160002060070160008760ff1660ff16815260200190815260200160002060000160049054906101000a900461ffff1661ffff1610156124ef57606d60008660ff1660ff168152602001908152602001600020829080600181540180825580915050600190039060005260206000200160009091909190916101000a81548173ffffffffffffffffffffffffffffffffffffffff021916908373ffffffffffffffffffffffffffffffffffffffff160217905550612608565b6000606b60008473ffffffffffffffffffffffffffffffffffffffff1673ffffffffffffffffffffffffffffffffffffffff16815260200190815260200160002060070160008760ff1660ff16815260200190815260200160002060000160066101000a81548160ff0219169083151502179055503373ffffffffffffffffffffffffffffffffffffffff167f1524ba6dfa482cf4eda16273d76657ddb7f563b2e8a6c3f294564de0ffc6621142606b60008673ffffffffffffffffffffffffffffffffffffffff1673ffffffffffffffffffffffffffffffffffffffff1681526020019081526020016000206000015488604051808481526020018381526020018260ff168152602001935050505060405180910390a25b606d60008660ff1660ff168152602001908152602001600020606e60008760ff1660ff168152602001908152602001600020548154811061264557fe5b9060005260206000200160006101000a81549073ffffffffffffffffffffffffffffffffffffffff0219169055606e60008660ff1660ff1681526020019081526020016000206000815480929190600101919050555050506128bb565b606660029054906101000a900473ffffffffffffffffffffffffffffffffffffffff1673ffffffffffffffffffffffffffffffffffffffff166108fc829081150290604051600060405180830381858888f1935050505015801561270a573d6000803e3d6000fd5b50606b6000606660029054906101000a900473ffffffffffffffffffffffffffffffffffffffff1673ffffffffffffffffffffffffffffffffffffffff1673ffffffffffffffffffffffffffffffffffffffff16815260200190815260200160002060070160008460ff1660ff168152602001908152602001600020600001600481819054906101000a900461ffff168092919060010191906101000a81548161ffff021916908361ffff1602179055505080606b6000606660029054906101000a900473ffffffffffffffffffffffffffffffffffffffff1673ffffffffffffffffffffffffffffffffffffffff1673ffffffffffffffffffffffffffffffffffffffff16815260200190815260200160002060070160008560ff1660ff1681526020019081526020016000206001016000828254019250508190555080606b6000606660029054906101000a900473ffffffffffffffffffffffffffffffffffffffff1673ffffffffffffffffffffffffffffffffffffffff1673ffffffffffffffffffffffffffffffffffffffff168152602001908152602001600020600501600082825401925050819055505b6000606660009054906101000a900460ff1660ff16830290506128df338583614c6e565b6000606760009054906101000a900473ffffffffffffffffffffffffffffffffffffffff1673ffffffffffffffffffffffffffffffffffffffff16600760ff16850260405180600001905060006040518083038185875af1925050503d8060008114612967576040519150601f19603f3d011682016040523d82523d6000602084013e61296c565b606091505b50509050806129e3576040517f08c379a000000000000000000000000000000000000000000000000000000000815260040180806020018281038252601f8152602001807f7472616e73666572206661696c6564207768696c652062757920726f756e640081525060200191505060405180910390fd5b50505050600160008190555050565b60606068805480602002602001604051908101604052809291908181526020018280548015612a4057602002820191906000526020600020905b815481526020019060010190808311612a2c575b5050505050905090565b600080823b905060008163ffffffff161415915050919050565b60018160328110612a7157fe5b016000915054906101000a900473ffffffffffffffffffffffffffffffffffffffff1681565b600081565b606080606080606080606060016069540167ffffffffffffffff81118015612ac357600080fd5b50604051908082528060200260200182016040528015612af25781602001602082028036833780820191505090505b509050606060016069540167ffffffffffffffff81118015612b1357600080fd5b50604051908082528060200260200182016040528015612b425781602001602082028036833780820191505090505b509050606060016069540167ffffffffffffffff81118015612b6357600080fd5b50604051908082528060200260200182016040528015612b925781602001602082028036833780820191505090505b509050606060016069540167ffffffffffffffff81118015612bb357600080fd5b50604051908082528060200260200182016040528015612be25781602001602082028036833780820191505090505b509050606060016069540167ffffffffffffffff81118015612c0357600080fd5b50604051908082528060200260200182016040528015612c325781602001602082028036833780820191505090505b509050606060016069540167ffffffffffffffff81118015612c5357600080fd5b50604051908082528060200260200182016040528015612c825781602001602082028036833780820191505090505b5090506000600190505b6069548160ff1611612fd057606b60008f73ffffffffffffffffffffffffffffffffffffffff1673ffffffffffffffffffffffffffffffffffffffff16815260200190815260200160002060070160008260ff1660ff16815260200190815260200160002060000160069054906101000a900460ff16878260ff1681518110612d1157fe5b602002602001019015159081151581525050606b60008f73ffffffffffffffffffffffffffffffffffffffff1673ffffffffffffffffffffffffffffffffffffffff16815260200190815260200160002060070160008260ff1660ff16815260200190815260200160002060000160049054906101000a900461ffff16868260ff1681518110612d9d57fe5b602002602001019061ffff16908161ffff1681525050606b60008f73ffffffffffffffffffffffffffffffffffffffff1673ffffffffffffffffffffffffffffffffffffffff16815260200190815260200160002060070160008260ff1660ff16815260200190815260200160002060000160029054906101000a900461ffff16858260ff1681518110612e2d57fe5b602002602001019061ffff16908161ffff1681525050606b60008f73ffffffffffffffffffffffffffffffffffffffff1673ffffffffffffffffffffffffffffffffffffffff16815260200190815260200160002060070160008260ff1660ff16815260200190815260200160002060000160009054906101000a900461ffff16848260ff1681518110612ebd57fe5b602002602001019061ffff16908161ffff1681525050606b60008f73ffffffffffffffffffffffffffffffffffffffff1673ffffffffffffffffffffffffffffffffffffffff16815260200190815260200160002060070160008260ff1660ff16815260200190815260200160002060010154838260ff1681518110612f3f57fe5b602002602001018181525050606b60008f73ffffffffffffffffffffffffffffffffffffffff1673ffffffffffffffffffffffffffffffffffffffff16815260200190815260200160002060070160008260ff1660ff16815260200190815260200160002060020154828260ff1681518110612fb757fe5b6020026020010181815250508080600101915050612c8c565b508585858585859b509b509b509b509b509b5050505050505091939550919395565b60558160108110612fff57fe5b016000915054906101000a900473ffffffffffffffffffffffffffffffffffffffff1681565b61302d61517c565b6040518060a00160405280606f600001548152602001606f600101548152602001606f6002015481526020016033548152602001603454815250905090565b600281565b606760009054906101000a900473ffffffffffffffffffffffffffffffffffffffff1681565b61309f61519e565b60456010806020026040519081016040528092919082601080156130d8576020028201915b8154815260200190600101908083116130c4575b5050505050905090565b6000806000600190505b6069548160ff16116131245760688160ff168154811061310857fe5b90600052602060002001548201915080806001019150506130ec565b5060688360ff168154811061313557fe5b906000526020600020015481478161314957fe5b0402915050919050565b6000606b60008373ffffffffffffffffffffffffffffffffffffffff1673ffffffffffffffffffffffffffffffffffffffff168152602001908152602001600020600001549050919050565b60006131aa826111d6565b61321c576040517f08c379a00000000000000000000000000000000000000000000000000000000081526004018080602001828103825260168152602001807f55736572206973206e6f7420726567697374657265640000000000000000000081525060200191505060405180910390fd5b606b60008373ffffffffffffffffffffffffffffffffffffffff1673ffffffffffffffffffffffffffffffffffffffff16815260200190815260200160002060020160009054906101000a900473ffffffffffffffffffffffffffffffffffffffff169050919050565b606660009054906101000a900460ff1681565b606080606060016069540167ffffffffffffffff811180156132ba57600080fd5b506040519080825280602002602001820160405280156132e95781602001602082028036833780820191505090505b509050606060016069540167ffffffffffffffff8111801561330a57600080fd5b506040519080825280602002602001820160405280156133395781602001602082028036833780820191505090505b5090506000600190505b6069548160ff161161344c57606b60008773ffffffffffffffffffffffffffffffffffffffff1673ffffffffffffffffffffffffffffffffffffffff16815260200190815260200160002060070160008260ff1660ff16815260200190815260200160002060040154838260ff16815181106133bb57fe5b602002602001018181525050606b60008773ffffffffffffffffffffffffffffffffffffffff1673ffffffffffffffffffffffffffffffffffffffff16815260200190815260200160002060070160008260ff1660ff16815260200190815260200160002060050154828260ff168151811061343357fe5b6020026020010181815250508080600101915050613343565b508181935093505050915091565b6045816010811061346757fe5b016000915090505481565b6068818154811061347f57fe5b906000526020600020016000915090505481565b603581601081106134a057fe5b016000915090505481565b6000806000806000806000806000806134c26151c1565b606b60008d73ffffffffffffffffffffffffffffffffffffffff1673ffffffffffffffffffffffffffffffffffffffff1681526020019081526020016000206040518061012001604052908160008201548152602001600182015481526020016002820160009054906101000a900473ffffffffffffffffffffffffffffffffffffffff1673ffffffffffffffffffffffffffffffffffffffff1673ffffffffffffffffffffffffffffffffffffffff168152602001600382015481526020016004820154815260200160058201548152602001600682015481526020016008820160009054906101000a900460ff1660ff1660ff168152602001600982015481525050905080600001518160200151606b6000846040015173ffffffffffffffffffffffffffffffffffffffff1673ffffffffffffffffffffffffffffffffffffffff168152602001908152602001600020600001548360400151846060015185608001518660a001518760c001518860e001518961010001518160ff1691509a509a509a509a509a509a509a509a509a509a50509193959799509193959799565b600047905090565b60345481565b565b6000606c600083815260200190815260200160002060009054906101000a900473ffffffffffffffffffffffffffffffffffffffff169050919050565b6136ba615226565b6001603280602002604051908101604052809291908260328015613729576020028201915b8160009054906101000a900473ffffffffffffffffffffffffffffffffffffffff1673ffffffffffffffffffffffffffffffffffffffff16815260200190600101908083116136df575b5050505050905090565b606660029054906101000a900473ffffffffffffffffffffffffffffffffffffffff1681565b606660029054906101000a900473ffffffffffffffffffffffffffffffffffffffff1673ffffffffffffffffffffffffffffffffffffffff163373ffffffffffffffffffffffffffffffffffffffff161461381c576040517f08c379a00000000000000000000000000000000000000000000000000000000081526004018080602001828103825260158152602001807f796f7520617265206e6f7420616e206f776e657221000000000000000000000081525060200191505060405180910390fd5b60005b60318160ff161161388857600060018260ff166032811061383c57fe5b0160006101000a81548173ffffffffffffffffffffffffffffffffffffffff021916908373ffffffffffffffffffffffffffffffffffffffff160217905550808060010191505061381f565b50600080600190505b6069548160ff161161399e576000606e60008360ff1660ff1681526020019081526020016000205490505b606d60008360ff1660ff1681526020019081526020016000208054905081101561399057426201518060656000606d60008760ff1660ff168152602001908152602001600020858154811061390d57fe5b9060005260206000200160009054906101000a900473ffffffffffffffffffffffffffffffffffffffff1673ffffffffffffffffffffffffffffffffffffffff1673ffffffffffffffffffffffffffffffffffffffff168152602001908152602001600020540111156139835782806001019350505b80806001019150506138bc565b508080600101915050613891565b5081600247816139aa57fe5b04816139b257fe5b046033819055504260348190555060008282816139cb57fe5b0490506000806000600190505b6069548160ff1611613c46576000606e60008360ff1660ff1681526020019081526020016000205490505b606d60008360ff1660ff16815260200190815260200160002080549050811015613c385783806001019450506000858581613a3a57fe5b06148015613ad95750426201518060656000606d60008760ff1660ff1681526020019081526020016000208581548110613a7057fe5b9060005260206000200160009054906101000a900473ffffffffffffffffffffffffffffffffffffffff1673ffffffffffffffffffffffffffffffffffffffff1673ffffffffffffffffffffffffffffffffffffffff1681526020019081526020016000205401115b15613c2b57606d60008360ff1660ff1681526020019081526020016000208181548110613b0257fe5b9060005260206000200160009054906101000a900473ffffffffffffffffffffffffffffffffffffffff1660018460ff1660328110613b3d57fe5b0160006101000a81548173ffffffffffffffffffffffffffffffffffffffff021916908373ffffffffffffffffffffffffffffffffffffffff1602179055508280600101935050606d60008360ff1660ff1681526020019081526020016000208181548110613ba857fe5b9060005260206000200160009054906101000a900473ffffffffffffffffffffffffffffffffffffffff1673ffffffffffffffffffffffffffffffffffffffff167fedac0922924cc83017073b98842693d865d06a82c38175d4a1cb0811ef86193f42603354604051808381526020018281526020019250505060405180910390a25b8080600101915050613a03565b5080806001019150506139d8565b505050505050565b613c57816111d6565b613cc9576040517f08c379a000000000000000000000000000000000000000000000000000000000815260040180806020018281038252601a8152602001807f5265666572726572206973206e6f74207265676973746572656400000000000081525060200191505060405180910390fd5b613cd2336111d6565b15613d45576040517f08c379a00000000000000000000000000000000000000000000000000000000081526004018080602001828103825260178152602001807f5573657220616c7265616479207265676973746572656400000000000000000081525060200191505060405180910390fd5b613d4e33612a4a565b15613dc1576040517f08c379a00000000000000000000000000000000000000000000000000000000081526004018080602001828103825260158152602001807f43616e206e6f74206265206120636f6e7472616374000000000000000000000081525060200191505060405180910390fd5b613dc96151c1565b604051806101200160405280606a60008154809291906001019190505581526020014281526020018373ffffffffffffffffffffffffffffffffffffffff16815260200160008152602001600081526020016000815260200160008152602001600060ff1681526020016000815250905080606b60003373ffffffffffffffffffffffffffffffffffffffff1673ffffffffffffffffffffffffffffffffffffffff168152602001908152602001600020600082015181600001556020820151816001015560408201518160020160006101000a81548173ffffffffffffffffffffffffffffffffffffffff021916908373ffffffffffffffffffffffffffffffffffffffff160217905550606082015181600301556080820151816004015560a0820151816005015560c0820151816006015560e08201518160080160006101000a81548160ff021916908360ff160217905550610100820151816009015590505033606c60008360000151815260200190815260200160002060006101000a81548173ffffffffffffffffffffffffffffffffffffffff021916908373ffffffffffffffffffffffffffffffffffffffff1602179055506000600190506000839050600073ffffffffffffffffffffffffffffffffffffffff168173ffffffffffffffffffffffffffffffffffffffff161461408157606b60008273ffffffffffffffffffffffffffffffffffffffff1673ffffffffffffffffffffffffffffffffffffffff16815260200190815260200160002060030160008154809291906001019190505550606b60008273ffffffffffffffffffffffffffffffffffffffff1673ffffffffffffffffffffffffffffffffffffffff16815260200190815260200160002060020160009054906101000a900473ffffffffffffffffffffffffffffffffffffffff16905081806001019250505b606f60000160008154809291906001019190505550606f600101600081548092919060010191905055503373ffffffffffffffffffffffffffffffffffffffff167f588149fb6f65171a24789e864d05feb177506df6fc9e86c55d0d19b5122bdffc428560000151606b60008973ffffffffffffffffffffffffffffffffffffffff1673ffffffffffffffffffffffffffffffffffffffff1681526020019081526020016000206000015460405180848152602001838152602001828152602001935050505060405180910390a250505050565b606660019054906101000a900460ff1681565b606b6020528060005260406000206000915090508060000154908060010154908060020160009054906101000a900473ffffffffffffffffffffffffffffffffffffffff16908060030154908060040154908060050154908060060154908060080160009054906101000a900460ff16908060090154905089565b60656020528060005260406000206000915090505481565b61420481613c4e565b61420e6001611252565b50565b600080606b60008473ffffffffffffffffffffffffffffffffffffffff1673ffffffffffffffffffffffffffffffffffffffff16815260200190815260200160002060020160009054906101000a900473ffffffffffffffffffffffffffffffffffffffff169050606b60008273ffffffffffffffffffffffffffffffffffffffff1673ffffffffffffffffffffffffffffffffffffffff16815260200190815260200160002060000154915050919050565b604b81565b60026000541415614342576040517f08c379a000000000000000000000000000000000000000000000000000000000815260040180806020018281038252601f8152602001807f5265656e7472616e637947756172643a207265656e7472616e742063616c6c0081525060200191505060405180910390fd5b600260008190555060005b60318160ff16116144cc573373ffffffffffffffffffffffffffffffffffffffff1660018260ff166032811061437f57fe5b0160009054906101000a900473ffffffffffffffffffffffffffffffffffffffff1673ffffffffffffffffffffffffffffffffffffffff1614156144bf57606f60030160008154809291906001019190505550600060018260ff16603281106143e457fe5b0160006101000a81548173ffffffffffffffffffffffffffffffffffffffff021916908373ffffffffffffffffffffffffffffffffffffffff16021790555060003373ffffffffffffffffffffffffffffffffffffffff166108fc6033549081150290604051600060405180830381858888f19350505050905080156144bd573373ffffffffffffffffffffffffffffffffffffffff167f7c73022fe9ef1ddffacfe32ab067b48a23250b0c20fbabeace91e3cd9e63a9c042603354604051808381526020018281526020019250505060405180910390a25b505b808060010191505061434d565b506001600081905550565b6144df61519e565b6035601080602002604051908101604052809291908260108015614518576020028201915b815481526020019060010190808311614504575b5050505050905090565b60008060008360ff1611801561453d57506069548360ff1611155b6145af576040517f08c379a000000000000000000000000000000000000000000000000000000000815260040180806020018281038252600d8152602001807f496e76616c696420726f756e640000000000000000000000000000000000000081525060200191505060405180910390fd5b606b60008573ffffffffffffffffffffffffffffffffffffffff1673ffffffffffffffffffffffffffffffffffffffff16815260200190815260200160002060070160008460ff1660ff16815260200190815260200160002060000160069054906101000a900460ff16614629576000809150915061474e565b600080606e60008660ff1660ff1681526020019081526020016000205490505b606d60008660ff1660ff168152602001908152602001600020805490508110156147485781806001019250508573ffffffffffffffffffffffffffffffffffffffff16606d60008760ff1660ff16815260200190815260200160002082815481106146b057fe5b9060005260206000200160009054906101000a900473ffffffffffffffffffffffffffffffffffffffff1673ffffffffffffffffffffffffffffffffffffffff16141561473b5781606e60008760ff1660ff16815260200190815260200160002054606d60008860ff1660ff168152602001908152602001600020805490500393509350505061474e565b8080600101915050614649565b50600080fd5b9250929050565b600781565b60335481565b6000606b60008573ffffffffffffffffffffffffffffffffffffffff1673ffffffffffffffffffffffffffffffffffffffff16815260200190815260200160002060020160009054906101000a900473ffffffffffffffffffffffffffffffffffffffff169050606b60008273ffffffffffffffffffffffffffffffffffffffff1673ffffffffffffffffffffffffffffffffffffffff16815260200190815260200160002060070160008460ff1660ff16815260200190815260200160002060000160069054906101000a900460ff16614a0a5781606b60008373ffffffffffffffffffffffffffffffffffffffff1673ffffffffffffffffffffffffffffffffffffffff1681526020019081526020016000206006016000828254019250508190555081606b60008373ffffffffffffffffffffffffffffffffffffffff1673ffffffffffffffffffffffffffffffffffffffff16815260200190815260200160002060070160008560ff1660ff168152602001908152602001600020600501600082825401925050819055508073ffffffffffffffffffffffffffffffffffffffff167f0883bf1f67528bdc0cbaa14cb71f54e9f4e65ec49eceaf639cb93a9e50aefc4c42606b60008573ffffffffffffffffffffffffffffffffffffffff1673ffffffffffffffffffffffffffffffffffffffff16815260200190815260200160002060000154606b60008973ffffffffffffffffffffffffffffffffffffffff1673ffffffffffffffffffffffffffffffffffffffff168152602001908152602001600020600001548787604051808681526020018581526020018481526020018360ff1681526020018281526020019550505050505060405180910390a2606660029054906101000a900473ffffffffffffffffffffffffffffffffffffffff1690505b60008173ffffffffffffffffffffffffffffffffffffffff166108fc849081150290604051600060405180830381858888f1935050505090508015614bfd5782606b60008473ffffffffffffffffffffffffffffffffffffffff1673ffffffffffffffffffffffffffffffffffffffff16815260200190815260200160002060070160008660ff1660ff1681526020019081526020016000206002016000828254019250508190555082606b60008473ffffffffffffffffffffffffffffffffffffffff1673ffffffffffffffffffffffffffffffffffffffff168152602001908152602001600020600401600082825401925050819055508173ffffffffffffffffffffffffffffffffffffffff167f0ed8e24e8c3d702aae6ec32d5d8fbb15b20e1905fcd8e9a2313dff009a82175042606b60008673ffffffffffffffffffffffffffffffffffffffff1673ffffffffffffffffffffffffffffffffffffffff16815260200190815260200160002060000154606b60008a73ffffffffffffffffffffffffffffffffffffffff1673ffffffffffffffffffffffffffffffffffffffff168152602001908152602001600020600001548888604051808681526020018581526020018481526020018360ff1681526020018281526020019550505050505060405180910390a2614c67565b606660029054906101000a900473ffffffffffffffffffffffffffffffffffffffff1673ffffffffffffffffffffffffffffffffffffffff166108fc849081150290604051600060405180830381858888f19350505050158015614c65573d6000803e3d6000fd5b505b5050505050565b6000606b60008573ffffffffffffffffffffffffffffffffffffffff1673ffffffffffffffffffffffffffffffffffffffff16815260200190815260200160002060020160009054906101000a900473ffffffffffffffffffffffffffffffffffffffff169050606b60008273ffffffffffffffffffffffffffffffffffffffff1673ffffffffffffffffffffffffffffffffffffffff16815260200190815260200160002060070160008460ff1660ff16815260200190815260200160002060000160069054906101000a900460ff16614f185781606b60008373ffffffffffffffffffffffffffffffffffffffff1673ffffffffffffffffffffffffffffffffffffffff1681526020019081526020016000206006016000828254019250508190555081606b60008373ffffffffffffffffffffffffffffffffffffffff1673ffffffffffffffffffffffffffffffffffffffff16815260200190815260200160002060070160008560ff1660ff168152602001908152602001600020600401600082825401925050819055508073ffffffffffffffffffffffffffffffffffffffff167f71571cfdf540d399d1a547446d2f4090641fc35ae5bf0fa7148c5368a7d5912e42606b60008573ffffffffffffffffffffffffffffffffffffffff1673ffffffffffffffffffffffffffffffffffffffff16815260200190815260200160002060000154606b60008973ffffffffffffffffffffffffffffffffffffffff1673ffffffffffffffffffffffffffffffffffffffff168152602001908152602001600020600001548787604051808681526020018581526020018481526020018360ff1681526020018281526020019550505050505060405180910390a2606660029054906101000a900473ffffffffffffffffffffffffffffffffffffffff1690505b60008173ffffffffffffffffffffffffffffffffffffffff166108fc849081150290604051600060405180830381858888f193505050509050801561510b5782606b60008473ffffffffffffffffffffffffffffffffffffffff1673ffffffffffffffffffffffffffffffffffffffff16815260200190815260200160002060070160008660ff1660ff1681526020019081526020016000206002016000828254019250508190555082606b60008473ffffffffffffffffffffffffffffffffffffffff1673ffffffffffffffffffffffffffffffffffffffff168152602001908152602001600020600401600082825401925050819055508173ffffffffffffffffffffffffffffffffffffffff167fadbead61ed0e78434af1793fe9c549f995680ccc1d4cc2015e78bffc67b7b18142606b60008673ffffffffffffffffffffffffffffffffffffffff1673ffffffffffffffffffffffffffffffffffffffff16815260200190815260200160002060000154606b60008a73ffffffffffffffffffffffffffffffffffffffff1673ffffffffffffffffffffffffffffffffffffffff168152602001908152602001600020600001548888604051808681526020018581526020018481526020018360ff1681526020018281526020019550505050505060405180910390a2615175565b606660029054906101000a900473ffffffffffffffffffffffffffffffffffffffff1673ffffffffffffffffffffffffffffffffffffffff166108fc849081150290604051600060405180830381858888f19350505050158015615173573d6000803e3d6000fd5b505b5050505050565b6040518060a00160405280600590602082028036833780820191505090505090565b604051806102000160405280601090602082028036833780820191505090505090565b6040518061012001604052806000815260200160008152602001600073ffffffffffffffffffffffffffffffffffffffff16815260200160008152602001600081526020016000815260200160008152602001600060ff168152602001600081525090565b60405180610640016040528060329060208202803683378082019150509050509056fe43616e27742066696e6420726f756e6420746f206275792e204d617962652073656e742076616c756520697320696e76616c69642ea2646970667358221220dc4f84eb775d6d685952ae65078ec038754312c4b076fb8fc7bc2f85755fb27964736f6c634300060c0033",
					"opcodes": "PUSH1 0x80 PUSH1 0x40 MSTORE PUSH1 0x9 PUSH1 0x66 PUSH1 0x0 PUSH2 0x100 EXP DUP2 SLOAD DUP2 PUSH1 0xFF MUL NOT AND SWAP1 DUP4 PUSH1 0xFF AND MUL OR SWAP1 SSTORE POP PUSH1 0x8 PUSH1 0x66 PUSH1 0x1 PUSH2 0x100 EXP DUP2 SLOAD DUP2 PUSH1 0xFF MUL NOT AND SWAP1 DUP4 PUSH1 0xFF AND MUL OR SWAP1 SSTORE POP PUSH1 0x40 MLOAD DUP1 PUSH2 0x200 ADD PUSH1 0x40 MSTORE DUP1 PUSH1 0x0 PUSH8 0xFFFFFFFFFFFFFFFF AND DUP2 MSTORE PUSH1 0x20 ADD PUSH7 0xB1A2BC2EC50000 PUSH8 0xFFFFFFFFFFFFFFFF AND DUP2 MSTORE PUSH1 0x20 ADD PUSH8 0x11C37937E080000 PUSH8 0xFFFFFFFFFFFFFFFF AND DUP2 MSTORE PUSH1 0x20 ADD PUSH8 0x1CDDA4FACCD0000 PUSH8 0xFFFFFFFFFFFFFFFF AND DUP2 MSTORE PUSH1 0x20 ADD PUSH8 0x30D98D59A960000 PUSH8 0xFFFFFFFFFFFFFFFF AND DUP2 MSTORE PUSH1 0x20 ADD PUSH8 0x494654067E10000 PUSH8 0xFFFFFFFFFFFFFFFF AND DUP2 MSTORE PUSH1 0x20 ADD PUSH8 0x6F05B59D3B20000 PUSH8 0xFFFFFFFFFFFFFFFF AND DUP2 MSTORE PUSH1 0x20 ADD PUSH8 0x9B6E64A8EC60000 PUSH8 0xFFFFFFFFFFFFFFFF AND DUP2 MSTORE PUSH1 0x20 ADD PUSH8 0xE92596FD6290000 PUSH8 0xFFFFFFFFFFFFFFFF AND DUP2 MSTORE PUSH1 0x20 ADD PUSH8 0x141F6F514C510000 PUSH8 0xFFFFFFFFFFFFFFFF AND DUP2 MSTORE PUSH1 0x20 ADD PUSH8 0x1B0FCAAB20030000 PUSH8 0xFFFFFFFFFFFFFFFF AND DUP2 MSTORE PUSH1 0x20 ADD PUSH8 0x214E8348C4F00000 PUSH8 0xFFFFFFFFFFFFFFFF AND DUP2 MSTORE PUSH1 0x20 ADD PUSH8 0x30927F74C9DE0000 PUSH8 0xFFFFFFFFFFFFFFFF AND DUP2 MSTORE PUSH1 0x20 ADD PUSH8 0x482A1C7300080000 PUSH8 0xFFFFFFFFFFFFFFFF AND DUP2 MSTORE PUSH1 0x20 ADD PUSH8 0x654ECF52AC5A0000 PUSH8 0xFFFFFFFFFFFFFFFF AND DUP2 MSTORE PUSH1 0x20 ADD PUSH8 0x8AC7230489E80000 PUSH8 0xFFFFFFFFFFFFFFFF AND DUP2 MSTORE POP PUSH1 0x68 SWAP1 PUSH1 0x10 PUSH3 0x1D0 SWAP3 SWAP2 SWAP1 PUSH3 0x6D6 JUMP JUMPDEST POP PUSH1 0x1 PUSH1 0x68 DUP1 SLOAD SWAP1 POP SUB PUSH1 0x69 SSTORE PUSH1 0x2 PUSH1 0x6A SSTORE CALLVALUE DUP1 ISZERO PUSH3 0x1EF JUMPI PUSH1 0x0 DUP1 REVERT JUMPDEST POP PUSH1 0x40 MLOAD PUSH3 0x5A17 CODESIZE SUB DUP1 PUSH3 0x5A17 DUP4 CODECOPY DUP2 DUP2 ADD PUSH1 0x40 MSTORE PUSH1 0x20 DUP2 LT ISZERO PUSH3 0x215 JUMPI PUSH1 0x0 DUP1 REVERT JUMPDEST DUP2 ADD SWAP1 DUP1 DUP1 MLOAD SWAP1 PUSH1 0x20 ADD SWAP1 SWAP3 SWAP2 SWAP1 POP POP POP PUSH1 0x1 PUSH1 0x0 DUP2 SWAP1 SSTORE POP CALLER PUSH1 0x66 PUSH1 0x2 PUSH2 0x100 EXP DUP2 SLOAD DUP2 PUSH20 0xFFFFFFFFFFFFFFFFFFFFFFFFFFFFFFFFFFFFFFFF MUL NOT AND SWAP1 DUP4 PUSH20 0xFFFFFFFFFFFFFFFFFFFFFFFFFFFFFFFFFFFFFFFF AND MUL OR SWAP1 SSTORE POP DUP1 PUSH1 0x67 PUSH1 0x0 PUSH2 0x100 EXP DUP2 SLOAD DUP2 PUSH20 0xFFFFFFFFFFFFFFFFFFFFFFFFFFFFFFFFFFFFFFFF MUL NOT AND SWAP1 DUP4 PUSH20 0xFFFFFFFFFFFFFFFFFFFFFFFFFFFFFFFFFFFFFFFF AND MUL OR SWAP1 SSTORE POP PUSH1 0x40 MLOAD DUP1 PUSH2 0x120 ADD PUSH1 0x40 MSTORE DUP1 PUSH1 0x1 DUP2 MSTORE PUSH1 0x20 ADD TIMESTAMP DUP2 MSTORE PUSH1 0x20 ADD PUSH1 0x0 PUSH20 0xFFFFFFFFFFFFFFFFFFFFFFFFFFFFFFFFFFFFFFFF AND DUP2 MSTORE PUSH1 0x20 ADD PUSH1 0x0 DUP2 MSTORE PUSH1 0x20 ADD PUSH1 0x0 DUP2 MSTORE PUSH1 0x20 ADD PUSH1 0x0 DUP2 MSTORE PUSH1 0x20 ADD PUSH1 0x0 DUP2 MSTORE PUSH1 0x20 ADD PUSH1 0x0 PUSH1 0xFF AND DUP2 MSTORE PUSH1 0x20 ADD PUSH1 0x0 DUP2 MSTORE POP PUSH1 0x6B PUSH1 0x0 PUSH1 0x66 PUSH1 0x2 SWAP1 SLOAD SWAP1 PUSH2 0x100 EXP SWAP1 DIV PUSH20 0xFFFFFFFFFFFFFFFFFFFFFFFFFFFFFFFFFFFFFFFF AND PUSH20 0xFFFFFFFFFFFFFFFFFFFFFFFFFFFFFFFFFFFFFFFF AND PUSH20 0xFFFFFFFFFFFFFFFFFFFFFFFFFFFFFFFFFFFFFFFF AND DUP2 MSTORE PUSH1 0x20 ADD SWAP1 DUP2 MSTORE PUSH1 0x20 ADD PUSH1 0x0 KECCAK256 PUSH1 0x0 DUP3 ADD MLOAD DUP2 PUSH1 0x0 ADD SSTORE PUSH1 0x20 DUP3 ADD MLOAD DUP2 PUSH1 0x1 ADD SSTORE PUSH1 0x40 DUP3 ADD MLOAD DUP2 PUSH1 0x2 ADD PUSH1 0x0 PUSH2 0x100 EXP DUP2 SLOAD DUP2 PUSH20 0xFFFFFFFFFFFFFFFFFFFFFFFFFFFFFFFFFFFFFFFF MUL NOT AND SWAP1 DUP4 PUSH20 0xFFFFFFFFFFFFFFFFFFFFFFFFFFFFFFFFFFFFFFFF AND MUL OR SWAP1 SSTORE POP PUSH1 0x60 DUP3 ADD MLOAD DUP2 PUSH1 0x3 ADD SSTORE PUSH1 0x80 DUP3 ADD MLOAD DUP2 PUSH1 0x4 ADD SSTORE PUSH1 0xA0 DUP3 ADD MLOAD DUP2 PUSH1 0x5 ADD SSTORE PUSH1 0xC0 DUP3 ADD MLOAD DUP2 PUSH1 0x6 ADD SSTORE PUSH1 0xE0 DUP3 ADD MLOAD DUP2 PUSH1 0x8 ADD PUSH1 0x0 PUSH2 0x100 EXP DUP2 SLOAD DUP2 PUSH1 0xFF MUL NOT AND SWAP1 DUP4 PUSH1 0xFF AND MUL OR SWAP1 SSTORE POP PUSH2 0x100 DUP3 ADD MLOAD DUP2 PUSH1 0x9 ADD SSTORE SWAP1 POP POP PUSH1 0x66 PUSH1 0x2 SWAP1 SLOAD SWAP1 PUSH2 0x100 EXP SWAP1 DIV PUSH20 0xFFFFFFFFFFFFFFFFFFFFFFFFFFFFFFFFFFFFFFFF AND PUSH1 0x6C PUSH1 0x0 PUSH1 0x1 DUP2 MSTORE PUSH1 0x20 ADD SWAP1 DUP2 MSTORE PUSH1 0x20 ADD PUSH1 0x0 KECCAK256 PUSH1 0x0 PUSH2 0x100 EXP DUP2 SLOAD DUP2 PUSH20 0xFFFFFFFFFFFFFFFFFFFFFFFFFFFFFFFFFFFFFFFF MUL NOT AND SWAP1 DUP4 PUSH20 0xFFFFFFFFFFFFFFFFFFFFFFFFFFFFFFFFFFFFFFFF AND MUL OR SWAP1 SSTORE POP PUSH1 0x6F PUSH1 0x0 ADD PUSH1 0x0 DUP2 SLOAD DUP1 SWAP3 SWAP2 SWAP1 PUSH1 0x1 ADD SWAP2 SWAP1 POP SSTORE POP PUSH1 0x6F PUSH1 0x1 ADD PUSH1 0x0 DUP2 SLOAD DUP1 SWAP3 SWAP2 SWAP1 PUSH1 0x1 ADD SWAP2 SWAP1 POP SSTORE POP PUSH1 0x0 PUSH1 0x1 SWAP1 POP JUMPDEST PUSH1 0x69 SLOAD DUP2 PUSH1 0xFF AND GT PUSH3 0x6CE JUMPI PUSH3 0xD2F00 TIMESTAMP ADD PUSH1 0x45 DUP3 PUSH1 0xFF AND PUSH1 0x10 DUP2 LT PUSH3 0x4EE JUMPI INVALID JUMPDEST ADD DUP2 SWAP1 SSTORE POP PUSH1 0x1 PUSH1 0x6B PUSH1 0x0 PUSH1 0x66 PUSH1 0x2 SWAP1 SLOAD SWAP1 PUSH2 0x100 EXP SWAP1 DIV PUSH20 0xFFFFFFFFFFFFFFFFFFFFFFFFFFFFFFFFFFFFFFFF AND PUSH20 0xFFFFFFFFFFFFFFFFFFFFFFFFFFFFFFFFFFFFFFFF AND PUSH20 0xFFFFFFFFFFFFFFFFFFFFFFFFFFFFFFFFFFFFFFFF AND DUP2 MSTORE PUSH1 0x20 ADD SWAP1 DUP2 MSTORE PUSH1 0x20 ADD PUSH1 0x0 KECCAK256 PUSH1 0x7 ADD PUSH1 0x0 DUP4 PUSH1 0xFF AND PUSH1 0xFF AND DUP2 MSTORE PUSH1 0x20 ADD SWAP1 DUP2 MSTORE PUSH1 0x20 ADD PUSH1 0x0 KECCAK256 PUSH1 0x0 ADD PUSH1 0x6 PUSH2 0x100 EXP DUP2 SLOAD DUP2 PUSH1 0xFF MUL NOT AND SWAP1 DUP4 ISZERO ISZERO MUL OR SWAP1 SSTORE POP PUSH1 0xF PUSH1 0x6B PUSH1 0x0 PUSH1 0x66 PUSH1 0x2 SWAP1 SLOAD SWAP1 PUSH2 0x100 EXP SWAP1 DIV PUSH20 0xFFFFFFFFFFFFFFFFFFFFFFFFFFFFFFFFFFFFFFFF AND PUSH20 0xFFFFFFFFFFFFFFFFFFFFFFFFFFFFFFFFFFFFFFFF AND PUSH20 0xFFFFFFFFFFFFFFFFFFFFFFFFFFFFFFFFFFFFFFFF AND DUP2 MSTORE PUSH1 0x20 ADD SWAP1 DUP2 MSTORE PUSH1 0x20 ADD PUSH1 0x0 KECCAK256 PUSH1 0x7 ADD PUSH1 0x0 DUP4 PUSH1 0xFF AND PUSH1 0xFF AND DUP2 MSTORE PUSH1 0x20 ADD SWAP1 DUP2 MSTORE PUSH1 0x20 ADD PUSH1 0x0 KECCAK256 PUSH1 0x0 ADD PUSH1 0x2 PUSH2 0x100 EXP DUP2 SLOAD DUP2 PUSH2 0xFFFF MUL NOT AND SWAP1 DUP4 PUSH2 0xFFFF AND MUL OR SWAP1 SSTORE POP PUSH1 0x6D PUSH1 0x0 DUP3 PUSH1 0xFF AND PUSH1 0xFF AND DUP2 MSTORE PUSH1 0x20 ADD SWAP1 DUP2 MSTORE PUSH1 0x20 ADD PUSH1 0x0 KECCAK256 PUSH1 0x66 PUSH1 0x2 SWAP1 SLOAD SWAP1 PUSH2 0x100 EXP SWAP1 DIV PUSH20 0xFFFFFFFFFFFFFFFFFFFFFFFFFFFFFFFFFFFFFFFF AND SWAP1 DUP1 PUSH1 0x1 DUP2 SLOAD ADD DUP1 DUP3 SSTORE DUP1 SWAP2 POP POP PUSH1 0x1 SWAP1 SUB SWAP1 PUSH1 0x0 MSTORE PUSH1 0x20 PUSH1 0x0 KECCAK256 ADD PUSH1 0x0 SWAP1 SWAP2 SWAP1 SWAP2 SWAP1 SWAP2 PUSH2 0x100 EXP DUP2 SLOAD DUP2 PUSH20 0xFFFFFFFFFFFFFFFFFFFFFFFFFFFFFFFFFFFFFFFF MUL NOT AND SWAP1 DUP4 PUSH20 0xFFFFFFFFFFFFFFFFFFFFFFFFFFFFFFFFFFFFFFFF AND MUL OR SWAP1 SSTORE POP DUP1 DUP1 PUSH1 0x1 ADD SWAP2 POP POP PUSH3 0x4CA JUMP JUMPDEST POP POP PUSH3 0x753 JUMP JUMPDEST DUP3 DUP1 SLOAD DUP3 DUP3 SSTORE SWAP1 PUSH1 0x0 MSTORE PUSH1 0x20 PUSH1 0x0 KECCAK256 SWAP1 DUP2 ADD SWAP3 DUP3 ISZERO PUSH3 0x721 JUMPI SWAP2 PUSH1 0x20 MUL DUP3 ADD JUMPDEST DUP3 DUP2 GT ISZERO PUSH3 0x720 JUMPI DUP3 MLOAD DUP3 SWAP1 PUSH8 0xFFFFFFFFFFFFFFFF AND SWAP1 SSTORE SWAP2 PUSH1 0x20 ADD SWAP2 SWAP1 PUSH1 0x1 ADD SWAP1 PUSH3 0x6F7 JUMP JUMPDEST JUMPDEST POP SWAP1 POP PUSH3 0x730 SWAP2 SWAP1 PUSH3 0x734 JUMP JUMPDEST POP SWAP1 JUMP JUMPDEST JUMPDEST DUP1 DUP3 GT ISZERO PUSH3 0x74F JUMPI PUSH1 0x0 DUP2 PUSH1 0x0 SWAP1 SSTORE POP PUSH1 0x1 ADD PUSH3 0x735 JUMP JUMPDEST POP SWAP1 JUMP JUMPDEST PUSH2 0x52B4 DUP1 PUSH3 0x763 PUSH1 0x0 CODECOPY PUSH1 0x0 RETURN INVALID PUSH1 0x80 PUSH1 0x40 MSTORE PUSH1 0x4 CALLDATASIZE LT PUSH2 0x24A JUMPI PUSH1 0x0 CALLDATALOAD PUSH1 0xE0 SHR DUP1 PUSH4 0x693864F3 GT PUSH2 0x139 JUMPI DUP1 PUSH4 0xA7345F56 GT PUSH2 0xB6 JUMPI DUP1 PUSH4 0xBFE24893 GT PUSH2 0x7A JUMPI DUP1 PUSH4 0xBFE24893 EQ PUSH2 0x106C JUMPI DUP1 PUSH4 0xC34F6B0D EQ PUSH2 0x109A JUMPI DUP1 PUSH4 0xC8E161A1 EQ PUSH2 0x10B1 JUMPI DUP1 PUSH4 0xCFCE5044 EQ PUSH2 0x1104 JUMPI DUP1 PUSH4 0xECA2C026 EQ PUSH2 0x117D JUMPI DUP1 PUSH4 0xF21EFB5B EQ PUSH2 0x11AB JUMPI PUSH2 0x31B JUMP JUMPDEST DUP1 PUSH4 0xA7345F56 EQ PUSH2 0xE7A JUMPI DUP1 PUSH4 0xA87430BA EQ PUSH2 0xEA8 JUMPI DUP1 PUSH4 0xA9A9CFE0 EQ PUSH2 0xF5E JUMPI DUP1 PUSH4 0xB3791E7F EQ PUSH2 0xFC3 JUMPI DUP1 PUSH4 0xBD4B77EE EQ PUSH2 0x1007 JUMPI PUSH2 0x31B JUMP JUMPDEST DUP1 PUSH4 0x8A03AD86 GT PUSH2 0xFD JUMPI DUP1 PUSH4 0x8A03AD86 EQ PUSH2 0xD02 JUMPI DUP1 PUSH4 0x8C4636C1 EQ PUSH2 0xD67 JUMPI DUP1 PUSH4 0x8DA5CB5B EQ PUSH2 0xDBA JUMPI DUP1 PUSH4 0x950FABF3 EQ PUSH2 0xDFB JUMPI DUP1 PUSH4 0x968763A0 EQ PUSH2 0xE36 JUMPI PUSH2 0x31B JUMP JUMPDEST DUP1 PUSH4 0x693864F3 EQ PUSH2 0xB99 JUMPI DUP1 PUSH4 0x6F77926B EQ PUSH2 0xBE8 JUMPI DUP1 PUSH4 0x6F9FB98A EQ PUSH2 0xCA2 JUMPI DUP1 PUSH4 0x7CCD94DA EQ PUSH2 0xCCD JUMPI DUP1 PUSH4 0x88B45046 EQ PUSH2 0xCF8 JUMPI PUSH2 0x31B JUMP JUMPDEST DUP1 PUSH4 0x2D3E474A GT PUSH2 0x1C7 JUMPI DUP1 PUSH4 0x4CDBE908 GT PUSH2 0x18B JUMPI DUP1 PUSH4 0x4CDBE908 EQ PUSH2 0x9AE JUMPI DUP1 PUSH4 0x5A8A14D0 EQ PUSH2 0x9DC JUMPI DUP1 PUSH4 0x5C279FF9 EQ PUSH2 0xA0D JUMPI DUP1 PUSH4 0x5CE974B9 EQ PUSH2 0xAFB JUMPI DUP1 PUSH4 0x5D7B1CC9 EQ PUSH2 0xB4A JUMPI PUSH2 0x31B JUMP JUMPDEST DUP1 PUSH4 0x2D3E474A EQ PUSH2 0x7E8 JUMPI DUP1 PUSH4 0x3336B63E EQ PUSH2 0x829 JUMPI DUP1 PUSH4 0x375E3B55 EQ PUSH2 0x87C JUMPI DUP1 PUSH4 0x385399F9 EQ PUSH2 0x8CE JUMPI DUP1 PUSH4 0x4A9FEFC7 EQ PUSH2 0x933 JUMPI PUSH2 0x31B JUMP JUMPDEST DUP1 PUSH4 0x21658658 GT PUSH2 0x20E JUMPI DUP1 PUSH4 0x21658658 EQ PUSH2 0x4C9 JUMPI DUP1 PUSH4 0x230F7F82 EQ PUSH2 0x4F4 JUMPI DUP1 PUSH4 0x26EFD443 EQ PUSH2 0x702 JUMPI DUP1 PUSH4 0x2A2C908E EQ PUSH2 0x767 JUMPI DUP1 PUSH4 0x2CC8DA43 EQ PUSH2 0x7BA JUMPI PUSH2 0x31B JUMP JUMPDEST DUP1 PUSH4 0x1B91A17 EQ PUSH2 0x320 JUMPI DUP1 PUSH4 0x16279055 EQ PUSH2 0x38C JUMPI DUP1 PUSH4 0x163F7522 EQ PUSH2 0x3F3 JUMPI DUP1 PUSH4 0x1AA3A008 EQ PUSH2 0x45A JUMPI DUP1 PUSH4 0x1DFD8FE0 EQ PUSH2 0x464 JUMPI PUSH2 0x31B JUMP JUMPDEST CALLDATASIZE PUSH2 0x31B JUMPI PUSH1 0x0 PUSH1 0x1 SWAP1 POP JUMPDEST PUSH1 0x69 SLOAD DUP2 PUSH1 0xFF AND GT PUSH2 0x2C7 JUMPI CALLVALUE PUSH1 0x68 DUP3 PUSH1 0xFF AND DUP2 SLOAD DUP2 LT PUSH2 0x273 JUMPI INVALID JUMPDEST SWAP1 PUSH1 0x0 MSTORE PUSH1 0x20 PUSH1 0x0 KECCAK256 ADD SLOAD EQ ISZERO PUSH2 0x2BA JUMPI PUSH1 0x1 DUP2 PUSH1 0xFF AND EQ DUP1 ISZERO PUSH2 0x29D JUMPI POP PUSH2 0x29B CALLER PUSH2 0x11D6 JUMP JUMPDEST ISZERO JUMPDEST ISZERO PUSH2 0x2AB JUMPI PUSH2 0x2AA PUSH2 0x1225 JUMP JUMPDEST JUMPDEST PUSH2 0x2B4 DUP2 PUSH2 0x1252 JUMP JUMPDEST POP PUSH2 0x319 JUMP JUMPDEST DUP1 DUP1 PUSH1 0x1 ADD SWAP2 POP POP PUSH2 0x256 JUMP JUMPDEST POP PUSH1 0x40 MLOAD PUSH32 0x8C379A000000000000000000000000000000000000000000000000000000000 DUP2 MSTORE PUSH1 0x4 ADD DUP1 DUP1 PUSH1 0x20 ADD DUP3 DUP2 SUB DUP3 MSTORE PUSH1 0x35 DUP2 MSTORE PUSH1 0x20 ADD DUP1 PUSH2 0x524A PUSH1 0x35 SWAP2 CODECOPY PUSH1 0x40 ADD SWAP2 POP POP PUSH1 0x40 MLOAD DUP1 SWAP2 SUB SWAP1 REVERT JUMPDEST STOP JUMPDEST PUSH1 0x0 DUP1 REVERT JUMPDEST CALLVALUE DUP1 ISZERO PUSH2 0x32C JUMPI PUSH1 0x0 DUP1 REVERT JUMPDEST POP PUSH2 0x335 PUSH2 0x29F2 JUMP JUMPDEST PUSH1 0x40 MLOAD DUP1 DUP1 PUSH1 0x20 ADD DUP3 DUP2 SUB DUP3 MSTORE DUP4 DUP2 DUP2 MLOAD DUP2 MSTORE PUSH1 0x20 ADD SWAP2 POP DUP1 MLOAD SWAP1 PUSH1 0x20 ADD SWAP1 PUSH1 0x20 MUL DUP1 DUP4 DUP4 PUSH1 0x0 JUMPDEST DUP4 DUP2 LT ISZERO PUSH2 0x378 JUMPI DUP1 DUP3 ADD MLOAD DUP2 DUP5 ADD MSTORE PUSH1 0x20 DUP2 ADD SWAP1 POP PUSH2 0x35D JUMP JUMPDEST POP POP POP POP SWAP1 POP ADD SWAP3 POP POP POP PUSH1 0x40 MLOAD DUP1 SWAP2 SUB SWAP1 RETURN JUMPDEST CALLVALUE DUP1 ISZERO PUSH2 0x398 JUMPI PUSH1 0x0 DUP1 REVERT JUMPDEST POP PUSH2 0x3DB PUSH1 0x4 DUP1 CALLDATASIZE SUB PUSH1 0x20 DUP2 LT ISZERO PUSH2 0x3AF JUMPI PUSH1 0x0 DUP1 REVERT JUMPDEST DUP2 ADD SWAP1 DUP1 DUP1 CALLDATALOAD PUSH20 0xFFFFFFFFFFFFFFFFFFFFFFFFFFFFFFFFFFFFFFFF AND SWAP1 PUSH1 0x20 ADD SWAP1 SWAP3 SWAP2 SWAP1 POP POP POP PUSH2 0x2A4A JUMP JUMPDEST PUSH1 0x40 MLOAD DUP1 DUP3 ISZERO ISZERO DUP2 MSTORE PUSH1 0x20 ADD SWAP2 POP POP PUSH1 0x40 MLOAD DUP1 SWAP2 SUB SWAP1 RETURN JUMPDEST CALLVALUE DUP1 ISZERO PUSH2 0x3FF JUMPI PUSH1 0x0 DUP1 REVERT JUMPDEST POP PUSH2 0x442 PUSH1 0x4 DUP1 CALLDATASIZE SUB PUSH1 0x20 DUP2 LT ISZERO PUSH2 0x416 JUMPI PUSH1 0x0 DUP1 REVERT JUMPDEST DUP2 ADD SWAP1 DUP1 DUP1 CALLDATALOAD PUSH20 0xFFFFFFFFFFFFFFFFFFFFFFFFFFFFFFFFFFFFFFFF AND SWAP1 PUSH1 0x20 ADD SWAP1 SWAP3 SWAP2 SWAP1 POP POP POP PUSH2 0x11D6 JUMP JUMPDEST PUSH1 0x40 MLOAD DUP1 DUP3 ISZERO ISZERO DUP2 MSTORE PUSH1 0x20 ADD SWAP2 POP POP PUSH1 0x40 MLOAD DUP1 SWAP2 SUB SWAP1 RETURN JUMPDEST PUSH2 0x462 PUSH2 0x1225 JUMP JUMPDEST STOP JUMPDEST CALLVALUE DUP1 ISZERO PUSH2 0x470 JUMPI PUSH1 0x0 DUP1 REVERT JUMPDEST POP PUSH2 0x49D PUSH1 0x4 DUP1 CALLDATASIZE SUB PUSH1 0x20 DUP2 LT ISZERO PUSH2 0x487 JUMPI PUSH1 0x0 DUP1 REVERT JUMPDEST DUP2 ADD SWAP1 DUP1 DUP1 CALLDATALOAD SWAP1 PUSH1 0x20 ADD SWAP1 SWAP3 SWAP2 SWAP1 POP POP POP PUSH2 0x2A64 JUMP JUMPDEST PUSH1 0x40 MLOAD DUP1 DUP3 PUSH20 0xFFFFFFFFFFFFFFFFFFFFFFFFFFFFFFFFFFFFFFFF AND DUP2 MSTORE PUSH1 0x20 ADD SWAP2 POP POP PUSH1 0x40 MLOAD DUP1 SWAP2 SUB SWAP1 RETURN JUMPDEST CALLVALUE DUP1 ISZERO PUSH2 0x4D5 JUMPI PUSH1 0x0 DUP1 REVERT JUMPDEST POP PUSH2 0x4DE PUSH2 0x2A97 JUMP JUMPDEST PUSH1 0x40 MLOAD DUP1 DUP3 DUP2 MSTORE PUSH1 0x20 ADD SWAP2 POP POP PUSH1 0x40 MLOAD DUP1 SWAP2 SUB SWAP1 RETURN JUMPDEST CALLVALUE DUP1 ISZERO PUSH2 0x500 JUMPI PUSH1 0x0 DUP1 REVERT JUMPDEST POP PUSH2 0x543 PUSH1 0x4 DUP1 CALLDATASIZE SUB PUSH1 0x20 DUP2 LT ISZERO PUSH2 0x517 JUMPI PUSH1 0x0 DUP1 REVERT JUMPDEST DUP2 ADD SWAP1 DUP1 DUP1 CALLDATALOAD PUSH20 0xFFFFFFFFFFFFFFFFFFFFFFFFFFFFFFFFFFFFFFFF AND SWAP1 PUSH1 0x20 ADD SWAP1 SWAP3 SWAP2 SWAP1 POP POP POP PUSH2 0x2A9C JUMP JUMPDEST PUSH1 0x40 MLOAD DUP1 DUP1 PUSH1 0x20 ADD DUP1 PUSH1 0x20 ADD DUP1 PUSH1 0x20 ADD DUP1 PUSH1 0x20 ADD DUP1 PUSH1 0x20 ADD DUP1 PUSH1 0x20 ADD DUP8 DUP2 SUB DUP8 MSTORE DUP14 DUP2 DUP2 MLOAD DUP2 MSTORE PUSH1 0x20 ADD SWAP2 POP DUP1 MLOAD SWAP1 PUSH1 0x20 ADD SWAP1 PUSH1 0x20 MUL DUP1 DUP4 DUP4 PUSH1 0x0 JUMPDEST DUP4 DUP2 LT ISZERO PUSH2 0x59A JUMPI DUP1 DUP3 ADD MLOAD DUP2 DUP5 ADD MSTORE PUSH1 0x20 DUP2 ADD SWAP1 POP PUSH2 0x57F JUMP JUMPDEST POP POP POP POP SWAP1 POP ADD DUP8 DUP2 SUB DUP7 MSTORE DUP13 DUP2 DUP2 MLOAD DUP2 MSTORE PUSH1 0x20 ADD SWAP2 POP DUP1 MLOAD SWAP1 PUSH1 0x20 ADD SWAP1 PUSH1 0x20 MUL DUP1 DUP4 DUP4 PUSH1 0x0 JUMPDEST DUP4 DUP2 LT ISZERO PUSH2 0x5DC JUMPI DUP1 DUP3 ADD MLOAD DUP2 DUP5 ADD MSTORE PUSH1 0x20 DUP2 ADD SWAP1 POP PUSH2 0x5C1 JUMP JUMPDEST POP POP POP POP SWAP1 POP ADD DUP8 DUP2 SUB DUP6 MSTORE DUP12 DUP2 DUP2 MLOAD DUP2 MSTORE PUSH1 0x20 ADD SWAP2 POP DUP1 MLOAD SWAP1 PUSH1 0x20 ADD SWAP1 PUSH1 0x20 MUL DUP1 DUP4 DUP4 PUSH1 0x0 JUMPDEST DUP4 DUP2 LT ISZERO PUSH2 0x61E JUMPI DUP1 DUP3 ADD MLOAD DUP2 DUP5 ADD MSTORE PUSH1 0x20 DUP2 ADD SWAP1 POP PUSH2 0x603 JUMP JUMPDEST POP POP POP POP SWAP1 POP ADD DUP8 DUP2 SUB DUP5 MSTORE DUP11 DUP2 DUP2 MLOAD DUP2 MSTORE PUSH1 0x20 ADD SWAP2 POP DUP1 MLOAD SWAP1 PUSH1 0x20 ADD SWAP1 PUSH1 0x20 MUL DUP1 DUP4 DUP4 PUSH1 0x0 JUMPDEST DUP4 DUP2 LT ISZERO PUSH2 0x660 JUMPI DUP1 DUP3 ADD MLOAD DUP2 DUP5 ADD MSTORE PUSH1 0x20 DUP2 ADD SWAP1 POP PUSH2 0x645 JUMP JUMPDEST POP POP POP POP SWAP1 POP ADD DUP8 DUP2 SUB DUP4 MSTORE DUP10 DUP2 DUP2 MLOAD DUP2 MSTORE PUSH1 0x20 ADD SWAP2 POP DUP1 MLOAD SWAP1 PUSH1 0x20 ADD SWAP1 PUSH1 0x20 MUL DUP1 DUP4 DUP4 PUSH1 0x0 JUMPDEST DUP4 DUP2 LT ISZERO PUSH2 0x6A2 JUMPI DUP1 DUP3 ADD MLOAD DUP2 DUP5 ADD MSTORE PUSH1 0x20 DUP2 ADD SWAP1 POP PUSH2 0x687 JUMP JUMPDEST POP POP POP POP SWAP1 POP ADD DUP8 DUP2 SUB DUP3 MSTORE DUP9 DUP2 DUP2 MLOAD DUP2 MSTORE PUSH1 0x20 ADD SWAP2 POP DUP1 MLOAD SWAP1 PUSH1 0x20 ADD SWAP1 PUSH1 0x20 MUL DUP1 DUP4 DUP4 PUSH1 0x0 JUMPDEST DUP4 DUP2 LT ISZERO PUSH2 0x6E4 JUMPI DUP1 DUP3 ADD MLOAD DUP2 DUP5 ADD MSTORE PUSH1 0x20 DUP2 ADD SWAP1 POP PUSH2 0x6C9 JUMP JUMPDEST POP POP POP POP SWAP1 POP ADD SWAP13 POP POP POP POP POP POP POP POP POP POP POP POP POP PUSH1 0x40 MLOAD DUP1 SWAP2 SUB SWAP1 RETURN JUMPDEST CALLVALUE DUP1 ISZERO PUSH2 0x70E JUMPI PUSH1 0x0 DUP1 REVERT JUMPDEST POP PUSH2 0x73B PUSH1 0x4 DUP1 CALLDATASIZE SUB PUSH1 0x20 DUP2 LT ISZERO PUSH2 0x725 JUMPI PUSH1 0x0 DUP1 REVERT JUMPDEST DUP2 ADD SWAP1 DUP1 DUP1 CALLDATALOAD SWAP1 PUSH1 0x20 ADD SWAP1 SWAP3 SWAP2 SWAP1 POP POP POP PUSH2 0x2FF2 JUMP JUMPDEST PUSH1 0x40 MLOAD DUP1 DUP3 PUSH20 0xFFFFFFFFFFFFFFFFFFFFFFFFFFFFFFFFFFFFFFFF AND DUP2 MSTORE PUSH1 0x20 ADD SWAP2 POP POP PUSH1 0x40 MLOAD DUP1 SWAP2 SUB SWAP1 RETURN JUMPDEST CALLVALUE DUP1 ISZERO PUSH2 0x773 JUMPI PUSH1 0x0 DUP1 REVERT JUMPDEST POP PUSH2 0x77C PUSH2 0x3025 JUMP JUMPDEST PUSH1 0x40 MLOAD DUP1 DUP3 PUSH1 0x5 PUSH1 0x20 MUL DUP1 DUP4 DUP4 PUSH1 0x0 JUMPDEST DUP4 DUP2 LT ISZERO PUSH2 0x7A7 JUMPI DUP1 DUP3 ADD MLOAD DUP2 DUP5 ADD MSTORE PUSH1 0x20 DUP2 ADD SWAP1 POP PUSH2 0x78C JUMP JUMPDEST POP POP POP POP SWAP1 POP ADD SWAP2 POP POP PUSH1 0x40 MLOAD DUP1 SWAP2 SUB SWAP1 RETURN JUMPDEST CALLVALUE DUP1 ISZERO PUSH2 0x7C6 JUMPI PUSH1 0x0 DUP1 REVERT JUMPDEST POP PUSH2 0x7CF PUSH2 0x306C JUMP JUMPDEST PUSH1 0x40 MLOAD DUP1 DUP3 PUSH1 0xFF AND DUP2 MSTORE PUSH1 0x20 ADD SWAP2 POP POP PUSH1 0x40 MLOAD DUP1 SWAP2 SUB SWAP1 RETURN JUMPDEST CALLVALUE DUP1 ISZERO PUSH2 0x7F4 JUMPI PUSH1 0x0 DUP1 REVERT JUMPDEST POP PUSH2 0x7FD PUSH2 0x3071 JUMP JUMPDEST PUSH1 0x40 MLOAD DUP1 DUP3 PUSH20 0xFFFFFFFFFFFFFFFFFFFFFFFFFFFFFFFFFFFFFFFF AND DUP2 MSTORE PUSH1 0x20 ADD SWAP2 POP POP PUSH1 0x40 MLOAD DUP1 SWAP2 SUB SWAP1 RETURN JUMPDEST CALLVALUE DUP1 ISZERO PUSH2 0x835 JUMPI PUSH1 0x0 DUP1 REVERT JUMPDEST POP PUSH2 0x83E PUSH2 0x3097 JUMP JUMPDEST PUSH1 0x40 MLOAD DUP1 DUP3 PUSH1 0x10 PUSH1 0x20 MUL DUP1 DUP4 DUP4 PUSH1 0x0 JUMPDEST DUP4 DUP2 LT ISZERO PUSH2 0x869 JUMPI DUP1 DUP3 ADD MLOAD DUP2 DUP5 ADD MSTORE PUSH1 0x20 DUP2 ADD SWAP1 POP PUSH2 0x84E JUMP JUMPDEST POP POP POP POP SWAP1 POP ADD SWAP2 POP POP PUSH1 0x40 MLOAD DUP1 SWAP2 SUB SWAP1 RETURN JUMPDEST CALLVALUE DUP1 ISZERO PUSH2 0x888 JUMPI PUSH1 0x0 DUP1 REVERT JUMPDEST POP PUSH2 0x8B8 PUSH1 0x4 DUP1 CALLDATASIZE SUB PUSH1 0x20 DUP2 LT ISZERO PUSH2 0x89F JUMPI PUSH1 0x0 DUP1 REVERT JUMPDEST DUP2 ADD SWAP1 DUP1 DUP1 CALLDATALOAD PUSH1 0xFF AND SWAP1 PUSH1 0x20 ADD SWAP1 SWAP3 SWAP2 SWAP1 POP POP POP PUSH2 0x30E2 JUMP JUMPDEST PUSH1 0x40 MLOAD DUP1 DUP3 DUP2 MSTORE PUSH1 0x20 ADD SWAP2 POP POP PUSH1 0x40 MLOAD DUP1 SWAP2 SUB SWAP1 RETURN JUMPDEST CALLVALUE DUP1 ISZERO PUSH2 0x8DA JUMPI PUSH1 0x0 DUP1 REVERT JUMPDEST POP PUSH2 0x91D PUSH1 0x4 DUP1 CALLDATASIZE SUB PUSH1 0x20 DUP2 LT ISZERO PUSH2 0x8F1 JUMPI PUSH1 0x0 DUP1 REVERT JUMPDEST DUP2 ADD SWAP1 DUP1 DUP1 CALLDATALOAD PUSH20 0xFFFFFFFFFFFFFFFFFFFFFFFFFFFFFFFFFFFFFFFF AND SWAP1 PUSH1 0x20 ADD SWAP1 SWAP3 SWAP2 SWAP1 POP POP POP PUSH2 0x3153 JUMP JUMPDEST PUSH1 0x40 MLOAD DUP1 DUP3 DUP2 MSTORE PUSH1 0x20 ADD SWAP2 POP POP PUSH1 0x40 MLOAD DUP1 SWAP2 SUB SWAP1 RETURN JUMPDEST CALLVALUE DUP1 ISZERO PUSH2 0x93F JUMPI PUSH1 0x0 DUP1 REVERT JUMPDEST POP PUSH2 0x982 PUSH1 0x4 DUP1 CALLDATASIZE SUB PUSH1 0x20 DUP2 LT ISZERO PUSH2 0x956 JUMPI PUSH1 0x0 DUP1 REVERT JUMPDEST DUP2 ADD SWAP1 DUP1 DUP1 CALLDATALOAD PUSH20 0xFFFFFFFFFFFFFFFFFFFFFFFFFFFFFFFFFFFFFFFF AND SWAP1 PUSH1 0x20 ADD SWAP1 SWAP3 SWAP2 SWAP1 POP POP POP PUSH2 0x319F JUMP JUMPDEST PUSH1 0x40 MLOAD DUP1 DUP3 PUSH20 0xFFFFFFFFFFFFFFFFFFFFFFFFFFFFFFFFFFFFFFFF AND DUP2 MSTORE PUSH1 0x20 ADD SWAP2 POP POP PUSH1 0x40 MLOAD DUP1 SWAP2 SUB SWAP1 RETURN JUMPDEST CALLVALUE DUP1 ISZERO PUSH2 0x9BA JUMPI PUSH1 0x0 DUP1 REVERT JUMPDEST POP PUSH2 0x9C3 PUSH2 0x3286 JUMP JUMPDEST PUSH1 0x40 MLOAD DUP1 DUP3 PUSH1 0xFF AND DUP2 MSTORE PUSH1 0x20 ADD SWAP2 POP POP PUSH1 0x40 MLOAD DUP1 SWAP2 SUB SWAP1 RETURN JUMPDEST PUSH2 0xA0B PUSH1 0x4 DUP1 CALLDATASIZE SUB PUSH1 0x20 DUP2 LT ISZERO PUSH2 0x9F2 JUMPI PUSH1 0x0 DUP1 REVERT JUMPDEST DUP2 ADD SWAP1 DUP1 DUP1 CALLDATALOAD PUSH1 0xFF AND SWAP1 PUSH1 0x20 ADD SWAP1 SWAP3 SWAP2 SWAP1 POP POP POP PUSH2 0x1252 JUMP JUMPDEST STOP JUMPDEST CALLVALUE DUP1 ISZERO PUSH2 0xA19 JUMPI PUSH1 0x0 DUP1 REVERT JUMPDEST POP PUSH2 0xA5C PUSH1 0x4 DUP1 CALLDATASIZE SUB PUSH1 0x20 DUP2 LT ISZERO PUSH2 0xA30 JUMPI PUSH1 0x0 DUP1 REVERT JUMPDEST DUP2 ADD SWAP1 DUP1 DUP1 CALLDATALOAD PUSH20 0xFFFFFFFFFFFFFFFFFFFFFFFFFFFFFFFFFFFFFFFF AND SWAP1 PUSH1 0x20 ADD SWAP1 SWAP3 SWAP2 SWAP1 POP POP POP PUSH2 0x3299 JUMP JUMPDEST PUSH1 0x40 MLOAD DUP1 DUP1 PUSH1 0x20 ADD DUP1 PUSH1 0x20 ADD DUP4 DUP2 SUB DUP4 MSTORE DUP6 DUP2 DUP2 MLOAD DUP2 MSTORE PUSH1 0x20 ADD SWAP2 POP DUP1 MLOAD SWAP1 PUSH1 0x20 ADD SWAP1 PUSH1 0x20 MUL DUP1 DUP4 DUP4 PUSH1 0x0 JUMPDEST DUP4 DUP2 LT ISZERO PUSH2 0xAA3 JUMPI DUP1 DUP3 ADD MLOAD DUP2 DUP5 ADD MSTORE PUSH1 0x20 DUP2 ADD SWAP1 POP PUSH2 0xA88 JUMP JUMPDEST POP POP POP POP SWAP1 POP ADD DUP4 DUP2 SUB DUP3 MSTORE DUP5 DUP2 DUP2 MLOAD DUP2 MSTORE PUSH1 0x20 ADD SWAP2 POP DUP1 MLOAD SWAP1 PUSH1 0x20 ADD SWAP1 PUSH1 0x20 MUL DUP1 DUP4 DUP4 PUSH1 0x0 JUMPDEST DUP4 DUP2 LT ISZERO PUSH2 0xAE5 JUMPI DUP1 DUP3 ADD MLOAD DUP2 DUP5 ADD MSTORE PUSH1 0x20 DUP2 ADD SWAP1 POP PUSH2 0xACA JUMP JUMPDEST POP POP POP POP SWAP1 POP ADD SWAP5 POP POP POP POP POP PUSH1 0x40 MLOAD DUP1 SWAP2 SUB SWAP1 RETURN JUMPDEST CALLVALUE DUP1 ISZERO PUSH2 0xB07 JUMPI PUSH1 0x0 DUP1 REVERT JUMPDEST POP PUSH2 0xB34 PUSH1 0x4 DUP1 CALLDATASIZE SUB PUSH1 0x20 DUP2 LT ISZERO PUSH2 0xB1E JUMPI PUSH1 0x0 DUP1 REVERT JUMPDEST DUP2 ADD SWAP1 DUP1 DUP1 CALLDATALOAD SWAP1 PUSH1 0x20 ADD SWAP1 SWAP3 SWAP2 SWAP1 POP POP POP PUSH2 0x345A JUMP JUMPDEST PUSH1 0x40 MLOAD DUP1 DUP3 DUP2 MSTORE PUSH1 0x20 ADD SWAP2 POP POP PUSH1 0x40 MLOAD DUP1 SWAP2 SUB SWAP1 RETURN JUMPDEST CALLVALUE DUP1 ISZERO PUSH2 0xB56 JUMPI PUSH1 0x0 DUP1 REVERT JUMPDEST POP PUSH2 0xB83 PUSH1 0x4 DUP1 CALLDATASIZE SUB PUSH1 0x20 DUP2 LT ISZERO PUSH2 0xB6D JUMPI PUSH1 0x0 DUP1 REVERT JUMPDEST DUP2 ADD SWAP1 DUP1 DUP1 CALLDATALOAD SWAP1 PUSH1 0x20 ADD SWAP1 SWAP3 SWAP2 SWAP1 POP POP POP PUSH2 0x3472 JUMP JUMPDEST PUSH1 0x40 MLOAD DUP1 DUP3 DUP2 MSTORE PUSH1 0x20 ADD SWAP2 POP POP PUSH1 0x40 MLOAD DUP1 SWAP2 SUB SWAP1 RETURN JUMPDEST CALLVALUE DUP1 ISZERO PUSH2 0xBA5 JUMPI PUSH1 0x0 DUP1 REVERT JUMPDEST POP PUSH2 0xBD2 PUSH1 0x4 DUP1 CALLDATASIZE SUB PUSH1 0x20 DUP2 LT ISZERO PUSH2 0xBBC JUMPI PUSH1 0x0 DUP1 REVERT JUMPDEST DUP2 ADD SWAP1 DUP1 DUP1 CALLDATALOAD SWAP1 PUSH1 0x20 ADD SWAP1 SWAP3 SWAP2 SWAP1 POP POP POP PUSH2 0x3493 JUMP JUMPDEST PUSH1 0x40 MLOAD DUP1 DUP3 DUP2 MSTORE PUSH1 0x20 ADD SWAP2 POP POP PUSH1 0x40 MLOAD DUP1 SWAP2 SUB SWAP1 RETURN JUMPDEST CALLVALUE DUP1 ISZERO PUSH2 0xBF4 JUMPI PUSH1 0x0 DUP1 REVERT JUMPDEST POP PUSH2 0xC37 PUSH1 0x4 DUP1 CALLDATASIZE SUB PUSH1 0x20 DUP2 LT ISZERO PUSH2 0xC0B JUMPI PUSH1 0x0 DUP1 REVERT JUMPDEST DUP2 ADD SWAP1 DUP1 DUP1 CALLDATALOAD PUSH20 0xFFFFFFFFFFFFFFFFFFFFFFFFFFFFFFFFFFFFFFFF AND SWAP1 PUSH1 0x20 ADD SWAP1 SWAP3 SWAP2 SWAP1 POP POP POP PUSH2 0x34AB JUMP JUMPDEST PUSH1 0x40 MLOAD DUP1 DUP12 DUP2 MSTORE PUSH1 0x20 ADD DUP11 DUP2 MSTORE PUSH1 0x20 ADD DUP10 DUP2 MSTORE PUSH1 0x20 ADD DUP9 PUSH20 0xFFFFFFFFFFFFFFFFFFFFFFFFFFFFFFFFFFFFFFFF AND DUP2 MSTORE PUSH1 0x20 ADD DUP8 DUP2 MSTORE PUSH1 0x20 ADD DUP7 DUP2 MSTORE PUSH1 0x20 ADD DUP6 DUP2 MSTORE PUSH1 0x20 ADD DUP5 DUP2 MSTORE PUSH1 0x20 ADD DUP4 DUP2 MSTORE PUSH1 0x20 ADD DUP3 DUP2 MSTORE PUSH1 0x20 ADD SWAP11 POP POP POP POP POP POP POP POP POP POP POP PUSH1 0x40 MLOAD DUP1 SWAP2 SUB SWAP1 RETURN JUMPDEST CALLVALUE DUP1 ISZERO PUSH2 0xCAE JUMPI PUSH1 0x0 DUP1 REVERT JUMPDEST POP PUSH2 0xCB7 PUSH2 0x3665 JUMP JUMPDEST PUSH1 0x40 MLOAD DUP1 DUP3 DUP2 MSTORE PUSH1 0x20 ADD SWAP2 POP POP PUSH1 0x40 MLOAD DUP1 SWAP2 SUB SWAP1 RETURN JUMPDEST CALLVALUE DUP1 ISZERO PUSH2 0xCD9 JUMPI PUSH1 0x0 DUP1 REVERT JUMPDEST POP PUSH2 0xCE2 PUSH2 0x366D JUMP JUMPDEST PUSH1 0x40 MLOAD DUP1 DUP3 DUP2 MSTORE PUSH1 0x20 ADD SWAP2 POP POP PUSH1 0x40 MLOAD DUP1 SWAP2 SUB SWAP1 RETURN JUMPDEST PUSH2 0xD00 PUSH2 0x3673 JUMP JUMPDEST STOP JUMPDEST CALLVALUE DUP1 ISZERO PUSH2 0xD0E JUMPI PUSH1 0x0 DUP1 REVERT JUMPDEST POP PUSH2 0xD3B PUSH1 0x4 DUP1 CALLDATASIZE SUB PUSH1 0x20 DUP2 LT ISZERO PUSH2 0xD25 JUMPI PUSH1 0x0 DUP1 REVERT JUMPDEST DUP2 ADD SWAP1 DUP1 DUP1 CALLDATALOAD SWAP1 PUSH1 0x20 ADD SWAP1 SWAP3 SWAP2 SWAP1 POP POP POP PUSH2 0x3675 JUMP JUMPDEST PUSH1 0x40 MLOAD DUP1 DUP3 PUSH20 0xFFFFFFFFFFFFFFFFFFFFFFFFFFFFFFFFFFFFFFFF AND DUP2 MSTORE PUSH1 0x20 ADD SWAP2 POP POP PUSH1 0x40 MLOAD DUP1 SWAP2 SUB SWAP1 RETURN JUMPDEST CALLVALUE DUP1 ISZERO PUSH2 0xD73 JUMPI PUSH1 0x0 DUP1 REVERT JUMPDEST POP PUSH2 0xD7C PUSH2 0x36B2 JUMP JUMPDEST PUSH1 0x40 MLOAD DUP1 DUP3 PUSH1 0x32 PUSH1 0x20 MUL DUP1 DUP4 DUP4 PUSH1 0x0 JUMPDEST DUP4 DUP2 LT ISZERO PUSH2 0xDA7 JUMPI DUP1 DUP3 ADD MLOAD DUP2 DUP5 ADD MSTORE PUSH1 0x20 DUP2 ADD SWAP1 POP PUSH2 0xD8C JUMP JUMPDEST POP POP POP POP SWAP1 POP ADD SWAP2 POP POP PUSH1 0x40 MLOAD DUP1 SWAP2 SUB SWAP1 RETURN JUMPDEST CALLVALUE DUP1 ISZERO PUSH2 0xDC6 JUMPI PUSH1 0x0 DUP1 REVERT JUMPDEST POP PUSH2 0xDCF PUSH2 0x3733 JUMP JUMPDEST PUSH1 0x40 MLOAD DUP1 DUP3 PUSH20 0xFFFFFFFFFFFFFFFFFFFFFFFFFFFFFFFFFFFFFFFF AND DUP2 MSTORE PUSH1 0x20 ADD SWAP2 POP POP PUSH1 0x40 MLOAD DUP1 SWAP2 SUB SWAP1 RETURN JUMPDEST CALLVALUE DUP1 ISZERO PUSH2 0xE07 JUMPI PUSH1 0x0 DUP1 REVERT JUMPDEST POP PUSH2 0xE34 PUSH1 0x4 DUP1 CALLDATASIZE SUB PUSH1 0x20 DUP2 LT ISZERO PUSH2 0xE1E JUMPI PUSH1 0x0 DUP1 REVERT JUMPDEST DUP2 ADD SWAP1 DUP1 DUP1 CALLDATALOAD SWAP1 PUSH1 0x20 ADD SWAP1 SWAP3 SWAP2 SWAP1 POP POP POP PUSH2 0x3759 JUMP JUMPDEST STOP JUMPDEST PUSH2 0xE78 PUSH1 0x4 DUP1 CALLDATASIZE SUB PUSH1 0x20 DUP2 LT ISZERO PUSH2 0xE4C JUMPI PUSH1 0x0 DUP1 REVERT JUMPDEST DUP2 ADD SWAP1 DUP1 DUP1 CALLDATALOAD PUSH20 0xFFFFFFFFFFFFFFFFFFFFFFFFFFFFFFFFFFFFFFFF AND SWAP1 PUSH1 0x20 ADD SWAP1 SWAP3 SWAP2 SWAP1 POP POP POP PUSH2 0x3C4E JUMP JUMPDEST STOP JUMPDEST CALLVALUE DUP1 ISZERO PUSH2 0xE86 JUMPI PUSH1 0x0 DUP1 REVERT JUMPDEST POP PUSH2 0xE8F PUSH2 0x4155 JUMP JUMPDEST PUSH1 0x40 MLOAD DUP1 DUP3 PUSH1 0xFF AND DUP2 MSTORE PUSH1 0x20 ADD SWAP2 POP POP PUSH1 0x40 MLOAD DUP1 SWAP2 SUB SWAP1 RETURN JUMPDEST CALLVALUE DUP1 ISZERO PUSH2 0xEB4 JUMPI PUSH1 0x0 DUP1 REVERT JUMPDEST POP PUSH2 0xEF7 PUSH1 0x4 DUP1 CALLDATASIZE SUB PUSH1 0x20 DUP2 LT ISZERO PUSH2 0xECB JUMPI PUSH1 0x0 DUP1 REVERT JUMPDEST DUP2 ADD SWAP1 DUP1 DUP1 CALLDATALOAD PUSH20 0xFFFFFFFFFFFFFFFFFFFFFFFFFFFFFFFFFFFFFFFF AND SWAP1 PUSH1 0x20 ADD SWAP1 SWAP3 SWAP2 SWAP1 POP POP POP PUSH2 0x4168 JUMP JUMPDEST PUSH1 0x40 MLOAD DUP1 DUP11 DUP2 MSTORE PUSH1 0x20 ADD DUP10 DUP2 MSTORE PUSH1 0x20 ADD DUP9 PUSH20 0xFFFFFFFFFFFFFFFFFFFFFFFFFFFFFFFFFFFFFFFF AND DUP2 MSTORE PUSH1 0x20 ADD DUP8 DUP2 MSTORE PUSH1 0x20 ADD DUP7 DUP2 MSTORE PUSH1 0x20 ADD DUP6 DUP2 MSTORE PUSH1 0x20 ADD DUP5 DUP2 MSTORE PUSH1 0x20 ADD DUP4 PUSH1 0xFF AND DUP2 MSTORE PUSH1 0x20 ADD DUP3 DUP2 MSTORE PUSH1 0x20 ADD SWAP10 POP POP POP POP POP POP POP POP POP POP PUSH1 0x40 MLOAD DUP1 SWAP2 SUB SWAP1 RETURN JUMPDEST CALLVALUE DUP1 ISZERO PUSH2 0xF6A JUMPI PUSH1 0x0 DUP1 REVERT JUMPDEST POP PUSH2 0xFAD PUSH1 0x4 DUP1 CALLDATASIZE SUB PUSH1 0x20 DUP2 LT ISZERO PUSH2 0xF81 JUMPI PUSH1 0x0 DUP1 REVERT JUMPDEST DUP2 ADD SWAP1 DUP1 DUP1 CALLDATALOAD PUSH20 0xFFFFFFFFFFFFFFFFFFFFFFFFFFFFFFFFFFFFFFFF AND SWAP1 PUSH1 0x20 ADD SWAP1 SWAP3 SWAP2 SWAP1 POP POP POP PUSH2 0x41E3 JUMP JUMPDEST PUSH1 0x40 MLOAD DUP1 DUP3 DUP2 MSTORE PUSH1 0x20 ADD SWAP2 POP POP PUSH1 0x40 MLOAD DUP1 SWAP2 SUB SWAP1 RETURN JUMPDEST PUSH2 0x1005 PUSH1 0x4 DUP1 CALLDATASIZE SUB PUSH1 0x20 DUP2 LT ISZERO PUSH2 0xFD9 JUMPI PUSH1 0x0 DUP1 REVERT JUMPDEST DUP2 ADD SWAP1 DUP1 DUP1 CALLDATALOAD PUSH20 0xFFFFFFFFFFFFFFFFFFFFFFFFFFFFFFFFFFFFFFFF AND SWAP1 PUSH1 0x20 ADD SWAP1 SWAP3 SWAP2 SWAP1 POP POP POP PUSH2 0x41FB JUMP JUMPDEST STOP JUMPDEST CALLVALUE DUP1 ISZERO PUSH2 0x1013 JUMPI PUSH1 0x0 DUP1 REVERT JUMPDEST POP PUSH2 0x1056 PUSH1 0x4 DUP1 CALLDATASIZE SUB PUSH1 0x20 DUP2 LT ISZERO PUSH2 0x102A JUMPI PUSH1 0x0 DUP1 REVERT JUMPDEST DUP2 ADD SWAP1 DUP1 DUP1 CALLDATALOAD PUSH20 0xFFFFFFFFFFFFFFFFFFFFFFFFFFFFFFFFFFFFFFFF AND SWAP1 PUSH1 0x20 ADD SWAP1 SWAP3 SWAP2 SWAP1 POP POP POP PUSH2 0x4211 JUMP JUMPDEST PUSH1 0x40 MLOAD DUP1 DUP3 DUP2 MSTORE PUSH1 0x20 ADD SWAP2 POP POP PUSH1 0x40 MLOAD DUP1 SWAP2 SUB SWAP1 RETURN JUMPDEST CALLVALUE DUP1 ISZERO PUSH2 0x1078 JUMPI PUSH1 0x0 DUP1 REVERT JUMPDEST POP PUSH2 0x1081 PUSH2 0x42C4 JUMP JUMPDEST PUSH1 0x40 MLOAD DUP1 DUP3 PUSH1 0xFF AND DUP2 MSTORE PUSH1 0x20 ADD SWAP2 POP POP PUSH1 0x40 MLOAD DUP1 SWAP2 SUB SWAP1 RETURN JUMPDEST CALLVALUE DUP1 ISZERO PUSH2 0x10A6 JUMPI PUSH1 0x0 DUP1 REVERT JUMPDEST POP PUSH2 0x10AF PUSH2 0x42C9 JUMP JUMPDEST STOP JUMPDEST CALLVALUE DUP1 ISZERO PUSH2 0x10BD JUMPI PUSH1 0x0 DUP1 REVERT JUMPDEST POP PUSH2 0x10C6 PUSH2 0x44D7 JUMP JUMPDEST PUSH1 0x40 MLOAD DUP1 DUP3 PUSH1 0x10 PUSH1 0x20 MUL DUP1 DUP4 DUP4 PUSH1 0x0 JUMPDEST DUP4 DUP2 LT ISZERO PUSH2 0x10F1 JUMPI DUP1 DUP3 ADD MLOAD DUP2 DUP5 ADD MSTORE PUSH1 0x20 DUP2 ADD SWAP1 POP PUSH2 0x10D6 JUMP JUMPDEST POP POP POP POP SWAP1 POP ADD SWAP2 POP POP PUSH1 0x40 MLOAD DUP1 SWAP2 SUB SWAP1 RETURN JUMPDEST CALLVALUE DUP1 ISZERO PUSH2 0x1110 JUMPI PUSH1 0x0 DUP1 REVERT JUMPDEST POP PUSH2 0x1160 PUSH1 0x4 DUP1 CALLDATASIZE SUB PUSH1 0x40 DUP2 LT ISZERO PUSH2 0x1127 JUMPI PUSH1 0x0 DUP1 REVERT JUMPDEST DUP2 ADD SWAP1 DUP1 DUP1 CALLDATALOAD PUSH20 0xFFFFFFFFFFFFFFFFFFFFFFFFFFFFFFFFFFFFFFFF AND SWAP1 PUSH1 0x20 ADD SWAP1 SWAP3 SWAP2 SWAP1 DUP1 CALLDATALOAD PUSH1 0xFF AND SWAP1 PUSH1 0x20 ADD SWAP1 SWAP3 SWAP2 SWAP1 POP POP POP PUSH2 0x4522 JUMP JUMPDEST PUSH1 0x40 MLOAD DUP1 DUP4 DUP2 MSTORE PUSH1 0x20 ADD DUP3 DUP2 MSTORE PUSH1 0x20 ADD SWAP3 POP POP POP PUSH1 0x40 MLOAD DUP1 SWAP2 SUB SWAP1 RETURN JUMPDEST CALLVALUE DUP1 ISZERO PUSH2 0x1189 JUMPI PUSH1 0x0 DUP1 REVERT JUMPDEST POP PUSH2 0x1192 PUSH2 0x4755 JUMP JUMPDEST PUSH1 0x40 MLOAD DUP1 DUP3 PUSH1 0xFF AND DUP2 MSTORE PUSH1 0x20 ADD SWAP2 POP POP PUSH1 0x40 MLOAD DUP1 SWAP2 SUB SWAP1 RETURN JUMPDEST CALLVALUE DUP1 ISZERO PUSH2 0x11B7 JUMPI PUSH1 0x0 DUP1 REVERT JUMPDEST POP PUSH2 0x11C0 PUSH2 0x475A JUMP JUMPDEST PUSH1 0x40 MLOAD DUP1 DUP3 DUP2 MSTORE PUSH1 0x20 ADD SWAP2 POP POP PUSH1 0x40 MLOAD DUP1 SWAP2 SUB SWAP1 RETURN JUMPDEST PUSH1 0x0 DUP1 PUSH1 0x6B PUSH1 0x0 DUP5 PUSH20 0xFFFFFFFFFFFFFFFFFFFFFFFFFFFFFFFFFFFFFFFF AND PUSH20 0xFFFFFFFFFFFFFFFFFFFFFFFFFFFFFFFFFFFFFFFF AND DUP2 MSTORE PUSH1 0x20 ADD SWAP1 DUP2 MSTORE PUSH1 0x20 ADD PUSH1 0x0 KECCAK256 PUSH1 0x0 ADD SLOAD EQ ISZERO SWAP1 POP SWAP2 SWAP1 POP JUMP JUMPDEST PUSH2 0x1250 PUSH1 0x66 PUSH1 0x2 SWAP1 SLOAD SWAP1 PUSH2 0x100 EXP SWAP1 DIV PUSH20 0xFFFFFFFFFFFFFFFFFFFFFFFFFFFFFFFFFFFFFFFF AND PUSH2 0x3C4E JUMP JUMPDEST JUMP JUMPDEST PUSH1 0x2 PUSH1 0x0 SLOAD EQ ISZERO PUSH2 0x12CB JUMPI PUSH1 0x40 MLOAD PUSH32 0x8C379A000000000000000000000000000000000000000000000000000000000 DUP2 MSTORE PUSH1 0x4 ADD DUP1 DUP1 PUSH1 0x20 ADD DUP3 DUP2 SUB DUP3 MSTORE PUSH1 0x1F DUP2 MSTORE PUSH1 0x20 ADD DUP1 PUSH32 0x5265656E7472616E637947756172643A207265656E7472616E742063616C6C00 DUP2 MSTORE POP PUSH1 0x20 ADD SWAP2 POP POP PUSH1 0x40 MLOAD DUP1 SWAP2 SUB SWAP1 REVERT JUMPDEST PUSH1 0x2 PUSH1 0x0 DUP2 SWAP1 SSTORE POP PUSH2 0x12DC CALLER PUSH2 0x11D6 JUMP JUMPDEST PUSH2 0x134E JUMPI PUSH1 0x40 MLOAD PUSH32 0x8C379A000000000000000000000000000000000000000000000000000000000 DUP2 MSTORE PUSH1 0x4 ADD DUP1 DUP1 PUSH1 0x20 ADD DUP3 DUP2 SUB DUP3 MSTORE PUSH1 0x16 DUP2 MSTORE PUSH1 0x20 ADD DUP1 PUSH32 0x55736572206973206E6F74207265676973746572656400000000000000000000 DUP2 MSTORE POP PUSH1 0x20 ADD SWAP2 POP POP PUSH1 0x40 MLOAD DUP1 SWAP2 SUB SWAP1 REVERT JUMPDEST PUSH1 0x0 DUP2 PUSH1 0xFF AND GT DUP1 ISZERO PUSH2 0x1366 JUMPI POP PUSH1 0x69 SLOAD DUP2 PUSH1 0xFF AND GT ISZERO JUMPDEST PUSH2 0x13D8 JUMPI PUSH1 0x40 MLOAD PUSH32 0x8C379A000000000000000000000000000000000000000000000000000000000 DUP2 MSTORE PUSH1 0x4 ADD DUP1 DUP1 PUSH1 0x20 ADD DUP3 DUP2 SUB DUP3 MSTORE PUSH1 0xD DUP2 MSTORE PUSH1 0x20 ADD DUP1 PUSH32 0x496E76616C696420726F756E6400000000000000000000000000000000000000 DUP2 MSTORE POP PUSH1 0x20 ADD SWAP2 POP POP PUSH1 0x40 MLOAD DUP1 SWAP2 SUB SWAP1 REVERT JUMPDEST CALLVALUE PUSH1 0x68 DUP3 PUSH1 0xFF AND DUP2 SLOAD DUP2 LT PUSH2 0x13E9 JUMPI INVALID JUMPDEST SWAP1 PUSH1 0x0 MSTORE PUSH1 0x20 PUSH1 0x0 KECCAK256 ADD SLOAD EQ PUSH2 0x1467 JUMPI PUSH1 0x40 MLOAD PUSH32 0x8C379A000000000000000000000000000000000000000000000000000000000 DUP2 MSTORE PUSH1 0x4 ADD DUP1 DUP1 PUSH1 0x20 ADD DUP3 DUP2 SUB DUP3 MSTORE PUSH1 0x11 DUP2 MSTORE PUSH1 0x20 ADD DUP1 PUSH32 0x496E76616C696420424E422076616C7565000000000000000000000000000000 DUP2 MSTORE POP PUSH1 0x20 ADD SWAP2 POP POP PUSH1 0x40 MLOAD DUP1 SWAP2 SUB SWAP1 REVERT JUMPDEST PUSH2 0x1470 CALLER PUSH2 0x2A4A JUMP JUMPDEST ISZERO PUSH2 0x14E3 JUMPI PUSH1 0x40 MLOAD PUSH32 0x8C379A000000000000000000000000000000000000000000000000000000000 DUP2 MSTORE PUSH1 0x4 ADD DUP1 DUP1 PUSH1 0x20 ADD DUP3 DUP2 SUB DUP3 MSTORE PUSH1 0x15 DUP2 MSTORE PUSH1 0x20 ADD DUP1 PUSH32 0x43616E206E6F74206265206120636F6E74726163740000000000000000000000 DUP2 MSTORE POP PUSH1 0x20 ADD SWAP2 POP POP PUSH1 0x40 MLOAD DUP1 SWAP2 SUB SWAP1 REVERT JUMPDEST PUSH1 0x1 PUSH1 0x6B PUSH1 0x0 CALLER PUSH20 0xFFFFFFFFFFFFFFFFFFFFFFFFFFFFFFFFFFFFFFFF AND PUSH20 0xFFFFFFFFFFFFFFFFFFFFFFFFFFFFFFFFFFFFFFFF AND DUP2 MSTORE PUSH1 0x20 ADD SWAP1 DUP2 MSTORE PUSH1 0x20 ADD PUSH1 0x0 KECCAK256 PUSH1 0x8 ADD PUSH1 0x0 SWAP1 SLOAD SWAP1 PUSH2 0x100 EXP SWAP1 DIV PUSH1 0xFF AND ADD PUSH1 0xFF AND DUP2 PUSH1 0xFF AND GT ISZERO PUSH2 0x15B1 JUMPI PUSH1 0x40 MLOAD PUSH32 0x8C379A000000000000000000000000000000000000000000000000000000000 DUP2 MSTORE PUSH1 0x4 ADD DUP1 DUP1 PUSH1 0x20 ADD DUP3 DUP2 SUB DUP3 MSTORE PUSH1 0x13 DUP2 MSTORE PUSH1 0x20 ADD DUP1 PUSH32 0x526F756E64206E6F7420617661696C61626C6500000000000000000000000000 DUP2 MSTORE POP PUSH1 0x20 ADD SWAP2 POP POP PUSH1 0x40 MLOAD DUP1 SWAP2 SUB SWAP1 REVERT JUMPDEST TIMESTAMP PUSH1 0x45 DUP3 PUSH1 0xFF AND PUSH1 0x10 DUP2 LT PUSH2 0x15C2 JUMPI INVALID JUMPDEST ADD SLOAD LT ISZERO PUSH2 0x1703 JUMPI PUSH1 0x0 PUSH2 0x15D5 DUP3 PUSH2 0x30E2 JUMP JUMPDEST SWAP1 POP PUSH1 0x0 PUSH1 0x55 DUP4 PUSH1 0xFF AND PUSH1 0x10 DUP2 LT PUSH2 0x15E9 JUMPI INVALID JUMPDEST ADD PUSH1 0x0 SWAP1 SLOAD SWAP1 PUSH2 0x100 EXP SWAP1 DIV PUSH20 0xFFFFFFFFFFFFFFFFFFFFFFFFFFFFFFFFFFFFFFFF AND PUSH20 0xFFFFFFFFFFFFFFFFFFFFFFFFFFFFFFFFFFFFFFFF AND PUSH2 0x8FC DUP4 SWAP1 DUP2 ISZERO MUL SWAP1 PUSH1 0x40 MLOAD PUSH1 0x0 PUSH1 0x40 MLOAD DUP1 DUP4 SUB DUP2 DUP6 DUP9 DUP9 CALL SWAP4 POP POP POP POP SWAP1 POP DUP1 ISZERO PUSH2 0x16FC JUMPI PUSH3 0x15180 PUSH1 0x45 DUP5 PUSH1 0xFF AND PUSH1 0x10 DUP2 LT PUSH2 0x165B JUMPI INVALID JUMPDEST ADD PUSH1 0x0 DUP3 DUP3 SLOAD ADD SWAP3 POP POP DUP2 SWAP1 SSTORE POP PUSH1 0x55 DUP4 PUSH1 0xFF AND PUSH1 0x10 DUP2 LT PUSH2 0x1679 JUMPI INVALID JUMPDEST ADD PUSH1 0x0 SWAP1 SLOAD SWAP1 PUSH2 0x100 EXP SWAP1 DIV PUSH20 0xFFFFFFFFFFFFFFFFFFFFFFFFFFFFFFFFFFFFFFFF AND PUSH20 0xFFFFFFFFFFFFFFFFFFFFFFFFFFFFFFFFFFFFFFFF AND PUSH32 0x8EA1A10DE3733DB603227CA0E3CD0FEB6DA4F1C33FB15CB9265FA333A64797C2 TIMESTAMP DUP6 DUP6 PUSH1 0x40 MLOAD DUP1 DUP5 DUP2 MSTORE PUSH1 0x20 ADD DUP4 PUSH1 0xFF AND DUP2 MSTORE PUSH1 0x20 ADD DUP3 DUP2 MSTORE PUSH1 0x20 ADD SWAP4 POP POP POP POP PUSH1 0x40 MLOAD DUP1 SWAP2 SUB SWAP1 LOG2 JUMPDEST POP POP PUSH2 0x1739 JUMP JUMPDEST PUSH2 0xE10 PUSH1 0x45 DUP3 PUSH1 0xFF AND PUSH1 0x10 DUP2 LT PUSH2 0x1716 JUMPI INVALID JUMPDEST ADD PUSH1 0x0 DUP3 DUP3 SLOAD ADD SWAP3 POP POP DUP2 SWAP1 SSTORE POP TIMESTAMP PUSH1 0x45 PUSH1 0x0 PUSH1 0x10 DUP2 LT PUSH2 0x1733 JUMPI INVALID JUMPDEST ADD DUP2 SWAP1 SSTORE POP JUMPDEST CALLER PUSH1 0x55 DUP3 PUSH1 0xFF AND PUSH1 0x10 DUP2 LT PUSH2 0x174A JUMPI INVALID JUMPDEST ADD PUSH1 0x0 PUSH2 0x100 EXP DUP2 SLOAD DUP2 PUSH20 0xFFFFFFFFFFFFFFFFFFFFFFFFFFFFFFFFFFFFFFFF MUL NOT AND SWAP1 DUP4 PUSH20 0xFFFFFFFFFFFFFFFFFFFFFFFFFFFFFFFFFFFFFFFF AND MUL OR SWAP1 SSTORE POP PUSH1 0x6B PUSH1 0x0 CALLER PUSH20 0xFFFFFFFFFFFFFFFFFFFFFFFFFFFFFFFFFFFFFFFF AND PUSH20 0xFFFFFFFFFFFFFFFFFFFFFFFFFFFFFFFFFFFFFFFF AND DUP2 MSTORE PUSH1 0x20 ADD SWAP1 DUP2 MSTORE PUSH1 0x20 ADD PUSH1 0x0 KECCAK256 PUSH1 0x8 ADD PUSH1 0x0 DUP2 DUP2 SWAP1 SLOAD SWAP1 PUSH2 0x100 EXP SWAP1 DIV PUSH1 0xFF AND DUP1 SWAP3 SWAP2 SWAP1 PUSH1 0x1 ADD SWAP2 SWAP1 PUSH2 0x100 EXP DUP2 SLOAD DUP2 PUSH1 0xFF MUL NOT AND SWAP1 DUP4 PUSH1 0xFF AND MUL OR SWAP1 SSTORE POP POP CALLVALUE PUSH1 0x6B PUSH1 0x0 CALLER PUSH20 0xFFFFFFFFFFFFFFFFFFFFFFFFFFFFFFFFFFFFFFFF AND PUSH20 0xFFFFFFFFFFFFFFFFFFFFFFFFFFFFFFFFFFFFFFFF AND DUP2 MSTORE PUSH1 0x20 ADD SWAP1 DUP2 MSTORE PUSH1 0x20 ADD PUSH1 0x0 KECCAK256 PUSH1 0x9 ADD PUSH1 0x0 DUP3 DUP3 SLOAD ADD SWAP3 POP POP DUP2 SWAP1 SSTORE POP PUSH1 0x6F PUSH1 0x1 ADD PUSH1 0x0 DUP2 SLOAD DUP1 SWAP3 SWAP2 SWAP1 PUSH1 0x1 ADD SWAP2 SWAP1 POP SSTORE POP CALLVALUE PUSH1 0x6F PUSH1 0x2 ADD PUSH1 0x0 DUP3 DUP3 SLOAD ADD SWAP3 POP POP DUP2 SWAP1 SSTORE POP TIMESTAMP PUSH1 0x65 PUSH1 0x0 CALLER PUSH20 0xFFFFFFFFFFFFFFFFFFFFFFFFFFFFFFFFFFFFFFFF AND PUSH20 0xFFFFFFFFFFFFFFFFFFFFFFFFFFFFFFFFFFFFFFFF AND DUP2 MSTORE PUSH1 0x20 ADD SWAP1 DUP2 MSTORE PUSH1 0x20 ADD PUSH1 0x0 KECCAK256 DUP2 SWAP1 SSTORE POP TIMESTAMP PUSH1 0x6B PUSH1 0x0 CALLER PUSH20 0xFFFFFFFFFFFFFFFFFFFFFFFFFFFFFFFFFFFFFFFF AND PUSH20 0xFFFFFFFFFFFFFFFFFFFFFFFFFFFFFFFFFFFFFFFF AND DUP2 MSTORE PUSH1 0x20 ADD SWAP1 DUP2 MSTORE PUSH1 0x20 ADD PUSH1 0x0 KECCAK256 PUSH1 0x7 ADD PUSH1 0x0 DUP4 PUSH1 0xFF AND PUSH1 0xFF AND DUP2 MSTORE PUSH1 0x20 ADD SWAP1 DUP2 MSTORE PUSH1 0x20 ADD PUSH1 0x0 KECCAK256 PUSH1 0x3 ADD DUP2 SWAP1 SSTORE POP PUSH1 0x0 PUSH1 0x64 CALLVALUE DUP2 PUSH2 0x1924 JUMPI INVALID JUMPDEST DIV SWAP1 POP PUSH1 0x6B PUSH1 0x0 CALLER PUSH20 0xFFFFFFFFFFFFFFFFFFFFFFFFFFFFFFFFFFFFFFFF AND PUSH20 0xFFFFFFFFFFFFFFFFFFFFFFFFFFFFFFFFFFFFFFFF AND DUP2 MSTORE PUSH1 0x20 ADD SWAP1 DUP2 MSTORE PUSH1 0x20 ADD PUSH1 0x0 KECCAK256 PUSH1 0x7 ADD PUSH1 0x0 DUP4 PUSH1 0xFF AND PUSH1 0xFF AND DUP2 MSTORE PUSH1 0x20 ADD SWAP1 DUP2 MSTORE PUSH1 0x20 ADD PUSH1 0x0 KECCAK256 PUSH1 0x0 ADD PUSH1 0x6 SWAP1 SLOAD SWAP1 PUSH2 0x100 EXP SWAP1 DIV PUSH1 0xFF AND PUSH2 0x1C49 JUMPI PUSH1 0x6B PUSH1 0x0 CALLER PUSH20 0xFFFFFFFFFFFFFFFFFFFFFFFFFFFFFFFFFFFFFFFF AND PUSH20 0xFFFFFFFFFFFFFFFFFFFFFFFFFFFFFFFFFFFFFFFF AND DUP2 MSTORE PUSH1 0x20 ADD SWAP1 DUP2 MSTORE PUSH1 0x20 ADD PUSH1 0x0 KECCAK256 PUSH1 0x7 ADD PUSH1 0x0 DUP4 PUSH1 0xFF AND PUSH1 0xFF AND DUP2 MSTORE PUSH1 0x20 ADD SWAP1 DUP2 MSTORE PUSH1 0x20 ADD PUSH1 0x0 KECCAK256 PUSH1 0x0 ADD PUSH1 0x0 DUP2 DUP2 SWAP1 SLOAD SWAP1 PUSH2 0x100 EXP SWAP1 DIV PUSH2 0xFFFF AND DUP1 SWAP3 SWAP2 SWAP1 PUSH1 0x1 ADD SWAP2 SWAP1 PUSH2 0x100 EXP DUP2 SLOAD DUP2 PUSH2 0xFFFF MUL NOT AND SWAP1 DUP4 PUSH2 0xFFFF AND MUL OR SWAP1 SSTORE POP POP PUSH1 0x2 PUSH1 0xFF AND PUSH1 0x6B PUSH1 0x0 CALLER PUSH20 0xFFFFFFFFFFFFFFFFFFFFFFFFFFFFFFFFFFFFFFFF AND PUSH20 0xFFFFFFFFFFFFFFFFFFFFFFFFFFFFFFFFFFFFFFFF AND DUP2 MSTORE PUSH1 0x20 ADD SWAP1 DUP2 MSTORE PUSH1 0x20 ADD PUSH1 0x0 KECCAK256 PUSH1 0x7 ADD PUSH1 0x0 DUP5 PUSH1 0xFF AND PUSH1 0xFF AND DUP2 MSTORE PUSH1 0x20 ADD SWAP1 DUP2 MSTORE PUSH1 0x20 ADD PUSH1 0x0 KECCAK256 PUSH1 0x0 ADD PUSH1 0x2 DUP3 DUP3 DUP3 SWAP1 SLOAD SWAP1 PUSH2 0x100 EXP SWAP1 DIV PUSH2 0xFFFF AND ADD SWAP3 POP PUSH2 0x100 EXP DUP2 SLOAD DUP2 PUSH2 0xFFFF MUL NOT AND SWAP1 DUP4 PUSH2 0xFFFF AND MUL OR SWAP1 SSTORE POP PUSH1 0x1 PUSH1 0x6B PUSH1 0x0 CALLER PUSH20 0xFFFFFFFFFFFFFFFFFFFFFFFFFFFFFFFFFFFFFFFF AND PUSH20 0xFFFFFFFFFFFFFFFFFFFFFFFFFFFFFFFFFFFFFFFF AND DUP2 MSTORE PUSH1 0x20 ADD SWAP1 DUP2 MSTORE PUSH1 0x20 ADD PUSH1 0x0 KECCAK256 PUSH1 0x7 ADD PUSH1 0x0 DUP5 PUSH1 0xFF AND PUSH1 0xFF AND DUP2 MSTORE PUSH1 0x20 ADD SWAP1 DUP2 MSTORE PUSH1 0x20 ADD PUSH1 0x0 KECCAK256 PUSH1 0x0 ADD PUSH1 0x6 PUSH2 0x100 EXP DUP2 SLOAD DUP2 PUSH1 0xFF MUL NOT AND SWAP1 DUP4 ISZERO ISZERO MUL OR SWAP1 SSTORE POP PUSH1 0x6D PUSH1 0x0 DUP4 PUSH1 0xFF AND PUSH1 0xFF AND DUP2 MSTORE PUSH1 0x20 ADD SWAP1 DUP2 MSTORE PUSH1 0x20 ADD PUSH1 0x0 KECCAK256 CALLER SWAP1 DUP1 PUSH1 0x1 DUP2 SLOAD ADD DUP1 DUP3 SSTORE DUP1 SWAP2 POP POP PUSH1 0x1 SWAP1 SUB SWAP1 PUSH1 0x0 MSTORE PUSH1 0x20 PUSH1 0x0 KECCAK256 ADD PUSH1 0x0 SWAP1 SWAP2 SWAP1 SWAP2 SWAP1 SWAP2 PUSH2 0x100 EXP DUP2 SLOAD DUP2 PUSH20 0xFFFFFFFFFFFFFFFFFFFFFFFFFFFFFFFFFFFFFFFF MUL NOT AND SWAP1 DUP4 PUSH20 0xFFFFFFFFFFFFFFFFFFFFFFFFFFFFFFFFFFFFFFFF AND MUL OR SWAP1 SSTORE POP CALLER PUSH20 0xFFFFFFFFFFFFFFFFFFFFFFFFFFFFFFFFFFFFFFFF AND PUSH32 0x2F201BC547ACC49919922EAF7ECEA9F3389ADCA4DC6AB3FB4A7498CBBAAC63A2 TIMESTAMP PUSH1 0x6B PUSH1 0x0 CALLER PUSH20 0xFFFFFFFFFFFFFFFFFFFFFFFFFFFFFFFFFFFFFFFF AND PUSH20 0xFFFFFFFFFFFFFFFFFFFFFFFFFFFFFFFFFFFFFFFF AND DUP2 MSTORE PUSH1 0x20 ADD SWAP1 DUP2 MSTORE PUSH1 0x20 ADD PUSH1 0x0 KECCAK256 PUSH1 0x0 ADD SLOAD DUP6 PUSH1 0x40 MLOAD DUP1 DUP5 DUP2 MSTORE PUSH1 0x20 ADD DUP4 DUP2 MSTORE PUSH1 0x20 ADD DUP3 PUSH1 0xFF AND DUP2 MSTORE PUSH1 0x20 ADD SWAP4 POP POP POP POP PUSH1 0x40 MLOAD DUP1 SWAP2 SUB SWAP1 LOG2 PUSH2 0x1E80 JUMP JUMPDEST PUSH1 0x6B PUSH1 0x0 CALLER PUSH20 0xFFFFFFFFFFFFFFFFFFFFFFFFFFFFFFFFFFFFFFFF AND PUSH20 0xFFFFFFFFFFFFFFFFFFFFFFFFFFFFFFFFFFFFFFFF AND DUP2 MSTORE PUSH1 0x20 ADD SWAP1 DUP2 MSTORE PUSH1 0x20 ADD PUSH1 0x0 KECCAK256 PUSH1 0x7 ADD PUSH1 0x0 DUP4 PUSH1 0xFF AND PUSH1 0xFF AND DUP2 MSTORE PUSH1 0x20 ADD SWAP1 DUP2 MSTORE PUSH1 0x20 ADD PUSH1 0x0 KECCAK256 PUSH1 0x0 ADD PUSH1 0x0 DUP2 DUP2 SWAP1 SLOAD SWAP1 PUSH2 0x100 EXP SWAP1 DIV PUSH2 0xFFFF AND DUP1 SWAP3 SWAP2 SWAP1 PUSH1 0x1 ADD SWAP2 SWAP1 PUSH2 0x100 EXP DUP2 SLOAD DUP2 PUSH2 0xFFFF MUL NOT AND SWAP1 DUP4 PUSH2 0xFFFF AND MUL OR SWAP1 SSTORE POP POP PUSH1 0x2 PUSH1 0xFF AND PUSH1 0x6B PUSH1 0x0 CALLER PUSH20 0xFFFFFFFFFFFFFFFFFFFFFFFFFFFFFFFFFFFFFFFF AND PUSH20 0xFFFFFFFFFFFFFFFFFFFFFFFFFFFFFFFFFFFFFFFF AND DUP2 MSTORE PUSH1 0x20 ADD SWAP1 DUP2 MSTORE PUSH1 0x20 ADD PUSH1 0x0 KECCAK256 PUSH1 0x7 ADD PUSH1 0x0 DUP5 PUSH1 0xFF AND PUSH1 0xFF AND DUP2 MSTORE PUSH1 0x20 ADD SWAP1 DUP2 MSTORE PUSH1 0x20 ADD PUSH1 0x0 KECCAK256 PUSH1 0x0 ADD PUSH1 0x2 DUP3 DUP3 DUP3 SWAP1 SLOAD SWAP1 PUSH2 0x100 EXP SWAP1 DIV PUSH2 0xFFFF AND ADD SWAP3 POP PUSH2 0x100 EXP DUP2 SLOAD DUP2 PUSH2 0xFFFF MUL NOT AND SWAP1 DUP4 PUSH2 0xFFFF AND MUL OR SWAP1 SSTORE POP CALLER PUSH20 0xFFFFFFFFFFFFFFFFFFFFFFFFFFFFFFFFFFFFFFFF AND PUSH32 0x31BFA9AB73D15B5D752F5928D978DD4DABA1B2DD420BB2D965C54CFE366C5534 TIMESTAMP PUSH1 0x6B PUSH1 0x0 CALLER PUSH20 0xFFFFFFFFFFFFFFFFFFFFFFFFFFFFFFFFFFFFFFFF AND PUSH20 0xFFFFFFFFFFFFFFFFFFFFFFFFFFFFFFFFFFFFFFFF AND DUP2 MSTORE PUSH1 0x20 ADD SWAP1 DUP2 MSTORE PUSH1 0x20 ADD PUSH1 0x0 KECCAK256 PUSH1 0x0 ADD SLOAD DUP6 PUSH1 0x6B PUSH1 0x0 CALLER PUSH20 0xFFFFFFFFFFFFFFFFFFFFFFFFFFFFFFFFFFFFFFFF AND PUSH20 0xFFFFFFFFFFFFFFFFFFFFFFFFFFFFFFFFFFFFFFFF AND DUP2 MSTORE PUSH1 0x20 ADD SWAP1 DUP2 MSTORE PUSH1 0x20 ADD PUSH1 0x0 KECCAK256 PUSH1 0x7 ADD PUSH1 0x0 DUP9 PUSH1 0xFF AND PUSH1 0xFF AND DUP2 MSTORE PUSH1 0x20 ADD SWAP1 DUP2 MSTORE PUSH1 0x20 ADD PUSH1 0x0 KECCAK256 PUSH1 0x0 ADD PUSH1 0x2 SWAP1 SLOAD SWAP1 PUSH2 0x100 EXP SWAP1 DIV PUSH2 0xFFFF AND PUSH1 0x40 MLOAD DUP1 DUP6 DUP2 MSTORE PUSH1 0x20 ADD DUP5 DUP2 MSTORE PUSH1 0x20 ADD DUP4 PUSH1 0xFF AND DUP2 MSTORE PUSH1 0x20 ADD DUP3 PUSH2 0xFFFF AND DUP2 MSTORE PUSH1 0x20 ADD SWAP5 POP POP POP POP POP PUSH1 0x40 MLOAD DUP1 SWAP2 SUB SWAP1 LOG2 JUMPDEST PUSH1 0x0 PUSH1 0x4B PUSH1 0xFF AND DUP3 MUL SWAP1 POP CALLER PUSH20 0xFFFFFFFFFFFFFFFFFFFFFFFFFFFFFFFFFFFFFFFF AND PUSH1 0x6D PUSH1 0x0 DUP6 PUSH1 0xFF AND PUSH1 0xFF AND DUP2 MSTORE PUSH1 0x20 ADD SWAP1 DUP2 MSTORE PUSH1 0x20 ADD PUSH1 0x0 KECCAK256 PUSH1 0x6E PUSH1 0x0 DUP7 PUSH1 0xFF AND PUSH1 0xFF AND DUP2 MSTORE PUSH1 0x20 ADD SWAP1 DUP2 MSTORE PUSH1 0x20 ADD PUSH1 0x0 KECCAK256 SLOAD DUP2 SLOAD DUP2 LT PUSH2 0x1EDF JUMPI INVALID JUMPDEST SWAP1 PUSH1 0x0 MSTORE PUSH1 0x20 PUSH1 0x0 KECCAK256 ADD PUSH1 0x0 SWAP1 SLOAD SWAP1 PUSH2 0x100 EXP SWAP1 DIV PUSH20 0xFFFFFFFFFFFFFFFFFFFFFFFFFFFFFFFFFFFFFFFF AND PUSH20 0xFFFFFFFFFFFFFFFFFFFFFFFFFFFFFFFFFFFFFFFF AND EQ PUSH2 0x26A2 JUMPI PUSH1 0x0 PUSH1 0x6D PUSH1 0x0 DUP6 PUSH1 0xFF AND PUSH1 0xFF AND DUP2 MSTORE PUSH1 0x20 ADD SWAP1 DUP2 MSTORE PUSH1 0x20 ADD PUSH1 0x0 KECCAK256 PUSH1 0x6E PUSH1 0x0 DUP7 PUSH1 0xFF AND PUSH1 0xFF AND DUP2 MSTORE PUSH1 0x20 ADD SWAP1 DUP2 MSTORE PUSH1 0x20 ADD PUSH1 0x0 KECCAK256 SLOAD DUP2 SLOAD DUP2 LT PUSH2 0x1F64 JUMPI INVALID JUMPDEST SWAP1 PUSH1 0x0 MSTORE PUSH1 0x20 PUSH1 0x0 KECCAK256 ADD PUSH1 0x0 SWAP1 SLOAD SWAP1 PUSH2 0x100 EXP SWAP1 DIV PUSH20 0xFFFFFFFFFFFFFFFFFFFFFFFFFFFFFFFFFFFFFFFF AND SWAP1 POP PUSH1 0x0 DUP2 PUSH20 0xFFFFFFFFFFFFFFFFFFFFFFFFFFFFFFFFFFFFFFFF AND PUSH2 0x8FC DUP5 SWAP1 DUP2 ISZERO MUL SWAP1 PUSH1 0x40 MLOAD PUSH1 0x0 PUSH1 0x40 MLOAD DUP1 DUP4 SUB DUP2 DUP6 DUP9 DUP9 CALL SWAP4 POP POP POP POP SWAP1 POP DUP1 ISZERO PUSH2 0x2322 JUMPI PUSH1 0x0 PUSH1 0x66 PUSH1 0x1 SWAP1 SLOAD SWAP1 PUSH2 0x100 EXP SWAP1 DIV PUSH1 0xFF AND PUSH1 0xFF AND DUP6 MUL SWAP1 POP PUSH2 0x1FF4 DUP4 DUP8 DUP4 PUSH2 0x4760 JUMP JUMPDEST DUP4 PUSH1 0x6B PUSH1 0x0 DUP6 PUSH20 0xFFFFFFFFFFFFFFFFFFFFFFFFFFFFFFFFFFFFFFFF AND PUSH20 0xFFFFFFFFFFFFFFFFFFFFFFFFFFFFFFFFFFFFFFFF AND DUP2 MSTORE PUSH1 0x20 ADD SWAP1 DUP2 MSTORE PUSH1 0x20 ADD PUSH1 0x0 KECCAK256 PUSH1 0x7 ADD PUSH1 0x0 DUP9 PUSH1 0xFF AND PUSH1 0xFF AND DUP2 MSTORE PUSH1 0x20 ADD SWAP1 DUP2 MSTORE PUSH1 0x20 ADD PUSH1 0x0 KECCAK256 PUSH1 0x1 ADD PUSH1 0x0 DUP3 DUP3 SLOAD ADD SWAP3 POP POP DUP2 SWAP1 SSTORE POP PUSH1 0x6B PUSH1 0x0 DUP5 PUSH20 0xFFFFFFFFFFFFFFFFFFFFFFFFFFFFFFFFFFFFFFFF AND PUSH20 0xFFFFFFFFFFFFFFFFFFFFFFFFFFFFFFFFFFFFFFFF AND DUP2 MSTORE PUSH1 0x20 ADD SWAP1 DUP2 MSTORE PUSH1 0x20 ADD PUSH1 0x0 KECCAK256 PUSH1 0x7 ADD PUSH1 0x0 DUP8 PUSH1 0xFF AND PUSH1 0xFF AND DUP2 MSTORE PUSH1 0x20 ADD SWAP1 DUP2 MSTORE PUSH1 0x20 ADD PUSH1 0x0 KECCAK256 PUSH1 0x0 ADD PUSH1 0x4 DUP2 DUP2 SWAP1 SLOAD SWAP1 PUSH2 0x100 EXP SWAP1 DIV PUSH2 0xFFFF AND DUP1 SWAP3 SWAP2 SWAP1 PUSH1 0x1 ADD SWAP2 SWAP1 PUSH2 0x100 EXP DUP2 SLOAD DUP2 PUSH2 0xFFFF MUL NOT AND SWAP1 DUP4 PUSH2 0xFFFF AND MUL OR SWAP1 SSTORE POP POP DUP4 PUSH1 0x6B PUSH1 0x0 DUP6 PUSH20 0xFFFFFFFFFFFFFFFFFFFFFFFFFFFFFFFFFFFFFFFF AND PUSH20 0xFFFFFFFFFFFFFFFFFFFFFFFFFFFFFFFFFFFFFFFF AND DUP2 MSTORE PUSH1 0x20 ADD SWAP1 DUP2 MSTORE PUSH1 0x20 ADD PUSH1 0x0 KECCAK256 PUSH1 0x5 ADD PUSH1 0x0 DUP3 DUP3 SLOAD ADD SWAP3 POP POP DUP2 SWAP1 SSTORE POP DUP4 PUSH1 0x6B PUSH1 0x0 DUP6 PUSH20 0xFFFFFFFFFFFFFFFFFFFFFFFFFFFFFFFFFFFFFFFF AND PUSH20 0xFFFFFFFFFFFFFFFFFFFFFFFFFFFFFFFFFFFFFFFF AND DUP2 MSTORE PUSH1 0x20 ADD SWAP1 DUP2 MSTORE PUSH1 0x20 ADD PUSH1 0x0 KECCAK256 PUSH1 0x9 ADD PUSH1 0x0 DUP3 DUP3 SLOAD ADD SWAP3 POP POP DUP2 SWAP1 SSTORE POP PUSH1 0x6B PUSH1 0x0 DUP5 PUSH20 0xFFFFFFFFFFFFFFFFFFFFFFFFFFFFFFFFFFFFFFFF AND PUSH20 0xFFFFFFFFFFFFFFFFFFFFFFFFFFFFFFFFFFFFFFFF AND DUP2 MSTORE PUSH1 0x20 ADD SWAP1 DUP2 MSTORE PUSH1 0x20 ADD PUSH1 0x0 KECCAK256 PUSH1 0x7 ADD PUSH1 0x0 DUP8 PUSH1 0xFF AND PUSH1 0xFF AND DUP2 MSTORE PUSH1 0x20 ADD SWAP1 DUP2 MSTORE PUSH1 0x20 ADD PUSH1 0x0 KECCAK256 PUSH1 0x3 ADD SLOAD TIMESTAMP SUB PUSH4 0x2EFE0780 DUP2 PUSH2 0x21F8 JUMPI INVALID JUMPDEST DIV PUSH1 0x35 DUP8 PUSH1 0xFF AND PUSH1 0x10 DUP2 LT PUSH2 0x2209 JUMPI INVALID JUMPDEST ADD DUP2 SWAP1 SSTORE POP CALLER PUSH20 0xFFFFFFFFFFFFFFFFFFFFFFFFFFFFFFFFFFFFFFFF AND PUSH32 0xE4183700B5BFCFEAF533B813F60F33FF4A041FA7BF73DB1DD14FBB3EACE4FA35 TIMESTAMP PUSH1 0x6B PUSH1 0x0 DUP8 PUSH20 0xFFFFFFFFFFFFFFFFFFFFFFFFFFFFFFFFFFFFFFFF AND PUSH20 0xFFFFFFFFFFFFFFFFFFFFFFFFFFFFFFFFFFFFFFFF AND DUP2 MSTORE PUSH1 0x20 ADD SWAP1 DUP2 MSTORE PUSH1 0x20 ADD PUSH1 0x0 KECCAK256 PUSH1 0x0 ADD SLOAD DUP10 DUP9 PUSH1 0x6B PUSH1 0x0 CALLER PUSH20 0xFFFFFFFFFFFFFFFFFFFFFFFFFFFFFFFFFFFFFFFF AND PUSH20 0xFFFFFFFFFFFFFFFFFFFFFFFFFFFFFFFFFFFFFFFF AND DUP2 MSTORE PUSH1 0x20 ADD SWAP1 DUP2 MSTORE PUSH1 0x20 ADD PUSH1 0x0 KECCAK256 PUSH1 0x0 ADD SLOAD PUSH1 0x35 DUP14 PUSH1 0xFF AND PUSH1 0x10 DUP2 LT PUSH2 0x22DF JUMPI INVALID JUMPDEST ADD SLOAD PUSH1 0x40 MLOAD DUP1 DUP8 DUP2 MSTORE PUSH1 0x20 ADD DUP7 DUP2 MSTORE PUSH1 0x20 ADD DUP6 PUSH1 0xFF AND DUP2 MSTORE PUSH1 0x20 ADD DUP5 DUP2 MSTORE PUSH1 0x20 ADD DUP4 DUP2 MSTORE PUSH1 0x20 ADD DUP3 DUP2 MSTORE PUSH1 0x20 ADD SWAP7 POP POP POP POP POP POP POP PUSH1 0x40 MLOAD DUP1 SWAP2 SUB SWAP1 LOG2 POP PUSH2 0x238C JUMP JUMPDEST PUSH1 0x66 PUSH1 0x2 SWAP1 SLOAD SWAP1 PUSH2 0x100 EXP SWAP1 DIV PUSH20 0xFFFFFFFFFFFFFFFFFFFFFFFFFFFFFFFFFFFFFFFF AND PUSH20 0xFFFFFFFFFFFFFFFFFFFFFFFFFFFFFFFFFFFFFFFF AND PUSH2 0x8FC DUP5 SWAP1 DUP2 ISZERO MUL SWAP1 PUSH1 0x40 MLOAD PUSH1 0x0 PUSH1 0x40 MLOAD DUP1 DUP4 SUB DUP2 DUP6 DUP9 DUP9 CALL SWAP4 POP POP POP POP ISZERO DUP1 ISZERO PUSH2 0x238A JUMPI RETURNDATASIZE PUSH1 0x0 DUP1 RETURNDATACOPY RETURNDATASIZE PUSH1 0x0 REVERT JUMPDEST POP JUMPDEST PUSH1 0x6B PUSH1 0x0 DUP4 PUSH20 0xFFFFFFFFFFFFFFFFFFFFFFFFFFFFFFFFFFFFFFFF AND PUSH20 0xFFFFFFFFFFFFFFFFFFFFFFFFFFFFFFFFFFFFFFFF AND DUP2 MSTORE PUSH1 0x20 ADD SWAP1 DUP2 MSTORE PUSH1 0x20 ADD PUSH1 0x0 KECCAK256 PUSH1 0x7 ADD PUSH1 0x0 DUP7 PUSH1 0xFF AND PUSH1 0xFF AND DUP2 MSTORE PUSH1 0x20 ADD SWAP1 DUP2 MSTORE PUSH1 0x20 ADD PUSH1 0x0 KECCAK256 PUSH1 0x0 ADD PUSH1 0x2 SWAP1 SLOAD SWAP1 PUSH2 0x100 EXP SWAP1 DIV PUSH2 0xFFFF AND PUSH2 0xFFFF AND PUSH1 0x6B PUSH1 0x0 DUP5 PUSH20 0xFFFFFFFFFFFFFFFFFFFFFFFFFFFFFFFFFFFFFFFF AND PUSH20 0xFFFFFFFFFFFFFFFFFFFFFFFFFFFFFFFFFFFFFFFF AND DUP2 MSTORE PUSH1 0x20 ADD SWAP1 DUP2 MSTORE PUSH1 0x20 ADD PUSH1 0x0 KECCAK256 PUSH1 0x7 ADD PUSH1 0x0 DUP8 PUSH1 0xFF AND PUSH1 0xFF AND DUP2 MSTORE PUSH1 0x20 ADD SWAP1 DUP2 MSTORE PUSH1 0x20 ADD PUSH1 0x0 KECCAK256 PUSH1 0x0 ADD PUSH1 0x4 SWAP1 SLOAD SWAP1 PUSH2 0x100 EXP SWAP1 DIV PUSH2 0xFFFF AND PUSH2 0xFFFF AND LT ISZERO PUSH2 0x24EF JUMPI PUSH1 0x6D PUSH1 0x0 DUP7 PUSH1 0xFF AND PUSH1 0xFF AND DUP2 MSTORE PUSH1 0x20 ADD SWAP1 DUP2 MSTORE PUSH1 0x20 ADD PUSH1 0x0 KECCAK256 DUP3 SWAP1 DUP1 PUSH1 0x1 DUP2 SLOAD ADD DUP1 DUP3 SSTORE DUP1 SWAP2 POP POP PUSH1 0x1 SWAP1 SUB SWAP1 PUSH1 0x0 MSTORE PUSH1 0x20 PUSH1 0x0 KECCAK256 ADD PUSH1 0x0 SWAP1 SWAP2 SWAP1 SWAP2 SWAP1 SWAP2 PUSH2 0x100 EXP DUP2 SLOAD DUP2 PUSH20 0xFFFFFFFFFFFFFFFFFFFFFFFFFFFFFFFFFFFFFFFF MUL NOT AND SWAP1 DUP4 PUSH20 0xFFFFFFFFFFFFFFFFFFFFFFFFFFFFFFFFFFFFFFFF AND MUL OR SWAP1 SSTORE POP PUSH2 0x2608 JUMP JUMPDEST PUSH1 0x0 PUSH1 0x6B PUSH1 0x0 DUP5 PUSH20 0xFFFFFFFFFFFFFFFFFFFFFFFFFFFFFFFFFFFFFFFF AND PUSH20 0xFFFFFFFFFFFFFFFFFFFFFFFFFFFFFFFFFFFFFFFF AND DUP2 MSTORE PUSH1 0x20 ADD SWAP1 DUP2 MSTORE PUSH1 0x20 ADD PUSH1 0x0 KECCAK256 PUSH1 0x7 ADD PUSH1 0x0 DUP8 PUSH1 0xFF AND PUSH1 0xFF AND DUP2 MSTORE PUSH1 0x20 ADD SWAP1 DUP2 MSTORE PUSH1 0x20 ADD PUSH1 0x0 KECCAK256 PUSH1 0x0 ADD PUSH1 0x6 PUSH2 0x100 EXP DUP2 SLOAD DUP2 PUSH1 0xFF MUL NOT AND SWAP1 DUP4 ISZERO ISZERO MUL OR SWAP1 SSTORE POP CALLER PUSH20 0xFFFFFFFFFFFFFFFFFFFFFFFFFFFFFFFFFFFFFFFF AND PUSH32 0x1524BA6DFA482CF4EDA16273D76657DDB7F563B2E8A6C3F294564DE0FFC66211 TIMESTAMP PUSH1 0x6B PUSH1 0x0 DUP7 PUSH20 0xFFFFFFFFFFFFFFFFFFFFFFFFFFFFFFFFFFFFFFFF AND PUSH20 0xFFFFFFFFFFFFFFFFFFFFFFFFFFFFFFFFFFFFFFFF AND DUP2 MSTORE PUSH1 0x20 ADD SWAP1 DUP2 MSTORE PUSH1 0x20 ADD PUSH1 0x0 KECCAK256 PUSH1 0x0 ADD SLOAD DUP9 PUSH1 0x40 MLOAD DUP1 DUP5 DUP2 MSTORE PUSH1 0x20 ADD DUP4 DUP2 MSTORE PUSH1 0x20 ADD DUP3 PUSH1 0xFF AND DUP2 MSTORE PUSH1 0x20 ADD SWAP4 POP POP POP POP PUSH1 0x40 MLOAD DUP1 SWAP2 SUB SWAP1 LOG2 JUMPDEST PUSH1 0x6D PUSH1 0x0 DUP7 PUSH1 0xFF AND PUSH1 0xFF AND DUP2 MSTORE PUSH1 0x20 ADD SWAP1 DUP2 MSTORE PUSH1 0x20 ADD PUSH1 0x0 KECCAK256 PUSH1 0x6E PUSH1 0x0 DUP8 PUSH1 0xFF AND PUSH1 0xFF AND DUP2 MSTORE PUSH1 0x20 ADD SWAP1 DUP2 MSTORE PUSH1 0x20 ADD PUSH1 0x0 KECCAK256 SLOAD DUP2 SLOAD DUP2 LT PUSH2 0x2645 JUMPI INVALID JUMPDEST SWAP1 PUSH1 0x0 MSTORE PUSH1 0x20 PUSH1 0x0 KECCAK256 ADD PUSH1 0x0 PUSH2 0x100 EXP DUP2 SLOAD SWAP1 PUSH20 0xFFFFFFFFFFFFFFFFFFFFFFFFFFFFFFFFFFFFFFFF MUL NOT AND SWAP1 SSTORE PUSH1 0x6E PUSH1 0x0 DUP7 PUSH1 0xFF AND PUSH1 0xFF AND DUP2 MSTORE PUSH1 0x20 ADD SWAP1 DUP2 MSTORE PUSH1 0x20 ADD PUSH1 0x0 KECCAK256 PUSH1 0x0 DUP2 SLOAD DUP1 SWAP3 SWAP2 SWAP1 PUSH1 0x1 ADD SWAP2 SWAP1 POP SSTORE POP POP POP PUSH2 0x28BB JUMP JUMPDEST PUSH1 0x66 PUSH1 0x2 SWAP1 SLOAD SWAP1 PUSH2 0x100 EXP SWAP1 DIV PUSH20 0xFFFFFFFFFFFFFFFFFFFFFFFFFFFFFFFFFFFFFFFF AND PUSH20 0xFFFFFFFFFFFFFFFFFFFFFFFFFFFFFFFFFFFFFFFF AND PUSH2 0x8FC DUP3 SWAP1 DUP2 ISZERO MUL SWAP1 PUSH1 0x40 MLOAD PUSH1 0x0 PUSH1 0x40 MLOAD DUP1 DUP4 SUB DUP2 DUP6 DUP9 DUP9 CALL SWAP4 POP POP POP POP ISZERO DUP1 ISZERO PUSH2 0x270A JUMPI RETURNDATASIZE PUSH1 0x0 DUP1 RETURNDATACOPY RETURNDATASIZE PUSH1 0x0 REVERT JUMPDEST POP PUSH1 0x6B PUSH1 0x0 PUSH1 0x66 PUSH1 0x2 SWAP1 SLOAD SWAP1 PUSH2 0x100 EXP SWAP1 DIV PUSH20 0xFFFFFFFFFFFFFFFFFFFFFFFFFFFFFFFFFFFFFFFF AND PUSH20 0xFFFFFFFFFFFFFFFFFFFFFFFFFFFFFFFFFFFFFFFF AND PUSH20 0xFFFFFFFFFFFFFFFFFFFFFFFFFFFFFFFFFFFFFFFF AND DUP2 MSTORE PUSH1 0x20 ADD SWAP1 DUP2 MSTORE PUSH1 0x20 ADD PUSH1 0x0 KECCAK256 PUSH1 0x7 ADD PUSH1 0x0 DUP5 PUSH1 0xFF AND PUSH1 0xFF AND DUP2 MSTORE PUSH1 0x20 ADD SWAP1 DUP2 MSTORE PUSH1 0x20 ADD PUSH1 0x0 KECCAK256 PUSH1 0x0 ADD PUSH1 0x4 DUP2 DUP2 SWAP1 SLOAD SWAP1 PUSH2 0x100 EXP SWAP1 DIV PUSH2 0xFFFF AND DUP1 SWAP3 SWAP2 SWAP1 PUSH1 0x1 ADD SWAP2 SWAP1 PUSH2 0x100 EXP DUP2 SLOAD DUP2 PUSH2 0xFFFF MUL NOT AND SWAP1 DUP4 PUSH2 0xFFFF AND MUL OR SWAP1 SSTORE POP POP DUP1 PUSH1 0x6B PUSH1 0x0 PUSH1 0x66 PUSH1 0x2 SWAP1 SLOAD SWAP1 PUSH2 0x100 EXP SWAP1 DIV PUSH20 0xFFFFFFFFFFFFFFFFFFFFFFFFFFFFFFFFFFFFFFFF AND PUSH20 0xFFFFFFFFFFFFFFFFFFFFFFFFFFFFFFFFFFFFFFFF AND PUSH20 0xFFFFFFFFFFFFFFFFFFFFFFFFFFFFFFFFFFFFFFFF AND DUP2 MSTORE PUSH1 0x20 ADD SWAP1 DUP2 MSTORE PUSH1 0x20 ADD PUSH1 0x0 KECCAK256 PUSH1 0x7 ADD PUSH1 0x0 DUP6 PUSH1 0xFF AND PUSH1 0xFF AND DUP2 MSTORE PUSH1 0x20 ADD SWAP1 DUP2 MSTORE PUSH1 0x20 ADD PUSH1 0x0 KECCAK256 PUSH1 0x1 ADD PUSH1 0x0 DUP3 DUP3 SLOAD ADD SWAP3 POP POP DUP2 SWAP1 SSTORE POP DUP1 PUSH1 0x6B PUSH1 0x0 PUSH1 0x66 PUSH1 0x2 SWAP1 SLOAD SWAP1 PUSH2 0x100 EXP SWAP1 DIV PUSH20 0xFFFFFFFFFFFFFFFFFFFFFFFFFFFFFFFFFFFFFFFF AND PUSH20 0xFFFFFFFFFFFFFFFFFFFFFFFFFFFFFFFFFFFFFFFF AND PUSH20 0xFFFFFFFFFFFFFFFFFFFFFFFFFFFFFFFFFFFFFFFF AND DUP2 MSTORE PUSH1 0x20 ADD SWAP1 DUP2 MSTORE PUSH1 0x20 ADD PUSH1 0x0 KECCAK256 PUSH1 0x5 ADD PUSH1 0x0 DUP3 DUP3 SLOAD ADD SWAP3 POP POP DUP2 SWAP1 SSTORE POP JUMPDEST PUSH1 0x0 PUSH1 0x66 PUSH1 0x0 SWAP1 SLOAD SWAP1 PUSH2 0x100 EXP SWAP1 DIV PUSH1 0xFF AND PUSH1 0xFF AND DUP4 MUL SWAP1 POP PUSH2 0x28DF CALLER DUP6 DUP4 PUSH2 0x4C6E JUMP JUMPDEST PUSH1 0x0 PUSH1 0x67 PUSH1 0x0 SWAP1 SLOAD SWAP1 PUSH2 0x100 EXP SWAP1 DIV PUSH20 0xFFFFFFFFFFFFFFFFFFFFFFFFFFFFFFFFFFFFFFFF AND PUSH20 0xFFFFFFFFFFFFFFFFFFFFFFFFFFFFFFFFFFFFFFFF AND PUSH1 0x7 PUSH1 0xFF AND DUP6 MUL PUSH1 0x40 MLOAD DUP1 PUSH1 0x0 ADD SWAP1 POP PUSH1 0x0 PUSH1 0x40 MLOAD DUP1 DUP4 SUB DUP2 DUP6 DUP8 GAS CALL SWAP3 POP POP POP RETURNDATASIZE DUP1 PUSH1 0x0 DUP2 EQ PUSH2 0x2967 JUMPI PUSH1 0x40 MLOAD SWAP2 POP PUSH1 0x1F NOT PUSH1 0x3F RETURNDATASIZE ADD AND DUP3 ADD PUSH1 0x40 MSTORE RETURNDATASIZE DUP3 MSTORE RETURNDATASIZE PUSH1 0x0 PUSH1 0x20 DUP5 ADD RETURNDATACOPY PUSH2 0x296C JUMP JUMPDEST PUSH1 0x60 SWAP2 POP JUMPDEST POP POP SWAP1 POP DUP1 PUSH2 0x29E3 JUMPI PUSH1 0x40 MLOAD PUSH32 0x8C379A000000000000000000000000000000000000000000000000000000000 DUP2 MSTORE PUSH1 0x4 ADD DUP1 DUP1 PUSH1 0x20 ADD DUP3 DUP2 SUB DUP3 MSTORE PUSH1 0x1F DUP2 MSTORE PUSH1 0x20 ADD DUP1 PUSH32 0x7472616E73666572206661696C6564207768696C652062757920726F756E6400 DUP2 MSTORE POP PUSH1 0x20 ADD SWAP2 POP POP PUSH1 0x40 MLOAD DUP1 SWAP2 SUB SWAP1 REVERT JUMPDEST POP POP POP POP PUSH1 0x1 PUSH1 0x0 DUP2 SWAP1 SSTORE POP POP JUMP JUMPDEST PUSH1 0x60 PUSH1 0x68 DUP1 SLOAD DUP1 PUSH1 0x20 MUL PUSH1 0x20 ADD PUSH1 0x40 MLOAD SWAP1 DUP2 ADD PUSH1 0x40 MSTORE DUP1 SWAP3 SWAP2 SWAP1 DUP2 DUP2 MSTORE PUSH1 0x20 ADD DUP3 DUP1 SLOAD DUP1 ISZERO PUSH2 0x2A40 JUMPI PUSH1 0x20 MUL DUP3 ADD SWAP2 SWAP1 PUSH1 0x0 MSTORE PUSH1 0x20 PUSH1 0x0 KECCAK256 SWAP1 JUMPDEST DUP2 SLOAD DUP2 MSTORE PUSH1 0x20 ADD SWAP1 PUSH1 0x1 ADD SWAP1 DUP1 DUP4 GT PUSH2 0x2A2C JUMPI JUMPDEST POP POP POP POP POP SWAP1 POP SWAP1 JUMP JUMPDEST PUSH1 0x0 DUP1 DUP3 EXTCODESIZE SWAP1 POP PUSH1 0x0 DUP2 PUSH4 0xFFFFFFFF AND EQ ISZERO SWAP2 POP POP SWAP2 SWAP1 POP JUMP JUMPDEST PUSH1 0x1 DUP2 PUSH1 0x32 DUP2 LT PUSH2 0x2A71 JUMPI INVALID JUMPDEST ADD PUSH1 0x0 SWAP2 POP SLOAD SWAP1 PUSH2 0x100 EXP SWAP1 DIV PUSH20 0xFFFFFFFFFFFFFFFFFFFFFFFFFFFFFFFFFFFFFFFF AND DUP2 JUMP JUMPDEST PUSH1 0x0 DUP2 JUMP JUMPDEST PUSH1 0x60 DUP1 PUSH1 0x60 DUP1 PUSH1 0x60 DUP1 PUSH1 0x60 PUSH1 0x1 PUSH1 0x69 SLOAD ADD PUSH8 0xFFFFFFFFFFFFFFFF DUP2 GT DUP1 ISZERO PUSH2 0x2AC3 JUMPI PUSH1 0x0 DUP1 REVERT JUMPDEST POP PUSH1 0x40 MLOAD SWAP1 DUP1 DUP3 MSTORE DUP1 PUSH1 0x20 MUL PUSH1 0x20 ADD DUP3 ADD PUSH1 0x40 MSTORE DUP1 ISZERO PUSH2 0x2AF2 JUMPI DUP2 PUSH1 0x20 ADD PUSH1 0x20 DUP3 MUL DUP1 CALLDATASIZE DUP4 CALLDATACOPY DUP1 DUP3 ADD SWAP2 POP POP SWAP1 POP JUMPDEST POP SWAP1 POP PUSH1 0x60 PUSH1 0x1 PUSH1 0x69 SLOAD ADD PUSH8 0xFFFFFFFFFFFFFFFF DUP2 GT DUP1 ISZERO PUSH2 0x2B13 JUMPI PUSH1 0x0 DUP1 REVERT JUMPDEST POP PUSH1 0x40 MLOAD SWAP1 DUP1 DUP3 MSTORE DUP1 PUSH1 0x20 MUL PUSH1 0x20 ADD DUP3 ADD PUSH1 0x40 MSTORE DUP1 ISZERO PUSH2 0x2B42 JUMPI DUP2 PUSH1 0x20 ADD PUSH1 0x20 DUP3 MUL DUP1 CALLDATASIZE DUP4 CALLDATACOPY DUP1 DUP3 ADD SWAP2 POP POP SWAP1 POP JUMPDEST POP SWAP1 POP PUSH1 0x60 PUSH1 0x1 PUSH1 0x69 SLOAD ADD PUSH8 0xFFFFFFFFFFFFFFFF DUP2 GT DUP1 ISZERO PUSH2 0x2B63 JUMPI PUSH1 0x0 DUP1 REVERT JUMPDEST POP PUSH1 0x40 MLOAD SWAP1 DUP1 DUP3 MSTORE DUP1 PUSH1 0x20 MUL PUSH1 0x20 ADD DUP3 ADD PUSH1 0x40 MSTORE DUP1 ISZERO PUSH2 0x2B92 JUMPI DUP2 PUSH1 0x20 ADD PUSH1 0x20 DUP3 MUL DUP1 CALLDATASIZE DUP4 CALLDATACOPY DUP1 DUP3 ADD SWAP2 POP POP SWAP1 POP JUMPDEST POP SWAP1 POP PUSH1 0x60 PUSH1 0x1 PUSH1 0x69 SLOAD ADD PUSH8 0xFFFFFFFFFFFFFFFF DUP2 GT DUP1 ISZERO PUSH2 0x2BB3 JUMPI PUSH1 0x0 DUP1 REVERT JUMPDEST POP PUSH1 0x40 MLOAD SWAP1 DUP1 DUP3 MSTORE DUP1 PUSH1 0x20 MUL PUSH1 0x20 ADD DUP3 ADD PUSH1 0x40 MSTORE DUP1 ISZERO PUSH2 0x2BE2 JUMPI DUP2 PUSH1 0x20 ADD PUSH1 0x20 DUP3 MUL DUP1 CALLDATASIZE DUP4 CALLDATACOPY DUP1 DUP3 ADD SWAP2 POP POP SWAP1 POP JUMPDEST POP SWAP1 POP PUSH1 0x60 PUSH1 0x1 PUSH1 0x69 SLOAD ADD PUSH8 0xFFFFFFFFFFFFFFFF DUP2 GT DUP1 ISZERO PUSH2 0x2C03 JUMPI PUSH1 0x0 DUP1 REVERT JUMPDEST POP PUSH1 0x40 MLOAD SWAP1 DUP1 DUP3 MSTORE DUP1 PUSH1 0x20 MUL PUSH1 0x20 ADD DUP3 ADD PUSH1 0x40 MSTORE DUP1 ISZERO PUSH2 0x2C32 JUMPI DUP2 PUSH1 0x20 ADD PUSH1 0x20 DUP3 MUL DUP1 CALLDATASIZE DUP4 CALLDATACOPY DUP1 DUP3 ADD SWAP2 POP POP SWAP1 POP JUMPDEST POP SWAP1 POP PUSH1 0x60 PUSH1 0x1 PUSH1 0x69 SLOAD ADD PUSH8 0xFFFFFFFFFFFFFFFF DUP2 GT DUP1 ISZERO PUSH2 0x2C53 JUMPI PUSH1 0x0 DUP1 REVERT JUMPDEST POP PUSH1 0x40 MLOAD SWAP1 DUP1 DUP3 MSTORE DUP1 PUSH1 0x20 MUL PUSH1 0x20 ADD DUP3 ADD PUSH1 0x40 MSTORE DUP1 ISZERO PUSH2 0x2C82 JUMPI DUP2 PUSH1 0x20 ADD PUSH1 0x20 DUP3 MUL DUP1 CALLDATASIZE DUP4 CALLDATACOPY DUP1 DUP3 ADD SWAP2 POP POP SWAP1 POP JUMPDEST POP SWAP1 POP PUSH1 0x0 PUSH1 0x1 SWAP1 POP JUMPDEST PUSH1 0x69 SLOAD DUP2 PUSH1 0xFF AND GT PUSH2 0x2FD0 JUMPI PUSH1 0x6B PUSH1 0x0 DUP16 PUSH20 0xFFFFFFFFFFFFFFFFFFFFFFFFFFFFFFFFFFFFFFFF AND PUSH20 0xFFFFFFFFFFFFFFFFFFFFFFFFFFFFFFFFFFFFFFFF AND DUP2 MSTORE PUSH1 0x20 ADD SWAP1 DUP2 MSTORE PUSH1 0x20 ADD PUSH1 0x0 KECCAK256 PUSH1 0x7 ADD PUSH1 0x0 DUP3 PUSH1 0xFF AND PUSH1 0xFF AND DUP2 MSTORE PUSH1 0x20 ADD SWAP1 DUP2 MSTORE PUSH1 0x20 ADD PUSH1 0x0 KECCAK256 PUSH1 0x0 ADD PUSH1 0x6 SWAP1 SLOAD SWAP1 PUSH2 0x100 EXP SWAP1 DIV PUSH1 0xFF AND DUP8 DUP3 PUSH1 0xFF AND DUP2 MLOAD DUP2 LT PUSH2 0x2D11 JUMPI INVALID JUMPDEST PUSH1 0x20 MUL PUSH1 0x20 ADD ADD SWAP1 ISZERO ISZERO SWAP1 DUP2 ISZERO ISZERO DUP2 MSTORE POP POP PUSH1 0x6B PUSH1 0x0 DUP16 PUSH20 0xFFFFFFFFFFFFFFFFFFFFFFFFFFFFFFFFFFFFFFFF AND PUSH20 0xFFFFFFFFFFFFFFFFFFFFFFFFFFFFFFFFFFFFFFFF AND DUP2 MSTORE PUSH1 0x20 ADD SWAP1 DUP2 MSTORE PUSH1 0x20 ADD PUSH1 0x0 KECCAK256 PUSH1 0x7 ADD PUSH1 0x0 DUP3 PUSH1 0xFF AND PUSH1 0xFF AND DUP2 MSTORE PUSH1 0x20 ADD SWAP1 DUP2 MSTORE PUSH1 0x20 ADD PUSH1 0x0 KECCAK256 PUSH1 0x0 ADD PUSH1 0x4 SWAP1 SLOAD SWAP1 PUSH2 0x100 EXP SWAP1 DIV PUSH2 0xFFFF AND DUP7 DUP3 PUSH1 0xFF AND DUP2 MLOAD DUP2 LT PUSH2 0x2D9D JUMPI INVALID JUMPDEST PUSH1 0x20 MUL PUSH1 0x20 ADD ADD SWAP1 PUSH2 0xFFFF AND SWAP1 DUP2 PUSH2 0xFFFF AND DUP2 MSTORE POP POP PUSH1 0x6B PUSH1 0x0 DUP16 PUSH20 0xFFFFFFFFFFFFFFFFFFFFFFFFFFFFFFFFFFFFFFFF AND PUSH20 0xFFFFFFFFFFFFFFFFFFFFFFFFFFFFFFFFFFFFFFFF AND DUP2 MSTORE PUSH1 0x20 ADD SWAP1 DUP2 MSTORE PUSH1 0x20 ADD PUSH1 0x0 KECCAK256 PUSH1 0x7 ADD PUSH1 0x0 DUP3 PUSH1 0xFF AND PUSH1 0xFF AND DUP2 MSTORE PUSH1 0x20 ADD SWAP1 DUP2 MSTORE PUSH1 0x20 ADD PUSH1 0x0 KECCAK256 PUSH1 0x0 ADD PUSH1 0x2 SWAP1 SLOAD SWAP1 PUSH2 0x100 EXP SWAP1 DIV PUSH2 0xFFFF AND DUP6 DUP3 PUSH1 0xFF AND DUP2 MLOAD DUP2 LT PUSH2 0x2E2D JUMPI INVALID JUMPDEST PUSH1 0x20 MUL PUSH1 0x20 ADD ADD SWAP1 PUSH2 0xFFFF AND SWAP1 DUP2 PUSH2 0xFFFF AND DUP2 MSTORE POP POP PUSH1 0x6B PUSH1 0x0 DUP16 PUSH20 0xFFFFFFFFFFFFFFFFFFFFFFFFFFFFFFFFFFFFFFFF AND PUSH20 0xFFFFFFFFFFFFFFFFFFFFFFFFFFFFFFFFFFFFFFFF AND DUP2 MSTORE PUSH1 0x20 ADD SWAP1 DUP2 MSTORE PUSH1 0x20 ADD PUSH1 0x0 KECCAK256 PUSH1 0x7 ADD PUSH1 0x0 DUP3 PUSH1 0xFF AND PUSH1 0xFF AND DUP2 MSTORE PUSH1 0x20 ADD SWAP1 DUP2 MSTORE PUSH1 0x20 ADD PUSH1 0x0 KECCAK256 PUSH1 0x0 ADD PUSH1 0x0 SWAP1 SLOAD SWAP1 PUSH2 0x100 EXP SWAP1 DIV PUSH2 0xFFFF AND DUP5 DUP3 PUSH1 0xFF AND DUP2 MLOAD DUP2 LT PUSH2 0x2EBD JUMPI INVALID JUMPDEST PUSH1 0x20 MUL PUSH1 0x20 ADD ADD SWAP1 PUSH2 0xFFFF AND SWAP1 DUP2 PUSH2 0xFFFF AND DUP2 MSTORE POP POP PUSH1 0x6B PUSH1 0x0 DUP16 PUSH20 0xFFFFFFFFFFFFFFFFFFFFFFFFFFFFFFFFFFFFFFFF AND PUSH20 0xFFFFFFFFFFFFFFFFFFFFFFFFFFFFFFFFFFFFFFFF AND DUP2 MSTORE PUSH1 0x20 ADD SWAP1 DUP2 MSTORE PUSH1 0x20 ADD PUSH1 0x0 KECCAK256 PUSH1 0x7 ADD PUSH1 0x0 DUP3 PUSH1 0xFF AND PUSH1 0xFF AND DUP2 MSTORE PUSH1 0x20 ADD SWAP1 DUP2 MSTORE PUSH1 0x20 ADD PUSH1 0x0 KECCAK256 PUSH1 0x1 ADD SLOAD DUP4 DUP3 PUSH1 0xFF AND DUP2 MLOAD DUP2 LT PUSH2 0x2F3F JUMPI INVALID JUMPDEST PUSH1 0x20 MUL PUSH1 0x20 ADD ADD DUP2 DUP2 MSTORE POP POP PUSH1 0x6B PUSH1 0x0 DUP16 PUSH20 0xFFFFFFFFFFFFFFFFFFFFFFFFFFFFFFFFFFFFFFFF AND PUSH20 0xFFFFFFFFFFFFFFFFFFFFFFFFFFFFFFFFFFFFFFFF AND DUP2 MSTORE PUSH1 0x20 ADD SWAP1 DUP2 MSTORE PUSH1 0x20 ADD PUSH1 0x0 KECCAK256 PUSH1 0x7 ADD PUSH1 0x0 DUP3 PUSH1 0xFF AND PUSH1 0xFF AND DUP2 MSTORE PUSH1 0x20 ADD SWAP1 DUP2 MSTORE PUSH1 0x20 ADD PUSH1 0x0 KECCAK256 PUSH1 0x2 ADD SLOAD DUP3 DUP3 PUSH1 0xFF AND DUP2 MLOAD DUP2 LT PUSH2 0x2FB7 JUMPI INVALID JUMPDEST PUSH1 0x20 MUL PUSH1 0x20 ADD ADD DUP2 DUP2 MSTORE POP POP DUP1 DUP1 PUSH1 0x1 ADD SWAP2 POP POP PUSH2 0x2C8C JUMP JUMPDEST POP DUP6 DUP6 DUP6 DUP6 DUP6 DUP6 SWAP12 POP SWAP12 POP SWAP12 POP SWAP12 POP SWAP12 POP SWAP12 POP POP POP POP POP POP POP SWAP2 SWAP4 SWAP6 POP SWAP2 SWAP4 SWAP6 JUMP JUMPDEST PUSH1 0x55 DUP2 PUSH1 0x10 DUP2 LT PUSH2 0x2FFF JUMPI INVALID JUMPDEST ADD PUSH1 0x0 SWAP2 POP SLOAD SWAP1 PUSH2 0x100 EXP SWAP1 DIV PUSH20 0xFFFFFFFFFFFFFFFFFFFFFFFFFFFFFFFFFFFFFFFF AND DUP2 JUMP JUMPDEST PUSH2 0x302D PUSH2 0x517C JUMP JUMPDEST PUSH1 0x40 MLOAD DUP1 PUSH1 0xA0 ADD PUSH1 0x40 MSTORE DUP1 PUSH1 0x6F PUSH1 0x0 ADD SLOAD DUP2 MSTORE PUSH1 0x20 ADD PUSH1 0x6F PUSH1 0x1 ADD SLOAD DUP2 MSTORE PUSH1 0x20 ADD PUSH1 0x6F PUSH1 0x2 ADD SLOAD DUP2 MSTORE PUSH1 0x20 ADD PUSH1 0x33 SLOAD DUP2 MSTORE PUSH1 0x20 ADD PUSH1 0x34 SLOAD DUP2 MSTORE POP SWAP1 POP SWAP1 JUMP JUMPDEST PUSH1 0x2 DUP2 JUMP JUMPDEST PUSH1 0x67 PUSH1 0x0 SWAP1 SLOAD SWAP1 PUSH2 0x100 EXP SWAP1 DIV PUSH20 0xFFFFFFFFFFFFFFFFFFFFFFFFFFFFFFFFFFFFFFFF AND DUP2 JUMP JUMPDEST PUSH2 0x309F PUSH2 0x519E JUMP JUMPDEST PUSH1 0x45 PUSH1 0x10 DUP1 PUSH1 0x20 MUL PUSH1 0x40 MLOAD SWAP1 DUP2 ADD PUSH1 0x40 MSTORE DUP1 SWAP3 SWAP2 SWAP1 DUP3 PUSH1 0x10 DUP1 ISZERO PUSH2 0x30D8 JUMPI PUSH1 0x20 MUL DUP3 ADD SWAP2 JUMPDEST DUP2 SLOAD DUP2 MSTORE PUSH1 0x20 ADD SWAP1 PUSH1 0x1 ADD SWAP1 DUP1 DUP4 GT PUSH2 0x30C4 JUMPI JUMPDEST POP POP POP POP POP SWAP1 POP SWAP1 JUMP JUMPDEST PUSH1 0x0 DUP1 PUSH1 0x0 PUSH1 0x1 SWAP1 POP JUMPDEST PUSH1 0x69 SLOAD DUP2 PUSH1 0xFF AND GT PUSH2 0x3124 JUMPI PUSH1 0x68 DUP2 PUSH1 0xFF AND DUP2 SLOAD DUP2 LT PUSH2 0x3108 JUMPI INVALID JUMPDEST SWAP1 PUSH1 0x0 MSTORE PUSH1 0x20 PUSH1 0x0 KECCAK256 ADD SLOAD DUP3 ADD SWAP2 POP DUP1 DUP1 PUSH1 0x1 ADD SWAP2 POP POP PUSH2 0x30EC JUMP JUMPDEST POP PUSH1 0x68 DUP4 PUSH1 0xFF AND DUP2 SLOAD DUP2 LT PUSH2 0x3135 JUMPI INVALID JUMPDEST SWAP1 PUSH1 0x0 MSTORE PUSH1 0x20 PUSH1 0x0 KECCAK256 ADD SLOAD DUP2 SELFBALANCE DUP2 PUSH2 0x3149 JUMPI INVALID JUMPDEST DIV MUL SWAP2 POP POP SWAP2 SWAP1 POP JUMP JUMPDEST PUSH1 0x0 PUSH1 0x6B PUSH1 0x0 DUP4 PUSH20 0xFFFFFFFFFFFFFFFFFFFFFFFFFFFFFFFFFFFFFFFF AND PUSH20 0xFFFFFFFFFFFFFFFFFFFFFFFFFFFFFFFFFFFFFFFF AND DUP2 MSTORE PUSH1 0x20 ADD SWAP1 DUP2 MSTORE PUSH1 0x20 ADD PUSH1 0x0 KECCAK256 PUSH1 0x0 ADD SLOAD SWAP1 POP SWAP2 SWAP1 POP JUMP JUMPDEST PUSH1 0x0 PUSH2 0x31AA DUP3 PUSH2 0x11D6 JUMP JUMPDEST PUSH2 0x321C JUMPI PUSH1 0x40 MLOAD PUSH32 0x8C379A000000000000000000000000000000000000000000000000000000000 DUP2 MSTORE PUSH1 0x4 ADD DUP1 DUP1 PUSH1 0x20 ADD DUP3 DUP2 SUB DUP3 MSTORE PUSH1 0x16 DUP2 MSTORE PUSH1 0x20 ADD DUP1 PUSH32 0x55736572206973206E6F74207265676973746572656400000000000000000000 DUP2 MSTORE POP PUSH1 0x20 ADD SWAP2 POP POP PUSH1 0x40 MLOAD DUP1 SWAP2 SUB SWAP1 REVERT JUMPDEST PUSH1 0x6B PUSH1 0x0 DUP4 PUSH20 0xFFFFFFFFFFFFFFFFFFFFFFFFFFFFFFFFFFFFFFFF AND PUSH20 0xFFFFFFFFFFFFFFFFFFFFFFFFFFFFFFFFFFFFFFFF AND DUP2 MSTORE PUSH1 0x20 ADD SWAP1 DUP2 MSTORE PUSH1 0x20 ADD PUSH1 0x0 KECCAK256 PUSH1 0x2 ADD PUSH1 0x0 SWAP1 SLOAD SWAP1 PUSH2 0x100 EXP SWAP1 DIV PUSH20 0xFFFFFFFFFFFFFFFFFFFFFFFFFFFFFFFFFFFFFFFF AND SWAP1 POP SWAP2 SWAP1 POP JUMP JUMPDEST PUSH1 0x66 PUSH1 0x0 SWAP1 SLOAD SWAP1 PUSH2 0x100 EXP SWAP1 DIV PUSH1 0xFF AND DUP2 JUMP JUMPDEST PUSH1 0x60 DUP1 PUSH1 0x60 PUSH1 0x1 PUSH1 0x69 SLOAD ADD PUSH8 0xFFFFFFFFFFFFFFFF DUP2 GT DUP1 ISZERO PUSH2 0x32BA JUMPI PUSH1 0x0 DUP1 REVERT JUMPDEST POP PUSH1 0x40 MLOAD SWAP1 DUP1 DUP3 MSTORE DUP1 PUSH1 0x20 MUL PUSH1 0x20 ADD DUP3 ADD PUSH1 0x40 MSTORE DUP1 ISZERO PUSH2 0x32E9 JUMPI DUP2 PUSH1 0x20 ADD PUSH1 0x20 DUP3 MUL DUP1 CALLDATASIZE DUP4 CALLDATACOPY DUP1 DUP3 ADD SWAP2 POP POP SWAP1 POP JUMPDEST POP SWAP1 POP PUSH1 0x60 PUSH1 0x1 PUSH1 0x69 SLOAD ADD PUSH8 0xFFFFFFFFFFFFFFFF DUP2 GT DUP1 ISZERO PUSH2 0x330A JUMPI PUSH1 0x0 DUP1 REVERT JUMPDEST POP PUSH1 0x40 MLOAD SWAP1 DUP1 DUP3 MSTORE DUP1 PUSH1 0x20 MUL PUSH1 0x20 ADD DUP3 ADD PUSH1 0x40 MSTORE DUP1 ISZERO PUSH2 0x3339 JUMPI DUP2 PUSH1 0x20 ADD PUSH1 0x20 DUP3 MUL DUP1 CALLDATASIZE DUP4 CALLDATACOPY DUP1 DUP3 ADD SWAP2 POP POP SWAP1 POP JUMPDEST POP SWAP1 POP PUSH1 0x0 PUSH1 0x1 SWAP1 POP JUMPDEST PUSH1 0x69 SLOAD DUP2 PUSH1 0xFF AND GT PUSH2 0x344C JUMPI PUSH1 0x6B PUSH1 0x0 DUP8 PUSH20 0xFFFFFFFFFFFFFFFFFFFFFFFFFFFFFFFFFFFFFFFF AND PUSH20 0xFFFFFFFFFFFFFFFFFFFFFFFFFFFFFFFFFFFFFFFF AND DUP2 MSTORE PUSH1 0x20 ADD SWAP1 DUP2 MSTORE PUSH1 0x20 ADD PUSH1 0x0 KECCAK256 PUSH1 0x7 ADD PUSH1 0x0 DUP3 PUSH1 0xFF AND PUSH1 0xFF AND DUP2 MSTORE PUSH1 0x20 ADD SWAP1 DUP2 MSTORE PUSH1 0x20 ADD PUSH1 0x0 KECCAK256 PUSH1 0x4 ADD SLOAD DUP4 DUP3 PUSH1 0xFF AND DUP2 MLOAD DUP2 LT PUSH2 0x33BB JUMPI INVALID JUMPDEST PUSH1 0x20 MUL PUSH1 0x20 ADD ADD DUP2 DUP2 MSTORE POP POP PUSH1 0x6B PUSH1 0x0 DUP8 PUSH20 0xFFFFFFFFFFFFFFFFFFFFFFFFFFFFFFFFFFFFFFFF AND PUSH20 0xFFFFFFFFFFFFFFFFFFFFFFFFFFFFFFFFFFFFFFFF AND DUP2 MSTORE PUSH1 0x20 ADD SWAP1 DUP2 MSTORE PUSH1 0x20 ADD PUSH1 0x0 KECCAK256 PUSH1 0x7 ADD PUSH1 0x0 DUP3 PUSH1 0xFF AND PUSH1 0xFF AND DUP2 MSTORE PUSH1 0x20 ADD SWAP1 DUP2 MSTORE PUSH1 0x20 ADD PUSH1 0x0 KECCAK256 PUSH1 0x5 ADD SLOAD DUP3 DUP3 PUSH1 0xFF AND DUP2 MLOAD DUP2 LT PUSH2 0x3433 JUMPI INVALID JUMPDEST PUSH1 0x20 MUL PUSH1 0x20 ADD ADD DUP2 DUP2 MSTORE POP POP DUP1 DUP1 PUSH1 0x1 ADD SWAP2 POP POP PUSH2 0x3343 JUMP JUMPDEST POP DUP2 DUP2 SWAP4 POP SWAP4 POP POP POP SWAP2 POP SWAP2 JUMP JUMPDEST PUSH1 0x45 DUP2 PUSH1 0x10 DUP2 LT PUSH2 0x3467 JUMPI INVALID JUMPDEST ADD PUSH1 0x0 SWAP2 POP SWAP1 POP SLOAD DUP2 JUMP JUMPDEST PUSH1 0x68 DUP2 DUP2 SLOAD DUP2 LT PUSH2 0x347F JUMPI INVALID JUMPDEST SWAP1 PUSH1 0x0 MSTORE PUSH1 0x20 PUSH1 0x0 KECCAK256 ADD PUSH1 0x0 SWAP2 POP SWAP1 POP SLOAD DUP2 JUMP JUMPDEST PUSH1 0x35 DUP2 PUSH1 0x10 DUP2 LT PUSH2 0x34A0 JUMPI INVALID JUMPDEST ADD PUSH1 0x0 SWAP2 POP SWAP1 POP SLOAD DUP2 JUMP JUMPDEST PUSH1 0x0 DUP1 PUSH1 0x0 DUP1 PUSH1 0x0 DUP1 PUSH1 0x0 DUP1 PUSH1 0x0 DUP1 PUSH2 0x34C2 PUSH2 0x51C1 JUMP JUMPDEST PUSH1 0x6B PUSH1 0x0 DUP14 PUSH20 0xFFFFFFFFFFFFFFFFFFFFFFFFFFFFFFFFFFFFFFFF AND PUSH20 0xFFFFFFFFFFFFFFFFFFFFFFFFFFFFFFFFFFFFFFFF AND DUP2 MSTORE PUSH1 0x20 ADD SWAP1 DUP2 MSTORE PUSH1 0x20 ADD PUSH1 0x0 KECCAK256 PUSH1 0x40 MLOAD DUP1 PUSH2 0x120 ADD PUSH1 0x40 MSTORE SWAP1 DUP2 PUSH1 0x0 DUP3 ADD SLOAD DUP2 MSTORE PUSH1 0x20 ADD PUSH1 0x1 DUP3 ADD SLOAD DUP2 MSTORE PUSH1 0x20 ADD PUSH1 0x2 DUP3 ADD PUSH1 0x0 SWAP1 SLOAD SWAP1 PUSH2 0x100 EXP SWAP1 DIV PUSH20 0xFFFFFFFFFFFFFFFFFFFFFFFFFFFFFFFFFFFFFFFF AND PUSH20 0xFFFFFFFFFFFFFFFFFFFFFFFFFFFFFFFFFFFFFFFF AND PUSH20 0xFFFFFFFFFFFFFFFFFFFFFFFFFFFFFFFFFFFFFFFF AND DUP2 MSTORE PUSH1 0x20 ADD PUSH1 0x3 DUP3 ADD SLOAD DUP2 MSTORE PUSH1 0x20 ADD PUSH1 0x4 DUP3 ADD SLOAD DUP2 MSTORE PUSH1 0x20 ADD PUSH1 0x5 DUP3 ADD SLOAD DUP2 MSTORE PUSH1 0x20 ADD PUSH1 0x6 DUP3 ADD SLOAD DUP2 MSTORE PUSH1 0x20 ADD PUSH1 0x8 DUP3 ADD PUSH1 0x0 SWAP1 SLOAD SWAP1 PUSH2 0x100 EXP SWAP1 DIV PUSH1 0xFF AND PUSH1 0xFF AND PUSH1 0xFF AND DUP2 MSTORE PUSH1 0x20 ADD PUSH1 0x9 DUP3 ADD SLOAD DUP2 MSTORE POP POP SWAP1 POP DUP1 PUSH1 0x0 ADD MLOAD DUP2 PUSH1 0x20 ADD MLOAD PUSH1 0x6B PUSH1 0x0 DUP5 PUSH1 0x40 ADD MLOAD PUSH20 0xFFFFFFFFFFFFFFFFFFFFFFFFFFFFFFFFFFFFFFFF AND PUSH20 0xFFFFFFFFFFFFFFFFFFFFFFFFFFFFFFFFFFFFFFFF AND DUP2 MSTORE PUSH1 0x20 ADD SWAP1 DUP2 MSTORE PUSH1 0x20 ADD PUSH1 0x0 KECCAK256 PUSH1 0x0 ADD SLOAD DUP4 PUSH1 0x40 ADD MLOAD DUP5 PUSH1 0x60 ADD MLOAD DUP6 PUSH1 0x80 ADD MLOAD DUP7 PUSH1 0xA0 ADD MLOAD DUP8 PUSH1 0xC0 ADD MLOAD DUP9 PUSH1 0xE0 ADD MLOAD DUP10 PUSH2 0x100 ADD MLOAD DUP2 PUSH1 0xFF AND SWAP2 POP SWAP11 POP SWAP11 POP SWAP11 POP SWAP11 POP SWAP11 POP SWAP11 POP SWAP11 POP SWAP11 POP SWAP11 POP SWAP11 POP POP SWAP2 SWAP4 SWAP6 SWAP8 SWAP10 POP SWAP2 SWAP4 SWAP6 SWAP8 SWAP10 JUMP JUMPDEST PUSH1 0x0 SELFBALANCE SWAP1 POP SWAP1 JUMP JUMPDEST PUSH1 0x34 SLOAD DUP2 JUMP JUMPDEST JUMP JUMPDEST PUSH1 0x0 PUSH1 0x6C PUSH1 0x0 DUP4 DUP2 MSTORE PUSH1 0x20 ADD SWAP1 DUP2 MSTORE PUSH1 0x20 ADD PUSH1 0x0 KECCAK256 PUSH1 0x0 SWAP1 SLOAD SWAP1 PUSH2 0x100 EXP SWAP1 DIV PUSH20 0xFFFFFFFFFFFFFFFFFFFFFFFFFFFFFFFFFFFFFFFF AND SWAP1 POP SWAP2 SWAP1 POP JUMP JUMPDEST PUSH2 0x36BA PUSH2 0x5226 JUMP JUMPDEST PUSH1 0x1 PUSH1 0x32 DUP1 PUSH1 0x20 MUL PUSH1 0x40 MLOAD SWAP1 DUP2 ADD PUSH1 0x40 MSTORE DUP1 SWAP3 SWAP2 SWAP1 DUP3 PUSH1 0x32 DUP1 ISZERO PUSH2 0x3729 JUMPI PUSH1 0x20 MUL DUP3 ADD SWAP2 JUMPDEST DUP2 PUSH1 0x0 SWAP1 SLOAD SWAP1 PUSH2 0x100 EXP SWAP1 DIV PUSH20 0xFFFFFFFFFFFFFFFFFFFFFFFFFFFFFFFFFFFFFFFF AND PUSH20 0xFFFFFFFFFFFFFFFFFFFFFFFFFFFFFFFFFFFFFFFF AND DUP2 MSTORE PUSH1 0x20 ADD SWAP1 PUSH1 0x1 ADD SWAP1 DUP1 DUP4 GT PUSH2 0x36DF JUMPI JUMPDEST POP POP POP POP POP SWAP1 POP SWAP1 JUMP JUMPDEST PUSH1 0x66 PUSH1 0x2 SWAP1 SLOAD SWAP1 PUSH2 0x100 EXP SWAP1 DIV PUSH20 0xFFFFFFFFFFFFFFFFFFFFFFFFFFFFFFFFFFFFFFFF AND DUP2 JUMP JUMPDEST PUSH1 0x66 PUSH1 0x2 SWAP1 SLOAD SWAP1 PUSH2 0x100 EXP SWAP1 DIV PUSH20 0xFFFFFFFFFFFFFFFFFFFFFFFFFFFFFFFFFFFFFFFF AND PUSH20 0xFFFFFFFFFFFFFFFFFFFFFFFFFFFFFFFFFFFFFFFF AND CALLER PUSH20 0xFFFFFFFFFFFFFFFFFFFFFFFFFFFFFFFFFFFFFFFF AND EQ PUSH2 0x381C JUMPI PUSH1 0x40 MLOAD PUSH32 0x8C379A000000000000000000000000000000000000000000000000000000000 DUP2 MSTORE PUSH1 0x4 ADD DUP1 DUP1 PUSH1 0x20 ADD DUP3 DUP2 SUB DUP3 MSTORE PUSH1 0x15 DUP2 MSTORE PUSH1 0x20 ADD DUP1 PUSH32 0x796F7520617265206E6F7420616E206F776E6572210000000000000000000000 DUP2 MSTORE POP PUSH1 0x20 ADD SWAP2 POP POP PUSH1 0x40 MLOAD DUP1 SWAP2 SUB SWAP1 REVERT JUMPDEST PUSH1 0x0 JUMPDEST PUSH1 0x31 DUP2 PUSH1 0xFF AND GT PUSH2 0x3888 JUMPI PUSH1 0x0 PUSH1 0x1 DUP3 PUSH1 0xFF AND PUSH1 0x32 DUP2 LT PUSH2 0x383C JUMPI INVALID JUMPDEST ADD PUSH1 0x0 PUSH2 0x100 EXP DUP2 SLOAD DUP2 PUSH20 0xFFFFFFFFFFFFFFFFFFFFFFFFFFFFFFFFFFFFFFFF MUL NOT AND SWAP1 DUP4 PUSH20 0xFFFFFFFFFFFFFFFFFFFFFFFFFFFFFFFFFFFFFFFF AND MUL OR SWAP1 SSTORE POP DUP1 DUP1 PUSH1 0x1 ADD SWAP2 POP POP PUSH2 0x381F JUMP JUMPDEST POP PUSH1 0x0 DUP1 PUSH1 0x1 SWAP1 POP JUMPDEST PUSH1 0x69 SLOAD DUP2 PUSH1 0xFF AND GT PUSH2 0x399E JUMPI PUSH1 0x0 PUSH1 0x6E PUSH1 0x0 DUP4 PUSH1 0xFF AND PUSH1 0xFF AND DUP2 MSTORE PUSH1 0x20 ADD SWAP1 DUP2 MSTORE PUSH1 0x20 ADD PUSH1 0x0 KECCAK256 SLOAD SWAP1 POP JUMPDEST PUSH1 0x6D PUSH1 0x0 DUP4 PUSH1 0xFF AND PUSH1 0xFF AND DUP2 MSTORE PUSH1 0x20 ADD SWAP1 DUP2 MSTORE PUSH1 0x20 ADD PUSH1 0x0 KECCAK256 DUP1 SLOAD SWAP1 POP DUP2 LT ISZERO PUSH2 0x3990 JUMPI TIMESTAMP PUSH3 0x15180 PUSH1 0x65 PUSH1 0x0 PUSH1 0x6D PUSH1 0x0 DUP8 PUSH1 0xFF AND PUSH1 0xFF AND DUP2 MSTORE PUSH1 0x20 ADD SWAP1 DUP2 MSTORE PUSH1 0x20 ADD PUSH1 0x0 KECCAK256 DUP6 DUP2 SLOAD DUP2 LT PUSH2 0x390D JUMPI INVALID JUMPDEST SWAP1 PUSH1 0x0 MSTORE PUSH1 0x20 PUSH1 0x0 KECCAK256 ADD PUSH1 0x0 SWAP1 SLOAD SWAP1 PUSH2 0x100 EXP SWAP1 DIV PUSH20 0xFFFFFFFFFFFFFFFFFFFFFFFFFFFFFFFFFFFFFFFF AND PUSH20 0xFFFFFFFFFFFFFFFFFFFFFFFFFFFFFFFFFFFFFFFF AND PUSH20 0xFFFFFFFFFFFFFFFFFFFFFFFFFFFFFFFFFFFFFFFF AND DUP2 MSTORE PUSH1 0x20 ADD SWAP1 DUP2 MSTORE PUSH1 0x20 ADD PUSH1 0x0 KECCAK256 SLOAD ADD GT ISZERO PUSH2 0x3983 JUMPI DUP3 DUP1 PUSH1 0x1 ADD SWAP4 POP POP JUMPDEST DUP1 DUP1 PUSH1 0x1 ADD SWAP2 POP POP PUSH2 0x38BC JUMP JUMPDEST POP DUP1 DUP1 PUSH1 0x1 ADD SWAP2 POP POP PUSH2 0x3891 JUMP JUMPDEST POP DUP2 PUSH1 0x2 SELFBALANCE DUP2 PUSH2 0x39AA JUMPI INVALID JUMPDEST DIV DUP2 PUSH2 0x39B2 JUMPI INVALID JUMPDEST DIV PUSH1 0x33 DUP2 SWAP1 SSTORE POP TIMESTAMP PUSH1 0x34 DUP2 SWAP1 SSTORE POP PUSH1 0x0 DUP3 DUP3 DUP2 PUSH2 0x39CB JUMPI INVALID JUMPDEST DIV SWAP1 POP PUSH1 0x0 DUP1 PUSH1 0x0 PUSH1 0x1 SWAP1 POP JUMPDEST PUSH1 0x69 SLOAD DUP2 PUSH1 0xFF AND GT PUSH2 0x3C46 JUMPI PUSH1 0x0 PUSH1 0x6E PUSH1 0x0 DUP4 PUSH1 0xFF AND PUSH1 0xFF AND DUP2 MSTORE PUSH1 0x20 ADD SWAP1 DUP2 MSTORE PUSH1 0x20 ADD PUSH1 0x0 KECCAK256 SLOAD SWAP1 POP JUMPDEST PUSH1 0x6D PUSH1 0x0 DUP4 PUSH1 0xFF AND PUSH1 0xFF AND DUP2 MSTORE PUSH1 0x20 ADD SWAP1 DUP2 MSTORE PUSH1 0x20 ADD PUSH1 0x0 KECCAK256 DUP1 SLOAD SWAP1 POP DUP2 LT ISZERO PUSH2 0x3C38 JUMPI DUP4 DUP1 PUSH1 0x1 ADD SWAP5 POP POP PUSH1 0x0 DUP6 DUP6 DUP2 PUSH2 0x3A3A JUMPI INVALID JUMPDEST MOD EQ DUP1 ISZERO PUSH2 0x3AD9 JUMPI POP TIMESTAMP PUSH3 0x15180 PUSH1 0x65 PUSH1 0x0 PUSH1 0x6D PUSH1 0x0 DUP8 PUSH1 0xFF AND PUSH1 0xFF AND DUP2 MSTORE PUSH1 0x20 ADD SWAP1 DUP2 MSTORE PUSH1 0x20 ADD PUSH1 0x0 KECCAK256 DUP6 DUP2 SLOAD DUP2 LT PUSH2 0x3A70 JUMPI INVALID JUMPDEST SWAP1 PUSH1 0x0 MSTORE PUSH1 0x20 PUSH1 0x0 KECCAK256 ADD PUSH1 0x0 SWAP1 SLOAD SWAP1 PUSH2 0x100 EXP SWAP1 DIV PUSH20 0xFFFFFFFFFFFFFFFFFFFFFFFFFFFFFFFFFFFFFFFF AND PUSH20 0xFFFFFFFFFFFFFFFFFFFFFFFFFFFFFFFFFFFFFFFF AND PUSH20 0xFFFFFFFFFFFFFFFFFFFFFFFFFFFFFFFFFFFFFFFF AND DUP2 MSTORE PUSH1 0x20 ADD SWAP1 DUP2 MSTORE PUSH1 0x20 ADD PUSH1 0x0 KECCAK256 SLOAD ADD GT JUMPDEST ISZERO PUSH2 0x3C2B JUMPI PUSH1 0x6D PUSH1 0x0 DUP4 PUSH1 0xFF AND PUSH1 0xFF AND DUP2 MSTORE PUSH1 0x20 ADD SWAP1 DUP2 MSTORE PUSH1 0x20 ADD PUSH1 0x0 KECCAK256 DUP2 DUP2 SLOAD DUP2 LT PUSH2 0x3B02 JUMPI INVALID JUMPDEST SWAP1 PUSH1 0x0 MSTORE PUSH1 0x20 PUSH1 0x0 KECCAK256 ADD PUSH1 0x0 SWAP1 SLOAD SWAP1 PUSH2 0x100 EXP SWAP1 DIV PUSH20 0xFFFFFFFFFFFFFFFFFFFFFFFFFFFFFFFFFFFFFFFF AND PUSH1 0x1 DUP5 PUSH1 0xFF AND PUSH1 0x32 DUP2 LT PUSH2 0x3B3D JUMPI INVALID JUMPDEST ADD PUSH1 0x0 PUSH2 0x100 EXP DUP2 SLOAD DUP2 PUSH20 0xFFFFFFFFFFFFFFFFFFFFFFFFFFFFFFFFFFFFFFFF MUL NOT AND SWAP1 DUP4 PUSH20 0xFFFFFFFFFFFFFFFFFFFFFFFFFFFFFFFFFFFFFFFF AND MUL OR SWAP1 SSTORE POP DUP3 DUP1 PUSH1 0x1 ADD SWAP4 POP POP PUSH1 0x6D PUSH1 0x0 DUP4 PUSH1 0xFF AND PUSH1 0xFF AND DUP2 MSTORE PUSH1 0x20 ADD SWAP1 DUP2 MSTORE PUSH1 0x20 ADD PUSH1 0x0 KECCAK256 DUP2 DUP2 SLOAD DUP2 LT PUSH2 0x3BA8 JUMPI INVALID JUMPDEST SWAP1 PUSH1 0x0 MSTORE PUSH1 0x20 PUSH1 0x0 KECCAK256 ADD PUSH1 0x0 SWAP1 SLOAD SWAP1 PUSH2 0x100 EXP SWAP1 DIV PUSH20 0xFFFFFFFFFFFFFFFFFFFFFFFFFFFFFFFFFFFFFFFF AND PUSH20 0xFFFFFFFFFFFFFFFFFFFFFFFFFFFFFFFFFFFFFFFF AND PUSH32 0xEDAC0922924CC83017073B98842693D865D06A82C38175D4A1CB0811EF86193F TIMESTAMP PUSH1 0x33 SLOAD PUSH1 0x40 MLOAD DUP1 DUP4 DUP2 MSTORE PUSH1 0x20 ADD DUP3 DUP2 MSTORE PUSH1 0x20 ADD SWAP3 POP POP POP PUSH1 0x40 MLOAD DUP1 SWAP2 SUB SWAP1 LOG2 JUMPDEST DUP1 DUP1 PUSH1 0x1 ADD SWAP2 POP POP PUSH2 0x3A03 JUMP JUMPDEST POP DUP1 DUP1 PUSH1 0x1 ADD SWAP2 POP POP PUSH2 0x39D8 JUMP JUMPDEST POP POP POP POP POP POP JUMP JUMPDEST PUSH2 0x3C57 DUP2 PUSH2 0x11D6 JUMP JUMPDEST PUSH2 0x3CC9 JUMPI PUSH1 0x40 MLOAD PUSH32 0x8C379A000000000000000000000000000000000000000000000000000000000 DUP2 MSTORE PUSH1 0x4 ADD DUP1 DUP1 PUSH1 0x20 ADD DUP3 DUP2 SUB DUP3 MSTORE PUSH1 0x1A DUP2 MSTORE PUSH1 0x20 ADD DUP1 PUSH32 0x5265666572726572206973206E6F742072656769737465726564000000000000 DUP2 MSTORE POP PUSH1 0x20 ADD SWAP2 POP POP PUSH1 0x40 MLOAD DUP1 SWAP2 SUB SWAP1 REVERT JUMPDEST PUSH2 0x3CD2 CALLER PUSH2 0x11D6 JUMP JUMPDEST ISZERO PUSH2 0x3D45 JUMPI PUSH1 0x40 MLOAD PUSH32 0x8C379A000000000000000000000000000000000000000000000000000000000 DUP2 MSTORE PUSH1 0x4 ADD DUP1 DUP1 PUSH1 0x20 ADD DUP3 DUP2 SUB DUP3 MSTORE PUSH1 0x17 DUP2 MSTORE PUSH1 0x20 ADD DUP1 PUSH32 0x5573657220616C72656164792072656769737465726564000000000000000000 DUP2 MSTORE POP PUSH1 0x20 ADD SWAP2 POP POP PUSH1 0x40 MLOAD DUP1 SWAP2 SUB SWAP1 REVERT JUMPDEST PUSH2 0x3D4E CALLER PUSH2 0x2A4A JUMP JUMPDEST ISZERO PUSH2 0x3DC1 JUMPI PUSH1 0x40 MLOAD PUSH32 0x8C379A000000000000000000000000000000000000000000000000000000000 DUP2 MSTORE PUSH1 0x4 ADD DUP1 DUP1 PUSH1 0x20 ADD DUP3 DUP2 SUB DUP3 MSTORE PUSH1 0x15 DUP2 MSTORE PUSH1 0x20 ADD DUP1 PUSH32 0x43616E206E6F74206265206120636F6E74726163740000000000000000000000 DUP2 MSTORE POP PUSH1 0x20 ADD SWAP2 POP POP PUSH1 0x40 MLOAD DUP1 SWAP2 SUB SWAP1 REVERT JUMPDEST PUSH2 0x3DC9 PUSH2 0x51C1 JUMP JUMPDEST PUSH1 0x40 MLOAD DUP1 PUSH2 0x120 ADD PUSH1 0x40 MSTORE DUP1 PUSH1 0x6A PUSH1 0x0 DUP2 SLOAD DUP1 SWAP3 SWAP2 SWAP1 PUSH1 0x1 ADD SWAP2 SWAP1 POP SSTORE DUP2 MSTORE PUSH1 0x20 ADD TIMESTAMP DUP2 MSTORE PUSH1 0x20 ADD DUP4 PUSH20 0xFFFFFFFFFFFFFFFFFFFFFFFFFFFFFFFFFFFFFFFF AND DUP2 MSTORE PUSH1 0x20 ADD PUSH1 0x0 DUP2 MSTORE PUSH1 0x20 ADD PUSH1 0x0 DUP2 MSTORE PUSH1 0x20 ADD PUSH1 0x0 DUP2 MSTORE PUSH1 0x20 ADD PUSH1 0x0 DUP2 MSTORE PUSH1 0x20 ADD PUSH1 0x0 PUSH1 0xFF AND DUP2 MSTORE PUSH1 0x20 ADD PUSH1 0x0 DUP2 MSTORE POP SWAP1 POP DUP1 PUSH1 0x6B PUSH1 0x0 CALLER PUSH20 0xFFFFFFFFFFFFFFFFFFFFFFFFFFFFFFFFFFFFFFFF AND PUSH20 0xFFFFFFFFFFFFFFFFFFFFFFFFFFFFFFFFFFFFFFFF AND DUP2 MSTORE PUSH1 0x20 ADD SWAP1 DUP2 MSTORE PUSH1 0x20 ADD PUSH1 0x0 KECCAK256 PUSH1 0x0 DUP3 ADD MLOAD DUP2 PUSH1 0x0 ADD SSTORE PUSH1 0x20 DUP3 ADD MLOAD DUP2 PUSH1 0x1 ADD SSTORE PUSH1 0x40 DUP3 ADD MLOAD DUP2 PUSH1 0x2 ADD PUSH1 0x0 PUSH2 0x100 EXP DUP2 SLOAD DUP2 PUSH20 0xFFFFFFFFFFFFFFFFFFFFFFFFFFFFFFFFFFFFFFFF MUL NOT AND SWAP1 DUP4 PUSH20 0xFFFFFFFFFFFFFFFFFFFFFFFFFFFFFFFFFFFFFFFF AND MUL OR SWAP1 SSTORE POP PUSH1 0x60 DUP3 ADD MLOAD DUP2 PUSH1 0x3 ADD SSTORE PUSH1 0x80 DUP3 ADD MLOAD DUP2 PUSH1 0x4 ADD SSTORE PUSH1 0xA0 DUP3 ADD MLOAD DUP2 PUSH1 0x5 ADD SSTORE PUSH1 0xC0 DUP3 ADD MLOAD DUP2 PUSH1 0x6 ADD SSTORE PUSH1 0xE0 DUP3 ADD MLOAD DUP2 PUSH1 0x8 ADD PUSH1 0x0 PUSH2 0x100 EXP DUP2 SLOAD DUP2 PUSH1 0xFF MUL NOT AND SWAP1 DUP4 PUSH1 0xFF AND MUL OR SWAP1 SSTORE POP PUSH2 0x100 DUP3 ADD MLOAD DUP2 PUSH1 0x9 ADD SSTORE SWAP1 POP POP CALLER PUSH1 0x6C PUSH1 0x0 DUP4 PUSH1 0x0 ADD MLOAD DUP2 MSTORE PUSH1 0x20 ADD SWAP1 DUP2 MSTORE PUSH1 0x20 ADD PUSH1 0x0 KECCAK256 PUSH1 0x0 PUSH2 0x100 EXP DUP2 SLOAD DUP2 PUSH20 0xFFFFFFFFFFFFFFFFFFFFFFFFFFFFFFFFFFFFFFFF MUL NOT AND SWAP1 DUP4 PUSH20 0xFFFFFFFFFFFFFFFFFFFFFFFFFFFFFFFFFFFFFFFF AND MUL OR SWAP1 SSTORE POP PUSH1 0x0 PUSH1 0x1 SWAP1 POP PUSH1 0x0 DUP4 SWAP1 POP PUSH1 0x0 PUSH20 0xFFFFFFFFFFFFFFFFFFFFFFFFFFFFFFFFFFFFFFFF AND DUP2 PUSH20 0xFFFFFFFFFFFFFFFFFFFFFFFFFFFFFFFFFFFFFFFF AND EQ PUSH2 0x4081 JUMPI PUSH1 0x6B PUSH1 0x0 DUP3 PUSH20 0xFFFFFFFFFFFFFFFFFFFFFFFFFFFFFFFFFFFFFFFF AND PUSH20 0xFFFFFFFFFFFFFFFFFFFFFFFFFFFFFFFFFFFFFFFF AND DUP2 MSTORE PUSH1 0x20 ADD SWAP1 DUP2 MSTORE PUSH1 0x20 ADD PUSH1 0x0 KECCAK256 PUSH1 0x3 ADD PUSH1 0x0 DUP2 SLOAD DUP1 SWAP3 SWAP2 SWAP1 PUSH1 0x1 ADD SWAP2 SWAP1 POP SSTORE POP PUSH1 0x6B PUSH1 0x0 DUP3 PUSH20 0xFFFFFFFFFFFFFFFFFFFFFFFFFFFFFFFFFFFFFFFF AND PUSH20 0xFFFFFFFFFFFFFFFFFFFFFFFFFFFFFFFFFFFFFFFF AND DUP2 MSTORE PUSH1 0x20 ADD SWAP1 DUP2 MSTORE PUSH1 0x20 ADD PUSH1 0x0 KECCAK256 PUSH1 0x2 ADD PUSH1 0x0 SWAP1 SLOAD SWAP1 PUSH2 0x100 EXP SWAP1 DIV PUSH20 0xFFFFFFFFFFFFFFFFFFFFFFFFFFFFFFFFFFFFFFFF AND SWAP1 POP DUP2 DUP1 PUSH1 0x1 ADD SWAP3 POP POP JUMPDEST PUSH1 0x6F PUSH1 0x0 ADD PUSH1 0x0 DUP2 SLOAD DUP1 SWAP3 SWAP2 SWAP1 PUSH1 0x1 ADD SWAP2 SWAP1 POP SSTORE POP PUSH1 0x6F PUSH1 0x1 ADD PUSH1 0x0 DUP2 SLOAD DUP1 SWAP3 SWAP2 SWAP1 PUSH1 0x1 ADD SWAP2 SWAP1 POP SSTORE POP CALLER PUSH20 0xFFFFFFFFFFFFFFFFFFFFFFFFFFFFFFFFFFFFFFFF AND PUSH32 0x588149FB6F65171A24789E864D05FEB177506DF6FC9E86C55D0D19B5122BDFFC TIMESTAMP DUP6 PUSH1 0x0 ADD MLOAD PUSH1 0x6B PUSH1 0x0 DUP10 PUSH20 0xFFFFFFFFFFFFFFFFFFFFFFFFFFFFFFFFFFFFFFFF AND PUSH20 0xFFFFFFFFFFFFFFFFFFFFFFFFFFFFFFFFFFFFFFFF AND DUP2 MSTORE PUSH1 0x20 ADD SWAP1 DUP2 MSTORE PUSH1 0x20 ADD PUSH1 0x0 KECCAK256 PUSH1 0x0 ADD SLOAD PUSH1 0x40 MLOAD DUP1 DUP5 DUP2 MSTORE PUSH1 0x20 ADD DUP4 DUP2 MSTORE PUSH1 0x20 ADD DUP3 DUP2 MSTORE PUSH1 0x20 ADD SWAP4 POP POP POP POP PUSH1 0x40 MLOAD DUP1 SWAP2 SUB SWAP1 LOG2 POP POP POP POP JUMP JUMPDEST PUSH1 0x66 PUSH1 0x1 SWAP1 SLOAD SWAP1 PUSH2 0x100 EXP SWAP1 DIV PUSH1 0xFF AND DUP2 JUMP JUMPDEST PUSH1 0x6B PUSH1 0x20 MSTORE DUP1 PUSH1 0x0 MSTORE PUSH1 0x40 PUSH1 0x0 KECCAK256 PUSH1 0x0 SWAP2 POP SWAP1 POP DUP1 PUSH1 0x0 ADD SLOAD SWAP1 DUP1 PUSH1 0x1 ADD SLOAD SWAP1 DUP1 PUSH1 0x2 ADD PUSH1 0x0 SWAP1 SLOAD SWAP1 PUSH2 0x100 EXP SWAP1 DIV PUSH20 0xFFFFFFFFFFFFFFFFFFFFFFFFFFFFFFFFFFFFFFFF AND SWAP1 DUP1 PUSH1 0x3 ADD SLOAD SWAP1 DUP1 PUSH1 0x4 ADD SLOAD SWAP1 DUP1 PUSH1 0x5 ADD SLOAD SWAP1 DUP1 PUSH1 0x6 ADD SLOAD SWAP1 DUP1 PUSH1 0x8 ADD PUSH1 0x0 SWAP1 SLOAD SWAP1 PUSH2 0x100 EXP SWAP1 DIV PUSH1 0xFF AND SWAP1 DUP1 PUSH1 0x9 ADD SLOAD SWAP1 POP DUP10 JUMP JUMPDEST PUSH1 0x65 PUSH1 0x20 MSTORE DUP1 PUSH1 0x0 MSTORE PUSH1 0x40 PUSH1 0x0 KECCAK256 PUSH1 0x0 SWAP2 POP SWAP1 POP SLOAD DUP2 JUMP JUMPDEST PUSH2 0x4204 DUP2 PUSH2 0x3C4E JUMP JUMPDEST PUSH2 0x420E PUSH1 0x1 PUSH2 0x1252 JUMP JUMPDEST POP JUMP JUMPDEST PUSH1 0x0 DUP1 PUSH1 0x6B PUSH1 0x0 DUP5 PUSH20 0xFFFFFFFFFFFFFFFFFFFFFFFFFFFFFFFFFFFFFFFF AND PUSH20 0xFFFFFFFFFFFFFFFFFFFFFFFFFFFFFFFFFFFFFFFF AND DUP2 MSTORE PUSH1 0x20 ADD SWAP1 DUP2 MSTORE PUSH1 0x20 ADD PUSH1 0x0 KECCAK256 PUSH1 0x2 ADD PUSH1 0x0 SWAP1 SLOAD SWAP1 PUSH2 0x100 EXP SWAP1 DIV PUSH20 0xFFFFFFFFFFFFFFFFFFFFFFFFFFFFFFFFFFFFFFFF AND SWAP1 POP PUSH1 0x6B PUSH1 0x0 DUP3 PUSH20 0xFFFFFFFFFFFFFFFFFFFFFFFFFFFFFFFFFFFFFFFF AND PUSH20 0xFFFFFFFFFFFFFFFFFFFFFFFFFFFFFFFFFFFFFFFF AND DUP2 MSTORE PUSH1 0x20 ADD SWAP1 DUP2 MSTORE PUSH1 0x20 ADD PUSH1 0x0 KECCAK256 PUSH1 0x0 ADD SLOAD SWAP2 POP POP SWAP2 SWAP1 POP JUMP JUMPDEST PUSH1 0x4B DUP2 JUMP JUMPDEST PUSH1 0x2 PUSH1 0x0 SLOAD EQ ISZERO PUSH2 0x4342 JUMPI PUSH1 0x40 MLOAD PUSH32 0x8C379A000000000000000000000000000000000000000000000000000000000 DUP2 MSTORE PUSH1 0x4 ADD DUP1 DUP1 PUSH1 0x20 ADD DUP3 DUP2 SUB DUP3 MSTORE PUSH1 0x1F DUP2 MSTORE PUSH1 0x20 ADD DUP1 PUSH32 0x5265656E7472616E637947756172643A207265656E7472616E742063616C6C00 DUP2 MSTORE POP PUSH1 0x20 ADD SWAP2 POP POP PUSH1 0x40 MLOAD DUP1 SWAP2 SUB SWAP1 REVERT JUMPDEST PUSH1 0x2 PUSH1 0x0 DUP2 SWAP1 SSTORE POP PUSH1 0x0 JUMPDEST PUSH1 0x31 DUP2 PUSH1 0xFF AND GT PUSH2 0x44CC JUMPI CALLER PUSH20 0xFFFFFFFFFFFFFFFFFFFFFFFFFFFFFFFFFFFFFFFF AND PUSH1 0x1 DUP3 PUSH1 0xFF AND PUSH1 0x32 DUP2 LT PUSH2 0x437F JUMPI INVALID JUMPDEST ADD PUSH1 0x0 SWAP1 SLOAD SWAP1 PUSH2 0x100 EXP SWAP1 DIV PUSH20 0xFFFFFFFFFFFFFFFFFFFFFFFFFFFFFFFFFFFFFFFF AND PUSH20 0xFFFFFFFFFFFFFFFFFFFFFFFFFFFFFFFFFFFFFFFF AND EQ ISZERO PUSH2 0x44BF JUMPI PUSH1 0x6F PUSH1 0x3 ADD PUSH1 0x0 DUP2 SLOAD DUP1 SWAP3 SWAP2 SWAP1 PUSH1 0x1 ADD SWAP2 SWAP1 POP SSTORE POP PUSH1 0x0 PUSH1 0x1 DUP3 PUSH1 0xFF AND PUSH1 0x32 DUP2 LT PUSH2 0x43E4 JUMPI INVALID JUMPDEST ADD PUSH1 0x0 PUSH2 0x100 EXP DUP2 SLOAD DUP2 PUSH20 0xFFFFFFFFFFFFFFFFFFFFFFFFFFFFFFFFFFFFFFFF MUL NOT AND SWAP1 DUP4 PUSH20 0xFFFFFFFFFFFFFFFFFFFFFFFFFFFFFFFFFFFFFFFF AND MUL OR SWAP1 SSTORE POP PUSH1 0x0 CALLER PUSH20 0xFFFFFFFFFFFFFFFFFFFFFFFFFFFFFFFFFFFFFFFF AND PUSH2 0x8FC PUSH1 0x33 SLOAD SWAP1 DUP2 ISZERO MUL SWAP1 PUSH1 0x40 MLOAD PUSH1 0x0 PUSH1 0x40 MLOAD DUP1 DUP4 SUB DUP2 DUP6 DUP9 DUP9 CALL SWAP4 POP POP POP POP SWAP1 POP DUP1 ISZERO PUSH2 0x44BD JUMPI CALLER PUSH20 0xFFFFFFFFFFFFFFFFFFFFFFFFFFFFFFFFFFFFFFFF AND PUSH32 0x7C73022FE9EF1DDFFACFE32AB067B48A23250B0C20FBABEACE91E3CD9E63A9C0 TIMESTAMP PUSH1 0x33 SLOAD PUSH1 0x40 MLOAD DUP1 DUP4 DUP2 MSTORE PUSH1 0x20 ADD DUP3 DUP2 MSTORE PUSH1 0x20 ADD SWAP3 POP POP POP PUSH1 0x40 MLOAD DUP1 SWAP2 SUB SWAP1 LOG2 JUMPDEST POP JUMPDEST DUP1 DUP1 PUSH1 0x1 ADD SWAP2 POP POP PUSH2 0x434D JUMP JUMPDEST POP PUSH1 0x1 PUSH1 0x0 DUP2 SWAP1 SSTORE POP JUMP JUMPDEST PUSH2 0x44DF PUSH2 0x519E JUMP JUMPDEST PUSH1 0x35 PUSH1 0x10 DUP1 PUSH1 0x20 MUL PUSH1 0x40 MLOAD SWAP1 DUP2 ADD PUSH1 0x40 MSTORE DUP1 SWAP3 SWAP2 SWAP1 DUP3 PUSH1 0x10 DUP1 ISZERO PUSH2 0x4518 JUMPI PUSH1 0x20 MUL DUP3 ADD SWAP2 JUMPDEST DUP2 SLOAD DUP2 MSTORE PUSH1 0x20 ADD SWAP1 PUSH1 0x1 ADD SWAP1 DUP1 DUP4 GT PUSH2 0x4504 JUMPI JUMPDEST POP POP POP POP POP SWAP1 POP SWAP1 JUMP JUMPDEST PUSH1 0x0 DUP1 PUSH1 0x0 DUP4 PUSH1 0xFF AND GT DUP1 ISZERO PUSH2 0x453D JUMPI POP PUSH1 0x69 SLOAD DUP4 PUSH1 0xFF AND GT ISZERO JUMPDEST PUSH2 0x45AF JUMPI PUSH1 0x40 MLOAD PUSH32 0x8C379A000000000000000000000000000000000000000000000000000000000 DUP2 MSTORE PUSH1 0x4 ADD DUP1 DUP1 PUSH1 0x20 ADD DUP3 DUP2 SUB DUP3 MSTORE PUSH1 0xD DUP2 MSTORE PUSH1 0x20 ADD DUP1 PUSH32 0x496E76616C696420726F756E6400000000000000000000000000000000000000 DUP2 MSTORE POP PUSH1 0x20 ADD SWAP2 POP POP PUSH1 0x40 MLOAD DUP1 SWAP2 SUB SWAP1 REVERT JUMPDEST PUSH1 0x6B PUSH1 0x0 DUP6 PUSH20 0xFFFFFFFFFFFFFFFFFFFFFFFFFFFFFFFFFFFFFFFF AND PUSH20 0xFFFFFFFFFFFFFFFFFFFFFFFFFFFFFFFFFFFFFFFF AND DUP2 MSTORE PUSH1 0x20 ADD SWAP1 DUP2 MSTORE PUSH1 0x20 ADD PUSH1 0x0 KECCAK256 PUSH1 0x7 ADD PUSH1 0x0 DUP5 PUSH1 0xFF AND PUSH1 0xFF AND DUP2 MSTORE PUSH1 0x20 ADD SWAP1 DUP2 MSTORE PUSH1 0x20 ADD PUSH1 0x0 KECCAK256 PUSH1 0x0 ADD PUSH1 0x6 SWAP1 SLOAD SWAP1 PUSH2 0x100 EXP SWAP1 DIV PUSH1 0xFF AND PUSH2 0x4629 JUMPI PUSH1 0x0 DUP1 SWAP2 POP SWAP2 POP PUSH2 0x474E JUMP JUMPDEST PUSH1 0x0 DUP1 PUSH1 0x6E PUSH1 0x0 DUP7 PUSH1 0xFF AND PUSH1 0xFF AND DUP2 MSTORE PUSH1 0x20 ADD SWAP1 DUP2 MSTORE PUSH1 0x20 ADD PUSH1 0x0 KECCAK256 SLOAD SWAP1 POP JUMPDEST PUSH1 0x6D PUSH1 0x0 DUP7 PUSH1 0xFF AND PUSH1 0xFF AND DUP2 MSTORE PUSH1 0x20 ADD SWAP1 DUP2 MSTORE PUSH1 0x20 ADD PUSH1 0x0 KECCAK256 DUP1 SLOAD SWAP1 POP DUP2 LT ISZERO PUSH2 0x4748 JUMPI DUP2 DUP1 PUSH1 0x1 ADD SWAP3 POP POP DUP6 PUSH20 0xFFFFFFFFFFFFFFFFFFFFFFFFFFFFFFFFFFFFFFFF AND PUSH1 0x6D PUSH1 0x0 DUP8 PUSH1 0xFF AND PUSH1 0xFF AND DUP2 MSTORE PUSH1 0x20 ADD SWAP1 DUP2 MSTORE PUSH1 0x20 ADD PUSH1 0x0 KECCAK256 DUP3 DUP2 SLOAD DUP2 LT PUSH2 0x46B0 JUMPI INVALID JUMPDEST SWAP1 PUSH1 0x0 MSTORE PUSH1 0x20 PUSH1 0x0 KECCAK256 ADD PUSH1 0x0 SWAP1 SLOAD SWAP1 PUSH2 0x100 EXP SWAP1 DIV PUSH20 0xFFFFFFFFFFFFFFFFFFFFFFFFFFFFFFFFFFFFFFFF AND PUSH20 0xFFFFFFFFFFFFFFFFFFFFFFFFFFFFFFFFFFFFFFFF AND EQ ISZERO PUSH2 0x473B JUMPI DUP2 PUSH1 0x6E PUSH1 0x0 DUP8 PUSH1 0xFF AND PUSH1 0xFF AND DUP2 MSTORE PUSH1 0x20 ADD SWAP1 DUP2 MSTORE PUSH1 0x20 ADD PUSH1 0x0 KECCAK256 SLOAD PUSH1 0x6D PUSH1 0x0 DUP9 PUSH1 0xFF AND PUSH1 0xFF AND DUP2 MSTORE PUSH1 0x20 ADD SWAP1 DUP2 MSTORE PUSH1 0x20 ADD PUSH1 0x0 KECCAK256 DUP1 SLOAD SWAP1 POP SUB SWAP4 POP SWAP4 POP POP POP PUSH2 0x474E JUMP JUMPDEST DUP1 DUP1 PUSH1 0x1 ADD SWAP2 POP POP PUSH2 0x4649 JUMP JUMPDEST POP PUSH1 0x0 DUP1 REVERT JUMPDEST SWAP3 POP SWAP3 SWAP1 POP JUMP JUMPDEST PUSH1 0x7 DUP2 JUMP JUMPDEST PUSH1 0x33 SLOAD DUP2 JUMP JUMPDEST PUSH1 0x0 PUSH1 0x6B PUSH1 0x0 DUP6 PUSH20 0xFFFFFFFFFFFFFFFFFFFFFFFFFFFFFFFFFFFFFFFF AND PUSH20 0xFFFFFFFFFFFFFFFFFFFFFFFFFFFFFFFFFFFFFFFF AND DUP2 MSTORE PUSH1 0x20 ADD SWAP1 DUP2 MSTORE PUSH1 0x20 ADD PUSH1 0x0 KECCAK256 PUSH1 0x2 ADD PUSH1 0x0 SWAP1 SLOAD SWAP1 PUSH2 0x100 EXP SWAP1 DIV PUSH20 0xFFFFFFFFFFFFFFFFFFFFFFFFFFFFFFFFFFFFFFFF AND SWAP1 POP PUSH1 0x6B PUSH1 0x0 DUP3 PUSH20 0xFFFFFFFFFFFFFFFFFFFFFFFFFFFFFFFFFFFFFFFF AND PUSH20 0xFFFFFFFFFFFFFFFFFFFFFFFFFFFFFFFFFFFFFFFF AND DUP2 MSTORE PUSH1 0x20 ADD SWAP1 DUP2 MSTORE PUSH1 0x20 ADD PUSH1 0x0 KECCAK256 PUSH1 0x7 ADD PUSH1 0x0 DUP5 PUSH1 0xFF AND PUSH1 0xFF AND DUP2 MSTORE PUSH1 0x20 ADD SWAP1 DUP2 MSTORE PUSH1 0x20 ADD PUSH1 0x0 KECCAK256 PUSH1 0x0 ADD PUSH1 0x6 SWAP1 SLOAD SWAP1 PUSH2 0x100 EXP SWAP1 DIV PUSH1 0xFF AND PUSH2 0x4A0A JUMPI DUP2 PUSH1 0x6B PUSH1 0x0 DUP4 PUSH20 0xFFFFFFFFFFFFFFFFFFFFFFFFFFFFFFFFFFFFFFFF AND PUSH20 0xFFFFFFFFFFFFFFFFFFFFFFFFFFFFFFFFFFFFFFFF AND DUP2 MSTORE PUSH1 0x20 ADD SWAP1 DUP2 MSTORE PUSH1 0x20 ADD PUSH1 0x0 KECCAK256 PUSH1 0x6 ADD PUSH1 0x0 DUP3 DUP3 SLOAD ADD SWAP3 POP POP DUP2 SWAP1 SSTORE POP DUP2 PUSH1 0x6B PUSH1 0x0 DUP4 PUSH20 0xFFFFFFFFFFFFFFFFFFFFFFFFFFFFFFFFFFFFFFFF AND PUSH20 0xFFFFFFFFFFFFFFFFFFFFFFFFFFFFFFFFFFFFFFFF AND DUP2 MSTORE PUSH1 0x20 ADD SWAP1 DUP2 MSTORE PUSH1 0x20 ADD PUSH1 0x0 KECCAK256 PUSH1 0x7 ADD PUSH1 0x0 DUP6 PUSH1 0xFF AND PUSH1 0xFF AND DUP2 MSTORE PUSH1 0x20 ADD SWAP1 DUP2 MSTORE PUSH1 0x20 ADD PUSH1 0x0 KECCAK256 PUSH1 0x5 ADD PUSH1 0x0 DUP3 DUP3 SLOAD ADD SWAP3 POP POP DUP2 SWAP1 SSTORE POP DUP1 PUSH20 0xFFFFFFFFFFFFFFFFFFFFFFFFFFFFFFFFFFFFFFFF AND PUSH32 0x883BF1F67528BDC0CBAA14CB71F54E9F4E65EC49ECEAF639CB93A9E50AEFC4C TIMESTAMP PUSH1 0x6B PUSH1 0x0 DUP6 PUSH20 0xFFFFFFFFFFFFFFFFFFFFFFFFFFFFFFFFFFFFFFFF AND PUSH20 0xFFFFFFFFFFFFFFFFFFFFFFFFFFFFFFFFFFFFFFFF AND DUP2 MSTORE PUSH1 0x20 ADD SWAP1 DUP2 MSTORE PUSH1 0x20 ADD PUSH1 0x0 KECCAK256 PUSH1 0x0 ADD SLOAD PUSH1 0x6B PUSH1 0x0 DUP10 PUSH20 0xFFFFFFFFFFFFFFFFFFFFFFFFFFFFFFFFFFFFFFFF AND PUSH20 0xFFFFFFFFFFFFFFFFFFFFFFFFFFFFFFFFFFFFFFFF AND DUP2 MSTORE PUSH1 0x20 ADD SWAP1 DUP2 MSTORE PUSH1 0x20 ADD PUSH1 0x0 KECCAK256 PUSH1 0x0 ADD SLOAD DUP8 DUP8 PUSH1 0x40 MLOAD DUP1 DUP7 DUP2 MSTORE PUSH1 0x20 ADD DUP6 DUP2 MSTORE PUSH1 0x20 ADD DUP5 DUP2 MSTORE PUSH1 0x20 ADD DUP4 PUSH1 0xFF AND DUP2 MSTORE PUSH1 0x20 ADD DUP3 DUP2 MSTORE PUSH1 0x20 ADD SWAP6 POP POP POP POP POP POP PUSH1 0x40 MLOAD DUP1 SWAP2 SUB SWAP1 LOG2 PUSH1 0x66 PUSH1 0x2 SWAP1 SLOAD SWAP1 PUSH2 0x100 EXP SWAP1 DIV PUSH20 0xFFFFFFFFFFFFFFFFFFFFFFFFFFFFFFFFFFFFFFFF AND SWAP1 POP JUMPDEST PUSH1 0x0 DUP2 PUSH20 0xFFFFFFFFFFFFFFFFFFFFFFFFFFFFFFFFFFFFFFFF AND PUSH2 0x8FC DUP5 SWAP1 DUP2 ISZERO MUL SWAP1 PUSH1 0x40 MLOAD PUSH1 0x0 PUSH1 0x40 MLOAD DUP1 DUP4 SUB DUP2 DUP6 DUP9 DUP9 CALL SWAP4 POP POP POP POP SWAP1 POP DUP1 ISZERO PUSH2 0x4BFD JUMPI DUP3 PUSH1 0x6B PUSH1 0x0 DUP5 PUSH20 0xFFFFFFFFFFFFFFFFFFFFFFFFFFFFFFFFFFFFFFFF AND PUSH20 0xFFFFFFFFFFFFFFFFFFFFFFFFFFFFFFFFFFFFFFFF AND DUP2 MSTORE PUSH1 0x20 ADD SWAP1 DUP2 MSTORE PUSH1 0x20 ADD PUSH1 0x0 KECCAK256 PUSH1 0x7 ADD PUSH1 0x0 DUP7 PUSH1 0xFF AND PUSH1 0xFF AND DUP2 MSTORE PUSH1 0x20 ADD SWAP1 DUP2 MSTORE PUSH1 0x20 ADD PUSH1 0x0 KECCAK256 PUSH1 0x2 ADD PUSH1 0x0 DUP3 DUP3 SLOAD ADD SWAP3 POP POP DUP2 SWAP1 SSTORE POP DUP3 PUSH1 0x6B PUSH1 0x0 DUP5 PUSH20 0xFFFFFFFFFFFFFFFFFFFFFFFFFFFFFFFFFFFFFFFF AND PUSH20 0xFFFFFFFFFFFFFFFFFFFFFFFFFFFFFFFFFFFFFFFF AND DUP2 MSTORE PUSH1 0x20 ADD SWAP1 DUP2 MSTORE PUSH1 0x20 ADD PUSH1 0x0 KECCAK256 PUSH1 0x4 ADD PUSH1 0x0 DUP3 DUP3 SLOAD ADD SWAP3 POP POP DUP2 SWAP1 SSTORE POP DUP2 PUSH20 0xFFFFFFFFFFFFFFFFFFFFFFFFFFFFFFFFFFFFFFFF AND PUSH32 0xED8E24E8C3D702AAE6EC32D5D8FBB15B20E1905FCD8E9A2313DFF009A821750 TIMESTAMP PUSH1 0x6B PUSH1 0x0 DUP7 PUSH20 0xFFFFFFFFFFFFFFFFFFFFFFFFFFFFFFFFFFFFFFFF AND PUSH20 0xFFFFFFFFFFFFFFFFFFFFFFFFFFFFFFFFFFFFFFFF AND DUP2 MSTORE PUSH1 0x20 ADD SWAP1 DUP2 MSTORE PUSH1 0x20 ADD PUSH1 0x0 KECCAK256 PUSH1 0x0 ADD SLOAD PUSH1 0x6B PUSH1 0x0 DUP11 PUSH20 0xFFFFFFFFFFFFFFFFFFFFFFFFFFFFFFFFFFFFFFFF AND PUSH20 0xFFFFFFFFFFFFFFFFFFFFFFFFFFFFFFFFFFFFFFFF AND DUP2 MSTORE PUSH1 0x20 ADD SWAP1 DUP2 MSTORE PUSH1 0x20 ADD PUSH1 0x0 KECCAK256 PUSH1 0x0 ADD SLOAD DUP9 DUP9 PUSH1 0x40 MLOAD DUP1 DUP7 DUP2 MSTORE PUSH1 0x20 ADD DUP6 DUP2 MSTORE PUSH1 0x20 ADD DUP5 DUP2 MSTORE PUSH1 0x20 ADD DUP4 PUSH1 0xFF AND DUP2 MSTORE PUSH1 0x20 ADD DUP3 DUP2 MSTORE PUSH1 0x20 ADD SWAP6 POP POP POP POP POP POP PUSH1 0x40 MLOAD DUP1 SWAP2 SUB SWAP1 LOG2 PUSH2 0x4C67 JUMP JUMPDEST PUSH1 0x66 PUSH1 0x2 SWAP1 SLOAD SWAP1 PUSH2 0x100 EXP SWAP1 DIV PUSH20 0xFFFFFFFFFFFFFFFFFFFFFFFFFFFFFFFFFFFFFFFF AND PUSH20 0xFFFFFFFFFFFFFFFFFFFFFFFFFFFFFFFFFFFFFFFF AND PUSH2 0x8FC DUP5 SWAP1 DUP2 ISZERO MUL SWAP1 PUSH1 0x40 MLOAD PUSH1 0x0 PUSH1 0x40 MLOAD DUP1 DUP4 SUB DUP2 DUP6 DUP9 DUP9 CALL SWAP4 POP POP POP POP ISZERO DUP1 ISZERO PUSH2 0x4C65 JUMPI RETURNDATASIZE PUSH1 0x0 DUP1 RETURNDATACOPY RETURNDATASIZE PUSH1 0x0 REVERT JUMPDEST POP JUMPDEST POP POP POP POP POP JUMP JUMPDEST PUSH1 0x0 PUSH1 0x6B PUSH1 0x0 DUP6 PUSH20 0xFFFFFFFFFFFFFFFFFFFFFFFFFFFFFFFFFFFFFFFF AND PUSH20 0xFFFFFFFFFFFFFFFFFFFFFFFFFFFFFFFFFFFFFFFF AND DUP2 MSTORE PUSH1 0x20 ADD SWAP1 DUP2 MSTORE PUSH1 0x20 ADD PUSH1 0x0 KECCAK256 PUSH1 0x2 ADD PUSH1 0x0 SWAP1 SLOAD SWAP1 PUSH2 0x100 EXP SWAP1 DIV PUSH20 0xFFFFFFFFFFFFFFFFFFFFFFFFFFFFFFFFFFFFFFFF AND SWAP1 POP PUSH1 0x6B PUSH1 0x0 DUP3 PUSH20 0xFFFFFFFFFFFFFFFFFFFFFFFFFFFFFFFFFFFFFFFF AND PUSH20 0xFFFFFFFFFFFFFFFFFFFFFFFFFFFFFFFFFFFFFFFF AND DUP2 MSTORE PUSH1 0x20 ADD SWAP1 DUP2 MSTORE PUSH1 0x20 ADD PUSH1 0x0 KECCAK256 PUSH1 0x7 ADD PUSH1 0x0 DUP5 PUSH1 0xFF AND PUSH1 0xFF AND DUP2 MSTORE PUSH1 0x20 ADD SWAP1 DUP2 MSTORE PUSH1 0x20 ADD PUSH1 0x0 KECCAK256 PUSH1 0x0 ADD PUSH1 0x6 SWAP1 SLOAD SWAP1 PUSH2 0x100 EXP SWAP1 DIV PUSH1 0xFF AND PUSH2 0x4F18 JUMPI DUP2 PUSH1 0x6B PUSH1 0x0 DUP4 PUSH20 0xFFFFFFFFFFFFFFFFFFFFFFFFFFFFFFFFFFFFFFFF AND PUSH20 0xFFFFFFFFFFFFFFFFFFFFFFFFFFFFFFFFFFFFFFFF AND DUP2 MSTORE PUSH1 0x20 ADD SWAP1 DUP2 MSTORE PUSH1 0x20 ADD PUSH1 0x0 KECCAK256 PUSH1 0x6 ADD PUSH1 0x0 DUP3 DUP3 SLOAD ADD SWAP3 POP POP DUP2 SWAP1 SSTORE POP DUP2 PUSH1 0x6B PUSH1 0x0 DUP4 PUSH20 0xFFFFFFFFFFFFFFFFFFFFFFFFFFFFFFFFFFFFFFFF AND PUSH20 0xFFFFFFFFFFFFFFFFFFFFFFFFFFFFFFFFFFFFFFFF AND DUP2 MSTORE PUSH1 0x20 ADD SWAP1 DUP2 MSTORE PUSH1 0x20 ADD PUSH1 0x0 KECCAK256 PUSH1 0x7 ADD PUSH1 0x0 DUP6 PUSH1 0xFF AND PUSH1 0xFF AND DUP2 MSTORE PUSH1 0x20 ADD SWAP1 DUP2 MSTORE PUSH1 0x20 ADD PUSH1 0x0 KECCAK256 PUSH1 0x4 ADD PUSH1 0x0 DUP3 DUP3 SLOAD ADD SWAP3 POP POP DUP2 SWAP1 SSTORE POP DUP1 PUSH20 0xFFFFFFFFFFFFFFFFFFFFFFFFFFFFFFFFFFFFFFFF AND PUSH32 0x71571CFDF540D399D1A547446D2F4090641FC35AE5BF0FA7148C5368A7D5912E TIMESTAMP PUSH1 0x6B PUSH1 0x0 DUP6 PUSH20 0xFFFFFFFFFFFFFFFFFFFFFFFFFFFFFFFFFFFFFFFF AND PUSH20 0xFFFFFFFFFFFFFFFFFFFFFFFFFFFFFFFFFFFFFFFF AND DUP2 MSTORE PUSH1 0x20 ADD SWAP1 DUP2 MSTORE PUSH1 0x20 ADD PUSH1 0x0 KECCAK256 PUSH1 0x0 ADD SLOAD PUSH1 0x6B PUSH1 0x0 DUP10 PUSH20 0xFFFFFFFFFFFFFFFFFFFFFFFFFFFFFFFFFFFFFFFF AND PUSH20 0xFFFFFFFFFFFFFFFFFFFFFFFFFFFFFFFFFFFFFFFF AND DUP2 MSTORE PUSH1 0x20 ADD SWAP1 DUP2 MSTORE PUSH1 0x20 ADD PUSH1 0x0 KECCAK256 PUSH1 0x0 ADD SLOAD DUP8 DUP8 PUSH1 0x40 MLOAD DUP1 DUP7 DUP2 MSTORE PUSH1 0x20 ADD DUP6 DUP2 MSTORE PUSH1 0x20 ADD DUP5 DUP2 MSTORE PUSH1 0x20 ADD DUP4 PUSH1 0xFF AND DUP2 MSTORE PUSH1 0x20 ADD DUP3 DUP2 MSTORE PUSH1 0x20 ADD SWAP6 POP POP POP POP POP POP PUSH1 0x40 MLOAD DUP1 SWAP2 SUB SWAP1 LOG2 PUSH1 0x66 PUSH1 0x2 SWAP1 SLOAD SWAP1 PUSH2 0x100 EXP SWAP1 DIV PUSH20 0xFFFFFFFFFFFFFFFFFFFFFFFFFFFFFFFFFFFFFFFF AND SWAP1 POP JUMPDEST PUSH1 0x0 DUP2 PUSH20 0xFFFFFFFFFFFFFFFFFFFFFFFFFFFFFFFFFFFFFFFF AND PUSH2 0x8FC DUP5 SWAP1 DUP2 ISZERO MUL SWAP1 PUSH1 0x40 MLOAD PUSH1 0x0 PUSH1 0x40 MLOAD DUP1 DUP4 SUB DUP2 DUP6 DUP9 DUP9 CALL SWAP4 POP POP POP POP SWAP1 POP DUP1 ISZERO PUSH2 0x510B JUMPI DUP3 PUSH1 0x6B PUSH1 0x0 DUP5 PUSH20 0xFFFFFFFFFFFFFFFFFFFFFFFFFFFFFFFFFFFFFFFF AND PUSH20 0xFFFFFFFFFFFFFFFFFFFFFFFFFFFFFFFFFFFFFFFF AND DUP2 MSTORE PUSH1 0x20 ADD SWAP1 DUP2 MSTORE PUSH1 0x20 ADD PUSH1 0x0 KECCAK256 PUSH1 0x7 ADD PUSH1 0x0 DUP7 PUSH1 0xFF AND PUSH1 0xFF AND DUP2 MSTORE PUSH1 0x20 ADD SWAP1 DUP2 MSTORE PUSH1 0x20 ADD PUSH1 0x0 KECCAK256 PUSH1 0x2 ADD PUSH1 0x0 DUP3 DUP3 SLOAD ADD SWAP3 POP POP DUP2 SWAP1 SSTORE POP DUP3 PUSH1 0x6B PUSH1 0x0 DUP5 PUSH20 0xFFFFFFFFFFFFFFFFFFFFFFFFFFFFFFFFFFFFFFFF AND PUSH20 0xFFFFFFFFFFFFFFFFFFFFFFFFFFFFFFFFFFFFFFFF AND DUP2 MSTORE PUSH1 0x20 ADD SWAP1 DUP2 MSTORE PUSH1 0x20 ADD PUSH1 0x0 KECCAK256 PUSH1 0x4 ADD PUSH1 0x0 DUP3 DUP3 SLOAD ADD SWAP3 POP POP DUP2 SWAP1 SSTORE POP DUP2 PUSH20 0xFFFFFFFFFFFFFFFFFFFFFFFFFFFFFFFFFFFFFFFF AND PUSH32 0xADBEAD61ED0E78434AF1793FE9C549F995680CCC1D4CC2015E78BFFC67B7B181 TIMESTAMP PUSH1 0x6B PUSH1 0x0 DUP7 PUSH20 0xFFFFFFFFFFFFFFFFFFFFFFFFFFFFFFFFFFFFFFFF AND PUSH20 0xFFFFFFFFFFFFFFFFFFFFFFFFFFFFFFFFFFFFFFFF AND DUP2 MSTORE PUSH1 0x20 ADD SWAP1 DUP2 MSTORE PUSH1 0x20 ADD PUSH1 0x0 KECCAK256 PUSH1 0x0 ADD SLOAD PUSH1 0x6B PUSH1 0x0 DUP11 PUSH20 0xFFFFFFFFFFFFFFFFFFFFFFFFFFFFFFFFFFFFFFFF AND PUSH20 0xFFFFFFFFFFFFFFFFFFFFFFFFFFFFFFFFFFFFFFFF AND DUP2 MSTORE PUSH1 0x20 ADD SWAP1 DUP2 MSTORE PUSH1 0x20 ADD PUSH1 0x0 KECCAK256 PUSH1 0x0 ADD SLOAD DUP9 DUP9 PUSH1 0x40 MLOAD DUP1 DUP7 DUP2 MSTORE PUSH1 0x20 ADD DUP6 DUP2 MSTORE PUSH1 0x20 ADD DUP5 DUP2 MSTORE PUSH1 0x20 ADD DUP4 PUSH1 0xFF AND DUP2 MSTORE PUSH1 0x20 ADD DUP3 DUP2 MSTORE PUSH1 0x20 ADD SWAP6 POP POP POP POP POP POP PUSH1 0x40 MLOAD DUP1 SWAP2 SUB SWAP1 LOG2 PUSH2 0x5175 JUMP JUMPDEST PUSH1 0x66 PUSH1 0x2 SWAP1 SLOAD SWAP1 PUSH2 0x100 EXP SWAP1 DIV PUSH20 0xFFFFFFFFFFFFFFFFFFFFFFFFFFFFFFFFFFFFFFFF AND PUSH20 0xFFFFFFFFFFFFFFFFFFFFFFFFFFFFFFFFFFFFFFFF AND PUSH2 0x8FC DUP5 SWAP1 DUP2 ISZERO MUL SWAP1 PUSH1 0x40 MLOAD PUSH1 0x0 PUSH1 0x40 MLOAD DUP1 DUP4 SUB DUP2 DUP6 DUP9 DUP9 CALL SWAP4 POP POP POP POP ISZERO DUP1 ISZERO PUSH2 0x5173 JUMPI RETURNDATASIZE PUSH1 0x0 DUP1 RETURNDATACOPY RETURNDATASIZE PUSH1 0x0 REVERT JUMPDEST POP JUMPDEST POP POP POP POP POP JUMP JUMPDEST PUSH1 0x40 MLOAD DUP1 PUSH1 0xA0 ADD PUSH1 0x40 MSTORE DUP1 PUSH1 0x5 SWAP1 PUSH1 0x20 DUP3 MUL DUP1 CALLDATASIZE DUP4 CALLDATACOPY DUP1 DUP3 ADD SWAP2 POP POP SWAP1 POP POP SWAP1 JUMP JUMPDEST PUSH1 0x40 MLOAD DUP1 PUSH2 0x200 ADD PUSH1 0x40 MSTORE DUP1 PUSH1 0x10 SWAP1 PUSH1 0x20 DUP3 MUL DUP1 CALLDATASIZE DUP4 CALLDATACOPY DUP1 DUP3 ADD SWAP2 POP POP SWAP1 POP POP SWAP1 JUMP JUMPDEST PUSH1 0x40 MLOAD DUP1 PUSH2 0x120 ADD PUSH1 0x40 MSTORE DUP1 PUSH1 0x0 DUP2 MSTORE PUSH1 0x20 ADD PUSH1 0x0 DUP2 MSTORE PUSH1 0x20 ADD PUSH1 0x0 PUSH20 0xFFFFFFFFFFFFFFFFFFFFFFFFFFFFFFFFFFFFFFFF AND DUP2 MSTORE PUSH1 0x20 ADD PUSH1 0x0 DUP2 MSTORE PUSH1 0x20 ADD PUSH1 0x0 DUP2 MSTORE PUSH1 0x20 ADD PUSH1 0x0 DUP2 MSTORE PUSH1 0x20 ADD PUSH1 0x0 DUP2 MSTORE PUSH1 0x20 ADD PUSH1 0x0 PUSH1 0xFF AND DUP2 MSTORE PUSH1 0x20 ADD PUSH1 0x0 DUP2 MSTORE POP SWAP1 JUMP JUMPDEST PUSH1 0x40 MLOAD DUP1 PUSH2 0x640 ADD PUSH1 0x40 MSTORE DUP1 PUSH1 0x32 SWAP1 PUSH1 0x20 DUP3 MUL DUP1 CALLDATASIZE DUP4 CALLDATACOPY DUP1 DUP3 ADD SWAP2 POP POP SWAP1 POP POP SWAP1 JUMP INVALID NUMBER PUSH2 0x6E27 PUSH21 0x2066696E6420726F756E6420746F206275792E204D PUSH2 0x7962 PUSH6 0x2073656E7420 PUSH23 0x616C756520697320696E76616C69642EA2646970667358 0x22 SLT KECCAK256 0xDC 0x4F DUP5 0xEB PUSH24 0x5D6D685952AE65078EC038754312C4B076FB8FC7BC2F8575 0x5F 0xB2 PUSH26 0x64736F6C634300060C0033000000000000000000000000000000 "
				},
				"gasEstimates": {
					"creation": {
						"codeDepositCost": "4234400",
						"executionCost": "infinite",
						"totalCost": "infinite"
					},
					"external": {
						"Lottery(uint256)": "infinite",
						"RoiRounds(uint256)": "1175",
						"buyFirstRound(address)": "infinite",
						"buyround(uint8)": "infinite",
						"calcSecretPrize(uint8)": "infinite",
						"getContractBalance()": "305",
						"getGlobalStatistic()": "infinite",
						"getLotteryWiner()": "infinite",
						"getPlaceInQueue(address,uint8)": "infinite",
						"getPrize()": "infinite",
						"getReferrer(address)": "2343",
						"getReferrerId(address)": "2280",
						"getRoiRound()": "infinite",
						"getUser(address)": "9543",
						"getUserAddressById(uint256)": "1265",
						"getUserIdByAddress(address)": "1314",
						"getUserrounds(address)": "infinite",
						"getUserroundsMissedProfit(address)": "infinite",
						"getroundPrices()": "infinite",
						"gettimeRoundEnd()": "infinite",
						"income()": "254",
						"isContract(address)": "1109",
						"isUserRegistered(address)": "1308",
						"lastTimeActivation(address)": "1258",
						"marketing()": "1093",
						"marketingPercents()": "343",
						"nextWinerSecretGame(uint256)": "1250",
						"owner()": "1186",
						"referralRewardPercents()": "1092",
						"referralRewardProfitPercents()": "1142",
						"register()": "infinite",
						"registerWithReferrer(address)": "infinite",
						"registrationPrice()": "251",
						"rewardPayouts()": "345",
						"rewardPercents()": "255",
						"roundPrice(uint256)": "2113",
						"timeLottery()": "1117",
						"timeRoudsEnd(uint256)": "1240",
						"todayWiner(uint256)": "1295",
						"todayWinerValue()": "1159",
						"users(address)": "7990"
					},
					"internal": {
						"sendPostRewardToReferrer(address,uint8,uint256)": "infinite",
						"sendRewardToReferrer(address,uint8,uint256)": "infinite"
					}
				},
				"methodIdentifiers": {
					"Lottery(uint256)": "950fabf3",
					"RoiRounds(uint256)": "693864f3",
					"buyFirstRound(address)": "b3791e7f",
					"buyround(uint8)": "5a8a14d0",
					"calcSecretPrize(uint8)": "375e3b55",
					"getContractBalance()": "6f9fb98a",
					"getGlobalStatistic()": "2a2c908e",
					"getLotteryWiner()": "8c4636c1",
					"getPlaceInQueue(address,uint8)": "cfce5044",
					"getPrize()": "c34f6b0d",
					"getReferrer(address)": "4a9fefc7",
					"getReferrerId(address)": "bd4b77ee",
					"getRoiRound()": "c8e161a1",
					"getUser(address)": "6f77926b",
					"getUserAddressById(uint256)": "8a03ad86",
					"getUserIdByAddress(address)": "385399f9",
					"getUserrounds(address)": "230f7f82",
					"getUserroundsMissedProfit(address)": "5c279ff9",
					"getroundPrices()": "01b91a17",
					"gettimeRoundEnd()": "3336b63e",
					"income()": "88b45046",
					"isContract(address)": "16279055",
					"isUserRegistered(address)": "163f7522",
					"lastTimeActivation(address)": "a9a9cfe0",
					"marketing()": "2d3e474a",
					"marketingPercents()": "eca2c026",
					"nextWinerSecretGame(uint256)": "26efd443",
					"owner()": "8da5cb5b",
					"referralRewardPercents()": "4cdbe908",
					"referralRewardProfitPercents()": "a7345f56",
					"register()": "1aa3a008",
					"registerWithReferrer(address)": "968763a0",
					"registrationPrice()": "21658658",
					"rewardPayouts()": "2cc8da43",
					"rewardPercents()": "bfe24893",
					"roundPrice(uint256)": "5d7b1cc9",
					"timeLottery()": "7ccd94da",
					"timeRoudsEnd(uint256)": "5ce974b9",
					"todayWiner(uint256)": "1dfd8fe0",
					"todayWinerValue()": "f21efb5b",
					"users(address)": "a87430ba"
				}
			},
			"storageLayout": {
				"storage": [
					{
						"astId": 9,
						"contract": "contract/lottery.sol:LotteryWCA",
						"label": "_status",
						"offset": 0,
						"slot": "0",
						"type": "t_uint256"
					},
					{
						"astId": 43,
						"contract": "contract/lottery.sol:LotteryWCA",
						"label": "todayWiner",
						"offset": 0,
						"slot": "1",
						"type": "t_array(t_address)50_storage"
					},
					{
						"astId": 45,
						"contract": "contract/lottery.sol:LotteryWCA",
						"label": "todayWinerValue",
						"offset": 0,
						"slot": "51",
						"type": "t_uint256"
					},
					{
						"astId": 47,
						"contract": "contract/lottery.sol:LotteryWCA",
						"label": "timeLottery",
						"offset": 0,
						"slot": "52",
						"type": "t_uint256"
					},
					{
						"astId": 51,
						"contract": "contract/lottery.sol:LotteryWCA",
						"label": "RoiRounds",
						"offset": 0,
						"slot": "53",
						"type": "t_array(t_uint256)16_storage"
					},
					{
						"astId": 55,
						"contract": "contract/lottery.sol:LotteryWCA",
						"label": "timeRoudsEnd",
						"offset": 0,
						"slot": "69",
						"type": "t_array(t_uint256)16_storage"
					},
					{
						"astId": 59,
						"contract": "contract/lottery.sol:LotteryWCA",
						"label": "nextWinerSecretGame",
						"offset": 0,
						"slot": "85",
						"type": "t_array(t_address)16_storage"
					},
					{
						"astId": 63,
						"contract": "contract/lottery.sol:LotteryWCA",
						"label": "lastTimeActivation",
						"offset": 0,
						"slot": "101",
						"type": "t_mapping(t_address,t_uint256)"
					},
					{
						"astId": 269,
						"contract": "contract/lottery.sol:LotteryWCA",
						"label": "referralRewardPercents",
						"offset": 0,
						"slot": "102",
						"type": "t_uint8"
					},
					{
						"astId": 272,
						"contract": "contract/lottery.sol:LotteryWCA",
						"label": "referralRewardProfitPercents",
						"offset": 1,
						"slot": "102",
						"type": "t_uint8"
					},
					{
						"astId": 274,
						"contract": "contract/lottery.sol:LotteryWCA",
						"label": "owner",
						"offset": 2,
						"slot": "102",
						"type": "t_address_payable"
					},
					{
						"astId": 276,
						"contract": "contract/lottery.sol:LotteryWCA",
						"label": "marketing",
						"offset": 0,
						"slot": "103",
						"type": "t_address_payable"
					},
					{
						"astId": 296,
						"contract": "contract/lottery.sol:LotteryWCA",
						"label": "roundPrice",
						"offset": 0,
						"slot": "104",
						"type": "t_array(t_uint256)dyn_storage"
					},
					{
						"astId": 302,
						"contract": "contract/lottery.sol:LotteryWCA",
						"label": "totalrounds",
						"offset": 0,
						"slot": "105",
						"type": "t_uint256"
					},
					{
						"astId": 305,
						"contract": "contract/lottery.sol:LotteryWCA",
						"label": "newUserId",
						"offset": 0,
						"slot": "106",
						"type": "t_uint256"
					},
					{
						"astId": 309,
						"contract": "contract/lottery.sol:LotteryWCA",
						"label": "users",
						"offset": 0,
						"slot": "107",
						"type": "t_mapping(t_address,t_struct(User)86_storage)"
					},
					{
						"astId": 313,
						"contract": "contract/lottery.sol:LotteryWCA",
						"label": "usersAddressById",
						"offset": 0,
						"slot": "108",
						"type": "t_mapping(t_uint256,t_address)"
					},
					{
						"astId": 318,
						"contract": "contract/lottery.sol:LotteryWCA",
						"label": "roundQueue",
						"offset": 0,
						"slot": "109",
						"type": "t_mapping(t_uint8,t_array(t_address)dyn_storage)"
					},
					{
						"astId": 322,
						"contract": "contract/lottery.sol:LotteryWCA",
						"label": "headIndex",
						"offset": 0,
						"slot": "110",
						"type": "t_mapping(t_uint8,t_uint256)"
					},
					{
						"astId": 324,
						"contract": "contract/lottery.sol:LotteryWCA",
						"label": "globalStat",
						"offset": 0,
						"slot": "111",
						"type": "t_struct(GlobalStat)114_storage"
					}
				],
				"types": {
					"t_address": {
						"encoding": "inplace",
						"label": "address",
						"numberOfBytes": "20"
					},
					"t_address_payable": {
						"encoding": "inplace",
						"label": "address payable",
						"numberOfBytes": "20"
					},
					"t_array(t_address)16_storage": {
						"base": "t_address",
						"encoding": "inplace",
						"label": "address[16]",
						"numberOfBytes": "512"
					},
					"t_array(t_address)50_storage": {
						"base": "t_address",
						"encoding": "inplace",
						"label": "address[50]",
						"numberOfBytes": "1600"
					},
					"t_array(t_address)dyn_storage": {
						"base": "t_address",
						"encoding": "dynamic_array",
						"label": "address[]",
						"numberOfBytes": "32"
					},
					"t_array(t_uint256)16_storage": {
						"base": "t_uint256",
						"encoding": "inplace",
						"label": "uint256[16]",
						"numberOfBytes": "512"
					},
					"t_array(t_uint256)dyn_storage": {
						"base": "t_uint256",
						"encoding": "dynamic_array",
						"label": "uint256[]",
						"numberOfBytes": "32"
					},
					"t_bool": {
						"encoding": "inplace",
						"label": "bool",
						"numberOfBytes": "1"
					},
					"t_mapping(t_address,t_struct(User)86_storage)": {
						"encoding": "mapping",
						"key": "t_address",
						"label": "mapping(address => struct LotteryWCA.User)",
						"numberOfBytes": "32",
						"value": "t_struct(User)86_storage"
					},
					"t_mapping(t_address,t_uint256)": {
						"encoding": "mapping",
						"key": "t_address",
						"label": "mapping(address => uint256)",
						"numberOfBytes": "32",
						"value": "t_uint256"
					},
					"t_mapping(t_uint256,t_address)": {
						"encoding": "mapping",
						"key": "t_uint256",
						"label": "mapping(uint256 => address)",
						"numberOfBytes": "32",
						"value": "t_address"
					},
					"t_mapping(t_uint8,t_array(t_address)dyn_storage)": {
						"encoding": "mapping",
						"key": "t_uint8",
						"label": "mapping(uint8 => address[])",
						"numberOfBytes": "32",
						"value": "t_array(t_address)dyn_storage"
					},
					"t_mapping(t_uint8,t_struct(UserroundInfo)105_storage)": {
						"encoding": "mapping",
						"key": "t_uint8",
						"label": "mapping(uint8 => struct LotteryWCA.UserroundInfo)",
						"numberOfBytes": "32",
						"value": "t_struct(UserroundInfo)105_storage"
					},
					"t_mapping(t_uint8,t_uint256)": {
						"encoding": "mapping",
						"key": "t_uint8",
						"label": "mapping(uint8 => uint256)",
						"numberOfBytes": "32",
						"value": "t_uint256"
					},
					"t_struct(GlobalStat)114_storage": {
						"encoding": "inplace",
						"label": "struct LotteryWCA.GlobalStat",
						"members": [
							{
								"astId": 107,
								"contract": "contract/lottery.sol:LotteryWCA",
								"label": "members",
								"offset": 0,
								"slot": "0",
								"type": "t_uint256"
							},
							{
								"astId": 109,
								"contract": "contract/lottery.sol:LotteryWCA",
								"label": "transactions",
								"offset": 0,
								"slot": "1",
								"type": "t_uint256"
							},
							{
								"astId": 111,
								"contract": "contract/lottery.sol:LotteryWCA",
								"label": "turnover",
								"offset": 0,
								"slot": "2",
								"type": "t_uint256"
							},
							{
								"astId": 113,
								"contract": "contract/lottery.sol:LotteryWCA",
								"label": "lucky",
								"offset": 0,
								"slot": "3",
								"type": "t_uint256"
							}
						],
						"numberOfBytes": "128"
					},
					"t_struct(User)86_storage": {
						"encoding": "inplace",
						"label": "struct LotteryWCA.User",
						"members": [
							{
								"astId": 65,
								"contract": "contract/lottery.sol:LotteryWCA",
								"label": "id",
								"offset": 0,
								"slot": "0",
								"type": "t_uint256"
							},
							{
								"astId": 67,
								"contract": "contract/lottery.sol:LotteryWCA",
								"label": "registrationTimestamp",
								"offset": 0,
								"slot": "1",
								"type": "t_uint256"
							},
							{
								"astId": 69,
								"contract": "contract/lottery.sol:LotteryWCA",
								"label": "referrer",
								"offset": 0,
								"slot": "2",
								"type": "t_address"
							},
							{
								"astId": 71,
								"contract": "contract/lottery.sol:LotteryWCA",
								"label": "referrals",
								"offset": 0,
								"slot": "3",
								"type": "t_uint256"
							},
							{
								"astId": 73,
								"contract": "contract/lottery.sol:LotteryWCA",
								"label": "referralPayoutSum",
								"offset": 0,
								"slot": "4",
								"type": "t_uint256"
							},
							{
								"astId": 75,
								"contract": "contract/lottery.sol:LotteryWCA",
								"label": "roundsRewardSum",
								"offset": 0,
								"slot": "5",
								"type": "t_uint256"
							},
							{
								"astId": 77,
								"contract": "contract/lottery.sol:LotteryWCA",
								"label": "missedReferralPayoutSum",
								"offset": 0,
								"slot": "6",
								"type": "t_uint256"
							},
							{
								"astId": 81,
								"contract": "contract/lottery.sol:LotteryWCA",
								"label": "rounds",
								"offset": 0,
								"slot": "7",
								"type": "t_mapping(t_uint8,t_struct(UserroundInfo)105_storage)"
							},
							{
								"astId": 83,
								"contract": "contract/lottery.sol:LotteryWCA",
								"label": "maxRound",
								"offset": 0,
								"slot": "8",
								"type": "t_uint8"
							},
							{
								"astId": 85,
								"contract": "contract/lottery.sol:LotteryWCA",
								"label": "turnover",
								"offset": 0,
								"slot": "9",
								"type": "t_uint256"
							}
						],
						"numberOfBytes": "320"
					},
					"t_struct(UserroundInfo)105_storage": {
						"encoding": "inplace",
						"label": "struct LotteryWCA.UserroundInfo",
						"members": [
							{
								"astId": 88,
								"contract": "contract/lottery.sol:LotteryWCA",
								"label": "activationTimes",
								"offset": 0,
								"slot": "0",
								"type": "t_uint16"
							},
							{
								"astId": 90,
								"contract": "contract/lottery.sol:LotteryWCA",
								"label": "maxPayouts",
								"offset": 2,
								"slot": "0",
								"type": "t_uint16"
							},
							{
								"astId": 92,
								"contract": "contract/lottery.sol:LotteryWCA",
								"label": "payouts",
								"offset": 4,
								"slot": "0",
								"type": "t_uint16"
							},
							{
								"astId": 94,
								"contract": "contract/lottery.sol:LotteryWCA",
								"label": "active",
								"offset": 6,
								"slot": "0",
								"type": "t_bool"
							},
							{
								"astId": 96,
								"contract": "contract/lottery.sol:LotteryWCA",
								"label": "rewardSum",
								"offset": 0,
								"slot": "1",
								"type": "t_uint256"
							},
							{
								"astId": 98,
								"contract": "contract/lottery.sol:LotteryWCA",
								"label": "referralPayoutSum",
								"offset": 0,
								"slot": "2",
								"type": "t_uint256"
							},
							{
								"astId": 100,
								"contract": "contract/lottery.sol:LotteryWCA",
								"label": "lastTimeBuyround",
								"offset": 0,
								"slot": "3",
								"type": "t_uint256"
							},
							{
								"astId": 102,
								"contract": "contract/lottery.sol:LotteryWCA",
								"label": "missedRefferalProfit",
								"offset": 0,
								"slot": "4",
								"type": "t_uint256"
							},
							{
								"astId": 104,
								"contract": "contract/lottery.sol:LotteryWCA",
								"label": "missedRefferalPostProfit",
								"offset": 0,
								"slot": "5",
								"type": "t_uint256"
							}
						],
						"numberOfBytes": "192"
					},
					"t_uint16": {
						"encoding": "inplace",
						"label": "uint16",
						"numberOfBytes": "2"
					},
					"t_uint256": {
						"encoding": "inplace",
						"label": "uint256",
						"numberOfBytes": "32"
					},
					"t_uint8": {
						"encoding": "inplace",
						"label": "uint8",
						"numberOfBytes": "1"
					}
				}
			},
			"userdoc": {
				"kind": "user",
				"methods": {},
				"version": 1
			}
		}
	}
}