{
	"contract/lottery.sol": {
		"LotteryWCA": {
			"abi": [
				{
					"inputs": [
						{
							"internalType": "address payable",
							"name": "_marketing",
							"type": "address"
						}
					],
					"stateMutability": "nonpayable",
					"type": "constructor"
				},
				{
					"anonymous": false,
					"inputs": [
						{
							"indexed": false,
							"internalType": "uint256",
							"name": "time",
							"type": "uint256"
						},
						{
							"indexed": true,
							"internalType": "address",
							"name": "adress",
							"type": "address"
						},
						{
							"indexed": false,
							"internalType": "uint256",
							"name": "userId",
							"type": "uint256"
						},
						{
							"indexed": false,
							"internalType": "uint8",
							"name": "round",
							"type": "uint8"
						}
					],
					"name": "Buyround",
					"type": "event"
				},
				{
					"anonymous": false,
					"inputs": [
						{
							"indexed": false,
							"internalType": "uint256",
							"name": "time",
							"type": "uint256"
						},
						{
							"indexed": true,
							"internalType": "address",
							"name": "adress",
							"type": "address"
						},
						{
							"indexed": false,
							"internalType": "uint256",
							"name": "userId",
							"type": "uint256"
						},
						{
							"indexed": false,
							"internalType": "uint8",
							"name": "round",
							"type": "uint8"
						},
						{
							"indexed": false,
							"internalType": "uint16",
							"name": "newMaxPayouts",
							"type": "uint16"
						}
					],
					"name": "IncreaseroundMaxPayouts",
					"type": "event"
				},
				{
					"anonymous": false,
					"inputs": [
						{
							"indexed": false,
							"internalType": "uint256",
							"name": "time",
							"type": "uint256"
						},
						{
							"indexed": true,
							"internalType": "address",
							"name": "adress",
							"type": "address"
						},
						{
							"indexed": false,
							"internalType": "uint256",
							"name": "referrerId",
							"type": "uint256"
						},
						{
							"indexed": false,
							"internalType": "uint256",
							"name": "referralId",
							"type": "uint256"
						},
						{
							"indexed": false,
							"internalType": "uint8",
							"name": "round",
							"type": "uint8"
						},
						{
							"indexed": false,
							"internalType": "uint256",
							"name": "rewardValue",
							"type": "uint256"
						}
					],
					"name": "MissedReferralPayout",
					"type": "event"
				},
				{
					"anonymous": false,
					"inputs": [
						{
							"indexed": false,
							"internalType": "uint256",
							"name": "time",
							"type": "uint256"
						},
						{
							"indexed": true,
							"internalType": "address",
							"name": "adress",
							"type": "address"
						},
						{
							"indexed": false,
							"internalType": "uint256",
							"name": "referrerId",
							"type": "uint256"
						},
						{
							"indexed": false,
							"internalType": "uint256",
							"name": "referralId",
							"type": "uint256"
						},
						{
							"indexed": false,
							"internalType": "uint8",
							"name": "round",
							"type": "uint8"
						},
						{
							"indexed": false,
							"internalType": "uint256",
							"name": "rewardValue",
							"type": "uint256"
						}
					],
					"name": "MissedReferralPostPayout",
					"type": "event"
				},
				{
					"anonymous": false,
					"inputs": [
						{
							"indexed": false,
							"internalType": "uint256",
							"name": "time",
							"type": "uint256"
						},
						{
							"indexed": true,
							"internalType": "address",
							"name": "adress",
							"type": "address"
						},
						{
							"indexed": false,
							"internalType": "uint256",
							"name": "referrerId",
							"type": "uint256"
						},
						{
							"indexed": false,
							"internalType": "uint256",
							"name": "referralId",
							"type": "uint256"
						},
						{
							"indexed": false,
							"internalType": "uint8",
							"name": "round",
							"type": "uint8"
						},
						{
							"indexed": false,
							"internalType": "uint256",
							"name": "rewardValue",
							"type": "uint256"
						}
					],
					"name": "ReferralPayout",
					"type": "event"
				},
				{
					"anonymous": false,
					"inputs": [
						{
							"indexed": false,
							"internalType": "uint256",
							"name": "time",
							"type": "uint256"
						},
						{
							"indexed": true,
							"internalType": "address",
							"name": "adress",
							"type": "address"
						},
						{
							"indexed": false,
							"internalType": "uint256",
							"name": "referrerId",
							"type": "uint256"
						},
						{
							"indexed": false,
							"internalType": "uint256",
							"name": "referralId",
							"type": "uint256"
						},
						{
							"indexed": false,
							"internalType": "uint8",
							"name": "round",
							"type": "uint8"
						},
						{
							"indexed": false,
							"internalType": "uint256",
							"name": "rewardValue",
							"type": "uint256"
						}
					],
					"name": "ReferralPostPayout",
					"type": "event"
				},
				{
					"anonymous": false,
					"inputs": [
						{
							"indexed": false,
							"internalType": "uint256",
							"name": "time",
							"type": "uint256"
						},
						{
							"indexed": true,
							"internalType": "address",
							"name": "adress",
							"type": "address"
						},
						{
							"indexed": false,
							"internalType": "uint256",
							"name": "referralId",
							"type": "uint256"
						},
						{
							"indexed": false,
							"internalType": "uint256",
							"name": "referrerId",
							"type": "uint256"
						}
					],
					"name": "UserRegistration",
					"type": "event"
				},
				{
					"anonymous": false,
					"inputs": [
						{
							"indexed": false,
							"internalType": "uint256",
							"name": "time",
							"type": "uint256"
						},
						{
							"indexed": true,
							"internalType": "address",
							"name": "WinerSecretGame",
							"type": "address"
						},
						{
							"indexed": false,
							"internalType": "uint8",
							"name": "round",
							"type": "uint8"
						},
						{
							"indexed": false,
							"internalType": "uint256",
							"name": "valueSecretPrize",
							"type": "uint256"
						}
					],
					"name": "WinerForeverGame",
					"type": "event"
				},
				{
					"anonymous": false,
					"inputs": [
						{
							"indexed": false,
							"internalType": "uint256",
							"name": "time",
							"type": "uint256"
						},
						{
							"indexed": true,
							"internalType": "address",
							"name": "payedUser",
							"type": "address"
						},
						{
							"indexed": false,
							"internalType": "uint256",
							"name": "payPrize",
							"type": "uint256"
						}
					],
					"name": "payedPrize",
					"type": "event"
				},
				{
					"anonymous": false,
					"inputs": [
						{
							"indexed": false,
							"internalType": "uint256",
							"name": "time",
							"type": "uint256"
						},
						{
							"indexed": true,
							"internalType": "address",
							"name": "adress",
							"type": "address"
						},
						{
							"indexed": false,
							"internalType": "uint256",
							"name": "userId",
							"type": "uint256"
						},
						{
							"indexed": false,
							"internalType": "uint8",
							"name": "round",
							"type": "uint8"
						}
					],
					"name": "roundDeactivation",
					"type": "event"
				},
				{
					"anonymous": false,
					"inputs": [
						{
							"indexed": false,
							"internalType": "uint256",
							"name": "time",
							"type": "uint256"
						},
						{
							"indexed": true,
							"internalType": "address",
							"name": "adress",
							"type": "address"
						},
						{
							"indexed": false,
							"internalType": "uint256",
							"name": "userId",
							"type": "uint256"
						},
						{
							"indexed": false,
							"internalType": "uint8",
							"name": "round",
							"type": "uint8"
						},
						{
							"indexed": false,
							"internalType": "uint256",
							"name": "rewardValue",
							"type": "uint256"
						},
						{
							"indexed": false,
							"internalType": "uint256",
							"name": "fromUserId",
							"type": "uint256"
						},
						{
							"indexed": false,
							"internalType": "uint256",
							"name": "RoiRound",
							"type": "uint256"
						}
					],
					"name": "roundPayout",
					"type": "event"
				},
				{
					"anonymous": false,
					"inputs": [
						{
							"indexed": false,
							"internalType": "uint256",
							"name": "time",
							"type": "uint256"
						},
						{
							"indexed": true,
							"internalType": "address",
							"name": "win",
							"type": "address"
						},
						{
							"indexed": false,
							"internalType": "uint256",
							"name": "winPrize",
							"type": "uint256"
						}
					],
					"name": "winLottery",
					"type": "event"
				},
				{
					"inputs": [
						{
							"internalType": "uint256",
							"name": "ticket",
							"type": "uint256"
						}
					],
					"name": "Lottery",
					"outputs": [],
					"stateMutability": "nonpayable",
					"type": "function"
				},
				{
					"inputs": [
						{
							"internalType": "uint256",
							"name": "",
							"type": "uint256"
						}
					],
					"name": "RoiRounds",
					"outputs": [
						{
							"internalType": "uint256",
							"name": "",
							"type": "uint256"
						}
					],
					"stateMutability": "view",
					"type": "function"
				},
				{
					"inputs": [
						{
							"internalType": "address",
							"name": "referrer",
							"type": "address"
						}
					],
					"name": "buyFirstRound",
					"outputs": [],
					"stateMutability": "payable",
					"type": "function"
				},
				{
					"inputs": [
						{
							"internalType": "uint8",
							"name": "round",
							"type": "uint8"
						}
					],
					"name": "buyround",
					"outputs": [],
					"stateMutability": "payable",
					"type": "function"
				},
				{
					"inputs": [
						{
							"internalType": "uint8",
							"name": "round",
							"type": "uint8"
						}
					],
					"name": "calcSecretPrize",
					"outputs": [
						{
							"internalType": "uint256",
							"name": "value",
							"type": "uint256"
						}
					],
					"stateMutability": "view",
					"type": "function"
				},
				{
					"inputs": [],
					"name": "getContractBalance",
					"outputs": [
						{
							"internalType": "uint256",
							"name": "",
							"type": "uint256"
						}
					],
					"stateMutability": "view",
					"type": "function"
				},
				{
					"inputs": [],
					"name": "getGlobalStatistic",
					"outputs": [
						{
							"internalType": "uint256[5]",
							"name": "result",
							"type": "uint256[5]"
						}
					],
					"stateMutability": "view",
					"type": "function"
				},
				{
					"inputs": [],
					"name": "getLotteryWiner",
					"outputs": [
						{
							"internalType": "address[50]",
							"name": "",
							"type": "address[50]"
						}
					],
					"stateMutability": "view",
					"type": "function"
				},
				{
					"inputs": [
						{
							"internalType": "address",
							"name": "userAddress",
							"type": "address"
						},
						{
							"internalType": "uint8",
							"name": "round",
							"type": "uint8"
						}
					],
					"name": "getPlaceInQueue",
					"outputs": [
						{
							"internalType": "uint256",
							"name": "",
							"type": "uint256"
						},
						{
							"internalType": "uint256",
							"name": "",
							"type": "uint256"
						}
					],
					"stateMutability": "view",
					"type": "function"
				},
				{
					"inputs": [],
					"name": "getPrize",
					"outputs": [],
					"stateMutability": "nonpayable",
					"type": "function"
				},
				{
					"inputs": [
						{
							"internalType": "address",
							"name": "userAddress",
							"type": "address"
						}
					],
					"name": "getReferrer",
					"outputs": [
						{
							"internalType": "address",
							"name": "",
							"type": "address"
						}
					],
					"stateMutability": "view",
					"type": "function"
				},
				{
					"inputs": [
						{
							"internalType": "address",
							"name": "userAddress",
							"type": "address"
						}
					],
					"name": "getReferrerId",
					"outputs": [
						{
							"internalType": "uint256",
							"name": "",
							"type": "uint256"
						}
					],
					"stateMutability": "view",
					"type": "function"
				},
				{
					"inputs": [],
					"name": "getRoiRound",
					"outputs": [
						{
							"internalType": "uint256[16]",
							"name": "",
							"type": "uint256[16]"
						}
					],
					"stateMutability": "view",
					"type": "function"
				},
				{
					"inputs": [
						{
							"internalType": "address",
							"name": "userAddress",
							"type": "address"
						}
					],
					"name": "getUser",
					"outputs": [
						{
							"internalType": "uint256",
							"name": "",
							"type": "uint256"
						},
						{
							"internalType": "uint256",
							"name": "",
							"type": "uint256"
						},
						{
							"internalType": "uint256",
							"name": "",
							"type": "uint256"
						},
						{
							"internalType": "address",
							"name": "",
							"type": "address"
						},
						{
							"internalType": "uint256",
							"name": "",
							"type": "uint256"
						},
						{
							"internalType": "uint256",
							"name": "",
							"type": "uint256"
						},
						{
							"internalType": "uint256",
							"name": "",
							"type": "uint256"
						},
						{
							"internalType": "uint256",
							"name": "",
							"type": "uint256"
						},
						{
							"internalType": "uint256",
							"name": "",
							"type": "uint256"
						},
						{
							"internalType": "uint256",
							"name": "",
							"type": "uint256"
						}
					],
					"stateMutability": "view",
					"type": "function"
				},
				{
					"inputs": [
						{
							"internalType": "uint256",
							"name": "userId",
							"type": "uint256"
						}
					],
					"name": "getUserAddressById",
					"outputs": [
						{
							"internalType": "address",
							"name": "",
							"type": "address"
						}
					],
					"stateMutability": "view",
					"type": "function"
				},
				{
					"inputs": [
						{
							"internalType": "address",
							"name": "userAddress",
							"type": "address"
						}
					],
					"name": "getUserIdByAddress",
					"outputs": [
						{
							"internalType": "uint256",
							"name": "",
							"type": "uint256"
						}
					],
					"stateMutability": "view",
					"type": "function"
				},
				{
					"inputs": [
						{
							"internalType": "address",
							"name": "userAddress",
							"type": "address"
						}
					],
					"name": "getUserrounds",
					"outputs": [
						{
							"internalType": "bool[]",
							"name": "",
							"type": "bool[]"
						},
						{
							"internalType": "uint16[]",
							"name": "",
							"type": "uint16[]"
						},
						{
							"internalType": "uint16[]",
							"name": "",
							"type": "uint16[]"
						},
						{
							"internalType": "uint16[]",
							"name": "",
							"type": "uint16[]"
						},
						{
							"internalType": "uint256[]",
							"name": "",
							"type": "uint256[]"
						},
						{
							"internalType": "uint256[]",
							"name": "",
							"type": "uint256[]"
						}
					],
					"stateMutability": "view",
					"type": "function"
				},
				{
					"inputs": [
						{
							"internalType": "address",
							"name": "userAddress",
							"type": "address"
						}
					],
					"name": "getUserroundsMissedProfit",
					"outputs": [
						{
							"internalType": "uint256[]",
							"name": "",
							"type": "uint256[]"
						},
						{
							"internalType": "uint256[]",
							"name": "",
							"type": "uint256[]"
						}
					],
					"stateMutability": "view",
					"type": "function"
				},
				{
					"inputs": [],
					"name": "getroundPrices",
					"outputs": [
						{
							"internalType": "uint256[]",
							"name": "",
							"type": "uint256[]"
						}
					],
					"stateMutability": "view",
					"type": "function"
				},
				{
					"inputs": [],
					"name": "gettimeRoundEnd",
					"outputs": [
						{
							"internalType": "uint256[16]",
							"name": "",
							"type": "uint256[16]"
						}
					],
					"stateMutability": "view",
					"type": "function"
				},
				{
					"inputs": [],
					"name": "income",
					"outputs": [],
					"stateMutability": "payable",
					"type": "function"
				},
				{
					"inputs": [
						{
							"internalType": "address",
							"name": "addr",
							"type": "address"
						}
					],
					"name": "isContract",
					"outputs": [
						{
							"internalType": "bool",
							"name": "",
							"type": "bool"
						}
					],
					"stateMutability": "view",
					"type": "function"
				},
				{
					"inputs": [
						{
							"internalType": "address",
							"name": "addr",
							"type": "address"
						}
					],
					"name": "isUserRegistered",
					"outputs": [
						{
							"internalType": "bool",
							"name": "",
							"type": "bool"
						}
					],
					"stateMutability": "view",
					"type": "function"
				},
				{
					"inputs": [
						{
							"internalType": "address",
							"name": "",
							"type": "address"
						}
					],
					"name": "lastTimeActivation",
					"outputs": [
						{
							"internalType": "uint256",
							"name": "",
							"type": "uint256"
						}
					],
					"stateMutability": "view",
					"type": "function"
				},
				{
					"inputs": [],
					"name": "marketing",
					"outputs": [
						{
							"internalType": "address payable",
							"name": "",
							"type": "address"
						}
					],
					"stateMutability": "view",
					"type": "function"
				},
				{
					"inputs": [],
					"name": "marketingPercents",
					"outputs": [
						{
							"internalType": "uint8",
							"name": "",
							"type": "uint8"
						}
					],
					"stateMutability": "view",
					"type": "function"
				},
				{
					"inputs": [
						{
							"internalType": "uint256",
							"name": "",
							"type": "uint256"
						}
					],
					"name": "nextWinerSecretGame",
					"outputs": [
						{
							"internalType": "address",
							"name": "",
							"type": "address"
						}
					],
					"stateMutability": "view",
					"type": "function"
				},
				{
					"inputs": [],
					"name": "owner",
					"outputs": [
						{
							"internalType": "address payable",
							"name": "",
							"type": "address"
						}
					],
					"stateMutability": "view",
					"type": "function"
				},
				{
					"inputs": [],
					"name": "referralRewardPercents",
					"outputs": [
						{
							"internalType": "uint8",
							"name": "",
							"type": "uint8"
						}
					],
					"stateMutability": "view",
					"type": "function"
				},
				{
					"inputs": [],
					"name": "referralRewardProfitPercents",
					"outputs": [
						{
							"internalType": "uint8",
							"name": "",
							"type": "uint8"
						}
					],
					"stateMutability": "view",
					"type": "function"
				},
				{
					"inputs": [],
					"name": "register",
					"outputs": [],
					"stateMutability": "payable",
					"type": "function"
				},
				{
					"inputs": [
						{
							"internalType": "address",
							"name": "referrer",
							"type": "address"
						}
					],
					"name": "registerWithReferrer",
					"outputs": [],
					"stateMutability": "payable",
					"type": "function"
				},
				{
					"inputs": [],
					"name": "registrationPrice",
					"outputs": [
						{
							"internalType": "uint256",
							"name": "",
							"type": "uint256"
						}
					],
					"stateMutability": "view",
					"type": "function"
				},
				{
					"inputs": [],
					"name": "rewardPayouts",
					"outputs": [
						{
							"internalType": "uint8",
							"name": "",
							"type": "uint8"
						}
					],
					"stateMutability": "view",
					"type": "function"
				},
				{
					"inputs": [],
					"name": "rewardPercents",
					"outputs": [
						{
							"internalType": "uint8",
							"name": "",
							"type": "uint8"
						}
					],
					"stateMutability": "view",
					"type": "function"
				},
				{
					"inputs": [
						{
							"internalType": "uint256",
							"name": "",
							"type": "uint256"
						}
					],
					"name": "roundPrice",
					"outputs": [
						{
							"internalType": "uint256",
							"name": "",
							"type": "uint256"
						}
					],
					"stateMutability": "view",
					"type": "function"
				},
				{
					"inputs": [],
					"name": "timeLottery",
					"outputs": [
						{
							"internalType": "uint256",
							"name": "",
							"type": "uint256"
						}
					],
					"stateMutability": "view",
					"type": "function"
				},
				{
					"inputs": [
						{
							"internalType": "uint256",
							"name": "",
							"type": "uint256"
						}
					],
					"name": "timeRoudsEnd",
					"outputs": [
						{
							"internalType": "uint256",
							"name": "",
							"type": "uint256"
						}
					],
					"stateMutability": "view",
					"type": "function"
				},
				{
					"inputs": [
						{
							"internalType": "uint256",
							"name": "",
							"type": "uint256"
						}
					],
					"name": "todayWiner",
					"outputs": [
						{
							"internalType": "address",
							"name": "",
							"type": "address"
						}
					],
					"stateMutability": "view",
					"type": "function"
				},
				{
					"inputs": [],
					"name": "todayWinerValue",
					"outputs": [
						{
							"internalType": "uint256",
							"name": "",
							"type": "uint256"
						}
					],
					"stateMutability": "view",
					"type": "function"
				},
				{
					"stateMutability": "payable",
					"type": "receive"
				}
			],
			"devdoc": {
				"kind": "dev",
				"methods": {},
				"version": 1
			},
			"evm": {
				"assembly": "    /* \"contract/lottery.sol\":479:19380  contract LotteryWCA is ReentrancyGuard {\r... */\n  mstore(0x40, 0x80)\n    /* \"contract/lottery.sol\":3140:3141  9 */\n  0x09\n    /* \"contract/lottery.sol\":3102:3141  uint8 public referralRewardPercents = 9 */\n  0x66\n  exp(0x0100, 0x00)\n  dup2\n  sload\n  dup2\n  0xff\n  mul\n  not\n  and\n  swap1\n  dup4\n  0xff\n  and\n  mul\n  or\n  swap1\n  sstore\n  pop\n    /* \"contract/lottery.sol\":3192:3193  8 */\n  0x08\n    /* \"contract/lottery.sol\":3148:3193  uint8 public referralRewardProfitPercents = 8 */\n  0x66\n  exp(0x0100, 0x01)\n  dup2\n  sload\n  dup2\n  0xff\n  mul\n  not\n  and\n  swap1\n  dup4\n  0xff\n  and\n  mul\n  or\n  swap1\n  sstore\n  pop\n    /* \"contract/lottery.sol\":3280:3660  uint[] public roundPrice = [\r... */\n  mload(0x40)\n  dup1\n  0x0200\n  add\n  0x40\n  mstore\n  dup1\n    /* \"contract/lottery.sol\":3318:3325  0 ether */\n  0x00\n    /* \"contract/lottery.sol\":3280:3660  uint[] public roundPrice = [\r... */\n  0xffffffffffffffff\n  and\n  dup2\n  mstore\n  0x20\n  add\n    /* \"contract/lottery.sol\":3340:3350  0.05 ether */\n  0xb1a2bc2ec50000\n    /* \"contract/lottery.sol\":3280:3660  uint[] public roundPrice = [\r... */\n  0xffffffffffffffff\n  and\n  dup2\n  mstore\n  0x20\n  add\n    /* \"contract/lottery.sol\":3361:3371  0.08 ether */\n  0x011c37937e080000\n    /* \"contract/lottery.sol\":3280:3660  uint[] public roundPrice = [\r... */\n  0xffffffffffffffff\n  and\n  dup2\n  mstore\n  0x20\n  add\n    /* \"contract/lottery.sol\":3383:3393  0.13 ether */\n  0x01cdda4faccd0000\n    /* \"contract/lottery.sol\":3280:3660  uint[] public roundPrice = [\r... */\n  0xffffffffffffffff\n  and\n  dup2\n  mstore\n  0x20\n  add\n    /* \"contract/lottery.sol\":3406:3416  0.22 ether */\n  0x030d98d59a960000\n    /* \"contract/lottery.sol\":3280:3660  uint[] public roundPrice = [\r... */\n  0xffffffffffffffff\n  and\n  dup2\n  mstore\n  0x20\n  add\n    /* \"contract/lottery.sol\":3428:3438  0.33 ether */\n  0x0494654067e10000\n    /* \"contract/lottery.sol\":3280:3660  uint[] public roundPrice = [\r... */\n  0xffffffffffffffff\n  and\n  dup2\n  mstore\n  0x20\n  add\n    /* \"contract/lottery.sol\":3451:3460  0.5 ether */\n  0x06f05b59d3b20000\n    /* \"contract/lottery.sol\":3280:3660  uint[] public roundPrice = [\r... */\n  0xffffffffffffffff\n  and\n  dup2\n  mstore\n  0x20\n  add\n    /* \"contract/lottery.sol\":3472:3481  0.7 ether */\n  0x09b6e64a8ec60000\n    /* \"contract/lottery.sol\":3280:3660  uint[] public roundPrice = [\r... */\n  0xffffffffffffffff\n  and\n  dup2\n  mstore\n  0x20\n  add\n    /* \"contract/lottery.sol\":3494:3504  1.05 ether */\n  0x0e92596fd6290000\n    /* \"contract/lottery.sol\":3280:3660  uint[] public roundPrice = [\r... */\n  0xffffffffffffffff\n  and\n  dup2\n  mstore\n  0x20\n  add\n    /* \"contract/lottery.sol\":3515:3525  1.45 ether */\n  0x141f6f514c510000\n    /* \"contract/lottery.sol\":3280:3660  uint[] public roundPrice = [\r... */\n  0xffffffffffffffff\n  and\n  dup2\n  mstore\n  0x20\n  add\n    /* \"contract/lottery.sol\":3537:3547  1.95 ether */\n  0x1b0fcaab20030000\n    /* \"contract/lottery.sol\":3280:3660  uint[] public roundPrice = [\r... */\n  0xffffffffffffffff\n  and\n  dup2\n  mstore\n  0x20\n  add\n    /* \"contract/lottery.sol\":3559:3568  2.4 ether */\n  0x214e8348c4f00000\n    /* \"contract/lottery.sol\":3280:3660  uint[] public roundPrice = [\r... */\n  0xffffffffffffffff\n  and\n  dup2\n  mstore\n  0x20\n  add\n    /* \"contract/lottery.sol\":3580:3589  3.5 ether */\n  0x30927f74c9de0000\n    /* \"contract/lottery.sol\":3280:3660  uint[] public roundPrice = [\r... */\n  0xffffffffffffffff\n  and\n  dup2\n  mstore\n  0x20\n  add\n    /* \"contract/lottery.sol\":3601:3610  5.2 ether */\n  0x482a1c7300080000\n    /* \"contract/lottery.sol\":3280:3660  uint[] public roundPrice = [\r... */\n  0xffffffffffffffff\n  and\n  dup2\n  mstore\n  0x20\n  add\n    /* \"contract/lottery.sol\":3622:3631  7.3 ether */\n  0x654ecf52ac5a0000\n    /* \"contract/lottery.sol\":3280:3660  uint[] public roundPrice = [\r... */\n  0xffffffffffffffff\n  and\n  dup2\n  mstore\n  0x20\n  add\n    /* \"contract/lottery.sol\":3643:3651  10 ether */\n  0x8ac7230489e80000\n    /* \"contract/lottery.sol\":3280:3660  uint[] public roundPrice = [\r... */\n  0xffffffffffffffff\n  and\n  dup2\n  mstore\n  pop\n  0x68\n  swap1\n  0x10\n  tag_1\n  swap3\n  swap2\n  swap1\n  tag_2\n  jump\t// in\ntag_1:\n  pop\n    /* \"contract/lottery.sol\":3706:3707  1 */\n  0x01\n    /* \"contract/lottery.sol\":3686:3696  roundPrice */\n  0x68\n    /* \"contract/lottery.sol\":3686:3703  roundPrice.length */\n  dup1\n  sload\n  swap1\n  pop\n    /* \"contract/lottery.sol\":3686:3707  roundPrice.length - 1 */\n  sub\n    /* \"contract/lottery.sol\":3667:3707  uint totalrounds = roundPrice.length - 1 */\n  0x69\n  sstore\n    /* \"contract/lottery.sol\":3731:3732  2 */\n  0x02\n    /* \"contract/lottery.sol\":3714:3732  uint newUserId = 2 */\n  0x6a\n  sstore\n    /* \"contract/lottery.sol\":3936:4784  constructor(address payable _marketing) public {\r... */\n  callvalue\n  dup1\n  iszero\n  tag_3\n  jumpi\n  0x00\n  dup1\n  revert\ntag_3:\n  pop\n  mload(0x40)\n  sub(codesize, bytecodeSize)\n  dup1\n  bytecodeSize\n  dup4\n  codecopy\n  dup2\n  dup2\n  add\n  0x40\n  mstore\n  0x20\n  dup2\n  lt\n  iszero\n  tag_4\n  jumpi\n  0x00\n  dup1\n  revert\ntag_4:\n  dup2\n  add\n  swap1\n  dup1\n  dup1\n  mload\n  swap1\n  0x20\n  add\n  swap1\n  swap3\n  swap2\n  swap1\n  pop\n  pop\n  pop\n    /* \"contract/lottery.sol\":136:137  1 */\n  0x01\n    /* \"contract/lottery.sol\":254:261  _status */\n  0x00\n    /* \"contract/lottery.sol\":254:276  _status = _NOT_ENTERED */\n  dup2\n  swap1\n  sstore\n  pop\n    /* \"contract/lottery.sol\":4010:4020  msg.sender */\n  caller\n    /* \"contract/lottery.sol\":3994:3999  owner */\n  0x66\n  0x02\n    /* \"contract/lottery.sol\":3994:4021  owner = payable(msg.sender) */\n  0x0100\n  exp\n  dup2\n  sload\n  dup2\n  0xffffffffffffffffffffffffffffffffffffffff\n  mul\n  not\n  and\n  swap1\n  dup4\n  0xffffffffffffffffffffffffffffffffffffffff\n  and\n  mul\n  or\n  swap1\n  sstore\n  pop\n    /* \"contract/lottery.sol\":4044:4054  _marketing */\n  dup1\n    /* \"contract/lottery.sol\":4032:4041  marketing */\n  0x67\n  0x00\n    /* \"contract/lottery.sol\":4032:4054  marketing = _marketing */\n  0x0100\n  exp\n  dup2\n  sload\n  dup2\n  0xffffffffffffffffffffffffffffffffffffffff\n  mul\n  not\n  and\n  swap1\n  dup4\n  0xffffffffffffffffffffffffffffffffffffffff\n  and\n  mul\n  or\n  swap1\n  sstore\n  pop\n    /* \"contract/lottery.sol\":4080:4391  User({\r... */\n  mload(0x40)\n  dup1\n  0x0120\n  add\n  0x40\n  mstore\n  dup1\n    /* \"contract/lottery.sol\":4105:4106  1 */\n  0x01\n    /* \"contract/lottery.sol\":4080:4391  User({\r... */\n  dup2\n  mstore\n  0x20\n  add\n    /* \"contract/lottery.sol\":4144:4147  now */\n  timestamp\n    /* \"contract/lottery.sol\":4080:4391  User({\r... */\n  dup2\n  mstore\n  0x20\n  add\n    /* \"contract/lottery.sol\":4181:4182  0 */\n  0x00\n    /* \"contract/lottery.sol\":4080:4391  User({\r... */\n  0xffffffffffffffffffffffffffffffffffffffff\n  and\n  dup2\n  mstore\n  0x20\n  add\n    /* \"contract/lottery.sol\":4210:4211  0 */\n  0x00\n    /* \"contract/lottery.sol\":4080:4391  User({\r... */\n  dup2\n  mstore\n  0x20\n  add\n    /* \"contract/lottery.sol\":4246:4247  0 */\n  0x00\n    /* \"contract/lottery.sol\":4080:4391  User({\r... */\n  dup2\n  mstore\n  0x20\n  add\n    /* \"contract/lottery.sol\":4280:4281  0 */\n  0x00\n    /* \"contract/lottery.sol\":4080:4391  User({\r... */\n  dup2\n  mstore\n  0x20\n  add\n    /* \"contract/lottery.sol\":4322:4323  0 */\n  0x00\n    /* \"contract/lottery.sol\":4080:4391  User({\r... */\n  dup2\n  mstore\n  0x20\n  add\n    /* \"contract/lottery.sol\":4349:4350  0 */\n  0x00\n    /* \"contract/lottery.sol\":4080:4391  User({\r... */\n  0xff\n  and\n  dup2\n  mstore\n  0x20\n  add\n    /* \"contract/lottery.sol\":4376:4377  0 */\n  0x00\n    /* \"contract/lottery.sol\":4080:4391  User({\r... */\n  dup2\n  mstore\n  pop\n    /* \"contract/lottery.sol\":4065:4070  users */\n  0x6b\n    /* \"contract/lottery.sol\":4065:4077  users[owner] */\n  0x00\n    /* \"contract/lottery.sol\":4071:4076  owner */\n  0x66\n  0x02\n  swap1\n  sload\n  swap1\n  0x0100\n  exp\n  swap1\n  div\n  0xffffffffffffffffffffffffffffffffffffffff\n  and\n    /* \"contract/lottery.sol\":4065:4077  users[owner] */\n  0xffffffffffffffffffffffffffffffffffffffff\n  and\n  0xffffffffffffffffffffffffffffffffffffffff\n  and\n  dup2\n  mstore\n  0x20\n  add\n  swap1\n  dup2\n  mstore\n  0x20\n  add\n  0x00\n  keccak256\n    /* \"contract/lottery.sol\":4065:4391  users[owner] = User({\r... */\n  0x00\n  dup3\n  add\n  mload\n  dup2\n  0x00\n  add\n  sstore\n  0x20\n  dup3\n  add\n  mload\n  dup2\n  0x01\n  add\n  sstore\n  0x40\n  dup3\n  add\n  mload\n  dup2\n  0x02\n  add\n  exp(0x0100, 0x00)\n  dup2\n  sload\n  dup2\n  0xffffffffffffffffffffffffffffffffffffffff\n  mul\n  not\n  and\n  swap1\n  dup4\n  0xffffffffffffffffffffffffffffffffffffffff\n  and\n  mul\n  or\n  swap1\n  sstore\n  pop\n  0x60\n  dup3\n  add\n  mload\n  dup2\n  0x03\n  add\n  sstore\n  0x80\n  dup3\n  add\n  mload\n  dup2\n  0x04\n  add\n  sstore\n  0xa0\n  dup3\n  add\n  mload\n  dup2\n  0x05\n  add\n  sstore\n  0xc0\n  dup3\n  add\n  mload\n  dup2\n  0x06\n  add\n  sstore\n  0xe0\n  dup3\n  add\n  mload\n  dup2\n  0x08\n  add\n  exp(0x0100, 0x00)\n  dup2\n  sload\n  dup2\n  0xff\n  mul\n  not\n  and\n  swap1\n  dup4\n  0xff\n  and\n  mul\n  or\n  swap1\n  sstore\n  pop\n  0x0100\n  dup3\n  add\n  mload\n  dup2\n  0x09\n  add\n  sstore\n  swap1\n  pop\n  pop\n    /* \"contract/lottery.sol\":4424:4429  owner */\n  0x66\n  0x02\n  swap1\n  sload\n  swap1\n  0x0100\n  exp\n  swap1\n  div\n  0xffffffffffffffffffffffffffffffffffffffff\n  and\n    /* \"contract/lottery.sol\":4402:4418  usersAddressById */\n  0x6c\n    /* \"contract/lottery.sol\":4402:4421  usersAddressById[1] */\n  0x00\n    /* \"contract/lottery.sol\":4419:4420  1 */\n  0x01\n    /* \"contract/lottery.sol\":4402:4421  usersAddressById[1] */\n  dup2\n  mstore\n  0x20\n  add\n  swap1\n  dup2\n  mstore\n  0x20\n  add\n  0x00\n  keccak256\n  0x00\n    /* \"contract/lottery.sol\":4402:4429  usersAddressById[1] = owner */\n  0x0100\n  exp\n  dup2\n  sload\n  dup2\n  0xffffffffffffffffffffffffffffffffffffffff\n  mul\n  not\n  and\n  swap1\n  dup4\n  0xffffffffffffffffffffffffffffffffffffffff\n  and\n  mul\n  or\n  swap1\n  sstore\n  pop\n    /* \"contract/lottery.sol\":4440:4450  globalStat */\n  0x6f\n    /* \"contract/lottery.sol\":4440:4458  globalStat.members */\n  0x00\n  add\n  0x00\n    /* \"contract/lottery.sol\":4440:4460  globalStat.members++ */\n  dup2\n  sload\n  dup1\n  swap3\n  swap2\n  swap1\n  0x01\n  add\n  swap2\n  swap1\n  pop\n  sstore\n  pop\n    /* \"contract/lottery.sol\":4471:4481  globalStat */\n  0x6f\n    /* \"contract/lottery.sol\":4471:4494  globalStat.transactions */\n  0x01\n  add\n  0x00\n    /* \"contract/lottery.sol\":4471:4496  globalStat.transactions++ */\n  dup2\n  sload\n  dup1\n  swap3\n  swap2\n  swap1\n  0x01\n  add\n  swap2\n  swap1\n  pop\n  sstore\n  pop\n    /* \"contract/lottery.sol\":4511:4522  uint8 round */\n  0x00\n    /* \"contract/lottery.sol\":4525:4526  1 */\n  0x01\n    /* \"contract/lottery.sol\":4511:4526  uint8 round = 1 */\n  swap1\n  pop\n    /* \"contract/lottery.sol\":4507:4777  for(uint8 round = 1; round <= totalrounds; round++) {\r... */\ntag_9:\n    /* \"contract/lottery.sol\":4537:4548  totalrounds */\n  sload(0x69)\n    /* \"contract/lottery.sol\":4528:4533  round */\n  dup2\n    /* \"contract/lottery.sol\":4528:4548  round <= totalrounds */\n  0xff\n  and\n  gt\n    /* \"contract/lottery.sol\":4507:4777  for(uint8 round = 1; round <= totalrounds; round++) {\r... */\n  tag_10\n  jumpi\n    /* \"contract/lottery.sol\":4603:4609  864000 */\n  0x0d2f00\n    /* \"contract/lottery.sol\":4597:4600  now */\n  timestamp\n    /* \"contract/lottery.sol\":4597:4609  now + 864000 */\n  add\n    /* \"contract/lottery.sol\":4575:4587  timeRoudsEnd */\n  0x45\n    /* \"contract/lottery.sol\":4588:4593  round */\n  dup3\n    /* \"contract/lottery.sol\":4575:4594  timeRoudsEnd[round] */\n  0xff\n  and\n  0x10\n  dup2\n  lt\n  tag_12\n  jumpi\n  invalid\ntag_12:\n  add\n    /* \"contract/lottery.sol\":4575:4609  timeRoudsEnd[round] = now + 864000 */\n  dup2\n  swap1\n  sstore\n  pop\n    /* \"contract/lottery.sol\":4660:4664  true */\n  0x01\n    /* \"contract/lottery.sol\":4624:4629  users */\n  0x6b\n    /* \"contract/lottery.sol\":4624:4636  users[owner] */\n  0x00\n    /* \"contract/lottery.sol\":4630:4635  owner */\n  0x66\n  0x02\n  swap1\n  sload\n  swap1\n  0x0100\n  exp\n  swap1\n  div\n  0xffffffffffffffffffffffffffffffffffffffff\n  and\n    /* \"contract/lottery.sol\":4624:4636  users[owner] */\n  0xffffffffffffffffffffffffffffffffffffffff\n  and\n  0xffffffffffffffffffffffffffffffffffffffff\n  and\n  dup2\n  mstore\n  0x20\n  add\n  swap1\n  dup2\n  mstore\n  0x20\n  add\n  0x00\n  keccak256\n    /* \"contract/lottery.sol\":4624:4643  users[owner].rounds */\n  0x07\n  add\n    /* \"contract/lottery.sol\":4624:4650  users[owner].rounds[round] */\n  0x00\n    /* \"contract/lottery.sol\":4644:4649  round */\n  dup4\n    /* \"contract/lottery.sol\":4624:4650  users[owner].rounds[round] */\n  0xff\n  and\n  0xff\n  and\n  dup2\n  mstore\n  0x20\n  add\n  swap1\n  dup2\n  mstore\n  0x20\n  add\n  0x00\n  keccak256\n    /* \"contract/lottery.sol\":4624:4657  users[owner].rounds[round].active */\n  0x00\n  add\n  0x06\n    /* \"contract/lottery.sol\":4624:4664  users[owner].rounds[round].active = true */\n  0x0100\n  exp\n  dup2\n  sload\n  dup2\n  0xff\n  mul\n  not\n  and\n  swap1\n  dup4\n  iszero\n  iszero\n  mul\n  or\n  swap1\n  sstore\n  pop\n    /* \"contract/lottery.sol\":4719:4721  15 */\n  0x0f\n    /* \"contract/lottery.sol\":4679:4684  users */\n  0x6b\n    /* \"contract/lottery.sol\":4679:4691  users[owner] */\n  0x00\n    /* \"contract/lottery.sol\":4685:4690  owner */\n  0x66\n  0x02\n  swap1\n  sload\n  swap1\n  0x0100\n  exp\n  swap1\n  div\n  0xffffffffffffffffffffffffffffffffffffffff\n  and\n    /* \"contract/lottery.sol\":4679:4691  users[owner] */\n  0xffffffffffffffffffffffffffffffffffffffff\n  and\n  0xffffffffffffffffffffffffffffffffffffffff\n  and\n  dup2\n  mstore\n  0x20\n  add\n  swap1\n  dup2\n  mstore\n  0x20\n  add\n  0x00\n  keccak256\n    /* \"contract/lottery.sol\":4679:4698  users[owner].rounds */\n  0x07\n  add\n    /* \"contract/lottery.sol\":4679:4705  users[owner].rounds[round] */\n  0x00\n    /* \"contract/lottery.sol\":4699:4704  round */\n  dup4\n    /* \"contract/lottery.sol\":4679:4705  users[owner].rounds[round] */\n  0xff\n  and\n  0xff\n  and\n  dup2\n  mstore\n  0x20\n  add\n  swap1\n  dup2\n  mstore\n  0x20\n  add\n  0x00\n  keccak256\n    /* \"contract/lottery.sol\":4679:4716  users[owner].rounds[round].maxPayouts */\n  0x00\n  add\n  0x02\n    /* \"contract/lottery.sol\":4679:4721  users[owner].rounds[round].maxPayouts = 15 */\n  0x0100\n  exp\n  dup2\n  sload\n  dup2\n  0xffff\n  mul\n  not\n  and\n  swap1\n  dup4\n  0xffff\n  and\n  mul\n  or\n  swap1\n  sstore\n  pop\n    /* \"contract/lottery.sol\":4736:4746  roundQueue */\n  0x6d\n    /* \"contract/lottery.sol\":4736:4753  roundQueue[round] */\n  0x00\n    /* \"contract/lottery.sol\":4747:4752  round */\n  dup3\n    /* \"contract/lottery.sol\":4736:4753  roundQueue[round] */\n  0xff\n  and\n  0xff\n  and\n  dup2\n  mstore\n  0x20\n  add\n  swap1\n  dup2\n  mstore\n  0x20\n  add\n  0x00\n  keccak256\n    /* \"contract/lottery.sol\":4759:4764  owner */\n  0x66\n  0x02\n  swap1\n  sload\n  swap1\n  0x0100\n  exp\n  swap1\n  div\n  0xffffffffffffffffffffffffffffffffffffffff\n  and\n    /* \"contract/lottery.sol\":4736:4765  roundQueue[round].push(owner) */\n  swap1\n  dup1\n  0x01\n  dup2\n  sload\n  add\n  dup1\n  dup3\n  sstore\n  dup1\n  swap2\n  pop\n  pop\n  0x01\n  swap1\n  sub\n  swap1\n  0x00\n  mstore\n  keccak256(0x00, 0x20)\n  add\n  0x00\n  swap1\n  swap2\n  swap1\n  swap2\n  swap1\n  swap2\n  0x0100\n  exp\n  dup2\n  sload\n  dup2\n  0xffffffffffffffffffffffffffffffffffffffff\n  mul\n  not\n  and\n  swap1\n  dup4\n  0xffffffffffffffffffffffffffffffffffffffff\n  and\n  mul\n  or\n  swap1\n  sstore\n  pop\n    /* \"contract/lottery.sol\":4550:4557  round++ */\n  dup1\n  dup1\n  0x01\n  add\n  swap2\n  pop\n  pop\n    /* \"contract/lottery.sol\":4507:4777  for(uint8 round = 1; round <= totalrounds; round++) {\r... */\n  jump(tag_9)\ntag_10:\n  pop\n    /* \"contract/lottery.sol\":3936:4784  constructor(address payable _marketing) public {\r... */\n  pop\n    /* \"contract/lottery.sol\":479:19380  contract LotteryWCA is ReentrancyGuard {\r... */\n  jump(tag_15)\ntag_2:\n  dup3\n  dup1\n  sload\n  dup3\n  dup3\n  sstore\n  swap1\n  0x00\n  mstore\n  keccak256(0x00, 0x20)\n  swap1\n  dup2\n  add\n  swap3\n  dup3\n  iszero\n  tag_16\n  jumpi\n  swap2\n  0x20\n  mul\n  dup3\n  add\ntag_17:\n  dup3\n  dup2\n  gt\n  iszero\n  tag_18\n  jumpi\n  dup3\n  mload\n  dup3\n  swap1\n  0xffffffffffffffff\n  and\n  swap1\n  sstore\n  swap2\n  0x20\n  add\n  swap2\n  swap1\n  0x01\n  add\n  swap1\n  jump(tag_17)\ntag_18:\ntag_16:\n  pop\n  swap1\n  pop\n  tag_19\n  swap2\n  swap1\n  tag_20\n  jump\t// in\ntag_19:\n  pop\n  swap1\n  jump\t// out\ntag_20:\ntag_21:\n  dup1\n  dup3\n  gt\n  iszero\n  tag_22\n  jumpi\n  0x00\n  dup2\n  0x00\n  swap1\n  sstore\n  pop\n  0x01\n  add\n  jump(tag_21)\ntag_22:\n  pop\n  swap1\n  jump\t// out\ntag_15:\n  dataSize(sub_0)\n  dup1\n  dataOffset(sub_0)\n  0x00\n  codecopy\n  0x00\n  return\nstop\n\nsub_0: assembly {\n        /* \"contract/lottery.sol\":479:19380  contract LotteryWCA is ReentrancyGuard {\r... */\n      mstore(0x40, 0x80)\n      jumpi(tag_1, lt(calldatasize, 0x04))\n      shr(0xe0, calldataload(0x00))\n      dup1\n      0x693864f3\n      gt\n      tag_43\n      jumpi\n      dup1\n      0xa7345f56\n      gt\n      tag_44\n      jumpi\n      dup1\n      0xc34f6b0d\n      gt\n      tag_45\n      jumpi\n      dup1\n      0xc34f6b0d\n      eq\n      tag_38\n      jumpi\n      dup1\n      0xc8e161a1\n      eq\n      tag_39\n      jumpi\n      dup1\n      0xcfce5044\n      eq\n      tag_40\n      jumpi\n      dup1\n      0xeca2c026\n      eq\n      tag_41\n      jumpi\n      dup1\n      0xf21efb5b\n      eq\n      tag_42\n      jumpi\n      jump(tag_2)\n    tag_45:\n      dup1\n      0xa7345f56\n      eq\n      tag_33\n      jumpi\n      dup1\n      0xa9a9cfe0\n      eq\n      tag_34\n      jumpi\n      dup1\n      0xb3791e7f\n      eq\n      tag_35\n      jumpi\n      dup1\n      0xbd4b77ee\n      eq\n      tag_36\n      jumpi\n      dup1\n      0xbfe24893\n      eq\n      tag_37\n      jumpi\n      jump(tag_2)\n    tag_44:\n      dup1\n      0x8a03ad86\n      gt\n      tag_46\n      jumpi\n      dup1\n      0x8a03ad86\n      eq\n      tag_28\n      jumpi\n      dup1\n      0x8c4636c1\n      eq\n      tag_29\n      jumpi\n      dup1\n      0x8da5cb5b\n      eq\n      tag_30\n      jumpi\n      dup1\n      0x950fabf3\n      eq\n      tag_31\n      jumpi\n      dup1\n      0x968763a0\n      eq\n      tag_32\n      jumpi\n      jump(tag_2)\n    tag_46:\n      dup1\n      0x693864f3\n      eq\n      tag_23\n      jumpi\n      dup1\n      0x6f77926b\n      eq\n      tag_24\n      jumpi\n      dup1\n      0x6f9fb98a\n      eq\n      tag_25\n      jumpi\n      dup1\n      0x7ccd94da\n      eq\n      tag_26\n      jumpi\n      dup1\n      0x88b45046\n      eq\n      tag_27\n      jumpi\n      jump(tag_2)\n    tag_43:\n      dup1\n      0x2d3e474a\n      gt\n      tag_47\n      jumpi\n      dup1\n      0x4cdbe908\n      gt\n      tag_48\n      jumpi\n      dup1\n      0x4cdbe908\n      eq\n      tag_18\n      jumpi\n      dup1\n      0x5a8a14d0\n      eq\n      tag_19\n      jumpi\n      dup1\n      0x5c279ff9\n      eq\n      tag_20\n      jumpi\n      dup1\n      0x5ce974b9\n      eq\n      tag_21\n      jumpi\n      dup1\n      0x5d7b1cc9\n      eq\n      tag_22\n      jumpi\n      jump(tag_2)\n    tag_48:\n      dup1\n      0x2d3e474a\n      eq\n      tag_13\n      jumpi\n      dup1\n      0x3336b63e\n      eq\n      tag_14\n      jumpi\n      dup1\n      0x375e3b55\n      eq\n      tag_15\n      jumpi\n      dup1\n      0x385399f9\n      eq\n      tag_16\n      jumpi\n      dup1\n      0x4a9fefc7\n      eq\n      tag_17\n      jumpi\n      jump(tag_2)\n    tag_47:\n      dup1\n      0x21658658\n      gt\n      tag_49\n      jumpi\n      dup1\n      0x21658658\n      eq\n      tag_8\n      jumpi\n      dup1\n      0x230f7f82\n      eq\n      tag_9\n      jumpi\n      dup1\n      0x26efd443\n      eq\n      tag_10\n      jumpi\n      dup1\n      0x2a2c908e\n      eq\n      tag_11\n      jumpi\n      dup1\n      0x2cc8da43\n      eq\n      tag_12\n      jumpi\n      jump(tag_2)\n    tag_49:\n      dup1\n      0x01b91a17\n      eq\n      tag_3\n      jumpi\n      dup1\n      0x16279055\n      eq\n      tag_4\n      jumpi\n      dup1\n      0x163f7522\n      eq\n      tag_5\n      jumpi\n      dup1\n      0x1aa3a008\n      eq\n      tag_6\n      jumpi\n      dup1\n      0x1dfd8fe0\n      eq\n      tag_7\n      jumpi\n      jump(tag_2)\n    tag_1:\n      jumpi(tag_2, calldatasize)\n        /* \"contract/lottery.sol\":5026:5037  uint8 round */\n      0x00\n        /* \"contract/lottery.sol\":5040:5041  1 */\n      0x01\n        /* \"contract/lottery.sol\":5026:5041  uint8 round = 1 */\n      swap1\n      pop\n        /* \"contract/lottery.sol\":5022:5328  for(uint8 round = 1; round <= totalrounds; round++) {\r... */\n    tag_52:\n        /* \"contract/lottery.sol\":5052:5063  totalrounds */\n      sload(0x69)\n        /* \"contract/lottery.sol\":5043:5048  round */\n      dup2\n        /* \"contract/lottery.sol\":5043:5063  round <= totalrounds */\n      0xff\n      and\n      gt\n        /* \"contract/lottery.sol\":5022:5328  for(uint8 round = 1; round <= totalrounds; round++) {\r... */\n      tag_53\n      jumpi\n        /* \"contract/lottery.sol\":5114:5123  msg.value */\n      callvalue\n        /* \"contract/lottery.sol\":5093:5103  roundPrice */\n      0x68\n        /* \"contract/lottery.sol\":5104:5109  round */\n      dup3\n        /* \"contract/lottery.sol\":5093:5110  roundPrice[round] */\n      0xff\n      and\n      dup2\n      sload\n      dup2\n      lt\n      tag_55\n      jumpi\n      invalid\n    tag_55:\n      swap1\n      0x00\n      mstore\n      keccak256(0x00, 0x20)\n      add\n      sload\n        /* \"contract/lottery.sol\":5093:5123  roundPrice[round] == msg.value */\n      eq\n        /* \"contract/lottery.sol\":5089:5317  if (roundPrice[round] == msg.value) {\r... */\n      iszero\n      tag_57\n      jumpi\n        /* \"contract/lottery.sol\":5156:5157  1 */\n      0x01\n        /* \"contract/lottery.sol\":5147:5152  round */\n      dup2\n        /* \"contract/lottery.sol\":5147:5157  round == 1 */\n      0xff\n      and\n      eq\n        /* \"contract/lottery.sol\":5147:5190  round == 1 && !isUserRegistered(msg.sender) */\n      dup1\n      iszero\n      tag_58\n      jumpi\n      pop\n        /* \"contract/lottery.sol\":5162:5190  isUserRegistered(msg.sender) */\n      tag_59\n        /* \"contract/lottery.sol\":5179:5189  msg.sender */\n      caller\n        /* \"contract/lottery.sol\":5162:5178  isUserRegistered */\n      tag_60\n        /* \"contract/lottery.sol\":5162:5190  isUserRegistered(msg.sender) */\n      jump\t// in\n    tag_59:\n        /* \"contract/lottery.sol\":5161:5190  !isUserRegistered(msg.sender) */\n      iszero\n        /* \"contract/lottery.sol\":5147:5190  round == 1 && !isUserRegistered(msg.sender) */\n    tag_58:\n        /* \"contract/lottery.sol\":5144:5243  if(round == 1 && !isUserRegistered(msg.sender)){\r... */\n      iszero\n      tag_61\n      jumpi\n        /* \"contract/lottery.sol\":5213:5223  register() */\n      tag_62\n        /* \"contract/lottery.sol\":5213:5221  register */\n      tag_63\n        /* \"contract/lottery.sol\":5213:5223  register() */\n      jump\t// in\n    tag_62:\n        /* \"contract/lottery.sol\":5144:5243  if(round == 1 && !isUserRegistered(msg.sender)){\r... */\n    tag_61:\n        /* \"contract/lottery.sol\":5261:5276  buyround(round) */\n      tag_64\n        /* \"contract/lottery.sol\":5270:5275  round */\n      dup2\n        /* \"contract/lottery.sol\":5261:5269  buyround */\n      tag_65\n        /* \"contract/lottery.sol\":5261:5276  buyround(round) */\n      jump\t// in\n    tag_64:\n        /* \"contract/lottery.sol\":5295:5302  return; */\n      pop\n      jump(tag_51)\n        /* \"contract/lottery.sol\":5089:5317  if (roundPrice[round] == msg.value) {\r... */\n    tag_57:\n        /* \"contract/lottery.sol\":5065:5072  round++ */\n      dup1\n      dup1\n      0x01\n      add\n      swap2\n      pop\n      pop\n        /* \"contract/lottery.sol\":5022:5328  for(uint8 round = 1; round <= totalrounds; round++) {\r... */\n      jump(tag_52)\n    tag_53:\n      pop\n        /* \"contract/lottery.sol\":5340:5403  revert(\"Can't find round to buy. Maybe sent value is invalid.\") */\n      mload(0x40)\n      0x08c379a000000000000000000000000000000000000000000000000000000000\n      dup2\n      mstore\n      0x04\n      add\n      dup1\n      dup1\n      0x20\n      add\n      dup3\n      dup2\n      sub\n      dup3\n      mstore\n      0x35\n      dup2\n      mstore\n      0x20\n      add\n      dup1\n      data_b6be230979c9056288d8dc9ecf24c47d930143c98ecebf6ab7c712e8601758a8\n      0x35\n      swap2\n      codecopy\n      0x40\n      add\n      swap2\n      pop\n      pop\n      mload(0x40)\n      dup1\n      swap2\n      sub\n      swap1\n      revert\n        /* \"contract/lottery.sol\":4984:5411  receive() external payable {\r... */\n    tag_51:\n        /* \"contract/lottery.sol\":479:19380  contract LotteryWCA is ReentrancyGuard {\r... */\n      stop\n    tag_2:\n      0x00\n      dup1\n      revert\n        /* \"contract/lottery.sol\":17012:17109  function getroundPrices() public view returns(uint[] memory) {\r... */\n    tag_3:\n      callvalue\n      dup1\n      iszero\n      tag_66\n      jumpi\n      0x00\n      dup1\n      revert\n    tag_66:\n      pop\n      tag_67\n      tag_68\n      jump\t// in\n    tag_67:\n      mload(0x40)\n      dup1\n      dup1\n      0x20\n      add\n      dup3\n      dup2\n      sub\n      dup3\n      mstore\n      dup4\n      dup2\n      dup2\n      mload\n      dup2\n      mstore\n      0x20\n      add\n      swap2\n      pop\n      dup1\n      mload\n      swap1\n      0x20\n      add\n      swap1\n      0x20\n      mul\n      dup1\n      dup4\n      dup4\n      0x00\n    tag_69:\n      dup4\n      dup2\n      lt\n      iszero\n      tag_71\n      jumpi\n      dup1\n      dup3\n      add\n      mload\n      dup2\n      dup5\n      add\n      mstore\n      0x20\n      dup2\n      add\n      swap1\n      pop\n      jump(tag_69)\n    tag_71:\n      pop\n      pop\n      pop\n      pop\n      swap1\n      pop\n      add\n      swap3\n      pop\n      pop\n      pop\n      mload(0x40)\n      dup1\n      swap2\n      sub\n      swap1\n      return\n        /* \"contract/lottery.sol\":4790:4978  function isContract(address addr) public view returns (bool) {\r... */\n    tag_4:\n      callvalue\n      dup1\n      iszero\n      tag_72\n      jumpi\n      0x00\n      dup1\n      revert\n    tag_72:\n      pop\n      tag_73\n      0x04\n      dup1\n      calldatasize\n      sub\n      0x20\n      dup2\n      lt\n      iszero\n      tag_74\n      jumpi\n      0x00\n      dup1\n      revert\n    tag_74:\n      dup2\n      add\n      swap1\n      dup1\n      dup1\n      calldataload\n      0xffffffffffffffffffffffffffffffffffffffff\n      and\n      swap1\n      0x20\n      add\n      swap1\n      swap3\n      swap2\n      swap1\n      pop\n      pop\n      pop\n      tag_75\n      jump\t// in\n    tag_73:\n      mload(0x40)\n      dup1\n      dup3\n      iszero\n      iszero\n      dup2\n      mstore\n      0x20\n      add\n      swap2\n      pop\n      pop\n      mload(0x40)\n      dup1\n      swap2\n      sub\n      swap1\n      return\n        /* \"contract/lottery.sol\":17745:17857  function isUserRegistered(address addr) public view returns (bool) {\r... */\n    tag_5:\n      callvalue\n      dup1\n      iszero\n      tag_76\n      jumpi\n      0x00\n      dup1\n      revert\n    tag_76:\n      pop\n      tag_77\n      0x04\n      dup1\n      calldatasize\n      sub\n      0x20\n      dup2\n      lt\n      iszero\n      tag_78\n      jumpi\n      0x00\n      dup1\n      revert\n    tag_78:\n      dup2\n      add\n      swap1\n      dup1\n      dup1\n      calldataload\n      0xffffffffffffffffffffffffffffffffffffffff\n      and\n      swap1\n      0x20\n      add\n      swap1\n      swap3\n      swap2\n      swap1\n      pop\n      pop\n      pop\n      tag_60\n      jump\t// in\n    tag_77:\n      mload(0x40)\n      dup1\n      dup3\n      iszero\n      iszero\n      dup2\n      mstore\n      0x20\n      add\n      swap2\n      pop\n      pop\n      mload(0x40)\n      dup1\n      swap2\n      sub\n      swap1\n      return\n        /* \"contract/lottery.sol\":5550:5641  function register() public payable {\r... */\n    tag_6:\n      tag_79\n      tag_63\n      jump\t// in\n    tag_79:\n      stop\n        /* \"contract/lottery.sol\":525:555  address[50] public  todayWiner */\n    tag_7:\n      callvalue\n      dup1\n      iszero\n      tag_80\n      jumpi\n      0x00\n      dup1\n      revert\n    tag_80:\n      pop\n      tag_81\n      0x04\n      dup1\n      calldatasize\n      sub\n      0x20\n      dup2\n      lt\n      iszero\n      tag_82\n      jumpi\n      0x00\n      dup1\n      revert\n    tag_82:\n      dup2\n      add\n      swap1\n      dup1\n      dup1\n      calldataload\n      swap1\n      0x20\n      add\n      swap1\n      swap3\n      swap2\n      swap1\n      pop\n      pop\n      pop\n      tag_83\n      jump\t// in\n    tag_81:\n      mload(0x40)\n      dup1\n      dup3\n      0xffffffffffffffffffffffffffffffffffffffff\n      and\n      dup2\n      mstore\n      0x20\n      add\n      swap2\n      pop\n      pop\n      mload(0x40)\n      dup1\n      swap2\n      sub\n      swap1\n      return\n        /* \"contract/lottery.sol\":2903:2951  uint public constant registrationPrice = 0 ether */\n    tag_8:\n      callvalue\n      dup1\n      iszero\n      tag_84\n      jumpi\n      0x00\n      dup1\n      revert\n    tag_84:\n      pop\n      tag_85\n      tag_86\n      jump\t// in\n    tag_85:\n      mload(0x40)\n      dup1\n      dup3\n      dup2\n      mstore\n      0x20\n      add\n      swap2\n      pop\n      pop\n      mload(0x40)\n      dup1\n      swap2\n      sub\n      swap1\n      return\n        /* \"contract/lottery.sol\":15786:17006  function getUserrounds(address userAddress) public view returns (bool[] memory, uint16[] memory, uint16[] memory, uint16[] memory, uint[] memory, uint[] memory) {\r... */\n    tag_9:\n      callvalue\n      dup1\n      iszero\n      tag_87\n      jumpi\n      0x00\n      dup1\n      revert\n    tag_87:\n      pop\n      tag_88\n      0x04\n      dup1\n      calldatasize\n      sub\n      0x20\n      dup2\n      lt\n      iszero\n      tag_89\n      jumpi\n      0x00\n      dup1\n      revert\n    tag_89:\n      dup2\n      add\n      swap1\n      dup1\n      dup1\n      calldataload\n      0xffffffffffffffffffffffffffffffffffffffff\n      and\n      swap1\n      0x20\n      add\n      swap1\n      swap3\n      swap2\n      swap1\n      pop\n      pop\n      pop\n      tag_90\n      jump\t// in\n    tag_88:\n      mload(0x40)\n      dup1\n      dup1\n      0x20\n      add\n      dup1\n      0x20\n      add\n      dup1\n      0x20\n      add\n      dup1\n      0x20\n      add\n      dup1\n      0x20\n      add\n      dup1\n      0x20\n      add\n      dup8\n      dup2\n      sub\n      dup8\n      mstore\n      dup14\n      dup2\n      dup2\n      mload\n      dup2\n      mstore\n      0x20\n      add\n      swap2\n      pop\n      dup1\n      mload\n      swap1\n      0x20\n      add\n      swap1\n      0x20\n      mul\n      dup1\n      dup4\n      dup4\n      0x00\n    tag_91:\n      dup4\n      dup2\n      lt\n      iszero\n      tag_93\n      jumpi\n      dup1\n      dup3\n      add\n      mload\n      dup2\n      dup5\n      add\n      mstore\n      0x20\n      dup2\n      add\n      swap1\n      pop\n      jump(tag_91)\n    tag_93:\n      pop\n      pop\n      pop\n      pop\n      swap1\n      pop\n      add\n      dup8\n      dup2\n      sub\n      dup7\n      mstore\n      dup13\n      dup2\n      dup2\n      mload\n      dup2\n      mstore\n      0x20\n      add\n      swap2\n      pop\n      dup1\n      mload\n      swap1\n      0x20\n      add\n      swap1\n      0x20\n      mul\n      dup1\n      dup4\n      dup4\n      0x00\n    tag_94:\n      dup4\n      dup2\n      lt\n      iszero\n      tag_96\n      jumpi\n      dup1\n      dup3\n      add\n      mload\n      dup2\n      dup5\n      add\n      mstore\n      0x20\n      dup2\n      add\n      swap1\n      pop\n      jump(tag_94)\n    tag_96:\n      pop\n      pop\n      pop\n      pop\n      swap1\n      pop\n      add\n      dup8\n      dup2\n      sub\n      dup6\n      mstore\n      dup12\n      dup2\n      dup2\n      mload\n      dup2\n      mstore\n      0x20\n      add\n      swap2\n      pop\n      dup1\n      mload\n      swap1\n      0x20\n      add\n      swap1\n      0x20\n      mul\n      dup1\n      dup4\n      dup4\n      0x00\n    tag_97:\n      dup4\n      dup2\n      lt\n      iszero\n      tag_99\n      jumpi\n      dup1\n      dup3\n      add\n      mload\n      dup2\n      dup5\n      add\n      mstore\n      0x20\n      dup2\n      add\n      swap1\n      pop\n      jump(tag_97)\n    tag_99:\n      pop\n      pop\n      pop\n      pop\n      swap1\n      pop\n      add\n      dup8\n      dup2\n      sub\n      dup5\n      mstore\n      dup11\n      dup2\n      dup2\n      mload\n      dup2\n      mstore\n      0x20\n      add\n      swap2\n      pop\n      dup1\n      mload\n      swap1\n      0x20\n      add\n      swap1\n      0x20\n      mul\n      dup1\n      dup4\n      dup4\n      0x00\n    tag_100:\n      dup4\n      dup2\n      lt\n      iszero\n      tag_102\n      jumpi\n      dup1\n      dup3\n      add\n      mload\n      dup2\n      dup5\n      add\n      mstore\n      0x20\n      dup2\n      add\n      swap1\n      pop\n      jump(tag_100)\n    tag_102:\n      pop\n      pop\n      pop\n      pop\n      swap1\n      pop\n      add\n      dup8\n      dup2\n      sub\n      dup4\n      mstore\n      dup10\n      dup2\n      dup2\n      mload\n      dup2\n      mstore\n      0x20\n      add\n      swap2\n      pop\n      dup1\n      mload\n      swap1\n      0x20\n      add\n      swap1\n      0x20\n      mul\n      dup1\n      dup4\n      dup4\n      0x00\n    tag_103:\n      dup4\n      dup2\n      lt\n      iszero\n      tag_105\n      jumpi\n      dup1\n      dup3\n      add\n      mload\n      dup2\n      dup5\n      add\n      mstore\n      0x20\n      dup2\n      add\n      swap1\n      pop\n      jump(tag_103)\n    tag_105:\n      pop\n      pop\n      pop\n      pop\n      swap1\n      pop\n      add\n      dup8\n      dup2\n      sub\n      dup3\n      mstore\n      dup9\n      dup2\n      dup2\n      mload\n      dup2\n      mstore\n      0x20\n      add\n      swap2\n      pop\n      dup1\n      mload\n      swap1\n      0x20\n      add\n      swap1\n      0x20\n      mul\n      dup1\n      dup4\n      dup4\n      0x00\n    tag_106:\n      dup4\n      dup2\n      lt\n      iszero\n      tag_108\n      jumpi\n      dup1\n      dup3\n      add\n      mload\n      dup2\n      dup5\n      add\n      mstore\n      0x20\n      dup2\n      add\n      swap1\n      pop\n      jump(tag_106)\n    tag_108:\n      pop\n      pop\n      pop\n      pop\n      swap1\n      pop\n      add\n      swap13\n      pop\n      pop\n      pop\n      pop\n      pop\n      pop\n      pop\n      pop\n      pop\n      pop\n      pop\n      pop\n      pop\n      mload(0x40)\n      dup1\n      swap2\n      sub\n      swap1\n      return\n        /* \"contract/lottery.sol\":697:735  address[16] public nextWinerSecretGame */\n    tag_10:\n      callvalue\n      dup1\n      iszero\n      tag_109\n      jumpi\n      0x00\n      dup1\n      revert\n    tag_109:\n      pop\n      tag_110\n      0x04\n      dup1\n      calldatasize\n      sub\n      0x20\n      dup2\n      lt\n      iszero\n      tag_111\n      jumpi\n      0x00\n      dup1\n      revert\n    tag_111:\n      dup2\n      add\n      swap1\n      dup1\n      dup1\n      calldataload\n      swap1\n      0x20\n      add\n      swap1\n      swap3\n      swap2\n      swap1\n      pop\n      pop\n      pop\n      tag_112\n      jump\t// in\n    tag_110:\n      mload(0x40)\n      dup1\n      dup3\n      0xffffffffffffffffffffffffffffffffffffffff\n      and\n      dup2\n      mstore\n      0x20\n      add\n      swap2\n      pop\n      pop\n      mload(0x40)\n      dup1\n      swap2\n      sub\n      swap1\n      return\n        /* \"contract/lottery.sol\":17434:17629  function getGlobalStatistic() public view returns(uint[5] memory result) {\r... */\n    tag_11:\n      callvalue\n      dup1\n      iszero\n      tag_113\n      jumpi\n      0x00\n      dup1\n      revert\n    tag_113:\n      pop\n      tag_114\n      tag_115\n      jump\t// in\n    tag_114:\n      mload(0x40)\n      dup1\n      dup3\n      mul(0x20, 0x05)\n      dup1\n      dup4\n      dup4\n      0x00\n    tag_116:\n      dup4\n      dup2\n      lt\n      iszero\n      tag_118\n      jumpi\n      dup1\n      dup3\n      add\n      mload\n      dup2\n      dup5\n      add\n      mstore\n      0x20\n      dup2\n      add\n      swap1\n      pop\n      jump(tag_116)\n    tag_118:\n      pop\n      pop\n      pop\n      pop\n      swap1\n      pop\n      add\n      swap2\n      pop\n      pop\n      mload(0x40)\n      dup1\n      swap2\n      sub\n      swap1\n      return\n        /* \"contract/lottery.sol\":2958:2997  uint8 public constant rewardPayouts = 2 */\n    tag_12:\n      callvalue\n      dup1\n      iszero\n      tag_119\n      jumpi\n      0x00\n      dup1\n      revert\n    tag_119:\n      pop\n      tag_120\n      tag_121\n      jump\t// in\n    tag_120:\n      mload(0x40)\n      dup1\n      dup3\n      0xff\n      and\n      dup2\n      mstore\n      0x20\n      add\n      swap2\n      pop\n      pop\n      mload(0x40)\n      dup1\n      swap2\n      sub\n      swap1\n      return\n        /* \"contract/lottery.sol\":3241:3273  address payable public marketing */\n    tag_13:\n      callvalue\n      dup1\n      iszero\n      tag_122\n      jumpi\n      0x00\n      dup1\n      revert\n    tag_122:\n      pop\n      tag_123\n      tag_124\n      jump\t// in\n    tag_123:\n      mload(0x40)\n      dup1\n      dup3\n      0xffffffffffffffffffffffffffffffffffffffff\n      and\n      dup2\n      mstore\n      0x20\n      add\n      swap2\n      pop\n      pop\n      mload(0x40)\n      dup1\n      swap2\n      sub\n      swap1\n      return\n        /* \"contract/lottery.sol\":17216:17318  function gettimeRoundEnd() public view returns(uint[16] memory) {\r... */\n    tag_14:\n      callvalue\n      dup1\n      iszero\n      tag_125\n      jumpi\n      0x00\n      dup1\n      revert\n    tag_125:\n      pop\n      tag_126\n      tag_127\n      jump\t// in\n    tag_126:\n      mload(0x40)\n      dup1\n      dup3\n      mul(0x20, 0x10)\n      dup1\n      dup4\n      dup4\n      0x00\n    tag_128:\n      dup4\n      dup2\n      lt\n      iszero\n      tag_130\n      jumpi\n      dup1\n      dup3\n      add\n      mload\n      dup2\n      dup5\n      add\n      mstore\n      0x20\n      dup2\n      add\n      swap1\n      pop\n      jump(tag_128)\n    tag_130:\n      pop\n      pop\n      pop\n      pop\n      swap1\n      pop\n      add\n      swap2\n      pop\n      pop\n      mload(0x40)\n      dup1\n      swap2\n      sub\n      swap1\n      return\n        /* \"contract/lottery.sol\":19089:19377  function calcSecretPrize(uint8 round) public view returns(uint value) {\r... */\n    tag_15:\n      callvalue\n      dup1\n      iszero\n      tag_131\n      jumpi\n      0x00\n      dup1\n      revert\n    tag_131:\n      pop\n      tag_132\n      0x04\n      dup1\n      calldatasize\n      sub\n      0x20\n      dup2\n      lt\n      iszero\n      tag_133\n      jumpi\n      0x00\n      dup1\n      revert\n    tag_133:\n      dup2\n      add\n      swap1\n      dup1\n      dup1\n      calldataload\n      0xff\n      and\n      swap1\n      0x20\n      add\n      swap1\n      swap3\n      swap2\n      swap1\n      pop\n      pop\n      pop\n      tag_134\n      jump\t// in\n    tag_132:\n      mload(0x40)\n      dup1\n      dup3\n      dup2\n      mstore\n      0x20\n      add\n      swap2\n      pop\n      pop\n      mload(0x40)\n      dup1\n      swap2\n      sub\n      swap1\n      return\n        /* \"contract/lottery.sol\":17990:18113  function getUserIdByAddress(address userAddress) public view returns (uint) {\r... */\n    tag_16:\n      callvalue\n      dup1\n      iszero\n      tag_135\n      jumpi\n      0x00\n      dup1\n      revert\n    tag_135:\n      pop\n      tag_136\n      0x04\n      dup1\n      calldatasize\n      sub\n      0x20\n      dup2\n      lt\n      iszero\n      tag_137\n      jumpi\n      0x00\n      dup1\n      revert\n    tag_137:\n      dup2\n      add\n      swap1\n      dup1\n      dup1\n      calldataload\n      0xffffffffffffffffffffffffffffffffffffffff\n      and\n      swap1\n      0x20\n      add\n      swap1\n      swap3\n      swap2\n      swap1\n      pop\n      pop\n      pop\n      tag_138\n      jump\t// in\n    tag_136:\n      mload(0x40)\n      dup1\n      dup3\n      dup2\n      mstore\n      0x20\n      add\n      swap2\n      pop\n      pop\n      mload(0x40)\n      dup1\n      swap2\n      sub\n      swap1\n      return\n        /* \"contract/lottery.sol\":18311:18511  function getReferrer(address userAddress) public view returns (address) {\r... */\n    tag_17:\n      callvalue\n      dup1\n      iszero\n      tag_139\n      jumpi\n      0x00\n      dup1\n      revert\n    tag_139:\n      pop\n      tag_140\n      0x04\n      dup1\n      calldatasize\n      sub\n      0x20\n      dup2\n      lt\n      iszero\n      tag_141\n      jumpi\n      0x00\n      dup1\n      revert\n    tag_141:\n      dup2\n      add\n      swap1\n      dup1\n      dup1\n      calldataload\n      0xffffffffffffffffffffffffffffffffffffffff\n      and\n      swap1\n      0x20\n      add\n      swap1\n      swap3\n      swap2\n      swap1\n      pop\n      pop\n      pop\n      tag_142\n      jump\t// in\n    tag_140:\n      mload(0x40)\n      dup1\n      dup3\n      0xffffffffffffffffffffffffffffffffffffffff\n      and\n      dup2\n      mstore\n      0x20\n      add\n      swap2\n      pop\n      pop\n      mload(0x40)\n      dup1\n      swap2\n      sub\n      swap1\n      return\n        /* \"contract/lottery.sol\":3102:3141  uint8 public referralRewardPercents = 9 */\n    tag_18:\n      callvalue\n      dup1\n      iszero\n      tag_143\n      jumpi\n      0x00\n      dup1\n      revert\n    tag_143:\n      pop\n      tag_144\n      tag_145\n      jump\t// in\n    tag_144:\n      mload(0x40)\n      dup1\n      dup3\n      0xff\n      and\n      dup2\n      mstore\n      0x20\n      add\n      swap2\n      pop\n      pop\n      mload(0x40)\n      dup1\n      swap2\n      sub\n      swap1\n      return\n        /* \"contract/lottery.sol\":6721:10919  function buyround(uint8 round) public payable nonReentrant{\r... */\n    tag_19:\n      tag_146\n      0x04\n      dup1\n      calldatasize\n      sub\n      0x20\n      dup2\n      lt\n      iszero\n      tag_147\n      jumpi\n      0x00\n      dup1\n      revert\n    tag_147:\n      dup2\n      add\n      swap1\n      dup1\n      dup1\n      calldataload\n      0xff\n      and\n      swap1\n      0x20\n      add\n      swap1\n      swap3\n      swap2\n      swap1\n      pop\n      pop\n      pop\n      tag_65\n      jump\t// in\n    tag_146:\n      stop\n        /* \"contract/lottery.sol\":15162:15780  function getUserroundsMissedProfit(address userAddress) public view returns ( uint[] memory, uint[] memory) {\r... */\n    tag_20:\n      callvalue\n      dup1\n      iszero\n      tag_148\n      jumpi\n      0x00\n      dup1\n      revert\n    tag_148:\n      pop\n      tag_149\n      0x04\n      dup1\n      calldatasize\n      sub\n      0x20\n      dup2\n      lt\n      iszero\n      tag_150\n      jumpi\n      0x00\n      dup1\n      revert\n    tag_150:\n      dup2\n      add\n      swap1\n      dup1\n      dup1\n      calldataload\n      0xffffffffffffffffffffffffffffffffffffffff\n      and\n      swap1\n      0x20\n      add\n      swap1\n      swap3\n      swap2\n      swap1\n      pop\n      pop\n      pop\n      tag_151\n      jump\t// in\n    tag_149:\n      mload(0x40)\n      dup1\n      dup1\n      0x20\n      add\n      dup1\n      0x20\n      add\n      dup4\n      dup2\n      sub\n      dup4\n      mstore\n      dup6\n      dup2\n      dup2\n      mload\n      dup2\n      mstore\n      0x20\n      add\n      swap2\n      pop\n      dup1\n      mload\n      swap1\n      0x20\n      add\n      swap1\n      0x20\n      mul\n      dup1\n      dup4\n      dup4\n      0x00\n    tag_152:\n      dup4\n      dup2\n      lt\n      iszero\n      tag_154\n      jumpi\n      dup1\n      dup3\n      add\n      mload\n      dup2\n      dup5\n      add\n      mstore\n      0x20\n      dup2\n      add\n      swap1\n      pop\n      jump(tag_152)\n    tag_154:\n      pop\n      pop\n      pop\n      pop\n      swap1\n      pop\n      add\n      dup4\n      dup2\n      sub\n      dup3\n      mstore\n      dup5\n      dup2\n      dup2\n      mload\n      dup2\n      mstore\n      0x20\n      add\n      swap2\n      pop\n      dup1\n      mload\n      swap1\n      0x20\n      add\n      swap1\n      0x20\n      mul\n      dup1\n      dup4\n      dup4\n      0x00\n    tag_155:\n      dup4\n      dup2\n      lt\n      iszero\n      tag_157\n      jumpi\n      dup1\n      dup3\n      add\n      mload\n      dup2\n      dup5\n      add\n      mstore\n      0x20\n      dup2\n      add\n      swap1\n      pop\n      jump(tag_155)\n    tag_157:\n      pop\n      pop\n      pop\n      pop\n      swap1\n      pop\n      add\n      swap5\n      pop\n      pop\n      pop\n      pop\n      pop\n      mload(0x40)\n      dup1\n      swap2\n      sub\n      swap1\n      return\n        /* \"contract/lottery.sol\":662:690  uint[16] public timeRoudsEnd */\n    tag_21:\n      callvalue\n      dup1\n      iszero\n      tag_158\n      jumpi\n      0x00\n      dup1\n      revert\n    tag_158:\n      pop\n      tag_159\n      0x04\n      dup1\n      calldatasize\n      sub\n      0x20\n      dup2\n      lt\n      iszero\n      tag_160\n      jumpi\n      0x00\n      dup1\n      revert\n    tag_160:\n      dup2\n      add\n      swap1\n      dup1\n      dup1\n      calldataload\n      swap1\n      0x20\n      add\n      swap1\n      swap3\n      swap2\n      swap1\n      pop\n      pop\n      pop\n      tag_161\n      jump\t// in\n    tag_159:\n      mload(0x40)\n      dup1\n      dup3\n      dup2\n      mstore\n      0x20\n      add\n      swap2\n      pop\n      pop\n      mload(0x40)\n      dup1\n      swap2\n      sub\n      swap1\n      return\n        /* \"contract/lottery.sol\":3280:3660  uint[] public roundPrice = [\r... */\n    tag_22:\n      callvalue\n      dup1\n      iszero\n      tag_162\n      jumpi\n      0x00\n      dup1\n      revert\n    tag_162:\n      pop\n      tag_163\n      0x04\n      dup1\n      calldatasize\n      sub\n      0x20\n      dup2\n      lt\n      iszero\n      tag_164\n      jumpi\n      0x00\n      dup1\n      revert\n    tag_164:\n      dup2\n      add\n      swap1\n      dup1\n      dup1\n      calldataload\n      swap1\n      0x20\n      add\n      swap1\n      swap3\n      swap2\n      swap1\n      pop\n      pop\n      pop\n      tag_165\n      jump\t// in\n    tag_163:\n      mload(0x40)\n      dup1\n      dup3\n      dup2\n      mstore\n      0x20\n      add\n      swap2\n      pop\n      pop\n      mload(0x40)\n      dup1\n      swap2\n      sub\n      swap1\n      return\n        /* \"contract/lottery.sol\":630:655  uint[16] public RoiRounds */\n    tag_23:\n      callvalue\n      dup1\n      iszero\n      tag_166\n      jumpi\n      0x00\n      dup1\n      revert\n    tag_166:\n      pop\n      tag_167\n      0x04\n      dup1\n      calldatasize\n      sub\n      0x20\n      dup2\n      lt\n      iszero\n      tag_168\n      jumpi\n      0x00\n      dup1\n      revert\n    tag_168:\n      dup2\n      add\n      swap1\n      dup1\n      dup1\n      calldataload\n      swap1\n      0x20\n      add\n      swap1\n      swap3\n      swap2\n      swap1\n      pop\n      pop\n      pop\n      tag_169\n      jump\t// in\n    tag_167:\n      mload(0x40)\n      dup1\n      dup3\n      dup2\n      mstore\n      0x20\n      add\n      swap2\n      pop\n      pop\n      mload(0x40)\n      dup1\n      swap2\n      sub\n      swap1\n      return\n        /* \"contract/lottery.sol\":14617:15152  function getUser(address userAddress) public view returns(uint, uint, uint, address, uint, uint, uint, uint, uint, uint) {\r... */\n    tag_24:\n      callvalue\n      dup1\n      iszero\n      tag_170\n      jumpi\n      0x00\n      dup1\n      revert\n    tag_170:\n      pop\n      tag_171\n      0x04\n      dup1\n      calldatasize\n      sub\n      0x20\n      dup2\n      lt\n      iszero\n      tag_172\n      jumpi\n      0x00\n      dup1\n      revert\n    tag_172:\n      dup2\n      add\n      swap1\n      dup1\n      dup1\n      calldataload\n      0xffffffffffffffffffffffffffffffffffffffff\n      and\n      swap1\n      0x20\n      add\n      swap1\n      swap3\n      swap2\n      swap1\n      pop\n      pop\n      pop\n      tag_173\n      jump\t// in\n    tag_171:\n      mload(0x40)\n      dup1\n      dup12\n      dup2\n      mstore\n      0x20\n      add\n      dup11\n      dup2\n      mstore\n      0x20\n      add\n      dup10\n      dup2\n      mstore\n      0x20\n      add\n      dup9\n      0xffffffffffffffffffffffffffffffffffffffff\n      and\n      dup2\n      mstore\n      0x20\n      add\n      dup8\n      dup2\n      mstore\n      0x20\n      add\n      dup7\n      dup2\n      mstore\n      0x20\n      add\n      dup6\n      dup2\n      mstore\n      0x20\n      add\n      dup5\n      dup2\n      mstore\n      0x20\n      add\n      dup4\n      dup2\n      mstore\n      0x20\n      add\n      dup3\n      dup2\n      mstore\n      0x20\n      add\n      swap11\n      pop\n      pop\n      pop\n      pop\n      pop\n      pop\n      pop\n      pop\n      pop\n      pop\n      pop\n      mload(0x40)\n      dup1\n      swap2\n      sub\n      swap1\n      return\n        /* \"contract/lottery.sol\":17635:17739  function getContractBalance() public view returns (uint) {\r... */\n    tag_25:\n      callvalue\n      dup1\n      iszero\n      tag_174\n      jumpi\n      0x00\n      dup1\n      revert\n    tag_174:\n      pop\n      tag_175\n      tag_176\n      jump\t// in\n    tag_175:\n      mload(0x40)\n      dup1\n      dup3\n      dup2\n      mstore\n      0x20\n      add\n      swap2\n      pop\n      pop\n      mload(0x40)\n      dup1\n      swap2\n      sub\n      swap1\n      return\n        /* \"contract/lottery.sol\":600:623  uint public timeLottery */\n    tag_26:\n      callvalue\n      dup1\n      iszero\n      tag_177\n      jumpi\n      0x00\n      dup1\n      revert\n    tag_177:\n      pop\n      tag_178\n      tag_179\n      jump\t// in\n    tag_178:\n      mload(0x40)\n      dup1\n      dup3\n      dup2\n      mstore\n      0x20\n      add\n      swap2\n      pop\n      pop\n      mload(0x40)\n      dup1\n      swap2\n      sub\n      swap1\n      return\n        /* \"contract/lottery.sol\":10925:10960  function income() public payable {} */\n    tag_27:\n      tag_180\n      tag_181\n      jump\t// in\n    tag_180:\n      stop\n        /* \"contract/lottery.sol\":17863:17984  function getUserAddressById(uint userId) public view returns (address) {\r... */\n    tag_28:\n      callvalue\n      dup1\n      iszero\n      tag_182\n      jumpi\n      0x00\n      dup1\n      revert\n    tag_182:\n      pop\n      tag_183\n      0x04\n      dup1\n      calldatasize\n      sub\n      0x20\n      dup2\n      lt\n      iszero\n      tag_184\n      jumpi\n      0x00\n      dup1\n      revert\n    tag_184:\n      dup2\n      add\n      swap1\n      dup1\n      dup1\n      calldataload\n      swap1\n      0x20\n      add\n      swap1\n      swap3\n      swap2\n      swap1\n      pop\n      pop\n      pop\n      tag_185\n      jump\t// in\n    tag_183:\n      mload(0x40)\n      dup1\n      dup3\n      0xffffffffffffffffffffffffffffffffffffffff\n      and\n      dup2\n      mstore\n      0x20\n      add\n      swap2\n      pop\n      pop\n      mload(0x40)\n      dup1\n      swap2\n      sub\n      swap1\n      return\n        /* \"contract/lottery.sol\":17325:17428  function getLotteryWiner() public view returns(address[50] memory) {\r... */\n    tag_29:\n      callvalue\n      dup1\n      iszero\n      tag_186\n      jumpi\n      0x00\n      dup1\n      revert\n    tag_186:\n      pop\n      tag_187\n      tag_188\n      jump\t// in\n    tag_187:\n      mload(0x40)\n      dup1\n      dup3\n      mul(0x20, 0x32)\n      dup1\n      dup4\n      dup4\n      0x00\n    tag_189:\n      dup4\n      dup2\n      lt\n      iszero\n      tag_191\n      jumpi\n      dup1\n      dup3\n      add\n      mload\n      dup2\n      dup5\n      add\n      mstore\n      0x20\n      dup2\n      add\n      swap1\n      pop\n      jump(tag_189)\n    tag_191:\n      pop\n      pop\n      pop\n      pop\n      swap1\n      pop\n      add\n      swap2\n      pop\n      pop\n      mload(0x40)\n      dup1\n      swap2\n      sub\n      swap1\n      return\n        /* \"contract/lottery.sol\":3206:3234  address payable public owner */\n    tag_30:\n      callvalue\n      dup1\n      iszero\n      tag_192\n      jumpi\n      0x00\n      dup1\n      revert\n    tag_192:\n      pop\n      tag_193\n      tag_194\n      jump\t// in\n    tag_193:\n      mload(0x40)\n      dup1\n      dup3\n      0xffffffffffffffffffffffffffffffffffffffff\n      and\n      dup2\n      mstore\n      0x20\n      add\n      swap2\n      pop\n      pop\n      mload(0x40)\n      dup1\n      swap2\n      sub\n      swap1\n      return\n        /* \"contract/lottery.sol\":10966:12223  function Lottery(uint ticket) public {\r... */\n    tag_31:\n      callvalue\n      dup1\n      iszero\n      tag_195\n      jumpi\n      0x00\n      dup1\n      revert\n    tag_195:\n      pop\n      tag_196\n      0x04\n      dup1\n      calldatasize\n      sub\n      0x20\n      dup2\n      lt\n      iszero\n      tag_197\n      jumpi\n      0x00\n      dup1\n      revert\n    tag_197:\n      dup2\n      add\n      swap1\n      dup1\n      dup1\n      calldataload\n      swap1\n      0x20\n      add\n      swap1\n      swap3\n      swap2\n      swap1\n      pop\n      pop\n      pop\n      tag_198\n      jump\t// in\n    tag_196:\n      stop\n        /* \"contract/lottery.sol\":5647:6715  function registerWithReferrer(address referrer) public payable {\r... */\n    tag_32:\n      tag_199\n      0x04\n      dup1\n      calldatasize\n      sub\n      0x20\n      dup2\n      lt\n      iszero\n      tag_200\n      jumpi\n      0x00\n      dup1\n      revert\n    tag_200:\n      dup2\n      add\n      swap1\n      dup1\n      dup1\n      calldataload\n      0xffffffffffffffffffffffffffffffffffffffff\n      and\n      swap1\n      0x20\n      add\n      swap1\n      swap3\n      swap2\n      swap1\n      pop\n      pop\n      pop\n      tag_201\n      jump\t// in\n    tag_199:\n      stop\n        /* \"contract/lottery.sol\":3148:3193  uint8 public referralRewardProfitPercents = 8 */\n    tag_33:\n      callvalue\n      dup1\n      iszero\n      tag_202\n      jumpi\n      0x00\n      dup1\n      revert\n    tag_202:\n      pop\n      tag_203\n      tag_204\n      jump\t// in\n    tag_203:\n      mload(0x40)\n      dup1\n      dup3\n      0xff\n      and\n      dup2\n      mstore\n      0x20\n      add\n      swap2\n      pop\n      pop\n      mload(0x40)\n      dup1\n      swap2\n      sub\n      swap1\n      return\n        /* \"contract/lottery.sol\":742:792  mapping(address => uint) public lastTimeActivation */\n    tag_34:\n      callvalue\n      dup1\n      iszero\n      tag_205\n      jumpi\n      0x00\n      dup1\n      revert\n    tag_205:\n      pop\n      tag_206\n      0x04\n      dup1\n      calldatasize\n      sub\n      0x20\n      dup2\n      lt\n      iszero\n      tag_207\n      jumpi\n      0x00\n      dup1\n      revert\n    tag_207:\n      dup2\n      add\n      swap1\n      dup1\n      dup1\n      calldataload\n      0xffffffffffffffffffffffffffffffffffffffff\n      and\n      swap1\n      0x20\n      add\n      swap1\n      swap3\n      swap2\n      swap1\n      pop\n      pop\n      pop\n      tag_208\n      jump\t// in\n    tag_206:\n      mload(0x40)\n      dup1\n      dup3\n      dup2\n      mstore\n      0x20\n      add\n      swap2\n      pop\n      pop\n      mload(0x40)\n      dup1\n      swap2\n      sub\n      swap1\n      return\n        /* \"contract/lottery.sol\":5417:5544  function buyFirstRound(address referrer) public payable {\r... */\n    tag_35:\n      tag_209\n      0x04\n      dup1\n      calldatasize\n      sub\n      0x20\n      dup2\n      lt\n      iszero\n      tag_210\n      jumpi\n      0x00\n      dup1\n      revert\n    tag_210:\n      dup2\n      add\n      swap1\n      dup1\n      dup1\n      calldataload\n      0xffffffffffffffffffffffffffffffffffffffff\n      and\n      swap1\n      0x20\n      add\n      swap1\n      swap3\n      swap2\n      swap1\n      pop\n      pop\n      pop\n      tag_211\n      jump\t// in\n    tag_209:\n      stop\n        /* \"contract/lottery.sol\":18119:18305  function getReferrerId(address userAddress) public view returns (uint) {\r... */\n    tag_36:\n      callvalue\n      dup1\n      iszero\n      tag_212\n      jumpi\n      0x00\n      dup1\n      revert\n    tag_212:\n      pop\n      tag_213\n      0x04\n      dup1\n      calldatasize\n      sub\n      0x20\n      dup2\n      lt\n      iszero\n      tag_214\n      jumpi\n      0x00\n      dup1\n      revert\n    tag_214:\n      dup2\n      add\n      swap1\n      dup1\n      dup1\n      calldataload\n      0xffffffffffffffffffffffffffffffffffffffff\n      and\n      swap1\n      0x20\n      add\n      swap1\n      swap3\n      swap2\n      swap1\n      pop\n      pop\n      pop\n      tag_215\n      jump\t// in\n    tag_213:\n      mload(0x40)\n      dup1\n      dup3\n      dup2\n      mstore\n      0x20\n      add\n      swap2\n      pop\n      pop\n      mload(0x40)\n      dup1\n      swap2\n      sub\n      swap1\n      return\n        /* \"contract/lottery.sol\":3004:3045  uint8 public constant rewardPercents = 75 */\n    tag_37:\n      callvalue\n      dup1\n      iszero\n      tag_216\n      jumpi\n      0x00\n      dup1\n      revert\n    tag_216:\n      pop\n      tag_217\n      tag_218\n      jump\t// in\n    tag_217:\n      mload(0x40)\n      dup1\n      dup3\n      0xff\n      and\n      dup2\n      mstore\n      0x20\n      add\n      swap2\n      pop\n      pop\n      mload(0x40)\n      dup1\n      swap2\n      sub\n      swap1\n      return\n        /* \"contract/lottery.sol\":12229:12703  function getPrize() public nonReentrant{\r... */\n    tag_38:\n      callvalue\n      dup1\n      iszero\n      tag_219\n      jumpi\n      0x00\n      dup1\n      revert\n    tag_219:\n      pop\n      tag_220\n      tag_221\n      jump\t// in\n    tag_220:\n      stop\n        /* \"contract/lottery.sol\":17115:17210  function getRoiRound() public view returns(uint[16] memory) {\r... */\n    tag_39:\n      callvalue\n      dup1\n      iszero\n      tag_222\n      jumpi\n      0x00\n      dup1\n      revert\n    tag_222:\n      pop\n      tag_223\n      tag_224\n      jump\t// in\n    tag_223:\n      mload(0x40)\n      dup1\n      dup3\n      mul(0x20, 0x10)\n      dup1\n      dup4\n      dup4\n      0x00\n    tag_225:\n      dup4\n      dup2\n      lt\n      iszero\n      tag_227\n      jumpi\n      dup1\n      dup3\n      add\n      mload\n      dup2\n      dup5\n      add\n      mstore\n      0x20\n      dup2\n      add\n      swap1\n      pop\n      jump(tag_225)\n    tag_227:\n      pop\n      pop\n      pop\n      pop\n      swap1\n      pop\n      add\n      swap2\n      pop\n      pop\n      mload(0x40)\n      dup1\n      swap2\n      sub\n      swap1\n      return\n        /* \"contract/lottery.sol\":18517:19083  function getPlaceInQueue(address userAddress, uint8 round) public view returns(uint, uint) {\r... */\n    tag_40:\n      callvalue\n      dup1\n      iszero\n      tag_228\n      jumpi\n      0x00\n      dup1\n      revert\n    tag_228:\n      pop\n      tag_229\n      0x04\n      dup1\n      calldatasize\n      sub\n      0x40\n      dup2\n      lt\n      iszero\n      tag_230\n      jumpi\n      0x00\n      dup1\n      revert\n    tag_230:\n      dup2\n      add\n      swap1\n      dup1\n      dup1\n      calldataload\n      0xffffffffffffffffffffffffffffffffffffffff\n      and\n      swap1\n      0x20\n      add\n      swap1\n      swap3\n      swap2\n      swap1\n      dup1\n      calldataload\n      0xff\n      and\n      swap1\n      0x20\n      add\n      swap1\n      swap3\n      swap2\n      swap1\n      pop\n      pop\n      pop\n      tag_231\n      jump\t// in\n    tag_229:\n      mload(0x40)\n      dup1\n      dup4\n      dup2\n      mstore\n      0x20\n      add\n      dup3\n      dup2\n      mstore\n      0x20\n      add\n      swap3\n      pop\n      pop\n      pop\n      mload(0x40)\n      dup1\n      swap2\n      sub\n      swap1\n      return\n        /* \"contract/lottery.sol\":3052:3095  uint8 public constant marketingPercents = 7 */\n    tag_41:\n      callvalue\n      dup1\n      iszero\n      tag_232\n      jumpi\n      0x00\n      dup1\n      revert\n    tag_232:\n      pop\n      tag_233\n      tag_234\n      jump\t// in\n    tag_233:\n      mload(0x40)\n      dup1\n      dup3\n      0xff\n      and\n      dup2\n      mstore\n      0x20\n      add\n      swap2\n      pop\n      pop\n      mload(0x40)\n      dup1\n      swap2\n      sub\n      swap1\n      return\n        /* \"contract/lottery.sol\":566:593  uint public todayWinerValue */\n    tag_42:\n      callvalue\n      dup1\n      iszero\n      tag_235\n      jumpi\n      0x00\n      dup1\n      revert\n    tag_235:\n      pop\n      tag_236\n      tag_237\n      jump\t// in\n    tag_236:\n      mload(0x40)\n      dup1\n      dup3\n      dup2\n      mstore\n      0x20\n      add\n      swap2\n      pop\n      pop\n      mload(0x40)\n      dup1\n      swap2\n      sub\n      swap1\n      return\n        /* \"contract/lottery.sol\":17745:17857  function isUserRegistered(address addr) public view returns (bool) {\r... */\n    tag_60:\n        /* \"contract/lottery.sol\":17806:17810  bool */\n      0x00\n        /* \"contract/lottery.sol\":17848:17849  0 */\n      dup1\n        /* \"contract/lottery.sol\":17830:17835  users */\n      0x6b\n        /* \"contract/lottery.sol\":17830:17841  users[addr] */\n      0x00\n        /* \"contract/lottery.sol\":17836:17840  addr */\n      dup5\n        /* \"contract/lottery.sol\":17830:17841  users[addr] */\n      0xffffffffffffffffffffffffffffffffffffffff\n      and\n      0xffffffffffffffffffffffffffffffffffffffff\n      and\n      dup2\n      mstore\n      0x20\n      add\n      swap1\n      dup2\n      mstore\n      0x20\n      add\n      0x00\n      keccak256\n        /* \"contract/lottery.sol\":17830:17844  users[addr].id */\n      0x00\n      add\n      sload\n        /* \"contract/lottery.sol\":17830:17849  users[addr].id != 0 */\n      eq\n      iszero\n        /* \"contract/lottery.sol\":17823:17849  return users[addr].id != 0 */\n      swap1\n      pop\n        /* \"contract/lottery.sol\":17745:17857  function isUserRegistered(address addr) public view returns (bool) {\r... */\n      swap2\n      swap1\n      pop\n      jump\t// out\n        /* \"contract/lottery.sol\":5550:5641  function register() public payable {\r... */\n    tag_63:\n        /* \"contract/lottery.sol\":5596:5623  registerWithReferrer(owner) */\n      tag_240\n        /* \"contract/lottery.sol\":5617:5622  owner */\n      0x66\n      0x02\n      swap1\n      sload\n      swap1\n      0x0100\n      exp\n      swap1\n      div\n      0xffffffffffffffffffffffffffffffffffffffff\n      and\n        /* \"contract/lottery.sol\":5596:5616  registerWithReferrer */\n      tag_201\n        /* \"contract/lottery.sol\":5596:5623  registerWithReferrer(owner) */\n      jump\t// in\n    tag_240:\n        /* \"contract/lottery.sol\":5550:5641  function register() public payable {\r... */\n      jump\t// out\n        /* \"contract/lottery.sol\":6721:10919  function buyround(uint8 round) public payable nonReentrant{\r... */\n    tag_65:\n        /* \"contract/lottery.sol\":180:181  2 */\n      0x02\n        /* \"contract/lottery.sol\":335:342  _status */\n      sload(0x00)\n        /* \"contract/lottery.sol\":335:354  _status != _ENTERED */\n      eq\n      iszero\n        /* \"contract/lottery.sol\":327:390  require(_status != _ENTERED, \"ReentrancyGuard: reentrant call\") */\n      tag_242\n      jumpi\n      mload(0x40)\n      0x08c379a000000000000000000000000000000000000000000000000000000000\n      dup2\n      mstore\n      0x04\n      add\n      dup1\n      dup1\n      0x20\n      add\n      dup3\n      dup2\n      sub\n      dup3\n      mstore\n      0x1f\n      dup2\n      mstore\n      0x20\n      add\n      dup1\n      0x5265656e7472616e637947756172643a207265656e7472616e742063616c6c00\n      dup2\n      mstore\n      pop\n      0x20\n      add\n      swap2\n      pop\n      pop\n      mload(0x40)\n      dup1\n      swap2\n      sub\n      swap1\n      revert\n    tag_242:\n        /* \"contract/lottery.sol\":180:181  2 */\n      0x02\n        /* \"contract/lottery.sol\":401:408  _status */\n      0x00\n        /* \"contract/lottery.sol\":401:419  _status = _ENTERED */\n      dup2\n      swap1\n      sstore\n      pop\n        /* \"contract/lottery.sol\":6798:6826  isUserRegistered(msg.sender) */\n      tag_244\n        /* \"contract/lottery.sol\":6815:6825  msg.sender */\n      caller\n        /* \"contract/lottery.sol\":6798:6814  isUserRegistered */\n      tag_60\n        /* \"contract/lottery.sol\":6798:6826  isUserRegistered(msg.sender) */\n      jump\t// in\n    tag_244:\n        /* \"contract/lottery.sol\":6790:6853  require(isUserRegistered(msg.sender), \"User is not registered\") */\n      tag_245\n      jumpi\n      mload(0x40)\n      0x08c379a000000000000000000000000000000000000000000000000000000000\n      dup2\n      mstore\n      0x04\n      add\n      dup1\n      dup1\n      0x20\n      add\n      dup3\n      dup2\n      sub\n      dup3\n      mstore\n      0x16\n      dup2\n      mstore\n      0x20\n      add\n      dup1\n      0x55736572206973206e6f74207265676973746572656400000000000000000000\n      dup2\n      mstore\n      pop\n      0x20\n      add\n      swap2\n      pop\n      pop\n      mload(0x40)\n      dup1\n      swap2\n      sub\n      swap1\n      revert\n    tag_245:\n        /* \"contract/lottery.sol\":6880:6881  0 */\n      0x00\n        /* \"contract/lottery.sol\":6872:6877  round */\n      dup2\n        /* \"contract/lottery.sol\":6872:6881  round > 0 */\n      0xff\n      and\n      gt\n        /* \"contract/lottery.sol\":6872:6905  round > 0 && round <= totalrounds */\n      dup1\n      iszero\n      tag_246\n      jumpi\n      pop\n        /* \"contract/lottery.sol\":6894:6905  totalrounds */\n      sload(0x69)\n        /* \"contract/lottery.sol\":6885:6890  round */\n      dup2\n        /* \"contract/lottery.sol\":6885:6905  round <= totalrounds */\n      0xff\n      and\n      gt\n      iszero\n        /* \"contract/lottery.sol\":6872:6905  round > 0 && round <= totalrounds */\n    tag_246:\n        /* \"contract/lottery.sol\":6864:6923  require(round > 0 && round <= totalrounds, \"Invalid round\") */\n      tag_247\n      jumpi\n      mload(0x40)\n      0x08c379a000000000000000000000000000000000000000000000000000000000\n      dup2\n      mstore\n      0x04\n      add\n      dup1\n      dup1\n      0x20\n      add\n      dup3\n      dup2\n      sub\n      dup3\n      mstore\n      0x0d\n      dup2\n      mstore\n      0x20\n      add\n      dup1\n      0x496e76616c696420726f756e6400000000000000000000000000000000000000\n      dup2\n      mstore\n      pop\n      0x20\n      add\n      swap2\n      pop\n      pop\n      mload(0x40)\n      dup1\n      swap2\n      sub\n      swap1\n      revert\n    tag_247:\n        /* \"contract/lottery.sol\":6963:6972  msg.value */\n      callvalue\n        /* \"contract/lottery.sol\":6942:6952  roundPrice */\n      0x68\n        /* \"contract/lottery.sol\":6953:6958  round */\n      dup3\n        /* \"contract/lottery.sol\":6942:6959  roundPrice[round] */\n      0xff\n      and\n      dup2\n      sload\n      dup2\n      lt\n      tag_248\n      jumpi\n      invalid\n    tag_248:\n      swap1\n      0x00\n      mstore\n      keccak256(0x00, 0x20)\n      add\n      sload\n        /* \"contract/lottery.sol\":6942:6972  roundPrice[round] == msg.value */\n      eq\n        /* \"contract/lottery.sol\":6934:6994  require(roundPrice[round] == msg.value, \"Invalid BNB value\") */\n      tag_250\n      jumpi\n      mload(0x40)\n      0x08c379a000000000000000000000000000000000000000000000000000000000\n      dup2\n      mstore\n      0x04\n      add\n      dup1\n      dup1\n      0x20\n      add\n      dup3\n      dup2\n      sub\n      dup3\n      mstore\n      0x11\n      dup2\n      mstore\n      0x20\n      add\n      dup1\n      0x496e76616c696420424e422076616c7565000000000000000000000000000000\n      dup2\n      mstore\n      pop\n      0x20\n      add\n      swap2\n      pop\n      pop\n      mload(0x40)\n      dup1\n      swap2\n      sub\n      swap1\n      revert\n    tag_250:\n        /* \"contract/lottery.sol\":7014:7036  isContract(msg.sender) */\n      tag_251\n        /* \"contract/lottery.sol\":7025:7035  msg.sender */\n      caller\n        /* \"contract/lottery.sol\":7014:7024  isContract */\n      tag_75\n        /* \"contract/lottery.sol\":7014:7036  isContract(msg.sender) */\n      jump\t// in\n    tag_251:\n        /* \"contract/lottery.sol\":7013:7036  !isContract(msg.sender) */\n      iszero\n        /* \"contract/lottery.sol\":7005:7062  require(!isContract(msg.sender), \"Can not be a contract\") */\n      tag_252\n      jumpi\n      mload(0x40)\n      0x08c379a000000000000000000000000000000000000000000000000000000000\n      dup2\n      mstore\n      0x04\n      add\n      dup1\n      dup1\n      0x20\n      add\n      dup3\n      dup2\n      sub\n      dup3\n      mstore\n      0x15\n      dup2\n      mstore\n      0x20\n      add\n      dup1\n      0x43616e206e6f74206265206120636f6e74726163740000000000000000000000\n      dup2\n      mstore\n      pop\n      0x20\n      add\n      swap2\n      pop\n      pop\n      mload(0x40)\n      dup1\n      swap2\n      sub\n      swap1\n      revert\n    tag_252:\n        /* \"contract/lottery.sol\":7117:7118  1 */\n      0x01\n        /* \"contract/lottery.sol\":7090:7095  users */\n      0x6b\n        /* \"contract/lottery.sol\":7090:7107  users[msg.sender] */\n      0x00\n        /* \"contract/lottery.sol\":7096:7106  msg.sender */\n      caller\n        /* \"contract/lottery.sol\":7090:7107  users[msg.sender] */\n      0xffffffffffffffffffffffffffffffffffffffff\n      and\n      0xffffffffffffffffffffffffffffffffffffffff\n      and\n      dup2\n      mstore\n      0x20\n      add\n      swap1\n      dup2\n      mstore\n      0x20\n      add\n      0x00\n      keccak256\n        /* \"contract/lottery.sol\":7090:7116  users[msg.sender].maxRound */\n      0x08\n      add\n      0x00\n      swap1\n      sload\n      swap1\n      0x0100\n      exp\n      swap1\n      div\n      0xff\n      and\n        /* \"contract/lottery.sol\":7090:7118  users[msg.sender].maxRound+1 */\n      add\n        /* \"contract/lottery.sol\":7081:7118  round <= users[msg.sender].maxRound+1 */\n      0xff\n      and\n        /* \"contract/lottery.sol\":7081:7086  round */\n      dup2\n        /* \"contract/lottery.sol\":7081:7118  round <= users[msg.sender].maxRound+1 */\n      0xff\n      and\n      gt\n      iszero\n        /* \"contract/lottery.sol\":7073:7142  require(round <= users[msg.sender].maxRound+1, \"Round not available\") */\n      tag_253\n      jumpi\n      mload(0x40)\n      0x08c379a000000000000000000000000000000000000000000000000000000000\n      dup2\n      mstore\n      0x04\n      add\n      dup1\n      dup1\n      0x20\n      add\n      dup3\n      dup2\n      sub\n      dup3\n      mstore\n      0x13\n      dup2\n      mstore\n      0x20\n      add\n      dup1\n      0x526f756e64206e6f7420617661696c61626c6500000000000000000000000000\n      dup2\n      mstore\n      pop\n      0x20\n      add\n      swap2\n      pop\n      pop\n      mload(0x40)\n      dup1\n      swap2\n      sub\n      swap1\n      revert\n    tag_253:\n        /* \"contract/lottery.sol\":7179:7182  now */\n      timestamp\n        /* \"contract/lottery.sol\":7157:7169  timeRoudsEnd */\n      0x45\n        /* \"contract/lottery.sol\":7170:7175  round */\n      dup3\n        /* \"contract/lottery.sol\":7157:7176  timeRoudsEnd[round] */\n      0xff\n      and\n      0x10\n      dup2\n      lt\n      tag_254\n      jumpi\n      invalid\n    tag_254:\n      add\n      sload\n        /* \"contract/lottery.sol\":7157:7182  timeRoudsEnd[round] < now */\n      lt\n        /* \"contract/lottery.sol\":7153:7826  if (timeRoudsEnd[round] < now){\r... */\n      iszero\n      tag_256\n      jumpi\n        /* \"contract/lottery.sol\":7209:7230  uint valueSecretPrize */\n      0x00\n        /* \"contract/lottery.sol\":7232:7254  calcSecretPrize(round) */\n      tag_257\n        /* \"contract/lottery.sol\":7248:7253  round */\n      dup3\n        /* \"contract/lottery.sol\":7232:7247  calcSecretPrize */\n      tag_134\n        /* \"contract/lottery.sol\":7232:7254  calcSecretPrize(round) */\n      jump\t// in\n    tag_257:\n        /* \"contract/lottery.sol\":7209:7254  uint valueSecretPrize =calcSecretPrize(round) */\n      swap1\n      pop\n        /* \"contract/lottery.sol\":7281:7305  bool sendSecretGamePrize */\n      0x00\n        /* \"contract/lottery.sol\":7316:7335  nextWinerSecretGame */\n      0x55\n        /* \"contract/lottery.sol\":7336:7341  round */\n      dup4\n        /* \"contract/lottery.sol\":7316:7342  nextWinerSecretGame[round] */\n      0xff\n      and\n      0x10\n      dup2\n      lt\n      tag_258\n      jumpi\n      invalid\n    tag_258:\n      add\n      0x00\n      swap1\n      sload\n      swap1\n      0x0100\n      exp\n      swap1\n      div\n      0xffffffffffffffffffffffffffffffffffffffff\n      and\n        /* \"contract/lottery.sol\":7308:7348  payable(nextWinerSecretGame[round]).send */\n      0xffffffffffffffffffffffffffffffffffffffff\n      and\n        /* \"contract/lottery.sol\":7308:7366  payable(nextWinerSecretGame[round]).send(valueSecretPrize) */\n      0x08fc\n        /* \"contract/lottery.sol\":7349:7365  valueSecretPrize */\n      dup4\n        /* \"contract/lottery.sol\":7308:7366  payable(nextWinerSecretGame[round]).send(valueSecretPrize) */\n      swap1\n      dup2\n      iszero\n      mul\n      swap1\n      mload(0x40)\n      0x00\n      mload(0x40)\n      dup1\n      dup4\n      sub\n      dup2\n      dup6\n      dup9\n      dup9\n      call\n      swap4\n      pop\n      pop\n      pop\n      pop\n        /* \"contract/lottery.sol\":7281:7366  bool sendSecretGamePrize = payable(nextWinerSecretGame[round]).send(valueSecretPrize) */\n      swap1\n      pop\n        /* \"contract/lottery.sol\":7397:7416  sendSecretGamePrize */\n      dup1\n        /* \"contract/lottery.sol\":7393:7645  if (sendSecretGamePrize) {\r... */\n      iszero\n      tag_261\n      jumpi\n        /* \"contract/lottery.sol\":7472:7477  86400 */\n      0x015180\n        /* \"contract/lottery.sol\":7449:7461  timeRoudsEnd */\n      0x45\n        /* \"contract/lottery.sol\":7462:7467  round */\n      dup5\n        /* \"contract/lottery.sol\":7449:7468  timeRoudsEnd[round] */\n      0xff\n      and\n      0x10\n      dup2\n      lt\n      tag_262\n      jumpi\n      invalid\n    tag_262:\n      add\n      0x00\n        /* \"contract/lottery.sol\":7449:7477  timeRoudsEnd[round] += 86400 */\n      dup3\n      dup3\n      sload\n      add\n      swap3\n      pop\n      pop\n      dup2\n      swap1\n      sstore\n      pop\n        /* \"contract/lottery.sol\":7535:7554  nextWinerSecretGame */\n      0x55\n        /* \"contract/lottery.sol\":7555:7560  round */\n      dup4\n        /* \"contract/lottery.sol\":7535:7561  nextWinerSecretGame[round] */\n      0xff\n      and\n      0x10\n      dup2\n      lt\n      tag_264\n      jumpi\n      invalid\n    tag_264:\n      add\n      0x00\n      swap1\n      sload\n      swap1\n      0x0100\n      exp\n      swap1\n      div\n      0xffffffffffffffffffffffffffffffffffffffff\n      and\n        /* \"contract/lottery.sol\":7513:7587  WinerForeverGame(now, nextWinerSecretGame[round], round, valueSecretPrize) */\n      0xffffffffffffffffffffffffffffffffffffffff\n      and\n      0x8ea1a10de3733db603227ca0e3cd0feb6da4f1c33fb15cb9265fa333a64797c2\n        /* \"contract/lottery.sol\":7530:7533  now */\n      timestamp\n        /* \"contract/lottery.sol\":7563:7568  round */\n      dup6\n        /* \"contract/lottery.sol\":7570:7586  valueSecretPrize */\n      dup6\n        /* \"contract/lottery.sol\":7513:7587  WinerForeverGame(now, nextWinerSecretGame[round], round, valueSecretPrize) */\n      mload(0x40)\n      dup1\n      dup5\n      dup2\n      mstore\n      0x20\n      add\n      dup4\n      0xff\n      and\n      dup2\n      mstore\n      0x20\n      add\n      dup3\n      dup2\n      mstore\n      0x20\n      add\n      swap4\n      pop\n      pop\n      pop\n      pop\n      mload(0x40)\n      dup1\n      swap2\n      sub\n      swap1\n      log2\n        /* \"contract/lottery.sol\":7393:7645  if (sendSecretGamePrize) {\r... */\n    tag_261:\n        /* \"contract/lottery.sol\":7153:7826  if (timeRoudsEnd[round] < now){\r... */\n      pop\n      pop\n      jump(tag_266)\n    tag_256:\n        /* \"contract/lottery.sol\":7750:7754  3600 */\n      0x0e10\n        /* \"contract/lottery.sol\":7727:7739  timeRoudsEnd */\n      0x45\n        /* \"contract/lottery.sol\":7740:7745  round */\n      dup3\n        /* \"contract/lottery.sol\":7727:7746  timeRoudsEnd[round] */\n      0xff\n      and\n      0x10\n      dup2\n      lt\n      tag_267\n      jumpi\n      invalid\n    tag_267:\n      add\n      0x00\n        /* \"contract/lottery.sol\":7727:7754  timeRoudsEnd[round] += 3600 */\n      dup3\n      dup3\n      sload\n      add\n      swap3\n      pop\n      pop\n      dup2\n      swap1\n      sstore\n      pop\n        /* \"contract/lottery.sol\":7799:7802  now */\n      timestamp\n        /* \"contract/lottery.sol\":7781:7793  timeRoudsEnd */\n      0x45\n        /* \"contract/lottery.sol\":7794:7795  0 */\n      0x00\n        /* \"contract/lottery.sol\":7781:7796  timeRoudsEnd[0] */\n      0x10\n      dup2\n      lt\n      tag_269\n      jumpi\n      invalid\n    tag_269:\n      add\n        /* \"contract/lottery.sol\":7781:7802  timeRoudsEnd[0] = now */\n      dup2\n      swap1\n      sstore\n      pop\n        /* \"contract/lottery.sol\":7153:7826  if (timeRoudsEnd[round] < now){\r... */\n    tag_266:\n        /* \"contract/lottery.sol\":7865:7875  msg.sender */\n      caller\n        /* \"contract/lottery.sol\":7836:7855  nextWinerSecretGame */\n      0x55\n        /* \"contract/lottery.sol\":7856:7861  round */\n      dup3\n        /* \"contract/lottery.sol\":7836:7862  nextWinerSecretGame[round] */\n      0xff\n      and\n      0x10\n      dup2\n      lt\n      tag_271\n      jumpi\n      invalid\n    tag_271:\n      add\n      0x00\n        /* \"contract/lottery.sol\":7836:7875  nextWinerSecretGame[round] = msg.sender */\n      0x0100\n      exp\n      dup2\n      sload\n      dup2\n      0xffffffffffffffffffffffffffffffffffffffff\n      mul\n      not\n      and\n      swap1\n      dup4\n      0xffffffffffffffffffffffffffffffffffffffff\n      and\n      mul\n      or\n      swap1\n      sstore\n      pop\n        /* \"contract/lottery.sol\":7886:7891  users */\n      0x6b\n        /* \"contract/lottery.sol\":7886:7903  users[msg.sender] */\n      0x00\n        /* \"contract/lottery.sol\":7892:7902  msg.sender */\n      caller\n        /* \"contract/lottery.sol\":7886:7903  users[msg.sender] */\n      0xffffffffffffffffffffffffffffffffffffffff\n      and\n      0xffffffffffffffffffffffffffffffffffffffff\n      and\n      dup2\n      mstore\n      0x20\n      add\n      swap1\n      dup2\n      mstore\n      0x20\n      add\n      0x00\n      keccak256\n        /* \"contract/lottery.sol\":7886:7912  users[msg.sender].maxRound */\n      0x08\n      add\n      0x00\n        /* \"contract/lottery.sol\":7886:7914  users[msg.sender].maxRound++ */\n      dup2\n      dup2\n      swap1\n      sload\n      swap1\n      0x0100\n      exp\n      swap1\n      div\n      0xff\n      and\n      dup1\n      swap3\n      swap2\n      swap1\n      0x01\n      add\n      swap2\n      swap1\n      0x0100\n      exp\n      dup2\n      sload\n      dup2\n      0xff\n      mul\n      not\n      and\n      swap1\n      dup4\n      0xff\n      and\n      mul\n      or\n      swap1\n      sstore\n      pop\n      pop\n        /* \"contract/lottery.sol\":7955:7964  msg.value */\n      callvalue\n        /* \"contract/lottery.sol\":7925:7930  users */\n      0x6b\n        /* \"contract/lottery.sol\":7925:7942  users[msg.sender] */\n      0x00\n        /* \"contract/lottery.sol\":7931:7941  msg.sender */\n      caller\n        /* \"contract/lottery.sol\":7925:7942  users[msg.sender] */\n      0xffffffffffffffffffffffffffffffffffffffff\n      and\n      0xffffffffffffffffffffffffffffffffffffffff\n      and\n      dup2\n      mstore\n      0x20\n      add\n      swap1\n      dup2\n      mstore\n      0x20\n      add\n      0x00\n      keccak256\n        /* \"contract/lottery.sol\":7925:7951  users[msg.sender].turnover */\n      0x09\n      add\n      0x00\n        /* \"contract/lottery.sol\":7925:7964  users[msg.sender].turnover += msg.value */\n      dup3\n      dup3\n      sload\n      add\n      swap3\n      pop\n      pop\n      dup2\n      swap1\n      sstore\n      pop\n        /* \"contract/lottery.sol\":7975:7985  globalStat */\n      0x6f\n        /* \"contract/lottery.sol\":7975:7998  globalStat.transactions */\n      0x01\n      add\n      0x00\n        /* \"contract/lottery.sol\":7975:8000  globalStat.transactions++ */\n      dup2\n      sload\n      dup1\n      swap3\n      swap2\n      swap1\n      0x01\n      add\n      swap2\n      swap1\n      pop\n      sstore\n      pop\n        /* \"contract/lottery.sol\":8034:8043  msg.value */\n      callvalue\n        /* \"contract/lottery.sol\":8011:8021  globalStat */\n      0x6f\n        /* \"contract/lottery.sol\":8011:8030  globalStat.turnover */\n      0x02\n      add\n      0x00\n        /* \"contract/lottery.sol\":8011:8043  globalStat.turnover += msg.value */\n      dup3\n      dup3\n      sload\n      add\n      swap3\n      pop\n      pop\n      dup2\n      swap1\n      sstore\n      pop\n        /* \"contract/lottery.sol\":8087:8090  now */\n      timestamp\n        /* \"contract/lottery.sol\":8054:8072  lastTimeActivation */\n      0x65\n        /* \"contract/lottery.sol\":8054:8084  lastTimeActivation[msg.sender] */\n      0x00\n        /* \"contract/lottery.sol\":8073:8083  msg.sender */\n      caller\n        /* \"contract/lottery.sol\":8054:8084  lastTimeActivation[msg.sender] */\n      0xffffffffffffffffffffffffffffffffffffffff\n      and\n      0xffffffffffffffffffffffffffffffffffffffff\n      and\n      dup2\n      mstore\n      0x20\n      add\n      swap1\n      dup2\n      mstore\n      0x20\n      add\n      0x00\n      keccak256\n        /* \"contract/lottery.sol\":8054:8090  lastTimeActivation[msg.sender] = now */\n      dup2\n      swap1\n      sstore\n      pop\n        /* \"contract/lottery.sol\":8152:8155  now */\n      timestamp\n        /* \"contract/lottery.sol\":8101:8106  users */\n      0x6b\n        /* \"contract/lottery.sol\":8101:8118  users[msg.sender] */\n      0x00\n        /* \"contract/lottery.sol\":8107:8117  msg.sender */\n      caller\n        /* \"contract/lottery.sol\":8101:8118  users[msg.sender] */\n      0xffffffffffffffffffffffffffffffffffffffff\n      and\n      0xffffffffffffffffffffffffffffffffffffffff\n      and\n      dup2\n      mstore\n      0x20\n      add\n      swap1\n      dup2\n      mstore\n      0x20\n      add\n      0x00\n      keccak256\n        /* \"contract/lottery.sol\":8101:8125  users[msg.sender].rounds */\n      0x07\n      add\n        /* \"contract/lottery.sol\":8101:8132  users[msg.sender].rounds[round] */\n      0x00\n        /* \"contract/lottery.sol\":8126:8131  round */\n      dup4\n        /* \"contract/lottery.sol\":8101:8132  users[msg.sender].rounds[round] */\n      0xff\n      and\n      0xff\n      and\n      dup2\n      mstore\n      0x20\n      add\n      swap1\n      dup2\n      mstore\n      0x20\n      add\n      0x00\n      keccak256\n        /* \"contract/lottery.sol\":8101:8149  users[msg.sender].rounds[round].lastTimeBuyround */\n      0x03\n      add\n        /* \"contract/lottery.sol\":8101:8155  users[msg.sender].rounds[round].lastTimeBuyround = now */\n      dup2\n      swap1\n      sstore\n      pop\n        /* \"contract/lottery.sol\":8166:8181  uint onePercent */\n      0x00\n        /* \"contract/lottery.sol\":8196:8199  100 */\n      0x64\n        /* \"contract/lottery.sol\":8184:8193  msg.value */\n      callvalue\n        /* \"contract/lottery.sol\":8184:8199  msg.value / 100 */\n      dup2\n      tag_273\n      jumpi\n      invalid\n    tag_273:\n      div\n        /* \"contract/lottery.sol\":8166:8199  uint onePercent = msg.value / 100 */\n      swap1\n      pop\n        /* \"contract/lottery.sol\":8215:8220  users */\n      0x6b\n        /* \"contract/lottery.sol\":8215:8232  users[msg.sender] */\n      0x00\n        /* \"contract/lottery.sol\":8221:8231  msg.sender */\n      caller\n        /* \"contract/lottery.sol\":8215:8232  users[msg.sender] */\n      0xffffffffffffffffffffffffffffffffffffffff\n      and\n      0xffffffffffffffffffffffffffffffffffffffff\n      and\n      dup2\n      mstore\n      0x20\n      add\n      swap1\n      dup2\n      mstore\n      0x20\n      add\n      0x00\n      keccak256\n        /* \"contract/lottery.sol\":8215:8239  users[msg.sender].rounds */\n      0x07\n      add\n        /* \"contract/lottery.sol\":8215:8246  users[msg.sender].rounds[round] */\n      0x00\n        /* \"contract/lottery.sol\":8240:8245  round */\n      dup4\n        /* \"contract/lottery.sol\":8215:8246  users[msg.sender].rounds[round] */\n      0xff\n      and\n      0xff\n      and\n      dup2\n      mstore\n      0x20\n      add\n      swap1\n      dup2\n      mstore\n      0x20\n      add\n      0x00\n      keccak256\n        /* \"contract/lottery.sol\":8215:8253  users[msg.sender].rounds[round].active */\n      0x00\n      add\n      0x06\n      swap1\n      sload\n      swap1\n      0x0100\n      exp\n      swap1\n      div\n      0xff\n      and\n        /* \"contract/lottery.sol\":8210:8889  if (!users[msg.sender].rounds[round].active) {\r... */\n      tag_274\n      jumpi\n        /* \"contract/lottery.sol\":8270:8275  users */\n      0x6b\n        /* \"contract/lottery.sol\":8270:8287  users[msg.sender] */\n      0x00\n        /* \"contract/lottery.sol\":8276:8286  msg.sender */\n      caller\n        /* \"contract/lottery.sol\":8270:8287  users[msg.sender] */\n      0xffffffffffffffffffffffffffffffffffffffff\n      and\n      0xffffffffffffffffffffffffffffffffffffffff\n      and\n      dup2\n      mstore\n      0x20\n      add\n      swap1\n      dup2\n      mstore\n      0x20\n      add\n      0x00\n      keccak256\n        /* \"contract/lottery.sol\":8270:8294  users[msg.sender].rounds */\n      0x07\n      add\n        /* \"contract/lottery.sol\":8270:8301  users[msg.sender].rounds[round] */\n      0x00\n        /* \"contract/lottery.sol\":8295:8300  round */\n      dup4\n        /* \"contract/lottery.sol\":8270:8301  users[msg.sender].rounds[round] */\n      0xff\n      and\n      0xff\n      and\n      dup2\n      mstore\n      0x20\n      add\n      swap1\n      dup2\n      mstore\n      0x20\n      add\n      0x00\n      keccak256\n        /* \"contract/lottery.sol\":8270:8317  users[msg.sender].rounds[round].activationTimes */\n      0x00\n      add\n      0x00\n        /* \"contract/lottery.sol\":8270:8319  users[msg.sender].rounds[round].activationTimes++ */\n      dup2\n      dup2\n      swap1\n      sload\n      swap1\n      0x0100\n      exp\n      swap1\n      div\n      0xffff\n      and\n      dup1\n      swap3\n      swap2\n      swap1\n      0x01\n      add\n      swap2\n      swap1\n      0x0100\n      exp\n      dup2\n      sload\n      dup2\n      0xffff\n      mul\n      not\n      and\n      swap1\n      dup4\n      0xffff\n      and\n      mul\n      or\n      swap1\n      sstore\n      pop\n      pop\n        /* \"contract/lottery.sol\":2996:2997  2 */\n      0x02\n        /* \"contract/lottery.sol\":8334:8393  users[msg.sender].rounds[round].maxPayouts += rewardPayouts */\n      0xff\n      and\n        /* \"contract/lottery.sol\":8334:8339  users */\n      0x6b\n        /* \"contract/lottery.sol\":8334:8351  users[msg.sender] */\n      0x00\n        /* \"contract/lottery.sol\":8340:8350  msg.sender */\n      caller\n        /* \"contract/lottery.sol\":8334:8351  users[msg.sender] */\n      0xffffffffffffffffffffffffffffffffffffffff\n      and\n      0xffffffffffffffffffffffffffffffffffffffff\n      and\n      dup2\n      mstore\n      0x20\n      add\n      swap1\n      dup2\n      mstore\n      0x20\n      add\n      0x00\n      keccak256\n        /* \"contract/lottery.sol\":8334:8358  users[msg.sender].rounds */\n      0x07\n      add\n        /* \"contract/lottery.sol\":8334:8365  users[msg.sender].rounds[round] */\n      0x00\n        /* \"contract/lottery.sol\":8359:8364  round */\n      dup5\n        /* \"contract/lottery.sol\":8334:8365  users[msg.sender].rounds[round] */\n      0xff\n      and\n      0xff\n      and\n      dup2\n      mstore\n      0x20\n      add\n      swap1\n      dup2\n      mstore\n      0x20\n      add\n      0x00\n      keccak256\n        /* \"contract/lottery.sol\":8334:8376  users[msg.sender].rounds[round].maxPayouts */\n      0x00\n      add\n      0x02\n        /* \"contract/lottery.sol\":8334:8393  users[msg.sender].rounds[round].maxPayouts += rewardPayouts */\n      dup3\n      dup3\n      dup3\n      swap1\n      sload\n      swap1\n      0x0100\n      exp\n      swap1\n      div\n      0xffff\n      and\n      add\n      swap3\n      pop\n      0x0100\n      exp\n      dup2\n      sload\n      dup2\n      0xffff\n      mul\n      not\n      and\n      swap1\n      dup4\n      0xffff\n      and\n      mul\n      or\n      swap1\n      sstore\n      pop\n        /* \"contract/lottery.sol\":8449:8453  true */\n      0x01\n        /* \"contract/lottery.sol\":8408:8413  users */\n      0x6b\n        /* \"contract/lottery.sol\":8408:8425  users[msg.sender] */\n      0x00\n        /* \"contract/lottery.sol\":8414:8424  msg.sender */\n      caller\n        /* \"contract/lottery.sol\":8408:8425  users[msg.sender] */\n      0xffffffffffffffffffffffffffffffffffffffff\n      and\n      0xffffffffffffffffffffffffffffffffffffffff\n      and\n      dup2\n      mstore\n      0x20\n      add\n      swap1\n      dup2\n      mstore\n      0x20\n      add\n      0x00\n      keccak256\n        /* \"contract/lottery.sol\":8408:8432  users[msg.sender].rounds */\n      0x07\n      add\n        /* \"contract/lottery.sol\":8408:8439  users[msg.sender].rounds[round] */\n      0x00\n        /* \"contract/lottery.sol\":8433:8438  round */\n      dup5\n        /* \"contract/lottery.sol\":8408:8439  users[msg.sender].rounds[round] */\n      0xff\n      and\n      0xff\n      and\n      dup2\n      mstore\n      0x20\n      add\n      swap1\n      dup2\n      mstore\n      0x20\n      add\n      0x00\n      keccak256\n        /* \"contract/lottery.sol\":8408:8446  users[msg.sender].rounds[round].active */\n      0x00\n      add\n      0x06\n        /* \"contract/lottery.sol\":8408:8453  users[msg.sender].rounds[round].active = true */\n      0x0100\n      exp\n      dup2\n      sload\n      dup2\n      0xff\n      mul\n      not\n      and\n      swap1\n      dup4\n      iszero\n      iszero\n      mul\n      or\n      swap1\n      sstore\n      pop\n        /* \"contract/lottery.sol\":8468:8478  roundQueue */\n      0x6d\n        /* \"contract/lottery.sol\":8468:8485  roundQueue[round] */\n      0x00\n        /* \"contract/lottery.sol\":8479:8484  round */\n      dup4\n        /* \"contract/lottery.sol\":8468:8485  roundQueue[round] */\n      0xff\n      and\n      0xff\n      and\n      dup2\n      mstore\n      0x20\n      add\n      swap1\n      dup2\n      mstore\n      0x20\n      add\n      0x00\n      keccak256\n        /* \"contract/lottery.sol\":8491:8501  msg.sender */\n      caller\n        /* \"contract/lottery.sol\":8468:8502  roundQueue[round].push(msg.sender) */\n      swap1\n      dup1\n      0x01\n      dup2\n      sload\n      add\n      dup1\n      dup3\n      sstore\n      dup1\n      swap2\n      pop\n      pop\n      0x01\n      swap1\n      sub\n      swap1\n      0x00\n      mstore\n      keccak256(0x00, 0x20)\n      add\n      0x00\n      swap1\n      swap2\n      swap1\n      swap2\n      swap1\n      swap2\n      0x0100\n      exp\n      dup2\n      sload\n      dup2\n      0xffffffffffffffffffffffffffffffffffffffff\n      mul\n      not\n      and\n      swap1\n      dup4\n      0xffffffffffffffffffffffffffffffffffffffff\n      and\n      mul\n      or\n      swap1\n      sstore\n      pop\n        /* \"contract/lottery.sol\":8536:8546  msg.sender */\n      caller\n        /* \"contract/lottery.sol\":8522:8576  Buyround(now, msg.sender, users[msg.sender].id, round) */\n      0xffffffffffffffffffffffffffffffffffffffff\n      and\n      0x2f201bc547acc49919922eaf7ecea9f3389adca4dc6ab3fb4a7498cbbaac63a2\n        /* \"contract/lottery.sol\":8531:8534  now */\n      timestamp\n        /* \"contract/lottery.sol\":8548:8553  users */\n      0x6b\n        /* \"contract/lottery.sol\":8548:8565  users[msg.sender] */\n      0x00\n        /* \"contract/lottery.sol\":8554:8564  msg.sender */\n      caller\n        /* \"contract/lottery.sol\":8548:8565  users[msg.sender] */\n      0xffffffffffffffffffffffffffffffffffffffff\n      and\n      0xffffffffffffffffffffffffffffffffffffffff\n      and\n      dup2\n      mstore\n      0x20\n      add\n      swap1\n      dup2\n      mstore\n      0x20\n      add\n      0x00\n      keccak256\n        /* \"contract/lottery.sol\":8548:8568  users[msg.sender].id */\n      0x00\n      add\n      sload\n        /* \"contract/lottery.sol\":8570:8575  round */\n      dup6\n        /* \"contract/lottery.sol\":8522:8576  Buyround(now, msg.sender, users[msg.sender].id, round) */\n      mload(0x40)\n      dup1\n      dup5\n      dup2\n      mstore\n      0x20\n      add\n      dup4\n      dup2\n      mstore\n      0x20\n      add\n      dup3\n      0xff\n      and\n      dup2\n      mstore\n      0x20\n      add\n      swap4\n      pop\n      pop\n      pop\n      pop\n      mload(0x40)\n      dup1\n      swap2\n      sub\n      swap1\n      log2\n        /* \"contract/lottery.sol\":8210:8889  if (!users[msg.sender].rounds[round].active) {\r... */\n      jump(tag_276)\n    tag_274:\n        /* \"contract/lottery.sol\":8621:8626  users */\n      0x6b\n        /* \"contract/lottery.sol\":8621:8638  users[msg.sender] */\n      0x00\n        /* \"contract/lottery.sol\":8627:8637  msg.sender */\n      caller\n        /* \"contract/lottery.sol\":8621:8638  users[msg.sender] */\n      0xffffffffffffffffffffffffffffffffffffffff\n      and\n      0xffffffffffffffffffffffffffffffffffffffff\n      and\n      dup2\n      mstore\n      0x20\n      add\n      swap1\n      dup2\n      mstore\n      0x20\n      add\n      0x00\n      keccak256\n        /* \"contract/lottery.sol\":8621:8645  users[msg.sender].rounds */\n      0x07\n      add\n        /* \"contract/lottery.sol\":8621:8652  users[msg.sender].rounds[round] */\n      0x00\n        /* \"contract/lottery.sol\":8646:8651  round */\n      dup4\n        /* \"contract/lottery.sol\":8621:8652  users[msg.sender].rounds[round] */\n      0xff\n      and\n      0xff\n      and\n      dup2\n      mstore\n      0x20\n      add\n      swap1\n      dup2\n      mstore\n      0x20\n      add\n      0x00\n      keccak256\n        /* \"contract/lottery.sol\":8621:8668  users[msg.sender].rounds[round].activationTimes */\n      0x00\n      add\n      0x00\n        /* \"contract/lottery.sol\":8621:8670  users[msg.sender].rounds[round].activationTimes++ */\n      dup2\n      dup2\n      swap1\n      sload\n      swap1\n      0x0100\n      exp\n      swap1\n      div\n      0xffff\n      and\n      dup1\n      swap3\n      swap2\n      swap1\n      0x01\n      add\n      swap2\n      swap1\n      0x0100\n      exp\n      dup2\n      sload\n      dup2\n      0xffff\n      mul\n      not\n      and\n      swap1\n      dup4\n      0xffff\n      and\n      mul\n      or\n      swap1\n      sstore\n      pop\n      pop\n        /* \"contract/lottery.sol\":2996:2997  2 */\n      0x02\n        /* \"contract/lottery.sol\":8685:8744  users[msg.sender].rounds[round].maxPayouts += rewardPayouts */\n      0xff\n      and\n        /* \"contract/lottery.sol\":8685:8690  users */\n      0x6b\n        /* \"contract/lottery.sol\":8685:8702  users[msg.sender] */\n      0x00\n        /* \"contract/lottery.sol\":8691:8701  msg.sender */\n      caller\n        /* \"contract/lottery.sol\":8685:8702  users[msg.sender] */\n      0xffffffffffffffffffffffffffffffffffffffff\n      and\n      0xffffffffffffffffffffffffffffffffffffffff\n      and\n      dup2\n      mstore\n      0x20\n      add\n      swap1\n      dup2\n      mstore\n      0x20\n      add\n      0x00\n      keccak256\n        /* \"contract/lottery.sol\":8685:8709  users[msg.sender].rounds */\n      0x07\n      add\n        /* \"contract/lottery.sol\":8685:8716  users[msg.sender].rounds[round] */\n      0x00\n        /* \"contract/lottery.sol\":8710:8715  round */\n      dup5\n        /* \"contract/lottery.sol\":8685:8716  users[msg.sender].rounds[round] */\n      0xff\n      and\n      0xff\n      and\n      dup2\n      mstore\n      0x20\n      add\n      swap1\n      dup2\n      mstore\n      0x20\n      add\n      0x00\n      keccak256\n        /* \"contract/lottery.sol\":8685:8727  users[msg.sender].rounds[round].maxPayouts */\n      0x00\n      add\n      0x02\n        /* \"contract/lottery.sol\":8685:8744  users[msg.sender].rounds[round].maxPayouts += rewardPayouts */\n      dup3\n      dup3\n      dup3\n      swap1\n      sload\n      swap1\n      0x0100\n      exp\n      swap1\n      div\n      0xffff\n      and\n      add\n      swap3\n      pop\n      0x0100\n      exp\n      dup2\n      sload\n      dup2\n      0xffff\n      mul\n      not\n      and\n      swap1\n      dup4\n      0xffff\n      and\n      mul\n      or\n      swap1\n      sstore\n      pop\n        /* \"contract/lottery.sol\":8793:8803  msg.sender */\n      caller\n        /* \"contract/lottery.sol\":8764:8877  IncreaseroundMaxPayouts(now, msg.sender, users[msg.sender].id, round, users[msg.sender].rounds[round].maxPayouts) */\n      0xffffffffffffffffffffffffffffffffffffffff\n      and\n      0x31bfa9ab73d15b5d752f5928d978dd4daba1b2dd420bb2d965c54cfe366c5534\n        /* \"contract/lottery.sol\":8788:8791  now */\n      timestamp\n        /* \"contract/lottery.sol\":8805:8810  users */\n      0x6b\n        /* \"contract/lottery.sol\":8805:8822  users[msg.sender] */\n      0x00\n        /* \"contract/lottery.sol\":8811:8821  msg.sender */\n      caller\n        /* \"contract/lottery.sol\":8805:8822  users[msg.sender] */\n      0xffffffffffffffffffffffffffffffffffffffff\n      and\n      0xffffffffffffffffffffffffffffffffffffffff\n      and\n      dup2\n      mstore\n      0x20\n      add\n      swap1\n      dup2\n      mstore\n      0x20\n      add\n      0x00\n      keccak256\n        /* \"contract/lottery.sol\":8805:8825  users[msg.sender].id */\n      0x00\n      add\n      sload\n        /* \"contract/lottery.sol\":8827:8832  round */\n      dup6\n        /* \"contract/lottery.sol\":8834:8839  users */\n      0x6b\n        /* \"contract/lottery.sol\":8834:8851  users[msg.sender] */\n      0x00\n        /* \"contract/lottery.sol\":8840:8850  msg.sender */\n      caller\n        /* \"contract/lottery.sol\":8834:8851  users[msg.sender] */\n      0xffffffffffffffffffffffffffffffffffffffff\n      and\n      0xffffffffffffffffffffffffffffffffffffffff\n      and\n      dup2\n      mstore\n      0x20\n      add\n      swap1\n      dup2\n      mstore\n      0x20\n      add\n      0x00\n      keccak256\n        /* \"contract/lottery.sol\":8834:8858  users[msg.sender].rounds */\n      0x07\n      add\n        /* \"contract/lottery.sol\":8834:8865  users[msg.sender].rounds[round] */\n      0x00\n        /* \"contract/lottery.sol\":8859:8864  round */\n      dup9\n        /* \"contract/lottery.sol\":8834:8865  users[msg.sender].rounds[round] */\n      0xff\n      and\n      0xff\n      and\n      dup2\n      mstore\n      0x20\n      add\n      swap1\n      dup2\n      mstore\n      0x20\n      add\n      0x00\n      keccak256\n        /* \"contract/lottery.sol\":8834:8876  users[msg.sender].rounds[round].maxPayouts */\n      0x00\n      add\n      0x02\n      swap1\n      sload\n      swap1\n      0x0100\n      exp\n      swap1\n      div\n      0xffff\n      and\n        /* \"contract/lottery.sol\":8764:8877  IncreaseroundMaxPayouts(now, msg.sender, users[msg.sender].id, round, users[msg.sender].rounds[round].maxPayouts) */\n      mload(0x40)\n      dup1\n      dup6\n      dup2\n      mstore\n      0x20\n      add\n      dup5\n      dup2\n      mstore\n      0x20\n      add\n      dup4\n      0xff\n      and\n      dup2\n      mstore\n      0x20\n      add\n      dup3\n      0xffff\n      and\n      dup2\n      mstore\n      0x20\n      add\n      swap5\n      pop\n      pop\n      pop\n      pop\n      pop\n      mload(0x40)\n      dup1\n      swap2\n      sub\n      swap1\n      log2\n        /* \"contract/lottery.sol\":8210:8889  if (!users[msg.sender].rounds[round].active) {\r... */\n    tag_276:\n        /* \"contract/lottery.sol\":8899:8910  uint reward */\n      0x00\n        /* \"contract/lottery.sol\":3043:3045  75 */\n      0x4b\n        /* \"contract/lottery.sol\":8913:8940  onePercent * rewardPercents */\n      0xff\n      and\n        /* \"contract/lottery.sol\":8913:8923  onePercent */\n      dup3\n        /* \"contract/lottery.sol\":8913:8940  onePercent * rewardPercents */\n      mul\n        /* \"contract/lottery.sol\":8899:8940  uint reward = onePercent * rewardPercents */\n      swap1\n      pop\n        /* \"contract/lottery.sol\":8994:9004  msg.sender */\n      caller\n        /* \"contract/lottery.sol\":8955:9004  roundQueue[round][headIndex[round]] != msg.sender */\n      0xffffffffffffffffffffffffffffffffffffffff\n      and\n        /* \"contract/lottery.sol\":8955:8965  roundQueue */\n      0x6d\n        /* \"contract/lottery.sol\":8955:8972  roundQueue[round] */\n      0x00\n        /* \"contract/lottery.sol\":8966:8971  round */\n      dup6\n        /* \"contract/lottery.sol\":8955:8972  roundQueue[round] */\n      0xff\n      and\n      0xff\n      and\n      dup2\n      mstore\n      0x20\n      add\n      swap1\n      dup2\n      mstore\n      0x20\n      add\n      0x00\n      keccak256\n        /* \"contract/lottery.sol\":8973:8982  headIndex */\n      0x6e\n        /* \"contract/lottery.sol\":8973:8989  headIndex[round] */\n      0x00\n        /* \"contract/lottery.sol\":8983:8988  round */\n      dup7\n        /* \"contract/lottery.sol\":8973:8989  headIndex[round] */\n      0xff\n      and\n      0xff\n      and\n      dup2\n      mstore\n      0x20\n      add\n      swap1\n      dup2\n      mstore\n      0x20\n      add\n      0x00\n      keccak256\n      sload\n        /* \"contract/lottery.sol\":8955:8990  roundQueue[round][headIndex[round]] */\n      dup2\n      sload\n      dup2\n      lt\n      tag_277\n      jumpi\n      invalid\n    tag_277:\n      swap1\n      0x00\n      mstore\n      keccak256(0x00, 0x20)\n      add\n      0x00\n      swap1\n      sload\n      swap1\n      0x0100\n      exp\n      swap1\n      div\n      0xffffffffffffffffffffffffffffffffffffffff\n      and\n        /* \"contract/lottery.sol\":8955:9004  roundQueue[round][headIndex[round]] != msg.sender */\n      0xffffffffffffffffffffffffffffffffffffffff\n      and\n      eq\n        /* \"contract/lottery.sol\":8951:10617  if (roundQueue[round][headIndex[round]] != msg.sender) {\r... */\n      tag_279\n      jumpi\n        /* \"contract/lottery.sol\":9021:9042  address rewardAddress */\n      0x00\n        /* \"contract/lottery.sol\":9045:9055  roundQueue */\n      0x6d\n        /* \"contract/lottery.sol\":9045:9062  roundQueue[round] */\n      0x00\n        /* \"contract/lottery.sol\":9056:9061  round */\n      dup6\n        /* \"contract/lottery.sol\":9045:9062  roundQueue[round] */\n      0xff\n      and\n      0xff\n      and\n      dup2\n      mstore\n      0x20\n      add\n      swap1\n      dup2\n      mstore\n      0x20\n      add\n      0x00\n      keccak256\n        /* \"contract/lottery.sol\":9063:9072  headIndex */\n      0x6e\n        /* \"contract/lottery.sol\":9063:9079  headIndex[round] */\n      0x00\n        /* \"contract/lottery.sol\":9073:9078  round */\n      dup7\n        /* \"contract/lottery.sol\":9063:9079  headIndex[round] */\n      0xff\n      and\n      0xff\n      and\n      dup2\n      mstore\n      0x20\n      add\n      swap1\n      dup2\n      mstore\n      0x20\n      add\n      0x00\n      keccak256\n      sload\n        /* \"contract/lottery.sol\":9045:9080  roundQueue[round][headIndex[round]] */\n      dup2\n      sload\n      dup2\n      lt\n      tag_280\n      jumpi\n      invalid\n    tag_280:\n      swap1\n      0x00\n      mstore\n      keccak256(0x00, 0x20)\n      add\n      0x00\n      swap1\n      sload\n      swap1\n      0x0100\n      exp\n      swap1\n      div\n      0xffffffffffffffffffffffffffffffffffffffff\n      and\n        /* \"contract/lottery.sol\":9021:9080  address rewardAddress = roundQueue[round][headIndex[round]] */\n      swap1\n      pop\n        /* \"contract/lottery.sol\":9095:9104  bool sent */\n      0x00\n        /* \"contract/lottery.sol\":9115:9128  rewardAddress */\n      dup2\n        /* \"contract/lottery.sol\":9107:9134  payable(rewardAddress).send */\n      0xffffffffffffffffffffffffffffffffffffffff\n      and\n        /* \"contract/lottery.sol\":9107:9142  payable(rewardAddress).send(reward) */\n      0x08fc\n        /* \"contract/lottery.sol\":9135:9141  reward */\n      dup5\n        /* \"contract/lottery.sol\":9107:9142  payable(rewardAddress).send(reward) */\n      swap1\n      dup2\n      iszero\n      mul\n      swap1\n      mload(0x40)\n      0x00\n      mload(0x40)\n      dup1\n      dup4\n      sub\n      dup2\n      dup6\n      dup9\n      dup9\n      call\n      swap4\n      pop\n      pop\n      pop\n      pop\n        /* \"contract/lottery.sol\":9095:9142  bool sent = payable(rewardAddress).send(reward) */\n      swap1\n      pop\n        /* \"contract/lottery.sol\":9161:9165  sent */\n      dup1\n        /* \"contract/lottery.sol\":9157:9934  if (sent) {\r... */\n      iszero\n      tag_283\n      jumpi\n        /* \"contract/lottery.sol\":9190:9206  uint rewardValue */\n      0x00\n        /* \"contract/lottery.sol\":9222:9250  referralRewardProfitPercents */\n      0x66\n      0x01\n      swap1\n      sload\n      swap1\n      0x0100\n      exp\n      swap1\n      div\n      0xff\n      and\n        /* \"contract/lottery.sol\":9209:9250  onePercent * referralRewardProfitPercents */\n      0xff\n      and\n        /* \"contract/lottery.sol\":9209:9219  onePercent */\n      dup6\n        /* \"contract/lottery.sol\":9209:9250  onePercent * referralRewardProfitPercents */\n      mul\n        /* \"contract/lottery.sol\":9190:9250  uint rewardValue = onePercent * referralRewardProfitPercents */\n      swap1\n      pop\n        /* \"contract/lottery.sol\":9273:9332  sendPostRewardToReferrer(rewardAddress, round, rewardValue) */\n      tag_284\n        /* \"contract/lottery.sol\":9298:9311  rewardAddress */\n      dup4\n        /* \"contract/lottery.sol\":9313:9318  round */\n      dup8\n        /* \"contract/lottery.sol\":9320:9331  rewardValue */\n      dup4\n        /* \"contract/lottery.sol\":9273:9297  sendPostRewardToReferrer */\n      tag_285\n        /* \"contract/lottery.sol\":9273:9332  sendPostRewardToReferrer(rewardAddress, round, rewardValue) */\n      jump\t// in\n    tag_284:\n        /* \"contract/lottery.sol\":9417:9423  reward */\n      dup4\n        /* \"contract/lottery.sol\":9369:9374  users */\n      0x6b\n        /* \"contract/lottery.sol\":9369:9389  users[rewardAddress] */\n      0x00\n        /* \"contract/lottery.sol\":9375:9388  rewardAddress */\n      dup6\n        /* \"contract/lottery.sol\":9369:9389  users[rewardAddress] */\n      0xffffffffffffffffffffffffffffffffffffffff\n      and\n      0xffffffffffffffffffffffffffffffffffffffff\n      and\n      dup2\n      mstore\n      0x20\n      add\n      swap1\n      dup2\n      mstore\n      0x20\n      add\n      0x00\n      keccak256\n        /* \"contract/lottery.sol\":9369:9396  users[rewardAddress].rounds */\n      0x07\n      add\n        /* \"contract/lottery.sol\":9369:9403  users[rewardAddress].rounds[round] */\n      0x00\n        /* \"contract/lottery.sol\":9397:9402  round */\n      dup9\n        /* \"contract/lottery.sol\":9369:9403  users[rewardAddress].rounds[round] */\n      0xff\n      and\n      0xff\n      and\n      dup2\n      mstore\n      0x20\n      add\n      swap1\n      dup2\n      mstore\n      0x20\n      add\n      0x00\n      keccak256\n        /* \"contract/lottery.sol\":9369:9413  users[rewardAddress].rounds[round].rewardSum */\n      0x01\n      add\n      0x00\n        /* \"contract/lottery.sol\":9369:9423  users[rewardAddress].rounds[round].rewardSum += reward */\n      dup3\n      dup3\n      sload\n      add\n      swap3\n      pop\n      pop\n      dup2\n      swap1\n      sstore\n      pop\n        /* \"contract/lottery.sol\":9442:9447  users */\n      0x6b\n        /* \"contract/lottery.sol\":9442:9462  users[rewardAddress] */\n      0x00\n        /* \"contract/lottery.sol\":9448:9461  rewardAddress */\n      dup5\n        /* \"contract/lottery.sol\":9442:9462  users[rewardAddress] */\n      0xffffffffffffffffffffffffffffffffffffffff\n      and\n      0xffffffffffffffffffffffffffffffffffffffff\n      and\n      dup2\n      mstore\n      0x20\n      add\n      swap1\n      dup2\n      mstore\n      0x20\n      add\n      0x00\n      keccak256\n        /* \"contract/lottery.sol\":9442:9469  users[rewardAddress].rounds */\n      0x07\n      add\n        /* \"contract/lottery.sol\":9442:9476  users[rewardAddress].rounds[round] */\n      0x00\n        /* \"contract/lottery.sol\":9470:9475  round */\n      dup8\n        /* \"contract/lottery.sol\":9442:9476  users[rewardAddress].rounds[round] */\n      0xff\n      and\n      0xff\n      and\n      dup2\n      mstore\n      0x20\n      add\n      swap1\n      dup2\n      mstore\n      0x20\n      add\n      0x00\n      keccak256\n        /* \"contract/lottery.sol\":9442:9484  users[rewardAddress].rounds[round].payouts */\n      0x00\n      add\n      0x04\n        /* \"contract/lottery.sol\":9442:9486  users[rewardAddress].rounds[round].payouts++ */\n      dup2\n      dup2\n      swap1\n      sload\n      swap1\n      0x0100\n      exp\n      swap1\n      div\n      0xffff\n      and\n      dup1\n      swap3\n      swap2\n      swap1\n      0x01\n      add\n      swap2\n      swap1\n      0x0100\n      exp\n      dup2\n      sload\n      dup2\n      0xffff\n      mul\n      not\n      and\n      swap1\n      dup4\n      0xffff\n      and\n      mul\n      or\n      swap1\n      sstore\n      pop\n      pop\n        /* \"contract/lottery.sol\":9545:9551  reward */\n      dup4\n        /* \"contract/lottery.sol\":9505:9510  users */\n      0x6b\n        /* \"contract/lottery.sol\":9505:9525  users[rewardAddress] */\n      0x00\n        /* \"contract/lottery.sol\":9511:9524  rewardAddress */\n      dup6\n        /* \"contract/lottery.sol\":9505:9525  users[rewardAddress] */\n      0xffffffffffffffffffffffffffffffffffffffff\n      and\n      0xffffffffffffffffffffffffffffffffffffffff\n      and\n      dup2\n      mstore\n      0x20\n      add\n      swap1\n      dup2\n      mstore\n      0x20\n      add\n      0x00\n      keccak256\n        /* \"contract/lottery.sol\":9505:9541  users[rewardAddress].roundsRewardSum */\n      0x05\n      add\n      0x00\n        /* \"contract/lottery.sol\":9505:9551  users[rewardAddress].roundsRewardSum += reward */\n      dup3\n      dup3\n      sload\n      add\n      swap3\n      pop\n      pop\n      dup2\n      swap1\n      sstore\n      pop\n        /* \"contract/lottery.sol\":9603:9609  reward */\n      dup4\n        /* \"contract/lottery.sol\":9570:9575  users */\n      0x6b\n        /* \"contract/lottery.sol\":9570:9590  users[rewardAddress] */\n      0x00\n        /* \"contract/lottery.sol\":9576:9589  rewardAddress */\n      dup6\n        /* \"contract/lottery.sol\":9570:9590  users[rewardAddress] */\n      0xffffffffffffffffffffffffffffffffffffffff\n      and\n      0xffffffffffffffffffffffffffffffffffffffff\n      and\n      dup2\n      mstore\n      0x20\n      add\n      swap1\n      dup2\n      mstore\n      0x20\n      add\n      0x00\n      keccak256\n        /* \"contract/lottery.sol\":9570:9599  users[rewardAddress].turnover */\n      0x09\n      add\n      0x00\n        /* \"contract/lottery.sol\":9570:9609  users[rewardAddress].turnover += reward */\n      dup3\n      dup3\n      sload\n      add\n      swap3\n      pop\n      pop\n      dup2\n      swap1\n      sstore\n      pop\n        /* \"contract/lottery.sol\":9670:9675  users */\n      0x6b\n        /* \"contract/lottery.sol\":9670:9690  users[rewardAddress] */\n      0x00\n        /* \"contract/lottery.sol\":9676:9689  rewardAddress */\n      dup5\n        /* \"contract/lottery.sol\":9670:9690  users[rewardAddress] */\n      0xffffffffffffffffffffffffffffffffffffffff\n      and\n      0xffffffffffffffffffffffffffffffffffffffff\n      and\n      dup2\n      mstore\n      0x20\n      add\n      swap1\n      dup2\n      mstore\n      0x20\n      add\n      0x00\n      keccak256\n        /* \"contract/lottery.sol\":9670:9697  users[rewardAddress].rounds */\n      0x07\n      add\n        /* \"contract/lottery.sol\":9670:9704  users[rewardAddress].rounds[round] */\n      0x00\n        /* \"contract/lottery.sol\":9698:9703  round */\n      dup8\n        /* \"contract/lottery.sol\":9670:9704  users[rewardAddress].rounds[round] */\n      0xff\n      and\n      0xff\n      and\n      dup2\n      mstore\n      0x20\n      add\n      swap1\n      dup2\n      mstore\n      0x20\n      add\n      0x00\n      keccak256\n        /* \"contract/lottery.sol\":9670:9721  users[rewardAddress].rounds[round].lastTimeBuyround */\n      0x03\n      add\n      sload\n        /* \"contract/lottery.sol\":9664:9667  now */\n      timestamp\n        /* \"contract/lottery.sol\":9664:9721  now - users[rewardAddress].rounds[round].lastTimeBuyround */\n      sub\n        /* \"contract/lottery.sol\":9647:9660  25 * 31536000 */\n      0x2efe0780\n        /* \"contract/lottery.sol\":9647:9722  25 * 31536000 / (now - users[rewardAddress].rounds[round].lastTimeBuyround) */\n      dup2\n      tag_286\n      jumpi\n      invalid\n    tag_286:\n      div\n        /* \"contract/lottery.sol\":9628:9637  RoiRounds */\n      0x35\n        /* \"contract/lottery.sol\":9638:9643  round */\n      dup8\n        /* \"contract/lottery.sol\":9628:9644  RoiRounds[round] */\n      0xff\n      and\n      0x10\n      dup2\n      lt\n      tag_287\n      jumpi\n      invalid\n    tag_287:\n      add\n        /* \"contract/lottery.sol\":9628:9722  RoiRounds[round] = 25 * 31536000 / (now - users[rewardAddress].rounds[round].lastTimeBuyround) */\n      dup2\n      swap1\n      sstore\n      pop\n        /* \"contract/lottery.sol\":9764:9774  msg.sender */\n      caller\n        /* \"contract/lottery.sol\":9747:9855  roundPayout(now, msg.sender, users[rewardAddress].id, round, reward, users[msg.sender].id, RoiRounds[round]) */\n      0xffffffffffffffffffffffffffffffffffffffff\n      and\n      0xe4183700b5bfcfeaf533b813f60f33ff4a041fa7bf73db1dd14fbb3eace4fa35\n        /* \"contract/lottery.sol\":9759:9762  now */\n      timestamp\n        /* \"contract/lottery.sol\":9776:9781  users */\n      0x6b\n        /* \"contract/lottery.sol\":9776:9796  users[rewardAddress] */\n      0x00\n        /* \"contract/lottery.sol\":9782:9795  rewardAddress */\n      dup8\n        /* \"contract/lottery.sol\":9776:9796  users[rewardAddress] */\n      0xffffffffffffffffffffffffffffffffffffffff\n      and\n      0xffffffffffffffffffffffffffffffffffffffff\n      and\n      dup2\n      mstore\n      0x20\n      add\n      swap1\n      dup2\n      mstore\n      0x20\n      add\n      0x00\n      keccak256\n        /* \"contract/lottery.sol\":9776:9799  users[rewardAddress].id */\n      0x00\n      add\n      sload\n        /* \"contract/lottery.sol\":9801:9806  round */\n      dup10\n        /* \"contract/lottery.sol\":9808:9814  reward */\n      dup9\n        /* \"contract/lottery.sol\":9816:9821  users */\n      0x6b\n        /* \"contract/lottery.sol\":9816:9833  users[msg.sender] */\n      0x00\n        /* \"contract/lottery.sol\":9822:9832  msg.sender */\n      caller\n        /* \"contract/lottery.sol\":9816:9833  users[msg.sender] */\n      0xffffffffffffffffffffffffffffffffffffffff\n      and\n      0xffffffffffffffffffffffffffffffffffffffff\n      and\n      dup2\n      mstore\n      0x20\n      add\n      swap1\n      dup2\n      mstore\n      0x20\n      add\n      0x00\n      keccak256\n        /* \"contract/lottery.sol\":9816:9836  users[msg.sender].id */\n      0x00\n      add\n      sload\n        /* \"contract/lottery.sol\":9838:9847  RoiRounds */\n      0x35\n        /* \"contract/lottery.sol\":9848:9853  round */\n      dup14\n        /* \"contract/lottery.sol\":9838:9854  RoiRounds[round] */\n      0xff\n      and\n      0x10\n      dup2\n      lt\n      tag_289\n      jumpi\n      invalid\n    tag_289:\n      add\n      sload\n        /* \"contract/lottery.sol\":9747:9855  roundPayout(now, msg.sender, users[rewardAddress].id, round, reward, users[msg.sender].id, RoiRounds[round]) */\n      mload(0x40)\n      dup1\n      dup8\n      dup2\n      mstore\n      0x20\n      add\n      dup7\n      dup2\n      mstore\n      0x20\n      add\n      dup6\n      0xff\n      and\n      dup2\n      mstore\n      0x20\n      add\n      dup5\n      dup2\n      mstore\n      0x20\n      add\n      dup4\n      dup2\n      mstore\n      0x20\n      add\n      dup3\n      dup2\n      mstore\n      0x20\n      add\n      swap7\n      pop\n      pop\n      pop\n      pop\n      pop\n      pop\n      pop\n      mload(0x40)\n      dup1\n      swap2\n      sub\n      swap1\n      log2\n        /* \"contract/lottery.sol\":9157:9934  if (sent) {\r... */\n      pop\n      jump(tag_291)\n    tag_283:\n        /* \"contract/lottery.sol\":9896:9901  owner */\n      0x66\n      0x02\n      swap1\n      sload\n      swap1\n      0x0100\n      exp\n      swap1\n      div\n      0xffffffffffffffffffffffffffffffffffffffff\n      and\n        /* \"contract/lottery.sol\":9896:9910  owner.transfer */\n      0xffffffffffffffffffffffffffffffffffffffff\n      and\n        /* \"contract/lottery.sol\":9896:9918  owner.transfer(reward) */\n      0x08fc\n        /* \"contract/lottery.sol\":9911:9917  reward */\n      dup5\n        /* \"contract/lottery.sol\":9896:9918  owner.transfer(reward) */\n      swap1\n      dup2\n      iszero\n      mul\n      swap1\n      mload(0x40)\n      0x00\n      mload(0x40)\n      dup1\n      dup4\n      sub\n      dup2\n      dup6\n      dup9\n      dup9\n      call\n      swap4\n      pop\n      pop\n      pop\n      pop\n      iszero\n      dup1\n      iszero\n      tag_293\n      jumpi\n      returndatasize\n      0x00\n      dup1\n      returndatacopy\n      revert(0x00, returndatasize)\n    tag_293:\n      pop\n        /* \"contract/lottery.sol\":9157:9934  if (sent) {\r... */\n    tag_291:\n        /* \"contract/lottery.sol\":9997:10002  users */\n      0x6b\n        /* \"contract/lottery.sol\":9997:10017  users[rewardAddress] */\n      0x00\n        /* \"contract/lottery.sol\":10003:10016  rewardAddress */\n      dup4\n        /* \"contract/lottery.sol\":9997:10017  users[rewardAddress] */\n      0xffffffffffffffffffffffffffffffffffffffff\n      and\n      0xffffffffffffffffffffffffffffffffffffffff\n      and\n      dup2\n      mstore\n      0x20\n      add\n      swap1\n      dup2\n      mstore\n      0x20\n      add\n      0x00\n      keccak256\n        /* \"contract/lottery.sol\":9997:10024  users[rewardAddress].rounds */\n      0x07\n      add\n        /* \"contract/lottery.sol\":9997:10031  users[rewardAddress].rounds[round] */\n      0x00\n        /* \"contract/lottery.sol\":10025:10030  round */\n      dup7\n        /* \"contract/lottery.sol\":9997:10031  users[rewardAddress].rounds[round] */\n      0xff\n      and\n      0xff\n      and\n      dup2\n      mstore\n      0x20\n      add\n      swap1\n      dup2\n      mstore\n      0x20\n      add\n      0x00\n      keccak256\n        /* \"contract/lottery.sol\":9997:10042  users[rewardAddress].rounds[round].maxPayouts */\n      0x00\n      add\n      0x02\n      swap1\n      sload\n      swap1\n      0x0100\n      exp\n      swap1\n      div\n      0xffff\n      and\n        /* \"contract/lottery.sol\":9952:10042  users[rewardAddress].rounds[round].payouts < users[rewardAddress].rounds[round].maxPayouts */\n      0xffff\n      and\n        /* \"contract/lottery.sol\":9952:9957  users */\n      0x6b\n        /* \"contract/lottery.sol\":9952:9972  users[rewardAddress] */\n      0x00\n        /* \"contract/lottery.sol\":9958:9971  rewardAddress */\n      dup5\n        /* \"contract/lottery.sol\":9952:9972  users[rewardAddress] */\n      0xffffffffffffffffffffffffffffffffffffffff\n      and\n      0xffffffffffffffffffffffffffffffffffffffff\n      and\n      dup2\n      mstore\n      0x20\n      add\n      swap1\n      dup2\n      mstore\n      0x20\n      add\n      0x00\n      keccak256\n        /* \"contract/lottery.sol\":9952:9979  users[rewardAddress].rounds */\n      0x07\n      add\n        /* \"contract/lottery.sol\":9952:9986  users[rewardAddress].rounds[round] */\n      0x00\n        /* \"contract/lottery.sol\":9980:9985  round */\n      dup8\n        /* \"contract/lottery.sol\":9952:9986  users[rewardAddress].rounds[round] */\n      0xff\n      and\n      0xff\n      and\n      dup2\n      mstore\n      0x20\n      add\n      swap1\n      dup2\n      mstore\n      0x20\n      add\n      0x00\n      keccak256\n        /* \"contract/lottery.sol\":9952:9994  users[rewardAddress].rounds[round].payouts */\n      0x00\n      add\n      0x04\n      swap1\n      sload\n      swap1\n      0x0100\n      exp\n      swap1\n      div\n      0xffff\n      and\n        /* \"contract/lottery.sol\":9952:10042  users[rewardAddress].rounds[round].payouts < users[rewardAddress].rounds[round].maxPayouts */\n      0xffff\n      and\n      lt\n        /* \"contract/lottery.sol\":9948:10296  if (users[rewardAddress].rounds[round].payouts < users[rewardAddress].rounds[round].maxPayouts) {\r... */\n      iszero\n      tag_294\n      jumpi\n        /* \"contract/lottery.sol\":10063:10073  roundQueue */\n      0x6d\n        /* \"contract/lottery.sol\":10063:10080  roundQueue[round] */\n      0x00\n        /* \"contract/lottery.sol\":10074:10079  round */\n      dup7\n        /* \"contract/lottery.sol\":10063:10080  roundQueue[round] */\n      0xff\n      and\n      0xff\n      and\n      dup2\n      mstore\n      0x20\n      add\n      swap1\n      dup2\n      mstore\n      0x20\n      add\n      0x00\n      keccak256\n        /* \"contract/lottery.sol\":10086:10099  rewardAddress */\n      dup3\n        /* \"contract/lottery.sol\":10063:10100  roundQueue[round].push(rewardAddress) */\n      swap1\n      dup1\n      0x01\n      dup2\n      sload\n      add\n      dup1\n      dup3\n      sstore\n      dup1\n      swap2\n      pop\n      pop\n      0x01\n      swap1\n      sub\n      swap1\n      0x00\n      mstore\n      keccak256(0x00, 0x20)\n      add\n      0x00\n      swap1\n      swap2\n      swap1\n      swap2\n      swap1\n      swap2\n      0x0100\n      exp\n      dup2\n      sload\n      dup2\n      0xffffffffffffffffffffffffffffffffffffffff\n      mul\n      not\n      and\n      swap1\n      dup4\n      0xffffffffffffffffffffffffffffffffffffffff\n      and\n      mul\n      or\n      swap1\n      sstore\n      pop\n        /* \"contract/lottery.sol\":9948:10296  if (users[rewardAddress].rounds[round].payouts < users[rewardAddress].rounds[round].maxPayouts) {\r... */\n      jump(tag_296)\n    tag_294:\n        /* \"contract/lottery.sol\":10185:10190  false */\n      0x00\n        /* \"contract/lottery.sol\":10141:10146  users */\n      0x6b\n        /* \"contract/lottery.sol\":10141:10161  users[rewardAddress] */\n      0x00\n        /* \"contract/lottery.sol\":10147:10160  rewardAddress */\n      dup5\n        /* \"contract/lottery.sol\":10141:10161  users[rewardAddress] */\n      0xffffffffffffffffffffffffffffffffffffffff\n      and\n      0xffffffffffffffffffffffffffffffffffffffff\n      and\n      dup2\n      mstore\n      0x20\n      add\n      swap1\n      dup2\n      mstore\n      0x20\n      add\n      0x00\n      keccak256\n        /* \"contract/lottery.sol\":10141:10168  users[rewardAddress].rounds */\n      0x07\n      add\n        /* \"contract/lottery.sol\":10141:10175  users[rewardAddress].rounds[round] */\n      0x00\n        /* \"contract/lottery.sol\":10169:10174  round */\n      dup8\n        /* \"contract/lottery.sol\":10141:10175  users[rewardAddress].rounds[round] */\n      0xff\n      and\n      0xff\n      and\n      dup2\n      mstore\n      0x20\n      add\n      swap1\n      dup2\n      mstore\n      0x20\n      add\n      0x00\n      keccak256\n        /* \"contract/lottery.sol\":10141:10182  users[rewardAddress].rounds[round].active */\n      0x00\n      add\n      0x06\n        /* \"contract/lottery.sol\":10141:10190  users[rewardAddress].rounds[round].active = false */\n      0x0100\n      exp\n      dup2\n      sload\n      dup2\n      0xff\n      mul\n      not\n      and\n      swap1\n      dup4\n      iszero\n      iszero\n      mul\n      or\n      swap1\n      sstore\n      pop\n        /* \"contract/lottery.sol\":10237:10247  msg.sender */\n      caller\n        /* \"contract/lottery.sol\":10214:10280  roundDeactivation(now, msg.sender, users[rewardAddress].id, round) */\n      0xffffffffffffffffffffffffffffffffffffffff\n      and\n      0x1524ba6dfa482cf4eda16273d76657ddb7f563b2e8a6c3f294564de0ffc66211\n        /* \"contract/lottery.sol\":10232:10235  now */\n      timestamp\n        /* \"contract/lottery.sol\":10249:10254  users */\n      0x6b\n        /* \"contract/lottery.sol\":10249:10269  users[rewardAddress] */\n      0x00\n        /* \"contract/lottery.sol\":10255:10268  rewardAddress */\n      dup7\n        /* \"contract/lottery.sol\":10249:10269  users[rewardAddress] */\n      0xffffffffffffffffffffffffffffffffffffffff\n      and\n      0xffffffffffffffffffffffffffffffffffffffff\n      and\n      dup2\n      mstore\n      0x20\n      add\n      swap1\n      dup2\n      mstore\n      0x20\n      add\n      0x00\n      keccak256\n        /* \"contract/lottery.sol\":10249:10272  users[rewardAddress].id */\n      0x00\n      add\n      sload\n        /* \"contract/lottery.sol\":10274:10279  round */\n      dup9\n        /* \"contract/lottery.sol\":10214:10280  roundDeactivation(now, msg.sender, users[rewardAddress].id, round) */\n      mload(0x40)\n      dup1\n      dup5\n      dup2\n      mstore\n      0x20\n      add\n      dup4\n      dup2\n      mstore\n      0x20\n      add\n      dup3\n      0xff\n      and\n      dup2\n      mstore\n      0x20\n      add\n      swap4\n      pop\n      pop\n      pop\n      pop\n      mload(0x40)\n      dup1\n      swap2\n      sub\n      swap1\n      log2\n        /* \"contract/lottery.sol\":9948:10296  if (users[rewardAddress].rounds[round].payouts < users[rewardAddress].rounds[round].maxPayouts) {\r... */\n    tag_296:\n        /* \"contract/lottery.sol\":10317:10327  roundQueue */\n      0x6d\n        /* \"contract/lottery.sol\":10317:10334  roundQueue[round] */\n      0x00\n        /* \"contract/lottery.sol\":10328:10333  round */\n      dup7\n        /* \"contract/lottery.sol\":10317:10334  roundQueue[round] */\n      0xff\n      and\n      0xff\n      and\n      dup2\n      mstore\n      0x20\n      add\n      swap1\n      dup2\n      mstore\n      0x20\n      add\n      0x00\n      keccak256\n        /* \"contract/lottery.sol\":10335:10344  headIndex */\n      0x6e\n        /* \"contract/lottery.sol\":10335:10351  headIndex[round] */\n      0x00\n        /* \"contract/lottery.sol\":10345:10350  round */\n      dup8\n        /* \"contract/lottery.sol\":10335:10351  headIndex[round] */\n      0xff\n      and\n      0xff\n      and\n      dup2\n      mstore\n      0x20\n      add\n      swap1\n      dup2\n      mstore\n      0x20\n      add\n      0x00\n      keccak256\n      sload\n        /* \"contract/lottery.sol\":10317:10352  roundQueue[round][headIndex[round]] */\n      dup2\n      sload\n      dup2\n      lt\n      tag_297\n      jumpi\n      invalid\n    tag_297:\n      swap1\n      0x00\n      mstore\n      keccak256(0x00, 0x20)\n      add\n      0x00\n        /* \"contract/lottery.sol\":10310:10352  delete roundQueue[round][headIndex[round]] */\n      0x0100\n      exp\n      dup2\n      sload\n      swap1\n      0xffffffffffffffffffffffffffffffffffffffff\n      mul\n      not\n      and\n      swap1\n      sstore\n        /* \"contract/lottery.sol\":10367:10376  headIndex */\n      0x6e\n        /* \"contract/lottery.sol\":10367:10383  headIndex[round] */\n      0x00\n        /* \"contract/lottery.sol\":10377:10382  round */\n      dup7\n        /* \"contract/lottery.sol\":10367:10383  headIndex[round] */\n      0xff\n      and\n      0xff\n      and\n      dup2\n      mstore\n      0x20\n      add\n      swap1\n      dup2\n      mstore\n      0x20\n      add\n      0x00\n      keccak256\n      0x00\n        /* \"contract/lottery.sol\":10367:10385  headIndex[round]++ */\n      dup2\n      sload\n      dup1\n      swap3\n      swap2\n      swap1\n      0x01\n      add\n      swap2\n      swap1\n      pop\n      sstore\n      pop\n        /* \"contract/lottery.sol\":8951:10617  if (roundQueue[round][headIndex[round]] != msg.sender) {\r... */\n      pop\n      pop\n      jump(tag_299)\n    tag_279:\n        /* \"contract/lottery.sol\":10418:10423  owner */\n      0x66\n      0x02\n      swap1\n      sload\n      swap1\n      0x0100\n      exp\n      swap1\n      div\n      0xffffffffffffffffffffffffffffffffffffffff\n      and\n        /* \"contract/lottery.sol\":10418:10432  owner.transfer */\n      0xffffffffffffffffffffffffffffffffffffffff\n      and\n        /* \"contract/lottery.sol\":10418:10440  owner.transfer(reward) */\n      0x08fc\n        /* \"contract/lottery.sol\":10433:10439  reward */\n      dup3\n        /* \"contract/lottery.sol\":10418:10440  owner.transfer(reward) */\n      swap1\n      dup2\n      iszero\n      mul\n      swap1\n      mload(0x40)\n      0x00\n      mload(0x40)\n      dup1\n      dup4\n      sub\n      dup2\n      dup6\n      dup9\n      dup9\n      call\n      swap4\n      pop\n      pop\n      pop\n      pop\n      iszero\n      dup1\n      iszero\n      tag_301\n      jumpi\n      returndatasize\n      0x00\n      dup1\n      returndatacopy\n      revert(0x00, returndatasize)\n    tag_301:\n      pop\n        /* \"contract/lottery.sol\":10455:10460  users */\n      0x6b\n        /* \"contract/lottery.sol\":10455:10467  users[owner] */\n      0x00\n        /* \"contract/lottery.sol\":10461:10466  owner */\n      0x66\n      0x02\n      swap1\n      sload\n      swap1\n      0x0100\n      exp\n      swap1\n      div\n      0xffffffffffffffffffffffffffffffffffffffff\n      and\n        /* \"contract/lottery.sol\":10455:10467  users[owner] */\n      0xffffffffffffffffffffffffffffffffffffffff\n      and\n      0xffffffffffffffffffffffffffffffffffffffff\n      and\n      dup2\n      mstore\n      0x20\n      add\n      swap1\n      dup2\n      mstore\n      0x20\n      add\n      0x00\n      keccak256\n        /* \"contract/lottery.sol\":10455:10474  users[owner].rounds */\n      0x07\n      add\n        /* \"contract/lottery.sol\":10455:10481  users[owner].rounds[round] */\n      0x00\n        /* \"contract/lottery.sol\":10475:10480  round */\n      dup5\n        /* \"contract/lottery.sol\":10455:10481  users[owner].rounds[round] */\n      0xff\n      and\n      0xff\n      and\n      dup2\n      mstore\n      0x20\n      add\n      swap1\n      dup2\n      mstore\n      0x20\n      add\n      0x00\n      keccak256\n        /* \"contract/lottery.sol\":10455:10489  users[owner].rounds[round].payouts */\n      0x00\n      add\n      0x04\n        /* \"contract/lottery.sol\":10455:10491  users[owner].rounds[round].payouts++ */\n      dup2\n      dup2\n      swap1\n      sload\n      swap1\n      0x0100\n      exp\n      swap1\n      div\n      0xffff\n      and\n      dup1\n      swap3\n      swap2\n      swap1\n      0x01\n      add\n      swap2\n      swap1\n      0x0100\n      exp\n      dup2\n      sload\n      dup2\n      0xffff\n      mul\n      not\n      and\n      swap1\n      dup4\n      0xffff\n      and\n      mul\n      or\n      swap1\n      sstore\n      pop\n      pop\n        /* \"contract/lottery.sol\":10546:10552  reward */\n      dup1\n        /* \"contract/lottery.sol\":10506:10511  users */\n      0x6b\n        /* \"contract/lottery.sol\":10506:10518  users[owner] */\n      0x00\n        /* \"contract/lottery.sol\":10512:10517  owner */\n      0x66\n      0x02\n      swap1\n      sload\n      swap1\n      0x0100\n      exp\n      swap1\n      div\n      0xffffffffffffffffffffffffffffffffffffffff\n      and\n        /* \"contract/lottery.sol\":10506:10518  users[owner] */\n      0xffffffffffffffffffffffffffffffffffffffff\n      and\n      0xffffffffffffffffffffffffffffffffffffffff\n      and\n      dup2\n      mstore\n      0x20\n      add\n      swap1\n      dup2\n      mstore\n      0x20\n      add\n      0x00\n      keccak256\n        /* \"contract/lottery.sol\":10506:10525  users[owner].rounds */\n      0x07\n      add\n        /* \"contract/lottery.sol\":10506:10532  users[owner].rounds[round] */\n      0x00\n        /* \"contract/lottery.sol\":10526:10531  round */\n      dup6\n        /* \"contract/lottery.sol\":10506:10532  users[owner].rounds[round] */\n      0xff\n      and\n      0xff\n      and\n      dup2\n      mstore\n      0x20\n      add\n      swap1\n      dup2\n      mstore\n      0x20\n      add\n      0x00\n      keccak256\n        /* \"contract/lottery.sol\":10506:10542  users[owner].rounds[round].rewardSum */\n      0x01\n      add\n      0x00\n        /* \"contract/lottery.sol\":10506:10552  users[owner].rounds[round].rewardSum += reward */\n      dup3\n      dup3\n      sload\n      add\n      swap3\n      pop\n      pop\n      dup2\n      swap1\n      sstore\n      pop\n        /* \"contract/lottery.sol\":10599:10605  reward */\n      dup1\n        /* \"contract/lottery.sol\":10567:10572  users */\n      0x6b\n        /* \"contract/lottery.sol\":10567:10579  users[owner] */\n      0x00\n        /* \"contract/lottery.sol\":10573:10578  owner */\n      0x66\n      0x02\n      swap1\n      sload\n      swap1\n      0x0100\n      exp\n      swap1\n      div\n      0xffffffffffffffffffffffffffffffffffffffff\n      and\n        /* \"contract/lottery.sol\":10567:10579  users[owner] */\n      0xffffffffffffffffffffffffffffffffffffffff\n      and\n      0xffffffffffffffffffffffffffffffffffffffff\n      and\n      dup2\n      mstore\n      0x20\n      add\n      swap1\n      dup2\n      mstore\n      0x20\n      add\n      0x00\n      keccak256\n        /* \"contract/lottery.sol\":10567:10595  users[owner].roundsRewardSum */\n      0x05\n      add\n      0x00\n        /* \"contract/lottery.sol\":10567:10605  users[owner].roundsRewardSum += reward */\n      dup3\n      dup3\n      sload\n      add\n      swap3\n      pop\n      pop\n      dup2\n      swap1\n      sstore\n      pop\n        /* \"contract/lottery.sol\":8951:10617  if (roundQueue[round][headIndex[round]] != msg.sender) {\r... */\n    tag_299:\n        /* \"contract/lottery.sol\":10631:10647  uint rewardValue */\n      0x00\n        /* \"contract/lottery.sol\":10663:10685  referralRewardPercents */\n      0x66\n      0x00\n      swap1\n      sload\n      swap1\n      0x0100\n      exp\n      swap1\n      div\n      0xff\n      and\n        /* \"contract/lottery.sol\":10650:10685  onePercent * referralRewardPercents */\n      0xff\n      and\n        /* \"contract/lottery.sol\":10650:10660  onePercent */\n      dup4\n        /* \"contract/lottery.sol\":10650:10685  onePercent * referralRewardPercents */\n      mul\n        /* \"contract/lottery.sol\":10631:10685  uint rewardValue = onePercent * referralRewardPercents */\n      swap1\n      pop\n        /* \"contract/lottery.sol\":10700:10752  sendRewardToReferrer(msg.sender, round, rewardValue) */\n      tag_302\n        /* \"contract/lottery.sol\":10721:10731  msg.sender */\n      caller\n        /* \"contract/lottery.sol\":10733:10738  round */\n      dup6\n        /* \"contract/lottery.sol\":10740:10751  rewardValue */\n      dup4\n        /* \"contract/lottery.sol\":10700:10720  sendRewardToReferrer */\n      tag_303\n        /* \"contract/lottery.sol\":10700:10752  sendRewardToReferrer(msg.sender, round, rewardValue) */\n      jump\t// in\n    tag_302:\n        /* \"contract/lottery.sol\":10774:10786  bool success */\n      0x00\n        /* \"contract/lottery.sol\":10792:10801  marketing */\n      0x67\n      0x00\n      swap1\n      sload\n      swap1\n      0x0100\n      exp\n      swap1\n      div\n      0xffffffffffffffffffffffffffffffffffffffff\n      and\n        /* \"contract/lottery.sol\":10792:10806  marketing.call */\n      0xffffffffffffffffffffffffffffffffffffffff\n      and\n        /* \"contract/lottery.sol\":3094:3095  7 */\n      0x07\n        /* \"contract/lottery.sol\":10814:10844  onePercent * marketingPercents */\n      0xff\n      and\n        /* \"contract/lottery.sol\":10814:10824  onePercent */\n      dup6\n        /* \"contract/lottery.sol\":10814:10844  onePercent * marketingPercents */\n      mul\n        /* \"contract/lottery.sol\":10792:10849  marketing.call{value: onePercent * marketingPercents}(\"\") */\n      mload(0x40)\n      dup1\n      0x00\n      add\n      swap1\n      pop\n      0x00\n      mload(0x40)\n      dup1\n      dup4\n      sub\n      dup2\n      dup6\n      dup8\n      gas\n      call\n      swap3\n      pop\n      pop\n      pop\n      returndatasize\n      dup1\n      0x00\n      dup2\n      eq\n      tag_306\n      jumpi\n      mload(0x40)\n      swap2\n      pop\n      and(add(returndatasize, 0x3f), not(0x1f))\n      dup3\n      add\n      0x40\n      mstore\n      returndatasize\n      dup3\n      mstore\n      returndatasize\n      0x00\n      0x20\n      dup5\n      add\n      returndatacopy\n      jump(tag_305)\n    tag_306:\n      0x60\n      swap2\n      pop\n    tag_305:\n      pop\n        /* \"contract/lottery.sol\":10773:10849  (bool success, ) = marketing.call{value: onePercent * marketingPercents}(\"\") */\n      pop\n      swap1\n      pop\n        /* \"contract/lottery.sol\":10868:10875  success */\n      dup1\n        /* \"contract/lottery.sol\":10860:10911  require(success, \"transfer failed while buy round\") */\n      tag_307\n      jumpi\n      mload(0x40)\n      0x08c379a000000000000000000000000000000000000000000000000000000000\n      dup2\n      mstore\n      0x04\n      add\n      dup1\n      dup1\n      0x20\n      add\n      dup3\n      dup2\n      sub\n      dup3\n      mstore\n      0x1f\n      dup2\n      mstore\n      0x20\n      add\n      dup1\n      0x7472616e73666572206661696c6564207768696c652062757920726f756e6400\n      dup2\n      mstore\n      pop\n      0x20\n      add\n      swap2\n      pop\n      pop\n      mload(0x40)\n      dup1\n      swap2\n      sub\n      swap1\n      revert\n    tag_307:\n        /* \"contract/lottery.sol\":430:431  _ */\n      pop\n      pop\n      pop\n      pop\n        /* \"contract/lottery.sol\":136:137  1 */\n      0x01\n        /* \"contract/lottery.sol\":442:449  _status */\n      0x00\n        /* \"contract/lottery.sol\":442:464  _status = _NOT_ENTERED */\n      dup2\n      swap1\n      sstore\n      pop\n        /* \"contract/lottery.sol\":6721:10919  function buyround(uint8 round) public payable nonReentrant{\r... */\n      pop\n      jump\t// out\n        /* \"contract/lottery.sol\":17012:17109  function getroundPrices() public view returns(uint[] memory) {\r... */\n    tag_68:\n        /* \"contract/lottery.sol\":17058:17071  uint[] memory */\n      0x60\n        /* \"contract/lottery.sol\":17091:17101  roundPrice */\n      0x68\n        /* \"contract/lottery.sol\":17084:17101  return roundPrice */\n      dup1\n      sload\n      dup1\n      0x20\n      mul\n      0x20\n      add\n      mload(0x40)\n      swap1\n      dup2\n      add\n      0x40\n      mstore\n      dup1\n      swap3\n      swap2\n      swap1\n      dup2\n      dup2\n      mstore\n      0x20\n      add\n      dup3\n      dup1\n      sload\n      dup1\n      iszero\n      tag_309\n      jumpi\n      0x20\n      mul\n      dup3\n      add\n      swap2\n      swap1\n      0x00\n      mstore\n      keccak256(0x00, 0x20)\n      swap1\n    tag_310:\n      dup2\n      sload\n      dup2\n      mstore\n      0x20\n      add\n      swap1\n      0x01\n      add\n      swap1\n      dup1\n      dup4\n      gt\n      tag_310\n      jumpi\n    tag_309:\n      pop\n      pop\n      pop\n      pop\n      pop\n      swap1\n      pop\n        /* \"contract/lottery.sol\":17012:17109  function getroundPrices() public view returns(uint[] memory) {\r... */\n      swap1\n      jump\t// out\n        /* \"contract/lottery.sol\":4790:4978  function isContract(address addr) public view returns (bool) {\r... */\n    tag_75:\n        /* \"contract/lottery.sol\":4845:4849  bool */\n      0x00\n        /* \"contract/lottery.sol\":4862:4873  uint32 size */\n      dup1\n        /* \"contract/lottery.sol\":4928:4932  addr */\n      dup3\n        /* \"contract/lottery.sol\":4916:4933  extcodesize(addr) */\n      extcodesize\n        /* \"contract/lottery.sol\":4908:4933  size := extcodesize(addr) */\n      swap1\n      pop\n        /* \"contract/lottery.sol\":4969:4970  0 */\n      0x00\n        /* \"contract/lottery.sol\":4961:4965  size */\n      dup2\n        /* \"contract/lottery.sol\":4961:4970  size != 0 */\n      0xffffffff\n      and\n      eq\n      iszero\n        /* \"contract/lottery.sol\":4954:4970  return size != 0 */\n      swap2\n      pop\n      pop\n        /* \"contract/lottery.sol\":4790:4978  function isContract(address addr) public view returns (bool) {\r... */\n      swap2\n      swap1\n      pop\n      jump\t// out\n        /* \"contract/lottery.sol\":525:555  address[50] public  todayWiner */\n    tag_83:\n      0x01\n      dup2\n      0x32\n      dup2\n      lt\n      tag_312\n      jumpi\n      invalid\n    tag_312:\n      add\n      0x00\n      swap2\n      pop\n      sload\n      swap1\n      0x0100\n      exp\n      swap1\n      div\n      0xffffffffffffffffffffffffffffffffffffffff\n      and\n      dup2\n      jump\t// out\n        /* \"contract/lottery.sol\":2903:2951  uint public constant registrationPrice = 0 ether */\n    tag_86:\n        /* \"contract/lottery.sol\":2944:2951  0 ether */\n      0x00\n        /* \"contract/lottery.sol\":2903:2951  uint public constant registrationPrice = 0 ether */\n      dup2\n      jump\t// out\n        /* \"contract/lottery.sol\":15786:17006  function getUserrounds(address userAddress) public view returns (bool[] memory, uint16[] memory, uint16[] memory, uint16[] memory, uint[] memory, uint[] memory) {\r... */\n    tag_90:\n        /* \"contract/lottery.sol\":15851:15864  bool[] memory */\n      0x60\n        /* \"contract/lottery.sol\":15866:15881  uint16[] memory */\n      dup1\n        /* \"contract/lottery.sol\":15883:15898  uint16[] memory */\n      0x60\n        /* \"contract/lottery.sol\":15900:15915  uint16[] memory */\n      dup1\n        /* \"contract/lottery.sol\":15917:15930  uint[] memory */\n      0x60\n        /* \"contract/lottery.sol\":15932:15945  uint[] memory */\n      dup1\n        /* \"contract/lottery.sol\":15958:15978  bool[] memory active */\n      0x60\n        /* \"contract/lottery.sol\":16006:16007  1 */\n      0x01\n        /* \"contract/lottery.sol\":15992:16003  totalrounds */\n      sload(0x69)\n        /* \"contract/lottery.sol\":15992:16007  totalrounds + 1 */\n      add\n        /* \"contract/lottery.sol\":15981:16008  new bool[](totalrounds + 1) */\n      0xffffffffffffffff\n      dup2\n      gt\n      dup1\n      iszero\n      tag_315\n      jumpi\n      0x00\n      dup1\n      revert\n    tag_315:\n      pop\n      mload(0x40)\n      swap1\n      dup1\n      dup3\n      mstore\n      dup1\n      0x20\n      mul\n      0x20\n      add\n      dup3\n      add\n      0x40\n      mstore\n      dup1\n      iszero\n      tag_316\n      jumpi\n      dup2\n      0x20\n      add\n      0x20\n      dup3\n      mul\n      dup1\n      calldatasize\n      dup4\n      calldatacopy\n      dup1\n      dup3\n      add\n      swap2\n      pop\n      pop\n      swap1\n      pop\n    tag_316:\n      pop\n        /* \"contract/lottery.sol\":15958:16008  bool[] memory active = new bool[](totalrounds + 1) */\n      swap1\n      pop\n        /* \"contract/lottery.sol\":16019:16042  uint16[] memory payouts */\n      0x60\n        /* \"contract/lottery.sol\":16072:16073  1 */\n      0x01\n        /* \"contract/lottery.sol\":16058:16069  totalrounds */\n      sload(0x69)\n        /* \"contract/lottery.sol\":16058:16073  totalrounds + 1 */\n      add\n        /* \"contract/lottery.sol\":16045:16074  new uint16[](totalrounds + 1) */\n      0xffffffffffffffff\n      dup2\n      gt\n      dup1\n      iszero\n      tag_317\n      jumpi\n      0x00\n      dup1\n      revert\n    tag_317:\n      pop\n      mload(0x40)\n      swap1\n      dup1\n      dup3\n      mstore\n      dup1\n      0x20\n      mul\n      0x20\n      add\n      dup3\n      add\n      0x40\n      mstore\n      dup1\n      iszero\n      tag_318\n      jumpi\n      dup2\n      0x20\n      add\n      0x20\n      dup3\n      mul\n      dup1\n      calldatasize\n      dup4\n      calldatacopy\n      dup1\n      dup3\n      add\n      swap2\n      pop\n      pop\n      swap1\n      pop\n    tag_318:\n      pop\n        /* \"contract/lottery.sol\":16019:16074  uint16[] memory payouts = new uint16[](totalrounds + 1) */\n      swap1\n      pop\n        /* \"contract/lottery.sol\":16085:16111  uint16[] memory maxPayouts */\n      0x60\n        /* \"contract/lottery.sol\":16141:16142  1 */\n      0x01\n        /* \"contract/lottery.sol\":16127:16138  totalrounds */\n      sload(0x69)\n        /* \"contract/lottery.sol\":16127:16142  totalrounds + 1 */\n      add\n        /* \"contract/lottery.sol\":16114:16143  new uint16[](totalrounds + 1) */\n      0xffffffffffffffff\n      dup2\n      gt\n      dup1\n      iszero\n      tag_319\n      jumpi\n      0x00\n      dup1\n      revert\n    tag_319:\n      pop\n      mload(0x40)\n      swap1\n      dup1\n      dup3\n      mstore\n      dup1\n      0x20\n      mul\n      0x20\n      add\n      dup3\n      add\n      0x40\n      mstore\n      dup1\n      iszero\n      tag_320\n      jumpi\n      dup2\n      0x20\n      add\n      0x20\n      dup3\n      mul\n      dup1\n      calldatasize\n      dup4\n      calldatacopy\n      dup1\n      dup3\n      add\n      swap2\n      pop\n      pop\n      swap1\n      pop\n    tag_320:\n      pop\n        /* \"contract/lottery.sol\":16085:16143  uint16[] memory maxPayouts = new uint16[](totalrounds + 1) */\n      swap1\n      pop\n        /* \"contract/lottery.sol\":16154:16185  uint16[] memory activationTimes */\n      0x60\n        /* \"contract/lottery.sol\":16215:16216  1 */\n      0x01\n        /* \"contract/lottery.sol\":16201:16212  totalrounds */\n      sload(0x69)\n        /* \"contract/lottery.sol\":16201:16216  totalrounds + 1 */\n      add\n        /* \"contract/lottery.sol\":16188:16217  new uint16[](totalrounds + 1) */\n      0xffffffffffffffff\n      dup2\n      gt\n      dup1\n      iszero\n      tag_321\n      jumpi\n      0x00\n      dup1\n      revert\n    tag_321:\n      pop\n      mload(0x40)\n      swap1\n      dup1\n      dup3\n      mstore\n      dup1\n      0x20\n      mul\n      0x20\n      add\n      dup3\n      add\n      0x40\n      mstore\n      dup1\n      iszero\n      tag_322\n      jumpi\n      dup2\n      0x20\n      add\n      0x20\n      dup3\n      mul\n      dup1\n      calldatasize\n      dup4\n      calldatacopy\n      dup1\n      dup3\n      add\n      swap2\n      pop\n      pop\n      swap1\n      pop\n    tag_322:\n      pop\n        /* \"contract/lottery.sol\":16154:16217  uint16[] memory activationTimes = new uint16[](totalrounds + 1) */\n      swap1\n      pop\n        /* \"contract/lottery.sol\":16228:16251  uint[] memory rewardSum */\n      0x60\n        /* \"contract/lottery.sol\":16279:16280  1 */\n      0x01\n        /* \"contract/lottery.sol\":16265:16276  totalrounds */\n      sload(0x69)\n        /* \"contract/lottery.sol\":16265:16280  totalrounds + 1 */\n      add\n        /* \"contract/lottery.sol\":16254:16281  new uint[](totalrounds + 1) */\n      0xffffffffffffffff\n      dup2\n      gt\n      dup1\n      iszero\n      tag_323\n      jumpi\n      0x00\n      dup1\n      revert\n    tag_323:\n      pop\n      mload(0x40)\n      swap1\n      dup1\n      dup3\n      mstore\n      dup1\n      0x20\n      mul\n      0x20\n      add\n      dup3\n      add\n      0x40\n      mstore\n      dup1\n      iszero\n      tag_324\n      jumpi\n      dup2\n      0x20\n      add\n      0x20\n      dup3\n      mul\n      dup1\n      calldatasize\n      dup4\n      calldatacopy\n      dup1\n      dup3\n      add\n      swap2\n      pop\n      pop\n      swap1\n      pop\n    tag_324:\n      pop\n        /* \"contract/lottery.sol\":16228:16281  uint[] memory rewardSum = new uint[](totalrounds + 1) */\n      swap1\n      pop\n        /* \"contract/lottery.sol\":16292:16323  uint[] memory referralPayoutSum */\n      0x60\n        /* \"contract/lottery.sol\":16351:16352  1 */\n      0x01\n        /* \"contract/lottery.sol\":16337:16348  totalrounds */\n      sload(0x69)\n        /* \"contract/lottery.sol\":16337:16352  totalrounds + 1 */\n      add\n        /* \"contract/lottery.sol\":16326:16353  new uint[](totalrounds + 1) */\n      0xffffffffffffffff\n      dup2\n      gt\n      dup1\n      iszero\n      tag_325\n      jumpi\n      0x00\n      dup1\n      revert\n    tag_325:\n      pop\n      mload(0x40)\n      swap1\n      dup1\n      dup3\n      mstore\n      dup1\n      0x20\n      mul\n      0x20\n      add\n      dup3\n      add\n      0x40\n      mstore\n      dup1\n      iszero\n      tag_326\n      jumpi\n      dup2\n      0x20\n      add\n      0x20\n      dup3\n      mul\n      dup1\n      calldatasize\n      dup4\n      calldatacopy\n      dup1\n      dup3\n      add\n      swap2\n      pop\n      pop\n      swap1\n      pop\n    tag_326:\n      pop\n        /* \"contract/lottery.sol\":16292:16353  uint[] memory referralPayoutSum = new uint[](totalrounds + 1) */\n      swap1\n      pop\n        /* \"contract/lottery.sol\":16369:16380  uint8 round */\n      0x00\n        /* \"contract/lottery.sol\":16383:16384  1 */\n      0x01\n        /* \"contract/lottery.sol\":16369:16384  uint8 round = 1 */\n      swap1\n      pop\n        /* \"contract/lottery.sol\":16364:16905  for (uint8 round = 1; round <= totalrounds; round++) {\r... */\n    tag_327:\n        /* \"contract/lottery.sol\":16395:16406  totalrounds */\n      sload(0x69)\n        /* \"contract/lottery.sol\":16386:16391  round */\n      dup2\n        /* \"contract/lottery.sol\":16386:16406  round <= totalrounds */\n      0xff\n      and\n      gt\n        /* \"contract/lottery.sol\":16364:16905  for (uint8 round = 1; round <= totalrounds; round++) {\r... */\n      tag_328\n      jumpi\n        /* \"contract/lottery.sol\":16448:16453  users */\n      0x6b\n        /* \"contract/lottery.sol\":16448:16466  users[userAddress] */\n      0x00\n        /* \"contract/lottery.sol\":16454:16465  userAddress */\n      dup16\n        /* \"contract/lottery.sol\":16448:16466  users[userAddress] */\n      0xffffffffffffffffffffffffffffffffffffffff\n      and\n      0xffffffffffffffffffffffffffffffffffffffff\n      and\n      dup2\n      mstore\n      0x20\n      add\n      swap1\n      dup2\n      mstore\n      0x20\n      add\n      0x00\n      keccak256\n        /* \"contract/lottery.sol\":16448:16473  users[userAddress].rounds */\n      0x07\n      add\n        /* \"contract/lottery.sol\":16448:16480  users[userAddress].rounds[round] */\n      0x00\n        /* \"contract/lottery.sol\":16474:16479  round */\n      dup3\n        /* \"contract/lottery.sol\":16448:16480  users[userAddress].rounds[round] */\n      0xff\n      and\n      0xff\n      and\n      dup2\n      mstore\n      0x20\n      add\n      swap1\n      dup2\n      mstore\n      0x20\n      add\n      0x00\n      keccak256\n        /* \"contract/lottery.sol\":16448:16487  users[userAddress].rounds[round].active */\n      0x00\n      add\n      0x06\n      swap1\n      sload\n      swap1\n      0x0100\n      exp\n      swap1\n      div\n      0xff\n      and\n        /* \"contract/lottery.sol\":16432:16438  active */\n      dup8\n        /* \"contract/lottery.sol\":16439:16444  round */\n      dup3\n        /* \"contract/lottery.sol\":16432:16445  active[round] */\n      0xff\n      and\n      dup2\n      mload\n      dup2\n      lt\n      tag_330\n      jumpi\n      invalid\n    tag_330:\n      0x20\n      mul\n      0x20\n      add\n      add\n        /* \"contract/lottery.sol\":16432:16487  active[round] = users[userAddress].rounds[round].active */\n      swap1\n      iszero\n      iszero\n      swap1\n      dup2\n      iszero\n      iszero\n      dup2\n      mstore\n      pop\n      pop\n        /* \"contract/lottery.sol\":16519:16524  users */\n      0x6b\n        /* \"contract/lottery.sol\":16519:16537  users[userAddress] */\n      0x00\n        /* \"contract/lottery.sol\":16525:16536  userAddress */\n      dup16\n        /* \"contract/lottery.sol\":16519:16537  users[userAddress] */\n      0xffffffffffffffffffffffffffffffffffffffff\n      and\n      0xffffffffffffffffffffffffffffffffffffffff\n      and\n      dup2\n      mstore\n      0x20\n      add\n      swap1\n      dup2\n      mstore\n      0x20\n      add\n      0x00\n      keccak256\n        /* \"contract/lottery.sol\":16519:16544  users[userAddress].rounds */\n      0x07\n      add\n        /* \"contract/lottery.sol\":16519:16551  users[userAddress].rounds[round] */\n      0x00\n        /* \"contract/lottery.sol\":16545:16550  round */\n      dup3\n        /* \"contract/lottery.sol\":16519:16551  users[userAddress].rounds[round] */\n      0xff\n      and\n      0xff\n      and\n      dup2\n      mstore\n      0x20\n      add\n      swap1\n      dup2\n      mstore\n      0x20\n      add\n      0x00\n      keccak256\n        /* \"contract/lottery.sol\":16519:16559  users[userAddress].rounds[round].payouts */\n      0x00\n      add\n      0x04\n      swap1\n      sload\n      swap1\n      0x0100\n      exp\n      swap1\n      div\n      0xffff\n      and\n        /* \"contract/lottery.sol\":16502:16509  payouts */\n      dup7\n        /* \"contract/lottery.sol\":16510:16515  round */\n      dup3\n        /* \"contract/lottery.sol\":16502:16516  payouts[round] */\n      0xff\n      and\n      dup2\n      mload\n      dup2\n      lt\n      tag_331\n      jumpi\n      invalid\n    tag_331:\n      0x20\n      mul\n      0x20\n      add\n      add\n        /* \"contract/lottery.sol\":16502:16559  payouts[round] = users[userAddress].rounds[round].payouts */\n      swap1\n      0xffff\n      and\n      swap1\n      dup2\n      0xffff\n      and\n      dup2\n      mstore\n      pop\n      pop\n        /* \"contract/lottery.sol\":16594:16599  users */\n      0x6b\n        /* \"contract/lottery.sol\":16594:16612  users[userAddress] */\n      0x00\n        /* \"contract/lottery.sol\":16600:16611  userAddress */\n      dup16\n        /* \"contract/lottery.sol\":16594:16612  users[userAddress] */\n      0xffffffffffffffffffffffffffffffffffffffff\n      and\n      0xffffffffffffffffffffffffffffffffffffffff\n      and\n      dup2\n      mstore\n      0x20\n      add\n      swap1\n      dup2\n      mstore\n      0x20\n      add\n      0x00\n      keccak256\n        /* \"contract/lottery.sol\":16594:16619  users[userAddress].rounds */\n      0x07\n      add\n        /* \"contract/lottery.sol\":16594:16626  users[userAddress].rounds[round] */\n      0x00\n        /* \"contract/lottery.sol\":16620:16625  round */\n      dup3\n        /* \"contract/lottery.sol\":16594:16626  users[userAddress].rounds[round] */\n      0xff\n      and\n      0xff\n      and\n      dup2\n      mstore\n      0x20\n      add\n      swap1\n      dup2\n      mstore\n      0x20\n      add\n      0x00\n      keccak256\n        /* \"contract/lottery.sol\":16594:16637  users[userAddress].rounds[round].maxPayouts */\n      0x00\n      add\n      0x02\n      swap1\n      sload\n      swap1\n      0x0100\n      exp\n      swap1\n      div\n      0xffff\n      and\n        /* \"contract/lottery.sol\":16574:16584  maxPayouts */\n      dup6\n        /* \"contract/lottery.sol\":16585:16590  round */\n      dup3\n        /* \"contract/lottery.sol\":16574:16591  maxPayouts[round] */\n      0xff\n      and\n      dup2\n      mload\n      dup2\n      lt\n      tag_332\n      jumpi\n      invalid\n    tag_332:\n      0x20\n      mul\n      0x20\n      add\n      add\n        /* \"contract/lottery.sol\":16574:16637  maxPayouts[round] = users[userAddress].rounds[round].maxPayouts */\n      swap1\n      0xffff\n      and\n      swap1\n      dup2\n      0xffff\n      and\n      dup2\n      mstore\n      pop\n      pop\n        /* \"contract/lottery.sol\":16677:16682  users */\n      0x6b\n        /* \"contract/lottery.sol\":16677:16695  users[userAddress] */\n      0x00\n        /* \"contract/lottery.sol\":16683:16694  userAddress */\n      dup16\n        /* \"contract/lottery.sol\":16677:16695  users[userAddress] */\n      0xffffffffffffffffffffffffffffffffffffffff\n      and\n      0xffffffffffffffffffffffffffffffffffffffff\n      and\n      dup2\n      mstore\n      0x20\n      add\n      swap1\n      dup2\n      mstore\n      0x20\n      add\n      0x00\n      keccak256\n        /* \"contract/lottery.sol\":16677:16702  users[userAddress].rounds */\n      0x07\n      add\n        /* \"contract/lottery.sol\":16677:16709  users[userAddress].rounds[round] */\n      0x00\n        /* \"contract/lottery.sol\":16703:16708  round */\n      dup3\n        /* \"contract/lottery.sol\":16677:16709  users[userAddress].rounds[round] */\n      0xff\n      and\n      0xff\n      and\n      dup2\n      mstore\n      0x20\n      add\n      swap1\n      dup2\n      mstore\n      0x20\n      add\n      0x00\n      keccak256\n        /* \"contract/lottery.sol\":16677:16725  users[userAddress].rounds[round].activationTimes */\n      0x00\n      add\n      0x00\n      swap1\n      sload\n      swap1\n      0x0100\n      exp\n      swap1\n      div\n      0xffff\n      and\n        /* \"contract/lottery.sol\":16652:16667  activationTimes */\n      dup5\n        /* \"contract/lottery.sol\":16668:16673  round */\n      dup3\n        /* \"contract/lottery.sol\":16652:16674  activationTimes[round] */\n      0xff\n      and\n      dup2\n      mload\n      dup2\n      lt\n      tag_333\n      jumpi\n      invalid\n    tag_333:\n      0x20\n      mul\n      0x20\n      add\n      add\n        /* \"contract/lottery.sol\":16652:16725  activationTimes[round] = users[userAddress].rounds[round].activationTimes */\n      swap1\n      0xffff\n      and\n      swap1\n      dup2\n      0xffff\n      and\n      dup2\n      mstore\n      pop\n      pop\n        /* \"contract/lottery.sol\":16759:16764  users */\n      0x6b\n        /* \"contract/lottery.sol\":16759:16777  users[userAddress] */\n      0x00\n        /* \"contract/lottery.sol\":16765:16776  userAddress */\n      dup16\n        /* \"contract/lottery.sol\":16759:16777  users[userAddress] */\n      0xffffffffffffffffffffffffffffffffffffffff\n      and\n      0xffffffffffffffffffffffffffffffffffffffff\n      and\n      dup2\n      mstore\n      0x20\n      add\n      swap1\n      dup2\n      mstore\n      0x20\n      add\n      0x00\n      keccak256\n        /* \"contract/lottery.sol\":16759:16784  users[userAddress].rounds */\n      0x07\n      add\n        /* \"contract/lottery.sol\":16759:16791  users[userAddress].rounds[round] */\n      0x00\n        /* \"contract/lottery.sol\":16785:16790  round */\n      dup3\n        /* \"contract/lottery.sol\":16759:16791  users[userAddress].rounds[round] */\n      0xff\n      and\n      0xff\n      and\n      dup2\n      mstore\n      0x20\n      add\n      swap1\n      dup2\n      mstore\n      0x20\n      add\n      0x00\n      keccak256\n        /* \"contract/lottery.sol\":16759:16801  users[userAddress].rounds[round].rewardSum */\n      0x01\n      add\n      sload\n        /* \"contract/lottery.sol\":16740:16749  rewardSum */\n      dup4\n        /* \"contract/lottery.sol\":16750:16755  round */\n      dup3\n        /* \"contract/lottery.sol\":16740:16756  rewardSum[round] */\n      0xff\n      and\n      dup2\n      mload\n      dup2\n      lt\n      tag_334\n      jumpi\n      invalid\n    tag_334:\n      0x20\n      mul\n      0x20\n      add\n      add\n        /* \"contract/lottery.sol\":16740:16801  rewardSum[round] = users[userAddress].rounds[round].rewardSum */\n      dup2\n      dup2\n      mstore\n      pop\n      pop\n        /* \"contract/lottery.sol\":16843:16848  users */\n      0x6b\n        /* \"contract/lottery.sol\":16843:16861  users[userAddress] */\n      0x00\n        /* \"contract/lottery.sol\":16849:16860  userAddress */\n      dup16\n        /* \"contract/lottery.sol\":16843:16861  users[userAddress] */\n      0xffffffffffffffffffffffffffffffffffffffff\n      and\n      0xffffffffffffffffffffffffffffffffffffffff\n      and\n      dup2\n      mstore\n      0x20\n      add\n      swap1\n      dup2\n      mstore\n      0x20\n      add\n      0x00\n      keccak256\n        /* \"contract/lottery.sol\":16843:16868  users[userAddress].rounds */\n      0x07\n      add\n        /* \"contract/lottery.sol\":16843:16875  users[userAddress].rounds[round] */\n      0x00\n        /* \"contract/lottery.sol\":16869:16874  round */\n      dup3\n        /* \"contract/lottery.sol\":16843:16875  users[userAddress].rounds[round] */\n      0xff\n      and\n      0xff\n      and\n      dup2\n      mstore\n      0x20\n      add\n      swap1\n      dup2\n      mstore\n      0x20\n      add\n      0x00\n      keccak256\n        /* \"contract/lottery.sol\":16843:16893  users[userAddress].rounds[round].referralPayoutSum */\n      0x02\n      add\n      sload\n        /* \"contract/lottery.sol\":16816:16833  referralPayoutSum */\n      dup3\n        /* \"contract/lottery.sol\":16834:16839  round */\n      dup3\n        /* \"contract/lottery.sol\":16816:16840  referralPayoutSum[round] */\n      0xff\n      and\n      dup2\n      mload\n      dup2\n      lt\n      tag_335\n      jumpi\n      invalid\n    tag_335:\n      0x20\n      mul\n      0x20\n      add\n      add\n        /* \"contract/lottery.sol\":16816:16893  referralPayoutSum[round] = users[userAddress].rounds[round].referralPayoutSum */\n      dup2\n      dup2\n      mstore\n      pop\n      pop\n        /* \"contract/lottery.sol\":16408:16415  round++ */\n      dup1\n      dup1\n      0x01\n      add\n      swap2\n      pop\n      pop\n        /* \"contract/lottery.sol\":16364:16905  for (uint8 round = 1; round <= totalrounds; round++) {\r... */\n      jump(tag_327)\n    tag_328:\n      pop\n        /* \"contract/lottery.sol\":16923:16929  active */\n      dup6\n        /* \"contract/lottery.sol\":16931:16938  payouts */\n      dup6\n        /* \"contract/lottery.sol\":16940:16950  maxPayouts */\n      dup6\n        /* \"contract/lottery.sol\":16952:16967  activationTimes */\n      dup6\n        /* \"contract/lottery.sol\":16969:16978  rewardSum */\n      dup6\n        /* \"contract/lottery.sol\":16980:16997  referralPayoutSum */\n      dup6\n        /* \"contract/lottery.sol\":16915:16998  return (active, payouts, maxPayouts, activationTimes, rewardSum, referralPayoutSum) */\n      swap12\n      pop\n      swap12\n      pop\n      swap12\n      pop\n      swap12\n      pop\n      swap12\n      pop\n      swap12\n      pop\n      pop\n      pop\n      pop\n      pop\n      pop\n      pop\n        /* \"contract/lottery.sol\":15786:17006  function getUserrounds(address userAddress) public view returns (bool[] memory, uint16[] memory, uint16[] memory, uint16[] memory, uint[] memory, uint[] memory) {\r... */\n      swap2\n      swap4\n      swap6\n      pop\n      swap2\n      swap4\n      swap6\n      jump\t// out\n        /* \"contract/lottery.sol\":697:735  address[16] public nextWinerSecretGame */\n    tag_112:\n      0x55\n      dup2\n      0x10\n      dup2\n      lt\n      tag_336\n      jumpi\n      invalid\n    tag_336:\n      add\n      0x00\n      swap2\n      pop\n      sload\n      swap1\n      0x0100\n      exp\n      swap1\n      div\n      0xffffffffffffffffffffffffffffffffffffffff\n      and\n      dup2\n      jump\t// out\n        /* \"contract/lottery.sol\":17434:17629  function getGlobalStatistic() public view returns(uint[5] memory result) {\r... */\n    tag_115:\n        /* \"contract/lottery.sol\":17484:17505  uint[5] memory result */\n      tag_338\n      tag_339\n      jump\t// in\n    tag_338:\n        /* \"contract/lottery.sol\":17518:17621  return [globalStat.members, globalStat.transactions, globalStat.turnover, todayWinerValue, timeLottery] */\n      mload(0x40)\n      dup1\n      0xa0\n      add\n      0x40\n      mstore\n      dup1\n        /* \"contract/lottery.sol\":17526:17536  globalStat */\n      0x6f\n        /* \"contract/lottery.sol\":17526:17544  globalStat.members */\n      0x00\n      add\n      sload\n        /* \"contract/lottery.sol\":17518:17621  return [globalStat.members, globalStat.transactions, globalStat.turnover, todayWinerValue, timeLottery] */\n      dup2\n      mstore\n      0x20\n      add\n        /* \"contract/lottery.sol\":17546:17556  globalStat */\n      0x6f\n        /* \"contract/lottery.sol\":17546:17569  globalStat.transactions */\n      0x01\n      add\n      sload\n        /* \"contract/lottery.sol\":17518:17621  return [globalStat.members, globalStat.transactions, globalStat.turnover, todayWinerValue, timeLottery] */\n      dup2\n      mstore\n      0x20\n      add\n        /* \"contract/lottery.sol\":17571:17581  globalStat */\n      0x6f\n        /* \"contract/lottery.sol\":17571:17590  globalStat.turnover */\n      0x02\n      add\n      sload\n        /* \"contract/lottery.sol\":17518:17621  return [globalStat.members, globalStat.transactions, globalStat.turnover, todayWinerValue, timeLottery] */\n      dup2\n      mstore\n      0x20\n      add\n        /* \"contract/lottery.sol\":17592:17607  todayWinerValue */\n      sload(0x33)\n        /* \"contract/lottery.sol\":17518:17621  return [globalStat.members, globalStat.transactions, globalStat.turnover, todayWinerValue, timeLottery] */\n      dup2\n      mstore\n      0x20\n      add\n        /* \"contract/lottery.sol\":17609:17620  timeLottery */\n      sload(0x34)\n        /* \"contract/lottery.sol\":17518:17621  return [globalStat.members, globalStat.transactions, globalStat.turnover, todayWinerValue, timeLottery] */\n      dup2\n      mstore\n      pop\n      swap1\n      pop\n        /* \"contract/lottery.sol\":17434:17629  function getGlobalStatistic() public view returns(uint[5] memory result) {\r... */\n      swap1\n      jump\t// out\n        /* \"contract/lottery.sol\":2958:2997  uint8 public constant rewardPayouts = 2 */\n    tag_121:\n        /* \"contract/lottery.sol\":2996:2997  2 */\n      0x02\n        /* \"contract/lottery.sol\":2958:2997  uint8 public constant rewardPayouts = 2 */\n      dup2\n      jump\t// out\n        /* \"contract/lottery.sol\":3241:3273  address payable public marketing */\n    tag_124:\n      0x67\n      0x00\n      swap1\n      sload\n      swap1\n      0x0100\n      exp\n      swap1\n      div\n      0xffffffffffffffffffffffffffffffffffffffff\n      and\n      dup2\n      jump\t// out\n        /* \"contract/lottery.sol\":17216:17318  function gettimeRoundEnd() public view returns(uint[16] memory) {\r... */\n    tag_127:\n        /* \"contract/lottery.sol\":17263:17278  uint[16] memory */\n      tag_341\n      tag_342\n      jump\t// in\n    tag_341:\n        /* \"contract/lottery.sol\":17298:17310  timeRoudsEnd */\n      0x45\n        /* \"contract/lottery.sol\":17291:17310  return timeRoudsEnd */\n      0x10\n      dup1\n      0x20\n      mul\n      mload(0x40)\n      swap1\n      dup2\n      add\n      0x40\n      mstore\n      dup1\n      swap3\n      swap2\n      swap1\n      dup3\n      0x10\n      dup1\n      iszero\n      tag_344\n      jumpi\n      0x20\n      mul\n      dup3\n      add\n      swap2\n    tag_345:\n      dup2\n      sload\n      dup2\n      mstore\n      0x20\n      add\n      swap1\n      0x01\n      add\n      swap1\n      dup1\n      dup4\n      gt\n      tag_345\n      jumpi\n    tag_344:\n      pop\n      pop\n      pop\n      pop\n      pop\n      swap1\n      pop\n        /* \"contract/lottery.sol\":17216:17318  function gettimeRoundEnd() public view returns(uint[16] memory) {\r... */\n      swap1\n      jump\t// out\n        /* \"contract/lottery.sol\":19089:19377  function calcSecretPrize(uint8 round) public view returns(uint value) {\r... */\n    tag_134:\n        /* \"contract/lottery.sol\":19147:19157  uint value */\n      0x00\n        /* \"contract/lottery.sol\":19170:19188  uint priceAllRound */\n      dup1\n        /* \"contract/lottery.sol\":19203:19210  uint8 i */\n      0x00\n        /* \"contract/lottery.sol\":19213:19214  1 */\n      0x01\n        /* \"contract/lottery.sol\":19203:19214  uint8 i = 1 */\n      swap1\n      pop\n        /* \"contract/lottery.sol\":19199:19295  for(uint8 i = 1; i <= totalrounds; i++) {\r... */\n    tag_347:\n        /* \"contract/lottery.sol\":19221:19232  totalrounds */\n      sload(0x69)\n        /* \"contract/lottery.sol\":19216:19217  i */\n      dup2\n        /* \"contract/lottery.sol\":19216:19232  i <= totalrounds */\n      0xff\n      and\n      gt\n        /* \"contract/lottery.sol\":19199:19295  for(uint8 i = 1; i <= totalrounds; i++) {\r... */\n      tag_348\n      jumpi\n        /* \"contract/lottery.sol\":19270:19280  roundPrice */\n      0x68\n        /* \"contract/lottery.sol\":19281:19282  i */\n      dup2\n        /* \"contract/lottery.sol\":19270:19283  roundPrice[i] */\n      0xff\n      and\n      dup2\n      sload\n      dup2\n      lt\n      tag_350\n      jumpi\n      invalid\n    tag_350:\n      swap1\n      0x00\n      mstore\n      keccak256(0x00, 0x20)\n      add\n      sload\n        /* \"contract/lottery.sol\":19254:19283  priceAllRound+= roundPrice[i] */\n      dup3\n      add\n      swap2\n      pop\n        /* \"contract/lottery.sol\":19234:19237  i++ */\n      dup1\n      dup1\n      0x01\n      add\n      swap2\n      pop\n      pop\n        /* \"contract/lottery.sol\":19199:19295  for(uint8 i = 1; i <= totalrounds; i++) {\r... */\n      jump(tag_347)\n    tag_348:\n      pop\n        /* \"contract/lottery.sol\":19348:19358  roundPrice */\n      0x68\n        /* \"contract/lottery.sol\":19359:19364  round */\n      dup4\n        /* \"contract/lottery.sol\":19348:19365  roundPrice[round] */\n      0xff\n      and\n      dup2\n      sload\n      dup2\n      lt\n      tag_352\n      jumpi\n      invalid\n    tag_352:\n      swap1\n      0x00\n      mstore\n      keccak256(0x00, 0x20)\n      add\n      sload\n        /* \"contract/lottery.sol\":19334:19347  priceAllRound */\n      dup2\n        /* \"contract/lottery.sol\":19312:19333  address(this).balance */\n      selfbalance\n        /* \"contract/lottery.sol\":19312:19347  address(this).balance/priceAllRound */\n      dup2\n      tag_354\n      jumpi\n      invalid\n    tag_354:\n      div\n        /* \"contract/lottery.sol\":19312:19365  address(this).balance/priceAllRound*roundPrice[round] */\n      mul\n        /* \"contract/lottery.sol\":19305:19365  return address(this).balance/priceAllRound*roundPrice[round] */\n      swap2\n      pop\n      pop\n        /* \"contract/lottery.sol\":19089:19377  function calcSecretPrize(uint8 round) public view returns(uint value) {\r... */\n      swap2\n      swap1\n      pop\n      jump\t// out\n        /* \"contract/lottery.sol\":17990:18113  function getUserIdByAddress(address userAddress) public view returns (uint) {\r... */\n    tag_138:\n        /* \"contract/lottery.sol\":18060:18064  uint */\n      0x00\n        /* \"contract/lottery.sol\":18084:18089  users */\n      0x6b\n        /* \"contract/lottery.sol\":18084:18102  users[userAddress] */\n      0x00\n        /* \"contract/lottery.sol\":18090:18101  userAddress */\n      dup4\n        /* \"contract/lottery.sol\":18084:18102  users[userAddress] */\n      0xffffffffffffffffffffffffffffffffffffffff\n      and\n      0xffffffffffffffffffffffffffffffffffffffff\n      and\n      dup2\n      mstore\n      0x20\n      add\n      swap1\n      dup2\n      mstore\n      0x20\n      add\n      0x00\n      keccak256\n        /* \"contract/lottery.sol\":18084:18105  users[userAddress].id */\n      0x00\n      add\n      sload\n        /* \"contract/lottery.sol\":18077:18105  return users[userAddress].id */\n      swap1\n      pop\n        /* \"contract/lottery.sol\":17990:18113  function getUserIdByAddress(address userAddress) public view returns (uint) {\r... */\n      swap2\n      swap1\n      pop\n      jump\t// out\n        /* \"contract/lottery.sol\":18311:18511  function getReferrer(address userAddress) public view returns (address) {\r... */\n    tag_142:\n        /* \"contract/lottery.sol\":18374:18381  address */\n      0x00\n        /* \"contract/lottery.sol\":18402:18431  isUserRegistered(userAddress) */\n      tag_357\n        /* \"contract/lottery.sol\":18419:18430  userAddress */\n      dup3\n        /* \"contract/lottery.sol\":18402:18418  isUserRegistered */\n      tag_60\n        /* \"contract/lottery.sol\":18402:18431  isUserRegistered(userAddress) */\n      jump\t// in\n    tag_357:\n        /* \"contract/lottery.sol\":18394:18458  require(isUserRegistered(userAddress), \"User is not registered\") */\n      tag_358\n      jumpi\n      mload(0x40)\n      0x08c379a000000000000000000000000000000000000000000000000000000000\n      dup2\n      mstore\n      0x04\n      add\n      dup1\n      dup1\n      0x20\n      add\n      dup3\n      dup2\n      sub\n      dup3\n      mstore\n      0x16\n      dup2\n      mstore\n      0x20\n      add\n      dup1\n      0x55736572206973206e6f74207265676973746572656400000000000000000000\n      dup2\n      mstore\n      pop\n      0x20\n      add\n      swap2\n      pop\n      pop\n      mload(0x40)\n      dup1\n      swap2\n      sub\n      swap1\n      revert\n    tag_358:\n        /* \"contract/lottery.sol\":18476:18481  users */\n      0x6b\n        /* \"contract/lottery.sol\":18476:18494  users[userAddress] */\n      0x00\n        /* \"contract/lottery.sol\":18482:18493  userAddress */\n      dup4\n        /* \"contract/lottery.sol\":18476:18494  users[userAddress] */\n      0xffffffffffffffffffffffffffffffffffffffff\n      and\n      0xffffffffffffffffffffffffffffffffffffffff\n      and\n      dup2\n      mstore\n      0x20\n      add\n      swap1\n      dup2\n      mstore\n      0x20\n      add\n      0x00\n      keccak256\n        /* \"contract/lottery.sol\":18476:18503  users[userAddress].referrer */\n      0x02\n      add\n      0x00\n      swap1\n      sload\n      swap1\n      0x0100\n      exp\n      swap1\n      div\n      0xffffffffffffffffffffffffffffffffffffffff\n      and\n        /* \"contract/lottery.sol\":18469:18503  return users[userAddress].referrer */\n      swap1\n      pop\n        /* \"contract/lottery.sol\":18311:18511  function getReferrer(address userAddress) public view returns (address) {\r... */\n      swap2\n      swap1\n      pop\n      jump\t// out\n        /* \"contract/lottery.sol\":3102:3141  uint8 public referralRewardPercents = 9 */\n    tag_145:\n      0x66\n      0x00\n      swap1\n      sload\n      swap1\n      0x0100\n      exp\n      swap1\n      div\n      0xff\n      and\n      dup2\n      jump\t// out\n        /* \"contract/lottery.sol\":15162:15780  function getUserroundsMissedProfit(address userAddress) public view returns ( uint[] memory, uint[] memory) {\r... */\n    tag_151:\n        /* \"contract/lottery.sol\":15240:15253  uint[] memory */\n      0x60\n        /* \"contract/lottery.sol\":15255:15268  uint[] memory */\n      dup1\n        /* \"contract/lottery.sol\":15283:15317  uint[] memory missedRefferalProfit */\n      0x60\n        /* \"contract/lottery.sol\":15345:15346  1 */\n      0x01\n        /* \"contract/lottery.sol\":15331:15342  totalrounds */\n      sload(0x69)\n        /* \"contract/lottery.sol\":15331:15346  totalrounds + 1 */\n      add\n        /* \"contract/lottery.sol\":15320:15347  new uint[](totalrounds + 1) */\n      0xffffffffffffffff\n      dup2\n      gt\n      dup1\n      iszero\n      tag_360\n      jumpi\n      0x00\n      dup1\n      revert\n    tag_360:\n      pop\n      mload(0x40)\n      swap1\n      dup1\n      dup3\n      mstore\n      dup1\n      0x20\n      mul\n      0x20\n      add\n      dup3\n      add\n      0x40\n      mstore\n      dup1\n      iszero\n      tag_361\n      jumpi\n      dup2\n      0x20\n      add\n      0x20\n      dup3\n      mul\n      dup1\n      calldatasize\n      dup4\n      calldatacopy\n      dup1\n      dup3\n      add\n      swap2\n      pop\n      pop\n      swap1\n      pop\n    tag_361:\n      pop\n        /* \"contract/lottery.sol\":15283:15347  uint[] memory missedRefferalProfit = new uint[](totalrounds + 1) */\n      swap1\n      pop\n        /* \"contract/lottery.sol\":15358:15396  uint[] memory missedRefferalPostProfit */\n      0x60\n        /* \"contract/lottery.sol\":15424:15425  1 */\n      0x01\n        /* \"contract/lottery.sol\":15410:15421  totalrounds */\n      sload(0x69)\n        /* \"contract/lottery.sol\":15410:15425  totalrounds + 1 */\n      add\n        /* \"contract/lottery.sol\":15399:15426  new uint[](totalrounds + 1) */\n      0xffffffffffffffff\n      dup2\n      gt\n      dup1\n      iszero\n      tag_362\n      jumpi\n      0x00\n      dup1\n      revert\n    tag_362:\n      pop\n      mload(0x40)\n      swap1\n      dup1\n      dup3\n      mstore\n      dup1\n      0x20\n      mul\n      0x20\n      add\n      dup3\n      add\n      0x40\n      mstore\n      dup1\n      iszero\n      tag_363\n      jumpi\n      dup2\n      0x20\n      add\n      0x20\n      dup3\n      mul\n      dup1\n      calldatasize\n      dup4\n      calldatacopy\n      dup1\n      dup3\n      add\n      swap2\n      pop\n      pop\n      swap1\n      pop\n    tag_363:\n      pop\n        /* \"contract/lottery.sol\":15358:15426  uint[] memory missedRefferalPostProfit = new uint[](totalrounds + 1) */\n      swap1\n      pop\n        /* \"contract/lottery.sol\":15442:15453  uint8 round */\n      0x00\n        /* \"contract/lottery.sol\":15456:15457  1 */\n      0x01\n        /* \"contract/lottery.sol\":15442:15457  uint8 round = 1 */\n      swap1\n      pop\n        /* \"contract/lottery.sol\":15437:15706  for (uint8 round = 1; round <= totalrounds; round++) {\r... */\n    tag_364:\n        /* \"contract/lottery.sol\":15468:15479  totalrounds */\n      sload(0x69)\n        /* \"contract/lottery.sol\":15459:15464  round */\n      dup2\n        /* \"contract/lottery.sol\":15459:15479  round <= totalrounds */\n      0xff\n      and\n      gt\n        /* \"contract/lottery.sol\":15437:15706  for (uint8 round = 1; round <= totalrounds; round++) {\r... */\n      tag_365\n      jumpi\n        /* \"contract/lottery.sol\":15535:15540  users */\n      0x6b\n        /* \"contract/lottery.sol\":15535:15553  users[userAddress] */\n      0x00\n        /* \"contract/lottery.sol\":15541:15552  userAddress */\n      dup8\n        /* \"contract/lottery.sol\":15535:15553  users[userAddress] */\n      0xffffffffffffffffffffffffffffffffffffffff\n      and\n      0xffffffffffffffffffffffffffffffffffffffff\n      and\n      dup2\n      mstore\n      0x20\n      add\n      swap1\n      dup2\n      mstore\n      0x20\n      add\n      0x00\n      keccak256\n        /* \"contract/lottery.sol\":15535:15560  users[userAddress].rounds */\n      0x07\n      add\n        /* \"contract/lottery.sol\":15535:15567  users[userAddress].rounds[round] */\n      0x00\n        /* \"contract/lottery.sol\":15561:15566  round */\n      dup3\n        /* \"contract/lottery.sol\":15535:15567  users[userAddress].rounds[round] */\n      0xff\n      and\n      0xff\n      and\n      dup2\n      mstore\n      0x20\n      add\n      swap1\n      dup2\n      mstore\n      0x20\n      add\n      0x00\n      keccak256\n        /* \"contract/lottery.sol\":15535:15588  users[userAddress].rounds[round].missedRefferalProfit */\n      0x04\n      add\n      sload\n        /* \"contract/lottery.sol\":15505:15525  missedRefferalProfit */\n      dup4\n        /* \"contract/lottery.sol\":15526:15531  round */\n      dup3\n        /* \"contract/lottery.sol\":15505:15532  missedRefferalProfit[round] */\n      0xff\n      and\n      dup2\n      mload\n      dup2\n      lt\n      tag_367\n      jumpi\n      invalid\n    tag_367:\n      0x20\n      mul\n      0x20\n      add\n      add\n        /* \"contract/lottery.sol\":15505:15588  missedRefferalProfit[round] = users[userAddress].rounds[round].missedRefferalProfit */\n      dup2\n      dup2\n      mstore\n      pop\n      pop\n        /* \"contract/lottery.sol\":15637:15642  users */\n      0x6b\n        /* \"contract/lottery.sol\":15637:15655  users[userAddress] */\n      0x00\n        /* \"contract/lottery.sol\":15643:15654  userAddress */\n      dup8\n        /* \"contract/lottery.sol\":15637:15655  users[userAddress] */\n      0xffffffffffffffffffffffffffffffffffffffff\n      and\n      0xffffffffffffffffffffffffffffffffffffffff\n      and\n      dup2\n      mstore\n      0x20\n      add\n      swap1\n      dup2\n      mstore\n      0x20\n      add\n      0x00\n      keccak256\n        /* \"contract/lottery.sol\":15637:15662  users[userAddress].rounds */\n      0x07\n      add\n        /* \"contract/lottery.sol\":15637:15669  users[userAddress].rounds[round] */\n      0x00\n        /* \"contract/lottery.sol\":15663:15668  round */\n      dup3\n        /* \"contract/lottery.sol\":15637:15669  users[userAddress].rounds[round] */\n      0xff\n      and\n      0xff\n      and\n      dup2\n      mstore\n      0x20\n      add\n      swap1\n      dup2\n      mstore\n      0x20\n      add\n      0x00\n      keccak256\n        /* \"contract/lottery.sol\":15637:15694  users[userAddress].rounds[round].missedRefferalPostProfit */\n      0x05\n      add\n      sload\n        /* \"contract/lottery.sol\":15603:15627  missedRefferalPostProfit */\n      dup3\n        /* \"contract/lottery.sol\":15628:15633  round */\n      dup3\n        /* \"contract/lottery.sol\":15603:15634  missedRefferalPostProfit[round] */\n      0xff\n      and\n      dup2\n      mload\n      dup2\n      lt\n      tag_368\n      jumpi\n      invalid\n    tag_368:\n      0x20\n      mul\n      0x20\n      add\n      add\n        /* \"contract/lottery.sol\":15603:15694  missedRefferalPostProfit[round] = users[userAddress].rounds[round].missedRefferalPostProfit */\n      dup2\n      dup2\n      mstore\n      pop\n      pop\n        /* \"contract/lottery.sol\":15481:15488  round++ */\n      dup1\n      dup1\n      0x01\n      add\n      swap2\n      pop\n      pop\n        /* \"contract/lottery.sol\":15437:15706  for (uint8 round = 1; round <= totalrounds; round++) {\r... */\n      jump(tag_364)\n    tag_365:\n      pop\n        /* \"contract/lottery.sol\":15725:15745  missedRefferalProfit */\n      dup2\n        /* \"contract/lottery.sol\":15747:15771  missedRefferalPostProfit */\n      dup2\n        /* \"contract/lottery.sol\":15716:15772  return ( missedRefferalProfit, missedRefferalPostProfit) */\n      swap4\n      pop\n      swap4\n      pop\n      pop\n      pop\n        /* \"contract/lottery.sol\":15162:15780  function getUserroundsMissedProfit(address userAddress) public view returns ( uint[] memory, uint[] memory) {\r... */\n      swap2\n      pop\n      swap2\n      jump\t// out\n        /* \"contract/lottery.sol\":662:690  uint[16] public timeRoudsEnd */\n    tag_161:\n      0x45\n      dup2\n      0x10\n      dup2\n      lt\n      tag_369\n      jumpi\n      invalid\n    tag_369:\n      add\n      0x00\n      swap2\n      pop\n      swap1\n      pop\n      sload\n      dup2\n      jump\t// out\n        /* \"contract/lottery.sol\":3280:3660  uint[] public roundPrice = [\r... */\n    tag_165:\n      0x68\n      dup2\n      dup2\n      sload\n      dup2\n      lt\n      tag_371\n      jumpi\n      invalid\n    tag_371:\n      swap1\n      0x00\n      mstore\n      keccak256(0x00, 0x20)\n      add\n      0x00\n      swap2\n      pop\n      swap1\n      pop\n      sload\n      dup2\n      jump\t// out\n        /* \"contract/lottery.sol\":630:655  uint[16] public RoiRounds */\n    tag_169:\n      0x35\n      dup2\n      0x10\n      dup2\n      lt\n      tag_373\n      jumpi\n      invalid\n    tag_373:\n      add\n      0x00\n      swap2\n      pop\n      swap1\n      pop\n      sload\n      dup2\n      jump\t// out\n        /* \"contract/lottery.sol\":14617:15152  function getUser(address userAddress) public view returns(uint, uint, uint, address, uint, uint, uint, uint, uint, uint) {\r... */\n    tag_173:\n        /* \"contract/lottery.sol\":14675:14679  uint */\n      0x00\n        /* \"contract/lottery.sol\":14681:14685  uint */\n      dup1\n        /* \"contract/lottery.sol\":14687:14691  uint */\n      0x00\n        /* \"contract/lottery.sol\":14693:14700  address */\n      dup1\n        /* \"contract/lottery.sol\":14702:14706  uint */\n      0x00\n        /* \"contract/lottery.sol\":14708:14712  uint */\n      dup1\n        /* \"contract/lottery.sol\":14714:14718  uint */\n      0x00\n        /* \"contract/lottery.sol\":14720:14724  uint */\n      dup1\n        /* \"contract/lottery.sol\":14726:14730  uint */\n      0x00\n        /* \"contract/lottery.sol\":14732:14736  uint */\n      dup1\n        /* \"contract/lottery.sol\":14749:14765  User memory user */\n      tag_376\n      tag_377\n      jump\t// in\n    tag_376:\n        /* \"contract/lottery.sol\":14768:14773  users */\n      0x6b\n        /* \"contract/lottery.sol\":14768:14786  users[userAddress] */\n      0x00\n        /* \"contract/lottery.sol\":14774:14785  userAddress */\n      dup14\n        /* \"contract/lottery.sol\":14768:14786  users[userAddress] */\n      0xffffffffffffffffffffffffffffffffffffffff\n      and\n      0xffffffffffffffffffffffffffffffffffffffff\n      and\n      dup2\n      mstore\n      0x20\n      add\n      swap1\n      dup2\n      mstore\n      0x20\n      add\n      0x00\n      keccak256\n        /* \"contract/lottery.sol\":14749:14786  User memory user = users[userAddress] */\n      mload(0x40)\n      dup1\n      0x0120\n      add\n      0x40\n      mstore\n      swap1\n      dup2\n      0x00\n      dup3\n      add\n      sload\n      dup2\n      mstore\n      0x20\n      add\n      0x01\n      dup3\n      add\n      sload\n      dup2\n      mstore\n      0x20\n      add\n      0x02\n      dup3\n      add\n      0x00\n      swap1\n      sload\n      swap1\n      0x0100\n      exp\n      swap1\n      div\n      0xffffffffffffffffffffffffffffffffffffffff\n      and\n      0xffffffffffffffffffffffffffffffffffffffff\n      and\n      0xffffffffffffffffffffffffffffffffffffffff\n      and\n      dup2\n      mstore\n      0x20\n      add\n      0x03\n      dup3\n      add\n      sload\n      dup2\n      mstore\n      0x20\n      add\n      0x04\n      dup3\n      add\n      sload\n      dup2\n      mstore\n      0x20\n      add\n      0x05\n      dup3\n      add\n      sload\n      dup2\n      mstore\n      0x20\n      add\n      0x06\n      dup3\n      add\n      sload\n      dup2\n      mstore\n      0x20\n      add\n      0x08\n      dup3\n      add\n      0x00\n      swap1\n      sload\n      swap1\n      0x0100\n      exp\n      swap1\n      div\n      0xff\n      and\n      0xff\n      and\n      0xff\n      and\n      dup2\n      mstore\n      0x20\n      add\n      0x09\n      dup3\n      add\n      sload\n      dup2\n      mstore\n      pop\n      pop\n      swap1\n      pop\n        /* \"contract/lottery.sol\":14819:14823  user */\n      dup1\n        /* \"contract/lottery.sol\":14819:14826  user.id */\n      0x00\n      add\n      mload\n        /* \"contract/lottery.sol\":14841:14845  user */\n      dup2\n        /* \"contract/lottery.sol\":14841:14867  user.registrationTimestamp */\n      0x20\n      add\n      mload\n        /* \"contract/lottery.sol\":14882:14887  users */\n      0x6b\n        /* \"contract/lottery.sol\":14882:14902  users[user.referrer] */\n      0x00\n        /* \"contract/lottery.sol\":14888:14892  user */\n      dup5\n        /* \"contract/lottery.sol\":14888:14901  user.referrer */\n      0x40\n      add\n      mload\n        /* \"contract/lottery.sol\":14882:14902  users[user.referrer] */\n      0xffffffffffffffffffffffffffffffffffffffff\n      and\n      0xffffffffffffffffffffffffffffffffffffffff\n      and\n      dup2\n      mstore\n      0x20\n      add\n      swap1\n      dup2\n      mstore\n      0x20\n      add\n      0x00\n      keccak256\n        /* \"contract/lottery.sol\":14882:14905  users[user.referrer].id */\n      0x00\n      add\n      sload\n        /* \"contract/lottery.sol\":14920:14924  user */\n      dup4\n        /* \"contract/lottery.sol\":14920:14933  user.referrer */\n      0x40\n      add\n      mload\n        /* \"contract/lottery.sol\":14948:14952  user */\n      dup5\n        /* \"contract/lottery.sol\":14948:14962  user.referrals */\n      0x60\n      add\n      mload\n        /* \"contract/lottery.sol\":14977:14981  user */\n      dup6\n        /* \"contract/lottery.sol\":14977:14999  user.referralPayoutSum */\n      0x80\n      add\n      mload\n        /* \"contract/lottery.sol\":15014:15018  user */\n      dup7\n        /* \"contract/lottery.sol\":15014:15034  user.roundsRewardSum */\n      0xa0\n      add\n      mload\n        /* \"contract/lottery.sol\":15049:15053  user */\n      dup8\n        /* \"contract/lottery.sol\":15049:15077  user.missedReferralPayoutSum */\n      0xc0\n      add\n      mload\n        /* \"contract/lottery.sol\":15092:15096  user */\n      dup9\n        /* \"contract/lottery.sol\":15092:15105  user.maxRound */\n      0xe0\n      add\n      mload\n        /* \"contract/lottery.sol\":15120:15124  user */\n      dup10\n        /* \"contract/lottery.sol\":15120:15133  user.turnover */\n      0x0100\n      add\n      mload\n        /* \"contract/lottery.sol\":14797:15144  return (\r... */\n      dup2\n      0xff\n      and\n      swap2\n      pop\n      swap11\n      pop\n      swap11\n      pop\n      swap11\n      pop\n      swap11\n      pop\n      swap11\n      pop\n      swap11\n      pop\n      swap11\n      pop\n      swap11\n      pop\n      swap11\n      pop\n      swap11\n      pop\n      pop\n        /* \"contract/lottery.sol\":14617:15152  function getUser(address userAddress) public view returns(uint, uint, uint, address, uint, uint, uint, uint, uint, uint) {\r... */\n      swap2\n      swap4\n      swap6\n      swap8\n      swap10\n      pop\n      swap2\n      swap4\n      swap6\n      swap8\n      swap10\n      jump\t// out\n        /* \"contract/lottery.sol\":17635:17739  function getContractBalance() public view returns (uint) {\r... */\n    tag_176:\n        /* \"contract/lottery.sol\":17686:17690  uint */\n      0x00\n        /* \"contract/lottery.sol\":17710:17731  address(this).balance */\n      selfbalance\n        /* \"contract/lottery.sol\":17703:17731  return address(this).balance */\n      swap1\n      pop\n        /* \"contract/lottery.sol\":17635:17739  function getContractBalance() public view returns (uint) {\r... */\n      swap1\n      jump\t// out\n        /* \"contract/lottery.sol\":600:623  uint public timeLottery */\n    tag_179:\n      sload(0x34)\n      dup2\n      jump\t// out\n        /* \"contract/lottery.sol\":10925:10960  function income() public payable {} */\n    tag_181:\n      jump\t// out\n        /* \"contract/lottery.sol\":17863:17984  function getUserAddressById(uint userId) public view returns (address) {\r... */\n    tag_185:\n        /* \"contract/lottery.sol\":17925:17932  address */\n      0x00\n        /* \"contract/lottery.sol\":17952:17968  usersAddressById */\n      0x6c\n        /* \"contract/lottery.sol\":17952:17976  usersAddressById[userId] */\n      0x00\n        /* \"contract/lottery.sol\":17969:17975  userId */\n      dup4\n        /* \"contract/lottery.sol\":17952:17976  usersAddressById[userId] */\n      dup2\n      mstore\n      0x20\n      add\n      swap1\n      dup2\n      mstore\n      0x20\n      add\n      0x00\n      keccak256\n      0x00\n      swap1\n      sload\n      swap1\n      0x0100\n      exp\n      swap1\n      div\n      0xffffffffffffffffffffffffffffffffffffffff\n      and\n        /* \"contract/lottery.sol\":17945:17976  return usersAddressById[userId] */\n      swap1\n      pop\n        /* \"contract/lottery.sol\":17863:17984  function getUserAddressById(uint userId) public view returns (address) {\r... */\n      swap2\n      swap1\n      pop\n      jump\t// out\n        /* \"contract/lottery.sol\":17325:17428  function getLotteryWiner() public view returns(address[50] memory) {\r... */\n    tag_188:\n        /* \"contract/lottery.sol\":17372:17390  address[50] memory */\n      tag_381\n      tag_382\n      jump\t// in\n    tag_381:\n        /* \"contract/lottery.sol\":17410:17420  todayWiner */\n      0x01\n        /* \"contract/lottery.sol\":17403:17420  return todayWiner */\n      0x32\n      dup1\n      0x20\n      mul\n      mload(0x40)\n      swap1\n      dup2\n      add\n      0x40\n      mstore\n      dup1\n      swap3\n      swap2\n      swap1\n      dup3\n      0x32\n      dup1\n      iszero\n      tag_384\n      jumpi\n      0x20\n      mul\n      dup3\n      add\n      swap2\n    tag_385:\n      dup2\n      0x00\n      swap1\n      sload\n      swap1\n      0x0100\n      exp\n      swap1\n      div\n      0xffffffffffffffffffffffffffffffffffffffff\n      and\n      0xffffffffffffffffffffffffffffffffffffffff\n      and\n      dup2\n      mstore\n      0x20\n      add\n      swap1\n      0x01\n      add\n      swap1\n      dup1\n      dup4\n      gt\n      tag_385\n      jumpi\n    tag_384:\n      pop\n      pop\n      pop\n      pop\n      pop\n      swap1\n      pop\n        /* \"contract/lottery.sol\":17325:17428  function getLotteryWiner() public view returns(address[50] memory) {\r... */\n      swap1\n      jump\t// out\n        /* \"contract/lottery.sol\":3206:3234  address payable public owner */\n    tag_194:\n      0x66\n      0x02\n      swap1\n      sload\n      swap1\n      0x0100\n      exp\n      swap1\n      div\n      0xffffffffffffffffffffffffffffffffffffffff\n      and\n      dup2\n      jump\t// out\n        /* \"contract/lottery.sol\":10966:12223  function Lottery(uint ticket) public {\r... */\n    tag_198:\n        /* \"contract/lottery.sol\":11036:11041  owner */\n      0x66\n      0x02\n      swap1\n      sload\n      swap1\n      0x0100\n      exp\n      swap1\n      div\n      0xffffffffffffffffffffffffffffffffffffffff\n      and\n        /* \"contract/lottery.sol\":11022:11041  msg.sender == owner */\n      0xffffffffffffffffffffffffffffffffffffffff\n      and\n        /* \"contract/lottery.sol\":11022:11032  msg.sender */\n      caller\n        /* \"contract/lottery.sol\":11022:11041  msg.sender == owner */\n      0xffffffffffffffffffffffffffffffffffffffff\n      and\n      eq\n        /* \"contract/lottery.sol\":11014:11067  require(msg.sender == owner, \"you are not an owner!\") */\n      tag_387\n      jumpi\n      mload(0x40)\n      0x08c379a000000000000000000000000000000000000000000000000000000000\n      dup2\n      mstore\n      0x04\n      add\n      dup1\n      dup1\n      0x20\n      add\n      dup3\n      dup2\n      sub\n      dup3\n      mstore\n      0x15\n      dup2\n      mstore\n      0x20\n      add\n      dup1\n      0x796f7520617265206e6f7420616e206f776e6572210000000000000000000000\n      dup2\n      mstore\n      pop\n      0x20\n      add\n      swap2\n      pop\n      pop\n      mload(0x40)\n      dup1\n      swap2\n      sub\n      swap1\n      revert\n    tag_387:\n        /* \"contract/lottery.sol\":11082:11089  uint8 i */\n      0x00\n        /* \"contract/lottery.sol\":11078:11162  for(uint8 i = 0; i <= 49; i++) {\r... */\n    tag_388:\n        /* \"contract/lottery.sol\":11100:11102  49 */\n      0x31\n        /* \"contract/lottery.sol\":11095:11096  i */\n      dup2\n        /* \"contract/lottery.sol\":11095:11102  i <= 49 */\n      0xff\n      and\n      gt\n        /* \"contract/lottery.sol\":11078:11162  for(uint8 i = 0; i <= 49; i++) {\r... */\n      tag_389\n      jumpi\n        /* \"contract/lottery.sol\":11148:11149  0 */\n      0x00\n        /* \"contract/lottery.sol\":11124:11134  todayWiner */\n      0x01\n        /* \"contract/lottery.sol\":11135:11136  i */\n      dup3\n        /* \"contract/lottery.sol\":11124:11137  todayWiner[i] */\n      0xff\n      and\n      0x32\n      dup2\n      lt\n      tag_391\n      jumpi\n      invalid\n    tag_391:\n      add\n      0x00\n        /* \"contract/lottery.sol\":11124:11150  todayWiner[i] = address(0) */\n      0x0100\n      exp\n      dup2\n      sload\n      dup2\n      0xffffffffffffffffffffffffffffffffffffffff\n      mul\n      not\n      and\n      swap1\n      dup4\n      0xffffffffffffffffffffffffffffffffffffffff\n      and\n      mul\n      or\n      swap1\n      sstore\n      pop\n        /* \"contract/lottery.sol\":11104:11107  i++ */\n      dup1\n      dup1\n      0x01\n      add\n      swap2\n      pop\n      pop\n        /* \"contract/lottery.sol\":11078:11162  for(uint8 i = 0; i <= 49; i++) {\r... */\n      jump(tag_388)\n    tag_389:\n      pop\n        /* \"contract/lottery.sol\":11172:11195  uint totalLotteryPlayer */\n      0x00\n        /* \"contract/lottery.sol\":11211:11222  uint8 round */\n      dup1\n        /* \"contract/lottery.sol\":11225:11226  1 */\n      0x01\n        /* \"contract/lottery.sol\":11211:11226  uint8 round = 1 */\n      swap1\n      pop\n        /* \"contract/lottery.sol\":11207:11517  for(uint8 round = 1; round <= totalrounds; round++) {\r... */\n    tag_393:\n        /* \"contract/lottery.sol\":11237:11248  totalrounds */\n      sload(0x69)\n        /* \"contract/lottery.sol\":11228:11233  round */\n      dup2\n        /* \"contract/lottery.sol\":11228:11248  round <= totalrounds */\n      0xff\n      and\n      gt\n        /* \"contract/lottery.sol\":11207:11517  for(uint8 round = 1; round <= totalrounds; round++) {\r... */\n      tag_394\n      jumpi\n        /* \"contract/lottery.sol\":11278:11284  uint i */\n      0x00\n        /* \"contract/lottery.sol\":11287:11296  headIndex */\n      0x6e\n        /* \"contract/lottery.sol\":11287:11303  headIndex[round] */\n      0x00\n        /* \"contract/lottery.sol\":11297:11302  round */\n      dup4\n        /* \"contract/lottery.sol\":11287:11303  headIndex[round] */\n      0xff\n      and\n      0xff\n      and\n      dup2\n      mstore\n      0x20\n      add\n      swap1\n      dup2\n      mstore\n      0x20\n      add\n      0x00\n      keccak256\n      sload\n        /* \"contract/lottery.sol\":11278:11303  uint i = headIndex[round] */\n      swap1\n      pop\n        /* \"contract/lottery.sol\":11274:11494  for(uint i = headIndex[round]; i < roundQueue[round].length; i++) {\r... */\n    tag_396:\n        /* \"contract/lottery.sol\":11309:11319  roundQueue */\n      0x6d\n        /* \"contract/lottery.sol\":11309:11326  roundQueue[round] */\n      0x00\n        /* \"contract/lottery.sol\":11320:11325  round */\n      dup4\n        /* \"contract/lottery.sol\":11309:11326  roundQueue[round] */\n      0xff\n      and\n      0xff\n      and\n      dup2\n      mstore\n      0x20\n      add\n      swap1\n      dup2\n      mstore\n      0x20\n      add\n      0x00\n      keccak256\n        /* \"contract/lottery.sol\":11309:11333  roundQueue[round].length */\n      dup1\n      sload\n      swap1\n      pop\n        /* \"contract/lottery.sol\":11305:11306  i */\n      dup2\n        /* \"contract/lottery.sol\":11305:11333  i < roundQueue[round].length */\n      lt\n        /* \"contract/lottery.sol\":11274:11494  for(uint i = headIndex[round]; i < roundQueue[round].length; i++) {\r... */\n      iszero\n      tag_397\n      jumpi\n        /* \"contract/lottery.sol\":11411:11414  now */\n      timestamp\n        /* \"contract/lottery.sol\":11403:11408  86400 */\n      0x015180\n        /* \"contract/lottery.sol\":11362:11380  lastTimeActivation */\n      0x65\n        /* \"contract/lottery.sol\":11362:11402  lastTimeActivation[roundQueue[round][i]] */\n      0x00\n        /* \"contract/lottery.sol\":11381:11391  roundQueue */\n      0x6d\n        /* \"contract/lottery.sol\":11381:11398  roundQueue[round] */\n      0x00\n        /* \"contract/lottery.sol\":11392:11397  round */\n      dup8\n        /* \"contract/lottery.sol\":11381:11398  roundQueue[round] */\n      0xff\n      and\n      0xff\n      and\n      dup2\n      mstore\n      0x20\n      add\n      swap1\n      dup2\n      mstore\n      0x20\n      add\n      0x00\n      keccak256\n        /* \"contract/lottery.sol\":11399:11400  i */\n      dup6\n        /* \"contract/lottery.sol\":11381:11401  roundQueue[round][i] */\n      dup2\n      sload\n      dup2\n      lt\n      tag_399\n      jumpi\n      invalid\n    tag_399:\n      swap1\n      0x00\n      mstore\n      keccak256(0x00, 0x20)\n      add\n      0x00\n      swap1\n      sload\n      swap1\n      0x0100\n      exp\n      swap1\n      div\n      0xffffffffffffffffffffffffffffffffffffffff\n      and\n        /* \"contract/lottery.sol\":11362:11402  lastTimeActivation[roundQueue[round][i]] */\n      0xffffffffffffffffffffffffffffffffffffffff\n      and\n      0xffffffffffffffffffffffffffffffffffffffff\n      and\n      dup2\n      mstore\n      0x20\n      add\n      swap1\n      dup2\n      mstore\n      0x20\n      add\n      0x00\n      keccak256\n      sload\n        /* \"contract/lottery.sol\":11362:11408  lastTimeActivation[roundQueue[round][i]]+86400 */\n      add\n        /* \"contract/lottery.sol\":11362:11414  lastTimeActivation[roundQueue[round][i]]+86400 > now */\n      gt\n        /* \"contract/lottery.sol\":11359:11479  if(lastTimeActivation[roundQueue[round][i]]+86400 > now) {\r... */\n      iszero\n      tag_401\n      jumpi\n        /* \"contract/lottery.sol\":11439:11459  totalLotteryPlayer++ */\n      dup3\n      dup1\n      0x01\n      add\n      swap4\n      pop\n      pop\n        /* \"contract/lottery.sol\":11359:11479  if(lastTimeActivation[roundQueue[round][i]]+86400 > now) {\r... */\n    tag_401:\n        /* \"contract/lottery.sol\":11335:11338  i++ */\n      dup1\n      dup1\n      0x01\n      add\n      swap2\n      pop\n      pop\n        /* \"contract/lottery.sol\":11274:11494  for(uint i = headIndex[round]; i < roundQueue[round].length; i++) {\r... */\n      jump(tag_396)\n    tag_397:\n      pop\n        /* \"contract/lottery.sol\":11250:11257  round++ */\n      dup1\n      dup1\n      0x01\n      add\n      swap2\n      pop\n      pop\n        /* \"contract/lottery.sol\":11207:11517  for(uint8 round = 1; round <= totalrounds; round++) {\r... */\n      jump(tag_393)\n    tag_394:\n      pop\n        /* \"contract/lottery.sol\":11573:11579  ticket */\n      dup2\n        /* \"contract/lottery.sol\":11569:11570  2 */\n      0x02\n        /* \"contract/lottery.sol\":11546:11567  address(this).balance */\n      selfbalance\n        /* \"contract/lottery.sol\":11546:11570  address(this).balance /2 */\n      dup2\n      tag_402\n      jumpi\n      invalid\n    tag_402:\n      div\n        /* \"contract/lottery.sol\":11546:11579  address(this).balance /2 / ticket */\n      dup2\n      tag_403\n      jumpi\n      invalid\n    tag_403:\n      div\n        /* \"contract/lottery.sol\":11527:11542  todayWinerValue */\n      0x33\n        /* \"contract/lottery.sol\":11527:11579  todayWinerValue =  address(this).balance /2 / ticket */\n      dup2\n      swap1\n      sstore\n      pop\n        /* \"contract/lottery.sol\":11604:11607  now */\n      timestamp\n        /* \"contract/lottery.sol\":11590:11601  timeLottery */\n      0x34\n        /* \"contract/lottery.sol\":11590:11607  timeLottery = now */\n      dup2\n      swap1\n      sstore\n      pop\n        /* \"contract/lottery.sol\":11618:11627  uint rand */\n      0x00\n        /* \"contract/lottery.sol\":11649:11655  ticket */\n      dup3\n        /* \"contract/lottery.sol\":11630:11648  totalLotteryPlayer */\n      dup3\n        /* \"contract/lottery.sol\":11630:11655  totalLotteryPlayer/ticket */\n      dup2\n      tag_404\n      jumpi\n      invalid\n    tag_404:\n      div\n        /* \"contract/lottery.sol\":11618:11655  uint rand = totalLotteryPlayer/ticket */\n      swap1\n      pop\n        /* \"contract/lottery.sol\":11666:11679  uint caunting */\n      0x00\n        /* \"contract/lottery.sol\":11690:11704  uint8 luckyNum */\n      dup1\n        /* \"contract/lottery.sol\":11719:11730  uint8 round */\n      0x00\n        /* \"contract/lottery.sol\":11733:11734  1 */\n      0x01\n        /* \"contract/lottery.sol\":11719:11734  uint8 round = 1 */\n      swap1\n      pop\n        /* \"contract/lottery.sol\":11715:12216  for(uint8 round = 1; round <= totalrounds; round++) {        \r... */\n    tag_405:\n        /* \"contract/lottery.sol\":11745:11756  totalrounds */\n      sload(0x69)\n        /* \"contract/lottery.sol\":11736:11741  round */\n      dup2\n        /* \"contract/lottery.sol\":11736:11756  round <= totalrounds */\n      0xff\n      and\n      gt\n        /* \"contract/lottery.sol\":11715:12216  for(uint8 round = 1; round <= totalrounds; round++) {        \r... */\n      tag_406\n      jumpi\n        /* \"contract/lottery.sol\":11794:11800  uint i */\n      0x00\n        /* \"contract/lottery.sol\":11803:11812  headIndex */\n      0x6e\n        /* \"contract/lottery.sol\":11803:11819  headIndex[round] */\n      0x00\n        /* \"contract/lottery.sol\":11813:11818  round */\n      dup4\n        /* \"contract/lottery.sol\":11803:11819  headIndex[round] */\n      0xff\n      and\n      0xff\n      and\n      dup2\n      mstore\n      0x20\n      add\n      swap1\n      dup2\n      mstore\n      0x20\n      add\n      0x00\n      keccak256\n      sload\n        /* \"contract/lottery.sol\":11794:11819  uint i = headIndex[round] */\n      swap1\n      pop\n        /* \"contract/lottery.sol\":11790:12205  for(uint i = headIndex[round]; i < roundQueue[round].length; i++) {\r... */\n    tag_408:\n        /* \"contract/lottery.sol\":11825:11835  roundQueue */\n      0x6d\n        /* \"contract/lottery.sol\":11825:11842  roundQueue[round] */\n      0x00\n        /* \"contract/lottery.sol\":11836:11841  round */\n      dup4\n        /* \"contract/lottery.sol\":11825:11842  roundQueue[round] */\n      0xff\n      and\n      0xff\n      and\n      dup2\n      mstore\n      0x20\n      add\n      swap1\n      dup2\n      mstore\n      0x20\n      add\n      0x00\n      keccak256\n        /* \"contract/lottery.sol\":11825:11849  roundQueue[round].length */\n      dup1\n      sload\n      swap1\n      pop\n        /* \"contract/lottery.sol\":11821:11822  i */\n      dup2\n        /* \"contract/lottery.sol\":11821:11849  i < roundQueue[round].length */\n      lt\n        /* \"contract/lottery.sol\":11790:12205  for(uint i = headIndex[round]; i < roundQueue[round].length; i++) {\r... */\n      iszero\n      tag_409\n      jumpi\n        /* \"contract/lottery.sol\":11875:11885  caunting++ */\n      dup4\n      dup1\n      0x01\n      add\n      swap5\n      pop\n      pop\n        /* \"contract/lottery.sol\":11927:11928  0 */\n      0x00\n        /* \"contract/lottery.sol\":11919:11923  rand */\n      dup6\n        /* \"contract/lottery.sol\":11908:11916  caunting */\n      dup6\n        /* \"contract/lottery.sol\":11908:11923  caunting % rand */\n      dup2\n      tag_411\n      jumpi\n      invalid\n    tag_411:\n      mod\n        /* \"contract/lottery.sol\":11908:11928  caunting % rand == 0 */\n      eq\n        /* \"contract/lottery.sol\":11908:11984  caunting % rand == 0 && lastTimeActivation[roundQueue[round][i]]+86400 > now */\n      dup1\n      iszero\n      tag_412\n      jumpi\n      pop\n        /* \"contract/lottery.sol\":11981:11984  now */\n      timestamp\n        /* \"contract/lottery.sol\":11973:11978  86400 */\n      0x015180\n        /* \"contract/lottery.sol\":11932:11950  lastTimeActivation */\n      0x65\n        /* \"contract/lottery.sol\":11932:11972  lastTimeActivation[roundQueue[round][i]] */\n      0x00\n        /* \"contract/lottery.sol\":11951:11961  roundQueue */\n      0x6d\n        /* \"contract/lottery.sol\":11951:11968  roundQueue[round] */\n      0x00\n        /* \"contract/lottery.sol\":11962:11967  round */\n      dup8\n        /* \"contract/lottery.sol\":11951:11968  roundQueue[round] */\n      0xff\n      and\n      0xff\n      and\n      dup2\n      mstore\n      0x20\n      add\n      swap1\n      dup2\n      mstore\n      0x20\n      add\n      0x00\n      keccak256\n        /* \"contract/lottery.sol\":11969:11970  i */\n      dup6\n        /* \"contract/lottery.sol\":11951:11971  roundQueue[round][i] */\n      dup2\n      sload\n      dup2\n      lt\n      tag_413\n      jumpi\n      invalid\n    tag_413:\n      swap1\n      0x00\n      mstore\n      keccak256(0x00, 0x20)\n      add\n      0x00\n      swap1\n      sload\n      swap1\n      0x0100\n      exp\n      swap1\n      div\n      0xffffffffffffffffffffffffffffffffffffffff\n      and\n        /* \"contract/lottery.sol\":11932:11972  lastTimeActivation[roundQueue[round][i]] */\n      0xffffffffffffffffffffffffffffffffffffffff\n      and\n      0xffffffffffffffffffffffffffffffffffffffff\n      and\n      dup2\n      mstore\n      0x20\n      add\n      swap1\n      dup2\n      mstore\n      0x20\n      add\n      0x00\n      keccak256\n      sload\n        /* \"contract/lottery.sol\":11932:11978  lastTimeActivation[roundQueue[round][i]]+86400 */\n      add\n        /* \"contract/lottery.sol\":11932:11984  lastTimeActivation[roundQueue[round][i]]+86400 > now */\n      gt\n        /* \"contract/lottery.sol\":11908:11984  caunting % rand == 0 && lastTimeActivation[roundQueue[round][i]]+86400 > now */\n    tag_412:\n        /* \"contract/lottery.sol\":11905:12190  if(caunting % rand == 0 && lastTimeActivation[roundQueue[round][i]]+86400 > now) {\r... */\n      iszero\n      tag_415\n      jumpi\n        /* \"contract/lottery.sol\":12032:12042  roundQueue */\n      0x6d\n        /* \"contract/lottery.sol\":12032:12049  roundQueue[round] */\n      0x00\n        /* \"contract/lottery.sol\":12043:12048  round */\n      dup4\n        /* \"contract/lottery.sol\":12032:12049  roundQueue[round] */\n      0xff\n      and\n      0xff\n      and\n      dup2\n      mstore\n      0x20\n      add\n      swap1\n      dup2\n      mstore\n      0x20\n      add\n      0x00\n      keccak256\n        /* \"contract/lottery.sol\":12050:12051  i */\n      dup2\n        /* \"contract/lottery.sol\":12032:12052  roundQueue[round][i] */\n      dup2\n      sload\n      dup2\n      lt\n      tag_416\n      jumpi\n      invalid\n    tag_416:\n      swap1\n      0x00\n      mstore\n      keccak256(0x00, 0x20)\n      add\n      0x00\n      swap1\n      sload\n      swap1\n      0x0100\n      exp\n      swap1\n      div\n      0xffffffffffffffffffffffffffffffffffffffff\n      and\n        /* \"contract/lottery.sol\":12009:12019  todayWiner */\n      0x01\n        /* \"contract/lottery.sol\":12020:12028  luckyNum */\n      dup5\n        /* \"contract/lottery.sol\":12009:12029  todayWiner[luckyNum] */\n      0xff\n      and\n      0x32\n      dup2\n      lt\n      tag_418\n      jumpi\n      invalid\n    tag_418:\n      add\n      0x00\n        /* \"contract/lottery.sol\":12009:12052  todayWiner[luckyNum] = roundQueue[round][i] */\n      0x0100\n      exp\n      dup2\n      sload\n      dup2\n      0xffffffffffffffffffffffffffffffffffffffff\n      mul\n      not\n      and\n      swap1\n      dup4\n      0xffffffffffffffffffffffffffffffffffffffff\n      and\n      mul\n      or\n      swap1\n      sstore\n      pop\n        /* \"contract/lottery.sol\":12076:12086  luckyNum++ */\n      dup3\n      dup1\n      0x01\n      add\n      swap4\n      pop\n      pop\n        /* \"contract/lottery.sol\":12131:12141  roundQueue */\n      0x6d\n        /* \"contract/lottery.sol\":12131:12148  roundQueue[round] */\n      0x00\n        /* \"contract/lottery.sol\":12142:12147  round */\n      dup4\n        /* \"contract/lottery.sol\":12131:12148  roundQueue[round] */\n      0xff\n      and\n      0xff\n      and\n      dup2\n      mstore\n      0x20\n      add\n      swap1\n      dup2\n      mstore\n      0x20\n      add\n      0x00\n      keccak256\n        /* \"contract/lottery.sol\":12149:12150  i */\n      dup2\n        /* \"contract/lottery.sol\":12131:12151  roundQueue[round][i] */\n      dup2\n      sload\n      dup2\n      lt\n      tag_420\n      jumpi\n      invalid\n    tag_420:\n      swap1\n      0x00\n      mstore\n      keccak256(0x00, 0x20)\n      add\n      0x00\n      swap1\n      sload\n      swap1\n      0x0100\n      exp\n      swap1\n      div\n      0xffffffffffffffffffffffffffffffffffffffff\n      and\n        /* \"contract/lottery.sol\":12115:12169  winLottery(now, roundQueue[round][i], todayWinerValue) */\n      0xffffffffffffffffffffffffffffffffffffffff\n      and\n      0xedac0922924cc83017073b98842693d865d06a82c38175d4a1cb0811ef86193f\n        /* \"contract/lottery.sol\":12126:12129  now */\n      timestamp\n        /* \"contract/lottery.sol\":12153:12168  todayWinerValue */\n      sload(0x33)\n        /* \"contract/lottery.sol\":12115:12169  winLottery(now, roundQueue[round][i], todayWinerValue) */\n      mload(0x40)\n      dup1\n      dup4\n      dup2\n      mstore\n      0x20\n      add\n      dup3\n      dup2\n      mstore\n      0x20\n      add\n      swap3\n      pop\n      pop\n      pop\n      mload(0x40)\n      dup1\n      swap2\n      sub\n      swap1\n      log2\n        /* \"contract/lottery.sol\":11905:12190  if(caunting % rand == 0 && lastTimeActivation[roundQueue[round][i]]+86400 > now) {\r... */\n    tag_415:\n        /* \"contract/lottery.sol\":11851:11854  i++ */\n      dup1\n      dup1\n      0x01\n      add\n      swap2\n      pop\n      pop\n        /* \"contract/lottery.sol\":11790:12205  for(uint i = headIndex[round]; i < roundQueue[round].length; i++) {\r... */\n      jump(tag_408)\n    tag_409:\n      pop\n        /* \"contract/lottery.sol\":11758:11765  round++ */\n      dup1\n      dup1\n      0x01\n      add\n      swap2\n      pop\n      pop\n        /* \"contract/lottery.sol\":11715:12216  for(uint8 round = 1; round <= totalrounds; round++) {        \r... */\n      jump(tag_405)\n    tag_406:\n      pop\n        /* \"contract/lottery.sol\":10966:12223  function Lottery(uint ticket) public {\r... */\n      pop\n      pop\n      pop\n      pop\n      pop\n      jump\t// out\n        /* \"contract/lottery.sol\":5647:6715  function registerWithReferrer(address referrer) public payable {\r... */\n    tag_201:\n        /* \"contract/lottery.sol\":5729:5755  isUserRegistered(referrer) */\n      tag_423\n        /* \"contract/lottery.sol\":5746:5754  referrer */\n      dup2\n        /* \"contract/lottery.sol\":5729:5745  isUserRegistered */\n      tag_60\n        /* \"contract/lottery.sol\":5729:5755  isUserRegistered(referrer) */\n      jump\t// in\n    tag_423:\n        /* \"contract/lottery.sol\":5721:5786  require(isUserRegistered(referrer), \"Referrer is not registered\") */\n      tag_424\n      jumpi\n      mload(0x40)\n      0x08c379a000000000000000000000000000000000000000000000000000000000\n      dup2\n      mstore\n      0x04\n      add\n      dup1\n      dup1\n      0x20\n      add\n      dup3\n      dup2\n      sub\n      dup3\n      mstore\n      0x1a\n      dup2\n      mstore\n      0x20\n      add\n      dup1\n      0x5265666572726572206973206e6f742072656769737465726564000000000000\n      dup2\n      mstore\n      pop\n      0x20\n      add\n      swap2\n      pop\n      pop\n      mload(0x40)\n      dup1\n      swap2\n      sub\n      swap1\n      revert\n    tag_424:\n        /* \"contract/lottery.sol\":5806:5834  isUserRegistered(msg.sender) */\n      tag_425\n        /* \"contract/lottery.sol\":5823:5833  msg.sender */\n      caller\n        /* \"contract/lottery.sol\":5806:5822  isUserRegistered */\n      tag_60\n        /* \"contract/lottery.sol\":5806:5834  isUserRegistered(msg.sender) */\n      jump\t// in\n    tag_425:\n        /* \"contract/lottery.sol\":5805:5834  !isUserRegistered(msg.sender) */\n      iszero\n        /* \"contract/lottery.sol\":5797:5862  require(!isUserRegistered(msg.sender), \"User already registered\") */\n      tag_426\n      jumpi\n      mload(0x40)\n      0x08c379a000000000000000000000000000000000000000000000000000000000\n      dup2\n      mstore\n      0x04\n      add\n      dup1\n      dup1\n      0x20\n      add\n      dup3\n      dup2\n      sub\n      dup3\n      mstore\n      0x17\n      dup2\n      mstore\n      0x20\n      add\n      dup1\n      0x5573657220616c72656164792072656769737465726564000000000000000000\n      dup2\n      mstore\n      pop\n      0x20\n      add\n      swap2\n      pop\n      pop\n      mload(0x40)\n      dup1\n      swap2\n      sub\n      swap1\n      revert\n    tag_426:\n        /* \"contract/lottery.sol\":5882:5904  isContract(msg.sender) */\n      tag_427\n        /* \"contract/lottery.sol\":5893:5903  msg.sender */\n      caller\n        /* \"contract/lottery.sol\":5882:5892  isContract */\n      tag_75\n        /* \"contract/lottery.sol\":5882:5904  isContract(msg.sender) */\n      jump\t// in\n    tag_427:\n        /* \"contract/lottery.sol\":5881:5904  !isContract(msg.sender) */\n      iszero\n        /* \"contract/lottery.sol\":5873:5930  require(!isContract(msg.sender), \"Can not be a contract\") */\n      tag_428\n      jumpi\n      mload(0x40)\n      0x08c379a000000000000000000000000000000000000000000000000000000000\n      dup2\n      mstore\n      0x04\n      add\n      dup1\n      dup1\n      0x20\n      add\n      dup3\n      dup2\n      sub\n      dup3\n      mstore\n      0x15\n      dup2\n      mstore\n      0x20\n      add\n      dup1\n      0x43616e206e6f74206265206120636f6e74726163740000000000000000000000\n      dup2\n      mstore\n      pop\n      0x20\n      add\n      swap2\n      pop\n      pop\n      mload(0x40)\n      dup1\n      swap2\n      sub\n      swap1\n      revert\n    tag_428:\n        /* \"contract/lottery.sol\":5941:5957  User memory user */\n      tag_429\n      tag_377\n      jump\t// in\n    tag_429:\n        /* \"contract/lottery.sol\":5960:6278  User({\r... */\n      mload(0x40)\n      dup1\n      0x0120\n      add\n      0x40\n      mstore\n      dup1\n        /* \"contract/lottery.sol\":5985:5994  newUserId */\n      0x6a\n      0x00\n        /* \"contract/lottery.sol\":5985:5996  newUserId++ */\n      dup2\n      sload\n      dup1\n      swap3\n      swap2\n      swap1\n      0x01\n      add\n      swap2\n      swap1\n      pop\n      sstore\n        /* \"contract/lottery.sol\":5960:6278  User({\r... */\n      dup2\n      mstore\n      0x20\n      add\n        /* \"contract/lottery.sol\":6034:6037  now */\n      timestamp\n        /* \"contract/lottery.sol\":5960:6278  User({\r... */\n      dup2\n      mstore\n      0x20\n      add\n        /* \"contract/lottery.sol\":6063:6071  referrer */\n      dup4\n        /* \"contract/lottery.sol\":5960:6278  User({\r... */\n      0xffffffffffffffffffffffffffffffffffffffff\n      and\n      dup2\n      mstore\n      0x20\n      add\n        /* \"contract/lottery.sol\":6098:6099  0 */\n      0x00\n        /* \"contract/lottery.sol\":5960:6278  User({\r... */\n      dup2\n      mstore\n      0x20\n      add\n        /* \"contract/lottery.sol\":6134:6135  0 */\n      0x00\n        /* \"contract/lottery.sol\":5960:6278  User({\r... */\n      dup2\n      mstore\n      0x20\n      add\n        /* \"contract/lottery.sol\":6168:6169  0 */\n      0x00\n        /* \"contract/lottery.sol\":5960:6278  User({\r... */\n      dup2\n      mstore\n      0x20\n      add\n        /* \"contract/lottery.sol\":6210:6211  0 */\n      0x00\n        /* \"contract/lottery.sol\":5960:6278  User({\r... */\n      dup2\n      mstore\n      0x20\n      add\n        /* \"contract/lottery.sol\":6237:6238  0 */\n      0x00\n        /* \"contract/lottery.sol\":5960:6278  User({\r... */\n      0xff\n      and\n      dup2\n      mstore\n      0x20\n      add\n        /* \"contract/lottery.sol\":6263:6264  0 */\n      0x00\n        /* \"contract/lottery.sol\":5960:6278  User({\r... */\n      dup2\n      mstore\n      pop\n        /* \"contract/lottery.sol\":5941:6278  User memory user = User({\r... */\n      swap1\n      pop\n        /* \"contract/lottery.sol\":6309:6313  user */\n      dup1\n        /* \"contract/lottery.sol\":6289:6294  users */\n      0x6b\n        /* \"contract/lottery.sol\":6289:6306  users[msg.sender] */\n      0x00\n        /* \"contract/lottery.sol\":6295:6305  msg.sender */\n      caller\n        /* \"contract/lottery.sol\":6289:6306  users[msg.sender] */\n      0xffffffffffffffffffffffffffffffffffffffff\n      and\n      0xffffffffffffffffffffffffffffffffffffffff\n      and\n      dup2\n      mstore\n      0x20\n      add\n      swap1\n      dup2\n      mstore\n      0x20\n      add\n      0x00\n      keccak256\n        /* \"contract/lottery.sol\":6289:6313  users[msg.sender] = user */\n      0x00\n      dup3\n      add\n      mload\n      dup2\n      0x00\n      add\n      sstore\n      0x20\n      dup3\n      add\n      mload\n      dup2\n      0x01\n      add\n      sstore\n      0x40\n      dup3\n      add\n      mload\n      dup2\n      0x02\n      add\n      exp(0x0100, 0x00)\n      dup2\n      sload\n      dup2\n      0xffffffffffffffffffffffffffffffffffffffff\n      mul\n      not\n      and\n      swap1\n      dup4\n      0xffffffffffffffffffffffffffffffffffffffff\n      and\n      mul\n      or\n      swap1\n      sstore\n      pop\n      0x60\n      dup3\n      add\n      mload\n      dup2\n      0x03\n      add\n      sstore\n      0x80\n      dup3\n      add\n      mload\n      dup2\n      0x04\n      add\n      sstore\n      0xa0\n      dup3\n      add\n      mload\n      dup2\n      0x05\n      add\n      sstore\n      0xc0\n      dup3\n      add\n      mload\n      dup2\n      0x06\n      add\n      sstore\n      0xe0\n      dup3\n      add\n      mload\n      dup2\n      0x08\n      add\n      exp(0x0100, 0x00)\n      dup2\n      sload\n      dup2\n      0xff\n      mul\n      not\n      and\n      swap1\n      dup4\n      0xff\n      and\n      mul\n      or\n      swap1\n      sstore\n      pop\n      0x0100\n      dup3\n      add\n      mload\n      dup2\n      0x09\n      add\n      sstore\n      swap1\n      pop\n      pop\n        /* \"contract/lottery.sol\":6352:6362  msg.sender */\n      caller\n        /* \"contract/lottery.sol\":6324:6340  usersAddressById */\n      0x6c\n        /* \"contract/lottery.sol\":6324:6349  usersAddressById[user.id] */\n      0x00\n        /* \"contract/lottery.sol\":6341:6345  user */\n      dup4\n        /* \"contract/lottery.sol\":6341:6348  user.id */\n      0x00\n      add\n      mload\n        /* \"contract/lottery.sol\":6324:6349  usersAddressById[user.id] */\n      dup2\n      mstore\n      0x20\n      add\n      swap1\n      dup2\n      mstore\n      0x20\n      add\n      0x00\n      keccak256\n      0x00\n        /* \"contract/lottery.sol\":6324:6362  usersAddressById[user.id] = msg.sender */\n      0x0100\n      exp\n      dup2\n      sload\n      dup2\n      0xffffffffffffffffffffffffffffffffffffffff\n      mul\n      not\n      and\n      swap1\n      dup4\n      0xffffffffffffffffffffffffffffffffffffffff\n      and\n      mul\n      or\n      swap1\n      sstore\n      pop\n        /* \"contract/lottery.sol\":6373:6383  uint8 line */\n      0x00\n        /* \"contract/lottery.sol\":6386:6387  1 */\n      0x01\n        /* \"contract/lottery.sol\":6373:6387  uint8 line = 1 */\n      swap1\n      pop\n        /* \"contract/lottery.sol\":6398:6409  address ref */\n      0x00\n        /* \"contract/lottery.sol\":6412:6420  referrer */\n      dup4\n        /* \"contract/lottery.sol\":6398:6420  address ref = referrer */\n      swap1\n      pop\n        /* \"contract/lottery.sol\":6449:6450  0 */\n      0x00\n        /* \"contract/lottery.sol\":6434:6451  ref != address(0) */\n      0xffffffffffffffffffffffffffffffffffffffff\n      and\n        /* \"contract/lottery.sol\":6434:6437  ref */\n      dup2\n        /* \"contract/lottery.sol\":6434:6451  ref != address(0) */\n      0xffffffffffffffffffffffffffffffffffffffff\n      and\n      eq\n        /* \"contract/lottery.sol\":6431:6563  if(ref != address(0)) {\r... */\n      tag_430\n      jumpi\n        /* \"contract/lottery.sol\":6468:6473  users */\n      0x6b\n        /* \"contract/lottery.sol\":6468:6478  users[ref] */\n      0x00\n        /* \"contract/lottery.sol\":6474:6477  ref */\n      dup3\n        /* \"contract/lottery.sol\":6468:6478  users[ref] */\n      0xffffffffffffffffffffffffffffffffffffffff\n      and\n      0xffffffffffffffffffffffffffffffffffffffff\n      and\n      dup2\n      mstore\n      0x20\n      add\n      swap1\n      dup2\n      mstore\n      0x20\n      add\n      0x00\n      keccak256\n        /* \"contract/lottery.sol\":6468:6488  users[ref].referrals */\n      0x03\n      add\n      0x00\n        /* \"contract/lottery.sol\":6468:6490  users[ref].referrals++ */\n      dup2\n      sload\n      dup1\n      swap3\n      swap2\n      swap1\n      0x01\n      add\n      swap2\n      swap1\n      pop\n      sstore\n      pop\n        /* \"contract/lottery.sol\":6511:6516  users */\n      0x6b\n        /* \"contract/lottery.sol\":6511:6521  users[ref] */\n      0x00\n        /* \"contract/lottery.sol\":6517:6520  ref */\n      dup3\n        /* \"contract/lottery.sol\":6511:6521  users[ref] */\n      0xffffffffffffffffffffffffffffffffffffffff\n      and\n      0xffffffffffffffffffffffffffffffffffffffff\n      and\n      dup2\n      mstore\n      0x20\n      add\n      swap1\n      dup2\n      mstore\n      0x20\n      add\n      0x00\n      keccak256\n        /* \"contract/lottery.sol\":6511:6530  users[ref].referrer */\n      0x02\n      add\n      0x00\n      swap1\n      sload\n      swap1\n      0x0100\n      exp\n      swap1\n      div\n      0xffffffffffffffffffffffffffffffffffffffff\n      and\n        /* \"contract/lottery.sol\":6505:6530  ref = users[ref].referrer */\n      swap1\n      pop\n        /* \"contract/lottery.sol\":6545:6551  line++ */\n      dup2\n      dup1\n      0x01\n      add\n      swap3\n      pop\n      pop\n        /* \"contract/lottery.sol\":6431:6563  if(ref != address(0)) {\r... */\n    tag_430:\n        /* \"contract/lottery.sol\":6573:6583  globalStat */\n      0x6f\n        /* \"contract/lottery.sol\":6573:6591  globalStat.members */\n      0x00\n      add\n      0x00\n        /* \"contract/lottery.sol\":6573:6593  globalStat.members++ */\n      dup2\n      sload\n      dup1\n      swap3\n      swap2\n      swap1\n      0x01\n      add\n      swap2\n      swap1\n      pop\n      sstore\n      pop\n        /* \"contract/lottery.sol\":6604:6614  globalStat */\n      0x6f\n        /* \"contract/lottery.sol\":6604:6627  globalStat.transactions */\n      0x01\n      add\n      0x00\n        /* \"contract/lottery.sol\":6604:6629  globalStat.transactions++ */\n      dup2\n      sload\n      dup1\n      swap3\n      swap2\n      swap1\n      0x01\n      add\n      swap2\n      swap1\n      pop\n      sstore\n      pop\n        /* \"contract/lottery.sol\":6667:6677  msg.sender */\n      caller\n        /* \"contract/lottery.sol\":6645:6707  UserRegistration(now, msg.sender, user.id, users[referrer].id) */\n      0xffffffffffffffffffffffffffffffffffffffff\n      and\n      0x588149fb6f65171a24789e864d05feb177506df6fc9e86c55d0d19b5122bdffc\n        /* \"contract/lottery.sol\":6662:6665  now */\n      timestamp\n        /* \"contract/lottery.sol\":6679:6683  user */\n      dup6\n        /* \"contract/lottery.sol\":6679:6686  user.id */\n      0x00\n      add\n      mload\n        /* \"contract/lottery.sol\":6688:6693  users */\n      0x6b\n        /* \"contract/lottery.sol\":6688:6703  users[referrer] */\n      0x00\n        /* \"contract/lottery.sol\":6694:6702  referrer */\n      dup10\n        /* \"contract/lottery.sol\":6688:6703  users[referrer] */\n      0xffffffffffffffffffffffffffffffffffffffff\n      and\n      0xffffffffffffffffffffffffffffffffffffffff\n      and\n      dup2\n      mstore\n      0x20\n      add\n      swap1\n      dup2\n      mstore\n      0x20\n      add\n      0x00\n      keccak256\n        /* \"contract/lottery.sol\":6688:6706  users[referrer].id */\n      0x00\n      add\n      sload\n        /* \"contract/lottery.sol\":6645:6707  UserRegistration(now, msg.sender, user.id, users[referrer].id) */\n      mload(0x40)\n      dup1\n      dup5\n      dup2\n      mstore\n      0x20\n      add\n      dup4\n      dup2\n      mstore\n      0x20\n      add\n      dup3\n      dup2\n      mstore\n      0x20\n      add\n      swap4\n      pop\n      pop\n      pop\n      pop\n      mload(0x40)\n      dup1\n      swap2\n      sub\n      swap1\n      log2\n        /* \"contract/lottery.sol\":5647:6715  function registerWithReferrer(address referrer) public payable {\r... */\n      pop\n      pop\n      pop\n      pop\n      jump\t// out\n        /* \"contract/lottery.sol\":3148:3193  uint8 public referralRewardProfitPercents = 8 */\n    tag_204:\n      0x66\n      0x01\n      swap1\n      sload\n      swap1\n      0x0100\n      exp\n      swap1\n      div\n      0xff\n      and\n      dup2\n      jump\t// out\n        /* \"contract/lottery.sol\":742:792  mapping(address => uint) public lastTimeActivation */\n    tag_208:\n      mstore(0x20, 0x65)\n      dup1\n      0x00\n      mstore\n      keccak256(0x00, 0x40)\n      0x00\n      swap2\n      pop\n      swap1\n      pop\n      sload\n      dup2\n      jump\t// out\n        /* \"contract/lottery.sol\":5417:5544  function buyFirstRound(address referrer) public payable {\r... */\n    tag_211:\n        /* \"contract/lottery.sol\":5484:5514  registerWithReferrer(referrer) */\n      tag_432\n        /* \"contract/lottery.sol\":5505:5513  referrer */\n      dup2\n        /* \"contract/lottery.sol\":5484:5504  registerWithReferrer */\n      tag_201\n        /* \"contract/lottery.sol\":5484:5514  registerWithReferrer(referrer) */\n      jump\t// in\n    tag_432:\n        /* \"contract/lottery.sol\":5525:5536  buyround(1) */\n      tag_433\n        /* \"contract/lottery.sol\":5534:5535  1 */\n      0x01\n        /* \"contract/lottery.sol\":5525:5533  buyround */\n      tag_65\n        /* \"contract/lottery.sol\":5525:5536  buyround(1) */\n      jump\t// in\n    tag_433:\n        /* \"contract/lottery.sol\":5417:5544  function buyFirstRound(address referrer) public payable {\r... */\n      pop\n      jump\t// out\n        /* \"contract/lottery.sol\":18119:18305  function getReferrerId(address userAddress) public view returns (uint) {\r... */\n    tag_215:\n        /* \"contract/lottery.sol\":18184:18188  uint */\n      0x00\n        /* \"contract/lottery.sol\":18201:18224  address referrerAddress */\n      dup1\n        /* \"contract/lottery.sol\":18227:18232  users */\n      0x6b\n        /* \"contract/lottery.sol\":18227:18245  users[userAddress] */\n      0x00\n        /* \"contract/lottery.sol\":18233:18244  userAddress */\n      dup5\n        /* \"contract/lottery.sol\":18227:18245  users[userAddress] */\n      0xffffffffffffffffffffffffffffffffffffffff\n      and\n      0xffffffffffffffffffffffffffffffffffffffff\n      and\n      dup2\n      mstore\n      0x20\n      add\n      swap1\n      dup2\n      mstore\n      0x20\n      add\n      0x00\n      keccak256\n        /* \"contract/lottery.sol\":18227:18254  users[userAddress].referrer */\n      0x02\n      add\n      0x00\n      swap1\n      sload\n      swap1\n      0x0100\n      exp\n      swap1\n      div\n      0xffffffffffffffffffffffffffffffffffffffff\n      and\n        /* \"contract/lottery.sol\":18201:18254  address referrerAddress = users[userAddress].referrer */\n      swap1\n      pop\n        /* \"contract/lottery.sol\":18272:18277  users */\n      0x6b\n        /* \"contract/lottery.sol\":18272:18294  users[referrerAddress] */\n      0x00\n        /* \"contract/lottery.sol\":18278:18293  referrerAddress */\n      dup3\n        /* \"contract/lottery.sol\":18272:18294  users[referrerAddress] */\n      0xffffffffffffffffffffffffffffffffffffffff\n      and\n      0xffffffffffffffffffffffffffffffffffffffff\n      and\n      dup2\n      mstore\n      0x20\n      add\n      swap1\n      dup2\n      mstore\n      0x20\n      add\n      0x00\n      keccak256\n        /* \"contract/lottery.sol\":18272:18297  users[referrerAddress].id */\n      0x00\n      add\n      sload\n        /* \"contract/lottery.sol\":18265:18297  return users[referrerAddress].id */\n      swap2\n      pop\n      pop\n        /* \"contract/lottery.sol\":18119:18305  function getReferrerId(address userAddress) public view returns (uint) {\r... */\n      swap2\n      swap1\n      pop\n      jump\t// out\n        /* \"contract/lottery.sol\":3004:3045  uint8 public constant rewardPercents = 75 */\n    tag_218:\n        /* \"contract/lottery.sol\":3043:3045  75 */\n      0x4b\n        /* \"contract/lottery.sol\":3004:3045  uint8 public constant rewardPercents = 75 */\n      dup2\n      jump\t// out\n        /* \"contract/lottery.sol\":12229:12703  function getPrize() public nonReentrant{\r... */\n    tag_221:\n        /* \"contract/lottery.sol\":180:181  2 */\n      0x02\n        /* \"contract/lottery.sol\":335:342  _status */\n      sload(0x00)\n        /* \"contract/lottery.sol\":335:354  _status != _ENTERED */\n      eq\n      iszero\n        /* \"contract/lottery.sol\":327:390  require(_status != _ENTERED, \"ReentrancyGuard: reentrant call\") */\n      tag_436\n      jumpi\n      mload(0x40)\n      0x08c379a000000000000000000000000000000000000000000000000000000000\n      dup2\n      mstore\n      0x04\n      add\n      dup1\n      dup1\n      0x20\n      add\n      dup3\n      dup2\n      sub\n      dup3\n      mstore\n      0x1f\n      dup2\n      mstore\n      0x20\n      add\n      dup1\n      0x5265656e7472616e637947756172643a207265656e7472616e742063616c6c00\n      dup2\n      mstore\n      pop\n      0x20\n      add\n      swap2\n      pop\n      pop\n      mload(0x40)\n      dup1\n      swap2\n      sub\n      swap1\n      revert\n    tag_436:\n        /* \"contract/lottery.sol\":180:181  2 */\n      0x02\n        /* \"contract/lottery.sol\":401:408  _status */\n      0x00\n        /* \"contract/lottery.sol\":401:419  _status = _ENTERED */\n      dup2\n      swap1\n      sstore\n      pop\n        /* \"contract/lottery.sol\":12285:12296  uint8 lucky */\n      0x00\n        /* \"contract/lottery.sol\":12280:12696  for (uint8 lucky = 0; lucky <= 49; lucky++) {\r... */\n    tag_438:\n        /* \"contract/lottery.sol\":12311:12313  49 */\n      0x31\n        /* \"contract/lottery.sol\":12302:12307  lucky */\n      dup2\n        /* \"contract/lottery.sol\":12302:12313  lucky <= 49 */\n      0xff\n      and\n      gt\n        /* \"contract/lottery.sol\":12280:12696  for (uint8 lucky = 0; lucky <= 49; lucky++) {\r... */\n      tag_439\n      jumpi\n        /* \"contract/lottery.sol\":12364:12374  msg.sender */\n      caller\n        /* \"contract/lottery.sol\":12343:12374  todayWiner[lucky] == msg.sender */\n      0xffffffffffffffffffffffffffffffffffffffff\n      and\n        /* \"contract/lottery.sol\":12343:12353  todayWiner */\n      0x01\n        /* \"contract/lottery.sol\":12354:12359  lucky */\n      dup3\n        /* \"contract/lottery.sol\":12343:12360  todayWiner[lucky] */\n      0xff\n      and\n      0x32\n      dup2\n      lt\n      tag_441\n      jumpi\n      invalid\n    tag_441:\n      add\n      0x00\n      swap1\n      sload\n      swap1\n      0x0100\n      exp\n      swap1\n      div\n      0xffffffffffffffffffffffffffffffffffffffff\n      and\n        /* \"contract/lottery.sol\":12343:12374  todayWiner[lucky] == msg.sender */\n      0xffffffffffffffffffffffffffffffffffffffff\n      and\n      eq\n        /* \"contract/lottery.sol\":12339:12685  if (todayWiner[lucky] == msg.sender){\r... */\n      iszero\n      tag_443\n      jumpi\n        /* \"contract/lottery.sol\":12395:12405  globalStat */\n      0x6f\n        /* \"contract/lottery.sol\":12395:12411  globalStat.lucky */\n      0x03\n      add\n      0x00\n        /* \"contract/lottery.sol\":12395:12413  globalStat.lucky++ */\n      dup2\n      sload\n      dup1\n      swap3\n      swap2\n      swap1\n      0x01\n      add\n      swap2\n      swap1\n      pop\n      sstore\n      pop\n        /* \"contract/lottery.sol\":12465:12466  0 */\n      0x00\n        /* \"contract/lottery.sol\":12437:12447  todayWiner */\n      0x01\n        /* \"contract/lottery.sol\":12448:12453  lucky */\n      dup3\n        /* \"contract/lottery.sol\":12437:12454  todayWiner[lucky] */\n      0xff\n      and\n      0x32\n      dup2\n      lt\n      tag_444\n      jumpi\n      invalid\n    tag_444:\n      add\n      0x00\n        /* \"contract/lottery.sol\":12437:12467  todayWiner[lucky] = address(0) */\n      0x0100\n      exp\n      dup2\n      sload\n      dup2\n      0xffffffffffffffffffffffffffffffffffffffff\n      mul\n      not\n      and\n      swap1\n      dup4\n      0xffffffffffffffffffffffffffffffffffffffff\n      and\n      mul\n      or\n      swap1\n      sstore\n      pop\n        /* \"contract/lottery.sol\":12486:12499  bool payPrize */\n      0x00\n        /* \"contract/lottery.sol\":12510:12520  msg.sender */\n      caller\n        /* \"contract/lottery.sol\":12502:12526  payable(msg.sender).send */\n      0xffffffffffffffffffffffffffffffffffffffff\n      and\n        /* \"contract/lottery.sol\":12502:12543  payable(msg.sender).send(todayWinerValue) */\n      0x08fc\n        /* \"contract/lottery.sol\":12527:12542  todayWinerValue */\n      sload(0x33)\n        /* \"contract/lottery.sol\":12502:12543  payable(msg.sender).send(todayWinerValue) */\n      swap1\n      dup2\n      iszero\n      mul\n      swap1\n      mload(0x40)\n      0x00\n      mload(0x40)\n      dup1\n      dup4\n      sub\n      dup2\n      dup6\n      dup9\n      dup9\n      call\n      swap4\n      pop\n      pop\n      pop\n      pop\n        /* \"contract/lottery.sol\":12486:12543  bool payPrize = payable(msg.sender).send(todayWinerValue) */\n      swap1\n      pop\n        /* \"contract/lottery.sol\":12567:12575  payPrize */\n      dup1\n        /* \"contract/lottery.sol\":12563:12670  if (payPrize) {\r... */\n      iszero\n      tag_447\n      jumpi\n        /* \"contract/lottery.sol\":12622:12632  msg.sender */\n      caller\n        /* \"contract/lottery.sol\":12606:12650  payedPrize(now, msg.sender, todayWinerValue) */\n      0xffffffffffffffffffffffffffffffffffffffff\n      and\n      0x7c73022fe9ef1ddffacfe32ab067b48a23250b0c20fbabeace91e3cd9e63a9c0\n        /* \"contract/lottery.sol\":12617:12620  now */\n      timestamp\n        /* \"contract/lottery.sol\":12634:12649  todayWinerValue */\n      sload(0x33)\n        /* \"contract/lottery.sol\":12606:12650  payedPrize(now, msg.sender, todayWinerValue) */\n      mload(0x40)\n      dup1\n      dup4\n      dup2\n      mstore\n      0x20\n      add\n      dup3\n      dup2\n      mstore\n      0x20\n      add\n      swap3\n      pop\n      pop\n      pop\n      mload(0x40)\n      dup1\n      swap2\n      sub\n      swap1\n      log2\n        /* \"contract/lottery.sol\":12563:12670  if (payPrize) {\r... */\n    tag_447:\n        /* \"contract/lottery.sol\":12339:12685  if (todayWiner[lucky] == msg.sender){\r... */\n      pop\n    tag_443:\n        /* \"contract/lottery.sol\":12315:12322  lucky++ */\n      dup1\n      dup1\n      0x01\n      add\n      swap2\n      pop\n      pop\n        /* \"contract/lottery.sol\":12280:12696  for (uint8 lucky = 0; lucky <= 49; lucky++) {\r... */\n      jump(tag_438)\n    tag_439:\n      pop\n        /* \"contract/lottery.sol\":136:137  1 */\n      0x01\n        /* \"contract/lottery.sol\":442:449  _status */\n      0x00\n        /* \"contract/lottery.sol\":442:464  _status = _NOT_ENTERED */\n      dup2\n      swap1\n      sstore\n      pop\n        /* \"contract/lottery.sol\":12229:12703  function getPrize() public nonReentrant{\r... */\n      jump\t// out\n        /* \"contract/lottery.sol\":17115:17210  function getRoiRound() public view returns(uint[16] memory) {\r... */\n    tag_224:\n        /* \"contract/lottery.sol\":17158:17173  uint[16] memory */\n      tag_448\n      tag_342\n      jump\t// in\n    tag_448:\n        /* \"contract/lottery.sol\":17193:17202  RoiRounds */\n      0x35\n        /* \"contract/lottery.sol\":17186:17202  return RoiRounds */\n      0x10\n      dup1\n      0x20\n      mul\n      mload(0x40)\n      swap1\n      dup2\n      add\n      0x40\n      mstore\n      dup1\n      swap3\n      swap2\n      swap1\n      dup3\n      0x10\n      dup1\n      iszero\n      tag_450\n      jumpi\n      0x20\n      mul\n      dup3\n      add\n      swap2\n    tag_451:\n      dup2\n      sload\n      dup2\n      mstore\n      0x20\n      add\n      swap1\n      0x01\n      add\n      swap1\n      dup1\n      dup4\n      gt\n      tag_451\n      jumpi\n    tag_450:\n      pop\n      pop\n      pop\n      pop\n      pop\n      swap1\n      pop\n        /* \"contract/lottery.sol\":17115:17210  function getRoiRound() public view returns(uint[16] memory) {\r... */\n      swap1\n      jump\t// out\n        /* \"contract/lottery.sol\":18517:19083  function getPlaceInQueue(address userAddress, uint8 round) public view returns(uint, uint) {\r... */\n    tag_231:\n        /* \"contract/lottery.sol\":18596:18600  uint */\n      0x00\n        /* \"contract/lottery.sol\":18602:18606  uint */\n      dup1\n        /* \"contract/lottery.sol\":18635:18636  0 */\n      0x00\n        /* \"contract/lottery.sol\":18627:18632  round */\n      dup4\n        /* \"contract/lottery.sol\":18627:18636  round > 0 */\n      0xff\n      and\n      gt\n        /* \"contract/lottery.sol\":18627:18660  round > 0 && round <= totalrounds */\n      dup1\n      iszero\n      tag_453\n      jumpi\n      pop\n        /* \"contract/lottery.sol\":18649:18660  totalrounds */\n      sload(0x69)\n        /* \"contract/lottery.sol\":18640:18645  round */\n      dup4\n        /* \"contract/lottery.sol\":18640:18660  round <= totalrounds */\n      0xff\n      and\n      gt\n      iszero\n        /* \"contract/lottery.sol\":18627:18660  round > 0 && round <= totalrounds */\n    tag_453:\n        /* \"contract/lottery.sol\":18619:18678  require(round > 0 && round <= totalrounds, \"Invalid round\") */\n      tag_454\n      jumpi\n      mload(0x40)\n      0x08c379a000000000000000000000000000000000000000000000000000000000\n      dup2\n      mstore\n      0x04\n      add\n      dup1\n      dup1\n      0x20\n      add\n      dup3\n      dup2\n      sub\n      dup3\n      mstore\n      0x0d\n      dup2\n      mstore\n      0x20\n      add\n      dup1\n      0x496e76616c696420726f756e6400000000000000000000000000000000000000\n      dup2\n      mstore\n      pop\n      0x20\n      add\n      swap2\n      pop\n      pop\n      mload(0x40)\n      dup1\n      swap2\n      sub\n      swap1\n      revert\n    tag_454:\n        /* \"contract/lottery.sol\":18693:18698  users */\n      0x6b\n        /* \"contract/lottery.sol\":18693:18711  users[userAddress] */\n      0x00\n        /* \"contract/lottery.sol\":18699:18710  userAddress */\n      dup6\n        /* \"contract/lottery.sol\":18693:18711  users[userAddress] */\n      0xffffffffffffffffffffffffffffffffffffffff\n      and\n      0xffffffffffffffffffffffffffffffffffffffff\n      and\n      dup2\n      mstore\n      0x20\n      add\n      swap1\n      dup2\n      mstore\n      0x20\n      add\n      0x00\n      keccak256\n        /* \"contract/lottery.sol\":18693:18718  users[userAddress].rounds */\n      0x07\n      add\n        /* \"contract/lottery.sol\":18693:18725  users[userAddress].rounds[round] */\n      0x00\n        /* \"contract/lottery.sol\":18719:18724  round */\n      dup5\n        /* \"contract/lottery.sol\":18693:18725  users[userAddress].rounds[round] */\n      0xff\n      and\n      0xff\n      and\n      dup2\n      mstore\n      0x20\n      add\n      swap1\n      dup2\n      mstore\n      0x20\n      add\n      0x00\n      keccak256\n        /* \"contract/lottery.sol\":18693:18732  users[userAddress].rounds[round].active */\n      0x00\n      add\n      0x06\n      swap1\n      sload\n      swap1\n      0x0100\n      exp\n      swap1\n      div\n      0xff\n      and\n        /* \"contract/lottery.sol\":18689:18774  if(!users[userAddress].rounds[round].active) {\r... */\n      tag_455\n      jumpi\n        /* \"contract/lottery.sol\":18757:18758  0 */\n      0x00\n        /* \"contract/lottery.sol\":18760:18761  0 */\n      dup1\n        /* \"contract/lottery.sol\":18749:18762  return (0, 0) */\n      swap2\n      pop\n      swap2\n      pop\n      jump(tag_452)\n        /* \"contract/lottery.sol\":18689:18774  if(!users[userAddress].rounds[round].active) {\r... */\n    tag_455:\n        /* \"contract/lottery.sol\":18784:18794  uint place */\n      0x00\n        /* \"contract/lottery.sol\":18813:18819  uint i */\n      dup1\n        /* \"contract/lottery.sol\":18822:18831  headIndex */\n      0x6e\n        /* \"contract/lottery.sol\":18822:18838  headIndex[round] */\n      0x00\n        /* \"contract/lottery.sol\":18832:18837  round */\n      dup7\n        /* \"contract/lottery.sol\":18822:18838  headIndex[round] */\n      0xff\n      and\n      0xff\n      and\n      dup2\n      mstore\n      0x20\n      add\n      swap1\n      dup2\n      mstore\n      0x20\n      add\n      0x00\n      keccak256\n      sload\n        /* \"contract/lottery.sol\":18813:18838  uint i = headIndex[round] */\n      swap1\n      pop\n        /* \"contract/lottery.sol\":18809:19057  for(uint i = headIndex[round]; i < roundQueue[round].length; i++) {\r... */\n    tag_456:\n        /* \"contract/lottery.sol\":18844:18854  roundQueue */\n      0x6d\n        /* \"contract/lottery.sol\":18844:18861  roundQueue[round] */\n      0x00\n        /* \"contract/lottery.sol\":18855:18860  round */\n      dup7\n        /* \"contract/lottery.sol\":18844:18861  roundQueue[round] */\n      0xff\n      and\n      0xff\n      and\n      dup2\n      mstore\n      0x20\n      add\n      swap1\n      dup2\n      mstore\n      0x20\n      add\n      0x00\n      keccak256\n        /* \"contract/lottery.sol\":18844:18868  roundQueue[round].length */\n      dup1\n      sload\n      swap1\n      pop\n        /* \"contract/lottery.sol\":18840:18841  i */\n      dup2\n        /* \"contract/lottery.sol\":18840:18868  i < roundQueue[round].length */\n      lt\n        /* \"contract/lottery.sol\":18809:19057  for(uint i = headIndex[round]; i < roundQueue[round].length; i++) {\r... */\n      iszero\n      tag_457\n      jumpi\n        /* \"contract/lottery.sol\":18890:18897  place++ */\n      dup2\n      dup1\n      0x01\n      add\n      swap3\n      pop\n      pop\n        /* \"contract/lottery.sol\":18939:18950  userAddress */\n      dup6\n        /* \"contract/lottery.sol\":18915:18950  roundQueue[round][i] == userAddress */\n      0xffffffffffffffffffffffffffffffffffffffff\n      and\n        /* \"contract/lottery.sol\":18915:18925  roundQueue */\n      0x6d\n        /* \"contract/lottery.sol\":18915:18932  roundQueue[round] */\n      0x00\n        /* \"contract/lottery.sol\":18926:18931  round */\n      dup8\n        /* \"contract/lottery.sol\":18915:18932  roundQueue[round] */\n      0xff\n      and\n      0xff\n      and\n      dup2\n      mstore\n      0x20\n      add\n      swap1\n      dup2\n      mstore\n      0x20\n      add\n      0x00\n      keccak256\n        /* \"contract/lottery.sol\":18933:18934  i */\n      dup3\n        /* \"contract/lottery.sol\":18915:18935  roundQueue[round][i] */\n      dup2\n      sload\n      dup2\n      lt\n      tag_459\n      jumpi\n      invalid\n    tag_459:\n      swap1\n      0x00\n      mstore\n      keccak256(0x00, 0x20)\n      add\n      0x00\n      swap1\n      sload\n      swap1\n      0x0100\n      exp\n      swap1\n      div\n      0xffffffffffffffffffffffffffffffffffffffff\n      and\n        /* \"contract/lottery.sol\":18915:18950  roundQueue[round][i] == userAddress */\n      0xffffffffffffffffffffffffffffffffffffffff\n      and\n      eq\n        /* \"contract/lottery.sol\":18912:19046  if(roundQueue[round][i] == userAddress) {\r... */\n      iszero\n      tag_461\n      jumpi\n        /* \"contract/lottery.sol\":18979:18984  place */\n      dup2\n        /* \"contract/lottery.sol\":19013:19022  headIndex */\n      0x6e\n        /* \"contract/lottery.sol\":19013:19029  headIndex[round] */\n      0x00\n        /* \"contract/lottery.sol\":19023:19028  round */\n      dup8\n        /* \"contract/lottery.sol\":19013:19029  headIndex[round] */\n      0xff\n      and\n      0xff\n      and\n      dup2\n      mstore\n      0x20\n      add\n      swap1\n      dup2\n      mstore\n      0x20\n      add\n      0x00\n      keccak256\n      sload\n        /* \"contract/lottery.sol\":18986:18996  roundQueue */\n      0x6d\n        /* \"contract/lottery.sol\":18986:19003  roundQueue[round] */\n      0x00\n        /* \"contract/lottery.sol\":18997:19002  round */\n      dup9\n        /* \"contract/lottery.sol\":18986:19003  roundQueue[round] */\n      0xff\n      and\n      0xff\n      and\n      dup2\n      mstore\n      0x20\n      add\n      swap1\n      dup2\n      mstore\n      0x20\n      add\n      0x00\n      keccak256\n        /* \"contract/lottery.sol\":18986:19010  roundQueue[round].length */\n      dup1\n      sload\n      swap1\n      pop\n        /* \"contract/lottery.sol\":18986:19029  roundQueue[round].length - headIndex[round] */\n      sub\n        /* \"contract/lottery.sol\":18971:19030  return (place, roundQueue[round].length - headIndex[round]) */\n      swap4\n      pop\n      swap4\n      pop\n      pop\n      pop\n      jump(tag_452)\n        /* \"contract/lottery.sol\":18912:19046  if(roundQueue[round][i] == userAddress) {\r... */\n    tag_461:\n        /* \"contract/lottery.sol\":18870:18873  i++ */\n      dup1\n      dup1\n      0x01\n      add\n      swap2\n      pop\n      pop\n        /* \"contract/lottery.sol\":18809:19057  for(uint i = headIndex[round]; i < roundQueue[round].length; i++) {\r... */\n      jump(tag_456)\n    tag_457:\n      pop\n        /* \"contract/lottery.sol\":19067:19075  revert() */\n      0x00\n      dup1\n      revert\n        /* \"contract/lottery.sol\":18517:19083  function getPlaceInQueue(address userAddress, uint8 round) public view returns(uint, uint) {\r... */\n    tag_452:\n      swap3\n      pop\n      swap3\n      swap1\n      pop\n      jump\t// out\n        /* \"contract/lottery.sol\":3052:3095  uint8 public constant marketingPercents = 7 */\n    tag_234:\n        /* \"contract/lottery.sol\":3094:3095  7 */\n      0x07\n        /* \"contract/lottery.sol\":3052:3095  uint8 public constant marketingPercents = 7 */\n      dup2\n      jump\t// out\n        /* \"contract/lottery.sol\":566:593  uint public todayWinerValue */\n    tag_237:\n      sload(0x33)\n      dup2\n      jump\t// out\n        /* \"contract/lottery.sol\":13654:14611  function sendPostRewardToReferrer(address userAddress, uint8 round, uint rewardValue) private {\r... */\n    tag_285:\n        /* \"contract/lottery.sol\":13769:13785  address referrer */\n      0x00\n        /* \"contract/lottery.sol\":13788:13793  users */\n      0x6b\n        /* \"contract/lottery.sol\":13788:13806  users[userAddress] */\n      0x00\n        /* \"contract/lottery.sol\":13794:13805  userAddress */\n      dup6\n        /* \"contract/lottery.sol\":13788:13806  users[userAddress] */\n      0xffffffffffffffffffffffffffffffffffffffff\n      and\n      0xffffffffffffffffffffffffffffffffffffffff\n      and\n      dup2\n      mstore\n      0x20\n      add\n      swap1\n      dup2\n      mstore\n      0x20\n      add\n      0x00\n      keccak256\n        /* \"contract/lottery.sol\":13788:13815  users[userAddress].referrer */\n      0x02\n      add\n      0x00\n      swap1\n      sload\n      swap1\n      0x0100\n      exp\n      swap1\n      div\n      0xffffffffffffffffffffffffffffffffffffffff\n      and\n        /* \"contract/lottery.sol\":13769:13815  address referrer = users[userAddress].referrer */\n      swap1\n      pop\n        /* \"contract/lottery.sol\":13841:13846  users */\n      0x6b\n        /* \"contract/lottery.sol\":13841:13856  users[referrer] */\n      0x00\n        /* \"contract/lottery.sol\":13847:13855  referrer */\n      dup3\n        /* \"contract/lottery.sol\":13841:13856  users[referrer] */\n      0xffffffffffffffffffffffffffffffffffffffff\n      and\n      0xffffffffffffffffffffffffffffffffffffffff\n      and\n      dup2\n      mstore\n      0x20\n      add\n      swap1\n      dup2\n      mstore\n      0x20\n      add\n      0x00\n      keccak256\n        /* \"contract/lottery.sol\":13841:13863  users[referrer].rounds */\n      0x07\n      add\n        /* \"contract/lottery.sol\":13841:13870  users[referrer].rounds[round] */\n      0x00\n        /* \"contract/lottery.sol\":13864:13869  round */\n      dup5\n        /* \"contract/lottery.sol\":13841:13870  users[referrer].rounds[round] */\n      0xff\n      and\n      0xff\n      and\n      dup2\n      mstore\n      0x20\n      add\n      swap1\n      dup2\n      mstore\n      0x20\n      add\n      0x00\n      keccak256\n        /* \"contract/lottery.sol\":13841:13877  users[referrer].rounds[round].active */\n      0x00\n      add\n      0x06\n      swap1\n      sload\n      swap1\n      0x0100\n      exp\n      swap1\n      div\n      0xff\n      and\n        /* \"contract/lottery.sol\":13836:14198  if (!users[referrer].rounds[round].active ) {\r... */\n      tag_463\n      jumpi\n        /* \"contract/lottery.sol\":13938:13949  rewardValue */\n      dup2\n        /* \"contract/lottery.sol\":13895:13900  users */\n      0x6b\n        /* \"contract/lottery.sol\":13895:13910  users[referrer] */\n      0x00\n        /* \"contract/lottery.sol\":13901:13909  referrer */\n      dup4\n        /* \"contract/lottery.sol\":13895:13910  users[referrer] */\n      0xffffffffffffffffffffffffffffffffffffffff\n      and\n      0xffffffffffffffffffffffffffffffffffffffff\n      and\n      dup2\n      mstore\n      0x20\n      add\n      swap1\n      dup2\n      mstore\n      0x20\n      add\n      0x00\n      keccak256\n        /* \"contract/lottery.sol\":13895:13934  users[referrer].missedReferralPayoutSum */\n      0x06\n      add\n      0x00\n        /* \"contract/lottery.sol\":13895:13949  users[referrer].missedReferralPayoutSum += rewardValue */\n      dup3\n      dup3\n      sload\n      add\n      swap3\n      pop\n      pop\n      dup2\n      swap1\n      sstore\n      pop\n        /* \"contract/lottery.sol\":14022:14033  rewardValue */\n      dup2\n        /* \"contract/lottery.sol\":13964:13969  users */\n      0x6b\n        /* \"contract/lottery.sol\":13964:13979  users[referrer] */\n      0x00\n        /* \"contract/lottery.sol\":13970:13978  referrer */\n      dup4\n        /* \"contract/lottery.sol\":13964:13979  users[referrer] */\n      0xffffffffffffffffffffffffffffffffffffffff\n      and\n      0xffffffffffffffffffffffffffffffffffffffff\n      and\n      dup2\n      mstore\n      0x20\n      add\n      swap1\n      dup2\n      mstore\n      0x20\n      add\n      0x00\n      keccak256\n        /* \"contract/lottery.sol\":13964:13986  users[referrer].rounds */\n      0x07\n      add\n        /* \"contract/lottery.sol\":13964:13993  users[referrer].rounds[round] */\n      0x00\n        /* \"contract/lottery.sol\":13987:13992  round */\n      dup6\n        /* \"contract/lottery.sol\":13964:13993  users[referrer].rounds[round] */\n      0xff\n      and\n      0xff\n      and\n      dup2\n      mstore\n      0x20\n      add\n      swap1\n      dup2\n      mstore\n      0x20\n      add\n      0x00\n      keccak256\n        /* \"contract/lottery.sol\":13964:14018  users[referrer].rounds[round].missedRefferalPostProfit */\n      0x05\n      add\n      0x00\n        /* \"contract/lottery.sol\":13964:14033  users[referrer].rounds[round].missedRefferalPostProfit += rewardValue */\n      dup3\n      dup3\n      sload\n      add\n      swap3\n      pop\n      pop\n      dup2\n      swap1\n      sstore\n      pop\n        /* \"contract/lottery.sol\":14083:14091  referrer */\n      dup1\n        /* \"contract/lottery.sol\":14053:14155  MissedReferralPostPayout(now, referrer, users[referrer].id, users[userAddress].id, round, rewardValue) */\n      0xffffffffffffffffffffffffffffffffffffffff\n      and\n      0x0883bf1f67528bdc0cbaa14cb71f54e9f4e65ec49eceaf639cb93a9e50aefc4c\n        /* \"contract/lottery.sol\":14078:14081  now */\n      timestamp\n        /* \"contract/lottery.sol\":14093:14098  users */\n      0x6b\n        /* \"contract/lottery.sol\":14093:14108  users[referrer] */\n      0x00\n        /* \"contract/lottery.sol\":14099:14107  referrer */\n      dup6\n        /* \"contract/lottery.sol\":14093:14108  users[referrer] */\n      0xffffffffffffffffffffffffffffffffffffffff\n      and\n      0xffffffffffffffffffffffffffffffffffffffff\n      and\n      dup2\n      mstore\n      0x20\n      add\n      swap1\n      dup2\n      mstore\n      0x20\n      add\n      0x00\n      keccak256\n        /* \"contract/lottery.sol\":14093:14111  users[referrer].id */\n      0x00\n      add\n      sload\n        /* \"contract/lottery.sol\":14113:14118  users */\n      0x6b\n        /* \"contract/lottery.sol\":14113:14131  users[userAddress] */\n      0x00\n        /* \"contract/lottery.sol\":14119:14130  userAddress */\n      dup10\n        /* \"contract/lottery.sol\":14113:14131  users[userAddress] */\n      0xffffffffffffffffffffffffffffffffffffffff\n      and\n      0xffffffffffffffffffffffffffffffffffffffff\n      and\n      dup2\n      mstore\n      0x20\n      add\n      swap1\n      dup2\n      mstore\n      0x20\n      add\n      0x00\n      keccak256\n        /* \"contract/lottery.sol\":14113:14134  users[userAddress].id */\n      0x00\n      add\n      sload\n        /* \"contract/lottery.sol\":14136:14141  round */\n      dup8\n        /* \"contract/lottery.sol\":14143:14154  rewardValue */\n      dup8\n        /* \"contract/lottery.sol\":14053:14155  MissedReferralPostPayout(now, referrer, users[referrer].id, users[userAddress].id, round, rewardValue) */\n      mload(0x40)\n      dup1\n      dup7\n      dup2\n      mstore\n      0x20\n      add\n      dup6\n      dup2\n      mstore\n      0x20\n      add\n      dup5\n      dup2\n      mstore\n      0x20\n      add\n      dup4\n      0xff\n      and\n      dup2\n      mstore\n      0x20\n      add\n      dup3\n      dup2\n      mstore\n      0x20\n      add\n      swap6\n      pop\n      pop\n      pop\n      pop\n      pop\n      pop\n      mload(0x40)\n      dup1\n      swap2\n      sub\n      swap1\n      log2\n        /* \"contract/lottery.sol\":14181:14186  owner */\n      0x66\n      0x02\n      swap1\n      sload\n      swap1\n      0x0100\n      exp\n      swap1\n      div\n      0xffffffffffffffffffffffffffffffffffffffff\n      and\n        /* \"contract/lottery.sol\":14170:14186  referrer = owner */\n      swap1\n      pop\n        /* \"contract/lottery.sol\":13836:14198  if (!users[referrer].rounds[round].active ) {\r... */\n    tag_463:\n        /* \"contract/lottery.sol\":14208:14217  bool sent */\n      0x00\n        /* \"contract/lottery.sol\":14228:14236  referrer */\n      dup2\n        /* \"contract/lottery.sol\":14220:14242  payable(referrer).send */\n      0xffffffffffffffffffffffffffffffffffffffff\n      and\n        /* \"contract/lottery.sol\":14220:14255  payable(referrer).send(rewardValue) */\n      0x08fc\n        /* \"contract/lottery.sol\":14243:14254  rewardValue */\n      dup5\n        /* \"contract/lottery.sol\":14220:14255  payable(referrer).send(rewardValue) */\n      swap1\n      dup2\n      iszero\n      mul\n      swap1\n      mload(0x40)\n      0x00\n      mload(0x40)\n      dup1\n      dup4\n      sub\n      dup2\n      dup6\n      dup9\n      dup9\n      call\n      swap4\n      pop\n      pop\n      pop\n      pop\n        /* \"contract/lottery.sol\":14208:14255  bool sent = payable(referrer).send(rewardValue) */\n      swap1\n      pop\n        /* \"contract/lottery.sol\":14270:14274  sent */\n      dup1\n        /* \"contract/lottery.sol\":14266:14604  if (sent) {\r... */\n      iszero\n      tag_465\n      jumpi\n        /* \"contract/lottery.sol\":14342:14353  rewardValue */\n      dup3\n        /* \"contract/lottery.sol\":14291:14296  users */\n      0x6b\n        /* \"contract/lottery.sol\":14291:14306  users[referrer] */\n      0x00\n        /* \"contract/lottery.sol\":14297:14305  referrer */\n      dup5\n        /* \"contract/lottery.sol\":14291:14306  users[referrer] */\n      0xffffffffffffffffffffffffffffffffffffffff\n      and\n      0xffffffffffffffffffffffffffffffffffffffff\n      and\n      dup2\n      mstore\n      0x20\n      add\n      swap1\n      dup2\n      mstore\n      0x20\n      add\n      0x00\n      keccak256\n        /* \"contract/lottery.sol\":14291:14313  users[referrer].rounds */\n      0x07\n      add\n        /* \"contract/lottery.sol\":14291:14320  users[referrer].rounds[round] */\n      0x00\n        /* \"contract/lottery.sol\":14314:14319  round */\n      dup7\n        /* \"contract/lottery.sol\":14291:14320  users[referrer].rounds[round] */\n      0xff\n      and\n      0xff\n      and\n      dup2\n      mstore\n      0x20\n      add\n      swap1\n      dup2\n      mstore\n      0x20\n      add\n      0x00\n      keccak256\n        /* \"contract/lottery.sol\":14291:14338  users[referrer].rounds[round].referralPayoutSum */\n      0x02\n      add\n      0x00\n        /* \"contract/lottery.sol\":14291:14353  users[referrer].rounds[round].referralPayoutSum += rewardValue */\n      dup3\n      dup3\n      sload\n      add\n      swap3\n      pop\n      pop\n      dup2\n      swap1\n      sstore\n      pop\n        /* \"contract/lottery.sol\":14405:14416  rewardValue */\n      dup3\n        /* \"contract/lottery.sol\":14368:14373  users */\n      0x6b\n        /* \"contract/lottery.sol\":14368:14383  users[referrer] */\n      0x00\n        /* \"contract/lottery.sol\":14374:14382  referrer */\n      dup5\n        /* \"contract/lottery.sol\":14368:14383  users[referrer] */\n      0xffffffffffffffffffffffffffffffffffffffff\n      and\n      0xffffffffffffffffffffffffffffffffffffffff\n      and\n      dup2\n      mstore\n      0x20\n      add\n      swap1\n      dup2\n      mstore\n      0x20\n      add\n      0x00\n      keccak256\n        /* \"contract/lottery.sol\":14368:14401  users[referrer].referralPayoutSum */\n      0x04\n      add\n      0x00\n        /* \"contract/lottery.sol\":14368:14416  users[referrer].referralPayoutSum += rewardValue */\n      dup3\n      dup3\n      sload\n      add\n      swap3\n      pop\n      pop\n      dup2\n      swap1\n      sstore\n      pop\n        /* \"contract/lottery.sol\":14460:14468  referrer */\n      dup2\n        /* \"contract/lottery.sol\":14436:14532  ReferralPostPayout(now, referrer, users[referrer].id, users[userAddress].id, round, rewardValue) */\n      0xffffffffffffffffffffffffffffffffffffffff\n      and\n      0x0ed8e24e8c3d702aae6ec32d5d8fbb15b20e1905fcd8e9a2313dff009a821750\n        /* \"contract/lottery.sol\":14455:14458  now */\n      timestamp\n        /* \"contract/lottery.sol\":14470:14475  users */\n      0x6b\n        /* \"contract/lottery.sol\":14470:14485  users[referrer] */\n      0x00\n        /* \"contract/lottery.sol\":14476:14484  referrer */\n      dup7\n        /* \"contract/lottery.sol\":14470:14485  users[referrer] */\n      0xffffffffffffffffffffffffffffffffffffffff\n      and\n      0xffffffffffffffffffffffffffffffffffffffff\n      and\n      dup2\n      mstore\n      0x20\n      add\n      swap1\n      dup2\n      mstore\n      0x20\n      add\n      0x00\n      keccak256\n        /* \"contract/lottery.sol\":14470:14488  users[referrer].id */\n      0x00\n      add\n      sload\n        /* \"contract/lottery.sol\":14490:14495  users */\n      0x6b\n        /* \"contract/lottery.sol\":14490:14508  users[userAddress] */\n      0x00\n        /* \"contract/lottery.sol\":14496:14507  userAddress */\n      dup11\n        /* \"contract/lottery.sol\":14490:14508  users[userAddress] */\n      0xffffffffffffffffffffffffffffffffffffffff\n      and\n      0xffffffffffffffffffffffffffffffffffffffff\n      and\n      dup2\n      mstore\n      0x20\n      add\n      swap1\n      dup2\n      mstore\n      0x20\n      add\n      0x00\n      keccak256\n        /* \"contract/lottery.sol\":14490:14511  users[userAddress].id */\n      0x00\n      add\n      sload\n        /* \"contract/lottery.sol\":14513:14518  round */\n      dup9\n        /* \"contract/lottery.sol\":14520:14531  rewardValue */\n      dup9\n        /* \"contract/lottery.sol\":14436:14532  ReferralPostPayout(now, referrer, users[referrer].id, users[userAddress].id, round, rewardValue) */\n      mload(0x40)\n      dup1\n      dup7\n      dup2\n      mstore\n      0x20\n      add\n      dup6\n      dup2\n      mstore\n      0x20\n      add\n      dup5\n      dup2\n      mstore\n      0x20\n      add\n      dup4\n      0xff\n      and\n      dup2\n      mstore\n      0x20\n      add\n      dup3\n      dup2\n      mstore\n      0x20\n      add\n      swap6\n      pop\n      pop\n      pop\n      pop\n      pop\n      pop\n      mload(0x40)\n      dup1\n      swap2\n      sub\n      swap1\n      log2\n        /* \"contract/lottery.sol\":14266:14604  if (sent) {\r... */\n      jump(tag_466)\n    tag_465:\n        /* \"contract/lottery.sol\":14565:14570  owner */\n      0x66\n      0x02\n      swap1\n      sload\n      swap1\n      0x0100\n      exp\n      swap1\n      div\n      0xffffffffffffffffffffffffffffffffffffffff\n      and\n        /* \"contract/lottery.sol\":14565:14579  owner.transfer */\n      0xffffffffffffffffffffffffffffffffffffffff\n      and\n        /* \"contract/lottery.sol\":14565:14592  owner.transfer(rewardValue) */\n      0x08fc\n        /* \"contract/lottery.sol\":14580:14591  rewardValue */\n      dup5\n        /* \"contract/lottery.sol\":14565:14592  owner.transfer(rewardValue) */\n      swap1\n      dup2\n      iszero\n      mul\n      swap1\n      mload(0x40)\n      0x00\n      mload(0x40)\n      dup1\n      dup4\n      sub\n      dup2\n      dup6\n      dup9\n      dup9\n      call\n      swap4\n      pop\n      pop\n      pop\n      pop\n      iszero\n      dup1\n      iszero\n      tag_468\n      jumpi\n      returndatasize\n      0x00\n      dup1\n      returndatacopy\n      revert(0x00, returndatasize)\n    tag_468:\n      pop\n        /* \"contract/lottery.sol\":14266:14604  if (sent) {\r... */\n    tag_466:\n        /* \"contract/lottery.sol\":13654:14611  function sendPostRewardToReferrer(address userAddress, uint8 round, uint rewardValue) private {\r... */\n      pop\n      pop\n      pop\n      pop\n      pop\n      jump\t// out\n        /* \"contract/lottery.sol\":12709:13648  function sendRewardToReferrer(address userAddress, uint8 round, uint rewardValue) private {\r... */\n    tag_303:\n        /* \"contract/lottery.sol\":12819:12835  address referrer */\n      0x00\n        /* \"contract/lottery.sol\":12838:12843  users */\n      0x6b\n        /* \"contract/lottery.sol\":12838:12856  users[userAddress] */\n      0x00\n        /* \"contract/lottery.sol\":12844:12855  userAddress */\n      dup6\n        /* \"contract/lottery.sol\":12838:12856  users[userAddress] */\n      0xffffffffffffffffffffffffffffffffffffffff\n      and\n      0xffffffffffffffffffffffffffffffffffffffff\n      and\n      dup2\n      mstore\n      0x20\n      add\n      swap1\n      dup2\n      mstore\n      0x20\n      add\n      0x00\n      keccak256\n        /* \"contract/lottery.sol\":12838:12865  users[userAddress].referrer */\n      0x02\n      add\n      0x00\n      swap1\n      sload\n      swap1\n      0x0100\n      exp\n      swap1\n      div\n      0xffffffffffffffffffffffffffffffffffffffff\n      and\n        /* \"contract/lottery.sol\":12819:12865  address referrer = users[userAddress].referrer */\n      swap1\n      pop\n        /* \"contract/lottery.sol\":12891:12896  users */\n      0x6b\n        /* \"contract/lottery.sol\":12891:12906  users[referrer] */\n      0x00\n        /* \"contract/lottery.sol\":12897:12905  referrer */\n      dup3\n        /* \"contract/lottery.sol\":12891:12906  users[referrer] */\n      0xffffffffffffffffffffffffffffffffffffffff\n      and\n      0xffffffffffffffffffffffffffffffffffffffff\n      and\n      dup2\n      mstore\n      0x20\n      add\n      swap1\n      dup2\n      mstore\n      0x20\n      add\n      0x00\n      keccak256\n        /* \"contract/lottery.sol\":12891:12913  users[referrer].rounds */\n      0x07\n      add\n        /* \"contract/lottery.sol\":12891:12920  users[referrer].rounds[round] */\n      0x00\n        /* \"contract/lottery.sol\":12914:12919  round */\n      dup5\n        /* \"contract/lottery.sol\":12891:12920  users[referrer].rounds[round] */\n      0xff\n      and\n      0xff\n      and\n      dup2\n      mstore\n      0x20\n      add\n      swap1\n      dup2\n      mstore\n      0x20\n      add\n      0x00\n      keccak256\n        /* \"contract/lottery.sol\":12891:12927  users[referrer].rounds[round].active */\n      0x00\n      add\n      0x06\n      swap1\n      sload\n      swap1\n      0x0100\n      exp\n      swap1\n      div\n      0xff\n      and\n        /* \"contract/lottery.sol\":12886:13239  if (!users[referrer].rounds[round].active) {\r... */\n      tag_470\n      jumpi\n        /* \"contract/lottery.sol\":12987:12998  rewardValue */\n      dup2\n        /* \"contract/lottery.sol\":12944:12949  users */\n      0x6b\n        /* \"contract/lottery.sol\":12944:12959  users[referrer] */\n      0x00\n        /* \"contract/lottery.sol\":12950:12958  referrer */\n      dup4\n        /* \"contract/lottery.sol\":12944:12959  users[referrer] */\n      0xffffffffffffffffffffffffffffffffffffffff\n      and\n      0xffffffffffffffffffffffffffffffffffffffff\n      and\n      dup2\n      mstore\n      0x20\n      add\n      swap1\n      dup2\n      mstore\n      0x20\n      add\n      0x00\n      keccak256\n        /* \"contract/lottery.sol\":12944:12983  users[referrer].missedReferralPayoutSum */\n      0x06\n      add\n      0x00\n        /* \"contract/lottery.sol\":12944:12998  users[referrer].missedReferralPayoutSum += rewardValue */\n      dup3\n      dup3\n      sload\n      add\n      swap3\n      pop\n      pop\n      dup2\n      swap1\n      sstore\n      pop\n        /* \"contract/lottery.sol\":13067:13078  rewardValue */\n      dup2\n        /* \"contract/lottery.sol\":13013:13018  users */\n      0x6b\n        /* \"contract/lottery.sol\":13013:13028  users[referrer] */\n      0x00\n        /* \"contract/lottery.sol\":13019:13027  referrer */\n      dup4\n        /* \"contract/lottery.sol\":13013:13028  users[referrer] */\n      0xffffffffffffffffffffffffffffffffffffffff\n      and\n      0xffffffffffffffffffffffffffffffffffffffff\n      and\n      dup2\n      mstore\n      0x20\n      add\n      swap1\n      dup2\n      mstore\n      0x20\n      add\n      0x00\n      keccak256\n        /* \"contract/lottery.sol\":13013:13035  users[referrer].rounds */\n      0x07\n      add\n        /* \"contract/lottery.sol\":13013:13042  users[referrer].rounds[round] */\n      0x00\n        /* \"contract/lottery.sol\":13036:13041  round */\n      dup6\n        /* \"contract/lottery.sol\":13013:13042  users[referrer].rounds[round] */\n      0xff\n      and\n      0xff\n      and\n      dup2\n      mstore\n      0x20\n      add\n      swap1\n      dup2\n      mstore\n      0x20\n      add\n      0x00\n      keccak256\n        /* \"contract/lottery.sol\":13013:13063  users[referrer].rounds[round].missedRefferalProfit */\n      0x04\n      add\n      0x00\n        /* \"contract/lottery.sol\":13013:13078  users[referrer].rounds[round].missedRefferalProfit += rewardValue */\n      dup3\n      dup3\n      sload\n      add\n      swap3\n      pop\n      pop\n      dup2\n      swap1\n      sstore\n      pop\n        /* \"contract/lottery.sol\":13124:13132  referrer */\n      dup1\n        /* \"contract/lottery.sol\":13098:13196  MissedReferralPayout(now, referrer, users[referrer].id, users[userAddress].id, round, rewardValue) */\n      0xffffffffffffffffffffffffffffffffffffffff\n      and\n      0x71571cfdf540d399d1a547446d2f4090641fc35ae5bf0fa7148c5368a7d5912e\n        /* \"contract/lottery.sol\":13119:13122  now */\n      timestamp\n        /* \"contract/lottery.sol\":13134:13139  users */\n      0x6b\n        /* \"contract/lottery.sol\":13134:13149  users[referrer] */\n      0x00\n        /* \"contract/lottery.sol\":13140:13148  referrer */\n      dup6\n        /* \"contract/lottery.sol\":13134:13149  users[referrer] */\n      0xffffffffffffffffffffffffffffffffffffffff\n      and\n      0xffffffffffffffffffffffffffffffffffffffff\n      and\n      dup2\n      mstore\n      0x20\n      add\n      swap1\n      dup2\n      mstore\n      0x20\n      add\n      0x00\n      keccak256\n        /* \"contract/lottery.sol\":13134:13152  users[referrer].id */\n      0x00\n      add\n      sload\n        /* \"contract/lottery.sol\":13154:13159  users */\n      0x6b\n        /* \"contract/lottery.sol\":13154:13172  users[userAddress] */\n      0x00\n        /* \"contract/lottery.sol\":13160:13171  userAddress */\n      dup10\n        /* \"contract/lottery.sol\":13154:13172  users[userAddress] */\n      0xffffffffffffffffffffffffffffffffffffffff\n      and\n      0xffffffffffffffffffffffffffffffffffffffff\n      and\n      dup2\n      mstore\n      0x20\n      add\n      swap1\n      dup2\n      mstore\n      0x20\n      add\n      0x00\n      keccak256\n        /* \"contract/lottery.sol\":13154:13175  users[userAddress].id */\n      0x00\n      add\n      sload\n        /* \"contract/lottery.sol\":13177:13182  round */\n      dup8\n        /* \"contract/lottery.sol\":13184:13195  rewardValue */\n      dup8\n        /* \"contract/lottery.sol\":13098:13196  MissedReferralPayout(now, referrer, users[referrer].id, users[userAddress].id, round, rewardValue) */\n      mload(0x40)\n      dup1\n      dup7\n      dup2\n      mstore\n      0x20\n      add\n      dup6\n      dup2\n      mstore\n      0x20\n      add\n      dup5\n      dup2\n      mstore\n      0x20\n      add\n      dup4\n      0xff\n      and\n      dup2\n      mstore\n      0x20\n      add\n      dup3\n      dup2\n      mstore\n      0x20\n      add\n      swap6\n      pop\n      pop\n      pop\n      pop\n      pop\n      pop\n      mload(0x40)\n      dup1\n      swap2\n      sub\n      swap1\n      log2\n        /* \"contract/lottery.sol\":13222:13227  owner */\n      0x66\n      0x02\n      swap1\n      sload\n      swap1\n      0x0100\n      exp\n      swap1\n      div\n      0xffffffffffffffffffffffffffffffffffffffff\n      and\n        /* \"contract/lottery.sol\":13211:13227  referrer = owner */\n      swap1\n      pop\n        /* \"contract/lottery.sol\":12886:13239  if (!users[referrer].rounds[round].active) {\r... */\n    tag_470:\n        /* \"contract/lottery.sol\":13249:13258  bool sent */\n      0x00\n        /* \"contract/lottery.sol\":13269:13277  referrer */\n      dup2\n        /* \"contract/lottery.sol\":13261:13283  payable(referrer).send */\n      0xffffffffffffffffffffffffffffffffffffffff\n      and\n        /* \"contract/lottery.sol\":13261:13296  payable(referrer).send(rewardValue) */\n      0x08fc\n        /* \"contract/lottery.sol\":13284:13295  rewardValue */\n      dup5\n        /* \"contract/lottery.sol\":13261:13296  payable(referrer).send(rewardValue) */\n      swap1\n      dup2\n      iszero\n      mul\n      swap1\n      mload(0x40)\n      0x00\n      mload(0x40)\n      dup1\n      dup4\n      sub\n      dup2\n      dup6\n      dup9\n      dup9\n      call\n      swap4\n      pop\n      pop\n      pop\n      pop\n        /* \"contract/lottery.sol\":13249:13296  bool sent = payable(referrer).send(rewardValue) */\n      swap1\n      pop\n        /* \"contract/lottery.sol\":13311:13315  sent */\n      dup1\n        /* \"contract/lottery.sol\":13307:13641  if (sent) {\r... */\n      iszero\n      tag_472\n      jumpi\n        /* \"contract/lottery.sol\":13383:13394  rewardValue */\n      dup3\n        /* \"contract/lottery.sol\":13332:13337  users */\n      0x6b\n        /* \"contract/lottery.sol\":13332:13347  users[referrer] */\n      0x00\n        /* \"contract/lottery.sol\":13338:13346  referrer */\n      dup5\n        /* \"contract/lottery.sol\":13332:13347  users[referrer] */\n      0xffffffffffffffffffffffffffffffffffffffff\n      and\n      0xffffffffffffffffffffffffffffffffffffffff\n      and\n      dup2\n      mstore\n      0x20\n      add\n      swap1\n      dup2\n      mstore\n      0x20\n      add\n      0x00\n      keccak256\n        /* \"contract/lottery.sol\":13332:13354  users[referrer].rounds */\n      0x07\n      add\n        /* \"contract/lottery.sol\":13332:13361  users[referrer].rounds[round] */\n      0x00\n        /* \"contract/lottery.sol\":13355:13360  round */\n      dup7\n        /* \"contract/lottery.sol\":13332:13361  users[referrer].rounds[round] */\n      0xff\n      and\n      0xff\n      and\n      dup2\n      mstore\n      0x20\n      add\n      swap1\n      dup2\n      mstore\n      0x20\n      add\n      0x00\n      keccak256\n        /* \"contract/lottery.sol\":13332:13379  users[referrer].rounds[round].referralPayoutSum */\n      0x02\n      add\n      0x00\n        /* \"contract/lottery.sol\":13332:13394  users[referrer].rounds[round].referralPayoutSum += rewardValue */\n      dup3\n      dup3\n      sload\n      add\n      swap3\n      pop\n      pop\n      dup2\n      swap1\n      sstore\n      pop\n        /* \"contract/lottery.sol\":13446:13457  rewardValue */\n      dup3\n        /* \"contract/lottery.sol\":13409:13414  users */\n      0x6b\n        /* \"contract/lottery.sol\":13409:13424  users[referrer] */\n      0x00\n        /* \"contract/lottery.sol\":13415:13423  referrer */\n      dup5\n        /* \"contract/lottery.sol\":13409:13424  users[referrer] */\n      0xffffffffffffffffffffffffffffffffffffffff\n      and\n      0xffffffffffffffffffffffffffffffffffffffff\n      and\n      dup2\n      mstore\n      0x20\n      add\n      swap1\n      dup2\n      mstore\n      0x20\n      add\n      0x00\n      keccak256\n        /* \"contract/lottery.sol\":13409:13442  users[referrer].referralPayoutSum */\n      0x04\n      add\n      0x00\n        /* \"contract/lottery.sol\":13409:13457  users[referrer].referralPayoutSum += rewardValue */\n      dup3\n      dup3\n      sload\n      add\n      swap3\n      pop\n      pop\n      dup2\n      swap1\n      sstore\n      pop\n        /* \"contract/lottery.sol\":13497:13505  referrer */\n      dup2\n        /* \"contract/lottery.sol\":13477:13569  ReferralPayout(now, referrer, users[referrer].id, users[userAddress].id, round, rewardValue) */\n      0xffffffffffffffffffffffffffffffffffffffff\n      and\n      0xadbead61ed0e78434af1793fe9c549f995680ccc1d4cc2015e78bffc67b7b181\n        /* \"contract/lottery.sol\":13492:13495  now */\n      timestamp\n        /* \"contract/lottery.sol\":13507:13512  users */\n      0x6b\n        /* \"contract/lottery.sol\":13507:13522  users[referrer] */\n      0x00\n        /* \"contract/lottery.sol\":13513:13521  referrer */\n      dup7\n        /* \"contract/lottery.sol\":13507:13522  users[referrer] */\n      0xffffffffffffffffffffffffffffffffffffffff\n      and\n      0xffffffffffffffffffffffffffffffffffffffff\n      and\n      dup2\n      mstore\n      0x20\n      add\n      swap1\n      dup2\n      mstore\n      0x20\n      add\n      0x00\n      keccak256\n        /* \"contract/lottery.sol\":13507:13525  users[referrer].id */\n      0x00\n      add\n      sload\n        /* \"contract/lottery.sol\":13527:13532  users */\n      0x6b\n        /* \"contract/lottery.sol\":13527:13545  users[userAddress] */\n      0x00\n        /* \"contract/lottery.sol\":13533:13544  userAddress */\n      dup11\n        /* \"contract/lottery.sol\":13527:13545  users[userAddress] */\n      0xffffffffffffffffffffffffffffffffffffffff\n      and\n      0xffffffffffffffffffffffffffffffffffffffff\n      and\n      dup2\n      mstore\n      0x20\n      add\n      swap1\n      dup2\n      mstore\n      0x20\n      add\n      0x00\n      keccak256\n        /* \"contract/lottery.sol\":13527:13548  users[userAddress].id */\n      0x00\n      add\n      sload\n        /* \"contract/lottery.sol\":13550:13555  round */\n      dup9\n        /* \"contract/lottery.sol\":13557:13568  rewardValue */\n      dup9\n        /* \"contract/lottery.sol\":13477:13569  ReferralPayout(now, referrer, users[referrer].id, users[userAddress].id, round, rewardValue) */\n      mload(0x40)\n      dup1\n      dup7\n      dup2\n      mstore\n      0x20\n      add\n      dup6\n      dup2\n      mstore\n      0x20\n      add\n      dup5\n      dup2\n      mstore\n      0x20\n      add\n      dup4\n      0xff\n      and\n      dup2\n      mstore\n      0x20\n      add\n      dup3\n      dup2\n      mstore\n      0x20\n      add\n      swap6\n      pop\n      pop\n      pop\n      pop\n      pop\n      pop\n      mload(0x40)\n      dup1\n      swap2\n      sub\n      swap1\n      log2\n        /* \"contract/lottery.sol\":13307:13641  if (sent) {\r... */\n      jump(tag_473)\n    tag_472:\n        /* \"contract/lottery.sol\":13602:13607  owner */\n      0x66\n      0x02\n      swap1\n      sload\n      swap1\n      0x0100\n      exp\n      swap1\n      div\n      0xffffffffffffffffffffffffffffffffffffffff\n      and\n        /* \"contract/lottery.sol\":13602:13616  owner.transfer */\n      0xffffffffffffffffffffffffffffffffffffffff\n      and\n        /* \"contract/lottery.sol\":13602:13629  owner.transfer(rewardValue) */\n      0x08fc\n        /* \"contract/lottery.sol\":13617:13628  rewardValue */\n      dup5\n        /* \"contract/lottery.sol\":13602:13629  owner.transfer(rewardValue) */\n      swap1\n      dup2\n      iszero\n      mul\n      swap1\n      mload(0x40)\n      0x00\n      mload(0x40)\n      dup1\n      dup4\n      sub\n      dup2\n      dup6\n      dup9\n      dup9\n      call\n      swap4\n      pop\n      pop\n      pop\n      pop\n      iszero\n      dup1\n      iszero\n      tag_475\n      jumpi\n      returndatasize\n      0x00\n      dup1\n      returndatacopy\n      revert(0x00, returndatasize)\n    tag_475:\n      pop\n        /* \"contract/lottery.sol\":13307:13641  if (sent) {\r... */\n    tag_473:\n        /* \"contract/lottery.sol\":12709:13648  function sendRewardToReferrer(address userAddress, uint8 round, uint rewardValue) private {\r... */\n      pop\n      pop\n      pop\n      pop\n      pop\n      jump\t// out\n    tag_339:\n      mload(0x40)\n      dup1\n      0xa0\n      add\n      0x40\n      mstore\n      dup1\n      0x05\n      swap1\n      0x20\n      dup3\n      mul\n      dup1\n      calldatasize\n      dup4\n      calldatacopy\n      dup1\n      dup3\n      add\n      swap2\n      pop\n      pop\n      swap1\n      pop\n      pop\n      swap1\n      jump\t// out\n    tag_342:\n      mload(0x40)\n      dup1\n      0x0200\n      add\n      0x40\n      mstore\n      dup1\n      0x10\n      swap1\n      0x20\n      dup3\n      mul\n      dup1\n      calldatasize\n      dup4\n      calldatacopy\n      dup1\n      dup3\n      add\n      swap2\n      pop\n      pop\n      swap1\n      pop\n      pop\n      swap1\n      jump\t// out\n    tag_377:\n      mload(0x40)\n      dup1\n      0x0120\n      add\n      0x40\n      mstore\n      dup1\n      0x00\n      dup2\n      mstore\n      0x20\n      add\n      0x00\n      dup2\n      mstore\n      0x20\n      add\n      and(0xffffffffffffffffffffffffffffffffffffffff, 0x00)\n      dup2\n      mstore\n      0x20\n      add\n      0x00\n      dup2\n      mstore\n      0x20\n      add\n      0x00\n      dup2\n      mstore\n      0x20\n      add\n      0x00\n      dup2\n      mstore\n      0x20\n      add\n      0x00\n      dup2\n      mstore\n      0x20\n      add\n      and(0xff, 0x00)\n      dup2\n      mstore\n      0x20\n      add\n      0x00\n      dup2\n      mstore\n      pop\n      swap1\n      jump\t// out\n    tag_382:\n      mload(0x40)\n      dup1\n      0x0640\n      add\n      0x40\n      mstore\n      dup1\n      0x32\n      swap1\n      0x20\n      dup3\n      mul\n      dup1\n      calldatasize\n      dup4\n      calldatacopy\n      dup1\n      dup3\n      add\n      swap2\n      pop\n      pop\n      swap1\n      pop\n      pop\n      swap1\n      jump\t// out\n    stop\n    data_b6be230979c9056288d8dc9ecf24c47d930143c98ecebf6ab7c712e8601758a8 43616e27742066696e6420726f756e6420746f206275792e204d617962652073656e742076616c756520697320696e76616c69642e\n\n    auxdata: 0xa2646970667358221220ade9020688265bde1690057c614cd3097e1e4785c044ec7f849b379ecd134f3264736f6c634300060c0033\n}\n",
				"bytecode": {
					"linkReferences": {},
					"object": "60806040526009606660006101000a81548160ff021916908360ff1602179055506008606660016101000a81548160ff021916908360ff160217905550604051806102000160405280600067ffffffffffffffff16815260200166b1a2bc2ec5000067ffffffffffffffff16815260200167011c37937e08000067ffffffffffffffff1681526020016701cdda4faccd000067ffffffffffffffff16815260200167030d98d59a96000067ffffffffffffffff168152602001670494654067e1000067ffffffffffffffff1681526020016706f05b59d3b2000067ffffffffffffffff1681526020016709b6e64a8ec6000067ffffffffffffffff168152602001670e92596fd629000067ffffffffffffffff16815260200167141f6f514c51000067ffffffffffffffff168152602001671b0fcaab2003000067ffffffffffffffff16815260200167214e8348c4f0000067ffffffffffffffff1681526020016730927f74c9de000067ffffffffffffffff16815260200167482a1c730008000067ffffffffffffffff16815260200167654ecf52ac5a000067ffffffffffffffff168152602001678ac7230489e8000067ffffffffffffffff168152506068906010620001d0929190620006d6565b506001606880549050036069556002606a55348015620001ef57600080fd5b50604051620058db380380620058db833981810160405260208110156200021557600080fd5b8101908080519060200190929190505050600160008190555033606660026101000a81548173ffffffffffffffffffffffffffffffffffffffff021916908373ffffffffffffffffffffffffffffffffffffffff16021790555080606760006101000a81548173ffffffffffffffffffffffffffffffffffffffff021916908373ffffffffffffffffffffffffffffffffffffffff16021790555060405180610120016040528060018152602001428152602001600073ffffffffffffffffffffffffffffffffffffffff16815260200160008152602001600081526020016000815260200160008152602001600060ff1681526020016000815250606b6000606660029054906101000a900473ffffffffffffffffffffffffffffffffffffffff1673ffffffffffffffffffffffffffffffffffffffff1673ffffffffffffffffffffffffffffffffffffffff168152602001908152602001600020600082015181600001556020820151816001015560408201518160020160006101000a81548173ffffffffffffffffffffffffffffffffffffffff021916908373ffffffffffffffffffffffffffffffffffffffff160217905550606082015181600301556080820151816004015560a0820151816005015560c0820151816006015560e08201518160080160006101000a81548160ff021916908360ff1602179055506101008201518160090155905050606660029054906101000a900473ffffffffffffffffffffffffffffffffffffffff16606c60006001815260200190815260200160002060006101000a81548173ffffffffffffffffffffffffffffffffffffffff021916908373ffffffffffffffffffffffffffffffffffffffff160217905550606f60000160008154809291906001019190505550606f600101600081548092919060010191905055506000600190505b6069548160ff1611620006ce57620d2f00420160458260ff1660108110620004ee57fe5b01819055506001606b6000606660029054906101000a900473ffffffffffffffffffffffffffffffffffffffff1673ffffffffffffffffffffffffffffffffffffffff1673ffffffffffffffffffffffffffffffffffffffff16815260200190815260200160002060070160008360ff1660ff16815260200190815260200160002060000160066101000a81548160ff021916908315150217905550600f606b6000606660029054906101000a900473ffffffffffffffffffffffffffffffffffffffff1673ffffffffffffffffffffffffffffffffffffffff1673ffffffffffffffffffffffffffffffffffffffff16815260200190815260200160002060070160008360ff1660ff16815260200190815260200160002060000160026101000a81548161ffff021916908361ffff160217905550606d60008260ff1660ff168152602001908152602001600020606660029054906101000a900473ffffffffffffffffffffffffffffffffffffffff169080600181540180825580915050600190039060005260206000200160009091909190916101000a81548173ffffffffffffffffffffffffffffffffffffffff021916908373ffffffffffffffffffffffffffffffffffffffff1602179055508080600101915050620004ca565b505062000753565b82805482825590600052602060002090810192821562000721579160200282015b8281111562000720578251829067ffffffffffffffff16905591602001919060010190620006f7565b5b50905062000730919062000734565b5090565b5b808211156200074f57600081600090555060010162000735565b5090565b61517880620007636000396000f3fe60806040526004361061023f5760003560e01c8063693864f31161012e578063a7345f56116100ab578063c34f6b0d1161006f578063c34f6b0d14610fd9578063c8e161a114610ff0578063cfce504414611043578063eca2c026146110bc578063f21efb5b146110ea57610310565b8063a7345f5614610e6f578063a9a9cfe014610e9d578063b3791e7f14610f02578063bd4b77ee14610f46578063bfe2489314610fab57610310565b80638a03ad86116100f25780638a03ad8614610cf75780638c4636c114610d5c5780638da5cb5b14610daf578063950fabf314610df0578063968763a014610e2b57610310565b8063693864f314610b8e5780636f77926b14610bdd5780636f9fb98a14610c975780637ccd94da14610cc257806388b4504614610ced57610310565b80632d3e474a116101bc5780634cdbe908116101805780634cdbe908146109a35780635a8a14d0146109d15780635c279ff914610a025780635ce974b914610af05780635d7b1cc914610b3f57610310565b80632d3e474a146107dd5780633336b63e1461081e578063375e3b5514610871578063385399f9146108c35780634a9fefc71461092857610310565b8063216586581161020357806321658658146104be578063230f7f82146104e957806326efd443146106f75780632a2c908e1461075c5780632cc8da43146107af57610310565b806301b91a17146103155780631627905514610381578063163f7522146103e85780631aa3a0081461044f5780631dfd8fe01461045957610310565b36610310576000600190505b6069548160ff16116102bc573460688260ff168154811061026857fe5b906000526020600020015414156102af5760018160ff16148015610292575061029033611115565b155b156102a05761029f611164565b5b6102a981611191565b5061030e565b808060010191505061024b565b506040517f08c379a000000000000000000000000000000000000000000000000000000000815260040180806020018281038252603581526020018061510e6035913960400191505060405180910390fd5b005b600080fd5b34801561032157600080fd5b5061032a612931565b6040518080602001828103825283818151815260200191508051906020019060200280838360005b8381101561036d578082015181840152602081019050610352565b505050509050019250505060405180910390f35b34801561038d57600080fd5b506103d0600480360360208110156103a457600080fd5b81019080803573ffffffffffffffffffffffffffffffffffffffff169060200190929190505050612989565b60405180821515815260200191505060405180910390f35b3480156103f457600080fd5b506104376004803603602081101561040b57600080fd5b81019080803573ffffffffffffffffffffffffffffffffffffffff169060200190929190505050611115565b60405180821515815260200191505060405180910390f35b610457611164565b005b34801561046557600080fd5b506104926004803603602081101561047c57600080fd5b81019080803590602001909291905050506129a3565b604051808273ffffffffffffffffffffffffffffffffffffffff16815260200191505060405180910390f35b3480156104ca57600080fd5b506104d36129d6565b6040518082815260200191505060405180910390f35b3480156104f557600080fd5b506105386004803603602081101561050c57600080fd5b81019080803573ffffffffffffffffffffffffffffffffffffffff1690602001909291905050506129db565b6040518080602001806020018060200180602001806020018060200187810387528d818151815260200191508051906020019060200280838360005b8381101561058f578082015181840152602081019050610574565b5050505090500187810386528c818151815260200191508051906020019060200280838360005b838110156105d15780820151818401526020810190506105b6565b5050505090500187810385528b818151815260200191508051906020019060200280838360005b838110156106135780820151818401526020810190506105f8565b5050505090500187810384528a818151815260200191508051906020019060200280838360005b8381101561065557808201518184015260208101905061063a565b50505050905001878103835289818151815260200191508051906020019060200280838360005b8381101561069757808201518184015260208101905061067c565b50505050905001878103825288818151815260200191508051906020019060200280838360005b838110156106d95780820151818401526020810190506106be565b505050509050019c5050505050505050505050505060405180910390f35b34801561070357600080fd5b506107306004803603602081101561071a57600080fd5b8101908080359060200190929190505050612f31565b604051808273ffffffffffffffffffffffffffffffffffffffff16815260200191505060405180910390f35b34801561076857600080fd5b50610771612f64565b6040518082600560200280838360005b8381101561079c578082015181840152602081019050610781565b5050505090500191505060405180910390f35b3480156107bb57600080fd5b506107c4612fab565b604051808260ff16815260200191505060405180910390f35b3480156107e957600080fd5b506107f2612fb0565b604051808273ffffffffffffffffffffffffffffffffffffffff16815260200191505060405180910390f35b34801561082a57600080fd5b50610833612fd6565b6040518082601060200280838360005b8381101561085e578082015181840152602081019050610843565b5050505090500191505060405180910390f35b34801561087d57600080fd5b506108ad6004803603602081101561089457600080fd5b81019080803560ff169060200190929190505050613021565b6040518082815260200191505060405180910390f35b3480156108cf57600080fd5b50610912600480360360208110156108e657600080fd5b81019080803573ffffffffffffffffffffffffffffffffffffffff169060200190929190505050613092565b6040518082815260200191505060405180910390f35b34801561093457600080fd5b506109776004803603602081101561094b57600080fd5b81019080803573ffffffffffffffffffffffffffffffffffffffff1690602001909291905050506130de565b604051808273ffffffffffffffffffffffffffffffffffffffff16815260200191505060405180910390f35b3480156109af57600080fd5b506109b86131c5565b604051808260ff16815260200191505060405180910390f35b610a00600480360360208110156109e757600080fd5b81019080803560ff169060200190929190505050611191565b005b348015610a0e57600080fd5b50610a5160048036036020811015610a2557600080fd5b81019080803573ffffffffffffffffffffffffffffffffffffffff1690602001909291905050506131d8565b604051808060200180602001838103835285818151815260200191508051906020019060200280838360005b83811015610a98578082015181840152602081019050610a7d565b50505050905001838103825284818151815260200191508051906020019060200280838360005b83811015610ada578082015181840152602081019050610abf565b5050505090500194505050505060405180910390f35b348015610afc57600080fd5b50610b2960048036036020811015610b1357600080fd5b8101908080359060200190929190505050613399565b6040518082815260200191505060405180910390f35b348015610b4b57600080fd5b50610b7860048036036020811015610b6257600080fd5b81019080803590602001909291905050506133b1565b6040518082815260200191505060405180910390f35b348015610b9a57600080fd5b50610bc760048036036020811015610bb157600080fd5b81019080803590602001909291905050506133d2565b6040518082815260200191505060405180910390f35b348015610be957600080fd5b50610c2c60048036036020811015610c0057600080fd5b81019080803573ffffffffffffffffffffffffffffffffffffffff1690602001909291905050506133ea565b604051808b81526020018a81526020018981526020018873ffffffffffffffffffffffffffffffffffffffff1681526020018781526020018681526020018581526020018481526020018381526020018281526020019a505050505050505050505060405180910390f35b348015610ca357600080fd5b50610cac6135a4565b6040518082815260200191505060405180910390f35b348015610cce57600080fd5b50610cd76135ac565b6040518082815260200191505060405180910390f35b610cf56135b2565b005b348015610d0357600080fd5b50610d3060048036036020811015610d1a57600080fd5b81019080803590602001909291905050506135b4565b604051808273ffffffffffffffffffffffffffffffffffffffff16815260200191505060405180910390f35b348015610d6857600080fd5b50610d716135f1565b6040518082603260200280838360005b83811015610d9c578082015181840152602081019050610d81565b5050505090500191505060405180910390f35b348015610dbb57600080fd5b50610dc4613672565b604051808273ffffffffffffffffffffffffffffffffffffffff16815260200191505060405180910390f35b348015610dfc57600080fd5b50610e2960048036036020811015610e1357600080fd5b8101908080359060200190929190505050613698565b005b610e6d60048036036020811015610e4157600080fd5b81019080803573ffffffffffffffffffffffffffffffffffffffff169060200190929190505050613b8d565b005b348015610e7b57600080fd5b50610e84614094565b604051808260ff16815260200191505060405180910390f35b348015610ea957600080fd5b50610eec60048036036020811015610ec057600080fd5b81019080803573ffffffffffffffffffffffffffffffffffffffff1690602001909291905050506140a7565b6040518082815260200191505060405180910390f35b610f4460048036036020811015610f1857600080fd5b81019080803573ffffffffffffffffffffffffffffffffffffffff1690602001909291905050506140bf565b005b348015610f5257600080fd5b50610f9560048036036020811015610f6957600080fd5b81019080803573ffffffffffffffffffffffffffffffffffffffff1690602001909291905050506140d5565b6040518082815260200191505060405180910390f35b348015610fb757600080fd5b50610fc0614188565b604051808260ff16815260200191505060405180910390f35b348015610fe557600080fd5b50610fee61418d565b005b348015610ffc57600080fd5b5061100561439b565b6040518082601060200280838360005b83811015611030578082015181840152602081019050611015565b5050505090500191505060405180910390f35b34801561104f57600080fd5b5061109f6004803603604081101561106657600080fd5b81019080803573ffffffffffffffffffffffffffffffffffffffff169060200190929190803560ff1690602001909291905050506143e6565b604051808381526020018281526020019250505060405180910390f35b3480156110c857600080fd5b506110d1614619565b604051808260ff16815260200191505060405180910390f35b3480156110f657600080fd5b506110ff61461e565b6040518082815260200191505060405180910390f35b600080606b60008473ffffffffffffffffffffffffffffffffffffffff1673ffffffffffffffffffffffffffffffffffffffff1681526020019081526020016000206000015414159050919050565b61118f606660029054906101000a900473ffffffffffffffffffffffffffffffffffffffff16613b8d565b565b6002600054141561120a576040517f08c379a000000000000000000000000000000000000000000000000000000000815260040180806020018281038252601f8152602001807f5265656e7472616e637947756172643a207265656e7472616e742063616c6c0081525060200191505060405180910390fd5b600260008190555061121b33611115565b61128d576040517f08c379a00000000000000000000000000000000000000000000000000000000081526004018080602001828103825260168152602001807f55736572206973206e6f7420726567697374657265640000000000000000000081525060200191505060405180910390fd5b60008160ff161180156112a557506069548160ff1611155b611317576040517f08c379a000000000000000000000000000000000000000000000000000000000815260040180806020018281038252600d8152602001807f496e76616c696420726f756e640000000000000000000000000000000000000081525060200191505060405180910390fd5b3460688260ff168154811061132857fe5b9060005260206000200154146113a6576040517f08c379a00000000000000000000000000000000000000000000000000000000081526004018080602001828103825260118152602001807f496e76616c696420424e422076616c756500000000000000000000000000000081525060200191505060405180910390fd5b6113af33612989565b15611422576040517f08c379a00000000000000000000000000000000000000000000000000000000081526004018080602001828103825260158152602001807f43616e206e6f74206265206120636f6e7472616374000000000000000000000081525060200191505060405180910390fd5b6001606b60003373ffffffffffffffffffffffffffffffffffffffff1673ffffffffffffffffffffffffffffffffffffffff16815260200190815260200160002060080160009054906101000a900460ff160160ff168160ff1611156114f0576040517f08c379a00000000000000000000000000000000000000000000000000000000081526004018080602001828103825260138152602001807f526f756e64206e6f7420617661696c61626c650000000000000000000000000081525060200191505060405180910390fd5b4260458260ff166010811061150157fe5b0154101561164257600061151482613021565b9050600060558360ff166010811061152857fe5b0160009054906101000a900473ffffffffffffffffffffffffffffffffffffffff1673ffffffffffffffffffffffffffffffffffffffff166108fc839081150290604051600060405180830381858888f193505050509050801561163b576201518060458460ff166010811061159a57fe5b016000828254019250508190555060558360ff16601081106115b857fe5b0160009054906101000a900473ffffffffffffffffffffffffffffffffffffffff1673ffffffffffffffffffffffffffffffffffffffff167f8ea1a10de3733db603227ca0e3cd0feb6da4f1c33fb15cb9265fa333a64797c2428585604051808481526020018360ff168152602001828152602001935050505060405180910390a25b5050611678565b610e1060458260ff166010811061165557fe5b016000828254019250508190555042604560006010811061167257fe5b01819055505b3360558260ff166010811061168957fe5b0160006101000a81548173ffffffffffffffffffffffffffffffffffffffff021916908373ffffffffffffffffffffffffffffffffffffffff160217905550606b60003373ffffffffffffffffffffffffffffffffffffffff1673ffffffffffffffffffffffffffffffffffffffff168152602001908152602001600020600801600081819054906101000a900460ff168092919060010191906101000a81548160ff021916908360ff1602179055505034606b60003373ffffffffffffffffffffffffffffffffffffffff1673ffffffffffffffffffffffffffffffffffffffff16815260200190815260200160002060090160008282540192505081905550606f6001016000815480929190600101919050555034606f6002016000828254019250508190555042606560003373ffffffffffffffffffffffffffffffffffffffff1673ffffffffffffffffffffffffffffffffffffffff1681526020019081526020016000208190555042606b60003373ffffffffffffffffffffffffffffffffffffffff1673ffffffffffffffffffffffffffffffffffffffff16815260200190815260200160002060070160008360ff1660ff1681526020019081526020016000206003018190555060006064348161186357fe5b049050606b60003373ffffffffffffffffffffffffffffffffffffffff1673ffffffffffffffffffffffffffffffffffffffff16815260200190815260200160002060070160008360ff1660ff16815260200190815260200160002060000160069054906101000a900460ff16611b8857606b60003373ffffffffffffffffffffffffffffffffffffffff1673ffffffffffffffffffffffffffffffffffffffff16815260200190815260200160002060070160008360ff1660ff168152602001908152602001600020600001600081819054906101000a900461ffff168092919060010191906101000a81548161ffff021916908361ffff16021790555050600260ff16606b60003373ffffffffffffffffffffffffffffffffffffffff1673ffffffffffffffffffffffffffffffffffffffff16815260200190815260200160002060070160008460ff1660ff16815260200190815260200160002060000160028282829054906101000a900461ffff160192506101000a81548161ffff021916908361ffff1602179055506001606b60003373ffffffffffffffffffffffffffffffffffffffff1673ffffffffffffffffffffffffffffffffffffffff16815260200190815260200160002060070160008460ff1660ff16815260200190815260200160002060000160066101000a81548160ff021916908315150217905550606d60008360ff1660ff168152602001908152602001600020339080600181540180825580915050600190039060005260206000200160009091909190916101000a81548173ffffffffffffffffffffffffffffffffffffffff021916908373ffffffffffffffffffffffffffffffffffffffff1602179055503373ffffffffffffffffffffffffffffffffffffffff167f2f201bc547acc49919922eaf7ecea9f3389adca4dc6ab3fb4a7498cbbaac63a242606b60003373ffffffffffffffffffffffffffffffffffffffff1673ffffffffffffffffffffffffffffffffffffffff1681526020019081526020016000206000015485604051808481526020018381526020018260ff168152602001935050505060405180910390a2611dbf565b606b60003373ffffffffffffffffffffffffffffffffffffffff1673ffffffffffffffffffffffffffffffffffffffff16815260200190815260200160002060070160008360ff1660ff168152602001908152602001600020600001600081819054906101000a900461ffff168092919060010191906101000a81548161ffff021916908361ffff16021790555050600260ff16606b60003373ffffffffffffffffffffffffffffffffffffffff1673ffffffffffffffffffffffffffffffffffffffff16815260200190815260200160002060070160008460ff1660ff16815260200190815260200160002060000160028282829054906101000a900461ffff160192506101000a81548161ffff021916908361ffff1602179055503373ffffffffffffffffffffffffffffffffffffffff167f31bfa9ab73d15b5d752f5928d978dd4daba1b2dd420bb2d965c54cfe366c553442606b60003373ffffffffffffffffffffffffffffffffffffffff1673ffffffffffffffffffffffffffffffffffffffff1681526020019081526020016000206000015485606b60003373ffffffffffffffffffffffffffffffffffffffff1673ffffffffffffffffffffffffffffffffffffffff16815260200190815260200160002060070160008860ff1660ff16815260200190815260200160002060000160029054906101000a900461ffff16604051808581526020018481526020018360ff1681526020018261ffff16815260200194505050505060405180910390a25b6000604b60ff16820290503373ffffffffffffffffffffffffffffffffffffffff16606d60008560ff1660ff168152602001908152602001600020606e60008660ff1660ff1681526020019081526020016000205481548110611e1e57fe5b9060005260206000200160009054906101000a900473ffffffffffffffffffffffffffffffffffffffff1673ffffffffffffffffffffffffffffffffffffffff16146125e1576000606d60008560ff1660ff168152602001908152602001600020606e60008660ff1660ff1681526020019081526020016000205481548110611ea357fe5b9060005260206000200160009054906101000a900473ffffffffffffffffffffffffffffffffffffffff16905060008173ffffffffffffffffffffffffffffffffffffffff166108fc849081150290604051600060405180830381858888f1935050505090508015612261576000606660019054906101000a900460ff1660ff1685029050611f33838783614624565b83606b60008573ffffffffffffffffffffffffffffffffffffffff1673ffffffffffffffffffffffffffffffffffffffff16815260200190815260200160002060070160008860ff1660ff16815260200190815260200160002060010160008282540192505081905550606b60008473ffffffffffffffffffffffffffffffffffffffff1673ffffffffffffffffffffffffffffffffffffffff16815260200190815260200160002060070160008760ff1660ff168152602001908152602001600020600001600481819054906101000a900461ffff168092919060010191906101000a81548161ffff021916908361ffff1602179055505083606b60008573ffffffffffffffffffffffffffffffffffffffff1673ffffffffffffffffffffffffffffffffffffffff1681526020019081526020016000206005016000828254019250508190555083606b60008573ffffffffffffffffffffffffffffffffffffffff1673ffffffffffffffffffffffffffffffffffffffff16815260200190815260200160002060090160008282540192505081905550606b60008473ffffffffffffffffffffffffffffffffffffffff1673ffffffffffffffffffffffffffffffffffffffff16815260200190815260200160002060070160008760ff1660ff168152602001908152602001600020600301544203632efe07808161213757fe5b0460358760ff166010811061214857fe5b01819055503373ffffffffffffffffffffffffffffffffffffffff167fe4183700b5bfcfeaf533b813f60f33ff4a041fa7bf73db1dd14fbb3eace4fa3542606b60008773ffffffffffffffffffffffffffffffffffffffff1673ffffffffffffffffffffffffffffffffffffffff168152602001908152602001600020600001548988606b60003373ffffffffffffffffffffffffffffffffffffffff1673ffffffffffffffffffffffffffffffffffffffff1681526020019081526020016000206000015460358d60ff166010811061221e57fe5b0154604051808781526020018681526020018560ff168152602001848152602001838152602001828152602001965050505050505060405180910390a2506122cb565b606660029054906101000a900473ffffffffffffffffffffffffffffffffffffffff1673ffffffffffffffffffffffffffffffffffffffff166108fc849081150290604051600060405180830381858888f193505050501580156122c9573d6000803e3d6000fd5b505b606b60008373ffffffffffffffffffffffffffffffffffffffff1673ffffffffffffffffffffffffffffffffffffffff16815260200190815260200160002060070160008660ff1660ff16815260200190815260200160002060000160029054906101000a900461ffff1661ffff16606b60008473ffffffffffffffffffffffffffffffffffffffff1673ffffffffffffffffffffffffffffffffffffffff16815260200190815260200160002060070160008760ff1660ff16815260200190815260200160002060000160049054906101000a900461ffff1661ffff16101561242e57606d60008660ff1660ff168152602001908152602001600020829080600181540180825580915050600190039060005260206000200160009091909190916101000a81548173ffffffffffffffffffffffffffffffffffffffff021916908373ffffffffffffffffffffffffffffffffffffffff160217905550612547565b6000606b60008473ffffffffffffffffffffffffffffffffffffffff1673ffffffffffffffffffffffffffffffffffffffff16815260200190815260200160002060070160008760ff1660ff16815260200190815260200160002060000160066101000a81548160ff0219169083151502179055503373ffffffffffffffffffffffffffffffffffffffff167f1524ba6dfa482cf4eda16273d76657ddb7f563b2e8a6c3f294564de0ffc6621142606b60008673ffffffffffffffffffffffffffffffffffffffff1673ffffffffffffffffffffffffffffffffffffffff1681526020019081526020016000206000015488604051808481526020018381526020018260ff168152602001935050505060405180910390a25b606d60008660ff1660ff168152602001908152602001600020606e60008760ff1660ff168152602001908152602001600020548154811061258457fe5b9060005260206000200160006101000a81549073ffffffffffffffffffffffffffffffffffffffff0219169055606e60008660ff1660ff1681526020019081526020016000206000815480929190600101919050555050506127fa565b606660029054906101000a900473ffffffffffffffffffffffffffffffffffffffff1673ffffffffffffffffffffffffffffffffffffffff166108fc829081150290604051600060405180830381858888f19350505050158015612649573d6000803e3d6000fd5b50606b6000606660029054906101000a900473ffffffffffffffffffffffffffffffffffffffff1673ffffffffffffffffffffffffffffffffffffffff1673ffffffffffffffffffffffffffffffffffffffff16815260200190815260200160002060070160008460ff1660ff168152602001908152602001600020600001600481819054906101000a900461ffff168092919060010191906101000a81548161ffff021916908361ffff1602179055505080606b6000606660029054906101000a900473ffffffffffffffffffffffffffffffffffffffff1673ffffffffffffffffffffffffffffffffffffffff1673ffffffffffffffffffffffffffffffffffffffff16815260200190815260200160002060070160008560ff1660ff1681526020019081526020016000206001016000828254019250508190555080606b6000606660029054906101000a900473ffffffffffffffffffffffffffffffffffffffff1673ffffffffffffffffffffffffffffffffffffffff1673ffffffffffffffffffffffffffffffffffffffff168152602001908152602001600020600501600082825401925050819055505b6000606660009054906101000a900460ff1660ff168302905061281e338583614b32565b6000606760009054906101000a900473ffffffffffffffffffffffffffffffffffffffff1673ffffffffffffffffffffffffffffffffffffffff16600760ff16850260405180600001905060006040518083038185875af1925050503d80600081146128a6576040519150601f19603f3d011682016040523d82523d6000602084013e6128ab565b606091505b5050905080612922576040517f08c379a000000000000000000000000000000000000000000000000000000000815260040180806020018281038252601f8152602001807f7472616e73666572206661696c6564207768696c652062757920726f756e640081525060200191505060405180910390fd5b50505050600160008190555050565b6060606880548060200260200160405190810160405280929190818152602001828054801561297f57602002820191906000526020600020905b81548152602001906001019080831161296b575b5050505050905090565b600080823b905060008163ffffffff161415915050919050565b600181603281106129b057fe5b016000915054906101000a900473ffffffffffffffffffffffffffffffffffffffff1681565b600081565b606080606080606080606060016069540167ffffffffffffffff81118015612a0257600080fd5b50604051908082528060200260200182016040528015612a315781602001602082028036833780820191505090505b509050606060016069540167ffffffffffffffff81118015612a5257600080fd5b50604051908082528060200260200182016040528015612a815781602001602082028036833780820191505090505b509050606060016069540167ffffffffffffffff81118015612aa257600080fd5b50604051908082528060200260200182016040528015612ad15781602001602082028036833780820191505090505b509050606060016069540167ffffffffffffffff81118015612af257600080fd5b50604051908082528060200260200182016040528015612b215781602001602082028036833780820191505090505b509050606060016069540167ffffffffffffffff81118015612b4257600080fd5b50604051908082528060200260200182016040528015612b715781602001602082028036833780820191505090505b509050606060016069540167ffffffffffffffff81118015612b9257600080fd5b50604051908082528060200260200182016040528015612bc15781602001602082028036833780820191505090505b5090506000600190505b6069548160ff1611612f0f57606b60008f73ffffffffffffffffffffffffffffffffffffffff1673ffffffffffffffffffffffffffffffffffffffff16815260200190815260200160002060070160008260ff1660ff16815260200190815260200160002060000160069054906101000a900460ff16878260ff1681518110612c5057fe5b602002602001019015159081151581525050606b60008f73ffffffffffffffffffffffffffffffffffffffff1673ffffffffffffffffffffffffffffffffffffffff16815260200190815260200160002060070160008260ff1660ff16815260200190815260200160002060000160049054906101000a900461ffff16868260ff1681518110612cdc57fe5b602002602001019061ffff16908161ffff1681525050606b60008f73ffffffffffffffffffffffffffffffffffffffff1673ffffffffffffffffffffffffffffffffffffffff16815260200190815260200160002060070160008260ff1660ff16815260200190815260200160002060000160029054906101000a900461ffff16858260ff1681518110612d6c57fe5b602002602001019061ffff16908161ffff1681525050606b60008f73ffffffffffffffffffffffffffffffffffffffff1673ffffffffffffffffffffffffffffffffffffffff16815260200190815260200160002060070160008260ff1660ff16815260200190815260200160002060000160009054906101000a900461ffff16848260ff1681518110612dfc57fe5b602002602001019061ffff16908161ffff1681525050606b60008f73ffffffffffffffffffffffffffffffffffffffff1673ffffffffffffffffffffffffffffffffffffffff16815260200190815260200160002060070160008260ff1660ff16815260200190815260200160002060010154838260ff1681518110612e7e57fe5b602002602001018181525050606b60008f73ffffffffffffffffffffffffffffffffffffffff1673ffffffffffffffffffffffffffffffffffffffff16815260200190815260200160002060070160008260ff1660ff16815260200190815260200160002060020154828260ff1681518110612ef657fe5b6020026020010181815250508080600101915050612bcb565b508585858585859b509b509b509b509b509b5050505050505091939550919395565b60558160108110612f3e57fe5b016000915054906101000a900473ffffffffffffffffffffffffffffffffffffffff1681565b612f6c615040565b6040518060a00160405280606f600001548152602001606f600101548152602001606f6002015481526020016033548152602001603454815250905090565b600281565b606760009054906101000a900473ffffffffffffffffffffffffffffffffffffffff1681565b612fde615062565b6045601080602002604051908101604052809291908260108015613017576020028201915b815481526020019060010190808311613003575b5050505050905090565b6000806000600190505b6069548160ff16116130635760688160ff168154811061304757fe5b906000526020600020015482019150808060010191505061302b565b5060688360ff168154811061307457fe5b906000526020600020015481478161308857fe5b0402915050919050565b6000606b60008373ffffffffffffffffffffffffffffffffffffffff1673ffffffffffffffffffffffffffffffffffffffff168152602001908152602001600020600001549050919050565b60006130e982611115565b61315b576040517f08c379a00000000000000000000000000000000000000000000000000000000081526004018080602001828103825260168152602001807f55736572206973206e6f7420726567697374657265640000000000000000000081525060200191505060405180910390fd5b606b60008373ffffffffffffffffffffffffffffffffffffffff1673ffffffffffffffffffffffffffffffffffffffff16815260200190815260200160002060020160009054906101000a900473ffffffffffffffffffffffffffffffffffffffff169050919050565b606660009054906101000a900460ff1681565b606080606060016069540167ffffffffffffffff811180156131f957600080fd5b506040519080825280602002602001820160405280156132285781602001602082028036833780820191505090505b509050606060016069540167ffffffffffffffff8111801561324957600080fd5b506040519080825280602002602001820160405280156132785781602001602082028036833780820191505090505b5090506000600190505b6069548160ff161161338b57606b60008773ffffffffffffffffffffffffffffffffffffffff1673ffffffffffffffffffffffffffffffffffffffff16815260200190815260200160002060070160008260ff1660ff16815260200190815260200160002060040154838260ff16815181106132fa57fe5b602002602001018181525050606b60008773ffffffffffffffffffffffffffffffffffffffff1673ffffffffffffffffffffffffffffffffffffffff16815260200190815260200160002060070160008260ff1660ff16815260200190815260200160002060050154828260ff168151811061337257fe5b6020026020010181815250508080600101915050613282565b508181935093505050915091565b604581601081106133a657fe5b016000915090505481565b606881815481106133be57fe5b906000526020600020016000915090505481565b603581601081106133df57fe5b016000915090505481565b600080600080600080600080600080613401615085565b606b60008d73ffffffffffffffffffffffffffffffffffffffff1673ffffffffffffffffffffffffffffffffffffffff1681526020019081526020016000206040518061012001604052908160008201548152602001600182015481526020016002820160009054906101000a900473ffffffffffffffffffffffffffffffffffffffff1673ffffffffffffffffffffffffffffffffffffffff1673ffffffffffffffffffffffffffffffffffffffff168152602001600382015481526020016004820154815260200160058201548152602001600682015481526020016008820160009054906101000a900460ff1660ff1660ff168152602001600982015481525050905080600001518160200151606b6000846040015173ffffffffffffffffffffffffffffffffffffffff1673ffffffffffffffffffffffffffffffffffffffff168152602001908152602001600020600001548360400151846060015185608001518660a001518760c001518860e001518961010001518160ff1691509a509a509a509a509a509a509a509a509a509a50509193959799509193959799565b600047905090565b60345481565b565b6000606c600083815260200190815260200160002060009054906101000a900473ffffffffffffffffffffffffffffffffffffffff169050919050565b6135f96150ea565b6001603280602002604051908101604052809291908260328015613668576020028201915b8160009054906101000a900473ffffffffffffffffffffffffffffffffffffffff1673ffffffffffffffffffffffffffffffffffffffff168152602001906001019080831161361e575b5050505050905090565b606660029054906101000a900473ffffffffffffffffffffffffffffffffffffffff1681565b606660029054906101000a900473ffffffffffffffffffffffffffffffffffffffff1673ffffffffffffffffffffffffffffffffffffffff163373ffffffffffffffffffffffffffffffffffffffff161461375b576040517f08c379a00000000000000000000000000000000000000000000000000000000081526004018080602001828103825260158152602001807f796f7520617265206e6f7420616e206f776e657221000000000000000000000081525060200191505060405180910390fd5b60005b60318160ff16116137c757600060018260ff166032811061377b57fe5b0160006101000a81548173ffffffffffffffffffffffffffffffffffffffff021916908373ffffffffffffffffffffffffffffffffffffffff160217905550808060010191505061375e565b50600080600190505b6069548160ff16116138dd576000606e60008360ff1660ff1681526020019081526020016000205490505b606d60008360ff1660ff168152602001908152602001600020805490508110156138cf57426201518060656000606d60008760ff1660ff168152602001908152602001600020858154811061384c57fe5b9060005260206000200160009054906101000a900473ffffffffffffffffffffffffffffffffffffffff1673ffffffffffffffffffffffffffffffffffffffff1673ffffffffffffffffffffffffffffffffffffffff168152602001908152602001600020540111156138c25782806001019350505b80806001019150506137fb565b5080806001019150506137d0565b5081600247816138e957fe5b04816138f157fe5b0460338190555042603481905550600082828161390a57fe5b0490506000806000600190505b6069548160ff1611613b85576000606e60008360ff1660ff1681526020019081526020016000205490505b606d60008360ff1660ff16815260200190815260200160002080549050811015613b77578380600101945050600085858161397957fe5b06148015613a185750426201518060656000606d60008760ff1660ff16815260200190815260200160002085815481106139af57fe5b9060005260206000200160009054906101000a900473ffffffffffffffffffffffffffffffffffffffff1673ffffffffffffffffffffffffffffffffffffffff1673ffffffffffffffffffffffffffffffffffffffff1681526020019081526020016000205401115b15613b6a57606d60008360ff1660ff1681526020019081526020016000208181548110613a4157fe5b9060005260206000200160009054906101000a900473ffffffffffffffffffffffffffffffffffffffff1660018460ff1660328110613a7c57fe5b0160006101000a81548173ffffffffffffffffffffffffffffffffffffffff021916908373ffffffffffffffffffffffffffffffffffffffff1602179055508280600101935050606d60008360ff1660ff1681526020019081526020016000208181548110613ae757fe5b9060005260206000200160009054906101000a900473ffffffffffffffffffffffffffffffffffffffff1673ffffffffffffffffffffffffffffffffffffffff167fedac0922924cc83017073b98842693d865d06a82c38175d4a1cb0811ef86193f42603354604051808381526020018281526020019250505060405180910390a25b8080600101915050613942565b508080600101915050613917565b505050505050565b613b9681611115565b613c08576040517f08c379a000000000000000000000000000000000000000000000000000000000815260040180806020018281038252601a8152602001807f5265666572726572206973206e6f74207265676973746572656400000000000081525060200191505060405180910390fd5b613c1133611115565b15613c84576040517f08c379a00000000000000000000000000000000000000000000000000000000081526004018080602001828103825260178152602001807f5573657220616c7265616479207265676973746572656400000000000000000081525060200191505060405180910390fd5b613c8d33612989565b15613d00576040517f08c379a00000000000000000000000000000000000000000000000000000000081526004018080602001828103825260158152602001807f43616e206e6f74206265206120636f6e7472616374000000000000000000000081525060200191505060405180910390fd5b613d08615085565b604051806101200160405280606a60008154809291906001019190505581526020014281526020018373ffffffffffffffffffffffffffffffffffffffff16815260200160008152602001600081526020016000815260200160008152602001600060ff1681526020016000815250905080606b60003373ffffffffffffffffffffffffffffffffffffffff1673ffffffffffffffffffffffffffffffffffffffff168152602001908152602001600020600082015181600001556020820151816001015560408201518160020160006101000a81548173ffffffffffffffffffffffffffffffffffffffff021916908373ffffffffffffffffffffffffffffffffffffffff160217905550606082015181600301556080820151816004015560a0820151816005015560c0820151816006015560e08201518160080160006101000a81548160ff021916908360ff160217905550610100820151816009015590505033606c60008360000151815260200190815260200160002060006101000a81548173ffffffffffffffffffffffffffffffffffffffff021916908373ffffffffffffffffffffffffffffffffffffffff1602179055506000600190506000839050600073ffffffffffffffffffffffffffffffffffffffff168173ffffffffffffffffffffffffffffffffffffffff1614613fc057606b60008273ffffffffffffffffffffffffffffffffffffffff1673ffffffffffffffffffffffffffffffffffffffff16815260200190815260200160002060030160008154809291906001019190505550606b60008273ffffffffffffffffffffffffffffffffffffffff1673ffffffffffffffffffffffffffffffffffffffff16815260200190815260200160002060020160009054906101000a900473ffffffffffffffffffffffffffffffffffffffff16905081806001019250505b606f60000160008154809291906001019190505550606f600101600081548092919060010191905055503373ffffffffffffffffffffffffffffffffffffffff167f588149fb6f65171a24789e864d05feb177506df6fc9e86c55d0d19b5122bdffc428560000151606b60008973ffffffffffffffffffffffffffffffffffffffff1673ffffffffffffffffffffffffffffffffffffffff1681526020019081526020016000206000015460405180848152602001838152602001828152602001935050505060405180910390a250505050565b606660019054906101000a900460ff1681565b60656020528060005260406000206000915090505481565b6140c881613b8d565b6140d26001611191565b50565b600080606b60008473ffffffffffffffffffffffffffffffffffffffff1673ffffffffffffffffffffffffffffffffffffffff16815260200190815260200160002060020160009054906101000a900473ffffffffffffffffffffffffffffffffffffffff169050606b60008273ffffffffffffffffffffffffffffffffffffffff1673ffffffffffffffffffffffffffffffffffffffff16815260200190815260200160002060000154915050919050565b604b81565b60026000541415614206576040517f08c379a000000000000000000000000000000000000000000000000000000000815260040180806020018281038252601f8152602001807f5265656e7472616e637947756172643a207265656e7472616e742063616c6c0081525060200191505060405180910390fd5b600260008190555060005b60318160ff1611614390573373ffffffffffffffffffffffffffffffffffffffff1660018260ff166032811061424357fe5b0160009054906101000a900473ffffffffffffffffffffffffffffffffffffffff1673ffffffffffffffffffffffffffffffffffffffff16141561438357606f60030160008154809291906001019190505550600060018260ff16603281106142a857fe5b0160006101000a81548173ffffffffffffffffffffffffffffffffffffffff021916908373ffffffffffffffffffffffffffffffffffffffff16021790555060003373ffffffffffffffffffffffffffffffffffffffff166108fc6033549081150290604051600060405180830381858888f1935050505090508015614381573373ffffffffffffffffffffffffffffffffffffffff167f7c73022fe9ef1ddffacfe32ab067b48a23250b0c20fbabeace91e3cd9e63a9c042603354604051808381526020018281526020019250505060405180910390a25b505b8080600101915050614211565b506001600081905550565b6143a3615062565b60356010806020026040519081016040528092919082601080156143dc576020028201915b8154815260200190600101908083116143c8575b5050505050905090565b60008060008360ff1611801561440157506069548360ff1611155b614473576040517f08c379a000000000000000000000000000000000000000000000000000000000815260040180806020018281038252600d8152602001807f496e76616c696420726f756e640000000000000000000000000000000000000081525060200191505060405180910390fd5b606b60008573ffffffffffffffffffffffffffffffffffffffff1673ffffffffffffffffffffffffffffffffffffffff16815260200190815260200160002060070160008460ff1660ff16815260200190815260200160002060000160069054906101000a900460ff166144ed5760008091509150614612565b600080606e60008660ff1660ff1681526020019081526020016000205490505b606d60008660ff1660ff1681526020019081526020016000208054905081101561460c5781806001019250508573ffffffffffffffffffffffffffffffffffffffff16606d60008760ff1660ff168152602001908152602001600020828154811061457457fe5b9060005260206000200160009054906101000a900473ffffffffffffffffffffffffffffffffffffffff1673ffffffffffffffffffffffffffffffffffffffff1614156145ff5781606e60008760ff1660ff16815260200190815260200160002054606d60008860ff1660ff1681526020019081526020016000208054905003935093505050614612565b808060010191505061450d565b50600080fd5b9250929050565b600781565b60335481565b6000606b60008573ffffffffffffffffffffffffffffffffffffffff1673ffffffffffffffffffffffffffffffffffffffff16815260200190815260200160002060020160009054906101000a900473ffffffffffffffffffffffffffffffffffffffff169050606b60008273ffffffffffffffffffffffffffffffffffffffff1673ffffffffffffffffffffffffffffffffffffffff16815260200190815260200160002060070160008460ff1660ff16815260200190815260200160002060000160069054906101000a900460ff166148ce5781606b60008373ffffffffffffffffffffffffffffffffffffffff1673ffffffffffffffffffffffffffffffffffffffff1681526020019081526020016000206006016000828254019250508190555081606b60008373ffffffffffffffffffffffffffffffffffffffff1673ffffffffffffffffffffffffffffffffffffffff16815260200190815260200160002060070160008560ff1660ff168152602001908152602001600020600501600082825401925050819055508073ffffffffffffffffffffffffffffffffffffffff167f0883bf1f67528bdc0cbaa14cb71f54e9f4e65ec49eceaf639cb93a9e50aefc4c42606b60008573ffffffffffffffffffffffffffffffffffffffff1673ffffffffffffffffffffffffffffffffffffffff16815260200190815260200160002060000154606b60008973ffffffffffffffffffffffffffffffffffffffff1673ffffffffffffffffffffffffffffffffffffffff168152602001908152602001600020600001548787604051808681526020018581526020018481526020018360ff1681526020018281526020019550505050505060405180910390a2606660029054906101000a900473ffffffffffffffffffffffffffffffffffffffff1690505b60008173ffffffffffffffffffffffffffffffffffffffff166108fc849081150290604051600060405180830381858888f1935050505090508015614ac15782606b60008473ffffffffffffffffffffffffffffffffffffffff1673ffffffffffffffffffffffffffffffffffffffff16815260200190815260200160002060070160008660ff1660ff1681526020019081526020016000206002016000828254019250508190555082606b60008473ffffffffffffffffffffffffffffffffffffffff1673ffffffffffffffffffffffffffffffffffffffff168152602001908152602001600020600401600082825401925050819055508173ffffffffffffffffffffffffffffffffffffffff167f0ed8e24e8c3d702aae6ec32d5d8fbb15b20e1905fcd8e9a2313dff009a82175042606b60008673ffffffffffffffffffffffffffffffffffffffff1673ffffffffffffffffffffffffffffffffffffffff16815260200190815260200160002060000154606b60008a73ffffffffffffffffffffffffffffffffffffffff1673ffffffffffffffffffffffffffffffffffffffff168152602001908152602001600020600001548888604051808681526020018581526020018481526020018360ff1681526020018281526020019550505050505060405180910390a2614b2b565b606660029054906101000a900473ffffffffffffffffffffffffffffffffffffffff1673ffffffffffffffffffffffffffffffffffffffff166108fc849081150290604051600060405180830381858888f19350505050158015614b29573d6000803e3d6000fd5b505b5050505050565b6000606b60008573ffffffffffffffffffffffffffffffffffffffff1673ffffffffffffffffffffffffffffffffffffffff16815260200190815260200160002060020160009054906101000a900473ffffffffffffffffffffffffffffffffffffffff169050606b60008273ffffffffffffffffffffffffffffffffffffffff1673ffffffffffffffffffffffffffffffffffffffff16815260200190815260200160002060070160008460ff1660ff16815260200190815260200160002060000160069054906101000a900460ff16614ddc5781606b60008373ffffffffffffffffffffffffffffffffffffffff1673ffffffffffffffffffffffffffffffffffffffff1681526020019081526020016000206006016000828254019250508190555081606b60008373ffffffffffffffffffffffffffffffffffffffff1673ffffffffffffffffffffffffffffffffffffffff16815260200190815260200160002060070160008560ff1660ff168152602001908152602001600020600401600082825401925050819055508073ffffffffffffffffffffffffffffffffffffffff167f71571cfdf540d399d1a547446d2f4090641fc35ae5bf0fa7148c5368a7d5912e42606b60008573ffffffffffffffffffffffffffffffffffffffff1673ffffffffffffffffffffffffffffffffffffffff16815260200190815260200160002060000154606b60008973ffffffffffffffffffffffffffffffffffffffff1673ffffffffffffffffffffffffffffffffffffffff168152602001908152602001600020600001548787604051808681526020018581526020018481526020018360ff1681526020018281526020019550505050505060405180910390a2606660029054906101000a900473ffffffffffffffffffffffffffffffffffffffff1690505b60008173ffffffffffffffffffffffffffffffffffffffff166108fc849081150290604051600060405180830381858888f1935050505090508015614fcf5782606b60008473ffffffffffffffffffffffffffffffffffffffff1673ffffffffffffffffffffffffffffffffffffffff16815260200190815260200160002060070160008660ff1660ff1681526020019081526020016000206002016000828254019250508190555082606b60008473ffffffffffffffffffffffffffffffffffffffff1673ffffffffffffffffffffffffffffffffffffffff168152602001908152602001600020600401600082825401925050819055508173ffffffffffffffffffffffffffffffffffffffff167fadbead61ed0e78434af1793fe9c549f995680ccc1d4cc2015e78bffc67b7b18142606b60008673ffffffffffffffffffffffffffffffffffffffff1673ffffffffffffffffffffffffffffffffffffffff16815260200190815260200160002060000154606b60008a73ffffffffffffffffffffffffffffffffffffffff1673ffffffffffffffffffffffffffffffffffffffff168152602001908152602001600020600001548888604051808681526020018581526020018481526020018360ff1681526020018281526020019550505050505060405180910390a2615039565b606660029054906101000a900473ffffffffffffffffffffffffffffffffffffffff1673ffffffffffffffffffffffffffffffffffffffff166108fc849081150290604051600060405180830381858888f19350505050158015615037573d6000803e3d6000fd5b505b5050505050565b6040518060a00160405280600590602082028036833780820191505090505090565b604051806102000160405280601090602082028036833780820191505090505090565b6040518061012001604052806000815260200160008152602001600073ffffffffffffffffffffffffffffffffffffffff16815260200160008152602001600081526020016000815260200160008152602001600060ff168152602001600081525090565b60405180610640016040528060329060208202803683378082019150509050509056fe43616e27742066696e6420726f756e6420746f206275792e204d617962652073656e742076616c756520697320696e76616c69642ea2646970667358221220ade9020688265bde1690057c614cd3097e1e4785c044ec7f849b379ecd134f3264736f6c634300060c0033",
					"opcodes": "PUSH1 0x80 PUSH1 0x40 MSTORE PUSH1 0x9 PUSH1 0x66 PUSH1 0x0 PUSH2 0x100 EXP DUP2 SLOAD DUP2 PUSH1 0xFF MUL NOT AND SWAP1 DUP4 PUSH1 0xFF AND MUL OR SWAP1 SSTORE POP PUSH1 0x8 PUSH1 0x66 PUSH1 0x1 PUSH2 0x100 EXP DUP2 SLOAD DUP2 PUSH1 0xFF MUL NOT AND SWAP1 DUP4 PUSH1 0xFF AND MUL OR SWAP1 SSTORE POP PUSH1 0x40 MLOAD DUP1 PUSH2 0x200 ADD PUSH1 0x40 MSTORE DUP1 PUSH1 0x0 PUSH8 0xFFFFFFFFFFFFFFFF AND DUP2 MSTORE PUSH1 0x20 ADD PUSH7 0xB1A2BC2EC50000 PUSH8 0xFFFFFFFFFFFFFFFF AND DUP2 MSTORE PUSH1 0x20 ADD PUSH8 0x11C37937E080000 PUSH8 0xFFFFFFFFFFFFFFFF AND DUP2 MSTORE PUSH1 0x20 ADD PUSH8 0x1CDDA4FACCD0000 PUSH8 0xFFFFFFFFFFFFFFFF AND DUP2 MSTORE PUSH1 0x20 ADD PUSH8 0x30D98D59A960000 PUSH8 0xFFFFFFFFFFFFFFFF AND DUP2 MSTORE PUSH1 0x20 ADD PUSH8 0x494654067E10000 PUSH8 0xFFFFFFFFFFFFFFFF AND DUP2 MSTORE PUSH1 0x20 ADD PUSH8 0x6F05B59D3B20000 PUSH8 0xFFFFFFFFFFFFFFFF AND DUP2 MSTORE PUSH1 0x20 ADD PUSH8 0x9B6E64A8EC60000 PUSH8 0xFFFFFFFFFFFFFFFF AND DUP2 MSTORE PUSH1 0x20 ADD PUSH8 0xE92596FD6290000 PUSH8 0xFFFFFFFFFFFFFFFF AND DUP2 MSTORE PUSH1 0x20 ADD PUSH8 0x141F6F514C510000 PUSH8 0xFFFFFFFFFFFFFFFF AND DUP2 MSTORE PUSH1 0x20 ADD PUSH8 0x1B0FCAAB20030000 PUSH8 0xFFFFFFFFFFFFFFFF AND DUP2 MSTORE PUSH1 0x20 ADD PUSH8 0x214E8348C4F00000 PUSH8 0xFFFFFFFFFFFFFFFF AND DUP2 MSTORE PUSH1 0x20 ADD PUSH8 0x30927F74C9DE0000 PUSH8 0xFFFFFFFFFFFFFFFF AND DUP2 MSTORE PUSH1 0x20 ADD PUSH8 0x482A1C7300080000 PUSH8 0xFFFFFFFFFFFFFFFF AND DUP2 MSTORE PUSH1 0x20 ADD PUSH8 0x654ECF52AC5A0000 PUSH8 0xFFFFFFFFFFFFFFFF AND DUP2 MSTORE PUSH1 0x20 ADD PUSH8 0x8AC7230489E80000 PUSH8 0xFFFFFFFFFFFFFFFF AND DUP2 MSTORE POP PUSH1 0x68 SWAP1 PUSH1 0x10 PUSH3 0x1D0 SWAP3 SWAP2 SWAP1 PUSH3 0x6D6 JUMP JUMPDEST POP PUSH1 0x1 PUSH1 0x68 DUP1 SLOAD SWAP1 POP SUB PUSH1 0x69 SSTORE PUSH1 0x2 PUSH1 0x6A SSTORE CALLVALUE DUP1 ISZERO PUSH3 0x1EF JUMPI PUSH1 0x0 DUP1 REVERT JUMPDEST POP PUSH1 0x40 MLOAD PUSH3 0x58DB CODESIZE SUB DUP1 PUSH3 0x58DB DUP4 CODECOPY DUP2 DUP2 ADD PUSH1 0x40 MSTORE PUSH1 0x20 DUP2 LT ISZERO PUSH3 0x215 JUMPI PUSH1 0x0 DUP1 REVERT JUMPDEST DUP2 ADD SWAP1 DUP1 DUP1 MLOAD SWAP1 PUSH1 0x20 ADD SWAP1 SWAP3 SWAP2 SWAP1 POP POP POP PUSH1 0x1 PUSH1 0x0 DUP2 SWAP1 SSTORE POP CALLER PUSH1 0x66 PUSH1 0x2 PUSH2 0x100 EXP DUP2 SLOAD DUP2 PUSH20 0xFFFFFFFFFFFFFFFFFFFFFFFFFFFFFFFFFFFFFFFF MUL NOT AND SWAP1 DUP4 PUSH20 0xFFFFFFFFFFFFFFFFFFFFFFFFFFFFFFFFFFFFFFFF AND MUL OR SWAP1 SSTORE POP DUP1 PUSH1 0x67 PUSH1 0x0 PUSH2 0x100 EXP DUP2 SLOAD DUP2 PUSH20 0xFFFFFFFFFFFFFFFFFFFFFFFFFFFFFFFFFFFFFFFF MUL NOT AND SWAP1 DUP4 PUSH20 0xFFFFFFFFFFFFFFFFFFFFFFFFFFFFFFFFFFFFFFFF AND MUL OR SWAP1 SSTORE POP PUSH1 0x40 MLOAD DUP1 PUSH2 0x120 ADD PUSH1 0x40 MSTORE DUP1 PUSH1 0x1 DUP2 MSTORE PUSH1 0x20 ADD TIMESTAMP DUP2 MSTORE PUSH1 0x20 ADD PUSH1 0x0 PUSH20 0xFFFFFFFFFFFFFFFFFFFFFFFFFFFFFFFFFFFFFFFF AND DUP2 MSTORE PUSH1 0x20 ADD PUSH1 0x0 DUP2 MSTORE PUSH1 0x20 ADD PUSH1 0x0 DUP2 MSTORE PUSH1 0x20 ADD PUSH1 0x0 DUP2 MSTORE PUSH1 0x20 ADD PUSH1 0x0 DUP2 MSTORE PUSH1 0x20 ADD PUSH1 0x0 PUSH1 0xFF AND DUP2 MSTORE PUSH1 0x20 ADD PUSH1 0x0 DUP2 MSTORE POP PUSH1 0x6B PUSH1 0x0 PUSH1 0x66 PUSH1 0x2 SWAP1 SLOAD SWAP1 PUSH2 0x100 EXP SWAP1 DIV PUSH20 0xFFFFFFFFFFFFFFFFFFFFFFFFFFFFFFFFFFFFFFFF AND PUSH20 0xFFFFFFFFFFFFFFFFFFFFFFFFFFFFFFFFFFFFFFFF AND PUSH20 0xFFFFFFFFFFFFFFFFFFFFFFFFFFFFFFFFFFFFFFFF AND DUP2 MSTORE PUSH1 0x20 ADD SWAP1 DUP2 MSTORE PUSH1 0x20 ADD PUSH1 0x0 KECCAK256 PUSH1 0x0 DUP3 ADD MLOAD DUP2 PUSH1 0x0 ADD SSTORE PUSH1 0x20 DUP3 ADD MLOAD DUP2 PUSH1 0x1 ADD SSTORE PUSH1 0x40 DUP3 ADD MLOAD DUP2 PUSH1 0x2 ADD PUSH1 0x0 PUSH2 0x100 EXP DUP2 SLOAD DUP2 PUSH20 0xFFFFFFFFFFFFFFFFFFFFFFFFFFFFFFFFFFFFFFFF MUL NOT AND SWAP1 DUP4 PUSH20 0xFFFFFFFFFFFFFFFFFFFFFFFFFFFFFFFFFFFFFFFF AND MUL OR SWAP1 SSTORE POP PUSH1 0x60 DUP3 ADD MLOAD DUP2 PUSH1 0x3 ADD SSTORE PUSH1 0x80 DUP3 ADD MLOAD DUP2 PUSH1 0x4 ADD SSTORE PUSH1 0xA0 DUP3 ADD MLOAD DUP2 PUSH1 0x5 ADD SSTORE PUSH1 0xC0 DUP3 ADD MLOAD DUP2 PUSH1 0x6 ADD SSTORE PUSH1 0xE0 DUP3 ADD MLOAD DUP2 PUSH1 0x8 ADD PUSH1 0x0 PUSH2 0x100 EXP DUP2 SLOAD DUP2 PUSH1 0xFF MUL NOT AND SWAP1 DUP4 PUSH1 0xFF AND MUL OR SWAP1 SSTORE POP PUSH2 0x100 DUP3 ADD MLOAD DUP2 PUSH1 0x9 ADD SSTORE SWAP1 POP POP PUSH1 0x66 PUSH1 0x2 SWAP1 SLOAD SWAP1 PUSH2 0x100 EXP SWAP1 DIV PUSH20 0xFFFFFFFFFFFFFFFFFFFFFFFFFFFFFFFFFFFFFFFF AND PUSH1 0x6C PUSH1 0x0 PUSH1 0x1 DUP2 MSTORE PUSH1 0x20 ADD SWAP1 DUP2 MSTORE PUSH1 0x20 ADD PUSH1 0x0 KECCAK256 PUSH1 0x0 PUSH2 0x100 EXP DUP2 SLOAD DUP2 PUSH20 0xFFFFFFFFFFFFFFFFFFFFFFFFFFFFFFFFFFFFFFFF MUL NOT AND SWAP1 DUP4 PUSH20 0xFFFFFFFFFFFFFFFFFFFFFFFFFFFFFFFFFFFFFFFF AND MUL OR SWAP1 SSTORE POP PUSH1 0x6F PUSH1 0x0 ADD PUSH1 0x0 DUP2 SLOAD DUP1 SWAP3 SWAP2 SWAP1 PUSH1 0x1 ADD SWAP2 SWAP1 POP SSTORE POP PUSH1 0x6F PUSH1 0x1 ADD PUSH1 0x0 DUP2 SLOAD DUP1 SWAP3 SWAP2 SWAP1 PUSH1 0x1 ADD SWAP2 SWAP1 POP SSTORE POP PUSH1 0x0 PUSH1 0x1 SWAP1 POP JUMPDEST PUSH1 0x69 SLOAD DUP2 PUSH1 0xFF AND GT PUSH3 0x6CE JUMPI PUSH3 0xD2F00 TIMESTAMP ADD PUSH1 0x45 DUP3 PUSH1 0xFF AND PUSH1 0x10 DUP2 LT PUSH3 0x4EE JUMPI INVALID JUMPDEST ADD DUP2 SWAP1 SSTORE POP PUSH1 0x1 PUSH1 0x6B PUSH1 0x0 PUSH1 0x66 PUSH1 0x2 SWAP1 SLOAD SWAP1 PUSH2 0x100 EXP SWAP1 DIV PUSH20 0xFFFFFFFFFFFFFFFFFFFFFFFFFFFFFFFFFFFFFFFF AND PUSH20 0xFFFFFFFFFFFFFFFFFFFFFFFFFFFFFFFFFFFFFFFF AND PUSH20 0xFFFFFFFFFFFFFFFFFFFFFFFFFFFFFFFFFFFFFFFF AND DUP2 MSTORE PUSH1 0x20 ADD SWAP1 DUP2 MSTORE PUSH1 0x20 ADD PUSH1 0x0 KECCAK256 PUSH1 0x7 ADD PUSH1 0x0 DUP4 PUSH1 0xFF AND PUSH1 0xFF AND DUP2 MSTORE PUSH1 0x20 ADD SWAP1 DUP2 MSTORE PUSH1 0x20 ADD PUSH1 0x0 KECCAK256 PUSH1 0x0 ADD PUSH1 0x6 PUSH2 0x100 EXP DUP2 SLOAD DUP2 PUSH1 0xFF MUL NOT AND SWAP1 DUP4 ISZERO ISZERO MUL OR SWAP1 SSTORE POP PUSH1 0xF PUSH1 0x6B PUSH1 0x0 PUSH1 0x66 PUSH1 0x2 SWAP1 SLOAD SWAP1 PUSH2 0x100 EXP SWAP1 DIV PUSH20 0xFFFFFFFFFFFFFFFFFFFFFFFFFFFFFFFFFFFFFFFF AND PUSH20 0xFFFFFFFFFFFFFFFFFFFFFFFFFFFFFFFFFFFFFFFF AND PUSH20 0xFFFFFFFFFFFFFFFFFFFFFFFFFFFFFFFFFFFFFFFF AND DUP2 MSTORE PUSH1 0x20 ADD SWAP1 DUP2 MSTORE PUSH1 0x20 ADD PUSH1 0x0 KECCAK256 PUSH1 0x7 ADD PUSH1 0x0 DUP4 PUSH1 0xFF AND PUSH1 0xFF AND DUP2 MSTORE PUSH1 0x20 ADD SWAP1 DUP2 MSTORE PUSH1 0x20 ADD PUSH1 0x0 KECCAK256 PUSH1 0x0 ADD PUSH1 0x2 PUSH2 0x100 EXP DUP2 SLOAD DUP2 PUSH2 0xFFFF MUL NOT AND SWAP1 DUP4 PUSH2 0xFFFF AND MUL OR SWAP1 SSTORE POP PUSH1 0x6D PUSH1 0x0 DUP3 PUSH1 0xFF AND PUSH1 0xFF AND DUP2 MSTORE PUSH1 0x20 ADD SWAP1 DUP2 MSTORE PUSH1 0x20 ADD PUSH1 0x0 KECCAK256 PUSH1 0x66 PUSH1 0x2 SWAP1 SLOAD SWAP1 PUSH2 0x100 EXP SWAP1 DIV PUSH20 0xFFFFFFFFFFFFFFFFFFFFFFFFFFFFFFFFFFFFFFFF AND SWAP1 DUP1 PUSH1 0x1 DUP2 SLOAD ADD DUP1 DUP3 SSTORE DUP1 SWAP2 POP POP PUSH1 0x1 SWAP1 SUB SWAP1 PUSH1 0x0 MSTORE PUSH1 0x20 PUSH1 0x0 KECCAK256 ADD PUSH1 0x0 SWAP1 SWAP2 SWAP1 SWAP2 SWAP1 SWAP2 PUSH2 0x100 EXP DUP2 SLOAD DUP2 PUSH20 0xFFFFFFFFFFFFFFFFFFFFFFFFFFFFFFFFFFFFFFFF MUL NOT AND SWAP1 DUP4 PUSH20 0xFFFFFFFFFFFFFFFFFFFFFFFFFFFFFFFFFFFFFFFF AND MUL OR SWAP1 SSTORE POP DUP1 DUP1 PUSH1 0x1 ADD SWAP2 POP POP PUSH3 0x4CA JUMP JUMPDEST POP POP PUSH3 0x753 JUMP JUMPDEST DUP3 DUP1 SLOAD DUP3 DUP3 SSTORE SWAP1 PUSH1 0x0 MSTORE PUSH1 0x20 PUSH1 0x0 KECCAK256 SWAP1 DUP2 ADD SWAP3 DUP3 ISZERO PUSH3 0x721 JUMPI SWAP2 PUSH1 0x20 MUL DUP3 ADD JUMPDEST DUP3 DUP2 GT ISZERO PUSH3 0x720 JUMPI DUP3 MLOAD DUP3 SWAP1 PUSH8 0xFFFFFFFFFFFFFFFF AND SWAP1 SSTORE SWAP2 PUSH1 0x20 ADD SWAP2 SWAP1 PUSH1 0x1 ADD SWAP1 PUSH3 0x6F7 JUMP JUMPDEST JUMPDEST POP SWAP1 POP PUSH3 0x730 SWAP2 SWAP1 PUSH3 0x734 JUMP JUMPDEST POP SWAP1 JUMP JUMPDEST JUMPDEST DUP1 DUP3 GT ISZERO PUSH3 0x74F JUMPI PUSH1 0x0 DUP2 PUSH1 0x0 SWAP1 SSTORE POP PUSH1 0x1 ADD PUSH3 0x735 JUMP JUMPDEST POP SWAP1 JUMP JUMPDEST PUSH2 0x5178 DUP1 PUSH3 0x763 PUSH1 0x0 CODECOPY PUSH1 0x0 RETURN INVALID PUSH1 0x80 PUSH1 0x40 MSTORE PUSH1 0x4 CALLDATASIZE LT PUSH2 0x23F JUMPI PUSH1 0x0 CALLDATALOAD PUSH1 0xE0 SHR DUP1 PUSH4 0x693864F3 GT PUSH2 0x12E JUMPI DUP1 PUSH4 0xA7345F56 GT PUSH2 0xAB JUMPI DUP1 PUSH4 0xC34F6B0D GT PUSH2 0x6F JUMPI DUP1 PUSH4 0xC34F6B0D EQ PUSH2 0xFD9 JUMPI DUP1 PUSH4 0xC8E161A1 EQ PUSH2 0xFF0 JUMPI DUP1 PUSH4 0xCFCE5044 EQ PUSH2 0x1043 JUMPI DUP1 PUSH4 0xECA2C026 EQ PUSH2 0x10BC JUMPI DUP1 PUSH4 0xF21EFB5B EQ PUSH2 0x10EA JUMPI PUSH2 0x310 JUMP JUMPDEST DUP1 PUSH4 0xA7345F56 EQ PUSH2 0xE6F JUMPI DUP1 PUSH4 0xA9A9CFE0 EQ PUSH2 0xE9D JUMPI DUP1 PUSH4 0xB3791E7F EQ PUSH2 0xF02 JUMPI DUP1 PUSH4 0xBD4B77EE EQ PUSH2 0xF46 JUMPI DUP1 PUSH4 0xBFE24893 EQ PUSH2 0xFAB JUMPI PUSH2 0x310 JUMP JUMPDEST DUP1 PUSH4 0x8A03AD86 GT PUSH2 0xF2 JUMPI DUP1 PUSH4 0x8A03AD86 EQ PUSH2 0xCF7 JUMPI DUP1 PUSH4 0x8C4636C1 EQ PUSH2 0xD5C JUMPI DUP1 PUSH4 0x8DA5CB5B EQ PUSH2 0xDAF JUMPI DUP1 PUSH4 0x950FABF3 EQ PUSH2 0xDF0 JUMPI DUP1 PUSH4 0x968763A0 EQ PUSH2 0xE2B JUMPI PUSH2 0x310 JUMP JUMPDEST DUP1 PUSH4 0x693864F3 EQ PUSH2 0xB8E JUMPI DUP1 PUSH4 0x6F77926B EQ PUSH2 0xBDD JUMPI DUP1 PUSH4 0x6F9FB98A EQ PUSH2 0xC97 JUMPI DUP1 PUSH4 0x7CCD94DA EQ PUSH2 0xCC2 JUMPI DUP1 PUSH4 0x88B45046 EQ PUSH2 0xCED JUMPI PUSH2 0x310 JUMP JUMPDEST DUP1 PUSH4 0x2D3E474A GT PUSH2 0x1BC JUMPI DUP1 PUSH4 0x4CDBE908 GT PUSH2 0x180 JUMPI DUP1 PUSH4 0x4CDBE908 EQ PUSH2 0x9A3 JUMPI DUP1 PUSH4 0x5A8A14D0 EQ PUSH2 0x9D1 JUMPI DUP1 PUSH4 0x5C279FF9 EQ PUSH2 0xA02 JUMPI DUP1 PUSH4 0x5CE974B9 EQ PUSH2 0xAF0 JUMPI DUP1 PUSH4 0x5D7B1CC9 EQ PUSH2 0xB3F JUMPI PUSH2 0x310 JUMP JUMPDEST DUP1 PUSH4 0x2D3E474A EQ PUSH2 0x7DD JUMPI DUP1 PUSH4 0x3336B63E EQ PUSH2 0x81E JUMPI DUP1 PUSH4 0x375E3B55 EQ PUSH2 0x871 JUMPI DUP1 PUSH4 0x385399F9 EQ PUSH2 0x8C3 JUMPI DUP1 PUSH4 0x4A9FEFC7 EQ PUSH2 0x928 JUMPI PUSH2 0x310 JUMP JUMPDEST DUP1 PUSH4 0x21658658 GT PUSH2 0x203 JUMPI DUP1 PUSH4 0x21658658 EQ PUSH2 0x4BE JUMPI DUP1 PUSH4 0x230F7F82 EQ PUSH2 0x4E9 JUMPI DUP1 PUSH4 0x26EFD443 EQ PUSH2 0x6F7 JUMPI DUP1 PUSH4 0x2A2C908E EQ PUSH2 0x75C JUMPI DUP1 PUSH4 0x2CC8DA43 EQ PUSH2 0x7AF JUMPI PUSH2 0x310 JUMP JUMPDEST DUP1 PUSH4 0x1B91A17 EQ PUSH2 0x315 JUMPI DUP1 PUSH4 0x16279055 EQ PUSH2 0x381 JUMPI DUP1 PUSH4 0x163F7522 EQ PUSH2 0x3E8 JUMPI DUP1 PUSH4 0x1AA3A008 EQ PUSH2 0x44F JUMPI DUP1 PUSH4 0x1DFD8FE0 EQ PUSH2 0x459 JUMPI PUSH2 0x310 JUMP JUMPDEST CALLDATASIZE PUSH2 0x310 JUMPI PUSH1 0x0 PUSH1 0x1 SWAP1 POP JUMPDEST PUSH1 0x69 SLOAD DUP2 PUSH1 0xFF AND GT PUSH2 0x2BC JUMPI CALLVALUE PUSH1 0x68 DUP3 PUSH1 0xFF AND DUP2 SLOAD DUP2 LT PUSH2 0x268 JUMPI INVALID JUMPDEST SWAP1 PUSH1 0x0 MSTORE PUSH1 0x20 PUSH1 0x0 KECCAK256 ADD SLOAD EQ ISZERO PUSH2 0x2AF JUMPI PUSH1 0x1 DUP2 PUSH1 0xFF AND EQ DUP1 ISZERO PUSH2 0x292 JUMPI POP PUSH2 0x290 CALLER PUSH2 0x1115 JUMP JUMPDEST ISZERO JUMPDEST ISZERO PUSH2 0x2A0 JUMPI PUSH2 0x29F PUSH2 0x1164 JUMP JUMPDEST JUMPDEST PUSH2 0x2A9 DUP2 PUSH2 0x1191 JUMP JUMPDEST POP PUSH2 0x30E JUMP JUMPDEST DUP1 DUP1 PUSH1 0x1 ADD SWAP2 POP POP PUSH2 0x24B JUMP JUMPDEST POP PUSH1 0x40 MLOAD PUSH32 0x8C379A000000000000000000000000000000000000000000000000000000000 DUP2 MSTORE PUSH1 0x4 ADD DUP1 DUP1 PUSH1 0x20 ADD DUP3 DUP2 SUB DUP3 MSTORE PUSH1 0x35 DUP2 MSTORE PUSH1 0x20 ADD DUP1 PUSH2 0x510E PUSH1 0x35 SWAP2 CODECOPY PUSH1 0x40 ADD SWAP2 POP POP PUSH1 0x40 MLOAD DUP1 SWAP2 SUB SWAP1 REVERT JUMPDEST STOP JUMPDEST PUSH1 0x0 DUP1 REVERT JUMPDEST CALLVALUE DUP1 ISZERO PUSH2 0x321 JUMPI PUSH1 0x0 DUP1 REVERT JUMPDEST POP PUSH2 0x32A PUSH2 0x2931 JUMP JUMPDEST PUSH1 0x40 MLOAD DUP1 DUP1 PUSH1 0x20 ADD DUP3 DUP2 SUB DUP3 MSTORE DUP4 DUP2 DUP2 MLOAD DUP2 MSTORE PUSH1 0x20 ADD SWAP2 POP DUP1 MLOAD SWAP1 PUSH1 0x20 ADD SWAP1 PUSH1 0x20 MUL DUP1 DUP4 DUP4 PUSH1 0x0 JUMPDEST DUP4 DUP2 LT ISZERO PUSH2 0x36D JUMPI DUP1 DUP3 ADD MLOAD DUP2 DUP5 ADD MSTORE PUSH1 0x20 DUP2 ADD SWAP1 POP PUSH2 0x352 JUMP JUMPDEST POP POP POP POP SWAP1 POP ADD SWAP3 POP POP POP PUSH1 0x40 MLOAD DUP1 SWAP2 SUB SWAP1 RETURN JUMPDEST CALLVALUE DUP1 ISZERO PUSH2 0x38D JUMPI PUSH1 0x0 DUP1 REVERT JUMPDEST POP PUSH2 0x3D0 PUSH1 0x4 DUP1 CALLDATASIZE SUB PUSH1 0x20 DUP2 LT ISZERO PUSH2 0x3A4 JUMPI PUSH1 0x0 DUP1 REVERT JUMPDEST DUP2 ADD SWAP1 DUP1 DUP1 CALLDATALOAD PUSH20 0xFFFFFFFFFFFFFFFFFFFFFFFFFFFFFFFFFFFFFFFF AND SWAP1 PUSH1 0x20 ADD SWAP1 SWAP3 SWAP2 SWAP1 POP POP POP PUSH2 0x2989 JUMP JUMPDEST PUSH1 0x40 MLOAD DUP1 DUP3 ISZERO ISZERO DUP2 MSTORE PUSH1 0x20 ADD SWAP2 POP POP PUSH1 0x40 MLOAD DUP1 SWAP2 SUB SWAP1 RETURN JUMPDEST CALLVALUE DUP1 ISZERO PUSH2 0x3F4 JUMPI PUSH1 0x0 DUP1 REVERT JUMPDEST POP PUSH2 0x437 PUSH1 0x4 DUP1 CALLDATASIZE SUB PUSH1 0x20 DUP2 LT ISZERO PUSH2 0x40B JUMPI PUSH1 0x0 DUP1 REVERT JUMPDEST DUP2 ADD SWAP1 DUP1 DUP1 CALLDATALOAD PUSH20 0xFFFFFFFFFFFFFFFFFFFFFFFFFFFFFFFFFFFFFFFF AND SWAP1 PUSH1 0x20 ADD SWAP1 SWAP3 SWAP2 SWAP1 POP POP POP PUSH2 0x1115 JUMP JUMPDEST PUSH1 0x40 MLOAD DUP1 DUP3 ISZERO ISZERO DUP2 MSTORE PUSH1 0x20 ADD SWAP2 POP POP PUSH1 0x40 MLOAD DUP1 SWAP2 SUB SWAP1 RETURN JUMPDEST PUSH2 0x457 PUSH2 0x1164 JUMP JUMPDEST STOP JUMPDEST CALLVALUE DUP1 ISZERO PUSH2 0x465 JUMPI PUSH1 0x0 DUP1 REVERT JUMPDEST POP PUSH2 0x492 PUSH1 0x4 DUP1 CALLDATASIZE SUB PUSH1 0x20 DUP2 LT ISZERO PUSH2 0x47C JUMPI PUSH1 0x0 DUP1 REVERT JUMPDEST DUP2 ADD SWAP1 DUP1 DUP1 CALLDATALOAD SWAP1 PUSH1 0x20 ADD SWAP1 SWAP3 SWAP2 SWAP1 POP POP POP PUSH2 0x29A3 JUMP JUMPDEST PUSH1 0x40 MLOAD DUP1 DUP3 PUSH20 0xFFFFFFFFFFFFFFFFFFFFFFFFFFFFFFFFFFFFFFFF AND DUP2 MSTORE PUSH1 0x20 ADD SWAP2 POP POP PUSH1 0x40 MLOAD DUP1 SWAP2 SUB SWAP1 RETURN JUMPDEST CALLVALUE DUP1 ISZERO PUSH2 0x4CA JUMPI PUSH1 0x0 DUP1 REVERT JUMPDEST POP PUSH2 0x4D3 PUSH2 0x29D6 JUMP JUMPDEST PUSH1 0x40 MLOAD DUP1 DUP3 DUP2 MSTORE PUSH1 0x20 ADD SWAP2 POP POP PUSH1 0x40 MLOAD DUP1 SWAP2 SUB SWAP1 RETURN JUMPDEST CALLVALUE DUP1 ISZERO PUSH2 0x4F5 JUMPI PUSH1 0x0 DUP1 REVERT JUMPDEST POP PUSH2 0x538 PUSH1 0x4 DUP1 CALLDATASIZE SUB PUSH1 0x20 DUP2 LT ISZERO PUSH2 0x50C JUMPI PUSH1 0x0 DUP1 REVERT JUMPDEST DUP2 ADD SWAP1 DUP1 DUP1 CALLDATALOAD PUSH20 0xFFFFFFFFFFFFFFFFFFFFFFFFFFFFFFFFFFFFFFFF AND SWAP1 PUSH1 0x20 ADD SWAP1 SWAP3 SWAP2 SWAP1 POP POP POP PUSH2 0x29DB JUMP JUMPDEST PUSH1 0x40 MLOAD DUP1 DUP1 PUSH1 0x20 ADD DUP1 PUSH1 0x20 ADD DUP1 PUSH1 0x20 ADD DUP1 PUSH1 0x20 ADD DUP1 PUSH1 0x20 ADD DUP1 PUSH1 0x20 ADD DUP8 DUP2 SUB DUP8 MSTORE DUP14 DUP2 DUP2 MLOAD DUP2 MSTORE PUSH1 0x20 ADD SWAP2 POP DUP1 MLOAD SWAP1 PUSH1 0x20 ADD SWAP1 PUSH1 0x20 MUL DUP1 DUP4 DUP4 PUSH1 0x0 JUMPDEST DUP4 DUP2 LT ISZERO PUSH2 0x58F JUMPI DUP1 DUP3 ADD MLOAD DUP2 DUP5 ADD MSTORE PUSH1 0x20 DUP2 ADD SWAP1 POP PUSH2 0x574 JUMP JUMPDEST POP POP POP POP SWAP1 POP ADD DUP8 DUP2 SUB DUP7 MSTORE DUP13 DUP2 DUP2 MLOAD DUP2 MSTORE PUSH1 0x20 ADD SWAP2 POP DUP1 MLOAD SWAP1 PUSH1 0x20 ADD SWAP1 PUSH1 0x20 MUL DUP1 DUP4 DUP4 PUSH1 0x0 JUMPDEST DUP4 DUP2 LT ISZERO PUSH2 0x5D1 JUMPI DUP1 DUP3 ADD MLOAD DUP2 DUP5 ADD MSTORE PUSH1 0x20 DUP2 ADD SWAP1 POP PUSH2 0x5B6 JUMP JUMPDEST POP POP POP POP SWAP1 POP ADD DUP8 DUP2 SUB DUP6 MSTORE DUP12 DUP2 DUP2 MLOAD DUP2 MSTORE PUSH1 0x20 ADD SWAP2 POP DUP1 MLOAD SWAP1 PUSH1 0x20 ADD SWAP1 PUSH1 0x20 MUL DUP1 DUP4 DUP4 PUSH1 0x0 JUMPDEST DUP4 DUP2 LT ISZERO PUSH2 0x613 JUMPI DUP1 DUP3 ADD MLOAD DUP2 DUP5 ADD MSTORE PUSH1 0x20 DUP2 ADD SWAP1 POP PUSH2 0x5F8 JUMP JUMPDEST POP POP POP POP SWAP1 POP ADD DUP8 DUP2 SUB DUP5 MSTORE DUP11 DUP2 DUP2 MLOAD DUP2 MSTORE PUSH1 0x20 ADD SWAP2 POP DUP1 MLOAD SWAP1 PUSH1 0x20 ADD SWAP1 PUSH1 0x20 MUL DUP1 DUP4 DUP4 PUSH1 0x0 JUMPDEST DUP4 DUP2 LT ISZERO PUSH2 0x655 JUMPI DUP1 DUP3 ADD MLOAD DUP2 DUP5 ADD MSTORE PUSH1 0x20 DUP2 ADD SWAP1 POP PUSH2 0x63A JUMP JUMPDEST POP POP POP POP SWAP1 POP ADD DUP8 DUP2 SUB DUP4 MSTORE DUP10 DUP2 DUP2 MLOAD DUP2 MSTORE PUSH1 0x20 ADD SWAP2 POP DUP1 MLOAD SWAP1 PUSH1 0x20 ADD SWAP1 PUSH1 0x20 MUL DUP1 DUP4 DUP4 PUSH1 0x0 JUMPDEST DUP4 DUP2 LT ISZERO PUSH2 0x697 JUMPI DUP1 DUP3 ADD MLOAD DUP2 DUP5 ADD MSTORE PUSH1 0x20 DUP2 ADD SWAP1 POP PUSH2 0x67C JUMP JUMPDEST POP POP POP POP SWAP1 POP ADD DUP8 DUP2 SUB DUP3 MSTORE DUP9 DUP2 DUP2 MLOAD DUP2 MSTORE PUSH1 0x20 ADD SWAP2 POP DUP1 MLOAD SWAP1 PUSH1 0x20 ADD SWAP1 PUSH1 0x20 MUL DUP1 DUP4 DUP4 PUSH1 0x0 JUMPDEST DUP4 DUP2 LT ISZERO PUSH2 0x6D9 JUMPI DUP1 DUP3 ADD MLOAD DUP2 DUP5 ADD MSTORE PUSH1 0x20 DUP2 ADD SWAP1 POP PUSH2 0x6BE JUMP JUMPDEST POP POP POP POP SWAP1 POP ADD SWAP13 POP POP POP POP POP POP POP POP POP POP POP POP POP PUSH1 0x40 MLOAD DUP1 SWAP2 SUB SWAP1 RETURN JUMPDEST CALLVALUE DUP1 ISZERO PUSH2 0x703 JUMPI PUSH1 0x0 DUP1 REVERT JUMPDEST POP PUSH2 0x730 PUSH1 0x4 DUP1 CALLDATASIZE SUB PUSH1 0x20 DUP2 LT ISZERO PUSH2 0x71A JUMPI PUSH1 0x0 DUP1 REVERT JUMPDEST DUP2 ADD SWAP1 DUP1 DUP1 CALLDATALOAD SWAP1 PUSH1 0x20 ADD SWAP1 SWAP3 SWAP2 SWAP1 POP POP POP PUSH2 0x2F31 JUMP JUMPDEST PUSH1 0x40 MLOAD DUP1 DUP3 PUSH20 0xFFFFFFFFFFFFFFFFFFFFFFFFFFFFFFFFFFFFFFFF AND DUP2 MSTORE PUSH1 0x20 ADD SWAP2 POP POP PUSH1 0x40 MLOAD DUP1 SWAP2 SUB SWAP1 RETURN JUMPDEST CALLVALUE DUP1 ISZERO PUSH2 0x768 JUMPI PUSH1 0x0 DUP1 REVERT JUMPDEST POP PUSH2 0x771 PUSH2 0x2F64 JUMP JUMPDEST PUSH1 0x40 MLOAD DUP1 DUP3 PUSH1 0x5 PUSH1 0x20 MUL DUP1 DUP4 DUP4 PUSH1 0x0 JUMPDEST DUP4 DUP2 LT ISZERO PUSH2 0x79C JUMPI DUP1 DUP3 ADD MLOAD DUP2 DUP5 ADD MSTORE PUSH1 0x20 DUP2 ADD SWAP1 POP PUSH2 0x781 JUMP JUMPDEST POP POP POP POP SWAP1 POP ADD SWAP2 POP POP PUSH1 0x40 MLOAD DUP1 SWAP2 SUB SWAP1 RETURN JUMPDEST CALLVALUE DUP1 ISZERO PUSH2 0x7BB JUMPI PUSH1 0x0 DUP1 REVERT JUMPDEST POP PUSH2 0x7C4 PUSH2 0x2FAB JUMP JUMPDEST PUSH1 0x40 MLOAD DUP1 DUP3 PUSH1 0xFF AND DUP2 MSTORE PUSH1 0x20 ADD SWAP2 POP POP PUSH1 0x40 MLOAD DUP1 SWAP2 SUB SWAP1 RETURN JUMPDEST CALLVALUE DUP1 ISZERO PUSH2 0x7E9 JUMPI PUSH1 0x0 DUP1 REVERT JUMPDEST POP PUSH2 0x7F2 PUSH2 0x2FB0 JUMP JUMPDEST PUSH1 0x40 MLOAD DUP1 DUP3 PUSH20 0xFFFFFFFFFFFFFFFFFFFFFFFFFFFFFFFFFFFFFFFF AND DUP2 MSTORE PUSH1 0x20 ADD SWAP2 POP POP PUSH1 0x40 MLOAD DUP1 SWAP2 SUB SWAP1 RETURN JUMPDEST CALLVALUE DUP1 ISZERO PUSH2 0x82A JUMPI PUSH1 0x0 DUP1 REVERT JUMPDEST POP PUSH2 0x833 PUSH2 0x2FD6 JUMP JUMPDEST PUSH1 0x40 MLOAD DUP1 DUP3 PUSH1 0x10 PUSH1 0x20 MUL DUP1 DUP4 DUP4 PUSH1 0x0 JUMPDEST DUP4 DUP2 LT ISZERO PUSH2 0x85E JUMPI DUP1 DUP3 ADD MLOAD DUP2 DUP5 ADD MSTORE PUSH1 0x20 DUP2 ADD SWAP1 POP PUSH2 0x843 JUMP JUMPDEST POP POP POP POP SWAP1 POP ADD SWAP2 POP POP PUSH1 0x40 MLOAD DUP1 SWAP2 SUB SWAP1 RETURN JUMPDEST CALLVALUE DUP1 ISZERO PUSH2 0x87D JUMPI PUSH1 0x0 DUP1 REVERT JUMPDEST POP PUSH2 0x8AD PUSH1 0x4 DUP1 CALLDATASIZE SUB PUSH1 0x20 DUP2 LT ISZERO PUSH2 0x894 JUMPI PUSH1 0x0 DUP1 REVERT JUMPDEST DUP2 ADD SWAP1 DUP1 DUP1 CALLDATALOAD PUSH1 0xFF AND SWAP1 PUSH1 0x20 ADD SWAP1 SWAP3 SWAP2 SWAP1 POP POP POP PUSH2 0x3021 JUMP JUMPDEST PUSH1 0x40 MLOAD DUP1 DUP3 DUP2 MSTORE PUSH1 0x20 ADD SWAP2 POP POP PUSH1 0x40 MLOAD DUP1 SWAP2 SUB SWAP1 RETURN JUMPDEST CALLVALUE DUP1 ISZERO PUSH2 0x8CF JUMPI PUSH1 0x0 DUP1 REVERT JUMPDEST POP PUSH2 0x912 PUSH1 0x4 DUP1 CALLDATASIZE SUB PUSH1 0x20 DUP2 LT ISZERO PUSH2 0x8E6 JUMPI PUSH1 0x0 DUP1 REVERT JUMPDEST DUP2 ADD SWAP1 DUP1 DUP1 CALLDATALOAD PUSH20 0xFFFFFFFFFFFFFFFFFFFFFFFFFFFFFFFFFFFFFFFF AND SWAP1 PUSH1 0x20 ADD SWAP1 SWAP3 SWAP2 SWAP1 POP POP POP PUSH2 0x3092 JUMP JUMPDEST PUSH1 0x40 MLOAD DUP1 DUP3 DUP2 MSTORE PUSH1 0x20 ADD SWAP2 POP POP PUSH1 0x40 MLOAD DUP1 SWAP2 SUB SWAP1 RETURN JUMPDEST CALLVALUE DUP1 ISZERO PUSH2 0x934 JUMPI PUSH1 0x0 DUP1 REVERT JUMPDEST POP PUSH2 0x977 PUSH1 0x4 DUP1 CALLDATASIZE SUB PUSH1 0x20 DUP2 LT ISZERO PUSH2 0x94B JUMPI PUSH1 0x0 DUP1 REVERT JUMPDEST DUP2 ADD SWAP1 DUP1 DUP1 CALLDATALOAD PUSH20 0xFFFFFFFFFFFFFFFFFFFFFFFFFFFFFFFFFFFFFFFF AND SWAP1 PUSH1 0x20 ADD SWAP1 SWAP3 SWAP2 SWAP1 POP POP POP PUSH2 0x30DE JUMP JUMPDEST PUSH1 0x40 MLOAD DUP1 DUP3 PUSH20 0xFFFFFFFFFFFFFFFFFFFFFFFFFFFFFFFFFFFFFFFF AND DUP2 MSTORE PUSH1 0x20 ADD SWAP2 POP POP PUSH1 0x40 MLOAD DUP1 SWAP2 SUB SWAP1 RETURN JUMPDEST CALLVALUE DUP1 ISZERO PUSH2 0x9AF JUMPI PUSH1 0x0 DUP1 REVERT JUMPDEST POP PUSH2 0x9B8 PUSH2 0x31C5 JUMP JUMPDEST PUSH1 0x40 MLOAD DUP1 DUP3 PUSH1 0xFF AND DUP2 MSTORE PUSH1 0x20 ADD SWAP2 POP POP PUSH1 0x40 MLOAD DUP1 SWAP2 SUB SWAP1 RETURN JUMPDEST PUSH2 0xA00 PUSH1 0x4 DUP1 CALLDATASIZE SUB PUSH1 0x20 DUP2 LT ISZERO PUSH2 0x9E7 JUMPI PUSH1 0x0 DUP1 REVERT JUMPDEST DUP2 ADD SWAP1 DUP1 DUP1 CALLDATALOAD PUSH1 0xFF AND SWAP1 PUSH1 0x20 ADD SWAP1 SWAP3 SWAP2 SWAP1 POP POP POP PUSH2 0x1191 JUMP JUMPDEST STOP JUMPDEST CALLVALUE DUP1 ISZERO PUSH2 0xA0E JUMPI PUSH1 0x0 DUP1 REVERT JUMPDEST POP PUSH2 0xA51 PUSH1 0x4 DUP1 CALLDATASIZE SUB PUSH1 0x20 DUP2 LT ISZERO PUSH2 0xA25 JUMPI PUSH1 0x0 DUP1 REVERT JUMPDEST DUP2 ADD SWAP1 DUP1 DUP1 CALLDATALOAD PUSH20 0xFFFFFFFFFFFFFFFFFFFFFFFFFFFFFFFFFFFFFFFF AND SWAP1 PUSH1 0x20 ADD SWAP1 SWAP3 SWAP2 SWAP1 POP POP POP PUSH2 0x31D8 JUMP JUMPDEST PUSH1 0x40 MLOAD DUP1 DUP1 PUSH1 0x20 ADD DUP1 PUSH1 0x20 ADD DUP4 DUP2 SUB DUP4 MSTORE DUP6 DUP2 DUP2 MLOAD DUP2 MSTORE PUSH1 0x20 ADD SWAP2 POP DUP1 MLOAD SWAP1 PUSH1 0x20 ADD SWAP1 PUSH1 0x20 MUL DUP1 DUP4 DUP4 PUSH1 0x0 JUMPDEST DUP4 DUP2 LT ISZERO PUSH2 0xA98 JUMPI DUP1 DUP3 ADD MLOAD DUP2 DUP5 ADD MSTORE PUSH1 0x20 DUP2 ADD SWAP1 POP PUSH2 0xA7D JUMP JUMPDEST POP POP POP POP SWAP1 POP ADD DUP4 DUP2 SUB DUP3 MSTORE DUP5 DUP2 DUP2 MLOAD DUP2 MSTORE PUSH1 0x20 ADD SWAP2 POP DUP1 MLOAD SWAP1 PUSH1 0x20 ADD SWAP1 PUSH1 0x20 MUL DUP1 DUP4 DUP4 PUSH1 0x0 JUMPDEST DUP4 DUP2 LT ISZERO PUSH2 0xADA JUMPI DUP1 DUP3 ADD MLOAD DUP2 DUP5 ADD MSTORE PUSH1 0x20 DUP2 ADD SWAP1 POP PUSH2 0xABF JUMP JUMPDEST POP POP POP POP SWAP1 POP ADD SWAP5 POP POP POP POP POP PUSH1 0x40 MLOAD DUP1 SWAP2 SUB SWAP1 RETURN JUMPDEST CALLVALUE DUP1 ISZERO PUSH2 0xAFC JUMPI PUSH1 0x0 DUP1 REVERT JUMPDEST POP PUSH2 0xB29 PUSH1 0x4 DUP1 CALLDATASIZE SUB PUSH1 0x20 DUP2 LT ISZERO PUSH2 0xB13 JUMPI PUSH1 0x0 DUP1 REVERT JUMPDEST DUP2 ADD SWAP1 DUP1 DUP1 CALLDATALOAD SWAP1 PUSH1 0x20 ADD SWAP1 SWAP3 SWAP2 SWAP1 POP POP POP PUSH2 0x3399 JUMP JUMPDEST PUSH1 0x40 MLOAD DUP1 DUP3 DUP2 MSTORE PUSH1 0x20 ADD SWAP2 POP POP PUSH1 0x40 MLOAD DUP1 SWAP2 SUB SWAP1 RETURN JUMPDEST CALLVALUE DUP1 ISZERO PUSH2 0xB4B JUMPI PUSH1 0x0 DUP1 REVERT JUMPDEST POP PUSH2 0xB78 PUSH1 0x4 DUP1 CALLDATASIZE SUB PUSH1 0x20 DUP2 LT ISZERO PUSH2 0xB62 JUMPI PUSH1 0x0 DUP1 REVERT JUMPDEST DUP2 ADD SWAP1 DUP1 DUP1 CALLDATALOAD SWAP1 PUSH1 0x20 ADD SWAP1 SWAP3 SWAP2 SWAP1 POP POP POP PUSH2 0x33B1 JUMP JUMPDEST PUSH1 0x40 MLOAD DUP1 DUP3 DUP2 MSTORE PUSH1 0x20 ADD SWAP2 POP POP PUSH1 0x40 MLOAD DUP1 SWAP2 SUB SWAP1 RETURN JUMPDEST CALLVALUE DUP1 ISZERO PUSH2 0xB9A JUMPI PUSH1 0x0 DUP1 REVERT JUMPDEST POP PUSH2 0xBC7 PUSH1 0x4 DUP1 CALLDATASIZE SUB PUSH1 0x20 DUP2 LT ISZERO PUSH2 0xBB1 JUMPI PUSH1 0x0 DUP1 REVERT JUMPDEST DUP2 ADD SWAP1 DUP1 DUP1 CALLDATALOAD SWAP1 PUSH1 0x20 ADD SWAP1 SWAP3 SWAP2 SWAP1 POP POP POP PUSH2 0x33D2 JUMP JUMPDEST PUSH1 0x40 MLOAD DUP1 DUP3 DUP2 MSTORE PUSH1 0x20 ADD SWAP2 POP POP PUSH1 0x40 MLOAD DUP1 SWAP2 SUB SWAP1 RETURN JUMPDEST CALLVALUE DUP1 ISZERO PUSH2 0xBE9 JUMPI PUSH1 0x0 DUP1 REVERT JUMPDEST POP PUSH2 0xC2C PUSH1 0x4 DUP1 CALLDATASIZE SUB PUSH1 0x20 DUP2 LT ISZERO PUSH2 0xC00 JUMPI PUSH1 0x0 DUP1 REVERT JUMPDEST DUP2 ADD SWAP1 DUP1 DUP1 CALLDATALOAD PUSH20 0xFFFFFFFFFFFFFFFFFFFFFFFFFFFFFFFFFFFFFFFF AND SWAP1 PUSH1 0x20 ADD SWAP1 SWAP3 SWAP2 SWAP1 POP POP POP PUSH2 0x33EA JUMP JUMPDEST PUSH1 0x40 MLOAD DUP1 DUP12 DUP2 MSTORE PUSH1 0x20 ADD DUP11 DUP2 MSTORE PUSH1 0x20 ADD DUP10 DUP2 MSTORE PUSH1 0x20 ADD DUP9 PUSH20 0xFFFFFFFFFFFFFFFFFFFFFFFFFFFFFFFFFFFFFFFF AND DUP2 MSTORE PUSH1 0x20 ADD DUP8 DUP2 MSTORE PUSH1 0x20 ADD DUP7 DUP2 MSTORE PUSH1 0x20 ADD DUP6 DUP2 MSTORE PUSH1 0x20 ADD DUP5 DUP2 MSTORE PUSH1 0x20 ADD DUP4 DUP2 MSTORE PUSH1 0x20 ADD DUP3 DUP2 MSTORE PUSH1 0x20 ADD SWAP11 POP POP POP POP POP POP POP POP POP POP POP PUSH1 0x40 MLOAD DUP1 SWAP2 SUB SWAP1 RETURN JUMPDEST CALLVALUE DUP1 ISZERO PUSH2 0xCA3 JUMPI PUSH1 0x0 DUP1 REVERT JUMPDEST POP PUSH2 0xCAC PUSH2 0x35A4 JUMP JUMPDEST PUSH1 0x40 MLOAD DUP1 DUP3 DUP2 MSTORE PUSH1 0x20 ADD SWAP2 POP POP PUSH1 0x40 MLOAD DUP1 SWAP2 SUB SWAP1 RETURN JUMPDEST CALLVALUE DUP1 ISZERO PUSH2 0xCCE JUMPI PUSH1 0x0 DUP1 REVERT JUMPDEST POP PUSH2 0xCD7 PUSH2 0x35AC JUMP JUMPDEST PUSH1 0x40 MLOAD DUP1 DUP3 DUP2 MSTORE PUSH1 0x20 ADD SWAP2 POP POP PUSH1 0x40 MLOAD DUP1 SWAP2 SUB SWAP1 RETURN JUMPDEST PUSH2 0xCF5 PUSH2 0x35B2 JUMP JUMPDEST STOP JUMPDEST CALLVALUE DUP1 ISZERO PUSH2 0xD03 JUMPI PUSH1 0x0 DUP1 REVERT JUMPDEST POP PUSH2 0xD30 PUSH1 0x4 DUP1 CALLDATASIZE SUB PUSH1 0x20 DUP2 LT ISZERO PUSH2 0xD1A JUMPI PUSH1 0x0 DUP1 REVERT JUMPDEST DUP2 ADD SWAP1 DUP1 DUP1 CALLDATALOAD SWAP1 PUSH1 0x20 ADD SWAP1 SWAP3 SWAP2 SWAP1 POP POP POP PUSH2 0x35B4 JUMP JUMPDEST PUSH1 0x40 MLOAD DUP1 DUP3 PUSH20 0xFFFFFFFFFFFFFFFFFFFFFFFFFFFFFFFFFFFFFFFF AND DUP2 MSTORE PUSH1 0x20 ADD SWAP2 POP POP PUSH1 0x40 MLOAD DUP1 SWAP2 SUB SWAP1 RETURN JUMPDEST CALLVALUE DUP1 ISZERO PUSH2 0xD68 JUMPI PUSH1 0x0 DUP1 REVERT JUMPDEST POP PUSH2 0xD71 PUSH2 0x35F1 JUMP JUMPDEST PUSH1 0x40 MLOAD DUP1 DUP3 PUSH1 0x32 PUSH1 0x20 MUL DUP1 DUP4 DUP4 PUSH1 0x0 JUMPDEST DUP4 DUP2 LT ISZERO PUSH2 0xD9C JUMPI DUP1 DUP3 ADD MLOAD DUP2 DUP5 ADD MSTORE PUSH1 0x20 DUP2 ADD SWAP1 POP PUSH2 0xD81 JUMP JUMPDEST POP POP POP POP SWAP1 POP ADD SWAP2 POP POP PUSH1 0x40 MLOAD DUP1 SWAP2 SUB SWAP1 RETURN JUMPDEST CALLVALUE DUP1 ISZERO PUSH2 0xDBB JUMPI PUSH1 0x0 DUP1 REVERT JUMPDEST POP PUSH2 0xDC4 PUSH2 0x3672 JUMP JUMPDEST PUSH1 0x40 MLOAD DUP1 DUP3 PUSH20 0xFFFFFFFFFFFFFFFFFFFFFFFFFFFFFFFFFFFFFFFF AND DUP2 MSTORE PUSH1 0x20 ADD SWAP2 POP POP PUSH1 0x40 MLOAD DUP1 SWAP2 SUB SWAP1 RETURN JUMPDEST CALLVALUE DUP1 ISZERO PUSH2 0xDFC JUMPI PUSH1 0x0 DUP1 REVERT JUMPDEST POP PUSH2 0xE29 PUSH1 0x4 DUP1 CALLDATASIZE SUB PUSH1 0x20 DUP2 LT ISZERO PUSH2 0xE13 JUMPI PUSH1 0x0 DUP1 REVERT JUMPDEST DUP2 ADD SWAP1 DUP1 DUP1 CALLDATALOAD SWAP1 PUSH1 0x20 ADD SWAP1 SWAP3 SWAP2 SWAP1 POP POP POP PUSH2 0x3698 JUMP JUMPDEST STOP JUMPDEST PUSH2 0xE6D PUSH1 0x4 DUP1 CALLDATASIZE SUB PUSH1 0x20 DUP2 LT ISZERO PUSH2 0xE41 JUMPI PUSH1 0x0 DUP1 REVERT JUMPDEST DUP2 ADD SWAP1 DUP1 DUP1 CALLDATALOAD PUSH20 0xFFFFFFFFFFFFFFFFFFFFFFFFFFFFFFFFFFFFFFFF AND SWAP1 PUSH1 0x20 ADD SWAP1 SWAP3 SWAP2 SWAP1 POP POP POP PUSH2 0x3B8D JUMP JUMPDEST STOP JUMPDEST CALLVALUE DUP1 ISZERO PUSH2 0xE7B JUMPI PUSH1 0x0 DUP1 REVERT JUMPDEST POP PUSH2 0xE84 PUSH2 0x4094 JUMP JUMPDEST PUSH1 0x40 MLOAD DUP1 DUP3 PUSH1 0xFF AND DUP2 MSTORE PUSH1 0x20 ADD SWAP2 POP POP PUSH1 0x40 MLOAD DUP1 SWAP2 SUB SWAP1 RETURN JUMPDEST CALLVALUE DUP1 ISZERO PUSH2 0xEA9 JUMPI PUSH1 0x0 DUP1 REVERT JUMPDEST POP PUSH2 0xEEC PUSH1 0x4 DUP1 CALLDATASIZE SUB PUSH1 0x20 DUP2 LT ISZERO PUSH2 0xEC0 JUMPI PUSH1 0x0 DUP1 REVERT JUMPDEST DUP2 ADD SWAP1 DUP1 DUP1 CALLDATALOAD PUSH20 0xFFFFFFFFFFFFFFFFFFFFFFFFFFFFFFFFFFFFFFFF AND SWAP1 PUSH1 0x20 ADD SWAP1 SWAP3 SWAP2 SWAP1 POP POP POP PUSH2 0x40A7 JUMP JUMPDEST PUSH1 0x40 MLOAD DUP1 DUP3 DUP2 MSTORE PUSH1 0x20 ADD SWAP2 POP POP PUSH1 0x40 MLOAD DUP1 SWAP2 SUB SWAP1 RETURN JUMPDEST PUSH2 0xF44 PUSH1 0x4 DUP1 CALLDATASIZE SUB PUSH1 0x20 DUP2 LT ISZERO PUSH2 0xF18 JUMPI PUSH1 0x0 DUP1 REVERT JUMPDEST DUP2 ADD SWAP1 DUP1 DUP1 CALLDATALOAD PUSH20 0xFFFFFFFFFFFFFFFFFFFFFFFFFFFFFFFFFFFFFFFF AND SWAP1 PUSH1 0x20 ADD SWAP1 SWAP3 SWAP2 SWAP1 POP POP POP PUSH2 0x40BF JUMP JUMPDEST STOP JUMPDEST CALLVALUE DUP1 ISZERO PUSH2 0xF52 JUMPI PUSH1 0x0 DUP1 REVERT JUMPDEST POP PUSH2 0xF95 PUSH1 0x4 DUP1 CALLDATASIZE SUB PUSH1 0x20 DUP2 LT ISZERO PUSH2 0xF69 JUMPI PUSH1 0x0 DUP1 REVERT JUMPDEST DUP2 ADD SWAP1 DUP1 DUP1 CALLDATALOAD PUSH20 0xFFFFFFFFFFFFFFFFFFFFFFFFFFFFFFFFFFFFFFFF AND SWAP1 PUSH1 0x20 ADD SWAP1 SWAP3 SWAP2 SWAP1 POP POP POP PUSH2 0x40D5 JUMP JUMPDEST PUSH1 0x40 MLOAD DUP1 DUP3 DUP2 MSTORE PUSH1 0x20 ADD SWAP2 POP POP PUSH1 0x40 MLOAD DUP1 SWAP2 SUB SWAP1 RETURN JUMPDEST CALLVALUE DUP1 ISZERO PUSH2 0xFB7 JUMPI PUSH1 0x0 DUP1 REVERT JUMPDEST POP PUSH2 0xFC0 PUSH2 0x4188 JUMP JUMPDEST PUSH1 0x40 MLOAD DUP1 DUP3 PUSH1 0xFF AND DUP2 MSTORE PUSH1 0x20 ADD SWAP2 POP POP PUSH1 0x40 MLOAD DUP1 SWAP2 SUB SWAP1 RETURN JUMPDEST CALLVALUE DUP1 ISZERO PUSH2 0xFE5 JUMPI PUSH1 0x0 DUP1 REVERT JUMPDEST POP PUSH2 0xFEE PUSH2 0x418D JUMP JUMPDEST STOP JUMPDEST CALLVALUE DUP1 ISZERO PUSH2 0xFFC JUMPI PUSH1 0x0 DUP1 REVERT JUMPDEST POP PUSH2 0x1005 PUSH2 0x439B JUMP JUMPDEST PUSH1 0x40 MLOAD DUP1 DUP3 PUSH1 0x10 PUSH1 0x20 MUL DUP1 DUP4 DUP4 PUSH1 0x0 JUMPDEST DUP4 DUP2 LT ISZERO PUSH2 0x1030 JUMPI DUP1 DUP3 ADD MLOAD DUP2 DUP5 ADD MSTORE PUSH1 0x20 DUP2 ADD SWAP1 POP PUSH2 0x1015 JUMP JUMPDEST POP POP POP POP SWAP1 POP ADD SWAP2 POP POP PUSH1 0x40 MLOAD DUP1 SWAP2 SUB SWAP1 RETURN JUMPDEST CALLVALUE DUP1 ISZERO PUSH2 0x104F JUMPI PUSH1 0x0 DUP1 REVERT JUMPDEST POP PUSH2 0x109F PUSH1 0x4 DUP1 CALLDATASIZE SUB PUSH1 0x40 DUP2 LT ISZERO PUSH2 0x1066 JUMPI PUSH1 0x0 DUP1 REVERT JUMPDEST DUP2 ADD SWAP1 DUP1 DUP1 CALLDATALOAD PUSH20 0xFFFFFFFFFFFFFFFFFFFFFFFFFFFFFFFFFFFFFFFF AND SWAP1 PUSH1 0x20 ADD SWAP1 SWAP3 SWAP2 SWAP1 DUP1 CALLDATALOAD PUSH1 0xFF AND SWAP1 PUSH1 0x20 ADD SWAP1 SWAP3 SWAP2 SWAP1 POP POP POP PUSH2 0x43E6 JUMP JUMPDEST PUSH1 0x40 MLOAD DUP1 DUP4 DUP2 MSTORE PUSH1 0x20 ADD DUP3 DUP2 MSTORE PUSH1 0x20 ADD SWAP3 POP POP POP PUSH1 0x40 MLOAD DUP1 SWAP2 SUB SWAP1 RETURN JUMPDEST CALLVALUE DUP1 ISZERO PUSH2 0x10C8 JUMPI PUSH1 0x0 DUP1 REVERT JUMPDEST POP PUSH2 0x10D1 PUSH2 0x4619 JUMP JUMPDEST PUSH1 0x40 MLOAD DUP1 DUP3 PUSH1 0xFF AND DUP2 MSTORE PUSH1 0x20 ADD SWAP2 POP POP PUSH1 0x40 MLOAD DUP1 SWAP2 SUB SWAP1 RETURN JUMPDEST CALLVALUE DUP1 ISZERO PUSH2 0x10F6 JUMPI PUSH1 0x0 DUP1 REVERT JUMPDEST POP PUSH2 0x10FF PUSH2 0x461E JUMP JUMPDEST PUSH1 0x40 MLOAD DUP1 DUP3 DUP2 MSTORE PUSH1 0x20 ADD SWAP2 POP POP PUSH1 0x40 MLOAD DUP1 SWAP2 SUB SWAP1 RETURN JUMPDEST PUSH1 0x0 DUP1 PUSH1 0x6B PUSH1 0x0 DUP5 PUSH20 0xFFFFFFFFFFFFFFFFFFFFFFFFFFFFFFFFFFFFFFFF AND PUSH20 0xFFFFFFFFFFFFFFFFFFFFFFFFFFFFFFFFFFFFFFFF AND DUP2 MSTORE PUSH1 0x20 ADD SWAP1 DUP2 MSTORE PUSH1 0x20 ADD PUSH1 0x0 KECCAK256 PUSH1 0x0 ADD SLOAD EQ ISZERO SWAP1 POP SWAP2 SWAP1 POP JUMP JUMPDEST PUSH2 0x118F PUSH1 0x66 PUSH1 0x2 SWAP1 SLOAD SWAP1 PUSH2 0x100 EXP SWAP1 DIV PUSH20 0xFFFFFFFFFFFFFFFFFFFFFFFFFFFFFFFFFFFFFFFF AND PUSH2 0x3B8D JUMP JUMPDEST JUMP JUMPDEST PUSH1 0x2 PUSH1 0x0 SLOAD EQ ISZERO PUSH2 0x120A JUMPI PUSH1 0x40 MLOAD PUSH32 0x8C379A000000000000000000000000000000000000000000000000000000000 DUP2 MSTORE PUSH1 0x4 ADD DUP1 DUP1 PUSH1 0x20 ADD DUP3 DUP2 SUB DUP3 MSTORE PUSH1 0x1F DUP2 MSTORE PUSH1 0x20 ADD DUP1 PUSH32 0x5265656E7472616E637947756172643A207265656E7472616E742063616C6C00 DUP2 MSTORE POP PUSH1 0x20 ADD SWAP2 POP POP PUSH1 0x40 MLOAD DUP1 SWAP2 SUB SWAP1 REVERT JUMPDEST PUSH1 0x2 PUSH1 0x0 DUP2 SWAP1 SSTORE POP PUSH2 0x121B CALLER PUSH2 0x1115 JUMP JUMPDEST PUSH2 0x128D JUMPI PUSH1 0x40 MLOAD PUSH32 0x8C379A000000000000000000000000000000000000000000000000000000000 DUP2 MSTORE PUSH1 0x4 ADD DUP1 DUP1 PUSH1 0x20 ADD DUP3 DUP2 SUB DUP3 MSTORE PUSH1 0x16 DUP2 MSTORE PUSH1 0x20 ADD DUP1 PUSH32 0x55736572206973206E6F74207265676973746572656400000000000000000000 DUP2 MSTORE POP PUSH1 0x20 ADD SWAP2 POP POP PUSH1 0x40 MLOAD DUP1 SWAP2 SUB SWAP1 REVERT JUMPDEST PUSH1 0x0 DUP2 PUSH1 0xFF AND GT DUP1 ISZERO PUSH2 0x12A5 JUMPI POP PUSH1 0x69 SLOAD DUP2 PUSH1 0xFF AND GT ISZERO JUMPDEST PUSH2 0x1317 JUMPI PUSH1 0x40 MLOAD PUSH32 0x8C379A000000000000000000000000000000000000000000000000000000000 DUP2 MSTORE PUSH1 0x4 ADD DUP1 DUP1 PUSH1 0x20 ADD DUP3 DUP2 SUB DUP3 MSTORE PUSH1 0xD DUP2 MSTORE PUSH1 0x20 ADD DUP1 PUSH32 0x496E76616C696420726F756E6400000000000000000000000000000000000000 DUP2 MSTORE POP PUSH1 0x20 ADD SWAP2 POP POP PUSH1 0x40 MLOAD DUP1 SWAP2 SUB SWAP1 REVERT JUMPDEST CALLVALUE PUSH1 0x68 DUP3 PUSH1 0xFF AND DUP2 SLOAD DUP2 LT PUSH2 0x1328 JUMPI INVALID JUMPDEST SWAP1 PUSH1 0x0 MSTORE PUSH1 0x20 PUSH1 0x0 KECCAK256 ADD SLOAD EQ PUSH2 0x13A6 JUMPI PUSH1 0x40 MLOAD PUSH32 0x8C379A000000000000000000000000000000000000000000000000000000000 DUP2 MSTORE PUSH1 0x4 ADD DUP1 DUP1 PUSH1 0x20 ADD DUP3 DUP2 SUB DUP3 MSTORE PUSH1 0x11 DUP2 MSTORE PUSH1 0x20 ADD DUP1 PUSH32 0x496E76616C696420424E422076616C7565000000000000000000000000000000 DUP2 MSTORE POP PUSH1 0x20 ADD SWAP2 POP POP PUSH1 0x40 MLOAD DUP1 SWAP2 SUB SWAP1 REVERT JUMPDEST PUSH2 0x13AF CALLER PUSH2 0x2989 JUMP JUMPDEST ISZERO PUSH2 0x1422 JUMPI PUSH1 0x40 MLOAD PUSH32 0x8C379A000000000000000000000000000000000000000000000000000000000 DUP2 MSTORE PUSH1 0x4 ADD DUP1 DUP1 PUSH1 0x20 ADD DUP3 DUP2 SUB DUP3 MSTORE PUSH1 0x15 DUP2 MSTORE PUSH1 0x20 ADD DUP1 PUSH32 0x43616E206E6F74206265206120636F6E74726163740000000000000000000000 DUP2 MSTORE POP PUSH1 0x20 ADD SWAP2 POP POP PUSH1 0x40 MLOAD DUP1 SWAP2 SUB SWAP1 REVERT JUMPDEST PUSH1 0x1 PUSH1 0x6B PUSH1 0x0 CALLER PUSH20 0xFFFFFFFFFFFFFFFFFFFFFFFFFFFFFFFFFFFFFFFF AND PUSH20 0xFFFFFFFFFFFFFFFFFFFFFFFFFFFFFFFFFFFFFFFF AND DUP2 MSTORE PUSH1 0x20 ADD SWAP1 DUP2 MSTORE PUSH1 0x20 ADD PUSH1 0x0 KECCAK256 PUSH1 0x8 ADD PUSH1 0x0 SWAP1 SLOAD SWAP1 PUSH2 0x100 EXP SWAP1 DIV PUSH1 0xFF AND ADD PUSH1 0xFF AND DUP2 PUSH1 0xFF AND GT ISZERO PUSH2 0x14F0 JUMPI PUSH1 0x40 MLOAD PUSH32 0x8C379A000000000000000000000000000000000000000000000000000000000 DUP2 MSTORE PUSH1 0x4 ADD DUP1 DUP1 PUSH1 0x20 ADD DUP3 DUP2 SUB DUP3 MSTORE PUSH1 0x13 DUP2 MSTORE PUSH1 0x20 ADD DUP1 PUSH32 0x526F756E64206E6F7420617661696C61626C6500000000000000000000000000 DUP2 MSTORE POP PUSH1 0x20 ADD SWAP2 POP POP PUSH1 0x40 MLOAD DUP1 SWAP2 SUB SWAP1 REVERT JUMPDEST TIMESTAMP PUSH1 0x45 DUP3 PUSH1 0xFF AND PUSH1 0x10 DUP2 LT PUSH2 0x1501 JUMPI INVALID JUMPDEST ADD SLOAD LT ISZERO PUSH2 0x1642 JUMPI PUSH1 0x0 PUSH2 0x1514 DUP3 PUSH2 0x3021 JUMP JUMPDEST SWAP1 POP PUSH1 0x0 PUSH1 0x55 DUP4 PUSH1 0xFF AND PUSH1 0x10 DUP2 LT PUSH2 0x1528 JUMPI INVALID JUMPDEST ADD PUSH1 0x0 SWAP1 SLOAD SWAP1 PUSH2 0x100 EXP SWAP1 DIV PUSH20 0xFFFFFFFFFFFFFFFFFFFFFFFFFFFFFFFFFFFFFFFF AND PUSH20 0xFFFFFFFFFFFFFFFFFFFFFFFFFFFFFFFFFFFFFFFF AND PUSH2 0x8FC DUP4 SWAP1 DUP2 ISZERO MUL SWAP1 PUSH1 0x40 MLOAD PUSH1 0x0 PUSH1 0x40 MLOAD DUP1 DUP4 SUB DUP2 DUP6 DUP9 DUP9 CALL SWAP4 POP POP POP POP SWAP1 POP DUP1 ISZERO PUSH2 0x163B JUMPI PUSH3 0x15180 PUSH1 0x45 DUP5 PUSH1 0xFF AND PUSH1 0x10 DUP2 LT PUSH2 0x159A JUMPI INVALID JUMPDEST ADD PUSH1 0x0 DUP3 DUP3 SLOAD ADD SWAP3 POP POP DUP2 SWAP1 SSTORE POP PUSH1 0x55 DUP4 PUSH1 0xFF AND PUSH1 0x10 DUP2 LT PUSH2 0x15B8 JUMPI INVALID JUMPDEST ADD PUSH1 0x0 SWAP1 SLOAD SWAP1 PUSH2 0x100 EXP SWAP1 DIV PUSH20 0xFFFFFFFFFFFFFFFFFFFFFFFFFFFFFFFFFFFFFFFF AND PUSH20 0xFFFFFFFFFFFFFFFFFFFFFFFFFFFFFFFFFFFFFFFF AND PUSH32 0x8EA1A10DE3733DB603227CA0E3CD0FEB6DA4F1C33FB15CB9265FA333A64797C2 TIMESTAMP DUP6 DUP6 PUSH1 0x40 MLOAD DUP1 DUP5 DUP2 MSTORE PUSH1 0x20 ADD DUP4 PUSH1 0xFF AND DUP2 MSTORE PUSH1 0x20 ADD DUP3 DUP2 MSTORE PUSH1 0x20 ADD SWAP4 POP POP POP POP PUSH1 0x40 MLOAD DUP1 SWAP2 SUB SWAP1 LOG2 JUMPDEST POP POP PUSH2 0x1678 JUMP JUMPDEST PUSH2 0xE10 PUSH1 0x45 DUP3 PUSH1 0xFF AND PUSH1 0x10 DUP2 LT PUSH2 0x1655 JUMPI INVALID JUMPDEST ADD PUSH1 0x0 DUP3 DUP3 SLOAD ADD SWAP3 POP POP DUP2 SWAP1 SSTORE POP TIMESTAMP PUSH1 0x45 PUSH1 0x0 PUSH1 0x10 DUP2 LT PUSH2 0x1672 JUMPI INVALID JUMPDEST ADD DUP2 SWAP1 SSTORE POP JUMPDEST CALLER PUSH1 0x55 DUP3 PUSH1 0xFF AND PUSH1 0x10 DUP2 LT PUSH2 0x1689 JUMPI INVALID JUMPDEST ADD PUSH1 0x0 PUSH2 0x100 EXP DUP2 SLOAD DUP2 PUSH20 0xFFFFFFFFFFFFFFFFFFFFFFFFFFFFFFFFFFFFFFFF MUL NOT AND SWAP1 DUP4 PUSH20 0xFFFFFFFFFFFFFFFFFFFFFFFFFFFFFFFFFFFFFFFF AND MUL OR SWAP1 SSTORE POP PUSH1 0x6B PUSH1 0x0 CALLER PUSH20 0xFFFFFFFFFFFFFFFFFFFFFFFFFFFFFFFFFFFFFFFF AND PUSH20 0xFFFFFFFFFFFFFFFFFFFFFFFFFFFFFFFFFFFFFFFF AND DUP2 MSTORE PUSH1 0x20 ADD SWAP1 DUP2 MSTORE PUSH1 0x20 ADD PUSH1 0x0 KECCAK256 PUSH1 0x8 ADD PUSH1 0x0 DUP2 DUP2 SWAP1 SLOAD SWAP1 PUSH2 0x100 EXP SWAP1 DIV PUSH1 0xFF AND DUP1 SWAP3 SWAP2 SWAP1 PUSH1 0x1 ADD SWAP2 SWAP1 PUSH2 0x100 EXP DUP2 SLOAD DUP2 PUSH1 0xFF MUL NOT AND SWAP1 DUP4 PUSH1 0xFF AND MUL OR SWAP1 SSTORE POP POP CALLVALUE PUSH1 0x6B PUSH1 0x0 CALLER PUSH20 0xFFFFFFFFFFFFFFFFFFFFFFFFFFFFFFFFFFFFFFFF AND PUSH20 0xFFFFFFFFFFFFFFFFFFFFFFFFFFFFFFFFFFFFFFFF AND DUP2 MSTORE PUSH1 0x20 ADD SWAP1 DUP2 MSTORE PUSH1 0x20 ADD PUSH1 0x0 KECCAK256 PUSH1 0x9 ADD PUSH1 0x0 DUP3 DUP3 SLOAD ADD SWAP3 POP POP DUP2 SWAP1 SSTORE POP PUSH1 0x6F PUSH1 0x1 ADD PUSH1 0x0 DUP2 SLOAD DUP1 SWAP3 SWAP2 SWAP1 PUSH1 0x1 ADD SWAP2 SWAP1 POP SSTORE POP CALLVALUE PUSH1 0x6F PUSH1 0x2 ADD PUSH1 0x0 DUP3 DUP3 SLOAD ADD SWAP3 POP POP DUP2 SWAP1 SSTORE POP TIMESTAMP PUSH1 0x65 PUSH1 0x0 CALLER PUSH20 0xFFFFFFFFFFFFFFFFFFFFFFFFFFFFFFFFFFFFFFFF AND PUSH20 0xFFFFFFFFFFFFFFFFFFFFFFFFFFFFFFFFFFFFFFFF AND DUP2 MSTORE PUSH1 0x20 ADD SWAP1 DUP2 MSTORE PUSH1 0x20 ADD PUSH1 0x0 KECCAK256 DUP2 SWAP1 SSTORE POP TIMESTAMP PUSH1 0x6B PUSH1 0x0 CALLER PUSH20 0xFFFFFFFFFFFFFFFFFFFFFFFFFFFFFFFFFFFFFFFF AND PUSH20 0xFFFFFFFFFFFFFFFFFFFFFFFFFFFFFFFFFFFFFFFF AND DUP2 MSTORE PUSH1 0x20 ADD SWAP1 DUP2 MSTORE PUSH1 0x20 ADD PUSH1 0x0 KECCAK256 PUSH1 0x7 ADD PUSH1 0x0 DUP4 PUSH1 0xFF AND PUSH1 0xFF AND DUP2 MSTORE PUSH1 0x20 ADD SWAP1 DUP2 MSTORE PUSH1 0x20 ADD PUSH1 0x0 KECCAK256 PUSH1 0x3 ADD DUP2 SWAP1 SSTORE POP PUSH1 0x0 PUSH1 0x64 CALLVALUE DUP2 PUSH2 0x1863 JUMPI INVALID JUMPDEST DIV SWAP1 POP PUSH1 0x6B PUSH1 0x0 CALLER PUSH20 0xFFFFFFFFFFFFFFFFFFFFFFFFFFFFFFFFFFFFFFFF AND PUSH20 0xFFFFFFFFFFFFFFFFFFFFFFFFFFFFFFFFFFFFFFFF AND DUP2 MSTORE PUSH1 0x20 ADD SWAP1 DUP2 MSTORE PUSH1 0x20 ADD PUSH1 0x0 KECCAK256 PUSH1 0x7 ADD PUSH1 0x0 DUP4 PUSH1 0xFF AND PUSH1 0xFF AND DUP2 MSTORE PUSH1 0x20 ADD SWAP1 DUP2 MSTORE PUSH1 0x20 ADD PUSH1 0x0 KECCAK256 PUSH1 0x0 ADD PUSH1 0x6 SWAP1 SLOAD SWAP1 PUSH2 0x100 EXP SWAP1 DIV PUSH1 0xFF AND PUSH2 0x1B88 JUMPI PUSH1 0x6B PUSH1 0x0 CALLER PUSH20 0xFFFFFFFFFFFFFFFFFFFFFFFFFFFFFFFFFFFFFFFF AND PUSH20 0xFFFFFFFFFFFFFFFFFFFFFFFFFFFFFFFFFFFFFFFF AND DUP2 MSTORE PUSH1 0x20 ADD SWAP1 DUP2 MSTORE PUSH1 0x20 ADD PUSH1 0x0 KECCAK256 PUSH1 0x7 ADD PUSH1 0x0 DUP4 PUSH1 0xFF AND PUSH1 0xFF AND DUP2 MSTORE PUSH1 0x20 ADD SWAP1 DUP2 MSTORE PUSH1 0x20 ADD PUSH1 0x0 KECCAK256 PUSH1 0x0 ADD PUSH1 0x0 DUP2 DUP2 SWAP1 SLOAD SWAP1 PUSH2 0x100 EXP SWAP1 DIV PUSH2 0xFFFF AND DUP1 SWAP3 SWAP2 SWAP1 PUSH1 0x1 ADD SWAP2 SWAP1 PUSH2 0x100 EXP DUP2 SLOAD DUP2 PUSH2 0xFFFF MUL NOT AND SWAP1 DUP4 PUSH2 0xFFFF AND MUL OR SWAP1 SSTORE POP POP PUSH1 0x2 PUSH1 0xFF AND PUSH1 0x6B PUSH1 0x0 CALLER PUSH20 0xFFFFFFFFFFFFFFFFFFFFFFFFFFFFFFFFFFFFFFFF AND PUSH20 0xFFFFFFFFFFFFFFFFFFFFFFFFFFFFFFFFFFFFFFFF AND DUP2 MSTORE PUSH1 0x20 ADD SWAP1 DUP2 MSTORE PUSH1 0x20 ADD PUSH1 0x0 KECCAK256 PUSH1 0x7 ADD PUSH1 0x0 DUP5 PUSH1 0xFF AND PUSH1 0xFF AND DUP2 MSTORE PUSH1 0x20 ADD SWAP1 DUP2 MSTORE PUSH1 0x20 ADD PUSH1 0x0 KECCAK256 PUSH1 0x0 ADD PUSH1 0x2 DUP3 DUP3 DUP3 SWAP1 SLOAD SWAP1 PUSH2 0x100 EXP SWAP1 DIV PUSH2 0xFFFF AND ADD SWAP3 POP PUSH2 0x100 EXP DUP2 SLOAD DUP2 PUSH2 0xFFFF MUL NOT AND SWAP1 DUP4 PUSH2 0xFFFF AND MUL OR SWAP1 SSTORE POP PUSH1 0x1 PUSH1 0x6B PUSH1 0x0 CALLER PUSH20 0xFFFFFFFFFFFFFFFFFFFFFFFFFFFFFFFFFFFFFFFF AND PUSH20 0xFFFFFFFFFFFFFFFFFFFFFFFFFFFFFFFFFFFFFFFF AND DUP2 MSTORE PUSH1 0x20 ADD SWAP1 DUP2 MSTORE PUSH1 0x20 ADD PUSH1 0x0 KECCAK256 PUSH1 0x7 ADD PUSH1 0x0 DUP5 PUSH1 0xFF AND PUSH1 0xFF AND DUP2 MSTORE PUSH1 0x20 ADD SWAP1 DUP2 MSTORE PUSH1 0x20 ADD PUSH1 0x0 KECCAK256 PUSH1 0x0 ADD PUSH1 0x6 PUSH2 0x100 EXP DUP2 SLOAD DUP2 PUSH1 0xFF MUL NOT AND SWAP1 DUP4 ISZERO ISZERO MUL OR SWAP1 SSTORE POP PUSH1 0x6D PUSH1 0x0 DUP4 PUSH1 0xFF AND PUSH1 0xFF AND DUP2 MSTORE PUSH1 0x20 ADD SWAP1 DUP2 MSTORE PUSH1 0x20 ADD PUSH1 0x0 KECCAK256 CALLER SWAP1 DUP1 PUSH1 0x1 DUP2 SLOAD ADD DUP1 DUP3 SSTORE DUP1 SWAP2 POP POP PUSH1 0x1 SWAP1 SUB SWAP1 PUSH1 0x0 MSTORE PUSH1 0x20 PUSH1 0x0 KECCAK256 ADD PUSH1 0x0 SWAP1 SWAP2 SWAP1 SWAP2 SWAP1 SWAP2 PUSH2 0x100 EXP DUP2 SLOAD DUP2 PUSH20 0xFFFFFFFFFFFFFFFFFFFFFFFFFFFFFFFFFFFFFFFF MUL NOT AND SWAP1 DUP4 PUSH20 0xFFFFFFFFFFFFFFFFFFFFFFFFFFFFFFFFFFFFFFFF AND MUL OR SWAP1 SSTORE POP CALLER PUSH20 0xFFFFFFFFFFFFFFFFFFFFFFFFFFFFFFFFFFFFFFFF AND PUSH32 0x2F201BC547ACC49919922EAF7ECEA9F3389ADCA4DC6AB3FB4A7498CBBAAC63A2 TIMESTAMP PUSH1 0x6B PUSH1 0x0 CALLER PUSH20 0xFFFFFFFFFFFFFFFFFFFFFFFFFFFFFFFFFFFFFFFF AND PUSH20 0xFFFFFFFFFFFFFFFFFFFFFFFFFFFFFFFFFFFFFFFF AND DUP2 MSTORE PUSH1 0x20 ADD SWAP1 DUP2 MSTORE PUSH1 0x20 ADD PUSH1 0x0 KECCAK256 PUSH1 0x0 ADD SLOAD DUP6 PUSH1 0x40 MLOAD DUP1 DUP5 DUP2 MSTORE PUSH1 0x20 ADD DUP4 DUP2 MSTORE PUSH1 0x20 ADD DUP3 PUSH1 0xFF AND DUP2 MSTORE PUSH1 0x20 ADD SWAP4 POP POP POP POP PUSH1 0x40 MLOAD DUP1 SWAP2 SUB SWAP1 LOG2 PUSH2 0x1DBF JUMP JUMPDEST PUSH1 0x6B PUSH1 0x0 CALLER PUSH20 0xFFFFFFFFFFFFFFFFFFFFFFFFFFFFFFFFFFFFFFFF AND PUSH20 0xFFFFFFFFFFFFFFFFFFFFFFFFFFFFFFFFFFFFFFFF AND DUP2 MSTORE PUSH1 0x20 ADD SWAP1 DUP2 MSTORE PUSH1 0x20 ADD PUSH1 0x0 KECCAK256 PUSH1 0x7 ADD PUSH1 0x0 DUP4 PUSH1 0xFF AND PUSH1 0xFF AND DUP2 MSTORE PUSH1 0x20 ADD SWAP1 DUP2 MSTORE PUSH1 0x20 ADD PUSH1 0x0 KECCAK256 PUSH1 0x0 ADD PUSH1 0x0 DUP2 DUP2 SWAP1 SLOAD SWAP1 PUSH2 0x100 EXP SWAP1 DIV PUSH2 0xFFFF AND DUP1 SWAP3 SWAP2 SWAP1 PUSH1 0x1 ADD SWAP2 SWAP1 PUSH2 0x100 EXP DUP2 SLOAD DUP2 PUSH2 0xFFFF MUL NOT AND SWAP1 DUP4 PUSH2 0xFFFF AND MUL OR SWAP1 SSTORE POP POP PUSH1 0x2 PUSH1 0xFF AND PUSH1 0x6B PUSH1 0x0 CALLER PUSH20 0xFFFFFFFFFFFFFFFFFFFFFFFFFFFFFFFFFFFFFFFF AND PUSH20 0xFFFFFFFFFFFFFFFFFFFFFFFFFFFFFFFFFFFFFFFF AND DUP2 MSTORE PUSH1 0x20 ADD SWAP1 DUP2 MSTORE PUSH1 0x20 ADD PUSH1 0x0 KECCAK256 PUSH1 0x7 ADD PUSH1 0x0 DUP5 PUSH1 0xFF AND PUSH1 0xFF AND DUP2 MSTORE PUSH1 0x20 ADD SWAP1 DUP2 MSTORE PUSH1 0x20 ADD PUSH1 0x0 KECCAK256 PUSH1 0x0 ADD PUSH1 0x2 DUP3 DUP3 DUP3 SWAP1 SLOAD SWAP1 PUSH2 0x100 EXP SWAP1 DIV PUSH2 0xFFFF AND ADD SWAP3 POP PUSH2 0x100 EXP DUP2 SLOAD DUP2 PUSH2 0xFFFF MUL NOT AND SWAP1 DUP4 PUSH2 0xFFFF AND MUL OR SWAP1 SSTORE POP CALLER PUSH20 0xFFFFFFFFFFFFFFFFFFFFFFFFFFFFFFFFFFFFFFFF AND PUSH32 0x31BFA9AB73D15B5D752F5928D978DD4DABA1B2DD420BB2D965C54CFE366C5534 TIMESTAMP PUSH1 0x6B PUSH1 0x0 CALLER PUSH20 0xFFFFFFFFFFFFFFFFFFFFFFFFFFFFFFFFFFFFFFFF AND PUSH20 0xFFFFFFFFFFFFFFFFFFFFFFFFFFFFFFFFFFFFFFFF AND DUP2 MSTORE PUSH1 0x20 ADD SWAP1 DUP2 MSTORE PUSH1 0x20 ADD PUSH1 0x0 KECCAK256 PUSH1 0x0 ADD SLOAD DUP6 PUSH1 0x6B PUSH1 0x0 CALLER PUSH20 0xFFFFFFFFFFFFFFFFFFFFFFFFFFFFFFFFFFFFFFFF AND PUSH20 0xFFFFFFFFFFFFFFFFFFFFFFFFFFFFFFFFFFFFFFFF AND DUP2 MSTORE PUSH1 0x20 ADD SWAP1 DUP2 MSTORE PUSH1 0x20 ADD PUSH1 0x0 KECCAK256 PUSH1 0x7 ADD PUSH1 0x0 DUP9 PUSH1 0xFF AND PUSH1 0xFF AND DUP2 MSTORE PUSH1 0x20 ADD SWAP1 DUP2 MSTORE PUSH1 0x20 ADD PUSH1 0x0 KECCAK256 PUSH1 0x0 ADD PUSH1 0x2 SWAP1 SLOAD SWAP1 PUSH2 0x100 EXP SWAP1 DIV PUSH2 0xFFFF AND PUSH1 0x40 MLOAD DUP1 DUP6 DUP2 MSTORE PUSH1 0x20 ADD DUP5 DUP2 MSTORE PUSH1 0x20 ADD DUP4 PUSH1 0xFF AND DUP2 MSTORE PUSH1 0x20 ADD DUP3 PUSH2 0xFFFF AND DUP2 MSTORE PUSH1 0x20 ADD SWAP5 POP POP POP POP POP PUSH1 0x40 MLOAD DUP1 SWAP2 SUB SWAP1 LOG2 JUMPDEST PUSH1 0x0 PUSH1 0x4B PUSH1 0xFF AND DUP3 MUL SWAP1 POP CALLER PUSH20 0xFFFFFFFFFFFFFFFFFFFFFFFFFFFFFFFFFFFFFFFF AND PUSH1 0x6D PUSH1 0x0 DUP6 PUSH1 0xFF AND PUSH1 0xFF AND DUP2 MSTORE PUSH1 0x20 ADD SWAP1 DUP2 MSTORE PUSH1 0x20 ADD PUSH1 0x0 KECCAK256 PUSH1 0x6E PUSH1 0x0 DUP7 PUSH1 0xFF AND PUSH1 0xFF AND DUP2 MSTORE PUSH1 0x20 ADD SWAP1 DUP2 MSTORE PUSH1 0x20 ADD PUSH1 0x0 KECCAK256 SLOAD DUP2 SLOAD DUP2 LT PUSH2 0x1E1E JUMPI INVALID JUMPDEST SWAP1 PUSH1 0x0 MSTORE PUSH1 0x20 PUSH1 0x0 KECCAK256 ADD PUSH1 0x0 SWAP1 SLOAD SWAP1 PUSH2 0x100 EXP SWAP1 DIV PUSH20 0xFFFFFFFFFFFFFFFFFFFFFFFFFFFFFFFFFFFFFFFF AND PUSH20 0xFFFFFFFFFFFFFFFFFFFFFFFFFFFFFFFFFFFFFFFF AND EQ PUSH2 0x25E1 JUMPI PUSH1 0x0 PUSH1 0x6D PUSH1 0x0 DUP6 PUSH1 0xFF AND PUSH1 0xFF AND DUP2 MSTORE PUSH1 0x20 ADD SWAP1 DUP2 MSTORE PUSH1 0x20 ADD PUSH1 0x0 KECCAK256 PUSH1 0x6E PUSH1 0x0 DUP7 PUSH1 0xFF AND PUSH1 0xFF AND DUP2 MSTORE PUSH1 0x20 ADD SWAP1 DUP2 MSTORE PUSH1 0x20 ADD PUSH1 0x0 KECCAK256 SLOAD DUP2 SLOAD DUP2 LT PUSH2 0x1EA3 JUMPI INVALID JUMPDEST SWAP1 PUSH1 0x0 MSTORE PUSH1 0x20 PUSH1 0x0 KECCAK256 ADD PUSH1 0x0 SWAP1 SLOAD SWAP1 PUSH2 0x100 EXP SWAP1 DIV PUSH20 0xFFFFFFFFFFFFFFFFFFFFFFFFFFFFFFFFFFFFFFFF AND SWAP1 POP PUSH1 0x0 DUP2 PUSH20 0xFFFFFFFFFFFFFFFFFFFFFFFFFFFFFFFFFFFFFFFF AND PUSH2 0x8FC DUP5 SWAP1 DUP2 ISZERO MUL SWAP1 PUSH1 0x40 MLOAD PUSH1 0x0 PUSH1 0x40 MLOAD DUP1 DUP4 SUB DUP2 DUP6 DUP9 DUP9 CALL SWAP4 POP POP POP POP SWAP1 POP DUP1 ISZERO PUSH2 0x2261 JUMPI PUSH1 0x0 PUSH1 0x66 PUSH1 0x1 SWAP1 SLOAD SWAP1 PUSH2 0x100 EXP SWAP1 DIV PUSH1 0xFF AND PUSH1 0xFF AND DUP6 MUL SWAP1 POP PUSH2 0x1F33 DUP4 DUP8 DUP4 PUSH2 0x4624 JUMP JUMPDEST DUP4 PUSH1 0x6B PUSH1 0x0 DUP6 PUSH20 0xFFFFFFFFFFFFFFFFFFFFFFFFFFFFFFFFFFFFFFFF AND PUSH20 0xFFFFFFFFFFFFFFFFFFFFFFFFFFFFFFFFFFFFFFFF AND DUP2 MSTORE PUSH1 0x20 ADD SWAP1 DUP2 MSTORE PUSH1 0x20 ADD PUSH1 0x0 KECCAK256 PUSH1 0x7 ADD PUSH1 0x0 DUP9 PUSH1 0xFF AND PUSH1 0xFF AND DUP2 MSTORE PUSH1 0x20 ADD SWAP1 DUP2 MSTORE PUSH1 0x20 ADD PUSH1 0x0 KECCAK256 PUSH1 0x1 ADD PUSH1 0x0 DUP3 DUP3 SLOAD ADD SWAP3 POP POP DUP2 SWAP1 SSTORE POP PUSH1 0x6B PUSH1 0x0 DUP5 PUSH20 0xFFFFFFFFFFFFFFFFFFFFFFFFFFFFFFFFFFFFFFFF AND PUSH20 0xFFFFFFFFFFFFFFFFFFFFFFFFFFFFFFFFFFFFFFFF AND DUP2 MSTORE PUSH1 0x20 ADD SWAP1 DUP2 MSTORE PUSH1 0x20 ADD PUSH1 0x0 KECCAK256 PUSH1 0x7 ADD PUSH1 0x0 DUP8 PUSH1 0xFF AND PUSH1 0xFF AND DUP2 MSTORE PUSH1 0x20 ADD SWAP1 DUP2 MSTORE PUSH1 0x20 ADD PUSH1 0x0 KECCAK256 PUSH1 0x0 ADD PUSH1 0x4 DUP2 DUP2 SWAP1 SLOAD SWAP1 PUSH2 0x100 EXP SWAP1 DIV PUSH2 0xFFFF AND DUP1 SWAP3 SWAP2 SWAP1 PUSH1 0x1 ADD SWAP2 SWAP1 PUSH2 0x100 EXP DUP2 SLOAD DUP2 PUSH2 0xFFFF MUL NOT AND SWAP1 DUP4 PUSH2 0xFFFF AND MUL OR SWAP1 SSTORE POP POP DUP4 PUSH1 0x6B PUSH1 0x0 DUP6 PUSH20 0xFFFFFFFFFFFFFFFFFFFFFFFFFFFFFFFFFFFFFFFF AND PUSH20 0xFFFFFFFFFFFFFFFFFFFFFFFFFFFFFFFFFFFFFFFF AND DUP2 MSTORE PUSH1 0x20 ADD SWAP1 DUP2 MSTORE PUSH1 0x20 ADD PUSH1 0x0 KECCAK256 PUSH1 0x5 ADD PUSH1 0x0 DUP3 DUP3 SLOAD ADD SWAP3 POP POP DUP2 SWAP1 SSTORE POP DUP4 PUSH1 0x6B PUSH1 0x0 DUP6 PUSH20 0xFFFFFFFFFFFFFFFFFFFFFFFFFFFFFFFFFFFFFFFF AND PUSH20 0xFFFFFFFFFFFFFFFFFFFFFFFFFFFFFFFFFFFFFFFF AND DUP2 MSTORE PUSH1 0x20 ADD SWAP1 DUP2 MSTORE PUSH1 0x20 ADD PUSH1 0x0 KECCAK256 PUSH1 0x9 ADD PUSH1 0x0 DUP3 DUP3 SLOAD ADD SWAP3 POP POP DUP2 SWAP1 SSTORE POP PUSH1 0x6B PUSH1 0x0 DUP5 PUSH20 0xFFFFFFFFFFFFFFFFFFFFFFFFFFFFFFFFFFFFFFFF AND PUSH20 0xFFFFFFFFFFFFFFFFFFFFFFFFFFFFFFFFFFFFFFFF AND DUP2 MSTORE PUSH1 0x20 ADD SWAP1 DUP2 MSTORE PUSH1 0x20 ADD PUSH1 0x0 KECCAK256 PUSH1 0x7 ADD PUSH1 0x0 DUP8 PUSH1 0xFF AND PUSH1 0xFF AND DUP2 MSTORE PUSH1 0x20 ADD SWAP1 DUP2 MSTORE PUSH1 0x20 ADD PUSH1 0x0 KECCAK256 PUSH1 0x3 ADD SLOAD TIMESTAMP SUB PUSH4 0x2EFE0780 DUP2 PUSH2 0x2137 JUMPI INVALID JUMPDEST DIV PUSH1 0x35 DUP8 PUSH1 0xFF AND PUSH1 0x10 DUP2 LT PUSH2 0x2148 JUMPI INVALID JUMPDEST ADD DUP2 SWAP1 SSTORE POP CALLER PUSH20 0xFFFFFFFFFFFFFFFFFFFFFFFFFFFFFFFFFFFFFFFF AND PUSH32 0xE4183700B5BFCFEAF533B813F60F33FF4A041FA7BF73DB1DD14FBB3EACE4FA35 TIMESTAMP PUSH1 0x6B PUSH1 0x0 DUP8 PUSH20 0xFFFFFFFFFFFFFFFFFFFFFFFFFFFFFFFFFFFFFFFF AND PUSH20 0xFFFFFFFFFFFFFFFFFFFFFFFFFFFFFFFFFFFFFFFF AND DUP2 MSTORE PUSH1 0x20 ADD SWAP1 DUP2 MSTORE PUSH1 0x20 ADD PUSH1 0x0 KECCAK256 PUSH1 0x0 ADD SLOAD DUP10 DUP9 PUSH1 0x6B PUSH1 0x0 CALLER PUSH20 0xFFFFFFFFFFFFFFFFFFFFFFFFFFFFFFFFFFFFFFFF AND PUSH20 0xFFFFFFFFFFFFFFFFFFFFFFFFFFFFFFFFFFFFFFFF AND DUP2 MSTORE PUSH1 0x20 ADD SWAP1 DUP2 MSTORE PUSH1 0x20 ADD PUSH1 0x0 KECCAK256 PUSH1 0x0 ADD SLOAD PUSH1 0x35 DUP14 PUSH1 0xFF AND PUSH1 0x10 DUP2 LT PUSH2 0x221E JUMPI INVALID JUMPDEST ADD SLOAD PUSH1 0x40 MLOAD DUP1 DUP8 DUP2 MSTORE PUSH1 0x20 ADD DUP7 DUP2 MSTORE PUSH1 0x20 ADD DUP6 PUSH1 0xFF AND DUP2 MSTORE PUSH1 0x20 ADD DUP5 DUP2 MSTORE PUSH1 0x20 ADD DUP4 DUP2 MSTORE PUSH1 0x20 ADD DUP3 DUP2 MSTORE PUSH1 0x20 ADD SWAP7 POP POP POP POP POP POP POP PUSH1 0x40 MLOAD DUP1 SWAP2 SUB SWAP1 LOG2 POP PUSH2 0x22CB JUMP JUMPDEST PUSH1 0x66 PUSH1 0x2 SWAP1 SLOAD SWAP1 PUSH2 0x100 EXP SWAP1 DIV PUSH20 0xFFFFFFFFFFFFFFFFFFFFFFFFFFFFFFFFFFFFFFFF AND PUSH20 0xFFFFFFFFFFFFFFFFFFFFFFFFFFFFFFFFFFFFFFFF AND PUSH2 0x8FC DUP5 SWAP1 DUP2 ISZERO MUL SWAP1 PUSH1 0x40 MLOAD PUSH1 0x0 PUSH1 0x40 MLOAD DUP1 DUP4 SUB DUP2 DUP6 DUP9 DUP9 CALL SWAP4 POP POP POP POP ISZERO DUP1 ISZERO PUSH2 0x22C9 JUMPI RETURNDATASIZE PUSH1 0x0 DUP1 RETURNDATACOPY RETURNDATASIZE PUSH1 0x0 REVERT JUMPDEST POP JUMPDEST PUSH1 0x6B PUSH1 0x0 DUP4 PUSH20 0xFFFFFFFFFFFFFFFFFFFFFFFFFFFFFFFFFFFFFFFF AND PUSH20 0xFFFFFFFFFFFFFFFFFFFFFFFFFFFFFFFFFFFFFFFF AND DUP2 MSTORE PUSH1 0x20 ADD SWAP1 DUP2 MSTORE PUSH1 0x20 ADD PUSH1 0x0 KECCAK256 PUSH1 0x7 ADD PUSH1 0x0 DUP7 PUSH1 0xFF AND PUSH1 0xFF AND DUP2 MSTORE PUSH1 0x20 ADD SWAP1 DUP2 MSTORE PUSH1 0x20 ADD PUSH1 0x0 KECCAK256 PUSH1 0x0 ADD PUSH1 0x2 SWAP1 SLOAD SWAP1 PUSH2 0x100 EXP SWAP1 DIV PUSH2 0xFFFF AND PUSH2 0xFFFF AND PUSH1 0x6B PUSH1 0x0 DUP5 PUSH20 0xFFFFFFFFFFFFFFFFFFFFFFFFFFFFFFFFFFFFFFFF AND PUSH20 0xFFFFFFFFFFFFFFFFFFFFFFFFFFFFFFFFFFFFFFFF AND DUP2 MSTORE PUSH1 0x20 ADD SWAP1 DUP2 MSTORE PUSH1 0x20 ADD PUSH1 0x0 KECCAK256 PUSH1 0x7 ADD PUSH1 0x0 DUP8 PUSH1 0xFF AND PUSH1 0xFF AND DUP2 MSTORE PUSH1 0x20 ADD SWAP1 DUP2 MSTORE PUSH1 0x20 ADD PUSH1 0x0 KECCAK256 PUSH1 0x0 ADD PUSH1 0x4 SWAP1 SLOAD SWAP1 PUSH2 0x100 EXP SWAP1 DIV PUSH2 0xFFFF AND PUSH2 0xFFFF AND LT ISZERO PUSH2 0x242E JUMPI PUSH1 0x6D PUSH1 0x0 DUP7 PUSH1 0xFF AND PUSH1 0xFF AND DUP2 MSTORE PUSH1 0x20 ADD SWAP1 DUP2 MSTORE PUSH1 0x20 ADD PUSH1 0x0 KECCAK256 DUP3 SWAP1 DUP1 PUSH1 0x1 DUP2 SLOAD ADD DUP1 DUP3 SSTORE DUP1 SWAP2 POP POP PUSH1 0x1 SWAP1 SUB SWAP1 PUSH1 0x0 MSTORE PUSH1 0x20 PUSH1 0x0 KECCAK256 ADD PUSH1 0x0 SWAP1 SWAP2 SWAP1 SWAP2 SWAP1 SWAP2 PUSH2 0x100 EXP DUP2 SLOAD DUP2 PUSH20 0xFFFFFFFFFFFFFFFFFFFFFFFFFFFFFFFFFFFFFFFF MUL NOT AND SWAP1 DUP4 PUSH20 0xFFFFFFFFFFFFFFFFFFFFFFFFFFFFFFFFFFFFFFFF AND MUL OR SWAP1 SSTORE POP PUSH2 0x2547 JUMP JUMPDEST PUSH1 0x0 PUSH1 0x6B PUSH1 0x0 DUP5 PUSH20 0xFFFFFFFFFFFFFFFFFFFFFFFFFFFFFFFFFFFFFFFF AND PUSH20 0xFFFFFFFFFFFFFFFFFFFFFFFFFFFFFFFFFFFFFFFF AND DUP2 MSTORE PUSH1 0x20 ADD SWAP1 DUP2 MSTORE PUSH1 0x20 ADD PUSH1 0x0 KECCAK256 PUSH1 0x7 ADD PUSH1 0x0 DUP8 PUSH1 0xFF AND PUSH1 0xFF AND DUP2 MSTORE PUSH1 0x20 ADD SWAP1 DUP2 MSTORE PUSH1 0x20 ADD PUSH1 0x0 KECCAK256 PUSH1 0x0 ADD PUSH1 0x6 PUSH2 0x100 EXP DUP2 SLOAD DUP2 PUSH1 0xFF MUL NOT AND SWAP1 DUP4 ISZERO ISZERO MUL OR SWAP1 SSTORE POP CALLER PUSH20 0xFFFFFFFFFFFFFFFFFFFFFFFFFFFFFFFFFFFFFFFF AND PUSH32 0x1524BA6DFA482CF4EDA16273D76657DDB7F563B2E8A6C3F294564DE0FFC66211 TIMESTAMP PUSH1 0x6B PUSH1 0x0 DUP7 PUSH20 0xFFFFFFFFFFFFFFFFFFFFFFFFFFFFFFFFFFFFFFFF AND PUSH20 0xFFFFFFFFFFFFFFFFFFFFFFFFFFFFFFFFFFFFFFFF AND DUP2 MSTORE PUSH1 0x20 ADD SWAP1 DUP2 MSTORE PUSH1 0x20 ADD PUSH1 0x0 KECCAK256 PUSH1 0x0 ADD SLOAD DUP9 PUSH1 0x40 MLOAD DUP1 DUP5 DUP2 MSTORE PUSH1 0x20 ADD DUP4 DUP2 MSTORE PUSH1 0x20 ADD DUP3 PUSH1 0xFF AND DUP2 MSTORE PUSH1 0x20 ADD SWAP4 POP POP POP POP PUSH1 0x40 MLOAD DUP1 SWAP2 SUB SWAP1 LOG2 JUMPDEST PUSH1 0x6D PUSH1 0x0 DUP7 PUSH1 0xFF AND PUSH1 0xFF AND DUP2 MSTORE PUSH1 0x20 ADD SWAP1 DUP2 MSTORE PUSH1 0x20 ADD PUSH1 0x0 KECCAK256 PUSH1 0x6E PUSH1 0x0 DUP8 PUSH1 0xFF AND PUSH1 0xFF AND DUP2 MSTORE PUSH1 0x20 ADD SWAP1 DUP2 MSTORE PUSH1 0x20 ADD PUSH1 0x0 KECCAK256 SLOAD DUP2 SLOAD DUP2 LT PUSH2 0x2584 JUMPI INVALID JUMPDEST SWAP1 PUSH1 0x0 MSTORE PUSH1 0x20 PUSH1 0x0 KECCAK256 ADD PUSH1 0x0 PUSH2 0x100 EXP DUP2 SLOAD SWAP1 PUSH20 0xFFFFFFFFFFFFFFFFFFFFFFFFFFFFFFFFFFFFFFFF MUL NOT AND SWAP1 SSTORE PUSH1 0x6E PUSH1 0x0 DUP7 PUSH1 0xFF AND PUSH1 0xFF AND DUP2 MSTORE PUSH1 0x20 ADD SWAP1 DUP2 MSTORE PUSH1 0x20 ADD PUSH1 0x0 KECCAK256 PUSH1 0x0 DUP2 SLOAD DUP1 SWAP3 SWAP2 SWAP1 PUSH1 0x1 ADD SWAP2 SWAP1 POP SSTORE POP POP POP PUSH2 0x27FA JUMP JUMPDEST PUSH1 0x66 PUSH1 0x2 SWAP1 SLOAD SWAP1 PUSH2 0x100 EXP SWAP1 DIV PUSH20 0xFFFFFFFFFFFFFFFFFFFFFFFFFFFFFFFFFFFFFFFF AND PUSH20 0xFFFFFFFFFFFFFFFFFFFFFFFFFFFFFFFFFFFFFFFF AND PUSH2 0x8FC DUP3 SWAP1 DUP2 ISZERO MUL SWAP1 PUSH1 0x40 MLOAD PUSH1 0x0 PUSH1 0x40 MLOAD DUP1 DUP4 SUB DUP2 DUP6 DUP9 DUP9 CALL SWAP4 POP POP POP POP ISZERO DUP1 ISZERO PUSH2 0x2649 JUMPI RETURNDATASIZE PUSH1 0x0 DUP1 RETURNDATACOPY RETURNDATASIZE PUSH1 0x0 REVERT JUMPDEST POP PUSH1 0x6B PUSH1 0x0 PUSH1 0x66 PUSH1 0x2 SWAP1 SLOAD SWAP1 PUSH2 0x100 EXP SWAP1 DIV PUSH20 0xFFFFFFFFFFFFFFFFFFFFFFFFFFFFFFFFFFFFFFFF AND PUSH20 0xFFFFFFFFFFFFFFFFFFFFFFFFFFFFFFFFFFFFFFFF AND PUSH20 0xFFFFFFFFFFFFFFFFFFFFFFFFFFFFFFFFFFFFFFFF AND DUP2 MSTORE PUSH1 0x20 ADD SWAP1 DUP2 MSTORE PUSH1 0x20 ADD PUSH1 0x0 KECCAK256 PUSH1 0x7 ADD PUSH1 0x0 DUP5 PUSH1 0xFF AND PUSH1 0xFF AND DUP2 MSTORE PUSH1 0x20 ADD SWAP1 DUP2 MSTORE PUSH1 0x20 ADD PUSH1 0x0 KECCAK256 PUSH1 0x0 ADD PUSH1 0x4 DUP2 DUP2 SWAP1 SLOAD SWAP1 PUSH2 0x100 EXP SWAP1 DIV PUSH2 0xFFFF AND DUP1 SWAP3 SWAP2 SWAP1 PUSH1 0x1 ADD SWAP2 SWAP1 PUSH2 0x100 EXP DUP2 SLOAD DUP2 PUSH2 0xFFFF MUL NOT AND SWAP1 DUP4 PUSH2 0xFFFF AND MUL OR SWAP1 SSTORE POP POP DUP1 PUSH1 0x6B PUSH1 0x0 PUSH1 0x66 PUSH1 0x2 SWAP1 SLOAD SWAP1 PUSH2 0x100 EXP SWAP1 DIV PUSH20 0xFFFFFFFFFFFFFFFFFFFFFFFFFFFFFFFFFFFFFFFF AND PUSH20 0xFFFFFFFFFFFFFFFFFFFFFFFFFFFFFFFFFFFFFFFF AND PUSH20 0xFFFFFFFFFFFFFFFFFFFFFFFFFFFFFFFFFFFFFFFF AND DUP2 MSTORE PUSH1 0x20 ADD SWAP1 DUP2 MSTORE PUSH1 0x20 ADD PUSH1 0x0 KECCAK256 PUSH1 0x7 ADD PUSH1 0x0 DUP6 PUSH1 0xFF AND PUSH1 0xFF AND DUP2 MSTORE PUSH1 0x20 ADD SWAP1 DUP2 MSTORE PUSH1 0x20 ADD PUSH1 0x0 KECCAK256 PUSH1 0x1 ADD PUSH1 0x0 DUP3 DUP3 SLOAD ADD SWAP3 POP POP DUP2 SWAP1 SSTORE POP DUP1 PUSH1 0x6B PUSH1 0x0 PUSH1 0x66 PUSH1 0x2 SWAP1 SLOAD SWAP1 PUSH2 0x100 EXP SWAP1 DIV PUSH20 0xFFFFFFFFFFFFFFFFFFFFFFFFFFFFFFFFFFFFFFFF AND PUSH20 0xFFFFFFFFFFFFFFFFFFFFFFFFFFFFFFFFFFFFFFFF AND PUSH20 0xFFFFFFFFFFFFFFFFFFFFFFFFFFFFFFFFFFFFFFFF AND DUP2 MSTORE PUSH1 0x20 ADD SWAP1 DUP2 MSTORE PUSH1 0x20 ADD PUSH1 0x0 KECCAK256 PUSH1 0x5 ADD PUSH1 0x0 DUP3 DUP3 SLOAD ADD SWAP3 POP POP DUP2 SWAP1 SSTORE POP JUMPDEST PUSH1 0x0 PUSH1 0x66 PUSH1 0x0 SWAP1 SLOAD SWAP1 PUSH2 0x100 EXP SWAP1 DIV PUSH1 0xFF AND PUSH1 0xFF AND DUP4 MUL SWAP1 POP PUSH2 0x281E CALLER DUP6 DUP4 PUSH2 0x4B32 JUMP JUMPDEST PUSH1 0x0 PUSH1 0x67 PUSH1 0x0 SWAP1 SLOAD SWAP1 PUSH2 0x100 EXP SWAP1 DIV PUSH20 0xFFFFFFFFFFFFFFFFFFFFFFFFFFFFFFFFFFFFFFFF AND PUSH20 0xFFFFFFFFFFFFFFFFFFFFFFFFFFFFFFFFFFFFFFFF AND PUSH1 0x7 PUSH1 0xFF AND DUP6 MUL PUSH1 0x40 MLOAD DUP1 PUSH1 0x0 ADD SWAP1 POP PUSH1 0x0 PUSH1 0x40 MLOAD DUP1 DUP4 SUB DUP2 DUP6 DUP8 GAS CALL SWAP3 POP POP POP RETURNDATASIZE DUP1 PUSH1 0x0 DUP2 EQ PUSH2 0x28A6 JUMPI PUSH1 0x40 MLOAD SWAP2 POP PUSH1 0x1F NOT PUSH1 0x3F RETURNDATASIZE ADD AND DUP3 ADD PUSH1 0x40 MSTORE RETURNDATASIZE DUP3 MSTORE RETURNDATASIZE PUSH1 0x0 PUSH1 0x20 DUP5 ADD RETURNDATACOPY PUSH2 0x28AB JUMP JUMPDEST PUSH1 0x60 SWAP2 POP JUMPDEST POP POP SWAP1 POP DUP1 PUSH2 0x2922 JUMPI PUSH1 0x40 MLOAD PUSH32 0x8C379A000000000000000000000000000000000000000000000000000000000 DUP2 MSTORE PUSH1 0x4 ADD DUP1 DUP1 PUSH1 0x20 ADD DUP3 DUP2 SUB DUP3 MSTORE PUSH1 0x1F DUP2 MSTORE PUSH1 0x20 ADD DUP1 PUSH32 0x7472616E73666572206661696C6564207768696C652062757920726F756E6400 DUP2 MSTORE POP PUSH1 0x20 ADD SWAP2 POP POP PUSH1 0x40 MLOAD DUP1 SWAP2 SUB SWAP1 REVERT JUMPDEST POP POP POP POP PUSH1 0x1 PUSH1 0x0 DUP2 SWAP1 SSTORE POP POP JUMP JUMPDEST PUSH1 0x60 PUSH1 0x68 DUP1 SLOAD DUP1 PUSH1 0x20 MUL PUSH1 0x20 ADD PUSH1 0x40 MLOAD SWAP1 DUP2 ADD PUSH1 0x40 MSTORE DUP1 SWAP3 SWAP2 SWAP1 DUP2 DUP2 MSTORE PUSH1 0x20 ADD DUP3 DUP1 SLOAD DUP1 ISZERO PUSH2 0x297F JUMPI PUSH1 0x20 MUL DUP3 ADD SWAP2 SWAP1 PUSH1 0x0 MSTORE PUSH1 0x20 PUSH1 0x0 KECCAK256 SWAP1 JUMPDEST DUP2 SLOAD DUP2 MSTORE PUSH1 0x20 ADD SWAP1 PUSH1 0x1 ADD SWAP1 DUP1 DUP4 GT PUSH2 0x296B JUMPI JUMPDEST POP POP POP POP POP SWAP1 POP SWAP1 JUMP JUMPDEST PUSH1 0x0 DUP1 DUP3 EXTCODESIZE SWAP1 POP PUSH1 0x0 DUP2 PUSH4 0xFFFFFFFF AND EQ ISZERO SWAP2 POP POP SWAP2 SWAP1 POP JUMP JUMPDEST PUSH1 0x1 DUP2 PUSH1 0x32 DUP2 LT PUSH2 0x29B0 JUMPI INVALID JUMPDEST ADD PUSH1 0x0 SWAP2 POP SLOAD SWAP1 PUSH2 0x100 EXP SWAP1 DIV PUSH20 0xFFFFFFFFFFFFFFFFFFFFFFFFFFFFFFFFFFFFFFFF AND DUP2 JUMP JUMPDEST PUSH1 0x0 DUP2 JUMP JUMPDEST PUSH1 0x60 DUP1 PUSH1 0x60 DUP1 PUSH1 0x60 DUP1 PUSH1 0x60 PUSH1 0x1 PUSH1 0x69 SLOAD ADD PUSH8 0xFFFFFFFFFFFFFFFF DUP2 GT DUP1 ISZERO PUSH2 0x2A02 JUMPI PUSH1 0x0 DUP1 REVERT JUMPDEST POP PUSH1 0x40 MLOAD SWAP1 DUP1 DUP3 MSTORE DUP1 PUSH1 0x20 MUL PUSH1 0x20 ADD DUP3 ADD PUSH1 0x40 MSTORE DUP1 ISZERO PUSH2 0x2A31 JUMPI DUP2 PUSH1 0x20 ADD PUSH1 0x20 DUP3 MUL DUP1 CALLDATASIZE DUP4 CALLDATACOPY DUP1 DUP3 ADD SWAP2 POP POP SWAP1 POP JUMPDEST POP SWAP1 POP PUSH1 0x60 PUSH1 0x1 PUSH1 0x69 SLOAD ADD PUSH8 0xFFFFFFFFFFFFFFFF DUP2 GT DUP1 ISZERO PUSH2 0x2A52 JUMPI PUSH1 0x0 DUP1 REVERT JUMPDEST POP PUSH1 0x40 MLOAD SWAP1 DUP1 DUP3 MSTORE DUP1 PUSH1 0x20 MUL PUSH1 0x20 ADD DUP3 ADD PUSH1 0x40 MSTORE DUP1 ISZERO PUSH2 0x2A81 JUMPI DUP2 PUSH1 0x20 ADD PUSH1 0x20 DUP3 MUL DUP1 CALLDATASIZE DUP4 CALLDATACOPY DUP1 DUP3 ADD SWAP2 POP POP SWAP1 POP JUMPDEST POP SWAP1 POP PUSH1 0x60 PUSH1 0x1 PUSH1 0x69 SLOAD ADD PUSH8 0xFFFFFFFFFFFFFFFF DUP2 GT DUP1 ISZERO PUSH2 0x2AA2 JUMPI PUSH1 0x0 DUP1 REVERT JUMPDEST POP PUSH1 0x40 MLOAD SWAP1 DUP1 DUP3 MSTORE DUP1 PUSH1 0x20 MUL PUSH1 0x20 ADD DUP3 ADD PUSH1 0x40 MSTORE DUP1 ISZERO PUSH2 0x2AD1 JUMPI DUP2 PUSH1 0x20 ADD PUSH1 0x20 DUP3 MUL DUP1 CALLDATASIZE DUP4 CALLDATACOPY DUP1 DUP3 ADD SWAP2 POP POP SWAP1 POP JUMPDEST POP SWAP1 POP PUSH1 0x60 PUSH1 0x1 PUSH1 0x69 SLOAD ADD PUSH8 0xFFFFFFFFFFFFFFFF DUP2 GT DUP1 ISZERO PUSH2 0x2AF2 JUMPI PUSH1 0x0 DUP1 REVERT JUMPDEST POP PUSH1 0x40 MLOAD SWAP1 DUP1 DUP3 MSTORE DUP1 PUSH1 0x20 MUL PUSH1 0x20 ADD DUP3 ADD PUSH1 0x40 MSTORE DUP1 ISZERO PUSH2 0x2B21 JUMPI DUP2 PUSH1 0x20 ADD PUSH1 0x20 DUP3 MUL DUP1 CALLDATASIZE DUP4 CALLDATACOPY DUP1 DUP3 ADD SWAP2 POP POP SWAP1 POP JUMPDEST POP SWAP1 POP PUSH1 0x60 PUSH1 0x1 PUSH1 0x69 SLOAD ADD PUSH8 0xFFFFFFFFFFFFFFFF DUP2 GT DUP1 ISZERO PUSH2 0x2B42 JUMPI PUSH1 0x0 DUP1 REVERT JUMPDEST POP PUSH1 0x40 MLOAD SWAP1 DUP1 DUP3 MSTORE DUP1 PUSH1 0x20 MUL PUSH1 0x20 ADD DUP3 ADD PUSH1 0x40 MSTORE DUP1 ISZERO PUSH2 0x2B71 JUMPI DUP2 PUSH1 0x20 ADD PUSH1 0x20 DUP3 MUL DUP1 CALLDATASIZE DUP4 CALLDATACOPY DUP1 DUP3 ADD SWAP2 POP POP SWAP1 POP JUMPDEST POP SWAP1 POP PUSH1 0x60 PUSH1 0x1 PUSH1 0x69 SLOAD ADD PUSH8 0xFFFFFFFFFFFFFFFF DUP2 GT DUP1 ISZERO PUSH2 0x2B92 JUMPI PUSH1 0x0 DUP1 REVERT JUMPDEST POP PUSH1 0x40 MLOAD SWAP1 DUP1 DUP3 MSTORE DUP1 PUSH1 0x20 MUL PUSH1 0x20 ADD DUP3 ADD PUSH1 0x40 MSTORE DUP1 ISZERO PUSH2 0x2BC1 JUMPI DUP2 PUSH1 0x20 ADD PUSH1 0x20 DUP3 MUL DUP1 CALLDATASIZE DUP4 CALLDATACOPY DUP1 DUP3 ADD SWAP2 POP POP SWAP1 POP JUMPDEST POP SWAP1 POP PUSH1 0x0 PUSH1 0x1 SWAP1 POP JUMPDEST PUSH1 0x69 SLOAD DUP2 PUSH1 0xFF AND GT PUSH2 0x2F0F JUMPI PUSH1 0x6B PUSH1 0x0 DUP16 PUSH20 0xFFFFFFFFFFFFFFFFFFFFFFFFFFFFFFFFFFFFFFFF AND PUSH20 0xFFFFFFFFFFFFFFFFFFFFFFFFFFFFFFFFFFFFFFFF AND DUP2 MSTORE PUSH1 0x20 ADD SWAP1 DUP2 MSTORE PUSH1 0x20 ADD PUSH1 0x0 KECCAK256 PUSH1 0x7 ADD PUSH1 0x0 DUP3 PUSH1 0xFF AND PUSH1 0xFF AND DUP2 MSTORE PUSH1 0x20 ADD SWAP1 DUP2 MSTORE PUSH1 0x20 ADD PUSH1 0x0 KECCAK256 PUSH1 0x0 ADD PUSH1 0x6 SWAP1 SLOAD SWAP1 PUSH2 0x100 EXP SWAP1 DIV PUSH1 0xFF AND DUP8 DUP3 PUSH1 0xFF AND DUP2 MLOAD DUP2 LT PUSH2 0x2C50 JUMPI INVALID JUMPDEST PUSH1 0x20 MUL PUSH1 0x20 ADD ADD SWAP1 ISZERO ISZERO SWAP1 DUP2 ISZERO ISZERO DUP2 MSTORE POP POP PUSH1 0x6B PUSH1 0x0 DUP16 PUSH20 0xFFFFFFFFFFFFFFFFFFFFFFFFFFFFFFFFFFFFFFFF AND PUSH20 0xFFFFFFFFFFFFFFFFFFFFFFFFFFFFFFFFFFFFFFFF AND DUP2 MSTORE PUSH1 0x20 ADD SWAP1 DUP2 MSTORE PUSH1 0x20 ADD PUSH1 0x0 KECCAK256 PUSH1 0x7 ADD PUSH1 0x0 DUP3 PUSH1 0xFF AND PUSH1 0xFF AND DUP2 MSTORE PUSH1 0x20 ADD SWAP1 DUP2 MSTORE PUSH1 0x20 ADD PUSH1 0x0 KECCAK256 PUSH1 0x0 ADD PUSH1 0x4 SWAP1 SLOAD SWAP1 PUSH2 0x100 EXP SWAP1 DIV PUSH2 0xFFFF AND DUP7 DUP3 PUSH1 0xFF AND DUP2 MLOAD DUP2 LT PUSH2 0x2CDC JUMPI INVALID JUMPDEST PUSH1 0x20 MUL PUSH1 0x20 ADD ADD SWAP1 PUSH2 0xFFFF AND SWAP1 DUP2 PUSH2 0xFFFF AND DUP2 MSTORE POP POP PUSH1 0x6B PUSH1 0x0 DUP16 PUSH20 0xFFFFFFFFFFFFFFFFFFFFFFFFFFFFFFFFFFFFFFFF AND PUSH20 0xFFFFFFFFFFFFFFFFFFFFFFFFFFFFFFFFFFFFFFFF AND DUP2 MSTORE PUSH1 0x20 ADD SWAP1 DUP2 MSTORE PUSH1 0x20 ADD PUSH1 0x0 KECCAK256 PUSH1 0x7 ADD PUSH1 0x0 DUP3 PUSH1 0xFF AND PUSH1 0xFF AND DUP2 MSTORE PUSH1 0x20 ADD SWAP1 DUP2 MSTORE PUSH1 0x20 ADD PUSH1 0x0 KECCAK256 PUSH1 0x0 ADD PUSH1 0x2 SWAP1 SLOAD SWAP1 PUSH2 0x100 EXP SWAP1 DIV PUSH2 0xFFFF AND DUP6 DUP3 PUSH1 0xFF AND DUP2 MLOAD DUP2 LT PUSH2 0x2D6C JUMPI INVALID JUMPDEST PUSH1 0x20 MUL PUSH1 0x20 ADD ADD SWAP1 PUSH2 0xFFFF AND SWAP1 DUP2 PUSH2 0xFFFF AND DUP2 MSTORE POP POP PUSH1 0x6B PUSH1 0x0 DUP16 PUSH20 0xFFFFFFFFFFFFFFFFFFFFFFFFFFFFFFFFFFFFFFFF AND PUSH20 0xFFFFFFFFFFFFFFFFFFFFFFFFFFFFFFFFFFFFFFFF AND DUP2 MSTORE PUSH1 0x20 ADD SWAP1 DUP2 MSTORE PUSH1 0x20 ADD PUSH1 0x0 KECCAK256 PUSH1 0x7 ADD PUSH1 0x0 DUP3 PUSH1 0xFF AND PUSH1 0xFF AND DUP2 MSTORE PUSH1 0x20 ADD SWAP1 DUP2 MSTORE PUSH1 0x20 ADD PUSH1 0x0 KECCAK256 PUSH1 0x0 ADD PUSH1 0x0 SWAP1 SLOAD SWAP1 PUSH2 0x100 EXP SWAP1 DIV PUSH2 0xFFFF AND DUP5 DUP3 PUSH1 0xFF AND DUP2 MLOAD DUP2 LT PUSH2 0x2DFC JUMPI INVALID JUMPDEST PUSH1 0x20 MUL PUSH1 0x20 ADD ADD SWAP1 PUSH2 0xFFFF AND SWAP1 DUP2 PUSH2 0xFFFF AND DUP2 MSTORE POP POP PUSH1 0x6B PUSH1 0x0 DUP16 PUSH20 0xFFFFFFFFFFFFFFFFFFFFFFFFFFFFFFFFFFFFFFFF AND PUSH20 0xFFFFFFFFFFFFFFFFFFFFFFFFFFFFFFFFFFFFFFFF AND DUP2 MSTORE PUSH1 0x20 ADD SWAP1 DUP2 MSTORE PUSH1 0x20 ADD PUSH1 0x0 KECCAK256 PUSH1 0x7 ADD PUSH1 0x0 DUP3 PUSH1 0xFF AND PUSH1 0xFF AND DUP2 MSTORE PUSH1 0x20 ADD SWAP1 DUP2 MSTORE PUSH1 0x20 ADD PUSH1 0x0 KECCAK256 PUSH1 0x1 ADD SLOAD DUP4 DUP3 PUSH1 0xFF AND DUP2 MLOAD DUP2 LT PUSH2 0x2E7E JUMPI INVALID JUMPDEST PUSH1 0x20 MUL PUSH1 0x20 ADD ADD DUP2 DUP2 MSTORE POP POP PUSH1 0x6B PUSH1 0x0 DUP16 PUSH20 0xFFFFFFFFFFFFFFFFFFFFFFFFFFFFFFFFFFFFFFFF AND PUSH20 0xFFFFFFFFFFFFFFFFFFFFFFFFFFFFFFFFFFFFFFFF AND DUP2 MSTORE PUSH1 0x20 ADD SWAP1 DUP2 MSTORE PUSH1 0x20 ADD PUSH1 0x0 KECCAK256 PUSH1 0x7 ADD PUSH1 0x0 DUP3 PUSH1 0xFF AND PUSH1 0xFF AND DUP2 MSTORE PUSH1 0x20 ADD SWAP1 DUP2 MSTORE PUSH1 0x20 ADD PUSH1 0x0 KECCAK256 PUSH1 0x2 ADD SLOAD DUP3 DUP3 PUSH1 0xFF AND DUP2 MLOAD DUP2 LT PUSH2 0x2EF6 JUMPI INVALID JUMPDEST PUSH1 0x20 MUL PUSH1 0x20 ADD ADD DUP2 DUP2 MSTORE POP POP DUP1 DUP1 PUSH1 0x1 ADD SWAP2 POP POP PUSH2 0x2BCB JUMP JUMPDEST POP DUP6 DUP6 DUP6 DUP6 DUP6 DUP6 SWAP12 POP SWAP12 POP SWAP12 POP SWAP12 POP SWAP12 POP SWAP12 POP POP POP POP POP POP POP SWAP2 SWAP4 SWAP6 POP SWAP2 SWAP4 SWAP6 JUMP JUMPDEST PUSH1 0x55 DUP2 PUSH1 0x10 DUP2 LT PUSH2 0x2F3E JUMPI INVALID JUMPDEST ADD PUSH1 0x0 SWAP2 POP SLOAD SWAP1 PUSH2 0x100 EXP SWAP1 DIV PUSH20 0xFFFFFFFFFFFFFFFFFFFFFFFFFFFFFFFFFFFFFFFF AND DUP2 JUMP JUMPDEST PUSH2 0x2F6C PUSH2 0x5040 JUMP JUMPDEST PUSH1 0x40 MLOAD DUP1 PUSH1 0xA0 ADD PUSH1 0x40 MSTORE DUP1 PUSH1 0x6F PUSH1 0x0 ADD SLOAD DUP2 MSTORE PUSH1 0x20 ADD PUSH1 0x6F PUSH1 0x1 ADD SLOAD DUP2 MSTORE PUSH1 0x20 ADD PUSH1 0x6F PUSH1 0x2 ADD SLOAD DUP2 MSTORE PUSH1 0x20 ADD PUSH1 0x33 SLOAD DUP2 MSTORE PUSH1 0x20 ADD PUSH1 0x34 SLOAD DUP2 MSTORE POP SWAP1 POP SWAP1 JUMP JUMPDEST PUSH1 0x2 DUP2 JUMP JUMPDEST PUSH1 0x67 PUSH1 0x0 SWAP1 SLOAD SWAP1 PUSH2 0x100 EXP SWAP1 DIV PUSH20 0xFFFFFFFFFFFFFFFFFFFFFFFFFFFFFFFFFFFFFFFF AND DUP2 JUMP JUMPDEST PUSH2 0x2FDE PUSH2 0x5062 JUMP JUMPDEST PUSH1 0x45 PUSH1 0x10 DUP1 PUSH1 0x20 MUL PUSH1 0x40 MLOAD SWAP1 DUP2 ADD PUSH1 0x40 MSTORE DUP1 SWAP3 SWAP2 SWAP1 DUP3 PUSH1 0x10 DUP1 ISZERO PUSH2 0x3017 JUMPI PUSH1 0x20 MUL DUP3 ADD SWAP2 JUMPDEST DUP2 SLOAD DUP2 MSTORE PUSH1 0x20 ADD SWAP1 PUSH1 0x1 ADD SWAP1 DUP1 DUP4 GT PUSH2 0x3003 JUMPI JUMPDEST POP POP POP POP POP SWAP1 POP SWAP1 JUMP JUMPDEST PUSH1 0x0 DUP1 PUSH1 0x0 PUSH1 0x1 SWAP1 POP JUMPDEST PUSH1 0x69 SLOAD DUP2 PUSH1 0xFF AND GT PUSH2 0x3063 JUMPI PUSH1 0x68 DUP2 PUSH1 0xFF AND DUP2 SLOAD DUP2 LT PUSH2 0x3047 JUMPI INVALID JUMPDEST SWAP1 PUSH1 0x0 MSTORE PUSH1 0x20 PUSH1 0x0 KECCAK256 ADD SLOAD DUP3 ADD SWAP2 POP DUP1 DUP1 PUSH1 0x1 ADD SWAP2 POP POP PUSH2 0x302B JUMP JUMPDEST POP PUSH1 0x68 DUP4 PUSH1 0xFF AND DUP2 SLOAD DUP2 LT PUSH2 0x3074 JUMPI INVALID JUMPDEST SWAP1 PUSH1 0x0 MSTORE PUSH1 0x20 PUSH1 0x0 KECCAK256 ADD SLOAD DUP2 SELFBALANCE DUP2 PUSH2 0x3088 JUMPI INVALID JUMPDEST DIV MUL SWAP2 POP POP SWAP2 SWAP1 POP JUMP JUMPDEST PUSH1 0x0 PUSH1 0x6B PUSH1 0x0 DUP4 PUSH20 0xFFFFFFFFFFFFFFFFFFFFFFFFFFFFFFFFFFFFFFFF AND PUSH20 0xFFFFFFFFFFFFFFFFFFFFFFFFFFFFFFFFFFFFFFFF AND DUP2 MSTORE PUSH1 0x20 ADD SWAP1 DUP2 MSTORE PUSH1 0x20 ADD PUSH1 0x0 KECCAK256 PUSH1 0x0 ADD SLOAD SWAP1 POP SWAP2 SWAP1 POP JUMP JUMPDEST PUSH1 0x0 PUSH2 0x30E9 DUP3 PUSH2 0x1115 JUMP JUMPDEST PUSH2 0x315B JUMPI PUSH1 0x40 MLOAD PUSH32 0x8C379A000000000000000000000000000000000000000000000000000000000 DUP2 MSTORE PUSH1 0x4 ADD DUP1 DUP1 PUSH1 0x20 ADD DUP3 DUP2 SUB DUP3 MSTORE PUSH1 0x16 DUP2 MSTORE PUSH1 0x20 ADD DUP1 PUSH32 0x55736572206973206E6F74207265676973746572656400000000000000000000 DUP2 MSTORE POP PUSH1 0x20 ADD SWAP2 POP POP PUSH1 0x40 MLOAD DUP1 SWAP2 SUB SWAP1 REVERT JUMPDEST PUSH1 0x6B PUSH1 0x0 DUP4 PUSH20 0xFFFFFFFFFFFFFFFFFFFFFFFFFFFFFFFFFFFFFFFF AND PUSH20 0xFFFFFFFFFFFFFFFFFFFFFFFFFFFFFFFFFFFFFFFF AND DUP2 MSTORE PUSH1 0x20 ADD SWAP1 DUP2 MSTORE PUSH1 0x20 ADD PUSH1 0x0 KECCAK256 PUSH1 0x2 ADD PUSH1 0x0 SWAP1 SLOAD SWAP1 PUSH2 0x100 EXP SWAP1 DIV PUSH20 0xFFFFFFFFFFFFFFFFFFFFFFFFFFFFFFFFFFFFFFFF AND SWAP1 POP SWAP2 SWAP1 POP JUMP JUMPDEST PUSH1 0x66 PUSH1 0x0 SWAP1 SLOAD SWAP1 PUSH2 0x100 EXP SWAP1 DIV PUSH1 0xFF AND DUP2 JUMP JUMPDEST PUSH1 0x60 DUP1 PUSH1 0x60 PUSH1 0x1 PUSH1 0x69 SLOAD ADD PUSH8 0xFFFFFFFFFFFFFFFF DUP2 GT DUP1 ISZERO PUSH2 0x31F9 JUMPI PUSH1 0x0 DUP1 REVERT JUMPDEST POP PUSH1 0x40 MLOAD SWAP1 DUP1 DUP3 MSTORE DUP1 PUSH1 0x20 MUL PUSH1 0x20 ADD DUP3 ADD PUSH1 0x40 MSTORE DUP1 ISZERO PUSH2 0x3228 JUMPI DUP2 PUSH1 0x20 ADD PUSH1 0x20 DUP3 MUL DUP1 CALLDATASIZE DUP4 CALLDATACOPY DUP1 DUP3 ADD SWAP2 POP POP SWAP1 POP JUMPDEST POP SWAP1 POP PUSH1 0x60 PUSH1 0x1 PUSH1 0x69 SLOAD ADD PUSH8 0xFFFFFFFFFFFFFFFF DUP2 GT DUP1 ISZERO PUSH2 0x3249 JUMPI PUSH1 0x0 DUP1 REVERT JUMPDEST POP PUSH1 0x40 MLOAD SWAP1 DUP1 DUP3 MSTORE DUP1 PUSH1 0x20 MUL PUSH1 0x20 ADD DUP3 ADD PUSH1 0x40 MSTORE DUP1 ISZERO PUSH2 0x3278 JUMPI DUP2 PUSH1 0x20 ADD PUSH1 0x20 DUP3 MUL DUP1 CALLDATASIZE DUP4 CALLDATACOPY DUP1 DUP3 ADD SWAP2 POP POP SWAP1 POP JUMPDEST POP SWAP1 POP PUSH1 0x0 PUSH1 0x1 SWAP1 POP JUMPDEST PUSH1 0x69 SLOAD DUP2 PUSH1 0xFF AND GT PUSH2 0x338B JUMPI PUSH1 0x6B PUSH1 0x0 DUP8 PUSH20 0xFFFFFFFFFFFFFFFFFFFFFFFFFFFFFFFFFFFFFFFF AND PUSH20 0xFFFFFFFFFFFFFFFFFFFFFFFFFFFFFFFFFFFFFFFF AND DUP2 MSTORE PUSH1 0x20 ADD SWAP1 DUP2 MSTORE PUSH1 0x20 ADD PUSH1 0x0 KECCAK256 PUSH1 0x7 ADD PUSH1 0x0 DUP3 PUSH1 0xFF AND PUSH1 0xFF AND DUP2 MSTORE PUSH1 0x20 ADD SWAP1 DUP2 MSTORE PUSH1 0x20 ADD PUSH1 0x0 KECCAK256 PUSH1 0x4 ADD SLOAD DUP4 DUP3 PUSH1 0xFF AND DUP2 MLOAD DUP2 LT PUSH2 0x32FA JUMPI INVALID JUMPDEST PUSH1 0x20 MUL PUSH1 0x20 ADD ADD DUP2 DUP2 MSTORE POP POP PUSH1 0x6B PUSH1 0x0 DUP8 PUSH20 0xFFFFFFFFFFFFFFFFFFFFFFFFFFFFFFFFFFFFFFFF AND PUSH20 0xFFFFFFFFFFFFFFFFFFFFFFFFFFFFFFFFFFFFFFFF AND DUP2 MSTORE PUSH1 0x20 ADD SWAP1 DUP2 MSTORE PUSH1 0x20 ADD PUSH1 0x0 KECCAK256 PUSH1 0x7 ADD PUSH1 0x0 DUP3 PUSH1 0xFF AND PUSH1 0xFF AND DUP2 MSTORE PUSH1 0x20 ADD SWAP1 DUP2 MSTORE PUSH1 0x20 ADD PUSH1 0x0 KECCAK256 PUSH1 0x5 ADD SLOAD DUP3 DUP3 PUSH1 0xFF AND DUP2 MLOAD DUP2 LT PUSH2 0x3372 JUMPI INVALID JUMPDEST PUSH1 0x20 MUL PUSH1 0x20 ADD ADD DUP2 DUP2 MSTORE POP POP DUP1 DUP1 PUSH1 0x1 ADD SWAP2 POP POP PUSH2 0x3282 JUMP JUMPDEST POP DUP2 DUP2 SWAP4 POP SWAP4 POP POP POP SWAP2 POP SWAP2 JUMP JUMPDEST PUSH1 0x45 DUP2 PUSH1 0x10 DUP2 LT PUSH2 0x33A6 JUMPI INVALID JUMPDEST ADD PUSH1 0x0 SWAP2 POP SWAP1 POP SLOAD DUP2 JUMP JUMPDEST PUSH1 0x68 DUP2 DUP2 SLOAD DUP2 LT PUSH2 0x33BE JUMPI INVALID JUMPDEST SWAP1 PUSH1 0x0 MSTORE PUSH1 0x20 PUSH1 0x0 KECCAK256 ADD PUSH1 0x0 SWAP2 POP SWAP1 POP SLOAD DUP2 JUMP JUMPDEST PUSH1 0x35 DUP2 PUSH1 0x10 DUP2 LT PUSH2 0x33DF JUMPI INVALID JUMPDEST ADD PUSH1 0x0 SWAP2 POP SWAP1 POP SLOAD DUP2 JUMP JUMPDEST PUSH1 0x0 DUP1 PUSH1 0x0 DUP1 PUSH1 0x0 DUP1 PUSH1 0x0 DUP1 PUSH1 0x0 DUP1 PUSH2 0x3401 PUSH2 0x5085 JUMP JUMPDEST PUSH1 0x6B PUSH1 0x0 DUP14 PUSH20 0xFFFFFFFFFFFFFFFFFFFFFFFFFFFFFFFFFFFFFFFF AND PUSH20 0xFFFFFFFFFFFFFFFFFFFFFFFFFFFFFFFFFFFFFFFF AND DUP2 MSTORE PUSH1 0x20 ADD SWAP1 DUP2 MSTORE PUSH1 0x20 ADD PUSH1 0x0 KECCAK256 PUSH1 0x40 MLOAD DUP1 PUSH2 0x120 ADD PUSH1 0x40 MSTORE SWAP1 DUP2 PUSH1 0x0 DUP3 ADD SLOAD DUP2 MSTORE PUSH1 0x20 ADD PUSH1 0x1 DUP3 ADD SLOAD DUP2 MSTORE PUSH1 0x20 ADD PUSH1 0x2 DUP3 ADD PUSH1 0x0 SWAP1 SLOAD SWAP1 PUSH2 0x100 EXP SWAP1 DIV PUSH20 0xFFFFFFFFFFFFFFFFFFFFFFFFFFFFFFFFFFFFFFFF AND PUSH20 0xFFFFFFFFFFFFFFFFFFFFFFFFFFFFFFFFFFFFFFFF AND PUSH20 0xFFFFFFFFFFFFFFFFFFFFFFFFFFFFFFFFFFFFFFFF AND DUP2 MSTORE PUSH1 0x20 ADD PUSH1 0x3 DUP3 ADD SLOAD DUP2 MSTORE PUSH1 0x20 ADD PUSH1 0x4 DUP3 ADD SLOAD DUP2 MSTORE PUSH1 0x20 ADD PUSH1 0x5 DUP3 ADD SLOAD DUP2 MSTORE PUSH1 0x20 ADD PUSH1 0x6 DUP3 ADD SLOAD DUP2 MSTORE PUSH1 0x20 ADD PUSH1 0x8 DUP3 ADD PUSH1 0x0 SWAP1 SLOAD SWAP1 PUSH2 0x100 EXP SWAP1 DIV PUSH1 0xFF AND PUSH1 0xFF AND PUSH1 0xFF AND DUP2 MSTORE PUSH1 0x20 ADD PUSH1 0x9 DUP3 ADD SLOAD DUP2 MSTORE POP POP SWAP1 POP DUP1 PUSH1 0x0 ADD MLOAD DUP2 PUSH1 0x20 ADD MLOAD PUSH1 0x6B PUSH1 0x0 DUP5 PUSH1 0x40 ADD MLOAD PUSH20 0xFFFFFFFFFFFFFFFFFFFFFFFFFFFFFFFFFFFFFFFF AND PUSH20 0xFFFFFFFFFFFFFFFFFFFFFFFFFFFFFFFFFFFFFFFF AND DUP2 MSTORE PUSH1 0x20 ADD SWAP1 DUP2 MSTORE PUSH1 0x20 ADD PUSH1 0x0 KECCAK256 PUSH1 0x0 ADD SLOAD DUP4 PUSH1 0x40 ADD MLOAD DUP5 PUSH1 0x60 ADD MLOAD DUP6 PUSH1 0x80 ADD MLOAD DUP7 PUSH1 0xA0 ADD MLOAD DUP8 PUSH1 0xC0 ADD MLOAD DUP9 PUSH1 0xE0 ADD MLOAD DUP10 PUSH2 0x100 ADD MLOAD DUP2 PUSH1 0xFF AND SWAP2 POP SWAP11 POP SWAP11 POP SWAP11 POP SWAP11 POP SWAP11 POP SWAP11 POP SWAP11 POP SWAP11 POP SWAP11 POP SWAP11 POP POP SWAP2 SWAP4 SWAP6 SWAP8 SWAP10 POP SWAP2 SWAP4 SWAP6 SWAP8 SWAP10 JUMP JUMPDEST PUSH1 0x0 SELFBALANCE SWAP1 POP SWAP1 JUMP JUMPDEST PUSH1 0x34 SLOAD DUP2 JUMP JUMPDEST JUMP JUMPDEST PUSH1 0x0 PUSH1 0x6C PUSH1 0x0 DUP4 DUP2 MSTORE PUSH1 0x20 ADD SWAP1 DUP2 MSTORE PUSH1 0x20 ADD PUSH1 0x0 KECCAK256 PUSH1 0x0 SWAP1 SLOAD SWAP1 PUSH2 0x100 EXP SWAP1 DIV PUSH20 0xFFFFFFFFFFFFFFFFFFFFFFFFFFFFFFFFFFFFFFFF AND SWAP1 POP SWAP2 SWAP1 POP JUMP JUMPDEST PUSH2 0x35F9 PUSH2 0x50EA JUMP JUMPDEST PUSH1 0x1 PUSH1 0x32 DUP1 PUSH1 0x20 MUL PUSH1 0x40 MLOAD SWAP1 DUP2 ADD PUSH1 0x40 MSTORE DUP1 SWAP3 SWAP2 SWAP1 DUP3 PUSH1 0x32 DUP1 ISZERO PUSH2 0x3668 JUMPI PUSH1 0x20 MUL DUP3 ADD SWAP2 JUMPDEST DUP2 PUSH1 0x0 SWAP1 SLOAD SWAP1 PUSH2 0x100 EXP SWAP1 DIV PUSH20 0xFFFFFFFFFFFFFFFFFFFFFFFFFFFFFFFFFFFFFFFF AND PUSH20 0xFFFFFFFFFFFFFFFFFFFFFFFFFFFFFFFFFFFFFFFF AND DUP2 MSTORE PUSH1 0x20 ADD SWAP1 PUSH1 0x1 ADD SWAP1 DUP1 DUP4 GT PUSH2 0x361E JUMPI JUMPDEST POP POP POP POP POP SWAP1 POP SWAP1 JUMP JUMPDEST PUSH1 0x66 PUSH1 0x2 SWAP1 SLOAD SWAP1 PUSH2 0x100 EXP SWAP1 DIV PUSH20 0xFFFFFFFFFFFFFFFFFFFFFFFFFFFFFFFFFFFFFFFF AND DUP2 JUMP JUMPDEST PUSH1 0x66 PUSH1 0x2 SWAP1 SLOAD SWAP1 PUSH2 0x100 EXP SWAP1 DIV PUSH20 0xFFFFFFFFFFFFFFFFFFFFFFFFFFFFFFFFFFFFFFFF AND PUSH20 0xFFFFFFFFFFFFFFFFFFFFFFFFFFFFFFFFFFFFFFFF AND CALLER PUSH20 0xFFFFFFFFFFFFFFFFFFFFFFFFFFFFFFFFFFFFFFFF AND EQ PUSH2 0x375B JUMPI PUSH1 0x40 MLOAD PUSH32 0x8C379A000000000000000000000000000000000000000000000000000000000 DUP2 MSTORE PUSH1 0x4 ADD DUP1 DUP1 PUSH1 0x20 ADD DUP3 DUP2 SUB DUP3 MSTORE PUSH1 0x15 DUP2 MSTORE PUSH1 0x20 ADD DUP1 PUSH32 0x796F7520617265206E6F7420616E206F776E6572210000000000000000000000 DUP2 MSTORE POP PUSH1 0x20 ADD SWAP2 POP POP PUSH1 0x40 MLOAD DUP1 SWAP2 SUB SWAP1 REVERT JUMPDEST PUSH1 0x0 JUMPDEST PUSH1 0x31 DUP2 PUSH1 0xFF AND GT PUSH2 0x37C7 JUMPI PUSH1 0x0 PUSH1 0x1 DUP3 PUSH1 0xFF AND PUSH1 0x32 DUP2 LT PUSH2 0x377B JUMPI INVALID JUMPDEST ADD PUSH1 0x0 PUSH2 0x100 EXP DUP2 SLOAD DUP2 PUSH20 0xFFFFFFFFFFFFFFFFFFFFFFFFFFFFFFFFFFFFFFFF MUL NOT AND SWAP1 DUP4 PUSH20 0xFFFFFFFFFFFFFFFFFFFFFFFFFFFFFFFFFFFFFFFF AND MUL OR SWAP1 SSTORE POP DUP1 DUP1 PUSH1 0x1 ADD SWAP2 POP POP PUSH2 0x375E JUMP JUMPDEST POP PUSH1 0x0 DUP1 PUSH1 0x1 SWAP1 POP JUMPDEST PUSH1 0x69 SLOAD DUP2 PUSH1 0xFF AND GT PUSH2 0x38DD JUMPI PUSH1 0x0 PUSH1 0x6E PUSH1 0x0 DUP4 PUSH1 0xFF AND PUSH1 0xFF AND DUP2 MSTORE PUSH1 0x20 ADD SWAP1 DUP2 MSTORE PUSH1 0x20 ADD PUSH1 0x0 KECCAK256 SLOAD SWAP1 POP JUMPDEST PUSH1 0x6D PUSH1 0x0 DUP4 PUSH1 0xFF AND PUSH1 0xFF AND DUP2 MSTORE PUSH1 0x20 ADD SWAP1 DUP2 MSTORE PUSH1 0x20 ADD PUSH1 0x0 KECCAK256 DUP1 SLOAD SWAP1 POP DUP2 LT ISZERO PUSH2 0x38CF JUMPI TIMESTAMP PUSH3 0x15180 PUSH1 0x65 PUSH1 0x0 PUSH1 0x6D PUSH1 0x0 DUP8 PUSH1 0xFF AND PUSH1 0xFF AND DUP2 MSTORE PUSH1 0x20 ADD SWAP1 DUP2 MSTORE PUSH1 0x20 ADD PUSH1 0x0 KECCAK256 DUP6 DUP2 SLOAD DUP2 LT PUSH2 0x384C JUMPI INVALID JUMPDEST SWAP1 PUSH1 0x0 MSTORE PUSH1 0x20 PUSH1 0x0 KECCAK256 ADD PUSH1 0x0 SWAP1 SLOAD SWAP1 PUSH2 0x100 EXP SWAP1 DIV PUSH20 0xFFFFFFFFFFFFFFFFFFFFFFFFFFFFFFFFFFFFFFFF AND PUSH20 0xFFFFFFFFFFFFFFFFFFFFFFFFFFFFFFFFFFFFFFFF AND PUSH20 0xFFFFFFFFFFFFFFFFFFFFFFFFFFFFFFFFFFFFFFFF AND DUP2 MSTORE PUSH1 0x20 ADD SWAP1 DUP2 MSTORE PUSH1 0x20 ADD PUSH1 0x0 KECCAK256 SLOAD ADD GT ISZERO PUSH2 0x38C2 JUMPI DUP3 DUP1 PUSH1 0x1 ADD SWAP4 POP POP JUMPDEST DUP1 DUP1 PUSH1 0x1 ADD SWAP2 POP POP PUSH2 0x37FB JUMP JUMPDEST POP DUP1 DUP1 PUSH1 0x1 ADD SWAP2 POP POP PUSH2 0x37D0 JUMP JUMPDEST POP DUP2 PUSH1 0x2 SELFBALANCE DUP2 PUSH2 0x38E9 JUMPI INVALID JUMPDEST DIV DUP2 PUSH2 0x38F1 JUMPI INVALID JUMPDEST DIV PUSH1 0x33 DUP2 SWAP1 SSTORE POP TIMESTAMP PUSH1 0x34 DUP2 SWAP1 SSTORE POP PUSH1 0x0 DUP3 DUP3 DUP2 PUSH2 0x390A JUMPI INVALID JUMPDEST DIV SWAP1 POP PUSH1 0x0 DUP1 PUSH1 0x0 PUSH1 0x1 SWAP1 POP JUMPDEST PUSH1 0x69 SLOAD DUP2 PUSH1 0xFF AND GT PUSH2 0x3B85 JUMPI PUSH1 0x0 PUSH1 0x6E PUSH1 0x0 DUP4 PUSH1 0xFF AND PUSH1 0xFF AND DUP2 MSTORE PUSH1 0x20 ADD SWAP1 DUP2 MSTORE PUSH1 0x20 ADD PUSH1 0x0 KECCAK256 SLOAD SWAP1 POP JUMPDEST PUSH1 0x6D PUSH1 0x0 DUP4 PUSH1 0xFF AND PUSH1 0xFF AND DUP2 MSTORE PUSH1 0x20 ADD SWAP1 DUP2 MSTORE PUSH1 0x20 ADD PUSH1 0x0 KECCAK256 DUP1 SLOAD SWAP1 POP DUP2 LT ISZERO PUSH2 0x3B77 JUMPI DUP4 DUP1 PUSH1 0x1 ADD SWAP5 POP POP PUSH1 0x0 DUP6 DUP6 DUP2 PUSH2 0x3979 JUMPI INVALID JUMPDEST MOD EQ DUP1 ISZERO PUSH2 0x3A18 JUMPI POP TIMESTAMP PUSH3 0x15180 PUSH1 0x65 PUSH1 0x0 PUSH1 0x6D PUSH1 0x0 DUP8 PUSH1 0xFF AND PUSH1 0xFF AND DUP2 MSTORE PUSH1 0x20 ADD SWAP1 DUP2 MSTORE PUSH1 0x20 ADD PUSH1 0x0 KECCAK256 DUP6 DUP2 SLOAD DUP2 LT PUSH2 0x39AF JUMPI INVALID JUMPDEST SWAP1 PUSH1 0x0 MSTORE PUSH1 0x20 PUSH1 0x0 KECCAK256 ADD PUSH1 0x0 SWAP1 SLOAD SWAP1 PUSH2 0x100 EXP SWAP1 DIV PUSH20 0xFFFFFFFFFFFFFFFFFFFFFFFFFFFFFFFFFFFFFFFF AND PUSH20 0xFFFFFFFFFFFFFFFFFFFFFFFFFFFFFFFFFFFFFFFF AND PUSH20 0xFFFFFFFFFFFFFFFFFFFFFFFFFFFFFFFFFFFFFFFF AND DUP2 MSTORE PUSH1 0x20 ADD SWAP1 DUP2 MSTORE PUSH1 0x20 ADD PUSH1 0x0 KECCAK256 SLOAD ADD GT JUMPDEST ISZERO PUSH2 0x3B6A JUMPI PUSH1 0x6D PUSH1 0x0 DUP4 PUSH1 0xFF AND PUSH1 0xFF AND DUP2 MSTORE PUSH1 0x20 ADD SWAP1 DUP2 MSTORE PUSH1 0x20 ADD PUSH1 0x0 KECCAK256 DUP2 DUP2 SLOAD DUP2 LT PUSH2 0x3A41 JUMPI INVALID JUMPDEST SWAP1 PUSH1 0x0 MSTORE PUSH1 0x20 PUSH1 0x0 KECCAK256 ADD PUSH1 0x0 SWAP1 SLOAD SWAP1 PUSH2 0x100 EXP SWAP1 DIV PUSH20 0xFFFFFFFFFFFFFFFFFFFFFFFFFFFFFFFFFFFFFFFF AND PUSH1 0x1 DUP5 PUSH1 0xFF AND PUSH1 0x32 DUP2 LT PUSH2 0x3A7C JUMPI INVALID JUMPDEST ADD PUSH1 0x0 PUSH2 0x100 EXP DUP2 SLOAD DUP2 PUSH20 0xFFFFFFFFFFFFFFFFFFFFFFFFFFFFFFFFFFFFFFFF MUL NOT AND SWAP1 DUP4 PUSH20 0xFFFFFFFFFFFFFFFFFFFFFFFFFFFFFFFFFFFFFFFF AND MUL OR SWAP1 SSTORE POP DUP3 DUP1 PUSH1 0x1 ADD SWAP4 POP POP PUSH1 0x6D PUSH1 0x0 DUP4 PUSH1 0xFF AND PUSH1 0xFF AND DUP2 MSTORE PUSH1 0x20 ADD SWAP1 DUP2 MSTORE PUSH1 0x20 ADD PUSH1 0x0 KECCAK256 DUP2 DUP2 SLOAD DUP2 LT PUSH2 0x3AE7 JUMPI INVALID JUMPDEST SWAP1 PUSH1 0x0 MSTORE PUSH1 0x20 PUSH1 0x0 KECCAK256 ADD PUSH1 0x0 SWAP1 SLOAD SWAP1 PUSH2 0x100 EXP SWAP1 DIV PUSH20 0xFFFFFFFFFFFFFFFFFFFFFFFFFFFFFFFFFFFFFFFF AND PUSH20 0xFFFFFFFFFFFFFFFFFFFFFFFFFFFFFFFFFFFFFFFF AND PUSH32 0xEDAC0922924CC83017073B98842693D865D06A82C38175D4A1CB0811EF86193F TIMESTAMP PUSH1 0x33 SLOAD PUSH1 0x40 MLOAD DUP1 DUP4 DUP2 MSTORE PUSH1 0x20 ADD DUP3 DUP2 MSTORE PUSH1 0x20 ADD SWAP3 POP POP POP PUSH1 0x40 MLOAD DUP1 SWAP2 SUB SWAP1 LOG2 JUMPDEST DUP1 DUP1 PUSH1 0x1 ADD SWAP2 POP POP PUSH2 0x3942 JUMP JUMPDEST POP DUP1 DUP1 PUSH1 0x1 ADD SWAP2 POP POP PUSH2 0x3917 JUMP JUMPDEST POP POP POP POP POP POP JUMP JUMPDEST PUSH2 0x3B96 DUP2 PUSH2 0x1115 JUMP JUMPDEST PUSH2 0x3C08 JUMPI PUSH1 0x40 MLOAD PUSH32 0x8C379A000000000000000000000000000000000000000000000000000000000 DUP2 MSTORE PUSH1 0x4 ADD DUP1 DUP1 PUSH1 0x20 ADD DUP3 DUP2 SUB DUP3 MSTORE PUSH1 0x1A DUP2 MSTORE PUSH1 0x20 ADD DUP1 PUSH32 0x5265666572726572206973206E6F742072656769737465726564000000000000 DUP2 MSTORE POP PUSH1 0x20 ADD SWAP2 POP POP PUSH1 0x40 MLOAD DUP1 SWAP2 SUB SWAP1 REVERT JUMPDEST PUSH2 0x3C11 CALLER PUSH2 0x1115 JUMP JUMPDEST ISZERO PUSH2 0x3C84 JUMPI PUSH1 0x40 MLOAD PUSH32 0x8C379A000000000000000000000000000000000000000000000000000000000 DUP2 MSTORE PUSH1 0x4 ADD DUP1 DUP1 PUSH1 0x20 ADD DUP3 DUP2 SUB DUP3 MSTORE PUSH1 0x17 DUP2 MSTORE PUSH1 0x20 ADD DUP1 PUSH32 0x5573657220616C72656164792072656769737465726564000000000000000000 DUP2 MSTORE POP PUSH1 0x20 ADD SWAP2 POP POP PUSH1 0x40 MLOAD DUP1 SWAP2 SUB SWAP1 REVERT JUMPDEST PUSH2 0x3C8D CALLER PUSH2 0x2989 JUMP JUMPDEST ISZERO PUSH2 0x3D00 JUMPI PUSH1 0x40 MLOAD PUSH32 0x8C379A000000000000000000000000000000000000000000000000000000000 DUP2 MSTORE PUSH1 0x4 ADD DUP1 DUP1 PUSH1 0x20 ADD DUP3 DUP2 SUB DUP3 MSTORE PUSH1 0x15 DUP2 MSTORE PUSH1 0x20 ADD DUP1 PUSH32 0x43616E206E6F74206265206120636F6E74726163740000000000000000000000 DUP2 MSTORE POP PUSH1 0x20 ADD SWAP2 POP POP PUSH1 0x40 MLOAD DUP1 SWAP2 SUB SWAP1 REVERT JUMPDEST PUSH2 0x3D08 PUSH2 0x5085 JUMP JUMPDEST PUSH1 0x40 MLOAD DUP1 PUSH2 0x120 ADD PUSH1 0x40 MSTORE DUP1 PUSH1 0x6A PUSH1 0x0 DUP2 SLOAD DUP1 SWAP3 SWAP2 SWAP1 PUSH1 0x1 ADD SWAP2 SWAP1 POP SSTORE DUP2 MSTORE PUSH1 0x20 ADD TIMESTAMP DUP2 MSTORE PUSH1 0x20 ADD DUP4 PUSH20 0xFFFFFFFFFFFFFFFFFFFFFFFFFFFFFFFFFFFFFFFF AND DUP2 MSTORE PUSH1 0x20 ADD PUSH1 0x0 DUP2 MSTORE PUSH1 0x20 ADD PUSH1 0x0 DUP2 MSTORE PUSH1 0x20 ADD PUSH1 0x0 DUP2 MSTORE PUSH1 0x20 ADD PUSH1 0x0 DUP2 MSTORE PUSH1 0x20 ADD PUSH1 0x0 PUSH1 0xFF AND DUP2 MSTORE PUSH1 0x20 ADD PUSH1 0x0 DUP2 MSTORE POP SWAP1 POP DUP1 PUSH1 0x6B PUSH1 0x0 CALLER PUSH20 0xFFFFFFFFFFFFFFFFFFFFFFFFFFFFFFFFFFFFFFFF AND PUSH20 0xFFFFFFFFFFFFFFFFFFFFFFFFFFFFFFFFFFFFFFFF AND DUP2 MSTORE PUSH1 0x20 ADD SWAP1 DUP2 MSTORE PUSH1 0x20 ADD PUSH1 0x0 KECCAK256 PUSH1 0x0 DUP3 ADD MLOAD DUP2 PUSH1 0x0 ADD SSTORE PUSH1 0x20 DUP3 ADD MLOAD DUP2 PUSH1 0x1 ADD SSTORE PUSH1 0x40 DUP3 ADD MLOAD DUP2 PUSH1 0x2 ADD PUSH1 0x0 PUSH2 0x100 EXP DUP2 SLOAD DUP2 PUSH20 0xFFFFFFFFFFFFFFFFFFFFFFFFFFFFFFFFFFFFFFFF MUL NOT AND SWAP1 DUP4 PUSH20 0xFFFFFFFFFFFFFFFFFFFFFFFFFFFFFFFFFFFFFFFF AND MUL OR SWAP1 SSTORE POP PUSH1 0x60 DUP3 ADD MLOAD DUP2 PUSH1 0x3 ADD SSTORE PUSH1 0x80 DUP3 ADD MLOAD DUP2 PUSH1 0x4 ADD SSTORE PUSH1 0xA0 DUP3 ADD MLOAD DUP2 PUSH1 0x5 ADD SSTORE PUSH1 0xC0 DUP3 ADD MLOAD DUP2 PUSH1 0x6 ADD SSTORE PUSH1 0xE0 DUP3 ADD MLOAD DUP2 PUSH1 0x8 ADD PUSH1 0x0 PUSH2 0x100 EXP DUP2 SLOAD DUP2 PUSH1 0xFF MUL NOT AND SWAP1 DUP4 PUSH1 0xFF AND MUL OR SWAP1 SSTORE POP PUSH2 0x100 DUP3 ADD MLOAD DUP2 PUSH1 0x9 ADD SSTORE SWAP1 POP POP CALLER PUSH1 0x6C PUSH1 0x0 DUP4 PUSH1 0x0 ADD MLOAD DUP2 MSTORE PUSH1 0x20 ADD SWAP1 DUP2 MSTORE PUSH1 0x20 ADD PUSH1 0x0 KECCAK256 PUSH1 0x0 PUSH2 0x100 EXP DUP2 SLOAD DUP2 PUSH20 0xFFFFFFFFFFFFFFFFFFFFFFFFFFFFFFFFFFFFFFFF MUL NOT AND SWAP1 DUP4 PUSH20 0xFFFFFFFFFFFFFFFFFFFFFFFFFFFFFFFFFFFFFFFF AND MUL OR SWAP1 SSTORE POP PUSH1 0x0 PUSH1 0x1 SWAP1 POP PUSH1 0x0 DUP4 SWAP1 POP PUSH1 0x0 PUSH20 0xFFFFFFFFFFFFFFFFFFFFFFFFFFFFFFFFFFFFFFFF AND DUP2 PUSH20 0xFFFFFFFFFFFFFFFFFFFFFFFFFFFFFFFFFFFFFFFF AND EQ PUSH2 0x3FC0 JUMPI PUSH1 0x6B PUSH1 0x0 DUP3 PUSH20 0xFFFFFFFFFFFFFFFFFFFFFFFFFFFFFFFFFFFFFFFF AND PUSH20 0xFFFFFFFFFFFFFFFFFFFFFFFFFFFFFFFFFFFFFFFF AND DUP2 MSTORE PUSH1 0x20 ADD SWAP1 DUP2 MSTORE PUSH1 0x20 ADD PUSH1 0x0 KECCAK256 PUSH1 0x3 ADD PUSH1 0x0 DUP2 SLOAD DUP1 SWAP3 SWAP2 SWAP1 PUSH1 0x1 ADD SWAP2 SWAP1 POP SSTORE POP PUSH1 0x6B PUSH1 0x0 DUP3 PUSH20 0xFFFFFFFFFFFFFFFFFFFFFFFFFFFFFFFFFFFFFFFF AND PUSH20 0xFFFFFFFFFFFFFFFFFFFFFFFFFFFFFFFFFFFFFFFF AND DUP2 MSTORE PUSH1 0x20 ADD SWAP1 DUP2 MSTORE PUSH1 0x20 ADD PUSH1 0x0 KECCAK256 PUSH1 0x2 ADD PUSH1 0x0 SWAP1 SLOAD SWAP1 PUSH2 0x100 EXP SWAP1 DIV PUSH20 0xFFFFFFFFFFFFFFFFFFFFFFFFFFFFFFFFFFFFFFFF AND SWAP1 POP DUP2 DUP1 PUSH1 0x1 ADD SWAP3 POP POP JUMPDEST PUSH1 0x6F PUSH1 0x0 ADD PUSH1 0x0 DUP2 SLOAD DUP1 SWAP3 SWAP2 SWAP1 PUSH1 0x1 ADD SWAP2 SWAP1 POP SSTORE POP PUSH1 0x6F PUSH1 0x1 ADD PUSH1 0x0 DUP2 SLOAD DUP1 SWAP3 SWAP2 SWAP1 PUSH1 0x1 ADD SWAP2 SWAP1 POP SSTORE POP CALLER PUSH20 0xFFFFFFFFFFFFFFFFFFFFFFFFFFFFFFFFFFFFFFFF AND PUSH32 0x588149FB6F65171A24789E864D05FEB177506DF6FC9E86C55D0D19B5122BDFFC TIMESTAMP DUP6 PUSH1 0x0 ADD MLOAD PUSH1 0x6B PUSH1 0x0 DUP10 PUSH20 0xFFFFFFFFFFFFFFFFFFFFFFFFFFFFFFFFFFFFFFFF AND PUSH20 0xFFFFFFFFFFFFFFFFFFFFFFFFFFFFFFFFFFFFFFFF AND DUP2 MSTORE PUSH1 0x20 ADD SWAP1 DUP2 MSTORE PUSH1 0x20 ADD PUSH1 0x0 KECCAK256 PUSH1 0x0 ADD SLOAD PUSH1 0x40 MLOAD DUP1 DUP5 DUP2 MSTORE PUSH1 0x20 ADD DUP4 DUP2 MSTORE PUSH1 0x20 ADD DUP3 DUP2 MSTORE PUSH1 0x20 ADD SWAP4 POP POP POP POP PUSH1 0x40 MLOAD DUP1 SWAP2 SUB SWAP1 LOG2 POP POP POP POP JUMP JUMPDEST PUSH1 0x66 PUSH1 0x1 SWAP1 SLOAD SWAP1 PUSH2 0x100 EXP SWAP1 DIV PUSH1 0xFF AND DUP2 JUMP JUMPDEST PUSH1 0x65 PUSH1 0x20 MSTORE DUP1 PUSH1 0x0 MSTORE PUSH1 0x40 PUSH1 0x0 KECCAK256 PUSH1 0x0 SWAP2 POP SWAP1 POP SLOAD DUP2 JUMP JUMPDEST PUSH2 0x40C8 DUP2 PUSH2 0x3B8D JUMP JUMPDEST PUSH2 0x40D2 PUSH1 0x1 PUSH2 0x1191 JUMP JUMPDEST POP JUMP JUMPDEST PUSH1 0x0 DUP1 PUSH1 0x6B PUSH1 0x0 DUP5 PUSH20 0xFFFFFFFFFFFFFFFFFFFFFFFFFFFFFFFFFFFFFFFF AND PUSH20 0xFFFFFFFFFFFFFFFFFFFFFFFFFFFFFFFFFFFFFFFF AND DUP2 MSTORE PUSH1 0x20 ADD SWAP1 DUP2 MSTORE PUSH1 0x20 ADD PUSH1 0x0 KECCAK256 PUSH1 0x2 ADD PUSH1 0x0 SWAP1 SLOAD SWAP1 PUSH2 0x100 EXP SWAP1 DIV PUSH20 0xFFFFFFFFFFFFFFFFFFFFFFFFFFFFFFFFFFFFFFFF AND SWAP1 POP PUSH1 0x6B PUSH1 0x0 DUP3 PUSH20 0xFFFFFFFFFFFFFFFFFFFFFFFFFFFFFFFFFFFFFFFF AND PUSH20 0xFFFFFFFFFFFFFFFFFFFFFFFFFFFFFFFFFFFFFFFF AND DUP2 MSTORE PUSH1 0x20 ADD SWAP1 DUP2 MSTORE PUSH1 0x20 ADD PUSH1 0x0 KECCAK256 PUSH1 0x0 ADD SLOAD SWAP2 POP POP SWAP2 SWAP1 POP JUMP JUMPDEST PUSH1 0x4B DUP2 JUMP JUMPDEST PUSH1 0x2 PUSH1 0x0 SLOAD EQ ISZERO PUSH2 0x4206 JUMPI PUSH1 0x40 MLOAD PUSH32 0x8C379A000000000000000000000000000000000000000000000000000000000 DUP2 MSTORE PUSH1 0x4 ADD DUP1 DUP1 PUSH1 0x20 ADD DUP3 DUP2 SUB DUP3 MSTORE PUSH1 0x1F DUP2 MSTORE PUSH1 0x20 ADD DUP1 PUSH32 0x5265656E7472616E637947756172643A207265656E7472616E742063616C6C00 DUP2 MSTORE POP PUSH1 0x20 ADD SWAP2 POP POP PUSH1 0x40 MLOAD DUP1 SWAP2 SUB SWAP1 REVERT JUMPDEST PUSH1 0x2 PUSH1 0x0 DUP2 SWAP1 SSTORE POP PUSH1 0x0 JUMPDEST PUSH1 0x31 DUP2 PUSH1 0xFF AND GT PUSH2 0x4390 JUMPI CALLER PUSH20 0xFFFFFFFFFFFFFFFFFFFFFFFFFFFFFFFFFFFFFFFF AND PUSH1 0x1 DUP3 PUSH1 0xFF AND PUSH1 0x32 DUP2 LT PUSH2 0x4243 JUMPI INVALID JUMPDEST ADD PUSH1 0x0 SWAP1 SLOAD SWAP1 PUSH2 0x100 EXP SWAP1 DIV PUSH20 0xFFFFFFFFFFFFFFFFFFFFFFFFFFFFFFFFFFFFFFFF AND PUSH20 0xFFFFFFFFFFFFFFFFFFFFFFFFFFFFFFFFFFFFFFFF AND EQ ISZERO PUSH2 0x4383 JUMPI PUSH1 0x6F PUSH1 0x3 ADD PUSH1 0x0 DUP2 SLOAD DUP1 SWAP3 SWAP2 SWAP1 PUSH1 0x1 ADD SWAP2 SWAP1 POP SSTORE POP PUSH1 0x0 PUSH1 0x1 DUP3 PUSH1 0xFF AND PUSH1 0x32 DUP2 LT PUSH2 0x42A8 JUMPI INVALID JUMPDEST ADD PUSH1 0x0 PUSH2 0x100 EXP DUP2 SLOAD DUP2 PUSH20 0xFFFFFFFFFFFFFFFFFFFFFFFFFFFFFFFFFFFFFFFF MUL NOT AND SWAP1 DUP4 PUSH20 0xFFFFFFFFFFFFFFFFFFFFFFFFFFFFFFFFFFFFFFFF AND MUL OR SWAP1 SSTORE POP PUSH1 0x0 CALLER PUSH20 0xFFFFFFFFFFFFFFFFFFFFFFFFFFFFFFFFFFFFFFFF AND PUSH2 0x8FC PUSH1 0x33 SLOAD SWAP1 DUP2 ISZERO MUL SWAP1 PUSH1 0x40 MLOAD PUSH1 0x0 PUSH1 0x40 MLOAD DUP1 DUP4 SUB DUP2 DUP6 DUP9 DUP9 CALL SWAP4 POP POP POP POP SWAP1 POP DUP1 ISZERO PUSH2 0x4381 JUMPI CALLER PUSH20 0xFFFFFFFFFFFFFFFFFFFFFFFFFFFFFFFFFFFFFFFF AND PUSH32 0x7C73022FE9EF1DDFFACFE32AB067B48A23250B0C20FBABEACE91E3CD9E63A9C0 TIMESTAMP PUSH1 0x33 SLOAD PUSH1 0x40 MLOAD DUP1 DUP4 DUP2 MSTORE PUSH1 0x20 ADD DUP3 DUP2 MSTORE PUSH1 0x20 ADD SWAP3 POP POP POP PUSH1 0x40 MLOAD DUP1 SWAP2 SUB SWAP1 LOG2 JUMPDEST POP JUMPDEST DUP1 DUP1 PUSH1 0x1 ADD SWAP2 POP POP PUSH2 0x4211 JUMP JUMPDEST POP PUSH1 0x1 PUSH1 0x0 DUP2 SWAP1 SSTORE POP JUMP JUMPDEST PUSH2 0x43A3 PUSH2 0x5062 JUMP JUMPDEST PUSH1 0x35 PUSH1 0x10 DUP1 PUSH1 0x20 MUL PUSH1 0x40 MLOAD SWAP1 DUP2 ADD PUSH1 0x40 MSTORE DUP1 SWAP3 SWAP2 SWAP1 DUP3 PUSH1 0x10 DUP1 ISZERO PUSH2 0x43DC JUMPI PUSH1 0x20 MUL DUP3 ADD SWAP2 JUMPDEST DUP2 SLOAD DUP2 MSTORE PUSH1 0x20 ADD SWAP1 PUSH1 0x1 ADD SWAP1 DUP1 DUP4 GT PUSH2 0x43C8 JUMPI JUMPDEST POP POP POP POP POP SWAP1 POP SWAP1 JUMP JUMPDEST PUSH1 0x0 DUP1 PUSH1 0x0 DUP4 PUSH1 0xFF AND GT DUP1 ISZERO PUSH2 0x4401 JUMPI POP PUSH1 0x69 SLOAD DUP4 PUSH1 0xFF AND GT ISZERO JUMPDEST PUSH2 0x4473 JUMPI PUSH1 0x40 MLOAD PUSH32 0x8C379A000000000000000000000000000000000000000000000000000000000 DUP2 MSTORE PUSH1 0x4 ADD DUP1 DUP1 PUSH1 0x20 ADD DUP3 DUP2 SUB DUP3 MSTORE PUSH1 0xD DUP2 MSTORE PUSH1 0x20 ADD DUP1 PUSH32 0x496E76616C696420726F756E6400000000000000000000000000000000000000 DUP2 MSTORE POP PUSH1 0x20 ADD SWAP2 POP POP PUSH1 0x40 MLOAD DUP1 SWAP2 SUB SWAP1 REVERT JUMPDEST PUSH1 0x6B PUSH1 0x0 DUP6 PUSH20 0xFFFFFFFFFFFFFFFFFFFFFFFFFFFFFFFFFFFFFFFF AND PUSH20 0xFFFFFFFFFFFFFFFFFFFFFFFFFFFFFFFFFFFFFFFF AND DUP2 MSTORE PUSH1 0x20 ADD SWAP1 DUP2 MSTORE PUSH1 0x20 ADD PUSH1 0x0 KECCAK256 PUSH1 0x7 ADD PUSH1 0x0 DUP5 PUSH1 0xFF AND PUSH1 0xFF AND DUP2 MSTORE PUSH1 0x20 ADD SWAP1 DUP2 MSTORE PUSH1 0x20 ADD PUSH1 0x0 KECCAK256 PUSH1 0x0 ADD PUSH1 0x6 SWAP1 SLOAD SWAP1 PUSH2 0x100 EXP SWAP1 DIV PUSH1 0xFF AND PUSH2 0x44ED JUMPI PUSH1 0x0 DUP1 SWAP2 POP SWAP2 POP PUSH2 0x4612 JUMP JUMPDEST PUSH1 0x0 DUP1 PUSH1 0x6E PUSH1 0x0 DUP7 PUSH1 0xFF AND PUSH1 0xFF AND DUP2 MSTORE PUSH1 0x20 ADD SWAP1 DUP2 MSTORE PUSH1 0x20 ADD PUSH1 0x0 KECCAK256 SLOAD SWAP1 POP JUMPDEST PUSH1 0x6D PUSH1 0x0 DUP7 PUSH1 0xFF AND PUSH1 0xFF AND DUP2 MSTORE PUSH1 0x20 ADD SWAP1 DUP2 MSTORE PUSH1 0x20 ADD PUSH1 0x0 KECCAK256 DUP1 SLOAD SWAP1 POP DUP2 LT ISZERO PUSH2 0x460C JUMPI DUP2 DUP1 PUSH1 0x1 ADD SWAP3 POP POP DUP6 PUSH20 0xFFFFFFFFFFFFFFFFFFFFFFFFFFFFFFFFFFFFFFFF AND PUSH1 0x6D PUSH1 0x0 DUP8 PUSH1 0xFF AND PUSH1 0xFF AND DUP2 MSTORE PUSH1 0x20 ADD SWAP1 DUP2 MSTORE PUSH1 0x20 ADD PUSH1 0x0 KECCAK256 DUP3 DUP2 SLOAD DUP2 LT PUSH2 0x4574 JUMPI INVALID JUMPDEST SWAP1 PUSH1 0x0 MSTORE PUSH1 0x20 PUSH1 0x0 KECCAK256 ADD PUSH1 0x0 SWAP1 SLOAD SWAP1 PUSH2 0x100 EXP SWAP1 DIV PUSH20 0xFFFFFFFFFFFFFFFFFFFFFFFFFFFFFFFFFFFFFFFF AND PUSH20 0xFFFFFFFFFFFFFFFFFFFFFFFFFFFFFFFFFFFFFFFF AND EQ ISZERO PUSH2 0x45FF JUMPI DUP2 PUSH1 0x6E PUSH1 0x0 DUP8 PUSH1 0xFF AND PUSH1 0xFF AND DUP2 MSTORE PUSH1 0x20 ADD SWAP1 DUP2 MSTORE PUSH1 0x20 ADD PUSH1 0x0 KECCAK256 SLOAD PUSH1 0x6D PUSH1 0x0 DUP9 PUSH1 0xFF AND PUSH1 0xFF AND DUP2 MSTORE PUSH1 0x20 ADD SWAP1 DUP2 MSTORE PUSH1 0x20 ADD PUSH1 0x0 KECCAK256 DUP1 SLOAD SWAP1 POP SUB SWAP4 POP SWAP4 POP POP POP PUSH2 0x4612 JUMP JUMPDEST DUP1 DUP1 PUSH1 0x1 ADD SWAP2 POP POP PUSH2 0x450D JUMP JUMPDEST POP PUSH1 0x0 DUP1 REVERT JUMPDEST SWAP3 POP SWAP3 SWAP1 POP JUMP JUMPDEST PUSH1 0x7 DUP2 JUMP JUMPDEST PUSH1 0x33 SLOAD DUP2 JUMP JUMPDEST PUSH1 0x0 PUSH1 0x6B PUSH1 0x0 DUP6 PUSH20 0xFFFFFFFFFFFFFFFFFFFFFFFFFFFFFFFFFFFFFFFF AND PUSH20 0xFFFFFFFFFFFFFFFFFFFFFFFFFFFFFFFFFFFFFFFF AND DUP2 MSTORE PUSH1 0x20 ADD SWAP1 DUP2 MSTORE PUSH1 0x20 ADD PUSH1 0x0 KECCAK256 PUSH1 0x2 ADD PUSH1 0x0 SWAP1 SLOAD SWAP1 PUSH2 0x100 EXP SWAP1 DIV PUSH20 0xFFFFFFFFFFFFFFFFFFFFFFFFFFFFFFFFFFFFFFFF AND SWAP1 POP PUSH1 0x6B PUSH1 0x0 DUP3 PUSH20 0xFFFFFFFFFFFFFFFFFFFFFFFFFFFFFFFFFFFFFFFF AND PUSH20 0xFFFFFFFFFFFFFFFFFFFFFFFFFFFFFFFFFFFFFFFF AND DUP2 MSTORE PUSH1 0x20 ADD SWAP1 DUP2 MSTORE PUSH1 0x20 ADD PUSH1 0x0 KECCAK256 PUSH1 0x7 ADD PUSH1 0x0 DUP5 PUSH1 0xFF AND PUSH1 0xFF AND DUP2 MSTORE PUSH1 0x20 ADD SWAP1 DUP2 MSTORE PUSH1 0x20 ADD PUSH1 0x0 KECCAK256 PUSH1 0x0 ADD PUSH1 0x6 SWAP1 SLOAD SWAP1 PUSH2 0x100 EXP SWAP1 DIV PUSH1 0xFF AND PUSH2 0x48CE JUMPI DUP2 PUSH1 0x6B PUSH1 0x0 DUP4 PUSH20 0xFFFFFFFFFFFFFFFFFFFFFFFFFFFFFFFFFFFFFFFF AND PUSH20 0xFFFFFFFFFFFFFFFFFFFFFFFFFFFFFFFFFFFFFFFF AND DUP2 MSTORE PUSH1 0x20 ADD SWAP1 DUP2 MSTORE PUSH1 0x20 ADD PUSH1 0x0 KECCAK256 PUSH1 0x6 ADD PUSH1 0x0 DUP3 DUP3 SLOAD ADD SWAP3 POP POP DUP2 SWAP1 SSTORE POP DUP2 PUSH1 0x6B PUSH1 0x0 DUP4 PUSH20 0xFFFFFFFFFFFFFFFFFFFFFFFFFFFFFFFFFFFFFFFF AND PUSH20 0xFFFFFFFFFFFFFFFFFFFFFFFFFFFFFFFFFFFFFFFF AND DUP2 MSTORE PUSH1 0x20 ADD SWAP1 DUP2 MSTORE PUSH1 0x20 ADD PUSH1 0x0 KECCAK256 PUSH1 0x7 ADD PUSH1 0x0 DUP6 PUSH1 0xFF AND PUSH1 0xFF AND DUP2 MSTORE PUSH1 0x20 ADD SWAP1 DUP2 MSTORE PUSH1 0x20 ADD PUSH1 0x0 KECCAK256 PUSH1 0x5 ADD PUSH1 0x0 DUP3 DUP3 SLOAD ADD SWAP3 POP POP DUP2 SWAP1 SSTORE POP DUP1 PUSH20 0xFFFFFFFFFFFFFFFFFFFFFFFFFFFFFFFFFFFFFFFF AND PUSH32 0x883BF1F67528BDC0CBAA14CB71F54E9F4E65EC49ECEAF639CB93A9E50AEFC4C TIMESTAMP PUSH1 0x6B PUSH1 0x0 DUP6 PUSH20 0xFFFFFFFFFFFFFFFFFFFFFFFFFFFFFFFFFFFFFFFF AND PUSH20 0xFFFFFFFFFFFFFFFFFFFFFFFFFFFFFFFFFFFFFFFF AND DUP2 MSTORE PUSH1 0x20 ADD SWAP1 DUP2 MSTORE PUSH1 0x20 ADD PUSH1 0x0 KECCAK256 PUSH1 0x0 ADD SLOAD PUSH1 0x6B PUSH1 0x0 DUP10 PUSH20 0xFFFFFFFFFFFFFFFFFFFFFFFFFFFFFFFFFFFFFFFF AND PUSH20 0xFFFFFFFFFFFFFFFFFFFFFFFFFFFFFFFFFFFFFFFF AND DUP2 MSTORE PUSH1 0x20 ADD SWAP1 DUP2 MSTORE PUSH1 0x20 ADD PUSH1 0x0 KECCAK256 PUSH1 0x0 ADD SLOAD DUP8 DUP8 PUSH1 0x40 MLOAD DUP1 DUP7 DUP2 MSTORE PUSH1 0x20 ADD DUP6 DUP2 MSTORE PUSH1 0x20 ADD DUP5 DUP2 MSTORE PUSH1 0x20 ADD DUP4 PUSH1 0xFF AND DUP2 MSTORE PUSH1 0x20 ADD DUP3 DUP2 MSTORE PUSH1 0x20 ADD SWAP6 POP POP POP POP POP POP PUSH1 0x40 MLOAD DUP1 SWAP2 SUB SWAP1 LOG2 PUSH1 0x66 PUSH1 0x2 SWAP1 SLOAD SWAP1 PUSH2 0x100 EXP SWAP1 DIV PUSH20 0xFFFFFFFFFFFFFFFFFFFFFFFFFFFFFFFFFFFFFFFF AND SWAP1 POP JUMPDEST PUSH1 0x0 DUP2 PUSH20 0xFFFFFFFFFFFFFFFFFFFFFFFFFFFFFFFFFFFFFFFF AND PUSH2 0x8FC DUP5 SWAP1 DUP2 ISZERO MUL SWAP1 PUSH1 0x40 MLOAD PUSH1 0x0 PUSH1 0x40 MLOAD DUP1 DUP4 SUB DUP2 DUP6 DUP9 DUP9 CALL SWAP4 POP POP POP POP SWAP1 POP DUP1 ISZERO PUSH2 0x4AC1 JUMPI DUP3 PUSH1 0x6B PUSH1 0x0 DUP5 PUSH20 0xFFFFFFFFFFFFFFFFFFFFFFFFFFFFFFFFFFFFFFFF AND PUSH20 0xFFFFFFFFFFFFFFFFFFFFFFFFFFFFFFFFFFFFFFFF AND DUP2 MSTORE PUSH1 0x20 ADD SWAP1 DUP2 MSTORE PUSH1 0x20 ADD PUSH1 0x0 KECCAK256 PUSH1 0x7 ADD PUSH1 0x0 DUP7 PUSH1 0xFF AND PUSH1 0xFF AND DUP2 MSTORE PUSH1 0x20 ADD SWAP1 DUP2 MSTORE PUSH1 0x20 ADD PUSH1 0x0 KECCAK256 PUSH1 0x2 ADD PUSH1 0x0 DUP3 DUP3 SLOAD ADD SWAP3 POP POP DUP2 SWAP1 SSTORE POP DUP3 PUSH1 0x6B PUSH1 0x0 DUP5 PUSH20 0xFFFFFFFFFFFFFFFFFFFFFFFFFFFFFFFFFFFFFFFF AND PUSH20 0xFFFFFFFFFFFFFFFFFFFFFFFFFFFFFFFFFFFFFFFF AND DUP2 MSTORE PUSH1 0x20 ADD SWAP1 DUP2 MSTORE PUSH1 0x20 ADD PUSH1 0x0 KECCAK256 PUSH1 0x4 ADD PUSH1 0x0 DUP3 DUP3 SLOAD ADD SWAP3 POP POP DUP2 SWAP1 SSTORE POP DUP2 PUSH20 0xFFFFFFFFFFFFFFFFFFFFFFFFFFFFFFFFFFFFFFFF AND PUSH32 0xED8E24E8C3D702AAE6EC32D5D8FBB15B20E1905FCD8E9A2313DFF009A821750 TIMESTAMP PUSH1 0x6B PUSH1 0x0 DUP7 PUSH20 0xFFFFFFFFFFFFFFFFFFFFFFFFFFFFFFFFFFFFFFFF AND PUSH20 0xFFFFFFFFFFFFFFFFFFFFFFFFFFFFFFFFFFFFFFFF AND DUP2 MSTORE PUSH1 0x20 ADD SWAP1 DUP2 MSTORE PUSH1 0x20 ADD PUSH1 0x0 KECCAK256 PUSH1 0x0 ADD SLOAD PUSH1 0x6B PUSH1 0x0 DUP11 PUSH20 0xFFFFFFFFFFFFFFFFFFFFFFFFFFFFFFFFFFFFFFFF AND PUSH20 0xFFFFFFFFFFFFFFFFFFFFFFFFFFFFFFFFFFFFFFFF AND DUP2 MSTORE PUSH1 0x20 ADD SWAP1 DUP2 MSTORE PUSH1 0x20 ADD PUSH1 0x0 KECCAK256 PUSH1 0x0 ADD SLOAD DUP9 DUP9 PUSH1 0x40 MLOAD DUP1 DUP7 DUP2 MSTORE PUSH1 0x20 ADD DUP6 DUP2 MSTORE PUSH1 0x20 ADD DUP5 DUP2 MSTORE PUSH1 0x20 ADD DUP4 PUSH1 0xFF AND DUP2 MSTORE PUSH1 0x20 ADD DUP3 DUP2 MSTORE PUSH1 0x20 ADD SWAP6 POP POP POP POP POP POP PUSH1 0x40 MLOAD DUP1 SWAP2 SUB SWAP1 LOG2 PUSH2 0x4B2B JUMP JUMPDEST PUSH1 0x66 PUSH1 0x2 SWAP1 SLOAD SWAP1 PUSH2 0x100 EXP SWAP1 DIV PUSH20 0xFFFFFFFFFFFFFFFFFFFFFFFFFFFFFFFFFFFFFFFF AND PUSH20 0xFFFFFFFFFFFFFFFFFFFFFFFFFFFFFFFFFFFFFFFF AND PUSH2 0x8FC DUP5 SWAP1 DUP2 ISZERO MUL SWAP1 PUSH1 0x40 MLOAD PUSH1 0x0 PUSH1 0x40 MLOAD DUP1 DUP4 SUB DUP2 DUP6 DUP9 DUP9 CALL SWAP4 POP POP POP POP ISZERO DUP1 ISZERO PUSH2 0x4B29 JUMPI RETURNDATASIZE PUSH1 0x0 DUP1 RETURNDATACOPY RETURNDATASIZE PUSH1 0x0 REVERT JUMPDEST POP JUMPDEST POP POP POP POP POP JUMP JUMPDEST PUSH1 0x0 PUSH1 0x6B PUSH1 0x0 DUP6 PUSH20 0xFFFFFFFFFFFFFFFFFFFFFFFFFFFFFFFFFFFFFFFF AND PUSH20 0xFFFFFFFFFFFFFFFFFFFFFFFFFFFFFFFFFFFFFFFF AND DUP2 MSTORE PUSH1 0x20 ADD SWAP1 DUP2 MSTORE PUSH1 0x20 ADD PUSH1 0x0 KECCAK256 PUSH1 0x2 ADD PUSH1 0x0 SWAP1 SLOAD SWAP1 PUSH2 0x100 EXP SWAP1 DIV PUSH20 0xFFFFFFFFFFFFFFFFFFFFFFFFFFFFFFFFFFFFFFFF AND SWAP1 POP PUSH1 0x6B PUSH1 0x0 DUP3 PUSH20 0xFFFFFFFFFFFFFFFFFFFFFFFFFFFFFFFFFFFFFFFF AND PUSH20 0xFFFFFFFFFFFFFFFFFFFFFFFFFFFFFFFFFFFFFFFF AND DUP2 MSTORE PUSH1 0x20 ADD SWAP1 DUP2 MSTORE PUSH1 0x20 ADD PUSH1 0x0 KECCAK256 PUSH1 0x7 ADD PUSH1 0x0 DUP5 PUSH1 0xFF AND PUSH1 0xFF AND DUP2 MSTORE PUSH1 0x20 ADD SWAP1 DUP2 MSTORE PUSH1 0x20 ADD PUSH1 0x0 KECCAK256 PUSH1 0x0 ADD PUSH1 0x6 SWAP1 SLOAD SWAP1 PUSH2 0x100 EXP SWAP1 DIV PUSH1 0xFF AND PUSH2 0x4DDC JUMPI DUP2 PUSH1 0x6B PUSH1 0x0 DUP4 PUSH20 0xFFFFFFFFFFFFFFFFFFFFFFFFFFFFFFFFFFFFFFFF AND PUSH20 0xFFFFFFFFFFFFFFFFFFFFFFFFFFFFFFFFFFFFFFFF AND DUP2 MSTORE PUSH1 0x20 ADD SWAP1 DUP2 MSTORE PUSH1 0x20 ADD PUSH1 0x0 KECCAK256 PUSH1 0x6 ADD PUSH1 0x0 DUP3 DUP3 SLOAD ADD SWAP3 POP POP DUP2 SWAP1 SSTORE POP DUP2 PUSH1 0x6B PUSH1 0x0 DUP4 PUSH20 0xFFFFFFFFFFFFFFFFFFFFFFFFFFFFFFFFFFFFFFFF AND PUSH20 0xFFFFFFFFFFFFFFFFFFFFFFFFFFFFFFFFFFFFFFFF AND DUP2 MSTORE PUSH1 0x20 ADD SWAP1 DUP2 MSTORE PUSH1 0x20 ADD PUSH1 0x0 KECCAK256 PUSH1 0x7 ADD PUSH1 0x0 DUP6 PUSH1 0xFF AND PUSH1 0xFF AND DUP2 MSTORE PUSH1 0x20 ADD SWAP1 DUP2 MSTORE PUSH1 0x20 ADD PUSH1 0x0 KECCAK256 PUSH1 0x4 ADD PUSH1 0x0 DUP3 DUP3 SLOAD ADD SWAP3 POP POP DUP2 SWAP1 SSTORE POP DUP1 PUSH20 0xFFFFFFFFFFFFFFFFFFFFFFFFFFFFFFFFFFFFFFFF AND PUSH32 0x71571CFDF540D399D1A547446D2F4090641FC35AE5BF0FA7148C5368A7D5912E TIMESTAMP PUSH1 0x6B PUSH1 0x0 DUP6 PUSH20 0xFFFFFFFFFFFFFFFFFFFFFFFFFFFFFFFFFFFFFFFF AND PUSH20 0xFFFFFFFFFFFFFFFFFFFFFFFFFFFFFFFFFFFFFFFF AND DUP2 MSTORE PUSH1 0x20 ADD SWAP1 DUP2 MSTORE PUSH1 0x20 ADD PUSH1 0x0 KECCAK256 PUSH1 0x0 ADD SLOAD PUSH1 0x6B PUSH1 0x0 DUP10 PUSH20 0xFFFFFFFFFFFFFFFFFFFFFFFFFFFFFFFFFFFFFFFF AND PUSH20 0xFFFFFFFFFFFFFFFFFFFFFFFFFFFFFFFFFFFFFFFF AND DUP2 MSTORE PUSH1 0x20 ADD SWAP1 DUP2 MSTORE PUSH1 0x20 ADD PUSH1 0x0 KECCAK256 PUSH1 0x0 ADD SLOAD DUP8 DUP8 PUSH1 0x40 MLOAD DUP1 DUP7 DUP2 MSTORE PUSH1 0x20 ADD DUP6 DUP2 MSTORE PUSH1 0x20 ADD DUP5 DUP2 MSTORE PUSH1 0x20 ADD DUP4 PUSH1 0xFF AND DUP2 MSTORE PUSH1 0x20 ADD DUP3 DUP2 MSTORE PUSH1 0x20 ADD SWAP6 POP POP POP POP POP POP PUSH1 0x40 MLOAD DUP1 SWAP2 SUB SWAP1 LOG2 PUSH1 0x66 PUSH1 0x2 SWAP1 SLOAD SWAP1 PUSH2 0x100 EXP SWAP1 DIV PUSH20 0xFFFFFFFFFFFFFFFFFFFFFFFFFFFFFFFFFFFFFFFF AND SWAP1 POP JUMPDEST PUSH1 0x0 DUP2 PUSH20 0xFFFFFFFFFFFFFFFFFFFFFFFFFFFFFFFFFFFFFFFF AND PUSH2 0x8FC DUP5 SWAP1 DUP2 ISZERO MUL SWAP1 PUSH1 0x40 MLOAD PUSH1 0x0 PUSH1 0x40 MLOAD DUP1 DUP4 SUB DUP2 DUP6 DUP9 DUP9 CALL SWAP4 POP POP POP POP SWAP1 POP DUP1 ISZERO PUSH2 0x4FCF JUMPI DUP3 PUSH1 0x6B PUSH1 0x0 DUP5 PUSH20 0xFFFFFFFFFFFFFFFFFFFFFFFFFFFFFFFFFFFFFFFF AND PUSH20 0xFFFFFFFFFFFFFFFFFFFFFFFFFFFFFFFFFFFFFFFF AND DUP2 MSTORE PUSH1 0x20 ADD SWAP1 DUP2 MSTORE PUSH1 0x20 ADD PUSH1 0x0 KECCAK256 PUSH1 0x7 ADD PUSH1 0x0 DUP7 PUSH1 0xFF AND PUSH1 0xFF AND DUP2 MSTORE PUSH1 0x20 ADD SWAP1 DUP2 MSTORE PUSH1 0x20 ADD PUSH1 0x0 KECCAK256 PUSH1 0x2 ADD PUSH1 0x0 DUP3 DUP3 SLOAD ADD SWAP3 POP POP DUP2 SWAP1 SSTORE POP DUP3 PUSH1 0x6B PUSH1 0x0 DUP5 PUSH20 0xFFFFFFFFFFFFFFFFFFFFFFFFFFFFFFFFFFFFFFFF AND PUSH20 0xFFFFFFFFFFFFFFFFFFFFFFFFFFFFFFFFFFFFFFFF AND DUP2 MSTORE PUSH1 0x20 ADD SWAP1 DUP2 MSTORE PUSH1 0x20 ADD PUSH1 0x0 KECCAK256 PUSH1 0x4 ADD PUSH1 0x0 DUP3 DUP3 SLOAD ADD SWAP3 POP POP DUP2 SWAP1 SSTORE POP DUP2 PUSH20 0xFFFFFFFFFFFFFFFFFFFFFFFFFFFFFFFFFFFFFFFF AND PUSH32 0xADBEAD61ED0E78434AF1793FE9C549F995680CCC1D4CC2015E78BFFC67B7B181 TIMESTAMP PUSH1 0x6B PUSH1 0x0 DUP7 PUSH20 0xFFFFFFFFFFFFFFFFFFFFFFFFFFFFFFFFFFFFFFFF AND PUSH20 0xFFFFFFFFFFFFFFFFFFFFFFFFFFFFFFFFFFFFFFFF AND DUP2 MSTORE PUSH1 0x20 ADD SWAP1 DUP2 MSTORE PUSH1 0x20 ADD PUSH1 0x0 KECCAK256 PUSH1 0x0 ADD SLOAD PUSH1 0x6B PUSH1 0x0 DUP11 PUSH20 0xFFFFFFFFFFFFFFFFFFFFFFFFFFFFFFFFFFFFFFFF AND PUSH20 0xFFFFFFFFFFFFFFFFFFFFFFFFFFFFFFFFFFFFFFFF AND DUP2 MSTORE PUSH1 0x20 ADD SWAP1 DUP2 MSTORE PUSH1 0x20 ADD PUSH1 0x0 KECCAK256 PUSH1 0x0 ADD SLOAD DUP9 DUP9 PUSH1 0x40 MLOAD DUP1 DUP7 DUP2 MSTORE PUSH1 0x20 ADD DUP6 DUP2 MSTORE PUSH1 0x20 ADD DUP5 DUP2 MSTORE PUSH1 0x20 ADD DUP4 PUSH1 0xFF AND DUP2 MSTORE PUSH1 0x20 ADD DUP3 DUP2 MSTORE PUSH1 0x20 ADD SWAP6 POP POP POP POP POP POP PUSH1 0x40 MLOAD DUP1 SWAP2 SUB SWAP1 LOG2 PUSH2 0x5039 JUMP JUMPDEST PUSH1 0x66 PUSH1 0x2 SWAP1 SLOAD SWAP1 PUSH2 0x100 EXP SWAP1 DIV PUSH20 0xFFFFFFFFFFFFFFFFFFFFFFFFFFFFFFFFFFFFFFFF AND PUSH20 0xFFFFFFFFFFFFFFFFFFFFFFFFFFFFFFFFFFFFFFFF AND PUSH2 0x8FC DUP5 SWAP1 DUP2 ISZERO MUL SWAP1 PUSH1 0x40 MLOAD PUSH1 0x0 PUSH1 0x40 MLOAD DUP1 DUP4 SUB DUP2 DUP6 DUP9 DUP9 CALL SWAP4 POP POP POP POP ISZERO DUP1 ISZERO PUSH2 0x5037 JUMPI RETURNDATASIZE PUSH1 0x0 DUP1 RETURNDATACOPY RETURNDATASIZE PUSH1 0x0 REVERT JUMPDEST POP JUMPDEST POP POP POP POP POP JUMP JUMPDEST PUSH1 0x40 MLOAD DUP1 PUSH1 0xA0 ADD PUSH1 0x40 MSTORE DUP1 PUSH1 0x5 SWAP1 PUSH1 0x20 DUP3 MUL DUP1 CALLDATASIZE DUP4 CALLDATACOPY DUP1 DUP3 ADD SWAP2 POP POP SWAP1 POP POP SWAP1 JUMP JUMPDEST PUSH1 0x40 MLOAD DUP1 PUSH2 0x200 ADD PUSH1 0x40 MSTORE DUP1 PUSH1 0x10 SWAP1 PUSH1 0x20 DUP3 MUL DUP1 CALLDATASIZE DUP4 CALLDATACOPY DUP1 DUP3 ADD SWAP2 POP POP SWAP1 POP POP SWAP1 JUMP JUMPDEST PUSH1 0x40 MLOAD DUP1 PUSH2 0x120 ADD PUSH1 0x40 MSTORE DUP1 PUSH1 0x0 DUP2 MSTORE PUSH1 0x20 ADD PUSH1 0x0 DUP2 MSTORE PUSH1 0x20 ADD PUSH1 0x0 PUSH20 0xFFFFFFFFFFFFFFFFFFFFFFFFFFFFFFFFFFFFFFFF AND DUP2 MSTORE PUSH1 0x20 ADD PUSH1 0x0 DUP2 MSTORE PUSH1 0x20 ADD PUSH1 0x0 DUP2 MSTORE PUSH1 0x20 ADD PUSH1 0x0 DUP2 MSTORE PUSH1 0x20 ADD PUSH1 0x0 DUP2 MSTORE PUSH1 0x20 ADD PUSH1 0x0 PUSH1 0xFF AND DUP2 MSTORE PUSH1 0x20 ADD PUSH1 0x0 DUP2 MSTORE POP SWAP1 JUMP JUMPDEST PUSH1 0x40 MLOAD DUP1 PUSH2 0x640 ADD PUSH1 0x40 MSTORE DUP1 PUSH1 0x32 SWAP1 PUSH1 0x20 DUP3 MUL DUP1 CALLDATASIZE DUP4 CALLDATACOPY DUP1 DUP3 ADD SWAP2 POP POP SWAP1 POP POP SWAP1 JUMP INVALID NUMBER PUSH2 0x6E27 PUSH21 0x2066696E6420726F756E6420746F206275792E204D PUSH2 0x7962 PUSH6 0x2073656E7420 PUSH23 0x616C756520697320696E76616C69642EA2646970667358 0x22 SLT KECCAK256 0xAD 0xE9 MUL MOD DUP9 0x26 JUMPDEST 0xDE AND SWAP1 SDIV PUSH29 0x614CD3097E1E4785C044EC7F849B379ECD134F3264736F6C634300060C STOP CALLER "
				},
				"gasEstimates": {
					"creation": {
						"codeDepositCost": "4171200",
						"executionCost": "infinite",
						"totalCost": "infinite"
					},
					"external": {
						"Lottery(uint256)": "infinite",
						"RoiRounds(uint256)": "1175",
						"buyFirstRound(address)": "infinite",
						"buyround(uint8)": "infinite",
						"calcSecretPrize(uint8)": "infinite",
						"getContractBalance()": "305",
						"getGlobalStatistic()": "infinite",
						"getLotteryWiner()": "infinite",
						"getPlaceInQueue(address,uint8)": "infinite",
						"getPrize()": "infinite",
						"getReferrer(address)": "2343",
						"getReferrerId(address)": "2258",
						"getRoiRound()": "infinite",
						"getUser(address)": "9543",
						"getUserAddressById(uint256)": "1265",
						"getUserIdByAddress(address)": "1314",
						"getUserrounds(address)": "infinite",
						"getUserroundsMissedProfit(address)": "infinite",
						"getroundPrices()": "infinite",
						"gettimeRoundEnd()": "infinite",
						"income()": "254",
						"isContract(address)": "1109",
						"isUserRegistered(address)": "1308",
						"lastTimeActivation(address)": "1236",
						"marketing()": "1093",
						"marketingPercents()": "321",
						"nextWinerSecretGame(uint256)": "1250",
						"owner()": "1186",
						"referralRewardPercents()": "1092",
						"referralRewardProfitPercents()": "1142",
						"register()": "infinite",
						"registerWithReferrer(address)": "infinite",
						"registrationPrice()": "251",
						"rewardPayouts()": "345",
						"rewardPercents()": "344",
						"roundPrice(uint256)": "2113",
						"timeLottery()": "1117",
						"timeRoudsEnd(uint256)": "1240",
						"todayWiner(uint256)": "1295",
						"todayWinerValue()": "1137"
					},
					"internal": {
						"sendPostRewardToReferrer(address,uint8,uint256)": "infinite",
						"sendRewardToReferrer(address,uint8,uint256)": "infinite"
					}
				},
				"methodIdentifiers": {
					"Lottery(uint256)": "950fabf3",
					"RoiRounds(uint256)": "693864f3",
					"buyFirstRound(address)": "b3791e7f",
					"buyround(uint8)": "5a8a14d0",
					"calcSecretPrize(uint8)": "375e3b55",
					"getContractBalance()": "6f9fb98a",
					"getGlobalStatistic()": "2a2c908e",
					"getLotteryWiner()": "8c4636c1",
					"getPlaceInQueue(address,uint8)": "cfce5044",
					"getPrize()": "c34f6b0d",
					"getReferrer(address)": "4a9fefc7",
					"getReferrerId(address)": "bd4b77ee",
					"getRoiRound()": "c8e161a1",
					"getUser(address)": "6f77926b",
					"getUserAddressById(uint256)": "8a03ad86",
					"getUserIdByAddress(address)": "385399f9",
					"getUserrounds(address)": "230f7f82",
					"getUserroundsMissedProfit(address)": "5c279ff9",
					"getroundPrices()": "01b91a17",
					"gettimeRoundEnd()": "3336b63e",
					"income()": "88b45046",
					"isContract(address)": "16279055",
					"isUserRegistered(address)": "163f7522",
					"lastTimeActivation(address)": "a9a9cfe0",
					"marketing()": "2d3e474a",
					"marketingPercents()": "eca2c026",
					"nextWinerSecretGame(uint256)": "26efd443",
					"owner()": "8da5cb5b",
					"referralRewardPercents()": "4cdbe908",
					"referralRewardProfitPercents()": "a7345f56",
					"register()": "1aa3a008",
					"registerWithReferrer(address)": "968763a0",
					"registrationPrice()": "21658658",
					"rewardPayouts()": "2cc8da43",
					"rewardPercents()": "bfe24893",
					"roundPrice(uint256)": "5d7b1cc9",
					"timeLottery()": "7ccd94da",
					"timeRoudsEnd(uint256)": "5ce974b9",
					"todayWiner(uint256)": "1dfd8fe0",
					"todayWinerValue()": "f21efb5b"
				}
			},
			"storageLayout": {
				"storage": [
					{
						"astId": 9,
						"contract": "contract/lottery.sol:LotteryWCA",
						"label": "_status",
						"offset": 0,
						"slot": "0",
						"type": "t_uint256"
					},
					{
						"astId": 43,
						"contract": "contract/lottery.sol:LotteryWCA",
						"label": "todayWiner",
						"offset": 0,
						"slot": "1",
						"type": "t_array(t_address)50_storage"
					},
					{
						"astId": 45,
						"contract": "contract/lottery.sol:LotteryWCA",
						"label": "todayWinerValue",
						"offset": 0,
						"slot": "51",
						"type": "t_uint256"
					},
					{
						"astId": 47,
						"contract": "contract/lottery.sol:LotteryWCA",
						"label": "timeLottery",
						"offset": 0,
						"slot": "52",
						"type": "t_uint256"
					},
					{
						"astId": 51,
						"contract": "contract/lottery.sol:LotteryWCA",
						"label": "RoiRounds",
						"offset": 0,
						"slot": "53",
						"type": "t_array(t_uint256)16_storage"
					},
					{
						"astId": 55,
						"contract": "contract/lottery.sol:LotteryWCA",
						"label": "timeRoudsEnd",
						"offset": 0,
						"slot": "69",
						"type": "t_array(t_uint256)16_storage"
					},
					{
						"astId": 59,
						"contract": "contract/lottery.sol:LotteryWCA",
						"label": "nextWinerSecretGame",
						"offset": 0,
						"slot": "85",
						"type": "t_array(t_address)16_storage"
					},
					{
						"astId": 63,
						"contract": "contract/lottery.sol:LotteryWCA",
						"label": "lastTimeActivation",
						"offset": 0,
						"slot": "101",
						"type": "t_mapping(t_address,t_uint256)"
					},
					{
						"astId": 269,
						"contract": "contract/lottery.sol:LotteryWCA",
						"label": "referralRewardPercents",
						"offset": 0,
						"slot": "102",
						"type": "t_uint8"
					},
					{
						"astId": 272,
						"contract": "contract/lottery.sol:LotteryWCA",
						"label": "referralRewardProfitPercents",
						"offset": 1,
						"slot": "102",
						"type": "t_uint8"
					},
					{
						"astId": 274,
						"contract": "contract/lottery.sol:LotteryWCA",
						"label": "owner",
						"offset": 2,
						"slot": "102",
						"type": "t_address_payable"
					},
					{
						"astId": 276,
						"contract": "contract/lottery.sol:LotteryWCA",
						"label": "marketing",
						"offset": 0,
						"slot": "103",
						"type": "t_address_payable"
					},
					{
						"astId": 296,
						"contract": "contract/lottery.sol:LotteryWCA",
						"label": "roundPrice",
						"offset": 0,
						"slot": "104",
						"type": "t_array(t_uint256)dyn_storage"
					},
					{
						"astId": 302,
						"contract": "contract/lottery.sol:LotteryWCA",
						"label": "totalrounds",
						"offset": 0,
						"slot": "105",
						"type": "t_uint256"
					},
					{
						"astId": 305,
						"contract": "contract/lottery.sol:LotteryWCA",
						"label": "newUserId",
						"offset": 0,
						"slot": "106",
						"type": "t_uint256"
					},
					{
						"astId": 309,
						"contract": "contract/lottery.sol:LotteryWCA",
						"label": "users",
						"offset": 0,
						"slot": "107",
						"type": "t_mapping(t_address,t_struct(User)86_storage)"
					},
					{
						"astId": 313,
						"contract": "contract/lottery.sol:LotteryWCA",
						"label": "usersAddressById",
						"offset": 0,
						"slot": "108",
						"type": "t_mapping(t_uint256,t_address)"
					},
					{
						"astId": 318,
						"contract": "contract/lottery.sol:LotteryWCA",
						"label": "roundQueue",
						"offset": 0,
						"slot": "109",
						"type": "t_mapping(t_uint8,t_array(t_address)dyn_storage)"
					},
					{
						"astId": 322,
						"contract": "contract/lottery.sol:LotteryWCA",
						"label": "headIndex",
						"offset": 0,
						"slot": "110",
						"type": "t_mapping(t_uint8,t_uint256)"
					},
					{
						"astId": 324,
						"contract": "contract/lottery.sol:LotteryWCA",
						"label": "globalStat",
						"offset": 0,
						"slot": "111",
						"type": "t_struct(GlobalStat)114_storage"
					}
				],
				"types": {
					"t_address": {
						"encoding": "inplace",
						"label": "address",
						"numberOfBytes": "20"
					},
					"t_address_payable": {
						"encoding": "inplace",
						"label": "address payable",
						"numberOfBytes": "20"
					},
					"t_array(t_address)16_storage": {
						"base": "t_address",
						"encoding": "inplace",
						"label": "address[16]",
						"numberOfBytes": "512"
					},
					"t_array(t_address)50_storage": {
						"base": "t_address",
						"encoding": "inplace",
						"label": "address[50]",
						"numberOfBytes": "1600"
					},
					"t_array(t_address)dyn_storage": {
						"base": "t_address",
						"encoding": "dynamic_array",
						"label": "address[]",
						"numberOfBytes": "32"
					},
					"t_array(t_uint256)16_storage": {
						"base": "t_uint256",
						"encoding": "inplace",
						"label": "uint256[16]",
						"numberOfBytes": "512"
					},
					"t_array(t_uint256)dyn_storage": {
						"base": "t_uint256",
						"encoding": "dynamic_array",
						"label": "uint256[]",
						"numberOfBytes": "32"
					},
					"t_bool": {
						"encoding": "inplace",
						"label": "bool",
						"numberOfBytes": "1"
					},
					"t_mapping(t_address,t_struct(User)86_storage)": {
						"encoding": "mapping",
						"key": "t_address",
						"label": "mapping(address => struct LotteryWCA.User)",
						"numberOfBytes": "32",
						"value": "t_struct(User)86_storage"
					},
					"t_mapping(t_address,t_uint256)": {
						"encoding": "mapping",
						"key": "t_address",
						"label": "mapping(address => uint256)",
						"numberOfBytes": "32",
						"value": "t_uint256"
					},
					"t_mapping(t_uint256,t_address)": {
						"encoding": "mapping",
						"key": "t_uint256",
						"label": "mapping(uint256 => address)",
						"numberOfBytes": "32",
						"value": "t_address"
					},
					"t_mapping(t_uint8,t_array(t_address)dyn_storage)": {
						"encoding": "mapping",
						"key": "t_uint8",
						"label": "mapping(uint8 => address[])",
						"numberOfBytes": "32",
						"value": "t_array(t_address)dyn_storage"
					},
					"t_mapping(t_uint8,t_struct(UserroundInfo)105_storage)": {
						"encoding": "mapping",
						"key": "t_uint8",
						"label": "mapping(uint8 => struct LotteryWCA.UserroundInfo)",
						"numberOfBytes": "32",
						"value": "t_struct(UserroundInfo)105_storage"
					},
					"t_mapping(t_uint8,t_uint256)": {
						"encoding": "mapping",
						"key": "t_uint8",
						"label": "mapping(uint8 => uint256)",
						"numberOfBytes": "32",
						"value": "t_uint256"
					},
					"t_struct(GlobalStat)114_storage": {
						"encoding": "inplace",
						"label": "struct LotteryWCA.GlobalStat",
						"members": [
							{
								"astId": 107,
								"contract": "contract/lottery.sol:LotteryWCA",
								"label": "members",
								"offset": 0,
								"slot": "0",
								"type": "t_uint256"
							},
							{
								"astId": 109,
								"contract": "contract/lottery.sol:LotteryWCA",
								"label": "transactions",
								"offset": 0,
								"slot": "1",
								"type": "t_uint256"
							},
							{
								"astId": 111,
								"contract": "contract/lottery.sol:LotteryWCA",
								"label": "turnover",
								"offset": 0,
								"slot": "2",
								"type": "t_uint256"
							},
							{
								"astId": 113,
								"contract": "contract/lottery.sol:LotteryWCA",
								"label": "lucky",
								"offset": 0,
								"slot": "3",
								"type": "t_uint256"
							}
						],
						"numberOfBytes": "128"
					},
					"t_struct(User)86_storage": {
						"encoding": "inplace",
						"label": "struct LotteryWCA.User",
						"members": [
							{
								"astId": 65,
								"contract": "contract/lottery.sol:LotteryWCA",
								"label": "id",
								"offset": 0,
								"slot": "0",
								"type": "t_uint256"
							},
							{
								"astId": 67,
								"contract": "contract/lottery.sol:LotteryWCA",
								"label": "registrationTimestamp",
								"offset": 0,
								"slot": "1",
								"type": "t_uint256"
							},
							{
								"astId": 69,
								"contract": "contract/lottery.sol:LotteryWCA",
								"label": "referrer",
								"offset": 0,
								"slot": "2",
								"type": "t_address"
							},
							{
								"astId": 71,
								"contract": "contract/lottery.sol:LotteryWCA",
								"label": "referrals",
								"offset": 0,
								"slot": "3",
								"type": "t_uint256"
							},
							{
								"astId": 73,
								"contract": "contract/lottery.sol:LotteryWCA",
								"label": "referralPayoutSum",
								"offset": 0,
								"slot": "4",
								"type": "t_uint256"
							},
							{
								"astId": 75,
								"contract": "contract/lottery.sol:LotteryWCA",
								"label": "roundsRewardSum",
								"offset": 0,
								"slot": "5",
								"type": "t_uint256"
							},
							{
								"astId": 77,
								"contract": "contract/lottery.sol:LotteryWCA",
								"label": "missedReferralPayoutSum",
								"offset": 0,
								"slot": "6",
								"type": "t_uint256"
							},
							{
								"astId": 81,
								"contract": "contract/lottery.sol:LotteryWCA",
								"label": "rounds",
								"offset": 0,
								"slot": "7",
								"type": "t_mapping(t_uint8,t_struct(UserroundInfo)105_storage)"
							},
							{
								"astId": 83,
								"contract": "contract/lottery.sol:LotteryWCA",
								"label": "maxRound",
								"offset": 0,
								"slot": "8",
								"type": "t_uint8"
							},
							{
								"astId": 85,
								"contract": "contract/lottery.sol:LotteryWCA",
								"label": "turnover",
								"offset": 0,
								"slot": "9",
								"type": "t_uint256"
							}
						],
						"numberOfBytes": "320"
					},
					"t_struct(UserroundInfo)105_storage": {
						"encoding": "inplace",
						"label": "struct LotteryWCA.UserroundInfo",
						"members": [
							{
								"astId": 88,
								"contract": "contract/lottery.sol:LotteryWCA",
								"label": "activationTimes",
								"offset": 0,
								"slot": "0",
								"type": "t_uint16"
							},
							{
								"astId": 90,
								"contract": "contract/lottery.sol:LotteryWCA",
								"label": "maxPayouts",
								"offset": 2,
								"slot": "0",
								"type": "t_uint16"
							},
							{
								"astId": 92,
								"contract": "contract/lottery.sol:LotteryWCA",
								"label": "payouts",
								"offset": 4,
								"slot": "0",
								"type": "t_uint16"
							},
							{
								"astId": 94,
								"contract": "contract/lottery.sol:LotteryWCA",
								"label": "active",
								"offset": 6,
								"slot": "0",
								"type": "t_bool"
							},
							{
								"astId": 96,
								"contract": "contract/lottery.sol:LotteryWCA",
								"label": "rewardSum",
								"offset": 0,
								"slot": "1",
								"type": "t_uint256"
							},
							{
								"astId": 98,
								"contract": "contract/lottery.sol:LotteryWCA",
								"label": "referralPayoutSum",
								"offset": 0,
								"slot": "2",
								"type": "t_uint256"
							},
							{
								"astId": 100,
								"contract": "contract/lottery.sol:LotteryWCA",
								"label": "lastTimeBuyround",
								"offset": 0,
								"slot": "3",
								"type": "t_uint256"
							},
							{
								"astId": 102,
								"contract": "contract/lottery.sol:LotteryWCA",
								"label": "missedRefferalProfit",
								"offset": 0,
								"slot": "4",
								"type": "t_uint256"
							},
							{
								"astId": 104,
								"contract": "contract/lottery.sol:LotteryWCA",
								"label": "missedRefferalPostProfit",
								"offset": 0,
								"slot": "5",
								"type": "t_uint256"
							}
						],
						"numberOfBytes": "192"
					},
					"t_uint16": {
						"encoding": "inplace",
						"label": "uint16",
						"numberOfBytes": "2"
					},
					"t_uint256": {
						"encoding": "inplace",
						"label": "uint256",
						"numberOfBytes": "32"
					},
					"t_uint8": {
						"encoding": "inplace",
						"label": "uint8",
						"numberOfBytes": "1"
					}
				}
			},
			"userdoc": {
				"kind": "user",
				"methods": {},
				"version": 1
			}
		}
	}
}